{
  "_format": "hh-sol-artifact-1",
  "contractName": "DaoRegistry",
  "sourceName": "contracts/core/DaoRegistry.sol",
  "abi": [
    {
      "inputs": [],
      "stateMutability": "nonpayable",
      "type": "constructor"
    },
    {
      "anonymous": false,
      "inputs": [
        {
          "indexed": false,
          "internalType": "bytes32",
          "name": "adapterId",
          "type": "bytes32"
        },
        {
          "indexed": false,
          "internalType": "address",
          "name": "adapterAddress",
          "type": "address"
        },
        {
          "indexed": false,
          "internalType": "uint256",
          "name": "flags",
          "type": "uint256"
        }
      ],
      "name": "AdapterAdded",
      "type": "event"
    },
    {
      "anonymous": false,
      "inputs": [
        {
          "indexed": false,
          "internalType": "bytes32",
          "name": "adapterId",
          "type": "bytes32"
        }
      ],
      "name": "AdapterRemoved",
      "type": "event"
    },
    {
      "anonymous": false,
      "inputs": [
        {
          "indexed": false,
          "internalType": "bytes32",
          "name": "key",
          "type": "bytes32"
        },
        {
          "indexed": false,
          "internalType": "address",
          "name": "value",
          "type": "address"
        }
      ],
      "name": "AddressConfigurationUpdated",
      "type": "event"
    },
    {
      "anonymous": false,
      "inputs": [
        {
          "indexed": false,
          "internalType": "bytes32",
          "name": "key",
          "type": "bytes32"
        },
        {
          "indexed": false,
          "internalType": "uint256",
          "name": "value",
          "type": "uint256"
        }
      ],
      "name": "ConfigurationUpdated",
      "type": "event"
    },
    {
      "anonymous": false,
      "inputs": [
        {
          "indexed": false,
          "internalType": "bytes32",
          "name": "extensionId",
          "type": "bytes32"
        },
        {
          "indexed": false,
          "internalType": "address",
          "name": "extensionAddress",
          "type": "address"
        }
      ],
      "name": "ExtensionAdded",
      "type": "event"
    },
    {
      "anonymous": false,
      "inputs": [
        {
          "indexed": false,
          "internalType": "bytes32",
          "name": "extensionId",
          "type": "bytes32"
        }
      ],
      "name": "ExtensionRemoved",
      "type": "event"
    },
    {
      "anonymous": false,
      "inputs": [
        {
          "indexed": false,
          "internalType": "bytes32",
          "name": "proposalId",
          "type": "bytes32"
        },
        {
          "indexed": false,
          "internalType": "uint256",
          "name": "flags",
          "type": "uint256"
        }
      ],
      "name": "ProcessedProposal",
      "type": "event"
    },
    {
      "anonymous": false,
      "inputs": [
        {
          "indexed": false,
          "internalType": "bytes32",
          "name": "proposalId",
          "type": "bytes32"
        },
        {
          "indexed": false,
          "internalType": "uint256",
          "name": "flags",
          "type": "uint256"
        },
        {
          "indexed": false,
          "internalType": "address",
          "name": "votingAdapter",
          "type": "address"
        }
      ],
      "name": "SponsoredProposal",
      "type": "event"
    },
    {
      "anonymous": false,
      "inputs": [
        {
          "indexed": false,
          "internalType": "bytes32",
          "name": "proposalId",
          "type": "bytes32"
        },
        {
          "indexed": false,
          "internalType": "uint256",
          "name": "flags",
          "type": "uint256"
        }
      ],
      "name": "SubmittedProposal",
      "type": "event"
    },
    {
      "anonymous": false,
      "inputs": [
        {
          "indexed": false,
          "internalType": "address",
          "name": "memberAddress",
          "type": "address"
        },
        {
          "indexed": false,
          "internalType": "address",
          "name": "newDelegateKey",
          "type": "address"
        }
      ],
      "name": "UpdateDelegateKey",
      "type": "event"
    },
    {
      "inputs": [
        {
          "internalType": "bytes32",
          "name": "",
          "type": "bytes32"
        }
      ],
      "name": "adapters",
      "outputs": [
        {
          "internalType": "address",
          "name": "",
          "type": "address"
        }
      ],
      "stateMutability": "view",
      "type": "function"
    },
    {
      "inputs": [
        {
          "internalType": "bytes32",
          "name": "extensionId",
          "type": "bytes32"
        },
        {
          "internalType": "contract IExtension",
          "name": "extension",
          "type": "address"
        },
        {
          "internalType": "address",
          "name": "creator",
          "type": "address"
        }
      ],
      "name": "addExtension",
      "outputs": [],
      "stateMutability": "nonpayable",
      "type": "function"
    },
    {
      "inputs": [
        {
          "internalType": "bytes32",
          "name": "",
          "type": "bytes32"
        }
      ],
      "name": "addressConfiguration",
      "outputs": [
        {
          "internalType": "address",
          "name": "",
          "type": "address"
        }
      ],
      "stateMutability": "view",
      "type": "function"
    },
    {
      "inputs": [],
      "name": "daoCreator",
      "outputs": [
        {
          "internalType": "address",
          "name": "",
          "type": "address"
        }
      ],
      "stateMutability": "view",
      "type": "function"
    },
    {
      "inputs": [],
      "name": "daoFactory",
      "outputs": [
        {
          "internalType": "address",
          "name": "",
          "type": "address"
        }
      ],
      "stateMutability": "view",
      "type": "function"
    },
    {
      "inputs": [
        {
          "internalType": "bytes32",
          "name": "",
          "type": "bytes32"
        }
      ],
      "name": "extensions",
      "outputs": [
        {
          "internalType": "address",
          "name": "",
          "type": "address"
        }
      ],
      "stateMutability": "view",
      "type": "function"
    },
    {
      "inputs": [],
      "name": "finalizeDao",
      "outputs": [],
      "stateMutability": "nonpayable",
      "type": "function"
    },
    {
      "inputs": [
        {
          "internalType": "bytes32",
          "name": "adapterId",
          "type": "bytes32"
        }
      ],
      "name": "getAdapterAddress",
      "outputs": [
        {
          "internalType": "address",
          "name": "",
          "type": "address"
        }
      ],
      "stateMutability": "view",
      "type": "function"
    },
    {
      "inputs": [
        {
          "internalType": "bytes32",
          "name": "key",
          "type": "bytes32"
        }
      ],
      "name": "getAddressConfiguration",
      "outputs": [
        {
          "internalType": "address",
          "name": "",
          "type": "address"
        }
      ],
      "stateMutability": "view",
      "type": "function"
    },
    {
      "inputs": [
        {
          "internalType": "address",
          "name": "checkAddr",
          "type": "address"
        }
      ],
      "name": "getAddressIfDelegated",
      "outputs": [
        {
          "internalType": "address",
          "name": "",
          "type": "address"
        }
      ],
      "stateMutability": "view",
      "type": "function"
    },
    {
      "inputs": [],
      "name": "getAllSteward",
      "outputs": [
        {
          "internalType": "address[]",
          "name": "",
          "type": "address[]"
        }
      ],
      "stateMutability": "view",
      "type": "function"
    },
    {
      "inputs": [
        {
          "internalType": "bytes32",
          "name": "key",
          "type": "bytes32"
        }
      ],
      "name": "getConfiguration",
      "outputs": [
        {
          "internalType": "uint256",
          "name": "",
          "type": "uint256"
        }
      ],
      "stateMutability": "view",
      "type": "function"
    },
    {
      "inputs": [
        {
          "internalType": "address",
          "name": "memberAddr",
          "type": "address"
        }
      ],
      "name": "getCurrentDelegateKey",
      "outputs": [
        {
          "internalType": "address",
          "name": "",
          "type": "address"
        }
      ],
      "stateMutability": "view",
      "type": "function"
    },
    {
      "inputs": [],
      "name": "getCurrentFeeProposalId",
      "outputs": [
        {
          "internalType": "uint256",
          "name": "",
          "type": "uint256"
        }
      ],
      "stateMutability": "view",
      "type": "function"
    },
    {
      "inputs": [],
      "name": "getCurrentGovenorInProposalId",
      "outputs": [
        {
          "internalType": "uint256",
          "name": "",
          "type": "uint256"
        }
      ],
      "stateMutability": "view",
      "type": "function"
    },
    {
      "inputs": [],
      "name": "getCurrentGovenorOutProposalId",
      "outputs": [
        {
          "internalType": "uint256",
          "name": "",
          "type": "uint256"
        }
      ],
      "stateMutability": "view",
      "type": "function"
    },
    {
      "inputs": [],
      "name": "getCurrentGovernorMembershipProposalId",
      "outputs": [
        {
          "internalType": "uint256",
          "name": "",
          "type": "uint256"
        }
      ],
      "stateMutability": "view",
      "type": "function"
    },
    {
      "inputs": [],
      "name": "getCurrentInvestmentProposalId",
      "outputs": [
        {
          "internalType": "uint256",
          "name": "",
          "type": "uint256"
        }
      ],
      "stateMutability": "view",
      "type": "function"
    },
    {
      "inputs": [],
      "name": "getCurrentInvestorMembershipProposalId",
      "outputs": [
        {
          "internalType": "uint256",
          "name": "",
          "type": "uint256"
        }
      ],
      "stateMutability": "view",
      "type": "function"
    },
    {
      "inputs": [],
      "name": "getCurrentNewFundProposalId",
      "outputs": [
        {
          "internalType": "uint256",
          "name": "",
          "type": "uint256"
        }
      ],
      "stateMutability": "view",
      "type": "function"
    },
    {
      "inputs": [],
      "name": "getCurrentParticipantCapProposalId",
      "outputs": [
        {
          "internalType": "uint256",
          "name": "",
          "type": "uint256"
        }
      ],
      "stateMutability": "view",
      "type": "function"
    },
    {
      "inputs": [],
      "name": "getCurrentPollForInvestorProposalId",
      "outputs": [
        {
          "internalType": "uint256",
          "name": "",
          "type": "uint256"
        }
      ],
      "stateMutability": "view",
      "type": "function"
    },
    {
      "inputs": [],
      "name": "getCurrentProposerMembershipProposalId",
      "outputs": [
        {
          "internalType": "uint256",
          "name": "",
          "type": "uint256"
        }
      ],
      "stateMutability": "view",
      "type": "function"
    },
    {
      "inputs": [],
      "name": "getCurrentVotingProposalId",
      "outputs": [
        {
          "internalType": "uint256",
          "name": "",
          "type": "uint256"
        }
      ],
      "stateMutability": "view",
      "type": "function"
    },
    {
      "inputs": [
        {
          "internalType": "bytes32",
          "name": "extensionId",
          "type": "bytes32"
        }
      ],
      "name": "getExtensionAddress",
      "outputs": [
        {
          "internalType": "address",
          "name": "",
          "type": "address"
        }
      ],
      "stateMutability": "view",
      "type": "function"
    },
    {
      "inputs": [
        {
          "internalType": "uint256",
          "name": "index",
          "type": "uint256"
        }
      ],
      "name": "getMemberAddress",
      "outputs": [
        {
          "internalType": "address",
          "name": "",
          "type": "address"
        }
      ],
      "stateMutability": "view",
      "type": "function"
    },
    {
      "inputs": [
        {
          "internalType": "address",
          "name": "memberAddress",
          "type": "address"
        },
        {
          "internalType": "enum DaoRegistry.MemberFlag",
          "name": "flag",
          "type": "uint8"
        }
      ],
      "name": "getMemberFlag",
      "outputs": [
        {
          "internalType": "bool",
          "name": "",
          "type": "bool"
        }
      ],
      "stateMutability": "view",
      "type": "function"
    },
    {
      "inputs": [],
      "name": "getNbMembers",
      "outputs": [
        {
          "internalType": "uint256",
          "name": "",
          "type": "uint256"
        }
      ],
      "stateMutability": "view",
      "type": "function"
    },
    {
      "inputs": [
        {
          "internalType": "address",
          "name": "memberAddr",
          "type": "address"
        }
      ],
      "name": "getPreviousDelegateKey",
      "outputs": [
        {
          "internalType": "address",
          "name": "",
          "type": "address"
        }
      ],
      "stateMutability": "view",
      "type": "function"
    },
    {
      "inputs": [
        {
          "internalType": "address",
          "name": "memberAddr",
          "type": "address"
        },
        {
          "internalType": "uint256",
          "name": "blockNumber",
          "type": "uint256"
        }
      ],
      "name": "getPriorDelegateKey",
      "outputs": [
        {
          "internalType": "address",
          "name": "",
          "type": "address"
        }
      ],
      "stateMutability": "view",
      "type": "function"
    },
    {
      "inputs": [
        {
          "internalType": "bytes32",
          "name": "proposalId",
          "type": "bytes32"
        },
        {
          "internalType": "enum DaoRegistry.ProposalFlag",
          "name": "flag",
          "type": "uint8"
        }
      ],
      "name": "getProposalFlag",
      "outputs": [
        {
          "internalType": "bool",
          "name": "",
          "type": "bool"
        }
      ],
      "stateMutability": "view",
      "type": "function"
    },
    {
      "inputs": [
        {
          "internalType": "enum DaoHelper.ProposalType",
          "name": "_proposalType",
          "type": "uint8"
        }
      ],
      "name": "getProposalVoteType",
      "outputs": [
        {
          "internalType": "uint32",
          "name": "",
          "type": "uint32"
        }
      ],
      "stateMutability": "view",
      "type": "function"
    },
    {
      "inputs": [
        {
          "internalType": "address",
          "name": "adapterAddress",
          "type": "address"
        },
        {
          "internalType": "enum DaoRegistry.AclFlag",
          "name": "flag",
          "type": "uint8"
        }
      ],
      "name": "hasAdapterAccess",
      "outputs": [
        {
          "internalType": "bool",
          "name": "",
          "type": "bool"
        }
      ],
      "stateMutability": "view",
      "type": "function"
    },
    {
      "inputs": [
        {
          "internalType": "address",
          "name": "adapterAddress",
          "type": "address"
        },
        {
          "internalType": "address",
          "name": "extensionAddress",
          "type": "address"
        },
        {
          "internalType": "uint8",
          "name": "flag",
          "type": "uint8"
        }
      ],
      "name": "hasAdapterAccessToExtension",
      "outputs": [
        {
          "internalType": "bool",
          "name": "",
          "type": "bool"
        }
      ],
      "stateMutability": "view",
      "type": "function"
    },
    {
      "inputs": [],
      "name": "increaseFeesId",
      "outputs": [],
      "stateMutability": "nonpayable",
      "type": "function"
    },
    {
      "inputs": [],
      "name": "increaseGovenorInId",
      "outputs": [],
      "stateMutability": "nonpayable",
      "type": "function"
    },
    {
      "inputs": [],
      "name": "increaseGovenorOutId",
      "outputs": [],
      "stateMutability": "nonpayable",
      "type": "function"
    },
    {
      "inputs": [],
      "name": "increaseGovernorMembershipId",
      "outputs": [],
      "stateMutability": "nonpayable",
      "type": "function"
    },
    {
      "inputs": [],
      "name": "increaseInvestmentId",
      "outputs": [],
      "stateMutability": "nonpayable",
      "type": "function"
    },
    {
      "inputs": [],
      "name": "increaseInvstorMembershipId",
      "outputs": [],
      "stateMutability": "nonpayable",
      "type": "function"
    },
    {
      "inputs": [],
      "name": "increaseNewFundId",
      "outputs": [],
      "stateMutability": "nonpayable",
      "type": "function"
    },
    {
      "inputs": [],
      "name": "increaseParticipantCapId",
      "outputs": [],
      "stateMutability": "nonpayable",
      "type": "function"
    },
    {
      "inputs": [],
      "name": "increasePollForInvestmentId",
      "outputs": [],
      "stateMutability": "nonpayable",
      "type": "function"
    },
    {
      "inputs": [],
      "name": "increaseProposerMembershipId",
      "outputs": [],
      "stateMutability": "nonpayable",
      "type": "function"
    },
    {
      "inputs": [],
      "name": "increaseVotingId",
      "outputs": [],
      "stateMutability": "nonpayable",
      "type": "function"
    },
    {
      "inputs": [
        {
          "internalType": "address",
          "name": "creator",
          "type": "address"
        },
        {
          "internalType": "address",
          "name": "payer",
          "type": "address"
        },
        {
          "internalType": "address",
          "name": "_daoFactory",
          "type": "address"
        }
      ],
      "name": "initialize",
      "outputs": [],
      "stateMutability": "nonpayable",
      "type": "function"
    },
    {
      "inputs": [],
      "name": "initialized",
      "outputs": [
        {
          "internalType": "bool",
          "name": "",
          "type": "bool"
        }
      ],
      "stateMutability": "view",
      "type": "function"
    },
    {
      "inputs": [
        {
          "internalType": "address",
          "name": "",
          "type": "address"
        }
      ],
      "name": "inverseAdapters",
      "outputs": [
        {
          "internalType": "bytes32",
          "name": "id",
          "type": "bytes32"
        },
        {
          "internalType": "uint256",
          "name": "acl",
          "type": "uint256"
        }
      ],
      "stateMutability": "view",
      "type": "function"
    },
    {
      "inputs": [
        {
          "internalType": "address",
          "name": "",
          "type": "address"
        }
      ],
      "name": "inverseExtensions",
      "outputs": [
        {
          "internalType": "bytes32",
          "name": "id",
          "type": "bytes32"
        },
        {
          "internalType": "bool",
          "name": "deleted",
          "type": "bool"
        }
      ],
      "stateMutability": "view",
      "type": "function"
    },
    {
      "inputs": [
        {
          "internalType": "contract DaoRegistry",
          "name": "dao",
          "type": "address"
        },
        {
          "internalType": "address",
          "name": "_addr",
          "type": "address"
        }
      ],
      "name": "isActiveMember",
      "outputs": [
        {
          "internalType": "bool",
          "name": "",
          "type": "bool"
        }
      ],
      "stateMutability": "view",
      "type": "function"
    },
    {
      "inputs": [
        {
          "internalType": "address",
          "name": "adapterAddress",
          "type": "address"
        }
      ],
      "name": "isAdapter",
      "outputs": [
        {
          "internalType": "bool",
          "name": "",
          "type": "bool"
        }
      ],
      "stateMutability": "view",
      "type": "function"
    },
    {
      "inputs": [
        {
          "internalType": "address",
          "name": "extensionAddr",
          "type": "address"
        }
      ],
      "name": "isExtension",
      "outputs": [
        {
          "internalType": "bool",
          "name": "",
          "type": "bool"
        }
      ],
      "stateMutability": "view",
      "type": "function"
    },
    {
      "inputs": [
        {
          "internalType": "address",
          "name": "addr",
          "type": "address"
        }
      ],
      "name": "isMember",
      "outputs": [
        {
          "internalType": "bool",
          "name": "",
          "type": "bool"
        }
      ],
      "stateMutability": "view",
      "type": "function"
    },
    {
      "inputs": [],
      "name": "lockSession",
      "outputs": [],
      "stateMutability": "nonpayable",
      "type": "function"
    },
    {
      "inputs": [],
      "name": "lockedAt",
      "outputs": [
        {
          "internalType": "uint256",
          "name": "",
          "type": "uint256"
        }
      ],
      "stateMutability": "view",
      "type": "function"
    },
    {
      "inputs": [
        {
          "internalType": "bytes32",
          "name": "",
          "type": "bytes32"
        }
      ],
      "name": "mainConfiguration",
      "outputs": [
        {
          "internalType": "uint256",
          "name": "",
          "type": "uint256"
        }
      ],
      "stateMutability": "view",
      "type": "function"
    },
    {
      "inputs": [
        {
          "internalType": "address",
          "name": "",
          "type": "address"
        }
      ],
      "name": "memberAddressesByDelegatedKey",
      "outputs": [
        {
          "internalType": "address",
          "name": "",
          "type": "address"
        }
      ],
      "stateMutability": "view",
      "type": "function"
    },
    {
      "inputs": [
        {
          "internalType": "address",
          "name": "",
          "type": "address"
        }
      ],
      "name": "members",
      "outputs": [
        {
          "internalType": "uint256",
          "name": "flags",
          "type": "uint256"
        }
      ],
      "stateMutability": "view",
      "type": "function"
    },
    {
      "inputs": [
        {
          "internalType": "address",
          "name": "memberAddress",
          "type": "address"
        }
      ],
      "name": "potentialNewMember",
      "outputs": [],
      "stateMutability": "nonpayable",
      "type": "function"
    },
    {
      "inputs": [
        {
          "internalType": "bytes32",
          "name": "proposalId",
          "type": "bytes32"
        }
      ],
      "name": "processProposal",
      "outputs": [],
      "stateMutability": "nonpayable",
      "type": "function"
    },
    {
      "inputs": [
        {
          "internalType": "enum DaoHelper.ProposalType",
          "name": "",
          "type": "uint8"
        }
      ],
      "name": "proposalVoteTypes",
      "outputs": [
        {
          "internalType": "enum DaoHelper.VoteType",
          "name": "",
          "type": "uint8"
        }
      ],
      "stateMutability": "view",
      "type": "function"
    },
    {
      "inputs": [
        {
          "internalType": "bytes32",
          "name": "",
          "type": "bytes32"
        }
      ],
      "name": "proposals",
      "outputs": [
        {
          "internalType": "address",
          "name": "adapterAddress",
          "type": "address"
        },
        {
          "internalType": "uint256",
          "name": "flags",
          "type": "uint256"
        }
      ],
      "stateMutability": "view",
      "type": "function"
    },
    {
      "inputs": [
        {
          "internalType": "bytes32",
          "name": "extensionId",
          "type": "bytes32"
        }
      ],
      "name": "removeExtension",
      "outputs": [],
      "stateMutability": "nonpayable",
      "type": "function"
    },
    {
      "inputs": [
        {
          "internalType": "address",
          "name": "memberAddress",
          "type": "address"
        }
      ],
      "name": "removeMember",
      "outputs": [],
      "stateMutability": "nonpayable",
      "type": "function"
    },
    {
      "inputs": [
        {
          "internalType": "bytes32",
          "name": "adapterId",
          "type": "bytes32"
        },
        {
          "internalType": "address",
          "name": "adapterAddress",
          "type": "address"
        },
        {
          "internalType": "uint128",
          "name": "acl",
          "type": "uint128"
        },
        {
          "internalType": "bytes32[]",
          "name": "keys",
          "type": "bytes32[]"
        },
        {
          "internalType": "uint256[]",
          "name": "values",
          "type": "uint256[]"
        }
      ],
      "name": "replaceAdapter",
      "outputs": [],
      "stateMutability": "nonpayable",
      "type": "function"
    },
    {
      "inputs": [
        {
          "internalType": "address",
          "name": "extensionAddress",
          "type": "address"
        },
        {
          "internalType": "address",
          "name": "adapterAddress",
          "type": "address"
        },
        {
          "internalType": "uint256",
          "name": "acl",
          "type": "uint256"
        }
      ],
      "name": "setAclToExtensionForAdapter",
      "outputs": [],
      "stateMutability": "nonpayable",
      "type": "function"
    },
    {
      "inputs": [
        {
          "internalType": "bytes32",
          "name": "key",
          "type": "bytes32"
        },
        {
          "internalType": "address",
          "name": "value",
          "type": "address"
        }
      ],
      "name": "setAddressConfiguration",
      "outputs": [],
      "stateMutability": "nonpayable",
      "type": "function"
    },
    {
      "inputs": [
        {
          "internalType": "bytes32",
          "name": "key",
          "type": "bytes32"
        },
        {
          "internalType": "uint256",
          "name": "value",
          "type": "uint256"
        }
      ],
      "name": "setConfiguration",
      "outputs": [],
      "stateMutability": "nonpayable",
      "type": "function"
    },
    {
      "inputs": [
        {
          "internalType": "bytes32",
          "name": "proposalId",
          "type": "bytes32"
        },
        {
          "internalType": "address",
          "name": "votingAdapterAddr",
          "type": "address"
        }
      ],
      "name": "sponsorProposal",
      "outputs": [],
      "stateMutability": "nonpayable",
      "type": "function"
    },
    {
      "inputs": [],
      "name": "state",
      "outputs": [
        {
          "internalType": "enum DaoRegistry.DaoState",
          "name": "",
          "type": "uint8"
        }
      ],
      "stateMutability": "view",
      "type": "function"
    },
    {
      "inputs": [
        {
          "internalType": "bytes32",
          "name": "proposalId",
          "type": "bytes32"
        }
      ],
      "name": "submitProposal",
      "outputs": [],
      "stateMutability": "nonpayable",
      "type": "function"
    },
    {
      "inputs": [],
      "name": "unlockSession",
      "outputs": [],
      "stateMutability": "nonpayable",
      "type": "function"
    },
    {
      "inputs": [
        {
          "internalType": "address",
          "name": "memberAddr",
          "type": "address"
        },
        {
          "internalType": "address",
          "name": "newDelegateKey",
          "type": "address"
        }
      ],
      "name": "updateDelegateKey",
      "outputs": [],
      "stateMutability": "nonpayable",
      "type": "function"
    },
    {
      "inputs": [
        {
          "internalType": "bytes32",
          "name": "",
          "type": "bytes32"
        }
      ],
      "name": "votingAdapter",
      "outputs": [
        {
          "internalType": "address",
          "name": "",
          "type": "address"
        }
      ],
      "stateMutability": "view",
      "type": "function"
    }
  ],
  "bytecode": "0x60806040526000805460ff1916905534801561001a57600080fd5b506147978061002a6000396000f3fe608060405234801561001057600080fd5b50600436106104de5760003560e01c8063822d631511610286578063c0c53b8b1161016b578063da0f6c70116100e3578063f8385b2d11610097578063f941f6911161007c578063f941f69114610aba578063fd310d2914610acd578063fefbd87514610af657600080fd5b8063f8385b2d14610a87578063f847ed4814610a8f57600080fd5b8063e24f905b116100c8578063e24f905b14610a64578063ec56a1f214610a77578063f1457aac14610a7f57600080fd5b8063da0f6c7014610a3e578063dc929f4a14610a5157600080fd5b8063c67143661161013a578063c89bb8ba1161011f578063c89bb8ba14610a1b578063d4f7af4314610a2e578063d9f23d3e14610a3657600080fd5b8063c671436614610a0b578063c7e820cc14610a1357600080fd5b8063c0c53b8b146109c3578063c130c639146109d6578063c19d93fb146109e9578063c43d700814610a0357600080fd5b8063a6f63641116101fe578063af3138cd116101cd578063b34dd943116101b2578063b34dd943146109a0578063b5d3788e146109a8578063b73dc389146109b057600080fd5b8063af3138cd1461096f578063b21634821461099757600080fd5b8063a6f63641146108f8578063a9d938621461090d578063ac8359b814610949578063ae7fdd671461095c57600080fd5b80639472497c116102555780639ef28a0a1161023a5780639ef28a0a146108b2578063a230c524146108d2578063a37ff5e4146108e557600080fd5b80639472497c146108815780639e42c403146108aa57600080fd5b8063822d6315146108335780638ecf77201461083b5780639029444a1461084e5780639283ae3a1461086157600080fd5b8063397a6947116103c75780636503287f1161033f57806372c6838f116102f35780637aa8edd2116102d85780637aa8edd2146107ef578063815a2bf4146107f757806381ff3b201461080a57600080fd5b806372c6838f146107be578063776d13c5146107e757600080fd5b806368c18beb1161032457806368c18beb146107505780636cfdc32e1461077b57806371cda63b1461078e57600080fd5b80636503287f14610740578063656f9f991461074857600080fd5b8063419f45b4116103965780634a19d91e1161037b5780634a19d91e1461071257806352c1d90114610725578063593e96b61461072d57600080fd5b8063419f45b4146106f257806348f7f2a3146106fa57600080fd5b8063397a69471461069b5780633b4f921a146106ae5780633ea34b86146106c157806340de703e146106c957600080fd5b8063179986f81161045a5780632d1959631161042957806330490e911161040e57806330490e911461062e57806332ed5b121461064157806334fbfbb21461069357600080fd5b80632d195963146105e75780633044bafc1461062657600080fd5b8063179986f8146105b157806317ba7d85146105c45780631bc0f787146105d7578063250a70b7146105df57600080fd5b80630b1ca49a116104b157806310fdb0a21161049657806310fdb0a214610571578063149acf9a14610579578063158ef93e146105a457600080fd5b80630b1ca49a1461053b5780630d53ab831461054e57600080fd5b8063018e5bea146104e357806308ae4b0c146104ed578063091a3e9c146105205780630ac9bd0114610528575b600080fd5b6104eb610b1f565b005b61050d6104fb3660046140c7565b60016020526000908152604090205481565b6040519081526020015b60405180910390f35b6104eb610c01565b6104eb610536366004614294565b610cda565b6104eb6105493660046140c7565b610ed1565b61056161055c3660046141e9565b611108565b6040519015158152602001610517565b6104eb611151565b600a5461058c906001600160a01b031681565b6040516001600160a01b039091168152602001610517565b6000546105619060ff1681565b6104eb6105bf366004614165565b611188565b61058c6105d2366004614294565b61134f565b6104eb6113cf565b6104eb6114a8565b6106116105f53660046140c7565b601b602052600090815260409020805460029091015460ff1682565b60408051928352901515602083015201610517565b6104eb611581565b6104eb61063c366004614294565b61165a565b61067461064f366004614294565b601660205260009081526040902080546001909101546001600160a01b039091169082565b604080516001600160a01b039093168352602083019190915201610517565b61050d611707565b61058c6106a93660046140c7565b611717565b6104eb6106bc3660046142ac565b61179d565b61050d6118d1565b61058c6106d7366004614294565b6017602052600090815260409020546001600160a01b031681565b61050d6118dc565b60095461058c9061010090046001600160a01b031681565b61058c610720366004614249565b6118e7565b61050d611bb3565b61058c61073b366004614294565b611bbe565b6104eb611c3e565b61050d611cbc565b61056161075e3660046140c7565b6001600160a01b0316600090815260196020526040902054151590565b6105616107893660046141a5565b611cc7565b6107b161079c36600461441f565b60036020526000908152604090205460ff1681565b60405161051791906144ea565b61058c6107cc366004614294565b6018602052600090815260409020546001600160a01b031681565b6104eb611d28565b6104eb611e01565b6104eb6108053660046142ac565b611eda565b61058c610818366004614294565b601d602052600090815260409020546001600160a01b031681565b6104eb612031565b6105616108493660046143ee565b61210a565b61058c61085c366004614294565b6121a0565b61050d61086f366004614294565b6000908152601c602052604090205490565b61058c61088f3660046140c7565b6004602052600090815260409020546001600160a01b031681565b61050d6121de565b61050d6108c0366004614294565b601c6020526000908152604090205481565b6105616108e03660046140c7565b6121e9565b6104eb6108f33660046142d0565b612210565b61090061259d565b6040516105179190614483565b61093461091b3660046140c7565b6019602052600090815260409020805460019091015482565b60408051928352602083019190915201610517565b6104eb6109573660046140e3565b6125a9565b61056161096a366004614219565b61291b565b61098261097d36600461441f565b612955565b60405163ffffffff9091168152602001610517565b61050d601e5481565b6104eb6129cd565b61050d612aa6565b6104eb6109be366004614294565b612ab1565b6104eb6109d136600461411b565b612c98565b6104eb6109e4366004614380565b612df4565b6009546109f69060ff1681565b60405161051791906144d0565b61050d613142565b60025461050d565b6104eb61314d565b61058c610a293660046140c7565b613226565b6104eb613256565b61050d61328d565b6104eb610a4c3660046143cd565b613298565b6104eb610a5f3660046140c7565b6133ab565b61058c610a723660046140c7565b613629565b6104eb61367a565b61050d613753565b61050d61375e565b610561610a9d3660046140c7565b6001600160a01b03166000908152601b6020526040902054151590565b610561610ac83660046143a6565b613769565b61058c610adb366004614294565b6000908152601d60205260409020546001600160a01b031690565b61058c610b04366004614294565b601a602052600090815260409020546001600160a01b031681565b306012610b2b8261379f565b80610baf5750604051630d53ab8360e01b81526001600160a01b03831690630d53ab8390610b5f9033908590600401614456565b60206040518083038186803b158015610b7757600080fd5b505afa158015610b8b573d6000803e3d6000fd5b505050506040513d601f19601f82011682018060405250810190610baf9190614274565b610bef5760405162461bcd60e51b815260206004820152600c60248201526b1858d8d95cdcd1195b9a595960a21b60448201526064015b60405180910390fd5b610bfd601480546001019055565b5050565b306011610c0d8261379f565b80610c915750604051630d53ab8360e01b81526001600160a01b03831690630d53ab8390610c419033908590600401614456565b60206040518083038186803b158015610c5957600080fd5b505afa158015610c6d573d6000803e3d6000fd5b505050506040513d601f19601f82011682018060405250810190610c919190614274565b610ccc5760405162461bcd60e51b815260206004820152600c60248201526b1858d8d95cdcd1195b9a595960a21b6044820152606401610be6565b610bfd601380546001019055565b306005610ce68261379f565b80610d6a5750604051630d53ab8360e01b81526001600160a01b03831690630d53ab8390610d1a9033908590600401614456565b60206040518083038186803b158015610d3257600080fd5b505afa158015610d46573d6000803e3d6000fd5b505050506040513d601f19601f82011682018060405250810190610d6a9190614274565b610da55760405162461bcd60e51b815260206004820152600c60248201526b1858d8d95cdcd1195b9a595960a21b6044820152606401610be6565b82610df25760405162461bcd60e51b815260206004820152601d60248201527f657874656e73696f6e4964206d757374206e6f7420626520656d7074790000006044820152606401610be6565b6000838152601a60205260409020546001600160a01b031680610e575760405162461bcd60e51b815260206004820152601a60248201527f657874656e73696f6e4964206e6f7420726567697374657265640000000000006044820152606401610be6565b6001600160a01b0381166000908152601b6020908152604080832060028101805485835560ff19169055878452601a83529281902080546001600160a01b0319169055518681527f3387f97466c32037f6c1cd4dd0403c1235f07c5db670bd53c7a64af05783e50b91015b60405180910390a15050505050565b306007610edd8261379f565b80610f615750604051630d53ab8360e01b81526001600160a01b03831690630d53ab8390610f119033908590600401614456565b60206040518083038186803b158015610f2957600080fd5b505afa158015610f3d573d6000803e3d6000fd5b505050506040513d601f19601f82011682018060405250810190610f619190614274565b610f9c5760405162461bcd60e51b815260206004820152600c60248201526b1858d8d95cdcd1195b9a595960a21b6044820152606401610be6565b6001600160a01b038316610ff25760405162461bcd60e51b815260206004820152601660248201527f696e76616c6964206d656d6265722061646472657373000000000000000000006044820152606401610be6565b610ffd6005846139d8565b1561100f5761100d6005846139fa565b505b6001600160a01b03831660009081526001602052604081208054909161103991905b60ff16613a0f565b15611102576001600160a01b03848116600090815260046020526040902054166110cb5760405162461bcd60e51b815260206004820152602d60248201527f6d656d626572206164647265737320686173206e6f742074616b656e2061732060448201527f64656c656761746564206b6579000000000000000000000000000000000000006064820152608401610be6565b80546110d990600080613a2c565b81556001600160a01b038416600090815260046020526040902080546001600160a01b03191690555b50505050565b6001600160a01b0382166000908152601960205260408120600101546111489083601381111561103157634e487b7160e01b600052602160045260246000fd5b90505b92915050565b3360009081526019602052604090205415158061117c5750336000908152601b602052604090205415155b156111865743601e555b565b3060046111948261379f565b806112185750604051630d53ab8360e01b81526001600160a01b03831690630d53ab83906111c89033908590600401614456565b60206040518083038186803b1580156111e057600080fd5b505afa1580156111f4573d6000803e3d6000fd5b505050506040513d601f19601f820116820180604052508101906112189190614274565b6112535760405162461bcd60e51b815260206004820152600c60248201526b1858d8d95cdcd1195b9a595960a21b6044820152606401610be6565b6001600160a01b0384166000908152601960205260409020546112b85760405162461bcd60e51b815260206004820152600e60248201527f6e6f7420616e20616461707465720000000000000000000000000000000000006044820152606401610be6565b6001600160a01b0385166000908152601b602052604090205461131d5760405162461bcd60e51b815260206004820152601060248201527f6e6f7420616e20657874656e73696f6e000000000000000000000000000000006044820152606401610be6565b50506001600160a01b039283166000908152601b60209081526040808320949095168252600190930190925291902055565b6000818152601860205260408120546001600160a01b03166113b35760405162461bcd60e51b815260206004820152601160248201527f61646170746572206e6f7420666f756e640000000000000000000000000000006044820152606401610be6565b506000908152601860205260409020546001600160a01b031690565b3060106113db8261379f565b8061145f5750604051630d53ab8360e01b81526001600160a01b03831690630d53ab839061140f9033908590600401614456565b60206040518083038186803b15801561142757600080fd5b505afa15801561143b573d6000803e3d6000fd5b505050506040513d601f19601f8201168201806040525081019061145f9190614274565b61149a5760405162461bcd60e51b815260206004820152600c60248201526b1858d8d95cdcd1195b9a595960a21b6044820152606401610be6565b610bfd601280546001019055565b30600b6114b48261379f565b806115385750604051630d53ab8360e01b81526001600160a01b03831690630d53ab83906114e89033908590600401614456565b60206040518083038186803b15801561150057600080fd5b505afa158015611514573d6000803e3d6000fd5b505050506040513d601f19601f820116820180604052508101906115389190614274565b6115735760405162461bcd60e51b815260206004820152600c60248201526b1858d8d95cdcd1195b9a595960a21b6044820152606401610be6565b610bfd600e80546001019055565b30600a61158d8261379f565b806116115750604051630d53ab8360e01b81526001600160a01b03831690630d53ab83906115c19033908590600401614456565b60206040518083038186803b1580156115d957600080fd5b505afa1580156115ed573d6000803e3d6000fd5b505050506040513d601f19601f820116820180604052508101906116119190614274565b61164c5760405162461bcd60e51b815260206004820152600c60248201526b1858d8d95cdcd1195b9a595960a21b6044820152606401610be6565b610bfd600c80546001019055565b6000611667826002613a80565b80549091506001600160a01b031633146116c35760405162461bcd60e51b815260206004820152601560248201527f6572723a3a61646170746572206d69736d6174636800000000000000000000006044820152606401610be6565b600181015460408051848152602081018390527fc18309f39ddacb9549656448966168cc2c7a000d42589e9bb8b458536d2fa35791015b60405180910390a1505050565b6000611712600c5490565b905090565b6001600160a01b03811660009081526008602052604081205463ffffffff16806117415782611796565b6001600160a01b0383166000908152600760205260408120906117656001846146b6565b63ffffffff1681526020810191909152604001600020546c0100000000000000000000000090046001600160a01b03165b9392505050565b3060036117a98261379f565b8061182d5750604051630d53ab8360e01b81526001600160a01b03831690630d53ab83906117dd9033908590600401614456565b60206040518083038186803b1580156117f557600080fd5b505afa158015611809573d6000803e3d6000fd5b505050506040513d601f19601f8201168201806040525081019061182d9190614274565b6118685760405162461bcd60e51b815260206004820152600c60248201526b1858d8d95cdcd1195b9a595960a21b6044820152606401610be6565b6000848152601d602090815260409182902080546001600160a01b0319166001600160a01b0387169081179091558251878152918201527f267dcb73663ad8bcfc5129e8f77b221d86951fc787ab6dd2fe5f27185af1afd091015b60405180910390a150505050565b6000611712600e5490565b600061171260145490565b600043821061195e5760405162461bcd60e51b815260206004820152602c60248201527f556e693a3a6765745072696f7244656c65676174654b65793a206e6f7420796560448201527f742064657465726d696e656400000000000000000000000000000000000000006064820152608401610be6565b6001600160a01b03831660009081526008602052604090205463ffffffff168061198b578391505061114b565b6001600160a01b038416600090815260076020526040812084916119b06001856146b6565b63ffffffff1681526020810191909152604001600020546bffffffffffffffffffffffff1611611a37576001600160a01b0384166000908152600760205260408120906119fe6001846146b6565b63ffffffff1681526020810191909152604001600020546c0100000000000000000000000090046001600160a01b0316915061114b9050565b6001600160a01b03841660009081526007602090815260408083208380529091529020546bffffffffffffffffffffffff16831015611a79578391505061114b565b600080611a876001846146b6565b90505b8163ffffffff168163ffffffff161115611b6c5760006002611aac84846146b6565b611ab69190614591565b611ac090836146b6565b6001600160a01b03808916600090815260076020908152604080832063ffffffff861684528252918290208251808401909352546bffffffffffffffffffffffff81168084526c0100000000000000000000000090910490931690820152919250871415611b385760200151945061114b9350505050565b80516bffffffffffffffffffffffff16871115611b5757819350611b65565b611b626001836146b6565b92505b5050611a8a565b506001600160a01b03948516600090815260076020908152604080832063ffffffff94909416835292905220546c0100000000000000000000000090049093169392505050565b6000611712600d5490565b6000818152601a60205260408120546001600160a01b0316611c225760405162461bcd60e51b815260206004820152601360248201527f657874656e73696f6e206e6f7420666f756e64000000000000000000000000006044820152606401610be6565b506000908152601a60205260409020546001600160a01b031690565b611c48303361210a565b80611c6157503360009081526019602052604090205415155b611cad5760405162461bcd60e51b815260206004820152601760248201527f6e6f7420616c6c6f77656420746f2066696e616c697a650000000000000000006044820152606401610be6565b6009805460ff19166001179055565b600061171260125490565b6001600160a01b03831660009081526019602052604081205415158015611d2057506001600160a01b038084166000908152601b602090815260408083209388168352600190930190522054611d209060ff8416613a0f565b949350505050565b306009611d348261379f565b80611db85750604051630d53ab8360e01b81526001600160a01b03831690630d53ab8390611d689033908590600401614456565b60206040518083038186803b158015611d8057600080fd5b505afa158015611d94573d6000803e3d6000fd5b505050506040513d601f19601f82011682018060405250810190611db89190614274565b611df35760405162461bcd60e51b815260206004820152600c60248201526b1858d8d95cdcd1195b9a595960a21b6044820152606401610be6565b610bfd600b80546001019055565b30600d611e0d8261379f565b80611e915750604051630d53ab8360e01b81526001600160a01b03831690630d53ab8390611e419033908590600401614456565b60206040518083038186803b158015611e5957600080fd5b505afa158015611e6d573d6000803e3d6000fd5b505050506040513d601f19601f82011682018060405250810190611e919190614274565b611ecc5760405162461bcd60e51b815260206004820152600c60248201526b1858d8d95cdcd1195b9a595960a21b6044820152606401610be6565b610bfd600f80546001019055565b6000611ee7836001613a80565b60018101548154919250906001600160a01b03163314611f6f5760405162461bcd60e51b815260206004820152603b60248201527f6f6e6c792074686520616461707465722074686174207375626d69747465642060448201527f7468652070726f706f73616c2063616e2070726f6365737320697400000000006064820152608401610be6565b611f7a816002611031565b15611fc75760405162461bcd60e51b815260206004820152601a60248201527f70726f706f73616c20616c72656164792070726f6365737365640000000000006044820152606401610be6565b60008481526017602090815260409182902080546001600160a01b0319166001600160a01b0387169081179091558251878152918201849052918101919091527f5b96711deea669ec50fcc8f3d230291ab4711de1d67a0747e6de4ae6c4263d7c906060016118c3565b30600f61203d8261379f565b806120c15750604051630d53ab8360e01b81526001600160a01b03831690630d53ab83906120719033908590600401614456565b60206040518083038186803b15801561208957600080fd5b505afa15801561209d573d6000803e3d6000fd5b505050506040513d601f19601f820116820180604052508101906120c19190614274565b6120fc5760405162461bcd60e51b815260206004820152600c60248201526b1858d8d95cdcd1195b9a595960a21b6044820152606401610be6565b610bfd601180546001019055565b6040517fa230c5240000000000000000000000000000000000000000000000000000000081526001600160a01b0382811660048301526000919084169063a230c5249060240160206040518083038186803b15801561216857600080fd5b505afa15801561217c573d6000803e3d6000fd5b505050506040513d601f19601f820116820180604052508101906111489190614274565b6000600282815481106121c357634e487b7160e01b600052603260045260246000fd5b6000918252602090912001546001600160a01b031692915050565b600061171260105490565b6001600160a01b03808216600090815260046020526040812054909116611796818361291b565b30600061221c8261379f565b806122a05750604051630d53ab8360e01b81526001600160a01b03831690630d53ab83906122509033908590600401614456565b60206040518083038186803b15801561226857600080fd5b505afa15801561227c573d6000803e3d6000fd5b505050506040513d601f19601f820116820180604052508101906122a09190614274565b6122db5760405162461bcd60e51b815260206004820152600c60248201526b1858d8d95cdcd1195b9a595960a21b6044820152606401610be6565b886123285760405162461bcd60e51b815260206004820152601b60248201527f616461707465724964206d757374206e6f7420626520656d70747900000000006044820152606401610be6565b6000898152601860205260409020546001600160a01b031680156123b4576001600160a01b03811660009081526019602090815260408083208381556001018390558c8352601882529182902080546001600160a01b031916905590518b81527f93ecc5e9aa51bb2adb2cf429a5108116cf98c4f717f0912d1be98e137ba6ef60910160405180910390a15b60005b868110156124845760008888838181106123e157634e487b7160e01b600052603260045260246000fd5b905060200201359050600087878481811061240c57634e487b7160e01b600052603260045260246000fd5b90506020020135905080601c6000848152602001908152602001600020819055507f50bc2a45e7693135e6950fb78733dccb013ce4c6b62f17dbbda5131d8d0fac298282604051612467929190918252602082015260400190565b60405180910390a15050808061247c906146db565b9150506123b7565b506001600160a01b03891615612591576001600160a01b038916600090815260196020526040902054156124fa5760405162461bcd60e51b815260206004820152601d60248201527f616461707465724164647265737320616c726561647920696e207573650000006044820152606401610be6565b60008a815260186020908152604080832080546001600160a01b0319166001600160a01b038e1690811790915580845260198352928190208d81556fffffffffffffffffffffffffffffffff8c1660019190910181905581518e8152928301939093528101919091527fbc26dad550c12a27c05821a0d30ad7aa6d360a53b05f8a6f4b767d714d401b339060600160405180910390a15b50505050505050505050565b60606117126005613c42565b3060026125b58261379f565b806126395750604051630d53ab8360e01b81526001600160a01b03831690630d53ab83906125e99033908590600401614456565b60206040518083038186803b15801561260157600080fd5b505afa158015612615573d6000803e3d6000fd5b505050506040513d601f19601f820116820180604052508101906126399190614274565b6126745760405162461bcd60e51b815260206004820152600c60248201526b1858d8d95cdcd1195b9a595960a21b6044820152606401610be6565b6001600160a01b0383166126ca5760405162461bcd60e51b815260206004820152601a60248201527f6e657744656c65676174654b65792063616e6e6f7420626520300000000000006044820152606401610be6565b836001600160a01b0316836001600160a01b031614612776576001600160a01b0383811660009081526004602052604090205416156127715760405162461bcd60e51b815260206004820152602860248201527f63616e6e6f74206f7665727772697465206578697374696e672064656c65676160448201527f746564206b6579730000000000000000000000000000000000000000000000006064820152608401610be6565b612804565b6001600160a01b0384811660009081526004602052604090205416156128045760405162461bcd60e51b815260206004820152602660248201527f6164647265737320616c72656164792074616b656e2061732064656c6567617460448201527f6564206b657900000000000000000000000000000000000000000000000000006064820152608401610be6565b6001600160a01b03841660009081526001602052604081208054909161282a9190611031565b6128765760405162461bcd60e51b815260206004820152601560248201527f6d656d62657220646f6573206e6f7420657869737400000000000000000000006044820152606401610be6565b60006004600061288588611717565b6001600160a01b0390811682526020808301939093526040918201600090812080549583166001600160a01b03199687161790558882168152600490935291208054918816919092161790556128db8585613c4f565b604080516001600160a01b038088168252861660208201527fde7b64a369e10562cc2e71f0f1f944eaf144b75fead6ecb51fac9c4dd69348859101610ec2565b6001600160a01b0382166000908152600160205260408120546111489083801561103157634e487b7160e01b600052602160045260246000fd5b60006003600083600c81111561297b57634e487b7160e01b600052602160045260246000fd5b600c81111561299a57634e487b7160e01b600052602160045260246000fd5b815260208101919091526040016000205460ff16600381111561114b57634e487b7160e01b600052602160045260246000fd5b3060136129d98261379f565b80612a5d5750604051630d53ab8360e01b81526001600160a01b03831690630d53ab8390612a0d9033908590600401614456565b60206040518083038186803b158015612a2557600080fd5b505afa158015612a39573d6000803e3d6000fd5b505050506040513d601f19601f82011682018060405250810190612a5d9190614274565b612a985760405162461bcd60e51b815260206004820152600c60248201526b1858d8d95cdcd1195b9a595960a21b6044820152606401610be6565b610bfd601580546001019055565b600061171260115490565b306001612abd8261379f565b80612b415750604051630d53ab8360e01b81526001600160a01b03831690630d53ab8390612af19033908590600401614456565b60206040518083038186803b158015612b0957600080fd5b505afa158015612b1d573d6000803e3d6000fd5b505050506040513d601f19601f82011682018060405250810190612b419190614274565b612b7c5760405162461bcd60e51b815260206004820152600c60248201526b1858d8d95cdcd1195b9a595960a21b6044820152606401610be6565b82612bc95760405162461bcd60e51b815260206004820152601260248201527f696e76616c69642070726f706f73616c496400000000000000000000000000006044820152606401610be6565b612bd4836000613769565b15612c215760405162461bcd60e51b815260206004820152601960248201527f70726f706f73616c4964206d75737420626520756e69717565000000000000006044820152606401610be6565b60408051808201825233815260016020808301828152600088815260168352859020935184546001600160a01b0319166001600160a01b0390911617845551928201929092558251868152918201527f95a5e1e5dc3b7008a93a805f8c117e29f1427fe66a969a9ced6ec1e5448f6d0e91016116fa565b60005460ff1615612ceb5760405162461bcd60e51b815260206004820152601760248201527f64616f20616c726561647920696e697469616c697a65640000000000000000006044820152606401610be6565b6000805460ff19166001179055612d01336133ab565b612d0a826133ab565b612d13836133ab565b600a80546001600160a01b0319166001600160a01b03948516179055600360208190527f3617319a054d772f909f7c479a2cebe5066e836a939412e32403c99029b92eff805460ff1990811683179091557fa15bc60c955c405d20d9149c709e2460f1c2d9a497496a7f46004d1772c3054c805482168317905560026000527fc3a24b0501bd2c13a7e57f2db4369ec4c223447539fc0724a9d55ac4a06ebd4d805490911690911790556009805491909316610100027fffffffffffffffffffffff0000000000000000000000000000000000000000ff9091161790915550565b306004612e008261379f565b80612e845750604051630d53ab8360e01b81526001600160a01b03831690630d53ab8390612e349033908590600401614456565b60206040518083038186803b158015612e4c57600080fd5b505afa158015612e60573d6000803e3d6000fd5b505050506040513d601f19601f82011682018060405250810190612e849190614274565b612ebf5760405162461bcd60e51b815260206004820152600c60248201526b1858d8d95cdcd1195b9a595960a21b6044820152606401610be6565b612efd6040518060400160405280600c81526020017f616464457874656e73696f6e0000000000000000000000000000000000000000815250613e02565b84612f4a5760405162461bcd60e51b815260206004820152601e60248201527f657874656e73696f6e206964206d757374206e6f7420626520656d70747900006044820152606401610be6565b6000858152601a60205260409020546001600160a01b031615612faf5760405162461bcd60e51b815260206004820152601b60248201527f657874656e73696f6e20496420616c726561647920696e2075736500000000006044820152606401610be6565b6001600160a01b0384166000908152601b602052604090206002015460ff161561301b5760405162461bcd60e51b815260206004820152601d60248201527f657874656e73696f6e2063616e206e6f742062652072652d61646465640000006044820152606401610be6565b6000858152601a6020908152604080832080546001600160a01b0319166001600160a01b03898116918217909255808552601b90935292819020889055517f485cc95500000000000000000000000000000000000000000000000000000000815230600482015291851660248301529063485cc95590604401600060405180830381600087803b1580156130ae57600080fd5b505af11580156130c2573d6000803e3d6000fd5b505050506131046040518060400160405280600f81526020017f657874656e73696f6e2061646465640000000000000000000000000000000000815250613e02565b604080518681526001600160a01b03861660208201527fe407cef646646daa0f25b0b9f08615b4db7188dffba941c46eef43dbc21aee4d9101610ec2565b600061171260155490565b30600e6131598261379f565b806131dd5750604051630d53ab8360e01b81526001600160a01b03831690630d53ab839061318d9033908590600401614456565b60206040518083038186803b1580156131a557600080fd5b505afa1580156131b9573d6000803e3d6000fd5b505050506040513d601f19601f820116820180604052508101906131dd9190614274565b6132185760405162461bcd60e51b815260206004820152600c60248201526b1858d8d95cdcd1195b9a595960a21b6044820152606401610be6565b610bfd601080546001019055565b6001600160a01b03808216600090815260046020526040812054909116801561324f5780611796565b5090919050565b336000908152601960205260409020541515806132815750336000908152601b602052604090205415155b15611186576000601e55565b6000611712600f5490565b3060036132a48261379f565b806133285750604051630d53ab8360e01b81526001600160a01b03831690630d53ab83906132d89033908590600401614456565b60206040518083038186803b1580156132f057600080fd5b505afa158015613304573d6000803e3d6000fd5b505050506040513d601f19601f820116820180604052508101906133289190614274565b6133635760405162461bcd60e51b815260206004820152600c60248201526b1858d8d95cdcd1195b9a595960a21b6044820152606401610be6565b6000848152601c602090815260409182902085905581518681529081018590527f50bc2a45e7693135e6950fb78733dccb013ce4c6b62f17dbbda5131d8d0fac2991016118c3565b3060066133b78261379f565b8061343b5750604051630d53ab8360e01b81526001600160a01b03831690630d53ab83906133eb9033908590600401614456565b60206040518083038186803b15801561340357600080fd5b505afa158015613417573d6000803e3d6000fd5b505050506040513d601f19601f8201168201806040525081019061343b9190614274565b6134765760405162461bcd60e51b815260206004820152600c60248201526b1858d8d95cdcd1195b9a595960a21b6044820152606401610be6565b6001600160a01b0383166134cc5760405162461bcd60e51b815260206004820152601660248201527f696e76616c6964206d656d6265722061646472657373000000000000000000006044820152606401610be6565b6134d76005846139d8565b6134e8576134e6600584613e76565b505b6134f3600584613e76565b506001600160a01b03831660009081526001602052604081208054909161351a9190611031565b611102576001600160a01b0384811660009081526004602052604090205416156135ac5760405162461bcd60e51b815260206004820152602d60248201527f6d656d626572206164647265737320616c72656164792074616b656e2061732060448201527f64656c656761746564206b6579000000000000000000000000000000000000006064820152608401610be6565b80546135bf9060005b60ff166001613a2c565b905550506001600160a01b0316600081815260046020526040812080546001600160a01b031990811684179091556002805460018101825592527f405787fa12a823e0f2b7631cc41b3ba8828b3321ca811111fa75cd3aa3bb5ace90910180549091169091179055565b6001600160a01b03811660009081526008602052604081205463ffffffff16600181116136565782611796565b6001600160a01b0383166000908152600760205260408120906117656002846146b6565b30600b6136868261379f565b8061370a5750604051630d53ab8360e01b81526001600160a01b03831690630d53ab83906136ba9033908590600401614456565b60206040518083038186803b1580156136d257600080fd5b505afa1580156136e6573d6000803e3d6000fd5b505050506040513d601f19601f8201168201806040525081019061370a9190614274565b6137455760405162461bcd60e51b815260206004820152600c60248201526b1858d8d95cdcd1195b9a595960a21b6044820152606401610be6565b610bfd600d80546001019055565b6000611712600b5490565b600061171260135490565b6000828152601660205260408120600101546111489083600281111561103157634e487b7160e01b600052602160045260246000fd5b600080826001600160a01b031663c19d93fb6040518163ffffffff1660e01b815260040160206040518083038186803b1580156137db57600080fd5b505afa1580156137ef573d6000803e3d6000fd5b505050506040513d601f19601f820116820180604052508101906138139190614400565b600181111561383257634e487b7160e01b600052602160045260246000fd5b14801561114b5750816001600160a01b031663c67143666040518163ffffffff1660e01b815260040160206040518083038186803b15801561387357600080fd5b505afa158015613887573d6000803e3d6000fd5b505050506040513d601f19601f820116820180604052508101906138ab919061443e565b158061394257506040517fa230c5240000000000000000000000000000000000000000000000000000000081523360048201526001600160a01b0383169063a230c5249060240160206040518083038186803b15801561390a57600080fd5b505afa15801561391e573d6000803e3d6000fd5b505050506040513d601f19601f820116820180604052508101906139429190614274565b8061114b57506040517f68c18beb0000000000000000000000000000000000000000000000000000000081523360048201526001600160a01b038316906368c18beb9060240160206040518083038186803b1580156139a057600080fd5b505afa1580156139b4573d6000803e3d6000fd5b505050506040513d601f19601f8201168201806040525081019061114b9190614274565b6001600160a01b03811660009081526001830160205260408120541515611148565b6000611148836001600160a01b038416613e8b565b6000613a22600260ff841685901c6146f6565b6001149392505050565b6000811515613a3b8585613a0f565b151514613a79578115613a6457613a538360026145f7565b613a5d9085614551565b9050611796565b613a6f8360026145f7565b613a5d908561469f565b5082611796565b60008281526016602052604081206001810154613a9d8184611031565b613b0e5760405162461bcd60e51b8152602060048201526024808201527f70726f706f73616c20646f6573206e6f7420657869737420666f72207468697360448201527f2064616f000000000000000000000000000000000000000000000000000000006064820152608401610be6565b81546001600160a01b03163314613b8d5760405162461bcd60e51b815260206004820152603d60248201527f6f6e6c792074686520616461707465722074686174207375626d69747465642060448201527f7468652070726f706f73616c2063616e207365742069747320666c61670000006064820152608401610be6565b613bb18185600281111561103157634e487b7160e01b600052602160045260246000fd5b15613bfe5760405162461bcd60e51b815260206004820152601060248201527f666c616720616c726561647920736574000000000000000000000000000000006044820152606401610be6565b613c22818560028111156135b557634e487b7160e01b600052602160045260246000fd5b600086815260166020526040902060018101919091559250505092915050565b6060600061179683613fa8565b6001600160a01b03821660009081526008602052604090205463ffffffff168015801590613cc457506001600160a01b03831660009081526007602052604081204391613c9d6001856146b6565b63ffffffff1681526020810191909152604001600020546bffffffffffffffffffffffff16145b15613d3c576001600160a01b03831660009081526007602052604081208391613cee6001856146b6565b63ffffffff168152602081019190915260400160002080546001600160a01b03929092166c01000000000000000000000000026bffffffffffffffffffffffff909216919091179055505050565b6040805180820182526bffffffffffffffffffffffff43811682526001600160a01b03808616602080850191825288831660009081526007825286812063ffffffff891682529091529490942092519351166c01000000000000000000000000029216919091179055613db0816001614569565b6001600160a01b0384166000908152600860205260409020805463ffffffff929092167fffffffffffffffffffffffffffffffffffffffffffffffffffffffff00000000909216919091179055505050565b613e7381604051602401613e1691906144fe565b60408051601f198184030181529190526020810180517bffffffffffffffffffffffffffffffffffffffffffffffffffffffff167f41304fac00000000000000000000000000000000000000000000000000000000179052614004565b50565b6000611148836001600160a01b03841661400d565b60008181526001830160205260408120548015613f9e576000613eaf60018361469f565b8554909150600090613ec39060019061469f565b9050818114613f44576000866000018281548110613ef157634e487b7160e01b600052603260045260246000fd5b9060005260206000200154905080876000018481548110613f2257634e487b7160e01b600052603260045260246000fd5b6000918252602080832090910192909255918252600188019052604090208390555b8554869080613f6357634e487b7160e01b600052603160045260246000fd5b60019003818190600052602060002001600090559055856001016000868152602001908152602001600020600090556001935050505061114b565b600091505061114b565b606081600001805480602002602001604051908101604052809291908181526020018280548015613ff857602002820191906000526020600020905b815481526020019060010190808311613fe4575b50505050509050919050565b613e738161405c565b60008181526001830160205260408120546140545750815460018181018455600084815260208082209093018490558454848252828601909352604090209190915561114b565b50600061114b565b60006a636f6e736f6c652e6c6f679050600080835160208501845afa505050565b60008083601f84011261408e578182fd5b50813567ffffffffffffffff8111156140a5578182fd5b6020830191508360208260051b85010111156140c057600080fd5b9250929050565b6000602082840312156140d8578081fd5b81356117968161474c565b600080604083850312156140f5578081fd5b82356141008161474c565b915060208301356141108161474c565b809150509250929050565b60008060006060848603121561412f578081fd5b833561413a8161474c565b9250602084013561414a8161474c565b9150604084013561415a8161474c565b809150509250925092565b600080600060608486031215614179578283fd5b83356141848161474c565b925060208401356141948161474c565b929592945050506040919091013590565b6000806000606084860312156141b9578283fd5b83356141c48161474c565b925060208401356141d48161474c565b9150604084013560ff8116811461415a578182fd5b600080604083850312156141fb578182fd5b82356142068161474c565b9150602083013560148110614110578182fd5b6000806040838503121561422b578182fd5b82356142368161474c565b9150602083013560018110614110578182fd5b6000806040838503121561425b578182fd5b82356142668161474c565b946020939093013593505050565b600060208284031215614285578081fd5b81518015158114611796578182fd5b6000602082840312156142a5578081fd5b5035919050565b600080604083850312156142be578182fd5b8235915060208301356141108161474c565b600080600080600080600060a0888a0312156142ea578485fd5b8735965060208801356142fc8161474c565b955060408801356fffffffffffffffffffffffffffffffff81168114614320578586fd5b9450606088013567ffffffffffffffff8082111561433c578485fd5b6143488b838c0161407d565b909650945060808a0135915080821115614360578384fd5b5061436d8a828b0161407d565b989b979a50959850939692959293505050565b600080600060608486031215614394578081fd5b83359250602084013561414a8161474c565b600080604083850312156143b8578182fd5b82359150602083013560038110614110578182fd5b600080604083850312156143df578182fd5b50508035926020909101359150565b600080604083850312156140f5578182fd5b600060208284031215614411578081fd5b815160028110611796578182fd5b600060208284031215614430578081fd5b8135600d8110611796578182fd5b60006020828403121561444f578081fd5b5051919050565b6001600160a01b0383168152604081016014831061447657614476614736565b8260208301529392505050565b6020808252825182820181905260009190848201906040850190845b818110156144c45783516001600160a01b03168352928401929184019160010161449f565b50909695505050505050565b60208101600283106144e4576144e4614736565b91905290565b60208101600483106144e4576144e4614736565b6000602080835283518082850152825b8181101561452a5785810183015185820160400152820161450e565b8181111561453b5783604083870101525b50601f01601f1916929092016040019392505050565b600082198211156145645761456461470a565b500190565b600063ffffffff8083168185168083038211156145885761458861470a565b01949350505050565b600063ffffffff808416806145a8576145a8614720565b92169190910492915050565b600181815b808511156145ef5781600019048211156145d5576145d561470a565b808516156145e257918102915b93841c93908002906145b9565b509250929050565b6000611148838360008261460d5750600161114b565b8161461a5750600061114b565b8160018114614630576002811461463a57614656565b600191505061114b565b60ff84111561464b5761464b61470a565b50506001821b61114b565b5060208310610133831016604e8410600b8410161715614679575081810a61114b565b61468383836145b4565b80600019048211156146975761469761470a565b029392505050565b6000828210156146b1576146b161470a565b500390565b600063ffffffff838116908316818110156146d3576146d361470a565b039392505050565b60006000198214156146ef576146ef61470a565b5060010190565b60008261470557614705614720565b500690565b634e487b7160e01b600052601160045260246000fd5b634e487b7160e01b600052601260045260246000fd5b634e487b7160e01b600052602160045260246000fd5b6001600160a01b0381168114613e7357600080fdfea2646970667358221220bb725282999310880041fd4a6883d682f51eeaeeda53f67fa0f8ad7dc4af493464736f6c63430008040033",
  "linkReferences": {},
  "deployedLinkReferences": {}
}