{
  "_format": "hh-sol-artifact-1",
  "contractName": "FlexFundingAdapterContract",
  "sourceName": "contracts/flex/adatpers/FlexFunding.sol",
  "abi": [
    {
      "inputs": [],
      "name": "FundRaiseEndTimeNotUP",
      "type": "error"
    },
    {
      "inputs": [],
      "name": "InvalidInvestmentInfoParams",
      "type": "error"
    },
    {
      "inputs": [],
      "name": "InvalidInvestorIdentificationParams",
      "type": "error"
    },
    {
      "inputs": [],
      "name": "InvalidInvestorPriorityDepositParams",
      "type": "error"
    },
    {
      "inputs": [],
      "name": "InvalidReturnFundParams",
      "type": "error"
    },
    {
      "inputs": [],
      "name": "InvalidTokenRewardAmount",
      "type": "error"
    },
    {
      "inputs": [],
      "name": "InvalidVestingParams",
      "type": "error"
    },
    {
      "inputs": [],
      "name": "NotInExecuteState",
      "type": "error"
    },
    {
      "anonymous": false,
      "inputs": [
        {
          "indexed": false,
          "internalType": "address",
          "name": "daoAddress",
          "type": "address"
        },
        {
          "indexed": false,
          "internalType": "bytes32",
          "name": "proposalId",
          "type": "bytes32"
        },
        {
          "indexed": false,
          "internalType": "address",
          "name": "proposer",
          "type": "address"
        }
      ],
      "name": "ProposalCreated",
      "type": "event"
    },
    {
      "anonymous": false,
      "inputs": [
        {
          "indexed": false,
          "internalType": "address",
          "name": "daoAddress",
          "type": "address"
        },
        {
          "indexed": false,
          "internalType": "bytes32",
          "name": "proposalId",
          "type": "bytes32"
        },
        {
          "indexed": false,
          "internalType": "enum IFlexFunding.ProposalStatus",
          "name": "state",
          "type": "uint8"
        }
      ],
      "name": "ProposalExecuted",
      "type": "event"
    },
    {
      "inputs": [
        {
          "internalType": "address",
          "name": "",
          "type": "address"
        },
        {
          "internalType": "bytes32",
          "name": "",
          "type": "bytes32"
        }
      ],
      "name": "Proposals",
      "outputs": [
        {
          "internalType": "address",
          "name": "proposer",
          "type": "address"
        },
        {
          "components": [
            {
              "internalType": "address",
              "name": "tokenAddress",
              "type": "address"
            },
            {
              "internalType": "uint256",
              "name": "minInvestmentAmount",
              "type": "uint256"
            },
            {
              "internalType": "uint256",
              "name": "maxInvestmentAmount",
              "type": "uint256"
            },
            {
              "internalType": "uint256",
              "name": "finalRaisedAmount",
              "type": "uint256"
            },
            {
              "internalType": "bool",
              "name": "escrow",
              "type": "bool"
            },
            {
              "internalType": "address",
              "name": "paybackTokenAddr",
              "type": "address"
            },
            {
              "internalType": "uint256",
              "name": "paybackTokenAmount",
              "type": "uint256"
            },
            {
              "internalType": "uint256",
              "name": "price",
              "type": "uint256"
            },
            {
              "internalType": "uint256",
              "name": "minReturnAmount",
              "type": "uint256"
            },
            {
              "internalType": "uint256",
              "name": "maxReturnAmount",
              "type": "uint256"
            },
            {
              "internalType": "address",
              "name": "approverAddr",
              "type": "address"
            },
            {
              "internalType": "address",
              "name": "recipientAddr",
              "type": "address"
            }
          ],
          "internalType": "struct IFlexFunding.ProposalInvestmentInfo",
          "name": "investmentInfo",
          "type": "tuple"
        },
        {
          "components": [
            {
              "internalType": "uint256",
              "name": "vestingStartTime",
              "type": "uint256"
            },
            {
              "internalType": "uint256",
              "name": "vestingCliffEndTime",
              "type": "uint256"
            },
            {
              "internalType": "uint256",
              "name": "vestingEndTime",
              "type": "uint256"
            },
            {
              "internalType": "uint256",
              "name": "vestingInterval",
              "type": "uint256"
            },
            {
              "internalType": "uint256",
              "name": "vestingCliffLockAmount",
              "type": "uint256"
            },
            {
              "internalType": "bool",
              "name": "nftEnable",
              "type": "bool"
            },
            {
              "internalType": "address",
              "name": "erc721",
              "type": "address"
            },
            {
              "internalType": "string",
              "name": "vestName",
              "type": "string"
            },
            {
              "internalType": "string",
              "name": "vestDescription",
              "type": "string"
            }
          ],
          "internalType": "struct IFlexFunding.VestInfo",
          "name": "vestInfo",
          "type": "tuple"
        },
        {
          "components": [
            {
              "internalType": "enum IFlexFunding.FundRaiseType",
              "name": "fundRaiseType",
              "type": "uint8"
            },
            {
              "internalType": "uint256",
              "name": "fundRaiseStartTime",
              "type": "uint256"
            },
            {
              "internalType": "uint256",
              "name": "fundRaiseEndTime",
              "type": "uint256"
            },
            {
              "internalType": "uint256",
              "name": "minDepositAmount",
              "type": "uint256"
            },
            {
              "internalType": "uint256",
              "name": "maxDepositAmount",
              "type": "uint256"
            },
            {
              "internalType": "bool",
              "name": "investorIdentification",
              "type": "bool"
            },
            {
              "components": [
                {
                  "internalType": "enum IFlexFunding.InvestorIdentificationType",
                  "name": "bType",
                  "type": "uint8"
                },
                {
                  "internalType": "uint32",
                  "name": "bChainId",
                  "type": "uint32"
                },
                {
                  "internalType": "address",
                  "name": "bTokanAddr",
                  "type": "address"
                },
                {
                  "internalType": "uint256",
                  "name": "bTokenId",
                  "type": "uint256"
                },
                {
                  "internalType": "uint256",
                  "name": "bMinHoldingAmount",
                  "type": "uint256"
                }
              ],
              "internalType": "struct IFlexFunding.InvestorIdentificationInfo",
              "name": "investorIdentificationInfo",
              "type": "tuple"
            },
            {
              "components": [
                {
                  "internalType": "bool",
                  "name": "enable",
                  "type": "bool"
                },
                {
                  "internalType": "enum IFlexFunding.PriorityDepositType",
                  "name": "pType",
                  "type": "uint8"
                },
                {
                  "internalType": "address",
                  "name": "token",
                  "type": "address"
                },
                {
                  "internalType": "uint256",
                  "name": "tokenId",
                  "type": "uint256"
                },
                {
                  "internalType": "uint256",
                  "name": "amount",
                  "type": "uint256"
                }
              ],
              "internalType": "struct IFlexFunding.PriorityDepositInfo",
              "name": "priorityDepositInfo",
              "type": "tuple"
            }
          ],
          "internalType": "struct IFlexFunding.FundRaiseInfo",
          "name": "fundRaiseInfo",
          "type": "tuple"
        },
        {
          "components": [
            {
              "internalType": "uint256",
              "name": "tokenRewardAmount",
              "type": "uint256"
            },
            {
              "internalType": "uint256",
              "name": "cashRewardAmount",
              "type": "uint256"
            }
          ],
          "internalType": "struct IFlexFunding.ProposerRewardInfo",
          "name": "proposerRewardInfo",
          "type": "tuple"
        },
        {
          "internalType": "uint256",
          "name": "startVoteTime",
          "type": "uint256"
        },
        {
          "internalType": "uint256",
          "name": "stopVoteTime",
          "type": "uint256"
        },
        {
          "internalType": "enum IFlexFunding.ProposalStatus",
          "name": "state",
          "type": "uint8"
        }
      ],
      "stateMutability": "view",
      "type": "function"
    },
    {
      "inputs": [],
      "name": "RETRUN_TOKEN_AMOUNT_PRECISION",
      "outputs": [
        {
          "internalType": "uint256",
          "name": "",
          "type": "uint256"
        }
      ],
      "stateMutability": "view",
      "type": "function"
    },
    {
      "inputs": [
        {
          "internalType": "contract DaoRegistry",
          "name": "dao",
          "type": "address"
        }
      ],
      "name": "allDone",
      "outputs": [
        {
          "internalType": "bool",
          "name": "",
          "type": "bool"
        }
      ],
      "stateMutability": "view",
      "type": "function"
    },
    {
      "inputs": [
        {
          "internalType": "contract DaoRegistry",
          "name": "dao",
          "type": "address"
        }
      ],
      "name": "clearProposerWhitelist",
      "outputs": [],
      "stateMutability": "nonpayable",
      "type": "function"
    },
    {
      "inputs": [
        {
          "internalType": "contract DaoRegistry",
          "name": "dao",
          "type": "address"
        },
        {
          "internalType": "bytes32",
          "name": "proposalId",
          "type": "bytes32"
        }
      ],
      "name": "getPriorityDepositedWhitelist",
      "outputs": [
        {
          "internalType": "address[]",
          "name": "",
          "type": "address[]"
        }
      ],
      "stateMutability": "view",
      "type": "function"
    },
    {
      "inputs": [
        {
          "internalType": "contract DaoRegistry",
          "name": "dao",
          "type": "address"
        }
      ],
      "name": "getProposerWhitelist",
      "outputs": [
        {
          "internalType": "address[]",
          "name": "",
          "type": "address[]"
        }
      ],
      "stateMutability": "view",
      "type": "function"
    },
    {
      "inputs": [
        {
          "internalType": "contract DaoRegistry",
          "name": "dao",
          "type": "address"
        },
        {
          "internalType": "address",
          "name": "_addr",
          "type": "address"
        }
      ],
      "name": "isActiveMember",
      "outputs": [
        {
          "internalType": "bool",
          "name": "",
          "type": "bool"
        }
      ],
      "stateMutability": "view",
      "type": "function"
    },
    {
      "inputs": [
        {
          "internalType": "contract DaoRegistry",
          "name": "dao",
          "type": "address"
        },
        {
          "internalType": "bytes32",
          "name": "proposalId",
          "type": "bytes32"
        },
        {
          "internalType": "address",
          "name": "account",
          "type": "address"
        }
      ],
      "name": "isPriorityDepositedWhitelist",
      "outputs": [
        {
          "internalType": "bool",
          "name": "",
          "type": "bool"
        }
      ],
      "stateMutability": "view",
      "type": "function"
    },
    {
      "inputs": [
        {
          "internalType": "contract DaoRegistry",
          "name": "dao",
          "type": "address"
        },
        {
          "internalType": "address",
          "name": "account",
          "type": "address"
        }
      ],
      "name": "isProposerWhiteList",
      "outputs": [
        {
          "internalType": "bool",
          "name": "",
          "type": "bool"
        }
      ],
      "stateMutability": "view",
      "type": "function"
    },
    {
      "inputs": [
        {
          "internalType": "contract DaoRegistry",
          "name": "dao",
          "type": "address"
        },
        {
          "internalType": "bytes32",
          "name": "proposalId",
          "type": "bytes32"
        }
      ],
      "name": "processProposal",
      "outputs": [
        {
          "internalType": "bool",
          "name": "",
          "type": "bool"
        }
      ],
      "stateMutability": "nonpayable",
      "type": "function"
    },
    {
      "inputs": [],
      "name": "protocolAddress",
      "outputs": [
        {
          "internalType": "address",
          "name": "",
          "type": "address"
        }
      ],
      "stateMutability": "view",
      "type": "function"
    },
    {
      "inputs": [],
      "name": "protocolFee",
      "outputs": [
        {
          "internalType": "uint256",
          "name": "",
          "type": "uint256"
        }
      ],
      "stateMutability": "view",
      "type": "function"
    },
    {
      "inputs": [
        {
          "internalType": "contract DaoRegistry",
          "name": "dao",
          "type": "address"
        },
        {
          "internalType": "address",
          "name": "account",
          "type": "address"
        }
      ],
      "name": "registerProposerWhiteList",
      "outputs": [],
      "stateMutability": "nonpayable",
      "type": "function"
    },
    {
      "inputs": [
        {
          "internalType": "contract DaoRegistry",
          "name": "dao",
          "type": "address"
        },
        {
          "internalType": "bytes32",
          "name": "proposalId",
          "type": "bytes32"
        }
      ],
      "name": "retrunTokenToApprover",
      "outputs": [],
      "stateMutability": "nonpayable",
      "type": "function"
    },
    {
      "inputs": [
        {
          "internalType": "contract DaoRegistry",
          "name": "dao",
          "type": "address"
        },
        {
          "internalType": "address",
          "name": "_protocolAddress",
          "type": "address"
        }
      ],
      "name": "setProtocolAddress",
      "outputs": [],
      "stateMutability": "nonpayable",
      "type": "function"
    },
    {
      "inputs": [
        {
          "internalType": "contract DaoRegistry",
          "name": "dao",
          "type": "address"
        },
        {
          "internalType": "uint256",
          "name": "_protocolFee",
          "type": "uint256"
        }
      ],
      "name": "setProtocolFee",
      "outputs": [],
      "stateMutability": "nonpayable",
      "type": "function"
    },
    {
      "inputs": [
        {
          "internalType": "contract DaoRegistry",
          "name": "dao",
          "type": "address"
        },
        {
          "components": [
            {
              "components": [
                {
                  "internalType": "address",
                  "name": "tokenAddress",
                  "type": "address"
                },
                {
                  "internalType": "uint256",
                  "name": "minInvestmentAmount",
                  "type": "uint256"
                },
                {
                  "internalType": "uint256",
                  "name": "maxInvestmentAmount",
                  "type": "uint256"
                },
                {
                  "internalType": "bool",
                  "name": "escrow",
                  "type": "bool"
                },
                {
                  "internalType": "address",
                  "name": "paybackTokenAddr",
                  "type": "address"
                },
                {
                  "internalType": "uint256",
                  "name": "paybackTokenAmount",
                  "type": "uint256"
                },
                {
                  "internalType": "uint256",
                  "name": "price",
                  "type": "uint256"
                },
                {
                  "internalType": "uint256",
                  "name": "minReturnAmount",
                  "type": "uint256"
                },
                {
                  "internalType": "uint256",
                  "name": "maxReturnAmount",
                  "type": "uint256"
                },
                {
                  "internalType": "address",
                  "name": "approverAddr",
                  "type": "address"
                },
                {
                  "internalType": "address",
                  "name": "recipientAddr",
                  "type": "address"
                }
              ],
              "internalType": "struct IFlexFunding.InvestmentInfo",
              "name": "investmentInfo",
              "type": "tuple"
            },
            {
              "components": [
                {
                  "internalType": "uint256",
                  "name": "vestingStartTime",
                  "type": "uint256"
                },
                {
                  "internalType": "uint256",
                  "name": "vestingCliffEndTime",
                  "type": "uint256"
                },
                {
                  "internalType": "uint256",
                  "name": "vestingEndTime",
                  "type": "uint256"
                },
                {
                  "internalType": "uint256",
                  "name": "vestingInterval",
                  "type": "uint256"
                },
                {
                  "internalType": "uint256",
                  "name": "vestingCliffLockAmount",
                  "type": "uint256"
                },
                {
                  "internalType": "bool",
                  "name": "nftEnable",
                  "type": "bool"
                },
                {
                  "internalType": "address",
                  "name": "erc721",
                  "type": "address"
                },
                {
                  "internalType": "string",
                  "name": "vestName",
                  "type": "string"
                },
                {
                  "internalType": "string",
                  "name": "vestDescription",
                  "type": "string"
                }
              ],
              "internalType": "struct IFlexFunding.VestInfo",
              "name": "vestInfo",
              "type": "tuple"
            },
            {
              "components": [
                {
                  "internalType": "enum IFlexFunding.FundRaiseType",
                  "name": "fundRaiseType",
                  "type": "uint8"
                },
                {
                  "internalType": "uint256",
                  "name": "fundRaiseStartTime",
                  "type": "uint256"
                },
                {
                  "internalType": "uint256",
                  "name": "fundRaiseEndTime",
                  "type": "uint256"
                },
                {
                  "internalType": "uint256",
                  "name": "minDepositAmount",
                  "type": "uint256"
                },
                {
                  "internalType": "uint256",
                  "name": "maxDepositAmount",
                  "type": "uint256"
                },
                {
                  "internalType": "bool",
                  "name": "investorIdentification",
                  "type": "bool"
                },
                {
                  "components": [
                    {
                      "internalType": "enum IFlexFunding.InvestorIdentificationType",
                      "name": "bType",
                      "type": "uint8"
                    },
                    {
                      "internalType": "uint32",
                      "name": "bChainId",
                      "type": "uint32"
                    },
                    {
                      "internalType": "address",
                      "name": "bTokanAddr",
                      "type": "address"
                    },
                    {
                      "internalType": "uint256",
                      "name": "bTokenId",
                      "type": "uint256"
                    },
                    {
                      "internalType": "uint256",
                      "name": "bMinHoldingAmount",
                      "type": "uint256"
                    }
                  ],
                  "internalType": "struct IFlexFunding.InvestorIdentificationInfo",
                  "name": "investorIdentificationInfo",
                  "type": "tuple"
                },
                {
                  "components": [
                    {
                      "internalType": "bool",
                      "name": "enable",
                      "type": "bool"
                    },
                    {
                      "internalType": "enum IFlexFunding.PriorityDepositType",
                      "name": "pType",
                      "type": "uint8"
                    },
                    {
                      "internalType": "address",
                      "name": "token",
                      "type": "address"
                    },
                    {
                      "internalType": "uint256",
                      "name": "tokenId",
                      "type": "uint256"
                    },
                    {
                      "internalType": "uint256",
                      "name": "amount",
                      "type": "uint256"
                    }
                  ],
                  "internalType": "struct IFlexFunding.PriorityDepositInfo",
                  "name": "priorityDepositInfo",
                  "type": "tuple"
                }
              ],
              "internalType": "struct IFlexFunding.FundRaiseInfo",
              "name": "fundRaiseInfo",
              "type": "tuple"
            },
            {
              "components": [
                {
                  "internalType": "uint256",
                  "name": "tokenRewardAmount",
                  "type": "uint256"
                },
                {
                  "internalType": "uint256",
                  "name": "cashRewardAmount",
                  "type": "uint256"
                }
              ],
              "internalType": "struct IFlexFunding.ProposerRewardInfo",
              "name": "proposerRewardInfo",
              "type": "tuple"
            },
            {
              "internalType": "address[]",
              "name": "priorityDepositWhitelist",
              "type": "address[]"
            }
          ],
          "internalType": "struct IFlexFunding.ProposalParams",
          "name": "params",
          "type": "tuple"
        }
      ],
      "name": "submitProposal",
      "outputs": [],
      "stateMutability": "nonpayable",
      "type": "function"
    }
  ],
  "bytecode": "0x60806040526103e86200001c670de0b6b3a7640000600362000086565b62000028919062000065565b600455600580546001600160a01b031916739ac9c636404c8d46d9eb966d7179983ba5a3941a1790553480156200005e57600080fd5b50620000b2565b6000826200008157634e487b7160e01b81526012600452602481fd5b500490565b6000816000190483118215151615620000ad57634e487b7160e01b81526011600452602481fd5b500290565b615f3280620000c26000396000f3fe608060405234801561001057600080fd5b506004361061011b5760003560e01c80638ecf7720116100b2578063b0e21e8a11610081578063bf49999411610066578063bf4999941461026a578063c56e1c3c14610291578063c7aa00dd146102a457600080fd5b8063b0e21e8a1461024e578063b5b3ca2c1461025757600080fd5b80638ecf7720146102025780639573167d14610215578063ac7634dc14610228578063acc232081461023b57600080fd5b80635dbf37db116100ee5780635dbf37db1461019c578063642fc0c0146101bf5780636d535f11146101d25780636e0717e5146101ef57600080fd5b806305c6cc33146101205780630676c1b71461014957806339493c7d14610174578063438d931214610187575b600080fd5b61013361012e3660046154af565b6102b7565b6040516101409190615b3c565b60405180910390f35b60055461015c906001600160a01b031681565b6040516001600160a01b039091168152602001610140565b6101336101823660046155af565b6102e1565b61019a610195366004615577565b610317565b005b6101af6101aa366004615577565b61051a565b6040519015158152602001610140565b6101af6101cd3660046154af565b61053c565b6101e1670de0b6b3a764000081565b604051908152602001610140565b61019a6101fd3660046154af565b610573565b6101af610210366004615577565b610734565b6101af6102233660046155af565b6107ca565b61019a610236366004615602565b611a6f565b61019a6102493660046155af565b613b17565b6101e160045481565b61019a6102653660046155af565b613c99565b61027d6102783660046154e7565b613e7a565b604051610140989796959493929190615a18565b6101af61029f3660046155c1565b6142f3565b61019a6102b2366004615577565b614328565b6001600160a01b03811660009081526002602052604090206060906102db9061447d565b92915050565b6001600160a01b038216600090815260016020908152604080832084845290915290206060906103109061447d565b9392505050565b8143816001600160a01b031663b21634826040518163ffffffff1660e01b815260040160206040518083038186803b15801561035257600080fd5b505afa158015610366573d6000803e3d6000fd5b505050506040513d601f19601f8201168201806040525081019061038a919061577e565b14156103dd5760405162461bcd60e51b815260206004820152601060248201527f7265656e7472616e63792067756172640000000000000000000000000000000060448201526064015b60405180910390fd5b806001600160a01b03166310fdb0a26040518163ffffffff1660e01b8152600401600060405180830381600087803b15801561041857600080fd5b505af115801561042c573d6000803e3d6000fd5b505050508261043a8161448a565b6001600160a01b0316336001600160a01b03161461049a5760405162461bcd60e51b815260206004820152600b60248201527f4163636573732044656e7900000000000000000000000000000000000000000060448201526064016103d4565b82600560006101000a8154816001600160a01b0302191690836001600160a01b0316021790555050806001600160a01b031663d4f7af436040518163ffffffff1660e01b8152600401600060405180830381600087803b1580156104fd57600080fd5b505af1158015610511573d6000803e3d6000fd5b50505050505050565b6001600160a01b0382166000908152600260205260408120610310908361456d565b6001600160a01b0381166000908152600360205260408120819061055f9061458f565b1161056b5760016102db565b600092915050565b6040516317ba7d8560e01b81527fff9379b98b93eb3bd1fac62fd2258a7955d70d2d5279c40064145b6c9646df37600482015281906001600160a01b038216906317ba7d859060240160206040518083038186803b1580156105d457600080fd5b505afa1580156105e8573d6000803e3d6000fd5b505050506040513d601f19601f8201168201806040525081019061060c91906154cb565b6001600160a01b0316336001600160a01b0316148061062f575061062f81614599565b61067b5760405162461bcd60e51b815260206004820152600760248201527f216163636573730000000000000000000000000000000000000000000000000060448201526064016103d4565b6001600160a01b038216600090815260026020526040902060609061069f9061447d565b8051909150801561072e5760005b818160ff16101561072c57610719838260ff16815181106106de57634e487b7160e01b600052603260045260246000fd5b602002602001015160026000886001600160a01b03166001600160a01b031681526020019081526020016000206147d290919063ffffffff16565b508061072481615e36565b9150506106ad565b505b50505050565b6040517fa230c5240000000000000000000000000000000000000000000000000000000081526001600160a01b0382811660048301526000919084169063a230c5249060240160206040518083038186803b15801561079257600080fd5b505afa1580156107a6573d6000803e3d6000fd5b505050506040513d601f19601f82011682018060405250810190610310919061552e565b60008260006107d8826147e7565b90506107e2615161565b6001600160a01b0386166000818152602081815260408083208984529091529081902090516317ba7d8560e01b81527f2207fd6117465cefcba0abc867150698c0464aa41a293ec29ca01b67a6350c3c60048201529091906317ba7d859060240160206040518083038186803b15801561085b57600080fd5b505afa15801561086f573d6000803e3d6000fd5b505050506040513d601f19601f8201168201806040525081019061089391906154cb565b6001600160a01b0390811660608401526040517f593e96b60000000000000000000000000000000000000000000000000000000081527fb12a3847d47fefceb164b75823af125f9aa82b76938df0ddf08c04cd314ba37c60048201529088169063593e96b69060240160206040518083038186803b15801561091457600080fd5b505afa158015610928573d6000803e3d6000fd5b505050506040513d601f19601f8201168201806040525081019061094c91906154cb565b6001600160a01b031660808301526000602482015460ff16600481111561098357634e487b7160e01b600052602160045260246000fd5b1415610c8657806023015442116109dc5760405162461bcd60e51b815260206004820152601960248201527f70726f706f73616c20696e20766f74696e6720706572696f640000000000000060448201526064016103d4565b6040517f40de703e000000000000000000000000000000000000000000000000000000008152600481018790526001600160a01b038816906340de703e9060240160206040518083038186803b158015610a3557600080fd5b505afa158015610a49573d6000803e3d6000fd5b505050506040513d601f19601f82011682018060405250810190610a6d91906154cb565b6001600160a01b031660c08301819052610ac95760405162461bcd60e51b815260206004820152601160248201527f61646170746572206e6f7420666f756e6400000000000000000000000000000060448201526064016103d4565b60c08201516040517f76225e730000000000000000000000000000000000000000000000000000000081526001600160a01b03898116600483015260248201899052909116906376225e7390604401606060405180830381600087803b158015610b3257600080fd5b505af1158015610b46573d6000803e3d6000fd5b505050506040513d601f19601f82011682018060405250810190610b6a91906156a0565b505060e08301816005811115610b9057634e487b7160e01b600052602160045260246000fd5b6005811115610baf57634e487b7160e01b600052602160045260246000fd5b90525060028260e001516005811115610bd857634e487b7160e01b600052602160045260246000fd5b1415610c6a576024818101805460ff1916600117905560808301516040517fb6d26e38000000000000000000000000000000000000000000000000000000008152600481018990526001600160a01b039091169163b6d26e389101600060405180830381600087803b158015610c4d57600080fd5b505af1158015610c61573d6000803e3d6000fd5b505050506119c6565b6024810180546004919060ff19166001835b02179055506119c6565b6001602482015460ff166004811115610caf57634e487b7160e01b600052602160045260246000fd5b14156119945760608201516040517ff614aea30000000000000000000000000000000000000000000000000000000081526001600160a01b038981166004830152602482018990529091169063f614aea390604401600060405180830381600087803b158015610d1e57600080fd5b505af1158015610d32573d6000803e3d6000fd5b50505060608301516040517f0617b0ce0000000000000000000000000000000000000000000000000000000081526001600160a01b038a81166004830152602482018a90529091169150630617b0ce9060440160206040518083038186803b158015610d9d57600080fd5b505afa158015610db1573d6000803e3d6000fd5b505050506040513d601f19601f82011682018060405250810190610dd591906154cb565b6001600160a01b039081166101408401526001820154166101e08301526016810154421015610e30576040517f5d68b4f100000000000000000000000000000000000000000000000000000000815260040160405180910390fd5b6040517f30490e91000000000000000000000000000000000000000000000000000000008152600481018790526001600160a01b038816906330490e9190602401600060405180830381600087803b158015610e8b57600080fd5b505af1158015610e9f573d6000803e3d6000fd5b50505050670de0b6b3a76400006004548361014001516001600160a01b0316610ec89190615d84565b610ed29190615d70565b610160830152604051634941d71d60e11b81527fda34ff95e06cbf2c9c32a559cd8aadd1a10104596417d62c03db2c1258df83d360048201526001600160a01b03881690639283ae3a9060240160206040518083038186803b158015610f3757600080fd5b505afa158015610f4b573d6000803e3d6000fd5b505050506040513d601f19601f82011682018060405250810190610f6f919061577e565b1561101057604051634941d71d60e11b81527f64c49ee5084f4940c312104c41603e43791b03dad28152afd6eadb5b960a8a8760048201526001600160a01b03881690639283ae3a9060240160206040518083038186803b158015610fd357600080fd5b505afa158015610fe7573d6000803e3d6000fd5b505050506040513d601f19601f8201168201806040525081019061100b919061577e565b6110d4565b604051634941d71d60e11b81527f64c49ee5084f4940c312104c41603e43791b03dad28152afd6eadb5b960a8a876004820152670de0b6b3a7640000906001600160a01b03891690639283ae3a9060240160206040518083038186803b15801561107957600080fd5b505afa15801561108d573d6000803e3d6000fd5b505050506040513d601f19601f820116820180604052508101906110b1919061577e565b8361014001516001600160a01b03166110ca9190615d84565b6110d49190615d70565b6101808301526021810154610140830151670de0b6b3a764000091611101916001600160a01b0316615d84565b61110b9190615d70565b6101c08301819052610180830151610160840151600284015461112e9190615d58565b6111389190615d58565b6111429190615d58565b8261014001516001600160a01b03161061197e576101408201516001600160a01b03166004820155600581015460ff1615611401578060010160060154670de0b6b3a7640000836101c001518461018001518561016001518661014001516001600160a01b03166111b39190615da3565b6111bd9190615da3565b6111c79190615da3565b6111d19190615d84565b6111db9190615d70565b600682018190556102608301819052600a8201546005830154611213928a926001600160a01b0390811692610100900416908a614ab2565b61127e576024810180546004919060ff19166001835b021790555060248101546040517ff854addaea7ab1ac33b2a81fdae355ba1b5600023b89719b7c224c866577421e9161126b918a918a9160ff909116906159f4565b60405180910390a1600094505050611a5d565b6040516317ba7d8560e01b81527fb0326f8dfc913f537596953a938551c86ac8fe0da74c9a8cd0ee660e627dccc860048201526001600160a01b038816906317ba7d859060240160206040518083038186803b1580156112dd57600080fd5b505afa1580156112f1573d6000803e3d6000fd5b505050506040513d601f19601f8201168201806040525081019061131591906154cb565b6001600160a01b0390811660a0808501829052600584015484546040805193840181526102608801518452600c87015460208501819052600d8801549596635d5cdb32968f9661010090960482169594909116938e9390929083019161137b9190615da3565b8152600f89015460208201819052604091820152517fffffffff0000000000000000000000000000000000000000000000000000000060e088901b1681526113ca959493929190600401615b89565b600060405180830381600087803b1580156113e457600080fd5b505af11580156113f8573d6000803e3d6000fd5b5050505061153d565b6040516317ba7d8560e01b81527fb0326f8dfc913f537596953a938551c86ac8fe0da74c9a8cd0ee660e627dccc860048201526001600160a01b038816906317ba7d859060240160206040518083038186803b15801561146057600080fd5b505afa158015611474573d6000803e3d6000fd5b505050506040513d601f19601f8201168201806040525081019061149891906154cb565b6001600160a01b0390811660a084018190526040517f9a3eb32b00000000000000000000000000000000000000000000000000000000815291891660048301526024820188905290639a3eb32b90604401602060405180830381600087803b15801561150357600080fd5b505af1158015611517573d6000803e3d6000fd5b505050506040513d601f19601f8201168201806040525081019061153b919061552e565b505b60248101805460ff19166002179055610160820151156115f45760808201516005546101e08401516101608501516040517fceb1bfa6000000000000000000000000000000000000000000000000000000008152600481018b90526001600160a01b0393841660248201529183166044830152606482015291169063ceb1bfa690608401600060405180830381600087803b1580156115db57600080fd5b505af11580156115ef573d6000803e3d6000fd5b505050505b610180820151156117435781608001516001600160a01b031663ceb1bfa687896001600160a01b031663fd310d297f8987d08c67963e4cacd5e5936c122a968c66853d58299dd822c19422271098396040518263ffffffff1660e01b815260040161166191815260200190565b60206040518083038186803b15801561167957600080fd5b505afa15801561168d573d6000803e3d6000fd5b505050506040513d601f19601f820116820180604052508101906116b191906154cb565b6101e08601516101808701516040517fffffffff0000000000000000000000000000000000000000000000000000000060e087901b16815260048101949094526001600160a01b039283166024850152911660448301526064820152608401600060405180830381600087803b15801561172a57600080fd5b505af115801561173e573d6000803e3d6000fd5b505050505b6101c0820151156117ea57608082015181546101e08401516101c08501516040517fceb1bfa6000000000000000000000000000000000000000000000000000000008152600481018b90526001600160a01b0393841660248201529183166044830152606482015291169063ceb1bfa690608401600060405180830381600087803b1580156117d157600080fd5b505af11580156117e5573d6000803e3d6000fd5b505050505b81608001516001600160a01b031663ceb1bfa68783600101600a0160009054906101000a90046001600160a01b0316856101e00151866101c001518761018001518861016001518961014001516001600160a01b031661184a9190615da3565b6118549190615da3565b61185e9190615da3565b6040517fffffffff0000000000000000000000000000000000000000000000000000000060e087901b16815260048101949094526001600160a01b039283166024850152911660448301526064820152608401600060405180830381600087803b1580156118cb57600080fd5b505af11580156118df573d6000803e3d6000fd5b5050505060808201516101408301516040517f1127b158000000000000000000000000000000000000000000000000000000008152600481018990526001600160a01b039182166024820152911690631127b15890604401600060405180830381600087803b15801561195157600080fd5b505af1158015611965573d6000803e3d6000fd5b5050506024820180546003925060ff1916600183610c7c565b6024810180546004919060ff1916600183611229565b6040517fb7ea643300000000000000000000000000000000000000000000000000000000815260040160405180910390fd5b6001600160a01b03871660009081526003602052604090206119e89087614c0f565b15611a11576001600160a01b0387166000908152600360205260409020611a0f9087614c27565b505b60248101546040517ff854addaea7ab1ac33b2a81fdae355ba1b5600023b89719b7c224c866577421e91611a4e918a918a9160ff909116906159f4565b60405180910390a16001945050505b611a678282614c33565b505092915050565b816000611a7b826147e7565b604051634941d71d60e11b81527f2073e6ba5c75026b006fdd165596d94b89cada2e00d8e44a99d422de8ea467e0600482015290915084906001600160a01b03821690639283ae3a9060240160206040518083038186803b158015611adf57600080fd5b505afa158015611af3573d6000803e3d6000fd5b505050506040513d601f19601f82011682018060405250810190611b17919061577e565b600114156124c557604051634941d71d60e11b81527f57901982635f8a470a3648422f8f769cf08dc2057489be5bf0099fcb44f7d43c60048201526001600160a01b03821690639283ae3a9060240160206040518083038186803b158015611b7e57600080fd5b505afa158015611b92573d6000803e3d6000fd5b505050506040513d601f19601f82011682018060405250810190611bb6919061577e565b611dc857604051634941d71d60e11b81527ff6d5f030b79ca78dad001b87a49239ec96be97e62d13501da94c9a392700509e60048201526001600160a01b03821690639283ae3a9060240160206040518083038186803b158015611c1957600080fd5b505afa158015611c2d573d6000803e3d6000fd5b505050506040513d601f19601f82011682018060405250810190611c51919061577e565b60405163fd310d2960e01b81527f30091caaedd0994beeeeb3b7b5734296263687ae0126aaf79e5e0f8e5c1706b260048201526001600160a01b0383169063fd310d299060240160206040518083038186803b158015611cb057600080fd5b505afa158015611cc4573d6000803e3d6000fd5b505050506040513d601f19601f82011682018060405250810190611ce891906154cb565b6040517f70a082310000000000000000000000000000000000000000000000000000000081523360048201526001600160a01b0391909116906370a082319060240160206040518083038186803b158015611d4257600080fd5b505afa158015611d56573d6000803e3d6000fd5b505050506040513d601f19601f82011682018060405250810190611d7a919061577e565b1015611dc85760405162461bcd60e51b815260206004820152601660248201527f3c206d696e206572633230207265717569726d656e740000000000000000000060448201526064016103d4565b604051634941d71d60e11b81527f57901982635f8a470a3648422f8f769cf08dc2057489be5bf0099fcb44f7d43c60048201526001600160a01b03821690639283ae3a9060240160206040518083038186803b158015611e2757600080fd5b505afa158015611e3b573d6000803e3d6000fd5b505050506040513d601f19601f82011682018060405250810190611e5f919061577e565b6001141561207557604051634941d71d60e11b81527ff6d5f030b79ca78dad001b87a49239ec96be97e62d13501da94c9a392700509e60048201526001600160a01b03821690639283ae3a9060240160206040518083038186803b158015611ec657600080fd5b505afa158015611eda573d6000803e3d6000fd5b505050506040513d601f19601f82011682018060405250810190611efe919061577e565b60405163fd310d2960e01b81527f30091caaedd0994beeeeb3b7b5734296263687ae0126aaf79e5e0f8e5c1706b260048201526001600160a01b0383169063fd310d299060240160206040518083038186803b158015611f5d57600080fd5b505afa158015611f71573d6000803e3d6000fd5b505050506040513d601f19601f82011682018060405250810190611f9591906154cb565b6040517f70a082310000000000000000000000000000000000000000000000000000000081523360048201526001600160a01b0391909116906370a082319060240160206040518083038186803b158015611fef57600080fd5b505afa158015612003573d6000803e3d6000fd5b505050506040513d601f19601f82011682018060405250810190612027919061577e565b10156120755760405162461bcd60e51b815260206004820152601360248201527f3c20657263373231207265717569726d656e740000000000000000000000000060448201526064016103d4565b604051634941d71d60e11b81527f57901982635f8a470a3648422f8f769cf08dc2057489be5bf0099fcb44f7d43c60048201526001600160a01b03821690639283ae3a9060240160206040518083038186803b1580156120d457600080fd5b505afa1580156120e8573d6000803e3d6000fd5b505050506040513d601f19601f8201168201806040525081019061210c919061577e565b600214156123d057604051634941d71d60e11b81527ff6d5f030b79ca78dad001b87a49239ec96be97e62d13501da94c9a392700509e60048201526001600160a01b03821690639283ae3a9060240160206040518083038186803b15801561217357600080fd5b505afa158015612187573d6000803e3d6000fd5b505050506040513d601f19601f820116820180604052508101906121ab919061577e565b60405163fd310d2960e01b81527f30091caaedd0994beeeeb3b7b5734296263687ae0126aaf79e5e0f8e5c1706b260048201526001600160a01b0383169063fd310d299060240160206040518083038186803b15801561220a57600080fd5b505afa15801561221e573d6000803e3d6000fd5b505050506040513d601f19601f8201168201806040525081019061224291906154cb565b6001600160a01b031662fdd58e33846001600160a01b0316639283ae3a7fb34f156369747125f679c86d97f51861a5a2a9f927a1addd4354acbaaa88ae576040518263ffffffff1660e01b815260040161229e91815260200190565b60206040518083038186803b1580156122b657600080fd5b505afa1580156122ca573d6000803e3d6000fd5b505050506040513d601f19601f820116820180604052508101906122ee919061577e565b6040517fffffffff0000000000000000000000000000000000000000000000000000000060e085901b1681526001600160a01b039092166004830152602482015260440160206040518083038186803b15801561234a57600080fd5b505afa15801561235e573d6000803e3d6000fd5b505050506040513d601f19601f82011682018060405250810190612382919061577e565b10156123d05760405162461bcd60e51b815260206004820152601460248201527f3c2065726331313535207265717569726d656e7400000000000000000000000060448201526064016103d4565b604051634941d71d60e11b81527f57901982635f8a470a3648422f8f769cf08dc2057489be5bf0099fcb44f7d43c60048201526001600160a01b03821690639283ae3a9060240160206040518083038186803b15801561242f57600080fd5b505afa158015612443573d6000803e3d6000fd5b505050506040513d601f19601f82011682018060405250810190612467919061577e565b600314156124c557612479813361051a565b6124c55760405162461bcd60e51b815260206004820152601060248201527f6e6f7420696e2077686974656c6973740000000000000000000000000000000060448201526064016103d4565b6040516317ba7d8560e01b81527fe564b2da9fb62dadceed6d94ac5884ac5f464424e7be661d7d6181d49fa87b3f60048201526000906001600160a01b038716906317ba7d859060240160206040518083038186803b15801561252757600080fd5b505afa15801561253b573d6000803e3d6000fd5b505050506040513d601f19601f8201168201806040525081019061255f91906154cb565b6040517f9a0242fc0000000000000000000000000000000000000000000000000000000081526001600160a01b03888116600483015291925090821690639a0242fc9060240160206040518083038186803b1580156125bd57600080fd5b505afa1580156125d1573d6000803e3d6000fd5b505050506040513d601f19601f820116820180604052508101906125f5919061552e565b6126415760405162461bcd60e51b815260206004820152601660248201527f556e446f6e652044616f7365742050726f706f73616c0000000000000000000060448201526064016103d4565b60408501351580159061265b575060208501356040860135105b806126725750670de0b6b3a76400006103a0860135115b156126a9576040517f24ffd71700000000000000000000000000000000000000000000000000000000815260040160405180910390fd5b6126bb61024086016102208701615512565b151560011480156126fd575060036126db61026087016102408801615684565b60038111156126fa57634e487b7160e01b600052602160045260246000fd5b14155b8015612730575060006127186102a0870161028088016154af565b6001600160a01b0316148061273057506102c0850135155b15612767576040517f1899208600000000000000000000000000000000000000000000000000000000815260040160405180910390fd5b61277961030086016102e08701615512565b151560011480156127bb5750600361279961032087016103008801615684565b60038111156127b857634e487b7160e01b600052602160045260246000fd5b14155b80156127ee575060006127d6610340870161032088016154af565b6001600160a01b031614806127ee5750610360850135155b15612825576040517f7cf07e5e00000000000000000000000000000000000000000000000000000000815260040160405180910390fd5b6128f8604051806102a001604052806000815260200160006001600160a01b0316815260200160006001600160a01b0316815260200160006001600160a01b0316815260200160006001600160a01b0316815260200160006001600160a01b031681526020016000801916815260200160008152602001600081526020016000815260200160008152602001600081526020016000815260200160008152602001600081526020016000815260200160008152602001600081526020016000815260200160008152602001600081525090565b6040516317ba7d8560e01b81527f6f48e16963713446db50a1503860d8e1fc3c888da56a85afcaa6dc29503cc61060048201526001600160a01b038816906317ba7d859060240160206040518083038186803b15801561295757600080fd5b505afa15801561296b573d6000803e3d6000fd5b505050506040513d601f19601f8201168201806040525081019061298f91906154cb565b81602001906001600160a01b031690816001600160a01b031681525050866001600160a01b031663776d13c56040518163ffffffff1660e01b8152600401600060405180830381600087803b1580156129e757600080fd5b505af11580156129fb573d6000803e3d6000fd5b50505050612aa48760c01b612a7f896001600160a01b031663f1457aac6040518163ffffffff1660e01b815260040160206040518083038186803b158015612a4257600080fd5b505afa158015612a56573d6000803e3d6000fd5b505050506040513d601f19601f82011682018060405250810190612a7a919061577e565b614c42565b604051602001612a90929190615986565b604051602081830303815290604052614d90565b60c0820152612ab96080870160608801615512565b15612c32576000612ad060a08801608089016154af565b6001600160a01b03161480612aff57506000612af4610140880161012089016154af565b6001600160a01b0316145b80612b0c575060e0860135155b15612b43576040517f1d0bec7000000000000000000000000000000000000000000000000000000000815260040160405180910390fd5b670de0b6b3a7640000612b5a610160880188615ce4565b608001351180612b885750612b73610160870187615ce4565b35612b82610160880188615ce4565b60200135105b80612bb45750612b9c610160870187615ce4565b60200135612bae610160880188615ce4565b60400135105b15612beb576040517ff224d7d300000000000000000000000000000000000000000000000000000000815260040160405180910390fd5b670de0b6b3a76400006103808701351115612c32576040517f5190664000000000000000000000000000000000000000000000000000000000815260040160405180910390fd5b60c08101516040517fb73dc38900000000000000000000000000000000000000000000000000000000815260048101919091526001600160a01b0388169063b73dc38990602401600060405180830381600087803b158015612c9357600080fd5b505af1158015612ca7573d6000803e3d6000fd5b5050604051634941d71d60e11b81527f6e9fd67c3f2ca4e2b4e4b45b33b985dc3a1bffcadea24d12440a5901f72217b56004820152600092506001600160a01b038a169150639283ae3a9060240160206040518083038186803b158015612d0d57600080fd5b505afa158015612d21573d6000803e3d6000fd5b505050506040513d601f19601f82011682018060405250810190612d45919061577e565b15612d51576001612d54565b60005b604080516101008101825233815281516101808101909252919250602080830191908190612d84908c018c6154af565b6001600160a01b031681526020018a6000016020013581526020018a600001604001358152602001600081526020018a6000016060016020810190612dc99190615512565b15158152602001612de060a08c0160808d016154af565b6001600160a01b0316815260a0808c0135602083015260c08c0135604083015260e08c013560608301526101008c0135608083015201612e286101408c016101208d016154af565b6001600160a01b03168152602001612e486101608c016101408d016154af565b6001600160a01b031681525081526020016040518061012001604052808a806101600190612e769190615ce4565b358152602001612e8a6101608c018c615ce4565b602090810135825201612ea16101608c018c615ce4565b604001358152602001612eb86101608c018c615ce4565b606001358152602001612ecf6101608c018c615ce4565b608001358152602001612ee66101608c018c615ce4565b612ef79060c081019060a001615512565b15158152602001612f0c6101608c018c615ce4565b612f1d9060e081019060c0016154af565b6001600160a01b03168152602001612f396101608c018c615ce4565b612f479060e0810190615c9f565b8080601f016020809104026020016040519081016040528093929190818152602001838380828437600092019190915250505090825250602001612f8f6101608c018c615ce4565b612f9e90610100810190615c9f565b8080601f0160208091040260200160405190810160405280939291908181526020018383808284376000920191909152505050915250815260408051610100810190915260209091019080612ffb6101a08c016101808d01615668565b600181111561301a57634e487b7160e01b600052602160045260246000fd5b81526101a08b013560208201526101c08b013560408201526101e08b013560608201526102008b0135608082015260a00161305d6102408c016102208d01615512565b15158152602001613077368c90038c016102408d016156d9565b815260200161308f368c90038c016102e08d0161574a565b905281526040805180820182526103808b013581526103a08b01356020828101919091528301520160018360018111156130d957634e487b7160e01b600052602160045260246000fd5b146130e55760006130e7565b425b8152602001600183600181111561310e57634e487b7160e01b600052602160045260246000fd5b1461311a5760006131bb565b604051634941d71d60e11b81527fee63cc82ca6990a4cc5fa3ca10d8a5281ae1758a8d8f22892c4badb7cacd111e60048201526001600160a01b038b1690639283ae3a9060240160206040518083038186803b15801561317957600080fd5b505afa15801561318d573d6000803e3d6000fd5b505050506040513d601f19601f820116820180604052508101906131b1919061577e565b6131bb9042615d58565b815260200160018360018111156131e257634e487b7160e01b600052602160045260246000fd5b146131ee5760016131f1565b60005b600481111561321057634e487b7160e01b600052602160045260246000fd5b8152506000808a6001600160a01b03166001600160a01b0316815260200190815260200160002060008460c00151815260200190815260200160002060008201518160000160006101000a8154816001600160a01b0302191690836001600160a01b0316021790555060208201518160010160008201518160000160006101000a8154816001600160a01b0302191690836001600160a01b0316021790555060208201518160010155604082015181600201556060820151816003015560808201518160040160006101000a81548160ff02191690831515021790555060a08201518160040160016101000a8154816001600160a01b0302191690836001600160a01b0316021790555060c0820151816005015560e08201518160060155610100820151816007015561012082015181600801556101408201518160090160006101000a8154816001600160a01b0302191690836001600160a01b0316021790555061016082015181600a0160006101000a8154816001600160a01b0302191690836001600160a01b031602179055505050604082015181600c01600082015181600001556020820151816001015560408201518160020155606082015181600301556080820151816004015560a08201518160050160006101000a81548160ff02191690831515021790555060c08201518160050160016101000a8154816001600160a01b0302191690836001600160a01b0316021790555060e082015181600601908051906020019061344692919061520c565b50610100820151805161346391600784019160209091019061520c565b50505060608201518051601483018054909190829060ff19166001838181111561349d57634e487b7160e01b600052602160045260246000fd5b021790555060208201516001808301919091556040830151600283015560608301516003808401919091556080840151600484015560a084015160058401805491151560ff1992831617905560c0850151805160068601805492959094919385931691849081111561351f57634e487b7160e01b600052602160045260246000fd5b0217905550602082810151825460408501517fffffffffffffff000000000000000000000000000000000000000000000000ff90911661010063ffffffff90931683027fffffffffffffff0000000000000000000000000000000000000000ffffffffff1617650100000000006001600160a01b03909216919091021783556060840151600184015560809093015160029092019190915560e0840151805160098501805460ff1981169215159283178255938301519294909384927fffffffffffffffffffffffffffffffffffffffffffffffffffffffffffff00009091167fffffffffffffffffffffffffffffffffffffffffffffffffffffffffffff00ff909116179083600381111561364557634e487b7160e01b600052602160045260246000fd5b0217905550604082015181546001600160a01b0390911662010000027fffffffffffffffffffff0000000000000000000000000000000000000000ffff90911617815560608201516001808301919091556080928301516002909201919091559085015180516020808701919091550151602185015560a0850151602285015560c0850151602385015560e0850151602485018054919450925060ff19169083600481111561370457634e487b7160e01b600052602160045260246000fd5b0217905550600391506137149050565b61372661032089016103008a01615684565b600381111561374557634e487b7160e01b600052602160045260246000fd5b141561379b5760c082015161379b9089906137646103c08b018b615c50565b80806020026020016040519081016040528093929190818152602001838360200280828437600092019190915250614dac92505050565b60208083015160c084015160408051938401815260008452517f2b0974d00000000000000000000000000000000000000000000000000000000081526001600160a01b0390921692632b0974d0926137f9928d929091600401615c1f565b600060405180830381600087803b15801561381357600080fd5b505af1158015613827573d6000803e3d6000fd5b5050505060c08201516040516317ba7d8560e01b81527f6f48e16963713446db50a1503860d8e1fc3c888da56a85afcaa6dc29503cc61060048201526001600160a01b038a169163815a2bf49183906317ba7d859060240160206040518083038186803b15801561389757600080fd5b505afa1580156138ab573d6000803e3d6000fd5b505050506040513d601f19601f820116820180604052508101906138cf91906154cb565b6040517fffffffff0000000000000000000000000000000000000000000000000000000060e085901b16815260048101929092526001600160a01b03166024820152604401600060405180830381600087803b15801561392e57600080fd5b505af1158015613942573d6000803e3d6000fd5b50506040517f593e96b60000000000000000000000000000000000000000000000000000000081527fb12a3847d47fefceb164b75823af125f9aa82b76938df0ddf08c04cd314ba37c60048201526001600160a01b038b16925063593e96b6915060240160206040518083038186803b1580156139be57600080fd5b505afa1580156139d2573d6000803e3d6000fd5b505050506040513d601f19601f820116820180604052508101906139f691906154cb565b6001600160a01b031660408301526000816001811115613a2657634e487b7160e01b600052602160045260246000fd5b1415613a955781604001516001600160a01b031663b6d26e388360c001516040518263ffffffff1660e01b8152600401613a6291815260200190565b600060405180830381600087803b158015613a7c57600080fd5b505af1158015613a90573d6000803e3d6000fd5b505050505b60c08201516001600160a01b0389166000908152600360205260409020613abb91614e87565b5060c0820151604080516001600160a01b038b16815260208101929092523382820152517f1dfc244cab0c3cc88645f305adf7c51524a495c4eca07e193a69f39152da8fb79181900360600190a15050505061072e8282614c33565b816000613b23826147e7565b6001600160a01b03851660008181526020818152604080832088845290915280822090516317ba7d8560e01b81527f43f8439a5cef099d0d9a92b15a64e34ff49963bb29d65f63204eda6591b810a16004820152939450929091906317ba7d859060240160206040518083038186803b158015613b9f57600080fd5b505afa158015613bb3573d6000803e3d6000fd5b505050506040513d601f19601f82011682018060405250810190613bd791906154cb565b600583015460248401546040517f7132e8a10000000000000000000000000000000000000000000000000000000081529293506001600160a01b0380851693637132e8a193613c3a938c938c936101009093041691339160ff1690600401615beb565b602060405180830381600087803b158015613c5457600080fd5b505af1158015613c68573d6000803e3d6000fd5b505050506040513d601f19601f82011682018060405250810190613c8c919061552e565b50505061072e8282614c33565b8143816001600160a01b031663b21634826040518163ffffffff1660e01b815260040160206040518083038186803b158015613cd457600080fd5b505afa158015613ce8573d6000803e3d6000fd5b505050506040513d601f19601f82011682018060405250810190613d0c919061577e565b1415613d5a5760405162461bcd60e51b815260206004820152601060248201527f7265656e7472616e63792067756172640000000000000000000000000000000060448201526064016103d4565b806001600160a01b03166310fdb0a26040518163ffffffff1660e01b8152600401600060405180830381600087803b158015613d9557600080fd5b505af1158015613da9573d6000803e3d6000fd5b5050505082613db78161448a565b6001600160a01b0316336001600160a01b031614613e175760405162461bcd60e51b815260206004820152600b60248201527f4163636573732044656e7900000000000000000000000000000000000000000060448201526064016103d4565b670de0b6b3a764000083108015613e2e5750600083115b613e3757600080fd5b8260048190555050806001600160a01b031663d4f7af436040518163ffffffff1660e01b8152600401600060405180830381600087803b1580156104fd57600080fd5b6000602081815292815260408082208452918152819020805482516101808101845260018301546001600160a01b0390811682526002840154828701526003840154828601526004840154606080840191909152600585015460ff808216151560808087019190915261010092839004851660a080880191909152600689015460c08089019190915260078a015460e0808a019190915260088b01548987015260098b0154610120808b0191909152600a8c015489166101408b0152600b8c015489166101608b01528c519081018d52600c8c0180548252600d8d01549e82019e909e52600e8c01549c81019c909c52600f8b0154968c019690965260108a0154928b019290925260118901549283161515908a0152919004831690870152601285018054929094169692959390840191613fb490615de6565b80601f0160208091040260200160405190810160405280929190818152602001828054613fe090615de6565b801561402d5780601f106140025761010080835404028352916020019161402d565b820191906000526020600020905b81548152906001019060200180831161401057829003601f168201915b5050505050815260200160078201805461404690615de6565b80601f016020809104026020016040519081016040528092919081815260200182805461407290615de6565b80156140bf5780601f10614094576101008083540402835291602001916140bf565b820191906000526020600020905b8154815290600101906020018083116140a257829003601f168201915b50505091909252505060408051610100810190915260148401805493949391925090829060ff16600181111561410557634e487b7160e01b600052602160045260246000fd5b600181111561412457634e487b7160e01b600052602160045260246000fd5b8152602001600182015481526020016002820154815260200160038201548152602001600482015481526020016005820160009054906101000a900460ff16151515158152602001600682016040518060a00160405290816000820160009054906101000a900460ff1660038111156141ad57634e487b7160e01b600052602160045260246000fd5b60038111156141cc57634e487b7160e01b600052602160045260246000fd5b8152815461010080820463ffffffff16602080850191909152650100000000009092046001600160a01b031660408085019190915260018501546060850152600290940154608090930192909252928452815160a0810190925260098501805460ff80821615158552958501959394919391850192900416600381111561426357634e487b7160e01b600052602160045260246000fd5b600381111561428257634e487b7160e01b600052602160045260246000fd5b815281546201000090046001600160a01b03166020808301919091526001830154604080840191909152600290930154606090920191909152919092528151808301909252848101548252602185015490820152602284015460238501546024909501549394919390925060ff1688565b6001600160a01b03831660009081526001602090815260408083208584529091528120614320908361456d565b949350505050565b6040516317ba7d8560e01b81527fff9379b98b93eb3bd1fac62fd2258a7955d70d2d5279c40064145b6c9646df37600482015282906001600160a01b038216906317ba7d859060240160206040518083038186803b15801561438957600080fd5b505afa15801561439d573d6000803e3d6000fd5b505050506040513d601f19601f820116820180604052508101906143c191906154cb565b6001600160a01b0316336001600160a01b031614806143e457506143e481614599565b6144305760405162461bcd60e51b815260206004820152600760248201527f216163636573730000000000000000000000000000000000000000000000000060448201526064016103d4565b6001600160a01b0383166000908152600260205260409020614452908361456d565b614478576001600160a01b038316600090815260026020526040902061072e9083614e93565b505050565b6060600061031083614ea8565b6000816001600160a01b03166348f7f2a36040518163ffffffff1660e01b815260040160206040518083038186803b1580156144c557600080fd5b505afa1580156144d9573d6000803e3d6000fd5b505050506040513d601f19601f820116820180604052508101906144fd91906154cb565b6001600160a01b0316638da5cb5b6040518163ffffffff1660e01b815260040160206040518083038186803b15801561453557600080fd5b505afa158015614549573d6000803e3d6000fd5b505050506040513d601f19601f820116820180604052508101906102db91906154cb565b6001600160a01b03811660009081526001830160205260408120541515610310565b60006102db825490565b600080826001600160a01b031663c19d93fb6040518163ffffffff1660e01b815260040160206040518083038186803b1580156145d557600080fd5b505afa1580156145e9573d6000803e3d6000fd5b505050506040513d601f19601f8201168201806040525081019061460d919061564c565b600181111561462c57634e487b7160e01b600052602160045260246000fd5b1480156102db5750816001600160a01b031663c67143666040518163ffffffff1660e01b815260040160206040518083038186803b15801561466d57600080fd5b505afa158015614681573d6000803e3d6000fd5b505050506040513d601f19601f820116820180604052508101906146a5919061577e565b158061473c57506040517fa230c5240000000000000000000000000000000000000000000000000000000081523360048201526001600160a01b0383169063a230c5249060240160206040518083038186803b15801561470457600080fd5b505afa158015614718573d6000803e3d6000fd5b505050506040513d601f19601f8201168201806040525081019061473c919061552e565b806102db57506040517f68c18beb0000000000000000000000000000000000000000000000000000000081523360048201526001600160a01b038316906368c18beb9060240160206040518083038186803b15801561479a57600080fd5b505afa1580156147ae573d6000803e3d6000fd5b505050506040513d601f19601f820116820180604052508101906102db919061552e565b6000610310836001600160a01b038416614f04565b6040805160808101825260008082526020820181905291810182905260608101919091525a81600001818152505043826001600160a01b031663b21634826040518163ffffffff1660e01b815260040160206040518083038186803b15801561484f57600080fd5b505afa158015614863573d6000803e3d6000fd5b505050506040513d601f19601f82011682018060405250810190614887919061577e565b14156148d55760405162461bcd60e51b815260206004820152601060248201527f7265656e7472616e63792067756172640000000000000000000000000000000060448201526064016103d4565b816001600160a01b03166310fdb0a26040518163ffffffff1660e01b8152600401600060405180830381600087803b15801561491057600080fd5b505af1158015614924573d6000803e3d6000fd5b50506040517f72c6838f0000000000000000000000000000000000000000000000000000000081527f1f2fd42ad6a6cacd573c4b212beb7a4e2499ad45d742a65337097f130e71daff6004820152600092506001600160a01b03851691506372c6838f9060240160206040518083038186803b1580156149a357600080fd5b505afa1580156149b7573d6000803e3d6000fd5b505050506040513d601f19601f820116820180604052508101906149db91906154cb565b90506001600160a01b0381166149f75760006020830152614aac565b6001600160a01b038181166060840181905283516040517f43a8a3f1000000000000000000000000000000000000000000000000000000008152928616600484015260248301526000918291906343a8a3f190604401604080518083038186803b158015614a6457600080fd5b505afa158015614a78573d6000803e3d6000fd5b505050506040513d601f19601f82011682018060405250810190614a9c919061554a565b9015156020860152604085015250505b50919050565b6040516317ba7d8560e01b81527f43f8439a5cef099d0d9a92b15a64e34ff49963bb29d65f63204eda6591b810a1600482015260009081906001600160a01b038816906317ba7d859060240160206040518083038186803b158015614b1657600080fd5b505afa158015614b2a573d6000803e3d6000fd5b505050506040513d601f19601f82011682018060405250810190614b4e91906154cb565b6040517fd705e0cd000000000000000000000000000000000000000000000000000000008152600481018690526001600160a01b03898116602483015288811660448301528781166064830152608482018690529192509082169063d705e0cd9060a401602060405180830381600087803b158015614bcc57600080fd5b505af1158015614be0573d6000803e3d6000fd5b505050506040513d601f19601f82011682018060405250810190614c04919061552e565b979650505050505050565b60008181526001830160205260408120541515610310565b60006103108383614f04565b614c3e828233615021565b5050565b606081614c8257505060408051808201909152600181527f3000000000000000000000000000000000000000000000000000000000000000602082015290565b8160005b8115614cac5780614c9681615e1b565b9150614ca59050600a83615d70565b9150614c86565b60008167ffffffffffffffff811115614cd557634e487b7160e01b600052604160045260246000fd5b6040519080825280601f01601f191660200182016040528015614cff576020820181803683370190505b5090505b841561432057614d14600183615da3565b9150614d21600a86615e56565b614d2c906030615d58565b60f81b818381518110614d4f57634e487b7160e01b600052603260045260246000fd5b60200101907effffffffffffffffffffffffffffffffffffffffffffffffffffffffffffff1916908160001a905350614d89600a86615d70565b9450614d03565b6000815160001415614da457506000919050565b506020015190565b60005b81518160ff16101561072e57614e15828260ff1681518110614de157634e487b7160e01b600052603260045260246000fd5b6020908102919091018101516001600160a01b0387166000908152600183526040808220888352909352919091209061456d565b614e7557614e73828260ff1681518110614e3f57634e487b7160e01b600052603260045260246000fd5b6020908102919091018101516001600160a01b03871660009081526001835260408082208883529093529190912090614e93565b505b80614e7f81615e36565b915050614daf565b60006103108383615112565b6000610310836001600160a01b038416615112565b606081600001805480602002602001604051908101604052809291908181526020018280548015614ef857602002820191906000526020600020905b815481526020019060010190808311614ee4575b50505050509050919050565b60008181526001830160205260408120548015615017576000614f28600183615da3565b8554909150600090614f3c90600190615da3565b9050818114614fbd576000866000018281548110614f6a57634e487b7160e01b600052603260045260246000fd5b9060005260206000200154905080876000018481548110614f9b57634e487b7160e01b600052603260045260246000fd5b6000918252602080832090910192909255918252600188019052604090208390555b8554869080614fdc57634e487b7160e01b600052603160045260246000fd5b6001900381819060005260206000200160009055905585600101600086815260200190815260200160002060009055600193505050506102db565b60009150506102db565b8160200151156150d75781606001516001600160a01b0316635e5eb01384835a865161504d9190615da3565b60408088015190517fffffffff0000000000000000000000000000000000000000000000000000000060e087901b1681526001600160a01b03948516600482015293909216602484015260448301526064820152608401600060405180830381600087803b1580156150be57600080fd5b505af11580156150d2573d6000803e3d6000fd5b505050505b826001600160a01b031663d4f7af436040518163ffffffff1660e01b8152600401600060405180830381600087803b1580156104fd57600080fd5b6000818152600183016020526040812054615159575081546001818101845560008481526020808220909301849055845484825282860190935260409020919091556102db565b5060006102db565b604051806102800160405280615175615290565b815260006020820181905260408201819052606082018190526080820181905260a0820181905260c0820181905260e08201819052610100820181905261012082018190526101408201819052610160820181905261018082018190526101a082018190526101c082018190526101e082018190526102008201819052610220820181905261024082018190526102609091015290565b82805461521890615de6565b90600052602060002090601f01602090048101928261523a5760008555615280565b82601f1061525357805160ff1916838001178555615280565b82800160010185558215615280579182015b82811115615280578251825591602001919060010190615265565b5061528c9291506153fd565b5090565b60405180610100016040528060006001600160a01b0316815260200161533660405180610180016040528060006001600160a01b0316815260200160008152602001600081526020016000815260200160001515815260200160006001600160a01b031681526020016000815260200160008152602001600081526020016000815260200160006001600160a01b0316815260200160006001600160a01b031681525090565b8152602001615395604051806101200160405280600081526020016000815260200160008152602001600081526020016000815260200160001515815260200160006001600160a01b0316815260200160608152602001606081525090565b81526020016153a2615412565b81526020016153c4604051806040016040528060008152602001600081525090565b81526020016000815260200160008152602001600060048111156153f857634e487b7160e01b600052602160045260246000fd5b905290565b5b8082111561528c57600081556001016153fe565b60408051610100810190915280600081526020016000815260200160008152602001600081526020016000815260200160001515815260200161547e6040805160a081019091528060008152600060208201819052604082018190526060820181905260809091015290565b81526040805160a0810182526000808252602082810182905292820181905260608201819052608082015291015290565b6000602082840312156154c0578081fd5b813561031081615ebf565b6000602082840312156154dc578081fd5b815161031081615ebf565b600080604083850312156154f9578081fd5b823561550481615ebf565b946020939093013593505050565b600060208284031215615523578081fd5b813561031081615ed4565b60006020828403121561553f578081fd5b815161031081615ed4565b6000806040838503121561555c578182fd5b825161556781615ed4565b6020939093015192949293505050565b60008060408385031215615589578182fd5b823561559481615ebf565b915060208301356155a481615ebf565b809150509250929050565b600080604083850312156154f9578182fd5b6000806000606084860312156155d5578081fd5b83356155e081615ebf565b92506020840135915060408401356155f781615ebf565b809150509250925092565b60008060408385031215615614578182fd5b823561561f81615ebf565b9150602083013567ffffffffffffffff81111561563a578182fd5b83016103e081860312156155a4578182fd5b60006020828403121561565d578081fd5b815161031081615ee2565b600060208284031215615679578081fd5b813561031081615ee2565b600060208284031215615695578081fd5b813561031081615eef565b6000806000606084860312156156b4578081fd5b8351600681106156c2578182fd5b602085015160409095015190969495509392505050565b600060a082840312156156ea578081fd5b6156f2615d21565b82356156fd81615eef565b8152602083013563ffffffff81168114615715578283fd5b6020820152604083013561572881615ebf565b6040820152606083810135908201526080928301359281019290925250919050565b600060a0828403121561575b578081fd5b615763615d21565b823561576e81615ed4565b8152602083013561571581615eef565b60006020828403121561578f578081fd5b5051919050565b600081518084526157ae816020860160208601615dba565b601f017fffffffffffffffffffffffffffffffffffffffffffffffffffffffffffffffe0169290920160200192915050565b600581106157f0576157f0615e96565b9052565b80516002811061580657615806615e96565b808352506020810151602083015260408101516040830152606081015160608301526080810151608083015260a0810151151560a083015260c081015161585060c0840182615864565b5060e08101516144786101608401826158a9565b805161586f81615eac565b825260208181015163ffffffff16908301526040808201516001600160a01b03169083015260608082015190830152608090810151910152565b80511515825260208101516158bd81615eac565b60208301526040818101516001600160a01b03169083015260608082015190830152608090810151910152565b6000610120825184526020830151602085015260408301516040850152606083015160608501526080830151608085015260a083015161592e60a086018215159052565b5060c083015161594960c08601826001600160a01b03169052565b5060e08301518160e086015261596182860182615796565b915050610100808401518583038287015261597c8382615796565b9695505050505050565b7fffffffffffffffff000000000000000000000000000000000000000000000000831681527f496e766573746d656e74230000000000000000000000000000000000000000006008820152600082516159e6816013850160208701615dba565b919091016013019392505050565b6001600160a01b0384168152602081018390526060810161432060408301846157e0565b6001600160a01b0389811682528851166020820152600061046060208a0151604084015260408a0151606084015260608a0151608084015260808a0151615a6360a085018215159052565b5060a08a01516001600160a01b03811660c08501525060c08a015160e0848101919091528a0151610100808501919091528a0151610120808501919091528a0151610140808501919091528a0151610160615ac8818601836001600160a01b03169052565b8b01516001600160a01b0316610180850152506101a08301819052615aef8184018a6158ea565b915050615b006101c08301886157f4565b85516103c083015260208601516103e08301528461040083015283610420830152615b2f6104408301846157e0565b9998505050505050505050565b6020808252825182820181905260009190848201906040850190845b81811015615b7d5783516001600160a01b031683529284019291840191600101615b58565b50909695505050505050565b6000610120820190506001600160a01b03808816835260208188168185015281871660408501528560608501526080840191508460005b6005811015615bdd57815184529282019290820190600101615bc0565b505050509695505050505050565b6001600160a01b0386811682526020820186905284811660408301528316606082015260a0810161597c60808301846157e0565b6001600160a01b0384168152826020820152606060408201526000615c476060830184615796565b95945050505050565b6000808335601e19843603018112615c66578283fd5b83018035915067ffffffffffffffff821115615c80578283fd5b6020019150600581901b3603821315615c9857600080fd5b9250929050565b6000808335601e19843603018112615cb5578283fd5b83018035915067ffffffffffffffff821115615ccf578283fd5b602001915036819003821315615c9857600080fd5b600082357ffffffffffffffffffffffffffffffffffffffffffffffffffffffffffffffee1833603018112615d17578182fd5b9190910192915050565b60405160a0810167ffffffffffffffff81118282101715615d5257634e487b7160e01b600052604160045260246000fd5b60405290565b60008219821115615d6b57615d6b615e6a565b500190565b600082615d7f57615d7f615e80565b500490565b6000816000190483118215151615615d9e57615d9e615e6a565b500290565b600082821015615db557615db5615e6a565b500390565b60005b83811015615dd5578181015183820152602001615dbd565b8381111561072e5750506000910152565b600181811c90821680615dfa57607f821691505b60208210811415614aac57634e487b7160e01b600052602260045260246000fd5b6000600019821415615e2f57615e2f615e6a565b5060010190565b600060ff821660ff811415615e4d57615e4d615e6a565b60010192915050565b600082615e6557615e65615e80565b500690565b634e487b7160e01b600052601160045260246000fd5b634e487b7160e01b600052601260045260246000fd5b634e487b7160e01b600052602160045260246000fd5b60048110615ebc57615ebc615e96565b50565b6001600160a01b0381168114615ebc57600080fd5b8015158114615ebc57600080fd5b60028110615ebc57600080fd5b60048110615ebc57600080fdfea26469706673582212207a3407eb4e68a83397494fb3e7a0e0fa17da1688cb9295d42f73ff09d74a2a6164736f6c63430008040033",
  "linkReferences": {},
  "deployedLinkReferences": {}
}