{
  "_format": "hh-sol-artifact-1",
  "contractName": "FlexFundingAdapterContract",
  "sourceName": "contracts/flex/adatpers/FlexFunding.sol",
  "abi": [
    {
      "inputs": [],
      "name": "FundRaiseEndTimeNotUP",
      "type": "error"
    },
    {
      "inputs": [],
      "name": "InvalidInvestmentInfoParams",
      "type": "error"
    },
    {
      "inputs": [],
      "name": "InvalidInvestorIdentificationParams",
      "type": "error"
    },
    {
      "inputs": [],
      "name": "InvalidInvestorPriorityDepositParams",
      "type": "error"
    },
    {
      "inputs": [],
      "name": "InvalidReturnFundParams",
      "type": "error"
    },
    {
      "inputs": [],
      "name": "InvalidTokenRewardAmount",
      "type": "error"
    },
    {
      "inputs": [],
      "name": "InvalidVestingParams",
      "type": "error"
    },
    {
      "inputs": [],
      "name": "NotInExecuteState",
      "type": "error"
    },
    {
      "anonymous": false,
      "inputs": [
        {
          "indexed": false,
          "internalType": "address",
          "name": "daoAddress",
          "type": "address"
        },
        {
          "indexed": false,
          "internalType": "bytes32",
          "name": "proposalId",
          "type": "bytes32"
        },
        {
          "indexed": false,
          "internalType": "address",
          "name": "proposer",
          "type": "address"
        }
      ],
      "name": "ProposalCreated",
      "type": "event"
    },
    {
      "anonymous": false,
      "inputs": [
        {
          "indexed": false,
          "internalType": "address",
          "name": "daoAddress",
          "type": "address"
        },
        {
          "indexed": false,
          "internalType": "bytes32",
          "name": "proposalId",
          "type": "bytes32"
        },
        {
          "indexed": false,
          "internalType": "enum IFlexFunding.ProposalStatus",
          "name": "state",
          "type": "uint8"
        }
      ],
      "name": "ProposalExecuted",
      "type": "event"
    },
    {
      "inputs": [
        {
          "internalType": "address",
          "name": "",
          "type": "address"
        },
        {
          "internalType": "bytes32",
          "name": "",
          "type": "bytes32"
        }
      ],
      "name": "Proposals",
      "outputs": [
        {
          "internalType": "address",
          "name": "proposer",
          "type": "address"
        },
        {
          "components": [
            {
              "internalType": "address",
              "name": "tokenAddress",
              "type": "address"
            },
            {
              "internalType": "uint256",
              "name": "minInvestmentAmount",
              "type": "uint256"
            },
            {
              "internalType": "uint256",
              "name": "maxInvestmentAmount",
              "type": "uint256"
            },
            {
              "internalType": "uint256",
              "name": "finalRaisedAmount",
              "type": "uint256"
            },
            {
              "internalType": "bool",
              "name": "escrow",
              "type": "bool"
            },
            {
              "internalType": "address",
              "name": "paybackTokenAddr",
              "type": "address"
            },
            {
              "internalType": "uint256",
              "name": "paybackTokenAmount",
              "type": "uint256"
            },
            {
              "internalType": "uint256",
              "name": "price",
              "type": "uint256"
            },
            {
              "internalType": "uint256",
              "name": "minReturnAmount",
              "type": "uint256"
            },
            {
              "internalType": "uint256",
              "name": "maxReturnAmount",
              "type": "uint256"
            },
            {
              "internalType": "address",
              "name": "approverAddr",
              "type": "address"
            },
            {
              "internalType": "address",
              "name": "recipientAddr",
              "type": "address"
            }
          ],
          "internalType": "struct IFlexFunding.ProposalInvestmentInfo",
          "name": "investmentInfo",
          "type": "tuple"
        },
        {
          "components": [
            {
              "internalType": "uint256",
              "name": "vestingStartTime",
              "type": "uint256"
            },
            {
              "internalType": "uint256",
              "name": "vestingCliffEndTime",
              "type": "uint256"
            },
            {
              "internalType": "uint256",
              "name": "vestingEndTime",
              "type": "uint256"
            },
            {
              "internalType": "uint256",
              "name": "vestingInterval",
              "type": "uint256"
            },
            {
              "internalType": "uint256",
              "name": "vestingCliffLockAmount",
              "type": "uint256"
            },
            {
              "internalType": "bool",
              "name": "nftEnable",
              "type": "bool"
            },
            {
              "internalType": "address",
              "name": "erc721",
              "type": "address"
            },
            {
              "internalType": "string",
              "name": "vestName",
              "type": "string"
            },
            {
              "internalType": "string",
              "name": "vestDescription",
              "type": "string"
            }
          ],
          "internalType": "struct IFlexFunding.VestInfo",
          "name": "vestInfo",
          "type": "tuple"
        },
        {
          "components": [
            {
              "internalType": "enum IFlexFunding.FundRaiseType",
              "name": "fundRaiseType",
              "type": "uint8"
            },
            {
              "internalType": "uint256",
              "name": "fundRaiseStartTime",
              "type": "uint256"
            },
            {
              "internalType": "uint256",
              "name": "fundRaiseEndTime",
              "type": "uint256"
            },
            {
              "internalType": "uint256",
              "name": "minDepositAmount",
              "type": "uint256"
            },
            {
              "internalType": "uint256",
              "name": "maxDepositAmount",
              "type": "uint256"
            },
            {
              "internalType": "bool",
              "name": "investorIdentification",
              "type": "bool"
            },
            {
              "components": [
                {
                  "internalType": "enum IFlexFunding.InvestorIdentificationType",
                  "name": "bType",
                  "type": "uint8"
                },
                {
                  "internalType": "uint32",
                  "name": "bChainId",
                  "type": "uint32"
                },
                {
                  "internalType": "address",
                  "name": "bTokanAddr",
                  "type": "address"
                },
                {
                  "internalType": "uint256",
                  "name": "bTokenId",
                  "type": "uint256"
                },
                {
                  "internalType": "uint256",
                  "name": "bMinHoldingAmount",
                  "type": "uint256"
                }
              ],
              "internalType": "struct IFlexFunding.InvestorIdentificationInfo",
              "name": "investorIdentificationInfo",
              "type": "tuple"
            },
            {
              "components": [
                {
                  "internalType": "bool",
                  "name": "enable",
                  "type": "bool"
                },
                {
                  "internalType": "enum IFlexFunding.PriorityDepositType",
                  "name": "pType",
                  "type": "uint8"
                },
                {
                  "internalType": "address",
                  "name": "token",
                  "type": "address"
                },
                {
                  "internalType": "uint256",
                  "name": "tokenId",
                  "type": "uint256"
                },
                {
                  "internalType": "uint256",
                  "name": "amount",
                  "type": "uint256"
                }
              ],
              "internalType": "struct IFlexFunding.PriorityDepositInfo",
              "name": "priorityDepositInfo",
              "type": "tuple"
            }
          ],
          "internalType": "struct IFlexFunding.FundRaiseInfo",
          "name": "fundRaiseInfo",
          "type": "tuple"
        },
        {
          "components": [
            {
              "internalType": "uint256",
              "name": "tokenRewardAmount",
              "type": "uint256"
            },
            {
              "internalType": "uint256",
              "name": "cashRewardAmount",
              "type": "uint256"
            }
          ],
          "internalType": "struct IFlexFunding.ProposerRewardInfo",
          "name": "proposerRewardInfo",
          "type": "tuple"
        },
        {
          "internalType": "uint256",
          "name": "startVoteTime",
          "type": "uint256"
        },
        {
          "internalType": "uint256",
          "name": "stopVoteTime",
          "type": "uint256"
        },
        {
          "internalType": "enum IFlexFunding.ProposalStatus",
          "name": "state",
          "type": "uint8"
        },
        {
          "internalType": "uint256",
          "name": "executeBlockNum",
          "type": "uint256"
        }
      ],
      "stateMutability": "view",
      "type": "function"
    },
    {
      "inputs": [],
      "name": "RETRUN_TOKEN_AMOUNT_PRECISION",
      "outputs": [
        {
          "internalType": "uint256",
          "name": "",
          "type": "uint256"
        }
      ],
      "stateMutability": "view",
      "type": "function"
    },
    {
      "inputs": [
        {
          "internalType": "contract DaoRegistry",
          "name": "dao",
          "type": "address"
        }
      ],
      "name": "allDone",
      "outputs": [
        {
          "internalType": "bool",
          "name": "",
          "type": "bool"
        }
      ],
      "stateMutability": "view",
      "type": "function"
    },
    {
      "inputs": [
        {
          "internalType": "contract DaoRegistry",
          "name": "dao",
          "type": "address"
        }
      ],
      "name": "clearProposerWhitelist",
      "outputs": [],
      "stateMutability": "nonpayable",
      "type": "function"
    },
    {
      "inputs": [
        {
          "internalType": "contract DaoRegistry",
          "name": "dao",
          "type": "address"
        },
        {
          "internalType": "bytes32",
          "name": "proposalId",
          "type": "bytes32"
        }
      ],
      "name": "getPriorityDepositedWhitelist",
      "outputs": [
        {
          "internalType": "address[]",
          "name": "",
          "type": "address[]"
        }
      ],
      "stateMutability": "view",
      "type": "function"
    },
    {
      "inputs": [
        {
          "internalType": "contract DaoRegistry",
          "name": "dao",
          "type": "address"
        }
      ],
      "name": "getProposerWhitelist",
      "outputs": [
        {
          "internalType": "address[]",
          "name": "",
          "type": "address[]"
        }
      ],
      "stateMutability": "view",
      "type": "function"
    },
    {
      "inputs": [
        {
          "internalType": "contract DaoRegistry",
          "name": "dao",
          "type": "address"
        },
        {
          "internalType": "address",
          "name": "_addr",
          "type": "address"
        }
      ],
      "name": "isActiveMember",
      "outputs": [
        {
          "internalType": "bool",
          "name": "",
          "type": "bool"
        }
      ],
      "stateMutability": "view",
      "type": "function"
    },
    {
      "inputs": [
        {
          "internalType": "contract DaoRegistry",
          "name": "dao",
          "type": "address"
        },
        {
          "internalType": "bytes32",
          "name": "proposalId",
          "type": "bytes32"
        },
        {
          "internalType": "address",
          "name": "account",
          "type": "address"
        }
      ],
      "name": "isPriorityDepositedWhitelist",
      "outputs": [
        {
          "internalType": "bool",
          "name": "",
          "type": "bool"
        }
      ],
      "stateMutability": "view",
      "type": "function"
    },
    {
      "inputs": [
        {
          "internalType": "contract DaoRegistry",
          "name": "dao",
          "type": "address"
        },
        {
          "internalType": "address",
          "name": "account",
          "type": "address"
        }
      ],
      "name": "isProposerWhiteList",
      "outputs": [
        {
          "internalType": "bool",
          "name": "",
          "type": "bool"
        }
      ],
      "stateMutability": "view",
      "type": "function"
    },
    {
      "inputs": [
        {
          "internalType": "contract DaoRegistry",
          "name": "dao",
          "type": "address"
        },
        {
          "internalType": "bytes32",
          "name": "proposalId",
          "type": "bytes32"
        }
      ],
      "name": "processProposal",
      "outputs": [
        {
          "internalType": "bool",
          "name": "",
          "type": "bool"
        }
      ],
      "stateMutability": "nonpayable",
      "type": "function"
    },
    {
      "inputs": [],
      "name": "protocolAddress",
      "outputs": [
        {
          "internalType": "address",
          "name": "",
          "type": "address"
        }
      ],
      "stateMutability": "view",
      "type": "function"
    },
    {
      "inputs": [],
      "name": "protocolFee",
      "outputs": [
        {
          "internalType": "uint256",
          "name": "",
          "type": "uint256"
        }
      ],
      "stateMutability": "view",
      "type": "function"
    },
    {
      "inputs": [
        {
          "internalType": "contract DaoRegistry",
          "name": "dao",
          "type": "address"
        },
        {
          "internalType": "address",
          "name": "account",
          "type": "address"
        }
      ],
      "name": "registerProposerWhiteList",
      "outputs": [],
      "stateMutability": "nonpayable",
      "type": "function"
    },
    {
      "inputs": [
        {
          "internalType": "contract DaoRegistry",
          "name": "dao",
          "type": "address"
        },
        {
          "internalType": "bytes32",
          "name": "proposalId",
          "type": "bytes32"
        }
      ],
      "name": "retrunTokenToApprover",
      "outputs": [],
      "stateMutability": "nonpayable",
      "type": "function"
    },
    {
      "inputs": [
        {
          "internalType": "contract DaoRegistry",
          "name": "dao",
          "type": "address"
        },
        {
          "internalType": "address",
          "name": "_protocolAddress",
          "type": "address"
        }
      ],
      "name": "setProtocolAddress",
      "outputs": [],
      "stateMutability": "nonpayable",
      "type": "function"
    },
    {
      "inputs": [
        {
          "internalType": "contract DaoRegistry",
          "name": "dao",
          "type": "address"
        },
        {
          "internalType": "uint256",
          "name": "_protocolFee",
          "type": "uint256"
        }
      ],
      "name": "setProtocolFee",
      "outputs": [],
      "stateMutability": "nonpayable",
      "type": "function"
    },
    {
      "inputs": [
        {
          "internalType": "contract DaoRegistry",
          "name": "dao",
          "type": "address"
        },
        {
          "components": [
            {
              "components": [
                {
                  "internalType": "address",
                  "name": "tokenAddress",
                  "type": "address"
                },
                {
                  "internalType": "uint256",
                  "name": "minInvestmentAmount",
                  "type": "uint256"
                },
                {
                  "internalType": "uint256",
                  "name": "maxInvestmentAmount",
                  "type": "uint256"
                },
                {
                  "internalType": "bool",
                  "name": "escrow",
                  "type": "bool"
                },
                {
                  "internalType": "address",
                  "name": "paybackTokenAddr",
                  "type": "address"
                },
                {
                  "internalType": "uint256",
                  "name": "paybackTokenAmount",
                  "type": "uint256"
                },
                {
                  "internalType": "uint256",
                  "name": "price",
                  "type": "uint256"
                },
                {
                  "internalType": "uint256",
                  "name": "minReturnAmount",
                  "type": "uint256"
                },
                {
                  "internalType": "uint256",
                  "name": "maxReturnAmount",
                  "type": "uint256"
                },
                {
                  "internalType": "address",
                  "name": "approverAddr",
                  "type": "address"
                },
                {
                  "internalType": "address",
                  "name": "recipientAddr",
                  "type": "address"
                }
              ],
              "internalType": "struct IFlexFunding.InvestmentInfo",
              "name": "investmentInfo",
              "type": "tuple"
            },
            {
              "components": [
                {
                  "internalType": "uint256",
                  "name": "vestingStartTime",
                  "type": "uint256"
                },
                {
                  "internalType": "uint256",
                  "name": "vestingCliffEndTime",
                  "type": "uint256"
                },
                {
                  "internalType": "uint256",
                  "name": "vestingEndTime",
                  "type": "uint256"
                },
                {
                  "internalType": "uint256",
                  "name": "vestingInterval",
                  "type": "uint256"
                },
                {
                  "internalType": "uint256",
                  "name": "vestingCliffLockAmount",
                  "type": "uint256"
                },
                {
                  "internalType": "bool",
                  "name": "nftEnable",
                  "type": "bool"
                },
                {
                  "internalType": "address",
                  "name": "erc721",
                  "type": "address"
                },
                {
                  "internalType": "string",
                  "name": "vestName",
                  "type": "string"
                },
                {
                  "internalType": "string",
                  "name": "vestDescription",
                  "type": "string"
                }
              ],
              "internalType": "struct IFlexFunding.VestInfo",
              "name": "vestInfo",
              "type": "tuple"
            },
            {
              "components": [
                {
                  "internalType": "enum IFlexFunding.FundRaiseType",
                  "name": "fundRaiseType",
                  "type": "uint8"
                },
                {
                  "internalType": "uint256",
                  "name": "fundRaiseStartTime",
                  "type": "uint256"
                },
                {
                  "internalType": "uint256",
                  "name": "fundRaiseEndTime",
                  "type": "uint256"
                },
                {
                  "internalType": "uint256",
                  "name": "minDepositAmount",
                  "type": "uint256"
                },
                {
                  "internalType": "uint256",
                  "name": "maxDepositAmount",
                  "type": "uint256"
                },
                {
                  "internalType": "bool",
                  "name": "investorIdentification",
                  "type": "bool"
                },
                {
                  "components": [
                    {
                      "internalType": "enum IFlexFunding.InvestorIdentificationType",
                      "name": "bType",
                      "type": "uint8"
                    },
                    {
                      "internalType": "uint32",
                      "name": "bChainId",
                      "type": "uint32"
                    },
                    {
                      "internalType": "address",
                      "name": "bTokanAddr",
                      "type": "address"
                    },
                    {
                      "internalType": "uint256",
                      "name": "bTokenId",
                      "type": "uint256"
                    },
                    {
                      "internalType": "uint256",
                      "name": "bMinHoldingAmount",
                      "type": "uint256"
                    }
                  ],
                  "internalType": "struct IFlexFunding.InvestorIdentificationInfo",
                  "name": "investorIdentificationInfo",
                  "type": "tuple"
                },
                {
                  "components": [
                    {
                      "internalType": "bool",
                      "name": "enable",
                      "type": "bool"
                    },
                    {
                      "internalType": "enum IFlexFunding.PriorityDepositType",
                      "name": "pType",
                      "type": "uint8"
                    },
                    {
                      "internalType": "address",
                      "name": "token",
                      "type": "address"
                    },
                    {
                      "internalType": "uint256",
                      "name": "tokenId",
                      "type": "uint256"
                    },
                    {
                      "internalType": "uint256",
                      "name": "amount",
                      "type": "uint256"
                    }
                  ],
                  "internalType": "struct IFlexFunding.PriorityDepositInfo",
                  "name": "priorityDepositInfo",
                  "type": "tuple"
                }
              ],
              "internalType": "struct IFlexFunding.FundRaiseInfo",
              "name": "fundRaiseInfo",
              "type": "tuple"
            },
            {
              "components": [
                {
                  "internalType": "uint256",
                  "name": "tokenRewardAmount",
                  "type": "uint256"
                },
                {
                  "internalType": "uint256",
                  "name": "cashRewardAmount",
                  "type": "uint256"
                }
              ],
              "internalType": "struct IFlexFunding.ProposerRewardInfo",
              "name": "proposerRewardInfo",
              "type": "tuple"
            },
            {
              "internalType": "address[]",
              "name": "priorityDepositWhitelist",
              "type": "address[]"
            }
          ],
          "internalType": "struct IFlexFunding.ProposalParams",
          "name": "params",
          "type": "tuple"
        }
      ],
      "name": "submitProposal",
      "outputs": [],
      "stateMutability": "nonpayable",
      "type": "function"
    }
  ],
  "bytecode": "0x60806040526103e86200001c670de0b6b3a7640000600362000086565b62000028919062000065565b600455600580546001600160a01b031916739ac9c636404c8d46d9eb966d7179983ba5a3941a1790553480156200005e57600080fd5b50620000b2565b6000826200008157634e487b7160e01b81526012600452602481fd5b500490565b6000816000190483118215151615620000ad57634e487b7160e01b81526011600452602481fd5b500290565b615da380620000c26000396000f3fe608060405234801561001057600080fd5b506004361061011b5760003560e01c80638ecf7720116100b2578063b0e21e8a11610081578063bf49999411610066578063bf4999941461026a578063c56e1c3c14610292578063c7aa00dd146102a557600080fd5b8063b0e21e8a1461024e578063b5b3ca2c1461025757600080fd5b80638ecf7720146102025780639573167d14610215578063ac7634dc14610228578063acc232081461023b57600080fd5b80635dbf37db116100ee5780635dbf37db1461019c578063642fc0c0146101bf5780636d535f11146101d25780636e0717e5146101ef57600080fd5b806305c6cc33146101205780630676c1b71461014957806339493c7d14610174578063438d931214610187575b600080fd5b61013361012e366004615318565b6102b8565b60405161014091906159ad565b60405180910390f35b60055461015c906001600160a01b031681565b6040516001600160a01b039091168152602001610140565b610133610182366004615418565b6102e2565b61019a6101953660046153e0565b610318565b005b6101af6101aa3660046153e0565b61051b565b6040519015158152602001610140565b6101af6101cd366004615318565b61053d565b6101e1670de0b6b3a764000081565b604051908152602001610140565b61019a6101fd366004615318565b610574565b6101af6102103660046153e0565b610735565b6101af610223366004615418565b6107cb565b61019a61023636600461546b565b611936565b61019a610249366004615418565b613971565b6101e160045481565b61019a610265366004615418565b613af3565b61027d610278366004615350565b613cd4565b60405161014099989796959493929190615881565b6101af6102a036600461542a565b614154565b61019a6102b33660046153e0565b614189565b6001600160a01b03811660009081526002602052604090206060906102dc906142de565b92915050565b6001600160a01b03821660009081526001602090815260408083208484529091529020606090610311906142de565b9392505050565b8143816001600160a01b031663b21634826040518163ffffffff1660e01b815260040160206040518083038186803b15801561035357600080fd5b505afa158015610367573d6000803e3d6000fd5b505050506040513d601f19601f8201168201806040525081019061038b91906155e7565b14156103de5760405162461bcd60e51b815260206004820152601060248201527f7265656e7472616e63792067756172640000000000000000000000000000000060448201526064015b60405180910390fd5b806001600160a01b03166310fdb0a26040518163ffffffff1660e01b8152600401600060405180830381600087803b15801561041957600080fd5b505af115801561042d573d6000803e3d6000fd5b505050508261043b816142eb565b6001600160a01b0316336001600160a01b03161461049b5760405162461bcd60e51b815260206004820152600b60248201527f4163636573732044656e7900000000000000000000000000000000000000000060448201526064016103d5565b82600560006101000a8154816001600160a01b0302191690836001600160a01b0316021790555050806001600160a01b031663d4f7af436040518163ffffffff1660e01b8152600401600060405180830381600087803b1580156104fe57600080fd5b505af1158015610512573d6000803e3d6000fd5b50505050505050565b6001600160a01b038216600090815260026020526040812061031190836143ce565b6001600160a01b03811660009081526003602052604081208190610560906143f0565b1161056c5760016102dc565b600092915050565b6040516317ba7d8560e01b81527fff9379b98b93eb3bd1fac62fd2258a7955d70d2d5279c40064145b6c9646df37600482015281906001600160a01b038216906317ba7d859060240160206040518083038186803b1580156105d557600080fd5b505afa1580156105e9573d6000803e3d6000fd5b505050506040513d601f19601f8201168201806040525081019061060d9190615334565b6001600160a01b0316336001600160a01b031614806106305750610630816143fa565b61067c5760405162461bcd60e51b815260206004820152600760248201527f216163636573730000000000000000000000000000000000000000000000000060448201526064016103d5565b6001600160a01b03821660009081526002602052604090206060906106a0906142de565b8051909150801561072f5760005b818160ff16101561072d5761071a838260ff16815181106106df57634e487b7160e01b600052603260045260246000fd5b602002602001015160026000886001600160a01b03166001600160a01b0316815260200190815260200160002061463390919063ffffffff16565b508061072581615ca7565b9150506106ae565b505b50505050565b6040517fa230c5240000000000000000000000000000000000000000000000000000000081526001600160a01b0382811660048301526000919084169063a230c5249060240160206040518083038186803b15801561079357600080fd5b505afa1580156107a7573d6000803e3d6000fd5b505050506040513d601f19601f820116820180604052508101906103119190615397565b60008260006107d982614648565b90506107e3614fc2565b6001600160a01b0386166000818152602081815260408083208984529091529081902090516317ba7d8560e01b81527f2207fd6117465cefcba0abc867150698c0464aa41a293ec29ca01b67a6350c3c60048201529091906317ba7d859060240160206040518083038186803b15801561085c57600080fd5b505afa158015610870573d6000803e3d6000fd5b505050506040513d601f19601f820116820180604052508101906108949190615334565b6001600160a01b0390811660608401526040517f593e96b60000000000000000000000000000000000000000000000000000000081527fb12a3847d47fefceb164b75823af125f9aa82b76938df0ddf08c04cd314ba37c60048201529088169063593e96b69060240160206040518083038186803b15801561091557600080fd5b505afa158015610929573d6000803e3d6000fd5b505050506040513d601f19601f8201168201806040525081019061094d9190615334565b6001600160a01b031660808301526000602482015460ff16600481111561098457634e487b7160e01b600052602160045260246000fd5b1415610c8757806023015442116109dd5760405162461bcd60e51b815260206004820152601960248201527f70726f706f73616c20696e20766f74696e6720706572696f640000000000000060448201526064016103d5565b6040517f40de703e000000000000000000000000000000000000000000000000000000008152600481018790526001600160a01b038816906340de703e9060240160206040518083038186803b158015610a3657600080fd5b505afa158015610a4a573d6000803e3d6000fd5b505050506040513d601f19601f82011682018060405250810190610a6e9190615334565b6001600160a01b031660c08301819052610aca5760405162461bcd60e51b815260206004820152601160248201527f61646170746572206e6f7420666f756e6400000000000000000000000000000060448201526064016103d5565b60c08201516040517f76225e730000000000000000000000000000000000000000000000000000000081526001600160a01b03898116600483015260248201899052909116906376225e7390604401606060405180830381600087803b158015610b3357600080fd5b505af1158015610b47573d6000803e3d6000fd5b505050506040513d601f19601f82011682018060405250810190610b6b9190615509565b505060e08301816005811115610b9157634e487b7160e01b600052602160045260246000fd5b6005811115610bb057634e487b7160e01b600052602160045260246000fd5b90525060028260e001516005811115610bd957634e487b7160e01b600052602160045260246000fd5b1415610c6b576024818101805460ff1916600117905560808301516040517fb6d26e38000000000000000000000000000000000000000000000000000000008152600481018990526001600160a01b039091169163b6d26e389101600060405180830381600087803b158015610c4e57600080fd5b505af1158015610c62573d6000803e3d6000fd5b50505050611887565b6024810180546004919060ff19166001835b0217905550611887565b6001602482015460ff166004811115610cb057634e487b7160e01b600052602160045260246000fd5b14156118555760608201516040517ff614aea30000000000000000000000000000000000000000000000000000000081526001600160a01b038981166004830152602482018990529091169063f614aea390604401600060405180830381600087803b158015610d1f57600080fd5b505af1158015610d33573d6000803e3d6000fd5b50505060608301516040517f0617b0ce0000000000000000000000000000000000000000000000000000000081526001600160a01b038a81166004830152602482018a90529091169150630617b0ce9060440160206040518083038186803b158015610d9e57600080fd5b505afa158015610db2573d6000803e3d6000fd5b505050506040513d601f19601f82011682018060405250810190610dd69190615334565b6001600160a01b039081166101408401526001820154166101e08301526016810154421015610e31576040517f5d68b4f100000000000000000000000000000000000000000000000000000000815260040160405180910390fd5b6040517f30490e91000000000000000000000000000000000000000000000000000000008152600481018790526001600160a01b038816906330490e9190602401600060405180830381600087803b158015610e8c57600080fd5b505af1158015610ea0573d6000803e3d6000fd5b50505050670de0b6b3a76400006004548361014001516001600160a01b0316610ec99190615bf5565b610ed39190615be1565b610160830152604051634941d71d60e11b81527fda34ff95e06cbf2c9c32a559cd8aadd1a10104596417d62c03db2c1258df83d360048201526001600160a01b03881690639283ae3a9060240160206040518083038186803b158015610f3857600080fd5b505afa158015610f4c573d6000803e3d6000fd5b505050506040513d601f19601f82011682018060405250810190610f7091906155e7565b1561101157604051634941d71d60e11b81527f64c49ee5084f4940c312104c41603e43791b03dad28152afd6eadb5b960a8a8760048201526001600160a01b03881690639283ae3a9060240160206040518083038186803b158015610fd457600080fd5b505afa158015610fe8573d6000803e3d6000fd5b505050506040513d601f19601f8201168201806040525081019061100c91906155e7565b6110d5565b604051634941d71d60e11b81527f64c49ee5084f4940c312104c41603e43791b03dad28152afd6eadb5b960a8a876004820152670de0b6b3a7640000906001600160a01b03891690639283ae3a9060240160206040518083038186803b15801561107a57600080fd5b505afa15801561108e573d6000803e3d6000fd5b505050506040513d601f19601f820116820180604052508101906110b291906155e7565b8361014001516001600160a01b03166110cb9190615bf5565b6110d59190615be1565b6101808301526021810154610140830151670de0b6b3a764000091611102916001600160a01b0316615bf5565b61110c9190615be1565b6101c08301819052610180830151610160840151600284015461112f9190615bc9565b6111399190615bc9565b6111439190615bc9565b8261014001516001600160a01b03161061183f576101408201516001600160a01b03166004820155600581015460ff16156113fe578060010160060154670de0b6b3a7640000836101c001518461018001518561016001518661014001516001600160a01b03166111b49190615c14565b6111be9190615c14565b6111c89190615c14565b6111d29190615bf5565b6111dc9190615be1565b600682018190556102608301819052600a8201546005830154611214928a926001600160a01b0390811692610100900416908a614913565b61127f576024810180546004919060ff19166001835b021790555060248101546040517ff854addaea7ab1ac33b2a81fdae355ba1b5600023b89719b7c224c866577421e9161126c918a918a9160ff9091169061585d565b60405180910390a1600094505050611924565b6040516317ba7d8560e01b81527fb0326f8dfc913f537596953a938551c86ac8fe0da74c9a8cd0ee660e627dccc860048201526001600160a01b038816906317ba7d859060240160206040518083038186803b1580156112de57600080fd5b505afa1580156112f2573d6000803e3d6000fd5b505050506040513d601f19601f820116820180604052508101906113169190615334565b6001600160a01b0390811660a0808501829052600584015484546040805193840181526102608801518452600c87015460208501819052600d8801549596635d5cdb32968f9661010090960482169594909116938e9390929083019161137c9190615c14565b8152600f89015460208201819052604091820152517fffffffff0000000000000000000000000000000000000000000000000000000060e088901b1681526113cb9594939291906004016159fa565b600060405180830381600087803b1580156113e557600080fd5b505af11580156113f9573d6000803e3d6000fd5b505050505b60248101805460ff19166002179055610160820151156114b55760808201516005546101e08401516101608501516040517fceb1bfa6000000000000000000000000000000000000000000000000000000008152600481018b90526001600160a01b0393841660248201529183166044830152606482015291169063ceb1bfa690608401600060405180830381600087803b15801561149c57600080fd5b505af11580156114b0573d6000803e3d6000fd5b505050505b610180820151156116045781608001516001600160a01b031663ceb1bfa687896001600160a01b031663fd310d297f8987d08c67963e4cacd5e5936c122a968c66853d58299dd822c19422271098396040518263ffffffff1660e01b815260040161152291815260200190565b60206040518083038186803b15801561153a57600080fd5b505afa15801561154e573d6000803e3d6000fd5b505050506040513d601f19601f820116820180604052508101906115729190615334565b6101e08601516101808701516040517fffffffff0000000000000000000000000000000000000000000000000000000060e087901b16815260048101949094526001600160a01b039283166024850152911660448301526064820152608401600060405180830381600087803b1580156115eb57600080fd5b505af11580156115ff573d6000803e3d6000fd5b505050505b6101c0820151156116ab57608082015181546101e08401516101c08501516040517fceb1bfa6000000000000000000000000000000000000000000000000000000008152600481018b90526001600160a01b0393841660248201529183166044830152606482015291169063ceb1bfa690608401600060405180830381600087803b15801561169257600080fd5b505af11580156116a6573d6000803e3d6000fd5b505050505b81608001516001600160a01b031663ceb1bfa68783600101600a0160009054906101000a90046001600160a01b0316856101e00151866101c001518761018001518861016001518961014001516001600160a01b031661170b9190615c14565b6117159190615c14565b61171f9190615c14565b6040517fffffffff0000000000000000000000000000000000000000000000000000000060e087901b16815260048101949094526001600160a01b039283166024850152911660448301526064820152608401600060405180830381600087803b15801561178c57600080fd5b505af11580156117a0573d6000803e3d6000fd5b5050505060808201516101408301516040517f1127b158000000000000000000000000000000000000000000000000000000008152600481018990526001600160a01b039182166024820152911690631127b15890604401600060405180830381600087803b15801561181257600080fd5b505af1158015611826573d6000803e3d6000fd5b5050506024820180546003925060ff1916600183610c7d565b6024810180546004919060ff191660018361122a565b6040517fb7ea643300000000000000000000000000000000000000000000000000000000815260040160405180910390fd5b6001600160a01b03871660009081526003602052604090206118a99087614a70565b156118d2576001600160a01b03871660009081526003602052604090206118d09087614a88565b505b43602582015560248101546040517ff854addaea7ab1ac33b2a81fdae355ba1b5600023b89719b7c224c866577421e91611915918a918a9160ff9091169061585d565b60405180910390a16001945050505b61192e8282614a94565b505092915050565b81600061194282614648565b604051634941d71d60e11b81527f2073e6ba5c75026b006fdd165596d94b89cada2e00d8e44a99d422de8ea467e0600482015290915084906001600160a01b03821690639283ae3a9060240160206040518083038186803b1580156119a657600080fd5b505afa1580156119ba573d6000803e3d6000fd5b505050506040513d601f19601f820116820180604052508101906119de91906155e7565b6001141561238c57604051634941d71d60e11b81527f57901982635f8a470a3648422f8f769cf08dc2057489be5bf0099fcb44f7d43c60048201526001600160a01b03821690639283ae3a9060240160206040518083038186803b158015611a4557600080fd5b505afa158015611a59573d6000803e3d6000fd5b505050506040513d601f19601f82011682018060405250810190611a7d91906155e7565b611c8f57604051634941d71d60e11b81527ff6d5f030b79ca78dad001b87a49239ec96be97e62d13501da94c9a392700509e60048201526001600160a01b03821690639283ae3a9060240160206040518083038186803b158015611ae057600080fd5b505afa158015611af4573d6000803e3d6000fd5b505050506040513d601f19601f82011682018060405250810190611b1891906155e7565b60405163fd310d2960e01b81527f30091caaedd0994beeeeb3b7b5734296263687ae0126aaf79e5e0f8e5c1706b260048201526001600160a01b0383169063fd310d299060240160206040518083038186803b158015611b7757600080fd5b505afa158015611b8b573d6000803e3d6000fd5b505050506040513d601f19601f82011682018060405250810190611baf9190615334565b6040517f70a082310000000000000000000000000000000000000000000000000000000081523360048201526001600160a01b0391909116906370a082319060240160206040518083038186803b158015611c0957600080fd5b505afa158015611c1d573d6000803e3d6000fd5b505050506040513d601f19601f82011682018060405250810190611c4191906155e7565b1015611c8f5760405162461bcd60e51b815260206004820152601660248201527f3c206d696e206572633230207265717569726d656e740000000000000000000060448201526064016103d5565b604051634941d71d60e11b81527f57901982635f8a470a3648422f8f769cf08dc2057489be5bf0099fcb44f7d43c60048201526001600160a01b03821690639283ae3a9060240160206040518083038186803b158015611cee57600080fd5b505afa158015611d02573d6000803e3d6000fd5b505050506040513d601f19601f82011682018060405250810190611d2691906155e7565b60011415611f3c57604051634941d71d60e11b81527ff6d5f030b79ca78dad001b87a49239ec96be97e62d13501da94c9a392700509e60048201526001600160a01b03821690639283ae3a9060240160206040518083038186803b158015611d8d57600080fd5b505afa158015611da1573d6000803e3d6000fd5b505050506040513d601f19601f82011682018060405250810190611dc591906155e7565b60405163fd310d2960e01b81527f30091caaedd0994beeeeb3b7b5734296263687ae0126aaf79e5e0f8e5c1706b260048201526001600160a01b0383169063fd310d299060240160206040518083038186803b158015611e2457600080fd5b505afa158015611e38573d6000803e3d6000fd5b505050506040513d601f19601f82011682018060405250810190611e5c9190615334565b6040517f70a082310000000000000000000000000000000000000000000000000000000081523360048201526001600160a01b0391909116906370a082319060240160206040518083038186803b158015611eb657600080fd5b505afa158015611eca573d6000803e3d6000fd5b505050506040513d601f19601f82011682018060405250810190611eee91906155e7565b1015611f3c5760405162461bcd60e51b815260206004820152601360248201527f3c20657263373231207265717569726d656e740000000000000000000000000060448201526064016103d5565b604051634941d71d60e11b81527f57901982635f8a470a3648422f8f769cf08dc2057489be5bf0099fcb44f7d43c60048201526001600160a01b03821690639283ae3a9060240160206040518083038186803b158015611f9b57600080fd5b505afa158015611faf573d6000803e3d6000fd5b505050506040513d601f19601f82011682018060405250810190611fd391906155e7565b6002141561229757604051634941d71d60e11b81527ff6d5f030b79ca78dad001b87a49239ec96be97e62d13501da94c9a392700509e60048201526001600160a01b03821690639283ae3a9060240160206040518083038186803b15801561203a57600080fd5b505afa15801561204e573d6000803e3d6000fd5b505050506040513d601f19601f8201168201806040525081019061207291906155e7565b60405163fd310d2960e01b81527f30091caaedd0994beeeeb3b7b5734296263687ae0126aaf79e5e0f8e5c1706b260048201526001600160a01b0383169063fd310d299060240160206040518083038186803b1580156120d157600080fd5b505afa1580156120e5573d6000803e3d6000fd5b505050506040513d601f19601f820116820180604052508101906121099190615334565b6001600160a01b031662fdd58e33846001600160a01b0316639283ae3a7fb34f156369747125f679c86d97f51861a5a2a9f927a1addd4354acbaaa88ae576040518263ffffffff1660e01b815260040161216591815260200190565b60206040518083038186803b15801561217d57600080fd5b505afa158015612191573d6000803e3d6000fd5b505050506040513d601f19601f820116820180604052508101906121b591906155e7565b6040517fffffffff0000000000000000000000000000000000000000000000000000000060e085901b1681526001600160a01b039092166004830152602482015260440160206040518083038186803b15801561221157600080fd5b505afa158015612225573d6000803e3d6000fd5b505050506040513d601f19601f8201168201806040525081019061224991906155e7565b10156122975760405162461bcd60e51b815260206004820152601460248201527f3c2065726331313535207265717569726d656e7400000000000000000000000060448201526064016103d5565b604051634941d71d60e11b81527f57901982635f8a470a3648422f8f769cf08dc2057489be5bf0099fcb44f7d43c60048201526001600160a01b03821690639283ae3a9060240160206040518083038186803b1580156122f657600080fd5b505afa15801561230a573d6000803e3d6000fd5b505050506040513d601f19601f8201168201806040525081019061232e91906155e7565b6003141561238c57612340813361051b565b61238c5760405162461bcd60e51b815260206004820152601060248201527f6e6f7420696e2077686974656c6973740000000000000000000000000000000060448201526064016103d5565b6040516317ba7d8560e01b81527fe564b2da9fb62dadceed6d94ac5884ac5f464424e7be661d7d6181d49fa87b3f60048201526000906001600160a01b038716906317ba7d859060240160206040518083038186803b1580156123ee57600080fd5b505afa158015612402573d6000803e3d6000fd5b505050506040513d601f19601f820116820180604052508101906124269190615334565b6040517f9a0242fc0000000000000000000000000000000000000000000000000000000081526001600160a01b03888116600483015291925090821690639a0242fc9060240160206040518083038186803b15801561248457600080fd5b505afa158015612498573d6000803e3d6000fd5b505050506040513d601f19601f820116820180604052508101906124bc9190615397565b6125085760405162461bcd60e51b815260206004820152601660248201527f556e446f6e652044616f7365742050726f706f73616c0000000000000000000060448201526064016103d5565b604085013515801590612522575060208501356040860135105b806125395750670de0b6b3a76400006103a0860135115b15612570576040517f24ffd71700000000000000000000000000000000000000000000000000000000815260040160405180910390fd5b6125826102408601610220870161537b565b151560011480156125c4575060036125a2610260870161024088016154ed565b60038111156125c157634e487b7160e01b600052602160045260246000fd5b14155b80156125f7575060006125df6102a087016102808801615318565b6001600160a01b031614806125f757506102c0850135155b1561262e576040517f1899208600000000000000000000000000000000000000000000000000000000815260040160405180910390fd5b61264061030086016102e0870161537b565b1515600114801561268257506003612660610320870161030088016154ed565b600381111561267f57634e487b7160e01b600052602160045260246000fd5b14155b80156126b55750600061269d61034087016103208801615318565b6001600160a01b031614806126b55750610360850135155b156126ec576040517f7cf07e5e00000000000000000000000000000000000000000000000000000000815260040160405180910390fd5b6127bf604051806102a001604052806000815260200160006001600160a01b0316815260200160006001600160a01b0316815260200160006001600160a01b0316815260200160006001600160a01b0316815260200160006001600160a01b031681526020016000801916815260200160008152602001600081526020016000815260200160008152602001600081526020016000815260200160008152602001600081526020016000815260200160008152602001600081526020016000815260200160008152602001600081525090565b6040516317ba7d8560e01b81527f6f48e16963713446db50a1503860d8e1fc3c888da56a85afcaa6dc29503cc61060048201526001600160a01b038816906317ba7d859060240160206040518083038186803b15801561281e57600080fd5b505afa158015612832573d6000803e3d6000fd5b505050506040513d601f19601f820116820180604052508101906128569190615334565b81602001906001600160a01b031690816001600160a01b031681525050866001600160a01b031663776d13c56040518163ffffffff1660e01b8152600401600060405180830381600087803b1580156128ae57600080fd5b505af11580156128c2573d6000803e3d6000fd5b5050505061296b8760c01b612946896001600160a01b031663f1457aac6040518163ffffffff1660e01b815260040160206040518083038186803b15801561290957600080fd5b505afa15801561291d573d6000803e3d6000fd5b505050506040513d601f19601f8201168201806040525081019061294191906155e7565b614aa3565b6040516020016129579291906157ef565b604051602081830303815290604052614bf1565b60c0820152612980608087016060880161537b565b15612af957600061299760a0880160808901615318565b6001600160a01b031614806129c6575060006129bb61014088016101208901615318565b6001600160a01b0316145b806129d3575060e0860135155b15612a0a576040517f1d0bec7000000000000000000000000000000000000000000000000000000000815260040160405180910390fd5b670de0b6b3a7640000612a21610160880188615b55565b608001351180612a4f5750612a3a610160870187615b55565b35612a49610160880188615b55565b60200135105b80612a7b5750612a63610160870187615b55565b60200135612a75610160880188615b55565b60400135105b15612ab2576040517ff224d7d300000000000000000000000000000000000000000000000000000000815260040160405180910390fd5b670de0b6b3a76400006103808701351115612af9576040517f5190664000000000000000000000000000000000000000000000000000000000815260040160405180910390fd5b60c08101516040517fb73dc38900000000000000000000000000000000000000000000000000000000815260048101919091526001600160a01b0388169063b73dc38990602401600060405180830381600087803b158015612b5a57600080fd5b505af1158015612b6e573d6000803e3d6000fd5b5050604051634941d71d60e11b81527f6e9fd67c3f2ca4e2b4e4b45b33b985dc3a1bffcadea24d12440a5901f72217b56004820152600092506001600160a01b038a169150639283ae3a9060240160206040518083038186803b158015612bd457600080fd5b505afa158015612be8573d6000803e3d6000fd5b505050506040513d601f19601f82011682018060405250810190612c0c91906155e7565b15612c18576001612c1b565b60005b604080516101208101825233815281516101808101909252919250602080830191908190612c4b908c018c615318565b6001600160a01b031681526020018a6000016020013581526020018a600001604001358152602001600081526020018a6000016060016020810190612c90919061537b565b15158152602001612ca760a08c0160808d01615318565b6001600160a01b0316815260a0808c0135602083015260c08c0135604083015260e08c013560608301526101008c0135608083015201612cef6101408c016101208d01615318565b6001600160a01b03168152602001612d0f6101608c016101408d01615318565b6001600160a01b031681525081526020016040518061012001604052808a806101600190612d3d9190615b55565b358152602001612d516101608c018c615b55565b602090810135825201612d686101608c018c615b55565b604001358152602001612d7f6101608c018c615b55565b606001358152602001612d966101608c018c615b55565b608001358152602001612dad6101608c018c615b55565b612dbe9060c081019060a00161537b565b15158152602001612dd36101608c018c615b55565b612de49060e081019060c001615318565b6001600160a01b03168152602001612e006101608c018c615b55565b612e0e9060e0810190615b10565b8080601f016020809104026020016040519081016040528093929190818152602001838380828437600092019190915250505090825250602001612e566101608c018c615b55565b612e6590610100810190615b10565b8080601f0160208091040260200160405190810160405280939291908181526020018383808284376000920191909152505050915250815260408051610100810190915260209091019080612ec26101a08c016101808d016154d1565b6001811115612ee157634e487b7160e01b600052602160045260246000fd5b81526101a08b013560208201526101c08b013560408201526101e08b013560608201526102008b0135608082015260a001612f246102408c016102208d0161537b565b15158152602001612f3e368c90038c016102408d01615542565b8152602001612f56368c90038c016102e08d016155b3565b905281526040805180820182526103808b013581526103a08b0135602082810191909152830152016001836001811115612fa057634e487b7160e01b600052602160045260246000fd5b14612fac576000612fae565b425b81526020016001836001811115612fd557634e487b7160e01b600052602160045260246000fd5b14612fe1576000613082565b604051634941d71d60e11b81527fee63cc82ca6990a4cc5fa3ca10d8a5281ae1758a8d8f22892c4badb7cacd111e60048201526001600160a01b038b1690639283ae3a9060240160206040518083038186803b15801561304057600080fd5b505afa158015613054573d6000803e3d6000fd5b505050506040513d601f19601f8201168201806040525081019061307891906155e7565b6130829042615bc9565b815260200160018360018111156130a957634e487b7160e01b600052602160045260246000fd5b146130b55760016130b8565b60005b60048111156130d757634e487b7160e01b600052602160045260246000fd5b8152600060209182018190526001600160a01b03808c168252818352604080832060c080890151855290855292819020855181549084167fffffffffffffffffffffffff0000000000000000000000000000000000000000918216178255868601518051600184018054918716918416919091179055808701516002840155808401516003840155606080820151600485015560808083015160058601805460a0808701518b166101009081027fffffffffffffffffffffff0000000000000000000000000000000000000000ff95151586167fffffffffffffffffffffff0000000000000000000000000000000000000000009485161717909355868c015160068a015560e08088015160078b01558784015160088b015561012088015160098b0155610140880151600a8b018054918e16918b1691909117905561016090970151600b8a018054918d1691909916179097558c8901518051600c8a01908155818e0151600d8b015599810151600e8a015594850151600f890155928401516010880155948301516011870180549a85015190991690950294151516971696909617919091179093559183015180519294919261329b926012870192019061506d565b5061010082015180516132b891600784019160209091019061506d565b50505060608201518051601483018054909190829060ff1916600183818111156132f257634e487b7160e01b600052602160045260246000fd5b021790555060208201516001808301919091556040830151600283015560608301516003808401919091556080840151600484015560a084015160058401805491151560ff1992831617905560c0850151805160068601805492959094919385931691849081111561337457634e487b7160e01b600052602160045260246000fd5b0217905550602082810151825460408501517fffffffffffffff000000000000000000000000000000000000000000000000ff90911661010063ffffffff90931683027fffffffffffffff0000000000000000000000000000000000000000ffffffffff1617650100000000006001600160a01b03909216919091021783556060840151600184015560809093015160029092019190915560e0840151805160098501805460ff1981169215159283178255938301519294909384927fffffffffffffffffffffffffffffffffffffffffffffffffffffffffffff00009091167fffffffffffffffffffffffffffffffffffffffffffffffffffffffffffff00ff909116179083600381111561349a57634e487b7160e01b600052602160045260246000fd5b0217905550604082015181546001600160a01b0390911662010000027fffffffffffffffffffff0000000000000000000000000000000000000000ffff90911617815560608201516001808301919091556080928301516002909201919091559085015180516020808701919091550151602185015560a0850151602285015560c0850151602385015560e0850151602485018054919450925060ff19169083600481111561355957634e487b7160e01b600052602160045260246000fd5b02179055506101009190910151602590910155600361358061032089016103008a016154ed565b600381111561359f57634e487b7160e01b600052602160045260246000fd5b14156135f55760c08201516135f59089906135be6103c08b018b615ac1565b80806020026020016040519081016040528093929190818152602001838360200280828437600092019190915250614c0d92505050565b60208083015160c084015160408051938401815260008452517f2b0974d00000000000000000000000000000000000000000000000000000000081526001600160a01b0390921692632b0974d092613653928d929091600401615a90565b600060405180830381600087803b15801561366d57600080fd5b505af1158015613681573d6000803e3d6000fd5b5050505060c08201516040516317ba7d8560e01b81527f6f48e16963713446db50a1503860d8e1fc3c888da56a85afcaa6dc29503cc61060048201526001600160a01b038a169163815a2bf49183906317ba7d859060240160206040518083038186803b1580156136f157600080fd5b505afa158015613705573d6000803e3d6000fd5b505050506040513d601f19601f820116820180604052508101906137299190615334565b6040517fffffffff0000000000000000000000000000000000000000000000000000000060e085901b16815260048101929092526001600160a01b03166024820152604401600060405180830381600087803b15801561378857600080fd5b505af115801561379c573d6000803e3d6000fd5b50506040517f593e96b60000000000000000000000000000000000000000000000000000000081527fb12a3847d47fefceb164b75823af125f9aa82b76938df0ddf08c04cd314ba37c60048201526001600160a01b038b16925063593e96b6915060240160206040518083038186803b15801561381857600080fd5b505afa15801561382c573d6000803e3d6000fd5b505050506040513d601f19601f820116820180604052508101906138509190615334565b6001600160a01b03166040830152600081600181111561388057634e487b7160e01b600052602160045260246000fd5b14156138ef5781604001516001600160a01b031663b6d26e388360c001516040518263ffffffff1660e01b81526004016138bc91815260200190565b600060405180830381600087803b1580156138d657600080fd5b505af11580156138ea573d6000803e3d6000fd5b505050505b60c08201516001600160a01b038916600090815260036020526040902061391591614ce8565b5060c0820151604080516001600160a01b038b16815260208101929092523382820152517f1dfc244cab0c3cc88645f305adf7c51524a495c4eca07e193a69f39152da8fb79181900360600190a15050505061072f8282614a94565b81600061397d82614648565b6001600160a01b03851660008181526020818152604080832088845290915280822090516317ba7d8560e01b81527f43f8439a5cef099d0d9a92b15a64e34ff49963bb29d65f63204eda6591b810a16004820152939450929091906317ba7d859060240160206040518083038186803b1580156139f957600080fd5b505afa158015613a0d573d6000803e3d6000fd5b505050506040513d601f19601f82011682018060405250810190613a319190615334565b600583015460248401546040517f7132e8a10000000000000000000000000000000000000000000000000000000081529293506001600160a01b0380851693637132e8a193613a94938c938c936101009093041691339160ff1690600401615a5c565b602060405180830381600087803b158015613aae57600080fd5b505af1158015613ac2573d6000803e3d6000fd5b505050506040513d601f19601f82011682018060405250810190613ae69190615397565b50505061072f8282614a94565b8143816001600160a01b031663b21634826040518163ffffffff1660e01b815260040160206040518083038186803b158015613b2e57600080fd5b505afa158015613b42573d6000803e3d6000fd5b505050506040513d601f19601f82011682018060405250810190613b6691906155e7565b1415613bb45760405162461bcd60e51b815260206004820152601060248201527f7265656e7472616e63792067756172640000000000000000000000000000000060448201526064016103d5565b806001600160a01b03166310fdb0a26040518163ffffffff1660e01b8152600401600060405180830381600087803b158015613bef57600080fd5b505af1158015613c03573d6000803e3d6000fd5b5050505082613c11816142eb565b6001600160a01b0316336001600160a01b031614613c715760405162461bcd60e51b815260206004820152600b60248201527f4163636573732044656e7900000000000000000000000000000000000000000060448201526064016103d5565b670de0b6b3a764000083108015613c885750600083115b613c9157600080fd5b8260048190555050806001600160a01b031663d4f7af436040518163ffffffff1660e01b8152600401600060405180830381600087803b1580156104fe57600080fd5b6000602081815292815260408082208452918152819020805482516101808101845260018301546001600160a01b0390811682526002840154828701526003840154828601526004840154606080840191909152600585015460ff808216151560808087019190915261010092839004851660a080880191909152600689015460c08089019190915260078a015460e0808a019190915260088b01548987015260098b0154610120808b0191909152600a8c015489166101408b0152600b8c015489166101608b01528c519081018d52600c8c0180548252600d8d01549e82019e909e52600e8c01549c81019c909c52600f8b0154968c019690965260108a0154928b019290925260118901549283161515908a0152919004831690870152601285018054929094169692959390840191613e0e90615c57565b80601f0160208091040260200160405190810160405280929190818152602001828054613e3a90615c57565b8015613e875780601f10613e5c57610100808354040283529160200191613e87565b820191906000526020600020905b815481529060010190602001808311613e6a57829003601f168201915b50505050508152602001600782018054613ea090615c57565b80601f0160208091040260200160405190810160405280929190818152602001828054613ecc90615c57565b8015613f195780601f10613eee57610100808354040283529160200191613f19565b820191906000526020600020905b815481529060010190602001808311613efc57829003601f168201915b50505091909252505060408051610100810190915260148401805493949391925090829060ff166001811115613f5f57634e487b7160e01b600052602160045260246000fd5b6001811115613f7e57634e487b7160e01b600052602160045260246000fd5b8152602001600182015481526020016002820154815260200160038201548152602001600482015481526020016005820160009054906101000a900460ff16151515158152602001600682016040518060a00160405290816000820160009054906101000a900460ff16600381111561400757634e487b7160e01b600052602160045260246000fd5b600381111561402657634e487b7160e01b600052602160045260246000fd5b8152815461010080820463ffffffff16602080850191909152650100000000009092046001600160a01b031660408085019190915260018501546060850152600290940154608090930192909252928452815160a0810190925260098501805460ff8082161515855295850195939491939185019290041660038111156140bd57634e487b7160e01b600052602160045260246000fd5b60038111156140dc57634e487b7160e01b600052602160045260246000fd5b815281546201000090046001600160a01b03166020808301919091526001830154604080840191909152600290930154606090920191909152919092528151808301909252848101548252602185015490820152602284015460238501546024860154602590960154949592949193509160ff169089565b6001600160a01b0383166000908152600160209081526040808320858452909152812061418190836143ce565b949350505050565b6040516317ba7d8560e01b81527fff9379b98b93eb3bd1fac62fd2258a7955d70d2d5279c40064145b6c9646df37600482015282906001600160a01b038216906317ba7d859060240160206040518083038186803b1580156141ea57600080fd5b505afa1580156141fe573d6000803e3d6000fd5b505050506040513d601f19601f820116820180604052508101906142229190615334565b6001600160a01b0316336001600160a01b031614806142455750614245816143fa565b6142915760405162461bcd60e51b815260206004820152600760248201527f216163636573730000000000000000000000000000000000000000000000000060448201526064016103d5565b6001600160a01b03831660009081526002602052604090206142b390836143ce565b6142d9576001600160a01b038316600090815260026020526040902061072f9083614cf4565b505050565b6060600061031183614d09565b6000816001600160a01b03166348f7f2a36040518163ffffffff1660e01b815260040160206040518083038186803b15801561432657600080fd5b505afa15801561433a573d6000803e3d6000fd5b505050506040513d601f19601f8201168201806040525081019061435e9190615334565b6001600160a01b0316638da5cb5b6040518163ffffffff1660e01b815260040160206040518083038186803b15801561439657600080fd5b505afa1580156143aa573d6000803e3d6000fd5b505050506040513d601f19601f820116820180604052508101906102dc9190615334565b6001600160a01b03811660009081526001830160205260408120541515610311565b60006102dc825490565b600080826001600160a01b031663c19d93fb6040518163ffffffff1660e01b815260040160206040518083038186803b15801561443657600080fd5b505afa15801561444a573d6000803e3d6000fd5b505050506040513d601f19601f8201168201806040525081019061446e91906154b5565b600181111561448d57634e487b7160e01b600052602160045260246000fd5b1480156102dc5750816001600160a01b031663c67143666040518163ffffffff1660e01b815260040160206040518083038186803b1580156144ce57600080fd5b505afa1580156144e2573d6000803e3d6000fd5b505050506040513d601f19601f8201168201806040525081019061450691906155e7565b158061459d57506040517fa230c5240000000000000000000000000000000000000000000000000000000081523360048201526001600160a01b0383169063a230c5249060240160206040518083038186803b15801561456557600080fd5b505afa158015614579573d6000803e3d6000fd5b505050506040513d601f19601f8201168201806040525081019061459d9190615397565b806102dc57506040517f68c18beb0000000000000000000000000000000000000000000000000000000081523360048201526001600160a01b038316906368c18beb9060240160206040518083038186803b1580156145fb57600080fd5b505afa15801561460f573d6000803e3d6000fd5b505050506040513d601f19601f820116820180604052508101906102dc9190615397565b6000610311836001600160a01b038416614d65565b6040805160808101825260008082526020820181905291810182905260608101919091525a81600001818152505043826001600160a01b031663b21634826040518163ffffffff1660e01b815260040160206040518083038186803b1580156146b057600080fd5b505afa1580156146c4573d6000803e3d6000fd5b505050506040513d601f19601f820116820180604052508101906146e891906155e7565b14156147365760405162461bcd60e51b815260206004820152601060248201527f7265656e7472616e63792067756172640000000000000000000000000000000060448201526064016103d5565b816001600160a01b03166310fdb0a26040518163ffffffff1660e01b8152600401600060405180830381600087803b15801561477157600080fd5b505af1158015614785573d6000803e3d6000fd5b50506040517f72c6838f0000000000000000000000000000000000000000000000000000000081527f1f2fd42ad6a6cacd573c4b212beb7a4e2499ad45d742a65337097f130e71daff6004820152600092506001600160a01b03851691506372c6838f9060240160206040518083038186803b15801561480457600080fd5b505afa158015614818573d6000803e3d6000fd5b505050506040513d601f19601f8201168201806040525081019061483c9190615334565b90506001600160a01b038116614858576000602083015261490d565b6001600160a01b038181166060840181905283516040517f43a8a3f1000000000000000000000000000000000000000000000000000000008152928616600484015260248301526000918291906343a8a3f190604401604080518083038186803b1580156148c557600080fd5b505afa1580156148d9573d6000803e3d6000fd5b505050506040513d601f19601f820116820180604052508101906148fd91906153b3565b9015156020860152604085015250505b50919050565b6040516317ba7d8560e01b81527f43f8439a5cef099d0d9a92b15a64e34ff49963bb29d65f63204eda6591b810a1600482015260009081906001600160a01b038816906317ba7d859060240160206040518083038186803b15801561497757600080fd5b505afa15801561498b573d6000803e3d6000fd5b505050506040513d601f19601f820116820180604052508101906149af9190615334565b6040517fd705e0cd000000000000000000000000000000000000000000000000000000008152600481018690526001600160a01b03898116602483015288811660448301528781166064830152608482018690529192509082169063d705e0cd9060a401602060405180830381600087803b158015614a2d57600080fd5b505af1158015614a41573d6000803e3d6000fd5b505050506040513d601f19601f82011682018060405250810190614a659190615397565b979650505050505050565b60008181526001830160205260408120541515610311565b60006103118383614d65565b614a9f828233614e82565b5050565b606081614ae357505060408051808201909152600181527f3000000000000000000000000000000000000000000000000000000000000000602082015290565b8160005b8115614b0d5780614af781615c8c565b9150614b069050600a83615be1565b9150614ae7565b60008167ffffffffffffffff811115614b3657634e487b7160e01b600052604160045260246000fd5b6040519080825280601f01601f191660200182016040528015614b60576020820181803683370190505b5090505b841561418157614b75600183615c14565b9150614b82600a86615cc7565b614b8d906030615bc9565b60f81b818381518110614bb057634e487b7160e01b600052603260045260246000fd5b60200101907effffffffffffffffffffffffffffffffffffffffffffffffffffffffffffff1916908160001a905350614bea600a86615be1565b9450614b64565b6000815160001415614c0557506000919050565b506020015190565b60005b81518160ff16101561072f57614c76828260ff1681518110614c4257634e487b7160e01b600052603260045260246000fd5b6020908102919091018101516001600160a01b038716600090815260018352604080822088835290935291909120906143ce565b614cd657614cd4828260ff1681518110614ca057634e487b7160e01b600052603260045260246000fd5b6020908102919091018101516001600160a01b03871660009081526001835260408082208883529093529190912090614cf4565b505b80614ce081615ca7565b915050614c10565b60006103118383614f73565b6000610311836001600160a01b038416614f73565b606081600001805480602002602001604051908101604052809291908181526020018280548015614d5957602002820191906000526020600020905b815481526020019060010190808311614d45575b50505050509050919050565b60008181526001830160205260408120548015614e78576000614d89600183615c14565b8554909150600090614d9d90600190615c14565b9050818114614e1e576000866000018281548110614dcb57634e487b7160e01b600052603260045260246000fd5b9060005260206000200154905080876000018481548110614dfc57634e487b7160e01b600052603260045260246000fd5b6000918252602080832090910192909255918252600188019052604090208390555b8554869080614e3d57634e487b7160e01b600052603160045260246000fd5b6001900381819060005260206000200160009055905585600101600086815260200190815260200160002060009055600193505050506102dc565b60009150506102dc565b816020015115614f385781606001516001600160a01b0316635e5eb01384835a8651614eae9190615c14565b60408088015190517fffffffff0000000000000000000000000000000000000000000000000000000060e087901b1681526001600160a01b03948516600482015293909216602484015260448301526064820152608401600060405180830381600087803b158015614f1f57600080fd5b505af1158015614f33573d6000803e3d6000fd5b505050505b826001600160a01b031663d4f7af436040518163ffffffff1660e01b8152600401600060405180830381600087803b1580156104fe57600080fd5b6000818152600183016020526040812054614fba575081546001818101845560008481526020808220909301849055845484825282860190935260409020919091556102dc565b5060006102dc565b604051806102800160405280614fd66150f1565b815260006020820181905260408201819052606082018190526080820181905260a0820181905260c0820181905260e08201819052610100820181905261012082018190526101408201819052610160820181905261018082018190526101a082018190526101c082018190526101e082018190526102008201819052610220820181905261024082018190526102609091015290565b82805461507990615c57565b90600052602060002090601f01602090048101928261509b57600085556150e1565b82601f106150b457805160ff19168380011785556150e1565b828001600101855582156150e1579182015b828111156150e15782518255916020019190600101906150c6565b506150ed929150615266565b5090565b60405180610120016040528060006001600160a01b0316815260200161519760405180610180016040528060006001600160a01b0316815260200160008152602001600081526020016000815260200160001515815260200160006001600160a01b031681526020016000815260200160008152602001600081526020016000815260200160006001600160a01b0316815260200160006001600160a01b031681525090565b81526020016151f6604051806101200160405280600081526020016000815260200160008152602001600081526020016000815260200160001515815260200160006001600160a01b0316815260200160608152602001606081525090565b815260200161520361527b565b8152602001615225604051806040016040528060008152602001600081525090565b815260200160008152602001600081526020016000600481111561525957634e487b7160e01b600052602160045260246000fd5b8152602001600081525090565b5b808211156150ed5760008155600101615267565b6040805161010081019091528060008152602001600081526020016000815260200160008152602001600081526020016000151581526020016152e76040805160a081019091528060008152600060208201819052604082018190526060820181905260809091015290565b81526040805160a0810182526000808252602082810182905292820181905260608201819052608082015291015290565b600060208284031215615329578081fd5b813561031181615d30565b600060208284031215615345578081fd5b815161031181615d30565b60008060408385031215615362578081fd5b823561536d81615d30565b946020939093013593505050565b60006020828403121561538c578081fd5b813561031181615d45565b6000602082840312156153a8578081fd5b815161031181615d45565b600080604083850312156153c5578182fd5b82516153d081615d45565b6020939093015192949293505050565b600080604083850312156153f2578182fd5b82356153fd81615d30565b9150602083013561540d81615d30565b809150509250929050565b60008060408385031215615362578182fd5b60008060006060848603121561543e578081fd5b833561544981615d30565b925060208401359150604084013561546081615d30565b809150509250925092565b6000806040838503121561547d578182fd5b823561548881615d30565b9150602083013567ffffffffffffffff8111156154a3578182fd5b83016103e0818603121561540d578182fd5b6000602082840312156154c6578081fd5b815161031181615d53565b6000602082840312156154e2578081fd5b813561031181615d53565b6000602082840312156154fe578081fd5b813561031181615d60565b60008060006060848603121561551d578081fd5b83516006811061552b578182fd5b602085015160409095015190969495509392505050565b600060a08284031215615553578081fd5b61555b615b92565b823561556681615d60565b8152602083013563ffffffff8116811461557e578283fd5b6020820152604083013561559181615d30565b6040820152606083810135908201526080928301359281019290925250919050565b600060a082840312156155c4578081fd5b6155cc615b92565b82356155d781615d45565b8152602083013561557e81615d60565b6000602082840312156155f8578081fd5b5051919050565b60008151808452615617816020860160208601615c2b565b601f017fffffffffffffffffffffffffffffffffffffffffffffffffffffffffffffffe0169290920160200192915050565b6005811061565957615659615d07565b9052565b80516002811061566f5761566f615d07565b808352506020810151602083015260408101516040830152606081015160608301526080810151608083015260a0810151151560a083015260c08101516156b960c08401826156cd565b5060e08101516142d9610160840182615712565b80516156d881615d1d565b825260208181015163ffffffff16908301526040808201516001600160a01b03169083015260608082015190830152608090810151910152565b805115158252602081015161572681615d1d565b60208301526040818101516001600160a01b03169083015260608082015190830152608090810151910152565b6000610120825184526020830151602085015260408301516040850152606083015160608501526080830151608085015260a083015161579760a086018215159052565b5060c08301516157b260c08601826001600160a01b03169052565b5060e08301518160e08601526157ca828601826155ff565b91505061010080840151858303828701526157e583826155ff565b9695505050505050565b7fffffffffffffffff000000000000000000000000000000000000000000000000831681527f496e766573746d656e742300000000000000000000000000000000000000000060088201526000825161584f816013850160208701615c2b565b919091016013019392505050565b6001600160a01b038416815260208101839052606081016141816040830184615649565b6001600160a01b038a811682528951166020820152600061048060208b0151604084015260408b0151606084015260608b0151608084015260808b01516158cc60a085018215159052565b5060a08b01516001600160a01b03811660c08501525060c08b015160e0848101919091528b0151610100808501919091528b0151610120808501919091528b0151610140808501919091528b0151610160615931818601836001600160a01b03169052565b8c01516001600160a01b0316610180850152506101a083018190526159588184018b615753565b9150506159696101c083018961565d565b86516103c083015260208701516103e08301528561040083015284610420830152615998610440830185615649565b826104608301529a9950505050505050505050565b6020808252825182820181905260009190848201906040850190845b818110156159ee5783516001600160a01b0316835292840192918401916001016159c9565b50909695505050505050565b6000610120820190506001600160a01b03808816835260208188168185015281871660408501528560608501526080840191508460005b6005811015615a4e57815184529282019290820190600101615a31565b505050509695505050505050565b6001600160a01b0386811682526020820186905284811660408301528316606082015260a081016157e56080830184615649565b6001600160a01b0384168152826020820152606060408201526000615ab860608301846155ff565b95945050505050565b6000808335601e19843603018112615ad7578283fd5b83018035915067ffffffffffffffff821115615af1578283fd5b6020019150600581901b3603821315615b0957600080fd5b9250929050565b6000808335601e19843603018112615b26578283fd5b83018035915067ffffffffffffffff821115615b40578283fd5b602001915036819003821315615b0957600080fd5b600082357ffffffffffffffffffffffffffffffffffffffffffffffffffffffffffffffee1833603018112615b88578182fd5b9190910192915050565b60405160a0810167ffffffffffffffff81118282101715615bc357634e487b7160e01b600052604160045260246000fd5b60405290565b60008219821115615bdc57615bdc615cdb565b500190565b600082615bf057615bf0615cf1565b500490565b6000816000190483118215151615615c0f57615c0f615cdb565b500290565b600082821015615c2657615c26615cdb565b500390565b60005b83811015615c46578181015183820152602001615c2e565b8381111561072f5750506000910152565b600181811c90821680615c6b57607f821691505b6020821081141561490d57634e487b7160e01b600052602260045260246000fd5b6000600019821415615ca057615ca0615cdb565b5060010190565b600060ff821660ff811415615cbe57615cbe615cdb565b60010192915050565b600082615cd657615cd6615cf1565b500690565b634e487b7160e01b600052601160045260246000fd5b634e487b7160e01b600052601260045260246000fd5b634e487b7160e01b600052602160045260246000fd5b60048110615d2d57615d2d615d07565b50565b6001600160a01b0381168114615d2d57600080fd5b8015158114615d2d57600080fd5b60028110615d2d57600080fd5b60048110615d2d57600080fdfea264697066735822122058c61f9350085e5ec4f71392e58d81b13d535e9d21e9424366091c948984631b64736f6c63430008040033",
  "linkReferences": {},
  "deployedLinkReferences": {}
}