{
  "_format": "hh-sol-artifact-1",
  "contractName": "FlexDaoSetHelperAdapterContract",
  "sourceName": "contracts/flex/adatpers/FlexDaoSetHelperAdapter.sol",
  "abi": [
    {
      "inputs": [
        {
          "internalType": "contract DaoRegistry",
          "name": "dao",
          "type": "address"
        },
        {
          "internalType": "uint256",
          "name": "flexDaoManagementfee",
          "type": "uint256"
        },
        {
          "internalType": "uint256",
          "name": "flexDaoReturnTokenManagementFee",
          "type": "uint256"
        },
        {
          "internalType": "address",
          "name": "managementFeeAddress",
          "type": "address"
        }
      ],
      "name": "setFees",
      "outputs": [],
      "stateMutability": "nonpayable",
      "type": "function"
    },
    {
      "inputs": [
        {
          "internalType": "contract DaoRegistry",
          "name": "dao",
          "type": "address"
        },
        {
          "internalType": "bool",
          "name": "enable",
          "type": "bool"
        },
        {
          "internalType": "string",
          "name": "name",
          "type": "string"
        },
        {
          "internalType": "uint256",
          "name": "minAmount",
          "type": "uint256"
        },
        {
          "internalType": "address",
          "name": "tokenAddress",
          "type": "address"
        },
        {
          "internalType": "uint256",
          "name": "tokenId",
          "type": "uint256"
        },
        {
          "internalType": "uint8",
          "name": "varifyType",
          "type": "uint8"
        },
        {
          "internalType": "address[]",
          "name": "whitelist",
          "type": "address[]"
        }
      ],
      "name": "setGovernorMembership",
      "outputs": [],
      "stateMutability": "nonpayable",
      "type": "function"
    },
    {
      "inputs": [
        {
          "internalType": "contract DaoRegistry",
          "name": "dao",
          "type": "address"
        },
        {
          "internalType": "bool",
          "name": "enable",
          "type": "bool"
        },
        {
          "internalType": "uint256",
          "name": "cap",
          "type": "uint256"
        }
      ],
      "name": "setInvestorCap",
      "outputs": [],
      "stateMutability": "nonpayable",
      "type": "function"
    },
    {
      "inputs": [
        {
          "internalType": "contract DaoRegistry",
          "name": "dao",
          "type": "address"
        },
        {
          "internalType": "bool",
          "name": "enable",
          "type": "bool"
        },
        {
          "internalType": "string",
          "name": "name",
          "type": "string"
        },
        {
          "internalType": "uint8",
          "name": "varifyType",
          "type": "uint8"
        },
        {
          "internalType": "uint256",
          "name": "minAmount",
          "type": "uint256"
        },
        {
          "internalType": "address",
          "name": "tokenAddress",
          "type": "address"
        },
        {
          "internalType": "uint256",
          "name": "tokenId",
          "type": "uint256"
        },
        {
          "internalType": "address[]",
          "name": "whitelist",
          "type": "address[]"
        }
      ],
      "name": "setInvestorMembership",
      "outputs": [],
      "stateMutability": "nonpayable",
      "type": "function"
    },
    {
      "inputs": [
        {
          "internalType": "contract DaoRegistry",
          "name": "dao",
          "type": "address"
        },
        {
          "internalType": "uint256[9]",
          "name": "uint256Args",
          "type": "uint256[9]"
        },
        {
          "internalType": "address[2]",
          "name": "addressArgs",
          "type": "address[2]"
        },
        {
          "internalType": "address[]",
          "name": "pollvoterMembershipWhitelist",
          "type": "address[]"
        },
        {
          "internalType": "string",
          "name": "name",
          "type": "string"
        }
      ],
      "name": "setPollForInvestment",
      "outputs": [],
      "stateMutability": "nonpayable",
      "type": "function"
    },
    {
      "inputs": [
        {
          "internalType": "contract DaoRegistry",
          "name": "dao",
          "type": "address"
        },
        {
          "internalType": "string",
          "name": "name",
          "type": "string"
        },
        {
          "internalType": "uint256",
          "name": "flexDaoProposerMembershipMinHolding",
          "type": "uint256"
        },
        {
          "internalType": "uint256",
          "name": "flexDaoProposerMembershipTokenId",
          "type": "uint256"
        },
        {
          "internalType": "uint256",
          "name": "flexDaoProposerMembershipVarifyType",
          "type": "uint256"
        },
        {
          "internalType": "address",
          "name": "flexDaoProposerMembershipTokenAddress",
          "type": "address"
        },
        {
          "internalType": "address[]",
          "name": "_whitelist",
          "type": "address[]"
        }
      ],
      "name": "setProposerMembership",
      "outputs": [],
      "stateMutability": "nonpayable",
      "type": "function"
    },
    {
      "inputs": [
        {
          "internalType": "contract DaoRegistry",
          "name": "dao",
          "type": "address"
        },
        {
          "internalType": "address",
          "name": "tokenAddress",
          "type": "address"
        },
        {
          "internalType": "uint256[8]",
          "name": "uint256Args",
          "type": "uint256[8]"
        },
        {
          "internalType": "address[]",
          "name": "governors",
          "type": "address[]"
        },
        {
          "internalType": "uint256[]",
          "name": "allocations",
          "type": "uint256[]"
        }
      ],
      "name": "setVoting",
      "outputs": [],
      "stateMutability": "nonpayable",
      "type": "function"
    }
  ],
  "bytecode": "0x608060405234801561001057600080fd5b50612dbb806100206000396000f3fe608060405234801561001057600080fd5b506004361061007d5760003560e01c80638f88c3ce1161005b5780638f88c3ce146100bd5780639a327512146100d0578063b8e662c2146100e3578063f34125b6146100f657600080fd5b806334c49284146100825780634088f7ae146100975780637249b22f146100aa575b600080fd5b6100956100903660046128f9565b610109565b005b6100956100a5366004612a3e565b61082f565b6100956100b8366004612bb4565b610e2a565b6100956100cb366004612ca4565b611024565b6100956100de366004612b0b565b61128c565b6100956100f13660046129a3565b6119a7565b610095610104366004612bf1565b6122c3565b6040516317ba7d8560e01b81527f8ceb7c7dc4c27ecfdcfd7ab759513c13202213bb0305fcd8889452f229d798e760048201526001600160a01b038816906317ba7d859060240160206040518083038186803b15801561016857600080fd5b505afa15801561017c573d6000803e3d6000fd5b505050506040513d601f19601f820116820180604052508101906101a091906128dd565b6001600160a01b0316336001600160a01b0316146101ef5760405162461bcd60e51b81526020600482015260076024820152662161636365737360c81b60448201526064015b60405180910390fd5b604051630da0f6c760e41b81527f75b7d343967750d1f6c15979b7559cea8be22ff1a06a51681b9cbef0d2fff4fe6004820152853560248201526001600160a01b0388169063da0f6c7090604401600060405180830381600087803b15801561025757600080fd5b505af115801561026b573d6000803e3d6000fd5b5050604051631da7c90d60e11b81527fb5a1ad3f04728d7c38547e3d43006a1ec090a02fce04bbb1d0ee4519a1921e5760048201526001600160a01b0389811660248301528a169250633b4f921a9150604401600060405180830381600087803b1580156102d857600080fd5b505af11580156102ec573d6000803e3d6000fd5b5050604051630da0f6c760e41b81527e634460a4b60c2e1bf8c87bfc42b6b68fd2a71f4bb2d760816eabc5038b50366004820152602088013560248201526001600160a01b038a16925063da0f6c709150604401600060405180830381600087803b15801561035a57600080fd5b505af115801561036e573d6000803e3d6000fd5b505060408051630da0f6c760e41b81527f18ef0b57fe939edb640a200fdf533493bd8f26a274151543a109b64c857e20f360048201529088013560248201526001600160a01b038a16925063da0f6c709150604401600060405180830381600087803b1580156103dd57600080fd5b505af11580156103f1573d6000803e3d6000fd5b5050604051630da0f6c760e41b81527fe815a3c082eed7f7f7baab546f11a8718682c0eb3017b099ddc301a92f6673e36004820152606088013560248201526001600160a01b038a16925063da0f6c709150604401600060405180830381600087803b15801561046057600080fd5b505af1158015610474573d6000803e3d6000fd5b5050604051630da0f6c760e41b81527f730faccfe82f70711a34ce5202c6e1b1f79f421c16fcef745a9d92d06a7c0d4c6004820152608088013560248201526001600160a01b038a16925063da0f6c709150604401600060405180830381600087803b1580156104e357600080fd5b505af11580156104f7573d6000803e3d6000fd5b5050604051630da0f6c760e41b81527f0324de13a5a6e302ddb95a9fdf81cc736fc8acee2abe558970daac27395904e7600482015260a088013560248201526001600160a01b038a16925063da0f6c709150604401600060405180830381600087803b15801561056657600080fd5b505af115801561057a573d6000803e3d6000fd5b5050604051630da0f6c760e41b81527fb4c601c38beae7eebb719eda3438f59fcbfd4c6dd7d38c00665b6fd5b432df32600482015260c088013560248201526001600160a01b038a16925063da0f6c709150604401600060405180830381600087803b1580156105e957600080fd5b505af11580156105fd573d6000803e3d6000fd5b5050604051630da0f6c760e41b81527f9876c0f0505bfb2b1c38d3bbd25ba13159172cd0868972d76927723f5a9480fc600482015260e088013560248201526001600160a01b038a16925063da0f6c709150604401600060405180830381600087803b15801561066c57600080fd5b505af1158015610680573d6000803e3d6000fd5b5050841591506108269050576040516317ba7d8560e01b81527f37cbe06c1044f98864ea25736326bc1d488e24e5e23781ea2ad64c4069cb9e6e60048201526000906001600160a01b038916906317ba7d859060240160206040518083038186803b1580156106ee57600080fd5b505afa158015610702573d6000803e3d6000fd5b505050506040513d601f19601f8201168201806040525081019061072691906128dd565b905060005b60ff811685111561082357816001600160a01b0316635f15b1d98a88888560ff1681811061076957634e487b7160e01b600052603260045260246000fd5b905060200201602081019061077e91906128ba565b87878660ff168181106107a157634e487b7160e01b600052603260045260246000fd5b6040516001600160e01b031960e088901b1681526001600160a01b03958616600482015294909316602485015250602090910201356044820152606401600060405180830381600087803b1580156107f857600080fd5b505af115801561080c573d6000803e3d6000fd5b50505050808061081b90612d41565b91505061072b565b50505b50505050505050565b6040516317ba7d8560e01b81527fe564b2da9fb62dadceed6d94ac5884ac5f464424e7be661d7d6181d49fa87b3f60048201526001600160a01b038b16906317ba7d859060240160206040518083038186803b15801561088e57600080fd5b505afa1580156108a2573d6000803e3d6000fd5b505050506040513d601f19601f820116820180604052508101906108c691906128dd565b6001600160a01b0316336001600160a01b0316146109105760405162461bcd60e51b81526020600482015260076024820152662161636365737360c81b60448201526064016101e6565b6001600160a01b038a1663da0f6c707f71ecc01da16acc23ab0eca549b0aaa7659ae183a220304fe5072243bc984fd7960018c151514610951576000610954565b60015b6040516001600160e01b031960e085901b168152600481019290925260ff166024820152604401600060405180830381600087803b15801561099557600080fd5b505af11580156109a9573d6000803e3d6000fd5b505050508815610e1e57604051630f958b7160e41b81526001600160a01b038b169063f958b71090610a03907fe6fc898f462d48724eb27b66193f38e8f83f214469eb3145fe9431a89411e724908c908c90600401612ced565b600060405180830381600087803b158015610a1d57600080fd5b505af1158015610a31573d6000803e3d6000fd5b5050604051630da0f6c760e41b81527f84580f9d926113d2c801e908a914b652340b3d8527c171bcea8d1868e92a507c600482015260ff861660248201526001600160a01b038d16925063da0f6c709150604401600060405180830381600087803b158015610a9f57600080fd5b505af1158015610ab3573d6000803e3d6000fd5b5050604051630da0f6c760e41b81527f50c40dbbb38d5b02b04e0c6d7be02f4391fc8c14a98860284871ef1834c8390b6004820152602481018990526001600160a01b038d16925063da0f6c709150604401600060405180830381600087803b158015610b1f57600080fd5b505af1158015610b33573d6000803e3d6000fd5b5050604051631da7c90d60e11b81527f0bfac56541ded449415df8f96f54b002e55665d7fd2fafc884184e8c17f3c77260048201526001600160a01b0388811660248301528d169250633b4f921a9150604401600060405180830381600087803b158015610ba057600080fd5b505af1158015610bb4573d6000803e3d6000fd5b5050604051630da0f6c760e41b81527f93cc40268a57b3f7e5eb22a016a12d19010736289cceac5742a116fea3491b356004820152602481018790526001600160a01b038d16925063da0f6c709150604401600060405180830381600087803b158015610c2057600080fd5b505af1158015610c34573d6000803e3d6000fd5b505082159150610e1e9050576040516317ba7d8560e01b81527fcad7b0867188190920a10bf710c45443f6358175d56a759e7dc109e6d7b5d75360048201526000906001600160a01b038c16906317ba7d859060240160206040518083038186803b158015610ca257600080fd5b505afa158015610cb6573d6000803e3d6000fd5b505050506040513d601f19601f82011682018060405250810190610cda91906128dd565b6040517f22c5c2cc0000000000000000000000000000000000000000000000000000000081526001600160a01b038d81166004830152919250908216906322c5c2cc90602401600060405180830381600087803b158015610d3a57600080fd5b505af1158015610d4e573d6000803e3d6000fd5b5050505060005b60ff8116831115610e1b57816001600160a01b03166333f7bc0c8d86868560ff16818110610d9357634e487b7160e01b600052603260045260246000fd5b9050602002016020810190610da891906128ba565b6040516001600160e01b031960e085901b1681526001600160a01b03928316600482015291166024820152604401600060405180830381600087803b158015610df057600080fd5b505af1158015610e04573d6000803e3d6000fd5b505050508080610e1390612d41565b915050610d55565b50505b50505050505050505050565b6040516317ba7d8560e01b81527fe564b2da9fb62dadceed6d94ac5884ac5f464424e7be661d7d6181d49fa87b3f60048201526001600160a01b038416906317ba7d859060240160206040518083038186803b158015610e8957600080fd5b505afa158015610e9d573d6000803e3d6000fd5b505050506040513d601f19601f82011682018060405250810190610ec191906128dd565b6001600160a01b0316336001600160a01b031614610f0b5760405162461bcd60e51b81526020600482015260076024820152662161636365737360c81b60448201526064016101e6565b6001600160a01b03831663da0f6c707f69f4ffb3ebcb7809550bddd3e4d449a47e737bf6635bc7a730996643997b0e48600185151514610f4c576000610f4f565b60015b6040516001600160e01b031960e085901b168152600481019290925260ff166024820152604401600060405180830381600087803b158015610f9057600080fd5b505af1158015610fa4573d6000803e3d6000fd5b5050604051630da0f6c760e41b81527fecbde689cc6337d29a750b8b8a8abbfa97427b4ac800ab55be2f2c87311510f26004820152602481018490526001600160a01b038616925063da0f6c709150604401600060405180830381600087803b15801561101057600080fd5b505af1158015610826573d6000803e3d6000fd5b6040516317ba7d8560e01b81527fe564b2da9fb62dadceed6d94ac5884ac5f464424e7be661d7d6181d49fa87b3f60048201526001600160a01b038516906317ba7d859060240160206040518083038186803b15801561108357600080fd5b505afa158015611097573d6000803e3d6000fd5b505050506040513d601f19601f820116820180604052508101906110bb91906128dd565b6001600160a01b0316336001600160a01b0316146111055760405162461bcd60e51b81526020600482015260076024820152662161636365737360c81b60448201526064016101e6565b604051630da0f6c760e41b81527f64c49ee5084f4940c312104c41603e43791b03dad28152afd6eadb5b960a8a876004820152602481018490526001600160a01b0385169063da0f6c7090604401600060405180830381600087803b15801561116d57600080fd5b505af1158015611181573d6000803e3d6000fd5b5050604051631da7c90d60e11b81527f8987d08c67963e4cacd5e5936c122a968c66853d58299dd822c194222710983960048201526001600160a01b03848116602483015287169250633b4f921a9150604401600060405180830381600087803b1580156111ee57600080fd5b505af1158015611202573d6000803e3d6000fd5b5050604051630da0f6c760e41b81527fea659d8e1a730b10af1cecb4f8ee391adf80e75302d6aaeb9642dc8a4a5e5dbb6004820152602481018590526001600160a01b038716925063da0f6c709150604401600060405180830381600087803b15801561126e57600080fd5b505af1158015611282573d6000803e3d6000fd5b5050505050505050565b6040516317ba7d8560e01b81527fe564b2da9fb62dadceed6d94ac5884ac5f464424e7be661d7d6181d49fa87b3f60048201526001600160a01b038b16906317ba7d859060240160206040518083038186803b1580156112eb57600080fd5b505afa1580156112ff573d6000803e3d6000fd5b505050506040513d601f19601f8201168201806040525081019061132391906128dd565b6001600160a01b0316336001600160a01b03161461136d5760405162461bcd60e51b81526020600482015260076024820152662161636365737360c81b60448201526064016101e6565b6001600160a01b038a1663da0f6c707ffeddffed075d0686e697569ece0ce2fd26bfbbb18719086f36d16c7117edb55360018c1515146113ae5760006113b1565b60015b6040516001600160e01b031960e085901b168152600481019290925260ff166024820152604401600060405180830381600087803b1580156113f257600080fd5b505af1158015611406573d6000803e3d6000fd5b505050508815610e1e57604051630f958b7160e41b81526001600160a01b038b169063f958b71090611460907ffd9a8d4692ffc545577ff1979a0a918c2b536b6b6a891cf324a93b2c43907f83908c908c90600401612ced565b600060405180830381600087803b15801561147a57600080fd5b505af115801561148e573d6000803e3d6000fd5b5050604051630da0f6c760e41b81527f80140cd7e0b1d935bee578a67a41547c82987de8e7d6b3827d411b738110258b600482015260ff891660248201526001600160a01b038d16925063da0f6c709150604401600060405180830381600087803b1580156114fc57600080fd5b505af1158015611510573d6000803e3d6000fd5b50506040516317ba7d8560e01b81527f2207fd6117465cefcba0abc867150698c0464aa41a293ec29ca01b67a6350c3c6004820152600092506001600160a01b038d1691506317ba7d859060240160206040518083038186803b15801561157657600080fd5b505afa15801561158a573d6000803e3d6000fd5b505050506040513d601f19601f820116820180604052508101906115ae91906128dd565b604051630da0f6c760e41b81527f77041e0d128001928f30b976713fed530b452bc354a9bad49ad1bcf93121f9dc600482015260ff891660248201529091506001600160a01b038c169063da0f6c7090604401600060405180830381600087803b15801561161b57600080fd5b505af115801561162f573d6000803e3d6000fd5b5050604051630da0f6c760e41b81527fcab672166d6a1c8dae3ca0b03fed2e7258db17c3c3801ac2651987b066d396476004820152602481018990526001600160a01b038e16925063da0f6c709150604401600060405180830381600087803b15801561169b57600080fd5b505af11580156116af573d6000803e3d6000fd5b5050604051630da0f6c760e41b81527fcdc3057ec9c82a3ea3fd34ef56b1825924525fbab071e1a2b9d664a07f4004806004820152602481018790526001600160a01b038e16925063da0f6c709150604401600060405180830381600087803b15801561171b57600080fd5b505af115801561172f573d6000803e3d6000fd5b5050604051631da7c90d60e11b81527f0f57fc3a39a8a66c31f52eab69ced65d5ac74e4a182b215146a45a0281de53e860048201526001600160a01b0388811660248301528e169250633b4f921a9150604401600060405180830381600087803b15801561179c57600080fd5b505af11580156117b0573d6000803e3d6000fd5b50508315915061199a9050576040516317ba7d8560e01b81527f2207fd6117465cefcba0abc867150698c0464aa41a293ec29ca01b67a6350c3c60048201526000906001600160a01b038d16906317ba7d859060240160206040518083038186803b15801561181e57600080fd5b505afa158015611832573d6000803e3d6000fd5b505050506040513d601f19601f8201168201806040525081019061185691906128dd565b6040517fff8bb0d00000000000000000000000000000000000000000000000000000000081526001600160a01b038e811660048301529192509082169063ff8bb0d090602401600060405180830381600087803b1580156118b657600080fd5b505af11580156118ca573d6000803e3d6000fd5b5050505060005b60ff811684111561199757826001600160a01b031663ac7e7eba8e87878560ff1681811061190f57634e487b7160e01b600052603260045260246000fd5b905060200201602081019061192491906128ba565b6040516001600160e01b031960e085901b1681526001600160a01b03928316600482015291166024820152604401600060405180830381600087803b15801561196c57600080fd5b505af1158015611980573d6000803e3d6000fd5b50505050808061198f90612d41565b9150506118d1565b50505b5050505050505050505050565b6040516317ba7d8560e01b81527f5f0e8d109045653360289a7a02d5dc2a99e382006a42ef93f66de55ecff3176f60048201526001600160a01b038816906317ba7d859060240160206040518083038186803b158015611a0657600080fd5b505afa158015611a1a573d6000803e3d6000fd5b505050506040513d601f19601f82011682018060405250810190611a3e91906128dd565b6001600160a01b0316336001600160a01b031614611a885760405162461bcd60e51b81526020600482015260076024820152662161636365737360c81b60448201526064016101e6565b604051630da0f6c760e41b81527fee63cc82ca6990a4cc5fa3ca10d8a5281ae1758a8d8f22892c4badb7cacd111e6004820152863560248201526001600160a01b0388169063da0f6c7090604401600060405180830381600087803b158015611af057600080fd5b505af1158015611b04573d6000803e3d6000fd5b5050604051630da0f6c760e41b81527f18ccfaf5deb9f2b0bd666344fa9c46950fbcee85fbfd05c3959876dfe502c2096004820152602089013560248201526001600160a01b038a16925063da0f6c709150604401600060405180830381600087803b158015611b7357600080fd5b505af1158015611b87573d6000803e3d6000fd5b505060408051630da0f6c760e41b81527f777270e51451e60c2ce5118fc8e5844441dcc4d102e9052e60fb41312dbb848a60048201529089013560248201526001600160a01b038a16925063da0f6c709150604401600060405180830381600087803b158015611bf657600080fd5b505af1158015611c0a573d6000803e3d6000fd5b5050604051630da0f6c760e41b81527f7789eea44dccd66529026559d1b36215cb5766016b41a8a8f16e08b2ec8758376004820152606089013560248201526001600160a01b038a16925063da0f6c709150604401600060405180830381600087803b158015611c7957600080fd5b505af1158015611c8d573d6000803e3d6000fd5b5050604051630da0f6c760e41b81527ff873703084a7a9b6b81a595d5038f888fd90f4f9a530d4950a46c89eab0211886004820152608089013560248201526001600160a01b038a16925063da0f6c709150604401600060405180830381600087803b158015611cfc57600080fd5b505af1158015611d10573d6000803e3d6000fd5b5050604051630da0f6c760e41b81527f4e640b0dd9bf7618f23df95b8d516df2ff38868970d2d109c5b4b0455980659f600482015260a089013560248201526001600160a01b038a16925063da0f6c709150604401600060405180830381600087803b158015611d7f57600080fd5b505af1158015611d93573d6000803e3d6000fd5b5050506001600160a01b0388169050633b4f921a7fa23a2786abcf8c551ce7fba1966ec456144d9caa0db070879d03a4ea4fd9b2fd611dd560208901896128ba565b6040516001600160e01b031960e085901b16815260048101929092526001600160a01b03166024820152604401600060405180830381600087803b158015611e1c57600080fd5b505af1158015611e30573d6000803e3d6000fd5b5050604051630f958b7160e41b81526001600160a01b038a16925063f958b7109150611e84907f7bd63360ec775df97ced77d73875245296c41d88ebf2b52f8e630b4e9a51b4489086908690600401612ced565b600060405180830381600087803b158015611e9e57600080fd5b505af1158015611eb2573d6000803e3d6000fd5b5050604051630da0f6c760e41b81527f249486eeae30287051f65673dfa390711fd4587950c33b4150a633763f869724600482015260c089013560248201526001600160a01b038a16925063da0f6c709150604401600060405180830381600087803b158015611f2157600080fd5b505af1158015611f35573d6000803e3d6000fd5b5050604051630da0f6c760e41b81527f6839e94cab6f83f7a12a5a3d1d6f3bbcaf0185a49b20b86e6f47b8c78494ac3d600482015260e089013560248201526001600160a01b038a16925063da0f6c709150604401600060405180830381600087803b158015611fa457600080fd5b505af1158015611fb8573d6000803e3d6000fd5b5050506001600160a01b0388169050633b4f921a7f770ef80745dba2953f780c8b963701e76fd3ac982923200f9214126e80f5f032611ffd6040890160208a016128ba565b6040516001600160e01b031960e085901b16815260048101929092526001600160a01b03166024820152604401600060405180830381600087803b15801561204457600080fd5b505af1158015612058573d6000803e3d6000fd5b5050604051630da0f6c760e41b81527ff2b332c307ef460e99eb866928b78eca9f8af0da0626b4b48a13f9b52842fa6a600482015261010089013560248201526001600160a01b038a16925063da0f6c709150604401600060405180830381600087803b1580156120c857600080fd5b505af11580156120dc573d6000803e3d6000fd5b5050841591506108269050576040516317ba7d8560e01b81527f6f48e16963713446db50a1503860d8e1fc3c888da56a85afcaa6dc29503cc61060048201526000906001600160a01b038916906317ba7d859060240160206040518083038186803b15801561214a57600080fd5b505afa15801561215e573d6000803e3d6000fd5b505050506040513d601f19601f8201168201806040525081019061218291906128dd565b6040517fd6415cb60000000000000000000000000000000000000000000000000000000081526001600160a01b038a811660048301529192509082169063d6415cb690602401600060405180830381600087803b1580156121e257600080fd5b505af11580156121f6573d6000803e3d6000fd5b5050505060005b60ff811685111561082357816001600160a01b0316636f2cd5d38a88888560ff1681811061223b57634e487b7160e01b600052603260045260246000fd5b905060200201602081019061225091906128ba565b6040516001600160e01b031960e085901b1681526001600160a01b03928316600482015291166024820152604401600060405180830381600087803b15801561229857600080fd5b505af11580156122ac573d6000803e3d6000fd5b5050505080806122bb90612d41565b9150506121fd565b6040516317ba7d8560e01b81527fe564b2da9fb62dadceed6d94ac5884ac5f464424e7be661d7d6181d49fa87b3f60048201526001600160a01b038a16906317ba7d859060240160206040518083038186803b15801561232257600080fd5b505afa158015612336573d6000803e3d6000fd5b505050506040513d601f19601f8201168201806040525081019061235a91906128dd565b6001600160a01b0316336001600160a01b0316146123a45760405162461bcd60e51b81526020600482015260076024820152662161636365737360c81b60448201526064016101e6565b604051630f958b7160e41b81526001600160a01b038a169063f958b710906123f4907fed2fa238da16f9e9bea8f1aa8dc2f0d04c522f8adbda71cc4ea5c11f5a51f32d908c908c90600401612ced565b600060405180830381600087803b15801561240e57600080fd5b505af1158015612422573d6000803e3d6000fd5b5050604051630da0f6c760e41b81527ff6d5f030b79ca78dad001b87a49239ec96be97e62d13501da94c9a392700509e6004820152602481018990526001600160a01b038c16925063da0f6c709150604401600060405180830381600087803b15801561248e57600080fd5b505af11580156124a2573d6000803e3d6000fd5b5050604051631da7c90d60e11b81527f30091caaedd0994beeeeb3b7b5734296263687ae0126aaf79e5e0f8e5c1706b260048201526001600160a01b0386811660248301528c169250633b4f921a9150604401600060405180830381600087803b15801561250f57600080fd5b505af1158015612523573d6000803e3d6000fd5b5050604051630da0f6c760e41b81527fb34f156369747125f679c86d97f51861a5a2a9f927a1addd4354acbaaa88ae576004820152602481018890526001600160a01b038c16925063da0f6c709150604401600060405180830381600087803b15801561258f57600080fd5b505af11580156125a3573d6000803e3d6000fd5b5050604051630da0f6c760e41b81527f57901982635f8a470a3648422f8f769cf08dc2057489be5bf0099fcb44f7d43c6004820152602481018790526001600160a01b038c16925063da0f6c709150604401600060405180830381600087803b15801561260f57600080fd5b505af1158015612623573d6000803e3d6000fd5b5050821591506108239050576040516317ba7d8560e01b81527f7a8526bca00f0726b2fab8c3bfd5b00bfa84d07f111e48263b13de605eefcdda60048201526000906001600160a01b038b16906317ba7d859060240160206040518083038186803b15801561269157600080fd5b505afa1580156126a5573d6000803e3d6000fd5b505050506040513d601f19601f820116820180604052508101906126c991906128dd565b6040517f6e0717e50000000000000000000000000000000000000000000000000000000081526001600160a01b038c8116600483015291925090821690636e0717e590602401600060405180830381600087803b15801561272957600080fd5b505af115801561273d573d6000803e3d6000fd5b5050505060005b60ff811683111561199a57816001600160a01b031663c7aa00dd8c86868560ff1681811061278257634e487b7160e01b600052603260045260246000fd5b905060200201602081019061279791906128ba565b6040516001600160e01b031960e085901b1681526001600160a01b03928316600482015291166024820152604401600060405180830381600087803b1580156127df57600080fd5b505af11580156127f3573d6000803e3d6000fd5b50505050808061280290612d41565b915050612744565b60008083601f84011261281b578182fd5b50813567ffffffffffffffff811115612832578182fd5b6020830191508360208260051b850101111561284d57600080fd5b9250929050565b8035801515811461286457600080fd5b919050565b60008083601f84011261287a578182fd5b50813567ffffffffffffffff811115612891578182fd5b60208301915083602082850101111561284d57600080fd5b803560ff8116811461286457600080fd5b6000602082840312156128cb578081fd5b81356128d681612d6d565b9392505050565b6000602082840312156128ee578081fd5b81516128d681612d6d565b6000806000806000806000610180888a031215612914578283fd5b873561291f81612d6d565b9650602088013561292f81612d6d565b9550610140880189811115612942578384fd5b6040890195503567ffffffffffffffff8082111561295e578485fd5b61296a8b838c0161280a565b90965094506101608a0135915080821115612983578384fd5b506129908a828b0161280a565b989b979a50959850939692959293505050565b60008060008060008060006101c0888a0312156129be578283fd5b87356129c981612d6d565b96506101408801898111156129dc578384fd5b60208901965061018089018a8111156129f3578485fd5b9095503567ffffffffffffffff80821115612a0c578485fd5b612a188b838c0161280a565b90965094506101a08a0135915080821115612a31578384fd5b506129908a828b01612869565b6000806000806000806000806000806101008b8d031215612a5d578283fd5b8a35612a6881612d6d565b9950612a7660208c01612854565b985060408b013567ffffffffffffffff80821115612a92578485fd5b612a9e8e838f01612869565b909a50985060608d0135975060808d01359150612aba82612d6d565b81965060a08d01359550612ad060c08e016128a9565b945060e08d0135915080821115612ae5578384fd5b50612af28d828e0161280a565b915080935050809150509295989b9194979a5092959850565b6000806000806000806000806000806101008b8d031215612b2a578586fd5b8a35612b3581612d6d565b9950612b4360208c01612854565b985060408b013567ffffffffffffffff80821115612b5f578788fd5b612b6b8e838f01612869565b909a509850889150612b7f60608e016128a9565b975060808d0135965060a08d01359150612b9882612d6d565b90945060c08c0135935060e08c01359080821115612ae5578384fd5b600080600060608486031215612bc8578081fd5b8335612bd381612d6d565b9250612be160208501612854565b9150604084013590509250925092565b600080600080600080600080600060e08a8c031215612c0e578283fd5b8935612c1981612d6d565b985060208a013567ffffffffffffffff80821115612c35578485fd5b612c418d838e01612869565b909a50985060408c0135975060608c0135965060808c0135955060a08c01359150612c6b82612d6d565b90935060c08b01359080821115612c80578384fd5b50612c8d8c828d0161280a565b915080935050809150509295985092959850929598565b60008060008060808587031215612cb9578182fd5b8435612cc481612d6d565b935060208501359250604085013591506060850135612ce281612d6d565b939692955090935050565b83815260406020820152816040820152818360608301376000818301606090810191909152601f9092017fffffffffffffffffffffffffffffffffffffffffffffffffffffffffffffffe016010192915050565b600060ff821660ff811415612d6457634e487b7160e01b82526011600452602482fd5b60010192915050565b6001600160a01b0381168114612d8257600080fd5b5056fea264697066735822122082f2b1c74692ee54cf0619518c18f13ab22f4ba3d80988700a47924554eb646e64736f6c63430008040033",
  "linkReferences": {},
  "deployedLinkReferences": {}
}