{
  "_format": "hh-sol-artifact-1",
  "contractName": "FlexInvestmentPoolAdapterContract",
  "sourceName": "contracts/flex/adatpers/FlexFundingPoolAdapter.sol",
  "abi": [
    {
      "inputs": [],
      "name": "ExceedMaxDepositAmount",
      "type": "error"
    },
    {
      "inputs": [],
      "name": "ExceedMaxFundingAmount",
      "type": "error"
    },
    {
      "inputs": [],
      "name": "FundingProposalNotFinalize",
      "type": "error"
    },
    {
      "inputs": [],
      "name": "LessMinDepositAmount",
      "type": "error"
    },
    {
      "inputs": [],
      "name": "MaxInvestorReach",
      "type": "error"
    },
    {
      "inputs": [],
      "name": "NotInFundRaise",
      "type": "error"
    },
    {
      "anonymous": false,
      "inputs": [
        {
          "indexed": false,
          "internalType": "address",
          "name": "daoAddress",
          "type": "address"
        },
        {
          "indexed": false,
          "internalType": "bytes32",
          "name": "proposalId",
          "type": "bytes32"
        },
        {
          "indexed": false,
          "internalType": "uint256",
          "name": "amount",
          "type": "uint256"
        },
        {
          "indexed": false,
          "internalType": "address",
          "name": "account",
          "type": "address"
        }
      ],
      "name": "Deposit",
      "type": "event"
    },
    {
      "anonymous": false,
      "inputs": [
        {
          "indexed": false,
          "internalType": "address",
          "name": "daoAddress",
          "type": "address"
        },
        {
          "indexed": false,
          "internalType": "string",
          "name": "name",
          "type": "string"
        },
        {
          "indexed": false,
          "internalType": "bytes32",
          "name": "hashName",
          "type": "bytes32"
        }
      ],
      "name": "InvestorMembershipCreated",
      "type": "event"
    },
    {
      "anonymous": false,
      "inputs": [
        {
          "indexed": false,
          "internalType": "address",
          "name": "daoAddress",
          "type": "address"
        },
        {
          "indexed": false,
          "internalType": "bytes32",
          "name": "proposalId",
          "type": "bytes32"
        },
        {
          "indexed": false,
          "internalType": "uint256",
          "name": "amount",
          "type": "uint256"
        },
        {
          "indexed": false,
          "internalType": "address",
          "name": "account",
          "type": "address"
        }
      ],
      "name": "WithDraw",
      "type": "event"
    },
    {
      "inputs": [
        {
          "internalType": "contract DaoRegistry",
          "name": "dao",
          "type": "address"
        },
        {
          "internalType": "bytes32",
          "name": "proposalId",
          "type": "bytes32"
        },
        {
          "internalType": "address",
          "name": "account",
          "type": "address"
        }
      ],
      "name": "balanceOf",
      "outputs": [
        {
          "internalType": "uint160",
          "name": "",
          "type": "uint160"
        }
      ],
      "stateMutability": "view",
      "type": "function"
    },
    {
      "inputs": [
        {
          "internalType": "contract DaoRegistry",
          "name": "dao",
          "type": "address"
        },
        {
          "internalType": "string",
          "name": "name",
          "type": "string"
        }
      ],
      "name": "clearInvestorWhitelist",
      "outputs": [],
      "stateMutability": "nonpayable",
      "type": "function"
    },
    {
      "inputs": [
        {
          "internalType": "contract DaoRegistry",
          "name": "dao",
          "type": "address"
        },
        {
          "internalType": "string",
          "name": "name",
          "type": "string"
        },
        {
          "internalType": "uint8",
          "name": "varifyType",
          "type": "uint8"
        },
        {
          "internalType": "uint256",
          "name": "minHolding",
          "type": "uint256"
        },
        {
          "internalType": "address",
          "name": "tokenAddress",
          "type": "address"
        },
        {
          "internalType": "uint256",
          "name": "tokenId",
          "type": "uint256"
        }
      ],
      "name": "createInvestorMembership",
      "outputs": [],
      "stateMutability": "nonpayable",
      "type": "function"
    },
    {
      "inputs": [
        {
          "internalType": "contract DaoRegistry",
          "name": "dao",
          "type": "address"
        },
        {
          "internalType": "bytes32",
          "name": "proposalId",
          "type": "bytes32"
        },
        {
          "internalType": "uint256",
          "name": "amount",
          "type": "uint256"
        }
      ],
      "name": "deposit",
      "outputs": [],
      "stateMutability": "nonpayable",
      "type": "function"
    },
    {
      "inputs": [
        {
          "internalType": "contract DaoRegistry",
          "name": "dao",
          "type": "address"
        },
        {
          "internalType": "bytes32",
          "name": "proposalId",
          "type": "bytes32"
        }
      ],
      "name": "escorwExtraFreeInFund",
      "outputs": [],
      "stateMutability": "nonpayable",
      "type": "function"
    },
    {
      "inputs": [
        {
          "internalType": "address",
          "name": "",
          "type": "address"
        },
        {
          "internalType": "bytes32",
          "name": "",
          "type": "bytes32"
        }
      ],
      "name": "freeINPriorityDeposits",
      "outputs": [
        {
          "internalType": "uint256",
          "name": "",
          "type": "uint256"
        }
      ],
      "stateMutability": "view",
      "type": "function"
    },
    {
      "inputs": [
        {
          "internalType": "contract DaoRegistry",
          "name": "dao",
          "type": "address"
        },
        {
          "internalType": "string",
          "name": "name",
          "type": "string"
        }
      ],
      "name": "getInvestorMembershipInfo",
      "outputs": [
        {
          "internalType": "bool",
          "name": "created",
          "type": "bool"
        },
        {
          "internalType": "uint8",
          "name": "varifyType",
          "type": "uint8"
        },
        {
          "internalType": "uint256",
          "name": "minHolding",
          "type": "uint256"
        },
        {
          "internalType": "address",
          "name": "tokenAddress",
          "type": "address"
        },
        {
          "internalType": "uint256",
          "name": "tokenId",
          "type": "uint256"
        }
      ],
      "stateMutability": "view",
      "type": "function"
    },
    {
      "inputs": [
        {
          "internalType": "contract DaoRegistry",
          "name": "dao",
          "type": "address"
        },
        {
          "internalType": "string",
          "name": "name",
          "type": "string"
        }
      ],
      "name": "getParticipanWhitelist",
      "outputs": [
        {
          "internalType": "address[]",
          "name": "",
          "type": "address[]"
        }
      ],
      "stateMutability": "view",
      "type": "function"
    },
    {
      "inputs": [
        {
          "internalType": "contract DaoRegistry",
          "name": "dao",
          "type": "address"
        }
      ],
      "name": "getPriorityDepositWhitelist",
      "outputs": [
        {
          "internalType": "address[]",
          "name": "",
          "type": "address[]"
        }
      ],
      "stateMutability": "view",
      "type": "function"
    },
    {
      "inputs": [
        {
          "internalType": "contract DaoRegistry",
          "name": "dao",
          "type": "address"
        },
        {
          "internalType": "bytes32",
          "name": "proposalId",
          "type": "bytes32"
        }
      ],
      "name": "getTotalFundByProposalId",
      "outputs": [
        {
          "internalType": "uint160",
          "name": "",
          "type": "uint160"
        }
      ],
      "stateMutability": "view",
      "type": "function"
    },
    {
      "inputs": [
        {
          "internalType": "contract DaoRegistry",
          "name": "dao",
          "type": "address"
        },
        {
          "internalType": "uint256",
          "name": "timeStamp",
          "type": "uint256"
        }
      ],
      "name": "ifInRedemptionPeriod",
      "outputs": [
        {
          "internalType": "bool",
          "name": "",
          "type": "bool"
        }
      ],
      "stateMutability": "view",
      "type": "function"
    },
    {
      "inputs": [
        {
          "internalType": "address",
          "name": "",
          "type": "address"
        },
        {
          "internalType": "bytes32",
          "name": "",
          "type": "bytes32"
        }
      ],
      "name": "investorMemberShips",
      "outputs": [
        {
          "internalType": "bool",
          "name": "created",
          "type": "bool"
        },
        {
          "internalType": "uint8",
          "name": "varifyType",
          "type": "uint8"
        },
        {
          "internalType": "uint256",
          "name": "minHolding",
          "type": "uint256"
        },
        {
          "internalType": "address",
          "name": "tokenAddress",
          "type": "address"
        },
        {
          "internalType": "uint256",
          "name": "tokenId",
          "type": "uint256"
        }
      ],
      "stateMutability": "view",
      "type": "function"
    },
    {
      "inputs": [
        {
          "internalType": "contract DaoRegistry",
          "name": "dao",
          "type": "address"
        },
        {
          "internalType": "address",
          "name": "_addr",
          "type": "address"
        }
      ],
      "name": "isActiveMember",
      "outputs": [
        {
          "internalType": "bool",
          "name": "",
          "type": "bool"
        }
      ],
      "stateMutability": "view",
      "type": "function"
    },
    {
      "inputs": [
        {
          "internalType": "contract DaoRegistry",
          "name": "dao",
          "type": "address"
        },
        {
          "internalType": "string",
          "name": "name",
          "type": "string"
        },
        {
          "internalType": "address",
          "name": "account",
          "type": "address"
        }
      ],
      "name": "isInvestorWhiteList",
      "outputs": [
        {
          "internalType": "bool",
          "name": "",
          "type": "bool"
        }
      ],
      "stateMutability": "view",
      "type": "function"
    },
    {
      "inputs": [
        {
          "internalType": "contract DaoRegistry",
          "name": "dao",
          "type": "address"
        },
        {
          "internalType": "address",
          "name": "account",
          "type": "address"
        }
      ],
      "name": "isPriorityDepositWhitelist",
      "outputs": [
        {
          "internalType": "bool",
          "name": "",
          "type": "bool"
        }
      ],
      "stateMutability": "view",
      "type": "function"
    },
    {
      "inputs": [
        {
          "internalType": "contract DaoRegistry",
          "name": "dao",
          "type": "address"
        },
        {
          "internalType": "string",
          "name": "name",
          "type": "string"
        },
        {
          "internalType": "address",
          "name": "account",
          "type": "address"
        }
      ],
      "name": "registerInvestorWhiteList",
      "outputs": [],
      "stateMutability": "nonpayable",
      "type": "function"
    },
    {
      "inputs": [
        {
          "internalType": "contract DaoRegistry",
          "name": "dao",
          "type": "address"
        },
        {
          "internalType": "address",
          "name": "account",
          "type": "address"
        }
      ],
      "name": "registerPriorityDepositWhiteList",
      "outputs": [],
      "stateMutability": "nonpayable",
      "type": "function"
    },
    {
      "inputs": [
        {
          "internalType": "contract DaoRegistry",
          "name": "dao",
          "type": "address"
        },
        {
          "internalType": "bytes32",
          "name": "proposalId",
          "type": "bytes32"
        },
        {
          "internalType": "uint160",
          "name": "amount",
          "type": "uint160"
        }
      ],
      "name": "withdraw",
      "outputs": [],
      "stateMutability": "nonpayable",
      "type": "function"
    }
  ],
  "bytecode": "0x608060405234801561001057600080fd5b5061493d806100206000396000f3fe608060405234801561001057600080fd5b50600436106101365760003560e01c806375e42744116100b2578063d8b8fb6c11610081578063eb2243f811610066578063eb2243f8146102ef578063ec28eb9014610302578063f614aea31461035457600080fd5b8063d8b8fb6c14610294578063e3677932146102a757600080fd5b806375e4274414610222578063861f6752146102355780638ecf77201461026e578063aed71fde1461028157600080fd5b8063239dd22811610109578063348eddeb116100ee578063348eddeb146101d95780633a844ec0146101ec5780635d868f751461020f57600080fd5b8063239dd228146101b35780632797b3a1146101c657600080fd5b80630617b0ce1461013b5780630679347b1461016b57806307832bfd1461018b57806314a6c056146101a0575b600080fd5b61014e610149366004614358565b610367565b6040516001600160a01b0390911681526020015b60405180910390f35b61017e6101793660046143df565b610490565b60405161016291906146bd565b61019e610199366004614320565b6104f6565b005b61017e6101ae366004614304565b610550565b61019e6101c136600461436a565b610574565b61019e6101d4366004614432565b610b68565b61019e6101e7366004614498565b610d43565b6101ff6101fa366004614358565b61105e565b6040519015158152602001610162565b61019e61021d3660046143df565b6113af565b61014e61023036600461436a565b611566565b610260610243366004614081565b600360209081526000928352604080842090915290825290205481565b604051908152602001610162565b6101ff61027c366004614320565b611686565b6101ff61028f366004614320565b611703565b6101ff6102a2366004614432565b611725565b6102ba6102b53660046143df565b611776565b60408051951515865260ff9094166020860152928401919091526001600160a01b03166060830152608082015260a001610162565b61019e6102fd3660046143ab565b6117ea565b6102ba610310366004614081565b60016020818152600093845260408085209091529183529120805491810154600282015460039092015460ff80851694610100900416926001600160a01b03169085565b61019e610362366004614358565b612685565b604051632c9f4b5b60e11b81527fb12a3847d47fefceb164b75823af125f9aa82b76938df0ddf08c04cd314ba37c600482015260009081906001600160a01b0385169063593e96b69060240160206040518083038186803b1580156103cb57600080fd5b505afa1580156103df573d6000803e3d6000fd5b505050506040513d601f19601f820116820180604052508101906104039190614065565b604051636101c11b60e11b81526004810185905261babe60248201529091506001600160a01b0382169063c20382369060440160206040518083038186803b15801561044e57600080fd5b505afa158015610462573d6000803e3d6000fd5b505050506040513d601f19601f820116820180604052508101906104869190614065565b9150505b92915050565b606060006104be84846040516020016104aa9291906145e2565b604051602081830303815290604052613309565b6001600160a01b03861660009081526020818152604080832084845290915290209091506104eb90613325565b9150505b9392505050565b816105018133613332565b6001600160a01b0383166000908152600260205260409020610523908361338c565b61054b576001600160a01b038316600090815260026020526040902061054990836133ae565b505b505050565b6001600160a01b038116600090815260026020526040902060609061048a90613325565b826000610580826133c3565b604051632c9f4b5b60e11b81527fb12a3847d47fefceb164b75823af125f9aa82b76938df0ddf08c04cd314ba37c60048201529091506000906001600160a01b0387169063593e96b69060240160206040518083038186803b1580156105e557600080fd5b505afa1580156105f9573d6000803e3d6000fd5b505050506040513d601f19601f8201168201806040525081019061061d9190614065565b604051636101c11b60e11b8152600481018790523360248201529091506000906001600160a01b0383169063c20382369060440160206040518083038186803b15801561066957600080fd5b505afa15801561067d573d6000803e3d6000fd5b505050506040513d601f19601f820116820180604052508101906106a19190614065565b6001600160a01b031690506000811180156106c5575080856001600160a01b031611155b6107165760405162461bcd60e51b815260206004820152600760248201527f21616d6f756e740000000000000000000000000000000000000000000000000060448201526064015b60405180910390fd5b6040516317ba7d8560e01b81527f7a8526bca00f0726b2fab8c3bfd5b00bfa84d07f111e48263b13de605eefcdda60048201526000906001600160a01b038916906317ba7d859060240160206040518083038186803b15801561077857600080fd5b505afa15801561078c573d6000803e3d6000fd5b505050506040513d601f19601f820116820180604052508101906107b09190614065565b6040517fbf4999940000000000000000000000000000000000000000000000000000000081526001600160a01b038a81166004830152602482018a905291925060009182919084169063bf4999949060440160006040518083038186803b15801561081a57600080fd5b505afa15801561082e573d6000803e3d6000fd5b505050506040513d6000823e601f3d908101601f1916820160405261085691908101906140ac565b97505050509450505050428260400151118061089f575042826040015110801561089f5750600481600481111561089d57634e487b7160e01b600052602160045260246000fd5b145b6108eb5760405162461bcd60e51b815260206004820152600960248201527f2177697468647261770000000000000000000000000000000000000000000000604482015260640161070d565b6040517fbf4999940000000000000000000000000000000000000000000000000000000081526001600160a01b038b81166004830152602482018b90526000919085169063bf4999949060440160006040518083038186803b15801561095057600080fd5b505afa158015610964573d6000803e3d6000fd5b505050506040513d6000823e601f3d908101601f1916820160405261098c91908101906140ac565b505050505050915050856001600160a01b0316638e0cc1768b3384600001518d6040518563ffffffff1660e01b81526004016109ed94939291909384526001600160a01b039283166020850152908216604084015216606082015260800190565b600060405180830381600087803b158015610a0757600080fd5b505af1158015610a1b573d6000803e3d6000fd5b50506040517f6d3cc0400000000000000000000000000000000000000000000000000000000081526001600160a01b038e81166004830152602482018e905233604483015287169250636d3cc040915060640160206040518083038186803b158015610a8657600080fd5b505afa158015610a9a573d6000803e3d6000fd5b505050506040513d601f19601f82011682018060405250810190610abe91906142bf565b15610b01576001600160a01b038b811660009081526003602090815260408083208e845290915281208054928c1692909190610afb908490614856565b90915550505b604080516001600160a01b038d81168252602082018d90528b168183015233606082015290517fb3085ed0819e7a24ea01cc7517959d320c556f8d657f4eb66a77c92362aeccf49181900360800190a1505050505050610b61828261368e565b5050505050565b6040516317ba7d8560e01b81527fff9379b98b93eb3bd1fac62fd2258a7955d70d2d5279c40064145b6c9646df3760048201526001600160a01b038516906317ba7d859060240160206040518083038186803b158015610bc757600080fd5b505afa158015610bdb573d6000803e3d6000fd5b505050506040513d601f19601f82011682018060405250810190610bff9190614065565b6001600160a01b0316336001600160a01b03161480610c90575060405163288c314960e21b81523360048201526001600160a01b0385169063a230c5249060240160206040518083038186803b158015610c5857600080fd5b505afa158015610c6c573d6000803e3d6000fd5b505050506040513d601f19601f82011682018060405250810190610c9091906142bf565b610cc65760405162461bcd60e51b81526020600482015260076024820152662161636365737360c81b604482015260640161070d565b6000610cde84846040516020016104aa9291906145e2565b6001600160a01b0386166000908152602081815260408083208484529091529020909150610d0c908361338c565b610b61576001600160a01b0385166000908152602081815260408083208484529091529020610d3b90836133ae565b505050505050565b6040516317ba7d8560e01b81527fff9379b98b93eb3bd1fac62fd2258a7955d70d2d5279c40064145b6c9646df3760048201526001600160a01b038816906317ba7d859060240160206040518083038186803b158015610da257600080fd5b505afa158015610db6573d6000803e3d6000fd5b505050506040513d601f19601f82011682018060405250810190610dda9190614065565b6001600160a01b0316336001600160a01b03161480610e6b575060405163288c314960e21b81523360048201526001600160a01b0388169063a230c5249060240160206040518083038186803b158015610e3357600080fd5b505afa158015610e47573d6000803e3d6000fd5b505050506040513d601f19601f82011682018060405250810190610e6b91906142bf565b610ea15760405162461bcd60e51b81526020600482015260076024820152662161636365737360c81b604482015260640161070d565b6000610eb987876040516020016104aa9291906145e2565b6001600160a01b038916600090815260016020908152604080832084845282529182902054915192935060ff9091161591610ef8918a918a91016145f2565b60405160208183030381529060405290610f255760405162461bcd60e51b815260040161070d919061470a565b506040518060a001604052806001151581526020018660ff168152602001858152602001846001600160a01b0316815260200183815250600160008a6001600160a01b03166001600160a01b03168152602001908152602001600020600083815260200190815260200160002060008201518160000160006101000a81548160ff02191690831515021790555060208201518160000160016101000a81548160ff021916908360ff1602179055506040820151816001015560608201518160020160006101000a8154816001600160a01b0302191690836001600160a01b03160217905550608082015181600301559050507f0ec18ee9fb01566d567ce3fb32fbda6a7c637c612dd5fe3d60a441b196aade208888888460405161104c9493929190614675565b60405180910390a15050505050505050565b604051634941d71d60e11b81527fd99dae5492aa0c08830764a319f29225cc739a0ed8683d8fd1b5bc3a8fe31672600482015260009081906001600160a01b03851690639283ae3a9060240160206040518083038186803b1580156110c257600080fd5b505afa1580156110d6573d6000803e3d6000fd5b505050506040513d601f19601f820116820180604052508101906110fa919061455f565b604051634941d71d60e11b81527f9ce69cf04065e3c7823cc5540c0598d8a694bd7a9a5a2a786d8bccf14ed6e2ea60048201529091506000906001600160a01b03861690639283ae3a9060240160206040518083038186803b15801561115f57600080fd5b505afa158015611173573d6000803e3d6000fd5b505050506040513d601f19601f82011682018060405250810190611197919061455f565b604051634941d71d60e11b81527f6a2acfe6164f3ec20e6d80e2f4e4f7ae2b9962615c9596c872d01f6cd244aed360048201529091506000906001600160a01b03871690639283ae3a9060240160206040518083038186803b1580156111fc57600080fd5b505afa158015611210573d6000803e3d6000fd5b505050506040513d601f19601f82011682018060405250810190611234919061455f565b604051634941d71d60e11b81527f2305fa3a9f84625f75d70f539e621c658cf49e7477ab5af9cacd278ca7904e3060048201529091506000906001600160a01b03881690639283ae3a9060240160206040518083038186803b15801561129957600080fd5b505afa1580156112ad573d6000803e3d6000fd5b505050506040513d601f19601f820116820180604052508101906112d1919061455f565b905060006112df8585614856565b90508215806112ec575081155b806112f5575080155b156113085760009550505050505061048a565b600061131484836147f9565b905060008060005b83811161139d5782156113385761133387846147e1565b611342565b611342878a6147e1565b925061134e8684614856565b9150818b11801561135e5750828b105b80156113695750888b115b80156113745750878b105b1561138b576001995050505050505050505061048a565b6113966001826147e1565b905061131c565b5060009b9a5050505050505050505050565b6040516317ba7d8560e01b81527fff9379b98b93eb3bd1fac62fd2258a7955d70d2d5279c40064145b6c9646df3760048201526001600160a01b038416906317ba7d859060240160206040518083038186803b15801561140e57600080fd5b505afa158015611422573d6000803e3d6000fd5b505050506040513d601f19601f820116820180604052508101906114469190614065565b6001600160a01b0316336001600160a01b0316146114905760405162461bcd60e51b81526020600482015260076024820152662161636365737360c81b604482015260640161070d565b60006114a883836040516020016104aa9291906145e2565b6001600160a01b03851660009081526020818152604080832084845290915290209091506060906114d890613325565b80519091508015610d3b5760005b818160ff16101561155d5761154a838260ff168151811061151757634e487b7160e01b600052603260045260246000fd5b6020908102919091018101516001600160a01b038a16600090815280835260408082208983529093529190912090613699565b508061155581614899565b9150506114e6565b50505050505050565b604051632c9f4b5b60e11b81527fb12a3847d47fefceb164b75823af125f9aa82b76938df0ddf08c04cd314ba37c600482015260009081906001600160a01b0386169063593e96b69060240160206040518083038186803b1580156115ca57600080fd5b505afa1580156115de573d6000803e3d6000fd5b505050506040513d601f19601f820116820180604052508101906116029190614065565b604051636101c11b60e11b8152600481018690526001600160a01b0385811660248301529192509082169063c20382369060440160206040518083038186803b15801561164e57600080fd5b505afa158015611662573d6000803e3d6000fd5b505050506040513d601f19601f820116820180604052508101906104eb9190614065565b60405163288c314960e21b81526001600160a01b0382811660048301526000919084169063a230c5249060240160206040518083038186803b1580156116cb57600080fd5b505afa1580156116df573d6000803e3d6000fd5b505050506040513d601f19601f820116820180604052508101906104ef91906142bf565b6001600160a01b03821660009081526002602052604081206104ef908361338c565b60008061173e85856040516020016104aa9291906145e2565b6001600160a01b038716600090815260208181526040808320848452909152902090915061176c908461338c565b9695505050505050565b60008060008060008061179588886040516020016104aa9291906145e2565b6001600160a01b03998a166000908152600160208181526040808420948452939052919020805491810154600282015460039092015460ff8085169e610100909504169c919b50911698509650945050505050565b8260006117f6826133c3565b905061186e604080516101808101825260008082526020820181905291810182905290606082019081526020016000815260200160008152602001600081526020016000815260200160006001600160a01b0316815260200160006001600160a01b0316815260200160008152602001600081525090565b6040516317ba7d8560e01b81527f7a8526bca00f0726b2fab8c3bfd5b00bfa84d07f111e48263b13de605eefcdda60048201526001600160a01b038716906317ba7d859060240160206040518083038186803b1580156118cd57600080fd5b505afa1580156118e1573d6000803e3d6000fd5b505050506040513d601f19601f820116820180604052508101906119059190614065565b6001600160a01b039081168252604051632c9f4b5b60e11b81527fb12a3847d47fefceb164b75823af125f9aa82b76938df0ddf08c04cd314ba37c60048201529087169063593e96b69060240160206040518083038186803b15801561196a57600080fd5b505afa15801561197e573d6000803e3d6000fd5b505050506040513d601f19601f820116820180604052508101906119a29190614065565b6001600160a01b0390811660208301526040516317ba7d8560e01b81527fc8e81510cbc5ec7970040e233b001587da1ea4484a9f7b8710d3322429c2df236004820152908716906317ba7d859060240160206040518083038186803b158015611a0a57600080fd5b505afa158015611a1e573d6000803e3d6000fd5b505050506040513d601f19601f82011682018060405250810190611a429190614065565b6001600160a01b03908116604083810191909152602083015190517fe38a5a640000000000000000000000000000000000000000000000000000000081526004810188905291169063e38a5a649060240160006040518083038186803b158015611aab57600080fd5b505afa158015611abf573d6000803e3d6000fd5b505050506040513d6000823e601f3d908101601f19168201604052611ae7919081019061420b565b51610160820152604051634941d71d60e11b81527f69f4ffb3ebcb7809550bddd3e4d449a47e737bf6635bc7a730996643997b0e4860048201526001600160a01b03871690639283ae3a9060240160206040518083038186803b158015611b4d57600080fd5b505afa158015611b61573d6000803e3d6000fd5b505050506040513d601f19601f82011682018060405250810190611b85919061455f565b6001148015611c2f5750604051634941d71d60e11b81527fecbde689cc6337d29a750b8b8a8abbfa97427b4ac800ab55be2f2c87311510f260048201526001600160a01b03871690639283ae3a9060240160206040518083038186803b158015611bee57600080fd5b505afa158015611c02573d6000803e3d6000fd5b505050506040513d601f19601f82011682018060405250810190611c26919061455f565b81610160015110155b8015611cd5575060208101516040517f6ca0b5c8000000000000000000000000000000000000000000000000000000008152600481018790523360248201526001600160a01b0390911690636ca0b5c89060440160206040518083038186803b158015611c9b57600080fd5b505afa158015611caf573d6000803e3d6000fd5b505050506040513d601f19601f82011682018060405250810190611cd391906142bf565b155b15611d0c576040517ff435457800000000000000000000000000000000000000000000000000000000815260040160405180910390fd5b60408082015190517f1ebf58f90000000000000000000000000000000000000000000000000000000081526001600160a01b038881166004830152602482018890526000921690631ebf58f99060440160206040518083038186803b158015611d7457600080fd5b505afa158015611d88573d6000803e3d6000fd5b505050506040513d601f19601f82011682018060405250810190611dac9190614545565b90506001816004811115611dd057634e487b7160e01b600052602160045260246000fd5b14611e07576040517ffb9e169300000000000000000000000000000000000000000000000000000000815260040160405180910390fd5b60408083015190517f80dc31410000000000000000000000000000000000000000000000000000000081526001600160a01b03898116600483015260248201899052909116906380dc314190604401604080518083038186803b158015611e6d57600080fd5b505afa158015611e81573d6000803e3d6000fd5b505050506040513d601f19601f82011682018060405250810190611ea59190614577565b60a084015260808301819052421080611ec157508160a0015142115b15611ef8576040517ffb9e169300000000000000000000000000000000000000000000000000000000815260040160405180910390fd5b60008511611f485760405162461bcd60e51b815260206004820152600760248201527f21616d6f756e7400000000000000000000000000000000000000000000000000604482015260640161070d565b60408083015190517fc3a8f0030000000000000000000000000000000000000000000000000000000081526001600160a01b038981166004830152602482018990529091169063c3a8f0039060440160206040518083038186803b158015611faf57600080fd5b505afa158015611fc3573d6000803e3d6000fd5b505050506040513d601f19601f82011682018060405250810190611fe7919061452b565b8260600190600181111561200b57634e487b7160e01b600052602160045260246000fd5b9081600181111561202c57634e487b7160e01b600052602160045260246000fd5b90525060408083015190517fb39f0a790000000000000000000000000000000000000000000000000000000081526001600160a01b038981166004830152602482018990529091169063b39f0a799060440160206040518083038186803b15801561209657600080fd5b505afa1580156120aa573d6000803e3d6000fd5b505050506040513d601f19601f820116820180604052508101906120ce919061455f565b61014083015260408083015190517f6666c9bd0000000000000000000000000000000000000000000000000000000081526001600160a01b0389811660048301526024820189905290911690636666c9bd90604401604080518083038186803b15801561213a57600080fd5b505afa15801561214e573d6000803e3d6000fd5b505050506040513d601f19601f820116820180604052508101906121729190614577565b60e084015260c083018190521580159061218f57508160c0015185105b156121c6576040517f10981f1600000000000000000000000000000000000000000000000000000000815260040160405180910390fd5b60008260e001511180156121fb57508160e00151856121e6898933611566565b6001600160a01b03166121f991906147e1565b115b15612232576040517f75f4b91100000000000000000000000000000000000000000000000000000000815260040160405180910390fd5b60008260600151600181111561225857634e487b7160e01b600052602160045260246000fd5b14801561226a57506000826101400151115b156122ce5781610140015185612283898961babe611566565b6001600160a01b031661229691906147e1565b11156122ce576040517f87ea887800000000000000000000000000000000000000000000000000000000815260040160405180910390fd5b60408083015190517f0c8c9a5c0000000000000000000000000000000000000000000000000000000081526001600160a01b0389811660048301526024820189905290911690630c8c9a5c9060440160206040518083038186803b15801561233557600080fd5b505afa158015612349573d6000803e3d6000fd5b505050506040513d601f19601f8201168201806040525081019061236d9190614065565b6001600160a01b031661012083018190526040517f23b872dd000000000000000000000000000000000000000000000000000000008152336004820152306024820152604481018790526323b872dd90606401602060405180830381600087803b1580156123da57600080fd5b505af11580156123ee573d6000803e3d6000fd5b505050506040513d601f19601f8201168201806040525081019061241291906142bf565b50604051632c9f4b5b60e11b81527fb12a3847d47fefceb164b75823af125f9aa82b76938df0ddf08c04cd314ba37c60048201526124c4906001600160a01b0389169063593e96b69060240160206040518083038186803b15801561247657600080fd5b505afa15801561248a573d6000803e3d6000fd5b505050506040513d601f19601f820116820180604052508101906124ae9190614065565b6101208401516001600160a01b031690876136ae565b81516040517f6d3cc0400000000000000000000000000000000000000000000000000000000081526001600160a01b0389811660048301526024820189905233604483015290911690636d3cc0409060640160206040518083038186803b15801561252e57600080fd5b505afa158015612542573d6000803e3d6000fd5b505050506040513d601f19601f8201168201806040525081019061256691906142bf565b156125a4576001600160a01b03871660009081526003602090815260408083208984529091528120805487929061259e9084906147e1565b90915550505b60208201516040517ece27c200000000000000000000000000000000000000000000000000000000815260048101889052336024820152604481018790526001600160a01b039091169062ce27c290606401600060405180830381600087803b15801561261057600080fd5b505af1158015612624573d6000803e3d6000fd5b5050604080516001600160a01b038b168152602081018a90529081018890523360608201527fddcff2534e44ab893ab86cadbfcf556c7c257bd657d168b0bfed850311dfe4f89250608001905060405180910390a15050610b61828261368e565b6040516317ba7d8560e01b81527f7a8526bca00f0726b2fab8c3bfd5b00bfa84d07f111e48263b13de605eefcdda60048201526001600160a01b038316906317ba7d859060240160206040518083038186803b1580156126e457600080fd5b505afa1580156126f8573d6000803e3d6000fd5b505050506040513d601f19601f8201168201806040525081019061271c9190614065565b6001600160a01b0316336001600160a01b0316146127665760405162461bcd60e51b81526020600482015260076024820152662161636365737360c81b604482015260640161070d565b6040805161012081018252600080825260208201819052818301819052606082018190526080820181905260a0820181905260c0820181905260e0820181905261010082015290516317ba7d8560e01b81527fc8e81510cbc5ec7970040e233b001587da1ea4484a9f7b8710d3322429c2df2360048201526001600160a01b038416906317ba7d859060240160206040518083038186803b15801561280a57600080fd5b505afa15801561281e573d6000803e3d6000fd5b505050506040513d601f19601f820116820180604052508101906128429190614065565b6001600160a01b0390811682526040516317ba7d8560e01b81527f7a8526bca00f0726b2fab8c3bfd5b00bfa84d07f111e48263b13de605eefcdda6004820152908416906317ba7d859060240160206040518083038186803b1580156128a757600080fd5b505afa1580156128bb573d6000803e3d6000fd5b505050506040513d601f19601f820116820180604052508101906128df9190614065565b6001600160a01b03908116606083015281516040517fb39f0a7900000000000000000000000000000000000000000000000000000000815285831660048201526024810185905291169063b39f0a799060440160206040518083038186803b15801561294a57600080fd5b505afa15801561295e573d6000803e3d6000fd5b505050506040513d601f19601f82011682018060405250810190612982919061455f565b6080820152612994838361babe611566565b6001600160a01b031660a0820152600181516040517fc3a8f0030000000000000000000000000000000000000000000000000000000081526001600160a01b038681166004830152602482018690529091169063c3a8f0039060440160206040518083038186803b158015612a0857600080fd5b505afa158015612a1c573d6000803e3d6000fd5b505050506040513d601f19601f82011682018060405250810190612a40919061452b565b6001811115612a5f57634e487b7160e01b600052602160045260246000fd5b148015612a73575080608001518160a00151115b1561054b57604051632c9f4b5b60e11b81527fb12a3847d47fefceb164b75823af125f9aa82b76938df0ddf08c04cd314ba37c60048201526001600160a01b0384169063593e96b69060240160206040518083038186803b158015612ad757600080fd5b505afa158015612aeb573d6000803e3d6000fd5b505050506040513d601f19601f82011682018060405250810190612b0f9190614065565b6001600160a01b0316602082018190526040517fe38a5a64000000000000000000000000000000000000000000000000000000008152600481018490526000919063e38a5a649060240160006040518083038186803b158015612b7157600080fd5b505afa158015612b85573d6000803e3d6000fd5b505050506040513d6000823e601f3d908101601f19168201604052612bad919081019061420b565b600060e084015282516040517f0c8c9a5c0000000000000000000000000000000000000000000000000000000081526001600160a01b03878116600483015260248201879052929350911690630c8c9a5c9060440160206040518083038186803b158015612c1a57600080fd5b505afa158015612c2e573d6000803e3d6000fd5b505050506040513d601f19601f82011682018060405250810190612c529190614065565b6001600160a01b039081166101008401526040516317ba7d8560e01b81527feae11da953333a83b6467e2193334fb302549e1a42ad5797082aea1ab6be91206004820152908516906317ba7d859060240160206040518083038186803b158015612cbb57600080fd5b505afa158015612ccf573d6000803e3d6000fd5b505050506040513d601f19601f82011682018060405250810190612cf39190614065565b6001600160a01b0390811660408085019190915290851660009081526003602090815282822086835290529081205460c08401525b81518160ff161015610b615782608001518360c0015110612ef05782606001516001600160a01b0316636d3cc0408686858560ff1681518110612d7b57634e487b7160e01b600052603260045260246000fd5b60200260200101516040518463ffffffff1660e01b8152600401612dbf939291906001600160a01b0393841681526020810192909252909116604082015260600190565b60206040518083038186803b158015612dd757600080fd5b505afa158015612deb573d6000803e3d6000fd5b505050506040513d601f19601f82011682018060405250810190612e0f91906142bf565b15612eb5578260c001518360800151612e538787868660ff1681518110612e4657634e487b7160e01b600052603260045260246000fd5b6020026020010151611566565b6001600160a01b0316612e669190614819565b612e7091906147f9565b612e988686858560ff1681518110612e4657634e487b7160e01b600052603260045260246000fd5b6001600160a01b0316612eab9190614856565b60e084015261307b565b612edd8585848460ff1681518110612e4657634e487b7160e01b600052603260045260246000fd5b6001600160a01b031660e084015261307b565b82606001516001600160a01b0316636d3cc0408686858560ff1681518110612f2857634e487b7160e01b600052603260045260246000fd5b60200260200101516040518463ffffffff1660e01b8152600401612f6c939291906001600160a01b0393841681526020810192909252909116604082015260600190565b60206040518083038186803b158015612f8457600080fd5b505afa158015612f98573d6000803e3d6000fd5b505050506040513d601f19601f82011682018060405250810190612fbc91906142bf565b15612fcd57600060e084015261307b565b8260c001518360a00151612fe19190614856565b8360c001518460800151612ff59190614856565b61301d8787868660ff1681518110612e4657634e487b7160e01b600052603260045260246000fd5b6001600160a01b03166130309190614819565b61303a91906147f9565b6130628686858560ff1681518110612e4657634e487b7160e01b600052603260045260246000fd5b6001600160a01b03166130759190614856565b60e08401525b60e0830151156132f7576130c86040518060400160405280600a81526020017f657874726146756e6420000000000000000000000000000000000000000000008152508460e0015161372e565b82604001516001600160a01b031663078e209e8686866101000151868660ff168151811061310657634e487b7160e01b600052603260045260246000fd5b60200260200101518860e001516040518663ffffffff1660e01b81526004016131619594939291906001600160a01b039586168152602081019490945291841660408401529092166060820152608081019190915260a00190565b600060405180830381600087803b15801561317b57600080fd5b505af115801561318f573d6000803e3d6000fd5b5050505082602001516001600160a01b031663e21ccac185848460ff16815181106131ca57634e487b7160e01b600052603260045260246000fd5b6020026020010151886001600160a01b03166317ba7d857feae11da953333a83b6467e2193334fb302549e1a42ad5797082aea1ab6be91206040518263ffffffff1660e01b815260040161322091815260200190565b60206040518083038186803b15801561323857600080fd5b505afa15801561324c573d6000803e3d6000fd5b505050506040513d601f19601f820116820180604052508101906132709190614065565b8761010001518860e001516040518663ffffffff1660e01b81526004016132c49594939291909485526001600160a01b03938416602086015291831660408501529091166060830152608082015260a00190565b600060405180830381600087803b1580156132de57600080fd5b505af11580156132f2573d6000803e3d6000fd5b505050505b8061330181614899565b915050612d28565b600081516000141561331d57506000919050565b506020015190565b606060006104ef836137a1565b61333c8282611686565b6133885760405162461bcd60e51b815260206004820152600b60248201527f6f6e6c7953746577617264000000000000000000000000000000000000000000604482015260640161070d565b5050565b6001600160a01b038116600090815260018301602052604081205415156104ef565b60006104ef836001600160a01b0384166137fd565b6040805160808101825260008082526020820181905291810182905260608101919091525a81600001818152505043826001600160a01b031663b21634826040518163ffffffff1660e01b815260040160206040518083038186803b15801561342b57600080fd5b505afa15801561343f573d6000803e3d6000fd5b505050506040513d601f19601f82011682018060405250810190613463919061455f565b14156134b15760405162461bcd60e51b815260206004820152601060248201527f7265656e7472616e637920677561726400000000000000000000000000000000604482015260640161070d565b816001600160a01b03166310fdb0a26040518163ffffffff1660e01b8152600401600060405180830381600087803b1580156134ec57600080fd5b505af1158015613500573d6000803e3d6000fd5b50506040517f72c6838f0000000000000000000000000000000000000000000000000000000081527f1f2fd42ad6a6cacd573c4b212beb7a4e2499ad45d742a65337097f130e71daff6004820152600092506001600160a01b03851691506372c6838f9060240160206040518083038186803b15801561357f57600080fd5b505afa158015613593573d6000803e3d6000fd5b505050506040513d601f19601f820116820180604052508101906135b79190614065565b90506001600160a01b0381166135d35760006020830152613688565b6001600160a01b038181166060840181905283516040517f43a8a3f1000000000000000000000000000000000000000000000000000000008152928616600484015260248301526000918291906343a8a3f190604401604080518083038186803b15801561364057600080fd5b505afa158015613654573d6000803e3d6000fd5b505050506040513d601f19601f8201168201806040525081019061367891906142d9565b9015156020860152604085015250505b50919050565b61338882823361384c565b60006104ef836001600160a01b038416613951565b604080516001600160a01b038416602482015260448082018490528251808303909101815260649091019091526020810180517bffffffffffffffffffffffffffffffffffffffffffffffffffffffff167fa9059cbb0000000000000000000000000000000000000000000000000000000017905261054b908490613a6e565b613388828260405160240161374492919061471d565b60408051601f198184030181529190526020810180517bffffffffffffffffffffffffffffffffffffffffffffffffffffffff167fb60e72cc00000000000000000000000000000000000000000000000000000000179052613b53565b6060816000018054806020026020016040519081016040528092919081815260200182805480156137f157602002820191906000526020600020905b8154815260200190600101908083116137dd575b50505050509050919050565b60008181526001830160205260408120546138445750815460018181018455600084815260208082209093018490558454848252828601909352604090209190915561048a565b50600061048a565b8160200151156139025781606001516001600160a01b0316635e5eb01384835a86516138789190614856565b60408088015190517fffffffff0000000000000000000000000000000000000000000000000000000060e087901b1681526001600160a01b03948516600482015293909216602484015260448301526064820152608401600060405180830381600087803b1580156138e957600080fd5b505af11580156138fd573d6000803e3d6000fd5b505050505b826001600160a01b031663d4f7af436040518163ffffffff1660e01b8152600401600060405180830381600087803b15801561393d57600080fd5b505af115801561155d573d6000803e3d6000fd5b60008181526001830160205260408120548015613a64576000613975600183614856565b855490915060009061398990600190614856565b9050818114613a0a5760008660000182815481106139b757634e487b7160e01b600052603260045260246000fd5b90600052602060002001549050808760000184815481106139e857634e487b7160e01b600052603260045260246000fd5b6000918252602080832090910192909255918252600188019052604090208390555b8554869080613a2957634e487b7160e01b600052603160045260246000fd5b60019003818190600052602060002001600090559055856001016000868152602001908152602001600020600090556001935050505061048a565b600091505061048a565b6000613ac3826040518060400160405280602081526020017f5361666545524332303a206c6f772d6c6576656c2063616c6c206661696c6564815250856001600160a01b0316613b5f9092919063ffffffff16565b80519091501561054b5780806020019051810190613ae191906142bf565b61054b5760405162461bcd60e51b815260206004820152602a60248201527f5361666545524332303a204552433230206f7065726174696f6e20646964206e60448201527f6f74207375636365656400000000000000000000000000000000000000000000606482015260840161070d565b613b5c81613b76565b50565b6060613b6e8484600085613b97565b949350505050565b60006a636f6e736f6c652e6c6f679050600080835160208501845afa505050565b606082471015613c0f5760405162461bcd60e51b815260206004820152602660248201527f416464726573733a20696e73756666696369656e742062616c616e636520666f60448201527f722063616c6c0000000000000000000000000000000000000000000000000000606482015260840161070d565b6001600160a01b0385163b613c665760405162461bcd60e51b815260206004820152601d60248201527f416464726573733a2063616c6c20746f206e6f6e2d636f6e7472616374000000604482015260640161070d565b600080866001600160a01b03168587604051613c8291906145c6565b60006040518083038185875af1925050503d8060008114613cbf576040519150601f19603f3d011682016040523d82523d6000602084013e613cc4565b606091505b5091509150613cd4828286613cdf565b979650505050505050565b60608315613cee5750816104ef565b825115613cfe5782518084602001fd5b8160405162461bcd60e51b815260040161070d919061470a565b8051613d23816148e5565b919050565b80518015158114613d2357600080fd5b805160028110613d2357600080fd5b805160058110613d2357600080fd5b60008083601f840112613d67578182fd5b50813567ffffffffffffffff811115613d7e578182fd5b602083019150836020828501011115613d9657600080fd5b9250929050565b600082601f830112613dad578081fd5b815167ffffffffffffffff811115613dc757613dc76148cf565b613dda6020601f19601f840116016147b0565b818152846020838601011115613dee578283fd5b613b6e82602083016020870161486d565b60006102008284031215613e11578081fd5b604051610100810181811067ffffffffffffffff82111715613e3557613e356148cf565b604052905080613e4483613d38565b815260208301516020820152604083015160408201526060830151606082015260808301516080820152613e7a60a08401613d28565b60a0820152613e8c8460c08501613eab565b60c0820152613e9f846101608501613f1e565b60e08201525092915050565b600060a08284031215613ebc578081fd5b613ec461473f565b90508151613ed1816148fa565b8152602082015163ffffffff81168114613eea57600080fd5b60208201526040820151613efd816148e5565b80604083015250606082015160608201526080820151608082015292915050565b600060a08284031215613f2f578081fd5b613f3761473f565b9050613f4282613d28565b81526020820151613eea816148fa565b600060408284031215613f63578081fd5b6040516040810181811067ffffffffffffffff82111715613f8657613f866148cf565b604052825181526020928301519281019290925250919050565b60006101208284031215613fb2578081fd5b613fba614768565b90508151815260208201516020820152604082015160408201526060820151606082015260808201516080820152613ff460a08301613d28565b60a082015261400560c08301613d18565b60c082015260e082015167ffffffffffffffff8082111561402557600080fd5b61403185838601613d9d565b60e08401526101009150818401518181111561404c57600080fd5b61405886828701613d9d565b8385015250505092915050565b600060208284031215614076578081fd5b81516104ef816148e5565b60008060408385031215614093578081fd5b823561409e816148e5565b946020939093013593505050565b600080600080600080600080888a036104608112156140c9578485fd5b89516140d4816148e5565b9850610180601f1982018113156140e9578586fd5b6140f161478c565b91506140ff60208c01613d18565b825260408b0151602083015260608b0151604083015260808b0151606083015261412b60a08c01613d28565b608083015261413c60c08c01613d18565b60a083015260e08b015160c0830152610100808c015160e0840152610120808d0151828501526101409150818d0151818501525061016061417e818e01613d18565b8285015261418d838e01613d18565b9084015250506101a08a015190975067ffffffffffffffff8111156141b0578485fd5b6141bc8b828c01613fa0565b9650506141cd8a6101c08b01613dff565b94506141dd8a6103c08b01613f52565b9350610400890151925061042089015191506141fc6104408a01613d47565b90509295985092959890939650565b6000602080838503121561421d578182fd5b825167ffffffffffffffff80821115614234578384fd5b818501915085601f830112614247578384fd5b815181811115614259576142596148cf565b8060051b915061426a8483016147b0565b8181528481019084860184860187018a1015614284578788fd5b8795505b838610156142b2578051945061429d856148e5565b84835260019590950194918601918601614288565b5098975050505050505050565b6000602082840312156142d0578081fd5b6104ef82613d28565b600080604083850312156142eb578182fd5b6142f483613d28565b9150602083015190509250929050565b600060208284031215614315578081fd5b81356104ef816148e5565b60008060408385031215614332578182fd5b823561433d816148e5565b9150602083013561434d816148e5565b809150509250929050565b60008060408385031215614093578182fd5b60008060006060848603121561437e578081fd5b8335614389816148e5565b92506020840135915060408401356143a0816148e5565b809150509250925092565b6000806000606084860312156143bf578081fd5b83356143ca816148e5565b95602085013595506040909401359392505050565b6000806000604084860312156143f3578081fd5b83356143fe816148e5565b9250602084013567ffffffffffffffff811115614419578182fd5b61442586828701613d56565b9497909650939450505050565b60008060008060608587031215614447578182fd5b8435614452816148e5565b9350602085013567ffffffffffffffff81111561446d578283fd5b61447987828801613d56565b909450925050604085013561448d816148e5565b939692955090935050565b600080600080600080600060c0888a0312156144b2578081fd5b87356144bd816148e5565b9650602088013567ffffffffffffffff8111156144d8578182fd5b6144e48a828b01613d56565b909750955050604088013560ff811681146144fd578182fd5b9350606088013592506080880135614514816148e5565b8092505060a0880135905092959891949750929550565b60006020828403121561453c578081fd5b6104ef82613d38565b600060208284031215614556578081fd5b6104ef82613d47565b600060208284031215614570578081fd5b5051919050565b60008060408385031215614589578182fd5b505080516020909101519092909150565b600081518084526145b281602086016020860161486d565b601f01601f19169290920160200192915050565b600082516145d881846020870161486d565b9190910192915050565b8183823760009101908152919050565b7f6e616d65200000000000000000000000000000000000000000000000000000008152818360058301377f20496e766573746f72204d656d62657273686970206e616d6520616c72656164910160058101919091527f792074616b656e000000000000000000000000000000000000000000000000006025820152602c01919050565b6001600160a01b03851681526060602082015282606082015282846080830137600080608085840101526080601f19601f860116830101905082604083015295945050505050565b6020808252825182820181905260009190848201906040850190845b818110156146fe5783516001600160a01b0316835292840192918401916001016146d9565b50909695505050505050565b6020815260006104ef602083018461459a565b604081526000614730604083018561459a565b90508260208301529392505050565b60405160a0810167ffffffffffffffff81118282101715614762576147626148cf565b60405290565b604051610120810167ffffffffffffffff81118282101715614762576147626148cf565b604051610180810167ffffffffffffffff81118282101715614762576147626148cf565b604051601f8201601f1916810167ffffffffffffffff811182821017156147d9576147d96148cf565b604052919050565b600082198211156147f4576147f46148b9565b500190565b60008261481457634e487b7160e01b81526012600452602481fd5b500490565b6000817fffffffffffffffffffffffffffffffffffffffffffffffffffffffffffffffff0483118215151615614851576148516148b9565b500290565b600082821015614868576148686148b9565b500390565b60005b83811015614888578181015183820152602001614870565b838111156105495750506000910152565b600060ff821660ff8114156148b0576148b06148b9565b60010192915050565b634e487b7160e01b600052601160045260246000fd5b634e487b7160e01b600052604160045260246000fd5b6001600160a01b0381168114613b5c57600080fd5b60048110613b5c57600080fdfea2646970667358221220b062af154f6ced5823a7ecf099dd88cb2bacc7dd45b9fb154e2e609338a7ec8264736f6c63430008040033",
  "linkReferences": {},
  "deployedLinkReferences": {}
}