{
  "_format": "hh-sol-artifact-1",
  "contractName": "FlexDaoSetVotingAdapterContract",
  "sourceName": "contracts/flex/adatpers/FlexDaoSetVotingAdapter.sol",
  "abi": [
    {
      "inputs": [],
      "name": "VOTING_NOT_FINISH",
      "type": "error"
    },
    {
      "inputs": [
        {
          "internalType": "bytes32",
          "name": "proposalId",
          "type": "bytes32"
        }
      ],
      "name": "getAllocations",
      "outputs": [
        {
          "internalType": "address[]",
          "name": "",
          "type": "address[]"
        },
        {
          "internalType": "uint256[]",
          "name": "",
          "type": "uint256[]"
        }
      ],
      "stateMutability": "view",
      "type": "function"
    },
    {
      "inputs": [
        {
          "internalType": "address",
          "name": "",
          "type": "address"
        }
      ],
      "name": "ongoingVotingProposal",
      "outputs": [
        {
          "internalType": "bytes32",
          "name": "",
          "type": "bytes32"
        }
      ],
      "stateMutability": "view",
      "type": "function"
    },
    {
      "inputs": [
        {
          "internalType": "contract DaoRegistry",
          "name": "dao",
          "type": "address"
        },
        {
          "internalType": "bytes32",
          "name": "proposalId",
          "type": "bytes32"
        }
      ],
      "name": "processVotingProposal",
      "outputs": [
        {
          "internalType": "enum IFlexVoting.VotingState",
          "name": "",
          "type": "uint8"
        },
        {
          "internalType": "uint256",
          "name": "",
          "type": "uint256"
        },
        {
          "internalType": "uint256",
          "name": "",
          "type": "uint256"
        },
        {
          "internalType": "uint128",
          "name": "",
          "type": "uint128"
        }
      ],
      "stateMutability": "nonpayable",
      "type": "function"
    },
    {
      "inputs": [
        {
          "components": [
            {
              "internalType": "contract DaoRegistry",
              "name": "dao",
              "type": "address"
            },
            {
              "internalType": "uint256",
              "name": "eligibilityType",
              "type": "uint256"
            },
            {
              "internalType": "address",
              "name": "tokenAddress",
              "type": "address"
            },
            {
              "internalType": "uint256",
              "name": "tokenID",
              "type": "uint256"
            },
            {
              "internalType": "uint256",
              "name": "votingWeightedType",
              "type": "uint256"
            },
            {
              "internalType": "uint256",
              "name": "supportType",
              "type": "uint256"
            },
            {
              "internalType": "uint256",
              "name": "quorumType",
              "type": "uint256"
            },
            {
              "internalType": "uint256",
              "name": "support",
              "type": "uint256"
            },
            {
              "internalType": "uint256",
              "name": "quorum",
              "type": "uint256"
            },
            {
              "internalType": "uint256",
              "name": "votingPeriod",
              "type": "uint256"
            },
            {
              "internalType": "uint256",
              "name": "executingPeriod",
              "type": "uint256"
            },
            {
              "internalType": "address[]",
              "name": "governors",
              "type": "address[]"
            },
            {
              "internalType": "uint256[]",
              "name": "allocations",
              "type": "uint256[]"
            }
          ],
          "internalType": "struct FlexDaosetLibrary.VotingParams",
          "name": "params",
          "type": "tuple"
        }
      ],
      "name": "submitVotingProposal",
      "outputs": [
        {
          "internalType": "bytes32",
          "name": "",
          "type": "bytes32"
        }
      ],
      "stateMutability": "nonpayable",
      "type": "function"
    },
    {
      "inputs": [
        {
          "internalType": "address",
          "name": "",
          "type": "address"
        },
        {
          "internalType": "bytes32",
          "name": "",
          "type": "bytes32"
        }
      ],
      "name": "votingProposals",
      "outputs": [
        {
          "components": [
            {
              "internalType": "uint256",
              "name": "supportType",
              "type": "uint256"
            },
            {
              "internalType": "uint256",
              "name": "quorumType",
              "type": "uint256"
            },
            {
              "internalType": "uint256",
              "name": "support",
              "type": "uint256"
            },
            {
              "internalType": "uint256",
              "name": "quorum",
              "type": "uint256"
            }
          ],
          "internalType": "struct FlexDaosetLibrary.VotingSupportInfo",
          "name": "supportInfo",
          "type": "tuple"
        },
        {
          "components": [
            {
              "internalType": "uint256",
              "name": "eligibilityType",
              "type": "uint256"
            },
            {
              "internalType": "address",
              "name": "tokenAddress",
              "type": "address"
            },
            {
              "internalType": "uint256",
              "name": "tokenID",
              "type": "uint256"
            },
            {
              "internalType": "uint256",
              "name": "votingWeightedType",
              "type": "uint256"
            }
          ],
          "internalType": "struct FlexDaosetLibrary.VotingEligibilityInfo",
          "name": "eligibilityInfo",
          "type": "tuple"
        },
        {
          "components": [
            {
              "internalType": "uint256",
              "name": "votingPeriod",
              "type": "uint256"
            },
            {
              "internalType": "uint256",
              "name": "executingPeriod",
              "type": "uint256"
            },
            {
              "internalType": "uint256",
              "name": "creationTime",
              "type": "uint256"
            },
            {
              "internalType": "uint256",
              "name": "stopVoteTime",
              "type": "uint256"
            }
          ],
          "internalType": "struct FlexDaosetLibrary.VotingTimeInfo",
          "name": "timeInfo",
          "type": "tuple"
        },
        {
          "internalType": "enum FlexDaosetLibrary.ProposalState",
          "name": "state",
          "type": "uint8"
        }
      ],
      "stateMutability": "view",
      "type": "function"
    }
  ],
  "bytecode": "0x608060405234801561001057600080fd5b50612639806100206000396000f3fe608060405234801561001057600080fd5b50600436106100675760003560e01c8063a860dfdd11610050578063a860dfdd1461016b578063b6939b7f1461018e578063d3efe376146101bc57600080fd5b80631b1acf4c1461006c5780631d625e2414610096575b600080fd5b61007f61007a36600461208d565b6101cf565b60405161008d929190612251565b60405180910390f35b61015b6100a4366004611f7b565b60016020818152600093845260408085208252928452928290208251608080820185528254825292820154818601526002820154818501526003820154606080830191909152845180850186526004840154815260058401546001600160a01b0316818801526006840154818701526007840154818301528551948501865260088401548552600984015496850196909652600a83015494840194909452600b82015493830193909352600c015491929160ff1684565b60405161008d9493929190612384565b61017e6101793660046120a5565b61020b565b60405161008d9493929190612342565b6101ae61019c366004611f43565b60006020819052908152604090205481565b60405190815260200161008d565b6101ae6101ca3660046120f0565b610464565b600081815260036020526040902060609081906101eb90610a55565b600084815260026020526040902061020290610a55565b91509150915091565b600080600080856001600160a01b03166317ba7d857fe564b2da9fb62dadceed6d94ac5884ac5f464424e7be661d7d6181d49fa87b3f6040518263ffffffff1660e01b815260040161025f91815260200190565b60206040518083038186803b15801561027757600080fd5b505afa15801561028b573d6000803e3d6000fd5b505050506040513d601f19601f820116820180604052508101906102af9190611f5f565b6001600160a01b0316336001600160a01b0316146103145760405162461bcd60e51b815260206004820152600760248201527f216163636573730000000000000000000000000000000000000000000000000060448201526064015b60405180910390fd5b6001600160a01b03861660009081526001602090815260408083208884529091528120908080806103458b8b610a69565b92965090945092509050600284600581111561037157634e487b7160e01b600052602160045260246000fd5b141561039e576103828b8b87610c89565b600c850180546002919060ff19166001835b0217905550610438565b60038460058111156103c057634e487b7160e01b600052602160045260246000fd5b14806103eb575060018460058111156103e957634e487b7160e01b600052602160045260246000fd5b145b1561040657600c850180546003919060ff1916600183610394565b6040517f70fc772800000000000000000000000000000000000000000000000000000000815260040160405180910390fd5b6001600160a01b039a909a16600090815260208190526040812055919990989197509095509350505050565b60006104736020830183611f43565b6040516317ba7d8560e01b81527fe564b2da9fb62dadceed6d94ac5884ac5f464424e7be661d7d6181d49fa87b3f60048201526001600160a01b0391909116906317ba7d859060240160206040518083038186803b1580156104d457600080fd5b505afa1580156104e8573d6000803e3d6000fd5b505050506040513d601f19601f8201168201806040525081019061050c9190611f5f565b6001600160a01b0316336001600160a01b03161461056c5760405162461bcd60e51b815260206004820152600760248201527f2161636365737300000000000000000000000000000000000000000000000000604482015260640161030b565b6000808061057d6020860186611f43565b6001600160a01b03166001600160a01b0316815260200190815260200160002054146105eb5760405162461bcd60e51b815260206004820152600760248201527f217375626d697400000000000000000000000000000000000000000000000000604482015260640161030b565b6105f9610180830183612469565b905061060961016084018461241a565b9050146106585760405162461bcd60e51b815260206004820152601260248201527f21616c6c6f636174696f6e20706172616d730000000000000000000000000000604482015260640161030b565b6106656020830183611f43565b6001600160a01b0316631bc0f7876040518163ffffffff1660e01b8152600401600060405180830381600087803b15801561069f57600080fd5b505af11580156106b3573d6000803e3d6000fd5b506000925061077991506106cc90506020850185611f43565b60c01b6107546106df6020870187611f43565b6001600160a01b031663656f9f996040518163ffffffff1660e01b815260040160206040518083038186803b15801561071757600080fd5b505afa15801561072b573d6000803e3d6000fd5b505050506040513d601f19601f8201168201806040525081019061074f9190612159565b610e1f565b6040516020016107659291906121e3565b604051602081830303815290604052610f75565b9050604051806080016040528060405180608001604052808660a0013581526020018660c0013581526020018660e00135815260200186610100013581525081526020016040518060800160405280866020013581526020018660400160208101906107e59190611f43565b6001600160a01b0316815260200186606001358152602001866080013581525081526020016040518060800160405280866101200135815260200186610140013581526020014281526020018660000160208101906108449190611f43565b604051634941d71d60e11b81527f9876c0f0505bfb2b1c38d3bbd25ba13159172cd0868972d76927723f5a9480fc60048201526001600160a01b039190911690639283ae3a9060240160206040518083038186803b1580156108a557600080fd5b505afa1580156108b9573d6000803e3d6000fd5b505050506040513d601f19601f820116820180604052508101906108dd9190612159565b6108e790426124b3565b9052815260200160009052600160006109036020870187611f43565b6001600160a01b039081168252602080830193909352604091820160009081208682528452829020845180518255808501516001808401919091558185015160028401556060918201516003808501919091558787015180516004860155808801516005860180547fffffffffffffffffffffffff0000000000000000000000000000000000000000169190971617909555848601516006850155938201516007840155868501518051600885015595860151600984015593850151600a83015593840151600b82015592840151600c840180549193909260ff19909216918490811115610a0157634e487b7160e01b600052602160045260246000fd5b02179055508291506000905080610a1b6020870187611f43565b6001600160a01b0316815260208082019290925260400160002091909155610a4f90610a4990850185611f43565b82610f91565b92915050565b60606000610a62836111a7565b9392505050565b600080600080856001600160a01b03166330490e91866040518263ffffffff1660e01b8152600401610a9d91815260200190565b600060405180830381600087803b158015610ab757600080fd5b505af1158015610acb573d6000803e3d6000fd5b50506040516317ba7d8560e01b81527f0d479c38716a0298633b1dbf1ce145a3fbd1d79ca4527de172afc3bad04a2ba76004820152600092506001600160a01b03891691506317ba7d859060240160206040518083038186803b158015610b3157600080fd5b505afa158015610b45573d6000803e3d6000fd5b505050506040513d601f19601f82011682018060405250810190610b699190611f5f565b90506001600160a01b038116610bc15760405162461bcd60e51b815260206004820152600f60248201527f21766f74696e67436f6e74726163740000000000000000000000000000000000604482015260640161030b565b6040517f76225e730000000000000000000000000000000000000000000000000000000081526001600160a01b0388811660048301526024820188905260009182918291908516906376225e7390604401606060405180830381600087803b158015610c2c57600080fd5b505af1158015610c40573d6000803e3d6000fd5b505050506040513d601f19601f82011682018060405250810190610c6491906120b7565b9250925092506000610c768b8b611203565b939b929a50909850919650945050505050565b6040516317ba7d8560e01b81527fff9379b98b93eb3bd1fac62fd2258a7955d70d2d5279c40064145b6c9646df3760048201526000906001600160a01b038516906317ba7d859060240160206040518083038186803b158015610ceb57600080fd5b505afa158015610cff573d6000803e3d6000fd5b505050506040513d601f19601f82011682018060405250810190610d239190611f5f565b60058301546040805161010081018252600486015481526006860154602080830191909152600787015482840152865460608301526001870154608083015260038088015460a0840152600288015460c0840152600888015460e084015260008981529152919091209293506001600160a01b03808516936334c4928493899392169190610db090610a55565b6000898152600260205260409020610dc790610a55565b6040518663ffffffff1660e01b8152600401610de795949392919061227f565b600060405180830381600087803b158015610e0157600080fd5b505af1158015610e15573d6000803e3d6000fd5b5050505050505050565b606081610e5f57505060408051808201909152600181527f3000000000000000000000000000000000000000000000000000000000000000602082015290565b8160005b8115610e895780610e7381612526565b9150610e829050600a836124cb565b9150610e63565b60008167ffffffffffffffff811115610eb257634e487b7160e01b600052604160045260246000fd5b6040519080825280601f01601f191660200182016040528015610edc576020820181803683370190505b5090505b8415610f6d57610ef16001836124df565b9150610efe600a8661257f565b610f099060306124b3565b60f81b818381518110610f2c57634e487b7160e01b600052603260045260246000fd5b60200101907effffffffffffffffffffffffffffffffffffffffffffffffffffffffffffff1916908160001a905350610f66600a866124cb565b9450610ee0565b949350505050565b6000815160001415610f8957506000919050565b506020015190565b6040517fb73dc389000000000000000000000000000000000000000000000000000000008152600481018290526001600160a01b0383169063b73dc38990602401600060405180830381600087803b158015610fec57600080fd5b505af1158015611000573d6000803e3d6000fd5b50506040516317ba7d8560e01b81527f0d479c38716a0298633b1dbf1ce145a3fbd1d79ca4527de172afc3bad04a2ba76004820152600092506001600160a01b03851691506317ba7d859060240160206040518083038186803b15801561106657600080fd5b505afa15801561107a573d6000803e3d6000fd5b505050506040513d601f19601f8201168201806040525081019061109e9190611f5f565b604080516020810182526000815290517f2b0974d00000000000000000000000000000000000000000000000000000000081529192506001600160a01b03831691632b0974d0916110f591879187916004016122f8565b600060405180830381600087803b15801561110f57600080fd5b505af1158015611123573d6000803e3d6000fd5b50506040517f815a2bf4000000000000000000000000000000000000000000000000000000008152600481018590526001600160a01b0384811660248301528616925063815a2bf49150604401600060405180830381600087803b15801561118a57600080fd5b505af115801561119e573d6000803e3d6000fd5b50505050505050565b6060816000018054806020026020016040519081016040528092919081815260200182805480156111f757602002820191906000526020600020905b8154815260200190600101908083116111e3575b50505050509050919050565b60008061120f846114c3565b6040516317ba7d8560e01b81527f0d479c38716a0298633b1dbf1ce145a3fbd1d79ca4527de172afc3bad04a2ba7600482015290915060009081906001600160a01b038716906317ba7d859060240160206040518083038186803b15801561127657600080fd5b505afa15801561128a573d6000803e3d6000fd5b505050506040513d601f19601f820116820180604052508101906112ae9190611f5f565b905060005b83518160ff1610156114b857816001600160a01b03166324a2cceb8888878560ff16815181106112f357634e487b7160e01b600052603260045260246000fd5b60200260200101516040518463ffffffff1660e01b8152600401611337939291906001600160a01b0393841681526020810192909252909116604082015260600190565b60206040518083038186803b15801561134f57600080fd5b505afa158015611363573d6000803e3d6000fd5b505050506040513d601f19601f82011682018060405250810190611387919061206d565b1561146557816001600160a01b03166391d2fd538888878560ff16815181106113c057634e487b7160e01b600052603260045260246000fd5b60200260200101516040518463ffffffff1660e01b8152600401611404939291906001600160a01b0393841681526020810192909252909116604082015260600190565b60206040518083038186803b15801561141c57600080fd5b505afa158015611430573d6000803e3d6000fd5b505050506040513d601f19601f820116820180604052508101906114549190612129565b61145e908461247f565b92506114a6565b61149987858360ff168151811061148c57634e487b7160e01b600052603260045260246000fd5b602002602001015161153a565b6114a3908461247f565b92505b806114b08161255f565b9150506112b3565b509095945050505050565b6060816001600160a01b031663a6f636416040518163ffffffff1660e01b815260040160006040518083038186803b1580156114fe57600080fd5b505afa158015611512573d6000803e3d6000fd5b505050506040513d6000823e601f3d908101601f19168201604052610a4f9190810190611fa6565b604051634941d71d60e11b81527f5b1db2a99ea07a11cfaecd49105623ca4735b50f1788d96b1bac788d36a5bcb2600482015260009081906001600160a01b03851690639283ae3a9060240160206040518083038186803b15801561159e57600080fd5b505afa1580156115b2573d6000803e3d6000fd5b505050506040513d601f19601f820116820180604052508101906115d69190612159565b604051634941d71d60e11b81527f18ef0b57fe939edb640a200fdf533493bd8f26a274151543a109b64c857e20f360048201529091506000906001600160a01b03861690639283ae3a9060240160206040518083038186803b15801561163b57600080fd5b505afa15801561164f573d6000803e3d6000fd5b505050506040513d601f19601f820116820180604052508101906116739190612159565b6040516317ba7d8560e01b81527f37cbe06c1044f98864ea25736326bc1d488e24e5e23781ea2ad64c4069cb9e6e60048201529091506000906001600160a01b038716906317ba7d859060240160206040518083038186803b1580156116d857600080fd5b505afa1580156116ec573d6000803e3d6000fd5b505050506040513d601f19601f820116820180604052508101906117109190611f5f565b90508160011415611ab157604051634941d71d60e11b81527f0e95730315979b4709b23500dcc4c5a99efa79e8d8a378832595b7033c4f882260048201526000906001600160a01b03881690639283ae3a9060240160206040518083038186803b15801561177d57600080fd5b505afa158015611791573d6000803e3d6000fd5b505050506040513d601f19601f820116820180604052508101906117b59190612159565b6040517ffd310d290000000000000000000000000000000000000000000000000000000081527fe52ad936f38348d80ee24f7c89aa5f1eef01716e2edef2f9a86657e208816c6660048201529091506000906001600160a01b0389169063fd310d299060240160206040518083038186803b15801561183357600080fd5b505afa158015611847573d6000803e3d6000fd5b505050506040513d601f19601f8201168201806040525081019061186b9190611f5f565b9050600085611909576040516370a0823160e01b81526001600160a01b038981166004830152670de0b6b3a764000091908416906370a082319060240160206040518083038186803b1580156118c057600080fd5b505afa1580156118d4573d6000803e3d6000fd5b505050506040513d601f19601f820116820180604052508101906118f89190612159565b61190291906124cb565b9050611a48565b856001141561198c576040516370a0823160e01b81526001600160a01b0389811660048301528316906370a08231906024015b60206040518083038186803b15801561195457600080fd5b505afa158015611968573d6000803e3d6000fd5b505050506040513d601f19601f820116820180604052508101906119029190612159565b85600214156119e1576040517efdd58e0000000000000000000000000000000000000000000000000000000081526001600160a01b0389811660048301526024820185905283169062fdd58e9060440161193c565b8560031415611a39576040517fa6d945cc0000000000000000000000000000000000000000000000000000000081526001600160a01b038a81166004830152898116602483015285169063a6d945cc9060440161193c565b60009650505050505050610a4f565b60008111611a5f5760009650505050505050610a4f565b677fffffffffffffff8110611a7d5760329650505050505050610a4f565b6000611a98611a93611a8e84611e02565b611e20565b611f17565b67ffffffffffffffff169750610a4f9650505050505050565b8160021415611ac65760019350505050610a4f565b81611df657604051634941d71d60e11b81527f0e95730315979b4709b23500dcc4c5a99efa79e8d8a378832595b7033c4f882260048201526000906001600160a01b03881690639283ae3a9060240160206040518083038186803b158015611b2d57600080fd5b505afa158015611b41573d6000803e3d6000fd5b505050506040513d601f19601f82011682018060405250810190611b659190612159565b6040517ffd310d290000000000000000000000000000000000000000000000000000000081527fe52ad936f38348d80ee24f7c89aa5f1eef01716e2edef2f9a86657e208816c6660048201529091506000906001600160a01b0389169063fd310d299060240160206040518083038186803b158015611be357600080fd5b505afa158015611bf7573d6000803e3d6000fd5b505050506040513d601f19601f82011682018060405250810190611c1b9190611f5f565b9050600085611cb9576040516370a0823160e01b81526001600160a01b038981166004830152670de0b6b3a764000091908416906370a082319060240160206040518083038186803b158015611c7057600080fd5b505afa158015611c84573d6000803e3d6000fd5b505050506040513d601f19601f82011682018060405250810190611ca89190612159565b611cb291906124cb565b9050611de9565b8560011415611d3c576040516370a0823160e01b81526001600160a01b0389811660048301528316906370a08231906024015b60206040518083038186803b158015611d0457600080fd5b505afa158015611d18573d6000803e3d6000fd5b505050506040513d601f19601f82011682018060405250810190611cb29190612159565b8560021415611d91576040517efdd58e0000000000000000000000000000000000000000000000000000000081526001600160a01b0389811660048301526024820185905283169062fdd58e90604401611cec565b8560031415611a39576040517fa6d945cc0000000000000000000000000000000000000000000000000000000081526001600160a01b038a81166004830152898116602483015285169063a6d945cc90604401611cec565b9550610a4f945050505050565b60009350505050610a4f565b6000677fffffffffffffff821115611e1957600080fd5b5060401b90565b60008082600f0b13611e3157600080fd5b6000600f83900b680100000000000000008112611e50576040918201911d5b6401000000008112611e64576020918201911d5b620100008112611e76576010918201911d5b6101008112611e87576008918201911d5b60108112611e97576004918201911d5b60048112611ea7576002918201911d5b60028112611eb6576001820191505b7fffffffffffffffffffffffffffffffffffffffffffffffffffffffffffffffc0820160401b600f85900b607f8490031b6780000000000000005b60008113156114b85790800260ff81901c8281029390930192607f011c9060011d611ef1565b60008082600f0b1215611f2957600080fd5b50600f0b60401d90565b8051611f3e816125eb565b919050565b600060208284031215611f54578081fd5b8135610a62816125eb565b600060208284031215611f70578081fd5b8151610a62816125eb565b60008060408385031215611f8d578081fd5b8235611f98816125eb565b946020939093013593505050565b60006020808385031215611fb8578182fd5b825167ffffffffffffffff80821115611fcf578384fd5b818501915085601f830112611fe2578384fd5b815181811115611ff457611ff46125d5565b8060051b604051601f19603f83011681018181108582111715612019576120196125d5565b604052828152858101935084860182860187018a1015612037578788fd5b8795505b838610156120605761204c81611f33565b85526001959095019493860193860161203b565b5098975050505050505050565b60006020828403121561207e578081fd5b81518015158114610a62578182fd5b60006020828403121561209e578081fd5b5035919050565b60008060408385031215611f8d578182fd5b6000806000606084860312156120cb578081fd5b8351600681106120d9578182fd5b602085015160409095015190969495509392505050565b600060208284031215612101578081fd5b813567ffffffffffffffff811115612117578182fd5b82016101a08185031215610a62578182fd5b60006020828403121561213a578081fd5b81516fffffffffffffffffffffffffffffffff81168114610a62578182fd5b60006020828403121561216a578081fd5b5051919050565b6000815180845260208085019450808401835b838110156121a95781516001600160a01b031687529582019590820190600101612184565b509495945050505050565b6000815180845260208085019450808401835b838110156121a9578151875295820195908201906001016121c7565b7fffffffffffffffff000000000000000000000000000000000000000000000000831681527f566f74696e6720230000000000000000000000000000000000000000000000006008820152600082516122438160108501602087016124f6565b919091016010019392505050565b6040815260006122646040830185612171565b828103602084015261227681856121b4565b95945050505050565b60006101806001600160a01b03808916845260208189168186015260408501915087845b60088110156122c0578151845292820192908201906001016122a3565b50505050806101408401526122d781840186612171565b90508281036101608401526122ec81856121b4565b98975050505050505050565b6001600160a01b0384168152826020820152606060408201526000825180606084015261232c8160808501602087016124f6565b601f01601f191691909101608001949350505050565b6080810160068610612356576123566125bf565b948152602081019390935260408301919091526fffffffffffffffffffffffffffffffff1660609091015290565b8451815260208086015181830152604080870151818401526060808801518185015286516080850152868301516001600160a01b031660a08501528682015160c08501528681015160e08501528551610100850152918501516101208401528401516101408301528301516101608201526101a081016004831061240a5761240a6125bf565b8261018083015295945050505050565b6000808335601e19843603018112612430578283fd5b83018035915067ffffffffffffffff82111561244a578283fd5b6020019150600581901b360382131561246257600080fd5b9250929050565b6000808335601e19843603018112612430578182fd5b60006fffffffffffffffffffffffffffffffff8083168185168083038211156124aa576124aa612593565b01949350505050565b600082198211156124c6576124c6612593565b500190565b6000826124da576124da6125a9565b500490565b6000828210156124f1576124f1612593565b500390565b60005b838110156125115781810151838201526020016124f9565b83811115612520576000848401525b50505050565b60007fffffffffffffffffffffffffffffffffffffffffffffffffffffffffffffffff82141561255857612558612593565b5060010190565b600060ff821660ff81141561257657612576612593565b60010192915050565b60008261258e5761258e6125a9565b500690565b634e487b7160e01b600052601160045260246000fd5b634e487b7160e01b600052601260045260246000fd5b634e487b7160e01b600052602160045260246000fd5b634e487b7160e01b600052604160045260246000fd5b6001600160a01b038116811461260057600080fd5b5056fea2646970667358221220a9f4e3eb64dc9f2073b762c8689952f3e49698d2ac0b398dfa9fa00a235d614964736f6c63430008040033",
  "linkReferences": {},
  "deployedLinkReferences": {}
}