{
  "_format": "hh-sol-artifact-1",
  "contractName": "FlexPollingVotingContract",
  "sourceName": "contracts/flex/adatpers/FlexPollingVoting.sol",
  "abi": [
    {
      "anonymous": false,
      "inputs": [
        {
          "indexed": false,
          "internalType": "address",
          "name": "daoAddr",
          "type": "address"
        },
        {
          "indexed": false,
          "internalType": "bytes32",
          "name": "proposalId",
          "type": "bytes32"
        },
        {
          "indexed": false,
          "internalType": "uint256",
          "name": "votingTime",
          "type": "uint256"
        },
        {
          "indexed": false,
          "internalType": "uint256",
          "name": "voteStartTime",
          "type": "uint256"
        },
        {
          "indexed": false,
          "internalType": "uint256",
          "name": "voteStopTime",
          "type": "uint256"
        },
        {
          "indexed": false,
          "internalType": "address",
          "name": "voter",
          "type": "address"
        },
        {
          "indexed": false,
          "internalType": "uint256",
          "name": "voteValue",
          "type": "uint256"
        },
        {
          "indexed": false,
          "internalType": "uint256",
          "name": "nbYes",
          "type": "uint256"
        },
        {
          "indexed": false,
          "internalType": "uint256",
          "name": "nbNo",
          "type": "uint256"
        },
        {
          "indexed": false,
          "internalType": "uint256",
          "name": "currentQuorum",
          "type": "uint256"
        },
        {
          "indexed": false,
          "internalType": "uint256",
          "name": "currentSupportf",
          "type": "uint256"
        }
      ],
      "name": "SubmitVote",
      "type": "event"
    },
    {
      "inputs": [],
      "name": "ADAPTER_NAME",
      "outputs": [
        {
          "internalType": "string",
          "name": "",
          "type": "string"
        }
      ],
      "stateMutability": "view",
      "type": "function"
    },
    {
      "inputs": [
        {
          "internalType": "contract DaoRegistry",
          "name": "dao",
          "type": "address"
        },
        {
          "internalType": "bytes32",
          "name": "proposalId",
          "type": "bytes32"
        },
        {
          "internalType": "address",
          "name": "voterAddr",
          "type": "address"
        }
      ],
      "name": "checkIfVoted",
      "outputs": [
        {
          "internalType": "bool",
          "name": "",
          "type": "bool"
        }
      ],
      "stateMutability": "view",
      "type": "function"
    },
    {
      "inputs": [],
      "name": "getAdapterName",
      "outputs": [
        {
          "internalType": "string",
          "name": "",
          "type": "string"
        }
      ],
      "stateMutability": "pure",
      "type": "function"
    },
    {
      "inputs": [
        {
          "internalType": "contract DaoRegistry",
          "name": "",
          "type": "address"
        },
        {
          "internalType": "address",
          "name": "",
          "type": "address"
        },
        {
          "internalType": "bytes",
          "name": "",
          "type": "bytes"
        },
        {
          "internalType": "address",
          "name": "sender",
          "type": "address"
        }
      ],
      "name": "getSenderAddress",
      "outputs": [
        {
          "internalType": "address",
          "name": "",
          "type": "address"
        }
      ],
      "stateMutability": "pure",
      "type": "function"
    },
    {
      "inputs": [
        {
          "internalType": "contract DaoRegistry",
          "name": "dao",
          "type": "address"
        },
        {
          "internalType": "address",
          "name": "account",
          "type": "address"
        }
      ],
      "name": "getVotingWeight",
      "outputs": [
        {
          "internalType": "uint128",
          "name": "",
          "type": "uint128"
        }
      ],
      "stateMutability": "view",
      "type": "function"
    },
    {
      "inputs": [
        {
          "internalType": "contract DaoRegistry",
          "name": "dao",
          "type": "address"
        },
        {
          "internalType": "address",
          "name": "_addr",
          "type": "address"
        }
      ],
      "name": "isActiveMember",
      "outputs": [
        {
          "internalType": "bool",
          "name": "",
          "type": "bool"
        }
      ],
      "stateMutability": "view",
      "type": "function"
    },
    {
      "inputs": [
        {
          "internalType": "contract DaoRegistry",
          "name": "dao",
          "type": "address"
        },
        {
          "internalType": "address",
          "name": "account",
          "type": "address"
        }
      ],
      "name": "isPollsterWhiteList",
      "outputs": [
        {
          "internalType": "bool",
          "name": "",
          "type": "bool"
        }
      ],
      "stateMutability": "view",
      "type": "function"
    },
    {
      "inputs": [
        {
          "internalType": "contract DaoRegistry",
          "name": "dao",
          "type": "address"
        },
        {
          "internalType": "address",
          "name": "account",
          "type": "address"
        }
      ],
      "name": "registerPollsterWhiteList",
      "outputs": [],
      "stateMutability": "nonpayable",
      "type": "function"
    },
    {
      "inputs": [
        {
          "internalType": "contract DaoRegistry",
          "name": "dao",
          "type": "address"
        },
        {
          "internalType": "bytes32",
          "name": "proposalId",
          "type": "bytes32"
        },
        {
          "internalType": "bytes",
          "name": "",
          "type": "bytes"
        }
      ],
      "name": "startNewVotingForProposal",
      "outputs": [],
      "stateMutability": "nonpayable",
      "type": "function"
    },
    {
      "inputs": [
        {
          "internalType": "contract DaoRegistry",
          "name": "dao",
          "type": "address"
        },
        {
          "internalType": "bytes32",
          "name": "proposalId",
          "type": "bytes32"
        },
        {
          "internalType": "uint256",
          "name": "voteValue",
          "type": "uint256"
        }
      ],
      "name": "submitVote",
      "outputs": [],
      "stateMutability": "nonpayable",
      "type": "function"
    },
    {
      "inputs": [
        {
          "internalType": "contract DaoRegistry",
          "name": "dao",
          "type": "address"
        },
        {
          "internalType": "bytes32",
          "name": "proposalId",
          "type": "bytes32"
        }
      ],
      "name": "voteResult",
      "outputs": [
        {
          "internalType": "enum IFlexVoting.VotingState",
          "name": "state",
          "type": "uint8"
        },
        {
          "internalType": "uint256",
          "name": "nbYes",
          "type": "uint256"
        },
        {
          "internalType": "uint256",
          "name": "nbNo",
          "type": "uint256"
        }
      ],
      "stateMutability": "view",
      "type": "function"
    },
    {
      "inputs": [
        {
          "internalType": "address",
          "name": "",
          "type": "address"
        },
        {
          "internalType": "bytes32",
          "name": "",
          "type": "bytes32"
        }
      ],
      "name": "votes",
      "outputs": [
        {
          "internalType": "uint256",
          "name": "nbYes",
          "type": "uint256"
        },
        {
          "internalType": "uint256",
          "name": "nbNo",
          "type": "uint256"
        },
        {
          "internalType": "uint256",
          "name": "startingTime",
          "type": "uint256"
        },
        {
          "internalType": "uint256",
          "name": "stopTime",
          "type": "uint256"
        }
      ],
      "stateMutability": "view",
      "type": "function"
    }
  ],
  "bytecode": "0x608060405234801561001057600080fd5b50612e44806100206000396000f3fe608060405234801561001057600080fd5b50600436106100d45760003560e01c806376225e731161008157806387b9e9591161005b57806387b9e9591461024d5780638ecf772014610281578063966917d01461029457600080fd5b806376225e73146101dc5780637fd3cd8b146101fe57806383dd31451461023a57600080fd5b80632b0974d0116100b25780632b0974d0146101a1578063325b72f2146101b65780636df21d4d146101c957600080fd5b80631db5ade8146100d95780631f86f5b31461013c57806324a2cceb1461017e575b600080fd5b6101176100e73660046129fb565b60016020818152600093845260408085209091529183529120805491810154600282015460039092015490919084565b6040805194855260208501939093529183015260608201526080015b60405180910390f35b60408051808201909152601981527f466c6578506f6c6c696e67566f74696e67436f6e74726163740000000000000060208201525b6040516101339190612d12565b61019161018c366004612b96565b6102c1565b6040519015158152602001610133565b6101b46101af366004612bd7565b610310565b005b6101b46101c4366004612c5b565b6104d2565b6101916101d7366004612a6b565b6116e1565b6101ef6101ea366004612b84565b61170c565b60405161013393929190612cea565b6101716040518060400160405280601981526020017f466c6578506f6c6c696e67566f74696e67436f6e74726163740000000000000081525081565b6101b4610248366004612a6b565b611931565b61026061025b366004612a6b565b61198b565b6040516fffffffffffffffffffffffffffffffff9091168152602001610133565b61019161028f366004612a6b565b611997565b6102a96102a2366004612aa3565b9392505050565b6040516001600160a01b039091168152602001610133565b6001600160a01b03808416600090815260016020908152604080832086845282528083209385168352600484019091528120549091906103055760009150506102a2565b506001949350505050565b6040517f68c18beb00000000000000000000000000000000000000000000000000000000815233600482015284906001600160a01b038216906368c18beb9060240160206040518083038186803b15801561036a57600080fd5b505afa15801561037e573d6000803e3d6000fd5b505050506040513d601f19601f820116820180604052508101906103a29190612a26565b806103b157506103b181611a2d565b6104025760405162461bcd60e51b815260206004820152600b60248201527f6f6e6c794164617074657200000000000000000000000000000000000000000060448201526064015b60405180910390fd5b6001600160a01b0385166000818152600160209081526040808320888452909152908190204260028201559051634941d71d60e11b81527fee63cc82ca6990a4cc5fa3ca10d8a5281ae1758a8d8f22892c4badb7cacd111e6004820152909190639283ae3a9060240160206040518083038186803b15801561048357600080fd5b505afa158015610497573d6000803e3d6000fd5b505050506040513d601f19601f820116820180604052508101906104bb9190612cae565b6104c59042612d65565b6003909101555050505050565b604051634941d71d60e11b81527f6e9fd67c3f2ca4e2b4e4b45b33b985dc3a1bffcadea24d12440a5901f72217b5600482015283906001600160a01b03821690639283ae3a9060240160206040518083038186803b15801561053357600080fd5b505afa158015610547573d6000803e3d6000fd5b505050506040513d601f19601f8201168201806040525081019061056b9190612cae565b600114156110a057604051634941d71d60e11b81527f112aea211656a3cfbf863b85e1ea090785899c30bd783708bb07b5a9049e5c3260048201526001600160a01b03821690639283ae3a9060240160206040518083038186803b1580156105d257600080fd5b505afa1580156105e6573d6000803e3d6000fd5b505050506040513d601f19601f8201168201806040525081019061060a9190612cae565b61082957604051634941d71d60e11b81527f308a2ac7f1fce200f70e879e51cb346dfa5bc50cc3ffd14e12510d1fbaecb35260048201526001600160a01b03821690639283ae3a9060240160206040518083038186803b15801561066d57600080fd5b505afa158015610681573d6000803e3d6000fd5b505050506040513d601f19601f820116820180604052508101906106a59190612cae565b60405163fd310d2960e01b81527f31cf49cb2c53ac34ebe77513f2222803ae1f2e89c781171ca472d273e659357560048201526001600160a01b0383169063fd310d299060240160206040518083038186803b15801561070457600080fd5b505afa158015610718573d6000803e3d6000fd5b505050506040513d601f19601f8201168201806040525081019061073c91906129df565b6040516370a0823160e01b81523360048201526001600160a01b0391909116906370a082319060240160206040518083038186803b15801561077d57600080fd5b505afa158015610791573d6000803e3d6000fd5b505050506040513d601f19601f820116820180604052508101906107b59190612cae565b10156108295760405162461bcd60e51b815260206004820152602c60248201527f646f6e74206d656574206d696e20657263323020746f6b656e20686f6c64696e60448201527f67207265717569726d656e74000000000000000000000000000000000000000060648201526084016103f9565b604051634941d71d60e11b81527f112aea211656a3cfbf863b85e1ea090785899c30bd783708bb07b5a9049e5c3260048201526001600160a01b03821690639283ae3a9060240160206040518083038186803b15801561088857600080fd5b505afa15801561089c573d6000803e3d6000fd5b505050506040513d601f19601f820116820180604052508101906108c09190612cae565b60011415610ae357604051634941d71d60e11b81527f308a2ac7f1fce200f70e879e51cb346dfa5bc50cc3ffd14e12510d1fbaecb35260048201526001600160a01b03821690639283ae3a9060240160206040518083038186803b15801561092757600080fd5b505afa15801561093b573d6000803e3d6000fd5b505050506040513d601f19601f8201168201806040525081019061095f9190612cae565b60405163fd310d2960e01b81527f31cf49cb2c53ac34ebe77513f2222803ae1f2e89c781171ca472d273e659357560048201526001600160a01b0383169063fd310d299060240160206040518083038186803b1580156109be57600080fd5b505afa1580156109d2573d6000803e3d6000fd5b505050506040513d601f19601f820116820180604052508101906109f691906129df565b6040516370a0823160e01b81523360048201526001600160a01b0391909116906370a082319060240160206040518083038186803b158015610a3757600080fd5b505afa158015610a4b573d6000803e3d6000fd5b505050506040513d601f19601f82011682018060405250810190610a6f9190612cae565b1015610ae35760405162461bcd60e51b815260206004820152602d60248201527f646f6e74206d656574206d696e2065726337323120746f6b656e20686f6c646960448201527f6e67207265717569726d656e740000000000000000000000000000000000000060648201526084016103f9565b604051634941d71d60e11b81527f112aea211656a3cfbf863b85e1ea090785899c30bd783708bb07b5a9049e5c3260048201526001600160a01b03821690639283ae3a9060240160206040518083038186803b158015610b4257600080fd5b505afa158015610b56573d6000803e3d6000fd5b505050506040513d601f19601f82011682018060405250810190610b7a9190612cae565b60021415610e6457604051634941d71d60e11b81527f308a2ac7f1fce200f70e879e51cb346dfa5bc50cc3ffd14e12510d1fbaecb35260048201526001600160a01b03821690639283ae3a9060240160206040518083038186803b158015610be157600080fd5b505afa158015610bf5573d6000803e3d6000fd5b505050506040513d601f19601f82011682018060405250810190610c199190612cae565b60405163fd310d2960e01b81527f31cf49cb2c53ac34ebe77513f2222803ae1f2e89c781171ca472d273e659357560048201526001600160a01b0383169063fd310d299060240160206040518083038186803b158015610c7857600080fd5b505afa158015610c8c573d6000803e3d6000fd5b505050506040513d601f19601f82011682018060405250810190610cb091906129df565b6001600160a01b031662fdd58e33846001600160a01b0316639283ae3a7fb34f156369747125f679c86d97f51861a5a2a9f927a1addd4354acbaaa88ae576040518263ffffffff1660e01b8152600401610d0c91815260200190565b60206040518083038186803b158015610d2457600080fd5b505afa158015610d38573d6000803e3d6000fd5b505050506040513d601f19601f82011682018060405250810190610d5c9190612cae565b6040517fffffffff0000000000000000000000000000000000000000000000000000000060e085901b1681526001600160a01b039092166004830152602482015260440160206040518083038186803b158015610db857600080fd5b505afa158015610dcc573d6000803e3d6000fd5b505050506040513d601f19601f82011682018060405250810190610df09190612cae565b1015610e645760405162461bcd60e51b815260206004820152602e60248201527f646f6e74206d656574206d696e206572633131353520746f6b656e20686f6c6460448201527f696e67207265717569726d656e7400000000000000000000000000000000000060648201526084016103f9565b604051634941d71d60e11b81527f112aea211656a3cfbf863b85e1ea090785899c30bd783708bb07b5a9049e5c3260048201526001600160a01b03821690639283ae3a9060240160206040518083038186803b158015610ec357600080fd5b505afa158015610ed7573d6000803e3d6000fd5b505050506040513d601f19601f82011682018060405250810190610efb9190612cae565b600314156110a0576040517f17ba7d850000000000000000000000000000000000000000000000000000000081527f6f48e16963713446db50a1503860d8e1fc3c888da56a85afcaa6dc29503cc61060048201526000906001600160a01b038316906317ba7d859060240160206040518083038186803b158015610f7e57600080fd5b505afa158015610f92573d6000803e3d6000fd5b505050506040513d601f19601f82011682018060405250810190610fb691906129df565b6040517f6df21d4d0000000000000000000000000000000000000000000000000000000081526001600160a01b03848116600483015233602483015291925090821690636df21d4d9060440160206040518083038186803b15801561101a57600080fd5b505afa15801561102e573d6000803e3d6000fd5b505050506040513d601f19601f820116820180604052508101906110529190612a26565b61109e5760405162461bcd60e51b815260206004820152601960248201527f6e6f7420696e20706f6c6c737465722077686974656c6973740000000000000060448201526064016103f9565b505b8360006110ac82611c66565b6040517ff941f6910000000000000000000000000000000000000000000000000000000081529091506001600160a01b0387169063f941f691906110f7908890600190600401612cc6565b60206040518083038186803b15801561110f57600080fd5b505afa158015611123573d6000803e3d6000fd5b505050506040513d601f19601f820116820180604052508101906111479190612a26565b6111b95760405162461bcd60e51b815260206004820152602760248201527f7468652070726f706f73616c20686173206e6f74206265656e2073706f6e736f60448201527f726564207965740000000000000000000000000000000000000000000000000060648201526084016103f9565b6040517ff941f6910000000000000000000000000000000000000000000000000000000081526001600160a01b0387169063f941f69190611201908890600290600401612cc6565b60206040518083038186803b15801561121957600080fd5b505afa15801561122d573d6000803e3d6000fd5b505050506040513d601f19601f820116820180604052508101906112519190612a26565b156112c45760405162461bcd60e51b815260206004820152602760248201527f7468652070726f706f73616c2068617320616c7265616479206265656e20707260448201527f6f6365737365640000000000000000000000000000000000000000000000000060648201526084016103f9565b6003841080156112d45750600084115b6113465760405162461bcd60e51b815260206004820152602b60248201527f6f6e6c79207965732028312920616e64206e6f202832292061726520706f737360448201527f69626c652076616c75657300000000000000000000000000000000000000000060648201526084016103f9565b6001600160a01b0386166000908152600160209081526040808320888452909152902060028101546113e05760405162461bcd60e51b815260206004820152603260248201527f746869732070726f706f73616c496420686173206e6f20766f746520676f696e60448201527f67206f6e20617420746865206d6f6d656e74000000000000000000000000000060648201526084016103f9565b806003015442106114335760405162461bcd60e51b815260206004820152601660248201527f766f74652068617320616c726561647920656e6465640000000000000000000060448201526064016103f9565b6040517fc89bb8ba0000000000000000000000000000000000000000000000000000000081523360048201526000906001600160a01b0389169063c89bb8ba9060240160206040518083038186803b15801561148e57600080fd5b505afa1580156114a2573d6000803e3d6000fd5b505050506040513d601f19601f820116820180604052508101906114c691906129df565b6001600160a01b0381166000908152600484016020526040902054909150156115315760405162461bcd60e51b815260206004820152601860248201527f6d656d6265722068617320616c726561647920766f746564000000000000000060448201526064016103f9565b600061153d8933611f31565b6001600160a01b038316600090815260048501602052604090208890559050600187141561159657806fffffffffffffffffffffffffffffffff1683600001600082825461158b9190612d65565b909155506115cb9050565b86600214156115cb57806fffffffffffffffffffffffffffffffff168360010160008282546115c59190612d65565b90915550505b600183015483546000916115de91612d65565b90506000846000015485600101541161160757600185015485546116029190612d9d565b61160a565b60005b90507f702c2a29993fe1e5ce4c366928ffc1d53e245b20536bf8192399abb82b66c7108b8b4288600201548960030154338f8c600001548d600101548b8b6040516116c29b9a999897969594939291906000610160820190506001600160a01b03808e1683528c60208401528b60408401528a606084015289608084015280891660a0840152508660c08301528560e08301528461010083015283610120830152826101408301529c9b505050505050505050505050565b60405180910390a150505050506116d9828261268a565b505050505050565b6001600160a01b03821660009081526020819052604081206117039083612699565b90505b92915050565b6001600160a01b0382166000908152600160209081526040808320848452909152812060028101548291829161174d5760008060009350935093505061192a565b806003015442101561176a5760046000809350935093505061192a565b6001810154815460009161177d91612d65565b604051634941d71d60e11b81527f7789eea44dccd66529026559d1b36215cb5766016b41a8a8f16e08b2ec87583760048201529091506001600160a01b03881690639283ae3a9060240160206040518083038186803b1580156117df57600080fd5b505afa1580156117f3573d6000803e3d6000fd5b505050506040513d601f19601f820116820180604052508101906118179190612cae565b81116118345750805460019091015460039450909250905061192a565b600082600101548360000154101561184d57600061185e565b6001830154835461185e9190612d9d565b604051634941d71d60e11b81527f777270e51451e60c2ce5118fc8e5844441dcc4d102e9052e60fb41312dbb848a60048201529091506001600160a01b03891690639283ae3a9060240160206040518083038186803b1580156118c057600080fd5b505afa1580156118d4573d6000803e3d6000fd5b505050506040513d601f19601f820116820180604052508101906118f89190612cae565b8111611916575050805460019091015460039450909250905061192a565b505080546001909101546002945090925090505b9250925092565b8161193c81336126bb565b6001600160a01b038316600090815260208190526040902061195e9083612699565b611986576001600160a01b03831660009081526020819052604090206119849083612711565b505b505050565b60006117038383611f31565b6040517fa230c5240000000000000000000000000000000000000000000000000000000081526001600160a01b0382811660048301526000919084169063a230c5249060240160206040518083038186803b1580156119f557600080fd5b505afa158015611a09573d6000803e3d6000fd5b505050506040513d601f19601f820116820180604052508101906117039190612a26565b600080826001600160a01b031663c19d93fb6040518163ffffffff1660e01b815260040160206040518083038186803b158015611a6957600080fd5b505afa158015611a7d573d6000803e3d6000fd5b505050506040513d601f19601f82011682018060405250810190611aa19190612c8f565b6001811115611ac057634e487b7160e01b600052602160045260246000fd5b1480156117065750816001600160a01b031663c67143666040518163ffffffff1660e01b815260040160206040518083038186803b158015611b0157600080fd5b505afa158015611b15573d6000803e3d6000fd5b505050506040513d601f19601f82011682018060405250810190611b399190612cae565b1580611bd057506040517fa230c5240000000000000000000000000000000000000000000000000000000081523360048201526001600160a01b0383169063a230c5249060240160206040518083038186803b158015611b9857600080fd5b505afa158015611bac573d6000803e3d6000fd5b505050506040513d601f19601f82011682018060405250810190611bd09190612a26565b8061170657506040517f68c18beb0000000000000000000000000000000000000000000000000000000081523360048201526001600160a01b038316906368c18beb9060240160206040518083038186803b158015611c2e57600080fd5b505afa158015611c42573d6000803e3d6000fd5b505050506040513d601f19601f820116820180604052508101906117069190612a26565b6040805160808101825260008082526020820181905291810182905260608101919091525a81600001818152505043826001600160a01b031663b21634826040518163ffffffff1660e01b815260040160206040518083038186803b158015611cce57600080fd5b505afa158015611ce2573d6000803e3d6000fd5b505050506040513d601f19601f82011682018060405250810190611d069190612cae565b1415611d545760405162461bcd60e51b815260206004820152601060248201527f7265656e7472616e63792067756172640000000000000000000000000000000060448201526064016103f9565b816001600160a01b03166310fdb0a26040518163ffffffff1660e01b8152600401600060405180830381600087803b158015611d8f57600080fd5b505af1158015611da3573d6000803e3d6000fd5b50506040517f72c6838f0000000000000000000000000000000000000000000000000000000081527f1f2fd42ad6a6cacd573c4b212beb7a4e2499ad45d742a65337097f130e71daff6004820152600092506001600160a01b03851691506372c6838f9060240160206040518083038186803b158015611e2257600080fd5b505afa158015611e36573d6000803e3d6000fd5b505050506040513d601f19601f82011682018060405250810190611e5a91906129df565b90506001600160a01b038116611e765760006020830152611f2b565b6001600160a01b038181166060840181905283516040517f43a8a3f1000000000000000000000000000000000000000000000000000000008152928616600484015260248301526000918291906343a8a3f190604401604080518083038186803b158015611ee357600080fd5b505afa158015611ef7573d6000803e3d6000fd5b505050506040513d601f19601f82011682018060405250810190611f1b9190612a40565b9015156020860152604085015250505b50919050565b604051634941d71d60e11b81527fd0dad4aff06879b1b839b3b8b56f7ec287c8ccfaf9a1461575d34b45effb2ca3600482015260009081906001600160a01b03851690639283ae3a9060240160206040518083038186803b158015611f9557600080fd5b505afa158015611fa9573d6000803e3d6000fd5b505050506040513d601f19601f82011682018060405250810190611fcd9190612cae565b604051634941d71d60e11b81527f18ccfaf5deb9f2b0bd666344fa9c46950fbcee85fbfd05c3959876dfe502c20960048201529091506000906001600160a01b03861690639283ae3a9060240160206040518083038186803b15801561203257600080fd5b505afa158015612046573d6000803e3d6000fd5b505050506040513d601f19601f8201168201806040525081019061206a9190612cae565b905080600114156123ad57604051634941d71d60e11b81527f656f80c3ee5e8b049b7028f53c3d8f66f585b411116738cd6604ce8e8deb3a9260048201526000906001600160a01b03871690639283ae3a9060240160206040518083038186803b1580156120d757600080fd5b505afa1580156120eb573d6000803e3d6000fd5b505050506040513d601f19601f8201168201806040525081019061210f9190612cae565b60405163fd310d2960e01b81527ff60c24a553194691fd513f91f28ce90d85b87ab669703faa0b848c72a41c692360048201529091506000906001600160a01b0388169063fd310d299060240160206040518083038186803b15801561217457600080fd5b505afa158015612188573d6000803e3d6000fd5b505050506040513d601f19601f820116820180604052508101906121ac91906129df565b905060008461224a576040516370a0823160e01b81526001600160a01b038881166004830152670de0b6b3a764000091908416906370a082319060240160206040518083038186803b15801561220157600080fd5b505afa158015612215573d6000803e3d6000fd5b505050506040513d601f19601f820116820180604052508101906122399190612cae565b6122439190612d7d565b9050612347565b84600114156122cd576040516370a0823160e01b81526001600160a01b0388811660048301528316906370a08231906024015b60206040518083038186803b15801561229557600080fd5b505afa1580156122a9573d6000803e3d6000fd5b505050506040513d601f19601f820116820180604052508101906122439190612cae565b8460021415612322576040517efdd58e0000000000000000000000000000000000000000000000000000000081526001600160a01b0388811660048301526024820185905283169062fdd58e9060440161227d565b846003141561233957600195505050505050611706565b600095505050505050611706565b6000811161235d57600095505050505050611706565b677fffffffffffffff811061237a57603295505050505050611706565b600061239561239061238b84612726565b612744565b612846565b67ffffffffffffffff16965061170695505050505050565b80600214156123c157600192505050611706565b8061267f57604051634941d71d60e11b81527f656f80c3ee5e8b049b7028f53c3d8f66f585b411116738cd6604ce8e8deb3a9260048201526000906001600160a01b03871690639283ae3a9060240160206040518083038186803b15801561242857600080fd5b505afa15801561243c573d6000803e3d6000fd5b505050506040513d601f19601f820116820180604052508101906124609190612cae565b60405163fd310d2960e01b81527ff60c24a553194691fd513f91f28ce90d85b87ab669703faa0b848c72a41c692360048201529091506000906001600160a01b0388169063fd310d299060240160206040518083038186803b1580156124c557600080fd5b505afa1580156124d9573d6000803e3d6000fd5b505050506040513d601f19601f820116820180604052508101906124fd91906129df565b905060008461259b576040516370a0823160e01b81526001600160a01b038881166004830152670de0b6b3a764000091908416906370a082319060240160206040518083038186803b15801561255257600080fd5b505afa158015612566573d6000803e3d6000fd5b505050506040513d601f19601f8201168201806040525081019061258a9190612cae565b6125949190612d7d565b9050612673565b846001141561261e576040516370a0823160e01b81526001600160a01b0388811660048301528316906370a08231906024015b60206040518083038186803b1580156125e657600080fd5b505afa1580156125fa573d6000803e3d6000fd5b505050506040513d601f19601f820116820180604052508101906125949190612cae565b8460021415612322576040517efdd58e0000000000000000000000000000000000000000000000000000000081526001600160a01b0388811660048301526024820185905283169062fdd58e906044016125ce565b94506117069350505050565b600092505050611706565b612695828233612862565b5050565b6001600160a01b03811660009081526001830160205260408120541515611703565b6126c58282611997565b6126955760405162461bcd60e51b815260206004820152600b60248201527f6f6e6c795374657761726400000000000000000000000000000000000000000060448201526064016103f9565b6000611703836001600160a01b038416612970565b6000677fffffffffffffff82111561273d57600080fd5b5060401b90565b60008082600f0b1361275557600080fd5b6000600f83900b680100000000000000008112612774576040918201911d5b6401000000008112612788576020918201911d5b62010000811261279a576010918201911d5b61010081126127ab576008918201911d5b601081126127bb576004918201911d5b600481126127cb576002918201911d5b600281126127da576001820191505b7fffffffffffffffffffffffffffffffffffffffffffffffffffffffffffffffc0820160401b600f85900b607f8490031b6780000000000000005b600081131561283b5790800260ff81901c8281029390930192607f011c9060011d612815565b509095945050505050565b60008082600f0b121561285857600080fd5b50600f0b60401d90565b8160200151156129185781606001516001600160a01b0316635e5eb01384835a865161288e9190612d9d565b60408088015190517fffffffff0000000000000000000000000000000000000000000000000000000060e087901b1681526001600160a01b03948516600482015293909216602484015260448301526064820152608401600060405180830381600087803b1580156128ff57600080fd5b505af1158015612913573d6000803e3d6000fd5b505050505b826001600160a01b031663d4f7af436040518163ffffffff1660e01b8152600401600060405180830381600087803b15801561295357600080fd5b505af1158015612967573d6000803e3d6000fd5b50505050505050565b60008181526001830160205260408120546129b757508154600181810184556000848152602080822090930184905584548482528286019093526040902091909155611706565b506000611706565b80356129ca81612df6565b919050565b805180151581146129ca57600080fd5b6000602082840312156129f0578081fd5b81516102a281612df6565b60008060408385031215612a0d578081fd5b8235612a1881612df6565b946020939093013593505050565b600060208284031215612a37578081fd5b611703826129cf565b60008060408385031215612a52578182fd5b612a5b836129cf565b9150602083015190509250929050565b60008060408385031215612a7d578182fd5b8235612a8881612df6565b91506020830135612a9881612df6565b809150509250929050565b60008060008060808587031215612ab8578182fd5b8435612ac381612df6565b93506020850135612ad381612df6565b9250604085013567ffffffffffffffff80821115612aef578384fd5b818701915087601f830112612b02578384fd5b813581811115612b1457612b14612de0565b604051601f8201601f19908116603f01168101908382118183101715612b3c57612b3c612de0565b816040528281528a6020848701011115612b54578687fd5b82602086016020830137918201602001959095529350612b79915050606086016129bf565b905092959194509250565b60008060408385031215612a0d578182fd5b600080600060608486031215612baa578283fd5b8335612bb581612df6565b9250602084013591506040840135612bcc81612df6565b809150509250925092565b60008060008060608587031215612bec578384fd5b8435612bf781612df6565b935060208501359250604085013567ffffffffffffffff80821115612c1a578384fd5b818701915087601f830112612c2d578384fd5b813581811115612c3b578485fd5b886020828501011115612c4c578485fd5b95989497505060200194505050565b600080600060608486031215612c6f578283fd5b8335612c7a81612df6565b95602085013595506040909401359392505050565b600060208284031215612ca0578081fd5b8151600281106102a2578182fd5b600060208284031215612cbf578081fd5b5051919050565b8281526040810160038310612cdd57612cdd612dca565b8260208301529392505050565b6060810160068510612cfe57612cfe612dca565b938152602081019290925260409091015290565b6000602080835283518082850152825b81811015612d3e57858101830151858201604001528201612d22565b81811115612d4f5783604083870101525b50601f01601f1916929092016040019392505050565b60008219821115612d7857612d78612db4565b500190565b600082612d9857634e487b7160e01b81526012600452602481fd5b500490565b600082821015612daf57612daf612db4565b500390565b634e487b7160e01b600052601160045260246000fd5b634e487b7160e01b600052602160045260246000fd5b634e487b7160e01b600052604160045260246000fd5b6001600160a01b0381168114612e0b57600080fd5b5056fea2646970667358221220efe96f186e4a8417572cc27b4ac9973d36d2a04879f418f3431ddffc60db561d64736f6c63430008040033",
  "linkReferences": {},
  "deployedLinkReferences": {}
}