{
  "_format": "hh-sol-artifact-1",
  "contractName": "FlexFundingPoolAdapterContract",
  "sourceName": "contracts/flex/adatpers/FlexFundingPoolAdapter.sol",
  "abi": [
    {
      "inputs": [],
      "name": "ExceedMaxDepositAmount",
      "type": "error"
    },
    {
      "inputs": [],
      "name": "ExceedMaxFundingAmount",
      "type": "error"
    },
    {
      "inputs": [],
      "name": "FundingProposalNotFinalize",
      "type": "error"
    },
    {
      "inputs": [],
      "name": "LessMinDepositAmount",
      "type": "error"
    },
    {
      "inputs": [],
      "name": "MaxParticipantReach",
      "type": "error"
    },
    {
      "inputs": [],
      "name": "NotInFundRaise",
      "type": "error"
    },
    {
      "anonymous": false,
      "inputs": [
        {
          "indexed": false,
          "internalType": "address",
          "name": "daoAddress",
          "type": "address"
        },
        {
          "indexed": false,
          "internalType": "bytes32",
          "name": "proposalId",
          "type": "bytes32"
        },
        {
          "indexed": false,
          "internalType": "uint256",
          "name": "amount",
          "type": "uint256"
        },
        {
          "indexed": false,
          "internalType": "address",
          "name": "account",
          "type": "address"
        }
      ],
      "name": "Deposit",
      "type": "event"
    },
    {
      "anonymous": false,
      "inputs": [
        {
          "indexed": false,
          "internalType": "address",
          "name": "daoAddress",
          "type": "address"
        },
        {
          "indexed": false,
          "internalType": "bytes32",
          "name": "proposalId",
          "type": "bytes32"
        },
        {
          "indexed": false,
          "internalType": "uint256",
          "name": "amount",
          "type": "uint256"
        },
        {
          "indexed": false,
          "internalType": "address",
          "name": "account",
          "type": "address"
        }
      ],
      "name": "WithDraw",
      "type": "event"
    },
    {
      "inputs": [
        {
          "internalType": "contract DaoRegistry",
          "name": "dao",
          "type": "address"
        },
        {
          "internalType": "bytes32",
          "name": "proposalId",
          "type": "bytes32"
        },
        {
          "internalType": "address",
          "name": "account",
          "type": "address"
        }
      ],
      "name": "balanceOf",
      "outputs": [
        {
          "internalType": "uint160",
          "name": "",
          "type": "uint160"
        }
      ],
      "stateMutability": "view",
      "type": "function"
    },
    {
      "inputs": [
        {
          "internalType": "contract DaoRegistry",
          "name": "dao",
          "type": "address"
        },
        {
          "internalType": "string",
          "name": "name",
          "type": "string"
        },
        {
          "internalType": "uint8",
          "name": "varifyType",
          "type": "uint8"
        },
        {
          "internalType": "uint256",
          "name": "minHolding",
          "type": "uint256"
        },
        {
          "internalType": "address",
          "name": "tokenAddress",
          "type": "address"
        },
        {
          "internalType": "uint256",
          "name": "tokenId",
          "type": "uint256"
        }
      ],
      "name": "createParticipantMembership",
      "outputs": [],
      "stateMutability": "nonpayable",
      "type": "function"
    },
    {
      "inputs": [
        {
          "internalType": "contract DaoRegistry",
          "name": "dao",
          "type": "address"
        },
        {
          "internalType": "bytes32",
          "name": "proposalId",
          "type": "bytes32"
        },
        {
          "internalType": "uint256",
          "name": "amount",
          "type": "uint256"
        }
      ],
      "name": "deposit",
      "outputs": [],
      "stateMutability": "nonpayable",
      "type": "function"
    },
    {
      "inputs": [
        {
          "internalType": "contract DaoRegistry",
          "name": "dao",
          "type": "address"
        },
        {
          "internalType": "string",
          "name": "name",
          "type": "string"
        }
      ],
      "name": "getParticipanWhitelist",
      "outputs": [
        {
          "internalType": "address[]",
          "name": "",
          "type": "address[]"
        }
      ],
      "stateMutability": "view",
      "type": "function"
    },
    {
      "inputs": [
        {
          "internalType": "contract DaoRegistry",
          "name": "dao",
          "type": "address"
        },
        {
          "internalType": "string",
          "name": "name",
          "type": "string"
        }
      ],
      "name": "getParticipantMembershipInfo",
      "outputs": [
        {
          "internalType": "bool",
          "name": "created",
          "type": "bool"
        },
        {
          "internalType": "uint8",
          "name": "varifyType",
          "type": "uint8"
        },
        {
          "internalType": "uint256",
          "name": "minHolding",
          "type": "uint256"
        },
        {
          "internalType": "address",
          "name": "tokenAddress",
          "type": "address"
        },
        {
          "internalType": "uint256",
          "name": "tokenId",
          "type": "uint256"
        }
      ],
      "stateMutability": "view",
      "type": "function"
    },
    {
      "inputs": [
        {
          "internalType": "contract DaoRegistry",
          "name": "dao",
          "type": "address"
        }
      ],
      "name": "getPriorityDepositWhitelist",
      "outputs": [
        {
          "internalType": "address[]",
          "name": "",
          "type": "address[]"
        }
      ],
      "stateMutability": "view",
      "type": "function"
    },
    {
      "inputs": [
        {
          "internalType": "contract DaoRegistry",
          "name": "dao",
          "type": "address"
        },
        {
          "internalType": "bytes32",
          "name": "proposalId",
          "type": "bytes32"
        }
      ],
      "name": "getTotalFundByProposalId",
      "outputs": [
        {
          "internalType": "uint160",
          "name": "",
          "type": "uint160"
        }
      ],
      "stateMutability": "view",
      "type": "function"
    },
    {
      "inputs": [
        {
          "internalType": "contract DaoRegistry",
          "name": "dao",
          "type": "address"
        },
        {
          "internalType": "uint256",
          "name": "timeStamp",
          "type": "uint256"
        }
      ],
      "name": "ifInRedemptionPeriod",
      "outputs": [
        {
          "internalType": "bool",
          "name": "",
          "type": "bool"
        }
      ],
      "stateMutability": "view",
      "type": "function"
    },
    {
      "inputs": [
        {
          "internalType": "contract DaoRegistry",
          "name": "dao",
          "type": "address"
        },
        {
          "internalType": "address",
          "name": "_addr",
          "type": "address"
        }
      ],
      "name": "isActiveMember",
      "outputs": [
        {
          "internalType": "bool",
          "name": "",
          "type": "bool"
        }
      ],
      "stateMutability": "view",
      "type": "function"
    },
    {
      "inputs": [
        {
          "internalType": "contract DaoRegistry",
          "name": "dao",
          "type": "address"
        },
        {
          "internalType": "string",
          "name": "name",
          "type": "string"
        },
        {
          "internalType": "address",
          "name": "account",
          "type": "address"
        }
      ],
      "name": "isParticipantWhiteList",
      "outputs": [
        {
          "internalType": "bool",
          "name": "",
          "type": "bool"
        }
      ],
      "stateMutability": "view",
      "type": "function"
    },
    {
      "inputs": [
        {
          "internalType": "contract DaoRegistry",
          "name": "dao",
          "type": "address"
        },
        {
          "internalType": "address",
          "name": "account",
          "type": "address"
        }
      ],
      "name": "isPriorityDepositWhitelist",
      "outputs": [
        {
          "internalType": "bool",
          "name": "",
          "type": "bool"
        }
      ],
      "stateMutability": "view",
      "type": "function"
    },
    {
      "inputs": [
        {
          "internalType": "address",
          "name": "",
          "type": "address"
        },
        {
          "internalType": "bytes32",
          "name": "",
          "type": "bytes32"
        }
      ],
      "name": "participantMemberShips",
      "outputs": [
        {
          "internalType": "bool",
          "name": "created",
          "type": "bool"
        },
        {
          "internalType": "uint8",
          "name": "varifyType",
          "type": "uint8"
        },
        {
          "internalType": "uint256",
          "name": "minHolding",
          "type": "uint256"
        },
        {
          "internalType": "address",
          "name": "tokenAddress",
          "type": "address"
        },
        {
          "internalType": "uint256",
          "name": "tokenId",
          "type": "uint256"
        }
      ],
      "stateMutability": "view",
      "type": "function"
    },
    {
      "inputs": [
        {
          "internalType": "contract DaoRegistry",
          "name": "dao",
          "type": "address"
        },
        {
          "internalType": "string",
          "name": "name",
          "type": "string"
        },
        {
          "internalType": "address",
          "name": "account",
          "type": "address"
        }
      ],
      "name": "registerParticipantWhiteList",
      "outputs": [],
      "stateMutability": "nonpayable",
      "type": "function"
    },
    {
      "inputs": [
        {
          "internalType": "contract DaoRegistry",
          "name": "dao",
          "type": "address"
        },
        {
          "internalType": "address",
          "name": "account",
          "type": "address"
        }
      ],
      "name": "registerPriorityDepositWhiteList",
      "outputs": [],
      "stateMutability": "nonpayable",
      "type": "function"
    },
    {
      "inputs": [
        {
          "internalType": "contract DaoRegistry",
          "name": "dao",
          "type": "address"
        },
        {
          "internalType": "bytes32",
          "name": "proposalId",
          "type": "bytes32"
        },
        {
          "internalType": "uint160",
          "name": "amount",
          "type": "uint160"
        }
      ],
      "name": "withdraw",
      "outputs": [],
      "stateMutability": "nonpayable",
      "type": "function"
    }
  ],
  "bytecode": "0x608060405234801561001057600080fd5b50612ce1806100206000396000f3fe608060405234801561001057600080fd5b50600436106100f55760003560e01c80633a844ec011610097578063aed71fde11610066578063aed71fde1461027b578063d22bb2d51461028e578063eb2243f8146102a1578063f542c86a146102b457600080fd5b80633a844ec0146101e057806375e42744146102035780638ecf7720146102165780639e875f321461022957600080fd5b80631316eb21116100d35780631316eb211461015f57806314a6c056146101a757806322528685146101ba578063239dd228146101cd57600080fd5b80630617b0ce146100fa5780630679347b1461012a57806307832bfd1461014a575b600080fd5b61010d61010836600461284f565b6102c7565b6040516001600160a01b0390911681526020015b60405180910390f35b61013d6101383660046128ea565b6103de565b6040516101219190612b4c565b61015d610158366004612817565b610444565b005b61017261016d3660046128ea565b61049e565b60408051951515865260ff9094166020860152928401919091526001600160a01b03166060830152608082015260a001610121565b61013d6101b53660046127fb565b610512565b61015d6101c83660046129a3565b610536565b61015d6101db3660046128a2565b61067b565b6101f36101ee36600461284f565b610b33565b6040519015158152602001610121565b61010d610211366004612861565b610e84565b6101f3610224366004612817565b610f92565b6101726102373660046126c4565b60016020818152600093845260408085209091529183529120805491810154600282015460039092015460ff80851694610100900416926001600160a01b03169085565b6101f3610289366004612817565b61100f565b6101f361029c36600461293d565b611031565b61015d6102af3660046128b6565b611082565b61015d6102c236600461293d565b611e38565b604051632c9f4b5b60e11b8152600080516020612c8c833981519152600482015260009081906001600160a01b0385169063593e96b69060240160206040518083038186803b15801561031957600080fd5b505afa15801561032d573d6000803e3d6000fd5b505050506040513d601f19601f8201168201806040525081019061035191906126a8565b604051636101c11b60e11b81526004810185905261babe60248201529091506001600160a01b0382169063c20382369060440160206040518083038186803b15801561039c57600080fd5b505afa1580156103b0573d6000803e3d6000fd5b505050506040513d601f19601f820116820180604052508101906103d491906126a8565b9150505b92915050565b6060600061040c84846040516020016103f8929190612acb565b604051602081830303815290604052611ec2565b6001600160a01b038616600090815260208181526040808320848452909152902090915061043990611ede565b9150505b9392505050565b8161044f8133611eeb565b6001600160a01b03831660009081526002602052604090206104719083611f33565b610499576001600160a01b03831660009081526002602052604090206104979083611f55565b505b505050565b6000806000806000806104bd88886040516020016103f8929190612acb565b6001600160a01b03998a166000908152600160208181526040808420948452939052919020805491810154600282015460039092015460ff8085169e610100909504169c919b50911698509650945050505050565b6001600160a01b03811660009081526002602052604090206060906103d890611ede565b866105418133611eeb565b600061055988886040516020016103f8929190612acb565b6001600160a01b038a16600090815260016020908152604080832084845282529182902054915192935060ff9091161591610598918b918b9101612adb565b604051602081830303815290604052906105ce5760405162461bcd60e51b81526004016105c59190612b99565b60405180910390fd5b506040805160a081018252600180825260ff9889166020808401918252838501998a526001600160a01b0398891660608501908152608085019889529d891660009081528382528581209681529590529290932090518154925161ffff1990931690151561ff00191617610100929098169190910296909617865593519385019390935595516002840180546001600160a01b031916919092161790555092516003909301929092555050565b82600061068782611f6a565b604051632c9f4b5b60e11b8152600080516020612c8c83398151915260048201529091506000906001600160a01b0387169063593e96b69060240160206040518083038186803b1580156106da57600080fd5b505afa1580156106ee573d6000803e3d6000fd5b505050506040513d601f19601f8201168201806040525081019061071291906126a8565b604051636101c11b60e11b8152600481018790523360248201529091506000906001600160a01b0383169063c20382369060440160206040518083038186803b15801561075e57600080fd5b505afa158015610772573d6000803e3d6000fd5b505050506040513d601f19601f8201168201806040525081019061079691906126a8565b6001600160a01b031690506000811180156107ba575080856001600160a01b031611155b6107fc5760405162461bcd60e51b81526020600482015260136024820152726e6f7468696e6720746f20776974686472617760681b60448201526064016105c5565b6040516317ba7d8560e01b81527f7a8526bca00f0726b2fab8c3bfd5b00bfa84d07f111e48263b13de605eefcdda60048201526000906001600160a01b038916906317ba7d859060240160206040518083038186803b15801561085e57600080fd5b505afa158015610872573d6000803e3d6000fd5b505050506040513d601f19601f8201168201806040525081019061089691906126a8565b9050600080826001600160a01b03166380dc31418b8b6040518363ffffffff1660e01b81526004016108c9929190612b33565b604080518083038186803b1580156108e057600080fd5b505afa1580156108f4573d6000803e3d6000fd5b505050506040513d601f19601f820116820180604052508101906109189190612a8c565b9092509050428111806109d1575042811080156109d1575060046040516357670a1960e01b81526001600160a01b038516906357670a1990610960908e908e90600401612b33565b60206040518083038186803b15801561097857600080fd5b505afa15801561098c573d6000803e3d6000fd5b505050506040513d601f19601f820116820180604052508101906109b09190612a55565b60048111156109cf57634e487b7160e01b600052602160045260246000fd5b145b15610acd5760405163148cd4fd60e01b81526000906001600160a01b0385169063148cd4fd90610a07908e908e90600401612b33565b60206040518083038186803b158015610a1f57600080fd5b505afa158015610a33573d6000803e3d6000fd5b505050506040513d601f19601f82011682018060405250810190610a5791906126a8565b60405163470660bb60e11b8152600481018c90523360248201526001600160a01b0380831660448301528b8116606483015291925090871690638e0cc17690608401600060405180830381600087803b158015610ab357600080fd5b505af1158015610ac7573d6000803e3d6000fd5b50505050505b604080516001600160a01b038c81168252602082018c90528a168183015233606082015290517fb3085ed0819e7a24ea01cc7517959d320c556f8d657f4eb66a77c92362aeccf49181900360800190a15050505050610b2c82826121f5565b5050505050565b604051634941d71d60e11b81527fd99dae5492aa0c08830764a319f29225cc739a0ed8683d8fd1b5bc3a8fe31672600482015260009081906001600160a01b03851690639283ae3a9060240160206040518083038186803b158015610b9757600080fd5b505afa158015610bab573d6000803e3d6000fd5b505050506040513d601f19601f82011682018060405250810190610bcf9190612a74565b604051634941d71d60e11b81527f9ce69cf04065e3c7823cc5540c0598d8a694bd7a9a5a2a786d8bccf14ed6e2ea60048201529091506000906001600160a01b03861690639283ae3a9060240160206040518083038186803b158015610c3457600080fd5b505afa158015610c48573d6000803e3d6000fd5b505050506040513d601f19601f82011682018060405250810190610c6c9190612a74565b604051634941d71d60e11b81527f6a2acfe6164f3ec20e6d80e2f4e4f7ae2b9962615c9596c872d01f6cd244aed360048201529091506000906001600160a01b03871690639283ae3a9060240160206040518083038186803b158015610cd157600080fd5b505afa158015610ce5573d6000803e3d6000fd5b505050506040513d601f19601f82011682018060405250810190610d099190612a74565b604051634941d71d60e11b81527f2305fa3a9f84625f75d70f539e621c658cf49e7477ab5af9cacd278ca7904e3060048201529091506000906001600160a01b03881690639283ae3a9060240160206040518083038186803b158015610d6e57600080fd5b505afa158015610d82573d6000803e3d6000fd5b505050506040513d601f19601f82011682018060405250810190610da69190612a74565b90506000610db48585612c04565b9050821580610dc1575081155b80610dca575080155b15610ddd576000955050505050506103d8565b6000610de98483612be4565b905060008060005b838111610e72578215610e0d57610e088784612bcc565b610e17565b610e17878a612bcc565b9250610e238684612c04565b9150818b118015610e335750828b105b8015610e3e5750888b115b8015610e495750878b105b15610e6057600199505050505050505050506103d8565b610e6b600182612bcc565b9050610df1565b5060009b9a5050505050505050505050565b604051632c9f4b5b60e11b8152600080516020612c8c833981519152600482015260009081906001600160a01b0386169063593e96b69060240160206040518083038186803b158015610ed657600080fd5b505afa158015610eea573d6000803e3d6000fd5b505050506040513d601f19601f82011682018060405250810190610f0e91906126a8565b604051636101c11b60e11b8152600481018690526001600160a01b0385811660248301529192509082169063c20382369060440160206040518083038186803b158015610f5a57600080fd5b505afa158015610f6e573d6000803e3d6000fd5b505050506040513d601f19601f8201168201806040525081019061043991906126a8565b60405163288c314960e21b81526001600160a01b0382811660048301526000919084169063a230c5249060240160206040518083038186803b158015610fd757600080fd5b505afa158015610feb573d6000803e3d6000fd5b505050506040513d601f19601f8201168201806040525081019061043d91906127b6565b6001600160a01b038216600090815260026020526040812061043d9083611f33565b60008061104a85856040516020016103f8929190612acb565b6001600160a01b03871660009081526020818152604080832084845290915290209091506110789084611f33565b9695505050505050565b82600061108e82611f6a565b90506110ef6040805161014081018252600080825260208201819052918101829052606081018290529060808201908152602001600081526020016000815260200160006001600160a01b0316815260200160008152602001600081525090565b6040516317ba7d8560e01b81527f7a8526bca00f0726b2fab8c3bfd5b00bfa84d07f111e48263b13de605eefcdda60048201526001600160a01b038716906317ba7d859060240160206040518083038186803b15801561114e57600080fd5b505afa158015611162573d6000803e3d6000fd5b505050506040513d601f19601f8201168201806040525081019061118691906126a8565b6001600160a01b039081168252604051632c9f4b5b60e11b8152600080516020612c8c83398151915260048201529087169063593e96b69060240160206040518083038186803b1580156111d957600080fd5b505afa1580156111ed573d6000803e3d6000fd5b505050506040513d601f19601f8201168201806040525081019061121191906126a8565b6001600160a01b0316602082018190526040516338e2969960e21b81526004810187905263e38a5a649060240160006040518083038186803b15801561125657600080fd5b505afa15801561126a573d6000803e3d6000fd5b505050506040513d6000823e601f3d908101601f1916820160405261129291908101906126ef565b51610120820152604051634941d71d60e11b81527f0a71373d28d4b40b0bb46f8d58468f2e51292d10cf26715a0e3d8624b60c8a4260048201526001600160a01b03871690639283ae3a9060240160206040518083038186803b1580156112f857600080fd5b505afa15801561130c573d6000803e3d6000fd5b505050506040513d601f19601f820116820180604052508101906113309190612a74565b60011480156113d65750604051634941d71d60e11b81527faf0b46df030af159303b75690e740674df8434270d3b7248b0280f3d63a2dd8b60048201526000906001600160a01b03881690639283ae3a9060240160206040518083038186803b15801561139c57600080fd5b505afa1580156113b0573d6000803e3d6000fd5b505050506040513d601f19601f820116820180604052508101906113d49190612a74565b115b801561147d5750604051634941d71d60e11b81527faf0b46df030af159303b75690e740674df8434270d3b7248b0280f3d63a2dd8b60048201526001600160a01b03871690639283ae3a9060240160206040518083038186803b15801561143c57600080fd5b505afa158015611450573d6000803e3d6000fd5b505050506040513d601f19601f820116820180604052508101906114749190612a74565b81610120015110155b801561150a57506020810151604051630d9416b960e31b8152600481018790523360248201526001600160a01b0390911690636ca0b5c89060440160206040518083038186803b1580156114d057600080fd5b505afa1580156114e4573d6000803e3d6000fd5b505050506040513d601f19601f8201168201806040525081019061150891906127b6565b155b1561154f5760405162461bcd60e51b815260206004820152601560248201527409ac2f040a0c2e4e8d2c6d2e0c2dce840a4cac2c6d605b1b60448201526064016105c5565b80516040516357670a1960e01b81526001916001600160a01b0316906357670a1990611581908a908a90600401612b33565b60206040518083038186803b15801561159957600080fd5b505afa1580156115ad573d6000803e3d6000fd5b505050506040513d601f19601f820116820180604052508101906115d19190612a55565b60048111156115f057634e487b7160e01b600052602160045260246000fd5b146116475760405162461bcd60e51b815260206004820152602160248201527f46756e64696e672050726f706f73616c204e6f7420496e2046756e64205261696044820152606560f81b60648201526084016105c5565b80516040516380dc314160e01b81526001600160a01b03909116906380dc3141906116789089908990600401612b33565b604080518083038186803b15801561168f57600080fd5b505afa1580156116a3573d6000803e3d6000fd5b505050506040513d601f19601f820116820180604052508101906116c79190612a8c565b6060830152604082018190524210806116e35750806060015142115b156117245760405162461bcd60e51b81526020600482015260116024820152704e6f7420496e2046756e6420526169736560781b60448201526064016105c5565b600084116117655760405162461bcd60e51b815260206004820152600e60248201526d6e6f20746f6b656e2073656e742160901b60448201526064016105c5565b80516040516303eef82360e41b81526001600160a01b0390911690633eef8230906117969089908990600401612b33565b60206040518083038186803b1580156117ae57600080fd5b505afa1580156117c2573d6000803e3d6000fd5b505050506040513d601f19601f820116820180604052508101906117e69190612a36565b8160800190600181111561180a57634e487b7160e01b600052602160045260246000fd5b9081600181111561182b57634e487b7160e01b600052602160045260246000fd5b9052508051604051636666c9bd60e01b81526001600160a01b0390911690636666c9bd9061185f9089908990600401612b33565b604080518083038186803b15801561187657600080fd5b505afa15801561188a573d6000803e3d6000fd5b505050506040513d601f19601f820116820180604052508101906118ae9190612a8c565b60c083015260a082015280516040516341439ae560e01b81526001600160a01b03909116906341439ae5906118e99089908990600401612b33565b60206040518083038186803b15801561190157600080fd5b505afa158015611915573d6000803e3d6000fd5b505050506040513d601f19601f820116820180604052508101906119399190612a74565b61010082015260a08101511580159061195557508060a0015184105b156119a25760405162461bcd60e51b815260206004820152601760248201527f4c657373204d696e204465706f73697420416d6f756e7400000000000000000060448201526064016105c5565b60008160c00151118015611a4f575060c08101516020820151604051636101c11b60e11b81526004810188905233602482015286916001600160a01b03169063c20382369060440160206040518083038186803b158015611a0257600080fd5b505afa158015611a16573d6000803e3d6000fd5b505050506040513d601f19601f82011682018060405250810190611a3a91906126a8565b6001600160a01b0316611a4d9190612bcc565b115b15611a9c5760405162461bcd60e51b815260206004820152601960248201527f457863656564204d6178204465706f73697420416d6f756e740000000000000060448201526064016105c5565b600081608001516001811115611ac257634e487b7160e01b600052602160045260246000fd5b148015611ad457506000816101000151115b15611bc6576101008101516020820151604051636101c11b60e11b81526004810188905261babe602482015286916001600160a01b03169063c20382369060440160206040518083038186803b158015611b2d57600080fd5b505afa158015611b41573d6000803e3d6000fd5b505050506040513d601f19601f82011682018060405250810190611b6591906126a8565b6001600160a01b0316611b789190612bcc565b1115611bc65760405162461bcd60e51b815260206004820152601960248201527f457863656564204d61782046756e64696e6720416d6f756e740000000000000060448201526064016105c5565b805160405163148cd4fd60e01b81526001600160a01b039091169063148cd4fd90611bf79089908990600401612b33565b60206040518083038186803b158015611c0f57600080fd5b505afa158015611c23573d6000803e3d6000fd5b505050506040513d601f19601f82011682018060405250810190611c4791906126a8565b6001600160a01b031660e082018190526040516323b872dd60e01b8152336004820152306024820152604481018690526323b872dd90606401602060405180830381600087803b158015611c9a57600080fd5b505af1158015611cae573d6000803e3d6000fd5b505050506040513d601f19601f82011682018060405250810190611cd291906127b6565b50604051632c9f4b5b60e11b8152600080516020612c8c8339815191526004820152611d71906001600160a01b0388169063593e96b69060240160206040518083038186803b158015611d2457600080fd5b505afa158015611d38573d6000803e3d6000fd5b505050506040513d601f19601f82011682018060405250810190611d5c91906126a8565b60e08301516001600160a01b03169086612200565b6020810151604051626713e160e11b815260048101879052336024820152604481018690526001600160a01b039091169062ce27c290606401600060405180830381600087803b158015611dc457600080fd5b505af1158015611dd8573d6000803e3d6000fd5b5050604080516001600160a01b038a168152602081018990529081018790523360608201527fddcff2534e44ab893ab86cadbfcf556c7c257bd657d168b0bfed850311dfe4f89250608001905060405180910390a150610b2c82826121f5565b83611e438133611eeb565b6000611e5b85856040516020016103f8929190612acb565b6001600160a01b0387166000908152602081815260408083208484529091529020909150611e899084611f33565b611eba576001600160a01b0386166000908152602081815260408083208484529091529020611eb89084611f55565b505b505050505050565b6000815160001415611ed657506000919050565b506020015190565b6060600061043d83612256565b611ef58282610f92565b611f2f5760405162461bcd60e51b815260206004820152600b60248201526a1bdb9b1e54dd195dd85c9960aa1b60448201526064016105c5565b5050565b6001600160a01b0381166000908152600183016020526040812054151561043d565b600061043d836001600160a01b0384166122b2565b6040805160808101825260008082526020820181905291810182905260608101919091525a81600001818152505043826001600160a01b031663b21634826040518163ffffffff1660e01b815260040160206040518083038186803b158015611fd257600080fd5b505afa158015611fe6573d6000803e3d6000fd5b505050506040513d601f19601f8201168201806040525081019061200a9190612a74565b141561204b5760405162461bcd60e51b815260206004820152601060248201526f1c99595b9d1c985b98de4819dd585c9960821b60448201526064016105c5565b816001600160a01b03166310fdb0a26040518163ffffffff1660e01b8152600401600060405180830381600087803b15801561208657600080fd5b505af115801561209a573d6000803e3d6000fd5b50506040516372c6838f60e01b81527f1f2fd42ad6a6cacd573c4b212beb7a4e2499ad45d742a65337097f130e71daff6004820152600092506001600160a01b03851691506372c6838f9060240160206040518083038186803b15801561210057600080fd5b505afa158015612114573d6000803e3d6000fd5b505050506040513d601f19601f8201168201806040525081019061213891906126a8565b90506001600160a01b03811661215457600060208301526121ef565b6001600160a01b0381166060830181905282516040516343a8a3f160e01b8152600092839290916343a8a3f19161219091899190600401612b33565b604080518083038186803b1580156121a757600080fd5b505afa1580156121bb573d6000803e3d6000fd5b505050506040513d601f19601f820116820180604052508101906121df91906127d0565b9015156020860152604085015250505b50919050565b611f2f828233612301565b6104998363a9059cbb60e01b848460405160240161221f929190612b33565b60408051601f198184030181529190526020810180516001600160e01b03166001600160e01b0319909316929092179091526123ee565b6060816000018054806020026020016040519081016040528092919081815260200182805480156122a657602002820191906000526020600020905b815481526020019060010190808311612292575b50505050509050919050565b60008181526001830160205260408120546122f9575081546001818101845560008481526020808220909301849055845484825282860190935260409020919091556103d8565b5060006103d8565b81602001511561239f5781606001516001600160a01b0316635e5eb01384835a865161232d9190612c04565b60408088015190516001600160e01b031960e087901b1681526001600160a01b03948516600482015293909216602484015260448301526064820152608401600060405180830381600087803b15801561238657600080fd5b505af115801561239a573d6000803e3d6000fd5b505050505b826001600160a01b031663d4f7af436040518163ffffffff1660e01b8152600401600060405180830381600087803b1580156123da57600080fd5b505af1158015611eb8573d6000803e3d6000fd5b6000612443826040518060400160405280602081526020017f5361666545524332303a206c6f772d6c6576656c2063616c6c206661696c6564815250856001600160a01b03166124c09092919063ffffffff16565b805190915015610499578080602001905181019061246191906127b6565b6104995760405162461bcd60e51b815260206004820152602a60248201527f5361666545524332303a204552433230206f7065726174696f6e20646964206e6044820152691bdd081cdd58d8d9595960b21b60648201526084016105c5565b60606124cf84846000856124d7565b949350505050565b6060824710156125385760405162461bcd60e51b815260206004820152602660248201527f416464726573733a20696e73756666696369656e742062616c616e636520666f6044820152651c8818d85b1b60d21b60648201526084016105c5565b6001600160a01b0385163b61258f5760405162461bcd60e51b815260206004820152601d60248201527f416464726573733a2063616c6c20746f206e6f6e2d636f6e747261637400000060448201526064016105c5565b600080866001600160a01b031685876040516125ab9190612aaf565b60006040518083038185875af1925050503d80600081146125e8576040519150601f19603f3d011682016040523d82523d6000602084013e6125ed565b606091505b50915091506125fd828286612608565b979650505050505050565b6060831561261757508161043d565b8251156126275782518084602001fd5b8160405162461bcd60e51b81526004016105c59190612b99565b805161264c81612c73565b919050565b8051801515811461264c57600080fd5b60008083601f840112612672578182fd5b50813567ffffffffffffffff811115612689578182fd5b6020830191508360208285010111156126a157600080fd5b9250929050565b6000602082840312156126b9578081fd5b815161043d81612c73565b600080604083850312156126d6578081fd5b82356126e181612c73565b946020939093013593505050565b60006020808385031215612701578182fd5b825167ffffffffffffffff80821115612718578384fd5b818501915085601f83011261272b578384fd5b81518181111561273d5761273d612c5d565b8060051b604051601f19603f8301168101818110858211171561276257612762612c5d565b604052828152858101935084860182860187018a1015612780578788fd5b8795505b838610156127a95761279581612641565b855260019590950194938601938601612784565b5098975050505050505050565b6000602082840312156127c7578081fd5b61043d82612651565b600080604083850312156127e2578182fd5b6127eb83612651565b9150602083015190509250929050565b60006020828403121561280c578081fd5b813561043d81612c73565b60008060408385031215612829578182fd5b823561283481612c73565b9150602083013561284481612c73565b809150509250929050565b600080604083850312156126d6578182fd5b600080600060608486031215612875578081fd5b833561288081612c73565b925060208401359150604084013561289781612c73565b809150509250925092565b600080600060608486031215612875578283fd5b6000806000606084860312156128ca578283fd5b83356128d581612c73565b95602085013595506040909401359392505050565b6000806000604084860312156128fe578081fd5b833561290981612c73565b9250602084013567ffffffffffffffff811115612924578182fd5b61293086828701612661565b9497909650939450505050565b60008060008060608587031215612952578182fd5b843561295d81612c73565b9350602085013567ffffffffffffffff811115612978578283fd5b61298487828801612661565b909450925050604085013561299881612c73565b939692955090935050565b600080600080600080600060c0888a0312156129bd578485fd5b87356129c881612c73565b9650602088013567ffffffffffffffff8111156129e3578586fd5b6129ef8a828b01612661565b909750955050604088013560ff81168114612a08578384fd5b9350606088013592506080880135612a1f81612c73565b8092505060a0880135905092959891949750929550565b600060208284031215612a47578081fd5b81516002811061043d578182fd5b600060208284031215612a66578081fd5b81516005811061043d578182fd5b600060208284031215612a85578081fd5b5051919050565b60008060408385031215612a9e578182fd5b505080516020909101519092909150565b60008251612ac1818460208701612c1b565b9190910192915050565b8183823760009101908152919050565b6403730b6b2960dd1b8152818360058301377f205061727469636970616e74204d656d62657273686970206e616d6520616c72910160058101919091526932b0b23c903a30b5b2b760b11b6025820152602f01919050565b6001600160a01b03929092168252602082015260400190565b6020808252825182820181905260009190848201906040850190845b81811015612b8d5783516001600160a01b031683529284019291840191600101612b68565b50909695505050505050565b6020815260008251806020840152612bb8816040850160208701612c1b565b601f01601f19169190910160400192915050565b60008219821115612bdf57612bdf612c47565b500190565b600082612bff57634e487b7160e01b81526012600452602481fd5b500490565b600082821015612c1657612c16612c47565b500390565b60005b83811015612c36578181015183820152602001612c1e565b838111156104975750506000910152565b634e487b7160e01b600052601160045260246000fd5b634e487b7160e01b600052604160045260246000fd5b6001600160a01b0381168114612c8857600080fd5b5056feb12a3847d47fefceb164b75823af125f9aa82b76938df0ddf08c04cd314ba37ca26469706673582212204409296b7256d0e9635456d3729c010e01533e4f1a57d0594b7a3c4e70a11a2d64736f6c63430008040033",
  "linkReferences": {},
  "deployedLinkReferences": {}
}