{
  "_format": "hh-sol-artifact-1",
  "contractName": "FlexFundingAdapterContract",
  "sourceName": "contracts/flex/adatpers/FlexFunding.sol",
  "abi": [
    {
      "inputs": [],
      "name": "FundRaiseEndTimeNotUP",
      "type": "error"
    },
    {
      "inputs": [],
      "name": "InvalidBackerIdentificationParams",
      "type": "error"
    },
    {
      "inputs": [],
      "name": "InvalidBackerPriorityDepositParams",
      "type": "error"
    },
    {
      "inputs": [],
      "name": "InvalidFundingInfoParams",
      "type": "error"
    },
    {
      "inputs": [],
      "name": "InvalidReturnFundParams",
      "type": "error"
    },
    {
      "inputs": [],
      "name": "InvalidTokenRewardAmount",
      "type": "error"
    },
    {
      "inputs": [],
      "name": "InvalidVestingParams",
      "type": "error"
    },
    {
      "inputs": [],
      "name": "NotInExecuteState",
      "type": "error"
    },
    {
      "anonymous": false,
      "inputs": [
        {
          "indexed": false,
          "internalType": "address",
          "name": "daoAddress",
          "type": "address"
        },
        {
          "indexed": false,
          "internalType": "bytes32",
          "name": "proposalId",
          "type": "bytes32"
        },
        {
          "indexed": false,
          "internalType": "address",
          "name": "proposer",
          "type": "address"
        }
      ],
      "name": "ProposalCreated",
      "type": "event"
    },
    {
      "anonymous": false,
      "inputs": [
        {
          "indexed": false,
          "internalType": "address",
          "name": "daoAddress",
          "type": "address"
        },
        {
          "indexed": false,
          "internalType": "bytes32",
          "name": "proposalId",
          "type": "bytes32"
        },
        {
          "indexed": false,
          "internalType": "enum IFlexFunding.ProposalStatus",
          "name": "state",
          "type": "uint8"
        }
      ],
      "name": "ProposalExecuted",
      "type": "event"
    },
    {
      "inputs": [
        {
          "internalType": "address",
          "name": "",
          "type": "address"
        },
        {
          "internalType": "bytes32",
          "name": "",
          "type": "bytes32"
        }
      ],
      "name": "Proposals",
      "outputs": [
        {
          "internalType": "address",
          "name": "proposer",
          "type": "address"
        },
        {
          "components": [
            {
              "internalType": "address",
              "name": "tokenAddress",
              "type": "address"
            },
            {
              "internalType": "uint256",
              "name": "minFundingAmount",
              "type": "uint256"
            },
            {
              "internalType": "uint256",
              "name": "maxFundingAmount",
              "type": "uint256"
            },
            {
              "internalType": "uint256",
              "name": "finalRaisedAmount",
              "type": "uint256"
            },
            {
              "internalType": "bool",
              "name": "escrow",
              "type": "bool"
            },
            {
              "internalType": "address",
              "name": "returnTokenAddr",
              "type": "address"
            },
            {
              "internalType": "uint256",
              "name": "returnTokenAmount",
              "type": "uint256"
            },
            {
              "internalType": "uint256",
              "name": "price",
              "type": "uint256"
            },
            {
              "internalType": "uint256",
              "name": "minReturnAmount",
              "type": "uint256"
            },
            {
              "internalType": "uint256",
              "name": "maxReturnAmount",
              "type": "uint256"
            },
            {
              "internalType": "address",
              "name": "approverAddr",
              "type": "address"
            },
            {
              "internalType": "address",
              "name": "recipientAddr",
              "type": "address"
            }
          ],
          "internalType": "struct IFlexFunding.ProposalFundingInfo",
          "name": "fundingInfo",
          "type": "tuple"
        },
        {
          "components": [
            {
              "internalType": "uint256",
              "name": "vestingStartTime",
              "type": "uint256"
            },
            {
              "internalType": "uint256",
              "name": "vestingCliffEndTime",
              "type": "uint256"
            },
            {
              "internalType": "uint256",
              "name": "vestingEndTime",
              "type": "uint256"
            },
            {
              "internalType": "uint256",
              "name": "vestingInterval",
              "type": "uint256"
            },
            {
              "internalType": "uint256",
              "name": "vestingCliffLockAmount",
              "type": "uint256"
            },
            {
              "internalType": "bool",
              "name": "nftEnable",
              "type": "bool"
            },
            {
              "internalType": "address",
              "name": "erc721",
              "type": "address"
            },
            {
              "internalType": "string",
              "name": "vestName",
              "type": "string"
            },
            {
              "internalType": "string",
              "name": "vestDescription",
              "type": "string"
            }
          ],
          "internalType": "struct IFlexFunding.VestInfo",
          "name": "vestInfo",
          "type": "tuple"
        },
        {
          "components": [
            {
              "internalType": "enum IFlexFunding.FundRaiseType",
              "name": "fundRaiseType",
              "type": "uint8"
            },
            {
              "internalType": "uint256",
              "name": "fundRaiseStartTime",
              "type": "uint256"
            },
            {
              "internalType": "uint256",
              "name": "fundRaiseEndTime",
              "type": "uint256"
            },
            {
              "internalType": "uint256",
              "name": "minDepositAmount",
              "type": "uint256"
            },
            {
              "internalType": "uint256",
              "name": "maxDepositAmount",
              "type": "uint256"
            },
            {
              "internalType": "bool",
              "name": "backerIdentification",
              "type": "bool"
            },
            {
              "components": [
                {
                  "internalType": "enum IFlexFunding.BackerIdentificationType",
                  "name": "bType",
                  "type": "uint8"
                },
                {
                  "internalType": "uint32",
                  "name": "bChainId",
                  "type": "uint32"
                },
                {
                  "internalType": "address",
                  "name": "bTokanAddr",
                  "type": "address"
                },
                {
                  "internalType": "uint256",
                  "name": "bTokenId",
                  "type": "uint256"
                },
                {
                  "internalType": "uint256",
                  "name": "bMinHoldingAmount",
                  "type": "uint256"
                }
              ],
              "internalType": "struct IFlexFunding.BackerIdentificationInfo",
              "name": "bakckerIdentificationInfo",
              "type": "tuple"
            },
            {
              "internalType": "bool",
              "name": "priorityDeposit",
              "type": "bool"
            },
            {
              "components": [
                {
                  "internalType": "uint256",
                  "name": "pPeriod",
                  "type": "uint256"
                },
                {
                  "internalType": "uint256",
                  "name": "pPeriods",
                  "type": "uint256"
                },
                {
                  "internalType": "enum IFlexFunding.PriorityDepositType",
                  "name": "pType",
                  "type": "uint8"
                },
                {
                  "internalType": "uint256",
                  "name": "pChainId",
                  "type": "uint256"
                },
                {
                  "internalType": "address",
                  "name": "pTokenAddr",
                  "type": "address"
                },
                {
                  "internalType": "uint256",
                  "name": "pTokenId",
                  "type": "uint256"
                },
                {
                  "internalType": "uint256",
                  "name": "pMinHolding",
                  "type": "uint256"
                }
              ],
              "internalType": "struct IFlexFunding.PriorityDepositInfo",
              "name": "priorityDepositInfo",
              "type": "tuple"
            }
          ],
          "internalType": "struct IFlexFunding.FundRaiseInfo",
          "name": "fundRaiseInfo",
          "type": "tuple"
        },
        {
          "components": [
            {
              "internalType": "uint256",
              "name": "tokenRewardAmount",
              "type": "uint256"
            },
            {
              "internalType": "uint256",
              "name": "cashRewardAmount",
              "type": "uint256"
            }
          ],
          "internalType": "struct IFlexFunding.ProposerRewardInfo",
          "name": "proposerRewardInfo",
          "type": "tuple"
        },
        {
          "internalType": "uint256",
          "name": "startVoteTime",
          "type": "uint256"
        },
        {
          "internalType": "uint256",
          "name": "stopVoteTime",
          "type": "uint256"
        },
        {
          "internalType": "enum IFlexFunding.ProposalStatus",
          "name": "state",
          "type": "uint8"
        }
      ],
      "stateMutability": "view",
      "type": "function"
    },
    {
      "inputs": [],
      "name": "RETRUN_TOKEN_AMOUNT_PRECISION",
      "outputs": [
        {
          "internalType": "uint256",
          "name": "",
          "type": "uint256"
        }
      ],
      "stateMutability": "view",
      "type": "function"
    },
    {
      "inputs": [
        {
          "internalType": "address",
          "name": "",
          "type": "address"
        },
        {
          "internalType": "bytes32",
          "name": "",
          "type": "bytes32"
        },
        {
          "internalType": "address",
          "name": "",
          "type": "address"
        }
      ],
      "name": "escrowedTokens",
      "outputs": [
        {
          "internalType": "uint256",
          "name": "",
          "type": "uint256"
        }
      ],
      "stateMutability": "view",
      "type": "function"
    },
    {
      "inputs": [
        {
          "internalType": "contract DaoRegistry",
          "name": "dao",
          "type": "address"
        },
        {
          "internalType": "bytes32",
          "name": "proposalId",
          "type": "bytes32"
        }
      ],
      "name": "getDepositAmountLimit",
      "outputs": [
        {
          "internalType": "uint256",
          "name": "minDepositAmount",
          "type": "uint256"
        },
        {
          "internalType": "uint256",
          "name": "maxDepositAmount",
          "type": "uint256"
        }
      ],
      "stateMutability": "view",
      "type": "function"
    },
    {
      "inputs": [
        {
          "internalType": "contract DaoRegistry",
          "name": "dao",
          "type": "address"
        },
        {
          "internalType": "bytes32",
          "name": "proposalId",
          "type": "bytes32"
        }
      ],
      "name": "getFundRaiseTimes",
      "outputs": [
        {
          "internalType": "uint256",
          "name": "fundRaiseStartTime",
          "type": "uint256"
        },
        {
          "internalType": "uint256",
          "name": "fundRaiseEndTime",
          "type": "uint256"
        }
      ],
      "stateMutability": "view",
      "type": "function"
    },
    {
      "inputs": [
        {
          "internalType": "contract DaoRegistry",
          "name": "dao",
          "type": "address"
        },
        {
          "internalType": "bytes32",
          "name": "proposalId",
          "type": "bytes32"
        }
      ],
      "name": "getFundRaiseType",
      "outputs": [
        {
          "internalType": "enum IFlexFunding.FundRaiseType",
          "name": "",
          "type": "uint8"
        }
      ],
      "stateMutability": "view",
      "type": "function"
    },
    {
      "inputs": [
        {
          "internalType": "contract DaoRegistry",
          "name": "dao",
          "type": "address"
        },
        {
          "internalType": "bytes32",
          "name": "proposalId",
          "type": "bytes32"
        }
      ],
      "name": "getMaxFundingAmount",
      "outputs": [
        {
          "internalType": "uint256",
          "name": "",
          "type": "uint256"
        }
      ],
      "stateMutability": "view",
      "type": "function"
    },
    {
      "inputs": [
        {
          "internalType": "contract DaoRegistry",
          "name": "dao",
          "type": "address"
        },
        {
          "internalType": "bytes32",
          "name": "proposalId",
          "type": "bytes32"
        }
      ],
      "name": "getProposalState",
      "outputs": [
        {
          "internalType": "enum IFlexFunding.ProposalStatus",
          "name": "",
          "type": "uint8"
        }
      ],
      "stateMutability": "view",
      "type": "function"
    },
    {
      "inputs": [
        {
          "internalType": "contract DaoRegistry",
          "name": "dao",
          "type": "address"
        }
      ],
      "name": "getProposerWhitelist",
      "outputs": [
        {
          "internalType": "address[]",
          "name": "",
          "type": "address[]"
        }
      ],
      "stateMutability": "view",
      "type": "function"
    },
    {
      "inputs": [
        {
          "internalType": "contract DaoRegistry",
          "name": "dao",
          "type": "address"
        },
        {
          "internalType": "bytes32",
          "name": "proposalId",
          "type": "bytes32"
        }
      ],
      "name": "getTokenByProposalId",
      "outputs": [
        {
          "internalType": "address",
          "name": "",
          "type": "address"
        }
      ],
      "stateMutability": "view",
      "type": "function"
    },
    {
      "inputs": [
        {
          "internalType": "contract DaoRegistry",
          "name": "dao",
          "type": "address"
        },
        {
          "internalType": "address",
          "name": "_addr",
          "type": "address"
        }
      ],
      "name": "isActiveMember",
      "outputs": [
        {
          "internalType": "bool",
          "name": "",
          "type": "bool"
        }
      ],
      "stateMutability": "view",
      "type": "function"
    },
    {
      "inputs": [
        {
          "internalType": "contract DaoRegistry",
          "name": "dao",
          "type": "address"
        },
        {
          "internalType": "address",
          "name": "account",
          "type": "address"
        }
      ],
      "name": "isProposerWhiteList",
      "outputs": [
        {
          "internalType": "bool",
          "name": "",
          "type": "bool"
        }
      ],
      "stateMutability": "view",
      "type": "function"
    },
    {
      "inputs": [
        {
          "internalType": "contract DaoRegistry",
          "name": "dao",
          "type": "address"
        },
        {
          "internalType": "bytes32",
          "name": "proposalId",
          "type": "bytes32"
        }
      ],
      "name": "processProposal",
      "outputs": [
        {
          "internalType": "bool",
          "name": "",
          "type": "bool"
        }
      ],
      "stateMutability": "nonpayable",
      "type": "function"
    },
    {
      "inputs": [],
      "name": "proposalIds",
      "outputs": [
        {
          "internalType": "uint256",
          "name": "",
          "type": "uint256"
        }
      ],
      "stateMutability": "view",
      "type": "function"
    },
    {
      "inputs": [],
      "name": "protocolAddress",
      "outputs": [
        {
          "internalType": "address",
          "name": "",
          "type": "address"
        }
      ],
      "stateMutability": "view",
      "type": "function"
    },
    {
      "inputs": [],
      "name": "protocolFee",
      "outputs": [
        {
          "internalType": "uint256",
          "name": "",
          "type": "uint256"
        }
      ],
      "stateMutability": "view",
      "type": "function"
    },
    {
      "inputs": [
        {
          "internalType": "contract DaoRegistry",
          "name": "dao",
          "type": "address"
        },
        {
          "internalType": "address",
          "name": "account",
          "type": "address"
        }
      ],
      "name": "registerProposerWhiteList",
      "outputs": [],
      "stateMutability": "nonpayable",
      "type": "function"
    },
    {
      "inputs": [
        {
          "internalType": "contract DaoRegistry",
          "name": "dao",
          "type": "address"
        },
        {
          "internalType": "bytes32",
          "name": "proposalId",
          "type": "bytes32"
        }
      ],
      "name": "retrunTokenToApprover",
      "outputs": [],
      "stateMutability": "nonpayable",
      "type": "function"
    },
    {
      "inputs": [
        {
          "internalType": "contract DaoRegistry",
          "name": "dao",
          "type": "address"
        },
        {
          "internalType": "address",
          "name": "_protocolAddress",
          "type": "address"
        }
      ],
      "name": "setProtocolAddress",
      "outputs": [],
      "stateMutability": "nonpayable",
      "type": "function"
    },
    {
      "inputs": [
        {
          "internalType": "contract DaoRegistry",
          "name": "dao",
          "type": "address"
        },
        {
          "internalType": "uint256",
          "name": "_protocolFee",
          "type": "uint256"
        }
      ],
      "name": "setProtocolFee",
      "outputs": [],
      "stateMutability": "nonpayable",
      "type": "function"
    },
    {
      "inputs": [
        {
          "internalType": "contract DaoRegistry",
          "name": "dao",
          "type": "address"
        },
        {
          "components": [
            {
              "components": [
                {
                  "internalType": "address",
                  "name": "tokenAddress",
                  "type": "address"
                },
                {
                  "internalType": "uint256",
                  "name": "minFundingAmount",
                  "type": "uint256"
                },
                {
                  "internalType": "uint256",
                  "name": "maxFundingAmount",
                  "type": "uint256"
                },
                {
                  "internalType": "bool",
                  "name": "escrow",
                  "type": "bool"
                },
                {
                  "internalType": "address",
                  "name": "returnTokenAddr",
                  "type": "address"
                },
                {
                  "internalType": "uint256",
                  "name": "returnTokenAmount",
                  "type": "uint256"
                },
                {
                  "internalType": "uint256",
                  "name": "price",
                  "type": "uint256"
                },
                {
                  "internalType": "uint256",
                  "name": "minReturnAmount",
                  "type": "uint256"
                },
                {
                  "internalType": "uint256",
                  "name": "maxReturnAmount",
                  "type": "uint256"
                },
                {
                  "internalType": "address",
                  "name": "approverAddr",
                  "type": "address"
                },
                {
                  "internalType": "address",
                  "name": "recipientAddr",
                  "type": "address"
                }
              ],
              "internalType": "struct IFlexFunding.FundingInfo",
              "name": "fundingInfo",
              "type": "tuple"
            },
            {
              "components": [
                {
                  "internalType": "uint256",
                  "name": "vestingStartTime",
                  "type": "uint256"
                },
                {
                  "internalType": "uint256",
                  "name": "vestingCliffEndTime",
                  "type": "uint256"
                },
                {
                  "internalType": "uint256",
                  "name": "vestingEndTime",
                  "type": "uint256"
                },
                {
                  "internalType": "uint256",
                  "name": "vestingInterval",
                  "type": "uint256"
                },
                {
                  "internalType": "uint256",
                  "name": "vestingCliffLockAmount",
                  "type": "uint256"
                },
                {
                  "internalType": "bool",
                  "name": "nftEnable",
                  "type": "bool"
                },
                {
                  "internalType": "address",
                  "name": "erc721",
                  "type": "address"
                },
                {
                  "internalType": "string",
                  "name": "vestName",
                  "type": "string"
                },
                {
                  "internalType": "string",
                  "name": "vestDescription",
                  "type": "string"
                }
              ],
              "internalType": "struct IFlexFunding.VestInfo",
              "name": "vestInfo",
              "type": "tuple"
            },
            {
              "components": [
                {
                  "internalType": "enum IFlexFunding.FundRaiseType",
                  "name": "fundRaiseType",
                  "type": "uint8"
                },
                {
                  "internalType": "uint256",
                  "name": "fundRaiseStartTime",
                  "type": "uint256"
                },
                {
                  "internalType": "uint256",
                  "name": "fundRaiseEndTime",
                  "type": "uint256"
                },
                {
                  "internalType": "uint256",
                  "name": "minDepositAmount",
                  "type": "uint256"
                },
                {
                  "internalType": "uint256",
                  "name": "maxDepositAmount",
                  "type": "uint256"
                },
                {
                  "internalType": "bool",
                  "name": "backerIdentification",
                  "type": "bool"
                },
                {
                  "components": [
                    {
                      "internalType": "enum IFlexFunding.BackerIdentificationType",
                      "name": "bType",
                      "type": "uint8"
                    },
                    {
                      "internalType": "uint32",
                      "name": "bChainId",
                      "type": "uint32"
                    },
                    {
                      "internalType": "address",
                      "name": "bTokanAddr",
                      "type": "address"
                    },
                    {
                      "internalType": "uint256",
                      "name": "bTokenId",
                      "type": "uint256"
                    },
                    {
                      "internalType": "uint256",
                      "name": "bMinHoldingAmount",
                      "type": "uint256"
                    }
                  ],
                  "internalType": "struct IFlexFunding.BackerIdentificationInfo",
                  "name": "bakckerIdentificationInfo",
                  "type": "tuple"
                },
                {
                  "internalType": "bool",
                  "name": "priorityDeposit",
                  "type": "bool"
                },
                {
                  "components": [
                    {
                      "internalType": "uint256",
                      "name": "pPeriod",
                      "type": "uint256"
                    },
                    {
                      "internalType": "uint256",
                      "name": "pPeriods",
                      "type": "uint256"
                    },
                    {
                      "internalType": "enum IFlexFunding.PriorityDepositType",
                      "name": "pType",
                      "type": "uint8"
                    },
                    {
                      "internalType": "uint256",
                      "name": "pChainId",
                      "type": "uint256"
                    },
                    {
                      "internalType": "address",
                      "name": "pTokenAddr",
                      "type": "address"
                    },
                    {
                      "internalType": "uint256",
                      "name": "pTokenId",
                      "type": "uint256"
                    },
                    {
                      "internalType": "uint256",
                      "name": "pMinHolding",
                      "type": "uint256"
                    }
                  ],
                  "internalType": "struct IFlexFunding.PriorityDepositInfo",
                  "name": "priorityDepositInfo",
                  "type": "tuple"
                }
              ],
              "internalType": "struct IFlexFunding.FundRaiseInfo",
              "name": "fundRaiseInfo",
              "type": "tuple"
            },
            {
              "components": [
                {
                  "internalType": "uint256",
                  "name": "tokenRewardAmount",
                  "type": "uint256"
                },
                {
                  "internalType": "uint256",
                  "name": "cashRewardAmount",
                  "type": "uint256"
                }
              ],
              "internalType": "struct IFlexFunding.ProposerRewardInfo",
              "name": "proposerRewardInfo",
              "type": "tuple"
            }
          ],
          "internalType": "struct IFlexFunding.ProposalParams",
          "name": "params",
          "type": "tuple"
        }
      ],
      "name": "submitProposal",
      "outputs": [
        {
          "internalType": "bytes32",
          "name": "proposalId",
          "type": "bytes32"
        }
      ],
      "stateMutability": "nonpayable",
      "type": "function"
    }
  ],
  "bytecode": "0x608060405260016003556103e8670de0b6b3a764000060036200002391906200008d565b6200002f91906200006c565b600455600580546001600160a01b031916739ac9c636404c8d46d9eb966d7179983ba5a3941a1790553480156200006557600080fd5b50620000b9565b6000826200008857634e487b7160e01b81526012600452602481fd5b500490565b6000816000190483118215151615620000b457634e487b7160e01b81526011600452602481fd5b500290565b615fa280620000c96000396000f3fe608060405234801561001057600080fd5b50600436106101775760003560e01c80636d535f11116100d8578063a9ecfeaf1161008c578063b5b3ca2c11610066578063b5b3ca2c1461041f578063bf49999414610432578063c7aa00dd1461045957600080fd5b8063a9ecfeaf146103f0578063acc2320814610403578063b0e21e8a1461041657600080fd5b806388a020ba116100bd57806388a020ba146103995780638ecf7720146103ca5780639573167d146103dd57600080fd5b80636d535f111461034b57806380dc31411461035a57600080fd5b806341439ae51161012f57806357670a191161011457806357670a191461028d5780635dbf37db146102d45780636666c9bd146102f757600080fd5b806341439ae514610265578063438d93121461027857600080fd5b8063148cd4fd11610160578063148cd4fd146101d05780633d5af2ed146102075780633eef82301461021e57600080fd5b806305c6cc331461017c5780630676c1b7146101a5575b600080fd5b61018f61018a366004615550565b61046c565b60405161019c9190615c52565b60405180910390f35b6005546101b8906001600160a01b031681565b6040516001600160a01b03909116815260200161019c565b6101b86101de366004615691565b6001600160a01b0391821660009081526020818152604080832093835292905220600101541690565b61021060035481565b60405190815260200161019c565b61025861022c366004615691565b6001600160a01b0391909116600090815260208181526040808320938352929052206014015460ff1690565b60405161019c9190615d32565b610210610273366004615691565b610496565b61028b610286366004615659565b61071d565b005b6102c761029b366004615691565b6001600160a01b0391909116600090815260208181526040808320938352929052206029015460ff1690565b60405161019c9190615d40565b6102e76102e2366004615659565b6108dd565b604051901515815260200161019c565b610336610305366004615691565b6001600160a01b03919091166000908152602081815260408083209383529290522060178101546018909101549091565b6040805192835260208301919091520161019c565b610210670de0b6b3a764000081565b610336610368366004615691565b6001600160a01b03919091166000908152602081815260408083209383529290522060158101546016909101549091565b6102106103a73660046155b3565b600160209081526000938452604080852082529284528284209052825290205481565b6102e76103d8366004615659565b610906565b6102e76103eb366004615691565b61099c565b6102106103fe3660046156a3565b611d16565b61028b610411366004615691565b613c66565b61021060045481565b61028b61042d366004615691565b613fa0565b610445610440366004615588565b61413e565b60405161019c989796959493929190615b2e565b61028b610467366004615659565b6145d3565b6001600160a01b03811660009081526002602052604090206060906104909061462b565b92915050565b6001600160a01b03821660008181526020818152604080832085845290915280822060038101549151634941d71d60e11b81527fda34ff95e06cbf2c9c32a559cd8aadd1a10104596417d62c03db2c1258df83d360048201529293909284929190639283ae3a9060240160206040518083038186803b15801561051857600080fd5b505afa15801561052c573d6000803e3d6000fd5b505050506040513d601f19601f82011682018060405250810190610550919061589b565b61064057602683015460048054604051634941d71d60e11b81527f64c49ee5084f4940c312104c41603e43791b03dad28152afd6eadb5b960a8a8792810192909252906001600160a01b03891690639283ae3a9060240160206040518083038186803b1580156105bf57600080fd5b505afa1580156105d3573d6000803e3d6000fd5b505050506040513d601f19601f820116820180604052508101906105f7919061589b565b61060990670de0b6b3a7640000615e40565b6106139190615e40565b61061d9190615e40565b61062f670de0b6b3a764000083615e21565b6106399190615e0d565b9150610714565b60268301546004546106529190615e40565b604051634941d71d60e11b81527f64c49ee5084f4940c312104c41603e43791b03dad28152afd6eadb5b960a8a876004820152670de0b6b3a7640000906001600160a01b03891690639283ae3a9060240160206040518083038186803b1580156106bb57600080fd5b505afa1580156106cf573d6000803e3d6000fd5b505050506040513d601f19601f820116820180604052508101906106f3919061589b565b6106fd9084615df5565b6107079190615e21565b6107119190615e0d565b91505b50949350505050565b8143816001600160a01b031663b21634826040518163ffffffff1660e01b815260040160206040518083038186803b15801561075857600080fd5b505afa15801561076c573d6000803e3d6000fd5b505050506040513d601f19601f82011682018060405250810190610790919061589b565b14156107e35760405162461bcd60e51b815260206004820152601060248201527f7265656e7472616e63792067756172640000000000000000000000000000000060448201526064015b60405180910390fd5b806001600160a01b03166310fdb0a26040518163ffffffff1660e01b8152600401600060405180830381600087803b15801561081e57600080fd5b505af1158015610832573d6000803e3d6000fd5b505050508261084081614638565b6001600160a01b0316336001600160a01b03161461085d57600080fd5b82600560006101000a8154816001600160a01b0302191690836001600160a01b0316021790555050806001600160a01b031663d4f7af436040518163ffffffff1660e01b8152600401600060405180830381600087803b1580156108c057600080fd5b505af11580156108d4573d6000803e3d6000fd5b50505050505050565b6001600160a01b03821660009081526002602052604081206108ff908361471b565b9392505050565b6040517fa230c5240000000000000000000000000000000000000000000000000000000081526001600160a01b0382811660048301526000919084169063a230c5249060240160206040518083038186803b15801561096457600080fd5b505afa158015610978573d6000803e3d6000fd5b505050506040513d601f19601f820116820180604052508101906108ff9190615610565b60008260006109aa8261473d565b90506109b46151b7565b6001600160a01b038616600081815260208181526040808320898452825291829020601681015461012086015260028101549185019190915290516317ba7d8560e01b81527f2207fd6117465cefcba0abc867150698c0464aa41a293ec29ca01b67a6350c3c60048201529091906317ba7d859060240160206040518083038186803b158015610a4357600080fd5b505afa158015610a57573d6000803e3d6000fd5b505050506040513d601f19601f82011682018060405250810190610a7b919061556c565b6001600160a01b0390811660608401526040517f593e96b60000000000000000000000000000000000000000000000000000000081527fb12a3847d47fefceb164b75823af125f9aa82b76938df0ddf08c04cd314ba37c60048201529088169063593e96b69060240160206040518083038186803b158015610afc57600080fd5b505afa158015610b10573d6000803e3d6000fd5b505050506040513d601f19601f82011682018060405250810190610b34919061556c565b6001600160a01b039081166080840152600b820154166101008301526000602982015460ff166004811115610b7957634e487b7160e01b600052602160045260246000fd5b1415610ec95780602801544211610bf85760405162461bcd60e51b815260206004820152603760248201527f466c657846756e64696e673a3a70726f6365737350726f706f73616c3a3a707260448201527f6f706f73616c20696e20766f74696e6720706572696f6400000000000000000060648201526084016107da565b6040517f40de703e000000000000000000000000000000000000000000000000000000008152600481018790526001600160a01b038816906340de703e9060240160206040518083038186803b158015610c5157600080fd5b505afa158015610c65573d6000803e3d6000fd5b505050506040513d601f19601f82011682018060405250810190610c89919061556c565b6001600160a01b031660c08301819052610d0b5760405162461bcd60e51b815260206004820152602f60248201527f466c657846756e64696e673a3a70726f6365737350726f706f73616c3a3a616460448201527f6170746572206e6f7420666f756e64000000000000000000000000000000000060648201526084016107da565b60c08201516040517f76225e730000000000000000000000000000000000000000000000000000000081526001600160a01b03898116600483015260248201899052909116906376225e7390604401606060405180830381600087803b158015610d7457600080fd5b505af1158015610d88573d6000803e3d6000fd5b505050506040513d601f19601f82011682018060405250810190610dac9190615728565b505060e08301816005811115610dd257634e487b7160e01b600052602160045260246000fd5b6005811115610df157634e487b7160e01b600052602160045260246000fd5b90525060028260e001516005811115610e1a57634e487b7160e01b600052602160045260246000fd5b1415610ead5760298101805460ff1916600117905560808201516040517fdf1eb674000000000000000000000000000000000000000000000000000000008152600481018890526001600160a01b039091169063df1eb67490602401600060405180830381600087803b158015610e9057600080fd5b505af1158015610ea4573d6000803e3d6000fd5b50505050611cb8565b6029810180546004919060ff19166001835b0217905550611cb8565b6001602982015460ff166004811115610ef257634e487b7160e01b600052602160045260246000fd5b1415611c865760608201516040517f0617b0ce0000000000000000000000000000000000000000000000000000000081526001600160a01b0389811660048301526024820189905290911690630617b0ce9060440160206040518083038186803b158015610f5f57600080fd5b505afa158015610f73573d6000803e3d6000fd5b505050506040513d601f19601f82011682018060405250810190610f97919061556c565b6001600160a01b039081166101408401528781166000908152602081815260408083208a8452909152902060010154166101c083015261012082015142101561100c576040517f5d68b4f100000000000000000000000000000000000000000000000000000000815260040160405180910390fd5b6040517f30490e91000000000000000000000000000000000000000000000000000000008152600481018790526001600160a01b038816906330490e9190602401600060405180830381600087803b15801561106757600080fd5b505af115801561107b573d6000803e3d6000fd5b50505050670de0b6b3a76400006004548361014001516001600160a01b03166110a49190615e21565b6110ae9190615e0d565b610160830152604051634941d71d60e11b81527fda34ff95e06cbf2c9c32a559cd8aadd1a10104596417d62c03db2c1258df83d360048201526001600160a01b03881690639283ae3a9060240160206040518083038186803b15801561111357600080fd5b505afa158015611127573d6000803e3d6000fd5b505050506040513d601f19601f8201168201806040525081019061114b919061589b565b156111ec57604051634941d71d60e11b81527f64c49ee5084f4940c312104c41603e43791b03dad28152afd6eadb5b960a8a8760048201526001600160a01b03881690639283ae3a9060240160206040518083038186803b1580156111af57600080fd5b505afa1580156111c3573d6000803e3d6000fd5b505050506040513d601f19601f820116820180604052508101906111e7919061589b565b6112b0565b604051634941d71d60e11b81527f64c49ee5084f4940c312104c41603e43791b03dad28152afd6eadb5b960a8a876004820152670de0b6b3a7640000906001600160a01b03891690639283ae3a9060240160206040518083038186803b15801561125557600080fd5b505afa158015611269573d6000803e3d6000fd5b505050506040513d601f19601f8201168201806040525081019061128d919061589b565b8361014001516001600160a01b03166112a69190615e21565b6112b09190615e0d565b6101808301526026810154610140830151670de0b6b3a7640000916112dd916001600160a01b0316615e21565b6112e79190615e0d565b6101a08301819052610180830151610160840151602085015161130a9190615df5565b6113149190615df5565b61131e9190615df5565b8261014001516001600160a01b031610611c70576101408201516001600160a01b03166004820155600581015460ff161561173857670de0b6b3a76400008160010160060154836101a001518461018001518561016001518661014001516001600160a01b031661138f9190615e40565b6113999190615e40565b6113a39190615e40565b6113ad9190615e0d565b6113b79190615e21565b600682018190556102408301819052600a82015460058301546113ee928a926001600160a01b039081169261010090041690614a08565b611459576029810180546004919060ff19166001835b021790555060298101546040517ff854addaea7ab1ac33b2a81fdae355ba1b5600023b89719b7c224c866577421e91611446918a918a9160ff90911690615b0a565b60405180910390a1600094505050611d04565b6102408201516001600160a01b0388811660008181526001602090815260408083208c84528252808320600a880154909516835293905282902092909255516317ba7d8560e01b81527fb0326f8dfc913f537596953a938551c86ac8fe0da74c9a8cd0ee660e627dccc860048201526317ba7d859060240160206040518083038186803b1580156114e957600080fd5b505afa1580156114fd573d6000803e3d6000fd5b505050506040513d601f19601f82011682018060405250810190611521919061556c565b6001600160a01b0390811660a08401526005820154610100900481166101e08401819052825482166102008501526040516317ba7d8560e01b81527fb0326f8dfc913f537596953a938551c86ac8fe0da74c9a8cd0ee660e627dccc86004820152909163095ea7b391908a16906317ba7d859060240160206040518083038186803b1580156115af57600080fd5b505afa1580156115c3573d6000803e3d6000fd5b505050506040513d601f19601f820116820180604052508101906115e7919061556c565b6102408501516040516001600160e01b031960e085901b1681526001600160a01b0390921660048301526024820152604401602060405180830381600087803b15801561163357600080fd5b505af1158015611647573d6000803e3d6000fd5b505050506040513d601f19601f8201168201806040525081019061166b9190615610565b508160a001516001600160a01b0316635d5cdb3288846101e001518561020001518a6040518060a00160405280896102400151815260200188600c0160000154815260200188600c016000015489600c01600101546116ca9190615e40565b8152600f89015460208201819052604091820152516001600160e01b031960e088901b168152611701959493929190600401615c9f565b600060405180830381600087803b15801561171b57600080fd5b505af115801561172f573d6000803e3d6000fd5b50505050611874565b6040516317ba7d8560e01b81527fb0326f8dfc913f537596953a938551c86ac8fe0da74c9a8cd0ee660e627dccc860048201526001600160a01b038816906317ba7d859060240160206040518083038186803b15801561179757600080fd5b505afa1580156117ab573d6000803e3d6000fd5b505050506040513d601f19601f820116820180604052508101906117cf919061556c565b6001600160a01b0390811660a084018190526040517f9a3eb32b00000000000000000000000000000000000000000000000000000000815291891660048301526024820188905290639a3eb32b90604401602060405180830381600087803b15801561183a57600080fd5b505af115801561184e573d6000803e3d6000fd5b505050506040513d601f19601f820116820180604052508101906118729190615610565b505b60298101805460ff191660021790556101608201511561192b5760808201516005546101c08401516101608501516040517fceb1bfa6000000000000000000000000000000000000000000000000000000008152600481018b90526001600160a01b0393841660248201529183166044830152606482015291169063ceb1bfa690608401600060405180830381600087803b15801561191257600080fd5b505af1158015611926573d6000803e3d6000fd5b505050505b61018082015115611a625781608001516001600160a01b031663ceb1bfa687896001600160a01b031663fd310d297f8987d08c67963e4cacd5e5936c122a968c66853d58299dd822c19422271098396040518263ffffffff1660e01b815260040161199891815260200190565b60206040518083038186803b1580156119b057600080fd5b505afa1580156119c4573d6000803e3d6000fd5b505050506040513d601f19601f820116820180604052508101906119e8919061556c565b6101c08601516101808701516040516001600160e01b031960e087901b16815260048101949094526001600160a01b039283166024850152911660448301526064820152608401600060405180830381600087803b158015611a4957600080fd5b505af1158015611a5d573d6000803e3d6000fd5b505050505b6101a082015115611b0957608082015181546101c08401516101a08501516040517fceb1bfa6000000000000000000000000000000000000000000000000000000008152600481018b90526001600160a01b0393841660248201529183166044830152606482015291169063ceb1bfa690608401600060405180830381600087803b158015611af057600080fd5b505af1158015611b04573d6000803e3d6000fd5b505050505b81608001516001600160a01b031663ceb1bfa687846101000151856101c00151866101a001518761018001518861016001518961014001516001600160a01b0316611b549190615e40565b611b5e9190615e40565b611b689190615e40565b6040516001600160e01b031960e087901b16815260048101949094526001600160a01b039283166024850152911660448301526064820152608401600060405180830381600087803b158015611bbd57600080fd5b505af1158015611bd1573d6000803e3d6000fd5b5050505060808201516101408301516040517f1127b158000000000000000000000000000000000000000000000000000000008152600481018990526001600160a01b039182166024820152911690631127b15890604401600060405180830381600087803b158015611c4357600080fd5b505af1158015611c57573d6000803e3d6000fd5b5050506029820180546003925060ff1916600183610ebf565b6029810180546004919060ff1916600183611404565b6040517fb7ea643300000000000000000000000000000000000000000000000000000000815260040160405180910390fd5b60298101546040517ff854addaea7ab1ac33b2a81fdae355ba1b5600023b89719b7c224c866577421e91611cf5918a918a9160ff90911690615b0a565b60405180910390a16001945050505b611d0e8282614e4f565b505092915050565b6000826000611d248261473d565b604051634941d71d60e11b81527f2073e6ba5c75026b006fdd165596d94b89cada2e00d8e44a99d422de8ea467e0600482015290915085906001600160a01b03821690639283ae3a9060240160206040518083038186803b158015611d8857600080fd5b505afa158015611d9c573d6000803e3d6000fd5b505050506040513d601f19601f82011682018060405250810190611dc0919061589b565b600114156128c457604051634941d71d60e11b81527f57901982635f8a470a3648422f8f769cf08dc2057489be5bf0099fcb44f7d43c60048201526001600160a01b03821690639283ae3a9060240160206040518083038186803b158015611e2757600080fd5b505afa158015611e3b573d6000803e3d6000fd5b505050506040513d601f19601f82011682018060405250810190611e5f919061589b565b61207e57604051634941d71d60e11b81527ff6d5f030b79ca78dad001b87a49239ec96be97e62d13501da94c9a392700509e60048201526001600160a01b03821690639283ae3a9060240160206040518083038186803b158015611ec257600080fd5b505afa158015611ed6573d6000803e3d6000fd5b505050506040513d601f19601f82011682018060405250810190611efa919061589b565b60405163fd310d2960e01b81527f30091caaedd0994beeeeb3b7b5734296263687ae0126aaf79e5e0f8e5c1706b260048201526001600160a01b0383169063fd310d299060240160206040518083038186803b158015611f5957600080fd5b505afa158015611f6d573d6000803e3d6000fd5b505050506040513d601f19601f82011682018060405250810190611f91919061556c565b6040516370a0823160e01b81523360048201526001600160a01b0391909116906370a082319060240160206040518083038186803b158015611fd257600080fd5b505afa158015611fe6573d6000803e3d6000fd5b505050506040513d601f19601f8201168201806040525081019061200a919061589b565b101561207e5760405162461bcd60e51b815260206004820152602c60248201527f646f6e74206d656574206d696e20657263323020746f6b656e20686f6c64696e60448201527f67207265717569726d656e74000000000000000000000000000000000000000060648201526084016107da565b604051634941d71d60e11b81527f57901982635f8a470a3648422f8f769cf08dc2057489be5bf0099fcb44f7d43c60048201526001600160a01b03821690639283ae3a9060240160206040518083038186803b1580156120dd57600080fd5b505afa1580156120f1573d6000803e3d6000fd5b505050506040513d601f19601f82011682018060405250810190612115919061589b565b6001141561233857604051634941d71d60e11b81527ff6d5f030b79ca78dad001b87a49239ec96be97e62d13501da94c9a392700509e60048201526001600160a01b03821690639283ae3a9060240160206040518083038186803b15801561217c57600080fd5b505afa158015612190573d6000803e3d6000fd5b505050506040513d601f19601f820116820180604052508101906121b4919061589b565b60405163fd310d2960e01b81527f30091caaedd0994beeeeb3b7b5734296263687ae0126aaf79e5e0f8e5c1706b260048201526001600160a01b0383169063fd310d299060240160206040518083038186803b15801561221357600080fd5b505afa158015612227573d6000803e3d6000fd5b505050506040513d601f19601f8201168201806040525081019061224b919061556c565b6040516370a0823160e01b81523360048201526001600160a01b0391909116906370a082319060240160206040518083038186803b15801561228c57600080fd5b505afa1580156122a0573d6000803e3d6000fd5b505050506040513d601f19601f820116820180604052508101906122c4919061589b565b10156123385760405162461bcd60e51b815260206004820152602d60248201527f646f6e74206d656574206d696e2065726337323120746f6b656e20686f6c646960448201527f6e67207265717569726d656e740000000000000000000000000000000000000060648201526084016107da565b604051634941d71d60e11b81527f57901982635f8a470a3648422f8f769cf08dc2057489be5bf0099fcb44f7d43c60048201526001600160a01b03821690639283ae3a9060240160206040518083038186803b15801561239757600080fd5b505afa1580156123ab573d6000803e3d6000fd5b505050506040513d601f19601f820116820180604052508101906123cf919061589b565b600214156126a157604051634941d71d60e11b81527ff6d5f030b79ca78dad001b87a49239ec96be97e62d13501da94c9a392700509e60048201526001600160a01b03821690639283ae3a9060240160206040518083038186803b15801561243657600080fd5b505afa15801561244a573d6000803e3d6000fd5b505050506040513d601f19601f8201168201806040525081019061246e919061589b565b60405163fd310d2960e01b81527f30091caaedd0994beeeeb3b7b5734296263687ae0126aaf79e5e0f8e5c1706b260048201526001600160a01b0383169063fd310d299060240160206040518083038186803b1580156124cd57600080fd5b505afa1580156124e1573d6000803e3d6000fd5b505050506040513d601f19601f82011682018060405250810190612505919061556c565b6001600160a01b031662fdd58e33846001600160a01b0316639283ae3a7fb34f156369747125f679c86d97f51861a5a2a9f927a1addd4354acbaaa88ae576040518263ffffffff1660e01b815260040161256191815260200190565b60206040518083038186803b15801561257957600080fd5b505afa15801561258d573d6000803e3d6000fd5b505050506040513d601f19601f820116820180604052508101906125b1919061589b565b6040516001600160e01b031960e085901b1681526001600160a01b039092166004830152602482015260440160206040518083038186803b1580156125f557600080fd5b505afa158015612609573d6000803e3d6000fd5b505050506040513d601f19601f8201168201806040525081019061262d919061589b565b10156126a15760405162461bcd60e51b815260206004820152602e60248201527f646f6e74206d656574206d696e206572633131353520746f6b656e20686f6c6460448201527f696e67207265717569726d656e7400000000000000000000000000000000000060648201526084016107da565b604051634941d71d60e11b81527f57901982635f8a470a3648422f8f769cf08dc2057489be5bf0099fcb44f7d43c60048201526001600160a01b03821690639283ae3a9060240160206040518083038186803b15801561270057600080fd5b505afa158015612714573d6000803e3d6000fd5b505050506040513d601f19601f82011682018060405250810190612738919061589b565b600314156128c4576040516317ba7d8560e01b81527f7a8526bca00f0726b2fab8c3bfd5b00bfa84d07f111e48263b13de605eefcdda60048201526000906001600160a01b038316906317ba7d859060240160206040518083038186803b1580156127a257600080fd5b505afa1580156127b6573d6000803e3d6000fd5b505050506040513d601f19601f820116820180604052508101906127da919061556c565b6040517f5dbf37db0000000000000000000000000000000000000000000000000000000081526001600160a01b03848116600483015233602483015291925090821690635dbf37db9060440160206040518083038186803b15801561283e57600080fd5b505afa158015612852573d6000803e3d6000fd5b505050506040513d601f19601f820116820180604052508101906128769190615610565b6128c25760405162461bcd60e51b815260206004820152601060248201527f6e6f7420696e2077686974656c6973740000000000000000000000000000000060448201526064016107da565b505b6040850135158015906128de575060208501356040860135105b806128f55750670de0b6b3a7640000610400860135115b1561292c576040517f2dadcff600000000000000000000000000000000000000000000000000000000815260040160405180910390fd5b61293e610240860161022087016155f4565b151560011480156129805750600361295e610260870161024088016156ed565b600381111561297d57634e487b7160e01b600052602160045260246000fd5b14155b80156129b35750600061299b6102a087016102808801615550565b6001600160a01b031614806129b357506102c0850135155b156129ea576040517fb21a591a00000000000000000000000000000000000000000000000000000000815260040160405180910390fd5b6129fc61030086016102e087016155f4565b15156001148015612a3e57506003612a1c610360870161034088016156ed565b6003811115612a3b57634e487b7160e01b600052602160045260246000fd5b14155b8015612abd57506000612a596103a087016103808801615550565b6001600160a01b03161480612a7157506103c0850135155b80612a7f5750610300850135155b80612a8d5750610320850135155b80612abd5750612aa76101a08601356101c0870135615e40565b612abb610320870135610300880135615e21565b115b15612af4576040517fb95baa2e00000000000000000000000000000000000000000000000000000000815260040160405180910390fd5b612bc7604051806102a001604052806000815260200160006001600160a01b0316815260200160006001600160a01b0316815260200160006001600160a01b0316815260200160006001600160a01b0316815260200160006001600160a01b031681526020016000801916815260200160008152602001600081526020016000815260200160008152602001600081526020016000815260200160008152602001600081526020016000815260200160008152602001600081526020016000815260200160008152602001600081525090565b6040516317ba7d8560e01b81527f6f48e16963713446db50a1503860d8e1fc3c888da56a85afcaa6dc29503cc61060048201526001600160a01b038816906317ba7d859060240160206040518083038186803b158015612c2657600080fd5b505afa158015612c3a573d6000803e3d6000fd5b505050506040513d601f19601f82011682018060405250810190612c5e919061556c565b6001600160a01b03166020820152600354612ca090612c7c90614e5e565b604051602001612c8c9190615ac5565b604051602081830303815290604052614fac565b60c0820152612cb560808701606088016155f4565b15612e2e576000612ccc60a0880160808901615550565b6001600160a01b03161480612cfb57506000612cf061014088016101208901615550565b6001600160a01b0316145b80612d08575060e0860135155b15612d3f576040517f1d0bec7000000000000000000000000000000000000000000000000000000000815260040160405180910390fd5b670de0b6b3a7640000612d56610160880188615db8565b608001351180612d845750612d6f610160870187615db8565b35612d7e610160880188615db8565b60200135105b80612db05750612d98610160870187615db8565b60200135612daa610160880188615db8565b60400135105b15612de7576040517ff224d7d300000000000000000000000000000000000000000000000000000000815260040160405180910390fd5b670de0b6b3a76400006103e08701351115612e2e576040517f5190664000000000000000000000000000000000000000000000000000000000815260040160405180910390fd5b60c08101516040517fb73dc38900000000000000000000000000000000000000000000000000000000815260048101919091526001600160a01b0388169063b73dc38990602401600060405180830381600087803b158015612e8f57600080fd5b505af1158015612ea3573d6000803e3d6000fd5b5050604051634941d71d60e11b81527f6e9fd67c3f2ca4e2b4e4b45b33b985dc3a1bffcadea24d12440a5901f72217b56004820152600092506001600160a01b038a169150639283ae3a9060240160206040518083038186803b158015612f0957600080fd5b505afa158015612f1d573d6000803e3d6000fd5b505050506040513d601f19601f82011682018060405250810190612f41919061589b565b15612f4d576001612f50565b60005b604080516101008101825233815281516101808101909252919250602080830191908190612f80908c018c615550565b6001600160a01b031681526020018a6000016020013581526020018a600001604001358152602001600081526020018a6000016060016020810190612fc591906155f4565b15158152602001612fdc60a08c0160808d01615550565b6001600160a01b0316815260a0808c0135602083015260c08c0135604083015260e08c013560608301526101008c01356080830152016130246101408c016101208d01615550565b6001600160a01b031681526020016130446101608c016101408d01615550565b6001600160a01b031681525081526020016040518061012001604052808a8061016001906130729190615db8565b3581526020016130866101608c018c615db8565b60209081013582520161309d6101608c018c615db8565b6040013581526020016130b46101608c018c615db8565b6060013581526020016130cb6101608c018c615db8565b6080013581526020016130e26101608c018c615db8565b6130f39060c081019060a0016155f4565b151581526020016131086101608c018c615db8565b6131199060e081019060c001615550565b6001600160a01b031681526020016131356101608c018c615db8565b6131439060e0810190615d4e565b8080601f01602080910402602001604051908101604052809392919081815260200183838082843760009201919091525050509082525060200161318b6101608c018c615db8565b61319a90610100810190615d4e565b8080601f01602080910402602001604051908101604052809392919081815260200183838082843760009201919091525050509152508152604080516101208101909152602090910190806131f76101a08c016101808d01615709565b600181111561321657634e487b7160e01b600052602160045260246000fd5b81526101a08b013560208201526101c08b013560408201526101e08b013560608201526102008b0135608082015260a0016132596102408c016102208d016155f4565b15158152602001613273368c90038c016102408d01615761565b815260200161328a6103008c016102e08d016155f4565b151581526020016132a4368c90038c016103008d016157fc565b905281526040805180820182526103e08b013581526104008b01356020828101919091528301520160018360018111156132ee57634e487b7160e01b600052602160045260246000fd5b146132fa5760006132fc565b425b8152602001600183600181111561332357634e487b7160e01b600052602160045260246000fd5b1461332f5760006133d0565b604051634941d71d60e11b81527fee63cc82ca6990a4cc5fa3ca10d8a5281ae1758a8d8f22892c4badb7cacd111e60048201526001600160a01b038b1690639283ae3a9060240160206040518083038186803b15801561338e57600080fd5b505afa1580156133a2573d6000803e3d6000fd5b505050506040513d601f19601f820116820180604052508101906133c6919061589b565b6133d09042615df5565b815260200160018360018111156133f757634e487b7160e01b600052602160045260246000fd5b14613403576001613406565b60005b600481111561342557634e487b7160e01b600052602160045260246000fd5b8152506000808a6001600160a01b03166001600160a01b0316815260200190815260200160002060008460c00151815260200190815260200160002060008201518160000160006101000a8154816001600160a01b0302191690836001600160a01b0316021790555060208201518160010160008201518160000160006101000a8154816001600160a01b0302191690836001600160a01b0316021790555060208201518160010155604082015181600201556060820151816003015560808201518160040160006101000a81548160ff02191690831515021790555060a08201518160040160016101000a8154816001600160a01b0302191690836001600160a01b0316021790555060c0820151816005015560e08201518160060155610100820151816007015561012082015181600801556101408201518160090160006101000a8154816001600160a01b0302191690836001600160a01b0316021790555061016082015181600a0160006101000a8154816001600160a01b0302191690836001600160a01b031602179055505050604082015181600c01600082015181600001556020820151816001015560408201518160020155606082015181600301556080820151816004015560a08201518160050160006101000a81548160ff02191690831515021790555060c08201518160050160016101000a8154816001600160a01b0302191690836001600160a01b0316021790555060e082015181600601908051906020019061365b92919061525a565b50610100820151805161367891600784019160209091019061525a565b50505060608201518051601483018054909190829060ff1916600183818111156136b257634e487b7160e01b600052602160045260246000fd5b021790555060208201516001808301919091556040830151600283015560608301516003808401919091556080840151600484015560a084015160058401805491151560ff1992831617905560c0850151805160068601805492959094919385931691849081111561373457634e487b7160e01b600052602160045260246000fd5b021790555060208281015182546040808601516001600160a01b031665010000000000027fffffffffffffff0000000000000000000000000000000000000000ffffffffff63ffffffff909416610100908102949094167fffffffffffffff000000000000000000000000000000000000000000000000ff90931692909217919091178455606085015160018086019190915560809095015160029094019390935560e086015160098601805491151560ff19928316179055908601518051600a870190815592810151600b87015592830151600c860180549495939491939092919091169083600381111561383a57634e487b7160e01b600052602160045260246000fd5b021790555060608201516003820155608080830151600480840180547fffffffffffffffffffffffff0000000000000000000000000000000000000000166001600160a01b039093169290921790915560a080850151600585015560c094850151600690940193909355908701518051602588015560200151602687015590860151602786015590850151602885015560e0850151602985018054919450925060ff191690600190849081111561390157634e487b7160e01b600052602160045260246000fd5b0217905550505060208083015160c084015160408051938401815260008452517f2b0974d00000000000000000000000000000000000000000000000000000000081526001600160a01b0390921692632b0974d092613966928d929091600401615d01565b600060405180830381600087803b15801561398057600080fd5b505af1158015613994573d6000803e3d6000fd5b5050505060c08201516040516317ba7d8560e01b81527f6f48e16963713446db50a1503860d8e1fc3c888da56a85afcaa6dc29503cc61060048201526001600160a01b038a169163896ae9ba91339084906317ba7d859060240160206040518083038186803b158015613a0657600080fd5b505afa158015613a1a573d6000803e3d6000fd5b505050506040513d601f19601f82011682018060405250810190613a3e919061556c565b6040516001600160e01b031960e086901b16815260048101939093526001600160a01b039182166024840152166044820152606401600060405180830381600087803b158015613a8d57600080fd5b505af1158015613aa1573d6000803e3d6000fd5b50505050600160036000828254613ab89190615df5565b90915550506040517f593e96b60000000000000000000000000000000000000000000000000000000081527fb12a3847d47fefceb164b75823af125f9aa82b76938df0ddf08c04cd314ba37c60048201526001600160a01b0389169063593e96b69060240160206040518083038186803b158015613b3557600080fd5b505afa158015613b49573d6000803e3d6000fd5b505050506040513d601f19601f82011682018060405250810190613b6d919061556c565b6001600160a01b031660408301526000816001811115613b9d57634e487b7160e01b600052602160045260246000fd5b1415613c0c5781604001516001600160a01b031663df1eb6748360c001516040518263ffffffff1660e01b8152600401613bd991815260200190565b600060405180830381600087803b158015613bf357600080fd5b505af1158015613c07573d6000803e3d6000fd5b505050505b60c0820151604080516001600160a01b038b16815260208101929092523382820152517f1dfc244cab0c3cc88645f305adf7c51524a495c4eca07e193a69f39152da8fb79181900360600190a1505050611d0e8282614e4f565b816000613c728261473d565b6001600160a01b0385166000908152600160209081526040808320878452825280832033845290915290205490915080613d145760405162461bcd60e51b815260206004820152603660248201527f466c65782046756e64696e673a3a72657472756e546f6b656e546f417070726f60448201527f7665723a3a6e6f2066756e6420746f2072657475726e0000000000000000000060648201526084016107da565b6001600160a01b0385811660009081526020818152604080832088845290915290819020600581015491516370a0823160e01b8152306004820152909261010090920490911690839082906370a082319060240160206040518083038186803b158015613d8057600080fd5b505afa158015613d94573d6000803e3d6000fd5b505050506040513d601f19601f82011682018060405250810190613db8919061589b565b1015613e2c5760405162461bcd60e51b815260206004820152603760248201527f466c65782046756e64696e673a3a72657472756e546f6b656e546f417070726f60448201527f7665723a3a496e73756666696369656e742046756e647300000000000000000060648201526084016107da565b6004602983015460ff166004811115613e5557634e487b7160e01b600052602160045260246000fd5b14613ec85760405162461bcd60e51b815260206004820152603060248201527f466c65782046756e64696e673a3a72657472756e546f6b656e546f417070726f60448201527f7665723a3a63616e742072657475726e0000000000000000000000000000000060648201526084016107da565b6001600160a01b0387811660009081526001602090815260408083208a845282528083203380855292528083209290925590517fa9059cbb0000000000000000000000000000000000000000000000000000000081526004810191909152602481018590529082169063a9059cbb90604401602060405180830381600087803b158015613f5457600080fd5b505af1158015613f68573d6000803e3d6000fd5b505050506040513d601f19601f82011682018060405250810190613f8c9190615610565b50505050613f9a8282614e4f565b50505050565b8143816001600160a01b031663b21634826040518163ffffffff1660e01b815260040160206040518083038186803b158015613fdb57600080fd5b505afa158015613fef573d6000803e3d6000fd5b505050506040513d601f19601f82011682018060405250810190614013919061589b565b14156140615760405162461bcd60e51b815260206004820152601060248201527f7265656e7472616e63792067756172640000000000000000000000000000000060448201526064016107da565b806001600160a01b03166310fdb0a26040518163ffffffff1660e01b8152600401600060405180830381600087803b15801561409c57600080fd5b505af11580156140b0573d6000803e3d6000fd5b50505050826140be81614638565b6001600160a01b0316336001600160a01b0316146140db57600080fd5b670de0b6b3a7640000831080156140f25750600083115b6140fb57600080fd5b8260048190555050806001600160a01b031663d4f7af436040518163ffffffff1660e01b8152600401600060405180830381600087803b1580156108c057600080fd5b6000602081815292815260408082208452918152819020805482516101808101845260018301546001600160a01b0390811682526002840154828701526003840154828601526004840154606080840191909152600585015460ff808216151560808087019190915261010092839004851660a080880191909152600689015460c08089019190915260078a015460e0808a019190915260088b01548987015260098b0154610120808b0191909152600a8c015489166101408b0152600b8c015489166101608b01528c519081018d52600c8c0180548252600d8d01549e82019e909e52600e8c01549c81019c909c52600f8b0154968c019690965260108a0154928b019290925260118901549283161515908a015291900483169087015260128501805492909416969295939084019161427890615e83565b80601f01602080910402602001604051908101604052809291908181526020018280546142a490615e83565b80156142f15780601f106142c6576101008083540402835291602001916142f1565b820191906000526020600020905b8154815290600101906020018083116142d457829003601f168201915b5050505050815260200160078201805461430a90615e83565b80601f016020809104026020016040519081016040528092919081815260200182805461433690615e83565b80156143835780601f1061435857610100808354040283529160200191614383565b820191906000526020600020905b81548152906001019060200180831161436657829003601f168201915b50505091909252505060408051610120810190915260148401805493949391925090829060ff1660018111156143c957634e487b7160e01b600052602160045260246000fd5b60018111156143e857634e487b7160e01b600052602160045260246000fd5b8152602001600182015481526020016002820154815260200160038201548152602001600482015481526020016005820160009054906101000a900460ff16151515158152602001600682016040518060a00160405290816000820160009054906101000a900460ff16600381111561447157634e487b7160e01b600052602160045260246000fd5b600381111561449057634e487b7160e01b600052602160045260246000fd5b81528154610100810463ffffffff16602080840191909152650100000000009091046001600160a01b031660408084019190915260018401546060840152600290930154608090920191909152918352600984015460ff908116151584840152815160e081018352600a860180548252600b87015494820194909452600c8601549483019490939284019116600381111561453b57634e487b7160e01b600052602160045260246000fd5b600381111561455a57634e487b7160e01b600052602160045260246000fd5b8152600382015460208083019190915260048301546001600160a01b03166040808401919091526005840154606084015260069093015460809092019190915291909252815180830190925260258501548252602685015490820152602784015460288501546029909501549394919390925060ff1688565b816145de8133614fc8565b6001600160a01b0383166000908152600260205260409020614600908361471b565b614626576001600160a01b0383166000908152600260205260409020613f9a908361501e565b505050565b606060006108ff83615033565b6000816001600160a01b03166348f7f2a36040518163ffffffff1660e01b815260040160206040518083038186803b15801561467357600080fd5b505afa158015614687573d6000803e3d6000fd5b505050506040513d601f19601f820116820180604052508101906146ab919061556c565b6001600160a01b0316638da5cb5b6040518163ffffffff1660e01b815260040160206040518083038186803b1580156146e357600080fd5b505afa1580156146f7573d6000803e3d6000fd5b505050506040513d601f19601f82011682018060405250810190610490919061556c565b6001600160a01b038116600090815260018301602052604081205415156108ff565b6040805160808101825260008082526020820181905291810182905260608101919091525a81600001818152505043826001600160a01b031663b21634826040518163ffffffff1660e01b815260040160206040518083038186803b1580156147a557600080fd5b505afa1580156147b9573d6000803e3d6000fd5b505050506040513d601f19601f820116820180604052508101906147dd919061589b565b141561482b5760405162461bcd60e51b815260206004820152601060248201527f7265656e7472616e63792067756172640000000000000000000000000000000060448201526064016107da565b816001600160a01b03166310fdb0a26040518163ffffffff1660e01b8152600401600060405180830381600087803b15801561486657600080fd5b505af115801561487a573d6000803e3d6000fd5b50506040517f72c6838f0000000000000000000000000000000000000000000000000000000081527f1f2fd42ad6a6cacd573c4b212beb7a4e2499ad45d742a65337097f130e71daff6004820152600092506001600160a01b03851691506372c6838f9060240160206040518083038186803b1580156148f957600080fd5b505afa15801561490d573d6000803e3d6000fd5b505050506040513d601f19601f82011682018060405250810190614931919061556c565b90506001600160a01b03811661494d5760006020830152614a02565b6001600160a01b038181166060840181905283516040517f43a8a3f1000000000000000000000000000000000000000000000000000000008152928616600484015260248301526000918291906343a8a3f190604401604080518083038186803b1580156149ba57600080fd5b505afa1580156149ce573d6000803e3d6000fd5b505050506040513d601f19601f820116820180604052508101906149f2919061562c565b9015156020860152604085015250505b50919050565b6040516370a0823160e01b81526001600160a01b03848116600483015260009184918491908316906370a082319060240160206040518083038186803b158015614a5157600080fd5b505afa158015614a65573d6000803e3d6000fd5b505050506040513d601f19601f82011682018060405250810190614a89919061589b565b1080614b2d57506040517fdd62ed3e0000000000000000000000000000000000000000000000000000000081526001600160a01b03868116600483015230602483015284919083169063dd62ed3e9060440160206040518083038186803b158015614af357600080fd5b505afa158015614b07573d6000803e3d6000fd5b505050506040513d601f19601f82011682018060405250810190614b2b919061589b565b105b15614b3c576000915050614e47565b6000816001600160a01b031663dd62ed3e30896001600160a01b03166317ba7d857fb0326f8dfc913f537596953a938551c86ac8fe0da74c9a8cd0ee660e627dccc86040518263ffffffff1660e01b8152600401614b9c91815260200190565b60206040518083038186803b158015614bb457600080fd5b505afa158015614bc8573d6000803e3d6000fd5b505050506040513d601f19601f82011682018060405250810190614bec919061556c565b6040516001600160e01b031960e085901b1681526001600160a01b0392831660048201529116602482015260440160206040518083038186803b158015614c3257600080fd5b505afa158015614c46573d6000803e3d6000fd5b505050506040513d601f19601f82011682018060405250810190614c6a919061589b565b90506000614c788583615df5565b6040516317ba7d8560e01b81527fb0326f8dfc913f537596953a938551c86ac8fe0da74c9a8cd0ee660e627dccc860048201529091506001600160a01b038085169163095ea7b3918b16906317ba7d859060240160206040518083038186803b158015614ce457600080fd5b505afa158015614cf8573d6000803e3d6000fd5b505050506040513d601f19601f82011682018060405250810190614d1c919061556c565b6040516001600160e01b031960e084901b1681526001600160a01b03909116600482015260248101849052604401602060405180830381600087803b158015614d6457600080fd5b505af1158015614d78573d6000803e3d6000fd5b505050506040513d601f19601f82011682018060405250810190614d9c9190615610565b506040517f23b872dd0000000000000000000000000000000000000000000000000000000081526001600160a01b038881166004830152306024830152604482018790528416906323b872dd90606401602060405180830381600087803b158015614e0657600080fd5b505af1158015614e1a573d6000803e3d6000fd5b505050506040513d601f19601f82011682018060405250810190614e3e9190615610565b50600193505050505b949350505050565b614e5a82823361508f565b5050565b606081614e9e57505060408051808201909152600181527f3000000000000000000000000000000000000000000000000000000000000000602082015290565b8160005b8115614ec85780614eb281615eb8565b9150614ec19050600a83615e0d565b9150614ea2565b60008167ffffffffffffffff811115614ef157634e487b7160e01b600052604160045260246000fd5b6040519080825280601f01601f191660200182016040528015614f1b576020820181803683370190505b5090505b8415614e4757614f30600183615e40565b9150614f3d600a86615ed3565b614f48906030615df5565b60f81b818381518110614f6b57634e487b7160e01b600052603260045260246000fd5b60200101907effffffffffffffffffffffffffffffffffffffffffffffffffffffffffffff1916908160001a905350614fa5600a86615e0d565b9450614f1f565b6000815160001415614fc057506000919050565b506020015190565b614fd28282610906565b614e5a5760405162461bcd60e51b815260206004820152600b60248201527f6f6e6c795374657761726400000000000000000000000000000000000000000060448201526064016107da565b60006108ff836001600160a01b038416615168565b60608160000180548060200260200160405190810160405280929190818152602001828054801561508357602002820191906000526020600020905b81548152602001906001019080831161506f575b50505050509050919050565b81602001511561512d5781606001516001600160a01b0316635e5eb01384835a86516150bb9190615e40565b60408088015190516001600160e01b031960e087901b1681526001600160a01b03948516600482015293909216602484015260448301526064820152608401600060405180830381600087803b15801561511457600080fd5b505af1158015615128573d6000803e3d6000fd5b505050505b826001600160a01b031663d4f7af436040518163ffffffff1660e01b8152600401600060405180830381600087803b1580156108c057600080fd5b60008181526001830160205260408120546151af57508154600181810184556000848152602080822090930184905584548482528286019093526040902091909155610490565b506000610490565b6040518061026001604052806151cb6152de565b815260006020820181905260408201819052606082018190526080820181905260a0820181905260c0820181905260e08201819052610100820181905261012082018190526101408201819052610160820181905261018082018190526101a082018190526101c082018190526101e08201819052610200820181905261022082018190526102409091015290565b82805461526690615e83565b90600052602060002090601f01602090048101928261528857600085556152ce565b82601f106152a157805160ff19168380011785556152ce565b828001600101855582156152ce579182015b828111156152ce5782518255916020019190600101906152b3565b506152da92915061544b565b5090565b60405180610100016040528060006001600160a01b0316815260200161538460405180610180016040528060006001600160a01b0316815260200160008152602001600081526020016000815260200160001515815260200160006001600160a01b031681526020016000815260200160008152602001600081526020016000815260200160006001600160a01b0316815260200160006001600160a01b031681525090565b81526020016153e3604051806101200160405280600081526020016000815260200160008152602001600081526020016000815260200160001515815260200160006001600160a01b0316815260200160608152602001606081525090565b81526020016153f0615460565b8152602001615412604051806040016040528060008152602001600081525090565b815260200160008152602001600081526020016000600481111561544657634e487b7160e01b600052602160045260246000fd5b905290565b5b808211156152da576000815560010161544c565b6040805161012081019091528060008152602001600081526020016000815260200160008152602001600081526020016000151581526020016154cc6040805160a081019091528060008152600060208201819052604082018190526060820181905260809091015290565b8152600060208201526040016154466040518060e0016040528060008152602001600081526020016000600381111561551557634e487b7160e01b600052602160045260246000fd5b81526020016000815260200160006001600160a01b0316815260200160008152602001600081525090565b803561554b81615f3c565b919050565b600060208284031215615561578081fd5b81356108ff81615f3c565b60006020828403121561557d578081fd5b81516108ff81615f3c565b6000806040838503121561559a578081fd5b82356155a581615f3c565b946020939093013593505050565b6000806000606084860312156155c7578081fd5b83356155d281615f3c565b92506020840135915060408401356155e981615f3c565b809150509250925092565b600060208284031215615605578081fd5b81356108ff81615f51565b600060208284031215615621578081fd5b81516108ff81615f51565b6000806040838503121561563e578182fd5b825161564981615f51565b6020939093015192949293505050565b6000806040838503121561566b578182fd5b823561567681615f3c565b9150602083013561568681615f3c565b809150509250929050565b6000806040838503121561559a578182fd5b600080604083850312156156b5578182fd5b82356156c081615f3c565b9150602083013567ffffffffffffffff8111156156db578182fd5b83016104208186031215615686578182fd5b6000602082840312156156fe578081fd5b81356108ff81615f5f565b60006020828403121561571a578081fd5b8135600281106108ff578182fd5b60008060006060848603121561573c578081fd5b83516006811061574a578182fd5b602085015160409095015190969495509392505050565b600060a08284031215615772578081fd5b60405160a0810181811067ffffffffffffffff821117156157a157634e487b7160e01b83526041600452602483fd5b60405282356157af81615f5f565b8152602083013563ffffffff811681146157c7578283fd5b602082015260408301356157da81615f3c565b6040820152606083810135908201526080928301359281019290925250919050565b600060e0828403121561580d578081fd5b60405160e0810181811067ffffffffffffffff8211171561583c57634e487b7160e01b83526041600452602483fd5b80604052508235815260208301356020820152604083013561585d81615f5f565b60408201526060838101359082015261587860808401615540565b608082015260a083013560a082015260c083013560c08201528091505092915050565b6000602082840312156158ac578081fd5b5051919050565b600081518084526158cb816020860160208601615e57565b601f017fffffffffffffffffffffffffffffffffffffffffffffffffffffffffffffffe0169290920160200192915050565b6002811061590d5761590d615f13565b9052565b6005811061590d5761590d615f13565b805161592c81615f29565b825260208181015163ffffffff16908301526040808201516001600160a01b03169083015260608082015190830152608090810151910152565b6159718282516158fd565b6020810151602083015260408101516040830152606081015160608301526080810151608083015260a0810151151560a083015260c08101516159b760c0840182615921565b5060e081015180151561016084015250610100810151614626610180840182805182526020810151602083015260408101516159f281615f29565b6040830152606081810151908301526080808201516001600160a01b03169083015260a0808201519083015260c090810151910152565b6000610120825184526020830151602085015260408301516040850152606083015160608501526080830151608085015260a0830151615a6d60a086018215159052565b5060c0830151615a8860c08601826001600160a01b03169052565b5060e08301518160e0860152615aa0828601826158b3565b9150506101008084015185830382870152615abb83826158b3565b9695505050505050565b7f46756e64696e6723000000000000000000000000000000000000000000000000815260008251615afd816008850160208701615e57565b9190910160080192915050565b6001600160a01b03841681526020810183905260608101614e476040830184615911565b6001600160a01b038981168252885116602082015260006104c060208a0151604084015260408a0151606084015260608a0151608084015260808a0151615b7960a085018215159052565b5060a08a01516001600160a01b03811660c08501525060c08a015160e0848101919091528a0151610100808501919091528a0151610120808501919091528a0151610140808501919091528a0151610160615bde818601836001600160a01b03169052565b8b01516001600160a01b0316610180850152506101a08301819052615c058184018a615a29565b915050615c166101c0830188615966565b855161042083015260208601516104408301528461046083015283610480830152615c456104a0830184615911565b9998505050505050505050565b6020808252825182820181905260009190848201906040850190845b81811015615c935783516001600160a01b031683529284019291840191600101615c6e565b50909695505050505050565b6000610120820190506001600160a01b03808816835260208188168185015281871660408501528560608501526080840191508460005b6005811015615cf357815184529282019290820190600101615cd6565b505050509695505050505050565b6001600160a01b0384168152826020820152606060408201526000615d2960608301846158b3565b95945050505050565b6020810161049082846158fd565b602081016104908284615911565b60008083357fffffffffffffffffffffffffffffffffffffffffffffffffffffffffffffffe1843603018112615d82578283fd5b83018035915067ffffffffffffffff821115615d9c578283fd5b602001915036819003821315615db157600080fd5b9250929050565b600082357ffffffffffffffffffffffffffffffffffffffffffffffffffffffffffffffee1833603018112615deb578182fd5b9190910192915050565b60008219821115615e0857615e08615ee7565b500190565b600082615e1c57615e1c615efd565b500490565b6000816000190483118215151615615e3b57615e3b615ee7565b500290565b600082821015615e5257615e52615ee7565b500390565b60005b83811015615e72578181015183820152602001615e5a565b83811115613f9a5750506000910152565b600181811c90821680615e9757607f821691505b60208210811415614a0257634e487b7160e01b600052602260045260246000fd5b6000600019821415615ecc57615ecc615ee7565b5060010190565b600082615ee257615ee2615efd565b500690565b634e487b7160e01b600052601160045260246000fd5b634e487b7160e01b600052601260045260246000fd5b634e487b7160e01b600052602160045260246000fd5b60048110615f3957615f39615f13565b50565b6001600160a01b0381168114615f3957600080fd5b8015158114615f3957600080fd5b60048110615f3957600080fdfea26469706673582212203972db71011e268d962b3455630f915586c2a7794a5024b262273875ec2dcd3964736f6c63430008040033",
  "linkReferences": {},
  "deployedLinkReferences": {}
}