{
  "_format": "hh-sol-artifact-1",
  "contractName": "FlexInvestmentPoolAdapterContract",
  "sourceName": "contracts/flex/adatpers/FlexFundingPoolAdapter.sol",
  "abi": [
    {
      "inputs": [],
      "name": "ExceedMaxDepositAmount",
      "type": "error"
    },
    {
      "inputs": [],
      "name": "ExceedMaxFundingAmount",
      "type": "error"
    },
    {
      "inputs": [],
      "name": "FundingProposalNotFinalize",
      "type": "error"
    },
    {
      "inputs": [],
      "name": "LessMinDepositAmount",
      "type": "error"
    },
    {
      "inputs": [],
      "name": "MaxInvestorReach",
      "type": "error"
    },
    {
      "inputs": [],
      "name": "NotInFundRaise",
      "type": "error"
    },
    {
      "anonymous": false,
      "inputs": [
        {
          "indexed": false,
          "internalType": "address",
          "name": "daoAddress",
          "type": "address"
        },
        {
          "indexed": false,
          "internalType": "bytes32",
          "name": "proposalId",
          "type": "bytes32"
        },
        {
          "indexed": false,
          "internalType": "uint256",
          "name": "amount",
          "type": "uint256"
        },
        {
          "indexed": false,
          "internalType": "address",
          "name": "account",
          "type": "address"
        }
      ],
      "name": "Deposit",
      "type": "event"
    },
    {
      "anonymous": false,
      "inputs": [
        {
          "indexed": false,
          "internalType": "address",
          "name": "daoAddress",
          "type": "address"
        },
        {
          "indexed": false,
          "internalType": "string",
          "name": "name",
          "type": "string"
        },
        {
          "indexed": false,
          "internalType": "bytes32",
          "name": "hashName",
          "type": "bytes32"
        }
      ],
      "name": "InvestorMembershipCreated",
      "type": "event"
    },
    {
      "anonymous": false,
      "inputs": [
        {
          "indexed": false,
          "internalType": "address",
          "name": "daoAddress",
          "type": "address"
        },
        {
          "indexed": false,
          "internalType": "bytes32",
          "name": "proposalId",
          "type": "bytes32"
        },
        {
          "indexed": false,
          "internalType": "uint256",
          "name": "amount",
          "type": "uint256"
        },
        {
          "indexed": false,
          "internalType": "address",
          "name": "account",
          "type": "address"
        }
      ],
      "name": "WithDraw",
      "type": "event"
    },
    {
      "inputs": [
        {
          "internalType": "contract DaoRegistry",
          "name": "dao",
          "type": "address"
        },
        {
          "internalType": "bytes32",
          "name": "proposalId",
          "type": "bytes32"
        },
        {
          "internalType": "address",
          "name": "account",
          "type": "address"
        }
      ],
      "name": "balanceOf",
      "outputs": [
        {
          "internalType": "uint160",
          "name": "",
          "type": "uint160"
        }
      ],
      "stateMutability": "view",
      "type": "function"
    },
    {
      "inputs": [
        {
          "internalType": "contract DaoRegistry",
          "name": "dao",
          "type": "address"
        }
      ],
      "name": "clearInvestorWhitelist",
      "outputs": [],
      "stateMutability": "nonpayable",
      "type": "function"
    },
    {
      "inputs": [
        {
          "internalType": "contract DaoRegistry",
          "name": "dao",
          "type": "address"
        },
        {
          "internalType": "bytes32",
          "name": "proposalId",
          "type": "bytes32"
        },
        {
          "internalType": "uint256",
          "name": "amount",
          "type": "uint256"
        }
      ],
      "name": "deposit",
      "outputs": [],
      "stateMutability": "nonpayable",
      "type": "function"
    },
    {
      "inputs": [
        {
          "internalType": "contract DaoRegistry",
          "name": "dao",
          "type": "address"
        },
        {
          "internalType": "bytes32",
          "name": "proposalId",
          "type": "bytes32"
        }
      ],
      "name": "escorwExtraFreeInFund",
      "outputs": [],
      "stateMutability": "nonpayable",
      "type": "function"
    },
    {
      "inputs": [
        {
          "internalType": "address",
          "name": "",
          "type": "address"
        },
        {
          "internalType": "bytes32",
          "name": "",
          "type": "bytes32"
        }
      ],
      "name": "freeINPriorityDeposits",
      "outputs": [
        {
          "internalType": "uint256",
          "name": "",
          "type": "uint256"
        }
      ],
      "stateMutability": "view",
      "type": "function"
    },
    {
      "inputs": [
        {
          "internalType": "contract DaoRegistry",
          "name": "dao",
          "type": "address"
        }
      ],
      "name": "getParticipanWhitelist",
      "outputs": [
        {
          "internalType": "address[]",
          "name": "",
          "type": "address[]"
        }
      ],
      "stateMutability": "view",
      "type": "function"
    },
    {
      "inputs": [
        {
          "internalType": "contract DaoRegistry",
          "name": "dao",
          "type": "address"
        }
      ],
      "name": "getPriorityDepositWhitelist",
      "outputs": [
        {
          "internalType": "address[]",
          "name": "",
          "type": "address[]"
        }
      ],
      "stateMutability": "view",
      "type": "function"
    },
    {
      "inputs": [
        {
          "internalType": "contract DaoRegistry",
          "name": "dao",
          "type": "address"
        },
        {
          "internalType": "bytes32",
          "name": "proposalId",
          "type": "bytes32"
        }
      ],
      "name": "getTotalFundByProposalId",
      "outputs": [
        {
          "internalType": "uint160",
          "name": "",
          "type": "uint160"
        }
      ],
      "stateMutability": "view",
      "type": "function"
    },
    {
      "inputs": [
        {
          "internalType": "contract DaoRegistry",
          "name": "dao",
          "type": "address"
        },
        {
          "internalType": "uint256",
          "name": "timeStamp",
          "type": "uint256"
        }
      ],
      "name": "ifInRedemptionPeriod",
      "outputs": [
        {
          "internalType": "bool",
          "name": "",
          "type": "bool"
        }
      ],
      "stateMutability": "view",
      "type": "function"
    },
    {
      "inputs": [
        {
          "internalType": "address",
          "name": "",
          "type": "address"
        },
        {
          "internalType": "bytes32",
          "name": "",
          "type": "bytes32"
        }
      ],
      "name": "investorMemberShips",
      "outputs": [
        {
          "internalType": "bool",
          "name": "created",
          "type": "bool"
        },
        {
          "internalType": "uint8",
          "name": "varifyType",
          "type": "uint8"
        },
        {
          "internalType": "uint256",
          "name": "minHolding",
          "type": "uint256"
        },
        {
          "internalType": "address",
          "name": "tokenAddress",
          "type": "address"
        },
        {
          "internalType": "uint256",
          "name": "tokenId",
          "type": "uint256"
        }
      ],
      "stateMutability": "view",
      "type": "function"
    },
    {
      "inputs": [
        {
          "internalType": "contract DaoRegistry",
          "name": "dao",
          "type": "address"
        },
        {
          "internalType": "address",
          "name": "_addr",
          "type": "address"
        }
      ],
      "name": "isActiveMember",
      "outputs": [
        {
          "internalType": "bool",
          "name": "",
          "type": "bool"
        }
      ],
      "stateMutability": "view",
      "type": "function"
    },
    {
      "inputs": [
        {
          "internalType": "contract DaoRegistry",
          "name": "dao",
          "type": "address"
        },
        {
          "internalType": "address",
          "name": "account",
          "type": "address"
        }
      ],
      "name": "isInvestorWhiteList",
      "outputs": [
        {
          "internalType": "bool",
          "name": "",
          "type": "bool"
        }
      ],
      "stateMutability": "view",
      "type": "function"
    },
    {
      "inputs": [
        {
          "internalType": "contract DaoRegistry",
          "name": "dao",
          "type": "address"
        },
        {
          "internalType": "address",
          "name": "account",
          "type": "address"
        }
      ],
      "name": "isPriorityDepositWhitelist",
      "outputs": [
        {
          "internalType": "bool",
          "name": "",
          "type": "bool"
        }
      ],
      "stateMutability": "view",
      "type": "function"
    },
    {
      "inputs": [
        {
          "internalType": "contract DaoRegistry",
          "name": "dao",
          "type": "address"
        },
        {
          "internalType": "address",
          "name": "account",
          "type": "address"
        }
      ],
      "name": "registerInvestorWhiteList",
      "outputs": [],
      "stateMutability": "nonpayable",
      "type": "function"
    },
    {
      "inputs": [
        {
          "internalType": "contract DaoRegistry",
          "name": "dao",
          "type": "address"
        },
        {
          "internalType": "address",
          "name": "account",
          "type": "address"
        }
      ],
      "name": "registerPriorityDepositWhiteList",
      "outputs": [],
      "stateMutability": "nonpayable",
      "type": "function"
    },
    {
      "inputs": [
        {
          "internalType": "contract DaoRegistry",
          "name": "dao",
          "type": "address"
        },
        {
          "internalType": "bytes32",
          "name": "proposalId",
          "type": "bytes32"
        },
        {
          "internalType": "uint160",
          "name": "amount",
          "type": "uint160"
        }
      ],
      "name": "withdraw",
      "outputs": [],
      "stateMutability": "nonpayable",
      "type": "function"
    }
  ],
  "bytecode": "0x608060405234801561001057600080fd5b50614b6e806100206000396000f3fe608060405234801561001057600080fd5b50600436106101005760003560e01c80638ecf772011610097578063eb2243f811610066578063eb2243f81461024b578063ec28eb901461025e578063f614aea3146102e5578063ff8bb0d0146102f857600080fd5b80638ecf7720146101ff578063ac7e7eba14610212578063aed71fde14610225578063e13efafa1461023857600080fd5b80633a844ec0116100d35780633a844ec01461017d5780634aa587c9146101a057806375e42744146101b3578063861f6752146101c657600080fd5b80630617b0ce1461010557806307832bfd1461013557806314a6c0561461014a578063239dd2281461016a575b600080fd5b6101186101133660046147b0565b61030b565b6040516001600160a01b0390911681526020015b60405180910390f35b610148610143366004614778565b610434565b005b61015d61015836600461475c565b61048e565b60405161012c91906148ee565b6101486101783660046147c2565b6104b2565b61019061018b3660046147b0565b610b44565b604051901515815260200161012c565b61015d6101ae36600461475c565b610e95565b6101186101c13660046147c2565b610eb9565b6101f16101d43660046144d9565b600360209081526000928352604080842090915290825290205481565b60405190815260200161012c565b61019061020d366004614778565b610fe4565b610148610220366004614778565b61107a565b610190610233366004614778565b61123d565b610190610246366004614778565b61125f565b610148610259366004614803565b611281565b6102b061026c3660046144d9565b60016020818152600093845260408085209091529183529120805491810154600282015460039092015460ff80851694610100900416926001600160a01b03169085565b60408051951515865260ff9094166020860152928401919091526001600160a01b03166060830152608082015260a00161012c565b6101486102f33660046147b0565b6129aa565b61014861030636600461475c565b61362e565b604051632c9f4b5b60e11b81527fb12a3847d47fefceb164b75823af125f9aa82b76938df0ddf08c04cd314ba37c600482015260009081906001600160a01b0385169063593e96b69060240160206040518083038186803b15801561036f57600080fd5b505afa158015610383573d6000803e3d6000fd5b505050506040513d601f19601f820116820180604052508101906103a791906144bd565b604051636101c11b60e11b81526004810185905261babe60248201529091506001600160a01b0382169063c20382369060440160206040518083038186803b1580156103f257600080fd5b505afa158015610406573d6000803e3d6000fd5b505050506040513d601f19601f8201168201806040525081019061042a91906144bd565b9150505b92915050565b8161043f81336137bf565b6001600160a01b03831660009081526002602052604090206104619083613815565b610489576001600160a01b03831660009081526002602052604090206104879083613837565b505b505050565b6001600160a01b038116600090815260026020526040902060609061042e9061384c565b8260006104be82613859565b604051632c9f4b5b60e11b81527fb12a3847d47fefceb164b75823af125f9aa82b76938df0ddf08c04cd314ba37c60048201529091506000906001600160a01b0387169063593e96b69060240160206040518083038186803b15801561052357600080fd5b505afa158015610537573d6000803e3d6000fd5b505050506040513d601f19601f8201168201806040525081019061055b91906144bd565b604051636101c11b60e11b8152600481018790523360248201529091506000906001600160a01b0383169063c20382369060440160206040518083038186803b1580156105a757600080fd5b505afa1580156105bb573d6000803e3d6000fd5b505050506040513d601f19601f820116820180604052508101906105df91906144bd565b6001600160a01b03169050600081118015610603575080856001600160a01b031611155b6106545760405162461bcd60e51b815260206004820152600760248201527f21616d6f756e740000000000000000000000000000000000000000000000000060448201526064015b60405180910390fd5b6040516317ba7d8560e01b81527f7a8526bca00f0726b2fab8c3bfd5b00bfa84d07f111e48263b13de605eefcdda60048201526000906001600160a01b038916906317ba7d859060240160206040518083038186803b1580156106b657600080fd5b505afa1580156106ca573d6000803e3d6000fd5b505050506040513d601f19601f820116820180604052508101906106ee91906144bd565b6040516317ba7d8560e01b81527fc8e81510cbc5ec7970040e233b001587da1ea4484a9f7b8710d3322429c2df2360048201529091506000906001600160a01b038a16906317ba7d859060240160206040518083038186803b15801561075357600080fd5b505afa158015610767573d6000803e3d6000fd5b505050506040513d601f19601f8201168201806040525081019061078b91906144bd565b6040517fbf4999940000000000000000000000000000000000000000000000000000000081526001600160a01b038b81166004830152602482018b905291925060009182919085169063bf4999949060440160006040518083038186803b1580156107f557600080fd5b505afa158015610809573d6000803e3d6000fd5b505050506040513d6000823e601f3d908101601f191682016040526108319190810190614504565b97505050509450505050428260400151118061087a575042826040015110801561087a5750600481600481111561087857634e487b7160e01b600052602160045260246000fd5b145b6108c65760405162461bcd60e51b815260206004820152600960248201527f2177697468647261770000000000000000000000000000000000000000000000604482015260640161064b565b6040517fbf4999940000000000000000000000000000000000000000000000000000000081526001600160a01b038c81166004830152602482018c90526000919086169063bf4999949060440160006040518083038186803b15801561092b57600080fd5b505afa15801561093f573d6000803e3d6000fd5b505050506040513d6000823e601f3d908101601f191682016040526109679190810190614504565b505050505050915050866001600160a01b0316638e0cc1768c3384600001518e6040518563ffffffff1660e01b81526004016109c894939291909384526001600160a01b039283166020850152908216604084015216606082015260800190565b600060405180830381600087803b1580156109e257600080fd5b505af11580156109f6573d6000803e3d6000fd5b50506040517f6d3cc0400000000000000000000000000000000000000000000000000000000081526001600160a01b038f81166004830152602482018f905233604483015287169250636d3cc040915060640160206040518083038186803b158015610a6157600080fd5b505afa158015610a75573d6000803e3d6000fd5b505050506040513d601f19601f82011682018060405250810190610a999190614717565b15610adc576001600160a01b038c811660009081526003602090815260408083208f845290915281208054928d1692909190610ad6908490614a87565b90915550505b604080516001600160a01b038e81168252602082018e90528c168183015233606082015290517fb3085ed0819e7a24ea01cc7517959d320c556f8d657f4eb66a77c92362aeccf49181900360800190a150505050505050610b3d8282613b24565b5050505050565b604051634941d71d60e11b81527fd99dae5492aa0c08830764a319f29225cc739a0ed8683d8fd1b5bc3a8fe31672600482015260009081906001600160a01b03851690639283ae3a9060240160206040518083038186803b158015610ba857600080fd5b505afa158015610bbc573d6000803e3d6000fd5b505050506040513d601f19601f82011682018060405250810190610be0919061486b565b604051634941d71d60e11b81527f9ce69cf04065e3c7823cc5540c0598d8a694bd7a9a5a2a786d8bccf14ed6e2ea60048201529091506000906001600160a01b03861690639283ae3a9060240160206040518083038186803b158015610c4557600080fd5b505afa158015610c59573d6000803e3d6000fd5b505050506040513d601f19601f82011682018060405250810190610c7d919061486b565b604051634941d71d60e11b81527f6a2acfe6164f3ec20e6d80e2f4e4f7ae2b9962615c9596c872d01f6cd244aed360048201529091506000906001600160a01b03871690639283ae3a9060240160206040518083038186803b158015610ce257600080fd5b505afa158015610cf6573d6000803e3d6000fd5b505050506040513d601f19601f82011682018060405250810190610d1a919061486b565b604051634941d71d60e11b81527f2305fa3a9f84625f75d70f539e621c658cf49e7477ab5af9cacd278ca7904e3060048201529091506000906001600160a01b03881690639283ae3a9060240160206040518083038186803b158015610d7f57600080fd5b505afa158015610d93573d6000803e3d6000fd5b505050506040513d601f19601f82011682018060405250810190610db7919061486b565b90506000610dc58585614a87565b9050821580610dd2575081155b80610ddb575080155b15610dee5760009550505050505061042e565b6000610dfa8483614a2a565b905060008060005b838111610e83578215610e1e57610e198784614a12565b610e28565b610e28878a614a12565b9250610e348684614a87565b9150818b118015610e445750828b105b8015610e4f5750888b115b8015610e5a5750878b105b15610e71576001995050505050505050505061042e565b610e7c600182614a12565b9050610e02565b5060009b9a5050505050505050505050565b6001600160a01b038116600090815260208190526040902060609061042e9061384c565b604051632c9f4b5b60e11b81527fb12a3847d47fefceb164b75823af125f9aa82b76938df0ddf08c04cd314ba37c600482015260009081906001600160a01b0386169063593e96b69060240160206040518083038186803b158015610f1d57600080fd5b505afa158015610f31573d6000803e3d6000fd5b505050506040513d601f19601f82011682018060405250810190610f5591906144bd565b604051636101c11b60e11b8152600481018690526001600160a01b0385811660248301529192509082169063c20382369060440160206040518083038186803b158015610fa157600080fd5b505afa158015610fb5573d6000803e3d6000fd5b505050506040513d601f19601f82011682018060405250810190610fd991906144bd565b9150505b9392505050565b6040517fa230c5240000000000000000000000000000000000000000000000000000000081526001600160a01b0382811660048301526000919084169063a230c5249060240160206040518083038186803b15801561104257600080fd5b505afa158015611056573d6000803e3d6000fd5b505050506040513d601f19601f82011682018060405250810190610fdd9190614717565b6040516317ba7d8560e01b81527fff9379b98b93eb3bd1fac62fd2258a7955d70d2d5279c40064145b6c9646df3760048201526001600160a01b038316906317ba7d859060240160206040518083038186803b1580156110d957600080fd5b505afa1580156110ed573d6000803e3d6000fd5b505050506040513d601f19601f8201168201806040525081019061111191906144bd565b6001600160a01b0316336001600160a01b031614806111bb57506040517fa230c5240000000000000000000000000000000000000000000000000000000081523360048201526001600160a01b0383169063a230c5249060240160206040518083038186803b15801561118357600080fd5b505afa158015611197573d6000803e3d6000fd5b505050506040513d601f19601f820116820180604052508101906111bb9190614717565b6111f15760405162461bcd60e51b81526020600482015260076024820152662161636365737360c81b604482015260640161064b565b6001600160a01b03821660009081526020819052604090206112139082613815565b611239576001600160a01b03821660009081526020819052604090206104899082613837565b5050565b6001600160a01b0382166000908152600260205260408120610fdd9083613815565b6001600160a01b0382166000908152602081905260408120610fdd9083613815565b604051634941d71d60e11b81527ffeddffed075d0686e697569ece0ce2fd26bfbbb18719086f36d16c7117edb553600482015283906001600160a01b03821690639283ae3a9060240160206040518083038186803b1580156112e257600080fd5b505afa1580156112f6573d6000803e3d6000fd5b505050506040513d601f19601f8201168201806040525081019061131a919061486b565b60011415611a6c576040516317ba7d8560e01b81527f2207fd6117465cefcba0abc867150698c0464aa41a293ec29ca01b67a6350c3c60048201526000906001600160a01b038316906317ba7d859060240160206040518083038186803b15801561138457600080fd5b505afa158015611398573d6000803e3d6000fd5b505050506040513d601f19601f820116820180604052508101906113bc91906144bd565b604051634941d71d60e11b81527f77041e0d128001928f30b976713fed530b452bc354a9bad49ad1bcf93121f9dc60048201529091506000906001600160a01b03841690639283ae3a9060240160206040518083038186803b15801561142157600080fd5b505afa158015611435573d6000803e3d6000fd5b505050506040513d601f19601f82011682018060405250810190611459919061486b565b604051634941d71d60e11b81527fcab672166d6a1c8dae3ca0b03fed2e7258db17c3c3801ac2651987b066d3964760048201529091506000906001600160a01b03851690639283ae3a9060240160206040518083038186803b1580156114be57600080fd5b505afa1580156114d2573d6000803e3d6000fd5b505050506040513d601f19601f820116820180604052508101906114f6919061486b565b604051634941d71d60e11b81527fcdc3057ec9c82a3ea3fd34ef56b1825924525fbab071e1a2b9d664a07f40048060048201529091506000906001600160a01b03861690639283ae3a9060240160206040518083038186803b15801561155b57600080fd5b505afa15801561156f573d6000803e3d6000fd5b505050506040513d601f19601f82011682018060405250810190611593919061486b565b6040517ffd310d290000000000000000000000000000000000000000000000000000000081527f0f57fc3a39a8a66c31f52eab69ced65d5ac74e4a182b215146a45a0281de53e860048201529091506000906001600160a01b0387169063fd310d299060240160206040518083038186803b15801561161157600080fd5b505afa158015611625573d6000803e3d6000fd5b505050506040513d601f19601f8201168201806040525081019061164991906144bd565b905083611756576040517f70a0823100000000000000000000000000000000000000000000000000000000815233600482015283906001600160a01b038316906370a082319060240160206040518083038186803b1580156116aa57600080fd5b505afa1580156116be573d6000803e3d6000fd5b505050506040513d601f19601f820116820180604052508101906116e2919061486b565b10156117565760405162461bcd60e51b815260206004820152602d60248201527f3c696e766573746f72206d656d6265727368697020657263323020746f6b656e60448201527f206d696e6920686f6c64696e6700000000000000000000000000000000000000606482015260840161064b565b8360011415611865576040517f70a0823100000000000000000000000000000000000000000000000000000000815233600482015283906001600160a01b038316906370a082319060240160206040518083038186803b1580156117b957600080fd5b505afa1580156117cd573d6000803e3d6000fd5b505050506040513d601f19601f820116820180604052508101906117f1919061486b565b10156118655760405162461bcd60e51b815260206004820152602e60248201527f3c696e766573746f72206d656d626572736869702065726337323120746f6b6560448201527f6e206d696e6920686f6c64696e67000000000000000000000000000000000000606482015260840161064b565b8360021415611979576040517efdd58e0000000000000000000000000000000000000000000000000000000081523360048201526024810183905283906001600160a01b0383169062fdd58e9060440160206040518083038186803b1580156118cd57600080fd5b505afa1580156118e1573d6000803e3d6000fd5b505050506040513d601f19601f82011682018060405250810190611905919061486b565b10156119795760405162461bcd60e51b815260206004820152602f60248201527f3c696e766573746f72206d656d62657273686970206572633131353520746f6b60448201527f656e206d696e6920686f6c64696e670000000000000000000000000000000000606482015260840161064b565b8360031415611a66576040517fe13efafa0000000000000000000000000000000000000000000000000000000081526001600160a01b03878116600483015233602483015286169063e13efafa9060440160206040518083038186803b1580156119e257600080fd5b505afa1580156119f6573d6000803e3d6000fd5b505050506040513d601f19601f82011682018060405250810190611a1a9190614717565b611a665760405162461bcd60e51b815260206004820152601e60248201527f21696e766573746f72206d656d626572736869702077686974656c6973740000604482015260640161064b565b50505050505b836000611a7882613859565b9050611af0604080516101808101825260008082526020820181905291810182905290606082019081526020016000815260200160008152602001600081526020016000815260200160006001600160a01b0316815260200160006001600160a01b0316815260200160008152602001600081525090565b6040516317ba7d8560e01b81527f7a8526bca00f0726b2fab8c3bfd5b00bfa84d07f111e48263b13de605eefcdda60048201526001600160a01b038816906317ba7d859060240160206040518083038186803b158015611b4f57600080fd5b505afa158015611b63573d6000803e3d6000fd5b505050506040513d601f19601f82011682018060405250810190611b8791906144bd565b6001600160a01b039081168252604051632c9f4b5b60e11b81527fb12a3847d47fefceb164b75823af125f9aa82b76938df0ddf08c04cd314ba37c60048201529088169063593e96b69060240160206040518083038186803b158015611bec57600080fd5b505afa158015611c00573d6000803e3d6000fd5b505050506040513d601f19601f82011682018060405250810190611c2491906144bd565b6001600160a01b03908116604083810191909152516317ba7d8560e01b81527fc8e81510cbc5ec7970040e233b001587da1ea4484a9f7b8710d3322429c2df236004820152908816906317ba7d859060240160206040518083038186803b158015611c8e57600080fd5b505afa158015611ca2573d6000803e3d6000fd5b505050506040513d601f19601f82011682018060405250810190611cc691906144bd565b6001600160a01b03908116602083015260408083015190517fe38a5a640000000000000000000000000000000000000000000000000000000081526004810189905291169063e38a5a649060240160006040518083038186803b158015611d2c57600080fd5b505afa158015611d40573d6000803e3d6000fd5b505050506040513d6000823e601f3d908101601f19168201604052611d689190810190614663565b51610160820152604051634941d71d60e11b81527f69f4ffb3ebcb7809550bddd3e4d449a47e737bf6635bc7a730996643997b0e4860048201526001600160a01b03881690639283ae3a9060240160206040518083038186803b158015611dce57600080fd5b505afa158015611de2573d6000803e3d6000fd5b505050506040513d601f19601f82011682018060405250810190611e06919061486b565b6001148015611eb05750604051634941d71d60e11b81527fecbde689cc6337d29a750b8b8a8abbfa97427b4ac800ab55be2f2c87311510f260048201526001600160a01b03881690639283ae3a9060240160206040518083038186803b158015611e6f57600080fd5b505afa158015611e83573d6000803e3d6000fd5b505050506040513d601f19601f82011682018060405250810190611ea7919061486b565b81610160015110155b8015611f56575060408082015190517f6ca0b5c8000000000000000000000000000000000000000000000000000000008152600481018890523360248201526001600160a01b0390911690636ca0b5c89060440160206040518083038186803b158015611f1c57600080fd5b505afa158015611f30573d6000803e3d6000fd5b505050506040513d601f19601f82011682018060405250810190611f549190614717565b155b15611f8d576040517ff435457800000000000000000000000000000000000000000000000000000000815260040160405180910390fd5b60208101516040517f1ebf58f90000000000000000000000000000000000000000000000000000000081526001600160a01b038981166004830152602482018990526000921690631ebf58f99060440160206040518083038186803b158015611ff557600080fd5b505afa158015612009573d6000803e3d6000fd5b505050506040513d601f19601f8201168201806040525081019061202d9190614851565b9050600181600481111561205157634e487b7160e01b600052602160045260246000fd5b14612088576040517ffb9e169300000000000000000000000000000000000000000000000000000000815260040160405180910390fd5b60208201516040517f80dc31410000000000000000000000000000000000000000000000000000000081526001600160a01b038a81166004830152602482018a9052909116906380dc314190604401604080518083038186803b1580156120ee57600080fd5b505afa158015612102573d6000803e3d6000fd5b505050506040513d601f19601f820116820180604052508101906121269190614883565b60a08401526080830181905242108061214257508160a0015142115b15612179576040517ffb9e169300000000000000000000000000000000000000000000000000000000815260040160405180910390fd5b600086116121c95760405162461bcd60e51b815260206004820152600760248201527f21616d6f756e7400000000000000000000000000000000000000000000000000604482015260640161064b565b60208201516040517fc3a8f0030000000000000000000000000000000000000000000000000000000081526001600160a01b038a81166004830152602482018a90529091169063c3a8f0039060440160206040518083038186803b15801561223057600080fd5b505afa158015612244573d6000803e3d6000fd5b505050506040513d601f19601f820116820180604052508101906122689190614837565b8260600190600181111561228c57634e487b7160e01b600052602160045260246000fd5b908160018111156122ad57634e487b7160e01b600052602160045260246000fd5b90525060208201516040517fb39f0a790000000000000000000000000000000000000000000000000000000081526001600160a01b038a81166004830152602482018a90529091169063b39f0a799060440160206040518083038186803b15801561231757600080fd5b505afa15801561232b573d6000803e3d6000fd5b505050506040513d601f19601f8201168201806040525081019061234f919061486b565b61014083015260208201516040517f6666c9bd0000000000000000000000000000000000000000000000000000000081526001600160a01b038a81166004830152602482018a905290911690636666c9bd90604401604080518083038186803b1580156123bb57600080fd5b505afa1580156123cf573d6000803e3d6000fd5b505050506040513d601f19601f820116820180604052508101906123f39190614883565b60e084015260c083018190521580159061241057508160c0015186105b15612447576040517f10981f1600000000000000000000000000000000000000000000000000000000815260040160405180910390fd5b60008260e0015111801561247c57508160e00151866124678a8a33610eb9565b6001600160a01b031661247a9190614a12565b115b156124b3576040517f75f4b91100000000000000000000000000000000000000000000000000000000815260040160405180910390fd5b6000826060015160018111156124d957634e487b7160e01b600052602160045260246000fd5b1480156124eb57506000826101400151115b1561254f57816101400151866125048a8a61babe610eb9565b6001600160a01b03166125179190614a12565b111561254f576040517f87ea887800000000000000000000000000000000000000000000000000000000815260040160405180910390fd5b60208201516040517f0c8c9a5c0000000000000000000000000000000000000000000000000000000081526001600160a01b038a81166004830152602482018a905290911690630c8c9a5c9060440160206040518083038186803b1580156125b657600080fd5b505afa1580156125ca573d6000803e3d6000fd5b505050506040513d601f19601f820116820180604052508101906125ee91906144bd565b6001600160a01b031661012083018190526040517f23b872dd000000000000000000000000000000000000000000000000000000008152336004820152306024820152604481018890526323b872dd90606401602060405180830381600087803b15801561265b57600080fd5b505af115801561266f573d6000803e3d6000fd5b505050506040513d601f19601f820116820180604052508101906126939190614717565b50604051632c9f4b5b60e11b81527fb12a3847d47fefceb164b75823af125f9aa82b76938df0ddf08c04cd314ba37c6004820152612745906001600160a01b038a169063593e96b69060240160206040518083038186803b1580156126f757600080fd5b505afa15801561270b573d6000803e3d6000fd5b505050506040513d601f19601f8201168201806040525081019061272f91906144bd565b6101208401516001600160a01b03169088613b2f565b6040516317ba7d8560e01b81527fc8e81510cbc5ec7970040e233b001587da1ea4484a9f7b8710d3322429c2df2360048201526001600160a01b038916906317ba7d859060240160206040518083038186803b1580156127a457600080fd5b505afa1580156127b8573d6000803e3d6000fd5b505050506040513d601f19601f820116820180604052508101906127dc91906144bd565b6001600160a01b03908116602084018190526040517f6d3cc040000000000000000000000000000000000000000000000000000000008152918a1660048301526024820189905233604483015290636d3cc0409060640160206040518083038186803b15801561284b57600080fd5b505afa15801561285f573d6000803e3d6000fd5b505050506040513d601f19601f820116820180604052508101906128839190614717565b156128c1576001600160a01b03881660009081526003602090815260408083208a8452909152812080548892906128bb908490614a12565b90915550505b60408083015190517ece27c200000000000000000000000000000000000000000000000000000000815260048101899052336024820152604481018890526001600160a01b039091169062ce27c290606401600060405180830381600087803b15801561292d57600080fd5b505af1158015612941573d6000803e3d6000fd5b5050604080516001600160a01b038c168152602081018b90529081018990523360608201527fddcff2534e44ab893ab86cadbfcf556c7c257bd657d168b0bfed850311dfe4f89250608001905060405180910390a150506129a28282613b24565b505050505050565b6040516317ba7d8560e01b81527f7a8526bca00f0726b2fab8c3bfd5b00bfa84d07f111e48263b13de605eefcdda60048201526001600160a01b038316906317ba7d859060240160206040518083038186803b158015612a0957600080fd5b505afa158015612a1d573d6000803e3d6000fd5b505050506040513d601f19601f82011682018060405250810190612a4191906144bd565b6001600160a01b0316336001600160a01b031614612a8b5760405162461bcd60e51b81526020600482015260076024820152662161636365737360c81b604482015260640161064b565b6040805161012081018252600080825260208201819052818301819052606082018190526080820181905260a0820181905260c0820181905260e0820181905261010082015290516317ba7d8560e01b81527fc8e81510cbc5ec7970040e233b001587da1ea4484a9f7b8710d3322429c2df2360048201526001600160a01b038416906317ba7d859060240160206040518083038186803b158015612b2f57600080fd5b505afa158015612b43573d6000803e3d6000fd5b505050506040513d601f19601f82011682018060405250810190612b6791906144bd565b6001600160a01b0390811682526040516317ba7d8560e01b81527f7a8526bca00f0726b2fab8c3bfd5b00bfa84d07f111e48263b13de605eefcdda6004820152908416906317ba7d859060240160206040518083038186803b158015612bcc57600080fd5b505afa158015612be0573d6000803e3d6000fd5b505050506040513d601f19601f82011682018060405250810190612c0491906144bd565b6001600160a01b03908116606083015281516040517fb39f0a7900000000000000000000000000000000000000000000000000000000815285831660048201526024810185905291169063b39f0a799060440160206040518083038186803b158015612c6f57600080fd5b505afa158015612c83573d6000803e3d6000fd5b505050506040513d601f19601f82011682018060405250810190612ca7919061486b565b6080820152612cb9838361babe610eb9565b6001600160a01b031660a0820152600181516040517fc3a8f0030000000000000000000000000000000000000000000000000000000081526001600160a01b038681166004830152602482018690529091169063c3a8f0039060440160206040518083038186803b158015612d2d57600080fd5b505afa158015612d41573d6000803e3d6000fd5b505050506040513d601f19601f82011682018060405250810190612d659190614837565b6001811115612d8457634e487b7160e01b600052602160045260246000fd5b148015612d98575080608001518160a00151115b1561048957604051632c9f4b5b60e11b81527fb12a3847d47fefceb164b75823af125f9aa82b76938df0ddf08c04cd314ba37c60048201526001600160a01b0384169063593e96b69060240160206040518083038186803b158015612dfc57600080fd5b505afa158015612e10573d6000803e3d6000fd5b505050506040513d601f19601f82011682018060405250810190612e3491906144bd565b6001600160a01b0316602082018190526040517fe38a5a64000000000000000000000000000000000000000000000000000000008152600481018490526000919063e38a5a649060240160006040518083038186803b158015612e9657600080fd5b505afa158015612eaa573d6000803e3d6000fd5b505050506040513d6000823e601f3d908101601f19168201604052612ed29190810190614663565b600060e084015282516040517f0c8c9a5c0000000000000000000000000000000000000000000000000000000081526001600160a01b03878116600483015260248201879052929350911690630c8c9a5c9060440160206040518083038186803b158015612f3f57600080fd5b505afa158015612f53573d6000803e3d6000fd5b505050506040513d601f19601f82011682018060405250810190612f7791906144bd565b6001600160a01b039081166101008401526040516317ba7d8560e01b81527feae11da953333a83b6467e2193334fb302549e1a42ad5797082aea1ab6be91206004820152908516906317ba7d859060240160206040518083038186803b158015612fe057600080fd5b505afa158015612ff4573d6000803e3d6000fd5b505050506040513d601f19601f8201168201806040525081019061301891906144bd565b6001600160a01b0390811660408085019190915290851660009081526003602090815282822086835290529081205460c08401525b81518160ff161015610b3d5782608001518360c00151106132155782600001516001600160a01b0316636d3cc0408686858560ff16815181106130a057634e487b7160e01b600052603260045260246000fd5b60200260200101516040518463ffffffff1660e01b81526004016130e4939291906001600160a01b0393841681526020810192909252909116604082015260600190565b60206040518083038186803b1580156130fc57600080fd5b505afa158015613110573d6000803e3d6000fd5b505050506040513d601f19601f820116820180604052508101906131349190614717565b156131da578260c0015183608001516131788787868660ff168151811061316b57634e487b7160e01b600052603260045260246000fd5b6020026020010151610eb9565b6001600160a01b031661318b9190614a4a565b6131959190614a2a565b6131bd8686858560ff168151811061316b57634e487b7160e01b600052603260045260246000fd5b6001600160a01b03166131d09190614a87565b60e08401526133a0565b6132028585848460ff168151811061316b57634e487b7160e01b600052603260045260246000fd5b6001600160a01b031660e08401526133a0565b82600001516001600160a01b0316636d3cc0408686858560ff168151811061324d57634e487b7160e01b600052603260045260246000fd5b60200260200101516040518463ffffffff1660e01b8152600401613291939291906001600160a01b0393841681526020810192909252909116604082015260600190565b60206040518083038186803b1580156132a957600080fd5b505afa1580156132bd573d6000803e3d6000fd5b505050506040513d601f19601f820116820180604052508101906132e19190614717565b156132f257600060e08401526133a0565b8260c001518360a001516133069190614a87565b8360c00151846080015161331a9190614a87565b6133428787868660ff168151811061316b57634e487b7160e01b600052603260045260246000fd5b6001600160a01b03166133559190614a4a565b61335f9190614a2a565b6133878686858560ff168151811061316b57634e487b7160e01b600052603260045260246000fd5b6001600160a01b031661339a9190614a87565b60e08401525b60e08301511561361c576133ed6040518060400160405280600a81526020017f657874726146756e6420000000000000000000000000000000000000000000008152508460e00151613baf565b82604001516001600160a01b031663078e209e8686866101000151868660ff168151811061342b57634e487b7160e01b600052603260045260246000fd5b60200260200101518860e001516040518663ffffffff1660e01b81526004016134869594939291906001600160a01b039586168152602081019490945291841660408401529092166060820152608081019190915260a00190565b600060405180830381600087803b1580156134a057600080fd5b505af11580156134b4573d6000803e3d6000fd5b5050505082602001516001600160a01b031663e21ccac185848460ff16815181106134ef57634e487b7160e01b600052603260045260246000fd5b6020026020010151886001600160a01b03166317ba7d857feae11da953333a83b6467e2193334fb302549e1a42ad5797082aea1ab6be91206040518263ffffffff1660e01b815260040161354591815260200190565b60206040518083038186803b15801561355d57600080fd5b505afa158015613571573d6000803e3d6000fd5b505050506040513d601f19601f8201168201806040525081019061359591906144bd565b8761010001518860e001516040518663ffffffff1660e01b81526004016135e99594939291909485526001600160a01b03938416602086015291831660408501529091166060830152608082015260a00190565b600060405180830381600087803b15801561360357600080fd5b505af1158015613617573d6000803e3d6000fd5b505050505b8061362681614aca565b91505061304d565b6040516317ba7d8560e01b81527fff9379b98b93eb3bd1fac62fd2258a7955d70d2d5279c40064145b6c9646df3760048201526001600160a01b038216906317ba7d859060240160206040518083038186803b15801561368d57600080fd5b505afa1580156136a1573d6000803e3d6000fd5b505050506040513d601f19601f820116820180604052508101906136c591906144bd565b6001600160a01b0316336001600160a01b03161461370f5760405162461bcd60e51b81526020600482015260076024820152662161636365737360c81b604482015260640161064b565b6001600160a01b03811660009081526020819052604090206060906137339061384c565b805190915080156104895760005b818160ff161015610487576137ac838260ff168151811061377257634e487b7160e01b600052603260045260246000fd5b6020026020010151600080876001600160a01b03166001600160a01b03168152602001908152602001600020613c2290919063ffffffff16565b50806137b781614aca565b915050613741565b6137c98282610fe4565b6112395760405162461bcd60e51b815260206004820152600b60248201527f6f6e6c7953746577617264000000000000000000000000000000000000000000604482015260640161064b565b6001600160a01b03811660009081526001830160205260408120541515610fdd565b6000610fdd836001600160a01b038416613c37565b60606000610fdd83613c86565b6040805160808101825260008082526020820181905291810182905260608101919091525a81600001818152505043826001600160a01b031663b21634826040518163ffffffff1660e01b815260040160206040518083038186803b1580156138c157600080fd5b505afa1580156138d5573d6000803e3d6000fd5b505050506040513d601f19601f820116820180604052508101906138f9919061486b565b14156139475760405162461bcd60e51b815260206004820152601060248201527f7265656e7472616e637920677561726400000000000000000000000000000000604482015260640161064b565b816001600160a01b03166310fdb0a26040518163ffffffff1660e01b8152600401600060405180830381600087803b15801561398257600080fd5b505af1158015613996573d6000803e3d6000fd5b50506040517f72c6838f0000000000000000000000000000000000000000000000000000000081527f1f2fd42ad6a6cacd573c4b212beb7a4e2499ad45d742a65337097f130e71daff6004820152600092506001600160a01b03851691506372c6838f9060240160206040518083038186803b158015613a1557600080fd5b505afa158015613a29573d6000803e3d6000fd5b505050506040513d601f19601f82011682018060405250810190613a4d91906144bd565b90506001600160a01b038116613a695760006020830152613b1e565b6001600160a01b038181166060840181905283516040517f43a8a3f1000000000000000000000000000000000000000000000000000000008152928616600484015260248301526000918291906343a8a3f190604401604080518083038186803b158015613ad657600080fd5b505afa158015613aea573d6000803e3d6000fd5b505050506040513d601f19601f82011682018060405250810190613b0e9190614731565b9015156020860152604085015250505b50919050565b611239828233613ce2565b604080516001600160a01b038416602482015260448082018490528251808303909101815260649091019091526020810180517bffffffffffffffffffffffffffffffffffffffffffffffffffffffff167fa9059cbb00000000000000000000000000000000000000000000000000000000179052610489908490613df0565b6112398282604051602401613bc592919061494e565b60408051601f198184030181529190526020810180517bffffffffffffffffffffffffffffffffffffffffffffffffffffffff167fb60e72cc00000000000000000000000000000000000000000000000000000000179052613ed5565b6000610fdd836001600160a01b038416613ee1565b6000818152600183016020526040812054613c7e5750815460018181018455600084815260208082209093018490558454848252828601909352604090209190915561042e565b50600061042e565b606081600001805480602002602001604051908101604052809291908181526020018280548015613cd657602002820191906000526020600020905b815481526020019060010190808311613cc2575b50505050509050919050565b816020015115613d985781606001516001600160a01b0316635e5eb01384835a8651613d0e9190614a87565b60408088015190517fffffffff0000000000000000000000000000000000000000000000000000000060e087901b1681526001600160a01b03948516600482015293909216602484015260448301526064820152608401600060405180830381600087803b158015613d7f57600080fd5b505af1158015613d93573d6000803e3d6000fd5b505050505b826001600160a01b031663d4f7af436040518163ffffffff1660e01b8152600401600060405180830381600087803b158015613dd357600080fd5b505af1158015613de7573d6000803e3d6000fd5b50505050505050565b6000613e45826040518060400160405280602081526020017f5361666545524332303a206c6f772d6c6576656c2063616c6c206661696c6564815250856001600160a01b0316613ffe9092919063ffffffff16565b8051909150156104895780806020019051810190613e639190614717565b6104895760405162461bcd60e51b815260206004820152602a60248201527f5361666545524332303a204552433230206f7065726174696f6e20646964206e60448201527f6f74207375636365656400000000000000000000000000000000000000000000606482015260840161064b565b613ede81614015565b50565b60008181526001830160205260408120548015613ff4576000613f05600183614a87565b8554909150600090613f1990600190614a87565b9050818114613f9a576000866000018281548110613f4757634e487b7160e01b600052603260045260246000fd5b9060005260206000200154905080876000018481548110613f7857634e487b7160e01b600052603260045260246000fd5b6000918252602080832090910192909255918252600188019052604090208390555b8554869080613fb957634e487b7160e01b600052603160045260246000fd5b60019003818190600052602060002001600090559055856001016000868152602001908152602001600020600090556001935050505061042e565b600091505061042e565b606061400d8484600085614036565b949350505050565b60006a636f6e736f6c652e6c6f679050600080835160208501845afa505050565b6060824710156140ae5760405162461bcd60e51b815260206004820152602660248201527f416464726573733a20696e73756666696369656e742062616c616e636520666f60448201527f722063616c6c0000000000000000000000000000000000000000000000000000606482015260840161064b565b6001600160a01b0385163b6141055760405162461bcd60e51b815260206004820152601d60248201527f416464726573733a2063616c6c20746f206e6f6e2d636f6e7472616374000000604482015260640161064b565b600080866001600160a01b0316858760405161412191906148d2565b60006040518083038185875af1925050503d806000811461415e576040519150601f19603f3d011682016040523d82523d6000602084013e614163565b606091505b509150915061417382828661417e565b979650505050505050565b6060831561418d575081610fdd565b82511561419d5782518084602001fd5b8160405162461bcd60e51b815260040161064b919061493b565b80516141c281614b16565b919050565b805180151581146141c257600080fd5b8051600281106141c257600080fd5b8051600581106141c257600080fd5b600082601f830112614205578081fd5b815167ffffffffffffffff81111561421f5761421f614b00565b6142326020601f19601f840116016149e1565b818152846020838601011115614246578283fd5b61400d826020830160208701614a9e565b60006102008284031215614269578081fd5b604051610100810181811067ffffffffffffffff8211171561428d5761428d614b00565b60405290508061429c836141d7565b8152602083015160208201526040830151604082015260608301516060820152608083015160808201526142d260a084016141c7565b60a08201526142e48460c08501614303565b60c08201526142f7846101608501614376565b60e08201525092915050565b600060a08284031215614314578081fd5b61431c614970565b9050815161432981614b2b565b8152602082015163ffffffff8116811461434257600080fd5b6020820152604082015161435581614b16565b80604083015250606082015160608201526080820151608082015292915050565b600060a08284031215614387578081fd5b61438f614970565b905061439a826141c7565b8152602082015161434281614b2b565b6000604082840312156143bb578081fd5b6040516040810181811067ffffffffffffffff821117156143de576143de614b00565b604052825181526020928301519281019290925250919050565b6000610120828403121561440a578081fd5b614412614999565b9050815181526020820151602082015260408201516040820152606082015160608201526080820151608082015261444c60a083016141c7565b60a082015261445d60c083016141b7565b60c082015260e082015167ffffffffffffffff8082111561447d57600080fd5b614489858386016141f5565b60e0840152610100915081840151818111156144a457600080fd5b6144b0868287016141f5565b8385015250505092915050565b6000602082840312156144ce578081fd5b8151610fdd81614b16565b600080604083850312156144eb578081fd5b82356144f681614b16565b946020939093013593505050565b600080600080600080600080888a03610460811215614521578485fd5b895161452c81614b16565b9850610180601f198201811315614541578586fd5b6145496149bd565b915061455760208c016141b7565b825260408b0151602083015260608b0151604083015260808b0151606083015261458360a08c016141c7565b608083015261459460c08c016141b7565b60a083015260e08b015160c0830152610100808c015160e0840152610120808d0151828501526101409150818d015181850152506101606145d6818e016141b7565b828501526145e5838e016141b7565b9084015250506101a08a015190975067ffffffffffffffff811115614608578485fd5b6146148b828c016143f8565b9650506146258a6101c08b01614257565b94506146358a6103c08b016143aa565b9350610400890151925061042089015191506146546104408a016141e6565b90509295985092959890939650565b60006020808385031215614675578182fd5b825167ffffffffffffffff8082111561468c578384fd5b818501915085601f83011261469f578384fd5b8151818111156146b1576146b1614b00565b8060051b91506146c28483016149e1565b8181528481019084860184860187018a10156146dc578788fd5b8795505b8386101561470a57805194506146f585614b16565b848352600195909501949186019186016146e0565b5098975050505050505050565b600060208284031215614728578081fd5b610fdd826141c7565b60008060408385031215614743578182fd5b61474c836141c7565b9150602083015190509250929050565b60006020828403121561476d578081fd5b8135610fdd81614b16565b6000806040838503121561478a578182fd5b823561479581614b16565b915060208301356147a581614b16565b809150509250929050565b600080604083850312156144eb578182fd5b6000806000606084860312156147d6578081fd5b83356147e181614b16565b92506020840135915060408401356147f881614b16565b809150509250925092565b600080600060608486031215614817578081fd5b833561482281614b16565b95602085013595506040909401359392505050565b600060208284031215614848578081fd5b610fdd826141d7565b600060208284031215614862578081fd5b610fdd826141e6565b60006020828403121561487c578081fd5b5051919050565b60008060408385031215614895578182fd5b505080516020909101519092909150565b600081518084526148be816020860160208601614a9e565b601f01601f19169290920160200192915050565b600082516148e4818460208701614a9e565b9190910192915050565b6020808252825182820181905260009190848201906040850190845b8181101561492f5783516001600160a01b03168352928401929184019160010161490a565b50909695505050505050565b602081526000610fdd60208301846148a6565b60408152600061496160408301856148a6565b90508260208301529392505050565b60405160a0810167ffffffffffffffff8111828210171561499357614993614b00565b60405290565b604051610120810167ffffffffffffffff8111828210171561499357614993614b00565b604051610180810167ffffffffffffffff8111828210171561499357614993614b00565b604051601f8201601f1916810167ffffffffffffffff81118282101715614a0a57614a0a614b00565b604052919050565b60008219821115614a2557614a25614aea565b500190565b600082614a4557634e487b7160e01b81526012600452602481fd5b500490565b6000817fffffffffffffffffffffffffffffffffffffffffffffffffffffffffffffffff0483118215151615614a8257614a82614aea565b500290565b600082821015614a9957614a99614aea565b500390565b60005b83811015614ab9578181015183820152602001614aa1565b838111156104875750506000910152565b600060ff821660ff811415614ae157614ae1614aea565b60010192915050565b634e487b7160e01b600052601160045260246000fd5b634e487b7160e01b600052604160045260246000fd5b6001600160a01b0381168114613ede57600080fd5b60048110613ede57600080fdfea26469706673582212205f617654d6276898ecf7b656a7923a71b9474b1b22d7b10bf7da7561ed38f70864736f6c63430008040033",
  "linkReferences": {},
  "deployedLinkReferences": {}
}