{
  "_format": "hh-sol-artifact-1",
  "contractName": "FlexDaoSetAdapterContract",
  "sourceName": "contracts/flex/adatpers/FlexDaoSetAdapter.sol",
  "abi": [
    {
      "inputs": [],
      "name": "VOTING_NOT_FINISH",
      "type": "error"
    },
    {
      "anonymous": false,
      "inputs": [
        {
          "indexed": false,
          "internalType": "address",
          "name": "daoAddr",
          "type": "address"
        },
        {
          "indexed": false,
          "internalType": "bytes32",
          "name": "proposalId",
          "type": "bytes32"
        },
        {
          "indexed": false,
          "internalType": "enum FlexDaosetLibrary.ProposalType",
          "name": "pType",
          "type": "uint8"
        }
      ],
      "name": "ProposalCreated",
      "type": "event"
    },
    {
      "anonymous": false,
      "inputs": [
        {
          "indexed": false,
          "internalType": "address",
          "name": "daoAddr",
          "type": "address"
        },
        {
          "indexed": false,
          "internalType": "bytes32",
          "name": "proposalId",
          "type": "bytes32"
        },
        {
          "indexed": false,
          "internalType": "uint256",
          "name": "voteResult",
          "type": "uint256"
        },
        {
          "indexed": false,
          "internalType": "uint128",
          "name": "allVotingWeight",
          "type": "uint128"
        },
        {
          "indexed": false,
          "internalType": "uint256",
          "name": "nbYes",
          "type": "uint256"
        },
        {
          "indexed": false,
          "internalType": "uint256",
          "name": "nbNo",
          "type": "uint256"
        }
      ],
      "name": "ProposalProcessed",
      "type": "event"
    },
    {
      "inputs": [
        {
          "internalType": "address",
          "name": "",
          "type": "address"
        },
        {
          "internalType": "bytes32",
          "name": "",
          "type": "bytes32"
        }
      ],
      "name": "feesProposals",
      "outputs": [
        {
          "internalType": "uint256",
          "name": "flexDaoManagementfee",
          "type": "uint256"
        },
        {
          "internalType": "uint256",
          "name": "returnTokenManagementFee",
          "type": "uint256"
        },
        {
          "internalType": "address",
          "name": "managementFeeAddress",
          "type": "address"
        },
        {
          "internalType": "uint256",
          "name": "creationTime",
          "type": "uint256"
        },
        {
          "internalType": "uint256",
          "name": "stopVoteTime",
          "type": "uint256"
        },
        {
          "internalType": "enum FlexDaosetLibrary.ProposalState",
          "name": "state",
          "type": "uint8"
        }
      ],
      "stateMutability": "view",
      "type": "function"
    },
    {
      "inputs": [
        {
          "internalType": "bytes32",
          "name": "proposalId",
          "type": "bytes32"
        }
      ],
      "name": "getGovernorWhitelist",
      "outputs": [
        {
          "internalType": "address[]",
          "name": "",
          "type": "address[]"
        }
      ],
      "stateMutability": "view",
      "type": "function"
    },
    {
      "inputs": [
        {
          "internalType": "bytes32",
          "name": "proposalId",
          "type": "bytes32"
        }
      ],
      "name": "getInvestorWhitelist",
      "outputs": [
        {
          "internalType": "address[]",
          "name": "",
          "type": "address[]"
        }
      ],
      "stateMutability": "view",
      "type": "function"
    },
    {
      "inputs": [
        {
          "internalType": "bytes32",
          "name": "proposalId",
          "type": "bytes32"
        }
      ],
      "name": "getProposerMembershipWhitelist",
      "outputs": [
        {
          "internalType": "address[]",
          "name": "",
          "type": "address[]"
        }
      ],
      "stateMutability": "view",
      "type": "function"
    },
    {
      "inputs": [
        {
          "internalType": "address",
          "name": "",
          "type": "address"
        },
        {
          "internalType": "bytes32",
          "name": "",
          "type": "bytes32"
        }
      ],
      "name": "governorMembershipProposals",
      "outputs": [
        {
          "internalType": "bool",
          "name": "enable",
          "type": "bool"
        },
        {
          "internalType": "string",
          "name": "name",
          "type": "string"
        },
        {
          "internalType": "uint8",
          "name": "varifyType",
          "type": "uint8"
        },
        {
          "internalType": "uint256",
          "name": "minAmount",
          "type": "uint256"
        },
        {
          "internalType": "address",
          "name": "tokenAddress",
          "type": "address"
        },
        {
          "internalType": "uint256",
          "name": "tokenId",
          "type": "uint256"
        },
        {
          "internalType": "uint256",
          "name": "creationTime",
          "type": "uint256"
        },
        {
          "internalType": "uint256",
          "name": "stopVoteTime",
          "type": "uint256"
        },
        {
          "internalType": "enum FlexDaosetLibrary.ProposalState",
          "name": "state",
          "type": "uint8"
        }
      ],
      "stateMutability": "view",
      "type": "function"
    },
    {
      "inputs": [
        {
          "internalType": "address",
          "name": "",
          "type": "address"
        },
        {
          "internalType": "bytes32",
          "name": "",
          "type": "bytes32"
        }
      ],
      "name": "investorCapProposals",
      "outputs": [
        {
          "internalType": "bool",
          "name": "enable",
          "type": "bool"
        },
        {
          "internalType": "uint256",
          "name": "cap",
          "type": "uint256"
        },
        {
          "internalType": "uint256",
          "name": "creationTime",
          "type": "uint256"
        },
        {
          "internalType": "uint256",
          "name": "stopVoteTime",
          "type": "uint256"
        },
        {
          "internalType": "enum FlexDaosetLibrary.ProposalState",
          "name": "state",
          "type": "uint8"
        }
      ],
      "stateMutability": "view",
      "type": "function"
    },
    {
      "inputs": [
        {
          "internalType": "address",
          "name": "",
          "type": "address"
        },
        {
          "internalType": "bytes32",
          "name": "",
          "type": "bytes32"
        }
      ],
      "name": "investorMembershipProposals",
      "outputs": [
        {
          "internalType": "bool",
          "name": "enable",
          "type": "bool"
        },
        {
          "internalType": "string",
          "name": "name",
          "type": "string"
        },
        {
          "internalType": "uint8",
          "name": "varifyType",
          "type": "uint8"
        },
        {
          "internalType": "uint256",
          "name": "minAmount",
          "type": "uint256"
        },
        {
          "internalType": "address",
          "name": "tokenAddress",
          "type": "address"
        },
        {
          "internalType": "uint256",
          "name": "tokenId",
          "type": "uint256"
        },
        {
          "internalType": "uint256",
          "name": "creationTime",
          "type": "uint256"
        },
        {
          "internalType": "uint256",
          "name": "stopVoteTime",
          "type": "uint256"
        },
        {
          "internalType": "enum FlexDaosetLibrary.ProposalState",
          "name": "state",
          "type": "uint8"
        }
      ],
      "stateMutability": "view",
      "type": "function"
    },
    {
      "inputs": [
        {
          "internalType": "contract DaoRegistry",
          "name": "dao",
          "type": "address"
        },
        {
          "internalType": "address",
          "name": "_addr",
          "type": "address"
        }
      ],
      "name": "isActiveMember",
      "outputs": [
        {
          "internalType": "bool",
          "name": "",
          "type": "bool"
        }
      ],
      "stateMutability": "view",
      "type": "function"
    },
    {
      "inputs": [
        {
          "internalType": "contract DaoRegistry",
          "name": "dao",
          "type": "address"
        }
      ],
      "name": "isProposalAllDone",
      "outputs": [
        {
          "internalType": "bool",
          "name": "",
          "type": "bool"
        }
      ],
      "stateMutability": "view",
      "type": "function"
    },
    {
      "inputs": [
        {
          "internalType": "address",
          "name": "",
          "type": "address"
        }
      ],
      "name": "ongoingFeesProposal",
      "outputs": [
        {
          "internalType": "bytes32",
          "name": "",
          "type": "bytes32"
        }
      ],
      "stateMutability": "view",
      "type": "function"
    },
    {
      "inputs": [
        {
          "internalType": "address",
          "name": "",
          "type": "address"
        }
      ],
      "name": "ongoingGovernorMembershipProposal",
      "outputs": [
        {
          "internalType": "bytes32",
          "name": "",
          "type": "bytes32"
        }
      ],
      "stateMutability": "view",
      "type": "function"
    },
    {
      "inputs": [
        {
          "internalType": "address",
          "name": "",
          "type": "address"
        }
      ],
      "name": "ongoingInvestorCapProposal",
      "outputs": [
        {
          "internalType": "bytes32",
          "name": "",
          "type": "bytes32"
        }
      ],
      "stateMutability": "view",
      "type": "function"
    },
    {
      "inputs": [
        {
          "internalType": "address",
          "name": "",
          "type": "address"
        }
      ],
      "name": "ongoingInvstorMembershipProposal",
      "outputs": [
        {
          "internalType": "bytes32",
          "name": "",
          "type": "bytes32"
        }
      ],
      "stateMutability": "view",
      "type": "function"
    },
    {
      "inputs": [
        {
          "internalType": "address",
          "name": "",
          "type": "address"
        }
      ],
      "name": "ongoingProposerMembershipProposal",
      "outputs": [
        {
          "internalType": "bytes32",
          "name": "",
          "type": "bytes32"
        }
      ],
      "stateMutability": "view",
      "type": "function"
    },
    {
      "inputs": [
        {
          "internalType": "contract DaoRegistry",
          "name": "dao",
          "type": "address"
        },
        {
          "internalType": "bytes32",
          "name": "proposalId",
          "type": "bytes32"
        }
      ],
      "name": "processFeesProposal",
      "outputs": [],
      "stateMutability": "nonpayable",
      "type": "function"
    },
    {
      "inputs": [
        {
          "internalType": "contract DaoRegistry",
          "name": "dao",
          "type": "address"
        },
        {
          "internalType": "bytes32",
          "name": "proposalId",
          "type": "bytes32"
        }
      ],
      "name": "processGovernorMembershipProposal",
      "outputs": [],
      "stateMutability": "nonpayable",
      "type": "function"
    },
    {
      "inputs": [
        {
          "internalType": "contract DaoRegistry",
          "name": "dao",
          "type": "address"
        },
        {
          "internalType": "bytes32",
          "name": "proposalId",
          "type": "bytes32"
        }
      ],
      "name": "processInvestorCapProposal",
      "outputs": [],
      "stateMutability": "nonpayable",
      "type": "function"
    },
    {
      "inputs": [
        {
          "internalType": "contract DaoRegistry",
          "name": "dao",
          "type": "address"
        },
        {
          "internalType": "bytes32",
          "name": "proposalId",
          "type": "bytes32"
        }
      ],
      "name": "processInvestorMembershipProposal",
      "outputs": [],
      "stateMutability": "nonpayable",
      "type": "function"
    },
    {
      "inputs": [
        {
          "internalType": "contract DaoRegistry",
          "name": "dao",
          "type": "address"
        },
        {
          "internalType": "bytes32",
          "name": "proposalId",
          "type": "bytes32"
        }
      ],
      "name": "processPollForInvestmentProposal",
      "outputs": [],
      "stateMutability": "nonpayable",
      "type": "function"
    },
    {
      "inputs": [
        {
          "internalType": "contract DaoRegistry",
          "name": "dao",
          "type": "address"
        },
        {
          "internalType": "bytes32",
          "name": "proposalId",
          "type": "bytes32"
        }
      ],
      "name": "processProposerMembershipProposal",
      "outputs": [],
      "stateMutability": "nonpayable",
      "type": "function"
    },
    {
      "inputs": [
        {
          "internalType": "contract DaoRegistry",
          "name": "dao",
          "type": "address"
        },
        {
          "internalType": "bytes32",
          "name": "proposalId",
          "type": "bytes32"
        }
      ],
      "name": "processVotingProposal",
      "outputs": [],
      "stateMutability": "nonpayable",
      "type": "function"
    },
    {
      "inputs": [
        {
          "internalType": "address",
          "name": "",
          "type": "address"
        },
        {
          "internalType": "bytes32",
          "name": "",
          "type": "bytes32"
        }
      ],
      "name": "proposerMembershipProposals",
      "outputs": [
        {
          "internalType": "bool",
          "name": "proposerMembershipEnable",
          "type": "bool"
        },
        {
          "internalType": "string",
          "name": "name",
          "type": "string"
        },
        {
          "internalType": "uint8",
          "name": "varifyType",
          "type": "uint8"
        },
        {
          "internalType": "uint256",
          "name": "minHolding",
          "type": "uint256"
        },
        {
          "internalType": "address",
          "name": "tokenAddress",
          "type": "address"
        },
        {
          "internalType": "uint256",
          "name": "tokenId",
          "type": "uint256"
        },
        {
          "internalType": "uint256",
          "name": "creationTime",
          "type": "uint256"
        },
        {
          "internalType": "uint256",
          "name": "stopVoteTime",
          "type": "uint256"
        },
        {
          "internalType": "enum FlexDaosetLibrary.ProposalState",
          "name": "state",
          "type": "uint8"
        }
      ],
      "stateMutability": "view",
      "type": "function"
    },
    {
      "inputs": [
        {
          "internalType": "contract DaoRegistry",
          "name": "dao",
          "type": "address"
        },
        {
          "internalType": "uint256",
          "name": "flexDaoManagementfee",
          "type": "uint256"
        },
        {
          "internalType": "uint256",
          "name": "returnTokenManagementFee",
          "type": "uint256"
        },
        {
          "internalType": "address",
          "name": "managementFeeAddress",
          "type": "address"
        }
      ],
      "name": "submitFeesProposal",
      "outputs": [],
      "stateMutability": "nonpayable",
      "type": "function"
    },
    {
      "inputs": [
        {
          "components": [
            {
              "internalType": "contract DaoRegistry",
              "name": "dao",
              "type": "address"
            },
            {
              "internalType": "bool",
              "name": "enable",
              "type": "bool"
            },
            {
              "internalType": "string",
              "name": "name",
              "type": "string"
            },
            {
              "internalType": "uint8",
              "name": "varifyType",
              "type": "uint8"
            },
            {
              "internalType": "uint256",
              "name": "minAmount",
              "type": "uint256"
            },
            {
              "internalType": "address",
              "name": "tokenAddress",
              "type": "address"
            },
            {
              "internalType": "uint256",
              "name": "tokenId",
              "type": "uint256"
            },
            {
              "internalType": "address[]",
              "name": "whiteList",
              "type": "address[]"
            }
          ],
          "internalType": "struct FlexDaosetLibrary.GovernorMembershipParams",
          "name": "params",
          "type": "tuple"
        }
      ],
      "name": "submitGovernorMembershipProposal",
      "outputs": [],
      "stateMutability": "nonpayable",
      "type": "function"
    },
    {
      "inputs": [
        {
          "internalType": "contract DaoRegistry",
          "name": "dao",
          "type": "address"
        },
        {
          "internalType": "bool",
          "name": "enable",
          "type": "bool"
        },
        {
          "internalType": "uint256",
          "name": "cap",
          "type": "uint256"
        }
      ],
      "name": "submitInvestorCapProposal",
      "outputs": [],
      "stateMutability": "nonpayable",
      "type": "function"
    },
    {
      "inputs": [
        {
          "components": [
            {
              "internalType": "contract DaoRegistry",
              "name": "dao",
              "type": "address"
            },
            {
              "internalType": "bool",
              "name": "enable",
              "type": "bool"
            },
            {
              "internalType": "string",
              "name": "name",
              "type": "string"
            },
            {
              "internalType": "uint8",
              "name": "varifyType",
              "type": "uint8"
            },
            {
              "internalType": "uint256",
              "name": "minAmount",
              "type": "uint256"
            },
            {
              "internalType": "address",
              "name": "tokenAddress",
              "type": "address"
            },
            {
              "internalType": "uint256",
              "name": "tokenId",
              "type": "uint256"
            },
            {
              "internalType": "address[]",
              "name": "whiteList",
              "type": "address[]"
            }
          ],
          "internalType": "struct FlexDaosetLibrary.InvestorMembershipParams",
          "name": "params",
          "type": "tuple"
        }
      ],
      "name": "submitInvestorMembershipProposal",
      "outputs": [],
      "stateMutability": "nonpayable",
      "type": "function"
    },
    {
      "inputs": [
        {
          "components": [
            {
              "internalType": "contract DaoRegistry",
              "name": "dao",
              "type": "address"
            },
            {
              "components": [
                {
                  "internalType": "string",
                  "name": "name",
                  "type": "string"
                },
                {
                  "internalType": "uint8",
                  "name": "varifyType",
                  "type": "uint8"
                },
                {
                  "internalType": "uint256",
                  "name": "minHolding",
                  "type": "uint256"
                },
                {
                  "internalType": "address",
                  "name": "tokenAddress",
                  "type": "address"
                },
                {
                  "internalType": "uint256",
                  "name": "tokenId",
                  "type": "uint256"
                },
                {
                  "internalType": "address[]",
                  "name": "whiteList",
                  "type": "address[]"
                }
              ],
              "internalType": "struct FlexDaosetLibrary.FlexDaoPollVoterMembershipInfo",
              "name": "pollvoterMembership",
              "type": "tuple"
            },
            {
              "components": [
                {
                  "internalType": "uint256",
                  "name": "votingPeriod",
                  "type": "uint256"
                },
                {
                  "internalType": "uint8",
                  "name": "votingPower",
                  "type": "uint8"
                },
                {
                  "internalType": "uint256",
                  "name": "superMajority",
                  "type": "uint256"
                },
                {
                  "internalType": "uint256",
                  "name": "quorum",
                  "type": "uint256"
                },
                {
                  "internalType": "uint256",
                  "name": "votingAssetType",
                  "type": "uint256"
                },
                {
                  "internalType": "address",
                  "name": "tokenAddress",
                  "type": "address"
                },
                {
                  "internalType": "uint256",
                  "name": "tokenID",
                  "type": "uint256"
                },
                {
                  "internalType": "uint256",
                  "name": "supportType",
                  "type": "uint256"
                },
                {
                  "internalType": "uint256",
                  "name": "quorumType",
                  "type": "uint256"
                }
              ],
              "internalType": "struct FlexDaosetLibrary.flexDaoPollingInfo",
              "name": "pollingInfo",
              "type": "tuple"
            }
          ],
          "internalType": "struct FlexDaosetLibrary.PollForInvestmentParams",
          "name": "params",
          "type": "tuple"
        }
      ],
      "name": "submitPollForInvestmentProposal",
      "outputs": [],
      "stateMutability": "nonpayable",
      "type": "function"
    },
    {
      "inputs": [
        {
          "components": [
            {
              "internalType": "contract DaoRegistry",
              "name": "dao",
              "type": "address"
            },
            {
              "internalType": "bool",
              "name": "proposerMembershipEnable",
              "type": "bool"
            },
            {
              "internalType": "string",
              "name": "name",
              "type": "string"
            },
            {
              "internalType": "uint8",
              "name": "varifyType",
              "type": "uint8"
            },
            {
              "internalType": "uint256",
              "name": "minHolding",
              "type": "uint256"
            },
            {
              "internalType": "address",
              "name": "tokenAddress",
              "type": "address"
            },
            {
              "internalType": "uint256",
              "name": "tokenId",
              "type": "uint256"
            },
            {
              "internalType": "address[]",
              "name": "whiteList",
              "type": "address[]"
            }
          ],
          "internalType": "struct FlexDaosetLibrary.ProposerMembershipParams",
          "name": "params",
          "type": "tuple"
        }
      ],
      "name": "submitProposerMembershipProposal",
      "outputs": [],
      "stateMutability": "nonpayable",
      "type": "function"
    },
    {
      "inputs": [
        {
          "components": [
            {
              "internalType": "contract DaoRegistry",
              "name": "dao",
              "type": "address"
            },
            {
              "internalType": "uint256",
              "name": "votingAssetType",
              "type": "uint256"
            },
            {
              "internalType": "address",
              "name": "tokenAddress",
              "type": "address"
            },
            {
              "internalType": "uint256",
              "name": "tokenID",
              "type": "uint256"
            },
            {
              "internalType": "uint256",
              "name": "votingWeightedType",
              "type": "uint256"
            },
            {
              "internalType": "uint256",
              "name": "supportType",
              "type": "uint256"
            },
            {
              "internalType": "uint256",
              "name": "quorumType",
              "type": "uint256"
            },
            {
              "internalType": "uint256",
              "name": "support",
              "type": "uint256"
            },
            {
              "internalType": "uint256",
              "name": "quorum",
              "type": "uint256"
            },
            {
              "internalType": "uint256",
              "name": "votingPeriod",
              "type": "uint256"
            },
            {
              "internalType": "uint256",
              "name": "executingPeriod",
              "type": "uint256"
            },
            {
              "internalType": "address[]",
              "name": "governors",
              "type": "address[]"
            },
            {
              "internalType": "uint256[]",
              "name": "allocations",
              "type": "uint256[]"
            }
          ],
          "internalType": "struct FlexDaosetLibrary.VotingParams",
          "name": "params",
          "type": "tuple"
        }
      ],
      "name": "submitVotingProposal",
      "outputs": [],
      "stateMutability": "nonpayable",
      "type": "function"
    }
  ],
  "bytecode": "0x608060405234801561001057600080fd5b50615fa780620000216000396000f3fe608060405234801561001057600080fd5b50600436106101cf5760003560e01c8063985460c711610104578063d0740c2c116100a2578063f2bc1c0211610071578063f2bc1c02146104c6578063f7d0c6ec146104e6578063f8ffc75b146104f9578063f92f33a11461051957600080fd5b8063d0740c2c1461047a578063d3efe3761461048d578063ea739f30146104a0578063eb114772146104b357600080fd5b8063ab1a2798116100de578063ab1a279814610421578063ae98454514610434578063b58ca31e14610447578063be2176251461045a57600080fd5b8063985460c7146103db5780639a0242fc146103fb578063a860dfdd1461040e57600080fd5b8063234d3516116101715780635bd72f0c1161014b5780635bd72f0c1461037f5780638e3588dc146103925780638ecf7720146103a55780638f20d7a1146103c857600080fd5b8063234d3516146102ec57806347a71a85146102ff5780634ad743cc1461031257600080fd5b806307dc8eb8116101ad57806307dc8eb81461026e57806311511186146102835780631eb1cf39146102b1578063229bb5f4146102d957600080fd5b806302395759146101d4578063034f82fe146101fd5780630791e1de1461025b575b600080fd5b6101e76101e236600461518c565b61052c565b6040516101f49190615844565b60405180910390f35b61024a61020b366004615035565b60056020908152600092835260408084209091529082529020805460018201546002830154600384015460049094015460ff9384169492939192911685565b6040516101f49594939291906158c2565b6101e761026936600461518c565b61054c565b61028161027c366004615234565b610566565b005b6102a3610291366004614ffd565b60036020526000908152604090205481565b6040519081526020016101f4565b6102c46102bf366004615035565b6106bb565b6040516101f499989796959493929190615857565b6102816102e7366004615308565b6107ac565b6102816102fa366004615308565b610d90565b61028161030d366004615234565b611300565b61036d610320366004615035565b6008602090815260009283526040808420909152908252902080546001820154600283015460038401546004850154600590950154939492936001600160a01b0390921692909160ff1686565b6040516101f496959493929190615c99565b61028161038d366004615246565b61141e565b6102816103a0366004615234565b611780565b6103b86103b33660046151bc565b61189e565b60405190151581526020016101f4565b6102816103d636600461533b565b61193b565b6102a36103e9366004614ffd565b60026020526000908152604090205481565b6103b8610409366004614ffd565b611b3b565b61028161041c366004615234565b611e71565b6102c461042f366004615035565b61206b565b6102816104423660046151f4565b61209c565b6102c4610455366004615035565b6123ce565b6102a3610468366004614ffd565b60016020526000908152604090205481565b610281610488366004615308565b6123ff565b61028161049b366004615374565b61296f565b6102816104ae366004615234565b612b5b565b6102816104c1366004615234565b612c5f565b6102a36104d4366004614ffd565b60046020526000908152604090205481565b6102816104f4366004615234565b612d7c565b6102a3610507366004614ffd565b60006020819052908152604090205481565b6101e761052736600461518c565b612e9a565b6000818152600c6020526040902060609061054690612eb0565b92915050565b6000818152600a6020526040902060609061054690612eb0565b81600061057282612ebd565b6001600160a01b038516600090815260056020908152604080832087845290915281209192506105a28686613188565b50909150600290508160058111156105ca57634e487b7160e01b600052602160045260246000fd5b14156105f6576105da8683613437565b6004820180546002919060ff19166001835b0217905550610690565b600381600581111561061857634e487b7160e01b600052602160045260246000fd5b14806106435750600181600581111561064157634e487b7160e01b600052602160045260246000fd5b145b1561065e576004820180546003919060ff19166001836105ec565b6040517f70fc772800000000000000000000000000000000000000000000000000000000815260040160405180910390fd5b50506001600160a01b0384166000908152602081905260408120556106b58282613560565b50505050565b60066020908152600092835260408084209091529082529020805460018201805460ff90921692916106ec90615e51565b80601f016020809104026020016040519081016040528092919081815260200182805461071890615e51565b80156107655780601f1061073a57610100808354040283529160200191610765565b820191906000526020600020905b81548152906001019060200180831161074857829003601f168201915b505050600284015460038501546004860154600587015460068801546007890154600890990154979860ff958616989497506001600160a01b039093169550909390921689565b6107b96020820182614ffd565b6107c3813361356f565b6107d06020830183614ffd565b60006107db82612ebd565b905060006001816107ef6020880188614ffd565b6001600160a01b03166001600160a01b03168152602001908152602001600020541461084c5760405162461bcd60e51b8152602060048201526007602482015266085cdd589b5a5d60ca1b60448201526064015b60405180910390fd5b61086161085c6020860186614ffd565b6135c5565b6108a05760405162461bcd60e51b815260206004820152601060248201526f756e446f6e652050726f706f73616c7360801b6044820152606401610843565b6108ad6020850185614ffd565b6001600160a01b031663c7e820cc6040518163ffffffff1660e01b8152600401600060405180830381600087803b1580156108e757600080fd5b505af11580156108fb573d6000803e3d6000fd5b50600092506109c1915061091490506020870187614ffd565b60c01b61099c6109276020890189614ffd565b6001600160a01b0316639e42c4036040518163ffffffff1660e01b815260040160206040518083038186803b15801561095f57600080fd5b505afa158015610973573d6000803e3d6000fd5b505050506040513d601f19601f8201168201806040525081019061099791906151a4565b613846565b6040516020016109ad929190615628565b60405160208183030381529060405261399c565b90506040518061012001604052808660200160208101906109e29190615127565b151581526020016109f66040880188615d21565b8080601f016020809104026020016040519081016040528093929190818152602001838380828437600092019190915250505090825250602001610a4060808801606089016153c7565b60ff16815260808701356020820152604001610a6260c0880160a08901614ffd565b6001600160a01b031681526020018660c001358152602001428152602001866000016020810190610a939190614ffd565b604051634941d71d60e11b81527f9876c0f0505bfb2b1c38d3bbd25ba13159172cd0868972d76927723f5a9480fc60048201526001600160a01b039190911690639283ae3a9060240160206040518083038186803b158015610af457600080fd5b505afa158015610b08573d6000803e3d6000fd5b505050506040513d601f19601f82011682018060405250810190610b2c91906151a4565b610b369042615de2565b81526020016000905260066000610b506020890189614ffd565b6001600160a01b03168152602080820192909252604090810160009081208582528352208251815460ff19169015151781558282015180519192610b9c92600185019290910190614ef7565b50604082015160028201805460ff90921660ff19928316179055606083015160038084019190915560808401516004840180546001600160a01b0390921673ffffffffffffffffffffffffffffffffffffffff1990921691909117905560a0840151600584015560c0840151600684015560e08401516007840155610100840151600884018054919390929116906001908490811115610c4c57634e487b7160e01b600052602160045260246000fd5b021790555060009150610c64905060e0870187615cd2565b90501115610cf75760005b610c7c60e0870187615cd2565b90508160ff161015610cf557610ce2610c9860e0880188615cd2565b8360ff16818110610cb957634e487b7160e01b600052603260045260246000fd5b9050602002016020810190610cce9190614ffd565b6000848152600a60205260409020906139b8565b5080610ced81615ebf565b915050610c6f565b505b8060016000610d096020890189614ffd565b6001600160a01b0316815260208082019290925260400160002091909155610d3d90610d3790870187614ffd565b826139cd565b7fa65d0c07e3b0d876ee52e871c234a4b150b9bf17a08f356f5aeda8d6782cc31a610d6b6020870187614ffd565b826001604051610d7d9392919061580f565b60405180910390a1506106b58282613560565b610d9d6020820182614ffd565b610da7813361356f565b610db46020830183614ffd565b6000610dbf82612ebd565b90506000600281610dd36020880188614ffd565b6001600160a01b03166001600160a01b031681526020019081526020016000205414610e2b5760405162461bcd60e51b8152602060048201526007602482015266085cdd589b5a5d60ca1b6044820152606401610843565b610e3b61085c6020860186614ffd565b610e7a5760405162461bcd60e51b815260206004820152601060248201526f756e446f6e652050726f706f73616c7360801b6044820152606401610843565b610e876020850185614ffd565b6001600160a01b031663822d63156040518163ffffffff1660e01b8152600401600060405180830381600087803b158015610ec157600080fd5b505af1158015610ed5573d6000803e3d6000fd5b5060009250610f4a9150610eee90506020870187614ffd565b60c01b610f39610f016020890189614ffd565b6001600160a01b031663b5d3788e6040518163ffffffff1660e01b815260040160206040518083038186803b15801561095f57600080fd5b6040516020016109ad9291906156e8565b9050604051806101200160405280866020016020810190610f6b9190615127565b15158152602001610f7f6040880188615d21565b8080601f016020809104026020016040519081016040528093929190818152602001838380828437600092019190915250505090825250602001610fc960808801606089016153c7565b60ff16815260808701356020820152604001610feb60c0880160a08901614ffd565b6001600160a01b031681526020018660c00135815260200142815260200186600001602081019061101c9190614ffd565b604051634941d71d60e11b81527f9876c0f0505bfb2b1c38d3bbd25ba13159172cd0868972d76927723f5a9480fc60048201526001600160a01b039190911690639283ae3a9060240160206040518083038186803b15801561107d57600080fd5b505afa158015611091573d6000803e3d6000fd5b505050506040513d601f19601f820116820180604052508101906110b591906151a4565b6110bf9042615de2565b815260200160009052600760006110d96020890189614ffd565b6001600160a01b03168152602080820192909252604090810160009081208582528352208251815460ff1916901515178155828201518051919261112592600185019290910190614ef7565b50604082015160028201805460ff90921660ff19928316179055606083015160038084019190915560808401516004840180546001600160a01b0390921673ffffffffffffffffffffffffffffffffffffffff1990921691909117905560a0840151600584015560c0840151600684015560e084015160078401556101008401516008840180549193909291169060019084908111156111d557634e487b7160e01b600052602160045260246000fd5b0217905550600091506111ed905060e0870187615cd2565b905011156112805760005b61120560e0870187615cd2565b90508160ff16101561127e5761126b61122160e0880188615cd2565b8360ff1681811061124257634e487b7160e01b600052603260045260246000fd5b90506020020160208101906112579190614ffd565b6000848152600b60205260409020906139b8565b508061127681615ebf565b9150506111f8565b505b80600260006112926020890189614ffd565b6001600160a01b03168152602080820192909252604001600020919091556112c090610d3790870187614ffd565b7fa65d0c07e3b0d876ee52e871c234a4b150b9bf17a08f356f5aeda8d6782cc31a6112ee6020870187614ffd565b826002604051610d7d9392919061580f565b81600061130c82612ebd565b6001600160a01b0385166000908152600760209081526040808320878452909152812091925061133c8686613188565b509091506002905081600581111561136457634e487b7160e01b600052602160045260246000fd5b141561139157611375868684613bb1565b6008820180546002919060ff19166001835b02179055506113f9565b60038160058111156113b357634e487b7160e01b600052602160045260246000fd5b14806113de575060018160058111156113dc57634e487b7160e01b600052602160045260246000fd5b145b1561065e576008820180546003919060ff1916600183611387565b50506001600160a01b0384166000908152600260205260408120556106b58282613560565b83611429813361356f565b84600061143582612ebd565b6001600160a01b038816600090815260036020526040902054909150156114885760405162461bcd60e51b8152602060048201526007602482015266085cdd589b5a5d60ca1b6044820152606401610843565b611491876135c5565b6114d05760405162461bcd60e51b815260206004820152601060248201526f756e446f6e652050726f706f73616c7360801b6044820152606401610843565b866001600160a01b031663091a3e9c6040518163ffffffff1660e01b8152600401600060405180830381600087803b15801561150b57600080fd5b505af115801561151f573d6000803e3d6000fd5b5050505060006115798860c01b6115688a6001600160a01b031663f8385b2d6040518163ffffffff1660e01b815260040160206040518083038186803b15801561095f57600080fd5b6040516020016109ad9291906157a8565b90506040518060c00160405280888152602001878152602001866001600160a01b03168152602001428152602001896001600160a01b0316639283ae3a7f9876c0f0505bfb2b1c38d3bbd25ba13159172cd0868972d76927723f5a9480fc6040518263ffffffff1660e01b81526004016115f591815260200190565b60206040518083038186803b15801561160d57600080fd5b505afa158015611621573d6000803e3d6000fd5b505050506040513d601f19601f8201168201806040525081019061164591906151a4565b61164f9042615de2565b8152602001600090526001600160a01b03898116600090815260086020908152604080832086845282529182902084518155908401516001808301919091559184015160028201805473ffffffffffffffffffffffffffffffffffffffff1916919094161790925560608301516003808401919091556080840151600484015560a08401516005840180549193909260ff1990921691849081111561170457634e487b7160e01b600052602160045260246000fd5b021790555050506001600160a01b038816600090815260036020526040902081905561173088826139cd565b7fa65d0c07e3b0d876ee52e871c234a4b150b9bf17a08f356f5aeda8d6782cc31a888260046040516117649392919061580f565b60405180910390a1506117778282613560565b50505050505050565b81600061178c82612ebd565b6001600160a01b038516600090815260066020908152604080832087845290915281209192506117bc8686613188565b50909150600290508160058111156117e457634e487b7160e01b600052602160045260246000fd5b1415611811576117f5868684613cfe565b6008820180546002919060ff19166001835b0217905550611879565b600381600581111561183357634e487b7160e01b600052602160045260246000fd5b148061185e5750600181600581111561185c57634e487b7160e01b600052602160045260246000fd5b145b1561065e576008820180546003919060ff1916600183611807565b50506001600160a01b0384166000908152600160205260408120556106b58282613560565b6040517fa230c5240000000000000000000000000000000000000000000000000000000081526001600160a01b0382811660048301526000919084169063a230c5249060240160206040518083038186803b1580156118fc57600080fd5b505afa158015611910573d6000803e3d6000fd5b505050506040513d601f19601f820116820180604052508101906119349190615143565b9392505050565b6119486020820182614ffd565b611952813361356f565b61195f6020830183614ffd565b600061196a82612ebd565b905061197c61085c6020860186614ffd565b6119bb5760405162461bcd60e51b815260206004820152601060248201526f756e446f6e652050726f706f73616c7360801b6044820152606401610843565b60006119ca6020860186614ffd565b6040516317ba7d8560e01b81527f5f0e8d109045653360289a7a02d5dc2a99e382006a42ef93f66de55ecff3176f60048201526001600160a01b0391909116906317ba7d859060240160206040518083038186803b158015611a2b57600080fd5b505afa158015611a3f573d6000803e3d6000fd5b505050506040513d601f19601f82011682018060405250810190611a639190615019565b90506000816001600160a01b0316638f20d7a1876040518263ffffffff1660e01b8152600401611a939190615a46565b602060405180830381600087803b158015611aad57600080fd5b505af1158015611ac1573d6000803e3d6000fd5b505050506040513d601f19601f82011682018060405250810190611ae591906151a4565b90507fa65d0c07e3b0d876ee52e871c234a4b150b9bf17a08f356f5aeda8d6782cc31a611b156020880188614ffd565b826006604051611b279392919061580f565b60405180910390a150506106b58282613560565b6040516317ba7d8560e01b81527f5f0e8d109045653360289a7a02d5dc2a99e382006a42ef93f66de55ecff3176f600482015260009081906001600160a01b038416906317ba7d859060240160206040518083038186803b158015611b9f57600080fd5b505afa158015611bb3573d6000803e3d6000fd5b505050506040513d601f19601f82011682018060405250810190611bd79190615019565b6040516317ba7d8560e01b81527f8ceb7c7dc4c27ecfdcfd7ab759513c13202213bb0305fcd8889452f229d798e760048201529091506000906001600160a01b038516906317ba7d859060240160206040518083038186803b158015611c3c57600080fd5b505afa158015611c50573d6000803e3d6000fd5b505050506040513d601f19601f82011682018060405250810190611c749190615019565b6001600160a01b038516600090815260208190526040902054909150151580611cb457506001600160a01b03841660009081526001602052604090205415155b80611cd657506001600160a01b03841660009081526002602052604090205415155b80611d7557506040517fb6939b7f0000000000000000000000000000000000000000000000000000000081526001600160a01b0385811660048301526000919083169063b6939b7f9060240160206040518083038186803b158015611d3a57600080fd5b505afa158015611d4e573d6000803e3d6000fd5b505050506040513d601f19601f82011682018060405250810190611d7291906151a4565b14155b80611d9757506001600160a01b03841660009081526003602052604090205415155b80611db957506001600160a01b03841660009081526004602052604090205415155b80611e5857506040517f791c73ba0000000000000000000000000000000000000000000000000000000081526001600160a01b0385811660048301526000919084169063791c73ba9060240160206040518083038186803b158015611e1d57600080fd5b505afa158015611e31573d6000803e3d6000fd5b505050506040513d601f19601f82011682018060405250810190611e5591906151a4565b14155b15611e67575060009392505050565b5060019392505050565b816000611e7d82612ebd565b6040516317ba7d8560e01b81527f8ceb7c7dc4c27ecfdcfd7ab759513c13202213bb0305fcd8889452f229d798e760048201529091506000906001600160a01b038616906317ba7d859060240160206040518083038186803b158015611ee257600080fd5b505afa158015611ef6573d6000803e3d6000fd5b505050506040513d601f19601f82011682018060405250810190611f1a9190615019565b6040517fa860dfdd0000000000000000000000000000000000000000000000000000000081526001600160a01b038781166004830152602482018790529192506000918291829182919086169063a860dfdd906044015b608060405180830381600087803b158015611f8b57600080fd5b505af1158015611f9f573d6000803e3d6000fd5b505050506040513d601f19601f82011682018060405250810190611fc391906152c3565b93509350935093507f31079f5404bf31284c3985351ef8eff4247cd77140001bc77841d2ecc855cf68898986600581111561200e57634e487b7160e01b600052602160045260246000fd5b604080516001600160a01b0390941684526020840192909252908201526fffffffffffffffffffffffffffffffff831660608201526080810185905260a0810184905260c00160405180910390a150505050506106b58282613560565b60096020908152600092835260408084209091529082529020805460018201805460ff90921692916106ec90615e51565b826120a7813361356f565b8360006120b382612ebd565b6001600160a01b038716600090815260208190526040902054909150156121065760405162461bcd60e51b8152602060048201526007602482015266085cdd589b5a5d60ca1b6044820152606401610843565b61210f866135c5565b61214e5760405162461bcd60e51b815260206004820152601060248201526f756e446f6e652050726f706f73616c7360801b6044820152606401610843565b856001600160a01b0316631785092b6040518163ffffffff1660e01b8152600401600060405180830381600087803b15801561218957600080fd5b505af115801561219d573d6000803e3d6000fd5b5050505060006121f78760c01b6121e6896001600160a01b0316633f8a3d496040518163ffffffff1660e01b815260040160206040518083038186803b15801561095f57600080fd5b6040516020016109ad929190615741565b90506040518060a001604052808715158152602001868152602001428152602001886001600160a01b0316639283ae3a7f9876c0f0505bfb2b1c38d3bbd25ba13159172cd0868972d76927723f5a9480fc6040518263ffffffff1660e01b815260040161226691815260200190565b60206040518083038186803b15801561227e57600080fd5b505afa158015612292573d6000803e3d6000fd5b505050506040513d601f19601f820116820180604052508101906122b691906151a4565b6122c09042615de2565b8152602001600090526001600160a01b03881660009081526005602090815260408083208584528252918290208351815490151560ff1991821617825591840151600180830191909155928401516002820155606084015160038083019190915560808501516004830180549395919490931691849081111561235357634e487b7160e01b600052602160045260246000fd5b021790555050506001600160a01b038716600090815260208190526040902081905561237f87826139cd565b7fa65d0c07e3b0d876ee52e871c234a4b150b9bf17a08f356f5aeda8d6782cc31a878260006040516123b39392919061580f565b60405180910390a1506123c68282613560565b505050505050565b60076020908152600092835260408084209091529082529020805460018201805460ff90921692916106ec90615e51565b61240c6020820182614ffd565b612416813361356f565b6124236020830183614ffd565b600061242e82612ebd565b905060006004816124426020880188614ffd565b6001600160a01b03166001600160a01b03168152602001908152602001600020541461249a5760405162461bcd60e51b8152602060048201526007602482015266085cdd589b5a5d60ca1b6044820152606401610843565b6124aa61085c6020860186614ffd565b6124e95760405162461bcd60e51b815260206004820152601060248201526f756e446f6e652050726f706f73616c7360801b6044820152606401610843565b6124f66020850185614ffd565b6001600160a01b031663b34dd9436040518163ffffffff1660e01b8152600401600060405180830381600087803b15801561253057600080fd5b505af1158015612544573d6000803e3d6000fd5b50600092506125b9915061255d90506020870187614ffd565b60c01b6125a86125706020890189614ffd565b6001600160a01b031663c43d70086040518163ffffffff1660e01b815260040160206040518083038186803b15801561095f57600080fd5b6040516020016109ad92919061568f565b90506040518061012001604052808660200160208101906125da9190615127565b151581526020016125ee6040880188615d21565b8080601f01602080910402602001604051908101604052809392919081815260200183838082843760009201919091525050509082525060200161263860808801606089016153c7565b60ff1681526080870135602082015260400161265a60c0880160a08901614ffd565b6001600160a01b031681526020018660c00135815260200142815260200186600001602081019061268b9190614ffd565b604051634941d71d60e11b81527f9876c0f0505bfb2b1c38d3bbd25ba13159172cd0868972d76927723f5a9480fc60048201526001600160a01b039190911690639283ae3a9060240160206040518083038186803b1580156126ec57600080fd5b505afa158015612700573d6000803e3d6000fd5b505050506040513d601f19601f8201168201806040525081019061272491906151a4565b61272e9042615de2565b815260200160009052600960006127486020890189614ffd565b6001600160a01b03168152602080820192909252604090810160009081208582528352208251815460ff1916901515178155828201518051919261279492600185019290910190614ef7565b50604082015160028201805460ff90921660ff19928316179055606083015160038084019190915560808401516004840180546001600160a01b0390921673ffffffffffffffffffffffffffffffffffffffff1990921691909117905560a0840151600584015560c0840151600684015560e0840151600784015561010084015160088401805491939092911690600190849081111561284457634e487b7160e01b600052602160045260246000fd5b02179055506000915061285c905060e0870187615cd2565b905011156128ef5760005b61287460e0870187615cd2565b90508160ff1610156128ed576128da61289060e0880188615cd2565b8360ff168181106128b157634e487b7160e01b600052603260045260246000fd5b90506020020160208101906128c69190614ffd565b6000848152600c60205260409020906139b8565b50806128e581615ebf565b915050612867565b505b80600460006129016020890189614ffd565b6001600160a01b031681526020808201929092526040016000209190915561292f90610d3790870187614ffd565b7fa65d0c07e3b0d876ee52e871c234a4b150b9bf17a08f356f5aeda8d6782cc31a61295d6020870187614ffd565b826005604051610d7d9392919061580f565b61297c6020820182614ffd565b612986813361356f565b6129936020830183614ffd565b600061299e82612ebd565b90506129b061085c6020860186614ffd565b6129ef5760405162461bcd60e51b815260206004820152601060248201526f756e446f6e652050726f706f73616c7360801b6044820152606401610843565b60006129fe6020860186614ffd565b6040516317ba7d8560e01b81527f8ceb7c7dc4c27ecfdcfd7ab759513c13202213bb0305fcd8889452f229d798e760048201526001600160a01b0391909116906317ba7d859060240160206040518083038186803b158015612a5f57600080fd5b505afa158015612a73573d6000803e3d6000fd5b505050506040513d601f19601f82011682018060405250810190612a979190615019565b90506000816001600160a01b031663d3efe376876040518263ffffffff1660e01b8152600401612ac79190615b9b565b602060405180830381600087803b158015612ae157600080fd5b505af1158015612af5573d6000803e3d6000fd5b505050506040513d601f19601f82011682018060405250810190612b1991906151a4565b90507fa65d0c07e3b0d876ee52e871c234a4b150b9bf17a08f356f5aeda8d6782cc31a612b496020880188614ffd565b826003604051611b279392919061580f565b816000612b6782612ebd565b6040516317ba7d8560e01b81527f5f0e8d109045653360289a7a02d5dc2a99e382006a42ef93f66de55ecff3176f60048201529091506000906001600160a01b038616906317ba7d859060240160206040518083038186803b158015612bcc57600080fd5b505afa158015612be0573d6000803e3d6000fd5b505050506040513d601f19601f82011682018060405250810190612c049190615019565b6040517fea739f300000000000000000000000000000000000000000000000000000000081526001600160a01b038781166004830152602482018790529192506000918291829182919086169063ea739f3090604401611f71565b816000612c6b82612ebd565b6001600160a01b03851660009081526008602090815260408083208784529091528120919250612c9b8686613188565b5090915060029050816005811115612cc357634e487b7160e01b600052602160045260246000fd5b1415612cef57612cd38683613e14565b6005820180546002919060ff19166001835b0217905550612d57565b6003816005811115612d1157634e487b7160e01b600052602160045260246000fd5b1480612d3c57506001816005811115612d3a57634e487b7160e01b600052602160045260246000fd5b145b1561065e576005820180546003919060ff1916600183612ce5565b50506001600160a01b0384166000908152600360205260408120556106b58282613560565b816000612d8882612ebd565b6001600160a01b03851660009081526009602090815260408083208784529091528120919250612db88686613188565b5090915060029050816005811115612de057634e487b7160e01b600052602160045260246000fd5b1415612e0d57612df1868684613f1b565b6008820180546002919060ff19166001835b0217905550612e75565b6003816005811115612e2f57634e487b7160e01b600052602160045260246000fd5b1480612e5a57506001816005811115612e5857634e487b7160e01b600052602160045260246000fd5b145b1561065e576008820180546003919060ff1916600183612e03565b50506001600160a01b0384166000908152600460205260408120556106b58282613560565b6000818152600b60205260409020606090610546905b606060006119348361402b565b6040805160808101825260008082526020820181905291810182905260608101919091525a81600001818152505043826001600160a01b031663b21634826040518163ffffffff1660e01b815260040160206040518083038186803b158015612f2557600080fd5b505afa158015612f39573d6000803e3d6000fd5b505050506040513d601f19601f82011682018060405250810190612f5d91906151a4565b1415612fab5760405162461bcd60e51b815260206004820152601060248201527f7265656e7472616e6379206775617264000000000000000000000000000000006044820152606401610843565b816001600160a01b03166310fdb0a26040518163ffffffff1660e01b8152600401600060405180830381600087803b158015612fe657600080fd5b505af1158015612ffa573d6000803e3d6000fd5b50506040517f72c6838f0000000000000000000000000000000000000000000000000000000081527f1f2fd42ad6a6cacd573c4b212beb7a4e2499ad45d742a65337097f130e71daff6004820152600092506001600160a01b03851691506372c6838f9060240160206040518083038186803b15801561307957600080fd5b505afa15801561308d573d6000803e3d6000fd5b505050506040513d601f19601f820116820180604052508101906130b19190615019565b90506001600160a01b0381166130cd5760006020830152613182565b6001600160a01b038181166060840181905283516040517f43a8a3f1000000000000000000000000000000000000000000000000000000008152928616600484015260248301526000918291906343a8a3f190604401604080518083038186803b15801561313a57600080fd5b505afa15801561314e573d6000803e3d6000fd5b505050506040513d601f19601f82011682018060405250810190613172919061515f565b9015156020860152604085015250505b50919050565b6000806000846001600160a01b03166330490e91856040518263ffffffff1660e01b81526004016131bb91815260200190565b600060405180830381600087803b1580156131d557600080fd5b505af11580156131e9573d6000803e3d6000fd5b50506040516317ba7d8560e01b81527f0d479c38716a0298633b1dbf1ce145a3fbd1d79ca4527de172afc3bad04a2ba76004820152600092506001600160a01b03881691506317ba7d859060240160206040518083038186803b15801561324f57600080fd5b505afa158015613263573d6000803e3d6000fd5b505050506040513d601f19601f820116820180604052508101906132879190615019565b90506001600160a01b0381166132df5760405162461bcd60e51b815260206004820152600f60248201527f21766f74696e67436f6e747261637400000000000000000000000000000000006044820152606401610843565b6040517f76225e730000000000000000000000000000000000000000000000000000000081526001600160a01b0387811660048301526024820187905260009182918291908516906376225e7390604401606060405180830381600087803b15801561334a57600080fd5b505af115801561335e573d6000803e3d6000fd5b505050506040513d601f19601f82011682018060405250810190613382919061528f565b92509250925060006133948a8a614087565b90507f31079f5404bf31284c3985351ef8eff4247cd77140001bc77841d2ecc855cf688a8a8660058111156133d957634e487b7160e01b600052602160045260246000fd5b604080516001600160a01b0390941684526020840192909252908201526fffffffffffffffffffffffffffffffff831660608201526080810185905260a0810184905260c00160405180910390a15091955093509150509250925092565b6040516317ba7d8560e01b81527fff9379b98b93eb3bd1fac62fd2258a7955d70d2d5279c40064145b6c9646df3760048201526000906001600160a01b038416906317ba7d859060240160206040518083038186803b15801561349957600080fd5b505afa1580156134ad573d6000803e3d6000fd5b505050506040513d601f19601f820116820180604052508101906134d19190615019565b825460018401546040517f7249b22f0000000000000000000000000000000000000000000000000000000081526001600160a01b03878116600483015260ff909316151560248201526044810191909152919250821690637249b22f906064015b600060405180830381600087803b15801561354c57600080fd5b505af1158015611777573d6000803e3d6000fd5b61356b828233614347565b5050565b613579828261189e565b61356b5760405162461bcd60e51b815260206004820152600b60248201527f6f6e6c79537465776172640000000000000000000000000000000000000000006044820152606401610843565b6040516317ba7d8560e01b81527f7a8526bca00f0726b2fab8c3bfd5b00bfa84d07f111e48263b13de605eefcdda600482015260009081906001600160a01b038416906317ba7d859060240160206040518083038186803b15801561362957600080fd5b505afa15801561363d573d6000803e3d6000fd5b505050506040513d601f19601f820116820180604052508101906136619190615019565b6040516317ba7d8560e01b81527fcad7b0867188190920a10bf710c45443f6358175d56a759e7dc109e6d7b5d75360048201529091506000906001600160a01b038516906317ba7d859060240160206040518083038186803b1580156136c657600080fd5b505afa1580156136da573d6000803e3d6000fd5b505050506040513d601f19601f820116820180604052508101906136fe9190615019565b6040517f642fc0c00000000000000000000000000000000000000000000000000000000081526001600160a01b0386811660048301529192509083169063642fc0c09060240160206040518083038186803b15801561375c57600080fd5b505afa158015613770573d6000803e3d6000fd5b505050506040513d601f19601f820116820180604052508101906137949190615143565b801561382d57506040517f642fc0c00000000000000000000000000000000000000000000000000000000081526001600160a01b03858116600483015282169063642fc0c09060240160206040518083038186803b1580156137f557600080fd5b505afa158015613809573d6000803e3d6000fd5b505050506040513d601f19601f8201168201806040525081019061382d9190615143565b1561383c575060019392505050565b5060009392505050565b60608161388657505060408051808201909152600181527f3000000000000000000000000000000000000000000000000000000000000000602082015290565b8160005b81156138b0578061389a81615e86565b91506138a99050600a83615dfa565b915061388a565b60008167ffffffffffffffff8111156138d957634e487b7160e01b600052604160045260246000fd5b6040519080825280601f01601f191660200182016040528015613903576020820181803683370190505b5090505b841561399457613918600183615e0e565b9150613925600a86615edf565b613930906030615de2565b60f81b81838151811061395357634e487b7160e01b600052603260045260246000fd5b60200101907effffffffffffffffffffffffffffffffffffffffffffffffffffffffffffff1916908160001a90535061398d600a86615dfa565b9450613907565b949350505050565b60008151600014156139b057506000919050565b506020015190565b6000611934836001600160a01b038416614438565b6040517fb73dc389000000000000000000000000000000000000000000000000000000008152600481018290526001600160a01b0383169063b73dc38990602401600060405180830381600087803b158015613a2857600080fd5b505af1158015613a3c573d6000803e3d6000fd5b50506040516317ba7d8560e01b81527f0d479c38716a0298633b1dbf1ce145a3fbd1d79ca4527de172afc3bad04a2ba76004820152600092506001600160a01b03851691506317ba7d859060240160206040518083038186803b158015613aa257600080fd5b505afa158015613ab6573d6000803e3d6000fd5b505050506040513d601f19601f82011682018060405250810190613ada9190615019565b604080516020810182526000815290517f2b0974d00000000000000000000000000000000000000000000000000000000081529192506001600160a01b03831691632b0974d091613b3191879187916004016159c3565b600060405180830381600087803b158015613b4b57600080fd5b505af1158015613b5f573d6000803e3d6000fd5b50506040517f815a2bf4000000000000000000000000000000000000000000000000000000008152600481018590526001600160a01b0384811660248301528616925063815a2bf49150604401613532565b6040516317ba7d8560e01b81527fff9379b98b93eb3bd1fac62fd2258a7955d70d2d5279c40064145b6c9646df3760048201526000906001600160a01b038516906317ba7d859060240160206040518083038186803b158015613c1357600080fd5b505afa158015613c27573d6000803e3d6000fd5b505050506040513d601f19601f82011682018060405250810190613c4b9190615019565b825460028401546003850154600486015460058701546000898152600b602052604090209596506001600160a01b0380881696639a327512968c9660ff9182169660018d0196919092169491931691613ca390612eb0565b6040518963ffffffff1660e01b8152600401613cc6989796959493929190615965565b600060405180830381600087803b158015613ce057600080fd5b505af1158015613cf4573d6000803e3d6000fd5b5050505050505050565b6040516317ba7d8560e01b81527fff9379b98b93eb3bd1fac62fd2258a7955d70d2d5279c40064145b6c9646df3760048201526000906001600160a01b038516906317ba7d859060240160206040518083038186803b158015613d6057600080fd5b505afa158015613d74573d6000803e3d6000fd5b505050506040513d601f19601f82011682018060405250810190613d989190615019565b825460038401546004850154600586015460028701546000898152600a602052604090209596506001600160a01b0380881696634088f7ae968c9660ff9182169660018d019691959416939092911690613df190612eb0565b6040518963ffffffff1660e01b8152600401613cc69897969594939291906158f8565b6040516317ba7d8560e01b81527fff9379b98b93eb3bd1fac62fd2258a7955d70d2d5279c40064145b6c9646df3760048201526000906001600160a01b038416906317ba7d859060240160206040518083038186803b158015613e7657600080fd5b505afa158015613e8a573d6000803e3d6000fd5b505050506040513d601f19601f82011682018060405250810190613eae9190615019565b8254600184015460028501546040517f8f88c3ce0000000000000000000000000000000000000000000000000000000081526001600160a01b0388811660048301526024820194909452604481019290925282166064820152919250821690638f88c3ce90608401613532565b6040516317ba7d8560e01b81527fff9379b98b93eb3bd1fac62fd2258a7955d70d2d5279c40064145b6c9646df3760048201526000906001600160a01b038516906317ba7d859060240160206040518083038186803b158015613f7d57600080fd5b505afa158015613f91573d6000803e3d6000fd5b505050506040513d601f19601f82011682018060405250810190613fb59190615019565b60038301546005840154600285015460048601546000888152600c602052604090209495506001600160a01b038087169563f34125b6958b9560018b01959194909360ff9092169291169061400990612eb0565b6040518863ffffffff1660e01b8152600401613cc697969594939291906159f4565b60608160000180548060200260200160405190810160405280929190818152602001828054801561407b57602002820191906000526020600020905b815481526020019060010190808311614067575b50505050509050919050565b60008061409384614487565b6040516317ba7d8560e01b81527f0d479c38716a0298633b1dbf1ce145a3fbd1d79ca4527de172afc3bad04a2ba7600482015290915060009081906001600160a01b038716906317ba7d859060240160206040518083038186803b1580156140fa57600080fd5b505afa15801561410e573d6000803e3d6000fd5b505050506040513d601f19601f820116820180604052508101906141329190615019565b905060005b83518160ff16101561433c57816001600160a01b03166324a2cceb8888878560ff168151811061417757634e487b7160e01b600052603260045260246000fd5b60200260200101516040518463ffffffff1660e01b81526004016141bb939291906001600160a01b0393841681526020810192909252909116604082015260600190565b60206040518083038186803b1580156141d357600080fd5b505afa1580156141e7573d6000803e3d6000fd5b505050506040513d601f19601f8201168201806040525081019061420b9190615143565b156142e957816001600160a01b03166391d2fd538888878560ff168151811061424457634e487b7160e01b600052603260045260246000fd5b60200260200101516040518463ffffffff1660e01b8152600401614288939291906001600160a01b0393841681526020810192909252909116604082015260600190565b60206040518083038186803b1580156142a057600080fd5b505afa1580156142b4573d6000803e3d6000fd5b505050506040513d601f19601f820116820180604052508101906142d891906153ad565b6142e29084615dae565b925061432a565b61431d87858360ff168151811061431057634e487b7160e01b600052603260045260246000fd5b60200260200101516144fe565b6143279084615dae565b92505b8061433481615ebf565b915050614137565b509095945050505050565b8160200151156143fd5781606001516001600160a01b0316635e5eb01384835a86516143739190615e0e565b60408088015190517fffffffff0000000000000000000000000000000000000000000000000000000060e087901b1681526001600160a01b03948516600482015293909216602484015260448301526064820152608401600060405180830381600087803b1580156143e457600080fd5b505af11580156143f8573d6000803e3d6000fd5b505050505b826001600160a01b031663d4f7af436040518163ffffffff1660e01b8152600401600060405180830381600087803b15801561354c57600080fd5b600081815260018301602052604081205461447f57508154600181810184556000848152602080822090930184905584548482528286019093526040902091909155610546565b506000610546565b6060816001600160a01b031663a6f636416040518163ffffffff1660e01b815260040160006040518083038186803b1580156144c257600080fd5b505afa1580156144d6573d6000803e3d6000fd5b505050506040513d6000823e601f3d908101601f191682016040526105469190810190615060565b604051634941d71d60e11b81527f75b7d343967750d1f6c15979b7559cea8be22ff1a06a51681b9cbef0d2fff4fe600482015260009081906001600160a01b03851690639283ae3a9060240160206040518083038186803b15801561456257600080fd5b505afa158015614576573d6000803e3d6000fd5b505050506040513d601f19601f8201168201806040525081019061459a91906151a4565b604051634941d71d60e11b81527f18ef0b57fe939edb640a200fdf533493bd8f26a274151543a109b64c857e20f360048201529091506000906001600160a01b03861690639283ae3a9060240160206040518083038186803b1580156145ff57600080fd5b505afa158015614613573d6000803e3d6000fd5b505050506040513d601f19601f8201168201806040525081019061463791906151a4565b6040516317ba7d8560e01b81527f37cbe06c1044f98864ea25736326bc1d488e24e5e23781ea2ad64c4069cb9e6e60048201529091506000906001600160a01b038716906317ba7d859060240160206040518083038186803b15801561469c57600080fd5b505afa1580156146b0573d6000803e3d6000fd5b505050506040513d601f19601f820116820180604052508101906146d49190615019565b90508160011415614a7557604051634941d71d60e11b81527f77b1580d1632c74a32483c26a7156260a89ae4138b020ea7d09b0dcf24f1ea2460048201526000906001600160a01b03881690639283ae3a9060240160206040518083038186803b15801561474157600080fd5b505afa158015614755573d6000803e3d6000fd5b505050506040513d601f19601f8201168201806040525081019061477991906151a4565b6040517ffd310d290000000000000000000000000000000000000000000000000000000081527fb5a1ad3f04728d7c38547e3d43006a1ec090a02fce04bbb1d0ee4519a1921e5760048201529091506000906001600160a01b0389169063fd310d299060240160206040518083038186803b1580156147f757600080fd5b505afa15801561480b573d6000803e3d6000fd5b505050506040513d601f19601f8201168201806040525081019061482f9190615019565b90506000856148cd576040516370a0823160e01b81526001600160a01b038981166004830152670de0b6b3a764000091908416906370a082319060240160206040518083038186803b15801561488457600080fd5b505afa158015614898573d6000803e3d6000fd5b505050506040513d601f19601f820116820180604052508101906148bc91906151a4565b6148c69190615dfa565b9050614a0c565b8560011415614950576040516370a0823160e01b81526001600160a01b0389811660048301528316906370a08231906024015b60206040518083038186803b15801561491857600080fd5b505afa15801561492c573d6000803e3d6000fd5b505050506040513d601f19601f820116820180604052508101906148c691906151a4565b85600214156149a5576040517efdd58e0000000000000000000000000000000000000000000000000000000081526001600160a01b0389811660048301526024820185905283169062fdd58e90604401614900565b85600314156149fd576040517fa6d945cc0000000000000000000000000000000000000000000000000000000081526001600160a01b038a81166004830152898116602483015285169063a6d945cc90604401614900565b60009650505050505050610546565b60008111614a235760009650505050505050610546565b677fffffffffffffff8110614a415760329650505050505050610546565b6000614a5c614a57614a5284614dc6565b614de4565b614edb565b67ffffffffffffffff1697506105469650505050505050565b8160021415614a8a5760019350505050610546565b81614dba57604051634941d71d60e11b81527f77b1580d1632c74a32483c26a7156260a89ae4138b020ea7d09b0dcf24f1ea2460048201526000906001600160a01b03881690639283ae3a9060240160206040518083038186803b158015614af157600080fd5b505afa158015614b05573d6000803e3d6000fd5b505050506040513d601f19601f82011682018060405250810190614b2991906151a4565b6040517ffd310d290000000000000000000000000000000000000000000000000000000081527fb5a1ad3f04728d7c38547e3d43006a1ec090a02fce04bbb1d0ee4519a1921e5760048201529091506000906001600160a01b0389169063fd310d299060240160206040518083038186803b158015614ba757600080fd5b505afa158015614bbb573d6000803e3d6000fd5b505050506040513d601f19601f82011682018060405250810190614bdf9190615019565b9050600085614c7d576040516370a0823160e01b81526001600160a01b038981166004830152670de0b6b3a764000091908416906370a082319060240160206040518083038186803b158015614c3457600080fd5b505afa158015614c48573d6000803e3d6000fd5b505050506040513d601f19601f82011682018060405250810190614c6c91906151a4565b614c769190615dfa565b9050614dad565b8560011415614d00576040516370a0823160e01b81526001600160a01b0389811660048301528316906370a08231906024015b60206040518083038186803b158015614cc857600080fd5b505afa158015614cdc573d6000803e3d6000fd5b505050506040513d601f19601f82011682018060405250810190614c7691906151a4565b8560021415614d55576040517efdd58e0000000000000000000000000000000000000000000000000000000081526001600160a01b0389811660048301526024820185905283169062fdd58e90604401614cb0565b85600314156149fd576040517fa6d945cc0000000000000000000000000000000000000000000000000000000081526001600160a01b038a81166004830152898116602483015285169063a6d945cc90604401614cb0565b9550610546945050505050565b60009350505050610546565b6000677fffffffffffffff821115614ddd57600080fd5b5060401b90565b60008082600f0b13614df557600080fd5b6000600f83900b680100000000000000008112614e14576040918201911d5b6401000000008112614e28576020918201911d5b620100008112614e3a576010918201911d5b6101008112614e4b576008918201911d5b60108112614e5b576004918201911d5b60048112614e6b576002918201911d5b60028112614e7a576001820191505b7fffffffffffffffffffffffffffffffffffffffffffffffffffffffffffffffc0820160401b600f85900b607f8490031b6780000000000000005b600081131561433c5790800260ff81901c8281029390930192607f011c9060011d614eb5565b60008082600f0b1215614eed57600080fd5b50600f0b60401d90565b828054614f0390615e51565b90600052602060002090601f016020900481019282614f255760008555614f6b565b82601f10614f3e57805160ff1916838001178555614f6b565b82800160010185558215614f6b579182015b82811115614f6b578251825591602001919060010190614f50565b50614f77929150614f7b565b5090565b5b80821115614f775760008155600101614f7c565b8035614f9b81615f4b565b919050565b8051614f9b81615f4b565b805160068110614f9b57600080fd5b60006101008284031215613182578081fd5b80516fffffffffffffffffffffffffffffffff81168114614f9b57600080fd5b803560ff81168114614f9b57600080fd5b60006020828403121561500e578081fd5b813561193481615f4b565b60006020828403121561502a578081fd5b815161193481615f4b565b60008060408385031215615047578081fd5b823561505281615f4b565b946020939093013593505050565b60006020808385031215615072578182fd5b825167ffffffffffffffff80821115615089578384fd5b818501915085601f83011261509c578384fd5b8151818111156150ae576150ae615f35565b8060051b604051601f19603f830116810181811085821117156150d3576150d3615f35565b604052828152858101935084860182860187018a10156150f1578788fd5b8795505b8386101561511a5761510681614fa0565b8552600195909501949386019386016150f5565b5098975050505050505050565b600060208284031215615138578081fd5b813561193481615f63565b600060208284031215615154578081fd5b815161193481615f63565b60008060408385031215615171578182fd5b825161517c81615f63565b6020939093015192949293505050565b60006020828403121561519d578081fd5b5035919050565b6000602082840312156151b5578081fd5b5051919050565b600080604083850312156151ce578182fd5b82356151d981615f4b565b915060208301356151e981615f4b565b809150509250929050565b600080600060608486031215615208578081fd5b833561521381615f4b565b9250602084013561522381615f63565b929592945050506040919091013590565b60008060408385031215615047578182fd5b6000806000806080858703121561525b578182fd5b843561526681615f4b565b93506020850135925060408501359150606085013561528481615f4b565b939692955090935050565b6000806000606084860312156152a3578081fd5b6152ac84614fab565b925060208401519150604084015190509250925092565b600080600080608085870312156152d8578182fd5b6152e185614fab565b935060208501519250604085015191506152fd60608601614fcc565b905092959194509250565b600060208284031215615319578081fd5b813567ffffffffffffffff81111561532f578182fd5b61399484828501614fba565b60006020828403121561534c578081fd5b813567ffffffffffffffff811115615362578182fd5b82016101608185031215611934578182fd5b600060208284031215615385578081fd5b813567ffffffffffffffff81111561539b578182fd5b82016101a08185031215611934578182fd5b6000602082840312156153be578081fd5b61193482614fcc565b6000602082840312156153d8578081fd5b61193482614fec565b81835260006020808501945082825b8581101561541e57813561540381615f4b565b6001600160a01b0316875295820195908201906001016153f0565b509495945050505050565b6000815180845260208085019450808401835b8381101561541e5781516001600160a01b03168752958201959082019060010161543c565b81835260007f07ffffffffffffffffffffffffffffffffffffffffffffffffffffffffffffff831115615492578081fd5b8260051b80836020870137939093016020019283525090919050565b600081518084526154c6816020860160208601615e25565b601f01601f19169290920160200192915050565b600481106154ea576154ea615f1f565b9052565b8183528181602085013750600080602083850101526020601f19601f840116840101905092915050565b8054600090600181811c908083168061553257607f831692505b602080841082141561555257634e487b7160e01b86526022600452602486fd5b8388526020880182801561556d576001811461557e576155a9565b60ff198716825282820197506155a9565b60008981526020902060005b878110156155a35781548482015290860190840161558a565b83019850505b5050505050505092915050565b8035825260ff6155c860208301614fec565b16602083015260408101356040830152606081013560608301526080810135608083015260a08101356155fa81615f4b565b6001600160a01b031660a083015260c0818101359083015260e0808201359083015261010090810135910152565b77ffffffffffffffffffffffffffffffffffffffffffffffff19831681527f476f7665726e6f72204d656d626572736869702023000000000000000000000060088201526000825161568181601d850160208701615e25565b91909101601d019392505050565b77ffffffffffffffffffffffffffffffffffffffffffffffff19831681527f50726f706f736572204d656d626572736869702023000000000000000000000060088201526000825161568181601d850160208701615e25565b77ffffffffffffffffffffffffffffffffffffffffffffffff19831681527f496e766573746f72204d656d626572736869702023000000000000000000000060088201526000825161568181601d850160208701615e25565b77ffffffffffffffffffffffffffffffffffffffffffffffff19831681527f496e7673746f722043617020230000000000000000000000000000000000000060088201526000825161579a816015850160208701615e25565b919091016015019392505050565b77ffffffffffffffffffffffffffffffffffffffffffffffff19831681527f466565732023000000000000000000000000000000000000000000000000000060088201526000825161580181600e850160208701615e25565b91909101600e019392505050565b6001600160a01b038416815260208101839052606081016007831061583657615836615f1f565b826040830152949350505050565b6020815260006119346020830184615429565b60006101208b151583528060208401526158738184018c6154ae565b91505060ff891660408301528760608301526001600160a01b03871660808301528560a08301528460c08301528360e08301526158b46101008301846154da565b9a9950505050505050505050565b600060a08201905086151582528560208301528460408301528360608301526158ee60808301846154da565b9695505050505050565b60006101006001600160a01b03808c1684528a151560208501528160408501526159248285018b615518565b91508860608501528088166080850152508560a084015260ff851660c084015282810360e08401526159568185615429565b9b9a5050505050505050505050565b60006101006001600160a01b03808c1684528a151560208501528160408501526159918285018b615518565b915060ff8916606085015287608085015280871660a0850152508460c084015282810360e08401526159568185615429565b6001600160a01b03841681528260208201526060604082015260006159eb60608301846154ae565b95945050505050565b60006001600160a01b03808a16835260e06020840152615a1760e084018a615518565b88604085015287606085015260ff8716608085015281861660a085015283810360c08501526159568186615429565b6020815260008235615a5781615f4b565b6001600160a01b03811660208401525060208301357fffffffffffffffffffffffffffffffffffffffffffffffffffffffffffffff41843603018112615a9b578182fd5b61016060408401528301803536829003601e19018112615ab9578283fd5b8101803567ffffffffffffffff811115615ad1578384fd5b803603831315615adf578384fd5b60c0610180860152615af9610240860182602085016154ee565b915050615b0860208301614fec565b60ff166101a085015260408201356101c0850152615b2860608301614f90565b6001600160a01b03166101e08501526080820135610200850152615b4f60a0830183615d66565b92507ffffffffffffffffffffffffffffffffffffffffffffffffffffffffffffffe8085830301610220860152615b878284836153e1565b9250505061193460608401604086016155b6565b60208152615bbc60208201615baf84614f90565b6001600160a01b03169052565b602082013560408201526000615bd460408401614f90565b6001600160a01b03811660608401525060608301356080830152608083013560a083015260a083013560c083015260c083013560e083015261010060e084013581840152610120818501358185015261014091508085013582850152506101608185013581850152615c4881860186615d66565b925090506101a06101808181870152615c666101c0870185856153e1565b9350615c7481880188615d66565b93509050601f198685030182870152615c8e848483615461565b979650505050505050565b600060c0820190508782528660208301526001600160a01b0386166040830152846060830152836080830152615c8e60a08301846154da565b6000808335601e19843603018112615ce8578283fd5b83018035915067ffffffffffffffff821115615d02578283fd5b6020019150600581901b3603821315615d1a57600080fd5b9250929050565b6000808335601e19843603018112615d37578283fd5b83018035915067ffffffffffffffff821115615d51578283fd5b602001915036819003821315615d1a57600080fd5b6000808335601e19843603018112615d7c578283fd5b830160208101925035905067ffffffffffffffff811115615d9c57600080fd5b8060051b3603831315615d1a57600080fd5b60006fffffffffffffffffffffffffffffffff808316818516808303821115615dd957615dd9615ef3565b01949350505050565b60008219821115615df557615df5615ef3565b500190565b600082615e0957615e09615f09565b500490565b600082821015615e2057615e20615ef3565b500390565b60005b83811015615e40578181015183820152602001615e28565b838111156106b55750506000910152565b600181811c90821680615e6557607f821691505b6020821081141561318257634e487b7160e01b600052602260045260246000fd5b60007fffffffffffffffffffffffffffffffffffffffffffffffffffffffffffffffff821415615eb857615eb8615ef3565b5060010190565b600060ff821660ff811415615ed657615ed6615ef3565b60010192915050565b600082615eee57615eee615f09565b500690565b634e487b7160e01b600052601160045260246000fd5b634e487b7160e01b600052601260045260246000fd5b634e487b7160e01b600052602160045260246000fd5b634e487b7160e01b600052604160045260246000fd5b6001600160a01b0381168114615f6057600080fd5b50565b8015158114615f6057600080fdfea26469706673582212201cf035903f645c7963431047115e575cdb5d7f05d5e23f551982efe25d4accc764736f6c63430008040033",
  "linkReferences": {},
  "deployedLinkReferences": {}
}