{
  "_format": "hh-sol-artifact-1",
  "contractName": "FlexVotingContract",
  "sourceName": "contracts/flex/adatpers/FlexVoting.sol",
  "abi": [
    {
      "anonymous": false,
      "inputs": [
        {
          "indexed": false,
          "internalType": "address",
          "name": "daoAddr",
          "type": "address"
        },
        {
          "indexed": false,
          "internalType": "bytes32",
          "name": "proposalId",
          "type": "bytes32"
        },
        {
          "indexed": false,
          "internalType": "uint256",
          "name": "votingTime",
          "type": "uint256"
        },
        {
          "indexed": false,
          "internalType": "uint256",
          "name": "voteStartTime",
          "type": "uint256"
        },
        {
          "indexed": false,
          "internalType": "uint256",
          "name": "voteStopTime",
          "type": "uint256"
        },
        {
          "indexed": false,
          "internalType": "address",
          "name": "voter",
          "type": "address"
        },
        {
          "indexed": false,
          "internalType": "uint256",
          "name": "voteValue",
          "type": "uint256"
        },
        {
          "indexed": false,
          "internalType": "uint256",
          "name": "nbYes",
          "type": "uint256"
        },
        {
          "indexed": false,
          "internalType": "uint256",
          "name": "nbNo",
          "type": "uint256"
        },
        {
          "indexed": false,
          "internalType": "uint256",
          "name": "currentQuorum",
          "type": "uint256"
        },
        {
          "indexed": false,
          "internalType": "uint256",
          "name": "currentSupport",
          "type": "uint256"
        }
      ],
      "name": "SubmitVote",
      "type": "event"
    },
    {
      "inputs": [],
      "name": "ADAPTER_NAME",
      "outputs": [
        {
          "internalType": "string",
          "name": "",
          "type": "string"
        }
      ],
      "stateMutability": "view",
      "type": "function"
    },
    {
      "inputs": [
        {
          "internalType": "contract DaoRegistry",
          "name": "dao",
          "type": "address"
        },
        {
          "internalType": "bytes32",
          "name": "proposalId",
          "type": "bytes32"
        },
        {
          "internalType": "address",
          "name": "voterAddr",
          "type": "address"
        }
      ],
      "name": "checkIfVoted",
      "outputs": [
        {
          "internalType": "bool",
          "name": "",
          "type": "bool"
        }
      ],
      "stateMutability": "view",
      "type": "function"
    },
    {
      "inputs": [],
      "name": "getAdapterName",
      "outputs": [
        {
          "internalType": "string",
          "name": "",
          "type": "string"
        }
      ],
      "stateMutability": "pure",
      "type": "function"
    },
    {
      "inputs": [
        {
          "internalType": "contract DaoRegistry",
          "name": "dao",
          "type": "address"
        }
      ],
      "name": "getAllStewardWeight",
      "outputs": [
        {
          "internalType": "uint128",
          "name": "",
          "type": "uint128"
        }
      ],
      "stateMutability": "view",
      "type": "function"
    },
    {
      "inputs": [
        {
          "internalType": "contract DaoRegistry",
          "name": "dao",
          "type": "address"
        },
        {
          "internalType": "bytes32",
          "name": "proposalId",
          "type": "bytes32"
        }
      ],
      "name": "getAllStewardWeightByProposalId",
      "outputs": [
        {
          "internalType": "uint128",
          "name": "",
          "type": "uint128"
        }
      ],
      "stateMutability": "view",
      "type": "function"
    },
    {
      "inputs": [
        {
          "internalType": "contract DaoRegistry",
          "name": "",
          "type": "address"
        },
        {
          "internalType": "address",
          "name": "",
          "type": "address"
        },
        {
          "internalType": "bytes",
          "name": "",
          "type": "bytes"
        },
        {
          "internalType": "address",
          "name": "sender",
          "type": "address"
        }
      ],
      "name": "getSenderAddress",
      "outputs": [
        {
          "internalType": "address",
          "name": "",
          "type": "address"
        }
      ],
      "stateMutability": "pure",
      "type": "function"
    },
    {
      "inputs": [
        {
          "internalType": "contract DaoRegistry",
          "name": "dao",
          "type": "address"
        },
        {
          "internalType": "address",
          "name": "account",
          "type": "address"
        }
      ],
      "name": "getVotingWeight",
      "outputs": [
        {
          "internalType": "uint128",
          "name": "",
          "type": "uint128"
        }
      ],
      "stateMutability": "view",
      "type": "function"
    },
    {
      "inputs": [
        {
          "internalType": "contract DaoRegistry",
          "name": "dao",
          "type": "address"
        },
        {
          "internalType": "address",
          "name": "_addr",
          "type": "address"
        }
      ],
      "name": "isActiveMember",
      "outputs": [
        {
          "internalType": "bool",
          "name": "",
          "type": "bool"
        }
      ],
      "stateMutability": "view",
      "type": "function"
    },
    {
      "inputs": [
        {
          "internalType": "contract DaoRegistry",
          "name": "dao",
          "type": "address"
        },
        {
          "internalType": "bytes32",
          "name": "proposalId",
          "type": "bytes32"
        },
        {
          "internalType": "bytes",
          "name": "",
          "type": "bytes"
        }
      ],
      "name": "startNewVotingForProposal",
      "outputs": [],
      "stateMutability": "nonpayable",
      "type": "function"
    },
    {
      "inputs": [
        {
          "internalType": "contract DaoRegistry",
          "name": "dao",
          "type": "address"
        },
        {
          "internalType": "bytes32",
          "name": "proposalId",
          "type": "bytes32"
        },
        {
          "internalType": "uint256",
          "name": "voteValue",
          "type": "uint256"
        }
      ],
      "name": "submitVote",
      "outputs": [],
      "stateMutability": "nonpayable",
      "type": "function"
    },
    {
      "inputs": [
        {
          "internalType": "contract DaoRegistry",
          "name": "dao",
          "type": "address"
        },
        {
          "internalType": "bytes32",
          "name": "proposalId",
          "type": "bytes32"
        }
      ],
      "name": "voteResult",
      "outputs": [
        {
          "internalType": "enum IFlexVoting.VotingState",
          "name": "state",
          "type": "uint8"
        },
        {
          "internalType": "uint256",
          "name": "nbYes",
          "type": "uint256"
        },
        {
          "internalType": "uint256",
          "name": "nbNo",
          "type": "uint256"
        }
      ],
      "stateMutability": "view",
      "type": "function"
    },
    {
      "inputs": [
        {
          "internalType": "address",
          "name": "",
          "type": "address"
        },
        {
          "internalType": "bytes32",
          "name": "",
          "type": "bytes32"
        },
        {
          "internalType": "address",
          "name": "",
          "type": "address"
        }
      ],
      "name": "voteWeights",
      "outputs": [
        {
          "internalType": "uint128",
          "name": "",
          "type": "uint128"
        }
      ],
      "stateMutability": "view",
      "type": "function"
    },
    {
      "inputs": [
        {
          "internalType": "address",
          "name": "",
          "type": "address"
        },
        {
          "internalType": "bytes32",
          "name": "",
          "type": "bytes32"
        }
      ],
      "name": "votes",
      "outputs": [
        {
          "internalType": "uint256",
          "name": "nbYes",
          "type": "uint256"
        },
        {
          "internalType": "uint256",
          "name": "nbNo",
          "type": "uint256"
        },
        {
          "internalType": "uint256",
          "name": "startingTime",
          "type": "uint256"
        },
        {
          "internalType": "uint256",
          "name": "stopTime",
          "type": "uint256"
        }
      ],
      "stateMutability": "view",
      "type": "function"
    }
  ],
  "bytecode": "0x608060405234801561001057600080fd5b50612d74806100206000396000f3fe608060405234801561001057600080fd5b50600436106100df5760003560e01c80637fd3cd8b1161008c57806391d2fd531161006657806391d2fd5314610279578063966917d0146102bb578063ba2b1d54146102e8578063e41808e8146102fb57600080fd5b80637fd3cd8b146101f657806387b9e959146102325780638ecf77201461026657600080fd5b80632b0974d0116100bd5780632b0974d0146101ac578063325b72f2146101c157806376225e73146101d457600080fd5b80631db5ade8146100e45780631f86f5b31461014757806324a2cceb14610189575b600080fd5b6101226100f2366004612773565b60016020818152600093845260408085209091529183529120805491810154600282015460039092015490919084565b6040805194855260208501939093529183015260608201526080015b60405180910390f35b60408051808201909152601281527f466c6578566f74696e67436f6e7472616374000000000000000000000000000060208201525b60405161013e9190612b80565b61019c610197366004612a01565b61030e565b604051901515815260200161013e565b6101bf6101ba366004612a15565b61035d565b005b6101bf6101cf366004612a99565b61051f565b6101e76101e23660046129ef565b610bfd565b60405161013e93929190612b58565b61017c6040518060400160405280601281526020017f466c6578566f74696e67436f6e7472616374000000000000000000000000000081525081565b6102456102403660046128f4565b6111a9565b6040516fffffffffffffffffffffffffffffffff909116815260200161013e565b61019c6102743660046128f4565b6111be565b61024561028736600461279e565b600060208181529381526040808220855292815282812090935282529020546fffffffffffffffffffffffffffffffff1681565b6102d06102c936600461292c565b9392505050565b6040516001600160a01b03909116815260200161013e565b6102456102f63660046128d8565b611254565b6102456103093660046129ef565b611260565b6001600160a01b03808416600090815260016020908152604080832086845282528083209385168352600484019091528120549091906103525760009150506102c9565b506001949350505050565b6040517f68c18beb00000000000000000000000000000000000000000000000000000000815233600482015284906001600160a01b038216906368c18beb9060240160206040518083038186803b1580156103b757600080fd5b505afa1580156103cb573d6000803e3d6000fd5b505050506040513d601f19601f820116820180604052508101906103ef9190612893565b806103fe57506103fe81611275565b61044f5760405162461bcd60e51b815260206004820152600b60248201527f6f6e6c794164617074657200000000000000000000000000000000000000000060448201526064015b60405180910390fd5b6001600160a01b0385166000818152600160209081526040808320888452909152908190204260028201559051634941d71d60e11b81527f9876c0f0505bfb2b1c38d3bbd25ba13159172cd0868972d76927723f5a9480fc6004820152909190639283ae3a9060240160206040518083038186803b1580156104d057600080fd5b505afa1580156104e4573d6000803e3d6000fd5b505050506040513d601f19601f820116820180604052508101906105089190612b1c565b6105129042612c38565b6003909101555050505050565b8261052a81336114ae565b83600061053682611508565b6040517ff941f6910000000000000000000000000000000000000000000000000000000081529091506001600160a01b0387169063f941f69190610581908890600190600401612b34565b60206040518083038186803b15801561059957600080fd5b505afa1580156105ad573d6000803e3d6000fd5b505050506040513d601f19601f820116820180604052508101906105d19190612893565b6106435760405162461bcd60e51b815260206004820152602760248201527f7468652070726f706f73616c20686173206e6f74206265656e2073706f6e736f60448201527f72656420796574000000000000000000000000000000000000000000000000006064820152608401610446565b6040517ff941f6910000000000000000000000000000000000000000000000000000000081526001600160a01b0387169063f941f6919061068b908890600290600401612b34565b60206040518083038186803b1580156106a357600080fd5b505afa1580156106b7573d6000803e3d6000fd5b505050506040513d601f19601f820116820180604052508101906106db9190612893565b1561074e5760405162461bcd60e51b815260206004820152602760248201527f7468652070726f706f73616c2068617320616c7265616479206265656e20707260448201527f6f636573736564000000000000000000000000000000000000000000000000006064820152608401610446565b60038410801561075e5750600084115b6107d05760405162461bcd60e51b815260206004820152602b60248201527f6f6e6c79207965732028312920616e64206e6f202832292061726520706f737360448201527f69626c652076616c7565730000000000000000000000000000000000000000006064820152608401610446565b6001600160a01b03861660009081526001602090815260408083208884529091529020600281015461086a5760405162461bcd60e51b815260206004820152603260248201527f746869732070726f706f73616c496420686173206e6f20766f746520676f696e60448201527f67206f6e20617420746865206d6f6d656e7400000000000000000000000000006064820152608401610446565b806003015442106108bd5760405162461bcd60e51b815260206004820152601660248201527f766f74652068617320616c726561647920656e646564000000000000000000006044820152606401610446565b6040517fc89bb8ba0000000000000000000000000000000000000000000000000000000081523360048201526000906001600160a01b0389169063c89bb8ba9060240160206040518083038186803b15801561091857600080fd5b505afa15801561092c573d6000803e3d6000fd5b505050506040513d601f19601f820116820180604052508101906109509190612757565b6001600160a01b0381166000908152600484016020526040902054909150156109bb5760405162461bcd60e51b815260206004820152601860248201527f6d656d6265722068617320616c726561647920766f74656400000000000000006044820152606401610446565b60006109c789336117d3565b6001600160a01b038a81166000908152602081815260408083208d84528252808320338452825280832080547fffffffffffffffffffffffffffffffff00000000000000000000000000000000166fffffffffffffffffffffffffffffffff871617905592861682526004870190522088905590506001871415610a7657806fffffffffffffffffffffffffffffffff16836000016000828254610a6b9190612c38565b90915550610aab9050565b8660021415610aab57806fffffffffffffffffffffffffffffffff16836001016000828254610aa59190612c38565b90915550505b60018301548354600091610abe91612c38565b15610af05760018401548454610ad49190612c38565b8454610ae1906064612c70565b610aeb9190612c50565b610af3565b60005b90506000610b008b611f5e565b60018601548654610b119190612c38565b610b1c906064612c70565b610b269190612c50565b90507f702c2a29993fe1e5ce4c366928ffc1d53e245b20536bf8192399abb82b66c7108b8b4288600201548960030154338f8c600001548d600101548b8b604051610bde9b9a999897969594939291906000610160820190506001600160a01b03808e1683528c60208401528b60408401528a606084015289608084015280891660a0840152508660c08301528560e08301528461010083015283610120830152826101408301529c9b505050505050505050505050565b60405180910390a15050505050610bf5828261213a565b505050505050565b6001600160a01b03821660009081526001602090815260408083208484529091528120600281015482918291610c3e576000806000935093509350506111a2565b8060030154421015610c5b576004600080935093509350506111a2565b604051634941d71d60e11b81527fe815a3c082eed7f7f7baab546f11a8718682c0eb3017b099ddc301a92f6673e360048201526000906001600160a01b03881690639283ae3a9060240160206040518083038186803b158015610cbd57600080fd5b505afa158015610cd1573d6000803e3d6000fd5b505050506040513d601f19601f82011682018060405250810190610cf59190612b1c565b604051634941d71d60e11b81527f730faccfe82f70711a34ce5202c6e1b1f79f421c16fcef745a9d92d06a7c0d4c60048201529091506000906001600160a01b03891690639283ae3a9060240160206040518083038186803b158015610d5a57600080fd5b505afa158015610d6e573d6000803e3d6000fd5b505050506040513d601f19601f82011682018060405250810190610d929190612b1c565b90506000610d9f89611254565b905081610e9b57604051634941d71d60e11b81527f0324de13a5a6e302ddb95a9fdf81cc736fc8acee2abe558970daac27395904e760048201526000906064906001600160a01b038c1690639283ae3a9060240160206040518083038186803b158015610e0b57600080fd5b505afa158015610e1f573d6000803e3d6000fd5b505050506040513d601f19601f82011682018060405250810190610e439190612b1c565b610e5f906fffffffffffffffffffffffffffffffff8516612c70565b610e699190612c50565b6001860154865491925001818111610e98576003866000015487600101549850985098505050505050506111a2565b50505b8160011415610f755760018401548454600091610eb791612c38565b604051634941d71d60e11b81527f0324de13a5a6e302ddb95a9fdf81cc736fc8acee2abe558970daac27395904e760048201529091506001600160a01b038b1690639283ae3a9060240160206040518083038186803b158015610f1957600080fd5b505afa158015610f2d573d6000803e3d6000fd5b505050506040513d601f19601f82011682018060405250810190610f519190612b1c565b8111610f735760038560000154866001015497509750975050505050506111a2565b505b8261109a5760018401548454600091610f8d91612c38565b604051634941d71d60e11b81527fb4c601c38beae7eebb719eda3438f59fcbfd4c6dd7d38c00665b6fd5b432df3260048201529091506000906064906001600160a01b038d1690639283ae3a9060240160206040518083038186803b158015610ff557600080fd5b505afa158015611009573d6000803e3d6000fd5b505050506040513d601f19601f8201168201806040525081019061102d9190612b1c565b6110379084612c70565b6110419190612c50565b90508015801561105057508554155b15611072576001866000015487600101549850985098505050505050506111a2565b85548110611097576003866000015487600101549850985098505050505050506111a2565b50505b826001141561118b5760008460010154856000015410156110bc5760006110cd565b600185015485546110cd9190612cad565b604051634941d71d60e11b81527fb4c601c38beae7eebb719eda3438f59fcbfd4c6dd7d38c00665b6fd5b432df3260048201529091506001600160a01b038b1690639283ae3a9060240160206040518083038186803b15801561112f57600080fd5b505afa158015611143573d6000803e3d6000fd5b505050506040513d601f19601f820116820180604052508101906111679190612b1c565b81116111895760038560000154866001015497509750975050505050506111a2565b505b600284600001548560010154965096509650505050505b9250925092565b60006111b583836117d3565b90505b92915050565b6040517fa230c5240000000000000000000000000000000000000000000000000000000081526001600160a01b0382811660048301526000919084169063a230c5249060240160206040518083038186803b15801561121c57600080fd5b505afa158015611230573d6000803e3d6000fd5b505050506040513d601f19601f820116820180604052508101906111b59190612893565b6000806102c983612145565b60008061126d84846121b5565b949350505050565b600080826001600160a01b031663c19d93fb6040518163ffffffff1660e01b815260040160206040518083038186803b1580156112b157600080fd5b505afa1580156112c5573d6000803e3d6000fd5b505050506040513d601f19601f820116820180604052508101906112e99190612acd565b600181111561130857634e487b7160e01b600052602160045260246000fd5b1480156111b85750816001600160a01b031663c67143666040518163ffffffff1660e01b815260040160206040518083038186803b15801561134957600080fd5b505afa15801561135d573d6000803e3d6000fd5b505050506040513d601f19601f820116820180604052508101906113819190612b1c565b158061141857506040517fa230c5240000000000000000000000000000000000000000000000000000000081523360048201526001600160a01b0383169063a230c5249060240160206040518083038186803b1580156113e057600080fd5b505afa1580156113f4573d6000803e3d6000fd5b505050506040513d601f19601f820116820180604052508101906114189190612893565b806111b857506040517f68c18beb0000000000000000000000000000000000000000000000000000000081523360048201526001600160a01b038316906368c18beb9060240160206040518083038186803b15801561147657600080fd5b505afa15801561148a573d6000803e3d6000fd5b505050506040513d601f19601f820116820180604052508101906111b89190612893565b6114b882826111be565b6115045760405162461bcd60e51b815260206004820152600b60248201527f6f6e6c79537465776172640000000000000000000000000000000000000000006044820152606401610446565b5050565b6040805160808101825260008082526020820181905291810182905260608101919091525a81600001818152505043826001600160a01b031663b21634826040518163ffffffff1660e01b815260040160206040518083038186803b15801561157057600080fd5b505afa158015611584573d6000803e3d6000fd5b505050506040513d601f19601f820116820180604052508101906115a89190612b1c565b14156115f65760405162461bcd60e51b815260206004820152601060248201527f7265656e7472616e6379206775617264000000000000000000000000000000006044820152606401610446565b816001600160a01b03166310fdb0a26040518163ffffffff1660e01b8152600401600060405180830381600087803b15801561163157600080fd5b505af1158015611645573d6000803e3d6000fd5b50506040517f72c6838f0000000000000000000000000000000000000000000000000000000081527f1f2fd42ad6a6cacd573c4b212beb7a4e2499ad45d742a65337097f130e71daff6004820152600092506001600160a01b03851691506372c6838f9060240160206040518083038186803b1580156116c457600080fd5b505afa1580156116d8573d6000803e3d6000fd5b505050506040513d601f19601f820116820180604052508101906116fc9190612757565b90506001600160a01b03811661171857600060208301526117cd565b6001600160a01b038181166060840181905283516040517f43a8a3f1000000000000000000000000000000000000000000000000000000008152928616600484015260248301526000918291906343a8a3f190604401604080518083038186803b15801561178557600080fd5b505afa158015611799573d6000803e3d6000fd5b505050506040513d601f19601f820116820180604052508101906117bd91906128ad565b9015156020860152604085015250505b50919050565b604051634941d71d60e11b81527f5b1db2a99ea07a11cfaecd49105623ca4735b50f1788d96b1bac788d36a5bcb2600482015260009081906001600160a01b03851690639283ae3a9060240160206040518083038186803b15801561183757600080fd5b505afa15801561184b573d6000803e3d6000fd5b505050506040513d601f19601f8201168201806040525081019061186f9190612b1c565b604051634941d71d60e11b81527f18ef0b57fe939edb640a200fdf533493bd8f26a274151543a109b64c857e20f360048201529091506000906001600160a01b03861690639283ae3a9060240160206040518083038186803b1580156118d457600080fd5b505afa1580156118e8573d6000803e3d6000fd5b505050506040513d601f19601f8201168201806040525081019061190c9190612b1c565b90508060011415611c6857604051634941d71d60e11b81527f0e95730315979b4709b23500dcc4c5a99efa79e8d8a378832595b7033c4f882260048201526000906001600160a01b03871690639283ae3a9060240160206040518083038186803b15801561197957600080fd5b505afa15801561198d573d6000803e3d6000fd5b505050506040513d601f19601f820116820180604052508101906119b19190612b1c565b6040517ffd310d290000000000000000000000000000000000000000000000000000000081527fe52ad936f38348d80ee24f7c89aa5f1eef01716e2edef2f9a86657e208816c6660048201529091506000906001600160a01b0388169063fd310d299060240160206040518083038186803b158015611a2f57600080fd5b505afa158015611a43573d6000803e3d6000fd5b505050506040513d601f19601f82011682018060405250810190611a679190612757565b9050600084611b05576040516370a0823160e01b81526001600160a01b038881166004830152670de0b6b3a764000091908416906370a082319060240160206040518083038186803b158015611abc57600080fd5b505afa158015611ad0573d6000803e3d6000fd5b505050506040513d601f19601f82011682018060405250810190611af49190612b1c565b611afe9190612c50565b9050611c02565b8460011415611b88576040516370a0823160e01b81526001600160a01b0388811660048301528316906370a08231906024015b60206040518083038186803b158015611b5057600080fd5b505afa158015611b64573d6000803e3d6000fd5b505050506040513d601f19601f82011682018060405250810190611afe9190612b1c565b8460021415611bdd576040517efdd58e0000000000000000000000000000000000000000000000000000000081526001600160a01b0388811660048301526024820185905283169062fdd58e90604401611b38565b8460031415611bf4576001955050505050506111b8565b6000955050505050506111b8565b60008111611c18576000955050505050506111b8565b677fffffffffffffff8110611c35576032955050505050506111b8565b6000611c50611c4b611c4684612481565b61249f565b612596565b67ffffffffffffffff1696506111b895505050505050565b8060021415611c7c576001925050506111b8565b80611f5357604051634941d71d60e11b81527f0e95730315979b4709b23500dcc4c5a99efa79e8d8a378832595b7033c4f882260048201526000906001600160a01b03871690639283ae3a9060240160206040518083038186803b158015611ce357600080fd5b505afa158015611cf7573d6000803e3d6000fd5b505050506040513d601f19601f82011682018060405250810190611d1b9190612b1c565b6040517ffd310d290000000000000000000000000000000000000000000000000000000081527fe52ad936f38348d80ee24f7c89aa5f1eef01716e2edef2f9a86657e208816c6660048201529091506000906001600160a01b0388169063fd310d299060240160206040518083038186803b158015611d9957600080fd5b505afa158015611dad573d6000803e3d6000fd5b505050506040513d601f19601f82011682018060405250810190611dd19190612757565b9050600084611e6f576040516370a0823160e01b81526001600160a01b038881166004830152670de0b6b3a764000091908416906370a082319060240160206040518083038186803b158015611e2657600080fd5b505afa158015611e3a573d6000803e3d6000fd5b505050506040513d601f19601f82011682018060405250810190611e5e9190612b1c565b611e689190612c50565b9050611f47565b8460011415611ef2576040516370a0823160e01b81526001600160a01b0388811660048301528316906370a08231906024015b60206040518083038186803b158015611eba57600080fd5b505afa158015611ece573d6000803e3d6000fd5b505050506040513d601f19601f82011682018060405250810190611e689190612b1c565b8460021415611bdd576040517efdd58e0000000000000000000000000000000000000000000000000000000081526001600160a01b0388811660048301526024820185905283169062fdd58e90604401611ea2565b94506111b89350505050565b6000925050506111b8565b600080826001600160a01b031663c67143666040518163ffffffff1660e01b815260040160206040518083038186803b158015611f9a57600080fd5b505afa158015611fae573d6000803e3d6000fd5b505050506040513d601f19601f82011682018060405250810190611fd29190612b1c565b90506000805b828160ff161015612132576040517f9029444a00000000000000000000000000000000000000000000000000000000815260ff821660048201526001600160a01b0386169063a230c524908290639029444a9060240160206040518083038186803b15801561204657600080fd5b505afa15801561205a573d6000803e3d6000fd5b505050506040513d601f19601f8201168201806040525081019061207e9190612757565b6040517fffffffff0000000000000000000000000000000000000000000000000000000060e084901b1681526001600160a01b03909116600482015260240160206040518083038186803b1580156120d557600080fd5b505afa1580156120e9573d6000803e3d6000fd5b505050506040513d601f19601f8201168201806040525081019061210d9190612893565b156121205761211d600183612c38565b91505b8061212a81612cc4565b915050611fd8565b509392505050565b6115048282336125b2565b600080612151836126c0565b90506000805b82518160ff1610156121325761219785848360ff168151811061218a57634e487b7160e01b600052603260045260246000fd5b60200260200101516117d3565b6121a19083612c04565b9150806121ad81612cc4565b915050612157565b6000806121c1846126c0565b6040517f17ba7d850000000000000000000000000000000000000000000000000000000081527f0d479c38716a0298633b1dbf1ce145a3fbd1d79ca4527de172afc3bad04a2ba7600482015290915060009081906001600160a01b038716906317ba7d859060240160206040518083038186803b15801561224157600080fd5b505afa158015612255573d6000803e3d6000fd5b505050506040513d601f19601f820116820180604052508101906122799190612757565b905060005b83518160ff16101561247657816001600160a01b03166324a2cceb8888878560ff16815181106122be57634e487b7160e01b600052603260045260246000fd5b60200260200101516040518463ffffffff1660e01b8152600401612302939291906001600160a01b0393841681526020810192909252909116604082015260600190565b60206040518083038186803b15801561231a57600080fd5b505afa15801561232e573d6000803e3d6000fd5b505050506040513d601f19601f820116820180604052508101906123529190612893565b1561243057816001600160a01b03166391d2fd538888878560ff168151811061238b57634e487b7160e01b600052603260045260246000fd5b60200260200101516040518463ffffffff1660e01b81526004016123cf939291906001600160a01b0393841681526020810192909252909116604082015260600190565b60206040518083038186803b1580156123e757600080fd5b505afa1580156123fb573d6000803e3d6000fd5b505050506040513d601f19601f8201168201806040525081019061241f9190612aec565b6124299084612c04565b9250612464565b61245787858360ff168151811061218a57634e487b7160e01b600052603260045260246000fd5b6124619084612c04565b92505b8061246e81612cc4565b91505061227e565b509095945050505050565b6000677fffffffffffffff82111561249857600080fd5b5060401b90565b60008082600f0b136124b057600080fd5b6000600f83900b6801000000000000000081126124cf576040918201911d5b64010000000081126124e3576020918201911d5b6201000081126124f5576010918201911d5b6101008112612506576008918201911d5b60108112612516576004918201911d5b60048112612526576002918201911d5b60028112612535576001820191505b7fffffffffffffffffffffffffffffffffffffffffffffffffffffffffffffffc0820160401b600f85900b607f8490031b6780000000000000005b60008113156124765790800260ff81901c8281029390930192607f011c9060011d612570565b60008082600f0b12156125a857600080fd5b50600f0b60401d90565b8160200151156126685781606001516001600160a01b0316635e5eb01384835a86516125de9190612cad565b60408088015190517fffffffff0000000000000000000000000000000000000000000000000000000060e087901b1681526001600160a01b03948516600482015293909216602484015260448301526064820152608401600060405180830381600087803b15801561264f57600080fd5b505af1158015612663573d6000803e3d6000fd5b505050505b826001600160a01b031663d4f7af436040518163ffffffff1660e01b8152600401600060405180830381600087803b1580156126a357600080fd5b505af11580156126b7573d6000803e3d6000fd5b50505050505050565b6060816001600160a01b031663a6f636416040518163ffffffff1660e01b815260040160006040518083038186803b1580156126fb57600080fd5b505afa15801561270f573d6000803e3d6000fd5b505050506040513d6000823e601f3d908101601f191682016040526111b891908101906127df565b803561274281612d26565b919050565b8051801515811461274257600080fd5b600060208284031215612768578081fd5b81516102c981612d26565b60008060408385031215612785578081fd5b823561279081612d26565b946020939093013593505050565b6000806000606084860312156127b2578081fd5b83356127bd81612d26565b92506020840135915060408401356127d481612d26565b809150509250925092565b600060208083850312156127f1578182fd5b825167ffffffffffffffff80821115612808578384fd5b818501915085601f83011261281b578384fd5b81518181111561282d5761282d612d10565b8060051b915061283e848301612bd3565b8181528481019084860184860187018a1015612858578788fd5b8795505b83861015612886578051945061287185612d26565b8483526001959095019491860191860161285c565b5098975050505050505050565b6000602082840312156128a4578081fd5b6111b582612747565b600080604083850312156128bf578182fd5b6128c883612747565b9150602083015190509250929050565b6000602082840312156128e9578081fd5b81356102c981612d26565b60008060408385031215612906578182fd5b823561291181612d26565b9150602083013561292181612d26565b809150509250929050565b60008060008060808587031215612941578081fd5b843561294c81612d26565b935060208581013561295d81612d26565b9350604086013567ffffffffffffffff80821115612979578384fd5b818801915088601f83011261298c578384fd5b81358181111561299e5761299e612d10565b6129b084601f19601f84011601612bd3565b915080825289848285010111156129c5578485fd5b808484018584013781019092018390525091506129e460608601612737565b905092959194509250565b60008060408385031215612785578182fd5b6000806000606084860312156127b2578283fd5b60008060008060608587031215612a2a578182fd5b8435612a3581612d26565b935060208501359250604085013567ffffffffffffffff80821115612a58578384fd5b818701915087601f830112612a6b578384fd5b813581811115612a79578485fd5b886020828501011115612a8a578485fd5b95989497505060200194505050565b600080600060608486031215612aad578081fd5b8335612ab881612d26565b95602085013595506040909401359392505050565b600060208284031215612ade578081fd5b8151600281106102c9578182fd5b600060208284031215612afd578081fd5b81516fffffffffffffffffffffffffffffffff811681146102c9578182fd5b600060208284031215612b2d578081fd5b5051919050565b8281526040810160038310612b4b57612b4b612cfa565b8260208301529392505050565b6060810160068510612b6c57612b6c612cfa565b938152602081019290925260409091015290565b6000602080835283518082850152825b81811015612bac57858101830151858201604001528201612b90565b81811115612bbd5783604083870101525b50601f01601f1916929092016040019392505050565b604051601f8201601f1916810167ffffffffffffffff81118282101715612bfc57612bfc612d10565b604052919050565b60006fffffffffffffffffffffffffffffffff808316818516808303821115612c2f57612c2f612ce4565b01949350505050565b60008219821115612c4b57612c4b612ce4565b500190565b600082612c6b57634e487b7160e01b81526012600452602481fd5b500490565b6000817fffffffffffffffffffffffffffffffffffffffffffffffffffffffffffffffff0483118215151615612ca857612ca8612ce4565b500290565b600082821015612cbf57612cbf612ce4565b500390565b600060ff821660ff811415612cdb57612cdb612ce4565b60010192915050565b634e487b7160e01b600052601160045260246000fd5b634e487b7160e01b600052602160045260246000fd5b634e487b7160e01b600052604160045260246000fd5b6001600160a01b0381168114612d3b57600080fd5b5056fea26469706673582212209672c7c4e77c728e20932aa6ad47c1d99f7651877798523f6cb65a198c8b3b1164736f6c63430008040033",
  "linkReferences": {},
  "deployedLinkReferences": {}
}