{
  "_format": "hh-sol-artifact-1",
  "contractName": "FlexFundingAdapterContract",
  "sourceName": "contracts/flex/adatpers/FlexFunding.sol",
  "abi": [
    {
      "inputs": [],
      "name": "FundRaiseEndTimeNotUP",
      "type": "error"
    },
    {
      "inputs": [],
      "name": "InvalidBackerIdentificationParams",
      "type": "error"
    },
    {
      "inputs": [],
      "name": "InvalidBackerPriorityDepositParams",
      "type": "error"
    },
    {
      "inputs": [],
      "name": "InvalidInvestmentInfoParams",
      "type": "error"
    },
    {
      "inputs": [],
      "name": "InvalidReturnFundParams",
      "type": "error"
    },
    {
      "inputs": [],
      "name": "InvalidTokenRewardAmount",
      "type": "error"
    },
    {
      "inputs": [],
      "name": "InvalidVestingParams",
      "type": "error"
    },
    {
      "inputs": [],
      "name": "NotInExecuteState",
      "type": "error"
    },
    {
      "anonymous": false,
      "inputs": [
        {
          "indexed": false,
          "internalType": "address",
          "name": "daoAddress",
          "type": "address"
        },
        {
          "indexed": false,
          "internalType": "bytes32",
          "name": "proposalId",
          "type": "bytes32"
        },
        {
          "indexed": false,
          "internalType": "address",
          "name": "proposer",
          "type": "address"
        }
      ],
      "name": "ProposalCreated",
      "type": "event"
    },
    {
      "anonymous": false,
      "inputs": [
        {
          "indexed": false,
          "internalType": "address",
          "name": "daoAddress",
          "type": "address"
        },
        {
          "indexed": false,
          "internalType": "bytes32",
          "name": "proposalId",
          "type": "bytes32"
        },
        {
          "indexed": false,
          "internalType": "enum IFlexFunding.ProposalStatus",
          "name": "state",
          "type": "uint8"
        }
      ],
      "name": "ProposalExecuted",
      "type": "event"
    },
    {
      "inputs": [
        {
          "internalType": "address",
          "name": "",
          "type": "address"
        },
        {
          "internalType": "bytes32",
          "name": "",
          "type": "bytes32"
        }
      ],
      "name": "Proposals",
      "outputs": [
        {
          "internalType": "address",
          "name": "proposer",
          "type": "address"
        },
        {
          "components": [
            {
              "internalType": "address",
              "name": "tokenAddress",
              "type": "address"
            },
            {
              "internalType": "uint256",
              "name": "minInvestmentAmount",
              "type": "uint256"
            },
            {
              "internalType": "uint256",
              "name": "maxInvestmentAmount",
              "type": "uint256"
            },
            {
              "internalType": "uint256",
              "name": "finalRaisedAmount",
              "type": "uint256"
            },
            {
              "internalType": "bool",
              "name": "escrow",
              "type": "bool"
            },
            {
              "internalType": "address",
              "name": "returnTokenAddr",
              "type": "address"
            },
            {
              "internalType": "uint256",
              "name": "returnTokenAmount",
              "type": "uint256"
            },
            {
              "internalType": "uint256",
              "name": "price",
              "type": "uint256"
            },
            {
              "internalType": "uint256",
              "name": "minReturnAmount",
              "type": "uint256"
            },
            {
              "internalType": "uint256",
              "name": "maxReturnAmount",
              "type": "uint256"
            },
            {
              "internalType": "address",
              "name": "approverAddr",
              "type": "address"
            },
            {
              "internalType": "address",
              "name": "recipientAddr",
              "type": "address"
            }
          ],
          "internalType": "struct IFlexFunding.ProposalInvestmentInfo",
          "name": "investmentInfo",
          "type": "tuple"
        },
        {
          "components": [
            {
              "internalType": "uint256",
              "name": "vestingStartTime",
              "type": "uint256"
            },
            {
              "internalType": "uint256",
              "name": "vestingCliffEndTime",
              "type": "uint256"
            },
            {
              "internalType": "uint256",
              "name": "vestingEndTime",
              "type": "uint256"
            },
            {
              "internalType": "uint256",
              "name": "vestingInterval",
              "type": "uint256"
            },
            {
              "internalType": "uint256",
              "name": "vestingCliffLockAmount",
              "type": "uint256"
            },
            {
              "internalType": "bool",
              "name": "nftEnable",
              "type": "bool"
            },
            {
              "internalType": "address",
              "name": "erc721",
              "type": "address"
            },
            {
              "internalType": "string",
              "name": "vestName",
              "type": "string"
            },
            {
              "internalType": "string",
              "name": "vestDescription",
              "type": "string"
            }
          ],
          "internalType": "struct IFlexFunding.VestInfo",
          "name": "vestInfo",
          "type": "tuple"
        },
        {
          "components": [
            {
              "internalType": "enum IFlexFunding.FundRaiseType",
              "name": "fundRaiseType",
              "type": "uint8"
            },
            {
              "internalType": "uint256",
              "name": "fundRaiseStartTime",
              "type": "uint256"
            },
            {
              "internalType": "uint256",
              "name": "fundRaiseEndTime",
              "type": "uint256"
            },
            {
              "internalType": "uint256",
              "name": "minDepositAmount",
              "type": "uint256"
            },
            {
              "internalType": "uint256",
              "name": "maxDepositAmount",
              "type": "uint256"
            },
            {
              "internalType": "bool",
              "name": "backerIdentification",
              "type": "bool"
            },
            {
              "components": [
                {
                  "internalType": "enum IFlexFunding.BackerIdentificationType",
                  "name": "bType",
                  "type": "uint8"
                },
                {
                  "internalType": "uint32",
                  "name": "bChainId",
                  "type": "uint32"
                },
                {
                  "internalType": "address",
                  "name": "bTokanAddr",
                  "type": "address"
                },
                {
                  "internalType": "uint256",
                  "name": "bTokenId",
                  "type": "uint256"
                },
                {
                  "internalType": "uint256",
                  "name": "bMinHoldingAmount",
                  "type": "uint256"
                }
              ],
              "internalType": "struct IFlexFunding.BackerIdentificationInfo",
              "name": "bakckerIdentificationInfo",
              "type": "tuple"
            },
            {
              "components": [
                {
                  "internalType": "bool",
                  "name": "enable",
                  "type": "bool"
                },
                {
                  "internalType": "enum IFlexFunding.PriorityDepositType",
                  "name": "pType",
                  "type": "uint8"
                },
                {
                  "internalType": "address",
                  "name": "token",
                  "type": "address"
                },
                {
                  "internalType": "uint256",
                  "name": "tokenId",
                  "type": "uint256"
                },
                {
                  "internalType": "uint256",
                  "name": "amount",
                  "type": "uint256"
                }
              ],
              "internalType": "struct IFlexFunding.PriorityDepositInfo",
              "name": "priorityDepositInfo",
              "type": "tuple"
            }
          ],
          "internalType": "struct IFlexFunding.FundRaiseInfo",
          "name": "fundRaiseInfo",
          "type": "tuple"
        },
        {
          "components": [
            {
              "internalType": "uint256",
              "name": "tokenRewardAmount",
              "type": "uint256"
            },
            {
              "internalType": "uint256",
              "name": "cashRewardAmount",
              "type": "uint256"
            }
          ],
          "internalType": "struct IFlexFunding.ProposerRewardInfo",
          "name": "proposerRewardInfo",
          "type": "tuple"
        },
        {
          "internalType": "uint256",
          "name": "startVoteTime",
          "type": "uint256"
        },
        {
          "internalType": "uint256",
          "name": "stopVoteTime",
          "type": "uint256"
        },
        {
          "internalType": "enum IFlexFunding.ProposalStatus",
          "name": "state",
          "type": "uint8"
        }
      ],
      "stateMutability": "view",
      "type": "function"
    },
    {
      "inputs": [],
      "name": "RETRUN_TOKEN_AMOUNT_PRECISION",
      "outputs": [
        {
          "internalType": "uint256",
          "name": "",
          "type": "uint256"
        }
      ],
      "stateMutability": "view",
      "type": "function"
    },
    {
      "inputs": [
        {
          "internalType": "contract DaoRegistry",
          "name": "dao",
          "type": "address"
        }
      ],
      "name": "allDone",
      "outputs": [
        {
          "internalType": "bool",
          "name": "",
          "type": "bool"
        }
      ],
      "stateMutability": "view",
      "type": "function"
    },
    {
      "inputs": [
        {
          "internalType": "contract DaoRegistry",
          "name": "dao",
          "type": "address"
        }
      ],
      "name": "clearProposerWhitelist",
      "outputs": [],
      "stateMutability": "nonpayable",
      "type": "function"
    },
    {
      "inputs": [
        {
          "internalType": "contract DaoRegistry",
          "name": "dao",
          "type": "address"
        }
      ],
      "name": "getProposerWhitelist",
      "outputs": [
        {
          "internalType": "address[]",
          "name": "",
          "type": "address[]"
        }
      ],
      "stateMutability": "view",
      "type": "function"
    },
    {
      "inputs": [
        {
          "internalType": "contract DaoRegistry",
          "name": "dao",
          "type": "address"
        },
        {
          "internalType": "address",
          "name": "_addr",
          "type": "address"
        }
      ],
      "name": "isActiveMember",
      "outputs": [
        {
          "internalType": "bool",
          "name": "",
          "type": "bool"
        }
      ],
      "stateMutability": "view",
      "type": "function"
    },
    {
      "inputs": [
        {
          "internalType": "contract DaoRegistry",
          "name": "dao",
          "type": "address"
        },
        {
          "internalType": "bytes32",
          "name": "proposalId",
          "type": "bytes32"
        },
        {
          "internalType": "address",
          "name": "account",
          "type": "address"
        }
      ],
      "name": "isPriorityDepositer",
      "outputs": [
        {
          "internalType": "bool",
          "name": "",
          "type": "bool"
        }
      ],
      "stateMutability": "view",
      "type": "function"
    },
    {
      "inputs": [
        {
          "internalType": "contract DaoRegistry",
          "name": "dao",
          "type": "address"
        },
        {
          "internalType": "address",
          "name": "account",
          "type": "address"
        }
      ],
      "name": "isProposerWhiteList",
      "outputs": [
        {
          "internalType": "bool",
          "name": "",
          "type": "bool"
        }
      ],
      "stateMutability": "view",
      "type": "function"
    },
    {
      "inputs": [
        {
          "internalType": "contract DaoRegistry",
          "name": "dao",
          "type": "address"
        },
        {
          "internalType": "bytes32",
          "name": "proposalId",
          "type": "bytes32"
        }
      ],
      "name": "processProposal",
      "outputs": [
        {
          "internalType": "bool",
          "name": "",
          "type": "bool"
        }
      ],
      "stateMutability": "nonpayable",
      "type": "function"
    },
    {
      "inputs": [],
      "name": "protocolAddress",
      "outputs": [
        {
          "internalType": "address",
          "name": "",
          "type": "address"
        }
      ],
      "stateMutability": "view",
      "type": "function"
    },
    {
      "inputs": [],
      "name": "protocolFee",
      "outputs": [
        {
          "internalType": "uint256",
          "name": "",
          "type": "uint256"
        }
      ],
      "stateMutability": "view",
      "type": "function"
    },
    {
      "inputs": [
        {
          "internalType": "contract DaoRegistry",
          "name": "dao",
          "type": "address"
        },
        {
          "internalType": "address",
          "name": "account",
          "type": "address"
        }
      ],
      "name": "registerProposerWhiteList",
      "outputs": [],
      "stateMutability": "nonpayable",
      "type": "function"
    },
    {
      "inputs": [
        {
          "internalType": "contract DaoRegistry",
          "name": "dao",
          "type": "address"
        },
        {
          "internalType": "bytes32",
          "name": "proposalId",
          "type": "bytes32"
        }
      ],
      "name": "retrunTokenToApprover",
      "outputs": [],
      "stateMutability": "nonpayable",
      "type": "function"
    },
    {
      "inputs": [
        {
          "internalType": "contract DaoRegistry",
          "name": "dao",
          "type": "address"
        },
        {
          "internalType": "address",
          "name": "_protocolAddress",
          "type": "address"
        }
      ],
      "name": "setProtocolAddress",
      "outputs": [],
      "stateMutability": "nonpayable",
      "type": "function"
    },
    {
      "inputs": [
        {
          "internalType": "contract DaoRegistry",
          "name": "dao",
          "type": "address"
        },
        {
          "internalType": "uint256",
          "name": "_protocolFee",
          "type": "uint256"
        }
      ],
      "name": "setProtocolFee",
      "outputs": [],
      "stateMutability": "nonpayable",
      "type": "function"
    },
    {
      "inputs": [
        {
          "internalType": "contract DaoRegistry",
          "name": "dao",
          "type": "address"
        },
        {
          "components": [
            {
              "components": [
                {
                  "internalType": "address",
                  "name": "tokenAddress",
                  "type": "address"
                },
                {
                  "internalType": "uint256",
                  "name": "minInvestmentAmount",
                  "type": "uint256"
                },
                {
                  "internalType": "uint256",
                  "name": "maxInvestmentAmount",
                  "type": "uint256"
                },
                {
                  "internalType": "bool",
                  "name": "escrow",
                  "type": "bool"
                },
                {
                  "internalType": "address",
                  "name": "returnTokenAddr",
                  "type": "address"
                },
                {
                  "internalType": "uint256",
                  "name": "returnTokenAmount",
                  "type": "uint256"
                },
                {
                  "internalType": "uint256",
                  "name": "price",
                  "type": "uint256"
                },
                {
                  "internalType": "uint256",
                  "name": "minReturnAmount",
                  "type": "uint256"
                },
                {
                  "internalType": "uint256",
                  "name": "maxReturnAmount",
                  "type": "uint256"
                },
                {
                  "internalType": "address",
                  "name": "approverAddr",
                  "type": "address"
                },
                {
                  "internalType": "address",
                  "name": "recipientAddr",
                  "type": "address"
                }
              ],
              "internalType": "struct IFlexFunding.InvestmentInfo",
              "name": "investmentInfo",
              "type": "tuple"
            },
            {
              "components": [
                {
                  "internalType": "uint256",
                  "name": "vestingStartTime",
                  "type": "uint256"
                },
                {
                  "internalType": "uint256",
                  "name": "vestingCliffEndTime",
                  "type": "uint256"
                },
                {
                  "internalType": "uint256",
                  "name": "vestingEndTime",
                  "type": "uint256"
                },
                {
                  "internalType": "uint256",
                  "name": "vestingInterval",
                  "type": "uint256"
                },
                {
                  "internalType": "uint256",
                  "name": "vestingCliffLockAmount",
                  "type": "uint256"
                },
                {
                  "internalType": "bool",
                  "name": "nftEnable",
                  "type": "bool"
                },
                {
                  "internalType": "address",
                  "name": "erc721",
                  "type": "address"
                },
                {
                  "internalType": "string",
                  "name": "vestName",
                  "type": "string"
                },
                {
                  "internalType": "string",
                  "name": "vestDescription",
                  "type": "string"
                }
              ],
              "internalType": "struct IFlexFunding.VestInfo",
              "name": "vestInfo",
              "type": "tuple"
            },
            {
              "components": [
                {
                  "internalType": "enum IFlexFunding.FundRaiseType",
                  "name": "fundRaiseType",
                  "type": "uint8"
                },
                {
                  "internalType": "uint256",
                  "name": "fundRaiseStartTime",
                  "type": "uint256"
                },
                {
                  "internalType": "uint256",
                  "name": "fundRaiseEndTime",
                  "type": "uint256"
                },
                {
                  "internalType": "uint256",
                  "name": "minDepositAmount",
                  "type": "uint256"
                },
                {
                  "internalType": "uint256",
                  "name": "maxDepositAmount",
                  "type": "uint256"
                },
                {
                  "internalType": "bool",
                  "name": "backerIdentification",
                  "type": "bool"
                },
                {
                  "components": [
                    {
                      "internalType": "enum IFlexFunding.BackerIdentificationType",
                      "name": "bType",
                      "type": "uint8"
                    },
                    {
                      "internalType": "uint32",
                      "name": "bChainId",
                      "type": "uint32"
                    },
                    {
                      "internalType": "address",
                      "name": "bTokanAddr",
                      "type": "address"
                    },
                    {
                      "internalType": "uint256",
                      "name": "bTokenId",
                      "type": "uint256"
                    },
                    {
                      "internalType": "uint256",
                      "name": "bMinHoldingAmount",
                      "type": "uint256"
                    }
                  ],
                  "internalType": "struct IFlexFunding.BackerIdentificationInfo",
                  "name": "bakckerIdentificationInfo",
                  "type": "tuple"
                },
                {
                  "components": [
                    {
                      "internalType": "bool",
                      "name": "enable",
                      "type": "bool"
                    },
                    {
                      "internalType": "enum IFlexFunding.PriorityDepositType",
                      "name": "pType",
                      "type": "uint8"
                    },
                    {
                      "internalType": "address",
                      "name": "token",
                      "type": "address"
                    },
                    {
                      "internalType": "uint256",
                      "name": "tokenId",
                      "type": "uint256"
                    },
                    {
                      "internalType": "uint256",
                      "name": "amount",
                      "type": "uint256"
                    }
                  ],
                  "internalType": "struct IFlexFunding.PriorityDepositInfo",
                  "name": "priorityDepositInfo",
                  "type": "tuple"
                }
              ],
              "internalType": "struct IFlexFunding.FundRaiseInfo",
              "name": "fundRaiseInfo",
              "type": "tuple"
            },
            {
              "components": [
                {
                  "internalType": "uint256",
                  "name": "tokenRewardAmount",
                  "type": "uint256"
                },
                {
                  "internalType": "uint256",
                  "name": "cashRewardAmount",
                  "type": "uint256"
                }
              ],
              "internalType": "struct IFlexFunding.ProposerRewardInfo",
              "name": "proposerRewardInfo",
              "type": "tuple"
            },
            {
              "internalType": "address[]",
              "name": "priorityDepositWhitelist",
              "type": "address[]"
            }
          ],
          "internalType": "struct IFlexFunding.ProposalParams",
          "name": "params",
          "type": "tuple"
        }
      ],
      "name": "submitProposal",
      "outputs": [],
      "stateMutability": "nonpayable",
      "type": "function"
    }
  ],
  "bytecode": "0x60806040526103e86200001c670de0b6b3a7640000600362000086565b62000028919062000065565b600455600580546001600160a01b031916739ac9c636404c8d46d9eb966d7179983ba5a3941a1790553480156200005e57600080fd5b50620000b2565b6000826200008157634e487b7160e01b81526012600452602481fd5b500490565b6000816000190483118215151615620000ad57634e487b7160e01b81526011600452602481fd5b500290565b615ffd80620000c26000396000f3fe608060405234801561001057600080fd5b50600436106101005760003560e01c80638ecf772011610097578063b0e21e8a11610066578063b0e21e8a14610233578063b5b3ca2c1461023c578063bf4999941461024f578063c7aa00dd1461027657600080fd5b80638ecf7720146101e75780639573167d146101fa578063ac7634dc1461020d578063acc232081461022057600080fd5b8063642fc0c0116100d3578063642fc0c0146101915780636d3cc040146101a45780636d535f11146101b75780636e0717e5146101d457600080fd5b806305c6cc33146101055780630676c1b71461012e578063438d9312146101595780635dbf37db1461016e575b600080fd5b6101186101133660046155a5565b610289565b6040516101259190615c14565b60405180910390f35b600554610141906001600160a01b031681565b6040516001600160a01b039091168152602001610125565b61016c61016736600461566d565b6102b3565b005b61018161017c36600461566d565b6104b6565b6040519015158152602001610125565b61018161019f3660046155a5565b6104df565b6101816101b23660046156b7565b610516565b6101c6670de0b6b3a764000081565b604051908152602001610125565b61016c6101e23660046155a5565b610847565b6101816101f536600461566d565b6109f6565b6101816102083660046156a5565b610a8c565b61016c61021b3660046156f8565b611d7d565b61016c61022e3660046156a5565b613df3565b6101c660045481565b61016c61024a3660046156a5565b613f75565b61026261025d3660046155dd565b614156565b604051610125989796959493929190615af0565b61016c61028436600461566d565b6145cf565b6001600160a01b03811660009081526002602052604090206060906102ad906147a8565b92915050565b8143816001600160a01b031663b21634826040518163ffffffff1660e01b815260040160206040518083038186803b1580156102ee57600080fd5b505afa158015610302573d6000803e3d6000fd5b505050506040513d601f19601f82011682018060405250810190610326919061585b565b14156103795760405162461bcd60e51b815260206004820152601060248201527f7265656e7472616e63792067756172640000000000000000000000000000000060448201526064015b60405180910390fd5b806001600160a01b03166310fdb0a26040518163ffffffff1660e01b8152600401600060405180830381600087803b1580156103b457600080fd5b505af11580156103c8573d6000803e3d6000fd5b50505050826103d6816147b5565b6001600160a01b0316336001600160a01b0316146104365760405162461bcd60e51b815260206004820152600b60248201527f4163636573732044656e790000000000000000000000000000000000000000006044820152606401610370565b82600560006101000a8154816001600160a01b0302191690836001600160a01b0316021790555050806001600160a01b031663d4f7af436040518163ffffffff1660e01b8152600401600060405180830381600087803b15801561049957600080fd5b505af11580156104ad573d6000803e3d6000fd5b50505050505050565b6001600160a01b03821660009081526002602052604081206104d89083614898565b9392505050565b6001600160a01b03811660009081526003602052604081208190610502906148ba565b1161050e5760016102ad565b600092915050565b6001600160a01b0383166000908152602081815260408083208584529091528120601d81015460ff1615156001141561083c57601d810154601f820154601e830154610100830460ff16926201000090046001600160a01b03169190600084600381111561059457634e487b7160e01b600052602160045260246000fd5b14801561061b57506040516370a0823160e01b81526001600160a01b0388811660048301528391908516906370a082319060240160206040518083038186803b1580156105e057600080fd5b505afa1580156105f4573d6000803e3d6000fd5b505050506040513d601f19601f82011682018060405250810190610618919061585b565b10155b1561062e576001955050505050506104d8565b600184600381111561065057634e487b7160e01b600052602160045260246000fd5b1480156106d757506040516370a0823160e01b81526001600160a01b0388811660048301528391908516906370a082319060240160206040518083038186803b15801561069c57600080fd5b505afa1580156106b0573d6000803e3d6000fd5b505050506040513d601f19601f820116820180604052508101906106d4919061585b565b10155b156106ea576001955050505050506104d8565b600284600381111561070c57634e487b7160e01b600052602160045260246000fd5b1480156107b157506040517efdd58e0000000000000000000000000000000000000000000000000000000081526001600160a01b0388811660048301526024820183905283919085169062fdd58e9060440160206040518083038186803b15801561077657600080fd5b505afa15801561078a573d6000803e3d6000fd5b505050506040513d601f19601f820116820180604052508101906107ae919061585b565b10155b156107c4576001955050505050506104d8565b60038460038111156107e657634e487b7160e01b600052602160045260246000fd5b14801561081b57506001600160a01b03891660009081526001602090815260408083208b8452909152902061081b9088614898565b1561082e576001955050505050506104d8565b6000955050505050506104d8565b506000949350505050565b6040516317ba7d8560e01b81527fff9379b98b93eb3bd1fac62fd2258a7955d70d2d5279c40064145b6c9646df3760048201526001600160a01b038216906317ba7d859060240160206040518083038186803b1580156108a657600080fd5b505afa1580156108ba573d6000803e3d6000fd5b505050506040513d601f19601f820116820180604052508101906108de91906155c1565b6001600160a01b0316336001600160a01b03161461093e5760405162461bcd60e51b815260206004820152600760248201527f21616363657373000000000000000000000000000000000000000000000000006044820152606401610370565b6001600160a01b0381166000908152600260205260409020606090610962906147a8565b805190915080156109f15760005b818160ff1610156109ef576109dc838260ff16815181106109a157634e487b7160e01b600052603260045260246000fd5b602002602001015160026000876001600160a01b03166001600160a01b031681526020019081526020016000206148c490919063ffffffff16565b50806109e781615f0e565b915050610970565b505b505050565b6040517fa230c5240000000000000000000000000000000000000000000000000000000081526001600160a01b0382811660048301526000919084169063a230c5249060240160206040518083038186803b158015610a5457600080fd5b505afa158015610a68573d6000803e3d6000fd5b505050506040513d601f19601f820116820180604052508101906104d89190615624565b6000826000610a9a826148d9565b9050610aa4615257565b6001600160a01b0386166000818152602081815260408083208984529091529081902090516317ba7d8560e01b81527f2207fd6117465cefcba0abc867150698c0464aa41a293ec29ca01b67a6350c3c60048201529091906317ba7d859060240160206040518083038186803b158015610b1d57600080fd5b505afa158015610b31573d6000803e3d6000fd5b505050506040513d601f19601f82011682018060405250810190610b5591906155c1565b6001600160a01b0390811660608401526040517f593e96b60000000000000000000000000000000000000000000000000000000081527fb12a3847d47fefceb164b75823af125f9aa82b76938df0ddf08c04cd314ba37c60048201529088169063593e96b69060240160206040518083038186803b158015610bd657600080fd5b505afa158015610bea573d6000803e3d6000fd5b505050506040513d601f19601f82011682018060405250810190610c0e91906155c1565b6001600160a01b031660808301526000602482015460ff166004811115610c4557634e487b7160e01b600052602160045260246000fd5b1415610f945780602301544211610cc45760405162461bcd60e51b815260206004820152603a60248201527f466c6578496e766573746d656e743a3a70726f6365737350726f706f73616c3a60448201527f3a70726f706f73616c20696e20766f74696e6720706572696f640000000000006064820152608401610370565b6040517f40de703e000000000000000000000000000000000000000000000000000000008152600481018790526001600160a01b038816906340de703e9060240160206040518083038186803b158015610d1d57600080fd5b505afa158015610d31573d6000803e3d6000fd5b505050506040513d601f19601f82011682018060405250810190610d5591906155c1565b6001600160a01b031660c08301819052610dd75760405162461bcd60e51b815260206004820152603260248201527f466c6578496e766573746d656e743a3a70726f6365737350726f706f73616c3a60448201527f3a61646170746572206e6f7420666f756e6400000000000000000000000000006064820152608401610370565b60c08201516040517f76225e730000000000000000000000000000000000000000000000000000000081526001600160a01b03898116600483015260248201899052909116906376225e7390604401606060405180830381600087803b158015610e4057600080fd5b505af1158015610e54573d6000803e3d6000fd5b505050506040513d601f19601f82011682018060405250810190610e78919061577d565b505060e08301816005811115610e9e57634e487b7160e01b600052602160045260246000fd5b6005811115610ebd57634e487b7160e01b600052602160045260246000fd5b90525060028260e001516005811115610ee657634e487b7160e01b600052602160045260246000fd5b1415610f78576024818101805460ff1916600117905560808301516040517fb6d26e38000000000000000000000000000000000000000000000000000000008152600481018990526001600160a01b039091169163b6d26e389101600060405180830381600087803b158015610f5b57600080fd5b505af1158015610f6f573d6000803e3d6000fd5b50505050611cd4565b6024810180546004919060ff19166001835b0217905550611cd4565b6001602482015460ff166004811115610fbd57634e487b7160e01b600052602160045260246000fd5b1415611ca25760608201516040517ff614aea30000000000000000000000000000000000000000000000000000000081526001600160a01b038981166004830152602482018990529091169063f614aea390604401600060405180830381600087803b15801561102c57600080fd5b505af1158015611040573d6000803e3d6000fd5b50505060608301516040517f0617b0ce0000000000000000000000000000000000000000000000000000000081526001600160a01b038a81166004830152602482018a90529091169150630617b0ce9060440160206040518083038186803b1580156110ab57600080fd5b505afa1580156110bf573d6000803e3d6000fd5b505050506040513d601f19601f820116820180604052508101906110e391906155c1565b6001600160a01b039081166101408401526001820154166101e0830152601681015442101561113e576040517f5d68b4f100000000000000000000000000000000000000000000000000000000815260040160405180910390fd5b6040517f30490e91000000000000000000000000000000000000000000000000000000008152600481018790526001600160a01b038816906330490e9190602401600060405180830381600087803b15801561119957600080fd5b505af11580156111ad573d6000803e3d6000fd5b50505050670de0b6b3a76400006004548361014001516001600160a01b03166111d69190615e5c565b6111e09190615e48565b610160830152604051634941d71d60e11b81527fda34ff95e06cbf2c9c32a559cd8aadd1a10104596417d62c03db2c1258df83d360048201526001600160a01b03881690639283ae3a9060240160206040518083038186803b15801561124557600080fd5b505afa158015611259573d6000803e3d6000fd5b505050506040513d601f19601f8201168201806040525081019061127d919061585b565b1561131e57604051634941d71d60e11b81527f64c49ee5084f4940c312104c41603e43791b03dad28152afd6eadb5b960a8a8760048201526001600160a01b03881690639283ae3a9060240160206040518083038186803b1580156112e157600080fd5b505afa1580156112f5573d6000803e3d6000fd5b505050506040513d601f19601f82011682018060405250810190611319919061585b565b6113e2565b604051634941d71d60e11b81527f64c49ee5084f4940c312104c41603e43791b03dad28152afd6eadb5b960a8a876004820152670de0b6b3a7640000906001600160a01b03891690639283ae3a9060240160206040518083038186803b15801561138757600080fd5b505afa15801561139b573d6000803e3d6000fd5b505050506040513d601f19601f820116820180604052508101906113bf919061585b565b8361014001516001600160a01b03166113d89190615e5c565b6113e29190615e48565b6101808301526021810154610140830151670de0b6b3a76400009161140f916001600160a01b0316615e5c565b6114199190615e48565b6101c08301819052610180830151610160840151600284015461143c9190615e30565b6114469190615e30565b6114509190615e30565b8261014001516001600160a01b031610611c8c576101408201516001600160a01b03166004820155600581015460ff161561170f57670de0b6b3a76400008160010160060154836101c001518461018001518561016001518661014001516001600160a01b03166114c19190615e7b565b6114cb9190615e7b565b6114d59190615e7b565b6114df9190615e48565b6114e99190615e5c565b600682018190556102608301819052600a8201546005830154611521928a926001600160a01b0390811692610100900416908a614ba4565b61158c576024810180546004919060ff19166001835b021790555060248101546040517ff854addaea7ab1ac33b2a81fdae355ba1b5600023b89719b7c224c866577421e91611579918a918a9160ff90911690615acc565b60405180910390a1600094505050611d6b565b6040516317ba7d8560e01b81527fb0326f8dfc913f537596953a938551c86ac8fe0da74c9a8cd0ee660e627dccc860048201526001600160a01b038816906317ba7d859060240160206040518083038186803b1580156115eb57600080fd5b505afa1580156115ff573d6000803e3d6000fd5b505050506040513d601f19601f8201168201806040525081019061162391906155c1565b6001600160a01b0390811660a0808501829052600584015484546040805193840181526102608801518452600c87015460208501819052600d8801549596635d5cdb32968f9661010090960482169594909116938e939092908301916116899190615e7b565b8152600f89015460208201819052604091820152517fffffffff0000000000000000000000000000000000000000000000000000000060e088901b1681526116d8959493929190600401615c61565b600060405180830381600087803b1580156116f257600080fd5b505af1158015611706573d6000803e3d6000fd5b5050505061184b565b6040516317ba7d8560e01b81527fb0326f8dfc913f537596953a938551c86ac8fe0da74c9a8cd0ee660e627dccc860048201526001600160a01b038816906317ba7d859060240160206040518083038186803b15801561176e57600080fd5b505afa158015611782573d6000803e3d6000fd5b505050506040513d601f19601f820116820180604052508101906117a691906155c1565b6001600160a01b0390811660a084018190526040517f9a3eb32b00000000000000000000000000000000000000000000000000000000815291891660048301526024820188905290639a3eb32b90604401602060405180830381600087803b15801561181157600080fd5b505af1158015611825573d6000803e3d6000fd5b505050506040513d601f19601f820116820180604052508101906118499190615624565b505b60248101805460ff19166002179055610160820151156119025760808201516005546101e08401516101608501516040517fceb1bfa6000000000000000000000000000000000000000000000000000000008152600481018b90526001600160a01b0393841660248201529183166044830152606482015291169063ceb1bfa690608401600060405180830381600087803b1580156118e957600080fd5b505af11580156118fd573d6000803e3d6000fd5b505050505b61018082015115611a515781608001516001600160a01b031663ceb1bfa687896001600160a01b031663fd310d297f8987d08c67963e4cacd5e5936c122a968c66853d58299dd822c19422271098396040518263ffffffff1660e01b815260040161196f91815260200190565b60206040518083038186803b15801561198757600080fd5b505afa15801561199b573d6000803e3d6000fd5b505050506040513d601f19601f820116820180604052508101906119bf91906155c1565b6101e08601516101808701516040517fffffffff0000000000000000000000000000000000000000000000000000000060e087901b16815260048101949094526001600160a01b039283166024850152911660448301526064820152608401600060405180830381600087803b158015611a3857600080fd5b505af1158015611a4c573d6000803e3d6000fd5b505050505b6101c082015115611af857608082015181546101e08401516101c08501516040517fceb1bfa6000000000000000000000000000000000000000000000000000000008152600481018b90526001600160a01b0393841660248201529183166044830152606482015291169063ceb1bfa690608401600060405180830381600087803b158015611adf57600080fd5b505af1158015611af3573d6000803e3d6000fd5b505050505b81608001516001600160a01b031663ceb1bfa68783600101600a0160009054906101000a90046001600160a01b0316856101e00151866101c001518761018001518861016001518961014001516001600160a01b0316611b589190615e7b565b611b629190615e7b565b611b6c9190615e7b565b6040517fffffffff0000000000000000000000000000000000000000000000000000000060e087901b16815260048101949094526001600160a01b039283166024850152911660448301526064820152608401600060405180830381600087803b158015611bd957600080fd5b505af1158015611bed573d6000803e3d6000fd5b5050505060808201516101408301516040517f1127b158000000000000000000000000000000000000000000000000000000008152600481018990526001600160a01b039182166024820152911690631127b15890604401600060405180830381600087803b158015611c5f57600080fd5b505af1158015611c73573d6000803e3d6000fd5b5050506024820180546003925060ff1916600183610f8a565b6024810180546004919060ff1916600183611537565b6040517fb7ea643300000000000000000000000000000000000000000000000000000000815260040160405180910390fd5b6001600160a01b0387166000908152600360205260409020611cf69087614d01565b15611d1f576001600160a01b0387166000908152600360205260409020611d1d9087614d19565b505b60248101546040517ff854addaea7ab1ac33b2a81fdae355ba1b5600023b89719b7c224c866577421e91611d5c918a918a9160ff90911690615acc565b60405180910390a16001945050505b611d758282614d25565b505092915050565b816000611d89826148d9565b604051634941d71d60e11b81527f2073e6ba5c75026b006fdd165596d94b89cada2e00d8e44a99d422de8ea467e0600482015290915084906001600160a01b03821690639283ae3a9060240160206040518083038186803b158015611ded57600080fd5b505afa158015611e01573d6000803e3d6000fd5b505050506040513d601f19601f82011682018060405250810190611e25919061585b565b600114156127a157604051634941d71d60e11b81527f57901982635f8a470a3648422f8f769cf08dc2057489be5bf0099fcb44f7d43c60048201526001600160a01b03821690639283ae3a9060240160206040518083038186803b158015611e8c57600080fd5b505afa158015611ea0573d6000803e3d6000fd5b505050506040513d601f19601f82011682018060405250810190611ec4919061585b565b6120bd57604051634941d71d60e11b81527ff6d5f030b79ca78dad001b87a49239ec96be97e62d13501da94c9a392700509e60048201526001600160a01b03821690639283ae3a9060240160206040518083038186803b158015611f2757600080fd5b505afa158015611f3b573d6000803e3d6000fd5b505050506040513d601f19601f82011682018060405250810190611f5f919061585b565b60405163fd310d2960e01b81527f30091caaedd0994beeeeb3b7b5734296263687ae0126aaf79e5e0f8e5c1706b260048201526001600160a01b0383169063fd310d299060240160206040518083038186803b158015611fbe57600080fd5b505afa158015611fd2573d6000803e3d6000fd5b505050506040513d601f19601f82011682018060405250810190611ff691906155c1565b6040516370a0823160e01b81523360048201526001600160a01b0391909116906370a082319060240160206040518083038186803b15801561203757600080fd5b505afa15801561204b573d6000803e3d6000fd5b505050506040513d601f19601f8201168201806040525081019061206f919061585b565b10156120bd5760405162461bcd60e51b815260206004820152601660248201527f3c206d696e206572633230207265717569726d656e74000000000000000000006044820152606401610370565b604051634941d71d60e11b81527f57901982635f8a470a3648422f8f769cf08dc2057489be5bf0099fcb44f7d43c60048201526001600160a01b03821690639283ae3a9060240160206040518083038186803b15801561211c57600080fd5b505afa158015612130573d6000803e3d6000fd5b505050506040513d601f19601f82011682018060405250810190612154919061585b565b6001141561235157604051634941d71d60e11b81527ff6d5f030b79ca78dad001b87a49239ec96be97e62d13501da94c9a392700509e60048201526001600160a01b03821690639283ae3a9060240160206040518083038186803b1580156121bb57600080fd5b505afa1580156121cf573d6000803e3d6000fd5b505050506040513d601f19601f820116820180604052508101906121f3919061585b565b60405163fd310d2960e01b81527f30091caaedd0994beeeeb3b7b5734296263687ae0126aaf79e5e0f8e5c1706b260048201526001600160a01b0383169063fd310d299060240160206040518083038186803b15801561225257600080fd5b505afa158015612266573d6000803e3d6000fd5b505050506040513d601f19601f8201168201806040525081019061228a91906155c1565b6040516370a0823160e01b81523360048201526001600160a01b0391909116906370a082319060240160206040518083038186803b1580156122cb57600080fd5b505afa1580156122df573d6000803e3d6000fd5b505050506040513d601f19601f82011682018060405250810190612303919061585b565b10156123515760405162461bcd60e51b815260206004820152601360248201527f3c20657263373231207265717569726d656e74000000000000000000000000006044820152606401610370565b604051634941d71d60e11b81527f57901982635f8a470a3648422f8f769cf08dc2057489be5bf0099fcb44f7d43c60048201526001600160a01b03821690639283ae3a9060240160206040518083038186803b1580156123b057600080fd5b505afa1580156123c4573d6000803e3d6000fd5b505050506040513d601f19601f820116820180604052508101906123e8919061585b565b600214156126ac57604051634941d71d60e11b81527ff6d5f030b79ca78dad001b87a49239ec96be97e62d13501da94c9a392700509e60048201526001600160a01b03821690639283ae3a9060240160206040518083038186803b15801561244f57600080fd5b505afa158015612463573d6000803e3d6000fd5b505050506040513d601f19601f82011682018060405250810190612487919061585b565b60405163fd310d2960e01b81527f30091caaedd0994beeeeb3b7b5734296263687ae0126aaf79e5e0f8e5c1706b260048201526001600160a01b0383169063fd310d299060240160206040518083038186803b1580156124e657600080fd5b505afa1580156124fa573d6000803e3d6000fd5b505050506040513d601f19601f8201168201806040525081019061251e91906155c1565b6001600160a01b031662fdd58e33846001600160a01b0316639283ae3a7fb34f156369747125f679c86d97f51861a5a2a9f927a1addd4354acbaaa88ae576040518263ffffffff1660e01b815260040161257a91815260200190565b60206040518083038186803b15801561259257600080fd5b505afa1580156125a6573d6000803e3d6000fd5b505050506040513d601f19601f820116820180604052508101906125ca919061585b565b6040517fffffffff0000000000000000000000000000000000000000000000000000000060e085901b1681526001600160a01b039092166004830152602482015260440160206040518083038186803b15801561262657600080fd5b505afa15801561263a573d6000803e3d6000fd5b505050506040513d601f19601f8201168201806040525081019061265e919061585b565b10156126ac5760405162461bcd60e51b815260206004820152601460248201527f3c2065726331313535207265717569726d656e740000000000000000000000006044820152606401610370565b604051634941d71d60e11b81527f57901982635f8a470a3648422f8f769cf08dc2057489be5bf0099fcb44f7d43c60048201526001600160a01b03821690639283ae3a9060240160206040518083038186803b15801561270b57600080fd5b505afa15801561271f573d6000803e3d6000fd5b505050506040513d601f19601f82011682018060405250810190612743919061585b565b600314156127a15761275581336104b6565b6127a15760405162461bcd60e51b815260206004820152601060248201527f6e6f7420696e2077686974656c697374000000000000000000000000000000006044820152606401610370565b6040516317ba7d8560e01b81527fe564b2da9fb62dadceed6d94ac5884ac5f464424e7be661d7d6181d49fa87b3f60048201526000906001600160a01b038716906317ba7d859060240160206040518083038186803b15801561280357600080fd5b505afa158015612817573d6000803e3d6000fd5b505050506040513d601f19601f8201168201806040525081019061283b91906155c1565b6040517f9a0242fc0000000000000000000000000000000000000000000000000000000081526001600160a01b03888116600483015291925090821690639a0242fc9060240160206040518083038186803b15801561289957600080fd5b505afa1580156128ad573d6000803e3d6000fd5b505050506040513d601f19601f820116820180604052508101906128d19190615624565b61291d5760405162461bcd60e51b815260206004820152601660248201527f556e446f6e652044616f7365742050726f706f73616c000000000000000000006044820152606401610370565b604085013515801590612937575060208501356040860135105b8061294e5750670de0b6b3a76400006103a0860135115b15612985576040517f24ffd71700000000000000000000000000000000000000000000000000000000815260040160405180910390fd5b61299761024086016102208701615608565b151560011480156129d9575060036129b761026087016102408801615742565b60038111156129d657634e487b7160e01b600052602160045260246000fd5b14155b8015612a0c575060006129f46102a0870161028088016155a5565b6001600160a01b03161480612a0c57506102c0850135155b15612a43576040517fb21a591a00000000000000000000000000000000000000000000000000000000815260040160405180910390fd5b612a5561030086016102e08701615608565b15156001148015612a9757506003612a7561032087016103008801615742565b6003811115612a9457634e487b7160e01b600052602160045260246000fd5b14155b8015612aca57506000612ab2610340870161032088016155a5565b6001600160a01b03161480612aca5750610360850135155b15612b01576040517fb95baa2e00000000000000000000000000000000000000000000000000000000815260040160405180910390fd5b612bd4604051806102a001604052806000815260200160006001600160a01b0316815260200160006001600160a01b0316815260200160006001600160a01b0316815260200160006001600160a01b0316815260200160006001600160a01b031681526020016000801916815260200160008152602001600081526020016000815260200160008152602001600081526020016000815260200160008152602001600081526020016000815260200160008152602001600081526020016000815260200160008152602001600081525090565b6040516317ba7d8560e01b81527f6f48e16963713446db50a1503860d8e1fc3c888da56a85afcaa6dc29503cc61060048201526001600160a01b038816906317ba7d859060240160206040518083038186803b158015612c3357600080fd5b505afa158015612c47573d6000803e3d6000fd5b505050506040513d601f19601f82011682018060405250810190612c6b91906155c1565b81602001906001600160a01b031690816001600160a01b031681525050866001600160a01b031663776d13c56040518163ffffffff1660e01b8152600401600060405180830381600087803b158015612cc357600080fd5b505af1158015612cd7573d6000803e3d6000fd5b50505050612d808760c01b612d5b896001600160a01b031663f1457aac6040518163ffffffff1660e01b815260040160206040518083038186803b158015612d1e57600080fd5b505afa158015612d32573d6000803e3d6000fd5b505050506040513d601f19601f82011682018060405250810190612d56919061585b565b614d30565b604051602001612d6c929190615a5e565b604051602081830303815290604052614e86565b60c0820152612d956080870160608801615608565b15612f0e576000612dac60a08801608089016155a5565b6001600160a01b03161480612ddb57506000612dd0610140880161012089016155a5565b6001600160a01b0316145b80612de8575060e0860135155b15612e1f576040517f1d0bec7000000000000000000000000000000000000000000000000000000000815260040160405180910390fd5b670de0b6b3a7640000612e36610160880188615dbc565b608001351180612e645750612e4f610160870187615dbc565b35612e5e610160880188615dbc565b60200135105b80612e905750612e78610160870187615dbc565b60200135612e8a610160880188615dbc565b60400135105b15612ec7576040517ff224d7d300000000000000000000000000000000000000000000000000000000815260040160405180910390fd5b670de0b6b3a76400006103808701351115612f0e576040517f5190664000000000000000000000000000000000000000000000000000000000815260040160405180910390fd5b60c08101516040517fb73dc38900000000000000000000000000000000000000000000000000000000815260048101919091526001600160a01b0388169063b73dc38990602401600060405180830381600087803b158015612f6f57600080fd5b505af1158015612f83573d6000803e3d6000fd5b5050604051634941d71d60e11b81527f6e9fd67c3f2ca4e2b4e4b45b33b985dc3a1bffcadea24d12440a5901f72217b56004820152600092506001600160a01b038a169150639283ae3a9060240160206040518083038186803b158015612fe957600080fd5b505afa158015612ffd573d6000803e3d6000fd5b505050506040513d601f19601f82011682018060405250810190613021919061585b565b1561302d576001613030565b60005b604080516101008101825233815281516101808101909252919250602080830191908190613060908c018c6155a5565b6001600160a01b031681526020018a6000016020013581526020018a600001604001358152602001600081526020018a60000160600160208101906130a59190615608565b151581526020016130bc60a08c0160808d016155a5565b6001600160a01b0316815260a0808c0135602083015260c08c0135604083015260e08c013560608301526101008c01356080830152016131046101408c016101208d016155a5565b6001600160a01b031681526020016131246101608c016101408d016155a5565b6001600160a01b031681525081526020016040518061012001604052808a8061016001906131529190615dbc565b3581526020016131666101608c018c615dbc565b60209081013582520161317d6101608c018c615dbc565b6040013581526020016131946101608c018c615dbc565b6060013581526020016131ab6101608c018c615dbc565b6080013581526020016131c26101608c018c615dbc565b6131d39060c081019060a001615608565b151581526020016131e86101608c018c615dbc565b6131f99060e081019060c0016155a5565b6001600160a01b031681526020016132156101608c018c615dbc565b6132239060e0810190615d77565b8080601f01602080910402602001604051908101604052809392919081815260200183838082843760009201919091525050509082525060200161326b6101608c018c615dbc565b61327a90610100810190615d77565b8080601f01602080910402602001604051908101604052809392919081815260200183838082843760009201919091525050509152508152604080516101008101909152602090910190806132d76101a08c016101808d0161575e565b60018111156132f657634e487b7160e01b600052602160045260246000fd5b81526101a08b013560208201526101c08b013560408201526101e08b013560608201526102008b0135608082015260a0016133396102408c016102208d01615608565b15158152602001613353368c90038c016102408d016157b6565b815260200161336b368c90038c016102e08d01615827565b905281526040805180820182526103808b013581526103a08b01356020828101919091528301520160018360018111156133b557634e487b7160e01b600052602160045260246000fd5b146133c15760006133c3565b425b815260200160018360018111156133ea57634e487b7160e01b600052602160045260246000fd5b146133f6576000613497565b604051634941d71d60e11b81527fee63cc82ca6990a4cc5fa3ca10d8a5281ae1758a8d8f22892c4badb7cacd111e60048201526001600160a01b038b1690639283ae3a9060240160206040518083038186803b15801561345557600080fd5b505afa158015613469573d6000803e3d6000fd5b505050506040513d601f19601f8201168201806040525081019061348d919061585b565b6134979042615e30565b815260200160018360018111156134be57634e487b7160e01b600052602160045260246000fd5b146134ca5760016134cd565b60005b60048111156134ec57634e487b7160e01b600052602160045260246000fd5b8152506000808a6001600160a01b03166001600160a01b0316815260200190815260200160002060008460c00151815260200190815260200160002060008201518160000160006101000a8154816001600160a01b0302191690836001600160a01b0316021790555060208201518160010160008201518160000160006101000a8154816001600160a01b0302191690836001600160a01b0316021790555060208201518160010155604082015181600201556060820151816003015560808201518160040160006101000a81548160ff02191690831515021790555060a08201518160040160016101000a8154816001600160a01b0302191690836001600160a01b0316021790555060c0820151816005015560e08201518160060155610100820151816007015561012082015181600801556101408201518160090160006101000a8154816001600160a01b0302191690836001600160a01b0316021790555061016082015181600a0160006101000a8154816001600160a01b0302191690836001600160a01b031602179055505050604082015181600c01600082015181600001556020820151816001015560408201518160020155606082015181600301556080820151816004015560a08201518160050160006101000a81548160ff02191690831515021790555060c08201518160050160016101000a8154816001600160a01b0302191690836001600160a01b0316021790555060e0820151816006019080519060200190613722929190615302565b50610100820151805161373f916007840191602090910190615302565b50505060608201518051601483018054909190829060ff19166001838181111561377957634e487b7160e01b600052602160045260246000fd5b021790555060208201516001808301919091556040830151600283015560608301516003808401919091556080840151600484015560a084015160058401805491151560ff1992831617905560c085015180516006860180549295909491938593169184908111156137fb57634e487b7160e01b600052602160045260246000fd5b0217905550602082810151825460408501517fffffffffffffff000000000000000000000000000000000000000000000000ff90911661010063ffffffff90931683027fffffffffffffff0000000000000000000000000000000000000000ffffffffff1617650100000000006001600160a01b03909216919091021783556060840151600184015560809093015160029092019190915560e0840151805160098501805460ff1981169215159283178255938301519294909384927fffffffffffffffffffffffffffffffffffffffffffffffffffffffffffff00009091167fffffffffffffffffffffffffffffffffffffffffffffffffffffffffffff00ff909116179083600381111561392157634e487b7160e01b600052602160045260246000fd5b0217905550604082015181546001600160a01b0390911662010000027fffffffffffffffffffff0000000000000000000000000000000000000000ffff90911617815560608201516001808301919091556080928301516002909201919091559085015180516020808701919091550151602185015560a0850151602285015560c0850151602385015560e0850151602485018054919450925060ff1916908360048111156139e057634e487b7160e01b600052602160045260246000fd5b0217905550600391506139f09050565b613a0261032089016103008a01615742565b6003811115613a2157634e487b7160e01b600052602160045260246000fd5b1415613a775760c0820151613a77908990613a406103c08b018b615d28565b80806020026020016040519081016040528093929190818152602001838360200280828437600092019190915250614ea292505050565b60208083015160c084015160408051938401815260008452517f2b0974d00000000000000000000000000000000000000000000000000000000081526001600160a01b0390921692632b0974d092613ad5928d929091600401615cf7565b600060405180830381600087803b158015613aef57600080fd5b505af1158015613b03573d6000803e3d6000fd5b5050505060c08201516040516317ba7d8560e01b81527f6f48e16963713446db50a1503860d8e1fc3c888da56a85afcaa6dc29503cc61060048201526001600160a01b038a169163815a2bf49183906317ba7d859060240160206040518083038186803b158015613b7357600080fd5b505afa158015613b87573d6000803e3d6000fd5b505050506040513d601f19601f82011682018060405250810190613bab91906155c1565b6040517fffffffff0000000000000000000000000000000000000000000000000000000060e085901b16815260048101929092526001600160a01b03166024820152604401600060405180830381600087803b158015613c0a57600080fd5b505af1158015613c1e573d6000803e3d6000fd5b50506040517f593e96b60000000000000000000000000000000000000000000000000000000081527fb12a3847d47fefceb164b75823af125f9aa82b76938df0ddf08c04cd314ba37c60048201526001600160a01b038b16925063593e96b6915060240160206040518083038186803b158015613c9a57600080fd5b505afa158015613cae573d6000803e3d6000fd5b505050506040513d601f19601f82011682018060405250810190613cd291906155c1565b6001600160a01b031660408301526000816001811115613d0257634e487b7160e01b600052602160045260246000fd5b1415613d715781604001516001600160a01b031663b6d26e388360c001516040518263ffffffff1660e01b8152600401613d3e91815260200190565b600060405180830381600087803b158015613d5857600080fd5b505af1158015613d6c573d6000803e3d6000fd5b505050505b60c08201516001600160a01b0389166000908152600360205260409020613d9791614f7d565b5060c0820151604080516001600160a01b038b16815260208101929092523382820152517f1dfc244cab0c3cc88645f305adf7c51524a495c4eca07e193a69f39152da8fb79181900360600190a1505050506109ef8282614d25565b816000613dff826148d9565b6001600160a01b03851660008181526020818152604080832088845290915280822090516317ba7d8560e01b81527f43f8439a5cef099d0d9a92b15a64e34ff49963bb29d65f63204eda6591b810a16004820152939450929091906317ba7d859060240160206040518083038186803b158015613e7b57600080fd5b505afa158015613e8f573d6000803e3d6000fd5b505050506040513d601f19601f82011682018060405250810190613eb391906155c1565b600583015460248401546040517f7132e8a10000000000000000000000000000000000000000000000000000000081529293506001600160a01b0380851693637132e8a193613f16938c938c936101009093041691339160ff1690600401615cc3565b602060405180830381600087803b158015613f3057600080fd5b505af1158015613f44573d6000803e3d6000fd5b505050506040513d601f19601f82011682018060405250810190613f689190615624565b5050506109ef8282614d25565b8143816001600160a01b031663b21634826040518163ffffffff1660e01b815260040160206040518083038186803b158015613fb057600080fd5b505afa158015613fc4573d6000803e3d6000fd5b505050506040513d601f19601f82011682018060405250810190613fe8919061585b565b14156140365760405162461bcd60e51b815260206004820152601060248201527f7265656e7472616e6379206775617264000000000000000000000000000000006044820152606401610370565b806001600160a01b03166310fdb0a26040518163ffffffff1660e01b8152600401600060405180830381600087803b15801561407157600080fd5b505af1158015614085573d6000803e3d6000fd5b5050505082614093816147b5565b6001600160a01b0316336001600160a01b0316146140f35760405162461bcd60e51b815260206004820152600b60248201527f4163636573732044656e790000000000000000000000000000000000000000006044820152606401610370565b670de0b6b3a76400008310801561410a5750600083115b61411357600080fd5b8260048190555050806001600160a01b031663d4f7af436040518163ffffffff1660e01b8152600401600060405180830381600087803b15801561049957600080fd5b6000602081815292815260408082208452918152819020805482516101808101845260018301546001600160a01b0390811682526002840154828701526003840154828601526004840154606080840191909152600585015460ff808216151560808087019190915261010092839004851660a080880191909152600689015460c08089019190915260078a015460e0808a019190915260088b01548987015260098b0154610120808b0191909152600a8c015489166101408b0152600b8c015489166101608b01528c519081018d52600c8c0180548252600d8d01549e82019e909e52600e8c01549c81019c909c52600f8b0154968c019690965260108a0154928b019290925260118901549283161515908a015291900483169087015260128501805492909416969295939084019161429090615ebe565b80601f01602080910402602001604051908101604052809291908181526020018280546142bc90615ebe565b80156143095780601f106142de57610100808354040283529160200191614309565b820191906000526020600020905b8154815290600101906020018083116142ec57829003601f168201915b5050505050815260200160078201805461432290615ebe565b80601f016020809104026020016040519081016040528092919081815260200182805461434e90615ebe565b801561439b5780601f106143705761010080835404028352916020019161439b565b820191906000526020600020905b81548152906001019060200180831161437e57829003601f168201915b50505091909252505060408051610100810190915260148401805493949391925090829060ff1660018111156143e157634e487b7160e01b600052602160045260246000fd5b600181111561440057634e487b7160e01b600052602160045260246000fd5b8152602001600182015481526020016002820154815260200160038201548152602001600482015481526020016005820160009054906101000a900460ff16151515158152602001600682016040518060a00160405290816000820160009054906101000a900460ff16600381111561448957634e487b7160e01b600052602160045260246000fd5b60038111156144a857634e487b7160e01b600052602160045260246000fd5b8152815461010080820463ffffffff16602080850191909152650100000000009092046001600160a01b031660408085019190915260018501546060850152600290940154608090930192909252928452815160a0810190925260098501805460ff80821615158552958501959394919391850192900416600381111561453f57634e487b7160e01b600052602160045260246000fd5b600381111561455e57634e487b7160e01b600052602160045260246000fd5b815281546201000090046001600160a01b03166020808301919091526001830154604080840191909152600290930154606090920191909152919092528151808301909252848101548252602185015490820152602284015460238501546024909501549394919390925060ff1688565b6040516317ba7d8560e01b81527fff9379b98b93eb3bd1fac62fd2258a7955d70d2d5279c40064145b6c9646df3760048201526001600160a01b038316906317ba7d859060240160206040518083038186803b15801561462e57600080fd5b505afa158015614642573d6000803e3d6000fd5b505050506040513d601f19601f8201168201806040525081019061466691906155c1565b6001600160a01b0316336001600160a01b0316148061471057506040517fa230c5240000000000000000000000000000000000000000000000000000000081523360048201526001600160a01b0383169063a230c5249060240160206040518083038186803b1580156146d857600080fd5b505afa1580156146ec573d6000803e3d6000fd5b505050506040513d601f19601f820116820180604052508101906147109190615624565b61475c5760405162461bcd60e51b815260206004820152600760248201527f21616363657373000000000000000000000000000000000000000000000000006044820152606401610370565b6001600160a01b038216600090815260026020526040902061477e9082614898565b6147a4576001600160a01b03821660009081526002602052604090206109f19082614f89565b5050565b606060006104d883614f9e565b6000816001600160a01b03166348f7f2a36040518163ffffffff1660e01b815260040160206040518083038186803b1580156147f057600080fd5b505afa158015614804573d6000803e3d6000fd5b505050506040513d601f19601f8201168201806040525081019061482891906155c1565b6001600160a01b0316638da5cb5b6040518163ffffffff1660e01b815260040160206040518083038186803b15801561486057600080fd5b505afa158015614874573d6000803e3d6000fd5b505050506040513d601f19601f820116820180604052508101906102ad91906155c1565b6001600160a01b038116600090815260018301602052604081205415156104d8565b60006102ad825490565b60006104d8836001600160a01b038416614ffa565b6040805160808101825260008082526020820181905291810182905260608101919091525a81600001818152505043826001600160a01b031663b21634826040518163ffffffff1660e01b815260040160206040518083038186803b15801561494157600080fd5b505afa158015614955573d6000803e3d6000fd5b505050506040513d601f19601f82011682018060405250810190614979919061585b565b14156149c75760405162461bcd60e51b815260206004820152601060248201527f7265656e7472616e6379206775617264000000000000000000000000000000006044820152606401610370565b816001600160a01b03166310fdb0a26040518163ffffffff1660e01b8152600401600060405180830381600087803b158015614a0257600080fd5b505af1158015614a16573d6000803e3d6000fd5b50506040517f72c6838f0000000000000000000000000000000000000000000000000000000081527f1f2fd42ad6a6cacd573c4b212beb7a4e2499ad45d742a65337097f130e71daff6004820152600092506001600160a01b03851691506372c6838f9060240160206040518083038186803b158015614a9557600080fd5b505afa158015614aa9573d6000803e3d6000fd5b505050506040513d601f19601f82011682018060405250810190614acd91906155c1565b90506001600160a01b038116614ae95760006020830152614b9e565b6001600160a01b038181166060840181905283516040517f43a8a3f1000000000000000000000000000000000000000000000000000000008152928616600484015260248301526000918291906343a8a3f190604401604080518083038186803b158015614b5657600080fd5b505afa158015614b6a573d6000803e3d6000fd5b505050506040513d601f19601f82011682018060405250810190614b8e9190615640565b9015156020860152604085015250505b50919050565b6040516317ba7d8560e01b81527f43f8439a5cef099d0d9a92b15a64e34ff49963bb29d65f63204eda6591b810a1600482015260009081906001600160a01b038816906317ba7d859060240160206040518083038186803b158015614c0857600080fd5b505afa158015614c1c573d6000803e3d6000fd5b505050506040513d601f19601f82011682018060405250810190614c4091906155c1565b6040517fd705e0cd000000000000000000000000000000000000000000000000000000008152600481018690526001600160a01b03898116602483015288811660448301528781166064830152608482018690529192509082169063d705e0cd9060a401602060405180830381600087803b158015614cbe57600080fd5b505af1158015614cd2573d6000803e3d6000fd5b505050506040513d601f19601f82011682018060405250810190614cf69190615624565b979650505050505050565b600081815260018301602052604081205415156104d8565b60006104d88383614ffa565b6147a4828233615117565b606081614d7057505060408051808201909152600181527f3000000000000000000000000000000000000000000000000000000000000000602082015290565b8160005b8115614d9a5780614d8481615ef3565b9150614d939050600a83615e48565b9150614d74565b60008167ffffffffffffffff811115614dc357634e487b7160e01b600052604160045260246000fd5b6040519080825280601f01601f191660200182016040528015614ded576020820181803683370190505b5090505b8415614e7e57614e02600183615e7b565b9150614e0f600a86615f2e565b614e1a906030615e30565b60f81b818381518110614e3d57634e487b7160e01b600052603260045260246000fd5b60200101907effffffffffffffffffffffffffffffffffffffffffffffffffffffffffffff1916908160001a905350614e77600a86615e48565b9450614df1565b949350505050565b6000815160001415614e9a57506000919050565b506020015190565b60005b81518160ff1610156109ef57614f0b828260ff1681518110614ed757634e487b7160e01b600052603260045260246000fd5b6020908102919091018101516001600160a01b03871660009081526001835260408082208883529093529190912090614898565b614f6b57614f69828260ff1681518110614f3557634e487b7160e01b600052603260045260246000fd5b6020908102919091018101516001600160a01b03871660009081526001835260408082208883529093529190912090614f89565b505b80614f7581615f0e565b915050614ea5565b60006104d88383615208565b60006104d8836001600160a01b038416615208565b606081600001805480602002602001604051908101604052809291908181526020018280548015614fee57602002820191906000526020600020905b815481526020019060010190808311614fda575b50505050509050919050565b6000818152600183016020526040812054801561510d57600061501e600183615e7b565b855490915060009061503290600190615e7b565b90508181146150b357600086600001828154811061506057634e487b7160e01b600052603260045260246000fd5b906000526020600020015490508087600001848154811061509157634e487b7160e01b600052603260045260246000fd5b6000918252602080832090910192909255918252600188019052604090208390555b85548690806150d257634e487b7160e01b600052603160045260246000fd5b6001900381819060005260206000200160009055905585600101600086815260200190815260200160002060009055600193505050506102ad565b60009150506102ad565b8160200151156151cd5781606001516001600160a01b0316635e5eb01384835a86516151439190615e7b565b60408088015190517fffffffff0000000000000000000000000000000000000000000000000000000060e087901b1681526001600160a01b03948516600482015293909216602484015260448301526064820152608401600060405180830381600087803b1580156151b457600080fd5b505af11580156151c8573d6000803e3d6000fd5b505050505b826001600160a01b031663d4f7af436040518163ffffffff1660e01b8152600401600060405180830381600087803b15801561049957600080fd5b600081815260018301602052604081205461524f575081546001818101845560008481526020808220909301849055845484825282860190935260409020919091556102ad565b5060006102ad565b60405180610280016040528061526b615386565b815260006020820181905260408201819052606082018190526080820181905260a0820181905260c0820181905260e08201819052610100820181905261012082018190526101408201819052610160820181905261018082018190526101a082018190526101c082018190526101e082018190526102008201819052610220820181905261024082018190526102609091015290565b82805461530e90615ebe565b90600052602060002090601f0160209004810192826153305760008555615376565b82601f1061534957805160ff1916838001178555615376565b82800160010185558215615376579182015b8281111561537657825182559160200191906001019061535b565b506153829291506154f3565b5090565b60405180610100016040528060006001600160a01b0316815260200161542c60405180610180016040528060006001600160a01b0316815260200160008152602001600081526020016000815260200160001515815260200160006001600160a01b031681526020016000815260200160008152602001600081526020016000815260200160006001600160a01b0316815260200160006001600160a01b031681525090565b815260200161548b604051806101200160405280600081526020016000815260200160008152602001600081526020016000815260200160001515815260200160006001600160a01b0316815260200160608152602001606081525090565b8152602001615498615508565b81526020016154ba604051806040016040528060008152602001600081525090565b81526020016000815260200160008152602001600060048111156154ee57634e487b7160e01b600052602160045260246000fd5b905290565b5b8082111561538257600081556001016154f4565b6040805161010081019091528060008152602001600081526020016000815260200160008152602001600081526020016000151581526020016155746040805160a081019091528060008152600060208201819052604082018190526060820181905260809091015290565b81526040805160a0810182526000808252602082810182905292820181905260608201819052608082015291015290565b6000602082840312156155b6578081fd5b81356104d881615f97565b6000602082840312156155d2578081fd5b81516104d881615f97565b600080604083850312156155ef578081fd5b82356155fa81615f97565b946020939093013593505050565b600060208284031215615619578081fd5b81356104d881615fac565b600060208284031215615635578081fd5b81516104d881615fac565b60008060408385031215615652578182fd5b825161565d81615fac565b6020939093015192949293505050565b6000806040838503121561567f578182fd5b823561568a81615f97565b9150602083013561569a81615f97565b809150509250929050565b600080604083850312156155ef578182fd5b6000806000606084860312156156cb578081fd5b83356156d681615f97565b92506020840135915060408401356156ed81615f97565b809150509250925092565b6000806040838503121561570a578182fd5b823561571581615f97565b9150602083013567ffffffffffffffff811115615730578182fd5b83016103e0818603121561569a578182fd5b600060208284031215615753578081fd5b81356104d881615fba565b60006020828403121561576f578081fd5b8135600281106104d8578182fd5b600080600060608486031215615791578081fd5b83516006811061579f578182fd5b602085015160409095015190969495509392505050565b600060a082840312156157c7578081fd5b6157cf615df9565b82356157da81615fba565b8152602083013563ffffffff811681146157f2578283fd5b6020820152604083013561580581615f97565b6040820152606083810135908201526080928301359281019290925250919050565b600060a08284031215615838578081fd5b615840615df9565b823561584b81615fac565b815260208301356157f281615fba565b60006020828403121561586c578081fd5b5051919050565b6000815180845261588b816020860160208601615e92565b601f017fffffffffffffffffffffffffffffffffffffffffffffffffffffffffffffffe0169290920160200192915050565b600581106158cd576158cd615f6e565b9052565b80516158dc81615f84565b825260208181015163ffffffff16908301526040808201516001600160a01b03169083015260608082015190830152608090810151910152565b80516002811061592857615928615f6e565b808352506020810151602083015260408101516040830152606081015160608301526080810151608083015260a0810151151560a083015260c081015161597260c08401826158d1565b5060e08101516109f1610160840182805115158252602081015161599581615f84565b60208301526040818101516001600160a01b03169083015260608082015190830152608090810151910152565b6000610120825184526020830151602085015260408301516040850152606083015160608501526080830151608085015260a0830151615a0660a086018215159052565b5060c0830151615a2160c08601826001600160a01b03169052565b5060e08301518160e0860152615a3982860182615873565b9150506101008084015185830382870152615a548382615873565b9695505050505050565b7fffffffffffffffff000000000000000000000000000000000000000000000000831681527f496e766573746d656e7423000000000000000000000000000000000000000000600882015260008251615abe816013850160208701615e92565b919091016013019392505050565b6001600160a01b03841681526020810183905260608101614e7e60408301846158bd565b6001600160a01b0389811682528851166020820152600061046060208a0151604084015260408a0151606084015260608a0151608084015260808a0151615b3b60a085018215159052565b5060a08a01516001600160a01b03811660c08501525060c08a015160e0848101919091528a0151610100808501919091528a0151610120808501919091528a0151610140808501919091528a0151610160615ba0818601836001600160a01b03169052565b8b01516001600160a01b0316610180850152506101a08301819052615bc78184018a6159c2565b915050615bd86101c0830188615916565b85516103c083015260208601516103e08301528461040083015283610420830152615c076104408301846158bd565b9998505050505050505050565b6020808252825182820181905260009190848201906040850190845b81811015615c555783516001600160a01b031683529284019291840191600101615c30565b50909695505050505050565b6000610120820190506001600160a01b03808816835260208188168185015281871660408501528560608501526080840191508460005b6005811015615cb557815184529282019290820190600101615c98565b505050509695505050505050565b6001600160a01b0386811682526020820186905284811660408301528316606082015260a08101615a5460808301846158bd565b6001600160a01b0384168152826020820152606060408201526000615d1f6060830184615873565b95945050505050565b6000808335601e19843603018112615d3e578283fd5b83018035915067ffffffffffffffff821115615d58578283fd5b6020019150600581901b3603821315615d7057600080fd5b9250929050565b6000808335601e19843603018112615d8d578283fd5b83018035915067ffffffffffffffff821115615da7578283fd5b602001915036819003821315615d7057600080fd5b600082357ffffffffffffffffffffffffffffffffffffffffffffffffffffffffffffffee1833603018112615def578182fd5b9190910192915050565b60405160a0810167ffffffffffffffff81118282101715615e2a57634e487b7160e01b600052604160045260246000fd5b60405290565b60008219821115615e4357615e43615f42565b500190565b600082615e5757615e57615f58565b500490565b6000816000190483118215151615615e7657615e76615f42565b500290565b600082821015615e8d57615e8d615f42565b500390565b60005b83811015615ead578181015183820152602001615e95565b838111156109ef5750506000910152565b600181811c90821680615ed257607f821691505b60208210811415614b9e57634e487b7160e01b600052602260045260246000fd5b6000600019821415615f0757615f07615f42565b5060010190565b600060ff821660ff811415615f2557615f25615f42565b60010192915050565b600082615f3d57615f3d615f58565b500690565b634e487b7160e01b600052601160045260246000fd5b634e487b7160e01b600052601260045260246000fd5b634e487b7160e01b600052602160045260246000fd5b60048110615f9457615f94615f6e565b50565b6001600160a01b0381168114615f9457600080fd5b8015158114615f9457600080fd5b60048110615f9457600080fdfea26469706673582212208479865d526f09959dbf0e47f7f18f188866a5c8177e7339d0f2eb4e07f2091364736f6c63430008040033",
  "linkReferences": {},
  "deployedLinkReferences": {}
}