{
  "_format": "hh-sol-artifact-1",
  "contractName": "FlexAllocationAdapterContract",
  "sourceName": "contracts/flex/adatpers/FlexAllocation.sol",
  "abi": [
    {
      "anonymous": false,
      "inputs": [
        {
          "indexed": false,
          "internalType": "bytes32",
          "name": "proposalId",
          "type": "bytes32"
        },
        {
          "indexed": false,
          "internalType": "address",
          "name": "daoAddr",
          "type": "address"
        },
        {
          "indexed": false,
          "internalType": "address",
          "name": "proposer",
          "type": "address"
        },
        {
          "indexed": false,
          "internalType": "address[]",
          "name": "lps",
          "type": "address[]"
        }
      ],
      "name": "AllocateToken",
      "type": "event"
    },
    {
      "anonymous": false,
      "inputs": [
        {
          "indexed": false,
          "internalType": "uint256",
          "name": "gpAllocationBonusRadio",
          "type": "uint256"
        },
        {
          "indexed": false,
          "internalType": "uint256",
          "name": "riceStakeAllocationRadio",
          "type": "uint256"
        }
      ],
      "name": "ConfigureDao",
      "type": "event"
    },
    {
      "inputs": [
        {
          "internalType": "contract DaoRegistry",
          "name": "dao",
          "type": "address"
        },
        {
          "internalType": "address",
          "name": "tokenAddress",
          "type": "address"
        },
        {
          "internalType": "address",
          "name": "proposerAddr",
          "type": "address"
        },
        {
          "internalType": "bytes32",
          "name": "proposalId",
          "type": "bytes32"
        },
        {
          "internalType": "uint256[5]",
          "name": "uint256Args",
          "type": "uint256[5]"
        }
      ],
      "name": "allocateProjectToken",
      "outputs": [],
      "stateMutability": "nonpayable",
      "type": "function"
    },
    {
      "inputs": [
        {
          "internalType": "contract DaoRegistry",
          "name": "dao",
          "type": "address"
        },
        {
          "internalType": "uint256",
          "name": "gpAllocationBonusRadio",
          "type": "uint256"
        },
        {
          "internalType": "uint256",
          "name": "riceStakeAllocationRadio",
          "type": "uint256"
        }
      ],
      "name": "configureDao",
      "outputs": [],
      "stateMutability": "nonpayable",
      "type": "function"
    },
    {
      "inputs": [
        {
          "internalType": "contract DaoRegistry",
          "name": "dao",
          "type": "address"
        },
        {
          "internalType": "bytes32",
          "name": "proposalId",
          "type": "bytes32"
        },
        {
          "internalType": "address",
          "name": "investor",
          "type": "address"
        }
      ],
      "name": "getInvestmentRewards",
      "outputs": [
        {
          "internalType": "uint256",
          "name": "",
          "type": "uint256"
        }
      ],
      "stateMutability": "view",
      "type": "function"
    },
    {
      "inputs": [
        {
          "internalType": "contract DaoRegistry",
          "name": "dao",
          "type": "address"
        },
        {
          "internalType": "bytes32",
          "name": "proposalId",
          "type": "bytes32"
        },
        {
          "internalType": "address",
          "name": "account",
          "type": "address"
        }
      ],
      "name": "getNoEscrowInvestmentShare",
      "outputs": [
        {
          "internalType": "uint256",
          "name": "",
          "type": "uint256"
        }
      ],
      "stateMutability": "view",
      "type": "function"
    },
    {
      "inputs": [
        {
          "internalType": "contract DaoRegistry",
          "name": "dao",
          "type": "address"
        },
        {
          "internalType": "bytes32",
          "name": "proposalId",
          "type": "bytes32"
        },
        {
          "internalType": "uint256",
          "name": "tokenAmount",
          "type": "uint256"
        }
      ],
      "name": "getProposerBonus",
      "outputs": [
        {
          "internalType": "uint256",
          "name": "",
          "type": "uint256"
        }
      ],
      "stateMutability": "view",
      "type": "function"
    },
    {
      "inputs": [
        {
          "internalType": "contract DaoRegistry",
          "name": "dao",
          "type": "address"
        },
        {
          "internalType": "bytes32",
          "name": "proposalId",
          "type": "bytes32"
        },
        {
          "internalType": "address",
          "name": "recipient",
          "type": "address"
        }
      ],
      "name": "ifEligible",
      "outputs": [
        {
          "internalType": "bool",
          "name": "",
          "type": "bool"
        }
      ],
      "stateMutability": "view",
      "type": "function"
    },
    {
      "inputs": [
        {
          "internalType": "contract DaoRegistry",
          "name": "dao",
          "type": "address"
        },
        {
          "internalType": "bytes32",
          "name": "proposalId",
          "type": "bytes32"
        },
        {
          "internalType": "address",
          "name": "recepient",
          "type": "address"
        }
      ],
      "name": "isNFTMinted",
      "outputs": [
        {
          "internalType": "bool",
          "name": "",
          "type": "bool"
        }
      ],
      "stateMutability": "view",
      "type": "function"
    },
    {
      "inputs": [
        {
          "internalType": "contract DaoRegistry",
          "name": "dao",
          "type": "address"
        },
        {
          "internalType": "bytes32",
          "name": "proposalId",
          "type": "bytes32"
        },
        {
          "internalType": "address",
          "name": "recepient",
          "type": "address"
        }
      ],
      "name": "isVestCreated",
      "outputs": [
        {
          "internalType": "bool",
          "name": "",
          "type": "bool"
        }
      ],
      "stateMutability": "view",
      "type": "function"
    },
    {
      "inputs": [
        {
          "internalType": "contract DaoRegistry",
          "name": "dao",
          "type": "address"
        },
        {
          "internalType": "bytes32",
          "name": "proposalId",
          "type": "bytes32"
        },
        {
          "internalType": "address",
          "name": "recipient",
          "type": "address"
        }
      ],
      "name": "nftMinted",
      "outputs": [
        {
          "internalType": "bool",
          "name": "",
          "type": "bool"
        }
      ],
      "stateMutability": "nonpayable",
      "type": "function"
    },
    {
      "inputs": [
        {
          "internalType": "contract DaoRegistry",
          "name": "dao",
          "type": "address"
        },
        {
          "internalType": "bytes32",
          "name": "proposalId",
          "type": "bytes32"
        },
        {
          "internalType": "address",
          "name": "recipient",
          "type": "address"
        }
      ],
      "name": "vestCreated",
      "outputs": [
        {
          "internalType": "bool",
          "name": "",
          "type": "bool"
        }
      ],
      "stateMutability": "nonpayable",
      "type": "function"
    },
    {
      "inputs": [
        {
          "internalType": "address",
          "name": "",
          "type": "address"
        },
        {
          "internalType": "bytes32",
          "name": "",
          "type": "bytes32"
        },
        {
          "internalType": "address",
          "name": "",
          "type": "address"
        }
      ],
      "name": "vestingInfos",
      "outputs": [
        {
          "internalType": "uint256",
          "name": "tokenAmount",
          "type": "uint256"
        },
        {
          "internalType": "bool",
          "name": "created",
          "type": "bool"
        }
      ],
      "stateMutability": "view",
      "type": "function"
    }
  ],
  "bytecode": "0x608060405234801561001057600080fd5b50612a3d806100206000396000f3fe608060405234801561001057600080fd5b50600436106100c95760003560e01c80635d5cdb32116100815780636da0ce361161005b5780636da0ce36146101b5578063a60e68fe146101c8578063cb22a226146101db57600080fd5b80635d5cdb321461018d578063620ee042146101a25780636cb4e9eb146100ce57600080fd5b8063309f0118116100b2578063309f011814610146578063560dbdd714610159578063595857981461016c57600080fd5b806301e6aa02146100ce5780631190b0a6146100f6575b600080fd5b6100e16100dc366004612795565b6101ee565b60405190151581526020015b60405180910390f35b610131610104366004612471565b60026020908152600093845260408085208252928452828420905282529020805460019091015460ff1682565b604080519283529015156020830152016100ed565b6100e1610154366004612795565b61022a565b6100e1610167366004612795565b6104fb565b61017f61017a366004612795565b610662565b6040519081526020016100ed565b6101a061019b3660046126e9565b610b59565b005b6100e16101b0366004612795565b611804565b61017f6101c33660046127a9565b611924565b6101a06101d63660046127a9565b611aa0565b61017f6101e9366004612795565b611b93565b6001600160a01b03808416600090815260026020908152604080832086845282528083209385168352929052206001015460ff165b9392505050565b604051632c9f4b5b60e11b81527fb12a3847d47fefceb164b75823af125f9aa82b76938df0ddf08c04cd314ba37c600482015260009081906001600160a01b0386169063593e96b69060240160206040518083038186803b15801561028e57600080fd5b505afa1580156102a2573d6000803e3d6000fd5b505050506040513d601f19601f820116820180604052508101906102c69190612455565b6040516317ba7d8560e01b81527f7a8526bca00f0726b2fab8c3bfd5b00bfa84d07f111e48263b13de605eefcdda60048201529091506000906001600160a01b038716906317ba7d859060240160206040518083038186803b15801561032b57600080fd5b505afa15801561033f573d6000803e3d6000fd5b505050506040513d601f19601f820116820180604052508101906103639190612455565b604051632fd2666560e21b81526001600160a01b0388811660048301526024820188905291925060009183169063bf4999949060440160006040518083038186803b1580156103b157600080fd5b505afa1580156103c5573d6000803e3d6000fd5b505050506040513d6000823e601f3d908101601f191682016040526103ed91908101906124b2565b98506000975050506001600160a01b0389169450639e3f2d9093508b92508a915061041b9050600187612992565b6040516001600160e01b031960e086901b16815260048101939093526001600160a01b039091166024830152604482015260640160206040518083038186803b15801561046757600080fd5b505afa15801561047b573d6000803e3d6000fd5b505050506040513d601f19601f8201168201806040525081019061049f91906127f9565b905060008111806104dc57506001600160a01b0380891660009081526002602090815260408083208b84528252808320938a168352929052205415155b156104ee576001945050505050610223565b6000945050505050610223565b6040516317ba7d8560e01b81527f3c11b775c25636cc8a8e9190d176c127f201e732c93f4d80e9e1d8e36c9d7ecd60048201526000906001600160a01b038516906317ba7d859060240160206040518083038186803b15801561055d57600080fd5b505afa158015610571573d6000803e3d6000fd5b505050506040513d601f19601f820116820180604052508101906105959190612455565b6001600160a01b0316336001600160a01b0316146106205760405162461bcd60e51b815260206004820152602b60248201527f416c6c6f636174696f6e416461707465723a73747265616d437265617465643a60448201527f4163636573732064656e7900000000000000000000000000000000000000000060648201526084015b60405180910390fd5b506001600160a01b039283166000908152600260209081526040808320948352938152838220929094168152925290206001908101805460ff19168217905590565b604051632c9f4b5b60e11b81527fb12a3847d47fefceb164b75823af125f9aa82b76938df0ddf08c04cd314ba37c600482015260009081906001600160a01b0386169063593e96b69060240160206040518083038186803b1580156106c657600080fd5b505afa1580156106da573d6000803e3d6000fd5b505050506040513d601f19601f820116820180604052508101906106fe9190612455565b6040516317ba7d8560e01b81527f7a8526bca00f0726b2fab8c3bfd5b00bfa84d07f111e48263b13de605eefcdda60048201529091506000906001600160a01b038716906317ba7d859060240160206040518083038186803b15801561076357600080fd5b505afa158015610777573d6000803e3d6000fd5b505050506040513d601f19601f8201168201806040525081019061079b9190612455565b9050600061082960405180610180016040528060006001600160a01b0316815260200160008152602001600081526020016000815260200160001515815260200160006001600160a01b031681526020016000815260200160008152602001600081526020016000815260200160006001600160a01b0316815260200160006001600160a01b031681525090565b604051632fd2666560e21b81526001600160a01b0389811660048301526024820189905284169063bf4999949060440160006040518083038186803b15801561087157600080fd5b505afa158015610885573d6000803e3d6000fd5b505050506040513d6000823e601f3d908101601f191682016040526108ad91908101906124b2565b99509597506000965050506001600160a01b0389169350639e3f2d9092508b915061babe90506108de600188612992565b6040516001600160e01b031960e086901b16815260048101939093526001600160a01b039091166024830152604482015260640160206040518083038186803b15801561092a57600080fd5b505afa15801561093e573d6000803e3d6000fd5b505050506040513d601f19601f8201168201806040525081019061096291906127f9565b905060006001600160a01b038616639e3f2d908a8a610982600189612992565b6040516001600160e01b031960e086901b16815260048101939093526001600160a01b039091166024830152604482015260640160206040518083038186803b1580156109ce57600080fd5b505afa1580156109e2573d6000803e3d6000fd5b505050506040513d601f19601f82011682018060405250810190610a0691906127f9565b60c08401516040517f9283ae3a0000000000000000000000000000000000000000000000000000000081527fea659d8e1a730b10af1cecb4f8ee391adf80e75302d6aaeb9642dc8a4a5e5dbb600482015291925090600090670de0b6b3a7640000906001600160a01b038e1690639283ae3a9060240160206040518083038186803b158015610a9457600080fd5b505afa158015610aa8573d6000803e3d6000fd5b505050506040513d601f19601f82011682018060405250810190610acc91906127f9565b610ad69084612955565b610ae09190612935565b90506000610aef8d8d85611924565b905080610afc8385612992565b610b069190612992565b9250841580610b13575083155b80610b1c575082155b15610b335760009950505050505050505050610223565b84610b3e8486612955565b610b489190612935565b9d9c50505050505050505050505050565b6040516317ba7d8560e01b81527f7a8526bca00f0726b2fab8c3bfd5b00bfa84d07f111e48263b13de605eefcdda60048201526001600160a01b038616906317ba7d859060240160206040518083038186803b158015610bb857600080fd5b505afa158015610bcc573d6000803e3d6000fd5b505050506040513d601f19601f82011682018060405250810190610bf09190612455565b6001600160a01b0316336001600160a01b031614610c765760405162461bcd60e51b815260206004820152602160248201527f616c6c6f6361746550726f6a656374546f6b656e3a3a6163636573732064656e60448201527f79000000000000000000000000000000000000000000000000000000000000006064820152608401610617565b610d3260405180610260016040528060006001600160a01b0316815260200160006001600160a01b03168152602001600081526020016000815260200160008152602001600060ff1681526020016000815260200160008152602001600081526020016000815260200160008152602001600081526020016000815260200160006001600160a01b0316815260200160006001600160a01b03168152602001600081526020016000815260200160008152602001600081525090565b815161010082015260208201516101208201526040808301516101408301526060830151610160830152608083015161018083015251632c9f4b5b60e11b81527fb12a3847d47fefceb164b75823af125f9aa82b76938df0ddf08c04cd314ba37c60048201526001600160a01b0387169063593e96b69060240160206040518083038186803b158015610dc457600080fd5b505afa158015610dd8573d6000803e3d6000fd5b505050506040513d601f19601f82011682018060405250810190610dfc9190612455565b6001600160a01b0390811682526101008201516040516317ba7d8560e01b81527f43f8439a5cef099d0d9a92b15a64e34ff49963bb29d65f63204eda6591b810a1600482015290918781169163dd62ed3e918a16906317ba7d859060240160206040518083038186803b158015610e7257600080fd5b505afa158015610e86573d6000803e3d6000fd5b505050506040513d601f19601f82011682018060405250810190610eaa9190612455565b6040516001600160e01b031960e084901b1681526001600160a01b03909116600482015230602482015260440160206040518083038186803b158015610eef57600080fd5b505afa158015610f03573d6000803e3d6000fd5b505050506040513d601f19601f82011682018060405250810190610f2791906127f9565b1015610f9b5760405162461bcd60e51b815260206004820152603f60248201527f416c6c6f636174696f6e416461707465723a3a616c6c6f6361746550726f6a6560448201527f6374546f6b656e3a3a696e73756666696369656e7420616c6c6f77616e6365006064820152608401610617565b6040516317ba7d8560e01b81527f43f8439a5cef099d0d9a92b15a64e34ff49963bb29d65f63204eda6591b810a160048201526001600160a01b03808716916323b872dd918916906317ba7d859060240160206040518083038186803b15801561100457600080fd5b505afa158015611018573d6000803e3d6000fd5b505050506040513d601f19601f8201168201806040525081019061103c9190612455565b6101008401516040516001600160e01b031960e085901b1681526001600160a01b0390921660048301523060248301526044820152606401602060405180830381600087803b15801561108e57600080fd5b505af11580156110a2573d6000803e3d6000fd5b505050506040513d601f19601f820116820180604052508101906110c691906126cf565b506040517f9283ae3a0000000000000000000000000000000000000000000000000000000081527fea659d8e1a730b10af1cecb4f8ee391adf80e75302d6aaeb9642dc8a4a5e5dbb6004820152670de0b6b3a7640000906001600160a01b03881690639283ae3a9060240160206040518083038186803b15801561114957600080fd5b505afa15801561115d573d6000803e3d6000fd5b505050506040513d601f19601f8201168201806040525081019061118191906127f9565b8261010001516111919190612955565b61119b9190612935565b6102408201526101008101516111b49087908590611924565b60e082015261024081015115611340576040517ffd310d290000000000000000000000000000000000000000000000000000000081527f8987d08c67963e4cacd5e5936c122a968c66853d58299dd822c194222710983960048201526001600160a01b0387169063fd310d299060240160206040518083038186803b15801561123c57600080fd5b505afa158015611250573d6000803e3d6000fd5b505050506040513d601f19601f820116820180604052508101906112749190612455565b6001600160a01b039081166101c083019081526040805180820182526102408501518a85166000908152600260209081528482208a835281528482209551909616815293909452912054909182916112cc919061291d565b8152600060209182018190526001600160a01b03898116825260028352604080832088845284528083206101c08701519092168352908352908190208351815592909101516001909201805460ff191692151592909217909155610240820151908201805161133c90839061291d565b9052505b80516040517fe38a5a64000000000000000000000000000000000000000000000000000000008152600481018590526000916001600160a01b03169063e38a5a649060240160006040518083038186803b15801561139d57600080fd5b505afa1580156113b1573d6000803e3d6000fd5b505050506040513d6000823e601f3d908101601f191682016040526113d9919081019061261b565b90506001600160a01b038516156114ad5760e0820151156114ad5760408051808201825260e08401516001600160a01b03808b166000908152600260209081528582208a83528152858220928b16825291909152929092205490918291611440919061291d565b8152600060209182018190526001600160a01b038a811682526002835260408083208984528452808320918a168352908352908190208351815592909101516001909201805460ff19169215159290921790915560e083015190830180516114a990839061291d565b9052505b816101000151826040015111156115525760405162461bcd60e51b815260206004820152605c60248201527f416c6c6f636174696f6e416461707465723a3a616c6c6f6361746550726f6a6560448201527f6374546f6b656e3a3a6469737472696275746520746f6b656e20616d6f756e7460648201527f2065786365656473207472616e64696e67206f666620616d6f756e7400000000608482015260a401610617565b856001600160a01b031663dd62ed3e30896001600160a01b03166317ba7d857fdfea78be99560632cc4c199ca1b0d68ffe0bbbb07b685976cefc8820374ac73a6040518263ffffffff1660e01b81526004016115b091815260200190565b60206040518083038186803b1580156115c857600080fd5b505afa1580156115dc573d6000803e3d6000fd5b505050506040513d601f19601f820116820180604052508101906116009190612455565b6040516001600160e01b031960e085901b1681526001600160a01b0392831660048201529116602482015260440160206040518083038186803b15801561164657600080fd5b505afa15801561165a573d6000803e3d6000fd5b505050506040513d601f19601f8201168201806040525081019061167e91906127f9565b606083018190526101008301516116949161291d565b60808301526040516317ba7d8560e01b81527fdfea78be99560632cc4c199ca1b0d68ffe0bbbb07b685976cefc8820374ac73a60048201526001600160a01b038781169163095ea7b3918a16906317ba7d859060240160206040518083038186803b15801561170257600080fd5b505afa158015611716573d6000803e3d6000fd5b505050506040513d601f19601f8201168201806040525081019061173a9190612455565b60808501516040516001600160e01b031960e085901b1681526001600160a01b0390921660048301526024820152604401602060405180830381600087803b15801561178557600080fd5b505af1158015611799573d6000803e3d6000fd5b505050506040513d601f19601f820116820180604052508101906117bd91906126cf565b507f7e0d2bb4312363eed7035f178b6a354ed747e50a3c12bd89e44a676e0d81ab0f848887846040516117f39493929190612811565b60405180910390a150505050505050565b6040516317ba7d8560e01b81527ffacef1ff9551e6c96f09b108d715442c90dfae3b4f77a7691c0ddff9cef28d3560048201526000906001600160a01b038516906317ba7d859060240160206040518083038186803b15801561186657600080fd5b505afa15801561187a573d6000803e3d6000fd5b505050506040513d601f19601f8201168201806040525081019061189e9190612455565b6001600160a01b0316336001600160a01b0316146106205760405162461bcd60e51b815260206004820152602760248201527f416c6c6f636174696f6e416461707465723a6e66744d696e7465643a4163636560448201527f73732064656e79000000000000000000000000000000000000000000000000006064820152608401610617565b6040516317ba7d8560e01b81527f7a8526bca00f0726b2fab8c3bfd5b00bfa84d07f111e48263b13de605eefcdda600482015260009081906001600160a01b038616906317ba7d859060240160206040518083038186803b15801561198857600080fd5b505afa15801561199c573d6000803e3d6000fd5b505050506040513d601f19601f820116820180604052508101906119c09190612455565b90506119df604051806040016040528060008152602001600081525090565b604051632fd2666560e21b81526001600160a01b0387811660048301526024820187905283169063bf4999949060440160006040518083038186803b158015611a2757600080fd5b505afa158015611a3b573d6000803e3d6000fd5b505050506040513d6000823e601f3d908101601f19168201604052611a6391908101906124b2565b5050825192975060009650670de0b6b3a76400009550611a8b94509192508991506129559050565b611a959190612935565b979650505050505050565b6040517f68c18beb00000000000000000000000000000000000000000000000000000000815233600482015283906001600160a01b038216906368c18beb9060240160206040518083038186803b158015611afa57600080fd5b505afa158015611b0e573d6000803e3d6000fd5b505050506040513d601f19601f82011682018060405250810190611b3291906126cf565b80611b415750611b4181611eee565b611b8d5760405162461bcd60e51b815260206004820152600b60248201527f6f6e6c79416461707465720000000000000000000000000000000000000000006044820152606401610617565b50505050565b6040516317ba7d8560e01b81527f7a8526bca00f0726b2fab8c3bfd5b00bfa84d07f111e48263b13de605eefcdda600482015260009081906001600160a01b038616906317ba7d859060240160206040518083038186803b158015611bf757600080fd5b505afa158015611c0b573d6000803e3d6000fd5b505050506040513d601f19601f82011682018060405250810190611c2f9190612455565b604051632c9f4b5b60e11b81527fb12a3847d47fefceb164b75823af125f9aa82b76938df0ddf08c04cd314ba37c60048201529091506000906001600160a01b0387169063593e96b69060240160206040518083038186803b158015611c9457600080fd5b505afa158015611ca8573d6000803e3d6000fd5b505050506040513d601f19601f82011682018060405250810190611ccc9190612455565b604051632fd2666560e21b81526001600160a01b0388811660048301526024820188905291925060009184169063bf4999949060440160006040518083038186803b158015611d1a57600080fd5b505afa158015611d2e573d6000803e3d6000fd5b505050506040513d6000823e601f3d908101601f19168201604052611d5691908101906124b2565b98506000975050506001600160a01b0388169450639e3f2d9093508b92508a9150611d849050600187612992565b6040516001600160e01b031960e086901b16815260048101939093526001600160a01b039091166024830152604482015260640160206040518083038186803b158015611dd057600080fd5b505afa158015611de4573d6000803e3d6000fd5b505050506040513d601f19601f82011682018060405250810190611e0891906127f9565b905060006001600160a01b038416639e3f2d908961babe611e2a600188612992565b6040516001600160e01b031960e086901b16815260048101939093526001600160a01b039091166024830152604482015260640160206040518083038186803b158015611e7657600080fd5b505afa158015611e8a573d6000803e3d6000fd5b505050506040513d601f19601f82011682018060405250810190611eae91906127f9565b90508015611edf5780611ec983670de0b6b3a7640000612955565b611ed39190612935565b95505050505050610223565b50600098975050505050505050565b600080826001600160a01b031663c19d93fb6040518163ffffffff1660e01b815260040160206040518083038186803b158015611f2a57600080fd5b505afa158015611f3e573d6000803e3d6000fd5b505050506040513d601f19601f82011682018060405250810190611f6291906127dd565b6001811115611f8157634e487b7160e01b600052602160045260246000fd5b1480156121275750816001600160a01b031663c67143666040518163ffffffff1660e01b815260040160206040518083038186803b158015611fc257600080fd5b505afa158015611fd6573d6000803e3d6000fd5b505050506040513d601f19601f82011682018060405250810190611ffa91906127f9565b158061209157506040517fa230c5240000000000000000000000000000000000000000000000000000000081523360048201526001600160a01b0383169063a230c5249060240160206040518083038186803b15801561205957600080fd5b505afa15801561206d573d6000803e3d6000fd5b505050506040513d601f19601f8201168201806040525081019061209191906126cf565b8061212757506040517f68c18beb0000000000000000000000000000000000000000000000000000000081523360048201526001600160a01b038316906368c18beb9060240160206040518083038186803b1580156120ef57600080fd5b505afa158015612103573d6000803e3d6000fd5b505050506040513d601f19601f8201168201806040525081019061212791906126cf565b92915050565b8051612138816129d5565b919050565b8051801515811461213857600080fd5b8051612138816129ed565b80516005811061213857600080fd5b600082601f830112612177578081fd5b815167ffffffffffffffff811115612191576121916129bf565b60206121a581601f19601f850116016128ec565b82815285828487010111156121b8578384fd5b835b838110156121d55785810183015182820184015282016121ba565b838111156121e557848385840101525b5095945050505050565b60006102008284031215612201578081fd5b604051610100810181811067ffffffffffffffff82111715612225576122256129bf565b6040529050806122348361214d565b81526020830151602082015260408301516040820152606083015160608201526080830151608082015261226a60a0840161213d565b60a082015261227c8460c0850161229b565b60c082015261228f84610160850161230e565b60e08201525092915050565b600060a082840312156122ac578081fd5b6122b461287b565b905081516122c1816129fa565b8152602082015163ffffffff811681146122da57600080fd5b602082015260408201516122ed816129d5565b80604083015250606082015160608201526080820151608082015292915050565b600060a0828403121561231f578081fd5b61232761287b565b90506123328261213d565b815260208201516122da816129fa565b600060408284031215612353578081fd5b6040516040810181811067ffffffffffffffff82111715612376576123766129bf565b604052825181526020928301519281019290925250919050565b600061012082840312156123a2578081fd5b6123aa6128a4565b905081518152602082015160208201526040820151604082015260608201516060820152608082015160808201526123e460a0830161213d565b60a08201526123f560c0830161212d565b60c082015260e082015167ffffffffffffffff8082111561241557600080fd5b61242185838601612167565b60e08401526101009150818401518181111561243c57600080fd5b61244886828701612167565b8385015250505092915050565b600060208284031215612466578081fd5b8151610223816129d5565b600080600060608486031215612485578182fd5b8335612490816129d5565b92506020840135915060408401356124a7816129d5565b809150509250925092565b6000806000806000806000806000898b036104808112156124d1578788fd5b8a516124dc816129d5565b9950610180601f1982018113156124f1578889fd5b6124f96128c8565b915061250760208d0161212d565b825260408c0151602083015260608c0151604083015260808c0151606083015261253360a08d0161213d565b608083015261254460c08d0161212d565b60a083015260e08c015160c0830152610100808d015160e0840152610120808e0151828501526101409150818e01518185015250610160612586818f0161212d565b82850152612595838f0161212d565b9084015250506101a08b015190985067ffffffffffffffff8111156125b8578788fd5b6125c48c828d01612390565b9750506125d58b6101c08c016121ef565b95506125e58b6103c08c01612342565b94506104008a015193506104208a015192506126046104408b01612158565b91506104608a015190509295985092959850929598565b6000602080838503121561262d578182fd5b825167ffffffffffffffff80821115612644578384fd5b818501915085601f830112612657578384fd5b815181811115612669576126696129bf565b8060051b915061267a8483016128ec565b8181528481019084860184860187018a1015612694578788fd5b8795505b838610156126c257805194506126ad856129d5565b84835260019590950194918601918601612698565b5098975050505050505050565b6000602082840312156126e0578081fd5b6102238261213d565b6000806000806000610120808789031215612702578384fd5b863561270d816129d5565b955060208781013561271e816129d5565b9550604088013561272e816129d5565b945060608801359350609f88018913612745578283fd5b61274d61287b565b8060808a018b858c011115612760578586fd5b8594505b6005851015612783578035835260019490940193918301918301612764565b50809450505050509295509295909350565b600080600060608486031215612485578081fd5b6000806000606084860312156127bd578081fd5b83356127c8816129d5565b95602085013595506040909401359392505050565b6000602082840312156127ee578081fd5b8151610223816129ed565b60006020828403121561280a578081fd5b5051919050565b60006080820186835260206001600160a01b038088168286015280871660408601526080606086015282865180855260a0870191508388019450855b8181101561286b57855184168352948401949184019160010161284d565b50909a9950505050505050505050565b60405160a0810167ffffffffffffffff8111828210171561289e5761289e6129bf565b60405290565b604051610120810167ffffffffffffffff8111828210171561289e5761289e6129bf565b604051610180810167ffffffffffffffff8111828210171561289e5761289e6129bf565b604051601f8201601f1916810167ffffffffffffffff81118282101715612915576129156129bf565b604052919050565b60008219821115612930576129306129a9565b500190565b60008261295057634e487b7160e01b81526012600452602481fd5b500490565b6000817fffffffffffffffffffffffffffffffffffffffffffffffffffffffffffffffff048311821515161561298d5761298d6129a9565b500290565b6000828210156129a4576129a46129a9565b500390565b634e487b7160e01b600052601160045260246000fd5b634e487b7160e01b600052604160045260246000fd5b6001600160a01b03811681146129ea57600080fd5b50565b600281106129ea57600080fd5b600481106129ea57600080fdfea2646970667358221220c3f4f846911c502fe31aa4c9361f752703fa4d210217634ea555371d4eed4da564736f6c63430008040033",
  "linkReferences": {},
  "deployedLinkReferences": {}
}