{
  "_format": "hh-sol-artifact-1",
  "contractName": "FlexFundingAdapterContract",
  "sourceName": "contracts/flex/adatpers/FlexFunding.sol",
  "abi": [
    {
      "inputs": [],
      "name": "FundRaiseEndTimeNotUP",
      "type": "error"
    },
    {
      "inputs": [],
      "name": "InvalidBackerIdentificationParams",
      "type": "error"
    },
    {
      "inputs": [],
      "name": "InvalidBackerPriorityDepositParams",
      "type": "error"
    },
    {
      "inputs": [],
      "name": "InvalidFundingInfoParams",
      "type": "error"
    },
    {
      "inputs": [],
      "name": "InvalidReturnFundParams",
      "type": "error"
    },
    {
      "inputs": [],
      "name": "InvalidTokenRewardAmount",
      "type": "error"
    },
    {
      "inputs": [],
      "name": "InvalidVestingParams",
      "type": "error"
    },
    {
      "inputs": [],
      "name": "NotInExecuteState",
      "type": "error"
    },
    {
      "anonymous": false,
      "inputs": [
        {
          "indexed": false,
          "internalType": "address",
          "name": "daoAddress",
          "type": "address"
        },
        {
          "indexed": false,
          "internalType": "bytes32",
          "name": "proposalId",
          "type": "bytes32"
        },
        {
          "indexed": false,
          "internalType": "address",
          "name": "proposer",
          "type": "address"
        }
      ],
      "name": "ProposalCreated",
      "type": "event"
    },
    {
      "anonymous": false,
      "inputs": [
        {
          "indexed": false,
          "internalType": "address",
          "name": "daoAddress",
          "type": "address"
        },
        {
          "indexed": false,
          "internalType": "bytes32",
          "name": "proposalId",
          "type": "bytes32"
        },
        {
          "indexed": false,
          "internalType": "enum IFlexFunding.ProposalStatus",
          "name": "state",
          "type": "uint8"
        }
      ],
      "name": "ProposalExecuted",
      "type": "event"
    },
    {
      "inputs": [
        {
          "internalType": "address",
          "name": "",
          "type": "address"
        },
        {
          "internalType": "bytes32",
          "name": "",
          "type": "bytes32"
        }
      ],
      "name": "Proposals",
      "outputs": [
        {
          "internalType": "address",
          "name": "proposer",
          "type": "address"
        },
        {
          "components": [
            {
              "internalType": "address",
              "name": "tokenAddress",
              "type": "address"
            },
            {
              "internalType": "uint256",
              "name": "minFundingAmount",
              "type": "uint256"
            },
            {
              "internalType": "uint256",
              "name": "maxFundingAmount",
              "type": "uint256"
            },
            {
              "internalType": "uint256",
              "name": "finalRaisedAmount",
              "type": "uint256"
            },
            {
              "internalType": "bool",
              "name": "escrow",
              "type": "bool"
            },
            {
              "internalType": "address",
              "name": "returnTokenAddr",
              "type": "address"
            },
            {
              "internalType": "uint256",
              "name": "returnTokenAmount",
              "type": "uint256"
            },
            {
              "internalType": "uint256",
              "name": "price",
              "type": "uint256"
            },
            {
              "internalType": "uint256",
              "name": "minReturnAmount",
              "type": "uint256"
            },
            {
              "internalType": "uint256",
              "name": "maxReturnAmount",
              "type": "uint256"
            },
            {
              "internalType": "address",
              "name": "approverAddr",
              "type": "address"
            },
            {
              "internalType": "address",
              "name": "recipientAddr",
              "type": "address"
            }
          ],
          "internalType": "struct IFlexFunding.ProposalFundingInfo",
          "name": "fundingInfo",
          "type": "tuple"
        },
        {
          "components": [
            {
              "internalType": "uint256",
              "name": "vestingStartTime",
              "type": "uint256"
            },
            {
              "internalType": "uint256",
              "name": "vestingCliffEndTime",
              "type": "uint256"
            },
            {
              "internalType": "uint256",
              "name": "vestingEndTime",
              "type": "uint256"
            },
            {
              "internalType": "uint256",
              "name": "vestingInterval",
              "type": "uint256"
            },
            {
              "internalType": "uint256",
              "name": "vestingCliffLockAmount",
              "type": "uint256"
            },
            {
              "internalType": "bool",
              "name": "nftEnable",
              "type": "bool"
            },
            {
              "internalType": "address",
              "name": "erc721",
              "type": "address"
            },
            {
              "internalType": "string",
              "name": "vestName",
              "type": "string"
            },
            {
              "internalType": "string",
              "name": "vestDescription",
              "type": "string"
            }
          ],
          "internalType": "struct IFlexFunding.VestInfo",
          "name": "vestInfo",
          "type": "tuple"
        },
        {
          "components": [
            {
              "internalType": "enum IFlexFunding.FundRaiseType",
              "name": "fundRaiseType",
              "type": "uint8"
            },
            {
              "internalType": "uint256",
              "name": "fundRaiseStartTime",
              "type": "uint256"
            },
            {
              "internalType": "uint256",
              "name": "fundRaiseEndTime",
              "type": "uint256"
            },
            {
              "internalType": "uint256",
              "name": "minDepositAmount",
              "type": "uint256"
            },
            {
              "internalType": "uint256",
              "name": "maxDepositAmount",
              "type": "uint256"
            },
            {
              "internalType": "bool",
              "name": "backerIdentification",
              "type": "bool"
            },
            {
              "components": [
                {
                  "internalType": "enum IFlexFunding.BackerIdentificationType",
                  "name": "bType",
                  "type": "uint8"
                },
                {
                  "internalType": "uint32",
                  "name": "bChainId",
                  "type": "uint32"
                },
                {
                  "internalType": "address",
                  "name": "bTokanAddr",
                  "type": "address"
                },
                {
                  "internalType": "uint256",
                  "name": "bTokenId",
                  "type": "uint256"
                },
                {
                  "internalType": "uint256",
                  "name": "bMinHoldingAmount",
                  "type": "uint256"
                }
              ],
              "internalType": "struct IFlexFunding.BackerIdentificationInfo",
              "name": "bakckerIdentificationInfo",
              "type": "tuple"
            },
            {
              "components": [
                {
                  "internalType": "bool",
                  "name": "enable",
                  "type": "bool"
                },
                {
                  "internalType": "enum IFlexFunding.PriorityDepositType",
                  "name": "pType",
                  "type": "uint8"
                },
                {
                  "internalType": "address",
                  "name": "token",
                  "type": "address"
                },
                {
                  "internalType": "uint256",
                  "name": "tokenId",
                  "type": "uint256"
                },
                {
                  "internalType": "uint256",
                  "name": "amount",
                  "type": "uint256"
                }
              ],
              "internalType": "struct IFlexFunding.PriorityDepositInfo",
              "name": "priorityDepositInfo",
              "type": "tuple"
            }
          ],
          "internalType": "struct IFlexFunding.FundRaiseInfo",
          "name": "fundRaiseInfo",
          "type": "tuple"
        },
        {
          "components": [
            {
              "internalType": "uint256",
              "name": "tokenRewardAmount",
              "type": "uint256"
            },
            {
              "internalType": "uint256",
              "name": "cashRewardAmount",
              "type": "uint256"
            }
          ],
          "internalType": "struct IFlexFunding.ProposerRewardInfo",
          "name": "proposerRewardInfo",
          "type": "tuple"
        },
        {
          "internalType": "uint256",
          "name": "startVoteTime",
          "type": "uint256"
        },
        {
          "internalType": "uint256",
          "name": "stopVoteTime",
          "type": "uint256"
        },
        {
          "internalType": "enum IFlexFunding.ProposalStatus",
          "name": "state",
          "type": "uint8"
        }
      ],
      "stateMutability": "view",
      "type": "function"
    },
    {
      "inputs": [],
      "name": "RETRUN_TOKEN_AMOUNT_PRECISION",
      "outputs": [
        {
          "internalType": "uint256",
          "name": "",
          "type": "uint256"
        }
      ],
      "stateMutability": "view",
      "type": "function"
    },
    {
      "inputs": [
        {
          "internalType": "contract DaoRegistry",
          "name": "dao",
          "type": "address"
        }
      ],
      "name": "getProposerWhitelist",
      "outputs": [
        {
          "internalType": "address[]",
          "name": "",
          "type": "address[]"
        }
      ],
      "stateMutability": "view",
      "type": "function"
    },
    {
      "inputs": [
        {
          "internalType": "contract DaoRegistry",
          "name": "dao",
          "type": "address"
        },
        {
          "internalType": "address",
          "name": "_addr",
          "type": "address"
        }
      ],
      "name": "isActiveMember",
      "outputs": [
        {
          "internalType": "bool",
          "name": "",
          "type": "bool"
        }
      ],
      "stateMutability": "view",
      "type": "function"
    },
    {
      "inputs": [
        {
          "internalType": "contract DaoRegistry",
          "name": "dao",
          "type": "address"
        },
        {
          "internalType": "bytes32",
          "name": "proposalId",
          "type": "bytes32"
        },
        {
          "internalType": "address",
          "name": "account",
          "type": "address"
        }
      ],
      "name": "isPriorityDepositer",
      "outputs": [
        {
          "internalType": "bool",
          "name": "",
          "type": "bool"
        }
      ],
      "stateMutability": "view",
      "type": "function"
    },
    {
      "inputs": [
        {
          "internalType": "contract DaoRegistry",
          "name": "dao",
          "type": "address"
        },
        {
          "internalType": "address",
          "name": "account",
          "type": "address"
        }
      ],
      "name": "isProposerWhiteList",
      "outputs": [
        {
          "internalType": "bool",
          "name": "",
          "type": "bool"
        }
      ],
      "stateMutability": "view",
      "type": "function"
    },
    {
      "inputs": [
        {
          "internalType": "contract DaoRegistry",
          "name": "dao",
          "type": "address"
        },
        {
          "internalType": "bytes32",
          "name": "proposalId",
          "type": "bytes32"
        }
      ],
      "name": "processProposal",
      "outputs": [
        {
          "internalType": "bool",
          "name": "",
          "type": "bool"
        }
      ],
      "stateMutability": "nonpayable",
      "type": "function"
    },
    {
      "inputs": [],
      "name": "protocolAddress",
      "outputs": [
        {
          "internalType": "address",
          "name": "",
          "type": "address"
        }
      ],
      "stateMutability": "view",
      "type": "function"
    },
    {
      "inputs": [],
      "name": "protocolFee",
      "outputs": [
        {
          "internalType": "uint256",
          "name": "",
          "type": "uint256"
        }
      ],
      "stateMutability": "view",
      "type": "function"
    },
    {
      "inputs": [
        {
          "internalType": "contract DaoRegistry",
          "name": "dao",
          "type": "address"
        },
        {
          "internalType": "address",
          "name": "account",
          "type": "address"
        }
      ],
      "name": "registerProposerWhiteList",
      "outputs": [],
      "stateMutability": "nonpayable",
      "type": "function"
    },
    {
      "inputs": [
        {
          "internalType": "contract DaoRegistry",
          "name": "dao",
          "type": "address"
        },
        {
          "internalType": "bytes32",
          "name": "proposalId",
          "type": "bytes32"
        }
      ],
      "name": "retrunTokenToApprover",
      "outputs": [],
      "stateMutability": "nonpayable",
      "type": "function"
    },
    {
      "inputs": [
        {
          "internalType": "contract DaoRegistry",
          "name": "dao",
          "type": "address"
        },
        {
          "internalType": "address",
          "name": "_protocolAddress",
          "type": "address"
        }
      ],
      "name": "setProtocolAddress",
      "outputs": [],
      "stateMutability": "nonpayable",
      "type": "function"
    },
    {
      "inputs": [
        {
          "internalType": "contract DaoRegistry",
          "name": "dao",
          "type": "address"
        },
        {
          "internalType": "uint256",
          "name": "_protocolFee",
          "type": "uint256"
        }
      ],
      "name": "setProtocolFee",
      "outputs": [],
      "stateMutability": "nonpayable",
      "type": "function"
    },
    {
      "inputs": [
        {
          "internalType": "contract DaoRegistry",
          "name": "dao",
          "type": "address"
        },
        {
          "components": [
            {
              "components": [
                {
                  "internalType": "address",
                  "name": "tokenAddress",
                  "type": "address"
                },
                {
                  "internalType": "uint256",
                  "name": "minFundingAmount",
                  "type": "uint256"
                },
                {
                  "internalType": "uint256",
                  "name": "maxFundingAmount",
                  "type": "uint256"
                },
                {
                  "internalType": "bool",
                  "name": "escrow",
                  "type": "bool"
                },
                {
                  "internalType": "address",
                  "name": "returnTokenAddr",
                  "type": "address"
                },
                {
                  "internalType": "uint256",
                  "name": "returnTokenAmount",
                  "type": "uint256"
                },
                {
                  "internalType": "uint256",
                  "name": "price",
                  "type": "uint256"
                },
                {
                  "internalType": "uint256",
                  "name": "minReturnAmount",
                  "type": "uint256"
                },
                {
                  "internalType": "uint256",
                  "name": "maxReturnAmount",
                  "type": "uint256"
                },
                {
                  "internalType": "address",
                  "name": "approverAddr",
                  "type": "address"
                },
                {
                  "internalType": "address",
                  "name": "recipientAddr",
                  "type": "address"
                }
              ],
              "internalType": "struct IFlexFunding.FundingInfo",
              "name": "fundingInfo",
              "type": "tuple"
            },
            {
              "components": [
                {
                  "internalType": "uint256",
                  "name": "vestingStartTime",
                  "type": "uint256"
                },
                {
                  "internalType": "uint256",
                  "name": "vestingCliffEndTime",
                  "type": "uint256"
                },
                {
                  "internalType": "uint256",
                  "name": "vestingEndTime",
                  "type": "uint256"
                },
                {
                  "internalType": "uint256",
                  "name": "vestingInterval",
                  "type": "uint256"
                },
                {
                  "internalType": "uint256",
                  "name": "vestingCliffLockAmount",
                  "type": "uint256"
                },
                {
                  "internalType": "bool",
                  "name": "nftEnable",
                  "type": "bool"
                },
                {
                  "internalType": "address",
                  "name": "erc721",
                  "type": "address"
                },
                {
                  "internalType": "string",
                  "name": "vestName",
                  "type": "string"
                },
                {
                  "internalType": "string",
                  "name": "vestDescription",
                  "type": "string"
                }
              ],
              "internalType": "struct IFlexFunding.VestInfo",
              "name": "vestInfo",
              "type": "tuple"
            },
            {
              "components": [
                {
                  "internalType": "enum IFlexFunding.FundRaiseType",
                  "name": "fundRaiseType",
                  "type": "uint8"
                },
                {
                  "internalType": "uint256",
                  "name": "fundRaiseStartTime",
                  "type": "uint256"
                },
                {
                  "internalType": "uint256",
                  "name": "fundRaiseEndTime",
                  "type": "uint256"
                },
                {
                  "internalType": "uint256",
                  "name": "minDepositAmount",
                  "type": "uint256"
                },
                {
                  "internalType": "uint256",
                  "name": "maxDepositAmount",
                  "type": "uint256"
                },
                {
                  "internalType": "bool",
                  "name": "backerIdentification",
                  "type": "bool"
                },
                {
                  "components": [
                    {
                      "internalType": "enum IFlexFunding.BackerIdentificationType",
                      "name": "bType",
                      "type": "uint8"
                    },
                    {
                      "internalType": "uint32",
                      "name": "bChainId",
                      "type": "uint32"
                    },
                    {
                      "internalType": "address",
                      "name": "bTokanAddr",
                      "type": "address"
                    },
                    {
                      "internalType": "uint256",
                      "name": "bTokenId",
                      "type": "uint256"
                    },
                    {
                      "internalType": "uint256",
                      "name": "bMinHoldingAmount",
                      "type": "uint256"
                    }
                  ],
                  "internalType": "struct IFlexFunding.BackerIdentificationInfo",
                  "name": "bakckerIdentificationInfo",
                  "type": "tuple"
                },
                {
                  "components": [
                    {
                      "internalType": "bool",
                      "name": "enable",
                      "type": "bool"
                    },
                    {
                      "internalType": "enum IFlexFunding.PriorityDepositType",
                      "name": "pType",
                      "type": "uint8"
                    },
                    {
                      "internalType": "address",
                      "name": "token",
                      "type": "address"
                    },
                    {
                      "internalType": "uint256",
                      "name": "tokenId",
                      "type": "uint256"
                    },
                    {
                      "internalType": "uint256",
                      "name": "amount",
                      "type": "uint256"
                    }
                  ],
                  "internalType": "struct IFlexFunding.PriorityDepositInfo",
                  "name": "priorityDepositInfo",
                  "type": "tuple"
                }
              ],
              "internalType": "struct IFlexFunding.FundRaiseInfo",
              "name": "fundRaiseInfo",
              "type": "tuple"
            },
            {
              "components": [
                {
                  "internalType": "uint256",
                  "name": "tokenRewardAmount",
                  "type": "uint256"
                },
                {
                  "internalType": "uint256",
                  "name": "cashRewardAmount",
                  "type": "uint256"
                }
              ],
              "internalType": "struct IFlexFunding.ProposerRewardInfo",
              "name": "proposerRewardInfo",
              "type": "tuple"
            },
            {
              "internalType": "address[]",
              "name": "priorityDepositWhitelist",
              "type": "address[]"
            }
          ],
          "internalType": "struct IFlexFunding.ProposalParams",
          "name": "params",
          "type": "tuple"
        }
      ],
      "name": "submitProposal",
      "outputs": [
        {
          "internalType": "bytes32",
          "name": "proposalId",
          "type": "bytes32"
        }
      ],
      "stateMutability": "nonpayable",
      "type": "function"
    }
  ],
  "bytecode": "0x60806040526103e86200001c670de0b6b3a7640000600362000086565b62000028919062000065565b600355600480546001600160a01b031916739ac9c636404c8d46d9eb966d7179983ba5a3941a1790553480156200005e57600080fd5b50620000b2565b6000826200008157634e487b7160e01b81526012600452602481fd5b500490565b6000816000190483118215151615620000ad57634e487b7160e01b81526011600452602481fd5b500290565b6159de80620000c26000396000f3fe608060405234801561001057600080fd5b50600436106100ea5760003560e01c80639573167d1161008c578063b0e21e8a11610066578063b0e21e8a146101f7578063b5b3ca2c14610200578063bf49999414610213578063c7aa00dd1461023a57600080fd5b80639573167d146101be578063ac7634dc146101d1578063acc23208146101e457600080fd5b80635dbf37db116100c85780635dbf37db146101585780636d3cc0401461017b5780636d535f111461018e5780638ecf7720146101ab57600080fd5b806305c6cc33146100ef5780630676c1b714610118578063438d931214610143575b600080fd5b6101026100fd366004614f86565b61024d565b60405161010f91906155f5565b60405180910390f35b60045461012b906001600160a01b031681565b6040516001600160a01b03909116815260200161010f565b61015661015136600461504e565b610277565b005b61016b61016636600461504e565b61047a565b604051901515815260200161010f565b61016b610189366004615098565b6104a3565b61019d670de0b6b3a764000081565b60405190815260200161010f565b61016b6101b936600461504e565b6107d4565b61016b6101cc366004615086565b61086a565b61019d6101df3660046150d9565b611b11565b6101566101f2366004615086565b613a61565b61019d60035481565b61015661020e366004615086565b613be9565b610226610221366004614fbe565b613dca565b60405161010f9897969594939291906154d1565b61015661024836600461504e565b614243565b6001600160a01b03811660009081526002602052604090206060906102719061429b565b92915050565b8143816001600160a01b031663b21634826040518163ffffffff1660e01b815260040160206040518083038186803b1580156102b257600080fd5b505afa1580156102c6573d6000803e3d6000fd5b505050506040513d601f19601f820116820180604052508101906102ea919061523c565b141561033d5760405162461bcd60e51b815260206004820152601060248201527f7265656e7472616e63792067756172640000000000000000000000000000000060448201526064015b60405180910390fd5b806001600160a01b03166310fdb0a26040518163ffffffff1660e01b8152600401600060405180830381600087803b15801561037857600080fd5b505af115801561038c573d6000803e3d6000fd5b505050508261039a816142a8565b6001600160a01b0316336001600160a01b0316146103fa5760405162461bcd60e51b815260206004820152600b60248201527f4163636573732044656e790000000000000000000000000000000000000000006044820152606401610334565b82600460006101000a8154816001600160a01b0302191690836001600160a01b0316021790555050806001600160a01b031663d4f7af436040518163ffffffff1660e01b8152600401600060405180830381600087803b15801561045d57600080fd5b505af1158015610471573d6000803e3d6000fd5b50505050505050565b6001600160a01b038216600090815260026020526040812061049c908361438b565b9392505050565b6001600160a01b0383166000908152602081815260408083208584529091528120601d81015460ff161515600114156107c957601d810154601f820154601e830154610100830460ff16926201000090046001600160a01b03169190600084600381111561052157634e487b7160e01b600052602160045260246000fd5b1480156105a857506040516370a0823160e01b81526001600160a01b0388811660048301528391908516906370a082319060240160206040518083038186803b15801561056d57600080fd5b505afa158015610581573d6000803e3d6000fd5b505050506040513d601f19601f820116820180604052508101906105a5919061523c565b10155b156105bb5760019550505050505061049c565b60018460038111156105dd57634e487b7160e01b600052602160045260246000fd5b14801561066457506040516370a0823160e01b81526001600160a01b0388811660048301528391908516906370a082319060240160206040518083038186803b15801561062957600080fd5b505afa15801561063d573d6000803e3d6000fd5b505050506040513d601f19601f82011682018060405250810190610661919061523c565b10155b156106775760019550505050505061049c565b600284600381111561069957634e487b7160e01b600052602160045260246000fd5b14801561073e57506040517efdd58e0000000000000000000000000000000000000000000000000000000081526001600160a01b0388811660048301526024820183905283919085169062fdd58e9060440160206040518083038186803b15801561070357600080fd5b505afa158015610717573d6000803e3d6000fd5b505050506040513d601f19601f8201168201806040525081019061073b919061523c565b10155b156107515760019550505050505061049c565b600384600381111561077357634e487b7160e01b600052602160045260246000fd5b1480156107a857506001600160a01b03891660009081526001602090815260408083208b845290915290206107a8908861438b565b156107bb5760019550505050505061049c565b60009550505050505061049c565b506000949350505050565b6040517fa230c5240000000000000000000000000000000000000000000000000000000081526001600160a01b0382811660048301526000919084169063a230c5249060240160206040518083038186803b15801561083257600080fd5b505afa158015610846573d6000803e3d6000fd5b505050506040513d601f19601f8201168201806040525081019061049c9190615005565b6000826000610878826143ad565b9050610882614c38565b6001600160a01b0386166000818152602081815260408083208984529091529081902090516317ba7d8560e01b81527f2207fd6117465cefcba0abc867150698c0464aa41a293ec29ca01b67a6350c3c60048201529091906317ba7d859060240160206040518083038186803b1580156108fb57600080fd5b505afa15801561090f573d6000803e3d6000fd5b505050506040513d601f19601f820116820180604052508101906109339190614fa2565b6001600160a01b0390811660608401526040517f593e96b60000000000000000000000000000000000000000000000000000000081527fb12a3847d47fefceb164b75823af125f9aa82b76938df0ddf08c04cd314ba37c60048201529088169063593e96b69060240160206040518083038186803b1580156109b457600080fd5b505afa1580156109c8573d6000803e3d6000fd5b505050506040513d601f19601f820116820180604052508101906109ec9190614fa2565b6001600160a01b031660808301526000602482015460ff166004811115610a2357634e487b7160e01b600052602160045260246000fd5b1415610d725780602301544211610aa25760405162461bcd60e51b815260206004820152603760248201527f466c657846756e64696e673a3a70726f6365737350726f706f73616c3a3a707260448201527f6f706f73616c20696e20766f74696e6720706572696f640000000000000000006064820152608401610334565b6040517f40de703e000000000000000000000000000000000000000000000000000000008152600481018790526001600160a01b038816906340de703e9060240160206040518083038186803b158015610afb57600080fd5b505afa158015610b0f573d6000803e3d6000fd5b505050506040513d601f19601f82011682018060405250810190610b339190614fa2565b6001600160a01b031660c08301819052610bb55760405162461bcd60e51b815260206004820152602f60248201527f466c657846756e64696e673a3a70726f6365737350726f706f73616c3a3a616460448201527f6170746572206e6f7420666f756e6400000000000000000000000000000000006064820152608401610334565b60c08201516040517f76225e730000000000000000000000000000000000000000000000000000000081526001600160a01b03898116600483015260248201899052909116906376225e7390604401606060405180830381600087803b158015610c1e57600080fd5b505af1158015610c32573d6000803e3d6000fd5b505050506040513d601f19601f82011682018060405250810190610c56919061515e565b505060e08301816005811115610c7c57634e487b7160e01b600052602160045260246000fd5b6005811115610c9b57634e487b7160e01b600052602160045260246000fd5b90525060028260e001516005811115610cc457634e487b7160e01b600052602160045260246000fd5b1415610d56576024818101805460ff1916600117905560808301516040517fdf1eb674000000000000000000000000000000000000000000000000000000008152600481018990526001600160a01b039091169163df1eb6749101600060405180830381600087803b158015610d3957600080fd5b505af1158015610d4d573d6000803e3d6000fd5b50505050611ab3565b6024810180546004919060ff19166001835b0217905550611ab3565b6001602482015460ff166004811115610d9b57634e487b7160e01b600052602160045260246000fd5b1415611a815760608201516040517ff614aea30000000000000000000000000000000000000000000000000000000081526001600160a01b038981166004830152602482018990529091169063f614aea390604401600060405180830381600087803b158015610e0a57600080fd5b505af1158015610e1e573d6000803e3d6000fd5b50505060608301516040517f0617b0ce0000000000000000000000000000000000000000000000000000000081526001600160a01b038a81166004830152602482018a90529091169150630617b0ce9060440160206040518083038186803b158015610e8957600080fd5b505afa158015610e9d573d6000803e3d6000fd5b505050506040513d601f19601f82011682018060405250810190610ec19190614fa2565b6001600160a01b039081166101408401526001820154166101e08301526016810154421015610f1c576040517f5d68b4f100000000000000000000000000000000000000000000000000000000815260040160405180910390fd5b6040517f30490e91000000000000000000000000000000000000000000000000000000008152600481018790526001600160a01b038816906330490e9190602401600060405180830381600087803b158015610f7757600080fd5b505af1158015610f8b573d6000803e3d6000fd5b50505050670de0b6b3a76400006003548361014001516001600160a01b0316610fb4919061583d565b610fbe9190615829565b610160830152604051634941d71d60e11b81527fda34ff95e06cbf2c9c32a559cd8aadd1a10104596417d62c03db2c1258df83d360048201526001600160a01b03881690639283ae3a9060240160206040518083038186803b15801561102357600080fd5b505afa158015611037573d6000803e3d6000fd5b505050506040513d601f19601f8201168201806040525081019061105b919061523c565b156110fc57604051634941d71d60e11b81527f64c49ee5084f4940c312104c41603e43791b03dad28152afd6eadb5b960a8a8760048201526001600160a01b03881690639283ae3a9060240160206040518083038186803b1580156110bf57600080fd5b505afa1580156110d3573d6000803e3d6000fd5b505050506040513d601f19601f820116820180604052508101906110f7919061523c565b6111c0565b604051634941d71d60e11b81527f64c49ee5084f4940c312104c41603e43791b03dad28152afd6eadb5b960a8a876004820152670de0b6b3a7640000906001600160a01b03891690639283ae3a9060240160206040518083038186803b15801561116557600080fd5b505afa158015611179573d6000803e3d6000fd5b505050506040513d601f19601f8201168201806040525081019061119d919061523c565b8361014001516001600160a01b03166111b6919061583d565b6111c09190615829565b6101808301526021810154610140830151670de0b6b3a7640000916111ed916001600160a01b031661583d565b6111f79190615829565b6101c08301819052610180830151610160840151600284015461121a9190615811565b6112249190615811565b61122e9190615811565b8261014001516001600160a01b031610611a6b576101408201516001600160a01b03166004820155600581015460ff16156114ed57670de0b6b3a76400008160010160060154836101c001518461018001518561016001518661014001516001600160a01b031661129f919061585c565b6112a9919061585c565b6112b3919061585c565b6112bd9190615829565b6112c7919061583d565b600682018190556102608301819052600a82015460058301546112ff928a926001600160a01b0390811692610100900416908a614678565b61136a576024810180546004919060ff19166001835b021790555060248101546040517ff854addaea7ab1ac33b2a81fdae355ba1b5600023b89719b7c224c866577421e91611357918a918a9160ff909116906154ad565b60405180910390a1600094505050611aff565b6040516317ba7d8560e01b81527fb0326f8dfc913f537596953a938551c86ac8fe0da74c9a8cd0ee660e627dccc860048201526001600160a01b038816906317ba7d859060240160206040518083038186803b1580156113c957600080fd5b505afa1580156113dd573d6000803e3d6000fd5b505050506040513d601f19601f820116820180604052508101906114019190614fa2565b6001600160a01b0390811660a0808501829052600584015484546040805193840181526102608801518452600c87015460208501819052600d8801549596635d5cdb32968f9661010090960482169594909116938e93909290830191611467919061585c565b8152600f89015460208201819052604091820152517fffffffff0000000000000000000000000000000000000000000000000000000060e088901b1681526114b6959493929190600401615642565b600060405180830381600087803b1580156114d057600080fd5b505af11580156114e4573d6000803e3d6000fd5b50505050611629565b6040516317ba7d8560e01b81527fb0326f8dfc913f537596953a938551c86ac8fe0da74c9a8cd0ee660e627dccc860048201526001600160a01b038816906317ba7d859060240160206040518083038186803b15801561154c57600080fd5b505afa158015611560573d6000803e3d6000fd5b505050506040513d601f19601f820116820180604052508101906115849190614fa2565b6001600160a01b0390811660a084018190526040517f9a3eb32b00000000000000000000000000000000000000000000000000000000815291891660048301526024820188905290639a3eb32b90604401602060405180830381600087803b1580156115ef57600080fd5b505af1158015611603573d6000803e3d6000fd5b505050506040513d601f19601f820116820180604052508101906116279190615005565b505b60248101805460ff19166002179055610160820151156116e1576080820151600480546101e08501516101608601516040517fceb1bfa60000000000000000000000000000000000000000000000000000000081529384018b90526001600160a01b039283166024850152908216604484015260648301529091169063ceb1bfa690608401600060405180830381600087803b1580156116c857600080fd5b505af11580156116dc573d6000803e3d6000fd5b505050505b610180820151156118305781608001516001600160a01b031663ceb1bfa687896001600160a01b031663fd310d297f8987d08c67963e4cacd5e5936c122a968c66853d58299dd822c19422271098396040518263ffffffff1660e01b815260040161174e91815260200190565b60206040518083038186803b15801561176657600080fd5b505afa15801561177a573d6000803e3d6000fd5b505050506040513d601f19601f8201168201806040525081019061179e9190614fa2565b6101e08601516101808701516040517fffffffff0000000000000000000000000000000000000000000000000000000060e087901b16815260048101949094526001600160a01b039283166024850152911660448301526064820152608401600060405180830381600087803b15801561181757600080fd5b505af115801561182b573d6000803e3d6000fd5b505050505b6101c0820151156118d757608082015181546101e08401516101c08501516040517fceb1bfa6000000000000000000000000000000000000000000000000000000008152600481018b90526001600160a01b0393841660248201529183166044830152606482015291169063ceb1bfa690608401600060405180830381600087803b1580156118be57600080fd5b505af11580156118d2573d6000803e3d6000fd5b505050505b81608001516001600160a01b031663ceb1bfa68783600101600a0160009054906101000a90046001600160a01b0316856101e00151866101c001518761018001518861016001518961014001516001600160a01b0316611937919061585c565b611941919061585c565b61194b919061585c565b6040517fffffffff0000000000000000000000000000000000000000000000000000000060e087901b16815260048101949094526001600160a01b039283166024850152911660448301526064820152608401600060405180830381600087803b1580156119b857600080fd5b505af11580156119cc573d6000803e3d6000fd5b5050505060808201516101408301516040517f1127b158000000000000000000000000000000000000000000000000000000008152600481018990526001600160a01b039182166024820152911690631127b15890604401600060405180830381600087803b158015611a3e57600080fd5b505af1158015611a52573d6000803e3d6000fd5b5050506024820180546003925060ff1916600183610d68565b6024810180546004919060ff1916600183611315565b6040517fb7ea643300000000000000000000000000000000000000000000000000000000815260040160405180910390fd5b60248101546040517ff854addaea7ab1ac33b2a81fdae355ba1b5600023b89719b7c224c866577421e91611af0918a918a9160ff909116906154ad565b60405180910390a16001945050505b611b0982826147d5565b505092915050565b6000826000611b1f826143ad565b604051634941d71d60e11b81527f2073e6ba5c75026b006fdd165596d94b89cada2e00d8e44a99d422de8ea467e0600482015290915085906001600160a01b03821690639283ae3a9060240160206040518083038186803b158015611b8357600080fd5b505afa158015611b97573d6000803e3d6000fd5b505050506040513d601f19601f82011682018060405250810190611bbb919061523c565b600114156125a957604051634941d71d60e11b81527f57901982635f8a470a3648422f8f769cf08dc2057489be5bf0099fcb44f7d43c60048201526001600160a01b03821690639283ae3a9060240160206040518083038186803b158015611c2257600080fd5b505afa158015611c36573d6000803e3d6000fd5b505050506040513d601f19601f82011682018060405250810190611c5a919061523c565b611e7957604051634941d71d60e11b81527ff6d5f030b79ca78dad001b87a49239ec96be97e62d13501da94c9a392700509e60048201526001600160a01b03821690639283ae3a9060240160206040518083038186803b158015611cbd57600080fd5b505afa158015611cd1573d6000803e3d6000fd5b505050506040513d601f19601f82011682018060405250810190611cf5919061523c565b60405163fd310d2960e01b81527f30091caaedd0994beeeeb3b7b5734296263687ae0126aaf79e5e0f8e5c1706b260048201526001600160a01b0383169063fd310d299060240160206040518083038186803b158015611d5457600080fd5b505afa158015611d68573d6000803e3d6000fd5b505050506040513d601f19601f82011682018060405250810190611d8c9190614fa2565b6040516370a0823160e01b81523360048201526001600160a01b0391909116906370a082319060240160206040518083038186803b158015611dcd57600080fd5b505afa158015611de1573d6000803e3d6000fd5b505050506040513d601f19601f82011682018060405250810190611e05919061523c565b1015611e795760405162461bcd60e51b815260206004820152602c60248201527f646f6e74206d656574206d696e20657263323020746f6b656e20686f6c64696e60448201527f67207265717569726d656e7400000000000000000000000000000000000000006064820152608401610334565b604051634941d71d60e11b81527f57901982635f8a470a3648422f8f769cf08dc2057489be5bf0099fcb44f7d43c60048201526001600160a01b03821690639283ae3a9060240160206040518083038186803b158015611ed857600080fd5b505afa158015611eec573d6000803e3d6000fd5b505050506040513d601f19601f82011682018060405250810190611f10919061523c565b6001141561213357604051634941d71d60e11b81527ff6d5f030b79ca78dad001b87a49239ec96be97e62d13501da94c9a392700509e60048201526001600160a01b03821690639283ae3a9060240160206040518083038186803b158015611f7757600080fd5b505afa158015611f8b573d6000803e3d6000fd5b505050506040513d601f19601f82011682018060405250810190611faf919061523c565b60405163fd310d2960e01b81527f30091caaedd0994beeeeb3b7b5734296263687ae0126aaf79e5e0f8e5c1706b260048201526001600160a01b0383169063fd310d299060240160206040518083038186803b15801561200e57600080fd5b505afa158015612022573d6000803e3d6000fd5b505050506040513d601f19601f820116820180604052508101906120469190614fa2565b6040516370a0823160e01b81523360048201526001600160a01b0391909116906370a082319060240160206040518083038186803b15801561208757600080fd5b505afa15801561209b573d6000803e3d6000fd5b505050506040513d601f19601f820116820180604052508101906120bf919061523c565b10156121335760405162461bcd60e51b815260206004820152602d60248201527f646f6e74206d656574206d696e2065726337323120746f6b656e20686f6c646960448201527f6e67207265717569726d656e74000000000000000000000000000000000000006064820152608401610334565b604051634941d71d60e11b81527f57901982635f8a470a3648422f8f769cf08dc2057489be5bf0099fcb44f7d43c60048201526001600160a01b03821690639283ae3a9060240160206040518083038186803b15801561219257600080fd5b505afa1580156121a6573d6000803e3d6000fd5b505050506040513d601f19601f820116820180604052508101906121ca919061523c565b600214156124b457604051634941d71d60e11b81527ff6d5f030b79ca78dad001b87a49239ec96be97e62d13501da94c9a392700509e60048201526001600160a01b03821690639283ae3a9060240160206040518083038186803b15801561223157600080fd5b505afa158015612245573d6000803e3d6000fd5b505050506040513d601f19601f82011682018060405250810190612269919061523c565b60405163fd310d2960e01b81527f30091caaedd0994beeeeb3b7b5734296263687ae0126aaf79e5e0f8e5c1706b260048201526001600160a01b0383169063fd310d299060240160206040518083038186803b1580156122c857600080fd5b505afa1580156122dc573d6000803e3d6000fd5b505050506040513d601f19601f820116820180604052508101906123009190614fa2565b6001600160a01b031662fdd58e33846001600160a01b0316639283ae3a7fb34f156369747125f679c86d97f51861a5a2a9f927a1addd4354acbaaa88ae576040518263ffffffff1660e01b815260040161235c91815260200190565b60206040518083038186803b15801561237457600080fd5b505afa158015612388573d6000803e3d6000fd5b505050506040513d601f19601f820116820180604052508101906123ac919061523c565b6040517fffffffff0000000000000000000000000000000000000000000000000000000060e085901b1681526001600160a01b039092166004830152602482015260440160206040518083038186803b15801561240857600080fd5b505afa15801561241c573d6000803e3d6000fd5b505050506040513d601f19601f82011682018060405250810190612440919061523c565b10156124b45760405162461bcd60e51b815260206004820152602e60248201527f646f6e74206d656574206d696e206572633131353520746f6b656e20686f6c6460448201527f696e67207265717569726d656e740000000000000000000000000000000000006064820152608401610334565b604051634941d71d60e11b81527f57901982635f8a470a3648422f8f769cf08dc2057489be5bf0099fcb44f7d43c60048201526001600160a01b03821690639283ae3a9060240160206040518083038186803b15801561251357600080fd5b505afa158015612527573d6000803e3d6000fd5b505050506040513d601f19601f8201168201806040525081019061254b919061523c565b600314156125a95761255d813361047a565b6125a95760405162461bcd60e51b815260206004820152601060248201527f6e6f7420696e2077686974656c697374000000000000000000000000000000006044820152606401610334565b6040850135158015906125c3575060208501356040860135105b806125da5750670de0b6b3a76400006103a0860135115b15612611576040517f2dadcff600000000000000000000000000000000000000000000000000000000815260040160405180910390fd5b61262361024086016102208701614fe9565b151560011480156126655750600361264361026087016102408801615123565b600381111561266257634e487b7160e01b600052602160045260246000fd5b14155b8015612698575060006126806102a087016102808801614f86565b6001600160a01b0316148061269857506102c0850135155b156126cf576040517fb21a591a00000000000000000000000000000000000000000000000000000000815260040160405180910390fd5b6126e161030086016102e08701614fe9565b151560011480156127235750600361270161032087016103008801615123565b600381111561272057634e487b7160e01b600052602160045260246000fd5b14155b80156127565750600061273e61034087016103208801614f86565b6001600160a01b031614806127565750610360850135155b1561278d576040517fb95baa2e00000000000000000000000000000000000000000000000000000000815260040160405180910390fd5b612860604051806102a001604052806000815260200160006001600160a01b0316815260200160006001600160a01b0316815260200160006001600160a01b0316815260200160006001600160a01b0316815260200160006001600160a01b031681526020016000801916815260200160008152602001600081526020016000815260200160008152602001600081526020016000815260200160008152602001600081526020016000815260200160008152602001600081526020016000815260200160008152602001600081525090565b6040516317ba7d8560e01b81527f6f48e16963713446db50a1503860d8e1fc3c888da56a85afcaa6dc29503cc61060048201526001600160a01b038816906317ba7d859060240160206040518083038186803b1580156128bf57600080fd5b505afa1580156128d3573d6000803e3d6000fd5b505050506040513d601f19601f820116820180604052508101906128f79190614fa2565b81602001906001600160a01b031690816001600160a01b031681525050866001600160a01b031663ca3350726040518163ffffffff1660e01b8152600401600060405180830381600087803b15801561294f57600080fd5b505af1158015612963573d6000803e3d6000fd5b50505050612a0c8760c01b6129e7896001600160a01b03166388c897276040518163ffffffff1660e01b815260040160206040518083038186803b1580156129aa57600080fd5b505afa1580156129be573d6000803e3d6000fd5b505050506040513d601f19601f820116820180604052508101906129e2919061523c565b6147e4565b6040516020016129f892919061543f565b60405160208183030381529060405261493a565b60c0820152612a216080870160608801614fe9565b15612b9a576000612a3860a0880160808901614f86565b6001600160a01b03161480612a6757506000612a5c61014088016101208901614f86565b6001600160a01b0316145b80612a74575060e0860135155b15612aab576040517f1d0bec7000000000000000000000000000000000000000000000000000000000815260040160405180910390fd5b670de0b6b3a7640000612ac261016088018861579d565b608001351180612af05750612adb61016087018761579d565b35612aea61016088018861579d565b60200135105b80612b1c5750612b0461016087018761579d565b60200135612b1661016088018861579d565b60400135105b15612b53576040517ff224d7d300000000000000000000000000000000000000000000000000000000815260040160405180910390fd5b670de0b6b3a76400006103808701351115612b9a576040517f5190664000000000000000000000000000000000000000000000000000000000815260040160405180910390fd5b60c08101516040517fb73dc38900000000000000000000000000000000000000000000000000000000815260048101919091526001600160a01b0388169063b73dc38990602401600060405180830381600087803b158015612bfb57600080fd5b505af1158015612c0f573d6000803e3d6000fd5b5050604051634941d71d60e11b81527f6e9fd67c3f2ca4e2b4e4b45b33b985dc3a1bffcadea24d12440a5901f72217b56004820152600092506001600160a01b038a169150639283ae3a9060240160206040518083038186803b158015612c7557600080fd5b505afa158015612c89573d6000803e3d6000fd5b505050506040513d601f19601f82011682018060405250810190612cad919061523c565b15612cb9576001612cbc565b60005b604080516101008101825233815281516101808101909252919250602080830191908190612cec908c018c614f86565b6001600160a01b031681526020018a6000016020013581526020018a600001604001358152602001600081526020018a6000016060016020810190612d319190614fe9565b15158152602001612d4860a08c0160808d01614f86565b6001600160a01b0316815260a0808c0135602083015260c08c0135604083015260e08c013560608301526101008c0135608083015201612d906101408c016101208d01614f86565b6001600160a01b03168152602001612db06101608c016101408d01614f86565b6001600160a01b031681525081526020016040518061012001604052808a806101600190612dde919061579d565b358152602001612df26101608c018c61579d565b602090810135825201612e096101608c018c61579d565b604001358152602001612e206101608c018c61579d565b606001358152602001612e376101608c018c61579d565b608001358152602001612e4e6101608c018c61579d565b612e5f9060c081019060a001614fe9565b15158152602001612e746101608c018c61579d565b612e859060e081019060c001614f86565b6001600160a01b03168152602001612ea16101608c018c61579d565b612eaf9060e0810190615758565b8080601f016020809104026020016040519081016040528093929190818152602001838380828437600092019190915250505090825250602001612ef76101608c018c61579d565b612f0690610100810190615758565b8080601f0160208091040260200160405190810160405280939291908181526020018383808284376000920191909152505050915250815260408051610100810190915260209091019080612f636101a08c016101808d0161513f565b6001811115612f8257634e487b7160e01b600052602160045260246000fd5b81526101a08b013560208201526101c08b013560408201526101e08b013560608201526102008b0135608082015260a001612fc56102408c016102208d01614fe9565b15158152602001612fdf368c90038c016102408d01615197565b8152602001612ff7368c90038c016102e08d01615208565b905281526040805180820182526103808b013581526103a08b013560208281019190915283015201600183600181111561304157634e487b7160e01b600052602160045260246000fd5b1461304d57600061304f565b425b8152602001600183600181111561307657634e487b7160e01b600052602160045260246000fd5b14613082576000613123565b604051634941d71d60e11b81527fee63cc82ca6990a4cc5fa3ca10d8a5281ae1758a8d8f22892c4badb7cacd111e60048201526001600160a01b038b1690639283ae3a9060240160206040518083038186803b1580156130e157600080fd5b505afa1580156130f5573d6000803e3d6000fd5b505050506040513d601f19601f82011682018060405250810190613119919061523c565b6131239042615811565b8152602001600183600181111561314a57634e487b7160e01b600052602160045260246000fd5b14613156576001613159565b60005b600481111561317857634e487b7160e01b600052602160045260246000fd5b8152506000808a6001600160a01b03166001600160a01b0316815260200190815260200160002060008460c00151815260200190815260200160002060008201518160000160006101000a8154816001600160a01b0302191690836001600160a01b0316021790555060208201518160010160008201518160000160006101000a8154816001600160a01b0302191690836001600160a01b0316021790555060208201518160010155604082015181600201556060820151816003015560808201518160040160006101000a81548160ff02191690831515021790555060a08201518160040160016101000a8154816001600160a01b0302191690836001600160a01b0316021790555060c0820151816005015560e08201518160060155610100820151816007015561012082015181600801556101408201518160090160006101000a8154816001600160a01b0302191690836001600160a01b0316021790555061016082015181600a0160006101000a8154816001600160a01b0302191690836001600160a01b031602179055505050604082015181600c01600082015181600001556020820151816001015560408201518160020155606082015181600301556080820151816004015560a08201518160050160006101000a81548160ff02191690831515021790555060c08201518160050160016101000a8154816001600160a01b0302191690836001600160a01b0316021790555060e08201518160060190805190602001906133ae929190614ce3565b5061010082015180516133cb916007840191602090910190614ce3565b50505060608201518051601483018054909190829060ff19166001838181111561340557634e487b7160e01b600052602160045260246000fd5b021790555060208201516001808301919091556040830151600283015560608301516003808401919091556080840151600484015560a084015160058401805491151560ff1992831617905560c0850151805160068601805492959094919385931691849081111561348757634e487b7160e01b600052602160045260246000fd5b0217905550602082810151825460408501517fffffffffffffff000000000000000000000000000000000000000000000000ff90911661010063ffffffff90931683027fffffffffffffff0000000000000000000000000000000000000000ffffffffff1617650100000000006001600160a01b03909216919091021783556060840151600184015560809093015160029092019190915560e0840151805160098501805460ff1981169215159283178255938301519294909384927fffffffffffffffffffffffffffffffffffffffffffffffffffffffffffff00009091167fffffffffffffffffffffffffffffffffffffffffffffffffffffffffffff00ff90911617908360038111156135ad57634e487b7160e01b600052602160045260246000fd5b0217905550604082015181546001600160a01b0390911662010000027fffffffffffffffffffff0000000000000000000000000000000000000000ffff90911617815560608201516001808301919091556080928301516002909201919091559085015180516020808701919091550151602185015560a0850151602285015560c0850151602385015560e0850151602485018054919450925060ff19169083600481111561366c57634e487b7160e01b600052602160045260246000fd5b02179055506003915061367c9050565b61368e61032089016103008a01615123565b60038111156136ad57634e487b7160e01b600052602160045260246000fd5b14156137035760c08201516137039089906136cc6103c08b018b615709565b8080602002602001604051908101604052809392919081815260200183836020028082843760009201919091525061495692505050565b60208083015160c084015160408051938401815260008452517f2b0974d00000000000000000000000000000000000000000000000000000000081526001600160a01b0390921692632b0974d092613761928d9290916004016156d8565b600060405180830381600087803b15801561377b57600080fd5b505af115801561378f573d6000803e3d6000fd5b5050505060c08201516040516317ba7d8560e01b81527f6f48e16963713446db50a1503860d8e1fc3c888da56a85afcaa6dc29503cc61060048201526001600160a01b038a169163896ae9ba91339084906317ba7d859060240160206040518083038186803b15801561380157600080fd5b505afa158015613815573d6000803e3d6000fd5b505050506040513d601f19601f820116820180604052508101906138399190614fa2565b6040517fffffffff0000000000000000000000000000000000000000000000000000000060e086901b16815260048101939093526001600160a01b039182166024840152166044820152606401600060405180830381600087803b1580156138a057600080fd5b505af11580156138b4573d6000803e3d6000fd5b50506040517f593e96b60000000000000000000000000000000000000000000000000000000081527fb12a3847d47fefceb164b75823af125f9aa82b76938df0ddf08c04cd314ba37c60048201526001600160a01b038b16925063593e96b6915060240160206040518083038186803b15801561393057600080fd5b505afa158015613944573d6000803e3d6000fd5b505050506040513d601f19601f820116820180604052508101906139689190614fa2565b6001600160a01b03166040830152600081600181111561399857634e487b7160e01b600052602160045260246000fd5b1415613a075781604001516001600160a01b031663df1eb6748360c001516040518263ffffffff1660e01b81526004016139d491815260200190565b600060405180830381600087803b1580156139ee57600080fd5b505af1158015613a02573d6000803e3d6000fd5b505050505b60c0820151604080516001600160a01b038b16815260208101929092523382820152517f1dfc244cab0c3cc88645f305adf7c51524a495c4eca07e193a69f39152da8fb79181900360600190a1505050611b0982826147d5565b816000613a6d826143ad565b6001600160a01b03851660008181526020818152604080832088845290915280822090516317ba7d8560e01b81527f43f8439a5cef099d0d9a92b15a64e34ff49963bb29d65f63204eda6591b810a16004820152939450929091906317ba7d859060240160206040518083038186803b158015613ae957600080fd5b505afa158015613afd573d6000803e3d6000fd5b505050506040513d601f19601f82011682018060405250810190613b219190614fa2565b600583015460248401546040517f65e6f7890000000000000000000000000000000000000000000000000000000081529293506001600160a01b03808516936365e6f78993613b84938c938c936101009093041691339160ff16906004016156a4565b602060405180830381600087803b158015613b9e57600080fd5b505af1158015613bb2573d6000803e3d6000fd5b505050506040513d601f19601f82011682018060405250810190613bd69190615005565b505050613be382826147d5565b50505050565b8143816001600160a01b031663b21634826040518163ffffffff1660e01b815260040160206040518083038186803b158015613c2457600080fd5b505afa158015613c38573d6000803e3d6000fd5b505050506040513d601f19601f82011682018060405250810190613c5c919061523c565b1415613caa5760405162461bcd60e51b815260206004820152601060248201527f7265656e7472616e6379206775617264000000000000000000000000000000006044820152606401610334565b806001600160a01b03166310fdb0a26040518163ffffffff1660e01b8152600401600060405180830381600087803b158015613ce557600080fd5b505af1158015613cf9573d6000803e3d6000fd5b5050505082613d07816142a8565b6001600160a01b0316336001600160a01b031614613d675760405162461bcd60e51b815260206004820152600b60248201527f4163636573732044656e790000000000000000000000000000000000000000006044820152606401610334565b670de0b6b3a764000083108015613d7e5750600083115b613d8757600080fd5b8260038190555050806001600160a01b031663d4f7af436040518163ffffffff1660e01b8152600401600060405180830381600087803b15801561045d57600080fd5b6000602081815292815260408082208452918152819020805482516101808101845260018301546001600160a01b0390811682526002840154828701526003840154828601526004840154606080840191909152600585015460ff808216151560808087019190915261010092839004851660a080880191909152600689015460c08089019190915260078a015460e0808a019190915260088b01548987015260098b0154610120808b0191909152600a8c015489166101408b0152600b8c015489166101608b01528c519081018d52600c8c0180548252600d8d01549e82019e909e52600e8c01549c81019c909c52600f8b0154968c019690965260108a0154928b019290925260118901549283161515908a0152919004831690870152601285018054929094169692959390840191613f049061589f565b80601f0160208091040260200160405190810160405280929190818152602001828054613f309061589f565b8015613f7d5780601f10613f5257610100808354040283529160200191613f7d565b820191906000526020600020905b815481529060010190602001808311613f6057829003601f168201915b50505050508152602001600782018054613f969061589f565b80601f0160208091040260200160405190810160405280929190818152602001828054613fc29061589f565b801561400f5780601f10613fe45761010080835404028352916020019161400f565b820191906000526020600020905b815481529060010190602001808311613ff257829003601f168201915b50505091909252505060408051610100810190915260148401805493949391925090829060ff16600181111561405557634e487b7160e01b600052602160045260246000fd5b600181111561407457634e487b7160e01b600052602160045260246000fd5b8152602001600182015481526020016002820154815260200160038201548152602001600482015481526020016005820160009054906101000a900460ff16151515158152602001600682016040518060a00160405290816000820160009054906101000a900460ff1660038111156140fd57634e487b7160e01b600052602160045260246000fd5b600381111561411c57634e487b7160e01b600052602160045260246000fd5b8152815461010080820463ffffffff16602080850191909152650100000000009092046001600160a01b031660408085019190915260018501546060850152600290940154608090930192909252928452815160a0810190925260098501805460ff8082161515855295850195939491939185019290041660038111156141b357634e487b7160e01b600052602160045260246000fd5b60038111156141d257634e487b7160e01b600052602160045260246000fd5b815281546201000090046001600160a01b03166020808301919091526001830154604080840191909152600290930154606090920191909152919092528151808301909252848101548252602185015490820152602284015460238501546024909501549394919390925060ff1688565b8161424e8133614a31565b6001600160a01b0383166000908152600260205260409020614270908361438b565b614296576001600160a01b0383166000908152600260205260409020613be39083614a87565b505050565b6060600061049c83614a9c565b6000816001600160a01b03166348f7f2a36040518163ffffffff1660e01b815260040160206040518083038186803b1580156142e357600080fd5b505afa1580156142f7573d6000803e3d6000fd5b505050506040513d601f19601f8201168201806040525081019061431b9190614fa2565b6001600160a01b0316638da5cb5b6040518163ffffffff1660e01b815260040160206040518083038186803b15801561435357600080fd5b505afa158015614367573d6000803e3d6000fd5b505050506040513d601f19601f820116820180604052508101906102719190614fa2565b6001600160a01b0381166000908152600183016020526040812054151561049c565b6040805160808101825260008082526020820181905291810182905260608101919091525a81600001818152505043826001600160a01b031663b21634826040518163ffffffff1660e01b815260040160206040518083038186803b15801561441557600080fd5b505afa158015614429573d6000803e3d6000fd5b505050506040513d601f19601f8201168201806040525081019061444d919061523c565b141561449b5760405162461bcd60e51b815260206004820152601060248201527f7265656e7472616e6379206775617264000000000000000000000000000000006044820152606401610334565b816001600160a01b03166310fdb0a26040518163ffffffff1660e01b8152600401600060405180830381600087803b1580156144d657600080fd5b505af11580156144ea573d6000803e3d6000fd5b50506040517f72c6838f0000000000000000000000000000000000000000000000000000000081527f1f2fd42ad6a6cacd573c4b212beb7a4e2499ad45d742a65337097f130e71daff6004820152600092506001600160a01b03851691506372c6838f9060240160206040518083038186803b15801561456957600080fd5b505afa15801561457d573d6000803e3d6000fd5b505050506040513d601f19601f820116820180604052508101906145a19190614fa2565b90506001600160a01b0381166145bd5760006020830152614672565b6001600160a01b038181166060840181905283516040517f43a8a3f1000000000000000000000000000000000000000000000000000000008152928616600484015260248301526000918291906343a8a3f190604401604080518083038186803b15801561462a57600080fd5b505afa15801561463e573d6000803e3d6000fd5b505050506040513d601f19601f820116820180604052508101906146629190615021565b9015156020860152604085015250505b50919050565b6040516317ba7d8560e01b81527f43f8439a5cef099d0d9a92b15a64e34ff49963bb29d65f63204eda6591b810a1600482015260009081906001600160a01b038816906317ba7d859060240160206040518083038186803b1580156146dc57600080fd5b505afa1580156146f0573d6000803e3d6000fd5b505050506040513d601f19601f820116820180604052508101906147149190614fa2565b6040517f387e9a90000000000000000000000000000000000000000000000000000000008152600481018690526001600160a01b03898116602483015288811660448301528781166064830152608482018690529192509082169063387e9a909060a401602060405180830381600087803b15801561479257600080fd5b505af11580156147a6573d6000803e3d6000fd5b505050506040513d601f19601f820116820180604052508101906147ca9190615005565b979650505050505050565b6147e0828233614af8565b5050565b60608161482457505060408051808201909152600181527f3000000000000000000000000000000000000000000000000000000000000000602082015290565b8160005b811561484e5780614838816158d4565b91506148479050600a83615829565b9150614828565b60008167ffffffffffffffff81111561487757634e487b7160e01b600052604160045260246000fd5b6040519080825280601f01601f1916602001820160405280156148a1576020820181803683370190505b5090505b8415614932576148b660018361585c565b91506148c3600a8661590f565b6148ce906030615811565b60f81b8183815181106148f157634e487b7160e01b600052603260045260246000fd5b60200101907effffffffffffffffffffffffffffffffffffffffffffffffffffffffffffff1916908160001a90535061492b600a86615829565b94506148a5565b949350505050565b600081516000141561494e57506000919050565b506020015190565b60005b81518160ff161015613be3576149bf828260ff168151811061498b57634e487b7160e01b600052603260045260246000fd5b6020908102919091018101516001600160a01b0387166000908152600183526040808220888352909352919091209061438b565b614a1f57614a1d828260ff16815181106149e957634e487b7160e01b600052603260045260246000fd5b6020908102919091018101516001600160a01b03871660009081526001835260408082208883529093529190912090614a87565b505b80614a29816158ef565b915050614959565b614a3b82826107d4565b6147e05760405162461bcd60e51b815260206004820152600b60248201527f6f6e6c79537465776172640000000000000000000000000000000000000000006044820152606401610334565b600061049c836001600160a01b038416614be9565b606081600001805480602002602001604051908101604052809291908181526020018280548015614aec57602002820191906000526020600020905b815481526020019060010190808311614ad8575b50505050509050919050565b816020015115614bae5781606001516001600160a01b0316635e5eb01384835a8651614b24919061585c565b60408088015190517fffffffff0000000000000000000000000000000000000000000000000000000060e087901b1681526001600160a01b03948516600482015293909216602484015260448301526064820152608401600060405180830381600087803b158015614b9557600080fd5b505af1158015614ba9573d6000803e3d6000fd5b505050505b826001600160a01b031663d4f7af436040518163ffffffff1660e01b8152600401600060405180830381600087803b15801561045d57600080fd5b6000818152600183016020526040812054614c3057508154600181810184556000848152602080822090930184905584548482528286019093526040902091909155610271565b506000610271565b604051806102800160405280614c4c614d67565b815260006020820181905260408201819052606082018190526080820181905260a0820181905260c0820181905260e08201819052610100820181905261012082018190526101408201819052610160820181905261018082018190526101a082018190526101c082018190526101e082018190526102008201819052610220820181905261024082018190526102609091015290565b828054614cef9061589f565b90600052602060002090601f016020900481019282614d115760008555614d57565b82601f10614d2a57805160ff1916838001178555614d57565b82800160010185558215614d57579182015b82811115614d57578251825591602001919060010190614d3c565b50614d63929150614ed4565b5090565b60405180610100016040528060006001600160a01b03168152602001614e0d60405180610180016040528060006001600160a01b0316815260200160008152602001600081526020016000815260200160001515815260200160006001600160a01b031681526020016000815260200160008152602001600081526020016000815260200160006001600160a01b0316815260200160006001600160a01b031681525090565b8152602001614e6c604051806101200160405280600081526020016000815260200160008152602001600081526020016000815260200160001515815260200160006001600160a01b0316815260200160608152602001606081525090565b8152602001614e79614ee9565b8152602001614e9b604051806040016040528060008152602001600081525090565b8152602001600081526020016000815260200160006004811115614ecf57634e487b7160e01b600052602160045260246000fd5b905290565b5b80821115614d635760008155600101614ed5565b604080516101008101909152806000815260200160008152602001600081526020016000815260200160008152602001600015158152602001614f556040805160a081019091528060008152600060208201819052604082018190526060820181905260809091015290565b81526040805160a0810182526000808252602082810182905292820181905260608201819052608082015291015290565b600060208284031215614f97578081fd5b813561049c81615978565b600060208284031215614fb3578081fd5b815161049c81615978565b60008060408385031215614fd0578081fd5b8235614fdb81615978565b946020939093013593505050565b600060208284031215614ffa578081fd5b813561049c8161598d565b600060208284031215615016578081fd5b815161049c8161598d565b60008060408385031215615033578182fd5b825161503e8161598d565b6020939093015192949293505050565b60008060408385031215615060578182fd5b823561506b81615978565b9150602083013561507b81615978565b809150509250929050565b60008060408385031215614fd0578182fd5b6000806000606084860312156150ac578081fd5b83356150b781615978565b92506020840135915060408401356150ce81615978565b809150509250925092565b600080604083850312156150eb578182fd5b82356150f681615978565b9150602083013567ffffffffffffffff811115615111578182fd5b83016103e0818603121561507b578182fd5b600060208284031215615134578081fd5b813561049c8161599b565b600060208284031215615150578081fd5b81356002811061049c578182fd5b600080600060608486031215615172578081fd5b835160068110615180578182fd5b602085015160409095015190969495509392505050565b600060a082840312156151a8578081fd5b6151b06157da565b82356151bb8161599b565b8152602083013563ffffffff811681146151d3578283fd5b602082015260408301356151e681615978565b6040820152606083810135908201526080928301359281019290925250919050565b600060a08284031215615219578081fd5b6152216157da565b823561522c8161598d565b815260208301356151d38161599b565b60006020828403121561524d578081fd5b5051919050565b6000815180845261526c816020860160208601615873565b601f017fffffffffffffffffffffffffffffffffffffffffffffffffffffffffffffffe0169290920160200192915050565b600581106152ae576152ae61594f565b9052565b80516152bd81615965565b825260208181015163ffffffff16908301526040808201516001600160a01b03169083015260608082015190830152608090810151910152565b8051600281106153095761530961594f565b808352506020810151602083015260408101516040830152606081015160608301526080810151608083015260a0810151151560a083015260c081015161535360c08401826152b2565b5060e0810151614296610160840182805115158252602081015161537681615965565b60208301526040818101516001600160a01b03169083015260608082015190830152608090810151910152565b6000610120825184526020830151602085015260408301516040850152606083015160608501526080830151608085015260a08301516153e760a086018215159052565b5060c083015161540260c08601826001600160a01b03169052565b5060e08301518160e086015261541a82860182615254565b91505061010080840151858303828701526154358382615254565b9695505050505050565b7fffffffffffffffff000000000000000000000000000000000000000000000000831681527f46756e64696e672300000000000000000000000000000000000000000000000060088201526000825161549f816010850160208701615873565b919091016010019392505050565b6001600160a01b03841681526020810183905260608101614932604083018461529e565b6001600160a01b0389811682528851166020820152600061046060208a0151604084015260408a0151606084015260608a0151608084015260808a015161551c60a085018215159052565b5060a08a01516001600160a01b03811660c08501525060c08a015160e0848101919091528a0151610100808501919091528a0151610120808501919091528a0151610140808501919091528a0151610160615581818601836001600160a01b03169052565b8b01516001600160a01b0316610180850152506101a083018190526155a88184018a6153a3565b9150506155b96101c08301886152f7565b85516103c083015260208601516103e083015284610400830152836104208301526155e861044083018461529e565b9998505050505050505050565b6020808252825182820181905260009190848201906040850190845b818110156156365783516001600160a01b031683529284019291840191600101615611565b50909695505050505050565b6000610120820190506001600160a01b03808816835260208188168185015281871660408501528560608501526080840191508460005b600581101561569657815184529282019290820190600101615679565b505050509695505050505050565b6001600160a01b0386811682526020820186905284811660408301528316606082015260a08101615435608083018461529e565b6001600160a01b03841681528260208201526060604082015260006157006060830184615254565b95945050505050565b6000808335601e1984360301811261571f578283fd5b83018035915067ffffffffffffffff821115615739578283fd5b6020019150600581901b360382131561575157600080fd5b9250929050565b6000808335601e1984360301811261576e578283fd5b83018035915067ffffffffffffffff821115615788578283fd5b60200191503681900382131561575157600080fd5b600082357ffffffffffffffffffffffffffffffffffffffffffffffffffffffffffffffee18336030181126157d0578182fd5b9190910192915050565b60405160a0810167ffffffffffffffff8111828210171561580b57634e487b7160e01b600052604160045260246000fd5b60405290565b6000821982111561582457615824615923565b500190565b60008261583857615838615939565b500490565b600081600019048311821515161561585757615857615923565b500290565b60008282101561586e5761586e615923565b500390565b60005b8381101561588e578181015183820152602001615876565b83811115613be35750506000910152565b600181811c908216806158b357607f821691505b6020821081141561467257634e487b7160e01b600052602260045260246000fd5b60006000198214156158e8576158e8615923565b5060010190565b600060ff821660ff81141561590657615906615923565b60010192915050565b60008261591e5761591e615939565b500690565b634e487b7160e01b600052601160045260246000fd5b634e487b7160e01b600052601260045260246000fd5b634e487b7160e01b600052602160045260246000fd5b600481106159755761597561594f565b50565b6001600160a01b038116811461597557600080fd5b801515811461597557600080fd5b6004811061597557600080fdfea264697066735822122086d9d8c0b397356e9856caf1fd885c23f16bd187cf7f76e2bc8e782ebca02d9e64736f6c63430008040033",
  "linkReferences": {},
  "deployedLinkReferences": {}
}