{
  "_format": "hh-sol-artifact-1",
  "contractName": "FlexDaoSetPollingAdapterContract",
  "sourceName": "contracts/flex/adatpers/FlexDaoSetPollingAdapter.sol",
  "abi": [
    {
      "inputs": [],
      "name": "VOTING_NOT_FINISH",
      "type": "error"
    },
    {
      "inputs": [
        {
          "internalType": "bytes32",
          "name": "proposalId",
          "type": "bytes32"
        }
      ],
      "name": "getWhitelist",
      "outputs": [
        {
          "internalType": "address[]",
          "name": "",
          "type": "address[]"
        }
      ],
      "stateMutability": "view",
      "type": "function"
    },
    {
      "inputs": [
        {
          "internalType": "address",
          "name": "",
          "type": "address"
        }
      ],
      "name": "ongoingPollForInvestmentProposal",
      "outputs": [
        {
          "internalType": "bytes32",
          "name": "",
          "type": "bytes32"
        }
      ],
      "stateMutability": "view",
      "type": "function"
    },
    {
      "inputs": [
        {
          "internalType": "address",
          "name": "",
          "type": "address"
        },
        {
          "internalType": "bytes32",
          "name": "",
          "type": "bytes32"
        }
      ],
      "name": "pollForInvestmentProposals",
      "outputs": [
        {
          "internalType": "bool",
          "name": "pollEnable",
          "type": "bool"
        },
        {
          "internalType": "string",
          "name": "name",
          "type": "string"
        },
        {
          "internalType": "uint8",
          "name": "varifyType",
          "type": "uint8"
        },
        {
          "internalType": "uint256",
          "name": "minHolding",
          "type": "uint256"
        },
        {
          "internalType": "address",
          "name": "tokenAddress",
          "type": "address"
        },
        {
          "internalType": "uint256",
          "name": "tokenId",
          "type": "uint256"
        },
        {
          "components": [
            {
              "internalType": "uint256",
              "name": "votingPeriod",
              "type": "uint256"
            },
            {
              "internalType": "uint8",
              "name": "votingPower",
              "type": "uint8"
            },
            {
              "internalType": "uint256",
              "name": "superMajority",
              "type": "uint256"
            },
            {
              "internalType": "uint256",
              "name": "quorum",
              "type": "uint256"
            },
            {
              "internalType": "uint256",
              "name": "votingAssetType",
              "type": "uint256"
            },
            {
              "internalType": "address",
              "name": "tokenAddress",
              "type": "address"
            },
            {
              "internalType": "uint256",
              "name": "tokenID",
              "type": "uint256"
            },
            {
              "internalType": "uint256",
              "name": "supportType",
              "type": "uint256"
            },
            {
              "internalType": "uint256",
              "name": "quorumType",
              "type": "uint256"
            }
          ],
          "internalType": "struct FlexDaosetLibrary.flexDaoPollingInfo",
          "name": "pollingInfo",
          "type": "tuple"
        },
        {
          "internalType": "uint256",
          "name": "creationTime",
          "type": "uint256"
        },
        {
          "internalType": "uint256",
          "name": "stopVoteTime",
          "type": "uint256"
        },
        {
          "internalType": "enum FlexDaosetLibrary.ProposalState",
          "name": "state",
          "type": "uint8"
        }
      ],
      "stateMutability": "view",
      "type": "function"
    },
    {
      "inputs": [
        {
          "internalType": "contract DaoRegistry",
          "name": "dao",
          "type": "address"
        },
        {
          "internalType": "bytes32",
          "name": "proposalId",
          "type": "bytes32"
        }
      ],
      "name": "processPollForInvestmentProposal",
      "outputs": [
        {
          "internalType": "enum IFlexVoting.VotingState",
          "name": "",
          "type": "uint8"
        },
        {
          "internalType": "uint256",
          "name": "",
          "type": "uint256"
        },
        {
          "internalType": "uint256",
          "name": "",
          "type": "uint256"
        },
        {
          "internalType": "uint128",
          "name": "",
          "type": "uint128"
        }
      ],
      "stateMutability": "nonpayable",
      "type": "function"
    },
    {
      "inputs": [
        {
          "components": [
            {
              "internalType": "contract DaoRegistry",
              "name": "dao",
              "type": "address"
            },
            {
              "internalType": "bool",
              "name": "pollEnable",
              "type": "bool"
            },
            {
              "components": [
                {
                  "internalType": "string",
                  "name": "name",
                  "type": "string"
                },
                {
                  "internalType": "uint8",
                  "name": "varifyType",
                  "type": "uint8"
                },
                {
                  "internalType": "uint256",
                  "name": "minHolding",
                  "type": "uint256"
                },
                {
                  "internalType": "address",
                  "name": "tokenAddress",
                  "type": "address"
                },
                {
                  "internalType": "uint256",
                  "name": "tokenId",
                  "type": "uint256"
                },
                {
                  "internalType": "address[]",
                  "name": "whiteList",
                  "type": "address[]"
                }
              ],
              "internalType": "struct FlexDaosetLibrary.FlexDaoPollVoterMembershipInfo",
              "name": "pollvoterMembership",
              "type": "tuple"
            },
            {
              "components": [
                {
                  "internalType": "uint256",
                  "name": "votingPeriod",
                  "type": "uint256"
                },
                {
                  "internalType": "uint8",
                  "name": "votingPower",
                  "type": "uint8"
                },
                {
                  "internalType": "uint256",
                  "name": "superMajority",
                  "type": "uint256"
                },
                {
                  "internalType": "uint256",
                  "name": "quorum",
                  "type": "uint256"
                },
                {
                  "internalType": "uint256",
                  "name": "votingAssetType",
                  "type": "uint256"
                },
                {
                  "internalType": "address",
                  "name": "tokenAddress",
                  "type": "address"
                },
                {
                  "internalType": "uint256",
                  "name": "tokenID",
                  "type": "uint256"
                },
                {
                  "internalType": "uint256",
                  "name": "supportType",
                  "type": "uint256"
                },
                {
                  "internalType": "uint256",
                  "name": "quorumType",
                  "type": "uint256"
                }
              ],
              "internalType": "struct FlexDaosetLibrary.flexDaoPollingInfo",
              "name": "pollingInfo",
              "type": "tuple"
            }
          ],
          "internalType": "struct FlexDaosetLibrary.PollForInvestmentParams",
          "name": "params",
          "type": "tuple"
        }
      ],
      "name": "submitPollForInvestmentProposal",
      "outputs": [
        {
          "internalType": "bytes32",
          "name": "",
          "type": "bytes32"
        }
      ],
      "stateMutability": "nonpayable",
      "type": "function"
    }
  ],
  "bytecode": "0x608060405234801561001057600080fd5b50612b91806100206000396000f3fe608060405234801561001057600080fd5b50600436106100675760003560e01c8063dabd56a511610050578063dabd56a5146100cc578063ea739f30146100ec578063ef2c0e561461010f57600080fd5b80635f8e03611461006c578063791c73ba1461009e575b600080fd5b61007f61007a3660046122ff565b610122565b6040516100959a999897969594939291906126d0565b60405180910390f35b6100be6100ac3660046122c7565b60006020819052908152604090205481565b604051908152602001610095565b6100df6100da366004612429565b61027b565b60405161009591906126bd565b6100ff6100fa366004612441565b61029b565b604051610095949392919061287b565b6100be61011d36600461248c565b6104f4565b600160208181526000938452604080852090915291835291208054918101805460ff9093169261015190612a35565b80601f016020809104026020016040519081016040528092919081815260200182805461017d90612a35565b80156101ca5780601f1061019f576101008083540402835291602001916101ca565b820191906000526020600020905b8154815290600101906020018083116101ad57829003601f168201915b5050506002840154600385015460048601546005870154604080516101208101825260068a0154815260078a015460ff908116602083015260088b01549282019290925260098a01546060820152600a8a01546080820152600b8a01546001600160a01b0390811660a0830152600c8b015460c0830152600d8b015460e0830152600e8b0154610100830152600f8b015460108c01546011909c01549a9b9784169a9699509416965091949193168a565b600081815260026020526040902060609061029590610ca1565b92915050565b600080600080856001600160a01b03166317ba7d857fe564b2da9fb62dadceed6d94ac5884ac5f464424e7be661d7d6181d49fa87b3f6040518263ffffffff1660e01b81526004016102ef91815260200190565b60206040518083038186803b15801561030757600080fd5b505afa15801561031b573d6000803e3d6000fd5b505050506040513d601f19601f8201168201806040525081019061033f91906122e3565b6001600160a01b0316336001600160a01b0316146103a45760405162461bcd60e51b815260206004820152600760248201527f216163636573730000000000000000000000000000000000000000000000000060448201526064015b60405180910390fd5b6001600160a01b03861660009081526001602090815260408083208884529091528120908080806103d58b8b610cb5565b92965090945092509050600284600581111561040157634e487b7160e01b600052602160045260246000fd5b141561042e576104128b8b87610ed5565b6011850180546002919060ff19166001835b02179055506104c8565b600384600581111561045057634e487b7160e01b600052602160045260246000fd5b148061047b5750600184600581111561047957634e487b7160e01b600052602160045260246000fd5b145b15610496576011850180546003919060ff1916600183610424565b6040517f70fc772800000000000000000000000000000000000000000000000000000000815260040160405180910390fd5b6001600160a01b039a909a16600090815260208190526040812055919990989197509095509350505050565b600061050360208301836122c7565b6040516317ba7d8560e01b81527fe564b2da9fb62dadceed6d94ac5884ac5f464424e7be661d7d6181d49fa87b3f60048201526001600160a01b0391909116906317ba7d859060240160206040518083038186803b15801561056457600080fd5b505afa158015610578573d6000803e3d6000fd5b505050506040513d601f19601f8201168201806040525081019061059c91906122e3565b6001600160a01b0316336001600160a01b0316146105fc5760405162461bcd60e51b815260206004820152600760248201527f2161636365737300000000000000000000000000000000000000000000000000604482015260640161039b565b6000808061060d60208601866122c7565b6001600160a01b03166001600160a01b03168152602001908152602001600020541461067b5760405162461bcd60e51b815260206004820152600760248201527f217375626d697400000000000000000000000000000000000000000000000000604482015260640161039b565b61068860208301836122c7565b6001600160a01b031663018e5bea6040518163ffffffff1660e01b8152600401600060405180830381600087803b1580156106c257600080fd5b505af11580156106d6573d6000803e3d6000fd5b506000925061079c91506106ef905060208501856122c7565b60c01b61077761070260208701876122c7565b6001600160a01b031663419f45b46040518163ffffffff1660e01b815260040160206040518083038186803b15801561073a57600080fd5b505afa15801561074e573d6000803e3d6000fd5b505050506040513d601f19601f8201168201806040525081019061077291906124f5565b6110a6565b60405160200161078892919061264f565b6040516020818303038152906040526111fc565b90506040518061014001604052808460200160208101906107bd91906123f1565b151581526020016107d16040860186612951565b6107db908061290c565b8080601f0160208091040260200160405190810160405280939291908181526020018383808284376000920191909152505050908252506020016108226040860186612951565b61083390604081019060200161250d565b60ff1681526020016108486040860186612951565b6040013581526020018480604001906108619190612951565b6108729060808101906060016122c7565b6001600160a01b0316815260200161088d6040860186612951565b608001358152602001604051806101200160405280866060016000013581526020018660600160200160208101906108c5919061250d565b60ff16815260a0870135602082015260c0870135604082015260e087013560608201526080016108fd610120880161010089016122c7565b6001600160a01b031681526020018660600160c0013581526020018660600160e001358152602001866060016101000135815250815260200142815260200184600001602081019061094f91906122c7565b604051634941d71d60e11b81527f9876c0f0505bfb2b1c38d3bbd25ba13159172cd0868972d76927723f5a9480fc60048201526001600160a01b039190911690639283ae3a9060240160206040518083038186803b1580156109b057600080fd5b505afa1580156109c4573d6000803e3d6000fd5b505050506040513d601f19601f820116820180604052508101906109e891906124f5565b6109f290426129c2565b81526020016000905260016000610a0c60208701876122c7565b6001600160a01b03168152602080820192909252604090810160009081208582528352208251815460ff19169015151781558282015180519192610a589260018501929091019061221e565b5060408281015160028301805460ff92831660ff19918216179091556060808601516003808701919091556080808801516004880180546001600160a01b039283167fffffffffffffffffffffffff00000000000000000000000000000000000000009182161790915560a0808b015160058b015560c0808c0151805160068d0155602081015160078d01805491909b16908a16179099559888015160088b01559487015160098a015591860151600a89015592850151600b880180549190941691161790915592820151600c85015560e080830151600d86015561010092830151600e860155850151600f8501559084015160108401556101208401516011840180549193909291909116906001908490811115610b8757634e487b7160e01b600052602160045260246000fd5b021790555060009150610b9f90506040850185612951565b610bad9060a08101906128bd565b90501115610c5c5760005b610bc56040850185612951565b610bd39060a08101906128bd565b90508160ff161015610c5a57610c47610bef6040860186612951565b610bfd9060a08101906128bd565b8360ff16818110610c1e57634e487b7160e01b600052603260045260246000fd5b9050602002016020810190610c3391906122c7565b600084815260026020526040902090611218565b5080610c5281612aa9565b915050610bb8565b505b80600080610c6d60208701876122c7565b6001600160a01b031681526020808201929092526040016000209190915561029590610c9b908501856122c7565b8261122d565b60606000610cae83611443565b9392505050565b600080600080856001600160a01b03166330490e91866040518263ffffffff1660e01b8152600401610ce991815260200190565b600060405180830381600087803b158015610d0357600080fd5b505af1158015610d17573d6000803e3d6000fd5b50506040516317ba7d8560e01b81527f0d479c38716a0298633b1dbf1ce145a3fbd1d79ca4527de172afc3bad04a2ba76004820152600092506001600160a01b03891691506317ba7d859060240160206040518083038186803b158015610d7d57600080fd5b505afa158015610d91573d6000803e3d6000fd5b505050506040513d601f19601f82011682018060405250810190610db591906122e3565b90506001600160a01b038116610e0d5760405162461bcd60e51b815260206004820152600f60248201527f21766f74696e67436f6e74726163740000000000000000000000000000000000604482015260640161039b565b6040517f76225e730000000000000000000000000000000000000000000000000000000081526001600160a01b0388811660048301526024820188905260009182918291908516906376225e7390604401606060405180830381600087803b158015610e7857600080fd5b505af1158015610e8c573d6000803e3d6000fd5b505050506040513d601f19601f82011682018060405250810190610eb09190612453565b9250925092506000610ec28b8b61149f565b939b929a50909850919650945050505050565b6040516317ba7d8560e01b81527fff9379b98b93eb3bd1fac62fd2258a7955d70d2d5279c40064145b6c9646df3760048201526000906001600160a01b038516906317ba7d859060240160206040518083038186803b158015610f3757600080fd5b505afa158015610f4b573d6000803e3d6000fd5b505050506040513d601f19601f82011682018060405250810190610f6f91906122e3565b604080516101208101825260068501548152600785015460ff90811660208084019190915260088701548385015260098701546060840152600a8701546080840152600c87015460a084015260028088015490921660c0840152600387015460e0840152600587015461010084015283518085018552600b8801546001600160a01b039081168252600489015481168284015260008a81529390925293909120939450841692638bf209e09288929161102790610ca1565b87546040517fffffffff0000000000000000000000000000000000000000000000000000000060e088901b16815261106e959493929160ff169060018b01906004016127a6565b600060405180830381600087803b15801561108857600080fd5b505af115801561109c573d6000803e3d6000fd5b5050505050505050565b6060816110e657505060408051808201909152600181527f3000000000000000000000000000000000000000000000000000000000000000602082015290565b8160005b811561111057806110fa81612a70565b91506111099050600a836129da565b91506110ea565b60008167ffffffffffffffff81111561113957634e487b7160e01b600052604160045260246000fd5b6040519080825280601f01601f191660200182016040528015611163576020820181803683370190505b5090505b84156111f4576111786001836129ee565b9150611185600a86612ac9565b6111909060306129c2565b60f81b8183815181106111b357634e487b7160e01b600052603260045260246000fd5b60200101907effffffffffffffffffffffffffffffffffffffffffffffffffffffffffffff1916908160001a9053506111ed600a866129da565b9450611167565b949350505050565b600081516000141561121057506000919050565b506020015190565b6000610cae836001600160a01b03841661175f565b6040517fb73dc389000000000000000000000000000000000000000000000000000000008152600481018290526001600160a01b0383169063b73dc38990602401600060405180830381600087803b15801561128857600080fd5b505af115801561129c573d6000803e3d6000fd5b50506040516317ba7d8560e01b81527f0d479c38716a0298633b1dbf1ce145a3fbd1d79ca4527de172afc3bad04a2ba76004820152600092506001600160a01b03851691506317ba7d859060240160206040518083038186803b15801561130257600080fd5b505afa158015611316573d6000803e3d6000fd5b505050506040513d601f19601f8201168201806040525081019061133a91906122e3565b604080516020810182526000815290517f2b0974d00000000000000000000000000000000000000000000000000000000081529192506001600160a01b03831691632b0974d091611391918791879160040161284a565b600060405180830381600087803b1580156113ab57600080fd5b505af11580156113bf573d6000803e3d6000fd5b50506040517f815a2bf4000000000000000000000000000000000000000000000000000000008152600481018590526001600160a01b0384811660248301528616925063815a2bf49150604401600060405180830381600087803b15801561142657600080fd5b505af115801561143a573d6000803e3d6000fd5b50505050505050565b60608160000180548060200260200160405190810160405280929190818152602001828054801561149357602002820191906000526020600020905b81548152602001906001019080831161147f575b50505050509050919050565b6000806114ab846117ae565b6040516317ba7d8560e01b81527f0d479c38716a0298633b1dbf1ce145a3fbd1d79ca4527de172afc3bad04a2ba7600482015290915060009081906001600160a01b038716906317ba7d859060240160206040518083038186803b15801561151257600080fd5b505afa158015611526573d6000803e3d6000fd5b505050506040513d601f19601f8201168201806040525081019061154a91906122e3565b905060005b83518160ff16101561175457816001600160a01b03166324a2cceb8888878560ff168151811061158f57634e487b7160e01b600052603260045260246000fd5b60200260200101516040518463ffffffff1660e01b81526004016115d3939291906001600160a01b0393841681526020810192909252909116604082015260600190565b60206040518083038186803b1580156115eb57600080fd5b505afa1580156115ff573d6000803e3d6000fd5b505050506040513d601f19601f82011682018060405250810190611623919061240d565b1561170157816001600160a01b03166391d2fd538888878560ff168151811061165c57634e487b7160e01b600052603260045260246000fd5b60200260200101516040518463ffffffff1660e01b81526004016116a0939291906001600160a01b0393841681526020810192909252909116604082015260600190565b60206040518083038186803b1580156116b857600080fd5b505afa1580156116cc573d6000803e3d6000fd5b505050506040513d601f19601f820116820180604052508101906116f091906124c5565b6116fa908461298e565b9250611742565b61173587858360ff168151811061172857634e487b7160e01b600052603260045260246000fd5b6020026020010151611825565b61173f908461298e565b92505b8061174c81612aa9565b91505061154f565b509095945050505050565b60008181526001830160205260408120546117a657508154600181810184556000848152602080822090930184905584548482528286019093526040902091909155610295565b506000610295565b6060816001600160a01b031663a6f636416040518163ffffffff1660e01b815260040160006040518083038186803b1580156117e957600080fd5b505afa1580156117fd573d6000803e3d6000fd5b505050506040513d6000823e601f3d908101601f19168201604052610295919081019061232a565b604051634941d71d60e11b81527f75b7d343967750d1f6c15979b7559cea8be22ff1a06a51681b9cbef0d2fff4fe600482015260009081906001600160a01b03851690639283ae3a9060240160206040518083038186803b15801561188957600080fd5b505afa15801561189d573d6000803e3d6000fd5b505050506040513d601f19601f820116820180604052508101906118c191906124f5565b604051634941d71d60e11b81527f18ef0b57fe939edb640a200fdf533493bd8f26a274151543a109b64c857e20f360048201529091506000906001600160a01b03861690639283ae3a9060240160206040518083038186803b15801561192657600080fd5b505afa15801561193a573d6000803e3d6000fd5b505050506040513d601f19601f8201168201806040525081019061195e91906124f5565b6040516317ba7d8560e01b81527f37cbe06c1044f98864ea25736326bc1d488e24e5e23781ea2ad64c4069cb9e6e60048201529091506000906001600160a01b038716906317ba7d859060240160206040518083038186803b1580156119c357600080fd5b505afa1580156119d7573d6000803e3d6000fd5b505050506040513d601f19601f820116820180604052508101906119fb91906122e3565b90508160011415611d9c57604051634941d71d60e11b81527f77b1580d1632c74a32483c26a7156260a89ae4138b020ea7d09b0dcf24f1ea2460048201526000906001600160a01b03881690639283ae3a9060240160206040518083038186803b158015611a6857600080fd5b505afa158015611a7c573d6000803e3d6000fd5b505050506040513d601f19601f82011682018060405250810190611aa091906124f5565b6040517ffd310d290000000000000000000000000000000000000000000000000000000081527fb5a1ad3f04728d7c38547e3d43006a1ec090a02fce04bbb1d0ee4519a1921e5760048201529091506000906001600160a01b0389169063fd310d299060240160206040518083038186803b158015611b1e57600080fd5b505afa158015611b32573d6000803e3d6000fd5b505050506040513d601f19601f82011682018060405250810190611b5691906122e3565b9050600085611bf4576040516370a0823160e01b81526001600160a01b038981166004830152670de0b6b3a764000091908416906370a082319060240160206040518083038186803b158015611bab57600080fd5b505afa158015611bbf573d6000803e3d6000fd5b505050506040513d601f19601f82011682018060405250810190611be391906124f5565b611bed91906129da565b9050611d33565b8560011415611c77576040516370a0823160e01b81526001600160a01b0389811660048301528316906370a08231906024015b60206040518083038186803b158015611c3f57600080fd5b505afa158015611c53573d6000803e3d6000fd5b505050506040513d601f19601f82011682018060405250810190611bed91906124f5565b8560021415611ccc576040517efdd58e0000000000000000000000000000000000000000000000000000000081526001600160a01b0389811660048301526024820185905283169062fdd58e90604401611c27565b8560031415611d24576040517fa6d945cc0000000000000000000000000000000000000000000000000000000081526001600160a01b038a81166004830152898116602483015285169063a6d945cc90604401611c27565b60009650505050505050610295565b60008111611d4a5760009650505050505050610295565b677fffffffffffffff8110611d685760329650505050505050610295565b6000611d83611d7e611d79846120ed565b61210b565b612202565b67ffffffffffffffff1697506102959650505050505050565b8160021415611db15760019350505050610295565b816120e157604051634941d71d60e11b81527f77b1580d1632c74a32483c26a7156260a89ae4138b020ea7d09b0dcf24f1ea2460048201526000906001600160a01b03881690639283ae3a9060240160206040518083038186803b158015611e1857600080fd5b505afa158015611e2c573d6000803e3d6000fd5b505050506040513d601f19601f82011682018060405250810190611e5091906124f5565b6040517ffd310d290000000000000000000000000000000000000000000000000000000081527fb5a1ad3f04728d7c38547e3d43006a1ec090a02fce04bbb1d0ee4519a1921e5760048201529091506000906001600160a01b0389169063fd310d299060240160206040518083038186803b158015611ece57600080fd5b505afa158015611ee2573d6000803e3d6000fd5b505050506040513d601f19601f82011682018060405250810190611f0691906122e3565b9050600085611fa4576040516370a0823160e01b81526001600160a01b038981166004830152670de0b6b3a764000091908416906370a082319060240160206040518083038186803b158015611f5b57600080fd5b505afa158015611f6f573d6000803e3d6000fd5b505050506040513d601f19601f82011682018060405250810190611f9391906124f5565b611f9d91906129da565b90506120d4565b8560011415612027576040516370a0823160e01b81526001600160a01b0389811660048301528316906370a08231906024015b60206040518083038186803b158015611fef57600080fd5b505afa158015612003573d6000803e3d6000fd5b505050506040513d601f19601f82011682018060405250810190611f9d91906124f5565b856002141561207c576040517efdd58e0000000000000000000000000000000000000000000000000000000081526001600160a01b0389811660048301526024820185905283169062fdd58e90604401611fd7565b8560031415611d24576040517fa6d945cc0000000000000000000000000000000000000000000000000000000081526001600160a01b038a81166004830152898116602483015285169063a6d945cc90604401611fd7565b9550610295945050505050565b60009350505050610295565b6000677fffffffffffffff82111561210457600080fd5b5060401b90565b60008082600f0b1361211c57600080fd5b6000600f83900b68010000000000000000811261213b576040918201911d5b640100000000811261214f576020918201911d5b620100008112612161576010918201911d5b6101008112612172576008918201911d5b60108112612182576004918201911d5b60048112612192576002918201911d5b600281126121a1576001820191505b7fffffffffffffffffffffffffffffffffffffffffffffffffffffffffffffffc0820160401b600f85900b607f8490031b6780000000000000005b60008113156117545790800260ff81901c8281029390930192607f011c9060011d6121dc565b60008082600f0b121561221457600080fd5b50600f0b60401d90565b82805461222a90612a35565b90600052602060002090601f01602090048101928261224c5760008555612292565b82601f1061226557805160ff1916838001178555612292565b82800160010185558215612292579182015b82811115612292578251825591602001919060010190612277565b5061229e9291506122a2565b5090565b5b8082111561229e57600081556001016122a3565b80516122c281612b35565b919050565b6000602082840312156122d8578081fd5b8135610cae81612b35565b6000602082840312156122f4578081fd5b8151610cae81612b35565b60008060408385031215612311578081fd5b823561231c81612b35565b946020939093013593505050565b6000602080838503121561233c578182fd5b825167ffffffffffffffff80821115612353578384fd5b818501915085601f830112612366578384fd5b81518181111561237857612378612b1f565b8060051b604051601f19603f8301168101818110858211171561239d5761239d612b1f565b604052828152858101935084860182860187018a10156123bb578788fd5b8795505b838610156123e4576123d0816122b7565b8552600195909501949386019386016123bf565b5098975050505050505050565b600060208284031215612402578081fd5b8135610cae81612b4d565b60006020828403121561241e578081fd5b8151610cae81612b4d565b60006020828403121561243a578081fd5b5035919050565b60008060408385031215612311578182fd5b600080600060608486031215612467578081fd5b835160068110612475578182fd5b602085015160409095015190969495509392505050565b60006020828403121561249d578081fd5b813567ffffffffffffffff8111156124b3578182fd5b82016101808185031215610cae578182fd5b6000602082840312156124d6578081fd5b81516fffffffffffffffffffffffffffffffff81168114610cae578182fd5b600060208284031215612506578081fd5b5051919050565b60006020828403121561251e578081fd5b813560ff81168114610cae578182fd5b6000815180845260208085019450808401835b838110156125665781516001600160a01b031687529582019590820190600101612541565b509495945050505050565b60008151808452612589816020860160208601612a05565b601f01601f19169290920160200192915050565b600481106125ad576125ad612b09565b9052565b8054600090600181811c90808316806125cb57607f831692505b60208084108214156125eb57634e487b7160e01b86526022600452602486fd5b83885260208801828015612606576001811461261757612642565b60ff19871682528282019750612642565b60008981526020902060005b8781101561263c57815484820152908601908401612623565b83019850505b5050505050505092915050565b7fffffffffffffffff000000000000000000000000000000000000000000000000831681527f506f6c6c20466f7220496e766573746d656e74202300000000000000000000006008820152600082516126af81601d850160208701612a05565b91909101601d019392505050565b602081526000610cae602083018461252e565b60006102408c151583528060208401526126ec8184018d612571565b91505060ff8a1660408301528860608301526001600160a01b0380891660808401528760a0840152865160c084015260ff60208801511660e084015260408701516101008181860152606089015161012086015260808901516101408601528260a08a01511661016086015260c089015161018086015260e08901516101a0860152808901516101c0860152505050846101e08301528361020083015261279761022083018461259d565b9b9a5050505050505050505050565b60006101e06001600160a01b03808a16845260208085018a855b60098110156127dd578151835291830191908301906001016127c0565b505050610140850189855b60028110156128075781518516835291830191908301906001016127e8565b50505050508061018084015261281f8184018761252e565b8515156101a085015290508281036101c084015261283d81856125b1565b9998505050505050505050565b6001600160a01b03841681528260208201526060604082015260006128726060830184612571565b95945050505050565b608081016006861061288f5761288f612b09565b948152602081019390935260408301919091526fffffffffffffffffffffffffffffffff1660609091015290565b6000808335601e198436030181126128d3578283fd5b83018035915067ffffffffffffffff8211156128ed578283fd5b6020019150600581901b360382131561290557600080fd5b9250929050565b6000808335601e19843603018112612922578182fd5b83018035915067ffffffffffffffff82111561293c578283fd5b60200191503681900382131561290557600080fd5b600082357fffffffffffffffffffffffffffffffffffffffffffffffffffffffffffffff41833603018112612984578182fd5b9190910192915050565b60006fffffffffffffffffffffffffffffffff8083168185168083038211156129b9576129b9612add565b01949350505050565b600082198211156129d5576129d5612add565b500190565b6000826129e9576129e9612af3565b500490565b600082821015612a0057612a00612add565b500390565b60005b83811015612a20578181015183820152602001612a08565b83811115612a2f576000848401525b50505050565b600181811c90821680612a4957607f821691505b60208210811415612a6a57634e487b7160e01b600052602260045260246000fd5b50919050565b60007fffffffffffffffffffffffffffffffffffffffffffffffffffffffffffffffff821415612aa257612aa2612add565b5060010190565b600060ff821660ff811415612ac057612ac0612add565b60010192915050565b600082612ad857612ad8612af3565b500690565b634e487b7160e01b600052601160045260246000fd5b634e487b7160e01b600052601260045260246000fd5b634e487b7160e01b600052602160045260246000fd5b634e487b7160e01b600052604160045260246000fd5b6001600160a01b0381168114612b4a57600080fd5b50565b8015158114612b4a57600080fdfea264697066735822122032d1af16485779424cec0455a1b77f7702db825e958b50b4d97456dc2709f42d64736f6c63430008040033",
  "linkReferences": {},
  "deployedLinkReferences": {}
}