{
  "_format": "hh-sol-artifact-1",
  "contractName": "FlexInvestmentPoolAdapterContract",
  "sourceName": "contracts/flex/adatpers/FlexFundingPoolAdapter.sol",
  "abi": [
    {
      "inputs": [],
      "name": "ExceedMaxDepositAmount",
      "type": "error"
    },
    {
      "inputs": [],
      "name": "ExceedMaxFundingAmount",
      "type": "error"
    },
    {
      "inputs": [],
      "name": "FundingProposalNotFinalize",
      "type": "error"
    },
    {
      "inputs": [],
      "name": "LessMinDepositAmount",
      "type": "error"
    },
    {
      "inputs": [],
      "name": "MaxInvestorReach",
      "type": "error"
    },
    {
      "inputs": [],
      "name": "NotInFundRaise",
      "type": "error"
    },
    {
      "anonymous": false,
      "inputs": [
        {
          "indexed": false,
          "internalType": "address",
          "name": "daoAddress",
          "type": "address"
        },
        {
          "indexed": false,
          "internalType": "bytes32",
          "name": "proposalId",
          "type": "bytes32"
        },
        {
          "indexed": false,
          "internalType": "uint256",
          "name": "amount",
          "type": "uint256"
        },
        {
          "indexed": false,
          "internalType": "address",
          "name": "account",
          "type": "address"
        }
      ],
      "name": "Deposit",
      "type": "event"
    },
    {
      "anonymous": false,
      "inputs": [
        {
          "indexed": false,
          "internalType": "address",
          "name": "daoAddress",
          "type": "address"
        },
        {
          "indexed": false,
          "internalType": "string",
          "name": "name",
          "type": "string"
        },
        {
          "indexed": false,
          "internalType": "bytes32",
          "name": "hashName",
          "type": "bytes32"
        }
      ],
      "name": "InvestorMembershipCreated",
      "type": "event"
    },
    {
      "anonymous": false,
      "inputs": [
        {
          "indexed": false,
          "internalType": "address",
          "name": "daoAddress",
          "type": "address"
        },
        {
          "indexed": false,
          "internalType": "bytes32",
          "name": "proposalId",
          "type": "bytes32"
        },
        {
          "indexed": false,
          "internalType": "uint256",
          "name": "amount",
          "type": "uint256"
        },
        {
          "indexed": false,
          "internalType": "address",
          "name": "account",
          "type": "address"
        }
      ],
      "name": "WithDraw",
      "type": "event"
    },
    {
      "inputs": [
        {
          "internalType": "contract DaoRegistry",
          "name": "dao",
          "type": "address"
        },
        {
          "internalType": "bytes32",
          "name": "proposalId",
          "type": "bytes32"
        },
        {
          "internalType": "address",
          "name": "account",
          "type": "address"
        }
      ],
      "name": "balanceOf",
      "outputs": [
        {
          "internalType": "uint160",
          "name": "",
          "type": "uint160"
        }
      ],
      "stateMutability": "view",
      "type": "function"
    },
    {
      "inputs": [
        {
          "internalType": "contract DaoRegistry",
          "name": "dao",
          "type": "address"
        }
      ],
      "name": "clearInvestorWhitelist",
      "outputs": [],
      "stateMutability": "nonpayable",
      "type": "function"
    },
    {
      "inputs": [
        {
          "internalType": "contract DaoRegistry",
          "name": "dao",
          "type": "address"
        },
        {
          "internalType": "bytes32",
          "name": "proposalId",
          "type": "bytes32"
        },
        {
          "internalType": "uint256",
          "name": "amount",
          "type": "uint256"
        }
      ],
      "name": "deposit",
      "outputs": [],
      "stateMutability": "nonpayable",
      "type": "function"
    },
    {
      "inputs": [
        {
          "internalType": "contract DaoRegistry",
          "name": "dao",
          "type": "address"
        },
        {
          "internalType": "bytes32",
          "name": "proposalId",
          "type": "bytes32"
        }
      ],
      "name": "escorwExtraFreeInFund",
      "outputs": [],
      "stateMutability": "nonpayable",
      "type": "function"
    },
    {
      "inputs": [
        {
          "internalType": "address",
          "name": "",
          "type": "address"
        },
        {
          "internalType": "bytes32",
          "name": "",
          "type": "bytes32"
        }
      ],
      "name": "freeINPriorityDeposits",
      "outputs": [
        {
          "internalType": "uint256",
          "name": "",
          "type": "uint256"
        }
      ],
      "stateMutability": "view",
      "type": "function"
    },
    {
      "inputs": [
        {
          "internalType": "contract DaoRegistry",
          "name": "dao",
          "type": "address"
        }
      ],
      "name": "getParticipanWhitelist",
      "outputs": [
        {
          "internalType": "address[]",
          "name": "",
          "type": "address[]"
        }
      ],
      "stateMutability": "view",
      "type": "function"
    },
    {
      "inputs": [
        {
          "internalType": "contract DaoRegistry",
          "name": "dao",
          "type": "address"
        }
      ],
      "name": "getPriorityDepositWhitelist",
      "outputs": [
        {
          "internalType": "address[]",
          "name": "",
          "type": "address[]"
        }
      ],
      "stateMutability": "view",
      "type": "function"
    },
    {
      "inputs": [
        {
          "internalType": "contract DaoRegistry",
          "name": "dao",
          "type": "address"
        },
        {
          "internalType": "bytes32",
          "name": "proposalId",
          "type": "bytes32"
        }
      ],
      "name": "getTotalFundByProposalId",
      "outputs": [
        {
          "internalType": "uint160",
          "name": "",
          "type": "uint160"
        }
      ],
      "stateMutability": "view",
      "type": "function"
    },
    {
      "inputs": [
        {
          "internalType": "contract DaoRegistry",
          "name": "dao",
          "type": "address"
        },
        {
          "internalType": "uint256",
          "name": "timeStamp",
          "type": "uint256"
        }
      ],
      "name": "ifInRedemptionPeriod",
      "outputs": [
        {
          "internalType": "bool",
          "name": "",
          "type": "bool"
        }
      ],
      "stateMutability": "view",
      "type": "function"
    },
    {
      "inputs": [
        {
          "internalType": "address",
          "name": "",
          "type": "address"
        },
        {
          "internalType": "bytes32",
          "name": "",
          "type": "bytes32"
        }
      ],
      "name": "investorMemberShips",
      "outputs": [
        {
          "internalType": "bool",
          "name": "created",
          "type": "bool"
        },
        {
          "internalType": "uint8",
          "name": "varifyType",
          "type": "uint8"
        },
        {
          "internalType": "uint256",
          "name": "minHolding",
          "type": "uint256"
        },
        {
          "internalType": "address",
          "name": "tokenAddress",
          "type": "address"
        },
        {
          "internalType": "uint256",
          "name": "tokenId",
          "type": "uint256"
        }
      ],
      "stateMutability": "view",
      "type": "function"
    },
    {
      "inputs": [
        {
          "internalType": "contract DaoRegistry",
          "name": "dao",
          "type": "address"
        },
        {
          "internalType": "address",
          "name": "_addr",
          "type": "address"
        }
      ],
      "name": "isActiveMember",
      "outputs": [
        {
          "internalType": "bool",
          "name": "",
          "type": "bool"
        }
      ],
      "stateMutability": "view",
      "type": "function"
    },
    {
      "inputs": [
        {
          "internalType": "contract DaoRegistry",
          "name": "dao",
          "type": "address"
        },
        {
          "internalType": "address",
          "name": "account",
          "type": "address"
        }
      ],
      "name": "isInvestorWhiteList",
      "outputs": [
        {
          "internalType": "bool",
          "name": "",
          "type": "bool"
        }
      ],
      "stateMutability": "view",
      "type": "function"
    },
    {
      "inputs": [
        {
          "internalType": "contract DaoRegistry",
          "name": "dao",
          "type": "address"
        },
        {
          "internalType": "address",
          "name": "account",
          "type": "address"
        }
      ],
      "name": "isPriorityDepositWhitelist",
      "outputs": [
        {
          "internalType": "bool",
          "name": "",
          "type": "bool"
        }
      ],
      "stateMutability": "view",
      "type": "function"
    },
    {
      "inputs": [
        {
          "internalType": "contract DaoRegistry",
          "name": "dao",
          "type": "address"
        },
        {
          "internalType": "address",
          "name": "account",
          "type": "address"
        }
      ],
      "name": "registerInvestorWhiteList",
      "outputs": [],
      "stateMutability": "nonpayable",
      "type": "function"
    },
    {
      "inputs": [
        {
          "internalType": "contract DaoRegistry",
          "name": "dao",
          "type": "address"
        },
        {
          "internalType": "address",
          "name": "account",
          "type": "address"
        }
      ],
      "name": "registerPriorityDepositWhiteList",
      "outputs": [],
      "stateMutability": "nonpayable",
      "type": "function"
    },
    {
      "inputs": [
        {
          "internalType": "contract DaoRegistry",
          "name": "dao",
          "type": "address"
        },
        {
          "internalType": "bytes32",
          "name": "proposalId",
          "type": "bytes32"
        },
        {
          "internalType": "uint160",
          "name": "amount",
          "type": "uint160"
        }
      ],
      "name": "withdraw",
      "outputs": [],
      "stateMutability": "nonpayable",
      "type": "function"
    }
  ],
  "bytecode": "0x608060405234801561001057600080fd5b50614b7a806100206000396000f3fe608060405234801561001057600080fd5b50600436106101005760003560e01c80638ecf772011610097578063eb2243f811610066578063eb2243f81461024b578063ec28eb901461025e578063f614aea3146102e5578063ff8bb0d0146102f857600080fd5b80638ecf7720146101ff578063ac7e7eba14610212578063aed71fde14610225578063e13efafa1461023857600080fd5b80633a844ec0116100d35780633a844ec01461017d5780634aa587c9146101a057806375e42744146101b3578063861f6752146101c657600080fd5b80630617b0ce1461010557806307832bfd1461013557806314a6c0561461014a578063239dd2281461016a575b600080fd5b6101186101133660046147bc565b61030b565b6040516001600160a01b0390911681526020015b60405180910390f35b610148610143366004614784565b610434565b005b61015d610158366004614768565b61048e565b60405161012c91906148fa565b6101486101783660046147ce565b6104b2565b61019061018b3660046147bc565b610b46565b604051901515815260200161012c565b61015d6101ae366004614768565b610e97565b6101186101c13660046147ce565b610ebb565b6101f16101d43660046144db565b600360209081526000928352604080842090915290825290205481565b60405190815260200161012c565b61019061020d366004614784565b610fe6565b610148610220366004614784565b61107c565b610190610233366004614784565b61123f565b610190610246366004614784565b611261565b61014861025936600461480f565b611283565b6102b061026c3660046144db565b60016020818152600093845260408085209091529183529120805491810154600282015460039092015460ff80851694610100900416926001600160a01b03169085565b60408051951515865260ff9094166020860152928401919091526001600160a01b03166060830152608082015260a00161012c565b6101486102f33660046147bc565b6129ac565b610148610306366004614768565b613630565b604051632c9f4b5b60e11b81527fb12a3847d47fefceb164b75823af125f9aa82b76938df0ddf08c04cd314ba37c600482015260009081906001600160a01b0385169063593e96b69060240160206040518083038186803b15801561036f57600080fd5b505afa158015610383573d6000803e3d6000fd5b505050506040513d601f19601f820116820180604052508101906103a791906144bf565b604051636101c11b60e11b81526004810185905261babe60248201529091506001600160a01b0382169063c20382369060440160206040518083038186803b1580156103f257600080fd5b505afa158015610406573d6000803e3d6000fd5b505050506040513d601f19601f8201168201806040525081019061042a91906144bf565b9150505b92915050565b8161043f81336137c1565b6001600160a01b03831660009081526002602052604090206104619083613817565b610489576001600160a01b03831660009081526002602052604090206104879083613839565b505b505050565b6001600160a01b038116600090815260026020526040902060609061042e9061384e565b8260006104be8261385b565b604051632c9f4b5b60e11b81527fb12a3847d47fefceb164b75823af125f9aa82b76938df0ddf08c04cd314ba37c60048201529091506000906001600160a01b0387169063593e96b69060240160206040518083038186803b15801561052357600080fd5b505afa158015610537573d6000803e3d6000fd5b505050506040513d601f19601f8201168201806040525081019061055b91906144bf565b604051636101c11b60e11b8152600481018790523360248201529091506000906001600160a01b0383169063c20382369060440160206040518083038186803b1580156105a757600080fd5b505afa1580156105bb573d6000803e3d6000fd5b505050506040513d601f19601f820116820180604052508101906105df91906144bf565b6001600160a01b03169050600081118015610603575080856001600160a01b031611155b6106545760405162461bcd60e51b815260206004820152600760248201527f21616d6f756e740000000000000000000000000000000000000000000000000060448201526064015b60405180910390fd5b6040516317ba7d8560e01b81527f7a8526bca00f0726b2fab8c3bfd5b00bfa84d07f111e48263b13de605eefcdda60048201526000906001600160a01b038916906317ba7d859060240160206040518083038186803b1580156106b657600080fd5b505afa1580156106ca573d6000803e3d6000fd5b505050506040513d601f19601f820116820180604052508101906106ee91906144bf565b6040516317ba7d8560e01b81527fc8e81510cbc5ec7970040e233b001587da1ea4484a9f7b8710d3322429c2df2360048201529091506000906001600160a01b038a16906317ba7d859060240160206040518083038186803b15801561075357600080fd5b505afa158015610767573d6000803e3d6000fd5b505050506040513d601f19601f8201168201806040525081019061078b91906144bf565b6040517fbf4999940000000000000000000000000000000000000000000000000000000081526001600160a01b038b81166004830152602482018b905291925060009182919085169063bf4999949060440160006040518083038186803b1580156107f557600080fd5b505afa158015610809573d6000803e3d6000fd5b505050506040513d6000823e601f3d908101601f191682016040526108319190810190614506565b5097505050509450505050428260400151118061087b575042826040015110801561087b5750600481600481111561087957634e487b7160e01b600052602160045260246000fd5b145b6108c75760405162461bcd60e51b815260206004820152600960248201527f2177697468647261770000000000000000000000000000000000000000000000604482015260640161064b565b6040517fbf4999940000000000000000000000000000000000000000000000000000000081526001600160a01b038c81166004830152602482018c90526000919086169063bf4999949060440160006040518083038186803b15801561092c57600080fd5b505afa158015610940573d6000803e3d6000fd5b505050506040513d6000823e601f3d908101601f191682016040526109689190810190614506565b50505050505050915050866001600160a01b0316638e0cc1768c3384600001518e6040518563ffffffff1660e01b81526004016109ca94939291909384526001600160a01b039283166020850152908216604084015216606082015260800190565b600060405180830381600087803b1580156109e457600080fd5b505af11580156109f8573d6000803e3d6000fd5b50506040517f6d3cc0400000000000000000000000000000000000000000000000000000000081526001600160a01b038f81166004830152602482018f905233604483015287169250636d3cc040915060640160206040518083038186803b158015610a6357600080fd5b505afa158015610a77573d6000803e3d6000fd5b505050506040513d601f19601f82011682018060405250810190610a9b9190614723565b15610ade576001600160a01b038c811660009081526003602090815260408083208f845290915281208054928d1692909190610ad8908490614a93565b90915550505b604080516001600160a01b038e81168252602082018e90528c168183015233606082015290517fb3085ed0819e7a24ea01cc7517959d320c556f8d657f4eb66a77c92362aeccf49181900360800190a150505050505050610b3f8282613b26565b5050505050565b604051634941d71d60e11b81527fd99dae5492aa0c08830764a319f29225cc739a0ed8683d8fd1b5bc3a8fe31672600482015260009081906001600160a01b03851690639283ae3a9060240160206040518083038186803b158015610baa57600080fd5b505afa158015610bbe573d6000803e3d6000fd5b505050506040513d601f19601f82011682018060405250810190610be29190614877565b604051634941d71d60e11b81527f9ce69cf04065e3c7823cc5540c0598d8a694bd7a9a5a2a786d8bccf14ed6e2ea60048201529091506000906001600160a01b03861690639283ae3a9060240160206040518083038186803b158015610c4757600080fd5b505afa158015610c5b573d6000803e3d6000fd5b505050506040513d601f19601f82011682018060405250810190610c7f9190614877565b604051634941d71d60e11b81527f6a2acfe6164f3ec20e6d80e2f4e4f7ae2b9962615c9596c872d01f6cd244aed360048201529091506000906001600160a01b03871690639283ae3a9060240160206040518083038186803b158015610ce457600080fd5b505afa158015610cf8573d6000803e3d6000fd5b505050506040513d601f19601f82011682018060405250810190610d1c9190614877565b604051634941d71d60e11b81527f2305fa3a9f84625f75d70f539e621c658cf49e7477ab5af9cacd278ca7904e3060048201529091506000906001600160a01b03881690639283ae3a9060240160206040518083038186803b158015610d8157600080fd5b505afa158015610d95573d6000803e3d6000fd5b505050506040513d601f19601f82011682018060405250810190610db99190614877565b90506000610dc78585614a93565b9050821580610dd4575081155b80610ddd575080155b15610df05760009550505050505061042e565b6000610dfc8483614a36565b905060008060005b838111610e85578215610e2057610e1b8784614a1e565b610e2a565b610e2a878a614a1e565b9250610e368684614a93565b9150818b118015610e465750828b105b8015610e515750888b115b8015610e5c5750878b105b15610e73576001995050505050505050505061042e565b610e7e600182614a1e565b9050610e04565b5060009b9a5050505050505050505050565b6001600160a01b038116600090815260208190526040902060609061042e9061384e565b604051632c9f4b5b60e11b81527fb12a3847d47fefceb164b75823af125f9aa82b76938df0ddf08c04cd314ba37c600482015260009081906001600160a01b0386169063593e96b69060240160206040518083038186803b158015610f1f57600080fd5b505afa158015610f33573d6000803e3d6000fd5b505050506040513d601f19601f82011682018060405250810190610f5791906144bf565b604051636101c11b60e11b8152600481018690526001600160a01b0385811660248301529192509082169063c20382369060440160206040518083038186803b158015610fa357600080fd5b505afa158015610fb7573d6000803e3d6000fd5b505050506040513d601f19601f82011682018060405250810190610fdb91906144bf565b9150505b9392505050565b6040517fa230c5240000000000000000000000000000000000000000000000000000000081526001600160a01b0382811660048301526000919084169063a230c5249060240160206040518083038186803b15801561104457600080fd5b505afa158015611058573d6000803e3d6000fd5b505050506040513d601f19601f82011682018060405250810190610fdf9190614723565b6040516317ba7d8560e01b81527fff9379b98b93eb3bd1fac62fd2258a7955d70d2d5279c40064145b6c9646df3760048201526001600160a01b038316906317ba7d859060240160206040518083038186803b1580156110db57600080fd5b505afa1580156110ef573d6000803e3d6000fd5b505050506040513d601f19601f8201168201806040525081019061111391906144bf565b6001600160a01b0316336001600160a01b031614806111bd57506040517fa230c5240000000000000000000000000000000000000000000000000000000081523360048201526001600160a01b0383169063a230c5249060240160206040518083038186803b15801561118557600080fd5b505afa158015611199573d6000803e3d6000fd5b505050506040513d601f19601f820116820180604052508101906111bd9190614723565b6111f35760405162461bcd60e51b81526020600482015260076024820152662161636365737360c81b604482015260640161064b565b6001600160a01b03821660009081526020819052604090206112159082613817565b61123b576001600160a01b03821660009081526020819052604090206104899082613839565b5050565b6001600160a01b0382166000908152600260205260408120610fdf9083613817565b6001600160a01b0382166000908152602081905260408120610fdf9083613817565b604051634941d71d60e11b81527ffeddffed075d0686e697569ece0ce2fd26bfbbb18719086f36d16c7117edb553600482015283906001600160a01b03821690639283ae3a9060240160206040518083038186803b1580156112e457600080fd5b505afa1580156112f8573d6000803e3d6000fd5b505050506040513d601f19601f8201168201806040525081019061131c9190614877565b60011415611a6e576040516317ba7d8560e01b81527f2207fd6117465cefcba0abc867150698c0464aa41a293ec29ca01b67a6350c3c60048201526000906001600160a01b038316906317ba7d859060240160206040518083038186803b15801561138657600080fd5b505afa15801561139a573d6000803e3d6000fd5b505050506040513d601f19601f820116820180604052508101906113be91906144bf565b604051634941d71d60e11b81527f77041e0d128001928f30b976713fed530b452bc354a9bad49ad1bcf93121f9dc60048201529091506000906001600160a01b03841690639283ae3a9060240160206040518083038186803b15801561142357600080fd5b505afa158015611437573d6000803e3d6000fd5b505050506040513d601f19601f8201168201806040525081019061145b9190614877565b604051634941d71d60e11b81527fcab672166d6a1c8dae3ca0b03fed2e7258db17c3c3801ac2651987b066d3964760048201529091506000906001600160a01b03851690639283ae3a9060240160206040518083038186803b1580156114c057600080fd5b505afa1580156114d4573d6000803e3d6000fd5b505050506040513d601f19601f820116820180604052508101906114f89190614877565b604051634941d71d60e11b81527fcdc3057ec9c82a3ea3fd34ef56b1825924525fbab071e1a2b9d664a07f40048060048201529091506000906001600160a01b03861690639283ae3a9060240160206040518083038186803b15801561155d57600080fd5b505afa158015611571573d6000803e3d6000fd5b505050506040513d601f19601f820116820180604052508101906115959190614877565b6040517ffd310d290000000000000000000000000000000000000000000000000000000081527f0f57fc3a39a8a66c31f52eab69ced65d5ac74e4a182b215146a45a0281de53e860048201529091506000906001600160a01b0387169063fd310d299060240160206040518083038186803b15801561161357600080fd5b505afa158015611627573d6000803e3d6000fd5b505050506040513d601f19601f8201168201806040525081019061164b91906144bf565b905083611758576040517f70a0823100000000000000000000000000000000000000000000000000000000815233600482015283906001600160a01b038316906370a082319060240160206040518083038186803b1580156116ac57600080fd5b505afa1580156116c0573d6000803e3d6000fd5b505050506040513d601f19601f820116820180604052508101906116e49190614877565b10156117585760405162461bcd60e51b815260206004820152602d60248201527f3c696e766573746f72206d656d6265727368697020657263323020746f6b656e60448201527f206d696e6920686f6c64696e6700000000000000000000000000000000000000606482015260840161064b565b8360011415611867576040517f70a0823100000000000000000000000000000000000000000000000000000000815233600482015283906001600160a01b038316906370a082319060240160206040518083038186803b1580156117bb57600080fd5b505afa1580156117cf573d6000803e3d6000fd5b505050506040513d601f19601f820116820180604052508101906117f39190614877565b10156118675760405162461bcd60e51b815260206004820152602e60248201527f3c696e766573746f72206d656d626572736869702065726337323120746f6b6560448201527f6e206d696e6920686f6c64696e67000000000000000000000000000000000000606482015260840161064b565b836002141561197b576040517efdd58e0000000000000000000000000000000000000000000000000000000081523360048201526024810183905283906001600160a01b0383169062fdd58e9060440160206040518083038186803b1580156118cf57600080fd5b505afa1580156118e3573d6000803e3d6000fd5b505050506040513d601f19601f820116820180604052508101906119079190614877565b101561197b5760405162461bcd60e51b815260206004820152602f60248201527f3c696e766573746f72206d656d62657273686970206572633131353520746f6b60448201527f656e206d696e6920686f6c64696e670000000000000000000000000000000000606482015260840161064b565b8360031415611a68576040517fe13efafa0000000000000000000000000000000000000000000000000000000081526001600160a01b03878116600483015233602483015286169063e13efafa9060440160206040518083038186803b1580156119e457600080fd5b505afa1580156119f8573d6000803e3d6000fd5b505050506040513d601f19601f82011682018060405250810190611a1c9190614723565b611a685760405162461bcd60e51b815260206004820152601e60248201527f21696e766573746f72206d656d626572736869702077686974656c6973740000604482015260640161064b565b50505050505b836000611a7a8261385b565b9050611af2604080516101808101825260008082526020820181905291810182905290606082019081526020016000815260200160008152602001600081526020016000815260200160006001600160a01b0316815260200160006001600160a01b0316815260200160008152602001600081525090565b6040516317ba7d8560e01b81527f7a8526bca00f0726b2fab8c3bfd5b00bfa84d07f111e48263b13de605eefcdda60048201526001600160a01b038816906317ba7d859060240160206040518083038186803b158015611b5157600080fd5b505afa158015611b65573d6000803e3d6000fd5b505050506040513d601f19601f82011682018060405250810190611b8991906144bf565b6001600160a01b039081168252604051632c9f4b5b60e11b81527fb12a3847d47fefceb164b75823af125f9aa82b76938df0ddf08c04cd314ba37c60048201529088169063593e96b69060240160206040518083038186803b158015611bee57600080fd5b505afa158015611c02573d6000803e3d6000fd5b505050506040513d601f19601f82011682018060405250810190611c2691906144bf565b6001600160a01b03908116604083810191909152516317ba7d8560e01b81527fc8e81510cbc5ec7970040e233b001587da1ea4484a9f7b8710d3322429c2df236004820152908816906317ba7d859060240160206040518083038186803b158015611c9057600080fd5b505afa158015611ca4573d6000803e3d6000fd5b505050506040513d601f19601f82011682018060405250810190611cc891906144bf565b6001600160a01b03908116602083015260408083015190517fe38a5a640000000000000000000000000000000000000000000000000000000081526004810189905291169063e38a5a649060240160006040518083038186803b158015611d2e57600080fd5b505afa158015611d42573d6000803e3d6000fd5b505050506040513d6000823e601f3d908101601f19168201604052611d6a919081019061466f565b51610160820152604051634941d71d60e11b81527f69f4ffb3ebcb7809550bddd3e4d449a47e737bf6635bc7a730996643997b0e4860048201526001600160a01b03881690639283ae3a9060240160206040518083038186803b158015611dd057600080fd5b505afa158015611de4573d6000803e3d6000fd5b505050506040513d601f19601f82011682018060405250810190611e089190614877565b6001148015611eb25750604051634941d71d60e11b81527fecbde689cc6337d29a750b8b8a8abbfa97427b4ac800ab55be2f2c87311510f260048201526001600160a01b03881690639283ae3a9060240160206040518083038186803b158015611e7157600080fd5b505afa158015611e85573d6000803e3d6000fd5b505050506040513d601f19601f82011682018060405250810190611ea99190614877565b81610160015110155b8015611f58575060408082015190517f6ca0b5c8000000000000000000000000000000000000000000000000000000008152600481018890523360248201526001600160a01b0390911690636ca0b5c89060440160206040518083038186803b158015611f1e57600080fd5b505afa158015611f32573d6000803e3d6000fd5b505050506040513d601f19601f82011682018060405250810190611f569190614723565b155b15611f8f576040517ff435457800000000000000000000000000000000000000000000000000000000815260040160405180910390fd5b60208101516040517f1ebf58f90000000000000000000000000000000000000000000000000000000081526001600160a01b038981166004830152602482018990526000921690631ebf58f99060440160206040518083038186803b158015611ff757600080fd5b505afa15801561200b573d6000803e3d6000fd5b505050506040513d601f19601f8201168201806040525081019061202f919061485d565b9050600181600481111561205357634e487b7160e01b600052602160045260246000fd5b1461208a576040517ffb9e169300000000000000000000000000000000000000000000000000000000815260040160405180910390fd5b60208201516040517f80dc31410000000000000000000000000000000000000000000000000000000081526001600160a01b038a81166004830152602482018a9052909116906380dc314190604401604080518083038186803b1580156120f057600080fd5b505afa158015612104573d6000803e3d6000fd5b505050506040513d601f19601f82011682018060405250810190612128919061488f565b60a08401526080830181905242108061214457508160a0015142115b1561217b576040517ffb9e169300000000000000000000000000000000000000000000000000000000815260040160405180910390fd5b600086116121cb5760405162461bcd60e51b815260206004820152600760248201527f21616d6f756e7400000000000000000000000000000000000000000000000000604482015260640161064b565b60208201516040517fc3a8f0030000000000000000000000000000000000000000000000000000000081526001600160a01b038a81166004830152602482018a90529091169063c3a8f0039060440160206040518083038186803b15801561223257600080fd5b505afa158015612246573d6000803e3d6000fd5b505050506040513d601f19601f8201168201806040525081019061226a9190614843565b8260600190600181111561228e57634e487b7160e01b600052602160045260246000fd5b908160018111156122af57634e487b7160e01b600052602160045260246000fd5b90525060208201516040517fb39f0a790000000000000000000000000000000000000000000000000000000081526001600160a01b038a81166004830152602482018a90529091169063b39f0a799060440160206040518083038186803b15801561231957600080fd5b505afa15801561232d573d6000803e3d6000fd5b505050506040513d601f19601f820116820180604052508101906123519190614877565b61014083015260208201516040517f6666c9bd0000000000000000000000000000000000000000000000000000000081526001600160a01b038a81166004830152602482018a905290911690636666c9bd90604401604080518083038186803b1580156123bd57600080fd5b505afa1580156123d1573d6000803e3d6000fd5b505050506040513d601f19601f820116820180604052508101906123f5919061488f565b60e084015260c083018190521580159061241257508160c0015186105b15612449576040517f10981f1600000000000000000000000000000000000000000000000000000000815260040160405180910390fd5b60008260e0015111801561247e57508160e00151866124698a8a33610ebb565b6001600160a01b031661247c9190614a1e565b115b156124b5576040517f75f4b91100000000000000000000000000000000000000000000000000000000815260040160405180910390fd5b6000826060015160018111156124db57634e487b7160e01b600052602160045260246000fd5b1480156124ed57506000826101400151115b1561255157816101400151866125068a8a61babe610ebb565b6001600160a01b03166125199190614a1e565b1115612551576040517f87ea887800000000000000000000000000000000000000000000000000000000815260040160405180910390fd5b60208201516040517f0c8c9a5c0000000000000000000000000000000000000000000000000000000081526001600160a01b038a81166004830152602482018a905290911690630c8c9a5c9060440160206040518083038186803b1580156125b857600080fd5b505afa1580156125cc573d6000803e3d6000fd5b505050506040513d601f19601f820116820180604052508101906125f091906144bf565b6001600160a01b031661012083018190526040517f23b872dd000000000000000000000000000000000000000000000000000000008152336004820152306024820152604481018890526323b872dd90606401602060405180830381600087803b15801561265d57600080fd5b505af1158015612671573d6000803e3d6000fd5b505050506040513d601f19601f820116820180604052508101906126959190614723565b50604051632c9f4b5b60e11b81527fb12a3847d47fefceb164b75823af125f9aa82b76938df0ddf08c04cd314ba37c6004820152612747906001600160a01b038a169063593e96b69060240160206040518083038186803b1580156126f957600080fd5b505afa15801561270d573d6000803e3d6000fd5b505050506040513d601f19601f8201168201806040525081019061273191906144bf565b6101208401516001600160a01b03169088613b31565b6040516317ba7d8560e01b81527fc8e81510cbc5ec7970040e233b001587da1ea4484a9f7b8710d3322429c2df2360048201526001600160a01b038916906317ba7d859060240160206040518083038186803b1580156127a657600080fd5b505afa1580156127ba573d6000803e3d6000fd5b505050506040513d601f19601f820116820180604052508101906127de91906144bf565b6001600160a01b03908116602084018190526040517f6d3cc040000000000000000000000000000000000000000000000000000000008152918a1660048301526024820189905233604483015290636d3cc0409060640160206040518083038186803b15801561284d57600080fd5b505afa158015612861573d6000803e3d6000fd5b505050506040513d601f19601f820116820180604052508101906128859190614723565b156128c3576001600160a01b03881660009081526003602090815260408083208a8452909152812080548892906128bd908490614a1e565b90915550505b60408083015190517ece27c200000000000000000000000000000000000000000000000000000000815260048101899052336024820152604481018890526001600160a01b039091169062ce27c290606401600060405180830381600087803b15801561292f57600080fd5b505af1158015612943573d6000803e3d6000fd5b5050604080516001600160a01b038c168152602081018b90529081018990523360608201527fddcff2534e44ab893ab86cadbfcf556c7c257bd657d168b0bfed850311dfe4f89250608001905060405180910390a150506129a48282613b26565b505050505050565b6040516317ba7d8560e01b81527f7a8526bca00f0726b2fab8c3bfd5b00bfa84d07f111e48263b13de605eefcdda60048201526001600160a01b038316906317ba7d859060240160206040518083038186803b158015612a0b57600080fd5b505afa158015612a1f573d6000803e3d6000fd5b505050506040513d601f19601f82011682018060405250810190612a4391906144bf565b6001600160a01b0316336001600160a01b031614612a8d5760405162461bcd60e51b81526020600482015260076024820152662161636365737360c81b604482015260640161064b565b6040805161012081018252600080825260208201819052818301819052606082018190526080820181905260a0820181905260c0820181905260e0820181905261010082015290516317ba7d8560e01b81527fc8e81510cbc5ec7970040e233b001587da1ea4484a9f7b8710d3322429c2df2360048201526001600160a01b038416906317ba7d859060240160206040518083038186803b158015612b3157600080fd5b505afa158015612b45573d6000803e3d6000fd5b505050506040513d601f19601f82011682018060405250810190612b6991906144bf565b6001600160a01b0390811682526040516317ba7d8560e01b81527f7a8526bca00f0726b2fab8c3bfd5b00bfa84d07f111e48263b13de605eefcdda6004820152908416906317ba7d859060240160206040518083038186803b158015612bce57600080fd5b505afa158015612be2573d6000803e3d6000fd5b505050506040513d601f19601f82011682018060405250810190612c0691906144bf565b6001600160a01b03908116606083015281516040517fb39f0a7900000000000000000000000000000000000000000000000000000000815285831660048201526024810185905291169063b39f0a799060440160206040518083038186803b158015612c7157600080fd5b505afa158015612c85573d6000803e3d6000fd5b505050506040513d601f19601f82011682018060405250810190612ca99190614877565b6080820152612cbb838361babe610ebb565b6001600160a01b031660a0820152600181516040517fc3a8f0030000000000000000000000000000000000000000000000000000000081526001600160a01b038681166004830152602482018690529091169063c3a8f0039060440160206040518083038186803b158015612d2f57600080fd5b505afa158015612d43573d6000803e3d6000fd5b505050506040513d601f19601f82011682018060405250810190612d679190614843565b6001811115612d8657634e487b7160e01b600052602160045260246000fd5b148015612d9a575080608001518160a00151115b1561048957604051632c9f4b5b60e11b81527fb12a3847d47fefceb164b75823af125f9aa82b76938df0ddf08c04cd314ba37c60048201526001600160a01b0384169063593e96b69060240160206040518083038186803b158015612dfe57600080fd5b505afa158015612e12573d6000803e3d6000fd5b505050506040513d601f19601f82011682018060405250810190612e3691906144bf565b6001600160a01b0316602082018190526040517fe38a5a64000000000000000000000000000000000000000000000000000000008152600481018490526000919063e38a5a649060240160006040518083038186803b158015612e9857600080fd5b505afa158015612eac573d6000803e3d6000fd5b505050506040513d6000823e601f3d908101601f19168201604052612ed4919081019061466f565b600060e084015282516040517f0c8c9a5c0000000000000000000000000000000000000000000000000000000081526001600160a01b03878116600483015260248201879052929350911690630c8c9a5c9060440160206040518083038186803b158015612f4157600080fd5b505afa158015612f55573d6000803e3d6000fd5b505050506040513d601f19601f82011682018060405250810190612f7991906144bf565b6001600160a01b039081166101008401526040516317ba7d8560e01b81527feae11da953333a83b6467e2193334fb302549e1a42ad5797082aea1ab6be91206004820152908516906317ba7d859060240160206040518083038186803b158015612fe257600080fd5b505afa158015612ff6573d6000803e3d6000fd5b505050506040513d601f19601f8201168201806040525081019061301a91906144bf565b6001600160a01b0390811660408085019190915290851660009081526003602090815282822086835290529081205460c08401525b81518160ff161015610b3f5782608001518360c00151106132175782600001516001600160a01b0316636d3cc0408686858560ff16815181106130a257634e487b7160e01b600052603260045260246000fd5b60200260200101516040518463ffffffff1660e01b81526004016130e6939291906001600160a01b0393841681526020810192909252909116604082015260600190565b60206040518083038186803b1580156130fe57600080fd5b505afa158015613112573d6000803e3d6000fd5b505050506040513d601f19601f820116820180604052508101906131369190614723565b156131dc578260c00151836080015161317a8787868660ff168151811061316d57634e487b7160e01b600052603260045260246000fd5b6020026020010151610ebb565b6001600160a01b031661318d9190614a56565b6131979190614a36565b6131bf8686858560ff168151811061316d57634e487b7160e01b600052603260045260246000fd5b6001600160a01b03166131d29190614a93565b60e08401526133a2565b6132048585848460ff168151811061316d57634e487b7160e01b600052603260045260246000fd5b6001600160a01b031660e08401526133a2565b82600001516001600160a01b0316636d3cc0408686858560ff168151811061324f57634e487b7160e01b600052603260045260246000fd5b60200260200101516040518463ffffffff1660e01b8152600401613293939291906001600160a01b0393841681526020810192909252909116604082015260600190565b60206040518083038186803b1580156132ab57600080fd5b505afa1580156132bf573d6000803e3d6000fd5b505050506040513d601f19601f820116820180604052508101906132e39190614723565b156132f457600060e08401526133a2565b8260c001518360a001516133089190614a93565b8360c00151846080015161331c9190614a93565b6133448787868660ff168151811061316d57634e487b7160e01b600052603260045260246000fd5b6001600160a01b03166133579190614a56565b6133619190614a36565b6133898686858560ff168151811061316d57634e487b7160e01b600052603260045260246000fd5b6001600160a01b031661339c9190614a93565b60e08401525b60e08301511561361e576133ef6040518060400160405280600a81526020017f657874726146756e6420000000000000000000000000000000000000000000008152508460e00151613bb1565b82604001516001600160a01b031663078e209e8686866101000151868660ff168151811061342d57634e487b7160e01b600052603260045260246000fd5b60200260200101518860e001516040518663ffffffff1660e01b81526004016134889594939291906001600160a01b039586168152602081019490945291841660408401529092166060820152608081019190915260a00190565b600060405180830381600087803b1580156134a257600080fd5b505af11580156134b6573d6000803e3d6000fd5b5050505082602001516001600160a01b031663e21ccac185848460ff16815181106134f157634e487b7160e01b600052603260045260246000fd5b6020026020010151886001600160a01b03166317ba7d857feae11da953333a83b6467e2193334fb302549e1a42ad5797082aea1ab6be91206040518263ffffffff1660e01b815260040161354791815260200190565b60206040518083038186803b15801561355f57600080fd5b505afa158015613573573d6000803e3d6000fd5b505050506040513d601f19601f8201168201806040525081019061359791906144bf565b8761010001518860e001516040518663ffffffff1660e01b81526004016135eb9594939291909485526001600160a01b03938416602086015291831660408501529091166060830152608082015260a00190565b600060405180830381600087803b15801561360557600080fd5b505af1158015613619573d6000803e3d6000fd5b505050505b8061362881614ad6565b91505061304f565b6040516317ba7d8560e01b81527fff9379b98b93eb3bd1fac62fd2258a7955d70d2d5279c40064145b6c9646df3760048201526001600160a01b038216906317ba7d859060240160206040518083038186803b15801561368f57600080fd5b505afa1580156136a3573d6000803e3d6000fd5b505050506040513d601f19601f820116820180604052508101906136c791906144bf565b6001600160a01b0316336001600160a01b0316146137115760405162461bcd60e51b81526020600482015260076024820152662161636365737360c81b604482015260640161064b565b6001600160a01b03811660009081526020819052604090206060906137359061384e565b805190915080156104895760005b818160ff161015610487576137ae838260ff168151811061377457634e487b7160e01b600052603260045260246000fd5b6020026020010151600080876001600160a01b03166001600160a01b03168152602001908152602001600020613c2490919063ffffffff16565b50806137b981614ad6565b915050613743565b6137cb8282610fe6565b61123b5760405162461bcd60e51b815260206004820152600b60248201527f6f6e6c7953746577617264000000000000000000000000000000000000000000604482015260640161064b565b6001600160a01b03811660009081526001830160205260408120541515610fdf565b6000610fdf836001600160a01b038416613c39565b60606000610fdf83613c88565b6040805160808101825260008082526020820181905291810182905260608101919091525a81600001818152505043826001600160a01b031663b21634826040518163ffffffff1660e01b815260040160206040518083038186803b1580156138c357600080fd5b505afa1580156138d7573d6000803e3d6000fd5b505050506040513d601f19601f820116820180604052508101906138fb9190614877565b14156139495760405162461bcd60e51b815260206004820152601060248201527f7265656e7472616e637920677561726400000000000000000000000000000000604482015260640161064b565b816001600160a01b03166310fdb0a26040518163ffffffff1660e01b8152600401600060405180830381600087803b15801561398457600080fd5b505af1158015613998573d6000803e3d6000fd5b50506040517f72c6838f0000000000000000000000000000000000000000000000000000000081527f1f2fd42ad6a6cacd573c4b212beb7a4e2499ad45d742a65337097f130e71daff6004820152600092506001600160a01b03851691506372c6838f9060240160206040518083038186803b158015613a1757600080fd5b505afa158015613a2b573d6000803e3d6000fd5b505050506040513d601f19601f82011682018060405250810190613a4f91906144bf565b90506001600160a01b038116613a6b5760006020830152613b20565b6001600160a01b038181166060840181905283516040517f43a8a3f1000000000000000000000000000000000000000000000000000000008152928616600484015260248301526000918291906343a8a3f190604401604080518083038186803b158015613ad857600080fd5b505afa158015613aec573d6000803e3d6000fd5b505050506040513d601f19601f82011682018060405250810190613b10919061473d565b9015156020860152604085015250505b50919050565b61123b828233613ce4565b604080516001600160a01b038416602482015260448082018490528251808303909101815260649091019091526020810180517bffffffffffffffffffffffffffffffffffffffffffffffffffffffff167fa9059cbb00000000000000000000000000000000000000000000000000000000179052610489908490613df2565b61123b8282604051602401613bc792919061495a565b60408051601f198184030181529190526020810180517bffffffffffffffffffffffffffffffffffffffffffffffffffffffff167fb60e72cc00000000000000000000000000000000000000000000000000000000179052613ed7565b6000610fdf836001600160a01b038416613ee3565b6000818152600183016020526040812054613c805750815460018181018455600084815260208082209093018490558454848252828601909352604090209190915561042e565b50600061042e565b606081600001805480602002602001604051908101604052809291908181526020018280548015613cd857602002820191906000526020600020905b815481526020019060010190808311613cc4575b50505050509050919050565b816020015115613d9a5781606001516001600160a01b0316635e5eb01384835a8651613d109190614a93565b60408088015190517fffffffff0000000000000000000000000000000000000000000000000000000060e087901b1681526001600160a01b03948516600482015293909216602484015260448301526064820152608401600060405180830381600087803b158015613d8157600080fd5b505af1158015613d95573d6000803e3d6000fd5b505050505b826001600160a01b031663d4f7af436040518163ffffffff1660e01b8152600401600060405180830381600087803b158015613dd557600080fd5b505af1158015613de9573d6000803e3d6000fd5b50505050505050565b6000613e47826040518060400160405280602081526020017f5361666545524332303a206c6f772d6c6576656c2063616c6c206661696c6564815250856001600160a01b03166140009092919063ffffffff16565b8051909150156104895780806020019051810190613e659190614723565b6104895760405162461bcd60e51b815260206004820152602a60248201527f5361666545524332303a204552433230206f7065726174696f6e20646964206e60448201527f6f74207375636365656400000000000000000000000000000000000000000000606482015260840161064b565b613ee081614017565b50565b60008181526001830160205260408120548015613ff6576000613f07600183614a93565b8554909150600090613f1b90600190614a93565b9050818114613f9c576000866000018281548110613f4957634e487b7160e01b600052603260045260246000fd5b9060005260206000200154905080876000018481548110613f7a57634e487b7160e01b600052603260045260246000fd5b6000918252602080832090910192909255918252600188019052604090208390555b8554869080613fbb57634e487b7160e01b600052603160045260246000fd5b60019003818190600052602060002001600090559055856001016000868152602001908152602001600020600090556001935050505061042e565b600091505061042e565b606061400f8484600085614038565b949350505050565b60006a636f6e736f6c652e6c6f679050600080835160208501845afa505050565b6060824710156140b05760405162461bcd60e51b815260206004820152602660248201527f416464726573733a20696e73756666696369656e742062616c616e636520666f60448201527f722063616c6c0000000000000000000000000000000000000000000000000000606482015260840161064b565b6001600160a01b0385163b6141075760405162461bcd60e51b815260206004820152601d60248201527f416464726573733a2063616c6c20746f206e6f6e2d636f6e7472616374000000604482015260640161064b565b600080866001600160a01b0316858760405161412391906148de565b60006040518083038185875af1925050503d8060008114614160576040519150601f19603f3d011682016040523d82523d6000602084013e614165565b606091505b5091509150614175828286614180565b979650505050505050565b6060831561418f575081610fdf565b82511561419f5782518084602001fd5b8160405162461bcd60e51b815260040161064b9190614947565b80516141c481614b22565b919050565b805180151581146141c457600080fd5b8051600281106141c457600080fd5b8051600581106141c457600080fd5b600082601f830112614207578081fd5b815167ffffffffffffffff81111561422157614221614b0c565b6142346020601f19601f840116016149ed565b818152846020838601011115614248578283fd5b61400f826020830160208701614aaa565b6000610200828403121561426b578081fd5b604051610100810181811067ffffffffffffffff8211171561428f5761428f614b0c565b60405290508061429e836141d9565b8152602083015160208201526040830151604082015260608301516060820152608083015160808201526142d460a084016141c9565b60a08201526142e68460c08501614305565b60c08201526142f9846101608501614378565b60e08201525092915050565b600060a08284031215614316578081fd5b61431e61497c565b9050815161432b81614b37565b8152602082015163ffffffff8116811461434457600080fd5b6020820152604082015161435781614b22565b80604083015250606082015160608201526080820151608082015292915050565b600060a08284031215614389578081fd5b61439161497c565b905061439c826141c9565b8152602082015161434481614b37565b6000604082840312156143bd578081fd5b6040516040810181811067ffffffffffffffff821117156143e0576143e0614b0c565b604052825181526020928301519281019290925250919050565b6000610120828403121561440c578081fd5b6144146149a5565b9050815181526020820151602082015260408201516040820152606082015160608201526080820151608082015261444e60a083016141c9565b60a082015261445f60c083016141b9565b60c082015260e082015167ffffffffffffffff8082111561447f57600080fd5b61448b858386016141f7565b60e0840152610100915081840151818111156144a657600080fd5b6144b2868287016141f7565b8385015250505092915050565b6000602082840312156144d0578081fd5b8151610fdf81614b22565b600080604083850312156144ed578081fd5b82356144f881614b22565b946020939093013593505050565b6000806000806000806000806000898b03610480811215614525578586fd5b8a5161453081614b22565b9950610180601f198201811315614545578687fd5b61454d6149c9565b915061455b60208d016141b9565b825260408c0151602083015260608c0151604083015260808c0151606083015261458760a08d016141c9565b608083015261459860c08d016141b9565b60a083015260e08c015160c0830152610100808d015160e0840152610120808e0151828501526101409150818e015181850152506101606145da818f016141b9565b828501526145e9838f016141b9565b9084015250506101a08b015190985067ffffffffffffffff81111561460c578586fd5b6146188c828d016143fa565b9750506146298b6101c08c01614259565b95506146398b6103c08c016143ac565b94506104008a015193506104208a015192506146586104408b016141e8565b91506104608a015190509295985092959850929598565b60006020808385031215614681578182fd5b825167ffffffffffffffff80821115614698578384fd5b818501915085601f8301126146ab578384fd5b8151818111156146bd576146bd614b0c565b8060051b91506146ce8483016149ed565b8181528481019084860184860187018a10156146e8578788fd5b8795505b83861015614716578051945061470185614b22565b848352600195909501949186019186016146ec565b5098975050505050505050565b600060208284031215614734578081fd5b610fdf826141c9565b6000806040838503121561474f578182fd5b614758836141c9565b9150602083015190509250929050565b600060208284031215614779578081fd5b8135610fdf81614b22565b60008060408385031215614796578182fd5b82356147a181614b22565b915060208301356147b181614b22565b809150509250929050565b600080604083850312156144ed578182fd5b6000806000606084860312156147e2578081fd5b83356147ed81614b22565b925060208401359150604084013561480481614b22565b809150509250925092565b600080600060608486031215614823578081fd5b833561482e81614b22565b95602085013595506040909401359392505050565b600060208284031215614854578081fd5b610fdf826141d9565b60006020828403121561486e578081fd5b610fdf826141e8565b600060208284031215614888578081fd5b5051919050565b600080604083850312156148a1578182fd5b505080516020909101519092909150565b600081518084526148ca816020860160208601614aaa565b601f01601f19169290920160200192915050565b600082516148f0818460208701614aaa565b9190910192915050565b6020808252825182820181905260009190848201906040850190845b8181101561493b5783516001600160a01b031683529284019291840191600101614916565b50909695505050505050565b602081526000610fdf60208301846148b2565b60408152600061496d60408301856148b2565b90508260208301529392505050565b60405160a0810167ffffffffffffffff8111828210171561499f5761499f614b0c565b60405290565b604051610120810167ffffffffffffffff8111828210171561499f5761499f614b0c565b604051610180810167ffffffffffffffff8111828210171561499f5761499f614b0c565b604051601f8201601f1916810167ffffffffffffffff81118282101715614a1657614a16614b0c565b604052919050565b60008219821115614a3157614a31614af6565b500190565b600082614a5157634e487b7160e01b81526012600452602481fd5b500490565b6000817fffffffffffffffffffffffffffffffffffffffffffffffffffffffffffffffff0483118215151615614a8e57614a8e614af6565b500290565b600082821015614aa557614aa5614af6565b500390565b60005b83811015614ac5578181015183820152602001614aad565b838111156104875750506000910152565b600060ff821660ff811415614aed57614aed614af6565b60010192915050565b634e487b7160e01b600052601160045260246000fd5b634e487b7160e01b600052604160045260246000fd5b6001600160a01b0381168114613ee057600080fd5b60048110613ee057600080fdfea26469706673582212204c73225afd607d2c88d47679a418909f1adffb857cc8f199eec75b86068c868f64736f6c63430008040033",
  "linkReferences": {},
  "deployedLinkReferences": {}
}