{
  "_format": "hh-sol-artifact-1",
  "contractName": "FlexVesting",
  "sourceName": "contracts/flex/adatpers/FlexVesting.sol",
  "abi": [
    {
      "inputs": [],
      "stateMutability": "nonpayable",
      "type": "constructor"
    },
    {
      "inputs": [],
      "name": "InvalidVestingAmountSetting",
      "type": "error"
    },
    {
      "inputs": [],
      "name": "InvalidVestingTimeSetting",
      "type": "error"
    },
    {
      "inputs": [],
      "name": "NotOwner",
      "type": "error"
    },
    {
      "inputs": [],
      "name": "NotVestReceiver",
      "type": "error"
    },
    {
      "anonymous": false,
      "inputs": [
        {
          "indexed": true,
          "internalType": "uint256",
          "name": "vestId",
          "type": "uint256"
        },
        {
          "indexed": true,
          "internalType": "uint256",
          "name": "ownerAmount",
          "type": "uint256"
        },
        {
          "indexed": true,
          "internalType": "uint256",
          "name": "recipientAmount",
          "type": "uint256"
        },
        {
          "indexed": false,
          "internalType": "address",
          "name": "token",
          "type": "address"
        },
        {
          "indexed": false,
          "internalType": "bool",
          "name": "toBentoBox",
          "type": "bool"
        }
      ],
      "name": "CancelVesting",
      "type": "event"
    },
    {
      "anonymous": false,
      "inputs": [
        {
          "indexed": true,
          "internalType": "uint256",
          "name": "vestId",
          "type": "uint256"
        },
        {
          "indexed": false,
          "internalType": "address",
          "name": "token",
          "type": "address"
        },
        {
          "indexed": true,
          "internalType": "address",
          "name": "recipient",
          "type": "address"
        },
        {
          "indexed": false,
          "internalType": "uint32",
          "name": "start",
          "type": "uint32"
        },
        {
          "indexed": false,
          "internalType": "uint32",
          "name": "cliffDuration",
          "type": "uint32"
        },
        {
          "indexed": false,
          "internalType": "uint32",
          "name": "stepDuration",
          "type": "uint32"
        },
        {
          "indexed": false,
          "internalType": "uint32",
          "name": "steps",
          "type": "uint32"
        },
        {
          "indexed": false,
          "internalType": "uint128",
          "name": "cliffShares",
          "type": "uint128"
        },
        {
          "indexed": false,
          "internalType": "uint128",
          "name": "stepShares",
          "type": "uint128"
        },
        {
          "indexed": false,
          "internalType": "bytes32",
          "name": "proposalId",
          "type": "bytes32"
        }
      ],
      "name": "CreateVesting",
      "type": "event"
    },
    {
      "anonymous": false,
      "inputs": [
        {
          "indexed": true,
          "internalType": "uint256",
          "name": "vestId",
          "type": "uint256"
        },
        {
          "indexed": true,
          "internalType": "address",
          "name": "newOwner",
          "type": "address"
        }
      ],
      "name": "LogUpdateOwner",
      "type": "event"
    },
    {
      "anonymous": false,
      "inputs": [
        {
          "indexed": true,
          "internalType": "uint256",
          "name": "vestId",
          "type": "uint256"
        },
        {
          "indexed": true,
          "internalType": "address",
          "name": "token",
          "type": "address"
        },
        {
          "indexed": true,
          "internalType": "uint256",
          "name": "amount",
          "type": "uint256"
        },
        {
          "indexed": false,
          "internalType": "bool",
          "name": "toBentoBox",
          "type": "bool"
        }
      ],
      "name": "Withdraw",
      "type": "event"
    },
    {
      "inputs": [],
      "name": "PERCENTAGE_PRECISION",
      "outputs": [
        {
          "internalType": "uint256",
          "name": "",
          "type": "uint256"
        }
      ],
      "stateMutability": "view",
      "type": "function"
    },
    {
      "inputs": [
        {
          "internalType": "contract DaoRegistry",
          "name": "dao",
          "type": "address"
        },
        {
          "internalType": "address",
          "name": "recipientAddr",
          "type": "address"
        },
        {
          "internalType": "bytes32",
          "name": "proposalId",
          "type": "bytes32"
        }
      ],
      "name": "createVesting",
      "outputs": [],
      "stateMutability": "payable",
      "type": "function"
    },
    {
      "inputs": [
        {
          "internalType": "address",
          "name": "token",
          "type": "address"
        },
        {
          "internalType": "uint256",
          "name": "tokenId",
          "type": "uint256"
        }
      ],
      "name": "getRemainingPercentage",
      "outputs": [
        {
          "internalType": "uint256",
          "name": "",
          "type": "uint256"
        },
        {
          "internalType": "uint256",
          "name": "",
          "type": "uint256"
        },
        {
          "internalType": "uint256",
          "name": "",
          "type": "uint256"
        }
      ],
      "stateMutability": "view",
      "type": "function"
    },
    {
      "inputs": [
        {
          "internalType": "address",
          "name": "token",
          "type": "address"
        },
        {
          "internalType": "uint256",
          "name": "tokenId",
          "type": "uint256"
        }
      ],
      "name": "getVestIdByTokenId",
      "outputs": [
        {
          "internalType": "uint256",
          "name": "",
          "type": "uint256"
        }
      ],
      "stateMutability": "view",
      "type": "function"
    },
    {
      "inputs": [
        {
          "internalType": "address",
          "name": "",
          "type": "address"
        },
        {
          "internalType": "uint256",
          "name": "",
          "type": "uint256"
        }
      ],
      "name": "tokenIdToVestId",
      "outputs": [
        {
          "internalType": "uint256",
          "name": "",
          "type": "uint256"
        }
      ],
      "stateMutability": "view",
      "type": "function"
    },
    {
      "inputs": [
        {
          "internalType": "uint256",
          "name": "vestId",
          "type": "uint256"
        },
        {
          "internalType": "address",
          "name": "newOwner",
          "type": "address"
        }
      ],
      "name": "updateOwner",
      "outputs": [],
      "stateMutability": "nonpayable",
      "type": "function"
    },
    {
      "inputs": [
        {
          "internalType": "uint256",
          "name": "vestId",
          "type": "uint256"
        }
      ],
      "name": "vestBalance",
      "outputs": [
        {
          "internalType": "uint256",
          "name": "",
          "type": "uint256"
        }
      ],
      "stateMutability": "view",
      "type": "function"
    },
    {
      "inputs": [],
      "name": "vestIds",
      "outputs": [
        {
          "internalType": "uint256",
          "name": "",
          "type": "uint256"
        }
      ],
      "stateMutability": "view",
      "type": "function"
    },
    {
      "inputs": [
        {
          "internalType": "uint256",
          "name": "",
          "type": "uint256"
        }
      ],
      "name": "vests",
      "outputs": [
        {
          "internalType": "bytes32",
          "name": "proposalId",
          "type": "bytes32"
        },
        {
          "internalType": "uint128",
          "name": "claimed",
          "type": "uint128"
        },
        {
          "internalType": "uint256",
          "name": "total",
          "type": "uint256"
        },
        {
          "components": [
            {
              "internalType": "uint32",
              "name": "steps",
              "type": "uint32"
            },
            {
              "internalType": "uint128",
              "name": "cliffShares",
              "type": "uint128"
            },
            {
              "internalType": "uint128",
              "name": "stepShares",
              "type": "uint128"
            }
          ],
          "internalType": "struct IFlexVesting.StepInfo",
          "name": "stepInfo",
          "type": "tuple"
        },
        {
          "components": [
            {
              "internalType": "uint32",
              "name": "start",
              "type": "uint32"
            },
            {
              "internalType": "uint32",
              "name": "end",
              "type": "uint32"
            },
            {
              "internalType": "uint32",
              "name": "cliffDuration",
              "type": "uint32"
            },
            {
              "internalType": "uint32",
              "name": "stepDuration",
              "type": "uint32"
            }
          ],
          "internalType": "struct IFlexVesting.TimeInfo",
          "name": "timeInfo",
          "type": "tuple"
        },
        {
          "components": [
            {
              "internalType": "address",
              "name": "nftToken",
              "type": "address"
            },
            {
              "internalType": "uint256",
              "name": "tokenId",
              "type": "uint256"
            }
          ],
          "internalType": "struct IFlexVesting.VestNFTInfo",
          "name": "nftInfo",
          "type": "tuple"
        },
        {
          "components": [
            {
              "internalType": "string",
              "name": "name",
              "type": "string"
            },
            {
              "internalType": "string",
              "name": "description",
              "type": "string"
            },
            {
              "internalType": "address",
              "name": "owner",
              "type": "address"
            },
            {
              "internalType": "address",
              "name": "recipient",
              "type": "address"
            },
            {
              "internalType": "address",
              "name": "token",
              "type": "address"
            }
          ],
          "internalType": "struct IFlexVesting.VestInfo",
          "name": "vestInfo",
          "type": "tuple"
        }
      ],
      "stateMutability": "view",
      "type": "function"
    },
    {
      "inputs": [
        {
          "internalType": "contract DaoRegistry",
          "name": "dao",
          "type": "address"
        },
        {
          "internalType": "uint256",
          "name": "vestId",
          "type": "uint256"
        }
      ],
      "name": "withdraw",
      "outputs": [],
      "stateMutability": "nonpayable",
      "type": "function"
    }
  ],
  "bytecode": "0x608060405234801561001057600080fd5b506001600255612d25806100256000396000f3fe6080604052600436106100b15760003560e01c806351def556116100695780637a4334e21161004e5780637a4334e2146101e2578063e256888f1461021d578063f3fef3a31461023957600080fd5b806351def5561461018f5780637192711f146101c257600080fd5b80632c29e1961161009a5780632c29e196146100ff5780633427dd67146101425780633ae9bc031461017a57600080fd5b806319f77171146100b65780632bcea736146100e9575b600080fd5b3480156100c257600080fd5b506100d66100d13660046128ab565b610259565b6040519081526020015b60405180910390f35b3480156100f557600080fd5b506100d660025481565b34801561010b57600080fd5b506100d661011a366004612826565b6001600160a01b03919091166000908152600160209081526040808320938352929052205490565b34801561014e57600080fd5b506100d661015d366004612826565b600160209081526000928352604080842090915290825290205481565b61018d61018836600461286b565b6104d6565b005b34801561019b57600080fd5b506101af6101aa3660046128ab565b6112e7565b6040516100e097969594939291906129ee565b3480156101ce57600080fd5b5061018d6101dd3660046128db565b61151e565b3480156101ee57600080fd5b506102026101fd366004612826565b6115cf565b604080519384526020840192909252908201526060016100e0565b34801561022957600080fd5b506100d6670de0b6b3a764000081565b34801561024557600080fd5b5061018d610254366004612826565b6116cd565b600081815260208181526040808320815160e0810183528154815260018201546001600160801b0390811682860152600283015482850152835160608181018652600385015463ffffffff8082168452640100000000918290048516848a015260048701549094168388015281850192909252855160808181018852600587015480861683529384048516828a01526801000000000000000084048516828901526c01000000000000000000000000909304909316908301528201528251808401845260068301546001600160a01b0316815260078301549481019490945260a0808201949094528251938401909252600881018054859460c085019290918290829061036590612c1e565b80601f016020809104026020016040519081016040528092919081815260200182805461039190612c1e565b80156103de5780601f106103b3576101008083540402835291602001916103de565b820191906000526020600020905b8154815290600101906020018083116103c157829003601f168201915b505050505081526020016001820180546103f790612c1e565b80601f016020809104026020016040519081016040528092919081815260200182805461042390612c1e565b80156104705780601f1061044557610100808354040283529160200191610470565b820191906000526020600020905b81548152906001019060200180831161045357829003601f168201915b505050918352505060028201546001600160a01b03908116602080840191909152600384015482166040840152600490930154166060909101529152820151919250506001600160801b03166104c582611b3b565b6104cf9190612bd7565b9392505050565b6104de612126565b6040516317ba7d8560e01b81527fb0326f8dfc913f537596953a938551c86ac8fe0da74c9a8cd0ee660e627dccc860048201526001600160a01b038516906317ba7d859060240160206040518083038186803b15801561053d57600080fd5b505afa158015610551573d6000803e3d6000fd5b505050506040513d601f19601f8201168201806040525081019061057591906126a1565b6001600160a01b03908116610200830181905260c083018190526040517f309f011800000000000000000000000000000000000000000000000000000000815286831660048201526024810185905291851660448301529063309f01189060640160206040518083038186803b1580156105ee57600080fd5b505afa158015610602573d6000803e3d6000fd5b505050506040513d601f19601f820116820180604052508101906106269190612851565b610691576040517f08c379a000000000000000000000000000000000000000000000000000000000815260206004820152600960248201527f21656c696769626c65000000000000000000000000000000000000000000000060448201526064015b60405180910390fd5b60c08101516040517f6cb4e9eb0000000000000000000000000000000000000000000000000000000081526001600160a01b03868116600483015260248201859052858116604483015290911690636cb4e9eb9060640160206040518083038186803b15801561070057600080fd5b505afa158015610714573d6000803e3d6000fd5b505050506040513d601f19601f820116820180604052508101906107389190612851565b1561079f576040517f08c379a000000000000000000000000000000000000000000000000000000000815260206004820152600f60248201527f416c7265616479204372656174656400000000000000000000000000000000006044820152606401610688565b6040516317ba7d8560e01b81527f7a8526bca00f0726b2fab8c3bfd5b00bfa84d07f111e48263b13de605eefcdda60048201526001600160a01b038516906317ba7d859060240160206040518083038186803b1580156107fe57600080fd5b505afa158015610812573d6000803e3d6000fd5b505050506040513d601f19601f8201168201806040525081019061083691906126a1565b6001600160a01b0390811660e083015260c08201516040517f1190b0a60000000000000000000000000000000000000000000000000000000081528683166004820152602481018590528583166044820152911690631190b0a690606401604080518083038186803b1580156108ab57600080fd5b505afa1580156108bf573d6000803e3d6000fd5b505050506040513d601f19601f820116820180604052508101906108e3919061290a565b5061014082015260c08101516040517f595857980000000000000000000000000000000000000000000000000000000081526001600160a01b0386811660048301526024820185905285811660448301529091169063595857989060640160206040518083038186803b15801561095957600080fd5b505afa15801561096d573d6000803e3d6000fd5b505050506040513d601f19601f8201168201806040525081019061099191906128c3565b81610140018181516109a39190612b41565b90525060e08101516040517fbf4999940000000000000000000000000000000000000000000000000000000081526001600160a01b038681166004830152602482018590529091169063bf4999949060440160006040518083038186803b158015610a0d57600080fd5b505afa158015610a21573d6000803e3d6000fd5b505050506040513d6000823e601f3d908101601f19168201604052610a4991908101906126bd565b5050505061022086018390525050610240840182905260c09091015160809091015111159050610aa5576040517fcc16de1a00000000000000000000000000000000000000000000000000000000815260040160405180910390fd5b610220810151511580610abf575061022081015160200151155b80610ad1575061022081015160400151155b80610ae3575061022081015160600151155b15610b1a576040517fb443a90d00000000000000000000000000000000000000000000000000000000815260040160405180910390fd5b610b3c8482610240015160a00151836102000151308561014001516000611c6b565b60208083019190915261022082015190810151604090910151610b5f9190612bd7565b610100820181905261022082015160600151610b7a91612b78565b6101e08201526102208101516060015161010082015111610b9e5760016101e08201525b806102200151606001518161010001511115610c455780610100015181610220015160600151610bce9190612c74565b610bf35780610220015160600151816101000151610bec9190612b78565b6101e08201525b80610100015181610220015160600151826101e00151610c139190612b8c565b1015610c455780610220015160600151816101000151610c339190612b78565b610c3e906001612b41565b6101e08201525b670de0b6b3a764000081610220015160800151826101400151610c689190612b8c565b610c729190612b78565b6001600160801b0316608082018190526101e082015160208301519091610c9891612bd7565b610ca29190612b78565b6001600160801b0316606082015260028054906000610cc083612c59565b90915550604082015261022081015160a0015115610db05761022081015160c001516040517f40d097c30000000000000000000000000000000000000000000000000000000081526001600160a01b038581166004830152909116906340d097c390602401602060405180830381600087803b158015610d3f57600080fd5b505af1158015610d53573d6000803e3d6000fd5b505050506040513d601f19601f82011682018060405250810190610d7791906128c3565b610260820181905261022082015160c001516001600160a01b031660009081526001602090815260408083208186015184529091529020555b6040518060e0016040528083815260200160006001600160801b0316815260200182610140015181526020016040518060600160405280846101e0015163ffffffff16815260200184608001516001600160801b0316815260200184606001516001600160801b0316815250815260200160405180608001604052808461022001516000015163ffffffff1681526020018461022001516040015163ffffffff1681526020018461022001516000015185610220015160200151610e749190612bd7565b63ffffffff1681526020018461022001516060015163ffffffff168152508152602001604051806040016040528084610220015160a0015115156001151514610ebe576000610ec9565b84610220015160c001515b6001600160a01b0390811682526102608601516020928301529183526040805160a080820183526102208801805160e00151835251610100015182850152338284015289851660608084019190915261024089015182015186166080808501919091529685019290925282880151600090815280855283902087518155878501516001820180547fffffffffffffffffffffffffffffffff000000000000000000000000000000009081166001600160801b0393841617909155898601516002840155898501518051600385018054838b015163ffffffff93841673ffffffffffffffffffffffffffffffffffffffff199283161764010000000091881682021790925592890151600487018054909516951694909417909255988a01518051600585018054838b01519984015193909801519184167fffffffffffffffffffffffffffffffffffffffffffffffff000000000000000090981697909717978316909302969096177fffffffffffffffffffffffffffffffff0000000000000000ffffffffffffffff1668010000000000000000968216969096027fffffffffffffffffffffffffffffffff00000000ffffffffffffffffffffffff16959095176c01000000000000000000000000919095160293909317909155850151805160068301805490961694169390931790935590810151600783015560c083015180518051919260088501926110e192849201906122de565b5060208281015180516110fa92600185019201906122de565b5060408281015160028301805473ffffffffffffffffffffffffffffffffffffffff199081166001600160a01b039384161790915560608501516003850180548316918416919091179055608090940151600493840180549095169082161790935560c086015190517f560dbdd700000000000000000000000000000000000000000000000000000000815289841692810192909252602482018790528783166044830152909116925063560dbdd79150606401602060405180830381600087803b1580156111c857600080fd5b505af11580156111dc573d6000803e3d6000fd5b505050506040513d601f19601f820116820180604052508101906112009190612851565b50604081015161024082015160a0015161022083015180516020909101516001600160a01b03871693927f4c51f0095be9553b8e5eadbc42f96ab0b0c6526566307069cfcbecc63ea41c52929091611259908290612bd7565b86610220015160600151876101e00151886080015189606001518b6040516112d99897969594939291906001600160a01b0398909816885263ffffffff968716602089015294861660408801529285166060870152931660808501526001600160801b0392831660a085015290911660c083015260e08201526101000190565b60405180910390a350505050565b60006020818152918152604090819020805460018201546002830154845160608082018752600386015463ffffffff80821684526001600160801b03640100000000928390048116858c015260048901548116858b01528951608081018b5260058a015480841682529384048316818d01526801000000000000000084048316818c01526c01000000000000000000000000909304909116928201929092528751808901895260068801546001600160a01b03168152600788015499810199909952875160a081019098526008870180549699929095169793969295909491939190829082906113d690612c1e565b80601f016020809104026020016040519081016040528092919081815260200182805461140290612c1e565b801561144f5780601f106114245761010080835404028352916020019161144f565b820191906000526020600020905b81548152906001019060200180831161143257829003601f168201915b5050505050815260200160018201805461146890612c1e565b80601f016020809104026020016040519081016040528092919081815260200182805461149490612c1e565b80156114e15780601f106114b6576101008083540402835291602001916114e1565b820191906000526020600020905b8154815290600101906020018083116114c457829003601f168201915b505050918352505060028201546001600160a01b039081166020830152600383015481166040830152600490920154909116606090910152905087565b6000828152602081905260409020600a8101546001600160a01b03163314611572576040517f30cd747100000000000000000000000000000000000000000000000000000000815260040160405180910390fd5b600a8101805473ffffffffffffffffffffffffffffffffffffffff19166001600160a01b03841690811790915560405184907fca0251ba80971adc7e92434b097ca40450b2a317013c51c5c5cb6ae74500bb0090600090a3505050565b600080808080808061160489896001600160a01b03919091166000908152600160209081526040808320938352929052205490565b905080156116be5760008181526020819052604090206001810154600290910154670de0b6b3a764000091611644916001600160801b0390911690612bd7565b61164e9190612b78565b60008281526020819052604090206002015490935061167690670de0b6b3a764000090612b78565b60008281526020819052604090206002810154600190910154919350906116a6906001600160801b031682612bd7565b6116b1906064612b8c565b6116bb9190612b78565b93505b50919450925090509250925092565b6000818152602081905260409020600b81015460068201546001600160a01b039182169116156117d957600682015460078301546040517f6352211e000000000000000000000000000000000000000000000000000000008152600481019190915233916001600160a01b031690636352211e9060240160206040518083038186803b15801561175c57600080fd5b505afa158015611770573d6000803e3d6000fd5b505050506040513d601f19601f8201168201806040525081019061179491906126a1565b6001600160a01b0316146117d4576040517fe1c6117100000000000000000000000000000000000000000000000000000000815260040160405180910390fd5b61181b565b6001600160a01b038116331461181b576040517fe1c6117100000000000000000000000000000000000000000000000000000000815260040160405180910390fd5b60018201546040805160e081018252845481526001600160801b039283166020808301829052600287015483850152835160608181018652600389015463ffffffff80821684526401000000009182900489168486015260048b0154909816838801528186019290925285516080818101885260058b0154808a1683529384048916828601526801000000000000000084048916828901526c01000000000000000000000000909304909716908701528301949094528251808401845260068701546001600160a01b0316815260078701549481019490945260a0808301949094528251938401909252600885018054600094611a749392889260c085019291908290829061192990612c1e565b80601f016020809104026020016040519081016040528092919081815260200182805461195590612c1e565b80156119a25780601f10611977576101008083540402835291602001916119a2565b820191906000526020600020905b81548152906001019060200180831161198557829003601f168201915b505050505081526020016001820180546119bb90612c1e565b80601f01602080910402602001604051908101604052809291908181526020018280546119e790612c1e565b8015611a345780601f10611a0957610100808354040283529160200191611a34565b820191906000526020600020905b815481529060010190602001808311611a1757829003601f168201915b505050918352505060028201546001600160a01b039081166020830152600383015481166040830152600490920154909116606090910152905250611b3b565b611a7e9190612bd7565b905080611a8c575050505050565b600183018054829190600090611aac9084906001600160801b0316612b16565b82546001600160801b039182166101009390930a928302919092021990911617905550600c830154611aed9086906001600160a01b03163085856000611f21565b600c8301546040516000815282916001600160a01b03169086907fff942d249898505febb2a9a00118e27567c084b9497d0aa3ba5e332c235b4f389060200160405180910390a45050505050565b6080810151604081015190516000918291611b569190612b59565b63ffffffff16905080421015611b6c5750919050565b6000611b788242612bd7565b90506000611bad85606001516000015163ffffffff1686608001516060015163ffffffff1684611ba89190612b78565b612110565b60808601516020810151606091820151918801515192935063ffffffff1691611bd69190612bab565b608087015160408101519051611bec9190612b59565b611bf69190612b59565b63ffffffff16118015611c16575084608001516020015163ffffffff1642115b15611c29575060608401515163ffffffff165b808560600151604001516001600160801b0316611c469190612b8c565b8560600151602001516001600160801b0316611c629190612b41565b95945050505050565b6040516317ba7d8560e01b81527fdfea78be99560632cc4c199ca1b0d68ffe0bbbb07b685976cefc8820374ac73a600482015260009081906001600160a01b038916906317ba7d859060240160206040518083038186803b158015611ccf57600080fd5b505afa158015611ce3573d6000803e3d6000fd5b505050506040513d601f19601f82011682018060405250810190611d0791906126a1565b90508215611e43576040517fda5139ca0000000000000000000000000000000000000000000000000000000081526001600160a01b038881166004830152602482018690526000604483015282169063da5139ca9060640160206040518083038186803b158015611d7757600080fd5b505afa158015611d8b573d6000803e3d6000fd5b505050506040513d601f19601f82011682018060405250810190611daf91906128c3565b6040517ff18d03cc0000000000000000000000000000000000000000000000000000000081526001600160a01b03898116600483015288811660248301528781166044830152606482018390529193509082169063f18d03cc90608401600060405180830381600087803b158015611e2657600080fd5b505af1158015611e3a573d6000803e3d6000fd5b50505050611f16565b6001600160a01b03808216906302b9446c90891615611e63576000611e65565b855b6040517fffffffff0000000000000000000000000000000000000000000000000000000060e084901b1681526001600160a01b03808c166004830152808b16602483015289166044820152606481018890526000608482015260a40160408051808303818588803b158015611ed957600080fd5b505af1158015611eed573d6000803e3d6000fd5b50505050506040513d601f19601f82011682018060405250810190611f129190612935565b9250505b509695505050505050565b6040516317ba7d8560e01b81527fdfea78be99560632cc4c199ca1b0d68ffe0bbbb07b685976cefc8820374ac73a60048201526000906001600160a01b038816906317ba7d859060240160206040518083038186803b158015611f8357600080fd5b505afa158015611f97573d6000803e3d6000fd5b505050506040513d601f19601f82011682018060405250810190611fbb91906126a1565b90508115612053576040517ff18d03cc0000000000000000000000000000000000000000000000000000000081526001600160a01b038781166004830152868116602483015285811660448301526064820185905282169063f18d03cc90608401600060405180830381600087803b15801561203657600080fd5b505af115801561204a573d6000803e3d6000fd5b50505050612107565b6040517f97da6d300000000000000000000000000000000000000000000000000000000081526001600160a01b0387811660048301528681166024830152858116604483015260006064830152608482018590528216906397da6d309060a4016040805180830381600087803b1580156120cc57600080fd5b505af11580156120e0573d6000803e3d6000fd5b505050506040513d601f19601f820116820180604052508101906121049190612935565b50505b50505050505050565b600081831061211f57816104cf565b5090919050565b60405180610280016040528060008152602001600081526020016000815260200160006001600160801b0316815260200160006001600160801b0316815260200160006001600160801b0316815260200160006001600160a01b0316815260200160006001600160a01b0316815260200160008152602001600081526020016000815260200160006001600160a01b031681526020016000815260200160008152602001600081526020016000815260200160006001600160a01b03168152602001612242604051806101200160405280600081526020016000815260200160008152602001600081526020016000815260200160001515815260200160006001600160a01b0316815260200160608152602001606081525090565b81526020016122d160405180610180016040528060006001600160a01b0316815260200160008152602001600081526020016000815260200160001515815260200160006001600160a01b031681526020016000815260200160008152602001600081526020016000815260200160006001600160a01b0316815260200160006001600160a01b031681525090565b8152602001600081525090565b8280546122ea90612c1e565b90600052602060002090601f01602090048101928261230c5760008555612352565b82601f1061232557805160ff1916838001178555612352565b82800160010185558215612352579182015b82811115612352578251825591602001919060010190612337565b5061235e929150612362565b5090565b5b8082111561235e5760008155600101612363565b805161238281612cca565b919050565b8051801515811461238257600080fd5b80516002811061238257600080fd5b80516005811061238257600080fd5b600082601f8301126123c5578081fd5b815167ffffffffffffffff808211156123e0576123e0612cb4565b604051601f8301601f19908116603f0116810190828211818310171561240857612408612cb4565b81604052838152866020858801011115612420578485fd5b612431846020830160208901612bee565b9695505050505050565b6000610200828403121561244d578081fd5b604051610100810181811067ffffffffffffffff8211171561247157612471612cb4565b60405290508061248083612397565b8152602083015160208201526040830151604082015260608301516060820152608083015160808201526124b660a08401612387565b60a08201526124c88460c085016124e7565b60c08201526124db84610160850161255a565b60e08201525092915050565b600060a082840312156124f8578081fd5b612500612aa5565b9050815161250d81612ce2565b8152602082015163ffffffff8116811461252657600080fd5b6020820152604082015161253981612cca565b80604083015250606082015160608201526080820151608082015292915050565b600060a0828403121561256b578081fd5b612573612aa5565b905061257e82612387565b8152602082015161252681612ce2565b60006040828403121561259f578081fd5b6040516040810181811067ffffffffffffffff821117156125c2576125c2612cb4565b604052825181526020928301519281019290925250919050565b600061012082840312156125ee578081fd5b6125f6612ace565b9050815181526020820151602082015260408201516040820152606082015160608201526080820151608082015261263060a08301612387565b60a082015261264160c08301612377565b60c082015260e082015167ffffffffffffffff8082111561266157600080fd5b61266d858386016123b5565b60e08401526101009150818401518181111561268857600080fd5b612694868287016123b5565b8385015250505092915050565b6000602082840312156126b2578081fd5b81516104cf81612cca565b6000806000806000806000806000898b036104808112156126dc578586fd5b8a516126e781612cca565b9950610180601f1982018113156126fc578687fd5b612704612af2565b915061271260208d01612377565b825260408c0151602083015260608c0151604083015260808c0151606083015261273e60a08d01612387565b608083015261274f60c08d01612377565b60a083015260e08c015160c0830152610100808d015160e0840152610120808e0151828501526101409150818e01518185015250610160612791818f01612377565b828501526127a0838f01612377565b9084015250506101a08b015190985067ffffffffffffffff8111156127c3578586fd5b6127cf8c828d016125dc565b9750506127e08b6101c08c0161243b565b95506127f08b6103c08c0161258e565b94506104008a015193506104208a0151925061280f6104408b016123a6565b91506104608a015190509295985092959850929598565b60008060408385031215612838578182fd5b823561284381612cca565b946020939093013593505050565b600060208284031215612862578081fd5b6104cf82612387565b60008060006060848603121561287f578081fd5b833561288a81612cca565b9250602084013561289a81612cca565b929592945050506040919091013590565b6000602082840312156128bc578081fd5b5035919050565b6000602082840312156128d4578081fd5b5051919050565b600080604083850312156128ed578182fd5b8235915060208301356128ff81612cca565b809150509250929050565b6000806040838503121561291c578182fd5b8251915061292c60208401612387565b90509250929050565b60008060408385031215612947578182fd5b505080516020909101519092909150565b60008151808452612970816020860160208601612bee565b601f01601f19169290920160200192915050565b6000815160a0845261299960a0850182612958565b9050602083015184820360208601526129b28282612958565b91505060408301516001600160a01b03808216604087015280606086015116606087015280608086015116608087015250508091505092915050565b60006101a08983526001600160801b03808a16602085015288604085015263ffffffff8089511660608601528160208a01511660808601528160408a01511660a08601528088511660c08601528060208901511660e086015280604089015116610100860152806060890151166101208601525050612a8461014084018680516001600160a01b03168252602090810151910152565b80610180840152612a9781840185612984565b9a9950505050505050505050565b60405160a0810167ffffffffffffffff81118282101715612ac857612ac8612cb4565b60405290565b604051610120810167ffffffffffffffff81118282101715612ac857612ac8612cb4565b604051610180810167ffffffffffffffff81118282101715612ac857612ac8612cb4565b60006001600160801b03808316818516808303821115612b3857612b38612c88565b01949350505050565b60008219821115612b5457612b54612c88565b500190565b600063ffffffff808316818516808303821115612b3857612b38612c88565b600082612b8757612b87612c9e565b500490565b6000816000190483118215151615612ba657612ba6612c88565b500290565b600063ffffffff80831681851681830481118215151615612bce57612bce612c88565b02949350505050565b600082821015612be957612be9612c88565b500390565b60005b83811015612c09578181015183820152602001612bf1565b83811115612c18576000848401525b50505050565b600181811c90821680612c3257607f821691505b60208210811415612c5357634e487b7160e01b600052602260045260246000fd5b50919050565b6000600019821415612c6d57612c6d612c88565b5060010190565b600082612c8357612c83612c9e565b500690565b634e487b7160e01b600052601160045260246000fd5b634e487b7160e01b600052601260045260246000fd5b634e487b7160e01b600052604160045260246000fd5b6001600160a01b0381168114612cdf57600080fd5b50565b60048110612cdf57600080fdfea26469706673582212203e3dba1ac122a6002f6d33cd5207177d8c56cb74a0b886ad4753d64045bc32ba64736f6c63430008040033",
  "linkReferences": {},
  "deployedLinkReferences": {}
}