{
  "_format": "hh-sol-artifact-1",
  "contractName": "FlexDaoSetPollingAdapterContract",
  "sourceName": "contracts/flex/adatpers/FlexDaoSetPollingAdapter.sol",
  "abi": [
    {
      "inputs": [],
      "name": "VOTING_NOT_FINISH",
      "type": "error"
    },
    {
      "inputs": [
        {
          "internalType": "bytes32",
          "name": "proposalId",
          "type": "bytes32"
        }
      ],
      "name": "getWhitelist",
      "outputs": [
        {
          "internalType": "address[]",
          "name": "",
          "type": "address[]"
        }
      ],
      "stateMutability": "view",
      "type": "function"
    },
    {
      "inputs": [
        {
          "internalType": "address",
          "name": "",
          "type": "address"
        }
      ],
      "name": "ongoingPollForInvestmentProposal",
      "outputs": [
        {
          "internalType": "bytes32",
          "name": "",
          "type": "bytes32"
        }
      ],
      "stateMutability": "view",
      "type": "function"
    },
    {
      "inputs": [
        {
          "internalType": "address",
          "name": "",
          "type": "address"
        },
        {
          "internalType": "bytes32",
          "name": "",
          "type": "bytes32"
        }
      ],
      "name": "pollForInvestmentProposals",
      "outputs": [
        {
          "internalType": "string",
          "name": "name",
          "type": "string"
        },
        {
          "internalType": "uint8",
          "name": "varifyType",
          "type": "uint8"
        },
        {
          "internalType": "uint256",
          "name": "minHolding",
          "type": "uint256"
        },
        {
          "internalType": "address",
          "name": "tokenAddress",
          "type": "address"
        },
        {
          "internalType": "uint256",
          "name": "tokenId",
          "type": "uint256"
        },
        {
          "components": [
            {
              "internalType": "uint256",
              "name": "votingPeriod",
              "type": "uint256"
            },
            {
              "internalType": "uint8",
              "name": "votingPower",
              "type": "uint8"
            },
            {
              "internalType": "uint256",
              "name": "superMajority",
              "type": "uint256"
            },
            {
              "internalType": "uint256",
              "name": "quorum",
              "type": "uint256"
            },
            {
              "internalType": "uint256",
              "name": "votingAssetType",
              "type": "uint256"
            },
            {
              "internalType": "address",
              "name": "tokenAddress",
              "type": "address"
            },
            {
              "internalType": "uint256",
              "name": "tokenID",
              "type": "uint256"
            },
            {
              "internalType": "uint256",
              "name": "supportType",
              "type": "uint256"
            },
            {
              "internalType": "uint256",
              "name": "quorumType",
              "type": "uint256"
            }
          ],
          "internalType": "struct FlexDaosetLibrary.flexDaoPollingInfo",
          "name": "pollingInfo",
          "type": "tuple"
        },
        {
          "internalType": "uint256",
          "name": "creationTime",
          "type": "uint256"
        },
        {
          "internalType": "uint256",
          "name": "stopVoteTime",
          "type": "uint256"
        },
        {
          "internalType": "enum FlexDaosetLibrary.ProposalState",
          "name": "state",
          "type": "uint8"
        }
      ],
      "stateMutability": "view",
      "type": "function"
    },
    {
      "inputs": [
        {
          "internalType": "contract DaoRegistry",
          "name": "dao",
          "type": "address"
        },
        {
          "internalType": "bytes32",
          "name": "proposalId",
          "type": "bytes32"
        }
      ],
      "name": "processPollForInvestmentProposal",
      "outputs": [
        {
          "internalType": "enum IFlexVoting.VotingState",
          "name": "",
          "type": "uint8"
        },
        {
          "internalType": "uint256",
          "name": "",
          "type": "uint256"
        },
        {
          "internalType": "uint256",
          "name": "",
          "type": "uint256"
        },
        {
          "internalType": "uint128",
          "name": "",
          "type": "uint128"
        }
      ],
      "stateMutability": "nonpayable",
      "type": "function"
    },
    {
      "inputs": [
        {
          "components": [
            {
              "internalType": "contract DaoRegistry",
              "name": "dao",
              "type": "address"
            },
            {
              "components": [
                {
                  "internalType": "string",
                  "name": "name",
                  "type": "string"
                },
                {
                  "internalType": "uint8",
                  "name": "varifyType",
                  "type": "uint8"
                },
                {
                  "internalType": "uint256",
                  "name": "minHolding",
                  "type": "uint256"
                },
                {
                  "internalType": "address",
                  "name": "tokenAddress",
                  "type": "address"
                },
                {
                  "internalType": "uint256",
                  "name": "tokenId",
                  "type": "uint256"
                },
                {
                  "internalType": "address[]",
                  "name": "whiteList",
                  "type": "address[]"
                }
              ],
              "internalType": "struct FlexDaosetLibrary.FlexDaoPollVoterMembershipInfo",
              "name": "pollvoterMembership",
              "type": "tuple"
            },
            {
              "components": [
                {
                  "internalType": "uint256",
                  "name": "votingPeriod",
                  "type": "uint256"
                },
                {
                  "internalType": "uint8",
                  "name": "votingPower",
                  "type": "uint8"
                },
                {
                  "internalType": "uint256",
                  "name": "superMajority",
                  "type": "uint256"
                },
                {
                  "internalType": "uint256",
                  "name": "quorum",
                  "type": "uint256"
                },
                {
                  "internalType": "uint256",
                  "name": "votingAssetType",
                  "type": "uint256"
                },
                {
                  "internalType": "address",
                  "name": "tokenAddress",
                  "type": "address"
                },
                {
                  "internalType": "uint256",
                  "name": "tokenID",
                  "type": "uint256"
                },
                {
                  "internalType": "uint256",
                  "name": "supportType",
                  "type": "uint256"
                },
                {
                  "internalType": "uint256",
                  "name": "quorumType",
                  "type": "uint256"
                }
              ],
              "internalType": "struct FlexDaosetLibrary.flexDaoPollingInfo",
              "name": "pollingInfo",
              "type": "tuple"
            }
          ],
          "internalType": "struct FlexDaosetLibrary.PollForInvestmentParams",
          "name": "params",
          "type": "tuple"
        }
      ],
      "name": "submitPollForInvestmentProposal",
      "outputs": [
        {
          "internalType": "bytes32",
          "name": "",
          "type": "bytes32"
        }
      ],
      "stateMutability": "nonpayable",
      "type": "function"
    }
  ],
  "bytecode": "0x608060405234801561001057600080fd5b50612b1f806100206000396000f3fe608060405234801561001057600080fd5b50600436106100675760003560e01c80638f20d7a1116100505780638f20d7a1146100cb578063dabd56a5146100de578063ea739f30146100fe57600080fd5b80635f8e03611461006c578063791c73ba1461009d575b600080fd5b61007f61007a3660046122c0565b610121565b6040516100949998979695949392919061278d565b60405180910390f35b6100bd6100ab366004612288565b60006020819052908152604090205481565b604051908152602001610094565b6100bd6100d9366004612435565b610271565b6100f16100ec3660046123d2565b6109fe565b6040516100949190612666565b61011161010c3660046123ea565b610a18565b604051610094949392919061274b565b6001602090815260009283526040808420909152908252902080548190610147906129d1565b80601f0160208091040260200160405190810160405280929190818152602001828054610173906129d1565b80156101c05780601f10610195576101008083540402835291602001916101c0565b820191906000526020600020905b8154815290600101906020018083116101a357829003601f168201915b5050506001840154600285015460038601546004870154604080516101208101825260058a0154815260068a015460ff908116602083015260078b01549282019290925260088a0154606082015260098a01546080820152600a8a01546001600160a01b0390811660a0830152600b8b015460c0830152600c8b015460e0830152600d8b0154610100830152600e8b0154600f8c01546010909c01549a9b9784169a96995094169650919491931689565b60006102806020830183612288565b6040516317ba7d8560e01b81527fe564b2da9fb62dadceed6d94ac5884ac5f464424e7be661d7d6181d49fa87b3f60048201526001600160a01b0391909116906317ba7d859060240160206040518083038186803b1580156102e157600080fd5b505afa1580156102f5573d6000803e3d6000fd5b505050506040513d601f19601f8201168201806040525081019061031991906122a4565b6001600160a01b0316336001600160a01b03161461037e5760405162461bcd60e51b815260206004820152600760248201527f216163636573730000000000000000000000000000000000000000000000000060448201526064015b60405180910390fd5b6000808061038f6020860186612288565b6001600160a01b03166001600160a01b0316815260200190815260200160002054146103fd5760405162461bcd60e51b815260206004820152600760248201527f217375626d6974000000000000000000000000000000000000000000000000006044820152606401610375565b61040a6020830183612288565b6001600160a01b031663018e5bea6040518163ffffffff1660e01b8152600401600060405180830381600087803b15801561044457600080fd5b505af1158015610458573d6000803e3d6000fd5b506000925061051e915061047190506020850185612288565b60c01b6104f96104846020870187612288565b6001600160a01b031663419f45b46040518163ffffffff1660e01b815260040160206040518083038186803b1580156104bc57600080fd5b505afa1580156104d0573d6000803e3d6000fd5b505050506040513d601f19601f820116820180604052508101906104f4919061249e565b610c6c565b60405160200161050a9291906125f8565b604051602081830303815290604052610dc2565b905060405180610120016040528084806020019061053c91906128ed565b61054690806128a8565b8080601f01602080910402602001604051908101604052809392919081815260200183838082843760009201919091525050509082525060209081019061058f908601866128ed565b6105a09060408101906020016124b6565b60ff1681526020018480602001906105b891906128ed565b6040013581526020018480602001906105d191906128ed565b6105e2906080810190606001612288565b6001600160a01b0316815260200184806020019061060091906128ed565b6080013581526020016040518061012001604052808660400160000135815260200186604001602001602081019061063891906124b6565b60ff168152608080880135602083015260a0880135604083015260c088013560608301520161066e610100880160e08901612288565b6001600160a01b031681526020018660400160c0013581526020018660400160e00135815260200186604001610100013581525081526020014281526020018460000160208101906106c09190612288565b604051634941d71d60e11b81527f9876c0f0505bfb2b1c38d3bbd25ba13159172cd0868972d76927723f5a9480fc60048201526001600160a01b039190911690639283ae3a9060240160206040518083038186803b15801561072157600080fd5b505afa158015610735573d6000803e3d6000fd5b505050506040513d601f19601f82011682018060405250810190610759919061249e565b610763904261295e565b8152602001600090526001600061077d6020870187612288565b6001600160a01b03168152602080820192909252604090810160009081208582528352208251805191926107b6928492909101906121df565b506020828101516001808401805460ff93841660ff19918216179091556040808701516002870155606080880151600380890180546001600160a01b039384167fffffffffffffffffffffffff0000000000000000000000000000000000000000918216179091556080808c015160048c015560a0808d0151805160058e01559a8b015160068d01805491909b16908916179099559489015160078b01559288015160088a015592870151600989015594860151600a880180549190961691161790935560c080850151600b87015560e080860151600c88015561010095860151600d88015590870151600e870155860151600f86015592850151601085018054919490939116919084908111156108de57634e487b7160e01b600052602160045260246000fd5b0217905550600091506108f6905060208501856128ed565b6109049060a0810190612859565b905011156109b35760005b61091c60208501856128ed565b61092a9060a0810190612859565b90508160ff1610156109b15761099e61094660208601866128ed565b6109549060a0810190612859565b8360ff1681811061097557634e487b7160e01b600052603260045260246000fd5b905060200201602081019061098a9190612288565b600084815260026020526040902090610dde565b50806109a981612a45565b91505061090f565b505b806000806109c46020870187612288565b6001600160a01b03168152602080820192909252604001600020919091556109f8906109f290850185612288565b82610dfa565b92915050565b60008181526002602052604090206060906109f890611010565b600080600080856001600160a01b03166317ba7d857fe564b2da9fb62dadceed6d94ac5884ac5f464424e7be661d7d6181d49fa87b3f6040518263ffffffff1660e01b8152600401610a6c91815260200190565b60206040518083038186803b158015610a8457600080fd5b505afa158015610a98573d6000803e3d6000fd5b505050506040513d601f19601f82011682018060405250810190610abc91906122a4565b6001600160a01b0316336001600160a01b031614610b1c5760405162461bcd60e51b815260206004820152600760248201527f21616363657373000000000000000000000000000000000000000000000000006044820152606401610375565b6001600160a01b0386166000908152600160209081526040808320888452909152812090808080610b4d8b8b61101d565b929650909450925090506002846005811115610b7957634e487b7160e01b600052602160045260246000fd5b1415610ba657610b8a8b8b8761123d565b6010850180546002919060ff19166001835b0217905550610c40565b6003846005811115610bc857634e487b7160e01b600052602160045260246000fd5b1480610bf357506001846005811115610bf157634e487b7160e01b600052602160045260246000fd5b145b15610c0e576010850180546003919060ff1916600183610b9c565b6040517f70fc772800000000000000000000000000000000000000000000000000000000815260040160405180910390fd5b6001600160a01b039a909a16600090815260208190526040812055919990989197509095509350505050565b606081610cac57505060408051808201909152600181527f3000000000000000000000000000000000000000000000000000000000000000602082015290565b8160005b8115610cd65780610cc081612a0c565b9150610ccf9050600a83612976565b9150610cb0565b60008167ffffffffffffffff811115610cff57634e487b7160e01b600052604160045260246000fd5b6040519080825280601f01601f191660200182016040528015610d29576020820181803683370190505b5090505b8415610dba57610d3e60018361298a565b9150610d4b600a86612a65565b610d5690603061295e565b60f81b818381518110610d7957634e487b7160e01b600052603260045260246000fd5b60200101907effffffffffffffffffffffffffffffffffffffffffffffffffffffffffffff1916908160001a905350610db3600a86612976565b9450610d2d565b949350505050565b6000815160001415610dd657506000919050565b506020015190565b6000610df3836001600160a01b038416611404565b9392505050565b6040517fb73dc389000000000000000000000000000000000000000000000000000000008152600481018290526001600160a01b0383169063b73dc38990602401600060405180830381600087803b158015610e5557600080fd5b505af1158015610e69573d6000803e3d6000fd5b50506040516317ba7d8560e01b81527f0d479c38716a0298633b1dbf1ce145a3fbd1d79ca4527de172afc3bad04a2ba76004820152600092506001600160a01b03851691506317ba7d859060240160206040518083038186803b158015610ecf57600080fd5b505afa158015610ee3573d6000803e3d6000fd5b505050506040513d601f19601f82011682018060405250810190610f0791906122a4565b604080516020810182526000815290517f2b0974d00000000000000000000000000000000000000000000000000000000081529192506001600160a01b03831691632b0974d091610f5e918791879160040161271a565b600060405180830381600087803b158015610f7857600080fd5b505af1158015610f8c573d6000803e3d6000fd5b50506040517f815a2bf4000000000000000000000000000000000000000000000000000000008152600481018590526001600160a01b0384811660248301528616925063815a2bf49150604401600060405180830381600087803b158015610ff357600080fd5b505af1158015611007573d6000803e3d6000fd5b50505050505050565b60606000610df383611453565b600080600080856001600160a01b03166330490e91866040518263ffffffff1660e01b815260040161105191815260200190565b600060405180830381600087803b15801561106b57600080fd5b505af115801561107f573d6000803e3d6000fd5b50506040516317ba7d8560e01b81527f0d479c38716a0298633b1dbf1ce145a3fbd1d79ca4527de172afc3bad04a2ba76004820152600092506001600160a01b03891691506317ba7d859060240160206040518083038186803b1580156110e557600080fd5b505afa1580156110f9573d6000803e3d6000fd5b505050506040513d601f19601f8201168201806040525081019061111d91906122a4565b90506001600160a01b0381166111755760405162461bcd60e51b815260206004820152600f60248201527f21766f74696e67436f6e747261637400000000000000000000000000000000006044820152606401610375565b6040517f76225e730000000000000000000000000000000000000000000000000000000081526001600160a01b0388811660048301526024820188905260009182918291908516906376225e7390604401606060405180830381600087803b1580156111e057600080fd5b505af11580156111f4573d6000803e3d6000fd5b505050506040513d601f19601f8201168201806040525081019061121891906123fc565b925092509250600061122a8b8b6114af565b939b929a50909850919650945050505050565b6040516317ba7d8560e01b81527fff9379b98b93eb3bd1fac62fd2258a7955d70d2d5279c40064145b6c9646df3760048201526000906001600160a01b038516906317ba7d859060240160206040518083038186803b15801561129f57600080fd5b505afa1580156112b3573d6000803e3d6000fd5b505050506040513d601f19601f820116820180604052508101906112d791906122a4565b604080516101208101825260058501548152600685015460ff9081166020808401919091526007870154838501526008870154606084015260098701546080840152600b87015460a0840152600187015490911660c083015260028087015460e0840152600487015461010084015283518085018552600a8801546001600160a01b039081168252600389015481168285015260008a81529290935293902093945084169263b8e662c29288929161138e90611010565b6040517fffffffff0000000000000000000000000000000000000000000000000000000060e087901b1681526113cc94939291908990600401612679565b600060405180830381600087803b1580156113e657600080fd5b505af11580156113fa573d6000803e3d6000fd5b5050505050505050565b600081815260018301602052604081205461144b575081546001818101845560008481526020808220909301849055845484825282860190935260409020919091556109f8565b5060006109f8565b6060816000018054806020026020016040519081016040528092919081815260200182805480156114a357602002820191906000526020600020905b81548152602001906001019080831161148f575b50505050509050919050565b6000806114bb8461176f565b6040516317ba7d8560e01b81527f0d479c38716a0298633b1dbf1ce145a3fbd1d79ca4527de172afc3bad04a2ba7600482015290915060009081906001600160a01b038716906317ba7d859060240160206040518083038186803b15801561152257600080fd5b505afa158015611536573d6000803e3d6000fd5b505050506040513d601f19601f8201168201806040525081019061155a91906122a4565b905060005b83518160ff16101561176457816001600160a01b03166324a2cceb8888878560ff168151811061159f57634e487b7160e01b600052603260045260246000fd5b60200260200101516040518463ffffffff1660e01b81526004016115e3939291906001600160a01b0393841681526020810192909252909116604082015260600190565b60206040518083038186803b1580156115fb57600080fd5b505afa15801561160f573d6000803e3d6000fd5b505050506040513d601f19601f8201168201806040525081019061163391906123b2565b1561171157816001600160a01b03166391d2fd538888878560ff168151811061166c57634e487b7160e01b600052603260045260246000fd5b60200260200101516040518463ffffffff1660e01b81526004016116b0939291906001600160a01b0393841681526020810192909252909116604082015260600190565b60206040518083038186803b1580156116c857600080fd5b505afa1580156116dc573d6000803e3d6000fd5b505050506040513d601f19601f82011682018060405250810190611700919061246e565b61170a908461292a565b9250611752565b61174587858360ff168151811061173857634e487b7160e01b600052603260045260246000fd5b60200260200101516117e6565b61174f908461292a565b92505b8061175c81612a45565b91505061155f565b509095945050505050565b6060816001600160a01b031663a6f636416040518163ffffffff1660e01b815260040160006040518083038186803b1580156117aa57600080fd5b505afa1580156117be573d6000803e3d6000fd5b505050506040513d6000823e601f3d908101601f191682016040526109f891908101906122eb565b604051634941d71d60e11b81527f75b7d343967750d1f6c15979b7559cea8be22ff1a06a51681b9cbef0d2fff4fe600482015260009081906001600160a01b03851690639283ae3a9060240160206040518083038186803b15801561184a57600080fd5b505afa15801561185e573d6000803e3d6000fd5b505050506040513d601f19601f82011682018060405250810190611882919061249e565b604051634941d71d60e11b81527f18ef0b57fe939edb640a200fdf533493bd8f26a274151543a109b64c857e20f360048201529091506000906001600160a01b03861690639283ae3a9060240160206040518083038186803b1580156118e757600080fd5b505afa1580156118fb573d6000803e3d6000fd5b505050506040513d601f19601f8201168201806040525081019061191f919061249e565b6040516317ba7d8560e01b81527f37cbe06c1044f98864ea25736326bc1d488e24e5e23781ea2ad64c4069cb9e6e60048201529091506000906001600160a01b038716906317ba7d859060240160206040518083038186803b15801561198457600080fd5b505afa158015611998573d6000803e3d6000fd5b505050506040513d601f19601f820116820180604052508101906119bc91906122a4565b90508160011415611d5d57604051634941d71d60e11b81527f77b1580d1632c74a32483c26a7156260a89ae4138b020ea7d09b0dcf24f1ea2460048201526000906001600160a01b03881690639283ae3a9060240160206040518083038186803b158015611a2957600080fd5b505afa158015611a3d573d6000803e3d6000fd5b505050506040513d601f19601f82011682018060405250810190611a61919061249e565b6040517ffd310d290000000000000000000000000000000000000000000000000000000081527fb5a1ad3f04728d7c38547e3d43006a1ec090a02fce04bbb1d0ee4519a1921e5760048201529091506000906001600160a01b0389169063fd310d299060240160206040518083038186803b158015611adf57600080fd5b505afa158015611af3573d6000803e3d6000fd5b505050506040513d601f19601f82011682018060405250810190611b1791906122a4565b9050600085611bb5576040516370a0823160e01b81526001600160a01b038981166004830152670de0b6b3a764000091908416906370a082319060240160206040518083038186803b158015611b6c57600080fd5b505afa158015611b80573d6000803e3d6000fd5b505050506040513d601f19601f82011682018060405250810190611ba4919061249e565b611bae9190612976565b9050611cf4565b8560011415611c38576040516370a0823160e01b81526001600160a01b0389811660048301528316906370a08231906024015b60206040518083038186803b158015611c0057600080fd5b505afa158015611c14573d6000803e3d6000fd5b505050506040513d601f19601f82011682018060405250810190611bae919061249e565b8560021415611c8d576040517efdd58e0000000000000000000000000000000000000000000000000000000081526001600160a01b0389811660048301526024820185905283169062fdd58e90604401611be8565b8560031415611ce5576040517fa6d945cc0000000000000000000000000000000000000000000000000000000081526001600160a01b038a81166004830152898116602483015285169063a6d945cc90604401611be8565b600096505050505050506109f8565b60008111611d0b57600096505050505050506109f8565b677fffffffffffffff8110611d2957603296505050505050506109f8565b6000611d44611d3f611d3a846120ae565b6120cc565b6121c3565b67ffffffffffffffff1697506109f89650505050505050565b8160021415611d7257600193505050506109f8565b816120a257604051634941d71d60e11b81527f77b1580d1632c74a32483c26a7156260a89ae4138b020ea7d09b0dcf24f1ea2460048201526000906001600160a01b03881690639283ae3a9060240160206040518083038186803b158015611dd957600080fd5b505afa158015611ded573d6000803e3d6000fd5b505050506040513d601f19601f82011682018060405250810190611e11919061249e565b6040517ffd310d290000000000000000000000000000000000000000000000000000000081527fb5a1ad3f04728d7c38547e3d43006a1ec090a02fce04bbb1d0ee4519a1921e5760048201529091506000906001600160a01b0389169063fd310d299060240160206040518083038186803b158015611e8f57600080fd5b505afa158015611ea3573d6000803e3d6000fd5b505050506040513d601f19601f82011682018060405250810190611ec791906122a4565b9050600085611f65576040516370a0823160e01b81526001600160a01b038981166004830152670de0b6b3a764000091908416906370a082319060240160206040518083038186803b158015611f1c57600080fd5b505afa158015611f30573d6000803e3d6000fd5b505050506040513d601f19601f82011682018060405250810190611f54919061249e565b611f5e9190612976565b9050612095565b8560011415611fe8576040516370a0823160e01b81526001600160a01b0389811660048301528316906370a08231906024015b60206040518083038186803b158015611fb057600080fd5b505afa158015611fc4573d6000803e3d6000fd5b505050506040513d601f19601f82011682018060405250810190611f5e919061249e565b856002141561203d576040517efdd58e0000000000000000000000000000000000000000000000000000000081526001600160a01b0389811660048301526024820185905283169062fdd58e90604401611f98565b8560031415611ce5576040517fa6d945cc0000000000000000000000000000000000000000000000000000000081526001600160a01b038a81166004830152898116602483015285169063a6d945cc90604401611f98565b95506109f8945050505050565b600093505050506109f8565b6000677fffffffffffffff8211156120c557600080fd5b5060401b90565b60008082600f0b136120dd57600080fd5b6000600f83900b6801000000000000000081126120fc576040918201911d5b6401000000008112612110576020918201911d5b620100008112612122576010918201911d5b6101008112612133576008918201911d5b60108112612143576004918201911d5b60048112612153576002918201911d5b60028112612162576001820191505b7fffffffffffffffffffffffffffffffffffffffffffffffffffffffffffffffc0820160401b600f85900b607f8490031b6780000000000000005b60008113156117645790800260ff81901c8281029390930192607f011c9060011d61219d565b60008082600f0b12156121d557600080fd5b50600f0b60401d90565b8280546121eb906129d1565b90600052602060002090601f01602090048101928261220d5760008555612253565b82601f1061222657805160ff1916838001178555612253565b82800160010185558215612253579182015b82811115612253578251825591602001919060010190612238565b5061225f929150612263565b5090565b5b8082111561225f5760008155600101612264565b805161228381612ad1565b919050565b600060208284031215612299578081fd5b8135610df381612ad1565b6000602082840312156122b5578081fd5b8151610df381612ad1565b600080604083850312156122d2578081fd5b82356122dd81612ad1565b946020939093013593505050565b600060208083850312156122fd578182fd5b825167ffffffffffffffff80821115612314578384fd5b818501915085601f830112612327578384fd5b81518181111561233957612339612abb565b8060051b604051601f19603f8301168101818110858211171561235e5761235e612abb565b604052828152858101935084860182860187018a101561237c578788fd5b8795505b838610156123a55761239181612278565b855260019590950194938601938601612380565b5098975050505050505050565b6000602082840312156123c3578081fd5b81518015158114610df3578182fd5b6000602082840312156123e3578081fd5b5035919050565b600080604083850312156122d2578182fd5b600080600060608486031215612410578081fd5b83516006811061241e578182fd5b602085015160409095015190969495509392505050565b600060208284031215612446578081fd5b813567ffffffffffffffff81111561245c578182fd5b82016101608185031215610df3578182fd5b60006020828403121561247f578081fd5b81516fffffffffffffffffffffffffffffffff81168114610df3578182fd5b6000602082840312156124af578081fd5b5051919050565b6000602082840312156124c7578081fd5b813560ff81168114610df3578182fd5b6000815180845260208085019450808401835b8381101561250f5781516001600160a01b0316875295820195908201906001016124ea565b509495945050505050565b600081518084526125328160208601602086016129a1565b601f01601f19169290920160200192915050565b6004811061255657612556612aa5565b9052565b8054600090600181811c908083168061257457607f831692505b602080841082141561259457634e487b7160e01b86526022600452602486fd5b838852602088018280156125af57600181146125c0576125eb565b60ff198716825282820197506125eb565b60008981526020902060005b878110156125e5578154848201529086019084016125cc565b83019850505b5050505050505092915050565b7fffffffffffffffff000000000000000000000000000000000000000000000000831681527f506f6c6c20466f7220496e766573746d656e742023000000000000000000000060088201526000825161265881601d8501602087016129a1565b91909101601d019392505050565b602081526000610df360208301846124d7565b60006101c06001600160a01b0388168352602080840188845b60098110156126af57815183529183019190830190600101612692565b505050610140840187845b60028110156126e25781516001600160a01b03168352602083019250908301906001016126ba565b50505050806101808401526126f9818401866124d7565b90508281036101a084015261270e818561255a565b98975050505050505050565b6001600160a01b0384168152826020820152606060408201526000612742606083018461251a565b95945050505050565b608081016006861061275f5761275f612aa5565b948152602081019390935260408301919091526fffffffffffffffffffffffffffffffff1660609091015290565b60006102208083526127a18184018d61251a565b91505060ff8a1660208301528860408301526001600160a01b038089166060840152876080840152865160a084015260ff60208801511660c0840152604087015160e08401526060870151610100818186015260808901516101208601528260a08a01511661014086015260c089015161016086015260e0890151610180860152808901516101a0860152505050846101c0830152836101e083015261284b610200830184612546565b9a9950505050505050505050565b6000808335601e1984360301811261286f578283fd5b83018035915067ffffffffffffffff821115612889578283fd5b6020019150600581901b36038213156128a157600080fd5b9250929050565b6000808335601e198436030181126128be578182fd5b83018035915067ffffffffffffffff8211156128d8578283fd5b6020019150368190038213156128a157600080fd5b600082357fffffffffffffffffffffffffffffffffffffffffffffffffffffffffffffff41833603018112612920578182fd5b9190910192915050565b60006fffffffffffffffffffffffffffffffff80831681851680830382111561295557612955612a79565b01949350505050565b6000821982111561297157612971612a79565b500190565b60008261298557612985612a8f565b500490565b60008282101561299c5761299c612a79565b500390565b60005b838110156129bc5781810151838201526020016129a4565b838111156129cb576000848401525b50505050565b600181811c908216806129e557607f821691505b60208210811415612a0657634e487b7160e01b600052602260045260246000fd5b50919050565b60007fffffffffffffffffffffffffffffffffffffffffffffffffffffffffffffffff821415612a3e57612a3e612a79565b5060010190565b600060ff821660ff811415612a5c57612a5c612a79565b60010192915050565b600082612a7457612a74612a8f565b500690565b634e487b7160e01b600052601160045260246000fd5b634e487b7160e01b600052601260045260246000fd5b634e487b7160e01b600052602160045260246000fd5b634e487b7160e01b600052604160045260246000fd5b6001600160a01b0381168114612ae657600080fd5b5056fea264697066735822122088c6fd2762d6b62687973310b9ac66390d15899ddf5eb1d42108c3076b5a939a64736f6c63430008040033",
  "linkReferences": {},
  "deployedLinkReferences": {}
}