{
  "_format": "hh-sol-artifact-1",
  "contractName": "FlexDaoSetVotingAdapterContract",
  "sourceName": "contracts/flex/adatpers/FlexDaoSetVotingAdapter.sol",
  "abi": [
    {
      "inputs": [],
      "name": "VOTING_NOT_FINISH",
      "type": "error"
    },
    {
      "inputs": [
        {
          "internalType": "address",
          "name": "daoAddr",
          "type": "address"
        },
        {
          "internalType": "bytes32",
          "name": "proposalId",
          "type": "bytes32"
        }
      ],
      "name": "getAllocations",
      "outputs": [
        {
          "internalType": "address[]",
          "name": "",
          "type": "address[]"
        },
        {
          "internalType": "uint256[]",
          "name": "",
          "type": "uint256[]"
        }
      ],
      "stateMutability": "view",
      "type": "function"
    },
    {
      "inputs": [
        {
          "internalType": "address",
          "name": "",
          "type": "address"
        }
      ],
      "name": "ongoingVotingProposal",
      "outputs": [
        {
          "internalType": "bytes32",
          "name": "",
          "type": "bytes32"
        }
      ],
      "stateMutability": "view",
      "type": "function"
    },
    {
      "inputs": [
        {
          "internalType": "contract DaoRegistry",
          "name": "dao",
          "type": "address"
        },
        {
          "internalType": "bytes32",
          "name": "proposalId",
          "type": "bytes32"
        }
      ],
      "name": "processVotingProposal",
      "outputs": [
        {
          "internalType": "enum IFlexVoting.VotingState",
          "name": "",
          "type": "uint8"
        },
        {
          "internalType": "uint256",
          "name": "",
          "type": "uint256"
        },
        {
          "internalType": "uint256",
          "name": "",
          "type": "uint256"
        },
        {
          "internalType": "uint128",
          "name": "",
          "type": "uint128"
        }
      ],
      "stateMutability": "nonpayable",
      "type": "function"
    },
    {
      "inputs": [
        {
          "components": [
            {
              "internalType": "contract DaoRegistry",
              "name": "dao",
              "type": "address"
            },
            {
              "internalType": "uint256",
              "name": "votingAssetType",
              "type": "uint256"
            },
            {
              "internalType": "address",
              "name": "tokenAddress",
              "type": "address"
            },
            {
              "internalType": "uint256",
              "name": "tokenID",
              "type": "uint256"
            },
            {
              "internalType": "uint256",
              "name": "votingWeightedType",
              "type": "uint256"
            },
            {
              "internalType": "uint256",
              "name": "supportType",
              "type": "uint256"
            },
            {
              "internalType": "uint256",
              "name": "quorumType",
              "type": "uint256"
            },
            {
              "internalType": "uint256",
              "name": "support",
              "type": "uint256"
            },
            {
              "internalType": "uint256",
              "name": "quorum",
              "type": "uint256"
            },
            {
              "internalType": "uint256",
              "name": "votingPeriod",
              "type": "uint256"
            },
            {
              "internalType": "uint256",
              "name": "executingPeriod",
              "type": "uint256"
            },
            {
              "internalType": "address[]",
              "name": "governors",
              "type": "address[]"
            },
            {
              "internalType": "uint256[]",
              "name": "allocations",
              "type": "uint256[]"
            }
          ],
          "internalType": "struct FlexDaosetLibrary.VotingParams",
          "name": "params",
          "type": "tuple"
        }
      ],
      "name": "submitVotingProposal",
      "outputs": [
        {
          "internalType": "bytes32",
          "name": "",
          "type": "bytes32"
        }
      ],
      "stateMutability": "nonpayable",
      "type": "function"
    },
    {
      "inputs": [
        {
          "internalType": "address",
          "name": "",
          "type": "address"
        },
        {
          "internalType": "bytes32",
          "name": "",
          "type": "bytes32"
        }
      ],
      "name": "votingProposals",
      "outputs": [
        {
          "components": [
            {
              "internalType": "uint256",
              "name": "supportType",
              "type": "uint256"
            },
            {
              "internalType": "uint256",
              "name": "quorumType",
              "type": "uint256"
            },
            {
              "internalType": "uint256",
              "name": "support",
              "type": "uint256"
            },
            {
              "internalType": "uint256",
              "name": "quorum",
              "type": "uint256"
            }
          ],
          "internalType": "struct FlexDaosetLibrary.VotingSupportInfo",
          "name": "supportInfo",
          "type": "tuple"
        },
        {
          "components": [
            {
              "internalType": "uint256",
              "name": "votingAssetType",
              "type": "uint256"
            },
            {
              "internalType": "address",
              "name": "tokenAddress",
              "type": "address"
            },
            {
              "internalType": "uint256",
              "name": "tokenID",
              "type": "uint256"
            },
            {
              "internalType": "uint256",
              "name": "votingWeightedType",
              "type": "uint256"
            }
          ],
          "internalType": "struct FlexDaosetLibrary.VotingAssetInfo",
          "name": "votingAssetInfo",
          "type": "tuple"
        },
        {
          "components": [
            {
              "internalType": "uint256",
              "name": "votingPeriod",
              "type": "uint256"
            },
            {
              "internalType": "uint256",
              "name": "executingPeriod",
              "type": "uint256"
            },
            {
              "internalType": "uint256",
              "name": "creationTime",
              "type": "uint256"
            },
            {
              "internalType": "uint256",
              "name": "stopVoteTime",
              "type": "uint256"
            }
          ],
          "internalType": "struct FlexDaosetLibrary.VotingTimeInfo",
          "name": "timeInfo",
          "type": "tuple"
        },
        {
          "components": [
            {
              "internalType": "uint256[]",
              "name": "allocs",
              "type": "uint256[]"
            }
          ],
          "internalType": "struct FlexDaosetLibrary.VotingAllocation",
          "name": "allocations",
          "type": "tuple"
        },
        {
          "components": [
            {
              "internalType": "address[]",
              "name": "governors",
              "type": "address[]"
            }
          ],
          "internalType": "struct FlexDaosetLibrary.VotingGovernor",
          "name": "governors",
          "type": "tuple"
        },
        {
          "internalType": "enum FlexDaosetLibrary.ProposalState",
          "name": "state",
          "type": "uint8"
        }
      ],
      "stateMutability": "view",
      "type": "function"
    }
  ],
  "bytecode": "0x608060405234801561001057600080fd5b50612b1a806100206000396000f3fe608060405234801561001057600080fd5b50600436106100675760003560e01c8063a860dfdd11610050578063a860dfdd146100bb578063b6939b7f146100de578063d3efe3761461010c57600080fd5b80631d625e241461006c5780634030038a1461009a575b600080fd5b61007f61007a3660046123be565b61011f565b60405161009196959493929190612837565b60405180910390f35b6100ad6100a83660046123be565b610295565b6040516100919291906126d7565b6100ce6100c93660046124d0565b61037b565b60405161009194939291906127f5565b6100fe6100ec36600461237f565b60006020819052908152604090205481565b604051908152602001610091565b6100fe61011a36600461251b565b6105d3565b60016020818152600093845260408085208252928452928290208251608080820185528254825292820154818601526002820154818501526003820154606080830191909152845180850186526004840154815260058401546001600160a01b0316818801526006840154818701526007840154818301528551948501865260088401548552600984015485880152600a84015485870152600b840154918501919091528451600c840180548089028301880188529782018881529397929691939092849284919084018282801561021657602002820191906000526020600020905b815481526020019060010190808311610202575b50505091909252505060408051600d85018054602081810284018501855283018181529596959294509092849291849184018282801561027f57602002820191906000526020600020905b81546001600160a01b03168152600190910190602001808311610261575b50505091909252505050600e9091015460ff1686565b6001600160a01b0382166000908152600160209081526040808320848452825291829020600d8101805484518185028101850190955280855260609485949293600c01929091849183018282801561031657602002820191906000526020600020905b81546001600160a01b031681526001909101906020018083116102f8575b505050505091508080548060200260200160405190810160405280929190818152602001828054801561036857602002820191906000526020600020905b815481526020019060010190808311610354575b50505050509050915091505b9250929050565b600080600080856001600160a01b03166317ba7d857fe564b2da9fb62dadceed6d94ac5884ac5f464424e7be661d7d6181d49fa87b3f6040518263ffffffff1660e01b81526004016103cf91815260200190565b60206040518083038186803b1580156103e757600080fd5b505afa1580156103fb573d6000803e3d6000fd5b505050506040513d601f19601f8201168201806040525081019061041f91906123a2565b6001600160a01b0316336001600160a01b0316146104845760405162461bcd60e51b815260206004820152600760248201527f216163636573730000000000000000000000000000000000000000000000000060448201526064015b60405180910390fd5b6001600160a01b03861660009081526001602090815260408083208884529091528120908080806104b58b8b610e86565b9296509094509250905060028460058111156104e157634e487b7160e01b600052602160045260246000fd5b141561050d576104f18b866110a6565b600e850180546002919060ff19166001835b02179055506105a7565b600384600581111561052f57634e487b7160e01b600052602160045260246000fd5b148061055a5750600184600581111561055857634e487b7160e01b600052602160045260246000fd5b145b1561057557600e850180546003919060ff1916600183610503565b6040517f70fc772800000000000000000000000000000000000000000000000000000000815260040160405180910390fd5b6001600160a01b039a909a16600090815260208190526040812055919990989197509095509350505050565b60006105e2602083018361237f565b6040516317ba7d8560e01b81527fe564b2da9fb62dadceed6d94ac5884ac5f464424e7be661d7d6181d49fa87b3f60048201526001600160a01b0391909116906317ba7d859060240160206040518083038186803b15801561064357600080fd5b505afa158015610657573d6000803e3d6000fd5b505050506040513d601f19601f8201168201806040525081019061067b91906123a2565b6001600160a01b0316336001600160a01b0316146106db5760405162461bcd60e51b815260206004820152600760248201527f2161636365737300000000000000000000000000000000000000000000000000604482015260640161047b565b600080806106ec602086018661237f565b6001600160a01b03166001600160a01b03168152602001908152602001600020541461075a5760405162461bcd60e51b815260206004820152600760248201527f217375626d697400000000000000000000000000000000000000000000000000604482015260640161047b565b61076861018083018361294a565b9050610778610160840184612902565b9050146107c75760405162461bcd60e51b815260206004820152601260248201527f21616c6c6f636174696f6e20706172616d730000000000000000000000000000604482015260640161047b565b6107d4602083018361237f565b6001600160a01b0316631bc0f7876040518163ffffffff1660e01b8152600401600060405180830381600087803b15801561080e57600080fd5b505af1158015610822573d6000803e3d6000fd5b50600092506108e8915061083b9050602085018561237f565b60c01b6108c361084e602087018761237f565b6001600160a01b031663656f9f996040518163ffffffff1660e01b815260040160206040518083038186803b15801561088657600080fd5b505afa15801561089a573d6000803e3d6000fd5b505050506040513d601f19601f820116820180604052508101906108be9190612584565b611227565b6040516020016108d4929190612669565b60405160208183030381529060405261137d565b90506040518060c0016040528060405180608001604052808660a0013581526020018660c0013581526020018660e0013581526020018661010001358152508152602001604051806080016040528086602001358152602001866040016020810190610954919061237f565b6001600160a01b0316815260200186606001358152602001866080013581525081526020016040518060800160405280866101200135815260200186610140013581526020014281526020018660000160208101906109b3919061237f565b604051634941d71d60e11b81527f9876c0f0505bfb2b1c38d3bbd25ba13159172cd0868972d76927723f5a9480fc60048201526001600160a01b039190911690639283ae3a9060240160206040518083038186803b158015610a1457600080fd5b505afa158015610a28573d6000803e3d6000fd5b505050506040513d601f19601f82011682018060405250810190610a4c9190612584565b610a569042612994565b8152508152602001604051806020016040528086806101800190610a7a919061294a565b905067ffffffffffffffff811115610aa257634e487b7160e01b600052604160045260246000fd5b604051908082528060200260200182016040528015610acb578160200160208202803683370190505b508152508152602001604051806020016040528086806101600190610af09190612902565b905067ffffffffffffffff811115610b1857634e487b7160e01b600052604160045260246000fd5b604051908082528060200260200182016040528015610b41578160200160208202803683370190505b50905281526020016000905260016000610b5e602087018761237f565b6001600160a01b039081168252602080830193909352604091820160009081208682528452829020845180518255808501516001830155808401516002830155606090810151600383015585850151805160048401558086015160058401805473ffffffffffffffffffffffffffffffffffffffff19169190951617909355828401516006830155918201516007820155848301518051600883015580850151600983015592830151600a82015591810151600b8301558301518051805192939192600c850192610c339284929101906122ad565b505050608082015180518051600d840191610c53918391602001906122f8565b50505060a0820151600e8201805460ff19166001836003811115610c8757634e487b7160e01b600052602160045260246000fd5b021790555090505060005b610ca061018085018561294a565b90508160ff161015610e3a57610cba61018085018561294a565b8260ff16818110610cdb57634e487b7160e01b600052603260045260246000fd5b9050602002013560016000866000016020810190610cf9919061237f565b6001600160a01b03168152602080820192909252604090810160009081208682529092529020600c01805460ff8416908110610d4557634e487b7160e01b600052603260045260246000fd5b600091825260209091200155610d5f610160850185612902565b8260ff16818110610d8057634e487b7160e01b600052603260045260246000fd5b9050602002016020810190610d95919061237f565b60016000610da6602088018861237f565b6001600160a01b03168152602080820192909252604090810160009081208682529092529020600d01805460ff8416908110610df257634e487b7160e01b600052603260045260246000fd5b6000918252602090912001805473ffffffffffffffffffffffffffffffffffffffff19166001600160a01b039290921691909117905580610e3281612a40565b915050610c92565b5080600080610e4c602087018761237f565b6001600160a01b0316815260208082019290925260400160002091909155610e8090610e7a9085018561237f565b82611399565b92915050565b600080600080856001600160a01b03166330490e91866040518263ffffffff1660e01b8152600401610eba91815260200190565b600060405180830381600087803b158015610ed457600080fd5b505af1158015610ee8573d6000803e3d6000fd5b50506040516317ba7d8560e01b81527f0d479c38716a0298633b1dbf1ce145a3fbd1d79ca4527de172afc3bad04a2ba76004820152600092506001600160a01b03891691506317ba7d859060240160206040518083038186803b158015610f4e57600080fd5b505afa158015610f62573d6000803e3d6000fd5b505050506040513d601f19601f82011682018060405250810190610f8691906123a2565b90506001600160a01b038116610fde5760405162461bcd60e51b815260206004820152600f60248201527f21766f74696e67436f6e74726163740000000000000000000000000000000000604482015260640161047b565b6040517f76225e730000000000000000000000000000000000000000000000000000000081526001600160a01b0388811660048301526024820188905260009182918291908516906376225e7390604401606060405180830381600087803b15801561104957600080fd5b505af115801561105d573d6000803e3d6000fd5b505050506040513d601f19601f8201168201806040525081019061108191906124e2565b92509250925060006110938b8b61157d565b939b929a50909850919650945050505050565b6040516317ba7d8560e01b81527fff9379b98b93eb3bd1fac62fd2258a7955d70d2d5279c40064145b6c9646df3760048201526000906001600160a01b038416906317ba7d859060240160206040518083038186803b15801561110857600080fd5b505afa15801561111c573d6000803e3d6000fd5b505050506040513d601f19601f8201168201806040525081019061114091906123a2565b600583015460408051610100810182526004808701548252600687015460208301526007870154828401528654606083015260018701546080830152600387015460a0830152600287015460c0830152600887015460e083015291517f34c492840000000000000000000000000000000000000000000000000000000081529394506001600160a01b03808616946334c49284946111f0948a94939091169291600d8a0191600c8b019101612705565b600060405180830381600087803b15801561120a57600080fd5b505af115801561121e573d6000803e3d6000fd5b50505050505050565b60608161126757505060408051808201909152600181527f3000000000000000000000000000000000000000000000000000000000000000602082015290565b8160005b8115611291578061127b81612a07565b915061128a9050600a836129ac565b915061126b565b60008167ffffffffffffffff8111156112ba57634e487b7160e01b600052604160045260246000fd5b6040519080825280601f01601f1916602001820160405280156112e4576020820181803683370190505b5090505b8415611375576112f96001836129c0565b9150611306600a86612a60565b611311906030612994565b60f81b81838151811061133457634e487b7160e01b600052603260045260246000fd5b60200101907effffffffffffffffffffffffffffffffffffffffffffffffffffffffffffff1916908160001a90535061136e600a866129ac565b94506112e8565b949350505050565b600081516000141561139157506000919050565b506020015190565b6040517fb73dc389000000000000000000000000000000000000000000000000000000008152600481018290526001600160a01b0383169063b73dc38990602401600060405180830381600087803b1580156113f457600080fd5b505af1158015611408573d6000803e3d6000fd5b50506040516317ba7d8560e01b81527f0d479c38716a0298633b1dbf1ce145a3fbd1d79ca4527de172afc3bad04a2ba76004820152600092506001600160a01b03851691506317ba7d859060240160206040518083038186803b15801561146e57600080fd5b505afa158015611482573d6000803e3d6000fd5b505050506040513d601f19601f820116820180604052508101906114a691906123a2565b604080516020810182526000815290517f2b0974d00000000000000000000000000000000000000000000000000000000081529192506001600160a01b03831691632b0974d0916114fd91879187916004016127ab565b600060405180830381600087803b15801561151757600080fd5b505af115801561152b573d6000803e3d6000fd5b50506040517f815a2bf4000000000000000000000000000000000000000000000000000000008152600481018590526001600160a01b0384811660248301528616925063815a2bf491506044016111f0565b6000806115898461183d565b6040516317ba7d8560e01b81527f0d479c38716a0298633b1dbf1ce145a3fbd1d79ca4527de172afc3bad04a2ba7600482015290915060009081906001600160a01b038716906317ba7d859060240160206040518083038186803b1580156115f057600080fd5b505afa158015611604573d6000803e3d6000fd5b505050506040513d601f19601f8201168201806040525081019061162891906123a2565b905060005b83518160ff16101561183257816001600160a01b03166324a2cceb8888878560ff168151811061166d57634e487b7160e01b600052603260045260246000fd5b60200260200101516040518463ffffffff1660e01b81526004016116b1939291906001600160a01b0393841681526020810192909252909116604082015260600190565b60206040518083038186803b1580156116c957600080fd5b505afa1580156116dd573d6000803e3d6000fd5b505050506040513d601f19601f8201168201806040525081019061170191906124b0565b156117df57816001600160a01b03166391d2fd538888878560ff168151811061173a57634e487b7160e01b600052603260045260246000fd5b60200260200101516040518463ffffffff1660e01b815260040161177e939291906001600160a01b0393841681526020810192909252909116604082015260600190565b60206040518083038186803b15801561179657600080fd5b505afa1580156117aa573d6000803e3d6000fd5b505050506040513d601f19601f820116820180604052508101906117ce9190612554565b6117d89084612960565b9250611820565b61181387858360ff168151811061180657634e487b7160e01b600052603260045260246000fd5b60200260200101516118b4565b61181d9084612960565b92505b8061182a81612a40565b91505061162d565b509095945050505050565b6060816001600160a01b031663a6f636416040518163ffffffff1660e01b815260040160006040518083038186803b15801561187857600080fd5b505afa15801561188c573d6000803e3d6000fd5b505050506040513d6000823e601f3d908101601f19168201604052610e8091908101906123e9565b604051634941d71d60e11b81527f75b7d343967750d1f6c15979b7559cea8be22ff1a06a51681b9cbef0d2fff4fe600482015260009081906001600160a01b03851690639283ae3a9060240160206040518083038186803b15801561191857600080fd5b505afa15801561192c573d6000803e3d6000fd5b505050506040513d601f19601f820116820180604052508101906119509190612584565b604051634941d71d60e11b81527f18ef0b57fe939edb640a200fdf533493bd8f26a274151543a109b64c857e20f360048201529091506000906001600160a01b03861690639283ae3a9060240160206040518083038186803b1580156119b557600080fd5b505afa1580156119c9573d6000803e3d6000fd5b505050506040513d601f19601f820116820180604052508101906119ed9190612584565b6040516317ba7d8560e01b81527f37cbe06c1044f98864ea25736326bc1d488e24e5e23781ea2ad64c4069cb9e6e60048201529091506000906001600160a01b038716906317ba7d859060240160206040518083038186803b158015611a5257600080fd5b505afa158015611a66573d6000803e3d6000fd5b505050506040513d601f19601f82011682018060405250810190611a8a91906123a2565b90508160011415611e2b57604051634941d71d60e11b81527f77b1580d1632c74a32483c26a7156260a89ae4138b020ea7d09b0dcf24f1ea2460048201526000906001600160a01b03881690639283ae3a9060240160206040518083038186803b158015611af757600080fd5b505afa158015611b0b573d6000803e3d6000fd5b505050506040513d601f19601f82011682018060405250810190611b2f9190612584565b6040517ffd310d290000000000000000000000000000000000000000000000000000000081527fb5a1ad3f04728d7c38547e3d43006a1ec090a02fce04bbb1d0ee4519a1921e5760048201529091506000906001600160a01b0389169063fd310d299060240160206040518083038186803b158015611bad57600080fd5b505afa158015611bc1573d6000803e3d6000fd5b505050506040513d601f19601f82011682018060405250810190611be591906123a2565b9050600085611c83576040516370a0823160e01b81526001600160a01b038981166004830152670de0b6b3a764000091908416906370a082319060240160206040518083038186803b158015611c3a57600080fd5b505afa158015611c4e573d6000803e3d6000fd5b505050506040513d601f19601f82011682018060405250810190611c729190612584565b611c7c91906129ac565b9050611dc2565b8560011415611d06576040516370a0823160e01b81526001600160a01b0389811660048301528316906370a08231906024015b60206040518083038186803b158015611cce57600080fd5b505afa158015611ce2573d6000803e3d6000fd5b505050506040513d601f19601f82011682018060405250810190611c7c9190612584565b8560021415611d5b576040517efdd58e0000000000000000000000000000000000000000000000000000000081526001600160a01b0389811660048301526024820185905283169062fdd58e90604401611cb6565b8560031415611db3576040517fa6d945cc0000000000000000000000000000000000000000000000000000000081526001600160a01b038a81166004830152898116602483015285169063a6d945cc90604401611cb6565b60009650505050505050610e80565b60008111611dd95760009650505050505050610e80565b677fffffffffffffff8110611df75760329650505050505050610e80565b6000611e12611e0d611e088461217c565b61219a565b612291565b67ffffffffffffffff169750610e809650505050505050565b8160021415611e405760019350505050610e80565b8161217057604051634941d71d60e11b81527f77b1580d1632c74a32483c26a7156260a89ae4138b020ea7d09b0dcf24f1ea2460048201526000906001600160a01b03881690639283ae3a9060240160206040518083038186803b158015611ea757600080fd5b505afa158015611ebb573d6000803e3d6000fd5b505050506040513d601f19601f82011682018060405250810190611edf9190612584565b6040517ffd310d290000000000000000000000000000000000000000000000000000000081527fb5a1ad3f04728d7c38547e3d43006a1ec090a02fce04bbb1d0ee4519a1921e5760048201529091506000906001600160a01b0389169063fd310d299060240160206040518083038186803b158015611f5d57600080fd5b505afa158015611f71573d6000803e3d6000fd5b505050506040513d601f19601f82011682018060405250810190611f9591906123a2565b9050600085612033576040516370a0823160e01b81526001600160a01b038981166004830152670de0b6b3a764000091908416906370a082319060240160206040518083038186803b158015611fea57600080fd5b505afa158015611ffe573d6000803e3d6000fd5b505050506040513d601f19601f820116820180604052508101906120229190612584565b61202c91906129ac565b9050612163565b85600114156120b6576040516370a0823160e01b81526001600160a01b0389811660048301528316906370a08231906024015b60206040518083038186803b15801561207e57600080fd5b505afa158015612092573d6000803e3d6000fd5b505050506040513d601f19601f8201168201806040525081019061202c9190612584565b856002141561210b576040517efdd58e0000000000000000000000000000000000000000000000000000000081526001600160a01b0389811660048301526024820185905283169062fdd58e90604401612066565b8560031415611db3576040517fa6d945cc0000000000000000000000000000000000000000000000000000000081526001600160a01b038a81166004830152898116602483015285169063a6d945cc90604401612066565b9550610e80945050505050565b60009350505050610e80565b6000677fffffffffffffff82111561219357600080fd5b5060401b90565b60008082600f0b136121ab57600080fd5b6000600f83900b6801000000000000000081126121ca576040918201911d5b64010000000081126121de576020918201911d5b6201000081126121f0576010918201911d5b6101008112612201576008918201911d5b60108112612211576004918201911d5b60048112612221576002918201911d5b60028112612230576001820191505b7fffffffffffffffffffffffffffffffffffffffffffffffffffffffffffffffc0820160401b600f85900b607f8490031b6780000000000000005b60008113156118325790800260ff81901c8281029390930192607f011c9060011d61226b565b60008082600f0b12156122a357600080fd5b50600f0b60401d90565b8280548282559060005260206000209081019282156122e8579160200282015b828111156122e85782518255916020019190600101906122cd565b506122f492915061235a565b5090565b8280548282559060005260206000209081019282156122e8579160200282015b828111156122e8578251825473ffffffffffffffffffffffffffffffffffffffff19166001600160a01b03909116178255602090920191600190910190612318565b5b808211156122f4576000815560010161235b565b805161237a81612acc565b919050565b600060208284031215612390578081fd5b813561239b81612acc565b9392505050565b6000602082840312156123b3578081fd5b815161239b81612acc565b600080604083850312156123d0578081fd5b82356123db81612acc565b946020939093013593505050565b600060208083850312156123fb578182fd5b825167ffffffffffffffff80821115612412578384fd5b818501915085601f830112612425578384fd5b81518181111561243757612437612ab6565b8060051b604051601f19603f8301168101818110858211171561245c5761245c612ab6565b604052828152858101935084860182860187018a101561247a578788fd5b8795505b838610156124a35761248f8161236f565b85526001959095019493860193860161247e565b5098975050505050505050565b6000602082840312156124c1578081fd5b8151801515811461239b578182fd5b600080604083850312156123d0578182fd5b6000806000606084860312156124f6578081fd5b835160068110612504578182fd5b602085015160409095015190969495509392505050565b60006020828403121561252c578081fd5b813567ffffffffffffffff811115612542578182fd5b82016101a0818503121561239b578182fd5b600060208284031215612565578081fd5b81516fffffffffffffffffffffffffffffffff8116811461239b578182fd5b600060208284031215612595578081fd5b5051919050565b6000815180845260208085019450808401835b838110156125d45781516001600160a01b0316875295820195908201906001016125af565b509495945050505050565b6000815180845260208085019450808401835b838110156125d4578151875295820195908201906001016125f2565b6000815480845260208085019450838352808320835b838110156125d457815487529582019560019182019101612624565b6004811061265057612650612aa0565b9052565b6000815160208452611375602085018261259c565b7fffffffffffffffff000000000000000000000000000000000000000000000000831681527f566f74696e6720230000000000000000000000000000000000000000000000006008820152600082516126c98160108501602087016129d7565b919091016010019392505050565b6040815260006126ea604083018561259c565b82810360208401526126fc81856125df565b95945050505050565b60006101808083016001600160a01b03808a1685526020818a16818701526040860189865b60088110156127475781518352918301919083019060010161272a565b5050506101408601939093528654918290528684528284206101a08601939092855b81811015612787578454841686529482019460019485019401612769565b505050505082810361016084015261279f818561260e565b98975050505050505050565b6001600160a01b038416815282602082015260606040820152600082518060608401526127df8160808501602087016129d7565b601f01601f191691909101608001949350505050565b608081016006861061280957612809612aa0565b948152602081019390935260408301919091526fffffffffffffffffffffffffffffffff1660609091015290565b8651815260208088015190820152604080880151908201526060808801519082015260006101e0875160808401526020808901516001600160a01b031660a08501526040808a015160c08601526060808b015160e08701528951610100870152918901516101208601528801516101408501528701516101608401528061018084015285516020828501526128d06102008501826125df565b9150508281036101a08401526128e68186612654565b9150506128f76101c0830184612640565b979650505050505050565b6000808335601e19843603018112612918578283fd5b83018035915067ffffffffffffffff821115612932578283fd5b6020019150600581901b360382131561037457600080fd5b6000808335601e19843603018112612918578182fd5b60006fffffffffffffffffffffffffffffffff80831681851680830382111561298b5761298b612a74565b01949350505050565b600082198211156129a7576129a7612a74565b500190565b6000826129bb576129bb612a8a565b500490565b6000828210156129d2576129d2612a74565b500390565b60005b838110156129f25781810151838201526020016129da565b83811115612a01576000848401525b50505050565b60007fffffffffffffffffffffffffffffffffffffffffffffffffffffffffffffffff821415612a3957612a39612a74565b5060010190565b600060ff821660ff811415612a5757612a57612a74565b60010192915050565b600082612a6f57612a6f612a8a565b500690565b634e487b7160e01b600052601160045260246000fd5b634e487b7160e01b600052601260045260246000fd5b634e487b7160e01b600052602160045260246000fd5b634e487b7160e01b600052604160045260246000fd5b6001600160a01b0381168114612ae157600080fd5b5056fea2646970667358221220ab4fcf6968f466fdeba3b2ef762a924bd5cf2ae230d87edcecbe635c77b8fb0264736f6c63430008040033",
  "linkReferences": {},
  "deployedLinkReferences": {}
}