{
  "_format": "hh-sol-artifact-1",
  "contractName": "FlexAllocationAdapterContract",
  "sourceName": "contracts/flex/adatpers/FlexAllocation.sol",
  "abi": [
    {
      "anonymous": false,
      "inputs": [
        {
          "indexed": false,
          "internalType": "bytes32",
          "name": "proposalId",
          "type": "bytes32"
        },
        {
          "indexed": false,
          "internalType": "address",
          "name": "daoAddr",
          "type": "address"
        },
        {
          "indexed": false,
          "internalType": "address",
          "name": "proposer",
          "type": "address"
        },
        {
          "indexed": false,
          "internalType": "address[]",
          "name": "lps",
          "type": "address[]"
        }
      ],
      "name": "AllocateToken",
      "type": "event"
    },
    {
      "anonymous": false,
      "inputs": [
        {
          "indexed": false,
          "internalType": "uint256",
          "name": "gpAllocationBonusRadio",
          "type": "uint256"
        },
        {
          "indexed": false,
          "internalType": "uint256",
          "name": "riceStakeAllocationRadio",
          "type": "uint256"
        }
      ],
      "name": "ConfigureDao",
      "type": "event"
    },
    {
      "inputs": [
        {
          "internalType": "contract DaoRegistry",
          "name": "dao",
          "type": "address"
        },
        {
          "internalType": "address",
          "name": "tokenAddress",
          "type": "address"
        },
        {
          "internalType": "address",
          "name": "proposerAddr",
          "type": "address"
        },
        {
          "internalType": "bytes32",
          "name": "proposalId",
          "type": "bytes32"
        },
        {
          "internalType": "uint256[5]",
          "name": "uint256Args",
          "type": "uint256[5]"
        }
      ],
      "name": "allocateProjectToken",
      "outputs": [],
      "stateMutability": "nonpayable",
      "type": "function"
    },
    {
      "inputs": [
        {
          "internalType": "contract DaoRegistry",
          "name": "dao",
          "type": "address"
        },
        {
          "internalType": "uint256",
          "name": "gpAllocationBonusRadio",
          "type": "uint256"
        },
        {
          "internalType": "uint256",
          "name": "riceStakeAllocationRadio",
          "type": "uint256"
        }
      ],
      "name": "configureDao",
      "outputs": [],
      "stateMutability": "nonpayable",
      "type": "function"
    },
    {
      "inputs": [
        {
          "internalType": "contract DaoRegistry",
          "name": "dao",
          "type": "address"
        },
        {
          "internalType": "bytes32",
          "name": "proposalId",
          "type": "bytes32"
        },
        {
          "internalType": "address",
          "name": "investor",
          "type": "address"
        },
        {
          "internalType": "uint256",
          "name": "tokenAmount",
          "type": "uint256"
        }
      ],
      "name": "getFundingRewards",
      "outputs": [
        {
          "internalType": "uint256",
          "name": "",
          "type": "uint256"
        }
      ],
      "stateMutability": "view",
      "type": "function"
    },
    {
      "inputs": [
        {
          "internalType": "contract DaoRegistry",
          "name": "dao",
          "type": "address"
        },
        {
          "internalType": "bytes32",
          "name": "proposalId",
          "type": "bytes32"
        },
        {
          "internalType": "uint256",
          "name": "tokenAmount",
          "type": "uint256"
        }
      ],
      "name": "getProposerBonus",
      "outputs": [
        {
          "internalType": "uint256",
          "name": "",
          "type": "uint256"
        }
      ],
      "stateMutability": "view",
      "type": "function"
    },
    {
      "inputs": [
        {
          "internalType": "contract DaoRegistry",
          "name": "dao",
          "type": "address"
        },
        {
          "internalType": "bytes32",
          "name": "proposalId",
          "type": "bytes32"
        },
        {
          "internalType": "address",
          "name": "recipient",
          "type": "address"
        }
      ],
      "name": "ifEligible",
      "outputs": [
        {
          "internalType": "bool",
          "name": "",
          "type": "bool"
        }
      ],
      "stateMutability": "view",
      "type": "function"
    },
    {
      "inputs": [
        {
          "internalType": "contract DaoRegistry",
          "name": "dao",
          "type": "address"
        },
        {
          "internalType": "bytes32",
          "name": "proposalId",
          "type": "bytes32"
        },
        {
          "internalType": "address",
          "name": "recepient",
          "type": "address"
        }
      ],
      "name": "isNFTMinted",
      "outputs": [
        {
          "internalType": "bool",
          "name": "",
          "type": "bool"
        }
      ],
      "stateMutability": "view",
      "type": "function"
    },
    {
      "inputs": [
        {
          "internalType": "contract DaoRegistry",
          "name": "dao",
          "type": "address"
        },
        {
          "internalType": "bytes32",
          "name": "proposalId",
          "type": "bytes32"
        },
        {
          "internalType": "address",
          "name": "recepient",
          "type": "address"
        }
      ],
      "name": "isVestCreated",
      "outputs": [
        {
          "internalType": "bool",
          "name": "",
          "type": "bool"
        }
      ],
      "stateMutability": "view",
      "type": "function"
    },
    {
      "inputs": [
        {
          "internalType": "contract DaoRegistry",
          "name": "dao",
          "type": "address"
        },
        {
          "internalType": "bytes32",
          "name": "proposalId",
          "type": "bytes32"
        },
        {
          "internalType": "address",
          "name": "recipient",
          "type": "address"
        }
      ],
      "name": "nftMinted",
      "outputs": [
        {
          "internalType": "bool",
          "name": "",
          "type": "bool"
        }
      ],
      "stateMutability": "nonpayable",
      "type": "function"
    },
    {
      "inputs": [
        {
          "internalType": "contract DaoRegistry",
          "name": "dao",
          "type": "address"
        },
        {
          "internalType": "bytes32",
          "name": "proposalId",
          "type": "bytes32"
        }
      ],
      "name": "noEscrow",
      "outputs": [
        {
          "internalType": "bool",
          "name": "",
          "type": "bool"
        }
      ],
      "stateMutability": "nonpayable",
      "type": "function"
    },
    {
      "inputs": [
        {
          "internalType": "contract DaoRegistry",
          "name": "dao",
          "type": "address"
        },
        {
          "internalType": "bytes32",
          "name": "proposalId",
          "type": "bytes32"
        },
        {
          "internalType": "address",
          "name": "recipient",
          "type": "address"
        }
      ],
      "name": "vestCreated",
      "outputs": [
        {
          "internalType": "bool",
          "name": "",
          "type": "bool"
        }
      ],
      "stateMutability": "nonpayable",
      "type": "function"
    },
    {
      "inputs": [
        {
          "internalType": "address",
          "name": "",
          "type": "address"
        },
        {
          "internalType": "bytes32",
          "name": "",
          "type": "bytes32"
        },
        {
          "internalType": "address",
          "name": "",
          "type": "address"
        }
      ],
      "name": "vestingInfos",
      "outputs": [
        {
          "internalType": "uint256",
          "name": "tokenAmount",
          "type": "uint256"
        },
        {
          "internalType": "bool",
          "name": "created",
          "type": "bool"
        }
      ],
      "stateMutability": "view",
      "type": "function"
    }
  ],
  "bytecode": "0x608060405234801561001057600080fd5b50612c7d806100206000396000f3fe608060405234801561001057600080fd5b50600436106100c95760003560e01c8063620ee042116100815780639a3eb32b1161005b5780639a3eb32b146101b5578063a60e68fe146101c8578063df53eb29146101db57600080fd5b8063620ee042146101815780636cb4e9eb146100ce5780636da0ce361461019457600080fd5b8063309f0118116100b2578063309f011814610146578063560dbdd7146101595780635d5cdb321461016c57600080fd5b806301e6aa02146100ce5780631190b0a6146100f6575b600080fd5b6100e16100dc366004612907565b6101ee565b60405190151581526020015b60405180910390f35b6101316101043660046125c2565b60026020908152600093845260408085208252928452828420905282529020805460019091015460ff1682565b604080519283529015156020830152016100ed565b6100e1610154366004612907565b61022a565b6100e1610167366004612907565b61026f565b61017f61017a366004612830565b6103d7565b005b6100e161018f366004612907565b61100c565b6101a76101a2366004612962565b61116e565b6040519081526020016100ed565b6100e16101c33660046128dc565b611386565b61017f6101d6366004612962565b611ab0565b6101a76101e936600461291b565b611ba3565b6001600160a01b03808416600090815260026020908152604080832086845282528083209385168352929052206001015460ff165b9392505050565b6001600160a01b03808416600090815260026020908152604080832086845282528083209385168352929052908120541561026757506001610223565b506000610223565b6040516317ba7d8560e01b81527f3c11b775c25636cc8a8e9190d176c127f201e732c93f4d80e9e1d8e36c9d7ecd60048201526000906001600160a01b038516906317ba7d859060240160206040518083038186803b1580156102d157600080fd5b505afa1580156102e5573d6000803e3d6000fd5b505050506040513d601f19601f8201168201806040525081019061030991906125a6565b6001600160a01b0316336001600160a01b0316146103945760405162461bcd60e51b815260206004820152602b60248201527f416c6c6f636174696f6e416461707465723a73747265616d437265617465643a60448201527f4163636573732064656e7900000000000000000000000000000000000000000060648201526084015b60405180910390fd5b6001600160a01b03938416600090815260026020908152604080832095835294815284822093909516815291909352206001908101805460ff1916909117905590565b6040516317ba7d8560e01b81527f7a8526bca00f0726b2fab8c3bfd5b00bfa84d07f111e48263b13de605eefcdda60048201526001600160a01b038616906317ba7d859060240160206040518083038186803b15801561043657600080fd5b505afa15801561044a573d6000803e3d6000fd5b505050506040513d601f19601f8201168201806040525081019061046e91906125a6565b6001600160a01b0316336001600160a01b0316146104f45760405162461bcd60e51b815260206004820152602160248201527f616c6c6f6361746550726f6a656374546f6b656e3a3a6163636573732064656e60448201527f7900000000000000000000000000000000000000000000000000000000000000606482015260840161038b565b61059960405180610220016040528060006001600160a01b0316815260200160006001600160a01b03168152602001600081526020016000815260200160008152602001600060ff1681526020016000815260200160008152602001600081526020016000815260200160008152602001600081526020016000815260200160006001600160a01b031681526020016000815260200160008152602001600081525090565b8151610100820152602082015161012082015260408083015161014083015260608301516101608301526080830151610180830152517f593e96b60000000000000000000000000000000000000000000000000000000081527fb12a3847d47fefceb164b75823af125f9aa82b76938df0ddf08c04cd314ba37c60048201526001600160a01b0387169063593e96b69060240160206040518083038186803b15801561064457600080fd5b505afa158015610658573d6000803e3d6000fd5b505050506040513d601f19601f8201168201806040525081019061067c91906125a6565b6001600160a01b0390811682526101008201516040516317ba7d8560e01b81527f7a8526bca00f0726b2fab8c3bfd5b00bfa84d07f111e48263b13de605eefcdda600482015290918781169163dd62ed3e918a16906317ba7d859060240160206040518083038186803b1580156106f257600080fd5b505afa158015610706573d6000803e3d6000fd5b505050506040513d601f19601f8201168201806040525081019061072a91906125a6565b6040517fffffffff0000000000000000000000000000000000000000000000000000000060e084901b1681526001600160a01b03909116600482015230602482015260440160206040518083038186803b15801561078757600080fd5b505afa15801561079b573d6000803e3d6000fd5b505050506040513d601f19601f820116820180604052508101906107bf91906129b2565b10156108335760405162461bcd60e51b815260206004820152603f60248201527f416c6c6f636174696f6e416461707465723a3a616c6c6f6361746550726f6a6560448201527f6374546f6b656e3a3a696e73756666696369656e7420616c6c6f77616e636500606482015260840161038b565b6040516317ba7d8560e01b81527f7a8526bca00f0726b2fab8c3bfd5b00bfa84d07f111e48263b13de605eefcdda60048201526001600160a01b03808716916323b872dd918916906317ba7d859060240160206040518083038186803b15801561089c57600080fd5b505afa1580156108b0573d6000803e3d6000fd5b505050506040513d601f19601f820116820180604052508101906108d491906125a6565b6101008401516040517fffffffff0000000000000000000000000000000000000000000000000000000060e085901b1681526001600160a01b0390921660048301523060248301526044820152606401602060405180830381600087803b15801561093e57600080fd5b505af1158015610952573d6000803e3d6000fd5b505050506040513d601f19601f820116820180604052508101906109769190612816565b50846001600160a01b031663dd62ed3e30886001600160a01b03166317ba7d857fdfea78be99560632cc4c199ca1b0d68ffe0bbbb07b685976cefc8820374ac73a6040518263ffffffff1660e01b81526004016109d591815260200190565b60206040518083038186803b1580156109ed57600080fd5b505afa158015610a01573d6000803e3d6000fd5b505050506040513d601f19601f82011682018060405250810190610a2591906125a6565b6040517fffffffff0000000000000000000000000000000000000000000000000000000060e085901b1681526001600160a01b0392831660048201529116602482015260440160206040518083038186803b158015610a8357600080fd5b505afa158015610a97573d6000803e3d6000fd5b505050506040513d601f19601f82011682018060405250810190610abb91906129b2565b60608201819052610100820151610ad191612b11565b60808201526040516317ba7d8560e01b81527fdfea78be99560632cc4c199ca1b0d68ffe0bbbb07b685976cefc8820374ac73a60048201526001600160a01b038681169163095ea7b3918916906317ba7d859060240160206040518083038186803b158015610b3f57600080fd5b505afa158015610b53573d6000803e3d6000fd5b505050506040513d601f19601f82011682018060405250810190610b7791906125a6565b60808401516040517fffffffff0000000000000000000000000000000000000000000000000000000060e085901b1681526001600160a01b0390921660048301526024820152604401602060405180830381600087803b158015610bda57600080fd5b505af1158015610bee573d6000803e3d6000fd5b505050506040513d601f19601f82011682018060405250810190610c129190612816565b5080516040517fe38a5a64000000000000000000000000000000000000000000000000000000008152600481018590526000916001600160a01b03169063e38a5a649060240160006040518083038186803b158015610c7057600080fd5b505afa158015610c84573d6000803e3d6000fd5b505050506040513d6000823e601f3d908101601f19168201604052610cac9190810190612762565b90506000826040018181525050610cf96040518060400160405280601181526020017f696e766573746f7220616d6f756e743a200000000000000000000000000000008152508251611f5a565b805115610e3d57600060a08301525b80518260a0015160ff161015610e3d57610d578785838560a0015160ff1681518110610d4457634e487b7160e01b600052603260045260246000fd5b6020026020010151856101000151611ba3565b60c0830181905215610e225760408051808201825260c08401518152600060208083018290526001600160a01b038b16825260028152838220888352905291822060a0850151845192939192859160ff16908110610dc557634e487b7160e01b600052603260045260246000fd5b6020908102919091018101516001600160a01b031682528181019290925260409081016000208351815592909101516001909201805460ff19169215159290921790915560c08301519083018051610e1e908390612b11565b9052505b60a08201805190610e3282612bc9565b60ff16905250610d08565b6001600160a01b03851615610f2157610e5c878584610100015161116e565b60e0830181905215610f215760408051808201825260e08401516001600160a01b03808b166000908152600260209081528582208a83528152858220928b16825291909152929092205490918291610eb49190612b11565b8152600060209182018190526001600160a01b038a811682526002835260408083208984528452808320918a168352908352908190208351815592909101516001909201805460ff19169215159290921790915560e08301519083018051610f1d908390612b11565b9052505b81610100015182604001511115610fc65760405162461bcd60e51b815260206004820152605c60248201527f416c6c6f636174696f6e416461707465723a3a616c6c6f6361746550726f6a6560448201527f6374546f6b656e3a3a6469737472696275746520746f6b656e20616d6f756e7460648201527f2065786365656473207472616e64696e67206f666620616d6f756e7400000000608482015260a40161038b565b7f7e0d2bb4312363eed7035f178b6a354ed747e50a3c12bd89e44a676e0d81ab0f84888784604051610ffb94939291906129ca565b60405180910390a150505050505050565b6040516317ba7d8560e01b81527ffacef1ff9551e6c96f09b108d715442c90dfae3b4f77a7691c0ddff9cef28d3560048201526000906001600160a01b038516906317ba7d859060240160206040518083038186803b15801561106e57600080fd5b505afa158015611082573d6000803e3d6000fd5b505050506040513d601f19601f820116820180604052508101906110a691906125a6565b6001600160a01b0316336001600160a01b03161461112c5760405162461bcd60e51b815260206004820152602760248201527f416c6c6f636174696f6e416461707465723a6e66744d696e7465643a4163636560448201527f73732064656e7900000000000000000000000000000000000000000000000000606482015260840161038b565b506001600160a01b039283166000908152600260209081526040808320948352938152838220929094168152925290206001908101805460ff19168217905590565b6040516317ba7d8560e01b81527f2207fd6117465cefcba0abc867150698c0464aa41a293ec29ca01b67a6350c3c600482015260009081906001600160a01b038616906317ba7d859060240160206040518083038186803b1580156111d257600080fd5b505afa1580156111e6573d6000803e3d6000fd5b505050506040513d601f19601f8201168201806040525081019061120a91906125a6565b6040516317ba7d8560e01b81527f7a8526bca00f0726b2fab8c3bfd5b00bfa84d07f111e48263b13de605eefcdda60048201529091506000906001600160a01b038716906317ba7d859060240160206040518083038186803b15801561126f57600080fd5b505afa158015611283573d6000803e3d6000fd5b505050506040513d601f19601f820116820180604052508101906112a791906125a6565b90506112c6604051806040016040528060008152602001600081525090565b604051632fd2666560e21b81526001600160a01b0388811660048301526024820188905283169063bf4999949060440160006040518083038186803b15801561130e57600080fd5b505afa158015611322573d6000803e3d6000fd5b505050506040513d6000823e601f3d908101601f1916820160405261134a9190810190612603565b5050815191965060009550670de0b6b3a764000094506113709350909150899050612b49565b61137a9190612b29565b98975050505050505050565b6040516317ba7d8560e01b81527f7a8526bca00f0726b2fab8c3bfd5b00bfa84d07f111e48263b13de605eefcdda60048201526000906001600160a01b038416906317ba7d859060240160206040518083038186803b1580156113e857600080fd5b505afa1580156113fc573d6000803e3d6000fd5b505050506040513d601f19601f8201168201806040525081019061142091906125a6565b6001600160a01b0316336001600160a01b0316146114805760405162461bcd60e51b815260206004820152600b60248201527f6163636573732064656e79000000000000000000000000000000000000000000604482015260640161038b565b61152560405180610220016040528060006001600160a01b0316815260200160006001600160a01b03168152602001600081526020016000815260200160008152602001600060ff1681526020016000815260200160008152602001600081526020016000815260200160008152602001600081526020016000815260200160006001600160a01b031681526020016000815260200160008152602001600081525090565b6040516317ba7d8560e01b81527f7a8526bca00f0726b2fab8c3bfd5b00bfa84d07f111e48263b13de605eefcdda60048201526000906001600160a01b038616906317ba7d859060240160206040518083038186803b15801561158757600080fd5b505afa15801561159b573d6000803e3d6000fd5b505050506040513d601f19601f820116820180604052508101906115bf91906125a6565b6040517f593e96b60000000000000000000000000000000000000000000000000000000081527fb12a3847d47fefceb164b75823af125f9aa82b76938df0ddf08c04cd314ba37c60048201529091506001600160a01b0386169063593e96b69060240160206040518083038186803b15801561163a57600080fd5b505afa15801561164e573d6000803e3d6000fd5b505050506040513d601f19601f8201168201806040525081019061167291906125a6565b6001600160a01b031682526040805161018081018252600080825260208201819052918101829052606081018290526080810182905260a0810182905260c0810182905260e08101829052610100810182905261012081018290526101408101829052610160810191909152604051632fd2666560e21b81526001600160a01b0387811660048301526024820187905283169063bf4999949060440160006040518083038186803b15801561172657600080fd5b505afa15801561173a573d6000803e3d6000fd5b505050506040513d6000823e601f3d908101601f191682016040526117629190810190612603565b5050505060c0830151610100880152505084516040517fe38a5a6400000000000000000000000000000000000000000000000000000000815260048101899052919350600092506001600160a01b03169063e38a5a649060240160006040518083038186803b1580156117d457600080fd5b505afa1580156117e8573d6000803e3d6000fd5b505050506040513d6000823e601f3d908101601f191682016040526118109190810190612762565b6000604086810191909152855190517fc20382360000000000000000000000000000000000000000000000000000000081526004810189905261babe60248201529192506001600160a01b03169063c20382369060440160206040518083038186803b15801561187f57600080fd5b505afa158015611893573d6000803e3d6000fd5b505050506040513d601f19601f820116820180604052508101906118b791906125a6565b6001600160a01b0316610200850152805115611aa657600060a08501525b80518460a0015160ff161015611aa65783600001516001600160a01b031663c203823687838760a0015160ff168151811061192057634e487b7160e01b600052603260045260246000fd5b60200260200101516040518363ffffffff1660e01b81526004016119579291909182526001600160a01b0316602082015260400190565b60206040518083038186803b15801561196f57600080fd5b505afa158015611983573d6000803e3d6000fd5b505050506040513d601f19601f820116820180604052508101906119a791906125a6565b6001600160a01b03166101c0850181905215611a8b576102008401516101c08501516119db90670de0b6b3a7640000612b49565b6119e59190612b29565b6101e0850190815260408051808201825291518252600060208084018290526001600160a01b038b168252600281528282208a8352905290812060a08701518451919291859160ff16908110611a4b57634e487b7160e01b600052603260045260246000fd5b6020908102919091018101516001600160a01b0316825281810192909252604001600020825181559101516001909101805460ff19169115159190911790555b60a08401805190611a9b82612bc9565b60ff169052506118d5565b5050505092915050565b6040517f68c18beb00000000000000000000000000000000000000000000000000000000815233600482015283906001600160a01b038216906368c18beb9060240160206040518083038186803b158015611b0a57600080fd5b505afa158015611b1e573d6000803e3d6000fd5b505050506040513d601f19601f82011682018060405250810190611b429190612816565b80611b515750611b5181611fd1565b611b9d5760405162461bcd60e51b815260206004820152600b60248201527f6f6e6c7941646170746572000000000000000000000000000000000000000000604482015260640161038b565b50505050565b6040516317ba7d8560e01b81527f2207fd6117465cefcba0abc867150698c0464aa41a293ec29ca01b67a6350c3c600482015260009081906001600160a01b038716906317ba7d859060240160206040518083038186803b158015611c0757600080fd5b505afa158015611c1b573d6000803e3d6000fd5b505050506040513d601f19601f82011682018060405250810190611c3f91906125a6565b6040516317ba7d8560e01b81527f7a8526bca00f0726b2fab8c3bfd5b00bfa84d07f111e48263b13de605eefcdda60048201529091506000906001600160a01b038816906317ba7d859060240160206040518083038186803b158015611ca457600080fd5b505afa158015611cb8573d6000803e3d6000fd5b505050506040513d601f19601f82011682018060405250810190611cdc91906125a6565b9050611cfb604051806040016040528060008152602001600081525090565b604051632fd2666560e21b81526001600160a01b0389811660048301526024820189905283169063bf4999949060440160006040518083038186803b158015611d4357600080fd5b505afa158015611d57573d6000803e3d6000fd5b505050506040513d6000823e601f3d908101601f19168201604052611d7f9190810190612603565b5050815191965060009550670de0b6b3a76400009450611da59350909150899050612b49565b611daf9190612b29565b611db99087612b86565b6040517f0617b0ce0000000000000000000000000000000000000000000000000000000081526001600160a01b038b81166004830152602482018b9052919250600091861690630617b0ce9060440160206040518083038186803b158015611e2057600080fd5b505afa158015611e34573d6000803e3d6000fd5b505050506040513d601f19601f82011682018060405250810190611e5891906125a6565b6040517f75e427440000000000000000000000000000000000000000000000000000000081526001600160a01b038c81166004830152602482018c90528a8116604483015291821692506000918716906375e427449060640160206040518083038186803b158015611ec957600080fd5b505afa158015611edd573d6000803e3d6000fd5b505050506040513d601f19601f82011682018060405250810190611f0191906125a6565b6001600160a01b03169050811580611f17575080155b80611f20575082155b15611f345760009650505050505050611f52565b81611f3f8483612b49565b611f499190612b29565b96505050505050505b949350505050565b611fcd8282604051602401611f70929190612a34565b60408051601f198184030181529190526020810180517bffffffffffffffffffffffffffffffffffffffffffffffffffffffff167fb60e72cc00000000000000000000000000000000000000000000000000000000179052612210565b5050565b600080826001600160a01b031663c19d93fb6040518163ffffffff1660e01b815260040160206040518083038186803b15801561200d57600080fd5b505afa158015612021573d6000803e3d6000fd5b505050506040513d601f19601f820116820180604052508101906120459190612996565b600181111561206457634e487b7160e01b600052602160045260246000fd5b14801561220a5750816001600160a01b031663c67143666040518163ffffffff1660e01b815260040160206040518083038186803b1580156120a557600080fd5b505afa1580156120b9573d6000803e3d6000fd5b505050506040513d601f19601f820116820180604052508101906120dd91906129b2565b158061217457506040517fa230c5240000000000000000000000000000000000000000000000000000000081523360048201526001600160a01b0383169063a230c5249060240160206040518083038186803b15801561213c57600080fd5b505afa158015612150573d6000803e3d6000fd5b505050506040513d601f19601f820116820180604052508101906121749190612816565b8061220a57506040517f68c18beb0000000000000000000000000000000000000000000000000000000081523360048201526001600160a01b038316906368c18beb9060240160206040518083038186803b1580156121d257600080fd5b505afa1580156121e6573d6000803e3d6000fd5b505050506040513d601f19601f8201168201806040525081019061220a9190612816565b92915050565b80516a636f6e736f6c652e6c6f67602083016000808483855afa5050505050565b805161223c81612c15565b919050565b8051801515811461223c57600080fd5b805161223c81612c3a565b80516005811061223c57600080fd5b600082601f83011261227b578081fd5b815167ffffffffffffffff81111561229557612295612bff565b6122a86020601f19601f84011601612ae0565b8181528460208386010111156122bc578283fd5b611f52826020830160208701612b9d565b600060a082840312156122de578081fd5b60405160a0810181811067ffffffffffffffff8211171561230157612301612bff565b8060405250809150825161231481612c2d565b8152602083015163ffffffff8116811461232d57600080fd5b6020820152604083015161234081612c15565b8060408301525060608301516060820152608083015160808201525092915050565b60006102608284031215612374578081fd5b61237c612a6f565b905061238782612251565b8152602082015160208201526040820151604082015260608201516060820152608082015160808201526123bd60a08301612241565b60a08201526123cf8360c084016122cd565b60c08201526123e16101608301612241565b60e08201526123f4836101808401612400565b61010082015292915050565b600060e08284031215612411578081fd5b60405160e0810181811067ffffffffffffffff8211171561243457612434612bff565b80604052508091508251815260208301516020820152604083015161245881612c2d565b60408201526060838101519082015261247360808401612231565b608082015260a083015160a082015260c083015160c08201525092915050565b6000604082840312156124a4578081fd5b6040516040810181811067ffffffffffffffff821117156124c7576124c7612bff565b604052825181526020928301519281019290925250919050565b600061012082840312156124f3578081fd5b6124fb612a6f565b9050815181526020820151602082015260408201516040820152606082015160608201526080820151608082015261253560a08301612241565b60a082015261254660c08301612231565b60c082015260e082015167ffffffffffffffff8082111561256657600080fd5b6125728583860161226b565b60e08401526101009150818401518181111561258d57600080fd5b6125998682870161226b565b8385015250505092915050565b6000602082840312156125b7578081fd5b815161022381612c15565b6000806000606084860312156125d6578182fd5b83356125e181612c15565b92506020840135915060408401356125f881612c15565b809150509250925092565b600080600080600080600080888a036104c0811215612620578687fd5b895161262b81612c15565b9850610180601f198201811315612640578788fd5b612648612a99565b915061265660208c01612231565b825260408b0151602083015260608b0151604083015260808b0151606083015261268260a08c01612241565b608083015261269360c08c01612231565b60a083015260e08b015160c0830152610100808c015160e0840152610120808d0151828501526101409150818d015181850152506101606126d5818e01612231565b828501526126e4838e01612231565b9084015250506101a08a015190975067ffffffffffffffff811115612707578687fd5b6127138b828c016124e1565b9650506127248a6101c08b01612362565b94506127348a6104208b01612493565b9350610460890151925061048089015191506127536104a08a0161225c565b90509295985092959890939650565b60006020808385031215612774578182fd5b825167ffffffffffffffff8082111561278b578384fd5b818501915085601f83011261279e578384fd5b8151818111156127b0576127b0612bff565b8060051b91506127c1848301612ae0565b8181528481019084860184860187018a10156127db578788fd5b8795505b8386101561280957805194506127f485612c15565b848352600195909501949186019186016127df565b5098975050505050505050565b600060208284031215612827578081fd5b61022382612241565b6000806000806000610120808789031215612849578384fd5b863561285481612c15565b955060208781013561286581612c15565b9550604088013561287581612c15565b945060608801359350609f8801891361288c578283fd5b612894612abd565b8060808a018b858c0111156128a7578586fd5b8594505b60058510156128ca5780358352600194909401939183019183016128ab565b50809450505050509295509295909350565b600080604083850312156128ee578182fd5b82356128f981612c15565b946020939093013593505050565b6000806000606084860312156125d6578081fd5b60008060008060808587031215612930578182fd5b843561293b81612c15565b935060208501359250604085013561295281612c15565b9396929550929360600135925050565b600080600060608486031215612976578081fd5b833561298181612c15565b95602085013595506040909401359392505050565b6000602082840312156129a7578081fd5b815161022381612c3a565b6000602082840312156129c3578081fd5b5051919050565b60006080820186835260206001600160a01b038088168286015280871660408601526080606086015282865180855260a0870191508388019450855b81811015612a24578551841683529484019491840191600101612a06565b50909a9950505050505050505050565b6040815260008351806040840152612a53816060850160208801612b9d565b602083019390935250601f91909101601f191601606001919050565b604051610120810167ffffffffffffffff81118282101715612a9357612a93612bff565b60405290565b604051610180810167ffffffffffffffff81118282101715612a9357612a93612bff565b60405160a0810167ffffffffffffffff81118282101715612a9357612a93612bff565b604051601f8201601f1916810167ffffffffffffffff81118282101715612b0957612b09612bff565b604052919050565b60008219821115612b2457612b24612be9565b500190565b600082612b4457634e487b7160e01b81526012600452602481fd5b500490565b6000817fffffffffffffffffffffffffffffffffffffffffffffffffffffffffffffffff0483118215151615612b8157612b81612be9565b500290565b600082821015612b9857612b98612be9565b500390565b60005b83811015612bb8578181015183820152602001612ba0565b83811115611b9d5750506000910152565b600060ff821660ff811415612be057612be0612be9565b60010192915050565b634e487b7160e01b600052601160045260246000fd5b634e487b7160e01b600052604160045260246000fd5b6001600160a01b0381168114612c2a57600080fd5b50565b60048110612c2a57600080fd5b60028110612c2a57600080fdfea2646970667358221220ad5bc4c99f88f5b452e4674b11ba0124c824d1ada89d6863f3fa5fca36e13c6b64736f6c63430008040033",
  "linkReferences": {},
  "deployedLinkReferences": {}
}