{
  "_format": "hh-sol-artifact-1",
  "contractName": "StewardManagementContract",
  "sourceName": "contracts/flex/adatpers/StewardManagement.sol",
  "abi": [
    {
      "anonymous": false,
      "inputs": [
        {
          "indexed": false,
          "internalType": "address",
          "name": "daoAddr",
          "type": "address"
        },
        {
          "indexed": false,
          "internalType": "bytes32",
          "name": "proposalId",
          "type": "bytes32"
        },
        {
          "indexed": false,
          "internalType": "address",
          "name": "account",
          "type": "address"
        },
        {
          "indexed": false,
          "internalType": "uint256",
          "name": "creationTime",
          "type": "uint256"
        },
        {
          "indexed": false,
          "internalType": "uint256",
          "name": "stopVoteTime",
          "type": "uint256"
        },
        {
          "indexed": false,
          "internalType": "enum StewardManagementContract.ProposalType",
          "name": "pType",
          "type": "uint8"
        }
      ],
      "name": "ProposalCreated",
      "type": "event"
    },
    {
      "anonymous": false,
      "inputs": [
        {
          "indexed": false,
          "internalType": "address",
          "name": "daoAddr",
          "type": "address"
        },
        {
          "indexed": false,
          "internalType": "bytes32",
          "name": "proposalId",
          "type": "bytes32"
        },
        {
          "indexed": false,
          "internalType": "enum StewardManagementContract.ProposalState",
          "name": "state",
          "type": "uint8"
        },
        {
          "indexed": false,
          "internalType": "uint128",
          "name": "allVotingWeight",
          "type": "uint128"
        },
        {
          "indexed": false,
          "internalType": "uint256",
          "name": "nbYes",
          "type": "uint256"
        },
        {
          "indexed": false,
          "internalType": "uint256",
          "name": "nbNo",
          "type": "uint256"
        },
        {
          "indexed": false,
          "internalType": "uint256",
          "name": "voteResult",
          "type": "uint256"
        }
      ],
      "name": "ProposalProcessed",
      "type": "event"
    },
    {
      "inputs": [
        {
          "internalType": "contract DaoRegistry",
          "name": "dao",
          "type": "address"
        }
      ],
      "name": "getAllSteward",
      "outputs": [
        {
          "internalType": "address[]",
          "name": "",
          "type": "address[]"
        }
      ],
      "stateMutability": "view",
      "type": "function"
    },
    {
      "inputs": [
        {
          "internalType": "contract DaoRegistry",
          "name": "dao",
          "type": "address"
        }
      ],
      "name": "getStewardAmount",
      "outputs": [
        {
          "internalType": "uint256",
          "name": "",
          "type": "uint256"
        }
      ],
      "stateMutability": "view",
      "type": "function"
    },
    {
      "inputs": [
        {
          "internalType": "contract DaoRegistry",
          "name": "dao",
          "type": "address"
        }
      ],
      "name": "getStewardWhitelist",
      "outputs": [
        {
          "internalType": "address[]",
          "name": "",
          "type": "address[]"
        }
      ],
      "stateMutability": "view",
      "type": "function"
    },
    {
      "inputs": [
        {
          "internalType": "contract DaoRegistry",
          "name": "dao",
          "type": "address"
        },
        {
          "internalType": "address",
          "name": "_addr",
          "type": "address"
        }
      ],
      "name": "isActiveMember",
      "outputs": [
        {
          "internalType": "bool",
          "name": "",
          "type": "bool"
        }
      ],
      "stateMutability": "view",
      "type": "function"
    },
    {
      "inputs": [
        {
          "internalType": "contract DaoRegistry",
          "name": "dao",
          "type": "address"
        },
        {
          "internalType": "address",
          "name": "account",
          "type": "address"
        }
      ],
      "name": "isStewardWhiteList",
      "outputs": [
        {
          "internalType": "bool",
          "name": "",
          "type": "bool"
        }
      ],
      "stateMutability": "view",
      "type": "function"
    },
    {
      "inputs": [
        {
          "internalType": "contract DaoRegistry",
          "name": "dao",
          "type": "address"
        },
        {
          "internalType": "bytes32",
          "name": "proposalId",
          "type": "bytes32"
        }
      ],
      "name": "processProposal",
      "outputs": [],
      "stateMutability": "nonpayable",
      "type": "function"
    },
    {
      "inputs": [
        {
          "internalType": "contract DaoRegistry",
          "name": "",
          "type": "address"
        },
        {
          "internalType": "bytes32",
          "name": "",
          "type": "bytes32"
        }
      ],
      "name": "proposals",
      "outputs": [
        {
          "internalType": "bytes32",
          "name": "id",
          "type": "bytes32"
        },
        {
          "internalType": "address",
          "name": "account",
          "type": "address"
        },
        {
          "internalType": "uint256",
          "name": "creationTime",
          "type": "uint256"
        },
        {
          "internalType": "uint256",
          "name": "stopVoteTime",
          "type": "uint256"
        },
        {
          "internalType": "enum StewardManagementContract.ProposalState",
          "name": "state",
          "type": "uint8"
        },
        {
          "internalType": "enum StewardManagementContract.ProposalType",
          "name": "pType",
          "type": "uint8"
        }
      ],
      "stateMutability": "view",
      "type": "function"
    },
    {
      "inputs": [
        {
          "internalType": "contract DaoRegistry",
          "name": "dao",
          "type": "address"
        }
      ],
      "name": "quit",
      "outputs": [],
      "stateMutability": "nonpayable",
      "type": "function"
    },
    {
      "inputs": [
        {
          "internalType": "contract DaoRegistry",
          "name": "dao",
          "type": "address"
        },
        {
          "internalType": "address",
          "name": "account",
          "type": "address"
        }
      ],
      "name": "registerStewardWhiteList",
      "outputs": [],
      "stateMutability": "nonpayable",
      "type": "function"
    },
    {
      "inputs": [],
      "name": "stewardInProposalIds",
      "outputs": [
        {
          "internalType": "uint256",
          "name": "",
          "type": "uint256"
        }
      ],
      "stateMutability": "view",
      "type": "function"
    },
    {
      "inputs": [],
      "name": "stewardOutProposalIds",
      "outputs": [
        {
          "internalType": "uint256",
          "name": "",
          "type": "uint256"
        }
      ],
      "stateMutability": "view",
      "type": "function"
    },
    {
      "inputs": [
        {
          "internalType": "contract DaoRegistry",
          "name": "dao",
          "type": "address"
        },
        {
          "internalType": "address",
          "name": "applicant",
          "type": "address"
        }
      ],
      "name": "submitSteWardInProposal",
      "outputs": [
        {
          "internalType": "bytes32",
          "name": "proposalId",
          "type": "bytes32"
        }
      ],
      "stateMutability": "nonpayable",
      "type": "function"
    },
    {
      "inputs": [
        {
          "internalType": "contract DaoRegistry",
          "name": "dao",
          "type": "address"
        },
        {
          "internalType": "address",
          "name": "applicant",
          "type": "address"
        }
      ],
      "name": "submitSteWardOutProposal",
      "outputs": [
        {
          "internalType": "bytes32",
          "name": "proposalId",
          "type": "bytes32"
        }
      ],
      "stateMutability": "nonpayable",
      "type": "function"
    }
  ],
  "bytecode": "0x60806040526001600255600160035534801561001a57600080fd5b5061393e8061002a6000396000f3fe608060405234801561001057600080fd5b50600436106100df5760003560e01c80639573167d1161008c578063b39676d411610066578063b39676d41461021f578063d0c5ada114610232578063d32b91dd1461023b578063d8cb7cea1461024e57600080fd5b80639573167d146101e45780639d369cfc146101f9578063adabe1cc1461020c57600080fd5b80638bc49b36116100bd5780638bc49b361461019b5780638c62ba5c146101ae5780638ecf7720146101d157600080fd5b80635cb75276146100e45780636b0207421461015a5780638bb058b61461017a575b600080fd5b61013f6100f2366004613444565b60006020818152928152604080822090935290815220805460018201546002830154600384015460049094015492936001600160a01b039092169290919060ff8082169161010090041686565b604051610151969594939291906136b6565b60405180910390f35b61016d6101683660046133f0565b610257565b6040516101519190613669565b61018d61018836600461340c565b610281565b604051908152602001610151565b61018d6101a93660046133f0565b6104e0565b6101c16101bc36600461340c565b6104eb565b6040519015158152602001610151565b6101c16101df36600461340c565b610514565b6101f76101f2366004613444565b610591565b005b61018d61020736600461340c565b610c25565b6101f761021a36600461340c565b611657565b61016d61022d3660046133f0565b6116af565b61018d60025481565b6101f76102493660046133f0565b6116ba565b61018d60035481565b6001600160a01b038116600090815260016020526040902060609061027b9061180d565b92915050565b60008261028e813361181a565b83600061029a82611874565b60405163288c314960e21b81526001600160a01b0387811660048301529192509087169063a230c5249060240160206040518083038186803b1580156102df57600080fd5b505afa1580156102f3573d6000803e3d6000fd5b505050506040513d601f19601f8201168201806040525081019061031791906133ab565b6103685760405162461bcd60e51b815260206004820152601660248201527f6170706c6963616e742069736e7420737465776172640000000000000000000060448201526064015b60405180910390fd5b600061039c610378600354611b3f565b6040516020016103889190613585565b604051602081830303815290604052611c95565b604051634941d71d60e11b81527f9876c0f0505bfb2b1c38d3bbd25ba13159172cd0868972d76927723f5a9480fc600482015290915042906000906001600160a01b038a1690639283ae3a9060240160206040518083038186803b15801561040357600080fd5b505afa158015610417573d6000803e3d6000fd5b505050506040513d601f19601f8201168201806040525081019061043b91906134d8565b61044590836137bc565b905061045489848a8585611cb1565b61046f89848460405180602001604052806000815250611f33565b60016003600082825461048291906137bc565b90915550506040517ffea2665062ba82dc413c7c18c28f836789917497e349b8c156ebaaae175ddabf906104c2908b9086908c90879087906001906135ca565b60405180910390a15050506104d782826121fd565b50505092915050565b600061027b82612208565b6001600160a01b038216600090815260016020526040812061050d90836123e4565b9392505050565b60405163288c314960e21b81526001600160a01b0382811660048301526000919084169063a230c5249060240160206040518083038186803b15801561055957600080fd5b505afa15801561056d573d6000803e3d6000fd5b505050506040513d601f19601f8201168201806040525081019061050d91906133ab565b81600061059d82611874565b6001600160a01b038516600090815260208181526040808320878452909152902080549192509084146106125760405162461bcd60e51b815260206004820152601760248201527f70726f706f73616c20646f6573206e6f74206578697374000000000000000000604482015260640161035f565b6040517ff941f6910000000000000000000000000000000000000000000000000000000081526001600160a01b0386169063f941f6919061065a9087906002906004016136f4565b60206040518083038186803b15801561067257600080fd5b505afa158015610686573d6000803e3d6000fd5b505050506040513d601f19601f820116820180604052508101906106aa91906133ab565b156106f75760405162461bcd60e51b815260206004820152601a60248201527f70726f706f73616c20616c72656164792070726f636573736564000000000000604482015260640161035f565b6040516317ba7d8560e01b81527f0d479c38716a0298633b1dbf1ce145a3fbd1d79ca4527de172afc3bad04a2ba760048201526000906001600160a01b038716906317ba7d859060240160206040518083038186803b15801561075957600080fd5b505afa15801561076d573d6000803e3d6000fd5b505050506040513d601f19601f8201168201806040525081019061079191906132c8565b90506001600160a01b0381166107e95760405162461bcd60e51b815260206004820152601160248201527f61646170746572206e6f7420666f756e64000000000000000000000000000000604482015260640161035f565b6040517f76225e730000000000000000000000000000000000000000000000000000000081526001600160a01b0387811660048301526024820187905260009182918291908516906376225e7390604401606060405180830381600087803b15801561085457600080fd5b505af1158015610868573d6000803e3d6000fd5b505050506040513d601f19601f8201168201806040525081019061088c919061346f565b6040517f30490e91000000000000000000000000000000000000000000000000000000008152600481018c905292955090935091506001600160a01b038a16906330490e9190602401600060405180830381600087803b1580156108ef57600080fd5b505af1158015610903573d6000803e3d6000fd5b5060029250610910915050565b83600581111561093057634e487b7160e01b600052602160045260246000fd5b1415610ac0576004850180546001919060ff19168280021790555060018501546001600160a01b031660006004870154610100900460ff16600181111561098757634e487b7160e01b600052602160045260246000fd5b1415610a02576040517fdc929f4a0000000000000000000000000000000000000000000000000000000081526001600160a01b0382811660048301528b169063dc929f4a90602401600060405180830381600087803b1580156109e957600080fd5b505af11580156109fd573d6000803e3d6000fd5b505050505b60016004870154610100900460ff166001811115610a3057634e487b7160e01b600052602160045260246000fd5b1415610aab576040517f0b1ca49a0000000000000000000000000000000000000000000000000000000081526001600160a01b0382811660048301528b1690630b1ca49a90602401600060405180830381600087803b158015610a9257600080fd5b505af1158015610aa6573d6000803e3d6000fd5b505050505b5060048501805460ff19166002179055610b94565b6003836005811115610ae257634e487b7160e01b600052602160045260246000fd5b1480610b0d57506001836005811115610b0b57634e487b7160e01b600052602160045260246000fd5b145b15610b265760048501805460ff19166003179055610b94565b60405162461bcd60e51b815260206004820152602260248201527f70726f706f73616c20686173206e6f74206265656e20766f746564206f6e207960448201527f6574000000000000000000000000000000000000000000000000000000000000606482015260840161035f565b6000610ba08a8a612406565b60048701549091507f7ab29e6deeb60f3b76461422909b7ae5bda1be890b270b70c56a32d54cd2a456908b908b9060ff168487878a6005811115610bf457634e487b7160e01b600052602160045260246000fd5b604051610c07979695949392919061360f565b60405180910390a1505050505050610c1f82826121fd565b50505050565b6000826000610c3382611874565b905084610c40813361181a565b604051634941d71d60e11b81527f71ecc01da16acc23ab0eca549b0aaa7659ae183a220304fe5072243bc984fd796004820152869086906001600160a01b03831690639283ae3a9060240160206040518083038186803b158015610ca357600080fd5b505afa158015610cb7573d6000803e3d6000fd5b505050506040513d601f19601f82011682018060405250810190610cdb91906134d8565b600114156113d657604051634941d71d60e11b81527f84580f9d926113d2c801e908a914b652340b3d8527c171bcea8d1868e92a507c60048201526000906001600160a01b03841690639283ae3a9060240160206040518083038186803b158015610d4557600080fd5b505afa158015610d59573d6000803e3d6000fd5b505050506040513d601f19601f82011682018060405250810190610d7d91906134d8565b604051634941d71d60e11b81527f50c40dbbb38d5b02b04e0c6d7be02f4391fc8c14a98860284871ef1834c8390b60048201529091506000906001600160a01b03851690639283ae3a9060240160206040518083038186803b158015610de257600080fd5b505afa158015610df6573d6000803e3d6000fd5b505050506040513d601f19601f82011682018060405250810190610e1a91906134d8565b604051634941d71d60e11b81527f93cc40268a57b3f7e5eb22a016a12d19010736289cceac5742a116fea3491b3560048201529091506000906001600160a01b03861690639283ae3a9060240160206040518083038186803b158015610e7f57600080fd5b505afa158015610e93573d6000803e3d6000fd5b505050506040513d601f19601f82011682018060405250810190610eb791906134d8565b60405163fd310d2960e01b81527f0bfac56541ded449415df8f96f54b002e55665d7fd2fafc884184e8c17f3c77260048201529091506000906001600160a01b0387169063fd310d299060240160206040518083038186803b158015610f1c57600080fd5b505afa158015610f30573d6000803e3d6000fd5b505050506040513d601f19601f82011682018060405250810190610f5491906132c8565b90508361104b576040516370a0823160e01b81526001600160a01b0386811660048301528491908316906370a082319060240160206040518083038186803b158015610f9f57600080fd5b505afa158015610fb3573d6000803e3d6000fd5b505050506040513d601f19601f82011682018060405250810190610fd791906134d8565b101561104b5760405162461bcd60e51b815260206004820152602c60248201527f646f6e74206d656574206d696e20657263323020746f6b656e20686f6c64696e60448201527f67207265717569726d656e740000000000000000000000000000000000000000606482015260840161035f565b8360011415611144576040516370a0823160e01b81526001600160a01b0386811660048301528491908316906370a082319060240160206040518083038186803b15801561109857600080fd5b505afa1580156110ac573d6000803e3d6000fd5b505050506040513d601f19601f820116820180604052508101906110d091906134d8565b10156111445760405162461bcd60e51b815260206004820152602d60248201527f646f6e74206d656574206d696e2065726337323120746f6b656e20686f6c646960448201527f6e67207265717569726d656e7400000000000000000000000000000000000000606482015260840161035f565b836002141561124257604051627eeac760e11b81526001600160a01b0386811660048301526024820184905284919083169062fdd58e9060440160206040518083038186803b15801561119657600080fd5b505afa1580156111aa573d6000803e3d6000fd5b505050506040513d601f19601f820116820180604052508101906111ce91906134d8565b10156112425760405162461bcd60e51b815260206004820152602e60248201527f646f6e74206d656574206d696e206572633131353520746f6b656e20686f6c6460448201527f696e67207265717569726d656e74000000000000000000000000000000000000606482015260840161035f565b83600314156113d1576040516317ba7d8560e01b81527fcad7b0867188190920a10bf710c45443f6358175d56a759e7dc109e6d7b5d75360048201526000906001600160a01b038816906317ba7d859060240160206040518083038186803b1580156112ad57600080fd5b505afa1580156112c1573d6000803e3d6000fd5b505050506040513d601f19601f820116820180604052508101906112e591906132c8565b6040517f8c62ba5c0000000000000000000000000000000000000000000000000000000081526001600160a01b038981166004830152888116602483015291925090821690638c62ba5c9060440160206040518083038186803b15801561134b57600080fd5b505afa15801561135f573d6000803e3d6000fd5b505050506040513d601f19601f8201168201806040525081019061138391906133ab565b6113cf5760405162461bcd60e51b815260206004820152601860248201527f6e6f7420696e20737465776172642077686974656c6973740000000000000000604482015260640161035f565b505b505050505b60405163288c314960e21b81526001600160a01b03888116600483015289169063a230c5249060240160206040518083038186803b15801561141757600080fd5b505afa15801561142b573d6000803e3d6000fd5b505050506040513d601f19601f8201168201806040525081019061144f91906133ab565b1561149c5760405162461bcd60e51b815260206004820152601c60248201527f6170706c6963616e74206973207374727761726420616c726561647900000000604482015260640161035f565b6114a5876126c6565b6114f15760405162461bcd60e51b815260206004820152601d60248201527f6170706c6963616e742069732072657365727665642061646472657373000000604482015260640161035f565b6000611511611501600254611b3f565b6040516020016103889190613540565b604051634941d71d60e11b81527f9876c0f0505bfb2b1c38d3bbd25ba13159172cd0868972d76927723f5a9480fc600482015290915042906000906001600160a01b038c1690639283ae3a9060240160206040518083038186803b15801561157857600080fd5b505afa15801561158c573d6000803e3d6000fd5b505050506040513d601f19601f820116820180604052508101906115b091906134d8565b6115ba90836137bc565b90506115c98b848c858561270a565b6115e48b848460405180602001604052806000815250611f33565b6001600260008282546115f791906137bc565b90915550506040517ffea2665062ba82dc413c7c18c28f836789917497e349b8c156ebaaae175ddabf90611637908d9086908e90879087906000906135ca565b60405180910390a150505050505061164f82826121fd565b505092915050565b81611662813361181a565b6001600160a01b038316600090815260016020526040902061168490836123e4565b6116aa576001600160a01b0383166000908152600160205260409020610c1f908361280b565b505050565b606061027b82612820565b806116c5813361181a565b336001600160a01b0316826001600160a01b031663149acf9a6040518163ffffffff1660e01b815260040160206040518083038186803b15801561170857600080fd5b505afa15801561171c573d6000803e3d6000fd5b505050506040513d601f19601f8201168201806040525081019061174091906132c8565b6001600160a01b031614156117975760405162461bcd60e51b815260206004820152601660248201527f64616f2073756d6d6f6e6f722063616e74207175697400000000000000000000604482015260640161035f565b6040517f0b1ca49a0000000000000000000000000000000000000000000000000000000081523360048201526001600160a01b03831690630b1ca49a90602401600060405180830381600087803b1580156117f157600080fd5b505af1158015611805573d6000803e3d6000fd5b505050505050565b6060600061050d83612897565b6118248282610514565b6118705760405162461bcd60e51b815260206004820152600b60248201527f6f6e6c7953746577617264000000000000000000000000000000000000000000604482015260640161035f565b5050565b6040805160808101825260008082526020820181905291810182905260608101919091525a81600001818152505043826001600160a01b031663b21634826040518163ffffffff1660e01b815260040160206040518083038186803b1580156118dc57600080fd5b505afa1580156118f0573d6000803e3d6000fd5b505050506040513d601f19601f8201168201806040525081019061191491906134d8565b14156119625760405162461bcd60e51b815260206004820152601060248201527f7265656e7472616e637920677561726400000000000000000000000000000000604482015260640161035f565b816001600160a01b03166310fdb0a26040518163ffffffff1660e01b8152600401600060405180830381600087803b15801561199d57600080fd5b505af11580156119b1573d6000803e3d6000fd5b50506040517f72c6838f0000000000000000000000000000000000000000000000000000000081527f1f2fd42ad6a6cacd573c4b212beb7a4e2499ad45d742a65337097f130e71daff6004820152600092506001600160a01b03851691506372c6838f9060240160206040518083038186803b158015611a3057600080fd5b505afa158015611a44573d6000803e3d6000fd5b505050506040513d601f19601f82011682018060405250810190611a6891906132c8565b90506001600160a01b038116611a845760006020830152611b39565b6001600160a01b038181166060840181905283516040517f43a8a3f1000000000000000000000000000000000000000000000000000000008152928616600484015260248301526000918291906343a8a3f190604401604080518083038186803b158015611af157600080fd5b505afa158015611b05573d6000803e3d6000fd5b505050506040513d601f19601f82011682018060405250810190611b2991906133c5565b9015156020860152604085015250505b50919050565b606081611b7f57505060408051808201909152600181527f3000000000000000000000000000000000000000000000000000000000000000602082015290565b8160005b8115611ba95780611b938161382b565b9150611ba29050600a836137d4565b9150611b83565b60008167ffffffffffffffff811115611bd257634e487b7160e01b600052604160045260246000fd5b6040519080825280601f01601f191660200182016040528015611bfc576020820181803683370190505b5090505b8415611c8d57611c116001836137e8565b9150611c1e600a86613884565b611c299060306137bc565b60f81b818381518110611c4c57634e487b7160e01b600052603260045260246000fd5b60200101907effffffffffffffffffffffffffffffffffffffffffffffffffffffffffffff1916908160001a905350611c86600a866137d4565b9450611c00565b949350505050565b6000815160001415611ca957506000919050565b506020015190565b60405163288c314960e21b81526001600160a01b03848116600483015286169063a230c5249060240160206040518083038186803b158015611cf257600080fd5b505afa158015611d06573d6000803e3d6000fd5b505050506040513d601f19601f82011682018060405250810190611d2a91906133ab565b611d765760405162461bcd60e51b815260206004820152600c60248201527f69736e7420737465776172640000000000000000000000000000000000000000604482015260640161035f565b6040805160c0810182528581526001600160a01b038516602082015290810183905260608101829052608081016000815260200160015b90526001600160a01b038681166000908152602081815260408083208984528252918290208451815590840151600180830180547fffffffffffffffffffffffff00000000000000000000000000000000000000001692909516919091179093559083015160028201556060830151600380830191909155608084015160048301805493949193909260ff1990911691908490811115611e5d57634e487b7160e01b600052602160045260246000fd5b021790555060a08201516004820180547fffffffffffffffffffffffffffffffffffffffffffffffffffffffffffff00ff16610100836001811115611eb257634e487b7160e01b600052602160045260246000fd5b0217905550506040517fb73dc389000000000000000000000000000000000000000000000000000000008152600481018690526001600160a01b038716915063b73dc38990602401600060405180830381600087803b158015611f1457600080fd5b505af1158015611f28573d6000803e3d6000fd5b505050505050505050565b6040516317ba7d8560e01b81527f0d479c38716a0298633b1dbf1ce145a3fbd1d79ca4527de172afc3bad04a2ba760048201526000906001600160a01b038616906317ba7d859060240160206040518083038186803b158015611f9557600080fd5b505afa158015611fa9573d6000803e3d6000fd5b505050506040513d601f19601f82011682018060405250810190611fcd91906132c8565b90506000816001600160a01b031663966917d0873086336040518563ffffffff1660e01b81526004016120039493929190613718565b602060405180830381600087803b15801561201d57600080fd5b505af1158015612031573d6000803e3d6000fd5b505050506040513d601f19601f8201168201806040525081019061205591906132c8565b6040516317ba7d8560e01b81527f0d479c38716a0298633b1dbf1ce145a3fbd1d79ca4527de172afc3bad04a2ba760048201529091506001600160a01b0387169063896ae9ba908790849084906317ba7d859060240160206040518083038186803b1580156120c357600080fd5b505afa1580156120d7573d6000803e3d6000fd5b505050506040513d601f19601f820116820180604052508101906120fb91906132c8565b6040517fffffffff0000000000000000000000000000000000000000000000000000000060e086901b16815260048101939093526001600160a01b039182166024840152166044820152606401600060405180830381600087803b15801561216257600080fd5b505af1158015612176573d6000803e3d6000fd5b50506040517f2b0974d00000000000000000000000000000000000000000000000000000000081526001600160a01b0385169250632b0974d091506121c390899089908890600401613757565b600060405180830381600087803b1580156121dd57600080fd5b505af11580156121f1573d6000803e3d6000fd5b50505050505050505050565b6118708282336128f3565b600080826001600160a01b031663c67143666040518163ffffffff1660e01b815260040160206040518083038186803b15801561224457600080fd5b505afa158015612258573d6000803e3d6000fd5b505050506040513d601f19601f8201168201806040525081019061227c91906134d8565b90506000805b828160ff1610156123dc576040517f9029444a00000000000000000000000000000000000000000000000000000000815260ff821660048201526001600160a01b0386169063a230c524908290639029444a9060240160206040518083038186803b1580156122f057600080fd5b505afa158015612304573d6000803e3d6000fd5b505050506040513d601f19601f8201168201806040525081019061232891906132c8565b6040517fffffffff0000000000000000000000000000000000000000000000000000000060e084901b1681526001600160a01b03909116600482015260240160206040518083038186803b15801561237f57600080fd5b505afa158015612393573d6000803e3d6000fd5b505050506040513d601f19601f820116820180604052508101906123b791906133ab565b156123ca576123c76001836137bc565b91505b806123d481613864565b915050612282565b509392505050565b6001600160a01b0381166000908152600183016020526040812054151561050d565b60008061241284612820565b6040516317ba7d8560e01b81527f0d479c38716a0298633b1dbf1ce145a3fbd1d79ca4527de172afc3bad04a2ba7600482015290915060009081906001600160a01b038716906317ba7d859060240160206040518083038186803b15801561247957600080fd5b505afa15801561248d573d6000803e3d6000fd5b505050506040513d601f19601f820116820180604052508101906124b191906132c8565b905060005b83518160ff1610156126bb57816001600160a01b03166324a2cceb8888878560ff16815181106124f657634e487b7160e01b600052603260045260246000fd5b60200260200101516040518463ffffffff1660e01b815260040161253a939291906001600160a01b0393841681526020810192909252909116604082015260600190565b60206040518083038186803b15801561255257600080fd5b505afa158015612566573d6000803e3d6000fd5b505050506040513d601f19601f8201168201806040525081019061258a91906133ab565b1561266857816001600160a01b03166391d2fd538888878560ff16815181106125c357634e487b7160e01b600052603260045260246000fd5b60200260200101516040518463ffffffff1660e01b8152600401612607939291906001600160a01b0393841681526020810192909252909116604082015260600190565b60206040518083038186803b15801561261f57600080fd5b505afa158015612633573d6000803e3d6000fd5b505050506040513d601f19601f8201168201806040525081019061265791906134a8565b6126619084613788565b92506126a9565b61269c87858360ff168151811061268f57634e487b7160e01b600052603260045260246000fd5b6020026020010151612a01565b6126a69084613788565b92505b806126b381613864565b9150506124b6565b509095945050505050565b60006001600160a01b03821661dead148015906126ee57506001600160a01b03821661babe14155b801561027b57506001600160a01b038216614bec141592915050565b60405163288c314960e21b81526001600160a01b03848116600483015286169063a230c5249060240160206040518083038186803b15801561274b57600080fd5b505afa15801561275f573d6000803e3d6000fd5b505050506040513d601f19601f8201168201806040525081019061278391906133ab565b156127d05760405162461bcd60e51b815260206004820152600f60248201527f7374657761726420657869737465640000000000000000000000000000000000604482015260640161035f565b6040805160c0810182528581526001600160a01b03851660208201529081018390526060810182905260808101600081526020016000611dad565b600061050d836001600160a01b038416613128565b6060816001600160a01b031663a6f636416040518163ffffffff1660e01b815260040160006040518083038186803b15801561285b57600080fd5b505afa15801561286f573d6000803e3d6000fd5b505050506040513d6000823e601f3d908101601f1916820160405261027b91908101906132e4565b6060816000018054806020026020016040519081016040528092919081815260200182805480156128e757602002820191906000526020600020905b8154815260200190600101908083116128d3575b50505050509050919050565b8160200151156129a95781606001516001600160a01b0316635e5eb01384835a865161291f91906137e8565b60408088015190517fffffffff0000000000000000000000000000000000000000000000000000000060e087901b1681526001600160a01b03948516600482015293909216602484015260448301526064820152608401600060405180830381600087803b15801561299057600080fd5b505af11580156129a4573d6000803e3d6000fd5b505050505b826001600160a01b031663d4f7af436040518163ffffffff1660e01b8152600401600060405180830381600087803b1580156129e457600080fd5b505af11580156129f8573d6000803e3d6000fd5b50505050505050565b604051634941d71d60e11b81527f5b1db2a99ea07a11cfaecd49105623ca4735b50f1788d96b1bac788d36a5bcb2600482015260009081906001600160a01b03851690639283ae3a9060240160206040518083038186803b158015612a6557600080fd5b505afa158015612a79573d6000803e3d6000fd5b505050506040513d601f19601f82011682018060405250810190612a9d91906134d8565b604051634941d71d60e11b81527f18ef0b57fe939edb640a200fdf533493bd8f26a274151543a109b64c857e20f360048201529091506000906001600160a01b03861690639283ae3a9060240160206040518083038186803b158015612b0257600080fd5b505afa158015612b16573d6000803e3d6000fd5b505050506040513d601f19601f82011682018060405250810190612b3a91906134d8565b90508060011415612e6457604051634941d71d60e11b81527f0e95730315979b4709b23500dcc4c5a99efa79e8d8a378832595b7033c4f882260048201526000906001600160a01b03871690639283ae3a9060240160206040518083038186803b158015612ba757600080fd5b505afa158015612bbb573d6000803e3d6000fd5b505050506040513d601f19601f82011682018060405250810190612bdf91906134d8565b60405163fd310d2960e01b81527fe52ad936f38348d80ee24f7c89aa5f1eef01716e2edef2f9a86657e208816c6660048201529091506000906001600160a01b0388169063fd310d299060240160206040518083038186803b158015612c4457600080fd5b505afa158015612c58573d6000803e3d6000fd5b505050506040513d601f19601f82011682018060405250810190612c7c91906132c8565b9050600084612d1a576040516370a0823160e01b81526001600160a01b038881166004830152670de0b6b3a764000091908416906370a082319060240160206040518083038186803b158015612cd157600080fd5b505afa158015612ce5573d6000803e3d6000fd5b505050506040513d601f19601f82011682018060405250810190612d0991906134d8565b612d1391906137d4565b9050612dfe565b8460011415612d9d576040516370a0823160e01b81526001600160a01b0388811660048301528316906370a08231906024015b60206040518083038186803b158015612d6557600080fd5b505afa158015612d79573d6000803e3d6000fd5b505050506040513d601f19601f82011682018060405250810190612d1391906134d8565b8460021415612dd957604051627eeac760e11b81526001600160a01b0388811660048301526024820185905283169062fdd58e90604401612d4d565b8460031415612df05760019550505050505061027b565b60009550505050505061027b565b60008111612e145760009550505050505061027b565b677fffffffffffffff8110612e315760329550505050505061027b565b6000612e4c612e47612e4284613177565b613195565b61328c565b67ffffffffffffffff16965061027b95505050505050565b8060021415612e785760019250505061027b565b8061311d57604051634941d71d60e11b81527f0e95730315979b4709b23500dcc4c5a99efa79e8d8a378832595b7033c4f882260048201526000906001600160a01b03871690639283ae3a9060240160206040518083038186803b158015612edf57600080fd5b505afa158015612ef3573d6000803e3d6000fd5b505050506040513d601f19601f82011682018060405250810190612f1791906134d8565b60405163fd310d2960e01b81527fe52ad936f38348d80ee24f7c89aa5f1eef01716e2edef2f9a86657e208816c6660048201529091506000906001600160a01b0388169063fd310d299060240160206040518083038186803b158015612f7c57600080fd5b505afa158015612f90573d6000803e3d6000fd5b505050506040513d601f19601f82011682018060405250810190612fb491906132c8565b9050600084613052576040516370a0823160e01b81526001600160a01b038881166004830152670de0b6b3a764000091908416906370a082319060240160206040518083038186803b15801561300957600080fd5b505afa15801561301d573d6000803e3d6000fd5b505050506040513d601f19601f8201168201806040525081019061304191906134d8565b61304b91906137d4565b9050613111565b84600114156130d5576040516370a0823160e01b81526001600160a01b0388811660048301528316906370a08231906024015b60206040518083038186803b15801561309d57600080fd5b505afa1580156130b1573d6000803e3d6000fd5b505050506040513d601f19601f8201168201806040525081019061304b91906134d8565b8460021415612dd957604051627eeac760e11b81526001600160a01b0388811660048301526024820185905283169062fdd58e90604401613085565b945061027b9350505050565b60009250505061027b565b600081815260018301602052604081205461316f5750815460018181018455600084815260208082209093018490558454848252828601909352604090209190915561027b565b50600061027b565b6000677fffffffffffffff82111561318e57600080fd5b5060401b90565b60008082600f0b136131a657600080fd5b6000600f83900b6801000000000000000081126131c5576040918201911d5b64010000000081126131d9576020918201911d5b6201000081126131eb576010918201911d5b61010081126131fc576008918201911d5b6010811261320c576004918201911d5b6004811261321c576002918201911d5b6002811261322b576001820191505b7fffffffffffffffffffffffffffffffffffffffffffffffffffffffffffffffc0820160401b600f85900b607f8490031b6780000000000000005b60008113156126bb5790800260ff81901c8281029390930192607f011c9060011d613266565b60008082600f0b121561329e57600080fd5b50600f0b60401d90565b80516132b3816138f0565b919050565b805180151581146132b357600080fd5b6000602082840312156132d9578081fd5b815161050d816138f0565b600060208083850312156132f6578182fd5b825167ffffffffffffffff8082111561330d578384fd5b818501915085601f830112613320578384fd5b815181811115613332576133326138da565b8060051b604051601f19603f83011681018181108582111715613357576133576138da565b604052828152858101935084860182860187018a1015613375578788fd5b8795505b8386101561339e5761338a816132a8565b855260019590950194938601938601613379565b5098975050505050505050565b6000602082840312156133bc578081fd5b61050d826132b8565b600080604083850312156133d7578081fd5b6133e0836132b8565b9150602083015190509250929050565b600060208284031215613401578081fd5b813561050d816138f0565b6000806040838503121561341e578182fd5b8235613429816138f0565b91506020830135613439816138f0565b809150509250929050565b60008060408385031215613456578182fd5b8235613461816138f0565b946020939093013593505050565b600080600060608486031215613483578081fd5b835160068110613491578182fd5b602085015160409095015190969495509392505050565b6000602082840312156134b9578081fd5b81516fffffffffffffffffffffffffffffffff8116811461050d578182fd5b6000602082840312156134e9578081fd5b5051919050565b600081518084526135088160208601602086016137ff565b601f01601f19169290920160200192915050565b6004811061352c5761352c6138c4565b9052565b6002811061352c5761352c6138c4565b7f476f7665726e6f722d496e23000000000000000000000000000000000000000081526000825161357881600c8501602087016137ff565b91909101600c0192915050565b7f476f7665726e6f722d4f757423000000000000000000000000000000000000008152600082516135bd81600d8501602087016137ff565b91909101600d0192915050565b6001600160a01b0387811682526020820187905285166040820152606081018490526080810183905260c0810161360460a0830184613530565b979650505050505050565b6001600160a01b03881681526020810187905260e08101613633604083018861351c565b6fffffffffffffffffffffffffffffffff861660608301528460808301528360a08301528260c083015298975050505050505050565b6020808252825182820181905260009190848201906040850190845b818110156136aa5783516001600160a01b031683529284019291840191600101613685565b50909695505050505050565b8681526001600160a01b0386166020820152604081018590526060810184905260c081016136e7608083018561351c565b61360460a0830184613530565b828152604081016003831061370b5761370b6138c4565b8260208301529392505050565b60006001600160a01b03808716835280861660208401526080604084015261374360808401866134f0565b915080841660608401525095945050505050565b6001600160a01b038416815282602082015260606040820152600061377f60608301846134f0565b95945050505050565b60006fffffffffffffffffffffffffffffffff8083168185168083038211156137b3576137b3613898565b01949350505050565b600082198211156137cf576137cf613898565b500190565b6000826137e3576137e36138ae565b500490565b6000828210156137fa576137fa613898565b500390565b60005b8381101561381a578181015183820152602001613802565b83811115610c1f5750506000910152565b60007fffffffffffffffffffffffffffffffffffffffffffffffffffffffffffffffff82141561385d5761385d613898565b5060010190565b600060ff821660ff81141561387b5761387b613898565b60010192915050565b600082613893576138936138ae565b500690565b634e487b7160e01b600052601160045260246000fd5b634e487b7160e01b600052601260045260246000fd5b634e487b7160e01b600052602160045260246000fd5b634e487b7160e01b600052604160045260246000fd5b6001600160a01b038116811461390557600080fd5b5056fea2646970667358221220d39dec1e8aaa848c0b8b70a94df32ab7aa5bd267add3c8e04fe50e6ea5bb8d6e64736f6c63430008040033",
  "linkReferences": {},
  "deployedLinkReferences": {}
}