{
  "_format": "hh-sol-artifact-1",
  "contractName": "SummonDao",
  "sourceName": "contracts/SummonDao.sol",
  "abi": [
    {
      "inputs": [],
      "stateMutability": "nonpayable",
      "type": "constructor"
    },
    {
      "anonymous": false,
      "inputs": [
        {
          "indexed": false,
          "internalType": "address",
          "name": "daoFactoryAddress",
          "type": "address"
        },
        {
          "indexed": false,
          "internalType": "address",
          "name": "daoAddr",
          "type": "address"
        },
        {
          "indexed": false,
          "internalType": "string",
          "name": "name",
          "type": "string"
        },
        {
          "indexed": false,
          "internalType": "address",
          "name": "creator",
          "type": "address"
        }
      ],
      "name": "FlexDaoCreated",
      "type": "event"
    },
    {
      "inputs": [
        {
          "components": [
            {
              "internalType": "address",
              "name": "target",
              "type": "address"
            },
            {
              "internalType": "bytes",
              "name": "callData",
              "type": "bytes"
            }
          ],
          "internalType": "struct SummonDao.Call[9]",
          "name": "calls",
          "type": "tuple[9]"
        }
      ],
      "name": "multiCall",
      "outputs": [],
      "stateMutability": "nonpayable",
      "type": "function"
    },
    {
      "inputs": [
        {
          "components": [
            {
              "internalType": "address[]",
              "name": "daoFactoriesAddress",
              "type": "address[]"
            },
            {
              "components": [
                {
                  "internalType": "bytes32",
                  "name": "id",
                  "type": "bytes32"
                },
                {
                  "internalType": "address",
                  "name": "addr",
                  "type": "address"
                },
                {
                  "internalType": "uint128",
                  "name": "flags",
                  "type": "uint128"
                }
              ],
              "internalType": "struct DaoFactory.Adapter[]",
              "name": "enalbeAdapters",
              "type": "tuple[]"
            },
            {
              "components": [
                {
                  "internalType": "bytes32",
                  "name": "id",
                  "type": "bytes32"
                },
                {
                  "internalType": "address",
                  "name": "addr",
                  "type": "address"
                },
                {
                  "internalType": "uint128",
                  "name": "flags",
                  "type": "uint128"
                }
              ],
              "internalType": "struct DaoFactory.Adapter[]",
              "name": "adapters1",
              "type": "tuple[]"
            },
            {
              "internalType": "bool",
              "name": "fundingPollEnable",
              "type": "bool"
            },
            {
              "components": [
                {
                  "internalType": "bool",
                  "name": "enable",
                  "type": "bool"
                },
                {
                  "internalType": "uint256",
                  "name": "maxInvestorsAmount",
                  "type": "uint256"
                }
              ],
              "internalType": "struct SummonDao.flexDaoInvestorCapInfo",
              "name": "_flexDaoInvestorCapInfo",
              "type": "tuple"
            },
            {
              "internalType": "bool",
              "name": "flexDaoInvestorMembetshipEnable",
              "type": "bool"
            },
            {
              "components": [
                {
                  "internalType": "uint8",
                  "name": "varifyType",
                  "type": "uint8"
                },
                {
                  "internalType": "string",
                  "name": "name",
                  "type": "string"
                },
                {
                  "internalType": "uint256",
                  "name": "minHolding",
                  "type": "uint256"
                },
                {
                  "internalType": "address",
                  "name": "tokenAddress",
                  "type": "address"
                },
                {
                  "internalType": "uint256",
                  "name": "tokenId",
                  "type": "uint256"
                },
                {
                  "internalType": "address[]",
                  "name": "whiteList",
                  "type": "address[]"
                }
              ],
              "internalType": "struct SummonDao.flexDaoPaticipantMembershipInfo",
              "name": "_flexDaoPaticipantMembershipInfos",
              "type": "tuple"
            },
            {
              "internalType": "bool",
              "name": "flexDaoPriorityDepositEnalbe",
              "type": "bool"
            },
            {
              "components": [
                {
                  "internalType": "uint8",
                  "name": "varifyType",
                  "type": "uint8"
                },
                {
                  "internalType": "uint256",
                  "name": "minHolding",
                  "type": "uint256"
                },
                {
                  "internalType": "address",
                  "name": "tokenAddress",
                  "type": "address"
                },
                {
                  "internalType": "uint256",
                  "name": "tokenId",
                  "type": "uint256"
                },
                {
                  "internalType": "address[]",
                  "name": "whiteList",
                  "type": "address[]"
                },
                {
                  "internalType": "uint256",
                  "name": "priorityPeriod",
                  "type": "uint256"
                }
              ],
              "internalType": "struct SummonDao.flexDaoPriorityMembershipInfo",
              "name": "_flexDaoPriorityMembershipInfo",
              "type": "tuple"
            },
            {
              "components": [
                {
                  "internalType": "bool",
                  "name": "enable",
                  "type": "bool"
                },
                {
                  "internalType": "string",
                  "name": "name",
                  "type": "string"
                },
                {
                  "internalType": "uint256",
                  "name": "varifyType",
                  "type": "uint256"
                },
                {
                  "internalType": "uint256",
                  "name": "minHolding",
                  "type": "uint256"
                },
                {
                  "internalType": "address",
                  "name": "tokenAddress",
                  "type": "address"
                },
                {
                  "internalType": "uint256",
                  "name": "tokenId",
                  "type": "uint256"
                },
                {
                  "internalType": "address[]",
                  "name": "whiteList",
                  "type": "address[]"
                }
              ],
              "internalType": "struct SummonDao.flexDaoGovernorMembershipInfo",
              "name": "_flexDaoGovernorMembershipInfo",
              "type": "tuple"
            },
            {
              "components": [
                {
                  "internalType": "uint256",
                  "name": "votingAssetType",
                  "type": "uint256"
                },
                {
                  "internalType": "address",
                  "name": "tokenAddress",
                  "type": "address"
                },
                {
                  "internalType": "uint256",
                  "name": "tokenID",
                  "type": "uint256"
                },
                {
                  "internalType": "uint256",
                  "name": "votingPeriod",
                  "type": "uint256"
                },
                {
                  "internalType": "uint8",
                  "name": "votingPower",
                  "type": "uint8"
                },
                {
                  "internalType": "uint256",
                  "name": "superMajority",
                  "type": "uint256"
                },
                {
                  "internalType": "uint256",
                  "name": "quorum",
                  "type": "uint256"
                },
                {
                  "internalType": "uint256",
                  "name": "supportType",
                  "type": "uint256"
                },
                {
                  "internalType": "uint256",
                  "name": "quorumType",
                  "type": "uint256"
                }
              ],
              "internalType": "struct SummonDao.flexDaoVotingInfo",
              "name": "_flexDaoVotingInfo",
              "type": "tuple"
            },
            {
              "components": [
                {
                  "internalType": "uint8",
                  "name": "varifyType",
                  "type": "uint8"
                },
                {
                  "internalType": "string",
                  "name": "name",
                  "type": "string"
                },
                {
                  "internalType": "uint256",
                  "name": "minHolding",
                  "type": "uint256"
                },
                {
                  "internalType": "address",
                  "name": "tokenAddress",
                  "type": "address"
                },
                {
                  "internalType": "uint256",
                  "name": "tokenId",
                  "type": "uint256"
                },
                {
                  "internalType": "address[]",
                  "name": "whiteList",
                  "type": "address[]"
                }
              ],
              "internalType": "struct SummonDao.flexDaoPollVoterMembershipInfo",
              "name": "_flexDaoPollVoterMembershipInfo",
              "type": "tuple"
            },
            {
              "components": [
                {
                  "internalType": "uint256",
                  "name": "votingPeriod",
                  "type": "uint256"
                },
                {
                  "internalType": "uint8",
                  "name": "votingPower",
                  "type": "uint8"
                },
                {
                  "internalType": "uint256",
                  "name": "superMajority",
                  "type": "uint256"
                },
                {
                  "internalType": "uint256",
                  "name": "quorum",
                  "type": "uint256"
                },
                {
                  "internalType": "uint256",
                  "name": "votingAssetType",
                  "type": "uint256"
                },
                {
                  "internalType": "address",
                  "name": "tokenAddress",
                  "type": "address"
                },
                {
                  "internalType": "uint256",
                  "name": "tokenID",
                  "type": "uint256"
                },
                {
                  "internalType": "uint256",
                  "name": "supportType",
                  "type": "uint256"
                },
                {
                  "internalType": "uint256",
                  "name": "quorumType",
                  "type": "uint256"
                }
              ],
              "internalType": "struct SummonDao.flexDaoPollingInfo",
              "name": "_flexDaoPollingInfo",
              "type": "tuple"
            },
            {
              "components": [
                {
                  "internalType": "bool",
                  "name": "proposerMembershipEnable",
                  "type": "bool"
                },
                {
                  "internalType": "string",
                  "name": "name",
                  "type": "string"
                },
                {
                  "internalType": "uint8",
                  "name": "varifyType",
                  "type": "uint8"
                },
                {
                  "internalType": "uint256",
                  "name": "minHolding",
                  "type": "uint256"
                },
                {
                  "internalType": "address",
                  "name": "tokenAddress",
                  "type": "address"
                },
                {
                  "internalType": "uint256",
                  "name": "tokenId",
                  "type": "uint256"
                },
                {
                  "internalType": "address[]",
                  "name": "whiteList",
                  "type": "address[]"
                }
              ],
              "internalType": "struct SummonDao.flexDaoProposerMembershipInfo",
              "name": "_flexDaoProposerMembershipInfo",
              "type": "tuple"
            },
            {
              "components": [
                {
                  "internalType": "string",
                  "name": "name",
                  "type": "string"
                },
                {
                  "internalType": "address",
                  "name": "creator",
                  "type": "address"
                },
                {
                  "internalType": "uint256",
                  "name": "flexDaoManagementfee",
                  "type": "uint256"
                },
                {
                  "internalType": "uint256",
                  "name": "returnTokenManagementFee",
                  "type": "uint256"
                },
                {
                  "internalType": "address",
                  "name": "managementFeeAddress",
                  "type": "address"
                },
                {
                  "internalType": "address[]",
                  "name": "flexDaoGenesisStewards",
                  "type": "address[]"
                },
                {
                  "internalType": "uint256[]",
                  "name": "allocations",
                  "type": "uint256[]"
                }
              ],
              "internalType": "struct SummonDao.flexDaoInfo",
              "name": "_flexDaoInfo",
              "type": "tuple"
            }
          ],
          "internalType": "struct SummonDao.FlexDaoParams",
          "name": "params",
          "type": "tuple"
        }
      ],
      "name": "summonFlexDao",
      "outputs": [],
      "stateMutability": "nonpayable",
      "type": "function"
    },
    {
      "inputs": [
        {
          "internalType": "address",
          "name": "daoFacAddr",
          "type": "address"
        },
        {
          "internalType": "string",
          "name": "daoName",
          "type": "string"
        },
        {
          "internalType": "address",
          "name": "creator",
          "type": "address"
        }
      ],
      "name": "summonFlexDao1",
      "outputs": [
        {
          "internalType": "bool",
          "name": "",
          "type": "bool"
        }
      ],
      "stateMutability": "nonpayable",
      "type": "function"
    },
    {
      "inputs": [
        {
          "internalType": "bool",
          "name": "flexDaoPriorityDepositEnalbe",
          "type": "bool"
        },
        {
          "internalType": "uint256",
          "name": "flexDaoPriorityMembershipVarifyType",
          "type": "uint256"
        },
        {
          "internalType": "uint256",
          "name": "flexDaoPriorityMembershipPriorityPeriod",
          "type": "uint256"
        },
        {
          "internalType": "uint256",
          "name": "flexDaoPriorityMembershipMinHolding",
          "type": "uint256"
        },
        {
          "internalType": "uint256",
          "name": "flexDaoPriorityMembershipTokenId",
          "type": "uint256"
        },
        {
          "internalType": "address[]",
          "name": "flexDaoPriorityMembershipWhiteList",
          "type": "address[]"
        },
        {
          "internalType": "address",
          "name": "flexDaoPriorityMembershipTokenAddress",
          "type": "address"
        },
        {
          "internalType": "address",
          "name": "newDaoAddr",
          "type": "address"
        }
      ],
      "name": "summonFlexDao10",
      "outputs": [
        {
          "internalType": "bool",
          "name": "",
          "type": "bool"
        }
      ],
      "stateMutability": "nonpayable",
      "type": "function"
    },
    {
      "inputs": [
        {
          "internalType": "address",
          "name": "flexFundingPoolFacAddr",
          "type": "address"
        },
        {
          "internalType": "address",
          "name": "newDaoAddr",
          "type": "address"
        },
        {
          "internalType": "address",
          "name": "creator",
          "type": "address"
        }
      ],
      "name": "summonFlexDao2",
      "outputs": [
        {
          "internalType": "bool",
          "name": "",
          "type": "bool"
        }
      ],
      "stateMutability": "nonpayable",
      "type": "function"
    },
    {
      "inputs": [
        {
          "internalType": "address",
          "name": "daoFacAddr",
          "type": "address"
        },
        {
          "components": [
            {
              "internalType": "bytes32",
              "name": "id",
              "type": "bytes32"
            },
            {
              "internalType": "address",
              "name": "addr",
              "type": "address"
            },
            {
              "internalType": "uint128",
              "name": "flags",
              "type": "uint128"
            }
          ],
          "internalType": "struct DaoFactory.Adapter[]",
          "name": "enalbeAdapters",
          "type": "tuple[]"
        },
        {
          "internalType": "address",
          "name": "newDaoAddr",
          "type": "address"
        }
      ],
      "name": "summonFlexDao3",
      "outputs": [
        {
          "internalType": "bool",
          "name": "",
          "type": "bool"
        }
      ],
      "stateMutability": "nonpayable",
      "type": "function"
    },
    {
      "inputs": [
        {
          "internalType": "address",
          "name": "daoFacAddr",
          "type": "address"
        },
        {
          "internalType": "address",
          "name": "flexFundingPoolFacAddr",
          "type": "address"
        },
        {
          "components": [
            {
              "internalType": "bytes32",
              "name": "id",
              "type": "bytes32"
            },
            {
              "internalType": "address",
              "name": "addr",
              "type": "address"
            },
            {
              "internalType": "uint128",
              "name": "flags",
              "type": "uint128"
            }
          ],
          "internalType": "struct DaoFactory.Adapter[]",
          "name": "adapters1",
          "type": "tuple[]"
        },
        {
          "internalType": "address",
          "name": "newDaoAddr",
          "type": "address"
        }
      ],
      "name": "summonFlexDao4",
      "outputs": [
        {
          "internalType": "bool",
          "name": "",
          "type": "bool"
        }
      ],
      "stateMutability": "nonpayable",
      "type": "function"
    },
    {
      "inputs": [
        {
          "internalType": "uint256",
          "name": "flexDaoManagementfee",
          "type": "uint256"
        },
        {
          "internalType": "address",
          "name": "managementFeeAddress",
          "type": "address"
        },
        {
          "internalType": "uint256",
          "name": "flexDaoReturnTokenManagementFee",
          "type": "uint256"
        },
        {
          "internalType": "address",
          "name": "newDaoAddr",
          "type": "address"
        },
        {
          "internalType": "uint8",
          "name": "votingPower",
          "type": "uint8"
        },
        {
          "internalType": "uint256",
          "name": "tokenID",
          "type": "uint256"
        },
        {
          "internalType": "address",
          "name": "tokenAddress",
          "type": "address"
        },
        {
          "internalType": "uint256[6]",
          "name": "_uint256VoteArgs",
          "type": "uint256[6]"
        }
      ],
      "name": "summonFlexDao5",
      "outputs": [
        {
          "internalType": "bool",
          "name": "",
          "type": "bool"
        }
      ],
      "stateMutability": "nonpayable",
      "type": "function"
    },
    {
      "inputs": [
        {
          "internalType": "address[]",
          "name": "flexDaoGenesisStewards",
          "type": "address[]"
        },
        {
          "internalType": "uint256[]",
          "name": "allocations",
          "type": "uint256[]"
        },
        {
          "internalType": "address",
          "name": "newDaoAddr",
          "type": "address"
        },
        {
          "internalType": "uint256",
          "name": "votingAssetType",
          "type": "uint256"
        }
      ],
      "name": "summonFlexDao6",
      "outputs": [
        {
          "internalType": "bool",
          "name": "",
          "type": "bool"
        }
      ],
      "stateMutability": "nonpayable",
      "type": "function"
    },
    {
      "inputs": [
        {
          "internalType": "bool[2]",
          "name": "booleanParams",
          "type": "bool[2]"
        },
        {
          "internalType": "string",
          "name": "flexPollVoterMembershipName",
          "type": "string"
        },
        {
          "internalType": "uint256[10]",
          "name": "uint256Params",
          "type": "uint256[10]"
        },
        {
          "internalType": "address[3]",
          "name": "addressParams",
          "type": "address[3]"
        },
        {
          "internalType": "address[]",
          "name": "flexDaoPollVoterMembershipWhiteList",
          "type": "address[]"
        }
      ],
      "name": "summonFlexDao7",
      "outputs": [
        {
          "internalType": "bool",
          "name": "",
          "type": "bool"
        }
      ],
      "stateMutability": "nonpayable",
      "type": "function"
    },
    {
      "inputs": [
        {
          "internalType": "bool",
          "name": "flexDaoStewardMembershipEnable",
          "type": "bool"
        },
        {
          "internalType": "bool",
          "name": "flexDaoProposerMembershipEnable",
          "type": "bool"
        },
        {
          "internalType": "string[2]",
          "name": "stringParams",
          "type": "string[2]"
        },
        {
          "internalType": "uint256[6]",
          "name": "uint256Params",
          "type": "uint256[6]"
        },
        {
          "internalType": "address[3]",
          "name": "addressParams",
          "type": "address[3]"
        },
        {
          "internalType": "address[]",
          "name": "flexDaoStewardMembershipWhitelist",
          "type": "address[]"
        },
        {
          "internalType": "address[]",
          "name": "flexDaoProposerMembershipWhiteList",
          "type": "address[]"
        }
      ],
      "name": "summonFlexDao8",
      "outputs": [
        {
          "internalType": "bool",
          "name": "",
          "type": "bool"
        }
      ],
      "stateMutability": "nonpayable",
      "type": "function"
    },
    {
      "inputs": [
        {
          "internalType": "bool",
          "name": "flexDaoInvestorMembetshipEnable",
          "type": "bool"
        },
        {
          "internalType": "string",
          "name": "name",
          "type": "string"
        },
        {
          "internalType": "uint256",
          "name": "flexDaoPaticipantMembershipVarifyType",
          "type": "uint256"
        },
        {
          "internalType": "uint256",
          "name": "flexDaoPaticipantMembershipMinHolding",
          "type": "uint256"
        },
        {
          "internalType": "uint256",
          "name": "flexDaoPaticipantMembershipTokenId",
          "type": "uint256"
        },
        {
          "internalType": "address",
          "name": "flexDaoPaticipantMembershipTokenAddress",
          "type": "address"
        },
        {
          "internalType": "address[]",
          "name": "flexDaoPaticipantMembershipWhiteList",
          "type": "address[]"
        },
        {
          "internalType": "address",
          "name": "newDaoAddr",
          "type": "address"
        }
      ],
      "name": "summonFlexDao9",
      "outputs": [
        {
          "internalType": "bool",
          "name": "",
          "type": "bool"
        }
      ],
      "stateMutability": "nonpayable",
      "type": "function"
    }
  ],
  "bytecode": "0x608060405234801561001057600080fd5b5061583280620000216000396000f3fe608060405234801561001057600080fd5b50600436106100d45760003560e01c8063a694adaa11610081578063e23fdcb21161005b578063e23fdcb21461019a578063e9f2e405146101ad578063f56e40c5146101c057600080fd5b8063a694adaa14610161578063c606705014610174578063d2bdd0671461018757600080fd5b80633301a13f116100b25780633301a13f14610126578063724c80111461013b578063a22dff6d1461014e57600080fd5b806301accef7146100d957806328e037521461010057806332c575f614610113575b600080fd5b6100ec6100e7366004614904565b6101d3565b604051901515815260200160405180910390f35b6100ec61010e366004614b33565b6104b1565b6100ec610121366004614834565b610b57565b610139610134366004614d79565b610d4b565b005b6101396101493660046149f4565b611cdd565b6100ec61015c366004614753565b611e02565b6100ec61016f366004614709565b611f3b565b6100ec61018236600461487b565b61210a565b6100ec610195366004614cda565b612135565b6100ec6101a8366004614c17565b6123aa565b6100ec6101bb3660046147ce565b612474565b6100ec6101ce366004614db2565b6124ce565b6000806101e660408601602087016146ca565b90503033146101f457600080fd5b88511561039057604051630da0f6c760e41b81527f6e9fd67c3f2ca4e2b4e4b45b33b985dc3a1bffcadea24d12440a5901f72217b56004820152600160248201526001600160a01b0382169063da0f6c7090604401600060405180830381600087803b15801561026357600080fd5b505af1158015610277573d6000803e3d6000fd5b505050506102e881876000600a81106102a057634e487b7160e01b600052603260045260246000fd5b6020020151886001602002015189600260200201518a600360200201518b600460200201518c600560200201518c60026020020160208101906102e391906146ca565b612b31565b61039081898960405180606001604052808b6006600a811061031a57634e487b7160e01b600052603260045260246000fd5b602002015181526020018b6007600a811061034557634e487b7160e01b600052603260045260246000fd5b602002015181526020018b6008600a811061037057634e487b7160e01b600052603260045260246000fd5b60209081029190910151909152610389908b018b6146ca565b8989612ee3565b6020890151156104a257604051630da0f6c760e41b81527f69f4ffb3ebcb7809550bddd3e4d449a47e737bf6635bc7a730996643997b0e486004820152600160248201526001600160a01b0382169063da0f6c7090604401600060405180830381600087803b15801561040257600080fd5b505af1158015610416573d6000803e3d6000fd5b505050610120870151604051630da0f6c760e41b81527fecbde689cc6337d29a750b8b8a8abbfa97427b4ac800ab55be2f2c87311510f2600482015260248101919091526001600160a01b038316915063da0f6c7090604401600060405180830381600087803b15801561048957600080fd5b505af115801561049d573d6000803e3d6000fd5b505050505b50600198975050505050505050565b6000806104c460608801604089016146ca565b90503033146104d257600080fd5b8a156109dc57604051630da0f6c760e41b81527f71ecc01da16acc23ab0eca549b0aaa7659ae183a220304fe5072243bc984fd796004820152600160248201526001600160a01b0382169063da0f6c7090604401600060405180830381600087803b15801561054057600080fd5b505af1158015610554573d6000803e3d6000fd5b5050506001600160a01b038216905063f958b7107fe6fc898f462d48724eb27b66193f38e8f83f214469eb3145fe9431a89411e7246105938c80615578565b6040518463ffffffff1660e01b81526004016105b1939291906153cd565b600060405180830381600087803b1580156105cb57600080fd5b505af11580156105df573d6000803e3d6000fd5b50508951604051630da0f6c760e41b81527f84580f9d926113d2c801e908a914b652340b3d8527c171bcea8d1868e92a507c600482015260248101919091526001600160a01b038416925063da0f6c709150604401600060405180830381600087803b15801561064e57600080fd5b505af1158015610662573d6000803e3d6000fd5b505050508760006006811061068757634e487b7160e01b600052603260045260246000fd5b60200201511580610699575087516001145b806106a5575087516002145b156107ce576020880151604051630da0f6c760e41b81527f50c40dbbb38d5b02b04e0c6d7be02f4391fc8c14a98860284871ef1834c8390b600482015260248101919091526001600160a01b0382169063da0f6c7090604401600060405180830381600087803b15801561071857600080fd5b505af115801561072c573d6000803e3d6000fd5b5050506001600160a01b0382169050633b4f921a7f0bfac56541ded449415df8f96f54b002e55665d7fd2fafc884184e8c17f3c77261076e60208b018b6146ca565b6040516001600160e01b031960e085901b16815260048101929092526001600160a01b03166024820152604401600060405180830381600087803b1580156107b557600080fd5b505af11580156107c9573d6000803e3d6000fd5b505050505b87516002141561085f576040808901519051630da0f6c760e41b81527f93cc40268a57b3f7e5eb22a016a12d19010736289cceac5742a116fea3491b35600482015260248101919091526001600160a01b0382169063da0f6c7090604401600060405180830381600087803b15801561084657600080fd5b505af115801561085a573d6000803e3d6000fd5b505050505b8751600314801561086f57508415155b156109dc576040516317ba7d8560e01b81527fcad7b0867188190920a10bf710c45443f6358175d56a759e7dc109e6d7b5d75360048201526000906001600160a01b038316906317ba7d859060240160206040518083038186803b1580156108d657600080fd5b505afa1580156108ea573d6000803e3d6000fd5b505050506040513d601f19601f8201168201806040525081019061090e91906146ed565b905060005b60ff81168711156109d957816001600160a01b03166333f7bc0c848a8a8560ff1681811061095157634e487b7160e01b600052603260045260246000fd5b905060200201602081019061096691906146ca565b6040516001600160e01b031960e085901b1681526001600160a01b03928316600482015291166024820152604401600060405180830381600087803b1580156109ae57600080fd5b505af11580156109c2573d6000803e3d6000fd5b5050505080806109d19061576e565b915050610913565b50505b8915610b4457604051630da0f6c760e41b81527f2073e6ba5c75026b006fdd165596d94b89cada2e00d8e44a99d422de8ea467e06004820152600160248201526001600160a01b0382169063da0f6c7090604401600060405180830381600087803b158015610a4a57600080fd5b505af1158015610a5e573d6000803e3d6000fd5b5050506001600160a01b038216905063f958b7107fed2fa238da16f9e9bea8f1aa8dc2f0d04c522f8adbda71cc4ea5c11f5a51f32d610aa060208d018d615578565b6040518463ffffffff1660e01b8152600401610abe939291906153cd565b600060405180830381600087803b158015610ad857600080fd5b505af1158015610aec573d6000803e3d6000fd5b50505050610b448189600360068110610b1557634e487b7160e01b600052603260045260246000fd5b60200201518a600560200201518a6001602002016020810190610b3891906146ca565b60808d015189896131fc565b60019150505b9998505050505050505050565b6000303314610b6557600080fd5b6040517f3baeff3f00000000000000000000000000000000000000000000000000000000815285906001600160a01b03821690633baeff3f90610bb09088908890889060040161545e565b600060405180830381600087803b158015610bca57600080fd5b505af1158015610bde573d6000803e3d6000fd5b50506040517f1d1f0a27000000000000000000000000000000000000000000000000000000008152600092506001600160a01b0384169150631d1f0a2790610c2c908990899060040161544a565b60206040518083038186803b158015610c4457600080fd5b505afa158015610c58573d6000803e3d6000fd5b505050506040513d601f19601f82011682018060405250810190610c7c91906146ed565b90506001600160a01b038116610cff5760405162461bcd60e51b815260206004820152602c60248201527f53756d6d6d6f6e44616f3a3a73756d6d6f6e466c657844616f3a3a637265617460448201527f652064616f206661696c6564000000000000000000000000000000000000000060648201526084015b60405180910390fd5b7f90b4d575a386848fdb50424cc74bd3396f96cbd019887f6e1cad00bf90b920bf8782888888604051610d3695949392919061508b565b60405180910390a15060019695505050505050565b806000610d5c6103e08301836155bd565b6040013510158015610d865750670de0b6b3a7640000610d806103e08301836155bd565b60400135105b610df85760405162461bcd60e51b815260206004820152602e60248201527f53756d6d6f6e20466c65782044414f3a3a496e76616c6964204d616e6167656d60448201527f656e742046656520416d6f756e740000000000000000000000000000000000006064820152608401610cf6565b610e00614427565b610e0a83806154e9565b6000818110610e2957634e487b7160e01b600052603260045260246000fd5b9050602002016020810190610e3e91906146ca565b610e4c6103e08501856155bd565b610e569080615578565b610e646103e08701876155bd565b610e759060408101906020016146ca565b604051602401610e8894939291906150ef565b60408051601f198184030181529181526020820180516001600160e01b03167f32c575f600000000000000000000000000000000000000000000000000000000179052818352513091610eda91614fc2565b6000604051808303816000865af19150503d8060008114610f17576040519150601f19603f3d011682016040523d82523d6000602084013e610f1c565b606091505b5061016083015215156101408201819052610f9f5760405162461bcd60e51b815260206004820152603060248201527f6c6f772d6c6576656c2063616c6c206f662066756e6374696f6e2073756d6d6f60448201527f6e466c657844616f31206661696c6564000000000000000000000000000000006064820152608401610cf6565b6000610faf6103e08501856155bd565b610fb99080615578565b604051602401610fca92919061544a565b60408051601f198184030181529190526020810180516001600160e01b03167f1d1f0a2700000000000000000000000000000000000000000000000000000000179052905061101984806154e9565b600081811061103857634e487b7160e01b600052603260045260246000fd5b905060200201602081019061104d91906146ca565b6001600160a01b0316816040516110649190614fc2565b6000604051808303816000865af19150503d80600081146110a1576040519150601f19603f3d011682016040523d82523d6000602084013e6110a6565b606091505b5061016084018190529015801561014085018190526020909201516001600160a01b03166101808501526110e757506101808201516001600160a01b031615155b6110f057600080fd5b6110fa84806154e9565b600181811061111957634e487b7160e01b600052603260045260246000fd5b905060200201602081019061112e91906146ca565b6101808301516111426103e08701876155bd565b6111539060408101906020016146ca565b6040516001600160a01b0393841660248201529183166044830152909116606482015260840160408051601f19818403018152919052602080820180516001600160e01b03167fa694adaa000000000000000000000000000000000000000000000000000000001790528301526111ca84806154e9565b60008181106111e957634e487b7160e01b600052603260045260246000fd5b90506020020160208101906111fe91906146ca565b61120b6020860186615531565b84610180015160405160240161122494939291906150b7565b60408051601f198184030181529181526020820180516001600160e01b03167fe9f2e4050000000000000000000000000000000000000000000000000000000017905283015261127484806154e9565b600081811061129357634e487b7160e01b600052603260045260246000fd5b90506020020160208101906112a891906146ca565b6112b285806154e9565b60018181106112d157634e487b7160e01b600052603260045260246000fd5b90506020020160208101906112e691906146ca565b6112f36040870187615531565b85610180015160405160240161130d95949392919061504a565b60408051601f19818403018152918152602080830180516001600160e01b03167fa22dff6d00000000000000000000000000000000000000000000000000000000179052606080860193909352815160c0810183526101c08801358152610200880135918101919091526101608701359181019190915261022086013591810191909152610240850135608082015261026085013560a08201526113b56103e08601866155bd565b604001356113c76103e08701876155bd565b6113d89060a08101906080016146ca565b6113e66103e08801886155bd565b61018086015160609190910135906114066102008a016101e08b01614e41565b6101a08a0180359061141c906101808d016146ca565b8760405160240161143498979695949392919061549e565b60408051601f198184030181529190526020810180516001600160e01b03167ff56e40c500000000000000000000000000000000000000000000000000000000179052608084015261148a6103e08601866155bd565b6114989060a08101906154e9565b6114a66103e08801886155bd565b6114b49060c08101906154e9565b6101808701516040516114d59594939291906101608c013590602401615113565b60408051601f19818403018152918152602080830180516001600160e01b03167fc60670500000000000000000000000000000000000000000000000000000000017905260a0860192909252805161014081019091526102a08701358152600091810161154a6102e089016102c08a01614e41565b60ff1681526102e0880135602082015261030088013560408201526103208801356060820152610360880135608082015260a00161158c6102808901896155f0565b61159a906020810190614e41565b60ff1681526020016115b06102808901896155f0565b6040013581526020016115c76102808901896155f0565b60800135815260200187608001602001358152509050600060405180604001604052808860600160208101906115fd9190614b19565b1515815260200161161460a08a0160808b01614b19565b151590529050806116296102808901896155f0565b611637906020810190615578565b8460405180606001604052808c80610280019061165491906155f0565b6116659060808101906060016146ca565b6001600160a01b0390811682526101808c01511660208201526040016116936103608e016103408f016146ca565b6001600160a01b031690526116ac6102808d018d6155f0565b6116ba9060a08101906154e9565b6040516024016116d0979695949392919061518d565b60408051601f198184030181529181526020820180516001600160e01b03167f01accef70000000000000000000000000000000000000000000000000000000017905260c08088019290925280519182019052600090806117356101408b018b6155bd565b60400135815260200161174c6101408b018b6155bd565b6060013581526020016117636101408b018b6155bd565b60a00135815260200161177a6103c08b018b6155bd565b61178b906060810190604001614e41565b60ff1681526020016117a16103c08b018b6155bd565b60a0013581526020016117b86103c08b018b6155bd565b60600135905290506117ce6101408901896155bd565b6117dc906020810190614b19565b6117ea6103c08a018a6155bd565b6117f8906020810190614b19565b60408051808201909152806118116101408d018d6155bd565b61181f906020810190615578565b8080601f0160208091040260200160405190810160405280939291908181526020018383808284376000920191909152505050908252506020016118676103c08d018d6155bd565b611875906020810190615578565b8080601f016020809104026020016040519081016040528093929190818152602001838380828437600092019190915250505091525060408051606081019091528490806118c76101408f018f6155bd565b6118d89060a08101906080016146ca565b6001600160a01b031681526020016118f46103c08f018f6155bd565b6119059060a08101906080016146ca565b6001600160a01b0390811682526101808d01511660209091015261192d6101408e018e6155bd565b61193b9060c08101906154e9565b8e806103c0019061194c91906155bd565b61195a9060c08101906154e9565b60405160240161197299989796959493929190615228565b60408051601f198184030181529190526020810180516001600160e01b03167f28e037520000000000000000000000000000000000000000000000000000000017905260e0808801919091526119cd90890160c08a01614b19565b6119da60e08a018a6155f0565b6119e8906020810190615578565b6119f560e08c018c6155f0565b611a03906020810190614e41565b611a1060e08d018d6155f0565b60400135611a2160e08e018e6155f0565b60800135611a3260e08f018f6155f0565b611a439060808101906060016146ca565b8e8060e00190611a5391906155f0565b611a619060a08101906154e9565b8e6101800151604051602401611a809a999897969594939291906152f9565b60408051601f198184030181529190526020810180516001600160e01b03167fe23fdcb20000000000000000000000000000000000000000000000000000000017905261010080880191909152611ade906101208a01908a01614b19565b611aec6101208a018a6155f0565b611afa906020810190614e41565b611b086101208b018b6155f0565b60a00135611b1a6101208c018c6155f0565b60200135611b2c6101208d018d6155f0565b60600135611b3e6101208e018e6155f0565b611b4c9060808101906154e9565b8e806101200190611b5d91906155f0565b611b6e9060608101906040016146ca565b8d6101800151604051602401611b8c9998979695949392919061536b565b60408051601f19818403018152918152602080830180516001600160e01b03167fd2bdd06700000000000000000000000000000000000000000000000000000000179052610120890192835281518083018352308082528a830151828401526101a08b01805192909252835180850185528181528b850151818501528251840152835180850185528181526060808d0151828601528351860191909152845180860186528281526080808e0151828701528451909201528451808601865282815260a0808e0151828701528451909201528451808601865282815260c0808e0151828701528451909201528451808601865282815260e0808e015182870152845190920152845180860186528281526101008d015181860152835190910152835180850190945283529251908201529051600860200201526101a0860151611cd390611cdd565b5050505050505050565b60005b6009811015611dfe576000828260098110611d0b57634e487b7160e01b600052603260045260246000fd5b6020020151516001600160a01b0316838360098110611d3a57634e487b7160e01b600052603260045260246000fd5b602002015160200151604051611d509190614fc2565b6000604051808303816000865af19150503d8060008114611d8d576040519150601f19603f3d011682016040523d82523d6000602084013e611d92565b606091505b5050905080611dac836002611da791906156a1565b613439565b604051602001611dbc9190614fde565b60405160208183030381529060405290611de95760405162461bcd60e51b8152600401610cf6919061548b565b50508080611df690615735565b915050611ce0565b5050565b600081303314611e1157600080fd5b6040517f3146637e0000000000000000000000000000000000000000000000000000000081526001600160a01b0384811660048301528891889160009190831690633146637e9060240160206040518083038186803b158015611e7357600080fd5b505afa158015611e87573d6000803e3d6000fd5b505050506040513d601f19601f82011682018060405250810190611eab91906146ed565b6040517f29ca12ed0000000000000000000000000000000000000000000000000000000081529091506001600160a01b038416906329ca12ed90611ef990879085908d908d906004016153f0565b600060405180830381600087803b158015611f1357600080fd5b505af1158015611f27573d6000803e3d6000fd5b5060019d9c50505050505050505050505050565b6000303314611f4957600080fd5b6040517f9ed933180000000000000000000000000000000000000000000000000000000081526001600160a01b038481166004830152859190821690639ed9331890602401600060405180830381600087803b158015611fa857600080fd5b505af1158015611fbc573d6000803e3d6000fd5b50506040517f3146637e0000000000000000000000000000000000000000000000000000000081526001600160a01b0387811660048301526000935084169150633146637e9060240160206040518083038186803b15801561201d57600080fd5b505afa158015612031573d6000803e3d6000fd5b505050506040513d601f19601f8201168201806040525081019061205591906146ed565b6040517fc130c6390000000000000000000000000000000000000000000000000000000081527fb12a3847d47fefceb164b75823af125f9aa82b76938df0ddf08c04cd314ba37c60048201526001600160a01b0380831660248301528681166044830152919250869182169063c130c639906064015b600060405180830381600087803b1580156120e557600080fd5b505af11580156120f9573d6000803e3d6000fd5b5060019a9950505050505050505050565b60008230331461211957600080fd5b61212781848a8a8a8a61358f565b506001979650505050505050565b60008130331461214457600080fd5b8a1561215a5761215a818b8b8b8b8b8b8b613810565b806001600160a01b0316630b1ca49a826001600160a01b03166348f7f2a36040518163ffffffff1660e01b815260040160206040518083038186803b1580156121a257600080fd5b505afa1580156121b6573d6000803e3d6000fd5b505050506040513d601f19601f820116820180604052508101906121da91906146ed565b6040516001600160e01b031960e084901b1681526001600160a01b039091166004820152602401600060405180830381600087803b15801561221b57600080fd5b505af115801561222f573d6000803e3d6000fd5b50505050806001600160a01b0316636503287f6040518163ffffffff1660e01b8152600401600060405180830381600087803b15801561226e57600080fd5b505af1158015612282573d6000803e3d6000fd5b50506040516317ba7d8560e01b81527fcad7b0867188190920a10bf710c45443f6358175d56a759e7dc109e6d7b5d7536004820152600092506001600160a01b03841691506317ba7d859060240160206040518083038186803b1580156122e857600080fd5b505afa1580156122fc573d6000803e3d6000fd5b505050506040513d601f19601f8201168201806040525081019061232091906146ed565b6040517fd32b91dd0000000000000000000000000000000000000000000000000000000081526001600160a01b0384811660048301529192509082169063d32b91dd90602401600060405180830381600087803b15801561238057600080fd5b505af1158015612394573d6000803e3d6000fd5b5060019f9e505050505050505050505050505050565b6000813033146123b957600080fd5b8b1561246257604051630da0f6c760e41b81527ffeddffed075d0686e697569ece0ce2fd26bfbbb18719086f36d16c7117edb5536004820152600160248201526001600160a01b0382169063da0f6c7090604401600060405180830381600087803b15801561242757600080fd5b505af115801561243b573d6000803e3d6000fd5b5050505061244e818c8c8c8c8c8c613b4f565b886003141561246257612462818686613df4565b5060019b9a5050505050505050505050565b60008130331461248357600080fd5b6040517f9bb2008400000000000000000000000000000000000000000000000000000000815286906001600160a01b03821690639bb20084906120cb9085908a908a90600401615427565b6000853033146124dd57600080fd5b604051630da0f6c760e41b81527f64c49ee5084f4940c312104c41603e43791b03dad28152afd6eadb5b960a8a876004820152602481018b90526001600160a01b0382169063da0f6c7090604401600060405180830381600087803b15801561254557600080fd5b505af1158015612559573d6000803e3d6000fd5b5050604051631da7c90d60e11b81527f8987d08c67963e4cacd5e5936c122a968c66853d58299dd822c194222710983960048201526001600160a01b038c8116602483015284169250633b4f921a9150604401600060405180830381600087803b1580156125c657600080fd5b505af11580156125da573d6000803e3d6000fd5b5050604051630da0f6c760e41b81527fea659d8e1a730b10af1cecb4f8ee391adf80e75302d6aaeb9642dc8a4a5e5dbb6004820152602481018b90526001600160a01b038416925063da0f6c709150604401600060405180830381600087803b15801561264657600080fd5b505af115801561265a573d6000803e3d6000fd5b5050604051630da0f6c760e41b81527f9876c0f0505bfb2b1c38d3bbd25ba13159172cd0868972d76927723f5a9480fc6004820152853560248201526001600160a01b038416925063da0f6c709150604401600060405180830381600087803b1580156126c657600080fd5b505af11580156126da573d6000803e3d6000fd5b5050604051630da0f6c760e41b81527fb4c601c38beae7eebb719eda3438f59fcbfd4c6dd7d38c00665b6fd5b432df326004820152602086013560248201526001600160a01b038416925063da0f6c709150604401600060405180830381600087803b15801561274957600080fd5b505af115801561275d573d6000803e3d6000fd5b505060408051630da0f6c760e41b81527f75b7d343967750d1f6c15979b7559cea8be22ff1a06a51681b9cbef0d2fff4fe60048201529086013560248201526001600160a01b038416925063da0f6c709150604401600060405180830381600087803b1580156127cc57600080fd5b505af11580156127e0573d6000803e3d6000fd5b5050604051630da0f6c760e41b81527f18ef0b57fe939edb640a200fdf533493bd8f26a274151543a109b64c857e20f3600482015260ff891660248201526001600160a01b038416925063da0f6c709150604401600060405180830381600087803b15801561284e57600080fd5b505af1158015612862573d6000803e3d6000fd5b505050508260026006811061288757634e487b7160e01b600052603260045260246000fd5b60200201356002141561291557604051630da0f6c760e41b81527f77b1580d1632c74a32483c26a7156260a89ae4138b020ea7d09b0dcf24f1ea246004820152602481018690526001600160a01b0382169063da0f6c7090604401600060405180830381600087803b1580156128fc57600080fd5b505af1158015612910573d6000803e3d6000fd5b505050505b6040830135158061292a575060016040840135145b80612939575060408301356002145b156129c057604051631da7c90d60e11b81527fb5a1ad3f04728d7c38547e3d43006a1ec090a02fce04bbb1d0ee4519a1921e5760048201526001600160a01b038581166024830152821690633b4f921a90604401600060405180830381600087803b1580156129a757600080fd5b505af11580156129bb573d6000803e3d6000fd5b505050505b604051630da0f6c760e41b81527f0324de13a5a6e302ddb95a9fdf81cc736fc8acee2abe558970daac27395904e76004820152606084013560248201526001600160a01b0382169063da0f6c7090604401600060405180830381600087803b158015612a2b57600080fd5b505af1158015612a3f573d6000803e3d6000fd5b5050604051630da0f6c760e41b81527fe815a3c082eed7f7f7baab546f11a8718682c0eb3017b099ddc301a92f6673e36004820152608086013560248201526001600160a01b038416925063da0f6c709150604401600060405180830381600087803b158015612aae57600080fd5b505af1158015612ac2573d6000803e3d6000fd5b5050604051630da0f6c760e41b81527f730faccfe82f70711a34ce5202c6e1b1f79f421c16fcef745a9d92d06a7c0d4c600482015260a086013560248201526001600160a01b038416925063da0f6c709150604401600060405180830381600087803b158015611f1357600080fd5b604051630da0f6c760e41b81527fee63cc82ca6990a4cc5fa3ca10d8a5281ae1758a8d8f22892c4badb7cacd111e6004820152602481018890526001600160a01b0389169063da0f6c7090604401600060405180830381600087803b158015612b9957600080fd5b505af1158015612bad573d6000803e3d6000fd5b5050604051630da0f6c760e41b81527f18ccfaf5deb9f2b0bd666344fa9c46950fbcee85fbfd05c3959876dfe502c2096004820152602481018990526001600160a01b038b16925063da0f6c709150604401600060405180830381600087803b158015612c1957600080fd5b505af1158015612c2d573d6000803e3d6000fd5b5050604051630da0f6c760e41b81527f777270e51451e60c2ce5118fc8e5844441dcc4d102e9052e60fb41312dbb848a6004820152602481018890526001600160a01b038b16925063da0f6c709150604401600060405180830381600087803b158015612c9957600080fd5b505af1158015612cad573d6000803e3d6000fd5b5050604051630da0f6c760e41b81527f7789eea44dccd66529026559d1b36215cb5766016b41a8a8f16e08b2ec8758376004820152602481018790526001600160a01b038b16925063da0f6c709150604401600060405180830381600087803b158015612d1957600080fd5b505af1158015612d2d573d6000803e3d6000fd5b5050604051630da0f6c760e41b81527ff873703084a7a9b6b81a595d5038f888fd90f4f9a530d4950a46c89eab0211886004820152602481018690526001600160a01b038b16925063da0f6c709150604401600060405180830381600087803b158015612d9957600080fd5b505af1158015612dad573d6000803e3d6000fd5b505050508260021415612e3b57604051630da0f6c760e41b81527f4e640b0dd9bf7618f23df95b8d516df2ff38868970d2d109c5b4b0455980659f6004820152602481018390526001600160a01b0389169063da0f6c7090604401600060405180830381600087803b158015612e2257600080fd5b505af1158015612e36573d6000803e3d6000fd5b505050505b821580612e485750826001145b80612e535750826002145b15611cd357604051631da7c90d60e11b81527fa23a2786abcf8c551ce7fba1966ec456144d9caa0db070879d03a4ea4fd9b2fd60048201526001600160a01b038281166024830152891690633b4f921a90604401600060405180830381600087803b158015612ec157600080fd5b505af1158015612ed5573d6000803e3d6000fd5b505050505050505050505050565b8351604051630da0f6c760e41b81527f249486eeae30287051f65673dfa390711fd4587950c33b4150a633763f869724600482015260248101919091526001600160a01b0388169063da0f6c7090604401600060405180830381600087803b158015612f4e57600080fd5b505af1158015612f62573d6000803e3d6000fd5b50506040517ff958b7100000000000000000000000000000000000000000000000000000000081526001600160a01b038a16925063f958b7109150612fcf907f7bd63360ec775df97ced77d73875245296c41d88ebf2b52f8e630b4e9a51b448908a908a906004016153cd565b600060405180830381600087803b158015612fe957600080fd5b505af1158015612ffd573d6000803e3d6000fd5b505050508360006003811061302257634e487b7160e01b600052603260045260246000fd5b60200201511580613034575083516001145b80613040575083516002145b1561314d576020840151604051630da0f6c760e41b81527f6839e94cab6f83f7a12a5a3d1d6f3bbcaf0185a49b20b86e6f47b8c78494ac3d600482015260248101919091526001600160a01b0388169063da0f6c7090604401600060405180830381600087803b1580156130b357600080fd5b505af11580156130c7573d6000803e3d6000fd5b5050604051631da7c90d60e11b81527f770ef80745dba2953f780c8b963701e76fd3ac982923200f9214126e80f5f03260048201526001600160a01b0386811660248301528a169250633b4f921a9150604401600060405180830381600087803b15801561313457600080fd5b505af1158015613148573d6000803e3d6000fd5b505050505b8351600214156131de576040808501519051630da0f6c760e41b81527ff2b332c307ef460e99eb866928b78eca9f8af0da0626b4b48a13f9b52842fa6a600482015260248101919091526001600160a01b0388169063da0f6c7090604401600060405180830381600087803b1580156131c557600080fd5b505af11580156131d9573d6000803e3d6000fd5b505050505b8351600314156131f3576131f3878383613f67565b50505050505050565b8515806132095750856001145b806132145750856002145b1561331b57604051630da0f6c760e41b81527ff6d5f030b79ca78dad001b87a49239ec96be97e62d13501da94c9a392700509e6004820152602481018690526001600160a01b0388169063da0f6c7090604401600060405180830381600087803b15801561328157600080fd5b505af1158015613295573d6000803e3d6000fd5b5050604051631da7c90d60e11b81527f30091caaedd0994beeeeb3b7b5734296263687ae0126aaf79e5e0f8e5c1706b260048201526001600160a01b0387811660248301528a169250633b4f921a9150604401600060405180830381600087803b15801561330257600080fd5b505af1158015613316573d6000803e3d6000fd5b505050505b85600214156133a557604051630da0f6c760e41b81527fb34f156369747125f679c86d97f51861a5a2a9f927a1addd4354acbaaa88ae576004820152602481018490526001600160a01b0388169063da0f6c7090604401600060405180830381600087803b15801561338c57600080fd5b505af11580156133a0573d6000803e3d6000fd5b505050505b604051630da0f6c760e41b81527f57901982635f8a470a3648422f8f769cf08dc2057489be5bf0099fcb44f7d43c6004820152602481018790526001600160a01b0388169063da0f6c7090604401600060405180830381600087803b15801561340d57600080fd5b505af1158015613421573d6000803e3d6000fd5b5050505085600314156131f3576131f38783836140d2565b60608161347957505060408051808201909152600181527f3000000000000000000000000000000000000000000000000000000000000000602082015290565b8160005b81156134a3578061348d81615735565b915061349c9050600a836156de565b915061347d565b60008167ffffffffffffffff8111156134cc57634e487b7160e01b600052604160045260246000fd5b6040519080825280601f01601f1916602001820160405280156134f6576020820181803683370190505b5090505b84156135875761350b6001836156f2565b9150613518600a8661578e565b6135239060306156a1565b60f81b81838151811061354657634e487b7160e01b600052603260045260246000fd5b60200101907effffffffffffffffffffffffffffffffffffffffffffffffffffffffffffff1916908160001a905350613580600a866156de565b94506134fa565b949350505050565b6040516317ba7d8560e01b81527f37cbe06c1044f98864ea25736326bc1d488e24e5e23781ea2ad64c4069cb9e6e60048201526000906001600160a01b038816906317ba7d859060240160206040518083038186803b1580156135f157600080fd5b505afa158015613605573d6000803e3d6000fd5b505050506040513d601f19601f8201168201806040525081019061362991906146ed565b905085600314156136d7576136d78188896001600160a01b031663149acf9a6040518163ffffffff1660e01b815260040160206040518083038186803b15801561367257600080fd5b505afa158015613686573d6000803e3d6000fd5b505050506040513d601f19601f820116820180604052508101906136aa91906146ed565b868660008181106136cb57634e487b7160e01b600052603260045260246000fd5b9050602002013561423d565b83156131f35760005b60ff8116851115611cd357876001600160a01b031663dc929f4a87878460ff1681811061371d57634e487b7160e01b600052603260045260246000fd5b905060200201602081019061373291906146ca565b6040516001600160e01b031960e084901b1681526001600160a01b039091166004820152602401600060405180830381600087803b15801561377357600080fd5b505af1158015613787573d6000803e3d6000fd5b5050505086600314156137fe576137fe828988888560ff168181106137bc57634e487b7160e01b600052603260045260246000fd5b90506020020160208101906137d191906146ca565b87876137de8760016156b9565b60ff168181106136cb57634e487b7160e01b600052603260045260246000fd5b806138088161576e565b9150506136e0565b604051630da0f6c760e41b81527f522d712abf06d7a4ec6dac3c77461903ee7523b623709d23acad0c6ae24dccc26004820152600160248201526001600160a01b0389169063da0f6c7090604401600060405180830381600087803b15801561387857600080fd5b505af115801561388c573d6000803e3d6000fd5b5050604051630da0f6c760e41b81527fb1f9461b62129e5e1283e29f3e1ced18d2e86af86241cfcb424f6ba4fb7f454c6004820152602481018a90526001600160a01b038b16925063da0f6c709150604401600060405180830381600087803b1580156138f857600080fd5b505af115801561390c573d6000803e3d6000fd5b5050604051630da0f6c760e41b81527f46021a9d9de6e72975a5d8d7d00e797ad1d45b789f6119571dc599350897dcb56004820152602481018990526001600160a01b038b16925063da0f6c709150604401600060405180830381600087803b15801561397857600080fd5b505af115801561398c573d6000803e3d6000fd5b50505050866000148061399f5750866001145b806139aa5750866002145b15613ab157604051630da0f6c760e41b81527fa8b1c741b883d35410d6186bbec4278982b7e509115b304ea7443665f139cc5a6004820152602481018690526001600160a01b0389169063da0f6c7090604401600060405180830381600087803b158015613a1757600080fd5b505af1158015613a2b573d6000803e3d6000fd5b5050604051631da7c90d60e11b81527fea1256a286695b4929ba634b6e0a36015d2a908045a29f78da51cee1a0d82b6b60048201526001600160a01b0384811660248301528b169250633b4f921a9150604401600060405180830381600087803b158015613a9857600080fd5b505af1158015613aac573d6000803e3d6000fd5b505050505b8660021415613b3b57604051630da0f6c760e41b81527f461c66a772f861188d09f9684d5e0953afbfc97e19709fe20d9f2757f401e7816004820152602481018590526001600160a01b0389169063da0f6c7090604401600060405180830381600087803b158015613b2257600080fd5b505af1158015613b36573d6000803e3d6000fd5b505050505b8660031415611cd357611cd38884846142bc565b6040517ff958b7100000000000000000000000000000000000000000000000000000000081526001600160a01b0388169063f958b71090613bb8907ffd9a8d4692ffc545577ff1979a0a918c2b536b6b6a891cf324a93b2c43907f83908a908a906004016153cd565b600060405180830381600087803b158015613bd257600080fd5b505af1158015613be6573d6000803e3d6000fd5b5050604051630da0f6c760e41b81527f77041e0d128001928f30b976713fed530b452bc354a9bad49ad1bcf93121f9dc6004820152602481018790526001600160a01b038a16925063da0f6c709150604401600060405180830381600087803b158015613c5257600080fd5b505af1158015613c66573d6000803e3d6000fd5b5050604051630da0f6c760e41b81527fcab672166d6a1c8dae3ca0b03fed2e7258db17c3c3801ac2651987b066d396476004820152602481018690526001600160a01b038a16925063da0f6c709150604401600060405180830381600087803b158015613cd257600080fd5b505af1158015613ce6573d6000803e3d6000fd5b5050604051630da0f6c760e41b81527fcdc3057ec9c82a3ea3fd34ef56b1825924525fbab071e1a2b9d664a07f4004806004820152602481018590526001600160a01b038a16925063da0f6c709150604401600060405180830381600087803b158015613d5257600080fd5b505af1158015613d66573d6000803e3d6000fd5b5050604051631da7c90d60e11b81527f0f57fc3a39a8a66c31f52eab69ced65d5ac74e4a182b215146a45a0281de53e860048201526001600160a01b0384811660248301528a169250633b4f921a9150604401600060405180830381600087803b158015613dd357600080fd5b505af1158015613de7573d6000803e3d6000fd5b5050505050505050505050565b8015613f62576040516317ba7d8560e01b81527f2207fd6117465cefcba0abc867150698c0464aa41a293ec29ca01b67a6350c3c60048201526000906001600160a01b038516906317ba7d859060240160206040518083038186803b158015613e5c57600080fd5b505afa158015613e70573d6000803e3d6000fd5b505050506040513d601f19601f82011682018060405250810190613e9491906146ed565b905060005b60ff8116831115613f5f57816001600160a01b031663ac7e7eba8686868560ff16818110613ed757634e487b7160e01b600052603260045260246000fd5b9050602002016020810190613eec91906146ca565b6040516001600160e01b031960e085901b1681526001600160a01b03928316600482015291166024820152604401600060405180830381600087803b158015613f3457600080fd5b505af1158015613f48573d6000803e3d6000fd5b505050508080613f579061576e565b915050613e99565b50505b505050565b8015613f62576040516317ba7d8560e01b81527f6f48e16963713446db50a1503860d8e1fc3c888da56a85afcaa6dc29503cc61060048201526000906001600160a01b038516906317ba7d859060240160206040518083038186803b158015613fcf57600080fd5b505afa158015613fe3573d6000803e3d6000fd5b505050506040513d601f19601f8201168201806040525081019061400791906146ed565b905060005b60ff8116831115613f5f57816001600160a01b0316636f2cd5d38686868560ff1681811061404a57634e487b7160e01b600052603260045260246000fd5b905060200201602081019061405f91906146ca565b6040516001600160e01b031960e085901b1681526001600160a01b03928316600482015291166024820152604401600060405180830381600087803b1580156140a757600080fd5b505af11580156140bb573d6000803e3d6000fd5b5050505080806140ca9061576e565b91505061400c565b8015613f62576040516317ba7d8560e01b81527f7a8526bca00f0726b2fab8c3bfd5b00bfa84d07f111e48263b13de605eefcdda60048201526000906001600160a01b038516906317ba7d859060240160206040518083038186803b15801561413a57600080fd5b505afa15801561414e573d6000803e3d6000fd5b505050506040513d601f19601f8201168201806040525081019061417291906146ed565b905060005b60ff8116831115613f5f57816001600160a01b031663c7aa00dd8686868560ff168181106141b557634e487b7160e01b600052603260045260246000fd5b90506020020160208101906141ca91906146ca565b6040516001600160e01b031960e085901b1681526001600160a01b03928316600482015291166024820152604401600060405180830381600087803b15801561421257600080fd5b505af1158015614226573d6000803e3d6000fd5b5050505080806142359061576e565b915050614177565b6040517f5f15b1d90000000000000000000000000000000000000000000000000000000081526001600160a01b038481166004830152838116602483015260448201839052851690635f15b1d990606401600060405180830381600087803b1580156142a857600080fd5b505af1158015611cd3573d6000803e3d6000fd5b8015613f62576040516317ba7d8560e01b81527f2207fd6117465cefcba0abc867150698c0464aa41a293ec29ca01b67a6350c3c60048201526000906001600160a01b038516906317ba7d859060240160206040518083038186803b15801561432457600080fd5b505afa158015614338573d6000803e3d6000fd5b505050506040513d601f19601f8201168201806040525081019061435c91906146ed565b905060005b60ff8116831115613f5f57816001600160a01b03166307832bfd8686868560ff1681811061439f57634e487b7160e01b600052603260045260246000fd5b90506020020160208101906143b491906146ca565b6040516001600160e01b031960e085901b1681526001600160a01b03928316600482015291166024820152604401600060405180830381600087803b1580156143fc57600080fd5b505af1158015614410573d6000803e3d6000fd5b50505050808061441f9061576e565b915050614361565b604051806101c00160405280606081526020016060815260200160608152602001606081526020016060815260200160608152602001606081526020016060815260200160608152602001606081526020016000151581526020016060815260200160006001600160a01b031681526020016144a16144a6565b905290565b6040518061012001604052806009905b6040805180820190915260008152606060208201528152602001906001900390816144b65790505090565b80606081018310156144f257600080fd5b92915050565b60008083601f840112614509578182fd5b50813567ffffffffffffffff811115614520578182fd5b6020830191508360208260051b850101111561453b57600080fd5b9250929050565b60008083601f840112614553578182fd5b50813567ffffffffffffffff81111561456a578182fd5b60208301915083602060608302850101111561453b57600080fd5b600082601f830112614595578081fd5b60405161014080820182811067ffffffffffffffff821117156145ba576145ba6157ce565b60405281848281018710156145cd578485fd5b8492505b600a8310156145f1578035825260019290920191602091820191016145d1565b509195945050505050565b600082601f83011261460c578081fd5b60405160c0810181811067ffffffffffffffff8211171561462f5761462f6157ce565b604052808360c08101861015614643578384fd5b835b60068110156145f1578135835260209283019290910190600101614645565b8035801515811461467457600080fd5b919050565b60008083601f84011261468a578182fd5b50813567ffffffffffffffff8111156146a1578182fd5b60208301915083602082850101111561453b57600080fd5b803560ff8116811461467457600080fd5b6000602082840312156146db578081fd5b81356146e6816157e4565b9392505050565b6000602082840312156146fe578081fd5b81516146e6816157e4565b60008060006060848603121561471d578182fd5b8335614728816157e4565b92506020840135614738816157e4565b91506040840135614748816157e4565b809150509250925092565b60008060008060006080868803121561476a578283fd5b8535614775816157e4565b94506020860135614785816157e4565b9350604086013567ffffffffffffffff8111156147a0578384fd5b6147ac88828901614542565b90945092505060608601356147c0816157e4565b809150509295509295909350565b600080600080606085870312156147e3578182fd5b84356147ee816157e4565b9350602085013567ffffffffffffffff811115614809578283fd5b61481587828801614542565b9094509250506040850135614829816157e4565b939692955090935050565b60008060008060608587031215614849578182fd5b8435614854816157e4565b9350602085013567ffffffffffffffff81111561486f578283fd5b61481587828801614679565b60008060008060008060808789031215614893578384fd5b863567ffffffffffffffff808211156148aa578586fd5b6148b68a838b016144f8565b909850965060208901359150808211156148ce578586fd5b506148db89828a016144f8565b90955093505060408701356148ef816157e4565b80925050606087013590509295509295509295565b6000806000806000806000610220888a03121561491f578485fd5b88601f89011261492d578485fd5b614935615623565b808960408b018c811115614947578889fd5b885b60028110156149705761495b83614664565b85526020948501949290920191600101614949565b509199505035905067ffffffffffffffff8082111561498d578687fd5b6149998b838c01614679565b90985096508691506149ae8b60608c01614585565b95506149be8b6101a08c016144e1565b94506102008a01359150808211156149d4578283fd5b506149e18a828b016144f8565b989b979a50959850939692959293505050565b60006020808385031215614a06578182fd5b823567ffffffffffffffff80821115614a1d578384fd5b8185019150601f8681840112614a31578485fd5b614a3961564c565b80848961012087011115614a4b578788fd5b875b6009811015614b0a57813586811115614a6457898afd5b87016040818d031215614a7557898afd5b614a7d615623565b8135614a88816157e4565b8152818a013588811115614a9a578b8cfd5b8083019250508c87830112614aad578a8bfd5b813588811115614abf57614abf6157ce565b614ad08b601f198a84011601615670565b8181528e8c838601011115614ae3578c8dfd5b818c85018d8301379081018b018c9052818b01528552509287019290870190600101614a4d565b50909998505050505050505050565b600060208284031215614b2a578081fd5b6146e682614664565b60008060008060008060008060006101c08a8c031215614b51578283fd5b614b5a8a614664565b9850614b6860208b01614664565b975060408a013567ffffffffffffffff80821115614b84578485fd5b818c0191508c604083011115614b98578485fd5b819850614ba88d60608e016145fc565b9750614bb88d6101208e016144e1565b96506101808c0135915080821115614bce578485fd5b614bda8d838e016144f8565b90965094506101a08c0135915080821115614bf3578384fd5b50614c008c828d016144f8565b915080935050809150509295985092959850929598565b6000806000806000806000806000806101008b8d031215614c36578384fd5b614c3f8b614664565b995060208b013567ffffffffffffffff80821115614c5b578586fd5b614c678e838f01614679565b909b50995060408d0135985060608d0135975060808d0135965060a08d01359150614c91826157e4565b90945060c08c01359080821115614ca6578283fd5b50614cb38d828e016144f8565b90945092505060e08b0135614cc7816157e4565b809150509295989b9194979a5092959850565b60008060008060008060008060006101008a8c031215614cf8578283fd5b614d018a614664565b985060208a0135975060408a0135965060608a0135955060808a0135945060a08a013567ffffffffffffffff811115614d38578384fd5b614d448c828d016144f8565b90955093505060c08a0135614d58816157e4565b915060e08a0135614d68816157e4565b809150509295985092959850929598565b600060208284031215614d8a578081fd5b813567ffffffffffffffff811115614da0578182fd5b820161040081850312156146e6578182fd5b6000806000806000806000806101a0808a8c031215614dcf578283fd5b8935985060208a0135614de1816157e4565b975060408a0135965060608a0135614df8816157e4565b9550614e0660808b016146b9565b945060a08a0135935060c08a0135614e1d816157e4565b92508981018b1015614e2d578182fd5b5060e0890190509295985092959890939650565b600060208284031215614e52578081fd5b6146e6826146b9565b8060005b6003811015614e875781516001600160a01b0316845260209384019390910190600101614e5f565b50505050565b81835260006020808501945082825b85811015614eca578135614eaf816157e4565b6001600160a01b031687529582019590820190600101614e9c565b509495945050505050565b81835260006020808501945082825b85811015614eca578135875282820135614efd816157e4565b6001600160a01b0316878401526040828101356fffffffffffffffffffffffffffffffff8116808214614f2e578687fd5b91890191909152506060968701969190910190600101614ee4565b8060005b6006811015614e87578151845260209384019390910190600101614f4d565b8183528181602085013750600080602083850101526020601f19601f840116840101905092915050565b60008151808452614fae816020860160208601615709565b601f01601f19169290920160200192915050565b60008251614fd4818460208701615709565b9190910192915050565b7f6c6f772d6c6576656c2063616c6c206f662073756d6d6f6e466c657844616f0081526000825161501681601f850160208701615709565b7f206661696c656400000000000000000000000000000000000000000000000000601f939091019283015250602601919050565b60006001600160a01b038088168352808716602084015260806040840152615076608084018688614ed5565b91508084166060840152509695505050505050565b60006001600160a01b038088168352808716602084015260806040840152615076608084018688614f6c565b60006001600160a01b038087168352606060208401526150db606084018688614ed5565b915080841660408401525095945050505050565b60006001600160a01b038087168352606060208401526150db606084018688614f6c565b60808152600061512760808301888a614e8d565b82810360208401528581527f07ffffffffffffffffffffffffffffffffffffffffffffffffffffffffffffff86111561515e578182fd5b8560051b80886020840137016020019081526001600160a01b0393909316604082015260600152949350505050565b6000610220828a835b60028110156151b75781511515835260209283019290910190600101615196565b5050508060408401526151cd818401898b614f6c565b90506060830187835b600a8110156151f55781518352602092830192909101906001016151d6565b5050506152066101a0840187614e5b565b82810361020084015261521a818587614e8d565b9a9950505050505050505050565b89151581528815156020808301919091526101c060408301819052600091908301906102008401908b845b60028110156152a0577ffffffffffffffffffffffffffffffffffffffffffffffffffffffffffffffe4087850301855261528e848351614f96565b94830194935090820190600101615253565b5050506152b0606085018b614f49565b6152be61012085018a614e5b565b8381036101808501526152d281888a614e8d565b9150508281036101a08401526152e9818587614e8d565b9c9b505050505050505050505050565b60006101008c151583528060208401526153168184018c8e614f6c565b905060ff8a1660408401528860608401528760808401526001600160a01b0380881660a085015283820360c0850152615350828789614e8d565b925080851660e085015250509b9a5050505050505050505050565b60006101008b1515835260ff8b1660208401528960408401528860608401528760808401528060a08401526153a38184018789614e8d565b9150506001600160a01b0380851660c084015280841660e0840152509a9950505050505050505050565b8381526040602082015260006153e7604083018486614f6c565b95945050505050565b60006001600160a01b0380871683528086166020840152506060604083015261541d606083018486614ed5565b9695505050505050565b6001600160a01b03841681526040602082015260006153e7604083018486614ed5565b602081526000613587602083018486614f6c565b604081526000615472604083018587614f6c565b90506001600160a01b0383166020830152949350505050565b6020815260006146e66020830184614f96565b8881526001600160a01b03888116602083015260408201889052868116606083015260ff8616608083015260a08201859052831660c08201526101a08101610b4a60e0830184614f49565b6000808335601e198436030181126154ff578283fd5b83018035915067ffffffffffffffff821115615519578283fd5b6020019150600581901b360382131561453b57600080fd5b6000808335601e19843603018112615547578283fd5b83018035915067ffffffffffffffff821115615561578283fd5b602001915060608102360382131561453b57600080fd5b6000808335601e1984360301811261558e578283fd5b83018035915067ffffffffffffffff8211156155a8578283fd5b60200191503681900382131561453b57600080fd5b600082357fffffffffffffffffffffffffffffffffffffffffffffffffffffffffffffff21833603018112614fd4578182fd5b600082357fffffffffffffffffffffffffffffffffffffffffffffffffffffffffffffff41833603018112614fd4578182fd5b6040805190810167ffffffffffffffff81118282101715615646576156466157ce565b60405290565b604051610120810167ffffffffffffffff81118282101715615646576156466157ce565b604051601f8201601f1916810167ffffffffffffffff81118282101715615699576156996157ce565b604052919050565b600082198211156156b4576156b46157a2565b500190565b600060ff821660ff84168060ff038211156156d6576156d66157a2565b019392505050565b6000826156ed576156ed6157b8565b500490565b600082821015615704576157046157a2565b500390565b60005b8381101561572457818101518382015260200161570c565b83811115614e875750506000910152565b60007fffffffffffffffffffffffffffffffffffffffffffffffffffffffffffffffff821415615767576157676157a2565b5060010190565b600060ff821660ff811415615785576157856157a2565b60010192915050565b60008261579d5761579d6157b8565b500690565b634e487b7160e01b600052601160045260246000fd5b634e487b7160e01b600052601260045260246000fd5b634e487b7160e01b600052604160045260246000fd5b6001600160a01b03811681146157f957600080fd5b5056fea2646970667358221220761ad67a94f021b46b3d3670e90ab0c046546450f5cd1837d02df859abcfba1564736f6c63430008040033",
  "linkReferences": {},
  "deployedLinkReferences": {}
}