{
  "_format": "hh-sol-artifact-1",
  "contractName": "SummonVintageDao",
  "sourceName": "contracts/SummonVintageDao.sol",
  "abi": [
    {
      "anonymous": false,
      "inputs": [
        {
          "indexed": false,
          "internalType": "address",
          "name": "daoFactoryAddress",
          "type": "address"
        },
        {
          "indexed": false,
          "internalType": "address",
          "name": "daoAddr",
          "type": "address"
        },
        {
          "indexed": false,
          "internalType": "string",
          "name": "name",
          "type": "string"
        },
        {
          "indexed": false,
          "internalType": "address",
          "name": "creator",
          "type": "address"
        }
      ],
      "name": "VintageDaoCreated",
      "type": "event"
    },
    {
      "inputs": [
        {
          "components": [
            {
              "internalType": "address",
              "name": "target",
              "type": "address"
            },
            {
              "internalType": "bytes",
              "name": "callData",
              "type": "bytes"
            }
          ],
          "internalType": "struct SummonVintageDao.VintageCall[8]",
          "name": "calls",
          "type": "tuple[8]"
        }
      ],
      "name": "multiVintageCall",
      "outputs": [],
      "stateMutability": "nonpayable",
      "type": "function"
    },
    {
      "inputs": [
        {
          "components": [
            {
              "internalType": "string",
              "name": "daoName",
              "type": "string"
            },
            {
              "internalType": "address",
              "name": "creator",
              "type": "address"
            },
            {
              "internalType": "address[]",
              "name": "daoFactoriesAddress",
              "type": "address[]"
            },
            {
              "components": [
                {
                  "internalType": "bytes32",
                  "name": "id",
                  "type": "bytes32"
                },
                {
                  "internalType": "address",
                  "name": "addr",
                  "type": "address"
                },
                {
                  "internalType": "uint128",
                  "name": "flags",
                  "type": "uint128"
                }
              ],
              "internalType": "struct DaoFactory.Adapter[]",
              "name": "enalbeAdapters",
              "type": "tuple[]"
            },
            {
              "components": [
                {
                  "internalType": "bytes32",
                  "name": "id",
                  "type": "bytes32"
                },
                {
                  "internalType": "address",
                  "name": "addr",
                  "type": "address"
                },
                {
                  "internalType": "uint128",
                  "name": "flags",
                  "type": "uint128"
                }
              ],
              "internalType": "struct DaoFactory.Adapter[]",
              "name": "adapters1",
              "type": "tuple[]"
            },
            {
              "components": [
                {
                  "internalType": "bool",
                  "name": "enable",
                  "type": "bool"
                },
                {
                  "internalType": "uint256",
                  "name": "cap",
                  "type": "uint256"
                }
              ],
              "internalType": "struct SummonVintageDao.VintageInvestorCapInfo",
              "name": "investorCap",
              "type": "tuple"
            },
            {
              "components": [
                {
                  "internalType": "bool",
                  "name": "enable",
                  "type": "bool"
                },
                {
                  "internalType": "string",
                  "name": "name",
                  "type": "string"
                },
                {
                  "internalType": "uint8",
                  "name": "varifyType",
                  "type": "uint8"
                },
                {
                  "internalType": "uint256",
                  "name": "minAmount",
                  "type": "uint256"
                },
                {
                  "internalType": "address",
                  "name": "tokenAddress",
                  "type": "address"
                },
                {
                  "internalType": "uint256",
                  "name": "tokenId",
                  "type": "uint256"
                },
                {
                  "internalType": "address[]",
                  "name": "whiteList",
                  "type": "address[]"
                }
              ],
              "internalType": "struct SummonVintageDao.VintageInvestorMembership",
              "name": "investorMembership",
              "type": "tuple"
            },
            {
              "components": [
                {
                  "internalType": "bool",
                  "name": "enable",
                  "type": "bool"
                },
                {
                  "internalType": "string",
                  "name": "name",
                  "type": "string"
                },
                {
                  "internalType": "uint8",
                  "name": "varifyType",
                  "type": "uint8"
                },
                {
                  "internalType": "uint256",
                  "name": "minAmount",
                  "type": "uint256"
                },
                {
                  "internalType": "address",
                  "name": "tokenAddress",
                  "type": "address"
                },
                {
                  "internalType": "uint256",
                  "name": "tokenId",
                  "type": "uint256"
                },
                {
                  "internalType": "address[]",
                  "name": "whiteList",
                  "type": "address[]"
                }
              ],
              "internalType": "struct SummonVintageDao.VintageGovernorMembership",
              "name": "governorMembership",
              "type": "tuple"
            },
            {
              "components": [
                {
                  "internalType": "uint256",
                  "name": "votingAssetType",
                  "type": "uint256"
                },
                {
                  "internalType": "address",
                  "name": "tokenAddress",
                  "type": "address"
                },
                {
                  "internalType": "uint256",
                  "name": "tokenID",
                  "type": "uint256"
                },
                {
                  "internalType": "uint256",
                  "name": "votingWeightedType",
                  "type": "uint256"
                },
                {
                  "internalType": "uint256",
                  "name": "supportType",
                  "type": "uint256"
                },
                {
                  "internalType": "uint256",
                  "name": "quorumType",
                  "type": "uint256"
                },
                {
                  "internalType": "uint256",
                  "name": "support",
                  "type": "uint256"
                },
                {
                  "internalType": "uint256",
                  "name": "quorum",
                  "type": "uint256"
                },
                {
                  "internalType": "uint256",
                  "name": "votingPeriod",
                  "type": "uint256"
                },
                {
                  "internalType": "uint256",
                  "name": "executingPeriod",
                  "type": "uint256"
                }
              ],
              "internalType": "struct SummonVintageDao.VintageVotingInfo",
              "name": "votingInfo",
              "type": "tuple"
            },
            {
              "internalType": "address[]",
              "name": "genesisGovernors",
              "type": "address[]"
            },
            {
              "internalType": "uint256[]",
              "name": "allocations",
              "type": "uint256[]"
            }
          ],
          "internalType": "struct SummonVintageDao.VintageDaoParams",
          "name": "params",
          "type": "tuple"
        }
      ],
      "name": "summonVintageDao",
      "outputs": [],
      "stateMutability": "nonpayable",
      "type": "function"
    },
    {
      "inputs": [
        {
          "internalType": "address",
          "name": "daoFacAddr",
          "type": "address"
        },
        {
          "internalType": "string",
          "name": "daoName",
          "type": "string"
        },
        {
          "internalType": "address",
          "name": "creator",
          "type": "address"
        }
      ],
      "name": "summonVintageDao1",
      "outputs": [
        {
          "internalType": "bool",
          "name": "",
          "type": "bool"
        }
      ],
      "stateMutability": "nonpayable",
      "type": "function"
    },
    {
      "inputs": [
        {
          "internalType": "address",
          "name": "vintageFundingPoolFacAddr",
          "type": "address"
        },
        {
          "internalType": "address",
          "name": "newDaoAddr",
          "type": "address"
        },
        {
          "internalType": "address",
          "name": "creator",
          "type": "address"
        }
      ],
      "name": "summonVintageDao2",
      "outputs": [
        {
          "internalType": "bool",
          "name": "",
          "type": "bool"
        }
      ],
      "stateMutability": "nonpayable",
      "type": "function"
    },
    {
      "inputs": [
        {
          "internalType": "address",
          "name": "daoFacAddr",
          "type": "address"
        },
        {
          "components": [
            {
              "internalType": "bytes32",
              "name": "id",
              "type": "bytes32"
            },
            {
              "internalType": "address",
              "name": "addr",
              "type": "address"
            },
            {
              "internalType": "uint128",
              "name": "flags",
              "type": "uint128"
            }
          ],
          "internalType": "struct DaoFactory.Adapter[]",
          "name": "enalbeAdapters",
          "type": "tuple[]"
        },
        {
          "internalType": "address",
          "name": "newDaoAddr",
          "type": "address"
        }
      ],
      "name": "summonVintageDao3",
      "outputs": [
        {
          "internalType": "bool",
          "name": "",
          "type": "bool"
        }
      ],
      "stateMutability": "nonpayable",
      "type": "function"
    },
    {
      "inputs": [
        {
          "internalType": "address",
          "name": "daoFacAddr",
          "type": "address"
        },
        {
          "internalType": "address",
          "name": "vintageFundingPoolFacAddr",
          "type": "address"
        },
        {
          "components": [
            {
              "internalType": "bytes32",
              "name": "id",
              "type": "bytes32"
            },
            {
              "internalType": "address",
              "name": "addr",
              "type": "address"
            },
            {
              "internalType": "uint128",
              "name": "flags",
              "type": "uint128"
            }
          ],
          "internalType": "struct DaoFactory.Adapter[]",
          "name": "adapters1",
          "type": "tuple[]"
        },
        {
          "internalType": "address",
          "name": "newDaoAddr",
          "type": "address"
        }
      ],
      "name": "summonVintageDao4",
      "outputs": [
        {
          "internalType": "bool",
          "name": "",
          "type": "bool"
        }
      ],
      "stateMutability": "nonpayable",
      "type": "function"
    },
    {
      "inputs": [
        {
          "internalType": "bool",
          "name": "vintageDaoStewardMembershipEnable",
          "type": "bool"
        },
        {
          "internalType": "string",
          "name": "name",
          "type": "string"
        },
        {
          "internalType": "uint256[3]",
          "name": "uint256Params",
          "type": "uint256[3]"
        },
        {
          "internalType": "address",
          "name": "vintageDaoStewardMembershipTokenAddress",
          "type": "address"
        },
        {
          "internalType": "address[]",
          "name": "vintageDaoGovernorMembershipWhitelist",
          "type": "address[]"
        },
        {
          "internalType": "address",
          "name": "newDaoAddr",
          "type": "address"
        }
      ],
      "name": "summonVintageDao5",
      "outputs": [
        {
          "internalType": "bool",
          "name": "",
          "type": "bool"
        }
      ],
      "stateMutability": "nonpayable",
      "type": "function"
    },
    {
      "inputs": [
        {
          "internalType": "address",
          "name": "newDaoAddr",
          "type": "address"
        },
        {
          "internalType": "address",
          "name": "tokenAddress",
          "type": "address"
        },
        {
          "internalType": "uint256[9]",
          "name": "votingInfo",
          "type": "uint256[9]"
        }
      ],
      "name": "summonVintageDao6",
      "outputs": [
        {
          "internalType": "bool",
          "name": "",
          "type": "bool"
        }
      ],
      "stateMutability": "nonpayable",
      "type": "function"
    },
    {
      "inputs": [
        {
          "internalType": "address",
          "name": "newDaoAddr",
          "type": "address"
        },
        {
          "internalType": "uint256",
          "name": "votingAssetType",
          "type": "uint256"
        },
        {
          "internalType": "address[]",
          "name": "genesisGovernors",
          "type": "address[]"
        },
        {
          "internalType": "uint256[]",
          "name": "allcationValues",
          "type": "uint256[]"
        }
      ],
      "name": "summonVintageDao7",
      "outputs": [
        {
          "internalType": "bool",
          "name": "",
          "type": "bool"
        }
      ],
      "stateMutability": "nonpayable",
      "type": "function"
    },
    {
      "inputs": [
        {
          "internalType": "bool",
          "name": "enable",
          "type": "bool"
        },
        {
          "internalType": "address",
          "name": "newDaoAddr",
          "type": "address"
        },
        {
          "internalType": "string",
          "name": "name",
          "type": "string"
        },
        {
          "internalType": "uint8",
          "name": "varifyType",
          "type": "uint8"
        },
        {
          "internalType": "uint256",
          "name": "minHolding",
          "type": "uint256"
        },
        {
          "internalType": "uint256",
          "name": "tokenId",
          "type": "uint256"
        },
        {
          "internalType": "address",
          "name": "tokenAddress",
          "type": "address"
        },
        {
          "internalType": "address[]",
          "name": "vintageDaoInvestorMembershipWhitelist",
          "type": "address[]"
        }
      ],
      "name": "summonVintageDao8",
      "outputs": [
        {
          "internalType": "bool",
          "name": "",
          "type": "bool"
        }
      ],
      "stateMutability": "nonpayable",
      "type": "function"
    },
    {
      "inputs": [
        {
          "internalType": "address",
          "name": "newDaoAddr",
          "type": "address"
        },
        {
          "internalType": "bool",
          "name": "enable",
          "type": "bool"
        },
        {
          "internalType": "uint256",
          "name": "cap",
          "type": "uint256"
        }
      ],
      "name": "summonVintageDao9",
      "outputs": [
        {
          "internalType": "bool",
          "name": "",
          "type": "bool"
        }
      ],
      "stateMutability": "nonpayable",
      "type": "function"
    }
  ],
  "bytecode": "0x608060405234801561001057600080fd5b50613ace806100206000396000f3fe608060405234801561001057600080fd5b50600436106100c95760003560e01c80634a1ec99211610081578063aca539931161005b578063aca539931461017a578063c0c53ee11461018f578063fd00f123146101a257600080fd5b80634a1ec992146101415780635247f78e14610154578063ab1025d31461016757600080fd5b806312f58612116100b257806312f586121461010857806317d0c6401461011b5780632c87c58f1461012e57600080fd5b806304014327146100ce5780630d56658a146100f5575b600080fd5b6100e16100dc366004613067565b6101b5565b604051901515815260200160405180910390f35b6100e1610103366004612d66565b6106c7565b6100e1610116366004612e1b565b610bf0565b6100e1610129366004612ceb565b610d06565b6100e161013c366004612db5565b610e3f565b6100e161014f366004612ca1565b610ed8565b6100e1610162366004612e9f565b611081565b6100e1610175366004613136565b61132e565b61018d610188366004612f28565b6118f4565b005b61018d61019d36600461322e565b611a22565b6100e16101b0366004612e58565b6126e3565b6000893033146101c457600080fd5b8b156106b557604051630da0f6c760e41b81527f1405d0156cf64c805704fdf6691baebfcfa0d409ea827c231693ff0581b0b7776004820152600160248201526001600160a01b0382169063da0f6c7090604401600060405180830381600087803b15801561023257600080fd5b505af1158015610246573d6000803e3d6000fd5b50506040517ff958b7100000000000000000000000000000000000000000000000000000000081526001600160a01b038416925063f958b71091506102b3907f324dfda0ffcc38c4650b5df076e6f7b4938c2b723873af58b1be5e221dd2cc30908e908e906004016136a0565b600060405180830381600087803b1580156102cd57600080fd5b505af11580156102e1573d6000803e3d6000fd5b5050604051630da0f6c760e41b81527f80140cd7e0b1d935bee578a67a41547c82987de8e7d6b3827d411b738110258b600482015260ff8b1660248201526001600160a01b038416925063da0f6c709150604401600060405180830381600087803b15801561034f57600080fd5b505af1158015610363573d6000803e3d6000fd5b505050508760ff166000148061037c57508760ff166001145b8061038a57508760ff166002145b1561049157604051630da0f6c760e41b81527f04ecaf460eb9f82aeb70035e3f24c18a3650fa0da9ddbe7e63d70de659b9b9016004820152602481018890526001600160a01b0382169063da0f6c7090604401600060405180830381600087803b1580156103f757600080fd5b505af115801561040b573d6000803e3d6000fd5b5050604051631da7c90d60e11b81527fe373ab56628c86db3f0e36774c2c5e0393f9272ff5c976bc3f0db2db60cdbc1460048201526001600160a01b03888116602483015284169250633b4f921a9150604401600060405180830381600087803b15801561047857600080fd5b505af115801561048c573d6000803e3d6000fd5b505050505b8760ff166002141561051e57604051630da0f6c760e41b81527f6cb5bc3796b0717ca4ff665886c96fb0178d6341366eb7b6c737fe79083b836a6004820152602481018790526001600160a01b0382169063da0f6c7090604401600060405180830381600087803b15801561050557600080fd5b505af1158015610519573d6000803e3d6000fd5b505050505b8760ff16600314801561053057508215155b156106b5576040516317ba7d8560e01b81527faaff643bdbd909f604d46ce015336f7e20fee3ac4a55cef3610188dee176c89260048201526000906001600160a01b038316906317ba7d859060240160206040518083038186803b15801561059757600080fd5b505afa1580156105ab573d6000803e3d6000fd5b505050506040513d601f19601f820116820180604052508101906105cf9190612c85565b905060005b60ff81168511156106b257816001600160a01b031663ac7e7eba8488888560ff1681811061061257634e487b7160e01b600052603260045260246000fd5b90506020020160208101906106279190612c62565b6040517fffffffff0000000000000000000000000000000000000000000000000000000060e085901b1681526001600160a01b03928316600482015291166024820152604401600060405180830381600087803b15801561068757600080fd5b505af115801561069b573d6000803e3d6000fd5b5050505080806106aa90613a0a565b9150506105d4565b50505b5060019b9a5050505050505050505050565b604051630da0f6c760e41b81527f686efe7bd1699b408d306db6bbee658ed667971c52d48d6912d7ee496e36e62760048201528135602482015260009084906001600160a01b0382169063da0f6c7090604401600060405180830381600087803b15801561073457600080fd5b505af1158015610748573d6000803e3d6000fd5b5050604051631da7c90d60e11b81527fcd9b30ab6388c165d825b60b7d393528191ba59d975b4b1b52b7184b63b8a97c60048201526001600160a01b03878116602483015284169250633b4f921a9150604401600060405180830381600087803b1580156107b557600080fd5b505af11580156107c9573d6000803e3d6000fd5b5050604051630da0f6c760e41b81527e634460a4b60c2e1bf8c87bfc42b6b68fd2a71f4bb2d760816eabc5038b50366004820152602086013560248201526001600160a01b038416925063da0f6c709150604401600060405180830381600087803b15801561083757600080fd5b505af115801561084b573d6000803e3d6000fd5b505060408051630da0f6c760e41b81527fb75eae231d9582c6afc6491273df4a0ffbccd48ab2c48dbce59e5d68f2d19dc460048201529086013560248201526001600160a01b038416925063da0f6c709150604401600060405180830381600087803b1580156108ba57600080fd5b505af11580156108ce573d6000803e3d6000fd5b5050604051630da0f6c760e41b81527f561bc86bc227a0f760218574791a84f180f6f9f02be9519a1f99c14fce07a3106004820152606086013560248201526001600160a01b038416925063da0f6c709150604401600060405180830381600087803b15801561093d57600080fd5b505af1158015610951573d6000803e3d6000fd5b5050604051630da0f6c760e41b81527f8097540b5ab8a4c18e0b10cfbfd2c69e65e8da78f4f0485467006bafa39359646004820152608086013560248201526001600160a01b038416925063da0f6c709150604401600060405180830381600087803b1580156109c057600080fd5b505af11580156109d4573d6000803e3d6000fd5b5050604051630da0f6c760e41b81527f0324de13a5a6e302ddb95a9fdf81cc736fc8acee2abe558970daac27395904e7600482015260a086013560248201526001600160a01b038416925063da0f6c709150604401600060405180830381600087803b158015610a4357600080fd5b505af1158015610a57573d6000803e3d6000fd5b5050604051630da0f6c760e41b81527fb4c601c38beae7eebb719eda3438f59fcbfd4c6dd7d38c00665b6fd5b432df32600482015260c086013560248201526001600160a01b038416925063da0f6c709150604401600060405180830381600087803b158015610ac657600080fd5b505af1158015610ada573d6000803e3d6000fd5b5050604051630da0f6c760e41b81527f9876c0f0505bfb2b1c38d3bbd25ba13159172cd0868972d76927723f5a9480fc600482015260e086013560248201526001600160a01b038416925063da0f6c709150604401600060405180830381600087803b158015610b4957600080fd5b505af1158015610b5d573d6000803e3d6000fd5b5050604051630da0f6c760e41b81527f02a3530cbb6e7c084516c86f68bd62c3e3fcd783c6c5d7e138616207f7a32250600482015261010086013560248201526001600160a01b038416925063da0f6c709150604401600060405180830381600087803b158015610bcd57600080fd5b505af1158015610be1573d6000803e3d6000fd5b50600198975050505050505050565b60008215610cfc57604051630da0f6c760e41b81527f69f4ffb3ebcb7809550bddd3e4d449a47e737bf6635bc7a730996643997b0e4860048201526001602482015284906001600160a01b0382169063da0f6c7090604401600060405180830381600087803b158015610c6257600080fd5b505af1158015610c76573d6000803e3d6000fd5b5050604051630da0f6c760e41b81527fecbde689cc6337d29a750b8b8a8abbfa97427b4ac800ab55be2f2c87311510f26004820152602481018690526001600160a01b038416925063da0f6c709150604401600060405180830381600087803b158015610ce257600080fd5b505af1158015610cf6573d6000803e3d6000fd5b50505050505b5060019392505050565b600081303314610d1557600080fd5b6040517f3146637e0000000000000000000000000000000000000000000000000000000081526001600160a01b0384811660048301528891889160009190831690633146637e9060240160206040518083038186803b158015610d7757600080fd5b505afa158015610d8b573d6000803e3d6000fd5b505050506040513d601f19601f82011682018060405250810190610daf9190612c85565b6040517f29ca12ed0000000000000000000000000000000000000000000000000000000081529091506001600160a01b038416906329ca12ed90610dfd90879085908d908d906004016136c3565b600060405180830381600087803b158015610e1757600080fd5b505af1158015610e2b573d6000803e3d6000fd5b5060019d9c50505050505050505050505050565b600081303314610e4e57600080fd5b6040517f9bb2008400000000000000000000000000000000000000000000000000000000815286906001600160a01b03821690639bb2008490610e999085908a908a906004016136fa565b600060405180830381600087803b158015610eb357600080fd5b505af1158015610ec7573d6000803e3d6000fd5b5060019a9950505050505050505050565b6000303314610ee657600080fd5b6040517f9ed933180000000000000000000000000000000000000000000000000000000081526001600160a01b038481166004830152859190821690639ed9331890602401600060405180830381600087803b158015610f4557600080fd5b505af1158015610f59573d6000803e3d6000fd5b50506040517f3146637e0000000000000000000000000000000000000000000000000000000081526001600160a01b0387811660048301526000935084169150633146637e9060240160206040518083038186803b158015610fba57600080fd5b505afa158015610fce573d6000803e3d6000fd5b505050506040513d601f19601f82011682018060405250810190610ff29190612c85565b6040517fc130c6390000000000000000000000000000000000000000000000000000000081527f161fca6912f107b0f13c9c7275de7391b32d2ea1c52ffba65a3c961880a0c60f60048201526001600160a01b0380831660248301528681166044830152919250869182169063c130c63990606401600060405180830381600087803b158015610eb357600080fd5b6040516317ba7d8560e01b81527f1fa6846b165d822fff79e37c67625706652fa9380c2aa49fd513ce534cc72ed46004820152600090879082906001600160a01b038316906317ba7d859060240160206040518083038186803b1580156110e757600080fd5b505afa1580156110fb573d6000803e3d6000fd5b505050506040513d601f19601f8201168201806040525081019061111f9190612c85565b905087600314156111cd576111cd8183846001600160a01b031663149acf9a6040518163ffffffff1660e01b815260040160206040518083038186803b15801561116857600080fd5b505afa15801561117c573d6000803e3d6000fd5b505050506040513d601f19601f820116820180604052508101906111a09190612c85565b888860008181106111c157634e487b7160e01b600052603260045260246000fd5b905060200201356128d2565b8515610be15760005b60ff811687111561131e57826001600160a01b031663dc929f4a89898460ff1681811061121357634e487b7160e01b600052603260045260246000fd5b90506020020160208101906112289190612c62565b6040517fffffffff0000000000000000000000000000000000000000000000000000000060e084901b1681526001600160a01b039091166004820152602401600060405180830381600087803b15801561128157600080fd5b505af1158015611295573d6000803e3d6000fd5b50505050886003141561130c5761130c82848a8a8560ff168181106112ca57634e487b7160e01b600052603260045260246000fd5b90506020020160208101906112df9190612c62565b89896112ec876001613951565b60ff168181106111c157634e487b7160e01b600052603260045260246000fd5b8061131681613a0a565b9150506111d6565b5050600198975050505050505050565b60008130331461133d57600080fd5b89156118e457604051630da0f6c760e41b81527f5b7b19076468102b84afbef323d128866c396a716ce4ce29f84beef8d266f3af6004820152600160248201526001600160a01b0382169063da0f6c7090604401600060405180830381600087803b1580156113ab57600080fd5b505af11580156113bf573d6000803e3d6000fd5b50506040517ff958b7100000000000000000000000000000000000000000000000000000000081526001600160a01b038416925063f958b710915061142c907fa4b6f581a2d1e8b24bacedf9a91a13c8df6147ffb9d2bd4a770d867d91018da6908d908d906004016136a0565b600060405180830381600087803b15801561144657600080fd5b505af115801561145a573d6000803e3d6000fd5b50508851604051630da0f6c760e41b81527f23f0530138a805a7a3c83e0d6298d353102473dc25666f75173de90ac5414c82600482015260248101919091526001600160a01b038416925063da0f6c709150604401600060405180830381600087803b1580156114c957600080fd5b505af11580156114dd573d6000803e3d6000fd5b505050508660006003811061150257634e487b7160e01b600052603260045260246000fd5b60200201511580611514575086516001145b80611520575086516002145b1561162d576020870151604051630da0f6c760e41b81527f4481bb4c8bc94e65f81ab5591f704165aab99eb4197df7acf672022476933f58600482015260248101919091526001600160a01b0382169063da0f6c7090604401600060405180830381600087803b15801561159357600080fd5b505af11580156115a7573d6000803e3d6000fd5b5050604051631da7c90d60e11b81527faa2cc36fff47c5c104b89a4abef628c92272c0af9c4db27739bc445b2f51e9a260048201526001600160a01b03898116602483015284169250633b4f921a9150604401600060405180830381600087803b15801561161457600080fd5b505af1158015611628573d6000803e3d6000fd5b505050505b8651600214156116be576040808801519051630da0f6c760e41b81527fe33a9c3c87c85b9efd09c180b8fd30ca34326eb72e20fdd832b510971ccf71ae600482015260248101919091526001600160a01b0382169063da0f6c7090604401600060405180830381600087803b1580156116a557600080fd5b505af11580156116b9573d6000803e3d6000fd5b505050505b86516004141561174f576020870151604051630da0f6c760e41b81527f38cbcea6ba035c1d1890c83ce99918342ef746d839f9c2e2d4966d30a7e70b34600482015260248101919091526001600160a01b0382169063da0f6c7090604401600060405180830381600087803b15801561173657600080fd5b505af115801561174a573d6000803e3d6000fd5b505050505b8651600314801561175f57508315155b156118e4576040516317ba7d8560e01b81527fd90e10040720d66c9412cb511e3dbb6ba51669248a7495e763d44ab426893efa60048201526000906001600160a01b038316906317ba7d859060240160206040518083038186803b1580156117c657600080fd5b505afa1580156117da573d6000803e3d6000fd5b505050506040513d601f19601f820116820180604052508101906117fe9190612c85565b905060005b60ff81168611156118e157816001600160a01b03166333f7bc0c8489898560ff1681811061184157634e487b7160e01b600052603260045260246000fd5b90506020020160208101906118569190612c62565b6040517fffffffff0000000000000000000000000000000000000000000000000000000060e085901b1681526001600160a01b03928316600482015291166024820152604401600060405180830381600087803b1580156118b657600080fd5b505af11580156118ca573d6000803e3d6000fd5b5050505080806118d990613a0a565b915050611803565b50505b5060019998505050505050505050565b60005b6008811015611a1e57600082826008811061192257634e487b7160e01b600052603260045260246000fd5b6020020151516001600160a01b031683836008811061195157634e487b7160e01b600052603260045260246000fd5b6020020151602001516040516119679190613367565b6000604051808303816000865af19150503d80600081146119a4576040519150601f19603f3d011682016040523d82523d6000602084013e6119a9565b606091505b50509050806119c38360026119be9190613939565b61295b565b6040516020016119d39190613383565b60405160208183030381529060405290611a095760405162461bcd60e51b8152600401611a00919061375e565b60405180910390fd5b50508080611a16906139d1565b9150506118f7565b5050565b611a2a612ab1565b611a376040830183613791565b6000818110611a5657634e487b7160e01b600052603260045260246000fd5b9050602002016020810190611a6b9190612c62565b611a758380613820565b611a856040860160208701612c62565b604051602401611a98949392919061350a565b60408051601f198184030181529181526020820180516001600160e01b03167ffd00f12300000000000000000000000000000000000000000000000000000000179052818352513091611aea91613367565b6000604051808303816000865af19150503d8060008114611b27576040519150601f19603f3d011682016040523d82523d6000602084013e611b2c565b606091505b5061014083015215156101208201819052611baf5760405162461bcd60e51b815260206004820152603360248201527f6c6f772d6c6576656c2063616c6c206f662066756e6374696f6e2073756d6d6f60448201527f6e56696e7461676544616f31206661696c6564000000000000000000000000006064820152608401611a00565b6000611bbb8380613820565b604051602401611bcc92919061371d565b60408051601f198184030181529181526020820180516001600160e01b03167f1d1f0a2700000000000000000000000000000000000000000000000000000000179052909150611c1e90840184613791565b6000818110611c3d57634e487b7160e01b600052603260045260246000fd5b9050602002016020810190611c529190612c62565b6001600160a01b031681604051611c699190613367565b6000604051808303816000865af19150503d8060008114611ca6576040519150601f19603f3d011682016040523d82523d6000602084013e611cab565b606091505b5061014084018190529015801561012085018190526020909201516001600160a01b0316610160850152611cec57506101608201516001600160a01b031615155b611cf557600080fd5b611d026040840184613791565b6001818110611d2157634e487b7160e01b600052603260045260246000fd5b9050602002016020810190611d369190612c62565b610160830151611d4c6040860160208701612c62565b6040516001600160a01b0393841660248201529183166044830152909116606482015260840160408051601f19818403018152918152602080830180516001600160e01b03167f4a1ec99200000000000000000000000000000000000000000000000000000000179052840191909152611dc890840184613791565b6000818110611de757634e487b7160e01b600052603260045260246000fd5b9050602002016020810190611dfc9190612c62565b611e0960608501856137d9565b846101600151604051602401611e2294939291906134d2565b60408051601f198184030181529181526020820180516001600160e01b03167f2c87c58f0000000000000000000000000000000000000000000000000000000017905283810191909152611e7890840184613791565b6000818110611e9757634e487b7160e01b600052603260045260246000fd5b9050602002016020810190611eac9190612c62565b611eb96040850185613791565b6001818110611ed857634e487b7160e01b600052603260045260246000fd5b9050602002016020810190611eed9190612c62565b611efa60808601866137d9565b856101600151604051602401611f14959493929190613415565b60408051601f198184030181529181526020820180516001600160e01b03167f17d0c640000000000000000000000000000000000000000000000000000000001790526060808501929092528051918201905260009080611f79610100870187613865565b611f8a906060810190604001613267565b60ff168152602001611fa0610100870187613865565b606001358152602001611fb7610100870187613865565b60a0013590529050611fcd610100850185613865565b611fdb90602081019061304d565b611fe9610100860186613865565b611ff7906020810190613820565b83612006610100890189613865565b6120179060a0810190608001612c62565b6120256101008a018a613865565b6120339060c0810190613791565b89610160015160405160240161205098979695949392919061361c565b60408051601f19818403018152918152602080830180516001600160e01b03167fab1025d300000000000000000000000000000000000000000000000000000000179052608080870193909352815161012080820184528801358152610160808901803593830193909352610180890135938201939093526101a088013560608201526101c08801359381019390935261020087013560a08401526101e087013560c084015261022087013560e08401526102408701356101008401529085015190612120906101408801612c62565b8260405160240161213393929190613456565b60408051601f198184030181529190526020810180516001600160e01b03167f0d56658a0000000000000000000000000000000000000000000000000000000017905260a0850152610160840151610120860135612195610260880188613791565b6121a36102808a018a613791565b6040516024016121b89695949392919061352e565b60408051601f198184030181529190526020810180516001600160e01b03167f5247f78e0000000000000000000000000000000000000000000000000000000017905260c085015261220d60e0860186613865565b61221b90602081019061304d565b61016085015161222e60e0880188613865565b61223c906020810190613820565b61224960e08a018a613865565b61225a906060810190604001613267565b61226760e08b018b613865565b6060013561227860e08c018c613865565b60a0013561228960e08d018d613865565b61229a9060a0810190608001612c62565b6122a760e08e018e613865565b6122b59060c0810190613791565b6040516024016122ce9a999897969594939291906135ab565b60408051601f198184030181529190526020810180516001600160e01b03167f040143270000000000000000000000000000000000000000000000000000000017905260e085015261016084015161232c60c0870160a0880161304d565b604080516001600160a01b03939093166024840152901515604483015260c0878101356064808501919091528251808503909101815260849093018252602080840180516001600160e01b03167f12f58612000000000000000000000000000000000000000000000000000000001790526101008801938452825180840184523080825289830151828401526101808a01805192909252845180860186528181528a860151818501528251840152845180860186528181526060808c0151828601528351870191909152855180870187528281526080808d0151828701528451909201528551808701875282815260a0808d015182870152845190920152855180870187528281528b860151818601528351909101528451808601865281815260e0808c01518286015283519095015284518086019095528452935190830152825101525161247a906118f4565b60008461016001519050806001600160a01b0316630b1ca49a826001600160a01b03166348f7f2a36040518163ffffffff1660e01b815260040160206040518083038186803b1580156124cc57600080fd5b505afa1580156124e0573d6000803e3d6000fd5b505050506040513d601f19601f820116820180604052508101906125049190612c85565b6040517fffffffff0000000000000000000000000000000000000000000000000000000060e084901b1681526001600160a01b039091166004820152602401600060405180830381600087803b15801561255d57600080fd5b505af1158015612571573d6000803e3d6000fd5b50505050806001600160a01b0316636503287f6040518163ffffffff1660e01b8152600401600060405180830381600087803b1580156125b057600080fd5b505af11580156125c4573d6000803e3d6000fd5b50506040516317ba7d8560e01b81527fd90e10040720d66c9412cb511e3dbb6ba51669248a7495e763d44ab426893efa6004820152600092506001600160a01b03841691506317ba7d859060240160206040518083038186803b15801561262a57600080fd5b505afa15801561263e573d6000803e3d6000fd5b505050506040513d601f19601f820116820180604052508101906126629190612c85565b6040517fd32b91dd0000000000000000000000000000000000000000000000000000000081526001600160a01b0384811660048301529192509082169063d32b91dd90602401600060405180830381600087803b1580156126c257600080fd5b505af11580156126d6573d6000803e3d6000fd5b5050505050505050505050565b60003033146126f157600080fd5b6040517f3baeff3f00000000000000000000000000000000000000000000000000000000815285906001600160a01b03821690633baeff3f9061273c90889088908890600401613731565b600060405180830381600087803b15801561275657600080fd5b505af115801561276a573d6000803e3d6000fd5b50506040517f1d1f0a27000000000000000000000000000000000000000000000000000000008152600092506001600160a01b0384169150631d1f0a27906127b8908990899060040161371d565b60206040518083038186803b1580156127d057600080fd5b505afa1580156127e4573d6000803e3d6000fd5b505050506040513d601f19601f820116820180604052508101906128089190612c85565b90506001600160a01b0381166128865760405162461bcd60e51b815260206004820152602f60248201527f53756d6d6d6f6e44616f3a3a73756d6d6f6e56696e7461676544616f3a3a637260448201527f656174652064616f206661696c656400000000000000000000000000000000006064820152608401611a00565b7fc97f13857137bdfa897b81b7697bbd055e5d99fc946c3a047235235c3bd87db087828888886040516128bd9594939291906134a6565b60405180910390a15060019695505050505050565b6040517f5f15b1d90000000000000000000000000000000000000000000000000000000081526001600160a01b038481166004830152838116602483015260448201839052851690635f15b1d990606401600060405180830381600087803b15801561293d57600080fd5b505af1158015612951573d6000803e3d6000fd5b5050505050505050565b60608161299b57505060408051808201909152600181527f3000000000000000000000000000000000000000000000000000000000000000602082015290565b8160005b81156129c557806129af816139d1565b91506129be9050600a83613976565b915061299f565b60008167ffffffffffffffff8111156129ee57634e487b7160e01b600052604160045260246000fd5b6040519080825280601f01601f191660200182016040528015612a18576020820181803683370190505b5090505b8415612aa957612a2d60018361398a565b9150612a3a600a86613a2a565b612a45906030613939565b60f81b818381518110612a6857634e487b7160e01b600052603260045260246000fd5b60200101907effffffffffffffffffffffffffffffffffffffffffffffffffffffffffffff1916908160001a905350612aa2600a86613976565b9450612a1c565b949350505050565b604051806101a001604052806060815260200160608152602001606081526020016060815260200160608152602001606081526020016060815260200160608152602001606081526020016000151581526020016060815260200160006001600160a01b03168152602001612b24612b29565b905290565b6040518061010001604052806008905b604080518082019091526000815260606020820152815260200190600190039081612b395790505090565b8035612b6f81613a80565b919050565b60008083601f840112612b85578182fd5b50813567ffffffffffffffff811115612b9c578182fd5b6020830191508360208260051b8501011115612bb757600080fd5b9250929050565b60008083601f840112612bcf578182fd5b50813567ffffffffffffffff811115612be6578182fd5b602083019150836020606083028501011115612bb757600080fd5b80358015158114612b6f57600080fd5b60008083601f840112612c22578182fd5b50813567ffffffffffffffff811115612c39578182fd5b602083019150836020828501011115612bb757600080fd5b803560ff81168114612b6f57600080fd5b600060208284031215612c73578081fd5b8135612c7e81613a80565b9392505050565b600060208284031215612c96578081fd5b8151612c7e81613a80565b600080600060608486031215612cb5578182fd5b8335612cc081613a80565b92506020840135612cd081613a80565b91506040840135612ce081613a80565b809150509250925092565b600080600080600060808688031215612d02578081fd5b8535612d0d81613a80565b94506020860135612d1d81613a80565b9350604086013567ffffffffffffffff811115612d38578182fd5b612d4488828901612bbe565b9094509250506060860135612d5881613a80565b809150509295509295909350565b6000806000610160808587031215612d7c578384fd5b8435612d8781613a80565b93506020850135612d9781613a80565b9250848101861015612da7578182fd5b506040840190509250925092565b60008060008060608587031215612dca578182fd5b8435612dd581613a80565b9350602085013567ffffffffffffffff811115612df0578283fd5b612dfc87828801612bbe565b9094509250506040850135612e1081613a80565b939692955090935050565b600080600060608486031215612e2f578081fd5b8335612e3a81613a80565b9250612e4860208501612c01565b9150604084013590509250925092565b60008060008060608587031215612e6d578182fd5b8435612e7881613a80565b9350602085013567ffffffffffffffff811115612e93578283fd5b612dfc87828801612c11565b60008060008060008060808789031215612eb7578384fd5b8635612ec281613a80565b955060208701359450604087013567ffffffffffffffff80821115612ee5578586fd5b612ef18a838b01612b74565b90965094506060890135915080821115612f09578283fd5b50612f1689828a01612b74565b979a9699509497509295939492505050565b60006020808385031215612f3a578182fd5b823567ffffffffffffffff80821115612f51578384fd5b8185019150601f8681840112612f65578485fd5b612f6d6138c1565b80848961010087011115612f7f578788fd5b875b600881101561303e57813586811115612f9857898afd5b87016040818d031215612fa957898afd5b612fb1613898565b8135612fbc81613a80565b8152818a013588811115612fce578b8cfd5b8083019250508c87830112612fe1578a8bfd5b813588811115612ff357612ff3613a6a565b6130048b601f198a84011601613908565b8181528e8c838601011115613017578c8dfd5b818c85018d8301379081018b018c9052818b01528552509287019290870190600101612f81565b50909998505050505050505050565b60006020828403121561305e578081fd5b612c7e82612c01565b6000806000806000806000806000806101008b8d031215613086578788fd5b61308f8b612c01565b995060208b013561309f81613a80565b985060408b013567ffffffffffffffff808211156130bb57898afd5b6130c78e838f01612c11565b909a5098508891506130db60608e01612c51565b975060808d0135965060a08d0135955060c08d013591506130fb82613a80565b90935060e08c01359080821115613110578384fd5b5061311d8d828e01612b74565b915080935050809150509295989b9194979a5092959850565b600080600080600080600080610100898b031215613152578182fd5b61315b89612c01565b97506020808a013567ffffffffffffffff80821115613178578485fd5b6131848d838e01612c11565b9250809a50508198508c605f8d011261319b578485fd5b6131a36138e5565b91508160408d0160a08e018f8111156131ba578788fd5b875b60038110156131d9578235865294860194918601916001016131bc565b50829a506131e681612b64565b995050505060c08c01359250808311156131fe578485fd5b505061320c8b828c01612b74565b909450925061321f905060e08a01612b64565b90509295985092959890939650565b60006020828403121561323f578081fd5b813567ffffffffffffffff811115613255578182fd5b82016102a08185031215612c7e578182fd5b600060208284031215613278578081fd5b612c7e82612c51565b81835260006020808501945082825b858110156132be5781356132a381613a80565b6001600160a01b031687529582019590820190600101613290565b509495945050505050565b81835260006020808501945082825b858110156132be5781358752828201356132f181613a80565b6001600160a01b0316878401526040828101356fffffffffffffffffffffffffffffffff8116808214613322578687fd5b918901919091525060609687019691909101906001016132d8565b8183528181602085013750600080602083850101526020601f19601f840116840101905092915050565b600082516133798184602087016139a1565b9190910192915050565b7f6c6f772d6c6576656c2063616c6c206f662073756d6d6f6e56696e746167654481527f616f0000000000000000000000000000000000000000000000000000000000006020820152600082516133e18160228501602087016139a1565b7f206661696c6564000000000000000000000000000000000000000000000000006022939091019283015250602901919050565b60006001600160a01b0380881683528087166020840152608060408401526134416080840186886132c9565b91508084166060840152509695505050505050565b6001600160a01b038481168252831660208083019190915261016082019060408301908460005b600981101561349a5781518452928201929082019060010161347d565b50505050949350505050565b60006001600160a01b03808816835280871660208401526080604084015261344160808401868861333d565b60006001600160a01b038087168352606060208401526134f66060840186886132c9565b915080841660408401525095945050505050565b60006001600160a01b038087168352606060208401526134f660608401868861333d565b6001600160a01b0387168152856020820152608060408201526000613557608083018688613281565b82810360608401528381527f07ffffffffffffffffffffffffffffffffffffffffffffffffffffffffffffff84111561358e578182fd5b8360051b8086602084013701602001908152979650505050505050565b60006101008c151583526001600160a01b03808d1660208501528160408501526135d88285018c8e61333d565b915060ff8a1660608501528860808501528760a085015280871660c08501525082810360e084015261360b818587613281565b9d9c50505050505050505050505050565b60006101008a151583526020818185015261363a8285018b8d61333d565b91506040840189845b600381101561366057815183529183019190830190600101613643565b505050506001600160a01b0380881660a085015283820360c0850152613687828789613281565b925080851660e085015250509998505050505050505050565b8381526040602082015260006136ba60408301848661333d565b95945050505050565b60006001600160a01b038087168352808616602084015250606060408301526136f06060830184866132c9565b9695505050505050565b6001600160a01b03841681526040602082015260006136ba6040830184866132c9565b602081526000612aa960208301848661333d565b60408152600061374560408301858761333d565b90506001600160a01b0383166020830152949350505050565b602081526000825180602084015261377d8160408501602087016139a1565b601f01601f19169190910160400192915050565b6000808335601e198436030181126137a7578283fd5b83018035915067ffffffffffffffff8211156137c1578283fd5b6020019150600581901b3603821315612bb757600080fd5b6000808335601e198436030181126137ef578283fd5b83018035915067ffffffffffffffff821115613809578283fd5b6020019150606081023603821315612bb757600080fd5b6000808335601e19843603018112613836578283fd5b83018035915067ffffffffffffffff821115613850578283fd5b602001915036819003821315612bb757600080fd5b600082357fffffffffffffffffffffffffffffffffffffffffffffffffffffffffffffff21833603018112613379578182fd5b6040805190810167ffffffffffffffff811182821017156138bb576138bb613a6a565b60405290565b604051610100810167ffffffffffffffff811182821017156138bb576138bb613a6a565b6040516060810167ffffffffffffffff811182821017156138bb576138bb613a6a565b604051601f8201601f1916810167ffffffffffffffff8111828210171561393157613931613a6a565b604052919050565b6000821982111561394c5761394c613a3e565b500190565b600060ff821660ff84168060ff0382111561396e5761396e613a3e565b019392505050565b60008261398557613985613a54565b500490565b60008282101561399c5761399c613a3e565b500390565b60005b838110156139bc5781810151838201526020016139a4565b838111156139cb576000848401525b50505050565b60007fffffffffffffffffffffffffffffffffffffffffffffffffffffffffffffffff821415613a0357613a03613a3e565b5060010190565b600060ff821660ff811415613a2157613a21613a3e565b60010192915050565b600082613a3957613a39613a54565b500690565b634e487b7160e01b600052601160045260246000fd5b634e487b7160e01b600052601260045260246000fd5b634e487b7160e01b600052604160045260246000fd5b6001600160a01b0381168114613a9557600080fd5b5056fea2646970667358221220d369f91163b80954e1a2ceed0ff93c8388ed20129f4306510198fb4f5995fb4764736f6c63430008040033",
  "linkReferences": {},
  "deployedLinkReferences": {}
}