{
  "_format": "hh-sol-artifact-1",
  "contractName": "SummonDao",
  "sourceName": "contracts/SummonDao.sol",
  "abi": [
    {
      "inputs": [],
      "stateMutability": "nonpayable",
      "type": "constructor"
    },
    {
      "anonymous": false,
      "inputs": [
        {
          "indexed": false,
          "internalType": "address",
          "name": "daoFactoryAddress",
          "type": "address"
        },
        {
          "indexed": false,
          "internalType": "address",
          "name": "daoAddr",
          "type": "address"
        },
        {
          "indexed": false,
          "internalType": "string",
          "name": "name",
          "type": "string"
        },
        {
          "indexed": false,
          "internalType": "address",
          "name": "creator",
          "type": "address"
        }
      ],
      "name": "FlexDaoCreated",
      "type": "event"
    },
    {
      "anonymous": false,
      "inputs": [
        {
          "indexed": false,
          "internalType": "address",
          "name": "daoFactoryAddress",
          "type": "address"
        },
        {
          "indexed": false,
          "internalType": "address",
          "name": "daoAddr",
          "type": "address"
        },
        {
          "indexed": false,
          "internalType": "string",
          "name": "name",
          "type": "string"
        },
        {
          "indexed": false,
          "internalType": "address",
          "name": "creator",
          "type": "address"
        }
      ],
      "name": "VintageDaoCreated",
      "type": "event"
    },
    {
      "inputs": [
        {
          "components": [
            {
              "internalType": "address",
              "name": "target",
              "type": "address"
            },
            {
              "internalType": "bytes",
              "name": "callData",
              "type": "bytes"
            }
          ],
          "internalType": "struct SummonDao.Call[9]",
          "name": "calls",
          "type": "tuple[9]"
        }
      ],
      "name": "multiCall",
      "outputs": [],
      "stateMutability": "nonpayable",
      "type": "function"
    },
    {
      "inputs": [
        {
          "components": [
            {
              "internalType": "address[]",
              "name": "daoFactoriesAddress",
              "type": "address[]"
            },
            {
              "components": [
                {
                  "internalType": "bytes32",
                  "name": "id",
                  "type": "bytes32"
                },
                {
                  "internalType": "address",
                  "name": "addr",
                  "type": "address"
                },
                {
                  "internalType": "uint128",
                  "name": "flags",
                  "type": "uint128"
                }
              ],
              "internalType": "struct DaoFactory.Adapter[]",
              "name": "enalbeAdapters",
              "type": "tuple[]"
            },
            {
              "components": [
                {
                  "internalType": "bytes32",
                  "name": "id",
                  "type": "bytes32"
                },
                {
                  "internalType": "address",
                  "name": "addr",
                  "type": "address"
                },
                {
                  "internalType": "uint128",
                  "name": "flags",
                  "type": "uint128"
                }
              ],
              "internalType": "struct DaoFactory.Adapter[]",
              "name": "adapters1",
              "type": "tuple[]"
            },
            {
              "internalType": "bool",
              "name": "fundingPollEnable",
              "type": "bool"
            },
            {
              "components": [
                {
                  "internalType": "bool",
                  "name": "enable",
                  "type": "bool"
                },
                {
                  "internalType": "uint256",
                  "name": "maxParticipantsAmount",
                  "type": "uint256"
                }
              ],
              "internalType": "struct SummonDao.flexDaoParticipantCapInfo",
              "name": "_flexDaoParticipantCapInfo",
              "type": "tuple"
            },
            {
              "internalType": "bool",
              "name": "flexDaoParticipantMembetshipEnable",
              "type": "bool"
            },
            {
              "components": [
                {
                  "internalType": "string",
                  "name": "name",
                  "type": "string"
                },
                {
                  "internalType": "uint8",
                  "name": "varifyType",
                  "type": "uint8"
                },
                {
                  "internalType": "uint256",
                  "name": "minHolding",
                  "type": "uint256"
                },
                {
                  "internalType": "address",
                  "name": "tokenAddress",
                  "type": "address"
                },
                {
                  "internalType": "uint256",
                  "name": "tokenId",
                  "type": "uint256"
                },
                {
                  "internalType": "address[]",
                  "name": "whiteList",
                  "type": "address[]"
                }
              ],
              "internalType": "struct SummonDao.flexDaoPaticipantMembershipInfo",
              "name": "_flexDaoPaticipantMembershipInfos",
              "type": "tuple"
            },
            {
              "internalType": "bool",
              "name": "flexDaoPriorityDepositEnalbe",
              "type": "bool"
            },
            {
              "components": [
                {
                  "internalType": "uint8",
                  "name": "varifyType",
                  "type": "uint8"
                },
                {
                  "internalType": "uint256",
                  "name": "minHolding",
                  "type": "uint256"
                },
                {
                  "internalType": "address",
                  "name": "tokenAddress",
                  "type": "address"
                },
                {
                  "internalType": "uint256",
                  "name": "tokenId",
                  "type": "uint256"
                },
                {
                  "internalType": "address[]",
                  "name": "whiteList",
                  "type": "address[]"
                },
                {
                  "internalType": "uint256",
                  "name": "priorityPeriod",
                  "type": "uint256"
                }
              ],
              "internalType": "struct SummonDao.flexDaoPriorityMembershipInfo",
              "name": "_flexDaoPriorityMembershipInfo",
              "type": "tuple"
            },
            {
              "components": [
                {
                  "internalType": "bool",
                  "name": "enable",
                  "type": "bool"
                },
                {
                  "internalType": "uint256",
                  "name": "varifyType",
                  "type": "uint256"
                },
                {
                  "internalType": "uint256",
                  "name": "minHolding",
                  "type": "uint256"
                },
                {
                  "internalType": "address",
                  "name": "tokenAddress",
                  "type": "address"
                },
                {
                  "internalType": "uint256",
                  "name": "tokenId",
                  "type": "uint256"
                },
                {
                  "internalType": "address[]",
                  "name": "whiteList",
                  "type": "address[]"
                }
              ],
              "internalType": "struct SummonDao.flexDaoStewardMembershipInfo",
              "name": "_flexDaoStewardMembershipInfo",
              "type": "tuple"
            },
            {
              "components": [
                {
                  "internalType": "uint256",
                  "name": "eligibilityType",
                  "type": "uint256"
                },
                {
                  "internalType": "address",
                  "name": "tokenAddress",
                  "type": "address"
                },
                {
                  "internalType": "uint256",
                  "name": "tokenID",
                  "type": "uint256"
                },
                {
                  "internalType": "uint256",
                  "name": "votingPeriod",
                  "type": "uint256"
                },
                {
                  "internalType": "uint8",
                  "name": "votingPower",
                  "type": "uint8"
                },
                {
                  "internalType": "uint256",
                  "name": "superMajority",
                  "type": "uint256"
                },
                {
                  "internalType": "uint256",
                  "name": "quorum",
                  "type": "uint256"
                },
                {
                  "internalType": "uint256",
                  "name": "supportType",
                  "type": "uint256"
                },
                {
                  "internalType": "uint256",
                  "name": "quorumType",
                  "type": "uint256"
                }
              ],
              "internalType": "struct SummonDao.flexDaoVotingInfo",
              "name": "_flexDaoVotingInfo",
              "type": "tuple"
            },
            {
              "components": [
                {
                  "internalType": "uint8",
                  "name": "varifyType",
                  "type": "uint8"
                },
                {
                  "internalType": "uint256",
                  "name": "minHolding",
                  "type": "uint256"
                },
                {
                  "internalType": "address",
                  "name": "tokenAddress",
                  "type": "address"
                },
                {
                  "internalType": "uint256",
                  "name": "tokenId",
                  "type": "uint256"
                },
                {
                  "internalType": "address[]",
                  "name": "whiteList",
                  "type": "address[]"
                }
              ],
              "internalType": "struct SummonDao.flexDaoPollsterMembershipInfo",
              "name": "_flexDaoPollsterMembershipInfo",
              "type": "tuple"
            },
            {
              "components": [
                {
                  "internalType": "uint256",
                  "name": "votingPeriod",
                  "type": "uint256"
                },
                {
                  "internalType": "uint8",
                  "name": "votingPower",
                  "type": "uint8"
                },
                {
                  "internalType": "uint256",
                  "name": "superMajority",
                  "type": "uint256"
                },
                {
                  "internalType": "uint256",
                  "name": "quorum",
                  "type": "uint256"
                },
                {
                  "internalType": "uint256",
                  "name": "eligibilityType",
                  "type": "uint256"
                },
                {
                  "internalType": "address",
                  "name": "tokenAddress",
                  "type": "address"
                },
                {
                  "internalType": "uint256",
                  "name": "tokenID",
                  "type": "uint256"
                },
                {
                  "internalType": "uint256",
                  "name": "supportType",
                  "type": "uint256"
                },
                {
                  "internalType": "uint256",
                  "name": "quorumType",
                  "type": "uint256"
                }
              ],
              "internalType": "struct SummonDao.flexDaoPollingInfo",
              "name": "_flexDaoPollingInfo",
              "type": "tuple"
            },
            {
              "components": [
                {
                  "internalType": "bool",
                  "name": "proposerMembershipEnable",
                  "type": "bool"
                },
                {
                  "internalType": "uint8",
                  "name": "varifyType",
                  "type": "uint8"
                },
                {
                  "internalType": "uint256",
                  "name": "minHolding",
                  "type": "uint256"
                },
                {
                  "internalType": "address",
                  "name": "tokenAddress",
                  "type": "address"
                },
                {
                  "internalType": "uint256",
                  "name": "tokenId",
                  "type": "uint256"
                },
                {
                  "internalType": "address[]",
                  "name": "whiteList",
                  "type": "address[]"
                }
              ],
              "internalType": "struct SummonDao.flexDaoProposerMembershipInfo",
              "name": "_flexDaoProposerMembershipInfo",
              "type": "tuple"
            },
            {
              "components": [
                {
                  "internalType": "string",
                  "name": "name",
                  "type": "string"
                },
                {
                  "internalType": "address",
                  "name": "creator",
                  "type": "address"
                },
                {
                  "internalType": "uint256",
                  "name": "flexDaoManagementfee",
                  "type": "uint256"
                },
                {
                  "internalType": "address",
                  "name": "managementFeeAddress",
                  "type": "address"
                },
                {
                  "internalType": "address[]",
                  "name": "flexDaoGenesisStewards",
                  "type": "address[]"
                },
                {
                  "internalType": "uint8",
                  "name": "flexDaoFundriaseStyle",
                  "type": "uint8"
                }
              ],
              "internalType": "struct SummonDao.flexDaoInfo",
              "name": "_flexDaoInfo",
              "type": "tuple"
            }
          ],
          "internalType": "struct SummonDao.FlexDaoParams",
          "name": "params",
          "type": "tuple"
        }
      ],
      "name": "summonFlexDao",
      "outputs": [],
      "stateMutability": "nonpayable",
      "type": "function"
    },
    {
      "inputs": [
        {
          "internalType": "address",
          "name": "daoFacAddr",
          "type": "address"
        },
        {
          "internalType": "string",
          "name": "daoName",
          "type": "string"
        },
        {
          "internalType": "address",
          "name": "creator",
          "type": "address"
        }
      ],
      "name": "summonFlexDao1",
      "outputs": [
        {
          "internalType": "bool",
          "name": "",
          "type": "bool"
        }
      ],
      "stateMutability": "nonpayable",
      "type": "function"
    },
    {
      "inputs": [
        {
          "internalType": "bool",
          "name": "flexDaoPriorityDepositEnalbe",
          "type": "bool"
        },
        {
          "internalType": "uint256",
          "name": "flexDaoPriorityMembershipVarifyType",
          "type": "uint256"
        },
        {
          "internalType": "uint256",
          "name": "flexDaoPriorityMembershipPriorityPeriod",
          "type": "uint256"
        },
        {
          "internalType": "uint256",
          "name": "flexDaoPriorityMembershipMinHolding",
          "type": "uint256"
        },
        {
          "internalType": "uint256",
          "name": "flexDaoPriorityMembershipTokenId",
          "type": "uint256"
        },
        {
          "internalType": "address[]",
          "name": "flexDaoPriorityMembershipWhiteList",
          "type": "address[]"
        },
        {
          "internalType": "address",
          "name": "flexDaoPriorityMembershipTokenAddress",
          "type": "address"
        },
        {
          "internalType": "address",
          "name": "newDaoAddr",
          "type": "address"
        }
      ],
      "name": "summonFlexDao10",
      "outputs": [
        {
          "internalType": "bool",
          "name": "",
          "type": "bool"
        }
      ],
      "stateMutability": "nonpayable",
      "type": "function"
    },
    {
      "inputs": [
        {
          "internalType": "address",
          "name": "flexFundingPoolFacAddr",
          "type": "address"
        },
        {
          "internalType": "address",
          "name": "newDaoAddr",
          "type": "address"
        },
        {
          "internalType": "address",
          "name": "creator",
          "type": "address"
        }
      ],
      "name": "summonFlexDao2",
      "outputs": [
        {
          "internalType": "bool",
          "name": "",
          "type": "bool"
        }
      ],
      "stateMutability": "nonpayable",
      "type": "function"
    },
    {
      "inputs": [
        {
          "internalType": "address",
          "name": "daoFacAddr",
          "type": "address"
        },
        {
          "components": [
            {
              "internalType": "bytes32",
              "name": "id",
              "type": "bytes32"
            },
            {
              "internalType": "address",
              "name": "addr",
              "type": "address"
            },
            {
              "internalType": "uint128",
              "name": "flags",
              "type": "uint128"
            }
          ],
          "internalType": "struct DaoFactory.Adapter[]",
          "name": "enalbeAdapters",
          "type": "tuple[]"
        },
        {
          "internalType": "address",
          "name": "newDaoAddr",
          "type": "address"
        }
      ],
      "name": "summonFlexDao3",
      "outputs": [
        {
          "internalType": "bool",
          "name": "",
          "type": "bool"
        }
      ],
      "stateMutability": "nonpayable",
      "type": "function"
    },
    {
      "inputs": [
        {
          "internalType": "address",
          "name": "daoFacAddr",
          "type": "address"
        },
        {
          "internalType": "address",
          "name": "flexFundingPoolFacAddr",
          "type": "address"
        },
        {
          "components": [
            {
              "internalType": "bytes32",
              "name": "id",
              "type": "bytes32"
            },
            {
              "internalType": "address",
              "name": "addr",
              "type": "address"
            },
            {
              "internalType": "uint128",
              "name": "flags",
              "type": "uint128"
            }
          ],
          "internalType": "struct DaoFactory.Adapter[]",
          "name": "adapters1",
          "type": "tuple[]"
        },
        {
          "internalType": "address",
          "name": "newDaoAddr",
          "type": "address"
        }
      ],
      "name": "summonFlexDao4",
      "outputs": [
        {
          "internalType": "bool",
          "name": "",
          "type": "bool"
        }
      ],
      "stateMutability": "nonpayable",
      "type": "function"
    },
    {
      "inputs": [
        {
          "internalType": "uint256",
          "name": "flexDaoManagementfee",
          "type": "uint256"
        },
        {
          "internalType": "address",
          "name": "managementFeeAddress",
          "type": "address"
        },
        {
          "internalType": "uint256",
          "name": "flexDaoFundriaseStyle",
          "type": "uint256"
        },
        {
          "internalType": "address",
          "name": "newDaoAddr",
          "type": "address"
        },
        {
          "internalType": "uint8",
          "name": "votingPower",
          "type": "uint8"
        },
        {
          "internalType": "uint256",
          "name": "tokenID",
          "type": "uint256"
        },
        {
          "internalType": "address",
          "name": "tokenAddress",
          "type": "address"
        },
        {
          "internalType": "uint256[6]",
          "name": "_uint256VoteArgs",
          "type": "uint256[6]"
        }
      ],
      "name": "summonFlexDao5",
      "outputs": [
        {
          "internalType": "bool",
          "name": "",
          "type": "bool"
        }
      ],
      "stateMutability": "nonpayable",
      "type": "function"
    },
    {
      "inputs": [
        {
          "internalType": "address[]",
          "name": "flexDaoGenesisStewards",
          "type": "address[]"
        },
        {
          "internalType": "address",
          "name": "newDaoAddr",
          "type": "address"
        }
      ],
      "name": "summonFlexDao6",
      "outputs": [
        {
          "internalType": "bool",
          "name": "",
          "type": "bool"
        }
      ],
      "stateMutability": "nonpayable",
      "type": "function"
    },
    {
      "inputs": [
        {
          "internalType": "bool[2]",
          "name": "booleanParams",
          "type": "bool[2]"
        },
        {
          "internalType": "uint256[10]",
          "name": "uint256Params",
          "type": "uint256[10]"
        },
        {
          "internalType": "address",
          "name": "flexDaoPollsterMembershipTokenAddress",
          "type": "address"
        },
        {
          "internalType": "address[]",
          "name": "flexDaoPollsterMembershipWhiteList",
          "type": "address[]"
        },
        {
          "internalType": "address",
          "name": "newDaoAddr",
          "type": "address"
        },
        {
          "internalType": "address",
          "name": "flexDaoPollingtokenAddress",
          "type": "address"
        }
      ],
      "name": "summonFlexDao7",
      "outputs": [
        {
          "internalType": "bool",
          "name": "",
          "type": "bool"
        }
      ],
      "stateMutability": "nonpayable",
      "type": "function"
    },
    {
      "inputs": [
        {
          "internalType": "bool",
          "name": "flexDaoStewardMembershipEnable",
          "type": "bool"
        },
        {
          "internalType": "bool",
          "name": "flexDaoProposerMembershipEnable",
          "type": "bool"
        },
        {
          "internalType": "uint256[6]",
          "name": "uint256Params",
          "type": "uint256[6]"
        },
        {
          "internalType": "address",
          "name": "flexDaoStewardMembershipTokenAddress",
          "type": "address"
        },
        {
          "internalType": "address[]",
          "name": "flexDaoStewardMembershipWhitelist",
          "type": "address[]"
        },
        {
          "internalType": "address",
          "name": "flexDaoProposerMembershipTokenAddress",
          "type": "address"
        },
        {
          "internalType": "address[]",
          "name": "flexDaoProposerMembershipWhiteList",
          "type": "address[]"
        },
        {
          "internalType": "address",
          "name": "newDaoAddr",
          "type": "address"
        }
      ],
      "name": "summonFlexDao8",
      "outputs": [
        {
          "internalType": "bool",
          "name": "",
          "type": "bool"
        }
      ],
      "stateMutability": "nonpayable",
      "type": "function"
    },
    {
      "inputs": [
        {
          "internalType": "bool",
          "name": "flexDaoParticipantMembetshipEnable",
          "type": "bool"
        },
        {
          "internalType": "string",
          "name": "flexDaoPaticipantMembershipName",
          "type": "string"
        },
        {
          "internalType": "uint256",
          "name": "flexDaoPaticipantMembershipVarifyType",
          "type": "uint256"
        },
        {
          "internalType": "uint256",
          "name": "flexDaoPaticipantMembershipMinHolding",
          "type": "uint256"
        },
        {
          "internalType": "uint256",
          "name": "flexDaoPaticipantMembershipTokenId",
          "type": "uint256"
        },
        {
          "internalType": "address",
          "name": "flexDaoPaticipantMembershipTokenAddress",
          "type": "address"
        },
        {
          "internalType": "address[]",
          "name": "flexDaoPaticipantMembershipWhiteList",
          "type": "address[]"
        },
        {
          "internalType": "address",
          "name": "newDaoAddr",
          "type": "address"
        }
      ],
      "name": "summonFlexDao9",
      "outputs": [
        {
          "internalType": "bool",
          "name": "",
          "type": "bool"
        }
      ],
      "stateMutability": "nonpayable",
      "type": "function"
    }
  ],
  "bytecode": "0x608060405234801561001057600080fd5b50614eb9806100206000396000f3fe608060405234801561001057600080fd5b50600436106100d45760003560e01c8063a694adaa11610081578063e23fdcb21161005b578063e23fdcb21461019a578063e9f2e405146101ad578063f56e40c5146101c057600080fd5b8063a694adaa14610161578063abb4728614610174578063d2bdd0671461018757600080fd5b8063724c8011116100b2578063724c801114610128578063a22dff6d1461013b578063a53d86eb1461014e57600080fd5b806332c575f6146100d95780633bf2ff6f1461010057806354dc4a9e14610113575b600080fd5b6100ec6100e7366004613fc7565b6101d3565b604051901515815260200160405180910390f35b6100ec61010e36600461400e565b6103c4565b6101266101213660046144c7565b6103e6565b005b61012661013636600461413e565b61122b565b6100ec610149366004613ee6565b611352565b6100ec61015c366004614058565b611488565b6100ec61016f366004613e9c565b6116a3565b6100ec61018236600461427d565b61186e565b6100ec610195366004614428565b611dca565b6100ec6101a8366004614365565b611f60565b6100ec6101bb366004613f61565b61201a565b6100ec6101ce366004614500565b6120b0565b60003033146101e157600080fd5b6040517f3baeff3f00000000000000000000000000000000000000000000000000000000815285906001600160a01b03821690633baeff3f9061022c90889088908890600401614af5565b600060405180830381600087803b15801561024657600080fd5b505af115801561025a573d6000803e3d6000fd5b50506040517f1d1f0a27000000000000000000000000000000000000000000000000000000008152600092506001600160a01b0384169150631d1f0a27906102a89089908990600401614ae1565b60206040518083038186803b1580156102c057600080fd5b505afa1580156102d4573d6000803e3d6000fd5b505050506040513d601f19601f820116820180604052508101906102f89190613e80565b90506001600160a01b03811661037b5760405162461bcd60e51b815260206004820152602c60248201527f53756d6d6d6f6e44616f3a3a73756d6d6f6e466c657844616f3a3a637265617460448201527f652064616f206661696c6564000000000000000000000000000000000000000060648201526084015b60405180910390fd5b7f90b4d575a386848fdb50424cc74bd3396f96cbd019887f6e1cad00bf90b920bf87828888886040516103b295949392919061477b565b60405180910390a15050949350505050565b6000813033146103d357600080fd5b6103de818686612738565b509392505050565b8060006103f76103e0830183614c69565b60400135101580156104215750670de0b6b3a764000061041b6103e0830183614c69565b60400135105b6104935760405162461bcd60e51b815260206004820152602e60248201527f53756d6d6f6e20466c65782044414f3a3a496e76616c6964204d616e6167656d60448201527f656e742046656520416d6f756e740000000000000000000000000000000000006064820152608401610372565b61049b613bc7565b6104a58380614b95565b60008181106104c457634e487b7160e01b600052603260045260246000fd5b90506020020160208101906104d99190613e5d565b6104e76103e0850185614c69565b6104f19080614c24565b6104ff6103e0870187614c69565b610510906040810190602001613e5d565b60405160240161052394939291906147df565b60408051601f198184030181529181526020820180516001600160e01b03167f32c575f600000000000000000000000000000000000000000000000000000000179052818352513091610575916146b2565b6000604051808303816000865af19150503d80600081146105b2576040519150601f19603f3d011682016040523d82523d6000602084013e6105b7565b606091505b506101608301521515610140820181905261063a5760405162461bcd60e51b815260206004820152603060248201527f6c6f772d6c6576656c2063616c6c206f662066756e6374696f6e2073756d6d6f60448201527f6e466c657844616f31206661696c6564000000000000000000000000000000006064820152608401610372565b600061064a6103e0850185614c69565b6106549080614c24565b604051602401610665929190614ae1565b60408051601f198184030181529190526020810180516001600160e01b03167f1d1f0a270000000000000000000000000000000000000000000000000000000017905290506106b48480614b95565b60008181106106d357634e487b7160e01b600052603260045260246000fd5b90506020020160208101906106e89190613e5d565b6001600160a01b0316816040516106ff91906146b2565b6000604051808303816000865af19150503d806000811461073c576040519150601f19603f3d011682016040523d82523d6000602084013e610741565b606091505b5061016084018190529015801561014085018190526020909201516001600160a01b031661018085015261078257506101808201516001600160a01b031615155b61078b57600080fd5b6107958480614b95565b60018181106107b457634e487b7160e01b600052603260045260246000fd5b90506020020160208101906107c99190613e5d565b6101808301516107dd6103e0870187614c69565b6107ee906040810190602001613e5d565b6040516001600160a01b0393841660248201529183166044830152909116606482015260840160408051601f19818403018152919052602080820180516001600160e01b03167fa694adaa000000000000000000000000000000000000000000000000000000001790528301526108658480614b95565b600081811061088457634e487b7160e01b600052603260045260246000fd5b90506020020160208101906108999190613e5d565b6108a66020860186614bdd565b8461018001516040516024016108bf94939291906147a7565b60408051601f198184030181529181526020820180516001600160e01b03167fe9f2e4050000000000000000000000000000000000000000000000000000000017905283015261090f8480614b95565b600081811061092e57634e487b7160e01b600052603260045260246000fd5b90506020020160208101906109439190613e5d565b61094d8580614b95565b600181811061096c57634e487b7160e01b600052603260045260246000fd5b90506020020160208101906109819190613e5d565b61098e6040870187614bdd565b8561018001516040516024016109a895949392919061473a565b60408051601f19818403018152918152602080830180516001600160e01b03167fa22dff6d00000000000000000000000000000000000000000000000000000000179052606080860193909352815160c0810183526101c08801358152610200880135918101919091526101608701359181019190915261022086013591810191909152610240850135608082015261026085013560a0820152610a506103e0860186614c69565b60400135610a626103e0870187614c69565b610a73906080810190606001613e5d565b610a816103e0880188614c69565b610a929060c081019060a00161458f565b610180860151610aaa6102008a016101e08b0161458f565b6101a08a01803590610ac0906101808d01613e5d565b87604051602401610ad8989796959493929190614b3c565b60408051601f198184030181529190526020810180516001600160e01b03167ff56e40c5000000000000000000000000000000000000000000000000000000001790526080840152610b2e6103e0860186614c69565b610b3c906080810190614b95565b846101800151604051602401610b5493929190614803565b60408051601f19818403018152918152602080830180516001600160e01b03167f3bf2ff6f0000000000000000000000000000000000000000000000000000000017905260a0808701939093528151610140810183529288013583526102a088013590830152600091908101610bd26102e089016102c08a0161458f565b60ff1681526102e0880135602082015261030088013560408201526103208801356060820152610360880135608082015260a001610c14610280890189614c9c565b610c2290602081019061458f565b60ff168152602001610c38610280890189614c9c565b602090810135825201610c4f610280890189614c9c565b60600135815250905060006040518060400160405280886060016020810190610c789190614263565b15158152602001610c8f60a08a0160808b01614263565b1515905290508082610ca56102808a018a614c9c565b610cb6906060810190604001613e5d565b610cc46102808b018b614c9c565b610cd2906080810190614b95565b6101808a0151610cea6103608e016103408f01613e5d565b604051602401610d009796959493929190614830565b60408051601f198184030181529181526020820180516001600160e01b03167fa53d86eb0000000000000000000000000000000000000000000000000000000017905260c0808801929092528051918201905260009080610d656101408b018b614c69565b602090810135825201610d7c6101408b018b614c69565b604001358152602001610d936101408b018b614c69565b608001358152602001610daa6103c08b018b614c69565b610dbb90604081019060200161458f565b60ff168152602001610dd16103c08b018b614c69565b608001358152602001610de86103c08b018b614c69565b6040013590529050610dfe610140890189614c69565b610e0c906020810190614263565b610e1a6103c08a018a614c69565b610e28906020810190614263565b82610e376101408c018c614c69565b610e48906080810190606001613e5d565b610e566101408d018d614c69565b610e649060a0810190614b95565b610e726103c08f018f614c69565b610e83906080810190606001613e5d565b8e806103c00190610e949190614c69565b610ea29060a0810190614b95565b8e6101800151604051602401610ec19a999897969594939291906148df565b60408051601f198184030181529190526020810180516001600160e01b03167fabb472860000000000000000000000000000000000000000000000000000000017905260e080880191909152610f1c90890160c08a01614263565b610f2960e08a018a614c69565b610f339080614c24565b610f4060e08c018c614c69565b610f5190604081019060200161458f565b610f5e60e08d018d614c69565b60400135610f6f60e08e018e614c69565b60800135610f8060e08f018f614c69565b610f91906080810190606001613e5d565b8e8060e00190610fa19190614c69565b610faf9060a0810190614b95565b8e6101800151604051602401610fce9a9998979695949392919061495e565b60408051601f198184030181529190526020810180516001600160e01b03167fe23fdcb2000000000000000000000000000000000000000000000000000000001790526101008088019190915261102c906101208a01908a01614263565b61103a6101208a018a614c69565b61104890602081019061458f565b6110566101208b018b614c69565b60a001356110686101208c018c614c69565b6020013561107a6101208d018d614c69565b6060013561108c6101208e018e614c69565b61109a906080810190614b95565b8e8061012001906110ab9190614c69565b6110bc906060810190604001613e5d565b8d61018001516040516024016110da999897969594939291906149d0565b60408051601f19818403018152918152602080830180516001600160e01b03167fd2bdd06700000000000000000000000000000000000000000000000000000000179052610120890192835281518083018352308082528a830151828401526101a08b01805192909252835180850185528181528b850151818501528251840152835180850185528181526060808d0151828601528351860191909152845180860186528281526080808e0151828701528451909201528451808601865282815260a0808e0151828701528451909201528451808601865282815260c0808e0151828701528451909201528451808601865282815260e0808e015182870152845190920152845180860186528281526101008d015181860152835190910152835180850190945283529251908201529051600860200201526101a08601516112219061122b565b5050505050505050565b60005b600981101561134e5760008083836009811061125a57634e487b7160e01b600052603260045260246000fd5b6020020151516001600160a01b031684846009811061128957634e487b7160e01b600052603260045260246000fd5b60200201516020015160405161129f91906146b2565b6000604051808303816000865af19150503d80600081146112dc576040519150601f19603f3d011682016040523d82523d6000602084013e6112e1565b606091505b509092509050816112fb6112f6856002614d4d565b61281e565b60405160200161130b91906146ce565b604051602081830303815290604052906113385760405162461bcd60e51b81526004016103729190614b09565b505050808061134690614dbc565b91505061122e565b5050565b60008130331461136157600080fd5b6040517f3146637e0000000000000000000000000000000000000000000000000000000081526001600160a01b0384811660048301528891889160009190831690633146637e9060240160206040518083038186803b1580156113c357600080fd5b505afa1580156113d7573d6000803e3d6000fd5b505050506040513d601f19601f820116820180604052508101906113fb9190613e80565b6040517f29ca12ed0000000000000000000000000000000000000000000000000000000081529091506001600160a01b038416906329ca12ed9061144990879085908d908d90600401614a32565b600060405180830381600087803b15801561146357600080fd5b505af1158015611477573d6000803e3d6000fd5b505050505050505095945050505050565b60008230331461149757600080fd5b88511561158957604051630da0f6c760e41b81527f6e9fd67c3f2ca4e2b4e4b45b33b985dc3a1bffcadea24d12440a5901f72217b56004820152600160248201526001600160a01b0382169063da0f6c7090604401600060405180830381600087803b15801561150657600080fd5b505af115801561151a573d6000803e3d6000fd5b5050505061156781896001600a811061154357634e487b7160e01b600052603260045260246000fd5b602002015160408b015160608c015160808d015160a08e015160c08f01518a612974565b60e08801516101008901516101208a015161158992849290918b908b8b612d27565b60208901511561169757604051630da0f6c760e41b81527f0a71373d28d4b40b0bb46f8d58468f2e51292d10cf26715a0e3d8624b60c8a426004820152600160248201526001600160a01b0382169063da0f6c7090604401600060405180830381600087803b1580156115fb57600080fd5b505af115801561160f573d6000803e3d6000fd5b50508951604051630da0f6c760e41b81527faf0b46df030af159303b75690e740674df8434270d3b7248b0280f3d63a2dd8b600482015260248101919091526001600160a01b038416925063da0f6c709150604401600060405180830381600087803b15801561167e57600080fd5b505af1158015611692573d6000803e3d6000fd5b505050505b50979650505050505050565b60003033146116b157600080fd5b6040517f9ed933180000000000000000000000000000000000000000000000000000000081526001600160a01b038481166004830152859190821690639ed9331890602401600060405180830381600087803b15801561171057600080fd5b505af1158015611724573d6000803e3d6000fd5b50506040517f3146637e0000000000000000000000000000000000000000000000000000000081526001600160a01b0387811660048301526000935084169150633146637e9060240160206040518083038186803b15801561178557600080fd5b505afa158015611799573d6000803e3d6000fd5b505050506040513d601f19601f820116820180604052508101906117bd9190613e80565b6040517fc130c6390000000000000000000000000000000000000000000000000000000081527fb12a3847d47fefceb164b75823af125f9aa82b76938df0ddf08c04cd314ba37c60048201526001600160a01b0380831660248301528681166044830152919250869182169063c130c63990606401600060405180830381600087803b15801561184c57600080fd5b505af1158015611860573d6000803e3d6000fd5b505050505050509392505050565b60008130331461187d57600080fd5b8b15611cf857604051630da0f6c760e41b81527f71ecc01da16acc23ab0eca549b0aaa7659ae183a220304fe5072243bc984fd796004820152600160248201526001600160a01b0382169063da0f6c7090604401600060405180830381600087803b1580156118eb57600080fd5b505af11580156118ff573d6000803e3d6000fd5b50508b51604051630da0f6c760e41b81527f84580f9d926113d2c801e908a914b652340b3d8527c171bcea8d1868e92a507c600482015260248101919091526001600160a01b038416925063da0f6c709150604401600060405180830381600087803b15801561196e57600080fd5b505af1158015611982573d6000803e3d6000fd5b50505050896000600681106119a757634e487b7160e01b600052603260045260246000fd5b602002015115806119b9575089516001145b806119c5575089516002145b15611ad25760208a0151604051630da0f6c760e41b81527f50c40dbbb38d5b02b04e0c6d7be02f4391fc8c14a98860284871ef1834c8390b600482015260248101919091526001600160a01b0382169063da0f6c7090604401600060405180830381600087803b158015611a3857600080fd5b505af1158015611a4c573d6000803e3d6000fd5b5050604051631da7c90d60e11b81527f0bfac56541ded449415df8f96f54b002e55665d7fd2fafc884184e8c17f3c77260048201526001600160a01b038c8116602483015284169250633b4f921a9150604401600060405180830381600087803b158015611ab957600080fd5b505af1158015611acd573d6000803e3d6000fd5b505050505b895160021415611b63576040808b01519051630da0f6c760e41b81527f93cc40268a57b3f7e5eb22a016a12d19010736289cceac5742a116fea3491b35600482015260248101919091526001600160a01b0382169063da0f6c7090604401600060405180830381600087803b158015611b4a57600080fd5b505af1158015611b5e573d6000803e3d6000fd5b505050505b89516003148015611b7357508615155b15611cf8576040516317ba7d8560e01b81527fcad7b0867188190920a10bf710c45443f6358175d56a759e7dc109e6d7b5d75360048201526000906001600160a01b038316906317ba7d859060240160206040518083038186803b158015611bda57600080fd5b505afa158015611bee573d6000803e3d6000fd5b505050506040513d601f19601f82011682018060405250810190611c129190613e80565b905060005b60ff8116891115611cf557816001600160a01b031663adabe1cc848c8c8560ff16818110611c5557634e487b7160e01b600052603260045260246000fd5b9050602002016020810190611c6a9190613e5d565b6040517fffffffff0000000000000000000000000000000000000000000000000000000060e085901b1681526001600160a01b03928316600482015291166024820152604401600060405180830381600087803b158015611cca57600080fd5b505af1158015611cde573d6000803e3d6000fd5b505050508080611ced90614df5565b915050611c17565b50505b8a15611dbb57604051630da0f6c760e41b81527f2073e6ba5c75026b006fdd165596d94b89cada2e00d8e44a99d422de8ea467e06004820152600160248201526001600160a01b0382169063da0f6c7090604401600060405180830381600087803b158015611d6657600080fd5b505af1158015611d7a573d6000803e3d6000fd5b50505050611dbb818b600360068110611da357634e487b7160e01b600052603260045260246000fd5b602002015160a08d015160808e01518a908a8a612f6f565b509a9950505050505050505050565b600081303314611dd957600080fd5b8a15611def57611def818b8b8b8b8b8b8b6131ac565b806001600160a01b0316630b1ca49a826001600160a01b03166348f7f2a36040518163ffffffff1660e01b815260040160206040518083038186803b158015611e3757600080fd5b505afa158015611e4b573d6000803e3d6000fd5b505050506040513d601f19601f82011682018060405250810190611e6f9190613e80565b6040517fffffffff0000000000000000000000000000000000000000000000000000000060e084901b1681526001600160a01b039091166004820152602401600060405180830381600087803b158015611ec857600080fd5b505af1158015611edc573d6000803e3d6000fd5b50506040517f0b1ca49a0000000000000000000000000000000000000000000000000000000081523060048201526001600160a01b0384169250630b1ca49a9150602401600060405180830381600087803b158015611f3a57600080fd5b505af1158015611f4e573d6000803e3d6000fd5b50505050509998505050505050505050565b600081303314611f6f57600080fd5b8b15611dbb57604051630da0f6c760e41b81527f96b394ec661f77cbb65c26efb1a3308a7405b2ad904ca7bd203e7a1c357372496004820152600160248201526001600160a01b0382169063da0f6c7090604401600060405180830381600087803b158015611fdd57600080fd5b505af1158015611ff1573d6000803e3d6000fd5b50505050612004818c8c8c8c8c8c6134eb565b8860031415611dbb57611dbb818c8c88886135d9565b60008130331461202957600080fd5b6040517f9bb2008400000000000000000000000000000000000000000000000000000000815286906001600160a01b03821690639bb20084906120749085908a908a90600401614a69565b600060405180830381600087803b15801561208e57600080fd5b505af11580156120a2573d6000803e3d6000fd5b505050505050949350505050565b6000853033146120bf57600080fd5b604051630da0f6c760e41b81527f64c49ee5084f4940c312104c41603e43791b03dad28152afd6eadb5b960a8a876004820152602481018b90526001600160a01b0382169063da0f6c7090604401600060405180830381600087803b15801561212757600080fd5b505af115801561213b573d6000803e3d6000fd5b5050604051631da7c90d60e11b81527f8987d08c67963e4cacd5e5936c122a968c66853d58299dd822c194222710983960048201526001600160a01b038c8116602483015284169250633b4f921a9150604401600060405180830381600087803b1580156121a857600080fd5b505af11580156121bc573d6000803e3d6000fd5b5050604051630da0f6c760e41b81527f04989ed5917c0c67758402dc7b3f0021af60355e4106333724ff89edb3cef8556004820152602481018b90526001600160a01b038416925063da0f6c709150604401600060405180830381600087803b15801561222857600080fd5b505af115801561223c573d6000803e3d6000fd5b5050604051630da0f6c760e41b81527f9876c0f0505bfb2b1c38d3bbd25ba13159172cd0868972d76927723f5a9480fc6004820152853560248201526001600160a01b038416925063da0f6c709150604401600060405180830381600087803b1580156122a857600080fd5b505af11580156122bc573d6000803e3d6000fd5b5050604051630da0f6c760e41b81527fb4c601c38beae7eebb719eda3438f59fcbfd4c6dd7d38c00665b6fd5b432df326004820152602086013560248201526001600160a01b038416925063da0f6c709150604401600060405180830381600087803b15801561232b57600080fd5b505af115801561233f573d6000803e3d6000fd5b505060408051630da0f6c760e41b81527f5b1db2a99ea07a11cfaecd49105623ca4735b50f1788d96b1bac788d36a5bcb260048201529086013560248201526001600160a01b038416925063da0f6c709150604401600060405180830381600087803b1580156123ae57600080fd5b505af11580156123c2573d6000803e3d6000fd5b5050604051630da0f6c760e41b81527f18ef0b57fe939edb640a200fdf533493bd8f26a274151543a109b64c857e20f3600482015260ff891660248201526001600160a01b038416925063da0f6c709150604401600060405180830381600087803b15801561243057600080fd5b505af1158015612444573d6000803e3d6000fd5b505050508260026006811061246957634e487b7160e01b600052603260045260246000fd5b6020020135600214156124f757604051630da0f6c760e41b81527f0e95730315979b4709b23500dcc4c5a99efa79e8d8a378832595b7033c4f88226004820152602481018690526001600160a01b0382169063da0f6c7090604401600060405180830381600087803b1580156124de57600080fd5b505af11580156124f2573d6000803e3d6000fd5b505050505b6040830135158061250c575060016040840135145b8061251b575060408301356002145b156125a257604051631da7c90d60e11b81527fe52ad936f38348d80ee24f7c89aa5f1eef01716e2edef2f9a86657e208816c6660048201526001600160a01b038581166024830152821690633b4f921a90604401600060405180830381600087803b15801561258957600080fd5b505af115801561259d573d6000803e3d6000fd5b505050505b604051630da0f6c760e41b81527f0324de13a5a6e302ddb95a9fdf81cc736fc8acee2abe558970daac27395904e76004820152606084013560248201526001600160a01b0382169063da0f6c7090604401600060405180830381600087803b15801561260d57600080fd5b505af1158015612621573d6000803e3d6000fd5b5050604051630da0f6c760e41b81527fe815a3c082eed7f7f7baab546f11a8718682c0eb3017b099ddc301a92f6673e36004820152608086013560248201526001600160a01b038416925063da0f6c709150604401600060405180830381600087803b15801561269057600080fd5b505af11580156126a4573d6000803e3d6000fd5b5050604051630da0f6c760e41b81527f730faccfe82f70711a34ce5202c6e1b1f79f421c16fcef745a9d92d06a7c0d4c600482015260a086013560248201526001600160a01b038416925063da0f6c709150604401600060405180830381600087803b15801561271357600080fd5b505af1158015612727573d6000803e3d6000fd5b505050505098975050505050505050565b80156128195760005b60ff811682111561281757836001600160a01b031663dc929f4a84848460ff1681811061277e57634e487b7160e01b600052603260045260246000fd5b90506020020160208101906127939190613e5d565b6040517fffffffff0000000000000000000000000000000000000000000000000000000060e084901b1681526001600160a01b039091166004820152602401600060405180830381600087803b1580156127ec57600080fd5b505af1158015612800573d6000803e3d6000fd5b50505050808061280f90614df5565b915050612741565b505b505050565b60608161285e57505060408051808201909152600181527f3000000000000000000000000000000000000000000000000000000000000000602082015290565b8160005b8115612888578061287281614dbc565b91506128819050600a83614d65565b9150612862565b60008167ffffffffffffffff8111156128b157634e487b7160e01b600052604160045260246000fd5b6040519080825280601f01601f1916602001820160405280156128db576020820181803683370190505b5090505b841561296c576128f0600183614d79565b91506128fd600a86614e15565b612908906030614d4d565b60f81b81838151811061292b57634e487b7160e01b600052603260045260246000fd5b60200101907effffffffffffffffffffffffffffffffffffffffffffffffffffffffffffff1916908160001a905350612965600a86614d65565b94506128df565b949350505050565b604051630da0f6c760e41b81527fee63cc82ca6990a4cc5fa3ca10d8a5281ae1758a8d8f22892c4badb7cacd111e6004820152602481018890526001600160a01b0389169063da0f6c7090604401600060405180830381600087803b1580156129dc57600080fd5b505af11580156129f0573d6000803e3d6000fd5b5050604051630da0f6c760e41b81527f18ccfaf5deb9f2b0bd666344fa9c46950fbcee85fbfd05c3959876dfe502c2096004820152602481018990526001600160a01b038b16925063da0f6c709150604401600060405180830381600087803b158015612a5c57600080fd5b505af1158015612a70573d6000803e3d6000fd5b5050604051630da0f6c760e41b81527f777270e51451e60c2ce5118fc8e5844441dcc4d102e9052e60fb41312dbb848a6004820152602481018890526001600160a01b038b16925063da0f6c709150604401600060405180830381600087803b158015612adc57600080fd5b505af1158015612af0573d6000803e3d6000fd5b5050604051630da0f6c760e41b81527f7789eea44dccd66529026559d1b36215cb5766016b41a8a8f16e08b2ec8758376004820152602481018790526001600160a01b038b16925063da0f6c709150604401600060405180830381600087803b158015612b5c57600080fd5b505af1158015612b70573d6000803e3d6000fd5b5050604051630da0f6c760e41b81527fd0dad4aff06879b1b839b3b8b56f7ec287c8ccfaf9a1461575d34b45effb2ca36004820152602481018690526001600160a01b038b16925063da0f6c709150604401600060405180830381600087803b158015612bdc57600080fd5b505af1158015612bf0573d6000803e3d6000fd5b505050508260021415612c7e57604051630da0f6c760e41b81527f656f80c3ee5e8b049b7028f53c3d8f66f585b411116738cd6604ce8e8deb3a926004820152602481018390526001600160a01b0389169063da0f6c7090604401600060405180830381600087803b158015612c6557600080fd5b505af1158015612c79573d6000803e3d6000fd5b505050505b821580612c8b5750826001145b80612c965750826002145b1561122157604051631da7c90d60e11b81527ff60c24a553194691fd513f91f28ce90d85b87ab669703faa0b848c72a41c692360048201526001600160a01b038281166024830152891690633b4f921a906044015b600060405180830381600087803b158015612d0557600080fd5b505af1158015612d19573d6000803e3d6000fd5b505050505050505050505050565b604051630da0f6c760e41b81527f112aea211656a3cfbf863b85e1ea090785899c30bd783708bb07b5a9049e5c326004820152602481018790526001600160a01b0388169063da0f6c7090604401600060405180830381600087803b158015612d8f57600080fd5b505af1158015612da3573d6000803e3d6000fd5b505050508560001480612db65750856001145b80612dc15750856002145b15612ec857604051630da0f6c760e41b81527f308a2ac7f1fce200f70e879e51cb346dfa5bc50cc3ffd14e12510d1fbaecb3526004820152602481018690526001600160a01b0388169063da0f6c7090604401600060405180830381600087803b158015612e2e57600080fd5b505af1158015612e42573d6000803e3d6000fd5b5050604051631da7c90d60e11b81527f31cf49cb2c53ac34ebe77513f2222803ae1f2e89c781171ca472d273e659357560048201526001600160a01b0387811660248301528a169250633b4f921a9150604401600060405180830381600087803b158015612eaf57600080fd5b505af1158015612ec3573d6000803e3d6000fd5b505050505b8560021415612f5257604051630da0f6c760e41b81527f5b0d0dc46f84f7703b74bcc9981b23b0ddbcdc040dd1c5c313bc64f7ab01ba886004820152602481018490526001600160a01b0388169063da0f6c7090604401600060405180830381600087803b158015612f3957600080fd5b505af1158015612f4d573d6000803e3d6000fd5b505050505b8560031415612f6657612f6687838361373e565b50505050505050565b851580612f7c5750856001145b80612f875750856002145b1561308e57604051630da0f6c760e41b81527ff6d5f030b79ca78dad001b87a49239ec96be97e62d13501da94c9a392700509e6004820152602481018690526001600160a01b0388169063da0f6c7090604401600060405180830381600087803b158015612ff457600080fd5b505af1158015613008573d6000803e3d6000fd5b5050604051631da7c90d60e11b81527f30091caaedd0994beeeeb3b7b5734296263687ae0126aaf79e5e0f8e5c1706b260048201526001600160a01b0387811660248301528a169250633b4f921a9150604401600060405180830381600087803b15801561307557600080fd5b505af1158015613089573d6000803e3d6000fd5b505050505b856002141561311857604051630da0f6c760e41b81527fb34f156369747125f679c86d97f51861a5a2a9f927a1addd4354acbaaa88ae576004820152602481018490526001600160a01b0388169063da0f6c7090604401600060405180830381600087803b1580156130ff57600080fd5b505af1158015613113573d6000803e3d6000fd5b505050505b604051630da0f6c760e41b81527f57901982635f8a470a3648422f8f769cf08dc2057489be5bf0099fcb44f7d43c6004820152602481018790526001600160a01b0388169063da0f6c7090604401600060405180830381600087803b15801561318057600080fd5b505af1158015613194573d6000803e3d6000fd5b505050508560031415612f6657612f668783836138c1565b604051630da0f6c760e41b81527f522d712abf06d7a4ec6dac3c77461903ee7523b623709d23acad0c6ae24dccc26004820152600160248201526001600160a01b0389169063da0f6c7090604401600060405180830381600087803b15801561321457600080fd5b505af1158015613228573d6000803e3d6000fd5b5050604051630da0f6c760e41b81527fb1f9461b62129e5e1283e29f3e1ced18d2e86af86241cfcb424f6ba4fb7f454c6004820152602481018a90526001600160a01b038b16925063da0f6c709150604401600060405180830381600087803b15801561329457600080fd5b505af11580156132a8573d6000803e3d6000fd5b5050604051630da0f6c760e41b81527f46021a9d9de6e72975a5d8d7d00e797ad1d45b789f6119571dc599350897dcb56004820152602481018990526001600160a01b038b16925063da0f6c709150604401600060405180830381600087803b15801561331457600080fd5b505af1158015613328573d6000803e3d6000fd5b50505050866000148061333b5750866001145b806133465750866002145b1561344d57604051630da0f6c760e41b81527fa8b1c741b883d35410d6186bbec4278982b7e509115b304ea7443665f139cc5a6004820152602481018690526001600160a01b0389169063da0f6c7090604401600060405180830381600087803b1580156133b357600080fd5b505af11580156133c7573d6000803e3d6000fd5b5050604051631da7c90d60e11b81527fea1256a286695b4929ba634b6e0a36015d2a908045a29f78da51cee1a0d82b6b60048201526001600160a01b0384811660248301528b169250633b4f921a9150604401600060405180830381600087803b15801561343457600080fd5b505af1158015613448573d6000803e3d6000fd5b505050505b86600214156134d757604051630da0f6c760e41b81527f461c66a772f861188d09f9684d5e0953afbfc97e19709fe20d9f2757f401e7816004820152602481018590526001600160a01b0389169063da0f6c7090604401600060405180830381600087803b1580156134be57600080fd5b505af11580156134d2573d6000803e3d6000fd5b505050505b866003141561122157611221888484613a44565b6040516317ba7d8560e01b81527f2207fd6117465cefcba0abc867150698c0464aa41a293ec29ca01b67a6350c3c60048201526000906001600160a01b038916906317ba7d859060240160206040518083038186803b15801561354d57600080fd5b505afa158015613561573d6000803e3d6000fd5b505050506040513d601f19601f820116820180604052508101906135859190613e80565b6040517f225286850000000000000000000000000000000000000000000000000000000081529091506001600160a01b03821690632252868590612ceb908b908b908b908b908b908a908c90600401614a95565b8015613737576040516317ba7d8560e01b81527f2207fd6117465cefcba0abc867150698c0464aa41a293ec29ca01b67a6350c3c60048201526000906001600160a01b038716906317ba7d859060240160206040518083038186803b15801561364157600080fd5b505afa158015613655573d6000803e3d6000fd5b505050506040513d601f19601f820116820180604052508101906136799190613e80565b905060005b60ff8116831115612f6657816001600160a01b031663f542c86a88888888888760ff168181106136be57634e487b7160e01b600052603260045260246000fd5b90506020020160208101906136d39190613e5d565b6040518563ffffffff1660e01b81526004016136f294939291906147df565b600060405180830381600087803b15801561370c57600080fd5b505af1158015613720573d6000803e3d6000fd5b50505050808061372f90614df5565b91505061367e565b5050505050565b8015612819576040516317ba7d8560e01b81527f6f48e16963713446db50a1503860d8e1fc3c888da56a85afcaa6dc29503cc61060048201526000906001600160a01b038516906317ba7d859060240160206040518083038186803b1580156137a657600080fd5b505afa1580156137ba573d6000803e3d6000fd5b505050506040513d601f19601f820116820180604052508101906137de9190613e80565b905060005b60ff811683111561373757816001600160a01b03166383dd31458686868560ff1681811061382157634e487b7160e01b600052603260045260246000fd5b90506020020160208101906138369190613e5d565b6040517fffffffff0000000000000000000000000000000000000000000000000000000060e085901b1681526001600160a01b03928316600482015291166024820152604401600060405180830381600087803b15801561389657600080fd5b505af11580156138aa573d6000803e3d6000fd5b5050505080806138b990614df5565b9150506137e3565b8015612819576040516317ba7d8560e01b81527f7a8526bca00f0726b2fab8c3bfd5b00bfa84d07f111e48263b13de605eefcdda60048201526000906001600160a01b038516906317ba7d859060240160206040518083038186803b15801561392957600080fd5b505afa15801561393d573d6000803e3d6000fd5b505050506040513d601f19601f820116820180604052508101906139619190613e80565b905060005b60ff811683111561373757816001600160a01b031663c7aa00dd8686868560ff168181106139a457634e487b7160e01b600052603260045260246000fd5b90506020020160208101906139b99190613e5d565b6040517fffffffff0000000000000000000000000000000000000000000000000000000060e085901b1681526001600160a01b03928316600482015291166024820152604401600060405180830381600087803b158015613a1957600080fd5b505af1158015613a2d573d6000803e3d6000fd5b505050508080613a3c90614df5565b915050613966565b8015612819576040516317ba7d8560e01b81527f2207fd6117465cefcba0abc867150698c0464aa41a293ec29ca01b67a6350c3c60048201526000906001600160a01b038516906317ba7d859060240160206040518083038186803b158015613aac57600080fd5b505afa158015613ac0573d6000803e3d6000fd5b505050506040513d601f19601f82011682018060405250810190613ae49190613e80565b905060005b60ff811683111561373757816001600160a01b03166307832bfd8686868560ff16818110613b2757634e487b7160e01b600052603260045260246000fd5b9050602002016020810190613b3c9190613e5d565b6040517fffffffff0000000000000000000000000000000000000000000000000000000060e085901b1681526001600160a01b03928316600482015291166024820152604401600060405180830381600087803b158015613b9c57600080fd5b505af1158015613bb0573d6000803e3d6000fd5b505050508080613bbf90614df5565b915050613ae9565b604051806101c00160405280606081526020016060815260200160608152602001606081526020016060815260200160608152602001606081526020016060815260200160608152602001606081526020016000151581526020016060815260200160006001600160a01b03168152602001613c41613c46565b905290565b6040518061012001604052806009905b604080518082019091526000815260606020820152815260200190600190039081613c565790505090565b600060405160c0810181811067ffffffffffffffff82111715613ca657613ca6614e55565b6040529050808260c08101851015613cbd57600080fd5b60005b6006811015613cdf578135835260209283019290910190600101613cc0565b50505092915050565b8035613cf381614e6b565b919050565b60008083601f840112613d09578182fd5b50813567ffffffffffffffff811115613d20578182fd5b6020830191508360208260051b8501011115613d3b57600080fd5b9250929050565b60008083601f840112613d53578182fd5b50813567ffffffffffffffff811115613d6a578182fd5b602083019150836020606083028501011115613d3b57600080fd5b600082601f830112613d95578081fd5b60405161014080820182811067ffffffffffffffff82111715613dba57613dba614e55565b6040528184828101871015613dcd578485fd5b8492505b600a831015613df157803582526001929092019160209182019101613dd1565b509195945050505050565b80358015158114613cf357600080fd5b60008083601f840112613e1d578182fd5b50813567ffffffffffffffff811115613e34578182fd5b602083019150836020828501011115613d3b57600080fd5b803560ff81168114613cf357600080fd5b600060208284031215613e6e578081fd5b8135613e7981614e6b565b9392505050565b600060208284031215613e91578081fd5b8151613e7981614e6b565b600080600060608486031215613eb0578182fd5b8335613ebb81614e6b565b92506020840135613ecb81614e6b565b91506040840135613edb81614e6b565b809150509250925092565b600080600080600060808688031215613efd578283fd5b8535613f0881614e6b565b94506020860135613f1881614e6b565b9350604086013567ffffffffffffffff811115613f33578384fd5b613f3f88828901613d42565b9094509250506060860135613f5381614e6b565b809150509295509295909350565b60008060008060608587031215613f76578182fd5b8435613f8181614e6b565b9350602085013567ffffffffffffffff811115613f9c578283fd5b613fa887828801613d42565b9094509250506040850135613fbc81614e6b565b939692955090935050565b60008060008060608587031215613fdc578182fd5b8435613fe781614e6b565b9350602085013567ffffffffffffffff811115614002578283fd5b613fa887828801613e0c565b600080600060408486031215614022578081fd5b833567ffffffffffffffff811115614038578182fd5b61404486828701613cf8565b9094509250506020840135613edb81614e6b565b6000806000806000806000610200888a031215614073578485fd5b88601f890112614081578485fd5b614089614ccf565b808960408b018c81111561409b578889fd5b885b60028110156140c4576140af83613dfc565b8552602094850194929092019160010161409d565b50829a506140d28d82613d85565b9950505050506140e56101808901613ce8565b94506101a088013567ffffffffffffffff811115614101578283fd5b61410d8a828b01613cf8565b909550935061412190506101c08901613ce8565b91506141306101e08901613ce8565b905092959891949750929550565b60006020808385031215614150578182fd5b823567ffffffffffffffff80821115614167578384fd5b8185019150601f868184011261417b578485fd5b614183614cf8565b80848961012087011115614195578788fd5b875b6009811015614254578135868111156141ae57898afd5b87016040818d0312156141bf57898afd5b6141c7614ccf565b81356141d281614e6b565b8152818a0135888111156141e4578b8cfd5b8083019250508c878301126141f7578a8bfd5b81358881111561420957614209614e55565b61421a8b601f198a84011601614d1c565b8181528e8c83860101111561422d578c8dfd5b818c85018d8301379081018b018c9052818b01528552509287019290870190600101614197565b50909998505050505050505050565b600060208284031215614274578081fd5b613e7982613dfc565b6000806000806000806000806000806101a08b8d03121561429c578384fd5b6142a58b613dfc565b99506142b360208c01613dfc565b98508b605f8c01126142c3578384fd5b6142d08c60408d01613c81565b97506142df6101008c01613ce8565b96506101208b013567ffffffffffffffff808211156142fc578586fd5b6143088e838f01613cf8565b909850965086915061431d6101408e01613ce8565b95506101608d0135915080821115614333578485fd5b506143408d828e01613cf8565b909450925061435490506101808c01613ce8565b90509295989b9194979a5092959850565b6000806000806000806000806000806101008b8d031215614384578384fd5b61438d8b613dfc565b995060208b013567ffffffffffffffff808211156143a9578586fd5b6143b58e838f01613e0c565b909b50995060408d0135985060608d0135975060808d0135965060a08d013591506143df82614e6b565b90945060c08c013590808211156143f4578485fd5b506144018d828e01613cf8565b90945092505060e08b013561441581614e6b565b809150509295989b9194979a5092959850565b60008060008060008060008060006101008a8c031215614446578283fd5b61444f8a613dfc565b985060208a0135975060408a0135965060608a0135955060808a0135945060a08a013567ffffffffffffffff811115614486578384fd5b6144928c828d01613cf8565b90955093505060c08a01356144a681614e6b565b915060e08a01356144b681614e6b565b809150509295985092959850929598565b6000602082840312156144d8578081fd5b813567ffffffffffffffff8111156144ee578182fd5b82016104008185031215613e79578182fd5b6000806000806000806000806101a0808a8c03121561451d578283fd5b8935985060208a013561452f81614e6b565b975060408a0135965060608a013561454681614e6b565b955061455460808b01613e4c565b945060a08a0135935060c08a013561456b81614e6b565b92508981018b101561457b578182fd5b5060e0890190509295985092959890939650565b6000602082840312156145a0578081fd5b613e7982613e4c565b81835260006020808501945082825b858110156145e65781356145cb81614e6b565b6001600160a01b0316875295820195908201906001016145b8565b509495945050505050565b81835260006020808501945082825b858110156145e657813587528282013561461981614e6b565b6001600160a01b0316878401526040828101356fffffffffffffffffffffffffffffffff811680821461464a578687fd5b91890191909152506060968701969190910190600101614600565b8060005b6006811015612817578151845260209384019390910190600101614669565b8183528181602085013750600080602083850101526020601f19601f840116840101905092915050565b600082516146c4818460208701614d90565b9190910192915050565b7f6c6f772d6c6576656c2063616c6c206f662073756d6d6f6e466c657844616f0081526000825161470681601f850160208701614d90565b7f206661696c656400000000000000000000000000000000000000000000000000601f939091019283015250602601919050565b60006001600160a01b0380881683528087166020840152608060408401526147666080840186886145f1565b91508084166060840152509695505050505050565b60006001600160a01b038088168352808716602084015260806040840152614766608084018688614688565b60006001600160a01b038087168352606060208401526147cb6060840186886145f1565b915080841660408401525095945050505050565b60006001600160a01b038087168352606060208401526147cb606084018688614688565b6040815260006148176040830185876145a9565b90506001600160a01b0383166020830152949350505050565b6000610200828a835b600281101561485a5781511515835260209283019290910190600101614839565b5050506040830189835b600a811015614883578151835260209283019290910190600101614864565b5050506001600160a01b038816610180840152806101a08401526148aa81840187896145a9565b9150506148c36101c08301856001600160a01b03169052565b6001600160a01b0383166101e083015298975050505050505050565b60006101a08c151583528b151560208401526148fe604084018c614665565b6001600160a01b03808b16610100850152816101208501526149238285018a8c6145a9565b91508088166101408501528382036101608501526149428287896145a9565b925080851661018085015250509b9a5050505050505050505050565b60006101008c1515835280602084015261497b8184018c8e614688565b905060ff8a1660408401528860608401528760808401526001600160a01b0380881660a085015283820360c08501526149b58287896145a9565b925080851660e085015250509b9a5050505050505050505050565b60006101008b1515835260ff8b1660208401528960408401528860608401528760808401528060a0840152614a0881840187896145a9565b9150506001600160a01b0380851660c084015280841660e0840152509a9950505050505050505050565b60006001600160a01b03808716835280861660208401525060606040830152614a5f6060830184866145f1565b9695505050505050565b6001600160a01b0384168152604060208201526000614a8c6040830184866145f1565b95945050505050565b60006001600160a01b03808a16835260c06020840152614ab960c08401898b614688565b60ff97909716604084015260608301959095525091909216608082015260a001529392505050565b60208152600061296c602083018486614688565b604081526000614817604083018587614688565b6020815260008251806020840152614b28816040850160208701614d90565b601f01601f19169190910160400192915050565b8881526001600160a01b03888116602083015260ff888116604084015287821660608401528616608083015260a08201859052831660c08201526101a08101614b8860e0830184614665565b9998505050505050505050565b6000808335601e19843603018112614bab578283fd5b83018035915067ffffffffffffffff821115614bc5578283fd5b6020019150600581901b3603821315613d3b57600080fd5b6000808335601e19843603018112614bf3578283fd5b83018035915067ffffffffffffffff821115614c0d578283fd5b6020019150606081023603821315613d3b57600080fd5b6000808335601e19843603018112614c3a578283fd5b83018035915067ffffffffffffffff821115614c54578283fd5b602001915036819003821315613d3b57600080fd5b600082357fffffffffffffffffffffffffffffffffffffffffffffffffffffffffffffff418336030181126146c4578182fd5b600082357fffffffffffffffffffffffffffffffffffffffffffffffffffffffffffffff618336030181126146c4578182fd5b6040805190810167ffffffffffffffff81118282101715614cf257614cf2614e55565b60405290565b604051610120810167ffffffffffffffff81118282101715614cf257614cf2614e55565b604051601f8201601f1916810167ffffffffffffffff81118282101715614d4557614d45614e55565b604052919050565b60008219821115614d6057614d60614e29565b500190565b600082614d7457614d74614e3f565b500490565b600082821015614d8b57614d8b614e29565b500390565b60005b83811015614dab578181015183820152602001614d93565b838111156128175750506000910152565b60007fffffffffffffffffffffffffffffffffffffffffffffffffffffffffffffffff821415614dee57614dee614e29565b5060010190565b600060ff821660ff811415614e0c57614e0c614e29565b60010192915050565b600082614e2457614e24614e3f565b500690565b634e487b7160e01b600052601160045260246000fd5b634e487b7160e01b600052601260045260246000fd5b634e487b7160e01b600052604160045260246000fd5b6001600160a01b0381168114614e8057600080fd5b5056fea264697066735822122086ba3db79ba694c33802114e8f1325cf5202b23ed56024f37b5dba7f1dadf96e64736f6c63430008040033",
  "linkReferences": {},
  "deployedLinkReferences": {}
}