{
  "_format": "hh-sol-artifact-1",
  "contractName": "Vesting",
  "sourceName": "contracts/Vesting.sol",
  "abi": [
    {
      "inputs": [
        {
          "internalType": "address",
          "name": "bentoboxAddr",
          "type": "address"
        }
      ],
      "stateMutability": "nonpayable",
      "type": "constructor"
    },
    {
      "inputs": [],
      "name": "InvalidStart",
      "type": "error"
    },
    {
      "inputs": [],
      "name": "InvalidStepSetting",
      "type": "error"
    },
    {
      "inputs": [],
      "name": "NotOwner",
      "type": "error"
    },
    {
      "inputs": [],
      "name": "NotVestReceiver",
      "type": "error"
    },
    {
      "anonymous": false,
      "inputs": [
        {
          "indexed": true,
          "internalType": "uint256",
          "name": "vestId",
          "type": "uint256"
        },
        {
          "indexed": true,
          "internalType": "uint256",
          "name": "ownerAmount",
          "type": "uint256"
        },
        {
          "indexed": true,
          "internalType": "uint256",
          "name": "recipientAmount",
          "type": "uint256"
        },
        {
          "indexed": false,
          "internalType": "address",
          "name": "token",
          "type": "address"
        },
        {
          "indexed": false,
          "internalType": "bool",
          "name": "toBentoBox",
          "type": "bool"
        }
      ],
      "name": "CancelVesting",
      "type": "event"
    },
    {
      "anonymous": false,
      "inputs": [
        {
          "indexed": true,
          "internalType": "uint256",
          "name": "vestId",
          "type": "uint256"
        },
        {
          "indexed": false,
          "internalType": "address",
          "name": "token",
          "type": "address"
        },
        {
          "indexed": false,
          "internalType": "address",
          "name": "nftToken",
          "type": "address"
        },
        {
          "indexed": false,
          "internalType": "uint256",
          "name": "tokenId",
          "type": "uint256"
        },
        {
          "indexed": false,
          "internalType": "uint256",
          "name": "startTime",
          "type": "uint256"
        },
        {
          "indexed": false,
          "internalType": "uint256",
          "name": "endTime",
          "type": "uint256"
        },
        {
          "indexed": false,
          "internalType": "uint256",
          "name": "cliffEndTime",
          "type": "uint256"
        },
        {
          "indexed": false,
          "internalType": "uint256",
          "name": "depositAmount",
          "type": "uint256"
        },
        {
          "indexed": false,
          "internalType": "uint256",
          "name": "cliffAmount",
          "type": "uint256"
        }
      ],
      "name": "CreateNFTVesting",
      "type": "event"
    },
    {
      "anonymous": false,
      "inputs": [
        {
          "indexed": true,
          "internalType": "uint256",
          "name": "vestId",
          "type": "uint256"
        },
        {
          "indexed": false,
          "internalType": "address",
          "name": "token",
          "type": "address"
        },
        {
          "indexed": true,
          "internalType": "address",
          "name": "recipient",
          "type": "address"
        },
        {
          "indexed": false,
          "internalType": "uint32",
          "name": "start",
          "type": "uint32"
        },
        {
          "indexed": false,
          "internalType": "uint32",
          "name": "cliffDuration",
          "type": "uint32"
        },
        {
          "indexed": false,
          "internalType": "uint32",
          "name": "stepDuration",
          "type": "uint32"
        },
        {
          "indexed": false,
          "internalType": "uint32",
          "name": "steps",
          "type": "uint32"
        },
        {
          "indexed": false,
          "internalType": "uint128",
          "name": "cliffShares",
          "type": "uint128"
        },
        {
          "indexed": false,
          "internalType": "uint128",
          "name": "stepShares",
          "type": "uint128"
        }
      ],
      "name": "CreateVesting",
      "type": "event"
    },
    {
      "anonymous": false,
      "inputs": [
        {
          "indexed": true,
          "internalType": "uint256",
          "name": "vestId",
          "type": "uint256"
        },
        {
          "indexed": true,
          "internalType": "address",
          "name": "newOwner",
          "type": "address"
        }
      ],
      "name": "LogUpdateOwner",
      "type": "event"
    },
    {
      "anonymous": false,
      "inputs": [
        {
          "indexed": true,
          "internalType": "uint256",
          "name": "vestId",
          "type": "uint256"
        },
        {
          "indexed": true,
          "internalType": "address",
          "name": "token",
          "type": "address"
        },
        {
          "indexed": true,
          "internalType": "uint256",
          "name": "amount",
          "type": "uint256"
        },
        {
          "indexed": false,
          "internalType": "bool",
          "name": "toBentoBox",
          "type": "bool"
        }
      ],
      "name": "Withdraw",
      "type": "event"
    },
    {
      "inputs": [],
      "name": "PERCENTAGE_PRECISION",
      "outputs": [
        {
          "internalType": "uint256",
          "name": "",
          "type": "uint256"
        }
      ],
      "stateMutability": "view",
      "type": "function"
    },
    {
      "inputs": [],
      "name": "bentobox",
      "outputs": [
        {
          "internalType": "address",
          "name": "",
          "type": "address"
        }
      ],
      "stateMutability": "view",
      "type": "function"
    },
    {
      "inputs": [
        {
          "internalType": "uint256",
          "name": "vestId",
          "type": "uint256"
        }
      ],
      "name": "checkValidNFTVestId",
      "outputs": [
        {
          "internalType": "bool",
          "name": "",
          "type": "bool"
        }
      ],
      "stateMutability": "view",
      "type": "function"
    },
    {
      "inputs": [
        {
          "internalType": "uint256",
          "name": "vestId",
          "type": "uint256"
        }
      ],
      "name": "checkValidVestId",
      "outputs": [
        {
          "internalType": "bool",
          "name": "",
          "type": "bool"
        }
      ],
      "stateMutability": "view",
      "type": "function"
    },
    {
      "inputs": [
        {
          "components": [
            {
              "internalType": "string",
              "name": "name",
              "type": "string"
            },
            {
              "internalType": "string",
              "name": "description",
              "type": "string"
            },
            {
              "internalType": "address",
              "name": "approver",
              "type": "address"
            },
            {
              "internalType": "address",
              "name": "recipientAddr",
              "type": "address"
            },
            {
              "internalType": "address",
              "name": "toenAddr",
              "type": "address"
            },
            {
              "internalType": "uint256",
              "name": "vestingInterval",
              "type": "uint256"
            },
            {
              "internalType": "uint256",
              "name": "vestingEndTime",
              "type": "uint256"
            },
            {
              "internalType": "uint256",
              "name": "vestingStartTime",
              "type": "uint256"
            },
            {
              "internalType": "uint256",
              "name": "vestingCliffEndTime",
              "type": "uint256"
            },
            {
              "internalType": "uint256",
              "name": "depositAmount",
              "type": "uint256"
            },
            {
              "internalType": "uint256",
              "name": "vestingCliffLockAmount",
              "type": "uint256"
            }
          ],
          "internalType": "struct IVesting.VestParams",
          "name": "params",
          "type": "tuple"
        },
        {
          "internalType": "address",
          "name": "erc721token",
          "type": "address"
        }
      ],
      "name": "createNFTVesting",
      "outputs": [],
      "stateMutability": "nonpayable",
      "type": "function"
    },
    {
      "inputs": [
        {
          "components": [
            {
              "internalType": "string",
              "name": "name",
              "type": "string"
            },
            {
              "internalType": "string",
              "name": "description",
              "type": "string"
            },
            {
              "internalType": "address",
              "name": "approver",
              "type": "address"
            },
            {
              "internalType": "address",
              "name": "recipientAddr",
              "type": "address"
            },
            {
              "internalType": "address",
              "name": "toenAddr",
              "type": "address"
            },
            {
              "internalType": "uint256",
              "name": "vestingInterval",
              "type": "uint256"
            },
            {
              "internalType": "uint256",
              "name": "vestingEndTime",
              "type": "uint256"
            },
            {
              "internalType": "uint256",
              "name": "vestingStartTime",
              "type": "uint256"
            },
            {
              "internalType": "uint256",
              "name": "vestingCliffEndTime",
              "type": "uint256"
            },
            {
              "internalType": "uint256",
              "name": "depositAmount",
              "type": "uint256"
            },
            {
              "internalType": "uint256",
              "name": "vestingCliffLockAmount",
              "type": "uint256"
            }
          ],
          "internalType": "struct IVesting.VestParams",
          "name": "params",
          "type": "tuple"
        }
      ],
      "name": "createVesting",
      "outputs": [
        {
          "internalType": "uint256",
          "name": "depositedShares",
          "type": "uint256"
        },
        {
          "internalType": "uint256",
          "name": "vestId",
          "type": "uint256"
        },
        {
          "internalType": "uint128",
          "name": "stepShares",
          "type": "uint128"
        }
      ],
      "stateMutability": "payable",
      "type": "function"
    },
    {
      "inputs": [
        {
          "internalType": "address",
          "name": "nftToken",
          "type": "address"
        },
        {
          "internalType": "uint256",
          "name": "tokenId",
          "type": "uint256"
        }
      ],
      "name": "getNFTVestingInfoByTokenId",
      "outputs": [
        {
          "internalType": "string",
          "name": "",
          "type": "string"
        },
        {
          "internalType": "string",
          "name": "",
          "type": "string"
        }
      ],
      "stateMutability": "view",
      "type": "function"
    },
    {
      "inputs": [
        {
          "internalType": "address",
          "name": "token",
          "type": "address"
        },
        {
          "internalType": "uint256",
          "name": "tokenId",
          "type": "uint256"
        }
      ],
      "name": "getRemainingPercentage",
      "outputs": [
        {
          "internalType": "uint256",
          "name": "",
          "type": "uint256"
        },
        {
          "internalType": "uint256",
          "name": "",
          "type": "uint256"
        },
        {
          "internalType": "uint256",
          "name": "",
          "type": "uint256"
        }
      ],
      "stateMutability": "view",
      "type": "function"
    },
    {
      "inputs": [
        {
          "internalType": "address",
          "name": "token",
          "type": "address"
        },
        {
          "internalType": "uint256",
          "name": "tokenId",
          "type": "uint256"
        }
      ],
      "name": "getVestIdByTokenId",
      "outputs": [
        {
          "internalType": "uint256",
          "name": "",
          "type": "uint256"
        }
      ],
      "stateMutability": "view",
      "type": "function"
    },
    {
      "inputs": [
        {
          "internalType": "uint256",
          "name": "vestId",
          "type": "uint256"
        }
      ],
      "name": "nftVestBalance",
      "outputs": [
        {
          "internalType": "uint256",
          "name": "",
          "type": "uint256"
        }
      ],
      "stateMutability": "view",
      "type": "function"
    },
    {
      "inputs": [
        {
          "internalType": "uint256",
          "name": "",
          "type": "uint256"
        }
      ],
      "name": "nftVests",
      "outputs": [
        {
          "components": [
            {
              "internalType": "string",
              "name": "name",
              "type": "string"
            },
            {
              "internalType": "string",
              "name": "description",
              "type": "string"
            }
          ],
          "internalType": "struct VestInfo",
          "name": "vestInfo",
          "type": "tuple"
        },
        {
          "components": [
            {
              "internalType": "uint256",
              "name": "start",
              "type": "uint256"
            },
            {
              "internalType": "uint256",
              "name": "end",
              "type": "uint256"
            },
            {
              "internalType": "uint256",
              "name": "cliffDuration",
              "type": "uint256"
            },
            {
              "internalType": "uint256",
              "name": "stepDuration",
              "type": "uint256"
            }
          ],
          "internalType": "struct VestTimeInfo",
          "name": "vestTimeInfo",
          "type": "tuple"
        },
        {
          "internalType": "address",
          "name": "token",
          "type": "address"
        },
        {
          "internalType": "address",
          "name": "nftToken",
          "type": "address"
        },
        {
          "internalType": "uint256",
          "name": "tokenId",
          "type": "uint256"
        },
        {
          "internalType": "uint256",
          "name": "steps",
          "type": "uint256"
        },
        {
          "internalType": "uint256",
          "name": "cliffShares",
          "type": "uint256"
        },
        {
          "internalType": "uint256",
          "name": "stepShares",
          "type": "uint256"
        },
        {
          "internalType": "uint256",
          "name": "claimed",
          "type": "uint256"
        },
        {
          "internalType": "uint256",
          "name": "total",
          "type": "uint256"
        }
      ],
      "stateMutability": "view",
      "type": "function"
    },
    {
      "inputs": [
        {
          "internalType": "address",
          "name": "",
          "type": "address"
        },
        {
          "internalType": "uint256",
          "name": "",
          "type": "uint256"
        }
      ],
      "name": "tokenIdToVestId",
      "outputs": [
        {
          "internalType": "uint256",
          "name": "",
          "type": "uint256"
        }
      ],
      "stateMutability": "view",
      "type": "function"
    },
    {
      "inputs": [],
      "name": "tokenURIFetcher",
      "outputs": [
        {
          "internalType": "address",
          "name": "",
          "type": "address"
        }
      ],
      "stateMutability": "view",
      "type": "function"
    },
    {
      "inputs": [
        {
          "internalType": "uint256",
          "name": "vestId",
          "type": "uint256"
        },
        {
          "internalType": "address",
          "name": "newOwner",
          "type": "address"
        }
      ],
      "name": "updateOwner",
      "outputs": [],
      "stateMutability": "nonpayable",
      "type": "function"
    },
    {
      "inputs": [
        {
          "internalType": "uint256",
          "name": "vestId",
          "type": "uint256"
        }
      ],
      "name": "vestBalance",
      "outputs": [
        {
          "internalType": "uint256",
          "name": "",
          "type": "uint256"
        }
      ],
      "stateMutability": "view",
      "type": "function"
    },
    {
      "inputs": [],
      "name": "vestIds",
      "outputs": [
        {
          "internalType": "uint256",
          "name": "",
          "type": "uint256"
        }
      ],
      "stateMutability": "view",
      "type": "function"
    },
    {
      "inputs": [
        {
          "internalType": "uint256",
          "name": "",
          "type": "uint256"
        }
      ],
      "name": "vests",
      "outputs": [
        {
          "components": [
            {
              "internalType": "string",
              "name": "name",
              "type": "string"
            },
            {
              "internalType": "string",
              "name": "description",
              "type": "string"
            },
            {
              "internalType": "address",
              "name": "owner",
              "type": "address"
            },
            {
              "internalType": "address",
              "name": "recipient",
              "type": "address"
            }
          ],
          "internalType": "struct IVesting.VestInfo",
          "name": "vestInfo",
          "type": "tuple"
        },
        {
          "components": [
            {
              "internalType": "uint32",
              "name": "start",
              "type": "uint32"
            },
            {
              "internalType": "uint32",
              "name": "end",
              "type": "uint32"
            },
            {
              "internalType": "uint32",
              "name": "cliffDuration",
              "type": "uint32"
            },
            {
              "internalType": "uint32",
              "name": "stepDuration",
              "type": "uint32"
            }
          ],
          "internalType": "struct IVesting.VestTimeInfo",
          "name": "vestTimeInfo",
          "type": "tuple"
        },
        {
          "internalType": "address",
          "name": "token",
          "type": "address"
        },
        {
          "internalType": "uint32",
          "name": "steps",
          "type": "uint32"
        },
        {
          "internalType": "uint128",
          "name": "cliffShares",
          "type": "uint128"
        },
        {
          "internalType": "uint128",
          "name": "stepShares",
          "type": "uint128"
        },
        {
          "internalType": "uint128",
          "name": "claimed",
          "type": "uint128"
        },
        {
          "internalType": "uint256",
          "name": "total",
          "type": "uint256"
        }
      ],
      "stateMutability": "view",
      "type": "function"
    },
    {
      "inputs": [
        {
          "internalType": "uint256",
          "name": "vestId",
          "type": "uint256"
        }
      ],
      "name": "withdraw",
      "outputs": [],
      "stateMutability": "nonpayable",
      "type": "function"
    },
    {
      "inputs": [
        {
          "internalType": "uint256",
          "name": "vestId",
          "type": "uint256"
        }
      ],
      "name": "withdrawFromNFTVest",
      "outputs": [],
      "stateMutability": "nonpayable",
      "type": "function"
    }
  ],
  "bytecode": "0x60806040523480156200001157600080fd5b50604051620051bf380380620051bf8339818101604052810190620000379190620000f1565b80600160006101000a81548173ffffffffffffffffffffffffffffffffffffffff021916908373ffffffffffffffffffffffffffffffffffffffff16021790555060016005819055505062000123565b600080fd5b600073ffffffffffffffffffffffffffffffffffffffff82169050919050565b6000620000b9826200008c565b9050919050565b620000cb81620000ac565b8114620000d757600080fd5b50565b600081519050620000eb81620000c0565b92915050565b6000602082840312156200010a576200010962000087565b5b60006200011a84828501620000da565b91505092915050565b61508c80620001336000396000f3fe6080604052600436106101145760003560e01c806351def556116100a0578063b1f2c11911610064578063b1f2c1191461040d578063b649d0321461044b578063e256888f14610476578063f24f380d146104a1578063fb47e7db146104d357610114565b806351def556146102de57806353e8878b146103225780637192711f1461035f5780637a4334e21461038857806382bb3ac8146103c757610114565b80632c29e196116100e75780632c29e196146101d55780632e1a7d4d146102125780633427dd671461023b57806339b106ff146102785780634ad3c657146102b557610114565b806307d88aad146101195780630df12c931461014457806319f771711461016d5780632bcea736146101aa575b600080fd5b34801561012557600080fd5b5061012e610510565b60405161013b9190613f1f565b60405180910390f35b34801561015057600080fd5b5061016b60048036038101906101669190613f7a565b610534565b005b34801561017957600080fd5b50610194600480360381019061018f9190613f7a565b610aa0565b6040516101a19190613fb6565b60405180910390f35b3480156101b657600080fd5b506101bf610eea565b6040516101cc9190613fb6565b60405180910390f35b3480156101e157600080fd5b506101fc60048036038101906101f79190613ffd565b610ef0565b6040516102099190613fb6565b60405180910390f35b34801561021e57600080fd5b5061023960048036038101906102349190613f7a565b610f4b565b005b34801561024757600080fd5b50610262600480360381019061025d9190613ffd565b611560565b60405161026f9190613fb6565b60405180910390f35b34801561028457600080fd5b5061029f600480360381019061029a9190613f7a565b611585565b6040516102ac9190614058565b60405180910390f35b3480156102c157600080fd5b506102dc60048036038101906102d79190614098565b6115b5565b005b3480156102ea57600080fd5b5061030560048036038101906103009190613f7a565b611fa2565b6040516103199897969594939291906142ab565b60405180910390f35b34801561032e57600080fd5b5061034960048036038101906103449190613f7a565b6122ea565b6040516103569190613fb6565b60405180910390f35b34801561036b57600080fd5b5061038660048036038101906103819190614333565b612597565b005b34801561039457600080fd5b506103af60048036038101906103aa9190613ffd565b6126c9565b6040516103be93929190614373565b60405180910390f35b3480156103d357600080fd5b506103ee60048036038101906103e99190613f7a565b6127e2565b6040516104049a99989796959493929190614452565b60405180910390f35b34801561041957600080fd5b50610434600480360381019061042f9190613ffd565b6129d6565b604051610442929190614542565b60405180910390f35b34801561045757600080fd5b50610460612b84565b60405161046d9190613f1f565b60405180910390f35b34801561048257600080fd5b5061048b612baa565b6040516104989190613fb6565b60405180910390f35b6104bb60048036038101906104b69190614579565b612bb6565b6040516104ca939291906145c2565b60405180910390f35b3480156104df57600080fd5b506104fa60048036038101906104f59190613f7a565b6133d3565b6040516105079190614058565b60405180910390f35b60008054906101000a900473ffffffffffffffffffffffffffffffffffffffff1681565b600061053f826122ea565b90506107ce3360036000858152602001908152602001600020604051806101400160405290816000820160405180604001604052908160008201805461058490614628565b80601f01602080910402602001604051908101604052809291908181526020018280546105b090614628565b80156105fd5780601f106105d2576101008083540402835291602001916105fd565b820191906000526020600020905b8154815290600101906020018083116105e057829003601f168201915b5050505050815260200160018201805461061690614628565b80601f016020809104026020016040519081016040528092919081815260200182805461064290614628565b801561068f5780601f106106645761010080835404028352916020019161068f565b820191906000526020600020905b81548152906001019060200180831161067257829003601f168201915b50505050508152505081526020016002820160405180608001604052908160008201548152602001600182015481526020016002820154815260200160038201548152505081526020016006820160009054906101000a900473ffffffffffffffffffffffffffffffffffffffff1673ffffffffffffffffffffffffffffffffffffffff1673ffffffffffffffffffffffffffffffffffffffff1681526020016007820160009054906101000a900473ffffffffffffffffffffffffffffffffffffffff1673ffffffffffffffffffffffffffffffffffffffff1673ffffffffffffffffffffffffffffffffffffffff1681526020016008820154815260200160098201548152602001600a8201548152602001600b8201548152602001600c8201548152602001600d8201548152505061340390919063ffffffff16565b6003600084815260200190815260200160002060008201518160000160008201518160000190816107ff9190614834565b5060208201518160010190816108159190614834565b50505060208201518160020160008201518160000155602082015181600101556040820151816002015560608201518160030155505060408201518160060160006101000a81548173ffffffffffffffffffffffffffffffffffffffff021916908373ffffffffffffffffffffffffffffffffffffffff16021790555060608201518160070160006101000a81548173ffffffffffffffffffffffffffffffffffffffff021916908373ffffffffffffffffffffffffffffffffffffffff1602179055506080820151816008015560a0820151816009015560c082015181600a015560e082015181600b015561010082015181600c015561012082015181600d015590505061095e6003600084815260200190815260200160002060060160009054906101000a900473ffffffffffffffffffffffffffffffffffffffff16303384600061354d565b6003600083815260200190815260200160002060070160009054906101000a900473ffffffffffffffffffffffffffffffffffffffff1673ffffffffffffffffffffffffffffffffffffffff16632b19832360036000858152602001908152602001600020600801546040518263ffffffff1660e01b81526004016109e39190613fb6565b600060405180830381600087803b1580156109fd57600080fd5b505af1158015610a11573d6000803e3d6000fd5b50505050806003600084815260200190815260200160002060060160009054906101000a900473ffffffffffffffffffffffffffffffffffffffff1673ffffffffffffffffffffffffffffffffffffffff16837fff942d249898505febb2a9a00118e27567c084b9497d0aa3ba5e332c235b4f386000604051610a949190614058565b60405180910390a45050565b600080600260008481526020019081526020016000206040518061010001604052908160008201604051806080016040529081600082018054610ae290614628565b80601f0160208091040260200160405190810160405280929190818152602001828054610b0e90614628565b8015610b5b5780601f10610b3057610100808354040283529160200191610b5b565b820191906000526020600020905b815481529060010190602001808311610b3e57829003601f168201915b50505050508152602001600182018054610b7490614628565b80601f0160208091040260200160405190810160405280929190818152602001828054610ba090614628565b8015610bed5780601f10610bc257610100808354040283529160200191610bed565b820191906000526020600020905b815481529060010190602001808311610bd057829003601f168201915b505050505081526020016002820160009054906101000a900473ffffffffffffffffffffffffffffffffffffffff1673ffffffffffffffffffffffffffffffffffffffff1673ffffffffffffffffffffffffffffffffffffffff1681526020016003820160009054906101000a900473ffffffffffffffffffffffffffffffffffffffff1673ffffffffffffffffffffffffffffffffffffffff1673ffffffffffffffffffffffffffffffffffffffff16815250508152602001600482016040518060800160405290816000820160009054906101000a900463ffffffff1663ffffffff1663ffffffff1681526020016000820160049054906101000a900463ffffffff1663ffffffff1663ffffffff1681526020016000820160089054906101000a900463ffffffff1663ffffffff1663ffffffff16815260200160008201600c9054906101000a900463ffffffff1663ffffffff1663ffffffff168152505081526020016005820160009054906101000a900473ffffffffffffffffffffffffffffffffffffffff1673ffffffffffffffffffffffffffffffffffffffff1673ffffffffffffffffffffffffffffffffffffffff1681526020016005820160149054906101000a900463ffffffff1663ffffffff1663ffffffff1681526020016006820160009054906101000a90046fffffffffffffffffffffffffffffffff166fffffffffffffffffffffffffffffffff166fffffffffffffffffffffffffffffffff1681526020016006820160109054906101000a90046fffffffffffffffffffffffffffffffff166fffffffffffffffffffffffffffffffff166fffffffffffffffffffffffffffffffff1681526020016007820160009054906101000a90046fffffffffffffffffffffffffffffffff166fffffffffffffffffffffffffffffffff166fffffffffffffffffffffffffffffffff16815260200160088201548152505090508060c001516fffffffffffffffffffffffffffffffff16610ed88261367f565b610ee29190614935565b915050919050565b60055481565b6000600460008473ffffffffffffffffffffffffffffffffffffffff1673ffffffffffffffffffffffffffffffffffffffff168152602001908152602001600020600083815260200190815260200160002054905092915050565b600060026000838152602001908152602001600020905060008160000160030160009054906101000a900473ffffffffffffffffffffffffffffffffffffffff1690503373ffffffffffffffffffffffffffffffffffffffff168173ffffffffffffffffffffffffffffffffffffffff1614610ff3576040517fe1c6117100000000000000000000000000000000000000000000000000000000815260040160405180910390fd5b60008260070160009054906101000a90046fffffffffffffffffffffffffffffffff166fffffffffffffffffffffffffffffffff1661143184604051806101000160405290816000820160405180608001604052908160008201805461105890614628565b80601f016020809104026020016040519081016040528092919081815260200182805461108490614628565b80156110d15780601f106110a6576101008083540402835291602001916110d1565b820191906000526020600020905b8154815290600101906020018083116110b457829003601f168201915b505050505081526020016001820180546110ea90614628565b80601f016020809104026020016040519081016040528092919081815260200182805461111690614628565b80156111635780601f1061113857610100808354040283529160200191611163565b820191906000526020600020905b81548152906001019060200180831161114657829003601f168201915b505050505081526020016002820160009054906101000a900473ffffffffffffffffffffffffffffffffffffffff1673ffffffffffffffffffffffffffffffffffffffff1673ffffffffffffffffffffffffffffffffffffffff1681526020016003820160009054906101000a900473ffffffffffffffffffffffffffffffffffffffff1673ffffffffffffffffffffffffffffffffffffffff1673ffffffffffffffffffffffffffffffffffffffff16815250508152602001600482016040518060800160405290816000820160009054906101000a900463ffffffff1663ffffffff1663ffffffff1681526020016000820160049054906101000a900463ffffffff1663ffffffff1663ffffffff1681526020016000820160089054906101000a900463ffffffff1663ffffffff1663ffffffff16815260200160008201600c9054906101000a900463ffffffff1663ffffffff1663ffffffff168152505081526020016005820160009054906101000a900473ffffffffffffffffffffffffffffffffffffffff1673ffffffffffffffffffffffffffffffffffffffff1673ffffffffffffffffffffffffffffffffffffffff1681526020016005820160149054906101000a900463ffffffff1663ffffffff1663ffffffff1681526020016006820160009054906101000a90046fffffffffffffffffffffffffffffffff166fffffffffffffffffffffffffffffffff166fffffffffffffffffffffffffffffffff1681526020016006820160109054906101000a90046fffffffffffffffffffffffffffffffff166fffffffffffffffffffffffffffffffff166fffffffffffffffffffffffffffffffff1681526020016007820160009054906101000a90046fffffffffffffffffffffffffffffffff166fffffffffffffffffffffffffffffffff166fffffffffffffffffffffffffffffffff16815260200160088201548152505061367f565b61143b9190614935565b90506000810361144d5750505061155d565b808360070160008282829054906101000a90046fffffffffffffffffffffffffffffffff1661147c9190614969565b92506101000a8154816fffffffffffffffffffffffffffffffff02191690836fffffffffffffffffffffffffffffffff1602179055506114e48360050160009054906101000a900473ffffffffffffffffffffffffffffffffffffffff16308484600061354d565b808360050160009054906101000a900473ffffffffffffffffffffffffffffffffffffffff1673ffffffffffffffffffffffffffffffffffffffff16857fff942d249898505febb2a9a00118e27567c084b9497d0aa3ba5e332c235b4f3860006040516115519190614058565b60405180910390a45050505b50565b6004602052816000526040600020602052806000526040600020600091509150505481565b6000806002600084815260200190815260200160002060080154116115ab5760006115ae565b60015b9050919050565b6115bd613d15565b60008360e0013514806115d557506000836101000135145b806115e4575060008360c00135145b806115f3575060008360a00135145b15611633576040517f08c379a000000000000000000000000000000000000000000000000000000000815260040161162a906149f9565b60405180910390fd5b61166a8360800160208101906116499190614a19565b84604001602081019061165c9190614a19565b3086610120013560006137c3565b8160200181815250508261010001358360c001356116889190614935565b8160c00181815250508260a001358160c001516116a59190614a75565b816101a00181815250508260a001358160c00151116116cb576001816101a00181815250505b8260a001358160c0015111156117615760008160c001518460a001356116f19190614aa6565b03611715578260a001358160c0015161170a9190614a75565b816101a00181815250505b8060c001518360a00135826101a0015161172f9190614ad7565b10156117605760018360a001358260c0015161174b9190614a75565b6117559190614b19565b816101a00181815250505b5b670de0b6b3a76400008361014001358461012001356117809190614ad7565b61178a9190614a75565b81608001906fffffffffffffffffffffffffffffffff1690816fffffffffffffffffffffffffffffffff1681525050806101a0015181608001516fffffffffffffffffffffffffffffffff1682602001516117e59190614935565b6117ef9190614a75565b81606001906fffffffffffffffffffffffffffffffff1690816fffffffffffffffffffffffffffffffff16815250506005600081548092919061183190614b4d565b9190505581604001818152505081816101e0019073ffffffffffffffffffffffffffffffffffffffff16908173ffffffffffffffffffffffffffffffffffffffff1681525050806101e0015173ffffffffffffffffffffffffffffffffffffffff166340d097c38460600160208101906118ab9190614a19565b6040518263ffffffff1660e01b81526004016118c79190613f1f565b6020604051808303816000875af11580156118e6573d6000803e3d6000fd5b505050506040513d601f19601f8201168201806040525081019061190a9190614baa565b81610200018181525050611d7960405180604001604052808560800160208101906119359190614a19565b73ffffffffffffffffffffffffffffffffffffffff1673ffffffffffffffffffffffffffffffffffffffff1681526020018473ffffffffffffffffffffffffffffffffffffffff1673ffffffffffffffffffffffffffffffffffffffff1681525060405180610120016040528084610200015181526020018660e0013581526020018660c0013581526020018660e001358761010001356119d69190614935565b81526020018660a001358152602001846101a00151815260200184608001516fffffffffffffffffffffffffffffffff16815260200184606001516fffffffffffffffffffffffffffffffff1681526020018661012001358152506040518060400160405280878060000190611a4c9190614be6565b8080601f016020809104026020016040519081016040528093929190818152602001838380828437600081840152601f19601f820116905080830192505050505050508152602001878060200190611aa49190614be6565b8080601f016020809104026020016040519081016040528093929190818152602001838380828437600081840152601f19601f8201169050808301925050505050505081525060036000866040015181526020019081526020016000206040518061014001604052908160008201604051806040016040529081600082018054611b2d90614628565b80601f0160208091040260200160405190810160405280929190818152602001828054611b5990614628565b8015611ba65780601f10611b7b57610100808354040283529160200191611ba6565b820191906000526020600020905b815481529060010190602001808311611b8957829003601f168201915b50505050508152602001600182018054611bbf90614628565b80601f0160208091040260200160405190810160405280929190818152602001828054611beb90614628565b8015611c385780601f10611c0d57610100808354040283529160200191611c38565b820191906000526020600020905b815481529060010190602001808311611c1b57829003601f168201915b50505050508152505081526020016002820160405180608001604052908160008201548152602001600182015481526020016002820154815260200160038201548152505081526020016006820160009054906101000a900473ffffffffffffffffffffffffffffffffffffffff1673ffffffffffffffffffffffffffffffffffffffff1673ffffffffffffffffffffffffffffffffffffffff1681526020016007820160009054906101000a900473ffffffffffffffffffffffffffffffffffffffff1673ffffffffffffffffffffffffffffffffffffffff1673ffffffffffffffffffffffffffffffffffffffff1681526020016008820154815260200160098201548152602001600a8201548152602001600b8201548152602001600c8201548152602001600d820154815250506139ba909392919063ffffffff16565b60036000836040015181526020019081526020016000206000820151816000016000820151816000019081611dae9190614834565b506020820151816001019081611dc49190614834565b50505060208201518160020160008201518160000155602082015181600101556040820151816002015560608201518160030155505060408201518160060160006101000a81548173ffffffffffffffffffffffffffffffffffffffff021916908373ffffffffffffffffffffffffffffffffffffffff16021790555060608201518160070160006101000a81548173ffffffffffffffffffffffffffffffffffffffff021916908373ffffffffffffffffffffffffffffffffffffffff1602179055506080820151816008015560a0820151816009015560c082015181600a015560e082015181600b015561010082015181600c015561012082015181600d01559050508060400151600460008473ffffffffffffffffffffffffffffffffffffffff1673ffffffffffffffffffffffffffffffffffffffff168152602001908152602001600020600083610200015181526020019081526020016000208190555080604001517fc374f9f49aa1f0cd9ad5f81c3886dd0d91a8a44ff09df2c2a58ca48a8a8109dc846080016020810190611f609190614a19565b848461020001518760e001358860c0013589610100013588602001518960800151604051611f95989796959493929190614c7a565b60405180910390a2505050565b600260205280600052604060002060009150905080600001604051806080016040529081600082018054611fd590614628565b80601f016020809104026020016040519081016040528092919081815260200182805461200190614628565b801561204e5780601f106120235761010080835404028352916020019161204e565b820191906000526020600020905b81548152906001019060200180831161203157829003601f168201915b5050505050815260200160018201805461206790614628565b80601f016020809104026020016040519081016040528092919081815260200182805461209390614628565b80156120e05780601f106120b5576101008083540402835291602001916120e0565b820191906000526020600020905b8154815290600101906020018083116120c357829003601f168201915b505050505081526020016002820160009054906101000a900473ffffffffffffffffffffffffffffffffffffffff1673ffffffffffffffffffffffffffffffffffffffff1673ffffffffffffffffffffffffffffffffffffffff1681526020016003820160009054906101000a900473ffffffffffffffffffffffffffffffffffffffff1673ffffffffffffffffffffffffffffffffffffffff1673ffffffffffffffffffffffffffffffffffffffff168152505090806004016040518060800160405290816000820160009054906101000a900463ffffffff1663ffffffff1663ffffffff1681526020016000820160049054906101000a900463ffffffff1663ffffffff1663ffffffff1681526020016000820160089054906101000a900463ffffffff1663ffffffff1663ffffffff16815260200160008201600c9054906101000a900463ffffffff1663ffffffff1663ffffffff1681525050908060050160009054906101000a900473ffffffffffffffffffffffffffffffffffffffff16908060050160149054906101000a900463ffffffff16908060060160009054906101000a90046fffffffffffffffffffffffffffffffff16908060060160109054906101000a90046fffffffffffffffffffffffffffffffff16908060070160009054906101000a90046fffffffffffffffffffffffffffffffff16908060080154905088565b600060036000838152602001908152602001600020600c015461258660036000858152602001908152602001600020604051806101400160405290816000820160405180604001604052908160008201805461234590614628565b80601f016020809104026020016040519081016040528092919081815260200182805461237190614628565b80156123be5780601f10612393576101008083540402835291602001916123be565b820191906000526020600020905b8154815290600101906020018083116123a157829003601f168201915b505050505081526020016001820180546123d790614628565b80601f016020809104026020016040519081016040528092919081815260200182805461240390614628565b80156124505780601f1061242557610100808354040283529160200191612450565b820191906000526020600020905b81548152906001019060200180831161243357829003601f168201915b50505050508152505081526020016002820160405180608001604052908160008201548152602001600182015481526020016002820154815260200160038201548152505081526020016006820160009054906101000a900473ffffffffffffffffffffffffffffffffffffffff1673ffffffffffffffffffffffffffffffffffffffff1673ffffffffffffffffffffffffffffffffffffffff1681526020016007820160009054906101000a900473ffffffffffffffffffffffffffffffffffffffff1673ffffffffffffffffffffffffffffffffffffffff1673ffffffffffffffffffffffffffffffffffffffff1681526020016008820154815260200160098201548152602001600a8201548152602001600b8201548152602001600c8201548152602001600d82015481525050613c06565b6125909190614935565b9050919050565b60006002600084815260200190815260200160002090503373ffffffffffffffffffffffffffffffffffffffff168160000160020160009054906101000a900473ffffffffffffffffffffffffffffffffffffffff1673ffffffffffffffffffffffffffffffffffffffff161461263a576040517f30cd747100000000000000000000000000000000000000000000000000000000815260040160405180910390fd5b818160000160020160006101000a81548173ffffffffffffffffffffffffffffffffffffffff021916908373ffffffffffffffffffffffffffffffffffffffff1602179055508173ffffffffffffffffffffffffffffffffffffffff16837fca0251ba80971adc7e92434b097ca40450b2a317013c51c5c5cb6ae74500bb0060405160405180910390a3505050565b6000806000806000905060008060006126e28989610ef0565b905060008111156127ce57670de0b6b3a764000060036000838152602001908152602001600020600c015460036000848152602001908152602001600020600d015461272e9190614935565b6127389190614a75565b9250670de0b6b3a764000060036000838152602001908152602001600020600d01546127649190614a75565b915060036000828152602001908152602001600020600d0154606460036000848152602001908152602001600020600c015460036000858152602001908152602001600020600d01546127b79190614935565b6127c19190614ad7565b6127cb9190614a75565b93505b838383965096509650505050509250925092565b60036020528060005260406000206000915090508060000160405180604001604052908160008201805461281590614628565b80601f016020809104026020016040519081016040528092919081815260200182805461284190614628565b801561288e5780601f106128635761010080835404028352916020019161288e565b820191906000526020600020905b81548152906001019060200180831161287157829003601f168201915b505050505081526020016001820180546128a790614628565b80601f01602080910402602001604051908101604052809291908181526020018280546128d390614628565b80156129205780601f106128f557610100808354040283529160200191612920565b820191906000526020600020905b81548152906001019060200180831161290357829003601f168201915b5050505050815250509080600201604051806080016040529081600082015481526020016001820154815260200160028201548152602001600382015481525050908060060160009054906101000a900473ffffffffffffffffffffffffffffffffffffffff16908060070160009054906101000a900473ffffffffffffffffffffffffffffffffffffffff169080600801549080600901549080600a01549080600b01549080600c01549080600d015490508a565b6060806000600460008673ffffffffffffffffffffffffffffffffffffffff1673ffffffffffffffffffffffffffffffffffffffff16815260200190815260200160002060008581526020019081526020016000205490506003600082815260200190815260200160002060000160000160036000838152602001908152602001600020600001600101818054612a6c90614628565b80601f0160208091040260200160405190810160405280929190818152602001828054612a9890614628565b8015612ae55780601f10612aba57610100808354040283529160200191612ae5565b820191906000526020600020905b815481529060010190602001808311612ac857829003601f168201915b50505050509150808054612af890614628565b80601f0160208091040260200160405190810160405280929190818152602001828054612b2490614628565b8015612b715780601f10612b4657610100808354040283529160200191612b71565b820191906000526020600020905b815481529060010190602001808311612b5457829003601f168201915b5050505050905092509250509250929050565b600160009054906101000a900473ffffffffffffffffffffffffffffffffffffffff1681565b670de0b6b3a764000081565b6000806000612bc3613d15565b60008560e001351480612bdb57506000856101000135145b80612bea575060008560c00135145b80612bf9575060008560a00135145b15612c39576040517f08c379a0000000000000000000000000000000000000000000000000000000008152600401612c30906149f9565b60405180910390fd5b612c70856080016020810190612c4f9190614a19565b866040016020810190612c629190614a19565b3088610120013560006137c3565b8160200181815250508461010001358560c00135612c8e9190614935565b8160c00181815250508460a001358160c00151612cab9190614a75565b816101a00181815250508460a001358160c0015111612cd1576001816101a00181815250505b8460a001358160c001511115612d675760008160c001518660a00135612cf79190614aa6565b03612d1b578460a001358160c00151612d109190614a75565b816101a00181815250505b8060c001518560a00135826101a00151612d359190614ad7565b1015612d665760018560a001358260c00151612d519190614a75565b612d5b9190614b19565b816101a00181815250505b5b670de0b6b3a7640000856101400135866101200135612d869190614ad7565b612d909190614a75565b81608001906fffffffffffffffffffffffffffffffff1690816fffffffffffffffffffffffffffffffff1681525050806101a0015181608001516fffffffffffffffffffffffffffffffff168260200151612deb9190614935565b612df59190614a75565b81606001906fffffffffffffffffffffffffffffffff1690816fffffffffffffffffffffffffffffffff168152505060056000815480929190612e3790614b4d565b919050558160400181815250506040518061010001604052806040518060800160405280888060000190612e6b9190614be6565b8080601f016020809104026020016040519081016040528093929190818152602001838380828437600081840152601f19601f820116905080830192505050505050508152602001888060200190612ec39190614be6565b8080601f016020809104026020016040519081016040528093929190818152602001838380828437600081840152601f19601f8201169050808301925050505050505081526020013373ffffffffffffffffffffffffffffffffffffffff168152602001886060016020810190612f3a9190614a19565b73ffffffffffffffffffffffffffffffffffffffff16815250815260200160405180608001604052808860e0013563ffffffff1681526020018860c0013563ffffffff1681526020018860e00135896101000135612f989190614935565b63ffffffff1681526020018860a0013563ffffffff168152508152602001866080016020810190612fc99190614a19565b73ffffffffffffffffffffffffffffffffffffffff168152602001826101a0015163ffffffff16815260200182608001516fffffffffffffffffffffffffffffffff16815260200182606001516fffffffffffffffffffffffffffffffff16815260200160006fffffffffffffffffffffffffffffffff168152602001866101200135815250600260008360400151815260200190815260200160002060008201518160000160008201518160000190816130849190614834565b50602082015181600101908161309a9190614834565b5060408201518160020160006101000a81548173ffffffffffffffffffffffffffffffffffffffff021916908373ffffffffffffffffffffffffffffffffffffffff16021790555060608201518160030160006101000a81548173ffffffffffffffffffffffffffffffffffffffff021916908373ffffffffffffffffffffffffffffffffffffffff160217905550505060208201518160040160008201518160000160006101000a81548163ffffffff021916908363ffffffff16021790555060208201518160000160046101000a81548163ffffffff021916908363ffffffff16021790555060408201518160000160086101000a81548163ffffffff021916908363ffffffff160217905550606082015181600001600c6101000a81548163ffffffff021916908363ffffffff160217905550505060408201518160050160006101000a81548173ffffffffffffffffffffffffffffffffffffffff021916908373ffffffffffffffffffffffffffffffffffffffff16021790555060608201518160050160146101000a81548163ffffffff021916908363ffffffff16021790555060808201518160060160006101000a8154816fffffffffffffffffffffffffffffffff02191690836fffffffffffffffffffffffffffffffff16021790555060a08201518160060160106101000a8154816fffffffffffffffffffffffffffffffff02191690836fffffffffffffffffffffffffffffffff16021790555060c08201518160070160006101000a8154816fffffffffffffffffffffffffffffffff02191690836fffffffffffffffffffffffffffffffff16021790555060e0820151816008015590505084606001602081019061331d9190614a19565b73ffffffffffffffffffffffffffffffffffffffff1681604001517f438c3b12459c65275f9d92689e45742e4217ed48c982a87ea69b4fffe5945e8987608001602081019061336c9190614a19565b8860e001358960e001358a61010001356133869190614935565b8a60a00135876101a00151886080015189606001516040516133ae9796959493929190614cf8565b60405180910390a3806020015181604001518260600151935093509350509193909250565b60008060036000848152602001908152602001600020600d0154116133f95760006133fc565b60015b9050919050565b61340b613e11565b8173ffffffffffffffffffffffffffffffffffffffff16836060015173ffffffffffffffffffffffffffffffffffffffff16636352211e85608001516040518263ffffffff1660e01b81526004016134639190613fb6565b602060405180830381865afa158015613480573d6000803e3d6000fd5b505050506040513d601f19601f820116820180604052508101906134a49190614d7c565b73ffffffffffffffffffffffffffffffffffffffff16146134fa576040517f08c379a00000000000000000000000000000000000000000000000000000000081526004016134f190614df5565b60405180910390fd5b600083610100015161350b85613c06565b6135159190614935565b9050806fffffffffffffffffffffffffffffffff16846101000181815161353c9190614b19565b915081815250508391505092915050565b6000600160009054906101000a900473ffffffffffffffffffffffffffffffffffffffff16905081156135f0578073ffffffffffffffffffffffffffffffffffffffff1663f18d03cc878787876040518563ffffffff1660e01b81526004016135b99493929190614e15565b600060405180830381600087803b1580156135d357600080fd5b505af11580156135e7573d6000803e3d6000fd5b50505050613677565b8073ffffffffffffffffffffffffffffffffffffffff166397da6d308787876000886040518663ffffffff1660e01b8152600401613632959493929190614e95565b60408051808303816000875af1158015613650573d6000803e3d6000fd5b505050506040513d601f19601f820116820180604052508101906136749190614ee8565b50505b505050505050565b60008082602001516040015183602001516000015161369e9190614f28565b63ffffffff169050804210156136b457506137be565b600081426136c29190614935565b905060006136f3856060015163ffffffff1686602001516060015163ffffffff16846136ee9190614a75565b613cfc565b905084602001516020015163ffffffff16856020015160600151866060015161371c9190614f60565b8660200151604001518760200151600001516137389190614f28565b6137429190614f28565b63ffffffff16118015613762575084602001516020015163ffffffff1642115b1561377557846060015163ffffffff1690505b808560a001516fffffffffffffffffffffffffffffffff166137979190614ad7565b85608001516fffffffffffffffffffffffffffffffff166137b89190614b19565b93505050505b919050565b600080600160009054906101000a900473ffffffffffffffffffffffffffffffffffffffff16905082156138e8578073ffffffffffffffffffffffffffffffffffffffff1663da5139ca888660006040518463ffffffff1660e01b815260040161382f93929190614f9d565b602060405180830381865afa15801561384c573d6000803e3d6000fd5b505050506040513d601f19601f820116820180604052508101906138709190614baa565b91508073ffffffffffffffffffffffffffffffffffffffff1663f18d03cc888888866040518563ffffffff1660e01b81526004016138b19493929190614e15565b600060405180830381600087803b1580156138cb57600080fd5b505af11580156138df573d6000803e3d6000fd5b505050506139b0565b8073ffffffffffffffffffffffffffffffffffffffff166302b9446c600073ffffffffffffffffffffffffffffffffffffffff168973ffffffffffffffffffffffffffffffffffffffff161461393f576000613941565b855b8989898960006040518763ffffffff1660e01b8152600401613967959493929190614fd4565b604080518083038185885af1158015613984573d6000803e3d6000fd5b50505050506040513d601f19601f820116820180604052508101906139a99190614ee8565b9050809250505b5095945050505050565b6139c2613e11565b816000600281106139d6576139d5615027565b5b6020020151856000015160000181905250816001600281106139fb576139fa615027565b5b602002015185600001516020018190525083600060028110613a2057613a1f615027565b5b6020020151856040019073ffffffffffffffffffffffffffffffffffffffff16908173ffffffffffffffffffffffffffffffffffffffff168152505083600160028110613a7057613a6f615027565b5b6020020151856060019073ffffffffffffffffffffffffffffffffffffffff16908173ffffffffffffffffffffffffffffffffffffffff168152505082600060098110613ac057613abf615027565b5b602002015185608001818152505082600160098110613ae257613ae1615027565b5b60200201518560200151600001818152505082600260098110613b0857613b07615027565b5b60200201518560200151602001818152505082600360098110613b2e57613b2d615027565b5b60200201518560200151604001818152505082600460098110613b5457613b53615027565b5b60200201518560200151606001818152505082600560098110613b7a57613b79615027565b5b60200201518560a001818152505082600660098110613b9c57613b9b615027565b5b60200201518560c001818152505082600760098110613bbe57613bbd615027565b5b60200201518560e001818152505060008561010001818152505082600860098110613bec57613beb615027565b5b602002015185610120018181525050849050949350505050565b600080826020015160400151836020015160000151613c259190614b19565b905080421015613c355750613cf7565b60008142613c439190614935565b90506000613c688560a0015186602001516060015184613c639190614a75565b613cfc565b90508460200151602001518560200151606001518660a00151613c8b9190614ad7565b866020015160400151876020015160000151613ca79190614b19565b613cb19190614b19565b118015613cc5575084602001516020015142115b15613cd2578460a0015190505b808560e00151613ce29190614ad7565b8560c00151613cf19190614b19565b93505050505b919050565b6000818310613d0b5781613d0d565b825b905092915050565b60405180610220016040528060008152602001600081526020016000815260200160006fffffffffffffffffffffffffffffffff16815260200160006fffffffffffffffffffffffffffffffff16815260200160006fffffffffffffffffffffffffffffffff168152602001600081526020016000815260200160008152602001600073ffffffffffffffffffffffffffffffffffffffff16815260200160008152602001600081526020016000815260200160008152602001600073ffffffffffffffffffffffffffffffffffffffff168152602001600073ffffffffffffffffffffffffffffffffffffffff168152602001600081525090565b604051806101400160405280613e25613e9c565b8152602001613e32613eb6565b8152602001600073ffffffffffffffffffffffffffffffffffffffff168152602001600073ffffffffffffffffffffffffffffffffffffffff1681526020016000815260200160008152602001600081526020016000815260200160008152602001600081525090565b604051806040016040528060608152602001606081525090565b6040518060800160405280600081526020016000815260200160008152602001600081525090565b600073ffffffffffffffffffffffffffffffffffffffff82169050919050565b6000613f0982613ede565b9050919050565b613f1981613efe565b82525050565b6000602082019050613f346000830184613f10565b92915050565b600080fd5b600080fd5b6000819050919050565b613f5781613f44565b8114613f6257600080fd5b50565b600081359050613f7481613f4e565b92915050565b600060208284031215613f9057613f8f613f3a565b5b6000613f9e84828501613f65565b91505092915050565b613fb081613f44565b82525050565b6000602082019050613fcb6000830184613fa7565b92915050565b613fda81613efe565b8114613fe557600080fd5b50565b600081359050613ff781613fd1565b92915050565b6000806040838503121561401457614013613f3a565b5b600061402285828601613fe8565b925050602061403385828601613f65565b9150509250929050565b60008115159050919050565b6140528161403d565b82525050565b600060208201905061406d6000830184614049565b92915050565b600080fd5b6000610160828403121561408f5761408e614073565b5b81905092915050565b600080604083850312156140af576140ae613f3a565b5b600083013567ffffffffffffffff8111156140cd576140cc613f3f565b5b6140d985828601614078565b92505060206140ea85828601613fe8565b9150509250929050565b600081519050919050565b600082825260208201905092915050565b60005b8381101561412e578082015181840152602081019050614113565b60008484015250505050565b6000601f19601f8301169050919050565b6000614156826140f4565b61416081856140ff565b9350614170818560208601614110565b6141798161413a565b840191505092915050565b61418d81613efe565b82525050565b600060808301600083015184820360008601526141b0828261414b565b915050602083015184820360208601526141ca828261414b565b91505060408301516141df6040860182614184565b5060608301516141f26060860182614184565b508091505092915050565b600063ffffffff82169050919050565b614216816141fd565b82525050565b608082016000820151614232600085018261420d565b506020820151614245602085018261420d565b506040820151614258604085018261420d565b50606082015161426b606085018261420d565b50505050565b61427a816141fd565b82525050565b60006fffffffffffffffffffffffffffffffff82169050919050565b6142a581614280565b82525050565b60006101608201905081810360008301526142c6818b614193565b90506142d5602083018a61421c565b6142e260a0830189613f10565b6142ef60c0830188614271565b6142fc60e083018761429c565b61430a61010083018661429c565b61431861012083018561429c565b614326610140830184613fa7565b9998505050505050505050565b6000806040838503121561434a57614349613f3a565b5b600061435885828601613f65565b925050602061436985828601613fe8565b9150509250929050565b60006060820190506143886000830186613fa7565b6143956020830185613fa7565b6143a26040830184613fa7565b949350505050565b600060408301600083015184820360008601526143c7828261414b565b915050602083015184820360208601526143e1828261414b565b9150508091505092915050565b6143f781613f44565b82525050565b60808201600082015161441360008501826143ee565b50602082015161442660208501826143ee565b50604082015161443960408501826143ee565b50606082015161444c60608501826143ee565b50505050565b60006101a082019050818103600083015261446d818d6143aa565b905061447c602083018c6143fd565b61448960a083018b613f10565b61449660c083018a613f10565b6144a360e0830189613fa7565b6144b1610100830188613fa7565b6144bf610120830187613fa7565b6144cd610140830186613fa7565b6144db610160830185613fa7565b6144e9610180830184613fa7565b9b9a5050505050505050505050565b600082825260208201905092915050565b6000614514826140f4565b61451e81856144f8565b935061452e818560208601614110565b6145378161413a565b840191505092915050565b6000604082019050818103600083015261455c8185614509565b905081810360208301526145708184614509565b90509392505050565b60006020828403121561458f5761458e613f3a565b5b600082013567ffffffffffffffff8111156145ad576145ac613f3f565b5b6145b984828501614078565b91505092915050565b60006060820190506145d76000830186613fa7565b6145e46020830185613fa7565b6145f1604083018461429c565b949350505050565b7f4e487b7100000000000000000000000000000000000000000000000000000000600052602260045260246000fd5b6000600282049050600182168061464057607f821691505b602082108103614653576146526145f9565b5b50919050565b7f4e487b7100000000000000000000000000000000000000000000000000000000600052604160045260246000fd5b60008190508160005260206000209050919050565b60006020601f8301049050919050565b600082821b905092915050565b6000600883026146ea7fffffffffffffffffffffffffffffffffffffffffffffffffffffffffffffffff826146ad565b6146f486836146ad565b95508019841693508086168417925050509392505050565b6000819050919050565b600061473161472c61472784613f44565b61470c565b613f44565b9050919050565b6000819050919050565b61474b83614716565b61475f61475782614738565b8484546146ba565b825550505050565b600090565b614774614767565b61477f818484614742565b505050565b5b818110156147a35761479860008261476c565b600181019050614785565b5050565b601f8211156147e8576147b981614688565b6147c28461469d565b810160208510156147d1578190505b6147e56147dd8561469d565b830182614784565b50505b505050565b600082821c905092915050565b600061480b600019846008026147ed565b1980831691505092915050565b600061482483836147fa565b9150826002028217905092915050565b61483d826140f4565b67ffffffffffffffff81111561485657614855614659565b5b6148608254614628565b61486b8282856147a7565b600060209050601f83116001811461489e576000841561488c578287015190505b6148968582614818565b8655506148fe565b601f1984166148ac86614688565b60005b828110156148d4578489015182556001820191506020850194506020810190506148af565b868310156148f157848901516148ed601f8916826147fa565b8355505b6001600288020188555050505b505050505050565b7f4e487b7100000000000000000000000000000000000000000000000000000000600052601160045260246000fd5b600061494082613f44565b915061494b83613f44565b925082820390508181111561496357614962614906565b5b92915050565b600061497482614280565b915061497f83614280565b925082820190506fffffffffffffffffffffffffffffffff8111156149a7576149a6614906565b5b92915050565b7f496e76616c69642056657374696e672054696d652053657474696e6700000000600082015250565b60006149e3601c836144f8565b91506149ee826149ad565b602082019050919050565b60006020820190508181036000830152614a12816149d6565b9050919050565b600060208284031215614a2f57614a2e613f3a565b5b6000614a3d84828501613fe8565b91505092915050565b7f4e487b7100000000000000000000000000000000000000000000000000000000600052601260045260246000fd5b6000614a8082613f44565b9150614a8b83613f44565b925082614a9b57614a9a614a46565b5b828204905092915050565b6000614ab182613f44565b9150614abc83613f44565b925082614acc57614acb614a46565b5b828206905092915050565b6000614ae282613f44565b9150614aed83613f44565b9250828202614afb81613f44565b91508282048414831517614b1257614b11614906565b5b5092915050565b6000614b2482613f44565b9150614b2f83613f44565b9250828201905080821115614b4757614b46614906565b5b92915050565b6000614b5882613f44565b91507fffffffffffffffffffffffffffffffffffffffffffffffffffffffffffffffff8203614b8a57614b89614906565b5b600182019050919050565b600081519050614ba481613f4e565b92915050565b600060208284031215614bc057614bbf613f3a565b5b6000614bce84828501614b95565b91505092915050565b600080fd5b600080fd5b600080fd5b60008083356001602003843603038112614c0357614c02614bd7565b5b80840192508235915067ffffffffffffffff821115614c2557614c24614bdc565b5b602083019250600182023603831315614c4157614c40614be1565b5b509250929050565b6000614c64614c5f614c5a84614280565b61470c565b613f44565b9050919050565b614c7481614c49565b82525050565b600061010082019050614c90600083018b613f10565b614c9d602083018a613f10565b614caa6040830189613fa7565b614cb76060830188613fa7565b614cc46080830187613fa7565b614cd160a0830186613fa7565b614cde60c0830185613fa7565b614ceb60e0830184614c6b565b9998505050505050505050565b600060e082019050614d0d600083018a613f10565b614d1a6020830189614271565b614d276040830188614271565b614d346060830187614271565b614d416080830186614271565b614d4e60a083018561429c565b614d5b60c083018461429c565b98975050505050505050565b600081519050614d7681613fd1565b92915050565b600060208284031215614d9257614d91613f3a565b5b6000614da084828501614d67565b91505092915050565b7f6e6f7420656c696769626c650000000000000000000000000000000000000000600082015250565b6000614ddf600c836144f8565b9150614dea82614da9565b602082019050919050565b60006020820190508181036000830152614e0e81614dd2565b9050919050565b6000608082019050614e2a6000830187613f10565b614e376020830186613f10565b614e446040830185613f10565b614e516060830184613fa7565b95945050505050565b6000819050919050565b6000614e7f614e7a614e7584614e5a565b61470c565b613f44565b9050919050565b614e8f81614e64565b82525050565b600060a082019050614eaa6000830188613f10565b614eb76020830187613f10565b614ec46040830186613f10565b614ed16060830185614e86565b614ede6080830184613fa7565b9695505050505050565b60008060408385031215614eff57614efe613f3a565b5b6000614f0d85828601614b95565b9250506020614f1e85828601614b95565b9150509250929050565b6000614f33826141fd565b9150614f3e836141fd565b9250828201905063ffffffff811115614f5a57614f59614906565b5b92915050565b6000614f6b826141fd565b9150614f76836141fd565b9250828202614f84816141fd565b9150808214614f9657614f95614906565b5b5092915050565b6000606082019050614fb26000830186613f10565b614fbf6020830185613fa7565b614fcc6040830184614049565b949350505050565b600060a082019050614fe96000830188613f10565b614ff66020830187613f10565b6150036040830186613f10565b6150106060830185613fa7565b61501d6080830184614e86565b9695505050505050565b7f4e487b7100000000000000000000000000000000000000000000000000000000600052603260045260246000fdfea2646970667358221220d3959f415cb714399a5c44f0de8cade24b47e9a9d2a2e61fe643c7ad218eb9a564736f6c63430008120033",
  "linkReferences": {},
  "deployedLinkReferences": {}
}