{
  "_format": "hh-sol-artifact-1",
  "contractName": "VestingERC721",
  "sourceName": "contracts/VestingERC721.sol",
  "abi": [
    {
      "inputs": [
        {
          "internalType": "string",
          "name": "name",
          "type": "string"
        },
        {
          "internalType": "string",
          "name": "symbol",
          "type": "string"
        },
        {
          "internalType": "string",
          "name": "_description",
          "type": "string"
        },
        {
          "internalType": "address",
          "name": "_vestAddr",
          "type": "address"
        }
      ],
      "stateMutability": "nonpayable",
      "type": "constructor"
    },
    {
      "anonymous": false,
      "inputs": [
        {
          "indexed": true,
          "internalType": "address",
          "name": "owner",
          "type": "address"
        },
        {
          "indexed": true,
          "internalType": "address",
          "name": "spender",
          "type": "address"
        },
        {
          "indexed": true,
          "internalType": "uint256",
          "name": "id",
          "type": "uint256"
        }
      ],
      "name": "Approval",
      "type": "event"
    },
    {
      "anonymous": false,
      "inputs": [
        {
          "indexed": true,
          "internalType": "address",
          "name": "owner",
          "type": "address"
        },
        {
          "indexed": true,
          "internalType": "address",
          "name": "operator",
          "type": "address"
        },
        {
          "indexed": false,
          "internalType": "bool",
          "name": "approved",
          "type": "bool"
        }
      ],
      "name": "ApprovalForAll",
      "type": "event"
    },
    {
      "anonymous": false,
      "inputs": [
        {
          "indexed": false,
          "internalType": "uint256",
          "name": "_fromTokenId",
          "type": "uint256"
        },
        {
          "indexed": false,
          "internalType": "uint256",
          "name": "_toTokenId",
          "type": "uint256"
        }
      ],
      "name": "BatchMetadataUpdate",
      "type": "event"
    },
    {
      "anonymous": false,
      "inputs": [
        {
          "indexed": false,
          "internalType": "uint256",
          "name": "_tokenId",
          "type": "uint256"
        }
      ],
      "name": "MetadataUpdate",
      "type": "event"
    },
    {
      "anonymous": false,
      "inputs": [
        {
          "indexed": true,
          "internalType": "address",
          "name": "from",
          "type": "address"
        },
        {
          "indexed": true,
          "internalType": "address",
          "name": "to",
          "type": "address"
        },
        {
          "indexed": true,
          "internalType": "uint256",
          "name": "id",
          "type": "uint256"
        }
      ],
      "name": "Transfer",
      "type": "event"
    },
    {
      "inputs": [],
      "name": "_owner",
      "outputs": [
        {
          "internalType": "address",
          "name": "",
          "type": "address"
        }
      ],
      "stateMutability": "view",
      "type": "function"
    },
    {
      "inputs": [
        {
          "internalType": "address",
          "name": "spender",
          "type": "address"
        },
        {
          "internalType": "uint256",
          "name": "id",
          "type": "uint256"
        }
      ],
      "name": "approve",
      "outputs": [],
      "stateMutability": "nonpayable",
      "type": "function"
    },
    {
      "inputs": [
        {
          "internalType": "address",
          "name": "owner",
          "type": "address"
        }
      ],
      "name": "balanceOf",
      "outputs": [
        {
          "internalType": "uint256",
          "name": "",
          "type": "uint256"
        }
      ],
      "stateMutability": "view",
      "type": "function"
    },
    {
      "inputs": [],
      "name": "baseURI",
      "outputs": [
        {
          "internalType": "string",
          "name": "",
          "type": "string"
        }
      ],
      "stateMutability": "view",
      "type": "function"
    },
    {
      "inputs": [],
      "name": "contractURI",
      "outputs": [
        {
          "internalType": "string",
          "name": "",
          "type": "string"
        }
      ],
      "stateMutability": "pure",
      "type": "function"
    },
    {
      "inputs": [],
      "name": "description",
      "outputs": [
        {
          "internalType": "string",
          "name": "",
          "type": "string"
        }
      ],
      "stateMutability": "view",
      "type": "function"
    },
    {
      "inputs": [
        {
          "internalType": "uint256",
          "name": "tokenId",
          "type": "uint256"
        }
      ],
      "name": "emitRefreshEvent",
      "outputs": [],
      "stateMutability": "nonpayable",
      "type": "function"
    },
    {
      "inputs": [],
      "name": "external_link",
      "outputs": [
        {
          "internalType": "string",
          "name": "",
          "type": "string"
        }
      ],
      "stateMutability": "view",
      "type": "function"
    },
    {
      "inputs": [
        {
          "internalType": "uint256",
          "name": "",
          "type": "uint256"
        }
      ],
      "name": "getApproved",
      "outputs": [
        {
          "internalType": "address",
          "name": "",
          "type": "address"
        }
      ],
      "stateMutability": "view",
      "type": "function"
    },
    {
      "inputs": [
        {
          "internalType": "uint256",
          "name": "tokenId",
          "type": "uint256"
        }
      ],
      "name": "getSvg",
      "outputs": [
        {
          "internalType": "string",
          "name": "",
          "type": "string"
        }
      ],
      "stateMutability": "view",
      "type": "function"
    },
    {
      "inputs": [
        {
          "internalType": "address",
          "name": "",
          "type": "address"
        },
        {
          "internalType": "address",
          "name": "",
          "type": "address"
        }
      ],
      "name": "isApprovedForAll",
      "outputs": [
        {
          "internalType": "bool",
          "name": "",
          "type": "bool"
        }
      ],
      "stateMutability": "view",
      "type": "function"
    },
    {
      "inputs": [],
      "name": "name",
      "outputs": [
        {
          "internalType": "string",
          "name": "",
          "type": "string"
        }
      ],
      "stateMutability": "view",
      "type": "function"
    },
    {
      "inputs": [
        {
          "internalType": "uint256",
          "name": "id",
          "type": "uint256"
        }
      ],
      "name": "ownerOf",
      "outputs": [
        {
          "internalType": "address",
          "name": "owner",
          "type": "address"
        }
      ],
      "stateMutability": "view",
      "type": "function"
    },
    {
      "inputs": [
        {
          "internalType": "address",
          "name": "to",
          "type": "address"
        }
      ],
      "name": "safeMint",
      "outputs": [
        {
          "internalType": "uint256",
          "name": "id",
          "type": "uint256"
        }
      ],
      "stateMutability": "nonpayable",
      "type": "function"
    },
    {
      "inputs": [
        {
          "internalType": "address",
          "name": "from",
          "type": "address"
        },
        {
          "internalType": "address",
          "name": "to",
          "type": "address"
        },
        {
          "internalType": "uint256",
          "name": "id",
          "type": "uint256"
        }
      ],
      "name": "safeTransferFrom",
      "outputs": [],
      "stateMutability": "nonpayable",
      "type": "function"
    },
    {
      "inputs": [
        {
          "internalType": "address",
          "name": "from",
          "type": "address"
        },
        {
          "internalType": "address",
          "name": "to",
          "type": "address"
        },
        {
          "internalType": "uint256",
          "name": "id",
          "type": "uint256"
        },
        {
          "internalType": "bytes",
          "name": "data",
          "type": "bytes"
        }
      ],
      "name": "safeTransferFrom",
      "outputs": [],
      "stateMutability": "nonpayable",
      "type": "function"
    },
    {
      "inputs": [
        {
          "internalType": "address",
          "name": "operator",
          "type": "address"
        },
        {
          "internalType": "bool",
          "name": "approved",
          "type": "bool"
        }
      ],
      "name": "setApprovalForAll",
      "outputs": [],
      "stateMutability": "nonpayable",
      "type": "function"
    },
    {
      "inputs": [
        {
          "internalType": "string",
          "name": "uri",
          "type": "string"
        }
      ],
      "name": "setBaseURI",
      "outputs": [],
      "stateMutability": "nonpayable",
      "type": "function"
    },
    {
      "inputs": [
        {
          "internalType": "address",
          "name": "_vestAddress",
          "type": "address"
        }
      ],
      "name": "setVestAddress",
      "outputs": [],
      "stateMutability": "nonpayable",
      "type": "function"
    },
    {
      "inputs": [
        {
          "internalType": "bytes4",
          "name": "interfaceId",
          "type": "bytes4"
        }
      ],
      "name": "supportsInterface",
      "outputs": [
        {
          "internalType": "bool",
          "name": "",
          "type": "bool"
        }
      ],
      "stateMutability": "view",
      "type": "function"
    },
    {
      "inputs": [],
      "name": "symbol",
      "outputs": [
        {
          "internalType": "string",
          "name": "",
          "type": "string"
        }
      ],
      "stateMutability": "view",
      "type": "function"
    },
    {
      "inputs": [
        {
          "internalType": "uint256",
          "name": "_tokenId",
          "type": "uint256"
        }
      ],
      "name": "tokenURI",
      "outputs": [
        {
          "internalType": "string",
          "name": "",
          "type": "string"
        }
      ],
      "stateMutability": "view",
      "type": "function"
    },
    {
      "inputs": [
        {
          "internalType": "address",
          "name": "from",
          "type": "address"
        },
        {
          "internalType": "address",
          "name": "to",
          "type": "address"
        },
        {
          "internalType": "uint256",
          "name": "id",
          "type": "uint256"
        }
      ],
      "name": "transferFrom",
      "outputs": [],
      "stateMutability": "nonpayable",
      "type": "function"
    },
    {
      "inputs": [],
      "name": "vestAddress",
      "outputs": [
        {
          "internalType": "address",
          "name": "",
          "type": "address"
        }
      ],
      "stateMutability": "view",
      "type": "function"
    }
  ],
  "bytecode": "0x60806040526040518060400160405280601481526020017f68747470733a2f2f64616f7371756172652e6669000000000000000000000000815250600890816200004a919062000405565b506040518060400160405280601481526020017f68747470733a2f2f64616f7371756172652e66690000000000000000000000008152506009908162000091919062000405565b503480156200009f57600080fd5b506040516200526f3803806200526f8339818101604052810190620000c59190620006b5565b83838160009081620000d8919062000405565b508060019081620000ea919062000405565b5050508160079081620000fe919062000405565b5033600a60006101000a81548173ffffffffffffffffffffffffffffffffffffffff021916908373ffffffffffffffffffffffffffffffffffffffff16021790555080600b60006101000a81548173ffffffffffffffffffffffffffffffffffffffff021916908373ffffffffffffffffffffffffffffffffffffffff1602179055505050505062000784565b600081519050919050565b7f4e487b7100000000000000000000000000000000000000000000000000000000600052604160045260246000fd5b7f4e487b7100000000000000000000000000000000000000000000000000000000600052602260045260246000fd5b600060028204905060018216806200020d57607f821691505b602082108103620002235762000222620001c5565b5b50919050565b60008190508160005260206000209050919050565b60006020601f8301049050919050565b600082821b905092915050565b6000600883026200028d7fffffffffffffffffffffffffffffffffffffffffffffffffffffffffffffffff826200024e565b6200029986836200024e565b95508019841693508086168417925050509392505050565b6000819050919050565b6000819050919050565b6000620002e6620002e0620002da84620002b1565b620002bb565b620002b1565b9050919050565b6000819050919050565b6200030283620002c5565b6200031a6200031182620002ed565b8484546200025b565b825550505050565b600090565b6200033162000322565b6200033e818484620002f7565b505050565b5b8181101562000366576200035a60008262000327565b60018101905062000344565b5050565b601f821115620003b5576200037f8162000229565b6200038a846200023e565b810160208510156200039a578190505b620003b2620003a9856200023e565b83018262000343565b50505b505050565b600082821c905092915050565b6000620003da60001984600802620003ba565b1980831691505092915050565b6000620003f58383620003c7565b9150826002028217905092915050565b62000410826200018b565b67ffffffffffffffff8111156200042c576200042b62000196565b5b620004388254620001f4565b620004458282856200036a565b600060209050601f8311600181146200047d576000841562000468578287015190505b620004748582620003e7565b865550620004e4565b601f1984166200048d8662000229565b60005b82811015620004b75784890151825560018201915060208501945060208101905062000490565b86831015620004d75784890151620004d3601f891682620003c7565b8355505b6001600288020188555050505b505050505050565b6000604051905090565b600080fd5b600080fd5b600080fd5b600080fd5b6000601f19601f8301169050919050565b62000526826200050a565b810181811067ffffffffffffffff8211171562000548576200054762000196565b5b80604052505050565b60006200055d620004ec565b90506200056b82826200051b565b919050565b600067ffffffffffffffff8211156200058e576200058d62000196565b5b62000599826200050a565b9050602081019050919050565b60005b83811015620005c6578082015181840152602081019050620005a9565b60008484015250505050565b6000620005e9620005e38462000570565b62000551565b90508281526020810184848401111562000608576200060762000505565b5b62000615848285620005a6565b509392505050565b600082601f83011262000635576200063462000500565b5b815162000647848260208601620005d2565b91505092915050565b600073ffffffffffffffffffffffffffffffffffffffff82169050919050565b60006200067d8262000650565b9050919050565b6200068f8162000670565b81146200069b57600080fd5b50565b600081519050620006af8162000684565b92915050565b60008060008060808587031215620006d257620006d1620004f6565b5b600085015167ffffffffffffffff811115620006f357620006f2620004fb565b5b62000701878288016200061d565b945050602085015167ffffffffffffffff811115620007255762000724620004fb565b5b62000733878288016200061d565b935050604085015167ffffffffffffffff811115620007575762000756620004fb565b5b62000765878288016200061d565b925050606062000778878288016200069e565b91505092959194509250565b614adb80620007946000396000f3fe608060405234801561001057600080fd5b50600436106101575760003560e01c806370a08231116100c3578063b2bdfa7b1161007c578063b2bdfa7b146103d8578063b88d4fde146103f6578063c87b56dd14610412578063cd7449a514610442578063e8a3d4851461045e578063e985e9c51461047c57610157565b806370a08231146103025780637284e416146103325780637972bdf31461035057806395d89b411461036e578063a22cb4651461038c578063b0dc78fa146103a857610157565b80632b198323116101155780632b1983231461023057806340d097c31461024c57806342842e0e1461027c57806355f804b3146102985780636352211e146102b45780636c0360eb146102e457610157565b8062b5d3491461015c57806301ffc9a71461017a57806306fdde03146101aa578063081812fc146101c8578063095ea7b3146101f857806323b872dd14610214575b600080fd5b6101646104ac565b604051610171919061246c565b60405180910390f35b610194600480360381019061018f91906124f3565b6104d2565b6040516101a1919061253b565b60405180910390f35b6101b2610564565b6040516101bf91906125e6565b60405180910390f35b6101e260048036038101906101dd919061263e565b6105f2565b6040516101ef919061246c565b60405180910390f35b610212600480360381019061020d9190612697565b610625565b005b61022e600480360381019061022991906126d7565b61080e565b005b61024a6004803603810190610245919061263e565b610c0d565b005b6102666004803603810190610261919061272a565b610ca1565b6040516102739190612766565b60405180910390f35b610296600480360381019061029191906126d7565b610cce565b005b6102b260048036038101906102ad91906128b6565b610e06565b005b6102ce60048036038101906102c9919061263e565b610ea9565b6040516102db919061246c565b60405180910390f35b6102ec610f54565b6040516102f991906125e6565b60405180910390f35b61031c6004803603810190610317919061272a565b610fe2565b6040516103299190612766565b60405180910390f35b61033a611099565b60405161034791906125e6565b60405180910390f35b610358611127565b60405161036591906125e6565b60405180910390f35b6103766111b5565b60405161038391906125e6565b60405180910390f35b6103a660048036038101906103a1919061292b565b611243565b005b6103c260048036038101906103bd919061263e565b611340565b6040516103cf91906125e6565b60405180910390f35b6103e0611588565b6040516103ed919061246c565b60405180910390f35b610410600480360381019061040b91906129cb565b6115ae565b005b61042c6004803603810190610427919061263e565b6116ec565b60405161043991906125e6565b60405180910390f35b61045c6004803603810190610457919061272a565b611a4d565b005b610466611b21565b60405161047391906125e6565b60405180910390f35b61049660048036038101906104919190612a53565b611b69565b6040516104a3919061253b565b60405180910390f35b600b60009054906101000a900473ffffffffffffffffffffffffffffffffffffffff1681565b60006301ffc9a760e01b827bffffffffffffffffffffffffffffffffffffffffffffffffffffffff1916148061052d57506380ac58cd60e01b827bffffffffffffffffffffffffffffffffffffffffffffffffffffffff1916145b8061055d5750635b5e139f60e01b827bffffffffffffffffffffffffffffffffffffffffffffffffffffffff1916145b9050919050565b6000805461057190612ac2565b80601f016020809104026020016040519081016040528092919081815260200182805461059d90612ac2565b80156105ea5780601f106105bf576101008083540402835291602001916105ea565b820191906000526020600020905b8154815290600101906020018083116105cd57829003601f168201915b505050505081565b60046020528060005260406000206000915054906101000a900473ffffffffffffffffffffffffffffffffffffffff1681565b60006002600083815260200190815260200160002060009054906101000a900473ffffffffffffffffffffffffffffffffffffffff1690508073ffffffffffffffffffffffffffffffffffffffff163373ffffffffffffffffffffffffffffffffffffffff16148061071d5750600560008273ffffffffffffffffffffffffffffffffffffffff1673ffffffffffffffffffffffffffffffffffffffff16815260200190815260200160002060003373ffffffffffffffffffffffffffffffffffffffff1673ffffffffffffffffffffffffffffffffffffffff16815260200190815260200160002060009054906101000a900460ff165b61075c576040517f08c379a000000000000000000000000000000000000000000000000000000000815260040161075390612b3f565b60405180910390fd5b826004600084815260200190815260200160002060006101000a81548173ffffffffffffffffffffffffffffffffffffffff021916908373ffffffffffffffffffffffffffffffffffffffff160217905550818373ffffffffffffffffffffffffffffffffffffffff168273ffffffffffffffffffffffffffffffffffffffff167f8c5be1e5ebec7d5bd14f71427d1e84f3dd0314c0f7b2291e5b200ac8c7c3b92560405160405180910390a4505050565b6002600082815260200190815260200160002060009054906101000a900473ffffffffffffffffffffffffffffffffffffffff1673ffffffffffffffffffffffffffffffffffffffff168373ffffffffffffffffffffffffffffffffffffffff16146108af576040517f08c379a00000000000000000000000000000000000000000000000000000000081526004016108a690612bab565b60405180910390fd5b600073ffffffffffffffffffffffffffffffffffffffff168273ffffffffffffffffffffffffffffffffffffffff160361091e576040517f08c379a000000000000000000000000000000000000000000000000000000000815260040161091590612c17565b60405180910390fd5b8273ffffffffffffffffffffffffffffffffffffffff163373ffffffffffffffffffffffffffffffffffffffff1614806109de5750600560008473ffffffffffffffffffffffffffffffffffffffff1673ffffffffffffffffffffffffffffffffffffffff16815260200190815260200160002060003373ffffffffffffffffffffffffffffffffffffffff1673ffffffffffffffffffffffffffffffffffffffff16815260200190815260200160002060009054906101000a900460ff165b80610a4757506004600082815260200190815260200160002060009054906101000a900473ffffffffffffffffffffffffffffffffffffffff1673ffffffffffffffffffffffffffffffffffffffff163373ffffffffffffffffffffffffffffffffffffffff16145b610a86576040517f08c379a0000000000000000000000000000000000000000000000000000000008152600401610a7d90612b3f565b60405180910390fd5b600360008473ffffffffffffffffffffffffffffffffffffffff1673ffffffffffffffffffffffffffffffffffffffff1681526020019081526020016000206000815480929190600190039190505550600360008373ffffffffffffffffffffffffffffffffffffffff1673ffffffffffffffffffffffffffffffffffffffff16815260200190815260200160002060008154809291906001019190505550816002600083815260200190815260200160002060006101000a81548173ffffffffffffffffffffffffffffffffffffffff021916908373ffffffffffffffffffffffffffffffffffffffff1602179055506004600082815260200190815260200160002060006101000a81549073ffffffffffffffffffffffffffffffffffffffff0219169055808273ffffffffffffffffffffffffffffffffffffffff168473ffffffffffffffffffffffffffffffffffffffff167fddf252ad1be2c89b69c2b068fc378daa952ba7f163c4a11628f55a4df523b3ef60405160405180910390a4505050565b7ff8e1a15aba9398e019f0b49df1a4fde98ee17ae345cb5f6b5e2c27f5033e8ce781604051610c3c9190612766565b60405180910390a17f6bd5c950a8d8df17f772f5af37cb3655737899cbf903264b9795592da439661c60017fffffffffffffffffffffffffffffffffffffffffffffffffffffffffffffffff604051610c96929190612c7c565b60405180910390a150565b6000610cad6006611b98565b6000610cb96006611bae565b9050610cc58382611bbc565b80915050919050565b610cd983838361080e565b60008273ffffffffffffffffffffffffffffffffffffffff163b1480610dc2575063150b7a0260e01b7bffffffffffffffffffffffffffffffffffffffffffffffffffffffff19168273ffffffffffffffffffffffffffffffffffffffff1663150b7a023386856040518463ffffffff1660e01b8152600401610d5e93929190612cdc565b6020604051808303816000875af1158015610d7d573d6000803e3d6000fd5b505050506040513d601f19601f82011682018060405250810190610da19190612d3b565b7bffffffffffffffffffffffffffffffffffffffffffffffffffffffff1916145b610e01576040517f08c379a0000000000000000000000000000000000000000000000000000000008152600401610df890612db4565b60405180910390fd5b505050565b600a60009054906101000a900473ffffffffffffffffffffffffffffffffffffffff1673ffffffffffffffffffffffffffffffffffffffff163373ffffffffffffffffffffffffffffffffffffffff1614610e96576040517f08c379a0000000000000000000000000000000000000000000000000000000008152600401610e8d90612e20565b60405180910390fd5b8060099081610ea59190612fe2565b5050565b60008073ffffffffffffffffffffffffffffffffffffffff166002600084815260200190815260200160002060009054906101000a900473ffffffffffffffffffffffffffffffffffffffff1691508173ffffffffffffffffffffffffffffffffffffffff1603610f4f576040517f08c379a0000000000000000000000000000000000000000000000000000000008152600401610f4690613100565b60405180910390fd5b919050565b60098054610f6190612ac2565b80601f0160208091040260200160405190810160405280929190818152602001828054610f8d90612ac2565b8015610fda5780601f10610faf57610100808354040283529160200191610fda565b820191906000526020600020905b815481529060010190602001808311610fbd57829003601f168201915b505050505081565b60008073ffffffffffffffffffffffffffffffffffffffff168273ffffffffffffffffffffffffffffffffffffffff1603611052576040517f08c379a00000000000000000000000000000000000000000000000000000000081526004016110499061316c565b60405180910390fd5b600360008373ffffffffffffffffffffffffffffffffffffffff1673ffffffffffffffffffffffffffffffffffffffff168152602001908152602001600020549050919050565b600780546110a690612ac2565b80601f01602080910402602001604051908101604052809291908181526020018280546110d290612ac2565b801561111f5780601f106110f45761010080835404028352916020019161111f565b820191906000526020600020905b81548152906001019060200180831161110257829003601f168201915b505050505081565b6008805461113490612ac2565b80601f016020809104026020016040519081016040528092919081815260200182805461116090612ac2565b80156111ad5780601f10611182576101008083540402835291602001916111ad565b820191906000526020600020905b81548152906001019060200180831161119057829003601f168201915b505050505081565b600180546111c290612ac2565b80601f01602080910402602001604051908101604052809291908181526020018280546111ee90612ac2565b801561123b5780601f106112105761010080835404028352916020019161123b565b820191906000526020600020905b81548152906001019060200180831161121e57829003601f168201915b505050505081565b80600560003373ffffffffffffffffffffffffffffffffffffffff1673ffffffffffffffffffffffffffffffffffffffff16815260200190815260200160002060008473ffffffffffffffffffffffffffffffffffffffff1673ffffffffffffffffffffffffffffffffffffffff16815260200190815260200160002060006101000a81548160ff0219169083151502179055508173ffffffffffffffffffffffffffffffffffffffff163373ffffffffffffffffffffffffffffffffffffffff167f17307eab39ab6107e8899845ad3d59bd9653f200f220920489ca2b5937696c3183604051611334919061253b565b60405180910390a35050565b60606000600b60009054906101000a900473ffffffffffffffffffffffffffffffffffffffff16905060008173ffffffffffffffffffffffffffffffffffffffff16632c29e19630866040518363ffffffff1660e01b81526004016113a692919061318c565b602060405180830381865afa1580156113c3573d6000803e3d6000fd5b505050506040513d601f19601f820116820180604052508101906113e791906131ca565b905060008273ffffffffffffffffffffffffffffffffffffffff166382bb3ac8836040518263ffffffff1660e01b81526004016114249190612766565b600060405180830381865afa158015611441573d6000803e3d6000fd5b505050506040513d6000823e3d601f19601f8201168201806040525081019061146a9190613386565b505050505050509250505060008060008573ffffffffffffffffffffffffffffffffffffffff16637a4334e2308a6040518363ffffffff1660e01b81526004016114b592919061318c565b606060405180830381865afa1580156114d2573d6000803e3d6000fd5b505050506040513d601f19601f820116820180604052508101906114f69190613484565b92509250925061157b8473ffffffffffffffffffffffffffffffffffffffff166395d89b416040518163ffffffff1660e01b8152600401600060405180830381865afa15801561154a573d6000803e3d6000fd5b505050506040513d6000823e3d601f19601f8201168201806040525081019061157391906134d7565b848484611cf3565b9650505050505050919050565b600a60009054906101000a900473ffffffffffffffffffffffffffffffffffffffff1681565b6115b985858561080e565b60008473ffffffffffffffffffffffffffffffffffffffff163b14806116a6575063150b7a0260e01b7bffffffffffffffffffffffffffffffffffffffffffffffffffffffff19168473ffffffffffffffffffffffffffffffffffffffff1663150b7a0233888787876040518663ffffffff1660e01b815260040161164295949392919061354d565b6020604051808303816000875af1158015611661573d6000803e3d6000fd5b505050506040513d601f19601f820116820180604052508101906116859190612d3b565b7bffffffffffffffffffffffffffffffffffffffffffffffffffffffff1916145b6116e5576040517f08c379a00000000000000000000000000000000000000000000000000000000081526004016116dc90612db4565b60405180910390fd5b5050505050565b6060600073ffffffffffffffffffffffffffffffffffffffff16600b60009054906101000a900473ffffffffffffffffffffffffffffffffffffffff1673ffffffffffffffffffffffffffffffffffffffff160361177f576040517f08c379a0000000000000000000000000000000000000000000000000000000008152600401611776906135e7565b60405180910390fd5b6000600b60009054906101000a900473ffffffffffffffffffffffffffffffffffffffff16905060008173ffffffffffffffffffffffffffffffffffffffff16632c29e19630866040518363ffffffff1660e01b81526004016117e392919061318c565b602060405180830381865afa158015611800573d6000803e3d6000fd5b505050506040513d601f19601f8201168201806040525081019061182491906131ca565b905060008273ffffffffffffffffffffffffffffffffffffffff166382bb3ac8836040518263ffffffff1660e01b81526004016118619190612766565b600060405180830381865afa15801561187e573d6000803e3d6000fd5b505050506040513d6000823e3d601f19601f820116820180604052508101906118a79190613386565b505050505050509250505060008373ffffffffffffffffffffffffffffffffffffffff1663b1f2c11930886040518363ffffffff1660e01b81526004016118ef92919061318c565b600060405180830381865afa15801561190c573d6000803e3d6000fd5b505050506040513d6000823e3d601f19601f820116820180604052508101906119359190613607565b91505060008060008673ffffffffffffffffffffffffffffffffffffffff16637a4334e2308b6040518363ffffffff1660e01b815260040161197892919061318c565b606060405180830381865afa158015611995573d6000803e3d6000fd5b505050506040513d601f19601f820116820180604052508101906119b99190613484565b925092509250611a3f848673ffffffffffffffffffffffffffffffffffffffff166395d89b416040518163ffffffff1660e01b8152600401600060405180830381865afa158015611a0e573d6000803e3d6000fd5b505050506040513d6000823e3d601f19601f82011682018060405250810190611a3791906134d7565b858585611e67565b975050505050505050919050565b600a60009054906101000a900473ffffffffffffffffffffffffffffffffffffffff1673ffffffffffffffffffffffffffffffffffffffff163373ffffffffffffffffffffffffffffffffffffffff1614611add576040517f08c379a0000000000000000000000000000000000000000000000000000000008152600401611ad490612e20565b60405180910390fd5b80600b60006101000a81548173ffffffffffffffffffffffffffffffffffffffff021916908373ffffffffffffffffffffffffffffffffffffffff16021790555050565b60606000604051806102a0016040528061027d81526020016146a961027d9139905080604051602001611b5491906136e1565b60405160208183030381529060405291505090565b60056020528160005260406000206020528060005260406000206000915091509054906101000a900460ff1681565b6001816000016000828254019250508190555050565b600081600001549050919050565b611bc68282611f22565b60008273ffffffffffffffffffffffffffffffffffffffff163b1480611cb0575063150b7a0260e01b7bffffffffffffffffffffffffffffffffffffffffffffffffffffffff19168273ffffffffffffffffffffffffffffffffffffffff1663150b7a02336000856040518463ffffffff1660e01b8152600401611c4c93929190612cdc565b6020604051808303816000875af1158015611c6b573d6000803e3d6000fd5b505050506040513d601f19601f82011682018060405250810190611c8f9190612d3b565b7bffffffffffffffffffffffffffffffffffffffffffffffffffffffff1916145b611cef576040517f08c379a0000000000000000000000000000000000000000000000000000000008152600401611ce690612db4565b60405180910390fd5b5050565b60606000611d0084612134565b905060008187604051602001611d1792919061379f565b60405160208183030381529060405290506000611d3387612134565b604051602001611d439190613825565b60405160208183030381529060405290506000611d5f86612134565b90506000818a604051602001611d76929190613893565b604051602081830303815290604052905060008a604051602001611d9a9190613919565b60405160208183030381529060405290506040518061016001604052806101408152602001614966610140913996508685604051602001611ddc929190613a45565b60405160208183030381529060405296508684604051602001611e00929190613cb6565b60405160208183030381529060405296508682604051602001611e24929190613def565b60405160208183030381529060405296508681604051602001611e4892919061414a565b6040516020818303038152906040529650505050505050949350505050565b60606000611e7786868686611cf3565b90506000611e8482612294565b604051602001611e9491906141c5565b6040516020818303038152906040529050600087604051602001611eb89190614233565b6040516020818303038152906040529050611ef5818a84604051602001611ee193929190614385565b604051602081830303815290604052612294565b604051602001611f059190614439565b604051602081830303815290604052935050505095945050505050565b600073ffffffffffffffffffffffffffffffffffffffff168273ffffffffffffffffffffffffffffffffffffffff1603611f91576040517f08c379a0000000000000000000000000000000000000000000000000000000008152600401611f8890612c17565b60405180910390fd5b600073ffffffffffffffffffffffffffffffffffffffff166002600083815260200190815260200160002060009054906101000a900473ffffffffffffffffffffffffffffffffffffffff1673ffffffffffffffffffffffffffffffffffffffff1614612033576040517f08c379a000000000000000000000000000000000000000000000000000000000815260040161202a906144a7565b60405180910390fd5b600360008373ffffffffffffffffffffffffffffffffffffffff1673ffffffffffffffffffffffffffffffffffffffff16815260200190815260200160002060008154809291906001019190505550816002600083815260200190815260200160002060006101000a81548173ffffffffffffffffffffffffffffffffffffffff021916908373ffffffffffffffffffffffffffffffffffffffff160217905550808273ffffffffffffffffffffffffffffffffffffffff16600073ffffffffffffffffffffffffffffffffffffffff167fddf252ad1be2c89b69c2b068fc378daa952ba7f163c4a11628f55a4df523b3ef60405160405180910390a45050565b60606000820361217b576040518060400160405280600181526020017f3000000000000000000000000000000000000000000000000000000000000000815250905061228f565b600082905060005b600082146121ad578080612196906144f6565b915050600a826121a6919061456d565b9150612183565b60008167ffffffffffffffff8111156121c9576121c861278b565b5b6040519080825280601f01601f1916602001820160405280156121fb5781602001600182028036833780820191505090505b5090505b6000851461228857600182612214919061459e565b9150600a8561222391906145d2565b603061222f9190614603565b60f81b81838151811061224557612244614637565b5b60200101907effffffffffffffffffffffffffffffffffffffffffffffffffffffffffffff1916908160001a905350600a85612281919061456d565b94506121ff565b8093505050505b919050565b6060600082519050600081036122bc5760405180602001604052806000815250915050612426565b600060036002836122cd9190614603565b6122d7919061456d565b60046122e39190614666565b905060006020826122f49190614603565b67ffffffffffffffff81111561230d5761230c61278b565b5b6040519080825280601f01601f19166020018201604052801561233f5781602001600182028036833780820191505090505b5090506000604051806060016040528060408152602001614926604091399050600181016020830160005b868110156123e35760038101905062ffffff818a015116603f8160121c168401518060081b905060ff603f83600c1c1686015116810190508060081b905060ff603f8360061c1686015116810190508060081b905060ff603f831686015116810190508060e01b9050808452600484019350505061236a565b5060038606600181146123fd576002811461240d57612418565b613d3d60f01b6002830352612418565b603d60f81b60018303525b508484525050819450505050505b919050565b600073ffffffffffffffffffffffffffffffffffffffff82169050919050565b60006124568261242b565b9050919050565b6124668161244b565b82525050565b6000602082019050612481600083018461245d565b92915050565b6000604051905090565b600080fd5b600080fd5b60007fffffffff0000000000000000000000000000000000000000000000000000000082169050919050565b6124d08161249b565b81146124db57600080fd5b50565b6000813590506124ed816124c7565b92915050565b60006020828403121561250957612508612491565b5b6000612517848285016124de565b91505092915050565b60008115159050919050565b61253581612520565b82525050565b6000602082019050612550600083018461252c565b92915050565b600081519050919050565b600082825260208201905092915050565b60005b83811015612590578082015181840152602081019050612575565b60008484015250505050565b6000601f19601f8301169050919050565b60006125b882612556565b6125c28185612561565b93506125d2818560208601612572565b6125db8161259c565b840191505092915050565b6000602082019050818103600083015261260081846125ad565b905092915050565b6000819050919050565b61261b81612608565b811461262657600080fd5b50565b60008135905061263881612612565b92915050565b60006020828403121561265457612653612491565b5b600061266284828501612629565b91505092915050565b6126748161244b565b811461267f57600080fd5b50565b6000813590506126918161266b565b92915050565b600080604083850312156126ae576126ad612491565b5b60006126bc85828601612682565b92505060206126cd85828601612629565b9150509250929050565b6000806000606084860312156126f0576126ef612491565b5b60006126fe86828701612682565b935050602061270f86828701612682565b925050604061272086828701612629565b9150509250925092565b6000602082840312156127405761273f612491565b5b600061274e84828501612682565b91505092915050565b61276081612608565b82525050565b600060208201905061277b6000830184612757565b92915050565b600080fd5b600080fd5b7f4e487b7100000000000000000000000000000000000000000000000000000000600052604160045260246000fd5b6127c38261259c565b810181811067ffffffffffffffff821117156127e2576127e161278b565b5b80604052505050565b60006127f5612487565b905061280182826127ba565b919050565b600067ffffffffffffffff8211156128215761282061278b565b5b61282a8261259c565b9050602081019050919050565b82818337600083830152505050565b600061285961285484612806565b6127eb565b90508281526020810184848401111561287557612874612786565b5b612880848285612837565b509392505050565b600082601f83011261289d5761289c612781565b5b81356128ad848260208601612846565b91505092915050565b6000602082840312156128cc576128cb612491565b5b600082013567ffffffffffffffff8111156128ea576128e9612496565b5b6128f684828501612888565b91505092915050565b61290881612520565b811461291357600080fd5b50565b600081359050612925816128ff565b92915050565b6000806040838503121561294257612941612491565b5b600061295085828601612682565b925050602061296185828601612916565b9150509250929050565b600080fd5b600080fd5b60008083601f84011261298b5761298a612781565b5b8235905067ffffffffffffffff8111156129a8576129a761296b565b5b6020830191508360018202830111156129c4576129c3612970565b5b9250929050565b6000806000806000608086880312156129e7576129e6612491565b5b60006129f588828901612682565b9550506020612a0688828901612682565b9450506040612a1788828901612629565b935050606086013567ffffffffffffffff811115612a3857612a37612496565b5b612a4488828901612975565b92509250509295509295909350565b60008060408385031215612a6a57612a69612491565b5b6000612a7885828601612682565b9250506020612a8985828601612682565b9150509250929050565b7f4e487b7100000000000000000000000000000000000000000000000000000000600052602260045260246000fd5b60006002820490506001821680612ada57607f821691505b602082108103612aed57612aec612a93565b5b50919050565b7f4e4f545f415554484f52495a4544000000000000000000000000000000000000600082015250565b6000612b29600e83612561565b9150612b3482612af3565b602082019050919050565b60006020820190508181036000830152612b5881612b1c565b9050919050565b7f57524f4e475f46524f4d00000000000000000000000000000000000000000000600082015250565b6000612b95600a83612561565b9150612ba082612b5f565b602082019050919050565b60006020820190508181036000830152612bc481612b88565b9050919050565b7f494e56414c49445f524543495049454e54000000000000000000000000000000600082015250565b6000612c01601183612561565b9150612c0c82612bcb565b602082019050919050565b60006020820190508181036000830152612c3081612bf4565b9050919050565b6000819050919050565b6000819050919050565b6000612c66612c61612c5c84612c37565b612c41565b612608565b9050919050565b612c7681612c4b565b82525050565b6000604082019050612c916000830185612c6d565b612c9e6020830184612757565b9392505050565b600082825260208201905092915050565b50565b6000612cc6600083612ca5565b9150612cd182612cb6565b600082019050919050565b6000608082019050612cf1600083018661245d565b612cfe602083018561245d565b612d0b6040830184612757565b8181036060830152612d1c81612cb9565b9050949350505050565b600081519050612d35816124c7565b92915050565b600060208284031215612d5157612d50612491565b5b6000612d5f84828501612d26565b91505092915050565b7f554e534146455f524543495049454e5400000000000000000000000000000000600082015250565b6000612d9e601083612561565b9150612da982612d68565b602082019050919050565b60006020820190508181036000830152612dcd81612d91565b9050919050565b7f6163636573732064656e79000000000000000000000000000000000000000000600082015250565b6000612e0a600b83612561565b9150612e1582612dd4565b602082019050919050565b60006020820190508181036000830152612e3981612dfd565b9050919050565b60008190508160005260206000209050919050565b60006020601f8301049050919050565b600082821b905092915050565b600060088302612ea27fffffffffffffffffffffffffffffffffffffffffffffffffffffffffffffffff82612e65565b612eac8683612e65565b95508019841693508086168417925050509392505050565b6000612edf612eda612ed584612608565b612c41565b612608565b9050919050565b6000819050919050565b612ef983612ec4565b612f0d612f0582612ee6565b848454612e72565b825550505050565b600090565b612f22612f15565b612f2d818484612ef0565b505050565b5b81811015612f5157612f46600082612f1a565b600181019050612f33565b5050565b601f821115612f9657612f6781612e40565b612f7084612e55565b81016020851015612f7f578190505b612f93612f8b85612e55565b830182612f32565b50505b505050565b600082821c905092915050565b6000612fb960001984600802612f9b565b1980831691505092915050565b6000612fd28383612fa8565b9150826002028217905092915050565b612feb82612556565b67ffffffffffffffff8111156130045761300361278b565b5b61300e8254612ac2565b613019828285612f55565b600060209050601f83116001811461304c576000841561303a578287015190505b6130448582612fc6565b8655506130ac565b601f19841661305a86612e40565b60005b828110156130825784890151825560018201915060208501945060208101905061305d565b8683101561309f578489015161309b601f891682612fa8565b8355505b6001600288020188555050505b505050505050565b7f4e4f545f4d494e54454400000000000000000000000000000000000000000000600082015250565b60006130ea600a83612561565b91506130f5826130b4565b602082019050919050565b60006020820190508181036000830152613119816130dd565b9050919050565b7f5a45524f5f414444524553530000000000000000000000000000000000000000600082015250565b6000613156600c83612561565b915061316182613120565b602082019050919050565b6000602082019050818103600083015261318581613149565b9050919050565b60006040820190506131a1600083018561245d565b6131ae6020830184612757565b9392505050565b6000815190506131c481612612565b92915050565b6000602082840312156131e0576131df612491565b5b60006131ee848285016131b5565b91505092915050565b600080fd5b600080fd5b600061321461320f84612806565b6127eb565b9050828152602081018484840111156132305761322f612786565b5b61323b848285612572565b509392505050565b600082601f83011261325857613257612781565b5b8151613268848260208601613201565b91505092915050565b600060408284031215613287576132866131f7565b5b61329160406127eb565b9050600082015167ffffffffffffffff8111156132b1576132b06131fc565b5b6132bd84828501613243565b600083015250602082015167ffffffffffffffff8111156132e1576132e06131fc565b5b6132ed84828501613243565b60208301525092915050565b60006080828403121561330f5761330e6131f7565b5b61331960806127eb565b90506000613329848285016131b5565b600083015250602061333d848285016131b5565b6020830152506040613351848285016131b5565b6040830152506060613365848285016131b5565b60608301525092915050565b6000815190506133808161266b565b92915050565b6000806000806000806000806000806101a08b8d0312156133aa576133a9612491565b5b60008b015167ffffffffffffffff8111156133c8576133c7612496565b5b6133d48d828e01613271565b9a505060206133e58d828e016132f9565b99505060a06133f68d828e01613371565b98505060c06134078d828e01613371565b97505060e06134188d828e016131b5565b96505061010061342a8d828e016131b5565b95505061012061343c8d828e016131b5565b94505061014061344e8d828e016131b5565b9350506101606134608d828e016131b5565b9250506101806134728d828e016131b5565b9150509295989b9194979a5092959850565b60008060006060848603121561349d5761349c612491565b5b60006134ab868287016131b5565b93505060206134bc868287016131b5565b92505060406134cd868287016131b5565b9150509250925092565b6000602082840312156134ed576134ec612491565b5b600082015167ffffffffffffffff81111561350b5761350a612496565b5b61351784828501613243565b91505092915050565b600061352c8385612ca5565b9350613539838584612837565b6135428361259c565b840190509392505050565b6000608082019050613562600083018861245d565b61356f602083018761245d565b61357c6040830186612757565b818103606083015261358f818486613520565b90509695505050505050565b7f696e76616c696420766573742061646472657373000000000000000000000000600082015250565b60006135d1601483612561565b91506135dc8261359b565b602082019050919050565b60006020820190508181036000830152613600816135c4565b9050919050565b6000806040838503121561361e5761361d612491565b5b600083015167ffffffffffffffff81111561363c5761363b612496565b5b61364885828601613243565b925050602083015167ffffffffffffffff81111561366957613668612496565b5b61367585828601613243565b9150509250929050565b7f646174613a6170706c69636174696f6e2f6a736f6e3b757466382c0000000000815250565b600081905092915050565b60006136bb82612556565b6136c581856136a5565b93506136d5818560208601612572565b80840191505092915050565b60006136ec8261367f565b601b820191506136fc82846136b0565b915081905092915050565b7f52454d41494e494e473a20000000000000000000000000000000000000000000600082015250565b600061373d600b836136a5565b915061374882613707565b600b82019050919050565b7f2000000000000000000000000000000000000000000000000000000000000000600082015250565b60006137896001836136a5565b915061379482613753565b600182019050919050565b60006137aa82613730565b91506137b682856136b0565b91506137c18261377c565b91506137cd82846136b0565b91508190509392505050565b7f2500000000000000000000000000000000000000000000000000000000000000600082015250565b600061380f6001836136a5565b915061381a826137d9565b600182019050919050565b600061383182846136b0565b915061383c82613802565b915081905092915050565b7f544f54414c3a2000000000000000000000000000000000000000000000000000600082015250565b600061387d6007836136a5565b915061388882613847565b600782019050919050565b600061389e82613870565b91506138aa82856136b0565b91506138b58261377c565b91506138c182846136b0565b91508190509392505050565b7f2056455354494e47000000000000000000000000000000000000000000000000600082015250565b60006139036008836136a5565b915061390e826138cd565b600882019050919050565b600061392582846136b0565b9150613930826138f6565b915081905092915050565b7f3c2f747370616e3e3c2f746578743e3c746578742066696c6c3d22233145323260008201527f33302220786d6c3a73706163653d22707265736572766522207374796c653d2260208201527f77686974652d73706163653a207072652220666f6e742d66616d696c793d224960408201527f6e7465722220666f6e742d73697a653d2236342220666f6e742d77656967687460608201527f3d22626f6c6422206c65747465722d73706163696e673d2230656d223e3c747360808201527f70616e20783d2234302220793d223138312e373733223e00000000000000000060a082015250565b6000613a2f60b7836136a5565b9150613a3a8261393b565b60b782019050919050565b6000613a5182856136b0565b9150613a5d82846136b0565b9150613a6882613a22565b91508190509392505050565b7f3c2f747370616e3e3c2f746578743e3c746578742066696c6c3d22233145323260008201527f33302220786d6c3a73706163653d22707265736572766522207374796c653d2260208201527f77686974652d73706163653a207072652220666f6e742d66616d696c793d224960408201527f6e7465722220666f6e742d73697a653d2231322220666f6e742d7374796c653d60608201527f226974616c69632220666f6e742d7765696768743d2235303022206c6574746560808201527f722d73706163696e673d2230656d223e3c747370616e20783d223238392e363060a08201527f392220793d223434362e333634223e504f5745524544262331303b3c2f74737060c08201527f616e3e3c747370616e20783d223333322e3933342220793d223435382e33363460e08201527f223e42593c2f747370616e3e3c2f746578743e3c746578742066696c6c3d22236101008201527f3145323233302220786d6c3a73706163653d22707265736572766522207374796101208201527f6c653d2277686974652d73706163653a207072652220666f6e742d66616d696c6101408201527f793d22496e7465722220666f6e742d73697a653d22313622206c65747465722d6101608201527f73706163696e673d2230656d223e3c747370616e20783d2234302220793d22326101808201527f35352e333138223e0000000000000000000000000000000000000000000000006101a082015250565b6000613c9f6101a8836136a5565b9150613caa82613a74565b6101a882019050919050565b6000613cc282856136b0565b9150613cce82846136b0565b9150613cd982613c91565b91508190509392505050565b7f3c2f747370616e3e3c2f746578743e3c746578742066696c6c3d22233145323260008201527f33302220786d6c3a73706163653d22707265736572766522207374796c653d2260208201527f77686974652d73706163653a207072652220666f6e742d66616d696c793d224960408201527f6e7465722220666f6e742d73697a653d2233322220666f6e742d77656967687460608201527f3d22626f6c6422206c65747465722d73706163696e673d2230656d223e3c747360808201527f70616e20783d2234302220793d223331302e363336223e00000000000000000060a082015250565b6000613dd960b7836136a5565b9150613de482613ce5565b60b782019050919050565b6000613dfb82856136b0565b9150613e0782846136b0565b9150613e1282613dcc565b91508190509392505050565b7f3c2f747370616e3e3c2f746578743e3c696d61676520783d223336302220793d60008201527f223339392220687265663d2268747470733a2f2f64616f7371756172652d696e60208201527f63756261746f722e73332e61702d736f757468656173742d312e616d617a6f6e60408201527f6177732e636f6d2f696e63756261746f722d6c6f676f2e73766722206865696760608201527f68743d22313030222077696474683d22313030222f3e3c696d6167652068726560808201527f663d2268747470733a2f2f64616f7371756172652d696e63756261746f722e7360a08201527f332e61702d736f757468656173742d312e616d617a6f6e6177732e636f6d2f7660c08201527f657374696e672d6c6f676f2e73766722206865696768743d223538222077696460e08201527f68743d2235382220783d2233382220793d22343022202f3e3c646566733e3c6c6101008201527f696e6561724772616469656e742069643d227061696e74305f6c696e6561725f6101208201527f31303638335f323231313836222078313d223235302e343434222079313d222d6101408201527f3130342e373031222078323d222d36362e39353137222079323d223530302e366101608201527f383522206772616469656e74556e6974733d227573657253706163654f6e55736101808201527f65223e3c73746f702073746f702d636f6c6f723d2223464441453846222f3e3c6101a08201527f73746f70206f66667365743d2231222073746f702d636f6c6f723d22234644316101c08201527f433638222f3e3c2f6c696e6561724772616469656e743e3c636c6970506174686101e08201527f2069643d22636c6970305f31303638335f323231313836223e3c7265637420776102008201527f696474683d22353622206865696768743d223536222066696c6c3d22776869746102208201527f6522207472616e73666f726d3d227472616e736c61746528343020343029222f6102408201527f3e3c2f636c6970506174683e3c2f646566733e3c2f7376673e0000000000000061026082015250565b6000614133610279836136a5565b915061413e82613e1e565b61027982019050919050565b600061415682856136b0565b915061416282846136b0565b915061416d82614125565b91508190509392505050565b7f646174613a696d6167652f7376672b786d6c3b6261736536342c000000000000600082015250565b60006141af601a836136a5565b91506141ba82614179565b601a82019050919050565b60006141d0826141a2565b91506141dc82846136b0565b915081905092915050565b7f2056657374696e67000000000000000000000000000000000000000000000000600082015250565b600061421d6008836136a5565b9150614228826141e7565b600882019050919050565b600061423f82846136b0565b915061424a82614210565b915081905092915050565b7f7b226e616d65223a220000000000000000000000000000000000000000000000600082015250565b600061428b6009836136a5565b915061429682614255565b600982019050919050565b7f222c20226465736372697074696f6e223a220000000000000000000000000000600082015250565b60006142d76012836136a5565b91506142e2826142a1565b601282019050919050565b7f222c2022696d616765223a202200000000000000000000000000000000000000600082015250565b6000614323600d836136a5565b915061432e826142ed565b600d82019050919050565b7f227d000000000000000000000000000000000000000000000000000000000000600082015250565b600061436f6002836136a5565b915061437a82614339565b600282019050919050565b60006143908261427e565b915061439c82866136b0565b91506143a7826142ca565b91506143b382856136b0565b91506143be82614316565b91506143c9826141a2565b91506143d582846136b0565b91506143e082614362565b9150819050949350505050565b7f646174613a6170706c69636174696f6e2f6a736f6e3b6261736536342c000000600082015250565b6000614423601d836136a5565b915061442e826143ed565b601d82019050919050565b600061444482614416565b915061445082846136b0565b915081905092915050565b7f414c52454144595f4d494e544544000000000000000000000000000000000000600082015250565b6000614491600e83612561565b915061449c8261445b565b602082019050919050565b600060208201905081810360008301526144c081614484565b9050919050565b7f4e487b7100000000000000000000000000000000000000000000000000000000600052601160045260246000fd5b600061450182612608565b91507fffffffffffffffffffffffffffffffffffffffffffffffffffffffffffffffff8203614533576145326144c7565b5b600182019050919050565b7f4e487b7100000000000000000000000000000000000000000000000000000000600052601260045260246000fd5b600061457882612608565b915061458383612608565b9250826145935761459261453e565b5b828204905092915050565b60006145a982612608565b91506145b483612608565b92508282039050818111156145cc576145cb6144c7565b5b92915050565b60006145dd82612608565b91506145e883612608565b9250826145f8576145f761453e565b5b828206905092915050565b600061460e82612608565b915061461983612608565b9250828201905080821115614631576146306144c7565b5b92915050565b7f4e487b7100000000000000000000000000000000000000000000000000000000600052603260045260246000fd5b600061467182612608565b915061467c83612608565b925082820261468a81612608565b915082820484148315176146a1576146a06144c7565b5b509291505056fe7b226e616d65223a202244414f537175617265204d616e75616c2056657374696e67222c226465736372697074696f6e223a2244414f537175617265204d616e75616c2056657374696e6720436f6c6c656374696f6e20e698afe4b880e4b8aae4b8bae68980e69c89e59ca82044414f5371756172652056657374696e672041505020e4b88ae6898be58aa8e5889be5bbbae79a842056657374696e6720e9a1b9e79baee585b1e794a8e79a84204e465420436f6c6c656374696f6ee38082e6af8fe4b880e4b8aae6898be58aa8e5889be5bbbae79a8456657374696e6720e9a1b9e79baee58886e4baab204e465420436f6c6c656374696f6e20e4b8ade79a84e4b880e5ae9a20546f6b656e20494420e58cbae997b4e38082e794b1e4ba8ee6af8fe4b880e4b8aa20e6898be58aa82056657374696e6720e9a1b9e79baee79a84e59bbee78987e38081e5908de7a7b0e38081e4bb8be7bb8de4b88de5908cefbc8ce59ba0e6ada4e4bda0e58fafe4bba5e59ca8e8bf99e4b8aa20436f6c6c656374696f6e20e4b8ade696b9e4bebfe59cb0e8af86e588abe5ae83e4bbace38082e5a682e69e9ce4bda0e68ba5e69c89e4bbbbe4bd95e4b880e5bca0e69c9fe4b8ade79a84204e46542ce4bda0e58fafe4bba5e8aebfe997ae2044414f53717561726520496e63756261746f7220e69fa5e79c8be5b9b6e9a286e58f9620546f6b656ee38082222c22696d616765223a22697066733a2f2f6261667962656961716f797863336c7032366f6734726a70343637696a677065656b6e74673261673377636a6d626a326b68796165756566773671222c2265787465726e616c5f6c696e6b223a2268747470733a2f2f64616f7371756172652e6669227d4142434445464748494a4b4c4d4e4f505152535455565758595a6162636465666768696a6b6c6d6e6f707172737475767778797a303132333435363738392b2f3c7376672077696474683d2235303022206865696768743d22353030222076696577426f783d223020302035303020353030222066696c6c3d226e6f6e652220786d6c6e733d22687474703a2f2f7777772e77332e6f72672f323030302f737667223e3c726563742077696474683d2235303022206865696768743d22353030222066696c6c3d2275726c28237061696e74305f6c696e6561725f31303638335f32323131383629222f3e3c746578742066696c6c3d22233145323233302220786d6c3a73706163653d22707265736572766522207374796c653d2277686974652d73706163653a207072652220666f6e742d66616d696c793d22496e7465722220666f6e742d73697a653d22313622206c65747465722d73706163696e673d2230656d223e3c747370616e20783d2234302220793d223232382e333138223ea26469706673582212207a31e17a5d7d0d668caa7f8288b08c3802a3e93c5ef49da8f91fee9a4521856a64736f6c63430008120033",
  "linkReferences": {},
  "deployedLinkReferences": {}
}