{
  "_format": "hh-sol-artifact-1",
  "contractName": "VintageFundRaiseAdapterContract",
  "sourceName": "contracts/vintage/adapters/VintageFundRaise.sol",
  "abi": [
    {
      "inputs": [],
      "name": "INVALID_PARAM",
      "type": "error"
    },
    {
      "inputs": [],
      "name": "LAST_NEW_FUND_PROPOSAL_NOT_FINISH",
      "type": "error"
    },
    {
      "inputs": [],
      "name": "VOTING_NOT_FINISH",
      "type": "error"
    },
    {
      "anonymous": false,
      "inputs": [
        {
          "indexed": false,
          "internalType": "address",
          "name": "daoAddr",
          "type": "address"
        },
        {
          "indexed": false,
          "internalType": "bytes32",
          "name": "proposalId",
          "type": "bytes32"
        }
      ],
      "name": "ProposalCreated",
      "type": "event"
    },
    {
      "anonymous": false,
      "inputs": [
        {
          "indexed": false,
          "internalType": "address",
          "name": "daoAddr",
          "type": "address"
        },
        {
          "indexed": false,
          "internalType": "bytes32",
          "name": "proposalId",
          "type": "bytes32"
        },
        {
          "indexed": false,
          "internalType": "enum IVintageFundRaise.ProposalState",
          "name": "state",
          "type": "uint8"
        },
        {
          "indexed": false,
          "internalType": "uint128",
          "name": "allVotingWeight",
          "type": "uint128"
        },
        {
          "indexed": false,
          "internalType": "uint128",
          "name": "nbYes",
          "type": "uint128"
        },
        {
          "indexed": false,
          "internalType": "uint128",
          "name": "nbNo",
          "type": "uint128"
        },
        {
          "indexed": false,
          "internalType": "uint256",
          "name": "voteResult",
          "type": "uint256"
        }
      ],
      "name": "proposalExecuted",
      "type": "event"
    },
    {
      "inputs": [
        {
          "internalType": "address",
          "name": "",
          "type": "address"
        },
        {
          "internalType": "bytes32",
          "name": "",
          "type": "bytes32"
        }
      ],
      "name": "Proposals",
      "outputs": [
        {
          "internalType": "address",
          "name": "acceptTokenAddr",
          "type": "address"
        },
        {
          "components": [
            {
              "internalType": "uint256",
              "name": "fundRaiseTarget",
              "type": "uint256"
            },
            {
              "internalType": "uint256",
              "name": "fundRaiseMaxAmount",
              "type": "uint256"
            },
            {
              "internalType": "uint256",
              "name": "lpMinDepositAmount",
              "type": "uint256"
            },
            {
              "internalType": "uint256",
              "name": "lpMaxDepositAmount",
              "type": "uint256"
            }
          ],
          "internalType": "struct IVintageFundRaise.FundRaiseAmountInfo",
          "name": "amountInfo",
          "type": "tuple"
        },
        {
          "components": [
            {
              "internalType": "uint256",
              "name": "fundRaiseStartTime",
              "type": "uint256"
            },
            {
              "internalType": "uint256",
              "name": "fundRaiseEndTime",
              "type": "uint256"
            },
            {
              "internalType": "uint256",
              "name": "fundTerm",
              "type": "uint256"
            },
            {
              "internalType": "uint256",
              "name": "redemptPeriod",
              "type": "uint256"
            },
            {
              "internalType": "uint256",
              "name": "redemptDuration",
              "type": "uint256"
            },
            {
              "internalType": "uint256",
              "name": "returnDuration",
              "type": "uint256"
            }
          ],
          "internalType": "struct IVintageFundRaise.FundRiaseTimeInfo",
          "name": "timesInfo",
          "type": "tuple"
        },
        {
          "components": [
            {
              "internalType": "uint256",
              "name": "managementFeeRatio",
              "type": "uint256"
            },
            {
              "internalType": "uint256",
              "name": "returnTokenManagementFeeRatio",
              "type": "uint256"
            },
            {
              "internalType": "uint256",
              "name": "redepmtFeeRatio",
              "type": "uint256"
            },
            {
              "internalType": "uint256",
              "name": "protocolFeeRatio",
              "type": "uint256"
            },
            {
              "internalType": "address",
              "name": "managementFeeAddress",
              "type": "address"
            }
          ],
          "internalType": "struct IVintageFundRaise.FundRaiseRewardAndFeeInfo",
          "name": "feeInfo",
          "type": "tuple"
        },
        {
          "components": [
            {
              "internalType": "uint256",
              "name": "fundFromInverstor",
              "type": "uint256"
            },
            {
              "internalType": "uint256",
              "name": "projectTokenFromInvestor",
              "type": "uint256"
            }
          ],
          "internalType": "struct IVintageFundRaise.ProoserReward",
          "name": "proposerReward",
          "type": "tuple"
        },
        {
          "components": [
            {
              "internalType": "bool",
              "name": "enable",
              "type": "bool"
            },
            {
              "internalType": "uint8",
              "name": "vtype",
              "type": "uint8"
            },
            {
              "internalType": "address",
              "name": "token",
              "type": "address"
            },
            {
              "internalType": "uint256",
              "name": "tokenId",
              "type": "uint256"
            },
            {
              "internalType": "uint256",
              "name": "amount",
              "type": "uint256"
            }
          ],
          "internalType": "struct IVintageFundRaise.PriorityDeposite",
          "name": "priorityDeposite",
          "type": "tuple"
        },
        {
          "internalType": "uint8",
          "name": "fundRaiseType",
          "type": "uint8"
        },
        {
          "internalType": "enum IVintageFundRaise.ProposalState",
          "name": "state",
          "type": "uint8"
        },
        {
          "internalType": "uint256",
          "name": "creationTime",
          "type": "uint256"
        },
        {
          "internalType": "uint256",
          "name": "stopVoteTime",
          "type": "uint256"
        }
      ],
      "stateMutability": "view",
      "type": "function"
    },
    {
      "inputs": [
        {
          "internalType": "address",
          "name": "",
          "type": "address"
        }
      ],
      "name": "createdFundCounter",
      "outputs": [
        {
          "internalType": "uint256",
          "name": "",
          "type": "uint256"
        }
      ],
      "stateMutability": "view",
      "type": "function"
    },
    {
      "inputs": [
        {
          "internalType": "address",
          "name": "dao",
          "type": "address"
        },
        {
          "internalType": "bytes32",
          "name": "proposalId",
          "type": "bytes32"
        }
      ],
      "name": "getWhiteList",
      "outputs": [
        {
          "internalType": "address[]",
          "name": "",
          "type": "address[]"
        }
      ],
      "stateMutability": "view",
      "type": "function"
    },
    {
      "inputs": [
        {
          "internalType": "contract DaoRegistry",
          "name": "dao",
          "type": "address"
        },
        {
          "internalType": "bytes32",
          "name": "proposalId",
          "type": "bytes32"
        },
        {
          "internalType": "address",
          "name": "account",
          "type": "address"
        }
      ],
      "name": "isPriorityDepositer",
      "outputs": [
        {
          "internalType": "bool",
          "name": "",
          "type": "bool"
        }
      ],
      "stateMutability": "view",
      "type": "function"
    },
    {
      "inputs": [
        {
          "internalType": "address",
          "name": "",
          "type": "address"
        }
      ],
      "name": "lastProposalIds",
      "outputs": [
        {
          "internalType": "bytes32",
          "name": "",
          "type": "bytes32"
        }
      ],
      "stateMutability": "view",
      "type": "function"
    },
    {
      "inputs": [
        {
          "internalType": "contract DaoRegistry",
          "name": "dao",
          "type": "address"
        },
        {
          "internalType": "bytes32",
          "name": "proposalId",
          "type": "bytes32"
        }
      ],
      "name": "processProposal",
      "outputs": [],
      "stateMutability": "nonpayable",
      "type": "function"
    },
    {
      "inputs": [
        {
          "components": [
            {
              "internalType": "contract DaoRegistry",
              "name": "dao",
              "type": "address"
            },
            {
              "components": [
                {
                  "internalType": "uint256",
                  "name": "fundRaiseMinTarget",
                  "type": "uint256"
                },
                {
                  "internalType": "uint256",
                  "name": "fundRaiseMaxCap",
                  "type": "uint256"
                },
                {
                  "internalType": "uint256",
                  "name": "lpMinDepositAmount",
                  "type": "uint256"
                },
                {
                  "internalType": "uint256",
                  "name": "lpMaxDepositAmount",
                  "type": "uint256"
                },
                {
                  "internalType": "uint8",
                  "name": "fundRaiseType",
                  "type": "uint8"
                }
              ],
              "internalType": "struct IVintageFundRaise.ProposalFundRaiseInfo",
              "name": "proposalFundRaiseInfo",
              "type": "tuple"
            },
            {
              "components": [
                {
                  "internalType": "uint256",
                  "name": "startTime",
                  "type": "uint256"
                },
                {
                  "internalType": "uint256",
                  "name": "endTime",
                  "type": "uint256"
                },
                {
                  "internalType": "uint256",
                  "name": "fundTerm",
                  "type": "uint256"
                },
                {
                  "internalType": "uint256",
                  "name": "redemptPeriod",
                  "type": "uint256"
                },
                {
                  "internalType": "uint256",
                  "name": "redemptInterval",
                  "type": "uint256"
                },
                {
                  "internalType": "uint256",
                  "name": "returnPeriod",
                  "type": "uint256"
                }
              ],
              "internalType": "struct IVintageFundRaise.ProposalTimeInfo",
              "name": "proposalTimeInfo",
              "type": "tuple"
            },
            {
              "components": [
                {
                  "internalType": "uint256",
                  "name": "managementFeeRatio",
                  "type": "uint256"
                },
                {
                  "internalType": "uint256",
                  "name": "returnTokenManagementFeeRatio",
                  "type": "uint256"
                },
                {
                  "internalType": "uint256",
                  "name": "redepmtFeeRatio",
                  "type": "uint256"
                }
              ],
              "internalType": "struct IVintageFundRaise.ProposalFeeInfo",
              "name": "proposalFeeInfo",
              "type": "tuple"
            },
            {
              "components": [
                {
                  "internalType": "address",
                  "name": "managementFeeAddress",
                  "type": "address"
                },
                {
                  "internalType": "address",
                  "name": "fundRaiseTokenAddress",
                  "type": "address"
                }
              ],
              "internalType": "struct IVintageFundRaise.ProposalAddressInfo",
              "name": "proposalAddressInfo",
              "type": "tuple"
            },
            {
              "components": [
                {
                  "internalType": "uint256",
                  "name": "fundFromInverstor",
                  "type": "uint256"
                },
                {
                  "internalType": "uint256",
                  "name": "projectTokenFromInvestor",
                  "type": "uint256"
                }
              ],
              "internalType": "struct IVintageFundRaise.ProoserReward",
              "name": "proposerReward",
              "type": "tuple"
            },
            {
              "components": [
                {
                  "internalType": "bool",
                  "name": "enable",
                  "type": "bool"
                },
                {
                  "internalType": "uint8",
                  "name": "vtype",
                  "type": "uint8"
                },
                {
                  "internalType": "address",
                  "name": "token",
                  "type": "address"
                },
                {
                  "internalType": "uint256",
                  "name": "tokenId",
                  "type": "uint256"
                },
                {
                  "internalType": "uint256",
                  "name": "amount",
                  "type": "uint256"
                },
                {
                  "internalType": "address[]",
                  "name": "whitelist",
                  "type": "address[]"
                }
              ],
              "internalType": "struct IVintageFundRaise.ProposalPriorityDepositInfo",
              "name": "priorityDeposite",
              "type": "tuple"
            }
          ],
          "internalType": "struct IVintageFundRaise.ProposalParams",
          "name": "params",
          "type": "tuple"
        }
      ],
      "name": "submitProposal",
      "outputs": [],
      "stateMutability": "nonpayable",
      "type": "function"
    }
  ],
  "bytecode": "0x608060405234801561001057600080fd5b506155de80620000216000396000f3fe608060405234801561001057600080fd5b506004361061007c5760003560e01c80634fc0a76d1161005b5780634fc0a76d146100e95780636d3cc040146101095780639573167d1461012c578063bf4999941461013f57600080fd5b8062610d721461008157806301c22a3d146100965780634122a485146100c9575b600080fd5b61009461008f366004615030565b6102bc565b005b6100b66100a4366004614de8565b60026020526000908152604090205481565b6040519081526020015b60405180910390f35b6100dc6100d7366004614e20565b611836565b6040516100c091906152e8565b6100b66100f7366004614de8565b60016020526000908152604090205481565b61011c610117366004614f89565b61186e565b60405190151581526020016100c0565b61009461013a366004614f77565b611dbc565b6102a661014d366004614e20565b60006020818152928152604080822084529181528190208054825160808082018552600184015482526002840154828701526003840154828601526004840154606080840191909152855160c08101875260058601548152600686015481890152600786015481880152600886015481830152600986015481840152600a86015460a08083019190915287518082018952600b8801548152600c880154818b0152600d880154818a0152600e88015481850152600f8801546001600160a01b03908116828701528951808b018b5260108a0154815260118a0154818d01528a519384018b5260128a015460ff8082161515865261010080830482169e87019e909e526201000090910483169b85019b909b5260138a01549584019590955260148901549583019590955260158801546016890154601790990154959097169995989297909693959194848416949290920490921691908a565b6040516100c09a999897969594939291906151a8565b6102c96020820182614de8565b6102d38133612519565b6102e06020830183614de8565b60006102eb826125fb565b905060006002816102ff6020880188614de8565b6001600160a01b03166001600160a01b03168152602001908152602001600020541415801561048557506000808061033a6020880188614de8565b6001600160a01b03166001600160a01b031681526020019081526020016000206000600260008860000160208101906103739190614de8565b6001600160a01b03166001600160a01b0316815260200190815260200160002054815260200190815260200160002060150160019054906101000a900460ff1660038111156103d257634e487b7160e01b600052602160045260246000fd5b1480610485575060016000806103eb6020880188614de8565b6001600160a01b03166001600160a01b031681526020019081526020016000206000600260008860000160208101906104249190614de8565b6001600160a01b03166001600160a01b0316815260200190815260200160002054815260200190815260200160002060150160019054906101000a900460ff16600381111561048357634e487b7160e01b600052602160045260246000fd5b145b156104bc576040517fc49f1f0a00000000000000000000000000000000000000000000000000000000815260040160405180910390fd5b61059f604051806102c001604052806000815260200160006001600160a01b0316815260200160006001600160a01b0316815260200160006001600160a01b0316815260200160006001600160a01b0316815260200160008019168152602001600081526020016000815260200160008152602001600081526020016000815260200160008152602001600081526020016000815260200160008152602001600081526020016000815260200160008152602001600081526020016000815260200160006001600160a01b0316815260200160006001600160a01b031681525090565b6105ac6020860186614de8565b6040516317ba7d8560e01b81527f77cdf6056467142a33aa6f753fc1e3907f6850ebf08c7b63b107b0611a69b04e60048201526001600160a01b0391909116906317ba7d859060240160206040518083038186803b15801561060d57600080fd5b505afa158015610621573d6000803e3d6000fd5b505050506040513d601f19601f820116820180604052508101906106459190614e04565b6001600160a01b03166102a08201819052639a0242fc6106686020880188614de8565b6040516001600160e01b031960e084901b1681526001600160a01b03909116600482015260240160206040518083038186803b1580156106a757600080fd5b505afa1580156106bb573d6000803e3d6000fd5b505050506040513d601f19601f820116820180604052508101906106df9190614f2e565b6107305760405162461bcd60e51b815260206004820152601660248201527f44616f5365742050726f706f73616c20556e646f6e650000000000000000000060448201526064015b60405180910390fd5b61073d6020860186614de8565b604051634941d71d60e11b81527f9ce69cf04065e3c7823cc5540c0598d8a694bd7a9a5a2a786d8bccf14ed6e2ea60048201526001600160a01b039190911690639283ae3a9060240160206040518083038186803b15801561079e57600080fd5b505afa1580156107b2573d6000803e3d6000fd5b505050506040513d601f19601f820116820180604052508101906107d69190615083565b81526107e56020860186614de8565b604051634941d71d60e11b81527fb0d4178853a5320a41f8c55fa6d58af06637e392beff71e66dba4e8f32c39bb860048201526001600160a01b039190911690639283ae3a9060240160206040518083038186803b15801561084657600080fd5b505afa15801561085a573d6000803e3d6000fd5b505050506040513d601f19601f8201168201806040525081019061087e9190615083565b6101e08201526108916020860186614de8565b6040516317ba7d8560e01b81527faaff643bdbd909f604d46ce015336f7e20fee3ac4a55cef3610188dee176c89260048201526001600160a01b0391909116906317ba7d859060240160206040518083038186803b1580156108f257600080fd5b505afa158015610906573d6000803e3d6000fd5b505050506040513d601f19601f8201168201806040525081019061092a9190614e04565b6001600160a01b031661028082018190526000906368abb5e06109506020890189614de8565b6040516001600160e01b031960e084901b1681526001600160a01b03909116600482015260240160206040518083038186803b15801561098f57600080fd5b505afa1580156109a3573d6000803e3d6000fd5b505050506040513d601f19601f820116820180604052508101906109c79190615083565b1115610a155760405162461bcd60e51b815260206004820152600b60248201527f21636c6561722066756e640000000000000000000000000000000000000000006044820152606401610727565b60006102808201516001600160a01b0316631ee1a2b0610a386020890189614de8565b6040516001600160e01b031960e084901b1681526001600160a01b03909116600482015260240160206040518083038186803b158015610a7757600080fd5b505afa158015610a8b573d6000803e3d6000fd5b505050506040513d601f19601f82011682018060405250810190610aaf9190614fca565b6003811115610ace57634e487b7160e01b600052602160045260246000fd5b1480610b90575060036102808201516001600160a01b0316631ee1a2b0610af86020890189614de8565b6040516001600160e01b031960e084901b1681526001600160a01b03909116600482015260240160206040518083038186803b158015610b3757600080fd5b505afa158015610b4b573d6000803e3d6000fd5b505050506040513d601f19601f82011682018060405250810190610b6f9190614fca565b6003811115610b8e57634e487b7160e01b600052602160045260246000fd5b145b80610c6c575060026102808201516001600160a01b0316631ee1a2b0610bb96020890189614de8565b6040516001600160e01b031960e084901b1681526001600160a01b03909116600482015260240160206040518083038186803b158015610bf857600080fd5b505afa158015610c0c573d6000803e3d6000fd5b505050506040513d601f19601f82011682018060405250810190610c309190614fca565b6003811115610c4f57634e487b7160e01b600052602160045260246000fd5b148015610c6c57506101e08101518151610c699190615464565b42115b610cb85760405162461bcd60e51b815260206004820152600760248201527f6e6f74206e6f77000000000000000000000000000000000000000000000000006044820152606401610727565b8061028001516001600160a01b031663b0e21e8a6040518163ffffffff1660e01b815260040160206040518083038186803b158015610cf657600080fd5b505afa158015610d0a573d6000803e3d6000fd5b505050506040513d601f19601f82011682018060405250810190610d2e9190615083565b61026082015260208501351580610d5a5750604085013515801590610d5a575060208501356040860135105b80610d63575060005b80610d845750608085013515801590610d8457506060850135608086013511155b80610d9257504260c0860135105b80610da4575060c085013560e0860135105b80610db25750610100850135155b80610dc65750610140850135610120860135115b80610dda5750610100850135610140860135115b80610def575061010085013561016086013510155b80610e075750670de0b6b3a764000061018086013510155b80610e10575060005b80610e285750670de0b6b3a76400006101c086013510155b80610e31575060005b80610e3a575060005b80610e525750670de0b6b3a764000061022086013510155b80610e5b575060005b80610e735750670de0b6b3a764000061024086013510155b15610eaa576040517f22ee6ae700000000000000000000000000000000000000000000000000000000815260040160405180910390fd5b610eb76020860186614de8565b6040516317ba7d8560e01b81527fd3999c37f8f35da86f802a74f9bf032c4aeb46e49abd9c861f489ef4cb40d0a860048201526001600160a01b0391909116906317ba7d859060240160206040518083038186803b158015610f1857600080fd5b505afa158015610f2c573d6000803e3d6000fd5b505050506040513d601f19601f82011682018060405250810190610f509190614e04565b6001600160a01b0316602080830191909152610f6e90860186614de8565b6001600160a01b0316633044bafc6040518163ffffffff1660e01b8152600401600060405180830381600087803b158015610fa857600080fd5b505af1158015610fbc573d6000803e3d6000fd5b5061107f9250610fd29150506020870187614de8565b60c01b61105a610fe56020890189614de8565b6001600160a01b03166334fbfbb26040518163ffffffff1660e01b815260040160206040518083038186803b15801561101d57600080fd5b505afa158015611031573d6000803e3d6000fd5b505050506040513d601f19601f820116820180604052508101906110559190615083565b6128c6565b60405160200161106b9291906150de565b604051602081830303815290604052612a1c565b60a08201526110916020860186614de8565b6001600160a01b031663b73dc3898260a001516040518263ffffffff1660e01b81526004016110c291815260200190565b600060405180830381600087803b1580156110dc57600080fd5b505af11580156110f0573d6000803e3d6000fd5b5050604080516101408101909152915081905061111561022088016102008901614de8565b6001600160a01b03168152604080516080808201835260208a81013583528a840135838201526060808c0135848601528b8301358185015281860193909352835160c080820186528c0135815260e08c0135818301526101008c0135818601526101208c0135818501526101408c0135818401526101608c013560a08083019190915285870191909152845190810185526101808c013581526101a08c0135918101919091526101c08b0135938101939093526102608601518383015292019181016111e96102008a016101e08b01614de8565b6001600160a01b0316905281526040805180820182526102208901358152610240890135602082810191909152830152805160a081018252910190806112336102608a018a6153f3565b611241906020810190614f12565b151581526020016112566102608a018a6153f3565b61126790604081019060200161509b565b60ff16815260200161127d6102608a018a6153f3565b61128e906060810190604001614de8565b6001600160a01b031681526020016112aa6102608a018a6153f3565b6060013581526020016112c16102608a018a6153f3565b60800135905281526020016112dc60c0880160a0890161509b565b60ff168152602001600081526020014281526020018660000160208101906113049190614de8565b604051634941d71d60e11b81527f9876c0f0505bfb2b1c38d3bbd25ba13159172cd0868972d76927723f5a9480fc60048201526001600160a01b039190911690639283ae3a9060240160206040518083038186803b15801561136557600080fd5b505afa158015611379573d6000803e3d6000fd5b505050506040513d601f19601f8201168201806040525081019061139d9190615083565b6113a79042615464565b90526000806113b96020890189614de8565b6001600160a01b0390811682526020808301939093526040918201600090812060a080880151835290855290839020855181549084167fffffffffffffffffffffffff000000000000000000000000000000000000000091821617825586860151805160018401558087015160028401558086015160038085019190915560609182015160048501558887015180516005860155808901516006860155808801516007860155808301516008860155608080820151600987015590860151600a860155828a01518051600b870155808a0151600c87015580890151600d87015580840151600e870155810151600f86018054918916919095161790935582890151805160108601558801516011850155938801518051601285018054998301519883015190971662010000027fffffffffffffffffffff0000000000000000000000000000000000000000ffff60ff998a1661010090810261ff0019941515949094167fffffffffffffffffffffffffffffffffffffffffffffffffffffffffffff00009c8d16179390931716179096559081015160138401550151601482015560c0860151601582018054919095167fffffffffffffffffffffffffffffffffffffffffffffffffffffffffffffff0082168117865560e08801519296929594919092169091179184908111156115c157634e487b7160e01b600052602160045260246000fd5b02179055506101008201516016820155610120909101516017909101556115ec6102608601866153f3565b6115fa906020810190614f12565b8015611627575061160f6102608601866153f3565b61162090604081019060200161509b565b60ff166003145b80156116505750600061163e6102608701876153f3565b61164c9060a0810190615386565b9050115b1561168b5761168b6116656020870187614de8565b60a08301516116786102608901896153f3565b6116869060a0810190615386565b612a38565b6020808201516001600160a01b0316906326078cd0906116ad90880188614de8565b60a0840151604080516020810182526000815290516001600160e01b031960e086901b1681526116e39392914291600401615335565b600060405180830381600087803b1580156116fd57600080fd5b505af1158015611711573d6000803e3d6000fd5b50611723925050506020860186614de8565b6001600160a01b031663815a2bf48260a0015183602001516040518363ffffffff1660e01b815260040161176a9291909182526001600160a01b0316602082015260400190565b600060405180830381600087803b15801561178457600080fd5b505af1158015611798573d6000803e3d6000fd5b5050505060a0810151600260006117b26020890189614de8565b6001600160a01b03168152602080820192909252604001600020919091557ffe22c13d0cc04eef2a813c30901da5f8cd64f5ba91866fccce71c606ce464874906117fe90870187614de8565b60a0830151604080516001600160a01b03909316835260208301919091520160405180910390a1506118308282612ac4565b50505050565b6001600160a01b0382166000908152600360209081526040808320848452909152902060609061186590612acf565b90505b92915050565b604051634941d71d60e11b81527f6c2aeb5335c37bc984e34d16b5daacfd3a43d3358ad5314ed1a17f8b68bc10a560048201526000906001600160a01b03851690639283ae3a9060240160206040518083038186803b1580156118d057600080fd5b505afa1580156118e4573d6000803e3d6000fd5b505050506040513d601f19601f820116820180604052508101906119089190615083565b60011415611db157604051634941d71d60e11b81527f1710acff43ba8f339e18305d5d5116602e0cf6b226983bae821884b877626aa660048201526000906001600160a01b03861690639283ae3a9060240160206040518083038186803b15801561197257600080fd5b505afa158015611986573d6000803e3d6000fd5b505050506040513d601f19601f820116820180604052508101906119aa9190615083565b60405163fd310d2960e01b81527f3b45967f728449b4fbffd6027f6b8d86035e572016480c7bc2a55edeec4f3ca560048201529091506000906001600160a01b0387169063fd310d299060240160206040518083038186803b158015611a0f57600080fd5b505afa158015611a23573d6000803e3d6000fd5b505050506040513d601f19601f82011682018060405250810190611a479190614e04565b604051634941d71d60e11b81527f20d88b77300b4133cc1f146fdec45d5266086bc18b256e8e607ef37ec1d047b260048201529091506000906001600160a01b03881690639283ae3a9060240160206040518083038186803b158015611aac57600080fd5b505afa158015611ac0573d6000803e3d6000fd5b505050506040513d601f19601f82011682018060405250810190611ae49190615083565b604051634941d71d60e11b81527f04d4d5cbde9f5c38336ca61af88f78d20a912993a64a3951a1cc2ccd8bb0e89960048201529091506000906001600160a01b03891690639283ae3a9060240160206040518083038186803b158015611b4957600080fd5b505afa158015611b5d573d6000803e3d6000fd5b505050506040513d601f19601f82011682018060405250810190611b819190615083565b905083158015611c0b57506040516370a0823160e01b81526001600160a01b0387811660048301528391908516906370a082319060240160206040518083038186803b158015611bd057600080fd5b505afa158015611be4573d6000803e3d6000fd5b505050506040513d601f19601f82011682018060405250810190611c089190615083565b10155b15611c1d576001945050505050611db5565b836001148015611ca757506040516370a0823160e01b81526001600160a01b0387811660048301528391908516906370a082319060240160206040518083038186803b158015611c6c57600080fd5b505afa158015611c80573d6000803e3d6000fd5b505050506040513d601f19601f82011682018060405250810190611ca49190615083565b10155b15611cb9576001945050505050611db5565b836002148015611d485750604051627eeac760e11b81526001600160a01b0387811660048301526024820183905283919085169062fdd58e9060440160206040518083038186803b158015611d0d57600080fd5b505afa158015611d21573d6000803e3d6000fd5b505050506040513d601f19601f82011682018060405250810190611d459190615083565b10155b15611d5a576001945050505050611db5565b836003148015611d9257506001600160a01b03881660009081526003602090815260408083208a84529091529020611d929087612adc565b15611da4576001945050505050611db5565b6000945050505050611db5565b5060005b9392505050565b816000611dc8826125fb565b9050611dd2614c2d565b6001600160a01b0385166000818152602081815260408083208884529091529081902090517f30490e91000000000000000000000000000000000000000000000000000000008152600481018790529091906330490e9190602401600060405180830381600087803b158015611e4757600080fd5b505af1158015611e5b573d6000803e3d6000fd5b50506040516317ba7d8560e01b81527faaff643bdbd909f604d46ce015336f7e20fee3ac4a55cef3610188dee176c89260048201526001600160a01b03891692506317ba7d85915060240160206040518083038186803b158015611ebe57600080fd5b505afa158015611ed2573d6000803e3d6000fd5b505050506040513d601f19601f82011682018060405250810190611ef69190614e04565b6001600160a01b0390811660608401526040517f40de703e00000000000000000000000000000000000000000000000000000000815260048101879052908716906340de703e9060240160206040518083038186803b158015611f5857600080fd5b505afa158015611f6c573d6000803e3d6000fd5b505050506040513d601f19601f82011682018060405250810190611f909190614e04565b6001600160a01b0316602083018190526120125760405162461bcd60e51b815260206004820152603460248201527f46756e6452616973653a3a70726f6365737350726f706f73616c3a3a766f746960448201527f6e672061646170746572206e6f7420666f756e640000000000000000000000006064820152608401610727565b60208201516040517f76225e730000000000000000000000000000000000000000000000000000000081526001600160a01b03888116600483015260248201889052909116906376225e739060440160606040518083038186803b15801561207957600080fd5b505afa15801561208d573d6000803e3d6000fd5b505050506040513d601f19601f820116820180604052508101906120b19190614fe9565b6fffffffffffffffffffffffffffffffff80821660c0870152821660a0860152608085018360058111156120f557634e487b7160e01b600052602160045260246000fd5b600581111561211457634e487b7160e01b600052602160045260246000fd5b905250600291506121229050565b8260800151600581111561214657634e487b7160e01b600052602160045260246000fd5b14156123dd5760158101805461010061ff00198216811792839055604080516101408101825285546001600160a01b0390811682528251608080820185526001890154825260028901546020808401919091526003808b01548488015260048b015460608086019190915282870194909452865160c0808201895260058d0154825260068d01548285015260078d0154828a015260088d01548287015260098d015482860152600a8d015460a080840191909152888a019290925288518083018a52600b8e01548152600c8e015481860152600d8e0154818b0152600e8e015481880152600f8e0154881681870152868901528851808a018a5260108e0154815260118e0154818601528589015288518083018a5260128e015460ff808216151583528c82048116968301969096526201000090049097169887019890985260138c01549486019490945260148b015492850192909252918401929092529485169282019290925261231c948b949193879360e08601939190920416908111156122e057634e487b7160e01b600052602160045260246000fd5b60038111156122ff57634e487b7160e01b600052602160045260246000fd5b815260200160168201548152602001601782015481525050612afe565b60608201516040517ff10e6b6b0000000000000000000000000000000000000000000000000000000081526001600160a01b0388811660048301529091169063f10e6b6b90602401600060405180830381600087803b15801561237e57600080fd5b505af1158015612392573d6000803e3d6000fd5b5050505060158101805461ff0019166102001790556001600160a01b038616600090815260016020819052604082208054919290916123d2908490615464565b9091555061247f9050565b60038260800151600581111561240357634e487b7160e01b600052602160045260246000fd5b1480612432575060018260800151600581111561243057634e487b7160e01b600052602160045260246000fd5b145b1561244d5760158101805461ff00191661030017905561247f565b6040517f70fc772800000000000000000000000000000000000000000000000000000000815260040160405180910390fd5b600061248b8787612cf3565b90507f2bdcd9364cd03f3b390f2f088b6dcef6ef67097a47a0a392d981c4ee723771be87878460150160019054906101000a900460ff16848760a001518860c00151896080015160058111156124f157634e487b7160e01b600052602160045260246000fd5b604051612504979695949392919061514c565b60405180910390a15050506118308282612ac4565b6040517fa230c5240000000000000000000000000000000000000000000000000000000081526001600160a01b03828116600483015283169063a230c5249060240160206040518083038186803b15801561257357600080fd5b505afa158015612587573d6000803e3d6000fd5b505050506040513d601f19601f820116820180604052508101906125ab9190614f2e565b6125f75760405162461bcd60e51b815260206004820152600a60248201527f6f6e6c79526169736572000000000000000000000000000000000000000000006044820152606401610727565b5050565b6040805160808101825260008082526020820181905291810182905260608101919091525a81600001818152505043826001600160a01b031663b21634826040518163ffffffff1660e01b815260040160206040518083038186803b15801561266357600080fd5b505afa158015612677573d6000803e3d6000fd5b505050506040513d601f19601f8201168201806040525081019061269b9190615083565b14156126e95760405162461bcd60e51b815260206004820152601060248201527f7265656e7472616e6379206775617264000000000000000000000000000000006044820152606401610727565b816001600160a01b03166310fdb0a26040518163ffffffff1660e01b8152600401600060405180830381600087803b15801561272457600080fd5b505af1158015612738573d6000803e3d6000fd5b50506040517f72c6838f0000000000000000000000000000000000000000000000000000000081527f1f2fd42ad6a6cacd573c4b212beb7a4e2499ad45d742a65337097f130e71daff6004820152600092506001600160a01b03851691506372c6838f9060240160206040518083038186803b1580156127b757600080fd5b505afa1580156127cb573d6000803e3d6000fd5b505050506040513d601f19601f820116820180604052508101906127ef9190614e04565b90506001600160a01b03811661280b57600060208301526128c0565b6001600160a01b038181166060840181905283516040517f43a8a3f1000000000000000000000000000000000000000000000000000000008152928616600484015260248301526000918291906343a8a3f190604401604080518083038186803b15801561287857600080fd5b505afa15801561288c573d6000803e3d6000fd5b505050506040513d601f19601f820116820180604052508101906128b09190614f4a565b9015156020860152604085015250505b50919050565b60608161290657505060408051808201909152600181527f3000000000000000000000000000000000000000000000000000000000000000602082015290565b8160005b8115612930578061291a816154d3565b91506129299050600a8361547c565b915061290a565b60008167ffffffffffffffff81111561295957634e487b7160e01b600052604160045260246000fd5b6040519080825280601f01601f191660200182016040528015612983576020820181803683370190505b5090505b8415612a1457612998600183615490565b91506129a5600a8661552c565b6129b0906030615464565b60f81b8183815181106129d357634e487b7160e01b600052603260045260246000fd5b60200101907effffffffffffffffffffffffffffffffffffffffffffffffffffffffffffff1916908160001a905350612a0d600a8661547c565b9450612987565b949350505050565b6000815160001415612a3057506000919050565b506020015190565b60005b60ff8116821115612abd57612aaa83838360ff16818110612a6c57634e487b7160e01b600052603260045260246000fd5b9050602002016020810190612a819190614de8565b6001600160a01b038716600090815260036020908152604080832089845290915290209061301f565b5080612ab58161550c565b915050612a3b565b5050505050565b6125f7828233613034565b60606000611db58361312a565b6001600160a01b03811660009081526001830160205260408120541515611865565b612b48826040518060800160405280846020015160000151815260200184602001516020015181526020018460200151604001518152602001846020015160600151815250613186565b612bae826040518060c0016040528084604001516000015181526020018460400151602001518152602001846040015160400151815260200184604001516060015181526020018460400151608001518152602001846040015160a001518152506133aa565b604080518082019091526060820151608001516001600160a01b0390811682528251166020820152612be190839061367e565b612c39826040518060a00160405280846060015160000151815260200184606001516040015181526020018460800151600001518152602001846080015160200151815260200184606001516020015181525061375c565b60c0810151604051630da0f6c760e41b81527fbe07eea886ce63e8ab49ef6fd986e9dea247fbb31da43dd1df3e153cc548277a600482015260ff90911660248201526001600160a01b0383169063da0f6c7090604401600060405180830381600087803b158015612ca957600080fd5b505af1158015612cbd573d6000803e3d6000fd5b5050505060a081015151156125f75760a08101516020810151604082015160608301516080909301516125f793869392916139aa565b600080836001600160a01b031663a6f636416040518163ffffffff1660e01b815260040160006040518083038186803b158015612d2f57600080fd5b505afa158015612d43573d6000803e3d6000fd5b505050506040513d6000823e601f3d908101601f19168201604052612d6b9190810190614e4b565b6040516317ba7d8560e01b81527fd3999c37f8f35da86f802a74f9bf032c4aeb46e49abd9c861f489ef4cb40d0a8600482015290915060009081906001600160a01b038716906317ba7d859060240160206040518083038186803b158015612dd257600080fd5b505afa158015612de6573d6000803e3d6000fd5b505050506040513d601f19601f82011682018060405250810190612e0a9190614e04565b905060005b83518160ff16101561301457816001600160a01b03166324a2cceb8888878560ff1681518110612e4f57634e487b7160e01b600052603260045260246000fd5b60200260200101516040518463ffffffff1660e01b8152600401612e93939291906001600160a01b0393841681526020810192909252909116604082015260600190565b60206040518083038186803b158015612eab57600080fd5b505afa158015612ebf573d6000803e3d6000fd5b505050506040513d601f19601f82011682018060405250810190612ee39190614f2e565b15612fc157816001600160a01b03166391d2fd538888878560ff1681518110612f1c57634e487b7160e01b600052603260045260246000fd5b60200260200101516040518463ffffffff1660e01b8152600401612f60939291906001600160a01b0393841681526020810192909252909116604082015260600190565b60206040518083038186803b158015612f7857600080fd5b505afa158015612f8c573d6000803e3d6000fd5b505050506040513d601f19601f82011682018060405250810190612fb09190615069565b612fba9084615430565b9250613002565b612ff587858360ff1681518110612fe857634e487b7160e01b600052603260045260246000fd5b6020026020010151613c34565b612fff9084615430565b92505b8061300c8161550c565b915050612e0f565b509095945050505050565b6000611865836001600160a01b038416614aad565b8160200151156130d25781606001516001600160a01b0316635e5eb01384835a86516130609190615490565b60408088015190516001600160e01b031960e087901b1681526001600160a01b03948516600482015293909216602484015260448301526064820152608401600060405180830381600087803b1580156130b957600080fd5b505af11580156130cd573d6000803e3d6000fd5b505050505b826001600160a01b031663d4f7af436040518163ffffffff1660e01b8152600401600060405180830381600087803b15801561310d57600080fd5b505af1158015613121573d6000803e3d6000fd5b50505050505050565b60608160000180548060200260200160405190810160405280929190818152602001828054801561317a57602002820191906000526020600020905b815481526020019060010190808311613166575b50505050509050919050565b8051604051630da0f6c760e41b81527f31af571e53636dddd77f772cce9d30b42075760f2da731636acc6962da2fbef8600482015260248101919091526001600160a01b0383169063da0f6c7090604401600060405180830381600087803b1580156131f157600080fd5b505af1158015613205573d6000803e3d6000fd5b5050506020820151604051630da0f6c760e41b81527f7e07fb4530796d057ca1d76d83f47aa8629dbb7e942ac28f30ad6f5e9e8d4189600482015260248101919091526001600160a01b038416915063da0f6c7090604401600060405180830381600087803b15801561327757600080fd5b505af115801561328b573d6000803e3d6000fd5b5050506040808301519051630da0f6c760e41b81527fbdd40865e74210f0a46799ae63462c62010da92014a08cbc32f1d049d0a22c6b600482015260248101919091526001600160a01b038416915063da0f6c7090604401600060405180830381600087803b1580156132fd57600080fd5b505af1158015613311573d6000803e3d6000fd5b5050506001600160a01b038316905063da0f6c707f5fa39c8100b49336846e52d39403e353bf782275f905a885f09224779ff1c9248360035b60200201516040516001600160e01b031960e085901b168152600481019290925260248201526044015b600060405180830381600087803b15801561338e57600080fd5b505af11580156133a2573d6000803e3d6000fd5b505050505050565b8051604051630da0f6c760e41b81527fbd04d44792b7dbfe3b50b0f9f2006f7ef449e374a39021cb9bfa7cd0bdd850d7600482015260248101919091526001600160a01b0383169063da0f6c7090604401600060405180830381600087803b15801561341557600080fd5b505af1158015613429573d6000803e3d6000fd5b5050506020820151604051630da0f6c760e41b81527f533afc15b6312917b5e28e2272ea69d44e5ea8e00d3bd57cada1275c2f14c9e8600482015260248101919091526001600160a01b038416915063da0f6c7090604401600060405180830381600087803b15801561349b57600080fd5b505af11580156134af573d6000803e3d6000fd5b5050506040808301519051630da0f6c760e41b81527ffbf58be2732249b32b8ee6ccb5eed8655c2fb8a45fe937b71c312b6e209f1380600482015260248101919091526001600160a01b038416915063da0f6c7090604401600060405180830381600087803b15801561352157600080fd5b505af1158015613535573d6000803e3d6000fd5b5050506060820151604051630da0f6c760e41b81527f6a2acfe6164f3ec20e6d80e2f4e4f7ae2b9962615c9596c872d01f6cd244aed3600482015260248101919091526001600160a01b038416915063da0f6c7090604401600060405180830381600087803b1580156135a757600080fd5b505af11580156135bb573d6000803e3d6000fd5b5050506080820151604051630da0f6c760e41b81527f2305fa3a9f84625f75d70f539e621c658cf49e7477ab5af9cacd278ca7904e30600482015260248101919091526001600160a01b038416915063da0f6c7090604401600060405180830381600087803b15801561362d57600080fd5b505af1158015613641573d6000803e3d6000fd5b5050506001600160a01b038316905063da0f6c707fb0d4178853a5320a41f8c55fa6d58af06637e392beff71e66dba4e8f32c39bb883600561334a565b8051604051631da7c90d60e11b81527f5460409b9aa4688f80c10b29c3d7ad16025f050f472a6882a45fa7bb9bd12fb160048201526001600160a01b03918216602482015290831690633b4f921a90604401600060405180830381600087803b1580156136ea57600080fd5b505af11580156136fe573d6000803e3d6000fd5b5050506020820151604051631da7c90d60e11b81527f7fa36390a0e9b8b8004035572fd8345b1128cea12d1763a1baf8fbd4fb7b202760048201526001600160a01b0391821660248201529084169150633b4f921a90604401613374565b8051604051630da0f6c760e41b81527f11618fa890234170104debf73b2563b667bd200bac1d7d8dd024e2f3fadaefd2600482015260248101919091526001600160a01b0383169063da0f6c7090604401600060405180830381600087803b1580156137c757600080fd5b505af11580156137db573d6000803e3d6000fd5b5050506020820151604051630da0f6c760e41b81527f3e453820e0fc9cb9a1e799559661cf9c1db4cc7d7fbcb7e0fdaf884cbe29c356600482015260248101919091526001600160a01b038416915063da0f6c7090604401600060405180830381600087803b15801561384d57600080fd5b505af1158015613861573d6000803e3d6000fd5b5050506040808301519051630da0f6c760e41b81527f66ed99f9a48fc961fffd6425cceb65d9444f5bda8af3bc46d14fd6b5a844fde5600482015260248101919091526001600160a01b038416915063da0f6c7090604401600060405180830381600087803b1580156138d357600080fd5b505af11580156138e7573d6000803e3d6000fd5b5050506060820151604051630da0f6c760e41b81527f23bba46e5025fb6d2325c93cad4f861289d697c0913f7e18dab6bb065e2bdc28600482015260248101919091526001600160a01b038416915063da0f6c7090604401600060405180830381600087803b15801561395957600080fd5b505af115801561396d573d6000803e3d6000fd5b5050506001600160a01b038316905063da0f6c707f0e8185cfd5d91894cd75ba6858a811ccb98f89440700b6d75931c8de1e97fa0283600461334a565b604051630da0f6c760e41b81527f6c2aeb5335c37bc984e34d16b5daacfd3a43d3358ad5314ed1a17f8b68bc10a56004820152600160248201526001600160a01b0386169063da0f6c7090604401600060405180830381600087803b158015613a1257600080fd5b505af1158015613a26573d6000803e3d6000fd5b5050604051630da0f6c760e41b81527f1710acff43ba8f339e18305d5d5116602e0cf6b226983bae821884b877626aa6600482015260ff871660248201526001600160a01b038816925063da0f6c709150604401600060405180830381600087803b158015613a9457600080fd5b505af1158015613aa8573d6000803e3d6000fd5b5050604051630da0f6c760e41b81527f04d4d5cbde9f5c38336ca61af88f78d20a912993a64a3951a1cc2ccd8bb0e8996004820152602481018590526001600160a01b038816925063da0f6c709150604401600060405180830381600087803b158015613b1457600080fd5b505af1158015613b28573d6000803e3d6000fd5b5050604051630da0f6c760e41b81527f20d88b77300b4133cc1f146fdec45d5266086bc18b256e8e607ef37ec1d047b26004820152602481018490526001600160a01b038816925063da0f6c709150604401600060405180830381600087803b158015613b9457600080fd5b505af1158015613ba8573d6000803e3d6000fd5b5050604051631da7c90d60e11b81527f3b45967f728449b4fbffd6027f6b8d86035e572016480c7bc2a55edeec4f3ca560048201526001600160a01b03868116602483015288169250633b4f921a9150604401600060405180830381600087803b158015613c1557600080fd5b505af1158015613c29573d6000803e3d6000fd5b505050505050505050565b6040516317ba7d8560e01b81527faaff643bdbd909f604d46ce015336f7e20fee3ac4a55cef3610188dee176c892600482015260009081906001600160a01b038516906317ba7d859060240160206040518083038186803b158015613c9857600080fd5b505afa158015613cac573d6000803e3d6000fd5b505050506040513d601f19601f82011682018060405250810190613cd09190614e04565b6040516317ba7d8560e01b81527fa837e34a29b67bf52f684a1c93def79b84b9c012732becee4e5df62809df64ed60048201529091506000906001600160a01b038616906317ba7d859060240160206040518083038186803b158015613d3557600080fd5b505afa158015613d49573d6000803e3d6000fd5b505050506040513d601f19601f82011682018060405250810190613d6d9190614e04565b6040516317ba7d8560e01b81527f1fa6846b165d822fff79e37c67625706652fa9380c2aa49fd513ce534cc72ed460048201529091506000906001600160a01b038716906317ba7d859060240160206040518083038186803b158015613dd257600080fd5b505afa158015613de6573d6000803e3d6000fd5b505050506040513d601f19601f82011682018060405250810190613e0a9190614e04565b604051634941d71d60e11b81527ff55ead1a20a1dd054d7b08c0efdba575e59f56a221996583f70c083bb98099b060048201529091506000906001600160a01b03881690639283ae3a9060240160206040518083038186803b158015613e6f57600080fd5b505afa158015613e83573d6000803e3d6000fd5b505050506040513d601f19601f82011682018060405250810190613ea79190615083565b604051634941d71d60e11b81527fb75eae231d9582c6afc6491273df4a0ffbccd48ab2c48dbce59e5d68f2d19dc460048201529091506000906001600160a01b03891690639283ae3a9060240160206040518083038186803b158015613f0c57600080fd5b505afa158015613f20573d6000803e3d6000fd5b505050506040513d601f19601f82011682018060405250810190613f449190615083565b9050806001141561452a57604051634941d71d60e11b81527ff6242d1d39a1b19c05c52b0f7eb55673f7309c8d6b78dd23c2c385475835804860048201526000906001600160a01b038a1690639283ae3a9060240160206040518083038186803b158015613fb157600080fd5b505afa158015613fc5573d6000803e3d6000fd5b505050506040513d601f19601f82011682018060405250810190613fe99190615083565b60405163fd310d2960e01b81527f16d062a637d36196ce6a1b18288a49d8cd909a7ba54b6e33ca16514e7412124860048201529091506000906001600160a01b038b169063fd310d299060240160206040518083038186803b15801561404e57600080fd5b505afa158015614062573d6000803e3d6000fd5b505050506040513d601f19601f820116820180604052508101906140869190614e04565b9050600084614125576040516370a0823160e01b81526001600160a01b038b81166004830152670de0b6b3a764000091908416906370a08231906024015b60206040518083038186803b1580156140dc57600080fd5b505afa1580156140f0573d6000803e3d6000fd5b505050506040513d601f19601f820116820180604052508101906141149190615083565b61411e919061547c565b90506144bb565b84600114156141a8576040516370a0823160e01b81526001600160a01b038b811660048301528316906370a08231906024015b60206040518083038186803b15801561417057600080fd5b505afa158015614184573d6000803e3d6000fd5b505050506040513d601f19601f8201168201806040525081019061411e9190615083565b84600214156141e457604051627eeac760e11b81526001600160a01b038b811660048301526024820185905283169062fdd58e90604401614158565b846003141561423c576040517fa6d945cc0000000000000000000000000000000000000000000000000000000081526001600160a01b038c811660048301528b8116602483015287169063a6d945cc90604401614158565b84600414156144aa5760026040517f1ee1a2b00000000000000000000000000000000000000000000000000000000081526001600160a01b038d811660048301528a1690631ee1a2b09060240160206040518083038186803b1580156142a157600080fd5b505afa1580156142b5573d6000803e3d6000fd5b505050506040513d601f19601f820116820180604052508101906142d99190614fca565b60038111156142f857634e487b7160e01b600052602160045260246000fd5b14801561439a5750604051634941d71d60e11b81527f9ce69cf04065e3c7823cc5540c0598d8a694bd7a9a5a2a786d8bccf14ed6e2ea60048201526001600160a01b038c1690639283ae3a9060240160206040518083038186803b15801561435f57600080fd5b505afa158015614373573d6000803e3d6000fd5b505050506040513d601f19601f820116820180604052508101906143979190615083565b42105b801561443a57506040517f4fc0a76d0000000000000000000000000000000000000000000000000000000081526001600160a01b038c8116600483015260019190891690634fc0a76d9060240160206040518083038186803b1580156143ff57600080fd5b505afa158015614413573d6000803e3d6000fd5b505050506040513d601f19601f820116820180604052508101906144379190615083565b10155b15614499576040517ff7888aec0000000000000000000000000000000000000000000000000000000081526001600160a01b038c811660048301528b81166024830152670de0b6b3a764000091908a169063f7888aec906044016140c4565b600198505050505050505050611868565b600098505050505050505050611868565b600081116144d457600098505050505050505050611868565b677fffffffffffffff81106144f457603298505050505050505050611868565b600061450f61450a61450584614afc565b614b1a565b614c11565b67ffffffffffffffff16995061186898505050505050505050565b806002141561454157600195505050505050611868565b80614a9f57604051634941d71d60e11b81527ff6242d1d39a1b19c05c52b0f7eb55673f7309c8d6b78dd23c2c385475835804860048201526000906001600160a01b038a1690639283ae3a9060240160206040518083038186803b1580156145a857600080fd5b505afa1580156145bc573d6000803e3d6000fd5b505050506040513d601f19601f820116820180604052508101906145e09190615083565b60405163fd310d2960e01b81527f16d062a637d36196ce6a1b18288a49d8cd909a7ba54b6e33ca16514e7412124860048201529091506000906001600160a01b038b169063fd310d299060240160206040518083038186803b15801561464557600080fd5b505afa158015614659573d6000803e3d6000fd5b505050506040513d601f19601f8201168201806040525081019061467d9190614e04565b905060008461471c576040516370a0823160e01b81526001600160a01b038b81166004830152670de0b6b3a764000091908416906370a08231906024015b60206040518083038186803b1580156146d357600080fd5b505afa1580156146e7573d6000803e3d6000fd5b505050506040513d601f19601f8201168201806040525081019061470b9190615083565b614715919061547c565b9050614a90565b846001141561479f576040516370a0823160e01b81526001600160a01b038b811660048301528316906370a08231906024015b60206040518083038186803b15801561476757600080fd5b505afa15801561477b573d6000803e3d6000fd5b505050506040513d601f19601f820116820180604052508101906147159190615083565b84600214156147db57604051627eeac760e11b81526001600160a01b038b811660048301526024820185905283169062fdd58e9060440161474f565b8460031415614833576040517fa6d945cc0000000000000000000000000000000000000000000000000000000081526001600160a01b038c811660048301528b8116602483015287169063a6d945cc9060440161474f565b84600414156144aa5760026040517f1ee1a2b00000000000000000000000000000000000000000000000000000000081526001600160a01b038d811660048301528a1690631ee1a2b09060240160206040518083038186803b15801561489857600080fd5b505afa1580156148ac573d6000803e3d6000fd5b505050506040513d601f19601f820116820180604052508101906148d09190614fca565b60038111156148ef57634e487b7160e01b600052602160045260246000fd5b1480156149915750604051634941d71d60e11b81527f9ce69cf04065e3c7823cc5540c0598d8a694bd7a9a5a2a786d8bccf14ed6e2ea60048201526001600160a01b038c1690639283ae3a9060240160206040518083038186803b15801561495657600080fd5b505afa15801561496a573d6000803e3d6000fd5b505050506040513d601f19601f8201168201806040525081019061498e9190615083565b42105b8015614a3157506040517f4fc0a76d0000000000000000000000000000000000000000000000000000000081526001600160a01b038c8116600483015260019190891690634fc0a76d9060240160206040518083038186803b1580156149f657600080fd5b505afa158015614a0a573d6000803e3d6000fd5b505050506040513d601f19601f82011682018060405250810190614a2e9190615083565b10155b15614499576040517ff7888aec0000000000000000000000000000000000000000000000000000000081526001600160a01b038c811660048301528b81166024830152670de0b6b3a764000091908a169063f7888aec906044016146bb565b97506118689650505050505050565b600095505050505050611868565b6000818152600183016020526040812054614af457508154600181810184556000848152602080822090930184905584548482528286019093526040902091909155611868565b506000611868565b6000677fffffffffffffff821115614b1357600080fd5b5060401b90565b60008082600f0b13614b2b57600080fd5b6000600f83900b680100000000000000008112614b4a576040918201911d5b6401000000008112614b5e576020918201911d5b620100008112614b70576010918201911d5b6101008112614b81576008918201911d5b60108112614b91576004918201911d5b60048112614ba1576002918201911d5b60028112614bb0576001820191505b7fffffffffffffffffffffffffffffffffffffffffffffffffffffffffffffffc0820160401b600f85900b607f8490031b6780000000000000005b60008113156130145790800260ff81901c8281029390930192607f011c9060011d614beb565b60008082600f0b1215614c2357600080fd5b50600f0b60401d90565b6040805161012081018252600080825260208201819052918101829052606081018290529060808201908152600060208201819052604082018190526060820152608001614c79614c7e565b905290565b60405180610140016040528060006001600160a01b03168152602001614cc56040518060800160405280600081526020016000815260200160008152602001600081525090565b8152602001614d036040518060c001604052806000815260200160008152602001600081526020016000815260200160008152602001600081525090565b8152602001614d436040518060a001604052806000815260200160008152602001600081526020016000815260200160006001600160a01b031681525090565b8152602001614d65604051806040016040528060008152602001600081525090565b81526040805160a081018252600080825260208281018290529282018190526060820181905260808201529101908152600060208201819052604090910190815260200160008152602001600081525090565b8051614dc381615582565b919050565b80516fffffffffffffffffffffffffffffffff81168114614dc357600080fd5b600060208284031215614df9578081fd5b8135611db581615582565b600060208284031215614e15578081fd5b8151611db581615582565b60008060408385031215614e32578081fd5b8235614e3d81615582565b946020939093013593505050565b60006020808385031215614e5d578182fd5b825167ffffffffffffffff80821115614e74578384fd5b818501915085601f830112614e87578384fd5b815181811115614e9957614e9961556c565b8060051b604051601f19603f83011681018181108582111715614ebe57614ebe61556c565b604052828152858101935084860182860187018a1015614edc578788fd5b8795505b83861015614f0557614ef181614db8565b855260019590950194938601938601614ee0565b5098975050505050505050565b600060208284031215614f23578081fd5b8135611db58161559a565b600060208284031215614f3f578081fd5b8151611db58161559a565b60008060408385031215614f5c578182fd5b8251614f678161559a565b6020939093015192949293505050565b60008060408385031215614e32578182fd5b600080600060608486031215614f9d578081fd5b8335614fa881615582565b9250602084013591506040840135614fbf81615582565b809150509250925092565b600060208284031215614fdb578081fd5b815160048110611db5578182fd5b600080600060608486031215614ffd578283fd5b83516006811061500b578384fd5b925061501960208501614dc8565b915061502760408501614dc8565b90509250925092565b600060208284031215615041578081fd5b813567ffffffffffffffff811115615057578182fd5b82016102808185031215611db5578182fd5b60006020828403121561507a578081fd5b61186582614dc8565b600060208284031215615094578081fd5b5051919050565b6000602082840312156150ac578081fd5b813560ff81168114611db5578182fd5b600481106150da57634e487b7160e01b600052602160045260246000fd5b9052565b7fffffffffffffffff000000000000000000000000000000000000000000000000831681527f4e657746756e642300000000000000000000000000000000000000000000000060088201526000825161513e8160108501602087016154a7565b919091016010019392505050565b6001600160a01b03881681526020810187905260e0810161517060408301886150bc565b6fffffffffffffffffffffffffffffffff958616606083015293851660808201529190931660a082015260c001919091529392505050565b6000610360820190506001600160a01b038c1682528a51602083015260208b0151604083015260408b0151606083015260608b0151608083015261522460a083018b805182526020810151602083015260408101516040830152606081015160608301526080810151608083015260a081015160a08301525050565b8851610160830152602089015161018083015260408901516101a083015260608901516101c083015260808901516001600160a01b03166101e08301528751610200830152602088015161022083015286511515610240830152602087015160ff1661026083015260408701516001600160a01b031661028083015260608701516102a083015260808701516102c083015260ff86166102e08301526152ce6103008301866150bc565b610320820193909352610340015298975050505050505050565b6020808252825182820181905260009190848201906040850190845b818110156153295783516001600160a01b031683529284019291840191600101615304565b50909695505050505050565b6001600160a01b0385168152836020820152826040820152608060608201526000825180608084015261536f8160a08501602087016154a7565b601f01601f19169190910160a00195945050505050565b60008083357fffffffffffffffffffffffffffffffffffffffffffffffffffffffffffffffe18436030181126153ba578283fd5b83018035915067ffffffffffffffff8211156153d4578283fd5b6020019150600581901b36038213156153ec57600080fd5b9250929050565b600082357fffffffffffffffffffffffffffffffffffffffffffffffffffffffffffffff41833603018112615426578182fd5b9190910192915050565b60006fffffffffffffffffffffffffffffffff80831681851680830382111561545b5761545b615540565b01949350505050565b6000821982111561547757615477615540565b500190565b60008261548b5761548b615556565b500490565b6000828210156154a2576154a2615540565b500390565b60005b838110156154c25781810151838201526020016154aa565b838111156118305750506000910152565b60007fffffffffffffffffffffffffffffffffffffffffffffffffffffffffffffffff82141561550557615505615540565b5060010190565b600060ff821660ff81141561552357615523615540565b60010192915050565b60008261553b5761553b615556565b500690565b634e487b7160e01b600052601160045260246000fd5b634e487b7160e01b600052601260045260246000fd5b634e487b7160e01b600052604160045260246000fd5b6001600160a01b038116811461559757600080fd5b50565b801515811461559757600080fdfea264697066735822122047b9c2128237c32483c0bfee552812067395ab955701185a80fc2d731e84139664736f6c63430008040033",
  "linkReferences": {},
  "deployedLinkReferences": {}
}