{
  "_format": "hh-sol-artifact-1",
  "contractName": "VintageFundingAdapterContract",
  "sourceName": "contracts/vintage/adapters/VintageFundingAdapter.sol",
  "abi": [
    {
      "inputs": [],
      "name": "Empty",
      "type": "error"
    },
    {
      "inputs": [],
      "name": "INVESTMENT_PROPOSAL_NOT_FINALIZED",
      "type": "error"
    },
    {
      "anonymous": false,
      "inputs": [
        {
          "indexed": false,
          "internalType": "address",
          "name": "daoAddr",
          "type": "address"
        },
        {
          "indexed": false,
          "internalType": "bytes32",
          "name": "proposalId",
          "type": "bytes32"
        }
      ],
      "name": "ProposalCreated",
      "type": "event"
    },
    {
      "anonymous": false,
      "inputs": [
        {
          "indexed": false,
          "internalType": "address",
          "name": "daoAddr",
          "type": "address"
        },
        {
          "indexed": false,
          "internalType": "bytes32",
          "name": "proposalID",
          "type": "bytes32"
        },
        {
          "indexed": false,
          "internalType": "uint128",
          "name": "allVotingWeight",
          "type": "uint128"
        },
        {
          "indexed": false,
          "internalType": "uint128",
          "name": "nbYes",
          "type": "uint128"
        },
        {
          "indexed": false,
          "internalType": "uint128",
          "name": "nbNo",
          "type": "uint128"
        }
      ],
      "name": "ProposalExecuted",
      "type": "event"
    },
    {
      "anonymous": false,
      "inputs": [
        {
          "indexed": false,
          "internalType": "address",
          "name": "daoAddr",
          "type": "address"
        },
        {
          "indexed": false,
          "internalType": "bytes32",
          "name": "proposalID",
          "type": "bytes32"
        }
      ],
      "name": "StartVote",
      "type": "event"
    },
    {
      "inputs": [
        {
          "internalType": "contract DaoRegistry",
          "name": "dao",
          "type": "address"
        }
      ],
      "name": "getFrontProposalId",
      "outputs": [
        {
          "internalType": "bytes32",
          "name": "",
          "type": "bytes32"
        }
      ],
      "stateMutability": "view",
      "type": "function"
    },
    {
      "inputs": [
        {
          "internalType": "contract DaoRegistry",
          "name": "dao",
          "type": "address"
        }
      ],
      "name": "getQueueLength",
      "outputs": [
        {
          "internalType": "uint256",
          "name": "",
          "type": "uint256"
        }
      ],
      "stateMutability": "view",
      "type": "function"
    },
    {
      "inputs": [
        {
          "internalType": "address",
          "name": "",
          "type": "address"
        }
      ],
      "name": "ongoingProposal",
      "outputs": [
        {
          "internalType": "bytes32",
          "name": "",
          "type": "bytes32"
        }
      ],
      "stateMutability": "view",
      "type": "function"
    },
    {
      "inputs": [
        {
          "internalType": "contract DaoRegistry",
          "name": "dao",
          "type": "address"
        },
        {
          "internalType": "bytes32",
          "name": "proposalId",
          "type": "bytes32"
        }
      ],
      "name": "processProposal",
      "outputs": [
        {
          "internalType": "bool",
          "name": "",
          "type": "bool"
        }
      ],
      "stateMutability": "nonpayable",
      "type": "function"
    },
    {
      "inputs": [
        {
          "internalType": "address",
          "name": "",
          "type": "address"
        },
        {
          "internalType": "bytes32",
          "name": "",
          "type": "bytes32"
        },
        {
          "internalType": "address",
          "name": "",
          "type": "address"
        }
      ],
      "name": "projectTeamLockedTokens",
      "outputs": [
        {
          "internalType": "uint256",
          "name": "",
          "type": "uint256"
        }
      ],
      "stateMutability": "view",
      "type": "function"
    },
    {
      "inputs": [
        {
          "internalType": "address",
          "name": "",
          "type": "address"
        }
      ],
      "name": "proposalQueue",
      "outputs": [
        {
          "internalType": "int128",
          "name": "_begin",
          "type": "int128"
        },
        {
          "internalType": "int128",
          "name": "_end",
          "type": "int128"
        }
      ],
      "stateMutability": "view",
      "type": "function"
    },
    {
      "inputs": [
        {
          "internalType": "address",
          "name": "",
          "type": "address"
        },
        {
          "internalType": "bytes32",
          "name": "",
          "type": "bytes32"
        }
      ],
      "name": "proposals",
      "outputs": [
        {
          "internalType": "address",
          "name": "investmentToken",
          "type": "address"
        },
        {
          "internalType": "uint256",
          "name": "investmentAmount",
          "type": "uint256"
        },
        {
          "internalType": "uint256",
          "name": "totalAmount",
          "type": "uint256"
        },
        {
          "internalType": "uint256",
          "name": "price",
          "type": "uint256"
        },
        {
          "internalType": "address",
          "name": "recipientAddr",
          "type": "address"
        },
        {
          "internalType": "address",
          "name": "proposer",
          "type": "address"
        },
        {
          "internalType": "enum InvestmentLibrary.ProposalState",
          "name": "status",
          "type": "uint8"
        },
        {
          "components": [
            {
              "internalType": "string",
              "name": "name",
              "type": "string"
            },
            {
              "internalType": "string",
              "name": "description",
              "type": "string"
            },
            {
              "internalType": "uint256",
              "name": "vestingStartTime",
              "type": "uint256"
            },
            {
              "internalType": "uint256",
              "name": "vetingEndTime",
              "type": "uint256"
            },
            {
              "internalType": "uint256",
              "name": "vestingCliffEndTime",
              "type": "uint256"
            },
            {
              "internalType": "uint256",
              "name": "vestingCliffLockAmount",
              "type": "uint256"
            },
            {
              "internalType": "uint256",
              "name": "vestingInterval",
              "type": "uint256"
            }
          ],
          "internalType": "struct InvestmentLibrary.VestInfo",
          "name": "vestInfo",
          "type": "tuple"
        },
        {
          "components": [
            {
              "internalType": "bool",
              "name": "escrow",
              "type": "bool"
            },
            {
              "internalType": "address",
              "name": "paybackToken",
              "type": "address"
            },
            {
              "internalType": "uint256",
              "name": "paybackTokenAmount",
              "type": "uint256"
            },
            {
              "internalType": "address",
              "name": "approveOwnerAddr",
              "type": "address"
            },
            {
              "internalType": "bool",
              "name": "nftEnable",
              "type": "bool"
            },
            {
              "internalType": "address",
              "name": "erc721",
              "type": "address"
            }
          ],
          "internalType": "struct InvestmentLibrary.ProposalPaybackTokenInfo",
          "name": "proposalPaybackTokenInfo",
          "type": "tuple"
        },
        {
          "components": [
            {
              "internalType": "uint256",
              "name": "inQueueTimestamp",
              "type": "uint256"
            },
            {
              "internalType": "uint256",
              "name": "proposalStartVotingTimestamp",
              "type": "uint256"
            },
            {
              "internalType": "uint256",
              "name": "proposalStopVotingTimestamp",
              "type": "uint256"
            },
            {
              "internalType": "uint256",
              "name": "proposalExecuteTimestamp",
              "type": "uint256"
            }
          ],
          "internalType": "struct InvestmentLibrary.ProposalTimeInfo",
          "name": "proposalTimeInfo",
          "type": "tuple"
        },
        {
          "internalType": "uint256",
          "name": "executeBlockNum",
          "type": "uint256"
        }
      ],
      "stateMutability": "view",
      "type": "function"
    },
    {
      "inputs": [],
      "name": "protocolAddress",
      "outputs": [
        {
          "internalType": "address",
          "name": "",
          "type": "address"
        }
      ],
      "stateMutability": "view",
      "type": "function"
    },
    {
      "inputs": [
        {
          "internalType": "contract DaoRegistry",
          "name": "dao",
          "type": "address"
        },
        {
          "internalType": "address",
          "name": "_protocolAddress",
          "type": "address"
        }
      ],
      "name": "setProtocolAddress",
      "outputs": [],
      "stateMutability": "nonpayable",
      "type": "function"
    },
    {
      "inputs": [
        {
          "internalType": "contract DaoRegistry",
          "name": "dao",
          "type": "address"
        },
        {
          "internalType": "bytes32",
          "name": "proposalId",
          "type": "bytes32"
        }
      ],
      "name": "startVotingProcess",
      "outputs": [],
      "stateMutability": "nonpayable",
      "type": "function"
    },
    {
      "inputs": [
        {
          "internalType": "contract DaoRegistry",
          "name": "dao",
          "type": "address"
        },
        {
          "components": [
            {
              "components": [
                {
                  "internalType": "uint256",
                  "name": "investmentAmount",
                  "type": "uint256"
                },
                {
                  "internalType": "address",
                  "name": "investmentToken",
                  "type": "address"
                },
                {
                  "internalType": "address",
                  "name": "receiver",
                  "type": "address"
                }
              ],
              "internalType": "struct IVintageInvestment.InvestmentInfo",
              "name": "investmentInfo",
              "type": "tuple"
            },
            {
              "components": [
                {
                  "internalType": "bool",
                  "name": "escrow",
                  "type": "bool"
                },
                {
                  "internalType": "address",
                  "name": "paybackToken",
                  "type": "address"
                },
                {
                  "internalType": "uint256",
                  "name": "price",
                  "type": "uint256"
                },
                {
                  "internalType": "uint256",
                  "name": "paybackTokenAmount",
                  "type": "uint256"
                },
                {
                  "internalType": "address",
                  "name": "approver",
                  "type": "address"
                },
                {
                  "internalType": "bool",
                  "name": "nftEnable",
                  "type": "bool"
                },
                {
                  "internalType": "address",
                  "name": "vestingNft",
                  "type": "address"
                }
              ],
              "internalType": "struct IVintageInvestment.PaybackTokenInfo",
              "name": "paybackTokenInfo",
              "type": "tuple"
            },
            {
              "components": [
                {
                  "internalType": "string",
                  "name": "name",
                  "type": "string"
                },
                {
                  "internalType": "string",
                  "name": "description",
                  "type": "string"
                },
                {
                  "internalType": "uint256",
                  "name": "vestingStartTime",
                  "type": "uint256"
                },
                {
                  "internalType": "uint256",
                  "name": "vetingEndTime",
                  "type": "uint256"
                },
                {
                  "internalType": "uint256",
                  "name": "vestingCliffEndTime",
                  "type": "uint256"
                },
                {
                  "internalType": "uint256",
                  "name": "vestingCliffLockAmount",
                  "type": "uint256"
                },
                {
                  "internalType": "uint256",
                  "name": "vestingInterval",
                  "type": "uint256"
                }
              ],
              "internalType": "struct IVintageInvestment.VestInfo",
              "name": "vestInfo",
              "type": "tuple"
            }
          ],
          "internalType": "struct IVintageInvestment.InvestmentProposalParams",
          "name": "params",
          "type": "tuple"
        }
      ],
      "name": "submitProposal",
      "outputs": [],
      "stateMutability": "nonpayable",
      "type": "function"
    },
    {
      "inputs": [
        {
          "internalType": "contract DaoRegistry",
          "name": "dao",
          "type": "address"
        },
        {
          "internalType": "bytes32",
          "name": "proposalId",
          "type": "bytes32"
        }
      ],
      "name": "unLockProjectTeamToken",
      "outputs": [],
      "stateMutability": "nonpayable",
      "type": "function"
    }
  ],
  "bytecode": "0x6080604052600480546001600160a01b031916739ac9c636404c8d46d9eb966d7179983ba5a3941a17905534801561003657600080fd5b506159b380620000476000396000f3fe608060405234801561001057600080fd5b50600436106100d45760003560e01c80639573167d11610081578063d5bef02e1161005b578063d5bef02e1461021b578063f33821ec1461024c578063f8d90d5d1461025f57600080fd5b80639573167d1461019c578063a5d6fb13146101bf578063ca696d83146101d257600080fd5b8063438d9312116100b2578063438d93121461013f5780635cb752761461015257806362e86df51461017c57600080fd5b80630676c1b7146100d95780632b73de35146101095780633d67a5fc1461011e575b600080fd5b6004546100ec906001600160a01b031681565b6040516001600160a01b0390911681526020015b60405180910390f35b61011c610117366004614f5b565b610272565b005b61013161012c366004614d5f565b610d6d565b604051908152602001610100565b61011c61014d366004614f23565b610dd3565b610165610160366004614d9e565b610f8e565b6040516101009b9a999897969594939291906152e3565b61013161018a366004614d5f565b60026020526000908152604090205481565b6101af6101aa366004614f5b565b6111ee565b6040519015158152602001610100565b6101316101cd366004614d5f565b611ec3565b6102016101e0366004614d5f565b600360205260009081526040902054600f81810b91600160801b9004900b82565b60408051600f93840b81529190920b602082015201610100565b610131610229366004614dc9565b600160209081526000938452604080852082529284528284209052825290205481565b61011c61025a366004614f6d565b611f27565b61011c61026d366004614f5b565b612aec565b81600061027e82612c75565b90508361028b8133612f40565b600061029686611ec3565b116102e85760405162461bcd60e51b815260206004820152600e60248201527f2150726f706f73616c517565756500000000000000000000000000000000000060448201526064015b60405180910390fd5b6001600160a01b038516600090815260036020526040902061030990613022565b84146103575760405162461bcd60e51b815260206004820152601460248201527f2148656164517565756550726f706f73616c496400000000000000000000000060448201526064016102df565b6040805160e08101825260008082526020808301829052828401829052606083018290526080830182905260a0830182905260c083018290526001600160a01b0389168083526002825284832054845282528181528382208883529052919091208151156104b65760036001600160a01b03881660009081526020818152604080832086518452909152902060050154600160a01b900460ff16600481111561041057634e487b7160e01b600052602160045260246000fd5b148061046a575060046001600160a01b03881660009081526020818152604080832086518452909152902060050154600160a01b900460ff16600481111561046857634e487b7160e01b600052602160045260246000fd5b145b6104b65760405162461bcd60e51b815260206004820152601160248201527f50726550726f7073616c4e6f74446f6e6500000000000000000000000000000060448201526064016102df565b6040516317ba7d8560e01b81527faaff643bdbd909f604d46ce015336f7e20fee3ac4a55cef3610188dee176c89260048201526001600160a01b038816906317ba7d859060240160206040518083038186803b15801561051557600080fd5b505afa158015610529573d6000803e3d6000fd5b505050506040513d601f19601f8201168201806040525081019061054d9190614d82565b6001600160a01b0390811660408481019190915251634941d71d60e11b81527f9876c0f0505bfb2b1c38d3bbd25ba13159172cd0868972d76927723f5a9480fc600482015290881690639283ae3a9060240160206040518083038186803b1580156105b757600080fd5b505afa1580156105cb573d6000803e3d6000fd5b505050506040513d601f19601f820116820180604052508101906105ef9190615139565b6105f99042615803565b60808301526040808301519051634941d71d60e11b81527f02a3530cbb6e7c084516c86f68bd62c3e3fcd783c6c5d7e138616207f7a3225060048201526001600160a01b0391821691633a844ec0918a91821690639283ae3a9060240160206040518083038186803b15801561066e57600080fd5b505afa158015610682573d6000803e3d6000fd5b505050506040513d601f19601f820116820180604052508101906106a69190615139565b85608001516106b59190615803565b6040517fffffffff0000000000000000000000000000000000000000000000000000000060e085901b1681526001600160a01b039092166004830152602482015260440160206040518083038186803b15801561071157600080fd5b505afa158015610725573d6000803e3d6000fd5b505050506040513d601f19601f820116820180604052508101906107499190614eda565b156107965760405162461bcd60e51b815260206004820152601160248201527f486974526564656d707465506572696f6400000000000000000000000000000060448201526064016102df565b60006005820154600160a01b900460ff1660048111156107c657634e487b7160e01b600052602160045260246000fd5b146108135760405162461bcd60e51b815260206004820152601260248201527f50726f706f73616c4e6f74496e5175657565000000000000000000000000000060448201526064016102df565b6001600160a01b038716600090815260036020526040902061083490613099565b506040516317ba7d8560e01b81527fd3999c37f8f35da86f802a74f9bf032c4aeb46e49abd9c861f489ef4cb40d0a860048201526001600160a01b038816906317ba7d859060240160206040518083038186803b15801561089457600080fd5b505afa1580156108a8573d6000803e3d6000fd5b505050506040513d601f19601f820116820180604052508101906108cc9190614d82565b6001600160a01b0390811660c0840152600282015460408085015190517f68abb5e00000000000000000000000000000000000000000000000000000000081528a84166004820152919216906368abb5e09060240160206040518083038186803b15801561093957600080fd5b505afa15801561094d573d6000803e3d6000fd5b505050506040513d601f19601f820116820180604052508101906109719190615139565b1080610ab75750604051634941d71d60e11b81527f9ce69cf04065e3c7823cc5540c0598d8a694bd7a9a5a2a786d8bccf14ed6e2ea60048201526001600160a01b03881690639283ae3a9060240160206040518083038186803b1580156109d757600080fd5b505afa1580156109eb573d6000803e3d6000fd5b505050506040513d601f19601f82011682018060405250810190610a0f9190615139565b604051634941d71d60e11b81527f02a3530cbb6e7c084516c86f68bd62c3e3fcd783c6c5d7e138616207f7a3225060048201526001600160a01b03891690639283ae3a9060240160206040518083038186803b158015610a6e57600080fd5b505afa158015610a82573d6000803e3d6000fd5b505050506040513d601f19601f82011682018060405250810190610aa69190615139565b8360800151610ab59190615803565b115b15610ade576005810180546004919060ff60a01b1916600160a01b835b0217905550610d18565b600d81015460ff1615610c4857600f810154600d820154600e830154610b1c928a926001600160a01b0391821692610100909104909116908a613156565b151560a08301819052610b45576005810180546004919060ff60a01b1916600160a01b83610ad4565b600e8101546001600160a01b0380891660009081526001602090815260408083208b84528252808320600f8701548516845282528083209490945560c08601518451918201855291815292517f26078cd00000000000000000000000000000000000000000000000000000000081529116916326078cd091610bcf918b918b9142916004016154de565b600060405180830381600087803b158015610be957600080fd5b505af1158015610bfd573d6000803e3d6000fd5b50504260128401555050608082015160138201556001600160a01b03871660009081526002602052604090208690556005810180546001919060ff60a01b1916600160a01b83610ad4565b60c0820151604080516020810182526000815290517f26078cd00000000000000000000000000000000000000000000000000000000081526001600160a01b03909216916326078cd091610ca5918b918b914291906004016154de565b600060405180830381600087803b158015610cbf57600080fd5b505af1158015610cd3573d6000803e3d6000fd5b50504260128401555050608082015160138201556001600160a01b038716600090815260026020526040902086905560058101805460ff60a01b1916600160a01b1790555b604080516001600160a01b0389168152602081018890527f753eb58faf3992b1f62f6c6a4234abd516596fe79423b146e2300a3291b4f7d3910160405180910390a1505050610d6782826132b3565b50505050565b6001600160a01b038116600090815260036020526040812054600f81810b810b600160801b909204810b900b1315610dc6576001600160a01b0382166000908152600360205260409020610dc090613022565b92915050565b506000919050565b919050565b8143816001600160a01b031663b21634826040518163ffffffff1660e01b815260040160206040518083038186803b158015610e0e57600080fd5b505afa158015610e22573d6000803e3d6000fd5b505050506040513d601f19601f82011682018060405250810190610e469190615139565b1415610e945760405162461bcd60e51b815260206004820152601060248201527f7265656e7472616e63792067756172640000000000000000000000000000000060448201526064016102df565b806001600160a01b03166310fdb0a26040518163ffffffff1660e01b8152600401600060405180830381600087803b158015610ecf57600080fd5b505af1158015610ee3573d6000803e3d6000fd5b5050505082610ef1816132be565b6001600160a01b0316336001600160a01b031614610f0e57600080fd5b82600460006101000a8154816001600160a01b0302191690836001600160a01b0316021790555050806001600160a01b031663d4f7af436040518163ffffffff1660e01b8152600401600060405180830381600087803b158015610f7157600080fd5b505af1158015610f85573d6000803e3d6000fd5b50505050505050565b600060208181529281526040808220909352908152819020805460018201546002830154600384015460048501546005860154875160e081019098526006870180546001600160a01b03978816999698959794969385169594831694600160a01b90930460ff169391908290829061100590615891565b80601f016020809104026020016040519081016040528092919081815260200182805461103190615891565b801561107e5780601f106110535761010080835404028352916020019161107e565b820191906000526020600020905b81548152906001019060200180831161106157829003601f168201915b5050505050815260200160018201805461109790615891565b80601f01602080910402602001604051908101604052809291908181526020018280546110c390615891565b80156111105780601f106110e557610100808354040283529160200191611110565b820191906000526020600020905b8154815290600101906020018083116110f357829003601f168201915b5050509183525050600282015460208083019190915260038301546040808401919091526004840154606080850191909152600585015460808086019190915260069095015460a094850152815160c081018352600d88015460ff808216151583526001600160a01b03610100909204821683870152600e8a015483860152600f8a015480831684860152600160a01b9004161515828801526010890154169481019490945281519485018252601187015485526012870154928501929092526013860154908401526014850154908301526015909301549192918b565b60008260006111fc82612c75565b905061125b604080516101608101825260008082526020820181905291810182905260608101829052906080820190815260006020820181905260408201819052606082018190526080820181905260a0820181905260c09091015290565b6001600160a01b038616600090815260026020526040902054808252156112cc57805185146112cc5760405162461bcd60e51b815260206004820152601160248201527f496e76616c6964205072706f73616c496400000000000000000000000000000060448201526064016102df565b6001600160a01b0386166000908152602081815260408083208884529091529020601381015442116113405760405162461bcd60e51b815260206004820152601060248201527f496e20566f74696e6720506572696f640000000000000000000000000000000060448201526064016102df565b60026005820154600160a01b900460ff16600481111561137057634e487b7160e01b600052602160045260246000fd5b14156113be5760405162461bcd60e51b815260206004820152601360248201527f496e20457865637574652050726f67726573730000000000000000000000000060448201526064016102df565b6040517f30490e91000000000000000000000000000000000000000000000000000000008152600481018790526001600160a01b038816906330490e9190602401600060405180830381600087803b15801561141957600080fd5b505af115801561142d573d6000803e3d6000fd5b50506040517f593e96b60000000000000000000000000000000000000000000000000000000081527f161fca6912f107b0f13c9c7275de7391b32d2ea1c52ffba65a3c961880a0c60f60048201526001600160a01b038a16925063593e96b6915060240160206040518083038186803b1580156114a957600080fd5b505afa1580156114bd573d6000803e3d6000fd5b505050506040513d601f19601f820116820180604052508101906114e19190614d82565b6001600160a01b0390811660608401526040517f40de703e00000000000000000000000000000000000000000000000000000000815260048101889052908816906340de703e9060240160206040518083038186803b15801561154357600080fd5b505afa158015611557573d6000803e3d6000fd5b505050506040513d601f19601f8201168201806040525081019061157b9190614d82565b6001600160a01b0316602083018190526115d75760405162461bcd60e51b815260206004820152601160248201527f41646170746572204e6f7420466f756e6400000000000000000000000000000060448201526064016102df565b6115e187876133a1565b6fffffffffffffffffffffffffffffffff1660e083015260208201516040517f76225e730000000000000000000000000000000000000000000000000000000081526001600160a01b03898116600483015260248201899052909116906376225e739060440160606040518083038186803b15801561165f57600080fd5b505afa158015611673573d6000803e3d6000fd5b505050506040513d601f19601f820116820180604052508101906116979190614fd6565b6fffffffffffffffffffffffffffffffff80821660c0870152821660a0860152608085018360058111156116db57634e487b7160e01b600052602160045260246000fd5b60058111156116fa57634e487b7160e01b600052602160045260246000fd5b905250600291506117089050565b8260800151600581111561172c57634e487b7160e01b600052602160045260246000fd5b1415611d6b576005810180547402000000000000000000000000000000000000000060ff60a01b199091161790556001600160a01b03871660008181526002602052604090819020889055516317ba7d8560e01b81527faaff643bdbd909f604d46ce015336f7e20fee3ac4a55cef3610188dee176c89260048201526317ba7d859060240160206040518083038186803b1580156117c957600080fd5b505afa1580156117dd573d6000803e3d6000fd5b505050506040513d601f19601f820116820180604052508101906118019190614d82565b6001600160a01b0390811660408481019190915251634941d71d60e11b81527f11618fa890234170104debf73b2563b667bd200bac1d7d8dd024e2f3fadaefd26004820152670de0b6b3a764000091891690639283ae3a9060240160206040518083038186803b15801561187457600080fd5b505afa158015611888573d6000803e3d6000fd5b505050506040513d601f19601f820116820180604052508101906118ac9190615139565b82600201546118bb919061582f565b6118c5919061581b565b82610120018181525050670de0b6b3a764000082604001516001600160a01b031663b0e21e8a6040518163ffffffff1660e01b815260040160206040518083038186803b15801561191557600080fd5b505afa158015611929573d6000803e3d6000fd5b505050506040513d601f19601f8201168201806040525081019061194d9190615139565b826002015461195c919061582f565b611966919061581b565b610100830152604051634941d71d60e11b81527f66ed99f9a48fc961fffd6425cceb65d9444f5bda8af3bc46d14fd6b5a844fde56004820152670de0b6b3a7640000906001600160a01b03891690639283ae3a9060240160206040518083038186803b1580156119d557600080fd5b505afa1580156119e9573d6000803e3d6000fd5b505050506040513d601f19601f82011682018060405250810190611a0d9190615139565b8260020154611a1c919061582f565b611a26919061581b565b82610140018181525050806002015482606001516001600160a01b03166318160ddd6040518163ffffffff1660e01b815260040160206040518083038186803b158015611a7257600080fd5b505afa158015611a86573d6000803e3d6000fd5b505050506040513d601f19601f82011682018060405250810190611aaa9190615139565b1015611ad2576005810180546004919060ff60a01b1916600160a01b835b0217905550611e13565b6040516317ba7d8560e01b81527fe1cf6669e8110c379c9ea0aceed535b5ed15ea1db2447ab3fbda96c746d21a1a60048201526000906001600160a01b038916906317ba7d859060240160206040518083038186803b158015611b3457600080fd5b505afa158015611b48573d6000803e3d6000fd5b505050506040513d601f19601f82011682018060405250810190611b6c9190614d82565b60408051606080820183526004808701546001600160a01b039081168452815481166020808601919091526005890154821685870152855160808101875260018a015481526101208b0151918101919091526101008a0151818701526101408a01519381019390935293517f9f8c714900000000000000000000000000000000000000000000000000000000815294955092851693639f8c714993611c17938e93909290910161542f565b600060405180830381600087803b158015611c3157600080fd5b505af1158015611c45573d6000803e3d6000fd5b50505050600d82015460ff1615611c9657611c6088886136cd565b6001600160a01b0380891660009081526001602090815260408083208b8452825280832060048701549094168352929052908120555b60018201546101008401516101208501516101408601516040517fba8c778f0000000000000000000000000000000000000000000000000000000081526001600160a01b038d8116600483015260248201959095526044810193909352606483019190915260848201529082169063ba8c778f9060a401600060405180830381600087803b158015611d2757600080fd5b505af1158015611d3b573d6000803e3d6000fd5b5050505060058201805460ff60a01b19167403000000000000000000000000000000000000000017905550611e13565b600382608001516005811115611d9157634e487b7160e01b600052602160045260246000fd5b1480611dc05750600182608001516005811115611dbe57634e487b7160e01b600052602160045260246000fd5b145b15611de1576005810180546004919060ff60a01b1916600160a01b83611ac8565b6040517f70ea4a3100000000000000000000000000000000000000000000000000000000815260040160405180910390fd5b4260148201556001600160a01b03871660008181526002602090815260408083209290925543601585015560e085015160a08087015160c088015185519687529386018c90526fffffffffffffffffffffffffffffffff92831686860152821660608601529116608084015290517f8753b7ee1e31d393ee5726ed44f58ae8f298f63903fa4de5592dc5b3f3562b719281900390910190a1600194505050611ebb82826132b3565b505092915050565b6001600160a01b038116600090815260036020526040812054600f81810b810b600160801b909204810b900b1315610dc6576001600160a01b038216600090815260036020526040902054600f81810b810b600160801b909204810b900b03610dc0565b81611f328133612f40565b826000611f3e82612c75565b9050611fc56040518061018001604052806000801916815260200160006001600160a01b0316815260200160006001600160a01b0316815260200160006001600160a01b0316815260200160008019168152602001600081526020016000815260200160008152602001600081526020016000815260200160008152602001600081525090565b856001600160a01b031663776d13c56040518163ffffffff1660e01b8152600401600060405180830381600087803b15801561200057600080fd5b505af1158015612014573d6000803e3d6000fd5b505050506120f48660c01b6040518060400160405280600b81526020017f496e766573746d656e74230000000000000000000000000000000000000000008152506120ce896001600160a01b031663f1457aac6040518163ffffffff1660e01b815260040160206040518083038186803b15801561209157600080fd5b505afa1580156120a5573d6000803e3d6000fd5b505050506040513d601f19601f820116820180604052508101906120c99190615139565b613862565b6040516020016120e093929190615285565b6040516020818303038152906040526139b8565b608082018190526040517fb73dc38900000000000000000000000000000000000000000000000000000000815260048101919091526001600160a01b0387169063b73dc38990602401600060405180830381600087803b15801561215757600080fd5b505af115801561216b573d6000803e3d6000fd5b505050506001600160a01b0386811660009081526020818152604080832060808681015185529083529281902081516101608101835281548616815260018201549381019390935260028101549183019190915260038101546060830152600480820154851693830193909352600581015493841660a08301529092909160c0840191600160a01b900460ff169081111561221657634e487b7160e01b600052602160045260246000fd5b600481111561223557634e487b7160e01b600052602160045260246000fd5b8152602001600682016040518060e001604052908160008201805461225990615891565b80601f016020809104026020016040519081016040528092919081815260200182805461228590615891565b80156122d25780601f106122a7576101008083540402835291602001916122d2565b820191906000526020600020905b8154815290600101906020018083116122b557829003601f168201915b505050505081526020016001820180546122eb90615891565b80601f016020809104026020016040519081016040528092919081815260200182805461231790615891565b80156123645780601f1061233957610100808354040283529160200191612364565b820191906000526020600020905b81548152906001019060200180831161234757829003601f168201915b5050509183525050600282015460208083019190915260038301546040808401919091526004840154606080850191909152600585015460808086019190915260069095015460a094850152948652805160c08082018352600d89015460ff808216151584526001600160a01b03610100909204821684870152600e8b015484860152600f8b0154808316858b0152600160a01b90041615158388015260108a0154168286015287840191909152815180860183526011890154815260128901548185015260138901548184015260148901548188015287830152601590970154958501959095528451610160810186528c3581528c830135918101919091524294810194909452600092840183905290830182905282015273__$681cb9474e9d0742d402d6511ae484696d$__926378f55c1b9290918a9181016124ad6101408c018c615714565b6040013581526020016124c46101408c018c615714565b6080013581526020016124db6101408c018c615714565b6060013581526020016124f26101408c018c615714565b60a0013581526020016125096101408c018c615714565b60c090810135909152604080519182018152819061252c908d0160208e01614d5f565b6001600160a01b0316815260200161254b6101008d0160e08e01614d5f565b6001600160a01b0316815260200161256960a08d0160808e01614d5f565b6001600160a01b031681523360208201526040908101906125909060608e01908e01614d5f565b6001600160a01b031681526020016125b06101408d016101208e01614d5f565b6001600160a01b031690526125cb60808c0160608d01614ebe565b6125dd6101208d016101008e01614ebe565b6125eb6101408e018e615714565b6125f590806156aa565b8e8061014001906126069190615714565b6126149060208101906156aa565b6040518b63ffffffff1660e01b81526004016126399a9998979695949392919061550c565b60006040518083038186803b15801561265157600080fd5b505af4158015612665573d6000803e3d6000fd5b505050506040513d6000823e601f3d908101601f1916820160405261268d919081019061501d565b6001600160a01b03808816600090815260208181526040808320608080880151855290835292819020855181549086167fffffffffffffffffffffffff00000000000000000000000000000000000000009182161782559286015160018201559085015160028201556060850151600382015591840151600480840180549286169284169290921790915560a0850151600584018054919095169281168317855560c08601519394927fffffffffffffffffffffff0000000000000000000000000000000000000000009091161790600160a01b90849081111561278157634e487b7160e01b600052602160045260246000fd5b021790555060e08201518051805160068401916127a391839160200190614a7e565b5060208281015180516127bc9260018501920190614a7e565b506040828101516002830155606080840151600384015560808085015160048086019190915560a080870151600587015560c090960151600690950194909455610100878101518051600d890180546020808501517fffffffffffffffffffffff0000000000000000000000000000000000000000009283169415157fffffffffffffffffffffff0000000000000000000000000000000000000000ff16949094176001600160a01b039485169096029590951790915582870151600e8b015582860151600f8b01805485880151928516931692909217600160a01b911515919091021790559601516010880180547fffffffffffffffffffffffff00000000000000000000000000000000000000001691881691909117905561012088015180516011890155908101516012880155808401516013880155909101516014860155610140909501516015909401939093559284015191516317ba7d8560e01b81527fd3999c37f8f35da86f802a74f9bf032c4aeb46e49abd9c861f489ef4cb40d0a89381019390935288169163815a2bf4919083906317ba7d859060240160206040518083038186803b15801561297357600080fd5b505afa158015612987573d6000803e3d6000fd5b505050506040513d601f19601f820116820180604052508101906129ab9190614d82565b6040517fffffffff0000000000000000000000000000000000000000000000000000000060e085901b16815260048101929092526001600160a01b03166024820152604401600060405180830381600087803b158015612a0a57600080fd5b505af1158015612a1e573d6000803e3d6000fd5b5050505060808101516001600160a01b0387166000908152600360205260409020612a92918154600160801b90819004600f90810b80820b820b6000908152600180870160205260409091209490945584549301900b6fffffffffffffffffffffffffffffffff9081169091029116179055565b6080810151604080516001600160a01b038916815260208101929092527ffe22c13d0cc04eef2a813c30901da5f8cd64f5ba91866fccce71c606ce464874910160405180910390a150612ae582826132b3565b5050505050565b816000612af882612c75565b6001600160a01b03851660008181526020818152604080832088845290915280822090516317ba7d8560e01b81527fde483f9dde6f6b12a62abdfd75010c5234f3ce7693a592507d331ec725f772576004820152939450929091906317ba7d859060240160206040518083038186803b158015612b7457600080fd5b505afa158015612b88573d6000803e3d6000fd5b505050506040513d601f19601f82011682018060405250810190612bac9190614d82565b600d83015460058401546040517f7132e8a10000000000000000000000000000000000000000000000000000000081529293506001600160a01b0380851693637132e8a193612c16938c938c9361010090930416913391600160a01b900460ff16906004016154a0565b602060405180830381600087803b158015612c3057600080fd5b505af1158015612c44573d6000803e3d6000fd5b505050506040513d601f19601f82011682018060405250810190612c689190614eda565b505050610d6782826132b3565b6040805160808101825260008082526020820181905291810182905260608101919091525a81600001818152505043826001600160a01b031663b21634826040518163ffffffff1660e01b815260040160206040518083038186803b158015612cdd57600080fd5b505afa158015612cf1573d6000803e3d6000fd5b505050506040513d601f19601f82011682018060405250810190612d159190615139565b1415612d635760405162461bcd60e51b815260206004820152601060248201527f7265656e7472616e63792067756172640000000000000000000000000000000060448201526064016102df565b816001600160a01b03166310fdb0a26040518163ffffffff1660e01b8152600401600060405180830381600087803b158015612d9e57600080fd5b505af1158015612db2573d6000803e3d6000fd5b50506040517f72c6838f0000000000000000000000000000000000000000000000000000000081527f1f2fd42ad6a6cacd573c4b212beb7a4e2499ad45d742a65337097f130e71daff6004820152600092506001600160a01b03851691506372c6838f9060240160206040518083038186803b158015612e3157600080fd5b505afa158015612e45573d6000803e3d6000fd5b505050506040513d601f19601f82011682018060405250810190612e699190614d82565b90506001600160a01b038116612e855760006020830152612f3a565b6001600160a01b038181166060840181905283516040517f43a8a3f1000000000000000000000000000000000000000000000000000000008152928616600484015260248301526000918291906343a8a3f190604401604080518083038186803b158015612ef257600080fd5b505afa158015612f06573d6000803e3d6000fd5b505050506040513d601f19601f82011682018060405250810190612f2a9190614ef6565b9015156020860152604085015250505b50919050565b6040517fa230c5240000000000000000000000000000000000000000000000000000000081526001600160a01b03828116600483015283169063a230c5249060240160206040518083038186803b158015612f9a57600080fd5b505afa158015612fae573d6000803e3d6000fd5b505050506040513d601f19601f82011682018060405250810190612fd29190614eda565b61301e5760405162461bcd60e51b815260206004820152600c60248201527f6f6e6c79476f7665726e6f72000000000000000000000000000000000000000060448201526064016102df565b5050565b60006130418254600f81810b810b600160801b909204810b900b131590565b15613078576040517f3db2a12a00000000000000000000000000000000000000000000000000000000815260040160405180910390fd5b508054600f90810b810b900b60009081526001909101602052604090205490565b60006130b88254600f81810b810b600160801b909204810b900b131590565b156130ef576040517f3db2a12a00000000000000000000000000000000000000000000000000000000815260040160405180910390fd5b508054600f90810b80820b820b600090815260018085016020526040822080549290558454920190920b6fffffffffffffffffffffffffffffffff167fffffffffffffffffffffffffffffffff000000000000000000000000000000009091161790915590565b6040516317ba7d8560e01b81527fde483f9dde6f6b12a62abdfd75010c5234f3ce7693a592507d331ec725f77257600482015260009081906001600160a01b038816906317ba7d859060240160206040518083038186803b1580156131ba57600080fd5b505afa1580156131ce573d6000803e3d6000fd5b505050506040513d601f19601f820116820180604052508101906131f29190614d82565b6040517fd705e0cd000000000000000000000000000000000000000000000000000000008152600481018690526001600160a01b03898116602483015288811660448301528781166064830152608482018690529192509082169063d705e0cd9060a401602060405180830381600087803b15801561327057600080fd5b505af1158015613284573d6000803e3d6000fd5b505050506040513d601f19601f820116820180604052508101906132a89190614eda565b979650505050505050565b61301e8282336139d4565b6000816001600160a01b03166348f7f2a36040518163ffffffff1660e01b815260040160206040518083038186803b1580156132f957600080fd5b505afa15801561330d573d6000803e3d6000fd5b505050506040513d601f19601f820116820180604052508101906133319190614d82565b6001600160a01b0316638da5cb5b6040518163ffffffff1660e01b815260040160206040518083038186803b15801561336957600080fd5b505afa15801561337d573d6000803e3d6000fd5b505050506040513d601f19601f82011682018060405250810190610dc09190614d82565b600080836001600160a01b031663a6f636416040518163ffffffff1660e01b815260040160006040518083038186803b1580156133dd57600080fd5b505afa1580156133f1573d6000803e3d6000fd5b505050506040513d6000823e601f3d908101601f191682016040526134199190810190614e0a565b6040516317ba7d8560e01b81527fd3999c37f8f35da86f802a74f9bf032c4aeb46e49abd9c861f489ef4cb40d0a8600482015290915060009081906001600160a01b038716906317ba7d859060240160206040518083038186803b15801561348057600080fd5b505afa158015613494573d6000803e3d6000fd5b505050506040513d601f19601f820116820180604052508101906134b89190614d82565b905060005b83518160ff1610156136c257816001600160a01b03166324a2cceb8888878560ff16815181106134fd57634e487b7160e01b600052603260045260246000fd5b60200260200101516040518463ffffffff1660e01b8152600401613541939291906001600160a01b0393841681526020810192909252909116604082015260600190565b60206040518083038186803b15801561355957600080fd5b505afa15801561356d573d6000803e3d6000fd5b505050506040513d601f19601f820116820180604052508101906135919190614eda565b1561366f57816001600160a01b03166391d2fd538888878560ff16815181106135ca57634e487b7160e01b600052603260045260246000fd5b60200260200101516040518463ffffffff1660e01b815260040161360e939291906001600160a01b0393841681526020810192909252909116604082015260600190565b60206040518083038186803b15801561362657600080fd5b505afa15801561363a573d6000803e3d6000fd5b505050506040513d601f19601f8201168201806040525081019061365e919061511f565b61366890846157cf565b92506136b0565b6136a387858360ff168151811061369657634e487b7160e01b600052603260045260246000fd5b6020026020010151613ac5565b6136ad90846157cf565b92505b806136ba816158e1565b9150506134bd565b509095945050505050565b6040516317ba7d8560e01b81527f99d271900d627893bad1d8649a7d7eb3501c339595ec52be94d222433d75560360048201526000906001600160a01b038416906317ba7d859060240160206040518083038186803b15801561372f57600080fd5b505afa158015613743573d6000803e3d6000fd5b505050506040513d601f19601f820116820180604052508101906137679190614d82565b6001600160a01b03808516600090815260208181526040808320878452825291829020825160c081018452600e8201548152600882015492810192909252600981015482840152600a8101546060830152600b8101546080830152600c81015460a0830152600d810154600582015493517f24d1669d00000000000000000000000000000000000000000000000000000000815295965090949193808716936324d1669d93613829938b9361010090910481169216908a9088906004016153cd565b600060405180830381600087803b15801561384357600080fd5b505af1158015613857573d6000803e3d6000fd5b505050505050505050565b6060816138a257505060408051808201909152600181527f3000000000000000000000000000000000000000000000000000000000000000602082015290565b8160005b81156138cc57806138b6816158c6565b91506138c59050600a8361581b565b91506138a6565b60008167ffffffffffffffff8111156138f557634e487b7160e01b600052604160045260246000fd5b6040519080825280601f01601f19166020018201604052801561391f576020820181803683370190505b5090505b84156139b05761393460018361584e565b9150613941600a86615901565b61394c906030615803565b60f81b81838151811061396f57634e487b7160e01b600052603260045260246000fd5b60200101907effffffffffffffffffffffffffffffffffffffffffffffffffffffffffffff1916908160001a9053506139a9600a8661581b565b9450613923565b949350505050565b60008151600014156139cc57506000919050565b506020015190565b816020015115613a8a5781606001516001600160a01b0316635e5eb01384835a8651613a00919061584e565b60408088015190517fffffffff0000000000000000000000000000000000000000000000000000000060e087901b1681526001600160a01b03948516600482015293909216602484015260448301526064820152608401600060405180830381600087803b158015613a7157600080fd5b505af1158015613a85573d6000803e3d6000fd5b505050505b826001600160a01b031663d4f7af436040518163ffffffff1660e01b8152600401600060405180830381600087803b158015610f7157600080fd5b6040516317ba7d8560e01b81527faaff643bdbd909f604d46ce015336f7e20fee3ac4a55cef3610188dee176c892600482015260009081906001600160a01b038516906317ba7d859060240160206040518083038186803b158015613b2957600080fd5b505afa158015613b3d573d6000803e3d6000fd5b505050506040513d601f19601f82011682018060405250810190613b619190614d82565b6040516317ba7d8560e01b81527fa837e34a29b67bf52f684a1c93def79b84b9c012732becee4e5df62809df64ed60048201529091506000906001600160a01b038616906317ba7d859060240160206040518083038186803b158015613bc657600080fd5b505afa158015613bda573d6000803e3d6000fd5b505050506040513d601f19601f82011682018060405250810190613bfe9190614d82565b6040516317ba7d8560e01b81527f1fa6846b165d822fff79e37c67625706652fa9380c2aa49fd513ce534cc72ed460048201529091506000906001600160a01b038716906317ba7d859060240160206040518083038186803b158015613c6357600080fd5b505afa158015613c77573d6000803e3d6000fd5b505050506040513d601f19601f82011682018060405250810190613c9b9190614d82565b604051634941d71d60e11b81527f686efe7bd1699b408d306db6bbee658ed667971c52d48d6912d7ee496e36e62760048201529091506000906001600160a01b03881690639283ae3a9060240160206040518083038186803b158015613d0057600080fd5b505afa158015613d14573d6000803e3d6000fd5b505050506040513d601f19601f82011682018060405250810190613d389190615139565b604051634941d71d60e11b81527fb75eae231d9582c6afc6491273df4a0ffbccd48ab2c48dbce59e5d68f2d19dc460048201529091506000906001600160a01b03891690639283ae3a9060240160206040518083038186803b158015613d9d57600080fd5b505afa158015613db1573d6000803e3d6000fd5b505050506040513d601f19601f82011682018060405250810190613dd59190615139565b604051634941d71d60e11b81527e634460a4b60c2e1bf8c87bfc42b6b68fd2a71f4bb2d760816eabc5038b503660048201529091506000906001600160a01b038a1690639283ae3a9060240160206040518083038186803b158015613e3957600080fd5b505afa158015613e4d573d6000803e3d6000fd5b505050506040513d601f19601f82011682018060405250810190613e719190615139565b6040517ffd310d290000000000000000000000000000000000000000000000000000000081527fcd9b30ab6388c165d825b60b7d393528191ba59d975b4b1b52b7184b63b8a97c60048201529091506000906001600160a01b038b169063fd310d299060240160206040518083038186803b158015613eef57600080fd5b505afa158015613f03573d6000803e3d6000fd5b505050506040513d601f19601f82011682018060405250810190613f279190614d82565b905082600114156143a257600084613fcf576040516370a0823160e01b81526001600160a01b038b81166004830152670de0b6b3a764000091908416906370a08231906024015b60206040518083038186803b158015613f8657600080fd5b505afa158015613f9a573d6000803e3d6000fd5b505050506040513d601f19601f82011682018060405250810190613fbe9190615139565b613fc8919061581b565b9050614333565b8460011415614052576040516370a0823160e01b81526001600160a01b038b811660048301528316906370a08231906024015b60206040518083038186803b15801561401a57600080fd5b505afa15801561402e573d6000803e3d6000fd5b505050506040513d601f19601f82011682018060405250810190613fc89190615139565b846002141561408e57604051627eeac760e11b81526001600160a01b038b811660048301526024820185905283169062fdd58e90604401614002565b84600314156140cd576040516329b6517360e21b81526001600160a01b038c811660048301528b8116602483015287169063a6d945cc90604401614002565b84600414156143225760026040517f1ee1a2b00000000000000000000000000000000000000000000000000000000081526001600160a01b038d811660048301528a1690631ee1a2b09060240160206040518083038186803b15801561413257600080fd5b505afa158015614146573d6000803e3d6000fd5b505050506040513d601f19601f8201168201806040525081019061416a9190614fb7565b600381111561418957634e487b7160e01b600052602160045260246000fd5b14801561422b5750604051634941d71d60e11b81527f9ce69cf04065e3c7823cc5540c0598d8a694bd7a9a5a2a786d8bccf14ed6e2ea60048201526001600160a01b038c1690639283ae3a9060240160206040518083038186803b1580156141f057600080fd5b505afa158015614204573d6000803e3d6000fd5b505050506040513d601f19601f820116820180604052508101906142289190615139565b42105b80156142cb57506040517f4fc0a76d0000000000000000000000000000000000000000000000000000000081526001600160a01b038c8116600483015260019190891690634fc0a76d9060240160206040518083038186803b15801561429057600080fd5b505afa1580156142a4573d6000803e3d6000fd5b505050506040513d601f19601f820116820180604052508101906142c89190615139565b10155b1561431157604051633de222bb60e21b81526001600160a01b038c811660048301528b81166024830152670de0b6b3a764000091908a169063f7888aec90604401613f6e565b600198505050505050505050610dc0565b600098505050505050505050610dc0565b6000811161434c57600098505050505050505050610dc0565b677fffffffffffffff811061436c57603298505050505050505050610dc0565b600061438761438261437d8461494d565b61496b565b614a62565b67ffffffffffffffff169950610dc098505050505050505050565b826002141561455957600084614449576040516370a0823160e01b81526001600160a01b038b81166004830152600091908416906370a08231906024015b60206040518083038186803b1580156143f857600080fd5b505afa15801561440c573d6000803e3d6000fd5b505050506040513d601f19601f820116820180604052508101906144309190615139565b1161443c57600061443f565b60015b60ff16905061454a565b8460011415614484576040516370a0823160e01b81526001600160a01b038b81166004830152600091908416906370a08231906024016143e0565b84600214156144c457604051627eeac760e11b81526001600160a01b038b81166004830152602482018590526000919084169062fdd58e906044016143e0565b8460031415614507576040516329b6517360e21b81526001600160a01b038c811660048301528b811660248301526000919088169063a6d945cc906044016143e0565b846004141561432257604051633de222bb60e21b81526001600160a01b038c811660048301528b81166024830152600091908a169063f7888aec906044016143e0565b9750610dc09650505050505050565b8261493d576000846145fb576040516370a0823160e01b81526001600160a01b038b81166004830152670de0b6b3a764000091908416906370a08231906024015b60206040518083038186803b1580156145b257600080fd5b505afa1580156145c6573d6000803e3d6000fd5b505050506040513d601f19601f820116820180604052508101906145ea9190615139565b6145f4919061581b565b905061454a565b846001141561467e576040516370a0823160e01b81526001600160a01b038b811660048301528316906370a08231906024015b60206040518083038186803b15801561464657600080fd5b505afa15801561465a573d6000803e3d6000fd5b505050506040513d601f19601f820116820180604052508101906145f49190615139565b84600214156146ba57604051627eeac760e11b81526001600160a01b038b811660048301526024820185905283169062fdd58e9060440161462e565b84600314156146f9576040516329b6517360e21b81526001600160a01b038c811660048301528b8116602483015287169063a6d945cc9060440161462e565b84600414156143225760026040517f1ee1a2b00000000000000000000000000000000000000000000000000000000081526001600160a01b038d811660048301528a1690631ee1a2b09060240160206040518083038186803b15801561475e57600080fd5b505afa158015614772573d6000803e3d6000fd5b505050506040513d601f19601f820116820180604052508101906147969190614fb7565b60038111156147b557634e487b7160e01b600052602160045260246000fd5b1480156148575750604051634941d71d60e11b81527f9ce69cf04065e3c7823cc5540c0598d8a694bd7a9a5a2a786d8bccf14ed6e2ea60048201526001600160a01b038c1690639283ae3a9060240160206040518083038186803b15801561481c57600080fd5b505afa158015614830573d6000803e3d6000fd5b505050506040513d601f19601f820116820180604052508101906148549190615139565b42105b80156148f757506040517f4fc0a76d0000000000000000000000000000000000000000000000000000000081526001600160a01b038c8116600483015260019190891690634fc0a76d9060240160206040518083038186803b1580156148bc57600080fd5b505afa1580156148d0573d6000803e3d6000fd5b505050506040513d601f19601f820116820180604052508101906148f49190615139565b10155b1561431157604051633de222bb60e21b81526001600160a01b038c811660048301528b81166024830152670de0b6b3a764000091908a169063f7888aec9060440161459a565b6000975050505050505050610dc0565b6000677fffffffffffffff82111561496457600080fd5b5060401b90565b60008082600f0b1361497c57600080fd5b6000600f83900b68010000000000000000811261499b576040918201911d5b64010000000081126149af576020918201911d5b6201000081126149c1576010918201911d5b61010081126149d2576008918201911d5b601081126149e2576004918201911d5b600481126149f2576002918201911d5b60028112614a01576001820191505b7fffffffffffffffffffffffffffffffffffffffffffffffffffffffffffffffc0820160401b600f85900b607f8490031b6780000000000000005b60008113156136c25790800260ff81901c8281029390930192607f011c9060011d614a3c565b60008082600f0b1215614a7457600080fd5b50600f0b60401d90565b828054614a8a90615891565b90600052602060002090601f016020900481019282614aac5760008555614af2565b82601f10614ac557805160ff1916838001178555614af2565b82800160010185558215614af2579182015b82811115614af2578251825591602001919060010190614ad7565b50614afe929150614b02565b5090565b5b80821115614afe5760008155600101614b03565b8051610dce81615957565b805160058110610dce57600080fd5b600082601f830112614b41578081fd5b815167ffffffffffffffff811115614b5b57614b5b615941565b614b6e6020601f19601f8401160161579e565b818152846020838601011115614b82578283fd5b6139b0826020830160208701615865565b600060c08284031215614ba4578081fd5b60405160c0810181811067ffffffffffffffff82111715614bc757614bc7615941565b80604052508091508251614bda8161596f565b81526020830151614bea81615957565b6020820152604083810151908201526060830151614c0781615957565b60608201526080830151614c1a8161596f565b608082015260a0830151614c2d81615957565b60a0919091015292915050565b600060808284031215614c4b578081fd5b6040516080810181811067ffffffffffffffff82111715614c6e57614c6e615941565b8060405250809150825181526020830151602082015260408301516040820152606083015160608201525092915050565b600060e08284031215614cb0578081fd5b614cb8615751565b9050815167ffffffffffffffff80821115614cd257600080fd5b614cde85838601614b31565b83526020840151915080821115614cf457600080fd5b50614d0184828501614b31565b60208301525060408201516040820152606082015160608201526080820151608082015260a082015160a082015260c082015160c082015292915050565b80516fffffffffffffffffffffffffffffffff81168114610dce57600080fd5b600060208284031215614d70578081fd5b8135614d7b81615957565b9392505050565b600060208284031215614d93578081fd5b8151614d7b81615957565b60008060408385031215614db0578081fd5b8235614dbb81615957565b946020939093013593505050565b600080600060608486031215614ddd578081fd5b8335614de881615957565b9250602084013591506040840135614dff81615957565b809150509250925092565b60006020808385031215614e1c578182fd5b825167ffffffffffffffff80821115614e33578384fd5b818501915085601f830112614e46578384fd5b815181811115614e5857614e58615941565b8060051b9150614e6984830161579e565b8181528481019084860184860187018a1015614e83578788fd5b8795505b83861015614eb15780519450614e9c85615957565b84835260019590950194918601918601614e87565b5098975050505050505050565b600060208284031215614ecf578081fd5b8135614d7b8161596f565b600060208284031215614eeb578081fd5b8151614d7b8161596f565b60008060408385031215614f08578182fd5b8251614f138161596f565b6020939093015192949293505050565b60008060408385031215614f35578182fd5b8235614f4081615957565b91506020830135614f5081615957565b809150509250929050565b60008060408385031215614db0578182fd5b60008060408385031215614f7f578182fd5b8235614f8a81615957565b9150602083013567ffffffffffffffff811115614fa5578182fd5b83016101608186031215614f50578182fd5b600060208284031215614fc8578081fd5b815160048110614d7b578182fd5b600080600060608486031215614fea578081fd5b835160068110614ff8578182fd5b925061500660208501614d3f565b915061501460408501614d3f565b90509250925092565b60006020828403121561502e578081fd5b815167ffffffffffffffff80821115615045578283fd5b908301906102608286031215615059578283fd5b61506161577a565b61506a83614b17565b815260208301516020820152604083015160408201526060830151606082015261509660808401614b17565b60808201526150a760a08401614b17565b60a08201526150b860c08401614b22565b60c082015260e0830151828111156150ce578485fd5b6150da87828601614c9f565b60e08301525061010091506150f186838501614b93565b82820152615103866101c08501614c3a565b6101208201526102409290920151610140830152509392505050565b600060208284031215615130578081fd5b614d7b82614d3f565b60006020828403121561514a578081fd5b5051919050565b8060005b6006811015610d675781516001600160a01b0316845260209384019390910190600101615155565b8060005b600b811015610d67578151845260209384019390910190600101615181565b600081518084526151b8816020860160208601615865565b601f01601f19169290920160200192915050565b600581106151ea57634e487b7160e01b600052602160045260246000fd5b9052565b8183528181602085013750600080602083850101526020601f19601f840116840101905092915050565b6000815160e0845261522d60e08501826151a0565b90506020830151848203602086015261524682826151a0565b91505060408301516040850152606083015160608501526080830151608085015260a083015160a085015260c083015160c08501528091505092915050565b7fffffffffffffffff00000000000000000000000000000000000000000000000084168152600083516152bf816008850160208801615865565b8351908301906152d6816008840160208801615865565b0160080195945050505050565b60006102606001600160a01b03808f1684528d60208501528c60408501528b6060850152808b166080850152808a1660a08501525061532560c08401896151cc565b8060e084015261533781840188615218565b8651151561010085015260208701516001600160a01b039081166101208601526040880151610140860152606088015181166101608601526080880151151561018086015260a0880151166101a085015291506153919050565b83516101c083015260208401516101e0830152604084015161020083015260609093015161022082015261024001529998505050505050505050565b6000610140820190506001600160a01b03808816835260208188168185015281871660408501528560608501526080840191508460005b600681101561542157815184529282019290820190600101615404565b505050509695505050505050565b6001600160a01b03848116825261010082019060208084018660005b600381101561546a57815185168352918301919083019060010161544b565b5050506080840191508460005b600481101561549457815184529282019290820190600101615477565b50505050949350505050565b6001600160a01b0386811682526020820186905284811660408301528316606082015260a081016154d460808301846151cc565b9695505050505050565b6001600160a01b03851681528360208201528260408201526080606082015260006154d460808301846151a0565b60006102e08083526155298184018e516001600160a01b03169052565b5060208c015161030083015260408c015161032083015260608c015161034083015260808c01516001600160a01b0390811661036084015260a08d01511661038083015260c08c01516155806103a08401826151cc565b5060e08c0151610260806103c085015261559e610540850183615218565b6101008f0151805115156103e087015260208101516001600160a01b039081166104008801526040820151610420880152606082015181166104408801526080820151151561046088015260a082015116610480870152909250506101208e015180516104a086015260208101516104c086015260408101516104e08601526060810151610500860152506101408e01516105208501526001600160a01b038d166020850152615651604085018d61517d565b61565f6101a085018c615151565b891515908401528715156102808401528281036102a08401526156838187896151ee565b90508281036102c08401526156998185876151ee565b9d9c50505050505050505050505050565b60008083357fffffffffffffffffffffffffffffffffffffffffffffffffffffffffffffffe18436030181126156de578283fd5b83018035915067ffffffffffffffff8211156156f8578283fd5b60200191503681900382131561570d57600080fd5b9250929050565b600082357fffffffffffffffffffffffffffffffffffffffffffffffffffffffffffffff21833603018112615747578182fd5b9190910192915050565b60405160e0810167ffffffffffffffff8111828210171561577457615774615941565b60405290565b604051610160810167ffffffffffffffff8111828210171561577457615774615941565b604051601f8201601f1916810167ffffffffffffffff811182821017156157c7576157c7615941565b604052919050565b60006fffffffffffffffffffffffffffffffff8083168185168083038211156157fa576157fa615915565b01949350505050565b6000821982111561581657615816615915565b500190565b60008261582a5761582a61592b565b500490565b600081600019048311821515161561584957615849615915565b500290565b60008282101561586057615860615915565b500390565b60005b83811015615880578181015183820152602001615868565b83811115610d675750506000910152565b600181811c908216806158a557607f821691505b60208210811415612f3a57634e487b7160e01b600052602260045260246000fd5b60006000198214156158da576158da615915565b5060010190565b600060ff821660ff8114156158f8576158f8615915565b60010192915050565b6000826159105761591061592b565b500690565b634e487b7160e01b600052601160045260246000fd5b634e487b7160e01b600052601260045260246000fd5b634e487b7160e01b600052604160045260246000fd5b6001600160a01b038116811461596c57600080fd5b50565b801515811461596c57600080fdfea26469706673582212204dd3d082592b9c8e87ca22871cc34eaf8aecab2b6406b9dafd68fad788e36a6364736f6c63430008040033",
  "linkReferences": {
    "contracts/vintage/libraries/fundingLibrary.sol": {
      "InvestmentLibrary": [
        {
          "length": 20,
          "start": 9414
        }
      ]
    }
  },
  "deployedLinkReferences": {
    "contracts/vintage/libraries/fundingLibrary.sol": {
      "InvestmentLibrary": [
        {
          "length": 20,
          "start": 9343
        }
      ]
    }
  }
}