{
  "_format": "hh-sol-artifact-1",
  "contractName": "VintageFundingAdapterContract",
  "sourceName": "contracts/vintage/adapters/VintageFundingAdapter.sol",
  "abi": [
    {
      "inputs": [],
      "name": "Empty",
      "type": "error"
    },
    {
      "anonymous": false,
      "inputs": [
        {
          "indexed": false,
          "internalType": "address",
          "name": "daoAddr",
          "type": "address"
        },
        {
          "indexed": false,
          "internalType": "bytes32",
          "name": "proposalId",
          "type": "bytes32"
        }
      ],
      "name": "ProposalCreated",
      "type": "event"
    },
    {
      "anonymous": false,
      "inputs": [
        {
          "indexed": false,
          "internalType": "address",
          "name": "daoAddr",
          "type": "address"
        },
        {
          "indexed": false,
          "internalType": "bytes32",
          "name": "proposalID",
          "type": "bytes32"
        },
        {
          "indexed": false,
          "internalType": "uint128",
          "name": "allVotingWeight",
          "type": "uint128"
        },
        {
          "indexed": false,
          "internalType": "uint128",
          "name": "nbYes",
          "type": "uint128"
        },
        {
          "indexed": false,
          "internalType": "uint128",
          "name": "nbNo",
          "type": "uint128"
        }
      ],
      "name": "ProposalExecuted",
      "type": "event"
    },
    {
      "anonymous": false,
      "inputs": [
        {
          "indexed": false,
          "internalType": "address",
          "name": "daoAddr",
          "type": "address"
        },
        {
          "indexed": false,
          "internalType": "bytes32",
          "name": "proposalID",
          "type": "bytes32"
        }
      ],
      "name": "StartVote",
      "type": "event"
    },
    {
      "inputs": [
        {
          "internalType": "contract DaoRegistry",
          "name": "dao",
          "type": "address"
        }
      ],
      "name": "getFrontProposalId",
      "outputs": [
        {
          "internalType": "bytes32",
          "name": "",
          "type": "bytes32"
        }
      ],
      "stateMutability": "view",
      "type": "function"
    },
    {
      "inputs": [
        {
          "internalType": "contract DaoRegistry",
          "name": "dao",
          "type": "address"
        }
      ],
      "name": "getQueueLength",
      "outputs": [
        {
          "internalType": "uint256",
          "name": "",
          "type": "uint256"
        }
      ],
      "stateMutability": "view",
      "type": "function"
    },
    {
      "inputs": [
        {
          "internalType": "address",
          "name": "",
          "type": "address"
        }
      ],
      "name": "ongoingProposal",
      "outputs": [
        {
          "internalType": "bytes32",
          "name": "",
          "type": "bytes32"
        }
      ],
      "stateMutability": "view",
      "type": "function"
    },
    {
      "inputs": [
        {
          "internalType": "contract DaoRegistry",
          "name": "dao",
          "type": "address"
        },
        {
          "internalType": "bytes32",
          "name": "proposalId",
          "type": "bytes32"
        }
      ],
      "name": "processProposal",
      "outputs": [
        {
          "internalType": "bool",
          "name": "",
          "type": "bool"
        }
      ],
      "stateMutability": "nonpayable",
      "type": "function"
    },
    {
      "inputs": [
        {
          "internalType": "address",
          "name": "",
          "type": "address"
        },
        {
          "internalType": "bytes32",
          "name": "",
          "type": "bytes32"
        },
        {
          "internalType": "address",
          "name": "",
          "type": "address"
        }
      ],
      "name": "projectTeamLockedTokens",
      "outputs": [
        {
          "internalType": "uint256",
          "name": "",
          "type": "uint256"
        }
      ],
      "stateMutability": "view",
      "type": "function"
    },
    {
      "inputs": [],
      "name": "proposalIds",
      "outputs": [
        {
          "internalType": "uint256",
          "name": "",
          "type": "uint256"
        }
      ],
      "stateMutability": "view",
      "type": "function"
    },
    {
      "inputs": [
        {
          "internalType": "address",
          "name": "",
          "type": "address"
        }
      ],
      "name": "proposalQueue",
      "outputs": [
        {
          "internalType": "int128",
          "name": "_begin",
          "type": "int128"
        },
        {
          "internalType": "int128",
          "name": "_end",
          "type": "int128"
        }
      ],
      "stateMutability": "view",
      "type": "function"
    },
    {
      "inputs": [
        {
          "internalType": "address",
          "name": "",
          "type": "address"
        },
        {
          "internalType": "bytes32",
          "name": "",
          "type": "bytes32"
        }
      ],
      "name": "proposals",
      "outputs": [
        {
          "internalType": "address",
          "name": "fundingToken",
          "type": "address"
        },
        {
          "internalType": "uint256",
          "name": "fundingAmount",
          "type": "uint256"
        },
        {
          "internalType": "uint256",
          "name": "totalAmount",
          "type": "uint256"
        },
        {
          "internalType": "uint256",
          "name": "price",
          "type": "uint256"
        },
        {
          "internalType": "address",
          "name": "recipientAddr",
          "type": "address"
        },
        {
          "internalType": "address",
          "name": "proposer",
          "type": "address"
        },
        {
          "internalType": "enum FundingLibrary.ProposalState",
          "name": "status",
          "type": "uint8"
        },
        {
          "components": [
            {
              "internalType": "string",
              "name": "name",
              "type": "string"
            },
            {
              "internalType": "string",
              "name": "description",
              "type": "string"
            },
            {
              "internalType": "uint256",
              "name": "vestingStartTime",
              "type": "uint256"
            },
            {
              "internalType": "uint256",
              "name": "vetingEndTime",
              "type": "uint256"
            },
            {
              "internalType": "uint256",
              "name": "vestingCliffEndTime",
              "type": "uint256"
            },
            {
              "internalType": "uint256",
              "name": "vestingCliffLockAmount",
              "type": "uint256"
            },
            {
              "internalType": "uint256",
              "name": "vestingInterval",
              "type": "uint256"
            }
          ],
          "internalType": "struct FundingLibrary.VestInfo",
          "name": "vestInfo",
          "type": "tuple"
        },
        {
          "components": [
            {
              "internalType": "bool",
              "name": "escrow",
              "type": "bool"
            },
            {
              "internalType": "address",
              "name": "returnToken",
              "type": "address"
            },
            {
              "internalType": "uint256",
              "name": "returnTokenAmount",
              "type": "uint256"
            },
            {
              "internalType": "address",
              "name": "approveOwnerAddr",
              "type": "address"
            },
            {
              "internalType": "bool",
              "name": "nftEnable",
              "type": "bool"
            },
            {
              "internalType": "address",
              "name": "erc721",
              "type": "address"
            }
          ],
          "internalType": "struct FundingLibrary.ProposalReturnTokenInfo",
          "name": "proposalReturnTokenInfo",
          "type": "tuple"
        },
        {
          "components": [
            {
              "internalType": "uint256",
              "name": "inQueueTimestamp",
              "type": "uint256"
            },
            {
              "internalType": "uint256",
              "name": "proposalStartVotingTimestamp",
              "type": "uint256"
            },
            {
              "internalType": "uint256",
              "name": "proposalStopVotingTimestamp",
              "type": "uint256"
            },
            {
              "internalType": "uint256",
              "name": "proposalExecuteTimestamp",
              "type": "uint256"
            }
          ],
          "internalType": "struct FundingLibrary.ProposalTimeInfo",
          "name": "proposalTimeInfo",
          "type": "tuple"
        }
      ],
      "stateMutability": "view",
      "type": "function"
    },
    {
      "inputs": [],
      "name": "protocolAddress",
      "outputs": [
        {
          "internalType": "address",
          "name": "",
          "type": "address"
        }
      ],
      "stateMutability": "view",
      "type": "function"
    },
    {
      "inputs": [
        {
          "internalType": "contract DaoRegistry",
          "name": "dao",
          "type": "address"
        },
        {
          "internalType": "address",
          "name": "_protocolAddress",
          "type": "address"
        }
      ],
      "name": "setProtocolAddress",
      "outputs": [],
      "stateMutability": "nonpayable",
      "type": "function"
    },
    {
      "inputs": [
        {
          "internalType": "contract DaoRegistry",
          "name": "dao",
          "type": "address"
        },
        {
          "internalType": "bytes32",
          "name": "proposalId",
          "type": "bytes32"
        }
      ],
      "name": "startVotingProcess",
      "outputs": [
        {
          "internalType": "bool",
          "name": "",
          "type": "bool"
        }
      ],
      "stateMutability": "nonpayable",
      "type": "function"
    },
    {
      "inputs": [
        {
          "internalType": "contract DaoRegistry",
          "name": "dao",
          "type": "address"
        },
        {
          "components": [
            {
              "components": [
                {
                  "internalType": "uint256",
                  "name": "fundingAmount",
                  "type": "uint256"
                },
                {
                  "internalType": "address",
                  "name": "fundingToken",
                  "type": "address"
                },
                {
                  "internalType": "address",
                  "name": "receiver",
                  "type": "address"
                }
              ],
              "internalType": "struct IVintageFunding.FundingInfo",
              "name": "fundingInfo",
              "type": "tuple"
            },
            {
              "components": [
                {
                  "internalType": "bool",
                  "name": "escrow",
                  "type": "bool"
                },
                {
                  "internalType": "address",
                  "name": "returnToken",
                  "type": "address"
                },
                {
                  "internalType": "uint256",
                  "name": "price",
                  "type": "uint256"
                },
                {
                  "internalType": "uint256",
                  "name": "returnTokenAmount",
                  "type": "uint256"
                },
                {
                  "internalType": "address",
                  "name": "approver",
                  "type": "address"
                },
                {
                  "internalType": "bool",
                  "name": "nftEnable",
                  "type": "bool"
                },
                {
                  "internalType": "address",
                  "name": "vestingNft",
                  "type": "address"
                }
              ],
              "internalType": "struct IVintageFunding.ReturnTokenInfo",
              "name": "returnTokenInfo",
              "type": "tuple"
            },
            {
              "components": [
                {
                  "internalType": "string",
                  "name": "name",
                  "type": "string"
                },
                {
                  "internalType": "string",
                  "name": "description",
                  "type": "string"
                },
                {
                  "internalType": "uint256",
                  "name": "vestingStartTime",
                  "type": "uint256"
                },
                {
                  "internalType": "uint256",
                  "name": "vetingEndTime",
                  "type": "uint256"
                },
                {
                  "internalType": "uint256",
                  "name": "vestingCliffEndTime",
                  "type": "uint256"
                },
                {
                  "internalType": "uint256",
                  "name": "vestingCliffLockAmount",
                  "type": "uint256"
                },
                {
                  "internalType": "uint256",
                  "name": "vestingInterval",
                  "type": "uint256"
                }
              ],
              "internalType": "struct IVintageFunding.VestInfo",
              "name": "vestInfo",
              "type": "tuple"
            }
          ],
          "internalType": "struct IVintageFunding.FundingProposalParams",
          "name": "params",
          "type": "tuple"
        }
      ],
      "name": "submitProposal",
      "outputs": [],
      "stateMutability": "nonpayable",
      "type": "function"
    },
    {
      "inputs": [
        {
          "internalType": "contract DaoRegistry",
          "name": "dao",
          "type": "address"
        },
        {
          "internalType": "bytes32",
          "name": "proposalId",
          "type": "bytes32"
        }
      ],
      "name": "unLockProjectTeamToken",
      "outputs": [],
      "stateMutability": "nonpayable",
      "type": "function"
    }
  ],
  "bytecode": "0x60806040526001600455600580546001600160a01b031916739ac9c636404c8d46d9eb966d7179983ba5a3941a17905534801561003b57600080fd5b50615fc6806200004c6000396000f3fe608060405234801561001057600080fd5b50600436106100df5760003560e01c806362e86df51161008c578063ca696d8311610066578063ca696d83146101e5578063d5bef02e1461022e578063f33821ec1461025f578063f8d90d5d1461027257600080fd5b806362e86df51461019f5780639573167d146101bf578063a5d6fb13146101d257600080fd5b80633d67a5fc116100bd5780633d67a5fc1461014e578063438d9312146101615780635cb752761461017657600080fd5b80630676c1b7146100e45780632b73de35146101145780633d5af2ed14610137575b600080fd5b6005546100f7906001600160a01b031681565b6040516001600160a01b0390911681526020015b60405180910390f35b6101276101223660046155ea565b610285565b604051901515815260200161010b565b61014060045481565b60405190815260200161010b565b61014061015c3660046153ee565b610c0c565b61017461016f3660046155b2565b610c72565b005b61018961018436600461542d565b610e2d565b60405161010b9a99989796959493929190615936565b6101406101ad3660046153ee565b60026020526000908152604090205481565b6101276101cd3660046155ea565b61108b565b6101406101e03660046153ee565b611c74565b6102146101f33660046153ee565b600360205260009081526040902054600f81810b91600160801b9004900b82565b60408051600f93840b81529190920b60208201520161010b565b61014061023c366004615458565b600160209081526000938452604080852082529284528284209052825290205481565b61017461026d3660046155fc565b611cd8565b6101746102803660046155ea565b612059565b60008260006102938261239a565b9050846102a08133612665565b60006102ab87611c74565b116102fd5760405162461bcd60e51b815260206004820152601e60248201527f46756e64696e673a3a5175657565206c656e677468206d757374203e2030000060448201526064015b60405180910390fd5b6001600160a01b038616600090815260036020526040902061031e90612747565b85146103925760405162461bcd60e51b815260206004820152602f60248201527f46756e64696e673a3a7374617274566f74696e6750726f636573733a3a496e7660448201527f616c69642050726f706f73616c4964000000000000000000000000000000000060648201526084016102f4565b6040805160e08101825260008082526020808301829052828401829052606083018290526080830182905260a0830182905260c083018290526001600160a01b038a1680835260028252848320548452825281815283822089835290529190912081511561053d5760036001600160a01b03891660009081526020818152604080832086518452909152902060050154600160a01b900460ff16600481111561044b57634e487b7160e01b600052602160045260246000fd5b14806104a5575060046001600160a01b03891660009081526020818152604080832086518452909152902060050154600160a01b900460ff1660048111156104a357634e487b7160e01b600052602160045260246000fd5b145b61053d5760405162461bcd60e51b815260206004820152604260248201527f46756e64696e673a3a7374617274566f74696e6750726f636573733a3a74686560448201527f7265206973206f746865722070726f706f73616c206e6f742066696e616c697a60648201527f6564000000000000000000000000000000000000000000000000000000000000608482015260a4016102f4565b6040516317ba7d8560e01b81527faaff643bdbd909f604d46ce015336f7e20fee3ac4a55cef3610188dee176c89260048201526001600160a01b038916906317ba7d859060240160206040518083038186803b15801561059c57600080fd5b505afa1580156105b0573d6000803e3d6000fd5b505050506040513d601f19601f820116820180604052508101906105d49190615411565b6001600160a01b0390811660408481019190915251634941d71d60e11b81527f9876c0f0505bfb2b1c38d3bbd25ba13159172cd0868972d76927723f5a9480fc600482015290891690639283ae3a9060240160206040518083038186803b15801561063e57600080fd5b505afa158015610652573d6000803e3d6000fd5b505050506040513d601f19601f8201168201806040525081019061067691906157bb565b6106809042615e16565b60808301526040808301519051634941d71d60e11b81527f02a3530cbb6e7c084516c86f68bd62c3e3fcd783c6c5d7e138616207f7a3225060048201526001600160a01b0391821691633a844ec0918b91821690639283ae3a9060240160206040518083038186803b1580156106f557600080fd5b505afa158015610709573d6000803e3d6000fd5b505050506040513d601f19601f8201168201806040525081019061072d91906157bb565b856080015161073c9190615e16565b6040516001600160e01b031960e085901b1681526001600160a01b039092166004830152602482015260440160206040518083038186803b15801561078057600080fd5b505afa158015610794573d6000803e3d6000fd5b505050506040513d601f19601f820116820180604052508101906107b89190615569565b1561082b5760405162461bcd60e51b815260206004820152603160248201527f46756e64696e673a3a7374617274566f74696e6750726f636573733a3a6d656560448201527f7420726564656d70746520706572696f6400000000000000000000000000000060648201526084016102f4565b60006005820154600160a01b900460ff16600481111561085b57634e487b7160e01b600052602160045260246000fd5b146108ce5760405162461bcd60e51b815260206004820152603960248201527f46756e64696e673a3a7374617274566f74696e6750726f636573733a3a70726f60448201527f706f73616c207374617465206e6f74207361746973666965640000000000000060648201526084016102f4565b6001600160a01b03881660009081526003602052604090206108ef906127be565b50600281015460408084015190517f68abb5e00000000000000000000000000000000000000000000000000000000081526001600160a01b038b81166004830152909116906368abb5e09060240160206040518083038186803b15801561095557600080fd5b505afa158015610969573d6000803e3d6000fd5b505050506040513d601f19601f8201168201806040525081019061098d91906157bb565b10156109b5576005810180546004919060ff60a01b1916600160a01b835b0217905550610bb1565b600d81015460ff1615610bb157600f810154600d820154600e8301546109f2928b926001600160a01b03918216926101009091049091169061287b565b151560a08301819052610a1b576005810180546004919060ff60a01b1916600160a01b836109ab565b600e8101546001600160a01b0389811660008181526001602090815260408083208d84528252808320600f880154909516835293905282902092909255516317ba7d8560e01b81527fd3999c37f8f35da86f802a74f9bf032c4aeb46e49abd9c861f489ef4cb40d0a860048201526317ba7d859060240160206040518083038186803b158015610aaa57600080fd5b505afa158015610abe573d6000803e3d6000fd5b505050506040513d601f19601f82011682018060405250810190610ae29190615411565b6001600160a01b031660c08301819052604080516020810182526000815290517f26078cd00000000000000000000000000000000000000000000000000000000081526326078cd091610b3e918c918c91429190600401615afb565b600060405180830381600087803b158015610b5857600080fd5b505af1158015610b6c573d6000803e3d6000fd5b50504260128401555050608082015160138201556001600160a01b038816600090815260026020526040902087905560058101805460ff60a01b1916600160a01b1790555b604080516001600160a01b038a168152602081018990527f753eb58faf3992b1f62f6c6a4234abd516596fe79423b146e2300a3291b4f7d3910160405180910390a160019550505050610c048282612cbe565b505092915050565b6001600160a01b038116600090815260036020526040812054600f81810b810b600160801b909204810b900b1315610c65576001600160a01b0382166000908152600360205260409020610c5f90612747565b92915050565b506000919050565b919050565b8143816001600160a01b031663b21634826040518163ffffffff1660e01b815260040160206040518083038186803b158015610cad57600080fd5b505afa158015610cc1573d6000803e3d6000fd5b505050506040513d601f19601f82011682018060405250810190610ce591906157bb565b1415610d335760405162461bcd60e51b815260206004820152601060248201527f7265656e7472616e63792067756172640000000000000000000000000000000060448201526064016102f4565b806001600160a01b03166310fdb0a26040518163ffffffff1660e01b8152600401600060405180830381600087803b158015610d6e57600080fd5b505af1158015610d82573d6000803e3d6000fd5b5050505082610d9081612cc9565b6001600160a01b0316336001600160a01b031614610dad57600080fd5b82600560006101000a8154816001600160a01b0302191690836001600160a01b0316021790555050806001600160a01b031663d4f7af436040518163ffffffff1660e01b8152600401600060405180830381600087803b158015610e1057600080fd5b505af1158015610e24573d6000803e3d6000fd5b50505050505050565b600060208181529281526040808220909352908152819020805460018201546002830154600384015460048501546005860154875160e081019098526006870180546001600160a01b03978816999698959794969385169594831694600160a01b90930460ff1693919082908290610ea490615ea4565b80601f0160208091040260200160405190810160405280929190818152602001828054610ed090615ea4565b8015610f1d5780601f10610ef257610100808354040283529160200191610f1d565b820191906000526020600020905b815481529060010190602001808311610f0057829003601f168201915b50505050508152602001600182018054610f3690615ea4565b80601f0160208091040260200160405190810160405280929190818152602001828054610f6290615ea4565b8015610faf5780601f10610f8457610100808354040283529160200191610faf565b820191906000526020600020905b815481529060010190602001808311610f9257829003601f168201915b5050509183525050600282015460208083019190915260038301546040808401919091526004840154606080850191909152600585015460808086019190915260069095015460a094850152815160c081018352600d88015460ff808216151583526001600160a01b03610100909204821683870152600e8a015483860152600f8a015480831684860152600160a01b900416151582880152601089015416948101949094528151948501825260118701548552601287015492850192909252601386015490840152601490940154938201939093529091908a565b60008260006110998261239a565b90506110f8604080516101608101825260008082526020820181905291810182905260608101829052906080820190815260006020820181905260408201819052606082018190526080820181905260a0820181905260c09091015290565b6001600160a01b0386166000908152600260205260409020548082521561118f578051851461118f5760405162461bcd60e51b815260206004820152602b60248201527f46756e64696e673a3a70726f6365737350726f706f73616c3a3a696e76616c6960448201527f64207072706f73616c496400000000000000000000000000000000000000000060648201526084016102f4565b6001600160a01b0386166000908152602081815260408083208884529091529020601381015442116112295760405162461bcd60e51b815260206004820152603360248201527f46756e64696e673a3a70726f6365737350726f706f73616c3a3a70726f706f7360448201527f616c20696e20766f74696e6720706572696f640000000000000000000000000060648201526084016102f4565b60026005820154600160a01b900460ff16600481111561125957634e487b7160e01b600052602160045260246000fd5b14156112cd5760405162461bcd60e51b815260206004820152603e60248201527f46756e64696e673a3a70726f6365737350726f706f73616c3a3a70726f706f7360448201527f616c20616c726561647920696e20657865637574652070726f6772657373000060648201526084016102f4565b6040517f30490e91000000000000000000000000000000000000000000000000000000008152600481018790526001600160a01b038816906330490e9190602401600060405180830381600087803b15801561132857600080fd5b505af115801561133c573d6000803e3d6000fd5b5050604051632c9f4b5b60e11b81527f161fca6912f107b0f13c9c7275de7391b32d2ea1c52ffba65a3c961880a0c60f60048201526001600160a01b038a16925063593e96b6915060240160206040518083038186803b15801561139f57600080fd5b505afa1580156113b3573d6000803e3d6000fd5b505050506040513d601f19601f820116820180604052508101906113d79190615411565b6001600160a01b0390811660608401526040517f40de703e00000000000000000000000000000000000000000000000000000000815260048101889052908816906340de703e9060240160206040518083038186803b15801561143957600080fd5b505afa15801561144d573d6000803e3d6000fd5b505050506040513d601f19601f820116820180604052508101906114719190615411565b6001600160a01b0316602083018190526114f35760405162461bcd60e51b815260206004820152602b60248201527f46756e64696e673a3a70726f6365737350726f706f73616c3a3a61646170746560448201527f72206e6f7420666f756e6400000000000000000000000000000000000000000060648201526084016102f4565b6114fd8787612dac565b6fffffffffffffffffffffffffffffffff1660e083015260208201516040517f76225e730000000000000000000000000000000000000000000000000000000081526001600160a01b03898116600483015260248201899052909116906376225e739060440160606040518083038186803b15801561157b57600080fd5b505afa15801561158f573d6000803e3d6000fd5b505050506040513d601f19601f820116820180604052508101906115b39190615665565b6fffffffffffffffffffffffffffffffff80821660c0870152821660a0860152608085018360058111156115f757634e487b7160e01b600052602160045260246000fd5b600581111561161657634e487b7160e01b600052602160045260246000fd5b905250600291506116249050565b8260800151600581111561164857634e487b7160e01b600052602160045260246000fd5b1415611aee576005810180547402000000000000000000000000000000000000000060ff60a01b199091161790556001600160a01b03871660008181526002602052604090819020889055516317ba7d8560e01b81527faaff643bdbd909f604d46ce015336f7e20fee3ac4a55cef3610188dee176c89260048201526317ba7d859060240160206040518083038186803b1580156116e557600080fd5b505afa1580156116f9573d6000803e3d6000fd5b505050506040513d601f19601f8201168201806040525081019061171d9190615411565b6001600160a01b0390811660408481019190915251634941d71d60e11b81527f11618fa890234170104debf73b2563b667bd200bac1d7d8dd024e2f3fadaefd26004820152670de0b6b3a764000091891690639283ae3a9060240160206040518083038186803b15801561179057600080fd5b505afa1580156117a4573d6000803e3d6000fd5b505050506040513d601f19601f820116820180604052508101906117c891906157bb565b82600201546117d79190615e42565b6117e19190615e2e565b82610120018181525050670de0b6b3a764000082604001516001600160a01b031663b0e21e8a6040518163ffffffff1660e01b815260040160206040518083038186803b15801561183157600080fd5b505afa158015611845573d6000803e3d6000fd5b505050506040513d601f19601f8201168201806040525081019061186991906157bb565b82600201546118789190615e42565b6118829190615e2e565b610100830152604051634941d71d60e11b81527f66ed99f9a48fc961fffd6425cceb65d9444f5bda8af3bc46d14fd6b5a844fde56004820152670de0b6b3a7640000906001600160a01b03891690639283ae3a9060240160206040518083038186803b1580156118f157600080fd5b505afa158015611905573d6000803e3d6000fd5b505050506040513d601f19601f8201168201806040525081019061192991906157bb565b82600201546119389190615e42565b6119429190615e2e565b82610140018181525050806002015482606001516001600160a01b03166318160ddd6040518163ffffffff1660e01b815260040160206040518083038186803b15801561198e57600080fd5b505afa1580156119a2573d6000803e3d6000fd5b505050506040513d601f19601f820116820180604052508101906119c691906157bb565b10156119ee576005810180546004919060ff60a01b1916600160a01b835b0217905550611bd2565b60048101546001820154611a0f9189916001600160a01b03909116906130d8565b61012082015115611a2957611a2987836101200151613262565b611a3887836101000151613460565b61014082015115611a65576005810154610140830151611a659189916001600160a01b03909116906130d8565b600d81015460ff1615611ab257611a7c878761355a565b6001600160a01b0380881660009081526001602090815260408083208a8452825280832060048601549094168352929052908120555b611ad28782600101548461010001518561012001518661014001516136ef565b6005810180546003919060ff60a01b1916600160a01b836119e4565b600382608001516005811115611b1457634e487b7160e01b600052602160045260246000fd5b1480611b435750600182608001516005811115611b4157634e487b7160e01b600052602160045260246000fd5b145b15611b64576005810180546003919060ff60a01b1916600160a01b836119e4565b60405162461bcd60e51b815260206004820152602e60248201527f46756e64696e673a3a70726f6365737350726f706f73616c3a3a766f74696e6760448201527f206e6f742066696e616c697a656400000000000000000000000000000000000060648201526084016102f4565b4260148201556001600160a01b03871660008181526002602090815260408083209290925560e085015160a08087015160c088015185519687529386018c90526fffffffffffffffffffffffffffffffff92831686860152821660608601529116608084015290517f8753b7ee1e31d393ee5726ed44f58ae8f298f63903fa4de5592dc5b3f3562b719281900390910190a1600194505050610c048282612cbe565b6001600160a01b038116600090815260036020526040812054600f81810b810b600160801b909204810b900b1315610c65576001600160a01b038216600090815260036020526040902054600f81810b810b600160801b909204810b900b03610c5f565b81611ce38133612665565b826000611cef8261239a565b9050611d766040518061018001604052806000801916815260200160006001600160a01b0316815260200160006001600160a01b0316815260200160006001600160a01b0316815260200160008019168152602001600081526020016000815260200160008152602001600081526020016000815260200160008152602001600081525090565b611ddf6040518060400160405280600881526020017f46756e64696e6723000000000000000000000000000000000000000000000000815250611dba600454613891565b604051602001611dcb929190615907565b6040516020818303038152906040526139df565b608082018190526040517fb73dc38900000000000000000000000000000000000000000000000000000000815260048101919091526001600160a01b0387169063b73dc38990602401600060405180830381600087803b158015611e4257600080fd5b505af1158015611e56573d6000803e3d6000fd5b50505050611e6a86826080015187336139fb565b60808101516040516317ba7d8560e01b81527fd3999c37f8f35da86f802a74f9bf032c4aeb46e49abd9c861f489ef4cb40d0a860048201526001600160a01b0388169163896ae9ba91339084906317ba7d859060240160206040518083038186803b158015611ed857600080fd5b505afa158015611eec573d6000803e3d6000fd5b505050506040513d601f19601f82011682018060405250810190611f109190615411565b6040516001600160e01b031960e086901b16815260048101939093526001600160a01b039182166024840152166044820152606401600060405180830381600087803b158015611f5f57600080fd5b505af1158015611f73573d6000803e3d6000fd5b5050505060808101516001600160a01b0387166000908152600360205260409020611fe7918154600160801b90819004600f90810b80820b820b6000908152600180870160205260409091209490945584549301900b6fffffffffffffffffffffffffffffffff9081169091029116179055565b600160046000828254611ffa9190615e16565b90915550506080810151604080516001600160a01b038916815260208101929092527ffe22c13d0cc04eef2a813c30901da5f8cd64f5ba91866fccce71c606ce464874910160405180910390a1506120528282612cbe565b5050505050565b8160006120658261239a565b6001600160a01b03851660009081526001602090815260408083208784528252808320338452909152902054909150806121075760405162461bcd60e51b815260206004820152603960248201527f56696e7461676546756e64696e673a3a756e4c6f636b50726f6a65637454656160448201527f6d546f6b656e3a3a6e6f2066756e6420746f20756e6c6f636b0000000000000060648201526084016102f4565b6001600160a01b0385811660009081526020818152604080832088845290915290819020600d81015491516370a0823160e01b8152306004820152909261010090920490911690839082906370a082319060240160206040518083038186803b15801561217357600080fd5b505afa158015612187573d6000803e3d6000fd5b505050506040513d601f19601f820116820180604052508101906121ab91906157bb565b101561221f5760405162461bcd60e51b815260206004820152603960248201527f56696e7461676546756e64696e673a3a756e4c6f636b50726f6a65637454656160448201527f6d546f6b656e3a3a496e73756666696369656e742046756e640000000000000060648201526084016102f4565b60046005830154600160a01b900460ff16600481111561224f57634e487b7160e01b600052602160045260246000fd5b146122c25760405162461bcd60e51b815260206004820152603560248201527f56696e7461676546756e64696e673a3a756e4c6f636b50726f6a65637454656160448201527f6d546f6b656e3a3a6e6f7420736174697366696564000000000000000000000060648201526084016102f4565b6001600160a01b0387811660009081526001602090815260408083208a845282528083203380855292528083209290925590517fa9059cbb0000000000000000000000000000000000000000000000000000000081526004810191909152602481018590529082169063a9059cbb90604401602060405180830381600087803b15801561234e57600080fd5b505af1158015612362573d6000803e3d6000fd5b505050506040513d601f19601f820116820180604052508101906123869190615569565b505050506123948282612cbe565b50505050565b6040805160808101825260008082526020820181905291810182905260608101919091525a81600001818152505043826001600160a01b031663b21634826040518163ffffffff1660e01b815260040160206040518083038186803b15801561240257600080fd5b505afa158015612416573d6000803e3d6000fd5b505050506040513d601f19601f8201168201806040525081019061243a91906157bb565b14156124885760405162461bcd60e51b815260206004820152601060248201527f7265656e7472616e63792067756172640000000000000000000000000000000060448201526064016102f4565b816001600160a01b03166310fdb0a26040518163ffffffff1660e01b8152600401600060405180830381600087803b1580156124c357600080fd5b505af11580156124d7573d6000803e3d6000fd5b50506040517f72c6838f0000000000000000000000000000000000000000000000000000000081527f1f2fd42ad6a6cacd573c4b212beb7a4e2499ad45d742a65337097f130e71daff6004820152600092506001600160a01b03851691506372c6838f9060240160206040518083038186803b15801561255657600080fd5b505afa15801561256a573d6000803e3d6000fd5b505050506040513d601f19601f8201168201806040525081019061258e9190615411565b90506001600160a01b0381166125aa576000602083015261265f565b6001600160a01b038181166060840181905283516040517f43a8a3f1000000000000000000000000000000000000000000000000000000008152928616600484015260248301526000918291906343a8a3f190604401604080518083038186803b15801561261757600080fd5b505afa15801561262b573d6000803e3d6000fd5b505050506040513d601f19601f8201168201806040525081019061264f9190615585565b9015156020860152604085015250505b50919050565b6040517fa230c5240000000000000000000000000000000000000000000000000000000081526001600160a01b03828116600483015283169063a230c5249060240160206040518083038186803b1580156126bf57600080fd5b505afa1580156126d3573d6000803e3d6000fd5b505050506040513d601f19601f820116820180604052508101906126f79190615569565b6127435760405162461bcd60e51b815260206004820152600a60248201527f6f6e6c795261697365720000000000000000000000000000000000000000000060448201526064016102f4565b5050565b60006127668254600f81810b810b600160801b909204810b900b131590565b1561279d576040517f3db2a12a00000000000000000000000000000000000000000000000000000000815260040160405180910390fd5b508054600f90810b810b900b60009081526001909101602052604090205490565b60006127dd8254600f81810b810b600160801b909204810b900b131590565b15612814576040517f3db2a12a00000000000000000000000000000000000000000000000000000000815260040160405180910390fd5b508054600f90810b80820b820b600090815260018085016020526040822080549290558454920190920b6fffffffffffffffffffffffffffffffff167fffffffffffffffffffffffffffffffff000000000000000000000000000000009091161790915590565b6040516370a0823160e01b81526001600160a01b03848116600483015260009184918491908316906370a082319060240160206040518083038186803b1580156128c457600080fd5b505afa1580156128d8573d6000803e3d6000fd5b505050506040513d601f19601f820116820180604052508101906128fc91906157bb565b10806129a057506040517fdd62ed3e0000000000000000000000000000000000000000000000000000000081526001600160a01b03868116600483015230602483015284919083169063dd62ed3e9060440160206040518083038186803b15801561296657600080fd5b505afa15801561297a573d6000803e3d6000fd5b505050506040513d601f19601f8201168201806040525081019061299e91906157bb565b105b156129af576000915050612cb6565b600083826001600160a01b031663dd62ed3e308a6001600160a01b03166317ba7d857f99d271900d627893bad1d8649a7d7eb3501c339595ec52be94d222433d7556036040518263ffffffff1660e01b8152600401612a1091815260200190565b60206040518083038186803b158015612a2857600080fd5b505afa158015612a3c573d6000803e3d6000fd5b505050506040513d601f19601f82011682018060405250810190612a609190615411565b6040516001600160e01b031960e085901b1681526001600160a01b0392831660048201529116602482015260440160206040518083038186803b158015612aa657600080fd5b505afa158015612aba573d6000803e3d6000fd5b505050506040513d601f19601f82011682018060405250810190612ade91906157bb565b612ae89190615e16565b6040516317ba7d8560e01b81527f99d271900d627893bad1d8649a7d7eb3501c339595ec52be94d222433d75560360048201529091506001600160a01b038084169163095ea7b3918a16906317ba7d859060240160206040518083038186803b158015612b5457600080fd5b505afa158015612b68573d6000803e3d6000fd5b505050506040513d601f19601f82011682018060405250810190612b8c9190615411565b6040516001600160e01b031960e084901b1681526001600160a01b03909116600482015260248101849052604401602060405180830381600087803b158015612bd457600080fd5b505af1158015612be8573d6000803e3d6000fd5b505050506040513d601f19601f82011682018060405250810190612c0c9190615569565b506040517f23b872dd0000000000000000000000000000000000000000000000000000000081526001600160a01b038781166004830152306024830152604482018690528316906323b872dd90606401602060405180830381600087803b158015612c7657600080fd5b505af1158015612c8a573d6000803e3d6000fd5b505050506040513d601f19601f82011682018060405250810190612cae9190615569565b506001925050505b949350505050565b61274382823361417b565b6000816001600160a01b03166348f7f2a36040518163ffffffff1660e01b815260040160206040518083038186803b158015612d0457600080fd5b505afa158015612d18573d6000803e3d6000fd5b505050506040513d601f19601f82011682018060405250810190612d3c9190615411565b6001600160a01b0316638da5cb5b6040518163ffffffff1660e01b815260040160206040518083038186803b158015612d7457600080fd5b505afa158015612d88573d6000803e3d6000fd5b505050506040513d601f19601f82011682018060405250810190610c5f9190615411565b600080836001600160a01b031663a6f636416040518163ffffffff1660e01b815260040160006040518083038186803b158015612de857600080fd5b505afa158015612dfc573d6000803e3d6000fd5b505050506040513d6000823e601f3d908101601f19168201604052612e249190810190615499565b6040516317ba7d8560e01b81527fd3999c37f8f35da86f802a74f9bf032c4aeb46e49abd9c861f489ef4cb40d0a8600482015290915060009081906001600160a01b038716906317ba7d859060240160206040518083038186803b158015612e8b57600080fd5b505afa158015612e9f573d6000803e3d6000fd5b505050506040513d601f19601f82011682018060405250810190612ec39190615411565b905060005b83518160ff1610156130cd57816001600160a01b03166324a2cceb8888878560ff1681518110612f0857634e487b7160e01b600052603260045260246000fd5b60200260200101516040518463ffffffff1660e01b8152600401612f4c939291906001600160a01b0393841681526020810192909252909116604082015260600190565b60206040518083038186803b158015612f6457600080fd5b505afa158015612f78573d6000803e3d6000fd5b505050506040513d601f19601f82011682018060405250810190612f9c9190615569565b1561307a57816001600160a01b03166391d2fd538888878560ff1681518110612fd557634e487b7160e01b600052603260045260246000fd5b60200260200101516040518463ffffffff1660e01b8152600401613019939291906001600160a01b0393841681526020810192909252909116604082015260600190565b60206040518083038186803b15801561303157600080fd5b505afa158015613045573d6000803e3d6000fd5b505050506040513d601f19601f8201168201806040525081019061306991906157a1565b6130739084615deb565b92506130bb565b6130ae87858360ff16815181106130a157634e487b7160e01b600052603260045260246000fd5b6020026020010151614254565b6130b89084615deb565b92505b806130c581615ef4565b915050612ec8565b509095945050505050565b604051632c9f4b5b60e11b81527f161fca6912f107b0f13c9c7275de7391b32d2ea1c52ffba65a3c961880a0c60f60048201526000906001600160a01b0385169063593e96b69060240160206040518083038186803b15801561313a57600080fd5b505afa15801561314e573d6000803e3d6000fd5b505050506040513d601f19601f820116820180604052508101906131729190615411565b9050806001600160a01b031663e176b35e84836001600160a01b031663a87af66c6040518163ffffffff1660e01b815260040160206040518083038186803b1580156131bd57600080fd5b505afa1580156131d1573d6000803e3d6000fd5b505050506040513d601f19601f820116820180604052508101906131f59190615411565b6040516001600160e01b031960e085901b1681526001600160a01b0392831660048201529116602482015260448101859052606401600060405180830381600087803b15801561324457600080fd5b505af1158015613258573d6000803e3d6000fd5b5050505050505050565b604051632c9f4b5b60e11b81527f161fca6912f107b0f13c9c7275de7391b32d2ea1c52ffba65a3c961880a0c60f60048201526000906001600160a01b0384169063593e96b69060240160206040518083038186803b1580156132c457600080fd5b505afa1580156132d8573d6000803e3d6000fd5b505050506040513d601f19601f820116820180604052508101906132fc9190615411565b60405163fd310d2960e01b81527f5460409b9aa4688f80c10b29c3d7ad16025f050f472a6882a45fa7bb9bd12fb160048201529091506001600160a01b038083169163e176b35e9186169063fd310d299060240160206040518083038186803b15801561336857600080fd5b505afa15801561337c573d6000803e3d6000fd5b505050506040513d601f19601f820116820180604052508101906133a09190615411565b836001600160a01b031663a87af66c6040518163ffffffff1660e01b815260040160206040518083038186803b1580156133d957600080fd5b505afa1580156133ed573d6000803e3d6000fd5b505050506040513d601f19601f820116820180604052508101906134119190615411565b6040516001600160e01b031960e085901b1681526001600160a01b0392831660048201529116602482015260448101859052606401600060405180830381600087803b158015610e1057600080fd5b604051632c9f4b5b60e11b81527f161fca6912f107b0f13c9c7275de7391b32d2ea1c52ffba65a3c961880a0c60f60048201526000906001600160a01b0384169063593e96b69060240160206040518083038186803b1580156134c257600080fd5b505afa1580156134d6573d6000803e3d6000fd5b505050506040513d601f19601f820116820180604052508101906134fa9190615411565b9050806001600160a01b031663e176b35e600560009054906101000a90046001600160a01b0316836001600160a01b031663a87af66c6040518163ffffffff1660e01b815260040160206040518083038186803b1580156133d957600080fd5b6040516317ba7d8560e01b81527f99d271900d627893bad1d8649a7d7eb3501c339595ec52be94d222433d75560360048201526000906001600160a01b038416906317ba7d859060240160206040518083038186803b1580156135bc57600080fd5b505afa1580156135d0573d6000803e3d6000fd5b505050506040513d601f19601f820116820180604052508101906135f49190615411565b6001600160a01b03808516600090815260208181526040808320878452825291829020825160c081018452600e8201548152600882015492810192909252600981015482840152600a8101546060830152600b8101546080830152600c81015460a0830152600d810154600582015493517f24d1669d00000000000000000000000000000000000000000000000000000000815295965090949193808716936324d1669d936136b6938b9361010090910481169216908a908890600401615a99565b600060405180830381600087803b1580156136d057600080fd5b505af11580156136e4573d6000803e3d6000fd5b505050505050505050565b604051632c9f4b5b60e11b81527f161fca6912f107b0f13c9c7275de7391b32d2ea1c52ffba65a3c961880a0c60f60048201526000906001600160a01b0387169063593e96b69060240160206040518083038186803b15801561375157600080fd5b505afa158015613765573d6000803e3d6000fd5b505050506040513d601f19601f820116820180604052508101906137899190615411565b9050806001600160a01b031663c3c7645c826001600160a01b031663a87af66c6040518163ffffffff1660e01b815260040160206040518083038186803b1580156137d357600080fd5b505afa1580156137e7573d6000803e3d6000fd5b505050506040513d601f19601f8201168201806040525081019061380b9190615411565b8486613817898b615e16565b6138219190615e16565b61382b9190615e16565b6040516001600160e01b031960e085901b1681526001600160a01b0390921660048301526024820152604401600060405180830381600087803b15801561387157600080fd5b505af1158015613885573d6000803e3d6000fd5b50505050505050505050565b6060816138d157505060408051808201909152600181527f3000000000000000000000000000000000000000000000000000000000000000602082015290565b8160005b81156138fb57806138e581615ed9565b91506138f49050600a83615e2e565b91506138d5565b60008167ffffffffffffffff81111561392457634e487b7160e01b600052604160045260246000fd5b6040519080825280601f01601f19166020018201604052801561394e576020820181803683370190505b5090505b8415612cb657613963600183615e61565b9150613970600a86615f14565b61397b906030615e16565b60f81b81838151811061399e57634e487b7160e01b600052603260045260246000fd5b60200101907effffffffffffffffffffffffffffffffffffffffffffffffffffffffffffff1916908160001a9053506139d8600a86615e2e565b9450613952565b60008151600014156139f357506000919050565b506020015190565b6001600160a01b038481166000908152602081815260408083208784528252918290208251610140810184528154851681526001820154928101929092526002810154928201929092526003820154606082015260048083015484166080830152600583015493841660a0830152909260c0840191600160a01b90910460ff1690811115613a9957634e487b7160e01b600052602160045260246000fd5b6004811115613ab857634e487b7160e01b600052602160045260246000fd5b8152602001600682016040518060e0016040529081600082018054613adc90615ea4565b80601f0160208091040260200160405190810160405280929190818152602001828054613b0890615ea4565b8015613b555780601f10613b2a57610100808354040283529160200191613b55565b820191906000526020600020905b815481529060010190602001808311613b3857829003601f168201915b50505050508152602001600182018054613b6e90615ea4565b80601f0160208091040260200160405190810160405280929190818152602001828054613b9a90615ea4565b8015613be75780601f10613bbc57610100808354040283529160200191613be7565b820191906000526020600020905b815481529060010190602001808311613bca57829003601f168201915b5050509183525050600282015460208083019190915260038301546040808401919091526004840154606080850191909152600585015460808086019190915260069095015460a094850152948652805160c08082018352600d89015460ff808216151584526001600160a01b03610100909204821684870152600e8b015484860152600f8b0154808316858b0152600160a01b90041615158388015260108a0154168286015287840191909152815180860183526011890154815260128901548185015260138901548184015260149098015488870152958101969096528551610160810187528935815289830135918101919091524295810195909552600092850183905290840182905283015273__$16512e334dd70a03ec8888be6d6feca8ca$__926399a8434a9290918891908101613d28610140890189615d30565b604001358152602001613d3f610140890189615d30565b608001358152602001613d56610140890189615d30565b606001358152602001613d6d610140890189615d30565b60a001358152602001613d84610140890189615d30565b60c0908101359091526040805191820181528190613da7908a0160208b016153ee565b6001600160a01b03168152602001613dc66101008a0160e08b016153ee565b6001600160a01b03168152602001613de460a08a0160808b016153ee565b6001600160a01b03908116825288166020820152604090810190613e0e9060608b01908b016153ee565b6001600160a01b03168152602001613e2e6101408a016101208b016153ee565b6001600160a01b03169052613e496080890160608a0161554d565b613e5b6101208a016101008b0161554d565b613e696101408b018b615d30565b613e739080615cc6565b613e816101408d018d615d30565b613e8f906020810190615cc6565b6040518b63ffffffff1660e01b8152600401613eb49a99989796959493929190615b33565b60006040518083038186803b158015613ecc57600080fd5b505af4158015613ee0573d6000803e3d6000fd5b505050506040513d6000823e601f3d908101601f19168201604052613f0891908101906156ac565b6001600160a01b03808616600090815260208181526040808320888452825291829020845181549085167fffffffffffffffffffffffff0000000000000000000000000000000000000000918216178255918501516001820155918401516002830155606084015160038301556080840151600480840180549286169284169290921790915560a0850151600584018054919095169281168317855560c08601519394927fffffffffffffffffffffff0000000000000000000000000000000000000000009091161790600160a01b908490811115613ff757634e487b7160e01b600052602160045260246000fd5b021790555060e08201518051805160068401916140199183916020019061510d565b506020828101518051614032926001850192019061510d565b5060408281015160028301556060808401516003840155608080850151600485015560a080860151600586015560c090950151600690940193909355610100868101518051600d880180546020808501516001600160a01b039081169096027fffffffffffffffffffffff0000000000000000000000000000000000000000ff941515949094167fffffffffffffffffffffff000000000000000000000000000000000000000000928316179390931790915582860151600e8a015582850151600f8a018054988501511515600160a01b0298909216908516179690961790955590940151601086018054919095167fffffffffffffffffffffffff000000000000000000000000000000000000000091909116179093556101209094015180516011850155908101516012840155928301516013830155919091015160149091015550505050565b8160200151156142195781606001516001600160a01b0316635e5eb01384835a86516141a79190615e61565b60408088015190516001600160e01b031960e087901b1681526001600160a01b03948516600482015293909216602484015260448301526064820152608401600060405180830381600087803b15801561420057600080fd5b505af1158015614214573d6000803e3d6000fd5b505050505b826001600160a01b031663d4f7af436040518163ffffffff1660e01b8152600401600060405180830381600087803b158015610e1057600080fd5b6040516317ba7d8560e01b81527faaff643bdbd909f604d46ce015336f7e20fee3ac4a55cef3610188dee176c892600482015260009081906001600160a01b038516906317ba7d859060240160206040518083038186803b1580156142b857600080fd5b505afa1580156142cc573d6000803e3d6000fd5b505050506040513d601f19601f820116820180604052508101906142f09190615411565b6040516317ba7d8560e01b81527fa837e34a29b67bf52f684a1c93def79b84b9c012732becee4e5df62809df64ed60048201529091506000906001600160a01b038616906317ba7d859060240160206040518083038186803b15801561435557600080fd5b505afa158015614369573d6000803e3d6000fd5b505050506040513d601f19601f8201168201806040525081019061438d9190615411565b604051634941d71d60e11b81527ff55ead1a20a1dd054d7b08c0efdba575e59f56a221996583f70c083bb98099b060048201529091506000906001600160a01b03871690639283ae3a9060240160206040518083038186803b1580156143f257600080fd5b505afa158015614406573d6000803e3d6000fd5b505050506040513d601f19601f8201168201806040525081019061442a91906157bb565b604051634941d71d60e11b81527fb75eae231d9582c6afc6491273df4a0ffbccd48ab2c48dbce59e5d68f2d19dc460048201529091506000906001600160a01b03881690639283ae3a9060240160206040518083038186803b15801561448f57600080fd5b505afa1580156144a3573d6000803e3d6000fd5b505050506040513d601f19601f820116820180604052508101906144c791906157bb565b90508060011415614a8257604051634941d71d60e11b81527ff6242d1d39a1b19c05c52b0f7eb55673f7309c8d6b78dd23c2c385475835804860048201526000906001600160a01b03891690639283ae3a9060240160206040518083038186803b15801561453457600080fd5b505afa158015614548573d6000803e3d6000fd5b505050506040513d601f19601f8201168201806040525081019061456c91906157bb565b60405163fd310d2960e01b81527f16d062a637d36196ce6a1b18288a49d8cd909a7ba54b6e33ca16514e7412124860048201529091506000906001600160a01b038a169063fd310d299060240160206040518083038186803b1580156145d157600080fd5b505afa1580156145e5573d6000803e3d6000fd5b505050506040513d601f19601f820116820180604052508101906146099190615411565b90506000846146a8576040516370a0823160e01b81526001600160a01b038a81166004830152670de0b6b3a764000091908416906370a08231906024015b60206040518083038186803b15801561465f57600080fd5b505afa158015614673573d6000803e3d6000fd5b505050506040513d601f19601f8201168201806040525081019061469791906157bb565b6146a19190615e2e565b9050614a16565b846001141561472b576040516370a0823160e01b81526001600160a01b038a811660048301528316906370a08231906024015b60206040518083038186803b1580156146f357600080fd5b505afa158015614707573d6000803e3d6000fd5b505050506040513d601f19601f820116820180604052508101906146a191906157bb565b8460021415614780576040517efdd58e0000000000000000000000000000000000000000000000000000000081526001600160a01b038a811660048301526024820185905283169062fdd58e906044016146db565b8460031415614799576001975050505050505050610c5f565b8460041415614a065760026040517f1ee1a2b00000000000000000000000000000000000000000000000000000000081526001600160a01b038c81166004830152891690631ee1a2b09060240160206040518083038186803b1580156147fe57600080fd5b505afa158015614812573d6000803e3d6000fd5b505050506040513d601f19601f820116820180604052508101906148369190615646565b600381111561485557634e487b7160e01b600052602160045260246000fd5b1480156148f75750604051634941d71d60e11b81527f9ce69cf04065e3c7823cc5540c0598d8a694bd7a9a5a2a786d8bccf14ed6e2ea60048201526001600160a01b038b1690639283ae3a9060240160206040518083038186803b1580156148bc57600080fd5b505afa1580156148d0573d6000803e3d6000fd5b505050506040513d601f19601f820116820180604052508101906148f491906157bb565b42105b801561499757506040517f4fc0a76d0000000000000000000000000000000000000000000000000000000081526001600160a01b038b8116600483015260019190881690634fc0a76d9060240160206040518083038186803b15801561495c57600080fd5b505afa158015614970573d6000803e3d6000fd5b505050506040513d601f19601f8201168201806040525081019061499491906157bb565b10155b156149f6576040517ff7888aec0000000000000000000000000000000000000000000000000000000081526001600160a01b038b811660048301528a81166024830152670de0b6b3a7640000919089169063f7888aec90604401614647565b6001975050505050505050610c5f565b6000975050505050505050610c5f565b60008111614a2e576000975050505050505050610c5f565b677fffffffffffffff8110614a4d576032975050505050505050610c5f565b6000614a68614a63614a5e84614fdc565b614ffa565b6150f1565b67ffffffffffffffff169850610c5f975050505050505050565b8060021415614a98576001945050505050610c5f565b80614fcf57604051634941d71d60e11b81527ff6242d1d39a1b19c05c52b0f7eb55673f7309c8d6b78dd23c2c385475835804860048201526000906001600160a01b03891690639283ae3a9060240160206040518083038186803b158015614aff57600080fd5b505afa158015614b13573d6000803e3d6000fd5b505050506040513d601f19601f82011682018060405250810190614b3791906157bb565b60405163fd310d2960e01b81527f16d062a637d36196ce6a1b18288a49d8cd909a7ba54b6e33ca16514e7412124860048201529091506000906001600160a01b038a169063fd310d299060240160206040518083038186803b158015614b9c57600080fd5b505afa158015614bb0573d6000803e3d6000fd5b505050506040513d601f19601f82011682018060405250810190614bd49190615411565b9050600084614c73576040516370a0823160e01b81526001600160a01b038a81166004830152670de0b6b3a764000091908416906370a08231906024015b60206040518083038186803b158015614c2a57600080fd5b505afa158015614c3e573d6000803e3d6000fd5b505050506040513d601f19601f82011682018060405250810190614c6291906157bb565b614c6c9190615e2e565b9050614fc1565b8460011415614cf6576040516370a0823160e01b81526001600160a01b038a811660048301528316906370a08231906024015b60206040518083038186803b158015614cbe57600080fd5b505afa158015614cd2573d6000803e3d6000fd5b505050506040513d601f19601f82011682018060405250810190614c6c91906157bb565b8460021415614d4b576040517efdd58e0000000000000000000000000000000000000000000000000000000081526001600160a01b038a811660048301526024820185905283169062fdd58e90604401614ca6565b8460031415614d64576001975050505050505050610c5f565b8460041415614a065760026040517f1ee1a2b00000000000000000000000000000000000000000000000000000000081526001600160a01b038c81166004830152891690631ee1a2b09060240160206040518083038186803b158015614dc957600080fd5b505afa158015614ddd573d6000803e3d6000fd5b505050506040513d601f19601f82011682018060405250810190614e019190615646565b6003811115614e2057634e487b7160e01b600052602160045260246000fd5b148015614ec25750604051634941d71d60e11b81527f9ce69cf04065e3c7823cc5540c0598d8a694bd7a9a5a2a786d8bccf14ed6e2ea60048201526001600160a01b038b1690639283ae3a9060240160206040518083038186803b158015614e8757600080fd5b505afa158015614e9b573d6000803e3d6000fd5b505050506040513d601f19601f82011682018060405250810190614ebf91906157bb565b42105b8015614f6257506040517f4fc0a76d0000000000000000000000000000000000000000000000000000000081526001600160a01b038b8116600483015260019190881690634fc0a76d9060240160206040518083038186803b158015614f2757600080fd5b505afa158015614f3b573d6000803e3d6000fd5b505050506040513d601f19601f82011682018060405250810190614f5f91906157bb565b10155b156149f6576040517ff7888aec0000000000000000000000000000000000000000000000000000000081526001600160a01b038b811660048301528a81166024830152670de0b6b3a7640000919089169063f7888aec90604401614c12565b9650610c5f95505050505050565b6000945050505050610c5f565b6000677fffffffffffffff821115614ff357600080fd5b5060401b90565b60008082600f0b1361500b57600080fd5b6000600f83900b68010000000000000000811261502a576040918201911d5b640100000000811261503e576020918201911d5b620100008112615050576010918201911d5b6101008112615061576008918201911d5b60108112615071576004918201911d5b60048112615081576002918201911d5b60028112615090576001820191505b7fffffffffffffffffffffffffffffffffffffffffffffffffffffffffffffffc0820160401b600f85900b607f8490031b6780000000000000005b60008113156130cd5790800260ff81901c8281029390930192607f011c9060011d6150cb565b60008082600f0b121561510357600080fd5b50600f0b60401d90565b82805461511990615ea4565b90600052602060002090601f01602090048101928261513b5760008555615181565b82601f1061515457805160ff1916838001178555615181565b82800160010185558215615181579182015b82811115615181578251825591602001919060010190615166565b5061518d929150615191565b5090565b5b8082111561518d5760008155600101615192565b8051610c6d81615f6a565b805160058110610c6d57600080fd5b600082601f8301126151d0578081fd5b815167ffffffffffffffff8111156151ea576151ea615f54565b6151fd6020601f19601f84011601615dba565b818152846020838601011115615211578283fd5b612cb6826020830160208701615e78565b600060c08284031215615233578081fd5b60405160c0810181811067ffffffffffffffff8211171561525657615256615f54565b8060405250809150825161526981615f82565b8152602083015161527981615f6a565b602082015260408381015190820152606083015161529681615f6a565b606082015260808301516152a981615f82565b608082015260a08301516152bc81615f6a565b60a0919091015292915050565b6000608082840312156152da578081fd5b6040516080810181811067ffffffffffffffff821117156152fd576152fd615f54565b8060405250809150825181526020830151602082015260408301516040820152606083015160608201525092915050565b600060e0828403121561533f578081fd5b615347615d6d565b9050815167ffffffffffffffff8082111561536157600080fd5b61536d858386016151c0565b8352602084015191508082111561538357600080fd5b50615390848285016151c0565b60208301525060408201516040820152606082015160608201526080820151608082015260a082015160a082015260c082015160c082015292915050565b80516fffffffffffffffffffffffffffffffff81168114610c6d57600080fd5b6000602082840312156153ff578081fd5b813561540a81615f6a565b9392505050565b600060208284031215615422578081fd5b815161540a81615f6a565b6000806040838503121561543f578081fd5b823561544a81615f6a565b946020939093013593505050565b60008060006060848603121561546c578081fd5b833561547781615f6a565b925060208401359150604084013561548e81615f6a565b809150509250925092565b600060208083850312156154ab578182fd5b825167ffffffffffffffff808211156154c2578384fd5b818501915085601f8301126154d5578384fd5b8151818111156154e7576154e7615f54565b8060051b91506154f8848301615dba565b8181528481019084860184860187018a1015615512578788fd5b8795505b83861015615540578051945061552b85615f6a565b84835260019590950194918601918601615516565b5098975050505050505050565b60006020828403121561555e578081fd5b813561540a81615f82565b60006020828403121561557a578081fd5b815161540a81615f82565b60008060408385031215615597578182fd5b82516155a281615f82565b6020939093015192949293505050565b600080604083850312156155c4578182fd5b82356155cf81615f6a565b915060208301356155df81615f6a565b809150509250929050565b6000806040838503121561543f578182fd5b6000806040838503121561560e578182fd5b823561561981615f6a565b9150602083013567ffffffffffffffff811115615634578182fd5b830161016081860312156155df578182fd5b600060208284031215615657578081fd5b81516004811061540a578182fd5b600080600060608486031215615679578081fd5b835160068110615687578182fd5b9250615695602085016153ce565b91506156a3604085016153ce565b90509250925092565b6000602082840312156156bd578081fd5b815167ffffffffffffffff808211156156d4578283fd5b9083019061024082860312156156e8578283fd5b6156f0615d96565b6156f9836151a6565b8152602083015160208201526040830151604082015260608301516060820152615725608084016151a6565b608082015261573660a084016151a6565b60a082015261574760c084016151b1565b60c082015260e08301518281111561575d578485fd5b6157698782860161532e565b60e083015250610100915061578086838501615222565b82820152615792866101c085016152c9565b61012082015295945050505050565b6000602082840312156157b2578081fd5b61540a826153ce565b6000602082840312156157cc578081fd5b5051919050565b8060005b60068110156123945781516001600160a01b03168452602093840193909101906001016157d7565b8060005b600b811015612394578151845260209384019390910190600101615803565b6000815180845261583a816020860160208601615e78565b601f01601f19169290920160200192915050565b6005811061586c57634e487b7160e01b600052602160045260246000fd5b9052565b8183528181602085013750600080602083850101526020601f19601f840116840101905092915050565b6000815160e084526158af60e0850182615822565b9050602083015184820360208601526158c88282615822565b91505060408301516040850152606083015160608501526080830151608085015260a083015160a085015260c083015160c08501528091505092915050565b60008351615919818460208801615e78565b83519083019061592d818360208801615e78565b01949350505050565b60006102406001600160a01b03808e1684528c60208501528b60408501528a6060850152808a16608085015280891660a08501525061597860c084018861584e565b8060e0840152855160e082850152615994610320850182615822565b91505060208601517ffffffffffffffffffffffffffffffffffffffffffffffffffffffffffffffdc0848303016102608501526159d18282615822565b6040888101516102808701526060808a01516102a08801526080808b01516102c089015260a0808c01516102e08a015260c08c01516103008a01528a5115156101008a015260208b01516001600160a01b039081166101208b0152938b01516101408a0152918a015183166101608901528901511515610180880152880151166101a08601529250615a61915050565b82516101c083015260208301516101e0830152604083015161020083015260608301516102208301529b9a5050505050505050505050565b6000610140820190506001600160a01b03808816835260208188168185015281871660408501528560608501526080840191508460005b6006811015615aed57815184529282019290820190600101615ad0565b505050509695505050505050565b6001600160a01b0385168152836020820152826040820152608060608201526000615b296080830184615822565b9695505050505050565b60006102e0808352615b508184018e516001600160a01b03169052565b5060208c015161030083015260408c015161032083015260608c015161034083015260808c01516001600160a01b0390811661036084015260a08d01511661038083015260c08c0151615ba76103a084018261584e565b5060e08c01516102406103c0840152615bc461052084018261589a565b6101008e0151805115156103e086015260208101516001600160a01b039081166104008701526040820151610420870152606082015181166104408701526080820151151561046087015260a082015116610480860152909150506101208d015180516104a085015260208101516104c085015260408101516104e08501526060810151610500850152506001600160a01b038c166020840152615c6b604084018c6157ff565b615c796101a084018b6157d3565b8815156102608401528715156102808401528281036102a0840152615c9f818789615870565b90508281036102c0840152615cb5818587615870565b9d9c50505050505050505050505050565b60008083357fffffffffffffffffffffffffffffffffffffffffffffffffffffffffffffffe1843603018112615cfa578283fd5b83018035915067ffffffffffffffff821115615d14578283fd5b602001915036819003821315615d2957600080fd5b9250929050565b600082357fffffffffffffffffffffffffffffffffffffffffffffffffffffffffffffff21833603018112615d63578182fd5b9190910192915050565b60405160e0810167ffffffffffffffff81118282101715615d9057615d90615f54565b60405290565b604051610140810167ffffffffffffffff81118282101715615d9057615d90615f54565b604051601f8201601f1916810167ffffffffffffffff81118282101715615de357615de3615f54565b604052919050565b60006fffffffffffffffffffffffffffffffff80831681851680830382111561592d5761592d615f28565b60008219821115615e2957615e29615f28565b500190565b600082615e3d57615e3d615f3e565b500490565b6000816000190483118215151615615e5c57615e5c615f28565b500290565b600082821015615e7357615e73615f28565b500390565b60005b83811015615e93578181015183820152602001615e7b565b838111156123945750506000910152565b600181811c90821680615eb857607f821691505b6020821081141561265f57634e487b7160e01b600052602260045260246000fd5b6000600019821415615eed57615eed615f28565b5060010190565b600060ff821660ff811415615f0b57615f0b615f28565b60010192915050565b600082615f2357615f23615f3e565b500690565b634e487b7160e01b600052601160045260246000fd5b634e487b7160e01b600052601260045260246000fd5b634e487b7160e01b600052604160045260246000fd5b6001600160a01b0381168114615f7f57600080fd5b50565b8015158114615f7f57600080fdfea26469706673582212203e1ef4ec3fe08e99c959b0a4bbf89db705001da1f700ec83e09a3e674edf2d6a64736f6c63430008040033",
  "linkReferences": {
    "contracts/vintage/libraries/fundingLibrary.sol": {
      "FundingLibrary": [
        {
          "length": 20,
          "start": 15685
        }
      ]
    }
  },
  "deployedLinkReferences": {
    "contracts/vintage/libraries/fundingLibrary.sol": {
      "FundingLibrary": [
        {
          "length": 20,
          "start": 15609
        }
      ]
    }
  }
}