{
  "_format": "hh-sol-artifact-1",
  "contractName": "VintageRaiserManagementContract",
  "sourceName": "contracts/vintage/adapters/VintageRaiserManagement.sol",
  "abi": [
    {
      "anonymous": false,
      "inputs": [
        {
          "indexed": false,
          "internalType": "address",
          "name": "daoAddr",
          "type": "address"
        },
        {
          "indexed": false,
          "internalType": "bytes32",
          "name": "proposalId",
          "type": "bytes32"
        },
        {
          "indexed": false,
          "internalType": "address",
          "name": "account",
          "type": "address"
        },
        {
          "indexed": false,
          "internalType": "uint256",
          "name": "creationTime",
          "type": "uint256"
        },
        {
          "indexed": false,
          "internalType": "uint256",
          "name": "stopVoteTime",
          "type": "uint256"
        },
        {
          "indexed": false,
          "internalType": "enum VintageRaiserManagementContract.ProposalType",
          "name": "pType",
          "type": "uint8"
        }
      ],
      "name": "ProposalCreated",
      "type": "event"
    },
    {
      "anonymous": false,
      "inputs": [
        {
          "indexed": false,
          "internalType": "address",
          "name": "daoAddr",
          "type": "address"
        },
        {
          "indexed": false,
          "internalType": "bytes32",
          "name": "proposalId",
          "type": "bytes32"
        },
        {
          "indexed": false,
          "internalType": "enum VintageRaiserManagementContract.ProposalState",
          "name": "state",
          "type": "uint8"
        },
        {
          "indexed": false,
          "internalType": "uint256",
          "name": "voteResult",
          "type": "uint256"
        },
        {
          "indexed": false,
          "internalType": "uint128",
          "name": "allVotingWeight",
          "type": "uint128"
        },
        {
          "indexed": false,
          "internalType": "uint128",
          "name": "nbYes",
          "type": "uint128"
        },
        {
          "indexed": false,
          "internalType": "uint128",
          "name": "nbNo",
          "type": "uint128"
        }
      ],
      "name": "ProposalProcessed",
      "type": "event"
    },
    {
      "inputs": [
        {
          "internalType": "contract DaoRegistry",
          "name": "dao",
          "type": "address"
        }
      ],
      "name": "getAllRaiser",
      "outputs": [
        {
          "internalType": "address[]",
          "name": "",
          "type": "address[]"
        }
      ],
      "stateMutability": "view",
      "type": "function"
    },
    {
      "inputs": [
        {
          "internalType": "contract DaoRegistry",
          "name": "dao",
          "type": "address"
        }
      ],
      "name": "getRaiserAmount",
      "outputs": [
        {
          "internalType": "uint256",
          "name": "",
          "type": "uint256"
        }
      ],
      "stateMutability": "view",
      "type": "function"
    },
    {
      "inputs": [
        {
          "internalType": "contract DaoRegistry",
          "name": "dao",
          "type": "address"
        }
      ],
      "name": "getRaiserWhitelist",
      "outputs": [
        {
          "internalType": "address[]",
          "name": "",
          "type": "address[]"
        }
      ],
      "stateMutability": "view",
      "type": "function"
    },
    {
      "inputs": [
        {
          "internalType": "contract DaoRegistry",
          "name": "dao",
          "type": "address"
        },
        {
          "internalType": "address",
          "name": "_addr",
          "type": "address"
        }
      ],
      "name": "isActiveMember",
      "outputs": [
        {
          "internalType": "bool",
          "name": "",
          "type": "bool"
        }
      ],
      "stateMutability": "view",
      "type": "function"
    },
    {
      "inputs": [
        {
          "internalType": "contract DaoRegistry",
          "name": "dao",
          "type": "address"
        },
        {
          "internalType": "address",
          "name": "account",
          "type": "address"
        }
      ],
      "name": "isRaiserWhiteList",
      "outputs": [
        {
          "internalType": "bool",
          "name": "",
          "type": "bool"
        }
      ],
      "stateMutability": "view",
      "type": "function"
    },
    {
      "inputs": [
        {
          "internalType": "contract DaoRegistry",
          "name": "dao",
          "type": "address"
        },
        {
          "internalType": "bytes32",
          "name": "proposalId",
          "type": "bytes32"
        }
      ],
      "name": "processProposal",
      "outputs": [],
      "stateMutability": "nonpayable",
      "type": "function"
    },
    {
      "inputs": [
        {
          "internalType": "contract DaoRegistry",
          "name": "",
          "type": "address"
        },
        {
          "internalType": "bytes32",
          "name": "",
          "type": "bytes32"
        }
      ],
      "name": "proposals",
      "outputs": [
        {
          "internalType": "bytes32",
          "name": "id",
          "type": "bytes32"
        },
        {
          "internalType": "address",
          "name": "account",
          "type": "address"
        },
        {
          "internalType": "uint256",
          "name": "creationTime",
          "type": "uint256"
        },
        {
          "internalType": "uint256",
          "name": "stopVoteTime",
          "type": "uint256"
        },
        {
          "internalType": "enum VintageRaiserManagementContract.ProposalState",
          "name": "state",
          "type": "uint8"
        },
        {
          "internalType": "enum VintageRaiserManagementContract.ProposalType",
          "name": "pType",
          "type": "uint8"
        }
      ],
      "stateMutability": "view",
      "type": "function"
    },
    {
      "inputs": [
        {
          "internalType": "contract DaoRegistry",
          "name": "dao",
          "type": "address"
        }
      ],
      "name": "quit",
      "outputs": [],
      "stateMutability": "nonpayable",
      "type": "function"
    },
    {
      "inputs": [],
      "name": "raiserInProposalIds",
      "outputs": [
        {
          "internalType": "uint256",
          "name": "",
          "type": "uint256"
        }
      ],
      "stateMutability": "view",
      "type": "function"
    },
    {
      "inputs": [],
      "name": "raiserdOutProposalIds",
      "outputs": [
        {
          "internalType": "uint256",
          "name": "",
          "type": "uint256"
        }
      ],
      "stateMutability": "view",
      "type": "function"
    },
    {
      "inputs": [
        {
          "internalType": "contract DaoRegistry",
          "name": "dao",
          "type": "address"
        },
        {
          "internalType": "address",
          "name": "account",
          "type": "address"
        }
      ],
      "name": "registerRaiserWhiteList",
      "outputs": [],
      "stateMutability": "nonpayable",
      "type": "function"
    },
    {
      "inputs": [
        {
          "internalType": "contract DaoRegistry",
          "name": "dao",
          "type": "address"
        },
        {
          "internalType": "address",
          "name": "applicant",
          "type": "address"
        }
      ],
      "name": "submitRaiserInProposal",
      "outputs": [
        {
          "internalType": "bytes32",
          "name": "proposalId",
          "type": "bytes32"
        }
      ],
      "stateMutability": "nonpayable",
      "type": "function"
    },
    {
      "inputs": [
        {
          "internalType": "contract DaoRegistry",
          "name": "dao",
          "type": "address"
        },
        {
          "internalType": "address",
          "name": "applicant",
          "type": "address"
        }
      ],
      "name": "submitSteWardOutProposal",
      "outputs": [
        {
          "internalType": "bytes32",
          "name": "proposalId",
          "type": "bytes32"
        }
      ],
      "stateMutability": "nonpayable",
      "type": "function"
    }
  ],
  "bytecode": "0x60806040526001600255600160035534801561001a57600080fd5b50613dea8061002a6000396000f3fe608060405234801561001057600080fd5b50600436106100df5760003560e01c80638ecf77201161008c578063a883ec0511610066578063a883ec051461021b578063cc09d3fd1461022e578063d32b91dd14610237578063dfb9473c1461024a57600080fd5b80638ecf7720146101d55780639573167d146101e85780639624fc2f146101fb57600080fd5b80635e890d09116100bd5780635e890d091461018c5780637e3cbe811461019f5780638bb058b6146101c257600080fd5b80632e0bf27f146100e4578063544cc4e7146100f95780635cb752761461011f575b600080fd5b6100f76100f23660046138b1565b610253565b005b61010c610107366004613895565b6102ad565b6040519081526020015b60405180910390f35b61017a61012d3660046138e9565b60006020818152928152604080822090935290815220805460018201546002830154600384015460049094015492936001600160a01b039092169290919060ff8082169161010090041686565b60405161011696959493929190613b5b565b61010c61019a3660046138b1565b6102be565b6101b26101ad3660046138b1565b610e3d565b6040519015158152602001610116565b61010c6101d03660046138b1565b610e66565b6101b26101e33660046138b1565b6110ac565b6100f76101f63660046138e9565b611129565b61020e610209366004613895565b6117b6565b6040516101169190613b0e565b61020e610229366004613895565b6117da565b61010c60035481565b6100f7610245366004613895565b6117e5565b61010c60025481565b8161025e8133611938565b6001600160a01b03831660009081526001602052604090206102809083611992565b6102a8576001600160a01b03831660009081526001602052604090206102a690836119b4565b505b505050565b60006102b8826119c9565b92915050565b60008260006102cc82611ba5565b9050846102d98133611938565b604051634941d71d60e11b81527fcb1b85cff5456dffe0156522a7b50aa7e44ed692ccf353928d783aa10b41c2b66004820152869086906001600160a01b03831690639283ae3a9060240160206040518083038186803b15801561033c57600080fd5b505afa158015610350573d6000803e3d6000fd5b505050506040513d601f19601f82011682018060405250810190610374919061397a565b60011415610ba857604051634941d71d60e11b81527fc1b209168198eccc84193211efbd20aab87007db7285581e7b1e8ff3fe504fcd60048201526000906001600160a01b03841690639283ae3a9060240160206040518083038186803b1580156103de57600080fd5b505afa1580156103f2573d6000803e3d6000fd5b505050506040513d601f19601f82011682018060405250810190610416919061397a565b604051634941d71d60e11b81527fcc90045e39ac105dcebbf952dd5296ea6b2d31393f3eb9ef0a0ab3458d85d10f60048201529091506000906001600160a01b03851690639283ae3a9060240160206040518083038186803b15801561047b57600080fd5b505afa15801561048f573d6000803e3d6000fd5b505050506040513d601f19601f820116820180604052508101906104b3919061397a565b604051634941d71d60e11b81527f67bd12a003257b6f40dd27784916293c00a2b7414b0e8a8158c3aea267afcdfa60048201529091506000906001600160a01b03861690639283ae3a9060240160206040518083038186803b15801561051857600080fd5b505afa15801561052c573d6000803e3d6000fd5b505050506040513d601f19601f82011682018060405250810190610550919061397a565b604051634941d71d60e11b81527fa2169a266a000b9ed910243e4e95f23d7d383448dfa96f2cfb3cd2ba907d6ed660048201529091506000906001600160a01b03871690639283ae3a9060240160206040518083038186803b1580156105b557600080fd5b505afa1580156105c9573d6000803e3d6000fd5b505050506040513d601f19601f820116820180604052508101906105ed919061397a565b60405163fd310d2960e01b81527f24ff71fc31a6b2be78a265ecbb78906acfd30d6b24357ca298e295b93087d9ea60048201529091506000906001600160a01b0388169063fd310d299060240160206040518083038186803b15801561065257600080fd5b505afa158015610666573d6000803e3d6000fd5b505050506040513d601f19601f8201168201806040525081019061068a919061376d565b6040516317ba7d8560e01b81527faaff643bdbd909f604d46ce015336f7e20fee3ac4a55cef3610188dee176c89260048201529091506000906001600160a01b038916906317ba7d859060240160206040518083038186803b1580156106ef57600080fd5b505afa158015610703573d6000803e3d6000fd5b505050506040513d601f19601f82011682018060405250810190610727919061376d565b905085610828576040516370a0823160e01b81526001600160a01b0388811660048301528691908416906370a082319060240160206040518083038186803b15801561077257600080fd5b505afa158015610786573d6000803e3d6000fd5b505050506040513d601f19601f820116820180604052508101906107aa919061397a565b10156108235760405162461bcd60e51b815260206004820152602c60248201527f646f6e74206d656574206d696e20657263323020746f6b656e20686f6c64696e60448201527f67207265717569726d656e74000000000000000000000000000000000000000060648201526084015b60405180910390fd5b610ba1565b8560011415610921576040516370a0823160e01b81526001600160a01b0388811660048301528691908416906370a082319060240160206040518083038186803b15801561087557600080fd5b505afa158015610889573d6000803e3d6000fd5b505050506040513d601f19601f820116820180604052508101906108ad919061397a565b10156108235760405162461bcd60e51b815260206004820152602d60248201527f646f6e74206d656574206d696e2065726337323120746f6b656e20686f6c646960448201527f6e67207265717569726d656e7400000000000000000000000000000000000000606482015260840161081a565b8560021415610a1f57604051627eeac760e11b81526001600160a01b0388811660048301526024820185905286919084169062fdd58e9060440160206040518083038186803b15801561097357600080fd5b505afa158015610987573d6000803e3d6000fd5b505050506040513d601f19601f820116820180604052508101906109ab919061397a565b10156108235760405162461bcd60e51b815260206004820152602e60248201527f646f6e74206d656574206d696e206572633131353520746f6b656e20686f6c6460448201527f696e67207265717569726d656e74000000000000000000000000000000000000606482015260840161081a565b8560031415610a7e57610a328888610e3d565b6108235760405162461bcd60e51b815260206004820152601760248201527f6e6f7420696e207261697365722077686974656c697374000000000000000000604482015260640161081a565b8560041415610b5957604051633de222bb60e21b81526001600160a01b038981166004830152888116602483015285919083169063f7888aec9060440160206040518083038186803b158015610ad357600080fd5b505afa158015610ae7573d6000803e3d6000fd5b505050506040513d601f19601f82011682018060405250810190610b0b919061397a565b10156108235760405162461bcd60e51b815260206004820181905260248201527f646f6e74206d656574206d696e206465706f697374207265717569726d656e74604482015260640161081a565b60405162461bcd60e51b815260206004820152601760248201527f696e76616c6964206d656d626572736869702074797065000000000000000000604482015260640161081a565b5050505050505b60405163288c314960e21b81526001600160a01b03888116600483015289169063a230c5249060240160206040518083038186803b158015610be957600080fd5b505afa158015610bfd573d6000803e3d6000fd5b505050506040513d601f19601f82011682018060405250810190610c219190613850565b15610c6e5760405162461bcd60e51b815260206004820152601b60248201527f6170706c6963616e742069732072616973657220616c72656164790000000000604482015260640161081a565b610c7787611e70565b610cc35760405162461bcd60e51b815260206004820152601d60248201527f6170706c6963616e742069732072657365727665642061646472657373000000604482015260640161081a565b6000610cf7610cd3600254611eb4565b604051602001610ce391906139e2565b60405160208183030381529060405261200a565b604051634941d71d60e11b81527f9876c0f0505bfb2b1c38d3bbd25ba13159172cd0868972d76927723f5a9480fc600482015290915042906000906001600160a01b038c1690639283ae3a9060240160206040518083038186803b158015610d5e57600080fd5b505afa158015610d72573d6000803e3d6000fd5b505050506040513d601f19601f82011682018060405250810190610d96919061397a565b610da09083613c68565b9050610daf8b848c8585612026565b610dca8b8484604051806020016040528060008152506122a9565b600160026000828254610ddd9190613c68565b90915550506040517ffea2665062ba82dc413c7c18c28f836789917497e349b8c156ebaaae175ddabf90610e1d908d9086908e9087908790600090613a6c565b60405180910390a1505050505050610e358282612575565b505092915050565b6001600160a01b0382166000908152600160205260408120610e5f9083611992565b9392505050565b600082610e738133611938565b836000610e7f82611ba5565b60405163288c314960e21b81526001600160a01b0387811660048301529192509087169063a230c5249060240160206040518083038186803b158015610ec457600080fd5b505afa158015610ed8573d6000803e3d6000fd5b505050506040513d601f19601f82011682018060405250810190610efc9190613850565b610f485760405162461bcd60e51b815260206004820152601560248201527f6170706c6963616e742069736e74207261697365720000000000000000000000604482015260640161081a565b6000610f68610f58600354611eb4565b604051602001610ce39190613a27565b604051634941d71d60e11b81527f9876c0f0505bfb2b1c38d3bbd25ba13159172cd0868972d76927723f5a9480fc600482015290915042906000906001600160a01b038a1690639283ae3a9060240160206040518083038186803b158015610fcf57600080fd5b505afa158015610fe3573d6000803e3d6000fd5b505050506040513d601f19601f82011682018060405250810190611007919061397a565b6110119083613c68565b905061102089848a8585612580565b61103b898484604051806020016040528060008152506122a9565b60016003600082825461104e9190613c68565b90915550506040517ffea2665062ba82dc413c7c18c28f836789917497e349b8c156ebaaae175ddabf9061108e908b9086908c9087908790600190613a6c565b60405180910390a15050506110a38282612575565b50505092915050565b60405163288c314960e21b81526001600160a01b0382811660048301526000919084169063a230c5249060240160206040518083038186803b1580156110f157600080fd5b505afa158015611105573d6000803e3d6000fd5b505050506040513d601f19601f82011682018060405250810190610e5f9190613850565b81600061113582611ba5565b6001600160a01b038516600090815260208181526040808320878452909152902080549192509084146111aa5760405162461bcd60e51b815260206004820152601760248201527f70726f706f73616c20646f6573206e6f74206578697374000000000000000000604482015260640161081a565b6040517ff941f6910000000000000000000000000000000000000000000000000000000081526001600160a01b0386169063f941f691906111f2908790600290600401613b99565b60206040518083038186803b15801561120a57600080fd5b505afa15801561121e573d6000803e3d6000fd5b505050506040513d601f19601f820116820180604052508101906112429190613850565b1561128f5760405162461bcd60e51b815260206004820152601a60248201527f70726f706f73616c20616c72656164792070726f636573736564000000000000604482015260640161081a565b6040516317ba7d8560e01b81527fd3999c37f8f35da86f802a74f9bf032c4aeb46e49abd9c861f489ef4cb40d0a860048201526000906001600160a01b038716906317ba7d859060240160206040518083038186803b1580156112f157600080fd5b505afa158015611305573d6000803e3d6000fd5b505050506040513d601f19601f82011682018060405250810190611329919061376d565b90506001600160a01b0381166113815760405162461bcd60e51b815260206004820152601160248201527f61646170746572206e6f7420666f756e64000000000000000000000000000000604482015260640161081a565b6040517f76225e730000000000000000000000000000000000000000000000000000000081526001600160a01b0387811660048301526024820187905260009182918291908516906376225e7390604401606060405180830381600087803b1580156113ec57600080fd5b505af1158015611400573d6000803e3d6000fd5b505050506040513d601f19601f820116820180604052508101906114249190613933565b6040517f30490e91000000000000000000000000000000000000000000000000000000008152600481018c905292955090935091506001600160a01b038a16906330490e9190602401600060405180830381600087803b15801561148757600080fd5b505af115801561149b573d6000803e3d6000fd5b50600292506114a8915050565b8360058111156114c857634e487b7160e01b600052602160045260246000fd5b1415611658576004850180546001919060ff19168280021790555060018501546001600160a01b031660006004870154610100900460ff16600181111561151f57634e487b7160e01b600052602160045260246000fd5b141561159a576040517fdc929f4a0000000000000000000000000000000000000000000000000000000081526001600160a01b0382811660048301528b169063dc929f4a90602401600060405180830381600087803b15801561158157600080fd5b505af1158015611595573d6000803e3d6000fd5b505050505b60016004870154610100900460ff1660018111156115c857634e487b7160e01b600052602160045260246000fd5b1415611643576040517f0b1ca49a0000000000000000000000000000000000000000000000000000000081526001600160a01b0382811660048301528b1690630b1ca49a90602401600060405180830381600087803b15801561162a57600080fd5b505af115801561163e573d6000803e3d6000fd5b505050505b5060048501805460ff1916600217905561172c565b600383600581111561167a57634e487b7160e01b600052602160045260246000fd5b14806116a5575060018360058111156116a357634e487b7160e01b600052602160045260246000fd5b145b156116be5760048501805460ff1916600317905561172c565b60405162461bcd60e51b815260206004820152602260248201527f70726f706f73616c20686173206e6f74206265656e20766f746564206f6e207960448201527f6574000000000000000000000000000000000000000000000000000000000000606482015260840161081a565b60006117378a612680565b60048701549091507fe0867d363777a6ada708063230ad9d25fe940a2b5913de073948e222345816b2908b908b9060ff1687600581111561178857634e487b7160e01b600052602160045260246000fd5b85888860405161179e9796959493929190613ab1565b60405180910390a15050505050506102a68282612575565b6001600160a01b03811660009081526001602052604090206060906102b89061275c565b60606102b882612769565b806117f08133611938565b336001600160a01b0316826001600160a01b031663149acf9a6040518163ffffffff1660e01b815260040160206040518083038186803b15801561183357600080fd5b505afa158015611847573d6000803e3d6000fd5b505050506040513d601f19601f8201168201806040525081019061186b919061376d565b6001600160a01b031614156118c25760405162461bcd60e51b815260206004820152601660248201527f64616f2073756d6d6f6e6f722063616e74207175697400000000000000000000604482015260640161081a565b6040517f0b1ca49a0000000000000000000000000000000000000000000000000000000081523360048201526001600160a01b03831690630b1ca49a90602401600060405180830381600087803b15801561191c57600080fd5b505af1158015611930573d6000803e3d6000fd5b505050505050565b61194282826110ac565b61198e5760405162461bcd60e51b815260206004820152600b60248201527f6f6e6c7953746577617264000000000000000000000000000000000000000000604482015260640161081a565b5050565b6001600160a01b03811660009081526001830160205260408120541515610e5f565b6000610e5f836001600160a01b0384166127e0565b600080826001600160a01b031663c67143666040518163ffffffff1660e01b815260040160206040518083038186803b158015611a0557600080fd5b505afa158015611a19573d6000803e3d6000fd5b505050506040513d601f19601f82011682018060405250810190611a3d919061397a565b90506000805b828160ff161015611b9d576040517f9029444a00000000000000000000000000000000000000000000000000000000815260ff821660048201526001600160a01b0386169063a230c524908290639029444a9060240160206040518083038186803b158015611ab157600080fd5b505afa158015611ac5573d6000803e3d6000fd5b505050506040513d601f19601f82011682018060405250810190611ae9919061376d565b6040517fffffffff0000000000000000000000000000000000000000000000000000000060e084901b1681526001600160a01b03909116600482015260240160206040518083038186803b158015611b4057600080fd5b505afa158015611b54573d6000803e3d6000fd5b505050506040513d601f19601f82011682018060405250810190611b789190613850565b15611b8b57611b88600183613c68565b91505b80611b9581613d10565b915050611a43565b509392505050565b6040805160808101825260008082526020820181905291810182905260608101919091525a81600001818152505043826001600160a01b031663b21634826040518163ffffffff1660e01b815260040160206040518083038186803b158015611c0d57600080fd5b505afa158015611c21573d6000803e3d6000fd5b505050506040513d601f19601f82011682018060405250810190611c45919061397a565b1415611c935760405162461bcd60e51b815260206004820152601060248201527f7265656e7472616e637920677561726400000000000000000000000000000000604482015260640161081a565b816001600160a01b03166310fdb0a26040518163ffffffff1660e01b8152600401600060405180830381600087803b158015611cce57600080fd5b505af1158015611ce2573d6000803e3d6000fd5b50506040517f72c6838f0000000000000000000000000000000000000000000000000000000081527f1f2fd42ad6a6cacd573c4b212beb7a4e2499ad45d742a65337097f130e71daff6004820152600092506001600160a01b03851691506372c6838f9060240160206040518083038186803b158015611d6157600080fd5b505afa158015611d75573d6000803e3d6000fd5b505050506040513d601f19601f82011682018060405250810190611d99919061376d565b90506001600160a01b038116611db55760006020830152611e6a565b6001600160a01b038181166060840181905283516040517f43a8a3f1000000000000000000000000000000000000000000000000000000008152928616600484015260248301526000918291906343a8a3f190604401604080518083038186803b158015611e2257600080fd5b505afa158015611e36573d6000803e3d6000fd5b505050506040513d601f19601f82011682018060405250810190611e5a919061386a565b9015156020860152604085015250505b50919050565b60006001600160a01b03821661dead14801590611e9857506001600160a01b03821661babe14155b80156102b857506001600160a01b038216614bec141592915050565b606081611ef457505060408051808201909152600181527f3000000000000000000000000000000000000000000000000000000000000000602082015290565b8160005b8115611f1e5780611f0881613cd7565b9150611f179050600a83613c80565b9150611ef8565b60008167ffffffffffffffff811115611f4757634e487b7160e01b600052604160045260246000fd5b6040519080825280601f01601f191660200182016040528015611f71576020820181803683370190505b5090505b841561200257611f86600183613c94565b9150611f93600a86613d30565b611f9e906030613c68565b60f81b818381518110611fc157634e487b7160e01b600052603260045260246000fd5b60200101907effffffffffffffffffffffffffffffffffffffffffffffffffffffffffffff1916908160001a905350611ffb600a86613c80565b9450611f75565b949350505050565b600081516000141561201e57506000919050565b506020015190565b60405163288c314960e21b81526001600160a01b03848116600483015286169063a230c5249060240160206040518083038186803b15801561206757600080fd5b505afa15801561207b573d6000803e3d6000fd5b505050506040513d601f19601f8201168201806040525081019061209f9190613850565b156120ec5760405162461bcd60e51b815260206004820152600e60248201527f7261697365722065786973746564000000000000000000000000000000000000604482015260640161081a565b6040805160c0810182528581526001600160a01b038516602082015290810183905260608101829052608081016000815260200160005b90526001600160a01b038681166000908152602081815260408083208984528252918290208451815590840151600180830180547fffffffffffffffffffffffff00000000000000000000000000000000000000001692909516919091179093559083015160028201556060830151600380830191909155608084015160048301805493949193909260ff19909116919084908111156121d357634e487b7160e01b600052602160045260246000fd5b021790555060a08201516004820180547fffffffffffffffffffffffffffffffffffffffffffffffffffffffffffff00ff1661010083600181111561222857634e487b7160e01b600052602160045260246000fd5b0217905550506040517fb73dc389000000000000000000000000000000000000000000000000000000008152600481018690526001600160a01b038716915063b73dc38990602401600060405180830381600087803b15801561228a57600080fd5b505af115801561229e573d6000803e3d6000fd5b505050505050505050565b6040516317ba7d8560e01b81527fd3999c37f8f35da86f802a74f9bf032c4aeb46e49abd9c861f489ef4cb40d0a860048201526000906001600160a01b038616906317ba7d859060240160206040518083038186803b15801561230b57600080fd5b505afa15801561231f573d6000803e3d6000fd5b505050506040513d601f19601f82011682018060405250810190612343919061376d565b90506000816001600160a01b031663966917d0873086336040518563ffffffff1660e01b81526004016123799493929190613bbd565b602060405180830381600087803b15801561239357600080fd5b505af11580156123a7573d6000803e3d6000fd5b505050506040513d601f19601f820116820180604052508101906123cb919061376d565b6040516317ba7d8560e01b81527fd3999c37f8f35da86f802a74f9bf032c4aeb46e49abd9c861f489ef4cb40d0a860048201529091506001600160a01b0387169063896ae9ba908790849084906317ba7d859060240160206040518083038186803b15801561243957600080fd5b505afa15801561244d573d6000803e3d6000fd5b505050506040513d601f19601f82011682018060405250810190612471919061376d565b6040517fffffffff0000000000000000000000000000000000000000000000000000000060e086901b16815260048101939093526001600160a01b039182166024840152166044820152606401600060405180830381600087803b1580156124d857600080fd5b505af11580156124ec573d6000803e3d6000fd5b50506040517f26078cd00000000000000000000000000000000000000000000000000000000081526001600160a01b03851692506326078cd0915061253b908990899042908990600401613bfc565b600060405180830381600087803b15801561255557600080fd5b505af1158015612569573d6000803e3d6000fd5b50505050505050505050565b61198e82823361282f565b60405163288c314960e21b81526001600160a01b03848116600483015286169063a230c5249060240160206040518083038186803b1580156125c157600080fd5b505afa1580156125d5573d6000803e3d6000fd5b505050506040513d601f19601f820116820180604052508101906125f99190613850565b6126455760405162461bcd60e51b815260206004820152600b60248201527f69736e7420726169736572000000000000000000000000000000000000000000604482015260640161081a565b6040805160c0810182528581526001600160a01b03851660208201529081018390526060810182905260808101600081526020016001612123565b600080826001600160a01b031663a6f636416040518163ffffffff1660e01b815260040160006040518083038186803b1580156126bc57600080fd5b505afa1580156126d0573d6000803e3d6000fd5b505050506040513d6000823e601f3d908101601f191682016040526126f89190810190613789565b90506000805b82518160ff161015611b9d5761273e85848360ff168151811061273157634e487b7160e01b600052603260045260246000fd5b602002602001015161293d565b6127489083613c34565b91508061275481613d10565b9150506126fe565b60606000610e5f83613595565b6060816001600160a01b031663a6f636416040518163ffffffff1660e01b815260040160006040518083038186803b1580156127a457600080fd5b505afa1580156127b8573d6000803e3d6000fd5b505050506040513d6000823e601f3d908101601f191682016040526102b89190810190613789565b6000818152600183016020526040812054612827575081546001818101845560008481526020808220909301849055845484825282860190935260409020919091556102b8565b5060006102b8565b8160200151156128e55781606001516001600160a01b0316635e5eb01384835a865161285b9190613c94565b60408088015190517fffffffff0000000000000000000000000000000000000000000000000000000060e087901b1681526001600160a01b03948516600482015293909216602484015260448301526064820152608401600060405180830381600087803b1580156128cc57600080fd5b505af11580156128e0573d6000803e3d6000fd5b505050505b826001600160a01b031663d4f7af436040518163ffffffff1660e01b8152600401600060405180830381600087803b15801561292057600080fd5b505af1158015612934573d6000803e3d6000fd5b50505050505050565b604051634941d71d60e11b81527ff55ead1a20a1dd054d7b08c0efdba575e59f56a221996583f70c083bb98099b0600482015260009081906001600160a01b03851690639283ae3a9060240160206040518083038186803b1580156129a157600080fd5b505afa1580156129b5573d6000803e3d6000fd5b505050506040513d601f19601f820116820180604052508101906129d9919061397a565b604051634941d71d60e11b81527fb75eae231d9582c6afc6491273df4a0ffbccd48ab2c48dbce59e5d68f2d19dc460048201529091506000906001600160a01b03861690639283ae3a9060240160206040518083038186803b158015612a3e57600080fd5b505afa158015612a52573d6000803e3d6000fd5b505050506040513d601f19601f82011682018060405250810190612a76919061397a565b9050806001141561303957604051634941d71d60e11b81527ff6242d1d39a1b19c05c52b0f7eb55673f7309c8d6b78dd23c2c385475835804860048201526000906001600160a01b03871690639283ae3a9060240160206040518083038186803b158015612ae357600080fd5b505afa158015612af7573d6000803e3d6000fd5b505050506040513d601f19601f82011682018060405250810190612b1b919061397a565b60405163fd310d2960e01b81527f16d062a637d36196ce6a1b18288a49d8cd909a7ba54b6e33ca16514e7412124860048201529091506000906001600160a01b0388169063fd310d299060240160206040518083038186803b158015612b8057600080fd5b505afa158015612b94573d6000803e3d6000fd5b505050506040513d601f19601f82011682018060405250810190612bb8919061376d565b9050600084612c56576040516370a0823160e01b81526001600160a01b038881166004830152670de0b6b3a764000091908416906370a082319060240160206040518083038186803b158015612c0d57600080fd5b505afa158015612c21573d6000803e3d6000fd5b505050506040513d601f19601f82011682018060405250810190612c45919061397a565b612c4f9190613c80565b9050612fd3565b8460011415612cd9576040516370a0823160e01b81526001600160a01b0388811660048301528316906370a08231906024015b60206040518083038186803b158015612ca157600080fd5b505afa158015612cb5573d6000803e3d6000fd5b505050506040513d601f19601f82011682018060405250810190612c4f919061397a565b8460021415612d1557604051627eeac760e11b81526001600160a01b0388811660048301526024820185905283169062fdd58e90604401612c89565b8460031415612d2c576001955050505050506102b8565b8460041415612fc5576040516317ba7d8560e01b81527faaff643bdbd909f604d46ce015336f7e20fee3ac4a55cef3610188dee176c89260048201526000906001600160a01b038a16906317ba7d859060240160206040518083038186803b158015612d9757600080fd5b505afa158015612dab573d6000803e3d6000fd5b505050506040513d601f19601f82011682018060405250810190612dcf919061376d565b905060026040516301ee1a2b60e41b81526001600160a01b038b81166004830152831690631ee1a2b09060240160206040518083038186803b158015612e1457600080fd5b505afa158015612e28573d6000803e3d6000fd5b505050506040513d601f19601f82011682018060405250810190612e4c9190613914565b6003811115612e6b57634e487b7160e01b600052602160045260246000fd5b1480612f0e575060016040516301ee1a2b60e41b81526001600160a01b038b81166004830152831690631ee1a2b09060240160206040518083038186803b158015612eb557600080fd5b505afa158015612ec9573d6000803e3d6000fd5b505050506040513d601f19601f82011682018060405250810190612eed9190613914565b6003811115612f0c57634e487b7160e01b600052602160045260246000fd5b145b15612fb057604051633de222bb60e21b81526001600160a01b038a811660048301528981166024830152670de0b6b3a7640000919083169063f7888aec9060440160206040518083038186803b158015612f6757600080fd5b505afa158015612f7b573d6000803e3d6000fd5b505050506040513d601f19601f82011682018060405250810190612f9f919061397a565b612fa99190613c80565b9150612fbf565b600196505050505050506102b8565b50612fd3565b6000955050505050506102b8565b60008111612fe9576000955050505050506102b8565b677fffffffffffffff8110613006576032955050505050506102b8565b600061302161301c613017846135f1565b61360f565b613711565b67ffffffffffffffff1696506102b895505050505050565b806002141561304d576001925050506102b8565b8061358a57604051634941d71d60e11b81527ff6242d1d39a1b19c05c52b0f7eb55673f7309c8d6b78dd23c2c385475835804860048201526000906001600160a01b03871690639283ae3a9060240160206040518083038186803b1580156130b457600080fd5b505afa1580156130c8573d6000803e3d6000fd5b505050506040513d601f19601f820116820180604052508101906130ec919061397a565b60405163fd310d2960e01b81527f16d062a637d36196ce6a1b18288a49d8cd909a7ba54b6e33ca16514e7412124860048201529091506000906001600160a01b0388169063fd310d299060240160206040518083038186803b15801561315157600080fd5b505afa158015613165573d6000803e3d6000fd5b505050506040513d601f19601f82011682018060405250810190613189919061376d565b9050600084613227576040516370a0823160e01b81526001600160a01b038881166004830152670de0b6b3a764000091908416906370a082319060240160206040518083038186803b1580156131de57600080fd5b505afa1580156131f2573d6000803e3d6000fd5b505050506040513d601f19601f82011682018060405250810190613216919061397a565b6132209190613c80565b905061357e565b84600114156132aa576040516370a0823160e01b81526001600160a01b0388811660048301528316906370a08231906024015b60206040518083038186803b15801561327257600080fd5b505afa158015613286573d6000803e3d6000fd5b505050506040513d601f19601f82011682018060405250810190613220919061397a565b84600214156132e657604051627eeac760e11b81526001600160a01b0388811660048301526024820185905283169062fdd58e9060440161325a565b84600314156132fd576001955050505050506102b8565b8460041415612fc5576040516317ba7d8560e01b81527faaff643bdbd909f604d46ce015336f7e20fee3ac4a55cef3610188dee176c89260048201526000906001600160a01b038a16906317ba7d859060240160206040518083038186803b15801561336857600080fd5b505afa15801561337c573d6000803e3d6000fd5b505050506040513d601f19601f820116820180604052508101906133a0919061376d565b905060026040516301ee1a2b60e41b81526001600160a01b038b81166004830152831690631ee1a2b09060240160206040518083038186803b1580156133e557600080fd5b505afa1580156133f9573d6000803e3d6000fd5b505050506040513d601f19601f8201168201806040525081019061341d9190613914565b600381111561343c57634e487b7160e01b600052602160045260246000fd5b14806134df575060016040516301ee1a2b60e41b81526001600160a01b038b81166004830152831690631ee1a2b09060240160206040518083038186803b15801561348657600080fd5b505afa15801561349a573d6000803e3d6000fd5b505050506040513d601f19601f820116820180604052508101906134be9190613914565b60038111156134dd57634e487b7160e01b600052602160045260246000fd5b145b15612fb057604051633de222bb60e21b81526001600160a01b038a811660048301528981166024830152670de0b6b3a7640000919083169063f7888aec9060440160206040518083038186803b15801561353857600080fd5b505afa15801561354c573d6000803e3d6000fd5b505050506040513d601f19601f82011682018060405250810190613570919061397a565b61357a9190613c80565b9150505b94506102b89350505050565b6000925050506102b8565b6060816000018054806020026020016040519081016040528092919081815260200182805480156135e557602002820191906000526020600020905b8154815260200190600101908083116135d1575b50505050509050919050565b6000677fffffffffffffff82111561360857600080fd5b5060401b90565b60008082600f0b1361362057600080fd5b6000600f83900b68010000000000000000811261363f576040918201911d5b6401000000008112613653576020918201911d5b620100008112613665576010918201911d5b6101008112613676576008918201911d5b60108112613686576004918201911d5b60048112613696576002918201911d5b600281126136a5576001820191505b7fffffffffffffffffffffffffffffffffffffffffffffffffffffffffffffffc0820160401b600f85900b607f8490031b6780000000000000005b60008113156137065790800260ff81901c8281029390930192607f011c9060011d6136e0565b509095945050505050565b60008082600f0b121561372357600080fd5b50600f0b60401d90565b805161373881613d9c565b919050565b8051801515811461373857600080fd5b80516fffffffffffffffffffffffffffffffff8116811461373857600080fd5b60006020828403121561377e578081fd5b8151610e5f81613d9c565b6000602080838503121561379b578182fd5b825167ffffffffffffffff808211156137b2578384fd5b818501915085601f8301126137c5578384fd5b8151818111156137d7576137d7613d86565b8060051b604051601f19603f830116810181811085821117156137fc576137fc613d86565b604052828152858101935084860182860187018a101561381a578788fd5b8795505b838610156138435761382f8161372d565b85526001959095019493860193860161381e565b5098975050505050505050565b600060208284031215613861578081fd5b610e5f8261373d565b6000806040838503121561387c578081fd5b6138858361373d565b9150602083015190509250929050565b6000602082840312156138a6578081fd5b8135610e5f81613d9c565b600080604083850312156138c3578182fd5b82356138ce81613d9c565b915060208301356138de81613d9c565b809150509250929050565b600080604083850312156138fb578182fd5b823561390681613d9c565b946020939093013593505050565b600060208284031215613925578081fd5b815160048110610e5f578182fd5b600080600060608486031215613947578081fd5b835160068110613955578182fd5b92506139636020850161374d565b91506139716040850161374d565b90509250925092565b60006020828403121561398b578081fd5b5051919050565b600081518084526139aa816020860160208601613cab565b601f01601f19169290920160200192915050565b600481106139ce576139ce613d70565b9052565b600281106139ce576139ce613d70565b7f476f7665726e6f722d496e230000000000000000000000000000000000000000815260008251613a1a81600c850160208701613cab565b91909101600c0192915050565b7f476f7665726e6f722d4f75742300000000000000000000000000000000000000815260008251613a5f81600d850160208701613cab565b91909101600d0192915050565b6001600160a01b0387811682526020820187905285166040820152606081018490526080810183905260c08101613aa660a08301846139d2565b979650505050505050565b6001600160a01b03881681526020810187905260e08101613ad560408301886139be565b60608201959095526fffffffffffffffffffffffffffffffff938416608082015291831660a083015290911660c0909101529392505050565b6020808252825182820181905260009190848201906040850190845b81811015613b4f5783516001600160a01b031683529284019291840191600101613b2a565b50909695505050505050565b8681526001600160a01b0386166020820152604081018590526060810184905260c08101613b8c60808301856139be565b613aa660a08301846139d2565b8281526040810160038310613bb057613bb0613d70565b8260208301529392505050565b60006001600160a01b038087168352808616602084015260806040840152613be86080840186613992565b915080841660608401525095945050505050565b6001600160a01b0385168152836020820152826040820152608060608201526000613c2a6080830184613992565b9695505050505050565b60006fffffffffffffffffffffffffffffffff808316818516808303821115613c5f57613c5f613d44565b01949350505050565b60008219821115613c7b57613c7b613d44565b500190565b600082613c8f57613c8f613d5a565b500490565b600082821015613ca657613ca6613d44565b500390565b60005b83811015613cc6578181015183820152602001613cae565b838111156102a65750506000910152565b60007fffffffffffffffffffffffffffffffffffffffffffffffffffffffffffffffff821415613d0957613d09613d44565b5060010190565b600060ff821660ff811415613d2757613d27613d44565b60010192915050565b600082613d3f57613d3f613d5a565b500690565b634e487b7160e01b600052601160045260246000fd5b634e487b7160e01b600052601260045260246000fd5b634e487b7160e01b600052602160045260246000fd5b634e487b7160e01b600052604160045260246000fd5b6001600160a01b0381168114613db157600080fd5b5056fea264697066735822122065fcd39199fae4ee1a85497f4639e92ca1bc752b2c3de4c59e1b4aaf938f5b2e64736f6c63430008040033",
  "linkReferences": {},
  "deployedLinkReferences": {}
}