{
  "_format": "hh-sol-artifact-1",
  "contractName": "VintageFundRaiseAdapterContract",
  "sourceName": "contracts/vintage/adapters/VintageFundRaise.sol",
  "abi": [
    {
      "inputs": [],
      "name": "InvalidParamsSetting",
      "type": "error"
    },
    {
      "anonymous": false,
      "inputs": [
        {
          "indexed": false,
          "internalType": "address",
          "name": "daoAddr",
          "type": "address"
        },
        {
          "indexed": false,
          "internalType": "bytes32",
          "name": "proposalId",
          "type": "bytes32"
        }
      ],
      "name": "ProposalCreated",
      "type": "event"
    },
    {
      "anonymous": false,
      "inputs": [
        {
          "indexed": false,
          "internalType": "address",
          "name": "daoAddr",
          "type": "address"
        },
        {
          "indexed": false,
          "internalType": "bytes32",
          "name": "proposalId",
          "type": "bytes32"
        },
        {
          "indexed": false,
          "internalType": "enum IVintageFundRaise.ProposalState",
          "name": "state",
          "type": "uint8"
        },
        {
          "indexed": false,
          "internalType": "uint128",
          "name": "allVotingWeight",
          "type": "uint128"
        },
        {
          "indexed": false,
          "internalType": "uint128",
          "name": "nbYes",
          "type": "uint128"
        },
        {
          "indexed": false,
          "internalType": "uint128",
          "name": "nbNo",
          "type": "uint128"
        },
        {
          "indexed": false,
          "internalType": "uint256",
          "name": "voteResult",
          "type": "uint256"
        }
      ],
      "name": "proposalExecuted",
      "type": "event"
    },
    {
      "inputs": [
        {
          "internalType": "address",
          "name": "",
          "type": "address"
        },
        {
          "internalType": "bytes32",
          "name": "",
          "type": "bytes32"
        }
      ],
      "name": "Proposals",
      "outputs": [
        {
          "internalType": "address",
          "name": "acceptTokenAddr",
          "type": "address"
        },
        {
          "internalType": "uint256",
          "name": "fundRaiseTarget",
          "type": "uint256"
        },
        {
          "internalType": "uint256",
          "name": "fundRaiseMaxAmount",
          "type": "uint256"
        },
        {
          "internalType": "uint256",
          "name": "lpMinDepositAmount",
          "type": "uint256"
        },
        {
          "internalType": "uint256",
          "name": "lpMaxDepositAmount",
          "type": "uint256"
        },
        {
          "components": [
            {
              "internalType": "uint256",
              "name": "fundRaiseStartTime",
              "type": "uint256"
            },
            {
              "internalType": "uint256",
              "name": "fundRaiseEndTime",
              "type": "uint256"
            },
            {
              "internalType": "uint256",
              "name": "fundTerm",
              "type": "uint256"
            },
            {
              "internalType": "uint256",
              "name": "redemptPeriod",
              "type": "uint256"
            },
            {
              "internalType": "uint256",
              "name": "redemptDuration",
              "type": "uint256"
            },
            {
              "internalType": "uint256",
              "name": "returnDuration",
              "type": "uint256"
            }
          ],
          "internalType": "struct IVintageFundRaise.FundRiaseTimeInfo",
          "name": "timesInfo",
          "type": "tuple"
        },
        {
          "components": [
            {
              "internalType": "uint256",
              "name": "managementFeeRatio",
              "type": "uint256"
            },
            {
              "internalType": "uint256",
              "name": "redepmtFeeRatio",
              "type": "uint256"
            },
            {
              "internalType": "uint256",
              "name": "protocolFeeRatio",
              "type": "uint256"
            },
            {
              "internalType": "address",
              "name": "managementFeeAddress",
              "type": "address"
            }
          ],
          "internalType": "struct IVintageFundRaise.FundRaiseRewardAndFeeInfo",
          "name": "feeInfo",
          "type": "tuple"
        },
        {
          "components": [
            {
              "internalType": "uint256",
              "name": "fundFromInverstor",
              "type": "uint256"
            },
            {
              "internalType": "uint256",
              "name": "projectTokenFromInvestor",
              "type": "uint256"
            }
          ],
          "internalType": "struct IVintageFundRaise.ProoserReward",
          "name": "proposerReward",
          "type": "tuple"
        },
        {
          "internalType": "enum IVintageFundRaise.ProposalState",
          "name": "state",
          "type": "uint8"
        },
        {
          "internalType": "uint256",
          "name": "creationTime",
          "type": "uint256"
        },
        {
          "internalType": "uint256",
          "name": "stopVoteTime",
          "type": "uint256"
        }
      ],
      "stateMutability": "view",
      "type": "function"
    },
    {
      "inputs": [
        {
          "internalType": "address",
          "name": "",
          "type": "address"
        }
      ],
      "name": "createdFundCounter",
      "outputs": [
        {
          "internalType": "uint256",
          "name": "",
          "type": "uint256"
        }
      ],
      "stateMutability": "view",
      "type": "function"
    },
    {
      "inputs": [
        {
          "internalType": "address",
          "name": "",
          "type": "address"
        }
      ],
      "name": "lastProposalIds",
      "outputs": [
        {
          "internalType": "bytes32",
          "name": "",
          "type": "bytes32"
        }
      ],
      "stateMutability": "view",
      "type": "function"
    },
    {
      "inputs": [
        {
          "internalType": "contract DaoRegistry",
          "name": "dao",
          "type": "address"
        },
        {
          "internalType": "bytes32",
          "name": "proposalId",
          "type": "bytes32"
        }
      ],
      "name": "processProposal",
      "outputs": [],
      "stateMutability": "nonpayable",
      "type": "function"
    },
    {
      "inputs": [],
      "name": "proposalIds",
      "outputs": [
        {
          "internalType": "uint256",
          "name": "",
          "type": "uint256"
        }
      ],
      "stateMutability": "view",
      "type": "function"
    },
    {
      "inputs": [
        {
          "components": [
            {
              "internalType": "contract DaoRegistry",
              "name": "dao",
              "type": "address"
            },
            {
              "components": [
                {
                  "internalType": "uint256",
                  "name": "fundRaiseMinTarget",
                  "type": "uint256"
                },
                {
                  "internalType": "uint256",
                  "name": "fundRaiseMaxCap",
                  "type": "uint256"
                },
                {
                  "internalType": "uint256",
                  "name": "lpMinDepositAmount",
                  "type": "uint256"
                },
                {
                  "internalType": "uint256",
                  "name": "lpMaxDepositAmount",
                  "type": "uint256"
                },
                {
                  "internalType": "uint8",
                  "name": "fundRaiseType",
                  "type": "uint8"
                }
              ],
              "internalType": "struct IVintageFundRaise.ProposalFundRaiseInfo",
              "name": "proposalFundRaiseInfo",
              "type": "tuple"
            },
            {
              "components": [
                {
                  "internalType": "uint256",
                  "name": "startTime",
                  "type": "uint256"
                },
                {
                  "internalType": "uint256",
                  "name": "endTime",
                  "type": "uint256"
                },
                {
                  "internalType": "uint256",
                  "name": "fundTerm",
                  "type": "uint256"
                },
                {
                  "internalType": "uint256",
                  "name": "redemptPeriod",
                  "type": "uint256"
                },
                {
                  "internalType": "uint256",
                  "name": "redemptInterval",
                  "type": "uint256"
                },
                {
                  "internalType": "uint256",
                  "name": "returnPeriod",
                  "type": "uint256"
                }
              ],
              "internalType": "struct IVintageFundRaise.ProposalTimeInfo",
              "name": "proposalTimeInfo",
              "type": "tuple"
            },
            {
              "components": [
                {
                  "internalType": "uint256",
                  "name": "managementFeeRatio",
                  "type": "uint256"
                },
                {
                  "internalType": "uint256",
                  "name": "redepmtFeeRatio",
                  "type": "uint256"
                }
              ],
              "internalType": "struct IVintageFundRaise.ProposalFeeInfo",
              "name": "proposalFeeInfo",
              "type": "tuple"
            },
            {
              "components": [
                {
                  "internalType": "address",
                  "name": "managementFeeAddress",
                  "type": "address"
                },
                {
                  "internalType": "address",
                  "name": "fundRaiseTokenAddress",
                  "type": "address"
                }
              ],
              "internalType": "struct IVintageFundRaise.ProposalAddressInfo",
              "name": "proposalAddressInfo",
              "type": "tuple"
            },
            {
              "components": [
                {
                  "internalType": "uint256",
                  "name": "fundFromInverstor",
                  "type": "uint256"
                },
                {
                  "internalType": "uint256",
                  "name": "projectTokenFromInvestor",
                  "type": "uint256"
                }
              ],
              "internalType": "struct IVintageFundRaise.ProoserReward",
              "name": "proposerReward",
              "type": "tuple"
            }
          ],
          "internalType": "struct IVintageFundRaise.ProposalParams",
          "name": "params",
          "type": "tuple"
        }
      ],
      "name": "submitProposal",
      "outputs": [],
      "stateMutability": "nonpayable",
      "type": "function"
    }
  ],
  "bytecode": "0x60806040526001805534801561001457600080fd5b506140fe806100246000396000f3fe608060405234801561001057600080fd5b50600436106100725760003560e01c80634fc0a76d116100505780634fc0a76d146100c85780639573167d146100e8578063bf499994146100fb57600080fd5b806301c22a3d146100775780633855d68a146100aa5780633d5af2ed146100bf575b600080fd5b610097610085366004613b17565b60036020526000908152604090205481565b6040519081526020015b60405180910390f35b6100bd6100b8366004613cf1565b610211565b005b61009760015481565b6100976100d6366004613b17565b60026020526000908152604090205481565b6100bd6100f6366004613c79565b611412565b6101fa610109366004613b56565b600060208181529281526040808220845291815281902080546001820154600283015460038401546004850154865160c081018852600587015481526006870154818a015260078701548189015260088701546060808301919091526009880154608080840191909152600a89015460a084015289519081018a52600b8901548152600c890154818c0152600d890154818b0152600e8901546001600160a01b03908116928201929092528951808b01909a52600f8901548a5260108901549a8a019a909a52601188015460128901546013909901549190971699959894979396929591949193919260ff1691908b565b6040516100a19b9a99989796959493929190613e0a565b61021e6020820182613b17565b600061022982611b06565b9050600060038161023d6020870187613b17565b6001600160a01b03166001600160a01b0316815260200190815260200160002054141580156103c35750600080806102786020870187613b17565b6001600160a01b03166001600160a01b031681526020019081526020016000206000600360008760000160208101906102b19190613b17565b6001600160a01b03166001600160a01b0316815260200190815260200160002054815260200190815260200160002060110160009054906101000a900460ff16600381111561031057634e487b7160e01b600052602160045260246000fd5b14806103c3575060016000806103296020870187613b17565b6001600160a01b03166001600160a01b031681526020019081526020016000206000600360008760000160208101906103629190613b17565b6001600160a01b03166001600160a01b0316815260200190815260200160002054815260200190815260200160002060110160009054906101000a900460ff1660038111156103c157634e487b7160e01b600052602160045260246000fd5b145b1561043b5760405162461bcd60e51b815260206004820152602360248201527f6c6173742066756e642072616973652070726f706f73616c206e6f7420636c6f60448201527f736564000000000000000000000000000000000000000000000000000000000060648201526084015b60405180910390fd5b61050e604051806102a001604052806000815260200160006001600160a01b0316815260200160006001600160a01b0316815260200160006001600160a01b0316815260200160006001600160a01b0316815260200160008019168152602001600081526020016000815260200160008152602001600081526020016000815260200160008152602001600081526020016000815260200160008152602001600081526020016000815260200160008152602001600081526020016000815260200160006001600160a01b031681525090565b61051b6020850185613b17565b604051634941d71d60e11b81527f9ce69cf04065e3c7823cc5540c0598d8a694bd7a9a5a2a786d8bccf14ed6e2ea60048201526001600160a01b039190911690639283ae3a9060240160206040518083038186803b15801561057c57600080fd5b505afa158015610590573d6000803e3d6000fd5b505050506040513d601f19601f820116820180604052508101906105b49190613d03565b81526105c36020850185613b17565b604051634941d71d60e11b81527fb0d4178853a5320a41f8c55fa6d58af06637e392beff71e66dba4e8f32c39bb860048201526001600160a01b039190911690639283ae3a9060240160206040518083038186803b15801561062457600080fd5b505afa158015610638573d6000803e3d6000fd5b505050506040513d601f19601f8201168201806040525081019061065c9190613d03565b6101e082015261066f6020850185613b17565b6040516317ba7d8560e01b81527faaff643bdbd909f604d46ce015336f7e20fee3ac4a55cef3610188dee176c89260048201526001600160a01b0391909116906317ba7d859060240160206040518083038186803b1580156106d057600080fd5b505afa1580156106e4573d6000803e3d6000fd5b505050506040513d601f19601f820116820180604052508101906107089190613b3a565b6001600160a01b031661028082018190526000906368abb5e061072e6020880188613b17565b6040516001600160e01b031960e084901b1681526001600160a01b03909116600482015260240160206040518083038186803b15801561076d57600080fd5b505afa158015610781573d6000803e3d6000fd5b505050506040513d601f19601f820116820180604052508101906107a59190613d03565b11156108195760405162461bcd60e51b815260206004820152603060248201527f46756e6452616973653a3a7375626d697450726f706f73616c3a3a706f6f6c2060448201527f62616c616e6365206d757374203d2030000000000000000000000000000000006064820152608401610432565b60006102808201516001600160a01b0316631ee1a2b061083c6020880188613b17565b6040516001600160e01b031960e084901b1681526001600160a01b03909116600482015260240160206040518083038186803b15801561087b57600080fd5b505afa15801561088f573d6000803e3d6000fd5b505050506040513d601f19601f820116820180604052508101906108b39190613c8b565b60038111156108d257634e487b7160e01b600052602160045260246000fd5b1480610994575060036102808201516001600160a01b0316631ee1a2b06108fc6020880188613b17565b6040516001600160e01b031960e084901b1681526001600160a01b03909116600482015260240160206040518083038186803b15801561093b57600080fd5b505afa15801561094f573d6000803e3d6000fd5b505050506040513d601f19601f820116820180604052508101906109739190613c8b565b600381111561099257634e487b7160e01b600052602160045260246000fd5b145b80610a70575060026102808201516001600160a01b0316631ee1a2b06109bd6020880188613b17565b6040516001600160e01b031960e084901b1681526001600160a01b03909116600482015260240160206040518083038186803b1580156109fc57600080fd5b505afa158015610a10573d6000803e3d6000fd5b505050506040513d601f19601f82011682018060405250810190610a349190613c8b565b6003811115610a5357634e487b7160e01b600052602160045260246000fd5b148015610a7057506101e08101518151610a6d9190613f92565b42115b610ae25760405162461bcd60e51b815260206004820152603e60248201527f46756e6452616973653a3a7375626d697450726f706f73616c3a3a63616e742060448201527f7375626d69742066756e642072616973652070726f706f73616c206e6f7700006064820152608401610432565b8061028001516001600160a01b031663b0e21e8a6040518163ffffffff1660e01b815260040160206040518083038186803b158015610b2057600080fd5b505afa158015610b34573d6000803e3d6000fd5b505050506040513d601f19601f82011682018060405250810190610b589190613d03565b61026082015260208401351580610b845750604084013515801590610b84575060208401356040850135105b80610b8d575060005b80610bae5750608084013515801590610bae57506060840135608085013511155b80610bbc57504260c0850135105b80610bce575060c084013560e0850135105b80610bdc5750610100840135155b80610bf05750610140840135610120850135115b80610c045750610100840135610140850135115b80610c19575061010084013561016085013510155b80610c315750670de0b6b3a764000061018085013510155b80610c3a575060005b80610c525750670de0b6b3a76400006101a085013510155b80610c5b575060005b80610c64575060005b80610c7c5750670de0b6b3a764000061020085013510155b80610c85575060005b80610c9d5750670de0b6b3a764000061022085013510155b15610cea5760405162461bcd60e51b815260206004820152600e60248201527f496e76616c696420506172616d730000000000000000000000000000000000006044820152606401610432565b610cf76020850185613b17565b6040516317ba7d8560e01b81527fd3999c37f8f35da86f802a74f9bf032c4aeb46e49abd9c861f489ef4cb40d0a860048201526001600160a01b0391909116906317ba7d859060240160206040518083038186803b158015610d5857600080fd5b505afa158015610d6c573d6000803e3d6000fd5b505050506040513d601f19601f82011682018060405250810190610d909190613b3a565b6001600160a01b0316602080830182905263966917d090610db390870187613b17565b604080516020810182526000815290516001600160e01b031960e085901b168152610de5929130913390600401613ee7565b602060405180830381600087803b158015610dff57600080fd5b505af1158015610e13573d6000803e3d6000fd5b505050506040513d601f19601f82011682018060405250810190610e379190613b3a565b6001600160a01b03166080820152600154610e7990610e5590611dd1565b604051602001610e659190613d69565b604051602081830303815290604052611f27565b60a0820152610e8b6020850185613b17565b6001600160a01b031663b73dc3898260a001516040518263ffffffff1660e01b8152600401610ebc91815260200190565b600060405180830381600087803b158015610ed657600080fd5b505af1158015610eea573d6000803e3d6000fd5b50506040805161016081019091529150819050610f0f61020087016101e08801613b17565b6001600160a01b031681526020868101358183015260408088013581840152606080890135818501526080808a013581860152825160c08082018552808c0135825260e08c0135828701526101008c0135828601526101208c0135828501526101408c0135828401526101608c013560a083810191909152870191909152835191820184526101808b013582526101a08b013594820194909452610260870151928101929092529190920191908101610fd06101e089016101c08a01613b17565b6001600160a01b031690528152604080518082018252610200880135815261022088013560208281019190915283015201600081526020014281526020018560000160208101906110219190613b17565b604051634941d71d60e11b81527f9876c0f0505bfb2b1c38d3bbd25ba13159172cd0868972d76927723f5a9480fc60048201526001600160a01b039190911690639283ae3a9060240160206040518083038186803b15801561108257600080fd5b505afa158015611096573d6000803e3d6000fd5b505050506040513d601f19601f820116820180604052508101906110ba9190613d03565b6110c49042613f92565b90526000806110d66020880188613b17565b6001600160a01b0390811682526020808301939093526040918201600090812060a080880151835290855290839020855181549084167fffffffffffffffffffffffff0000000000000000000000000000000000000000918216178255868601516001808401919091558786015160028401556060808901516003808601919091556080808b015160048701558a87015180516005880155808b01516006880155808a0151600788015580840151600888015590810151600987015590950151600a85015560c08901518051600b86015580890151600c86015596870151600d8501559590950151600e830180549190951691161790925560e08501518051600f84015590930151601082015561010084015160118201805492949193909260ff191691849081111561121957634e487b7160e01b600052602160045260246000fd5b02179055506101208201516012820155610140909101516013909101556020808201516001600160a01b0316906326078cd09061125890870187613b17565b60a0840151604080516020810182526000815290516001600160e01b031960e086901b16815261128e9392914291600401613f26565b600060405180830381600087803b1580156112a857600080fd5b505af11580156112bc573d6000803e3d6000fd5b506112ce925050506020850185613b17565b60a0820151608083015160208401516040517f896ae9ba00000000000000000000000000000000000000000000000000000000815260048101939093526001600160a01b03918216602484015281166044830152919091169063896ae9ba90606401600060405180830381600087803b15801561134a57600080fd5b505af115801561135e573d6000803e3d6000fd5b5050505060018060008282546113749190613f92565b909155505060a08101516003600061138f6020880188613b17565b6001600160a01b03168152602080820192909252604001600020919091557ffe22c13d0cc04eef2a813c30901da5f8cd64f5ba91866fccce71c606ce464874906113db90860186613b17565b60a0830151604080516001600160a01b03909316835260208301919091520160405180910390a15061140d8282611f43565b505050565b81600061141e82611b06565b90506114286139af565b6001600160a01b0385166000818152602081815260408083208884529091529081902090517f30490e91000000000000000000000000000000000000000000000000000000008152600481018790529091906330490e9190602401600060405180830381600087803b15801561149d57600080fd5b505af11580156114b1573d6000803e3d6000fd5b50506040516317ba7d8560e01b81527faaff643bdbd909f604d46ce015336f7e20fee3ac4a55cef3610188dee176c89260048201526001600160a01b03891692506317ba7d85915060240160206040518083038186803b15801561151457600080fd5b505afa158015611528573d6000803e3d6000fd5b505050506040513d601f19601f8201168201806040525081019061154c9190613b3a565b6001600160a01b0390811660608401526040517f40de703e00000000000000000000000000000000000000000000000000000000815260048101879052908716906340de703e9060240160206040518083038186803b1580156115ae57600080fd5b505afa1580156115c2573d6000803e3d6000fd5b505050506040513d601f19601f820116820180604052508101906115e69190613b3a565b6001600160a01b0316602083018190526116685760405162461bcd60e51b815260206004820152603460248201527f46756e6452616973653a3a70726f6365737350726f706f73616c3a3a766f746960448201527f6e672061646170746572206e6f7420666f756e640000000000000000000000006064820152608401610432565b60208201516040517f76225e730000000000000000000000000000000000000000000000000000000081526001600160a01b03888116600483015260248201889052909116906376225e739060440160606040518083038186803b1580156116cf57600080fd5b505afa1580156116e3573d6000803e3d6000fd5b505050506040513d601f19601f820116820180604052508101906117079190613caa565b6fffffffffffffffffffffffffffffffff80821660c0870152821660a08601526080850183600581111561174b57634e487b7160e01b600052602160045260246000fd5b600581111561176a57634e487b7160e01b600052602160045260246000fd5b905250600291506117789050565b8260800151600581111561179c57634e487b7160e01b600052602160045260246000fd5b141561198b5760118101805460ff19166001908117909155604080516101608101825283546001600160a01b0390811682528385015460208084019190915260028601548385015260038601546060808501919091526004870154608080860191909152855160c0808201885260058a0154825260068a01548286015260078a01548289015260088a01548285015260098a015482840152600a8a015460a08084019190915287019190915286519182018752600b8901548252600c89015482850152600d89015482880152600e89015490941691810191909152918301919091528251808401909352600f850154835260108501549083015260e0810191909152610100810191909152601282015461012082015260138201546101408201526118c8908790611f52565b60608201516040517ff10e6b6b0000000000000000000000000000000000000000000000000000000081526001600160a01b0388811660048301529091169063f10e6b6b90602401600060405180830381600087803b15801561192a57600080fd5b505af115801561193e573d6000803e3d6000fd5b5050506011820180546002925060ff191660018302179055506001600160a01b0386166000908152600260205260408120805460019290611980908490613f92565b90915550611a679050565b6003826080015160058111156119b157634e487b7160e01b600052602160045260246000fd5b14806119e057506001826080015160058111156119de57634e487b7160e01b600052602160045260246000fd5b145b156119f95760118101805460ff19166003179055611a67565b60405162461bcd60e51b815260206004820152603060248201527f46756e6452616973653a3a70726f6365737350726f706f73616c3a3a766f746960448201527f6e67206e6f742066696e616c697a6564000000000000000000000000000000006064820152608401610432565b6000611a72876129c6565b90507f2bdcd9364cd03f3b390f2f088b6dcef6ef67097a47a0a392d981c4ee723771be87878460110160009054906101000a900460ff16848760a001518860c0015189608001516005811115611ad857634e487b7160e01b600052602160045260246000fd5b604051611aeb9796959493929190613dae565b60405180910390a1505050611b008282611f43565b50505050565b6040805160808101825260008082526020820181905291810182905260608101919091525a81600001818152505043826001600160a01b031663b21634826040518163ffffffff1660e01b815260040160206040518083038186803b158015611b6e57600080fd5b505afa158015611b82573d6000803e3d6000fd5b505050506040513d601f19601f82011682018060405250810190611ba69190613d03565b1415611bf45760405162461bcd60e51b815260206004820152601060248201527f7265656e7472616e6379206775617264000000000000000000000000000000006044820152606401610432565b816001600160a01b03166310fdb0a26040518163ffffffff1660e01b8152600401600060405180830381600087803b158015611c2f57600080fd5b505af1158015611c43573d6000803e3d6000fd5b50506040517f72c6838f0000000000000000000000000000000000000000000000000000000081527f1f2fd42ad6a6cacd573c4b212beb7a4e2499ad45d742a65337097f130e71daff6004820152600092506001600160a01b03851691506372c6838f9060240160206040518083038186803b158015611cc257600080fd5b505afa158015611cd6573d6000803e3d6000fd5b505050506040513d601f19601f82011682018060405250810190611cfa9190613b3a565b90506001600160a01b038116611d165760006020830152611dcb565b6001600160a01b038181166060840181905283516040517f43a8a3f1000000000000000000000000000000000000000000000000000000008152928616600484015260248301526000918291906343a8a3f190604401604080518083038186803b158015611d8357600080fd5b505afa158015611d97573d6000803e3d6000fd5b505050506040513d601f19601f82011682018060405250810190611dbb9190613c48565b9015156020860152604085015250505b50919050565b606081611e1157505060408051808201909152600181527f3000000000000000000000000000000000000000000000000000000000000000602082015290565b8160005b8115611e3b5780611e2581614001565b9150611e349050600a83613faa565b9150611e15565b60008167ffffffffffffffff811115611e6457634e487b7160e01b600052604160045260246000fd5b6040519080825280601f01601f191660200182016040528015611e8e576020820181803683370190505b5090505b8415611f1f57611ea3600183613fbe565b9150611eb0600a8661405a565b611ebb906030613f92565b60f81b818381518110611ede57634e487b7160e01b600052603260045260246000fd5b60200101907effffffffffffffffffffffffffffffffffffffffffffffffffffffffffffff1916908160001a905350611f18600a86613faa565b9450611e92565b949350505050565b6000815160001415611f3b57506000919050565b506020015190565b611f4e828233612aaa565b5050565b6040516317ba7d8560e01b81527faaff643bdbd909f604d46ce015336f7e20fee3ac4a55cef3610188dee176c89260048201526000906001600160a01b038416906317ba7d859060240160206040518083038186803b158015611fb457600080fd5b505afa158015611fc8573d6000803e3d6000fd5b505050506040513d601f19601f82011682018060405250810190611fec9190613b3a565b6020830151604051630da0f6c760e41b81527f31af571e53636dddd77f772cce9d30b42075760f2da731636acc6962da2fbef8600482015260248101919091529091506001600160a01b0384169063da0f6c7090604401600060405180830381600087803b15801561205d57600080fd5b505af1158015612071573d6000803e3d6000fd5b5050505060408201511561210a576040828101519051630da0f6c760e41b81527f7e07fb4530796d057ca1d76d83f47aa8629dbb7e942ac28f30ad6f5e9e8d4189600482015260248101919091526001600160a01b0384169063da0f6c7090604401600060405180830381600087803b1580156120ed57600080fd5b505af1158015612101573d6000803e3d6000fd5b5050505061218b565b604051630da0f6c760e41b81527f7e07fb4530796d057ca1d76d83f47aa8629dbb7e942ac28f30ad6f5e9e8d41896004820152600060248201526001600160a01b0384169063da0f6c7090604401600060405180830381600087803b15801561217257600080fd5b505af1158015612186573d6000803e3d6000fd5b505050505b6060820151604051630da0f6c760e41b81527fbdd40865e74210f0a46799ae63462c62010da92014a08cbc32f1d049d0a22c6b600482015260248101919091526001600160a01b0384169063da0f6c7090604401600060405180830381600087803b1580156121f957600080fd5b505af115801561220d573d6000803e3d6000fd5b505050506080820151604051630da0f6c760e41b81527f5fa39c8100b49336846e52d39403e353bf782275f905a885f09224779ff1c924600482015260248101919091526001600160a01b0384169063da0f6c7090604401600060405180830381600087803b15801561227f57600080fd5b505af1158015612293573d6000803e3d6000fd5b5050505060a082015151604051630da0f6c760e41b81527fbd04d44792b7dbfe3b50b0f9f2006f7ef449e374a39021cb9bfa7cd0bdd850d7600482015260248101919091526001600160a01b0384169063da0f6c7090604401600060405180830381600087803b15801561230657600080fd5b505af115801561231a573d6000803e3d6000fd5b5050505060a082015160200151604051630da0f6c760e41b81527f533afc15b6312917b5e28e2272ea69d44e5ea8e00d3bd57cada1275c2f14c9e8600482015260248101919091526001600160a01b0384169063da0f6c7090604401600060405180830381600087803b15801561239057600080fd5b505af11580156123a4573d6000803e3d6000fd5b5050604051630da0f6c760e41b81527fd99dae5492aa0c08830764a319f29225cc739a0ed8683d8fd1b5bc3a8fe3167260048201524260248201526001600160a01b038616925063da0f6c709150604401600060405180830381600087803b15801561240f57600080fd5b505af1158015612423573d6000803e3d6000fd5b50505050826001600160a01b031663da0f6c707f9ce69cf04065e3c7823cc5540c0598d8a694bd7a9a5a2a786d8bccf14ed6e2ea8460a00151604001514261246b9190613f92565b6040516001600160e01b031960e085901b16815260048101929092526024820152604401600060405180830381600087803b1580156124a957600080fd5b505af11580156124bd573d6000803e3d6000fd5b5050505060a082015160600151604051630da0f6c760e41b81527f6a2acfe6164f3ec20e6d80e2f4e4f7ae2b9962615c9596c872d01f6cd244aed3600482015260248101919091526001600160a01b0384169063da0f6c7090604401600060405180830381600087803b15801561253357600080fd5b505af1158015612547573d6000803e3d6000fd5b5050505060a082015160800151604051630da0f6c760e41b81527f2305fa3a9f84625f75d70f539e621c658cf49e7477ab5af9cacd278ca7904e30600482015260248101919091526001600160a01b0384169063da0f6c7090604401600060405180830381600087803b1580156125bd57600080fd5b505af11580156125d1573d6000803e3d6000fd5b5050505060a0828101510151604051630da0f6c760e41b81527fb0d4178853a5320a41f8c55fa6d58af06637e392beff71e66dba4e8f32c39bb8600482015260248101919091526001600160a01b0384169063da0f6c7090604401600060405180830381600087803b15801561264657600080fd5b505af115801561265a573d6000803e3d6000fd5b5050505060c082015151604051630da0f6c760e41b81527f11618fa890234170104debf73b2563b667bd200bac1d7d8dd024e2f3fadaefd2600482015260248101919091526001600160a01b0384169063da0f6c7090604401600060405180830381600087803b1580156126cd57600080fd5b505af11580156126e1573d6000803e3d6000fd5b5050505060c082015160200151604051630da0f6c760e41b81527f3e453820e0fc9cb9a1e799559661cf9c1db4cc7d7fbcb7e0fdaf884cbe29c356600482015260248101919091526001600160a01b0384169063da0f6c7090604401600060405180830381600087803b15801561275757600080fd5b505af115801561276b573d6000803e3d6000fd5b5050505060c0820151606001516040517f3b4f921a0000000000000000000000000000000000000000000000000000000081527f5460409b9aa4688f80c10b29c3d7ad16025f050f472a6882a45fa7bb9bd12fb160048201526001600160a01b03918216602482015290841690633b4f921a90604401600060405180830381600087803b1580156127fb57600080fd5b505af115801561280f573d6000803e3d6000fd5b505083516040517f3b4f921a0000000000000000000000000000000000000000000000000000000081527f7fa36390a0e9b8b8004035572fd8345b1128cea12d1763a1baf8fbd4fb7b202760048201526001600160a01b0391821660248201529086169250633b4f921a9150604401600060405180830381600087803b15801561289857600080fd5b505af11580156128ac573d6000803e3d6000fd5b5050505060e082015151604051630da0f6c760e41b81527f66ed99f9a48fc961fffd6425cceb65d9444f5bda8af3bc46d14fd6b5a844fde5600482015260248101919091526001600160a01b0384169063da0f6c7090604401600060405180830381600087803b15801561291f57600080fd5b505af1158015612933573d6000803e3d6000fd5b5050505060e082015160200151604051630da0f6c760e41b81527f23bba46e5025fb6d2325c93cad4f861289d697c0913f7e18dab6bb065e2bdc28600482015260248101919091526001600160a01b0384169063da0f6c7090604401600060405180830381600087803b1580156129a957600080fd5b505af11580156129bd573d6000803e3d6000fd5b50505050505050565b600080826001600160a01b031663a6f636416040518163ffffffff1660e01b815260040160006040518083038186803b158015612a0257600080fd5b505afa158015612a16573d6000803e3d6000fd5b505050506040513d6000823e601f3d908101601f19168201604052612a3e9190810190613b81565b90506000805b82518160ff161015612aa257612a8485848360ff1681518110612a7757634e487b7160e01b600052603260045260246000fd5b6020026020010151612b83565b612a8e9083613f5e565b915080612a9a8161403a565b915050612a44565b509392505050565b816020015115612b485781606001516001600160a01b0316635e5eb01384835a8651612ad69190613fbe565b60408088015190516001600160e01b031960e087901b1681526001600160a01b03948516600482015293909216602484015260448301526064820152608401600060405180830381600087803b158015612b2f57600080fd5b505af1158015612b43573d6000803e3d6000fd5b505050505b826001600160a01b031663d4f7af436040518163ffffffff1660e01b8152600401600060405180830381600087803b1580156129a957600080fd5b604051634941d71d60e11b81527ff55ead1a20a1dd054d7b08c0efdba575e59f56a221996583f70c083bb98099b0600482015260009081906001600160a01b03851690639283ae3a9060240160206040518083038186803b158015612be757600080fd5b505afa158015612bfb573d6000803e3d6000fd5b505050506040513d601f19601f82011682018060405250810190612c1f9190613d03565b604051634941d71d60e11b81527fb75eae231d9582c6afc6491273df4a0ffbccd48ab2c48dbce59e5d68f2d19dc460048201529091506000906001600160a01b03861690639283ae3a9060240160206040518083038186803b158015612c8457600080fd5b505afa158015612c98573d6000803e3d6000fd5b505050506040513d601f19601f82011682018060405250810190612cbc9190613d03565b905080600114156132ca57604051634941d71d60e11b81527ff6242d1d39a1b19c05c52b0f7eb55673f7309c8d6b78dd23c2c385475835804860048201526000906001600160a01b03871690639283ae3a9060240160206040518083038186803b158015612d2957600080fd5b505afa158015612d3d573d6000803e3d6000fd5b505050506040513d601f19601f82011682018060405250810190612d619190613d03565b6040517ffd310d290000000000000000000000000000000000000000000000000000000081527f16d062a637d36196ce6a1b18288a49d8cd909a7ba54b6e33ca16514e7412124860048201529091506000906001600160a01b0388169063fd310d299060240160206040518083038186803b158015612ddf57600080fd5b505afa158015612df3573d6000803e3d6000fd5b505050506040513d601f19601f82011682018060405250810190612e179190613b3a565b9050600084612eb5576040516370a0823160e01b81526001600160a01b038881166004830152670de0b6b3a764000091908416906370a082319060240160206040518083038186803b158015612e6c57600080fd5b505afa158015612e80573d6000803e3d6000fd5b505050506040513d601f19601f82011682018060405250810190612ea49190613d03565b612eae9190613faa565b9050613264565b8460011415612f38576040516370a0823160e01b81526001600160a01b0388811660048301528316906370a08231906024015b60206040518083038186803b158015612f0057600080fd5b505afa158015612f14573d6000803e3d6000fd5b505050506040513d601f19601f82011682018060405250810190612eae9190613d03565b8460021415612f8d576040517efdd58e0000000000000000000000000000000000000000000000000000000081526001600160a01b0388811660048301526024820185905283169062fdd58e90604401612ee8565b8460031415612fa45760019550505050505061386d565b8460041415613256576040516317ba7d8560e01b81527faaff643bdbd909f604d46ce015336f7e20fee3ac4a55cef3610188dee176c89260048201526000906001600160a01b038a16906317ba7d859060240160206040518083038186803b15801561300f57600080fd5b505afa158015613023573d6000803e3d6000fd5b505050506040513d601f19601f820116820180604052508101906130479190613b3a565b905060026040516301ee1a2b60e41b81526001600160a01b038b81166004830152831690631ee1a2b09060240160206040518083038186803b15801561308c57600080fd5b505afa1580156130a0573d6000803e3d6000fd5b505050506040513d601f19601f820116820180604052508101906130c49190613c8b565b60038111156130e357634e487b7160e01b600052602160045260246000fd5b1480613186575060016040516301ee1a2b60e41b81526001600160a01b038b81166004830152831690631ee1a2b09060240160206040518083038186803b15801561312d57600080fd5b505afa158015613141573d6000803e3d6000fd5b505050506040513d601f19601f820116820180604052508101906131659190613c8b565b600381111561318457634e487b7160e01b600052602160045260246000fd5b145b15613241576040517ff7888aec0000000000000000000000000000000000000000000000000000000081526001600160a01b038a811660048301528981166024830152670de0b6b3a7640000919083169063f7888aec9060440160206040518083038186803b1580156131f857600080fd5b505afa15801561320c573d6000803e3d6000fd5b505050506040513d601f19601f820116820180604052508101906132309190613d03565b61323a9190613faa565b9150613250565b6001965050505050505061386d565b50613264565b60009550505050505061386d565b6000811161327a5760009550505050505061386d565b677fffffffffffffff81106132975760329550505050505061386d565b60006132b26132ad6132a884613873565b613891565b613993565b67ffffffffffffffff16965061386d95505050505050565b80600214156132de5760019250505061386d565b8061386657604051634941d71d60e11b81527ff6242d1d39a1b19c05c52b0f7eb55673f7309c8d6b78dd23c2c385475835804860048201526000906001600160a01b03871690639283ae3a9060240160206040518083038186803b15801561334557600080fd5b505afa158015613359573d6000803e3d6000fd5b505050506040513d601f19601f8201168201806040525081019061337d9190613d03565b6040517ffd310d290000000000000000000000000000000000000000000000000000000081527f16d062a637d36196ce6a1b18288a49d8cd909a7ba54b6e33ca16514e7412124860048201529091506000906001600160a01b0388169063fd310d299060240160206040518083038186803b1580156133fb57600080fd5b505afa15801561340f573d6000803e3d6000fd5b505050506040513d601f19601f820116820180604052508101906134339190613b3a565b90506000846134d1576040516370a0823160e01b81526001600160a01b038881166004830152670de0b6b3a764000091908416906370a082319060240160206040518083038186803b15801561348857600080fd5b505afa15801561349c573d6000803e3d6000fd5b505050506040513d601f19601f820116820180604052508101906134c09190613d03565b6134ca9190613faa565b905061385a565b8460011415613554576040516370a0823160e01b81526001600160a01b0388811660048301528316906370a08231906024015b60206040518083038186803b15801561351c57600080fd5b505afa158015613530573d6000803e3d6000fd5b505050506040513d601f19601f820116820180604052508101906134ca9190613d03565b84600214156135a9576040517efdd58e0000000000000000000000000000000000000000000000000000000081526001600160a01b0388811660048301526024820185905283169062fdd58e90604401613504565b84600314156135c05760019550505050505061386d565b8460041415613256576040516317ba7d8560e01b81527faaff643bdbd909f604d46ce015336f7e20fee3ac4a55cef3610188dee176c89260048201526000906001600160a01b038a16906317ba7d859060240160206040518083038186803b15801561362b57600080fd5b505afa15801561363f573d6000803e3d6000fd5b505050506040513d601f19601f820116820180604052508101906136639190613b3a565b905060026040516301ee1a2b60e41b81526001600160a01b038b81166004830152831690631ee1a2b09060240160206040518083038186803b1580156136a857600080fd5b505afa1580156136bc573d6000803e3d6000fd5b505050506040513d601f19601f820116820180604052508101906136e09190613c8b565b60038111156136ff57634e487b7160e01b600052602160045260246000fd5b14806137a2575060016040516301ee1a2b60e41b81526001600160a01b038b81166004830152831690631ee1a2b09060240160206040518083038186803b15801561374957600080fd5b505afa15801561375d573d6000803e3d6000fd5b505050506040513d601f19601f820116820180604052508101906137819190613c8b565b60038111156137a057634e487b7160e01b600052602160045260246000fd5b145b15613241576040517ff7888aec0000000000000000000000000000000000000000000000000000000081526001600160a01b038a811660048301528981166024830152670de0b6b3a7640000919083169063f7888aec9060440160206040518083038186803b15801561381457600080fd5b505afa158015613828573d6000803e3d6000fd5b505050506040513d601f19601f8201168201806040525081019061384c9190613d03565b6138569190613faa565b9150505b945061386d9350505050565b6000925050505b92915050565b6000677fffffffffffffff82111561388a57600080fd5b5060401b90565b60008082600f0b136138a257600080fd5b6000600f83900b6801000000000000000081126138c1576040918201911d5b64010000000081126138d5576020918201911d5b6201000081126138e7576010918201911d5b61010081126138f8576008918201911d5b60108112613908576004918201911d5b60048112613918576002918201911d5b60028112613927576001820191505b7fffffffffffffffffffffffffffffffffffffffffffffffffffffffffffffffc0820160401b600f85900b607f8490031b6780000000000000005b60008113156139885790800260ff81901c8281029390930192607f011c9060011d613962565b509095945050505050565b60008082600f0b12156139a557600080fd5b50600f0b60401d90565b60408051610120810182526000808252602082018190529181018290526060810182905290608082019081526000602082018190526040820181905260608201526080016139fb613a00565b905290565b60405180610160016040528060006001600160a01b0316815260200160008152602001600081526020016000815260200160008152602001613a716040518060c001604052806000815260200160008152602001600081526020016000815260200160008152602001600081525090565b8152602001613aaa604051806080016040528060008152602001600081526020016000815260200160006001600160a01b031681525090565b8152602001613acc604051806040016040528060008152602001600081525090565b81526020016000815260200160008152602001600081525090565b8051613af2816140b0565b919050565b80516fffffffffffffffffffffffffffffffff81168114613af257600080fd5b600060208284031215613b28578081fd5b8135613b33816140b0565b9392505050565b600060208284031215613b4b578081fd5b8151613b33816140b0565b60008060408385031215613b68578081fd5b8235613b73816140b0565b946020939093013593505050565b60006020808385031215613b93578182fd5b825167ffffffffffffffff80821115613baa578384fd5b818501915085601f830112613bbd578384fd5b815181811115613bcf57613bcf61409a565b8060051b604051601f19603f83011681018181108582111715613bf457613bf461409a565b604052828152858101935084860182860187018a1015613c12578788fd5b8795505b83861015613c3b57613c2781613ae7565b855260019590950194938601938601613c16565b5098975050505050505050565b60008060408385031215613c5a578182fd5b82518015158114613c69578283fd5b6020939093015192949293505050565b60008060408385031215613b68578182fd5b600060208284031215613c9c578081fd5b815160048110613b33578182fd5b600080600060608486031215613cbe578081fd5b835160068110613ccc578182fd5b9250613cda60208501613af7565b9150613ce860408501613af7565b90509250925092565b60006102408284031215611dcb578081fd5b600060208284031215613d14578081fd5b5051919050565b60008151808452613d33816020860160208601613fd5565b601f01601f19169290920160200192915050565b60048110613d6557634e487b7160e01b600052602160045260246000fd5b9052565b7f46756e6472616973652300000000000000000000000000000000000000000000815260008251613da181600a850160208701613fd5565b91909101600a0192915050565b6001600160a01b03881681526020810187905260e08101613dd26040830188613d47565b6fffffffffffffffffffffffffffffffff958616606083015293851660808201529190931660a082015260c001919091529392505050565b6000610280820190506001600160a01b038d1682528b60208301528a6040830152896060830152886080830152875160a0830152602088015160c0830152604088015160e08301526060880151610100830152608088015161012083015260a0880151610140830152613eab6101608301888051825260208101516020830152604081015160408301526001600160a01b0360608201511660608301525050565b85516101e08301526020860151610200830152613ecc610220830186613d47565b61024082019390935261026001529998505050505050505050565b60006001600160a01b038087168352808616602084015260806040840152613f126080840186613d1b565b915080841660608401525095945050505050565b6001600160a01b0385168152836020820152826040820152608060608201526000613f546080830184613d1b565b9695505050505050565b60006fffffffffffffffffffffffffffffffff808316818516808303821115613f8957613f8961406e565b01949350505050565b60008219821115613fa557613fa561406e565b500190565b600082613fb957613fb9614084565b500490565b600082821015613fd057613fd061406e565b500390565b60005b83811015613ff0578181015183820152602001613fd8565b83811115611b005750506000910152565b60007fffffffffffffffffffffffffffffffffffffffffffffffffffffffffffffffff8214156140335761403361406e565b5060010190565b600060ff821660ff8114156140515761405161406e565b60010192915050565b60008261406957614069614084565b500690565b634e487b7160e01b600052601160045260246000fd5b634e487b7160e01b600052601260045260246000fd5b634e487b7160e01b600052604160045260246000fd5b6001600160a01b03811681146140c557600080fd5b5056fea26469706673582212207e7e3a7c2ffd365f31a38a6847e6f36763b9d2505349b04802745b1c87cbea3964736f6c63430008040033",
  "linkReferences": {},
  "deployedLinkReferences": {}
}