{
  "_format": "hh-sol-artifact-1",
  "contractName": "VintageDaoSetAdapterContract",
  "sourceName": "contracts/vintage/adapters/VintageDaoSetAdapter.sol",
  "abi": [
    {
      "inputs": [],
      "name": "VOTING_NOT_FINISH",
      "type": "error"
    },
    {
      "anonymous": false,
      "inputs": [
        {
          "indexed": false,
          "internalType": "address",
          "name": "daoAddr",
          "type": "address"
        },
        {
          "indexed": false,
          "internalType": "bytes32",
          "name": "proposalId",
          "type": "bytes32"
        },
        {
          "indexed": false,
          "internalType": "enum VintageDaoSetAdapterContract.ProposalType",
          "name": "pType",
          "type": "uint8"
        }
      ],
      "name": "ProposalCreated",
      "type": "event"
    },
    {
      "anonymous": false,
      "inputs": [
        {
          "indexed": false,
          "internalType": "address",
          "name": "daoAddr",
          "type": "address"
        },
        {
          "indexed": false,
          "internalType": "bytes32",
          "name": "proposalId",
          "type": "bytes32"
        },
        {
          "indexed": false,
          "internalType": "enum VintageDaoSetAdapterContract.ProposalState",
          "name": "state",
          "type": "uint8"
        },
        {
          "indexed": false,
          "internalType": "uint256",
          "name": "voteResult",
          "type": "uint256"
        },
        {
          "indexed": false,
          "internalType": "uint128",
          "name": "allVotingWeight",
          "type": "uint128"
        },
        {
          "indexed": false,
          "internalType": "uint128",
          "name": "nbYes",
          "type": "uint128"
        },
        {
          "indexed": false,
          "internalType": "uint128",
          "name": "nbNo",
          "type": "uint128"
        }
      ],
      "name": "ProposalProcessed",
      "type": "event"
    },
    {
      "inputs": [
        {
          "internalType": "address",
          "name": "",
          "type": "address"
        },
        {
          "internalType": "bytes32",
          "name": "",
          "type": "bytes32"
        }
      ],
      "name": "governorMembershipProposals",
      "outputs": [
        {
          "internalType": "bytes32",
          "name": "proposalId",
          "type": "bytes32"
        },
        {
          "internalType": "bool",
          "name": "enable",
          "type": "bool"
        },
        {
          "internalType": "uint8",
          "name": "varifyType",
          "type": "uint8"
        },
        {
          "internalType": "uint256",
          "name": "minAmount",
          "type": "uint256"
        },
        {
          "internalType": "address",
          "name": "tokenAddress",
          "type": "address"
        },
        {
          "internalType": "uint256",
          "name": "tokenId",
          "type": "uint256"
        },
        {
          "internalType": "uint256",
          "name": "creationTime",
          "type": "uint256"
        },
        {
          "internalType": "uint256",
          "name": "stopVoteTime",
          "type": "uint256"
        },
        {
          "internalType": "enum VintageDaoSetAdapterContract.ProposalState",
          "name": "state",
          "type": "uint8"
        }
      ],
      "stateMutability": "view",
      "type": "function"
    },
    {
      "inputs": [
        {
          "internalType": "address",
          "name": "",
          "type": "address"
        },
        {
          "internalType": "bytes32",
          "name": "",
          "type": "bytes32"
        }
      ],
      "name": "investorMembershipProposals",
      "outputs": [
        {
          "internalType": "bytes32",
          "name": "proposalId",
          "type": "bytes32"
        },
        {
          "internalType": "bool",
          "name": "enable",
          "type": "bool"
        },
        {
          "internalType": "uint8",
          "name": "varifyType",
          "type": "uint8"
        },
        {
          "internalType": "uint256",
          "name": "minAmount",
          "type": "uint256"
        },
        {
          "internalType": "address",
          "name": "tokenAddress",
          "type": "address"
        },
        {
          "internalType": "uint256",
          "name": "tokenId",
          "type": "uint256"
        },
        {
          "internalType": "uint256",
          "name": "creationTime",
          "type": "uint256"
        },
        {
          "internalType": "uint256",
          "name": "stopVoteTime",
          "type": "uint256"
        },
        {
          "internalType": "enum VintageDaoSetAdapterContract.ProposalState",
          "name": "state",
          "type": "uint8"
        }
      ],
      "stateMutability": "view",
      "type": "function"
    },
    {
      "inputs": [
        {
          "internalType": "address",
          "name": "daoAddr",
          "type": "address"
        }
      ],
      "name": "isProposalAllDone",
      "outputs": [
        {
          "internalType": "bool",
          "name": "",
          "type": "bool"
        }
      ],
      "stateMutability": "view",
      "type": "function"
    },
    {
      "inputs": [
        {
          "internalType": "address",
          "name": "",
          "type": "address"
        }
      ],
      "name": "ongoingGovernorMembershipProposal",
      "outputs": [
        {
          "internalType": "bytes32",
          "name": "",
          "type": "bytes32"
        }
      ],
      "stateMutability": "view",
      "type": "function"
    },
    {
      "inputs": [
        {
          "internalType": "address",
          "name": "",
          "type": "address"
        }
      ],
      "name": "ongoingInvstorMembershipProposal",
      "outputs": [
        {
          "internalType": "bytes32",
          "name": "",
          "type": "bytes32"
        }
      ],
      "stateMutability": "view",
      "type": "function"
    },
    {
      "inputs": [
        {
          "internalType": "address",
          "name": "",
          "type": "address"
        }
      ],
      "name": "ongoingParticipantCapProposal",
      "outputs": [
        {
          "internalType": "bytes32",
          "name": "",
          "type": "bytes32"
        }
      ],
      "stateMutability": "view",
      "type": "function"
    },
    {
      "inputs": [
        {
          "internalType": "address",
          "name": "",
          "type": "address"
        }
      ],
      "name": "ongoingVotingProposal",
      "outputs": [
        {
          "internalType": "bytes32",
          "name": "",
          "type": "bytes32"
        }
      ],
      "stateMutability": "view",
      "type": "function"
    },
    {
      "inputs": [
        {
          "internalType": "address",
          "name": "",
          "type": "address"
        },
        {
          "internalType": "bytes32",
          "name": "",
          "type": "bytes32"
        }
      ],
      "name": "participantCapProposals",
      "outputs": [
        {
          "internalType": "bytes32",
          "name": "proposalId",
          "type": "bytes32"
        },
        {
          "internalType": "bool",
          "name": "enable",
          "type": "bool"
        },
        {
          "internalType": "uint256",
          "name": "cap",
          "type": "uint256"
        },
        {
          "internalType": "uint256",
          "name": "creationTime",
          "type": "uint256"
        },
        {
          "internalType": "uint256",
          "name": "stopVoteTime",
          "type": "uint256"
        },
        {
          "internalType": "enum VintageDaoSetAdapterContract.ProposalState",
          "name": "state",
          "type": "uint8"
        }
      ],
      "stateMutability": "view",
      "type": "function"
    },
    {
      "inputs": [
        {
          "internalType": "contract DaoRegistry",
          "name": "dao",
          "type": "address"
        },
        {
          "internalType": "bytes32",
          "name": "proposalId",
          "type": "bytes32"
        }
      ],
      "name": "processGovernorMembershipProposal",
      "outputs": [],
      "stateMutability": "nonpayable",
      "type": "function"
    },
    {
      "inputs": [
        {
          "internalType": "contract DaoRegistry",
          "name": "dao",
          "type": "address"
        },
        {
          "internalType": "bytes32",
          "name": "proposalId",
          "type": "bytes32"
        }
      ],
      "name": "processInvestorMembershipProposal",
      "outputs": [],
      "stateMutability": "nonpayable",
      "type": "function"
    },
    {
      "inputs": [
        {
          "internalType": "contract DaoRegistry",
          "name": "dao",
          "type": "address"
        },
        {
          "internalType": "bytes32",
          "name": "proposalId",
          "type": "bytes32"
        }
      ],
      "name": "processParticipantCapProposal",
      "outputs": [],
      "stateMutability": "nonpayable",
      "type": "function"
    },
    {
      "inputs": [
        {
          "internalType": "contract DaoRegistry",
          "name": "dao",
          "type": "address"
        },
        {
          "internalType": "bytes32",
          "name": "proposalId",
          "type": "bytes32"
        }
      ],
      "name": "processVotingProposal",
      "outputs": [],
      "stateMutability": "nonpayable",
      "type": "function"
    },
    {
      "inputs": [
        {
          "internalType": "contract DaoRegistry",
          "name": "dao",
          "type": "address"
        },
        {
          "internalType": "bool",
          "name": "enable",
          "type": "bool"
        },
        {
          "internalType": "uint8",
          "name": "varifyType",
          "type": "uint8"
        },
        {
          "internalType": "uint256",
          "name": "minAmount",
          "type": "uint256"
        },
        {
          "internalType": "address",
          "name": "tokenAddress",
          "type": "address"
        },
        {
          "internalType": "uint256",
          "name": "tokenId",
          "type": "uint256"
        },
        {
          "internalType": "address[]",
          "name": "whiteList",
          "type": "address[]"
        }
      ],
      "name": "submitGovernorMembershpProposal",
      "outputs": [],
      "stateMutability": "nonpayable",
      "type": "function"
    },
    {
      "inputs": [
        {
          "internalType": "contract DaoRegistry",
          "name": "dao",
          "type": "address"
        },
        {
          "internalType": "bool",
          "name": "enable",
          "type": "bool"
        },
        {
          "internalType": "uint8",
          "name": "varifyType",
          "type": "uint8"
        },
        {
          "internalType": "uint256",
          "name": "minAmount",
          "type": "uint256"
        },
        {
          "internalType": "address",
          "name": "tokenAddress",
          "type": "address"
        },
        {
          "internalType": "uint256",
          "name": "tokenId",
          "type": "uint256"
        },
        {
          "internalType": "address[]",
          "name": "whiteList",
          "type": "address[]"
        }
      ],
      "name": "submitInvestorMembershipProposal",
      "outputs": [],
      "stateMutability": "nonpayable",
      "type": "function"
    },
    {
      "inputs": [
        {
          "internalType": "contract DaoRegistry",
          "name": "dao",
          "type": "address"
        },
        {
          "internalType": "bool",
          "name": "enable",
          "type": "bool"
        },
        {
          "internalType": "uint256",
          "name": "cap",
          "type": "uint256"
        }
      ],
      "name": "submitParticipantCapProposal",
      "outputs": [],
      "stateMutability": "nonpayable",
      "type": "function"
    },
    {
      "inputs": [
        {
          "internalType": "contract DaoRegistry",
          "name": "dao",
          "type": "address"
        },
        {
          "components": [
            {
              "internalType": "uint256",
              "name": "eligibilityType",
              "type": "uint256"
            },
            {
              "internalType": "address",
              "name": "tokenAddress",
              "type": "address"
            },
            {
              "internalType": "uint256",
              "name": "tokenID",
              "type": "uint256"
            },
            {
              "internalType": "uint256",
              "name": "votingWeightedType",
              "type": "uint256"
            },
            {
              "internalType": "uint256",
              "name": "supportType",
              "type": "uint256"
            },
            {
              "internalType": "uint256",
              "name": "quorumType",
              "type": "uint256"
            },
            {
              "internalType": "uint256",
              "name": "support",
              "type": "uint256"
            },
            {
              "internalType": "uint256",
              "name": "quorum",
              "type": "uint256"
            },
            {
              "internalType": "uint256",
              "name": "votingPeriod",
              "type": "uint256"
            },
            {
              "internalType": "uint256",
              "name": "executingPeriod",
              "type": "uint256"
            },
            {
              "internalType": "address[]",
              "name": "governors",
              "type": "address[]"
            },
            {
              "internalType": "uint256[]",
              "name": "allocations",
              "type": "uint256[]"
            }
          ],
          "internalType": "struct VintageDaoSetAdapterContract.VotingParams",
          "name": "params",
          "type": "tuple"
        }
      ],
      "name": "submitVotingProposal",
      "outputs": [],
      "stateMutability": "nonpayable",
      "type": "function"
    },
    {
      "inputs": [
        {
          "internalType": "address",
          "name": "",
          "type": "address"
        },
        {
          "internalType": "bytes32",
          "name": "",
          "type": "bytes32"
        }
      ],
      "name": "votingProposals",
      "outputs": [
        {
          "internalType": "bytes32",
          "name": "proposalId",
          "type": "bytes32"
        },
        {
          "components": [
            {
              "internalType": "uint256",
              "name": "supportType",
              "type": "uint256"
            },
            {
              "internalType": "uint256",
              "name": "quorumType",
              "type": "uint256"
            },
            {
              "internalType": "uint256",
              "name": "support",
              "type": "uint256"
            },
            {
              "internalType": "uint256",
              "name": "quorum",
              "type": "uint256"
            }
          ],
          "internalType": "struct VintageDaoSetAdapterContract.VotingSupportInfo",
          "name": "supportInfo",
          "type": "tuple"
        },
        {
          "components": [
            {
              "internalType": "uint256",
              "name": "eligibilityType",
              "type": "uint256"
            },
            {
              "internalType": "address",
              "name": "tokenAddress",
              "type": "address"
            },
            {
              "internalType": "uint256",
              "name": "tokenID",
              "type": "uint256"
            },
            {
              "internalType": "uint256",
              "name": "votingWeightedType",
              "type": "uint256"
            }
          ],
          "internalType": "struct VintageDaoSetAdapterContract.VotingEligibilityInfo",
          "name": "eligibilityInfo",
          "type": "tuple"
        },
        {
          "components": [
            {
              "internalType": "uint256",
              "name": "votingPeriod",
              "type": "uint256"
            },
            {
              "internalType": "uint256",
              "name": "executingPeriod",
              "type": "uint256"
            },
            {
              "internalType": "uint256",
              "name": "creationTime",
              "type": "uint256"
            },
            {
              "internalType": "uint256",
              "name": "stopVoteTime",
              "type": "uint256"
            }
          ],
          "internalType": "struct VintageDaoSetAdapterContract.VotingTimeInfo",
          "name": "timeInfo",
          "type": "tuple"
        },
        {
          "internalType": "enum VintageDaoSetAdapterContract.ProposalState",
          "name": "state",
          "type": "uint8"
        }
      ],
      "stateMutability": "view",
      "type": "function"
    }
  ],
  "bytecode": "0x608060405234801561001057600080fd5b50615df980620000216000396000f3fe608060405234801561001057600080fd5b506004361061011a5760003560e01c80639a0242fc116100b2578063ba3e9e2e11610081578063c13759e111610066578063c13759e114610425578063d855143914610438578063da79b0f81461049c57600080fd5b8063ba3e9e2e146103f2578063be2176251461040557600080fd5b80639a0242fc14610329578063a860dfdd1461034c578063b58ca31e1461035f578063b6939b7f146103d257600080fd5b806347a71a85116100ee57806347a71a85146102d0578063731dac7d146102e35780638e3588dc146102f6578063985460c71461030957600080fd5b80628095251461011f5780631d625e24146101345780631eb1cf391461021b57806346c63899146102a2575b600080fd5b61013261012d3660046156f3565b6104af565b005b6102016101423660046154a5565b60076020818152600093845260408085208252928452928290208054835160808082018652600184015482526002840154828801526003840154828701526004840154606080840191909152865180830188526005860154815260068601546001600160a01b0316818a015295850154868801526008850154868201528651918201875260098501548252600a85015497820197909752600b84015495810195909552600c83015495850195909552600d909101549093929060ff1685565b604051610212959493929190615ac9565b60405180910390f35b61028d6102293660046154a5565b6005602081815260009384526040808520909152918352912080546001820154600283015460038401546004850154958501546006860154600790960154949660ff8086169761010090960481169694956001600160a01b03909416949193911689565b60405161021299989796959493929190615a67565b6102c26102b036600461546d565b60006020819052908152604090205481565b604051908152602001610212565b6101326102de3660046156f3565b6107f1565b6101326102f1366004615705565b610acd565b6101326103043660046156f3565b6110c3565b6102c261031736600461546d565b60026020526000908152604090205481565b61033c61033736600461546d565b61134e565b6040519015158152602001610212565b61013261035a3660046156f3565b6113e4565b61028d61036d3660046154a5565b6006602081815260009384526040808520909152918352912080546001820154600283015460038401546004850154600586015496860154600790960154949660ff8086169761010090960481169694956001600160a01b0390941694929391921689565b6102c26103e036600461546d565b60036020526000908152604090205481565b610132610400366004615620565b6116c0565b6102c261041336600461546d565b60016020526000908152604090205481565b610132610433366004615620565b611aef565b61048a6104463660046154a5565b60046020818152600093845260408085209091529183529120805460018201546002830154600384015494840154600590940154929460ff92831694919390921686565b60405161021296959493929190615a28565b6101326104aa3660046155e0565b611efe565b8160006104bb82612218565b6001600160a01b03851660008181526004602081815260408084208985529091529182902091516330490e9160e01b8152908101879052929350916330490e9190602401600060405180830381600087803b15801561051957600080fd5b505af115801561052d573d6000803e3d6000fd5b50506040516317ba7d8560e01b81527fd3999c37f8f35da86f802a74f9bf032c4aeb46e49abd9c861f489ef4cb40d0a86004820152600092506001600160a01b03881691506317ba7d859060240160206040518083038186803b15801561059357600080fd5b505afa1580156105a7573d6000803e3d6000fd5b505050506040513d601f19601f820116820180604052508101906105cb9190615489565b6040516376225e7360e01b81526001600160a01b03888116600483015260248201889052919250600091829182918516906376225e7390604401606060405180830381600087803b15801561061f57600080fd5b505af1158015610633573d6000803e3d6000fd5b505050506040513d601f19601f820116820180604052508101906106579190615779565b91945092509050600283600581111561068057634e487b7160e01b600052602160045260246000fd5b14156106ac5761069089866124e3565b6005850180546002919060ff19166001835b0217905550610746565b60038360058111156106ce57634e487b7160e01b600052602160045260246000fd5b14806106f9575060018360058111156106f757634e487b7160e01b600052602160045260246000fd5b145b15610714576005850180546003919060ff19166001836106a2565b6040517f70fc772800000000000000000000000000000000000000000000000000000000815260040160405180910390fd5b6001600160a01b038916600090815260208190526040812081905561076b8a8a61260d565b6005808801549192507fe0867d363777a6ada708063230ad9d25fe940a2b5913de073948e222345816b2918c918c9160ff169088908111156107bd57634e487b7160e01b600052602160045260246000fd5b8588886040516107d3979695949392919061599c565b60405180910390a15050505050506107eb828261293b565b50505050565b8160006107fd82612218565b6001600160a01b03851660008181526006602090815260408083208884529091529081902090516330490e9160e01b815260048101879052929350916330490e9190602401600060405180830381600087803b15801561085c57600080fd5b505af1158015610870573d6000803e3d6000fd5b50506040516317ba7d8560e01b81527fd3999c37f8f35da86f802a74f9bf032c4aeb46e49abd9c861f489ef4cb40d0a86004820152600092506001600160a01b03881691506317ba7d859060240160206040518083038186803b1580156108d657600080fd5b505afa1580156108ea573d6000803e3d6000fd5b505050506040513d601f19601f8201168201806040525081019061090e9190615489565b6040516376225e7360e01b81526001600160a01b03888116600483015260248201889052919250600091829182918516906376225e7390604401606060405180830381600087803b15801561096257600080fd5b505af1158015610976573d6000803e3d6000fd5b505050506040513d601f19601f8201168201806040525081019061099a9190615779565b9194509250905060028360058111156109c357634e487b7160e01b600052602160045260246000fd5b14156109ef576109d3898661294a565b6007850180546002919060ff19166001835b0217905550610a57565b6003836005811115610a1157634e487b7160e01b600052602160045260246000fd5b1480610a3c57506001836005811115610a3a57634e487b7160e01b600052602160045260246000fd5b145b15610714576007850180546003919060ff19166001836109e5565b6001600160a01b0389166000908152600260205260408120819055610a7c8a8a61260d565b60078701549091507fe0867d363777a6ada708063230ad9d25fe940a2b5913de073948e222345816b2908b908b9060ff168760058111156107bd57634e487b7160e01b600052602160045260246000fd5b81610ad88133612e0a565b826000610ae482612218565b6001600160a01b03861660009081526003602052604090205490915015610b785760405162461bcd60e51b815260206004820152602260248201527f6c61737420766f74696e672070726f706f73616c206e6f742066696e616c697a60448201527f656400000000000000000000000000000000000000000000000000000000000060648201526084015b60405180910390fd5b610b86610160850185615bc0565b9050610b96610140860186615bc0565b905014610be55760405162461bcd60e51b815260206004820152601260248201527f21616c6c6f636174696f6e20706172616d7300000000000000000000000000006044820152606401610b6f565b610bee85612ee8565b846001600160a01b0316631bc0f7876040518163ffffffff1660e01b8152600401600060405180830381600087803b158015610c2957600080fd5b505af1158015610c3d573d6000803e3d6000fd5b505050506000610ce88660c01b610cc3886001600160a01b031663656f9f996040518163ffffffff1660e01b815260040160206040518083038186803b158015610c8657600080fd5b505afa158015610c9a573d6000803e3d6000fd5b505050506040513d601f19601f82011682018060405250810190610cbe91906157da565b6132bb565b604051602001610cd49291906157f2565b604051602081830303815290604052613411565b90506040518060a001604052808281526020016040518060800160405280886080013581526020018860a0013581526020018860c0013581526020018860e001358152508152602001604051806080016040528088600001358152602001886020016020810190610d59919061546d565b6001600160a01b031681526020018860400135815260200188606001358152508152602001604051806080016040528088610100013581526020018861012001358152602001428152602001896001600160a01b0316639283ae3a7f9876c0f0505bfb2b1c38d3bbd25ba13159172cd0868972d76927723f5a9480fc6040518263ffffffff1660e01b8152600401610df391815260200190565b60206040518083038186803b158015610e0b57600080fd5b505afa158015610e1f573d6000803e3d6000fd5b505050506040513d601f19601f82011682018060405250810190610e4391906157da565b610e4d9042615c61565b90528152602001600090526001600160a01b0387811660009081526007602081815260408084208785528252928390208551815585820151805160018084019190915581840151600284015581860151600380850191909155606092830151600485015588870151805160058601558086015160068601805473ffffffffffffffffffffffffffffffffffffffff191691909a16179098558787015195840195909555958101516008830155808701518051600984015592830151600a83015593820151600b820155920151600c8301556080840151600d8301805493949193909260ff1990911691908490811115610f5657634e487b7160e01b600052602160045260246000fd5b021790555050506001600160a01b0386166000908152600360205260408120829055610f86610140870187615bc0565b9050111561106b5760005b610f9f610140870187615bc0565b90508160ff16101561106957610ffa610fbc610160880188615bc0565b8360ff16818110610fdd57634e487b7160e01b600052603260045260246000fd5b6000868152600a602090815260409091209391020135905061342d565b5061105661100c610140880188615bc0565b8360ff1681811061102d57634e487b7160e01b600052603260045260246000fd5b9050602002016020810190611042919061546d565b6000848152600b6020526040902090613440565b508061106181615d09565b915050610f91565b505b6110758682613455565b7fa65d0c07e3b0d876ee52e871c234a4b150b9bf17a08f356f5aeda8d6782cc31a868260036040516110a9939291906159fa565b60405180910390a1506110bc828261293b565b5050505050565b8160006110cf82612218565b6001600160a01b03851660008181526005602090815260408083208884529091529081902090516330490e9160e01b815260048101879052929350916330490e9190602401600060405180830381600087803b15801561112e57600080fd5b505af1158015611142573d6000803e3d6000fd5b50506040516317ba7d8560e01b81527fd3999c37f8f35da86f802a74f9bf032c4aeb46e49abd9c861f489ef4cb40d0a86004820152600092506001600160a01b03881691506317ba7d859060240160206040518083038186803b1580156111a857600080fd5b505afa1580156111bc573d6000803e3d6000fd5b505050506040513d601f19601f820116820180604052508101906111e09190615489565b6040516376225e7360e01b81526001600160a01b03888116600483015260248201889052919250600091829182918516906376225e7390604401606060405180830381600087803b15801561123457600080fd5b505af1158015611248573d6000803e3d6000fd5b505050506040513d601f19601f8201168201806040525081019061126c9190615779565b91945092509050600283600581111561129557634e487b7160e01b600052602160045260246000fd5b14156112c1576112a5898661366e565b6007850180546002919060ff19166001835b0217905550611329565b60038360058111156112e357634e487b7160e01b600052602160045260246000fd5b148061130e5750600183600581111561130c57634e487b7160e01b600052602160045260246000fd5b145b15610714576007850180546003919060ff19166001836112b7565b6001600160a01b0389166000908152600160205260408120819055610a7c8a8a61260d565b6001600160a01b03811660009081526020819052604081205415158061138b57506001600160a01b03821660009081526001602052604090205415155b806113ad57506001600160a01b03821660009081526002602052604090205415155b806113cf57506001600160a01b03821660009081526003602052604090205415155b156113dc57506000919050565b506001919050565b8160006113f082612218565b6001600160a01b03851660008181526007602090815260408083208884529091529081902090516330490e9160e01b815260048101879052929350916330490e9190602401600060405180830381600087803b15801561144f57600080fd5b505af1158015611463573d6000803e3d6000fd5b50506040516317ba7d8560e01b81527fd3999c37f8f35da86f802a74f9bf032c4aeb46e49abd9c861f489ef4cb40d0a86004820152600092506001600160a01b03881691506317ba7d859060240160206040518083038186803b1580156114c957600080fd5b505afa1580156114dd573d6000803e3d6000fd5b505050506040513d601f19601f820116820180604052508101906115019190615489565b6040516376225e7360e01b81526001600160a01b03888116600483015260248201889052919250600091829182918516906376225e7390604401606060405180830381600087803b15801561155557600080fd5b505af1158015611569573d6000803e3d6000fd5b505050506040513d601f19601f8201168201806040525081019061158d9190615779565b9194509250905060028360058111156115b657634e487b7160e01b600052602160045260246000fd5b14156115e2576115c68986613baf565b600d850180546002919060ff19166001835b021790555061164a565b600383600581111561160457634e487b7160e01b600052602160045260246000fd5b148061162f5750600183600581111561162d57634e487b7160e01b600052602160045260246000fd5b145b1561071457600d850180546003919060ff19166001836115d8565b6001600160a01b038916600090815260036020526040812081905561166f8a8a61260d565b600d8701549091507fe0867d363777a6ada708063230ad9d25fe940a2b5913de073948e222345816b2908b908b9060ff168760058111156107bd57634e487b7160e01b600052602160045260246000fd5b876116cb8133612e0a565b8860006116d782612218565b6001600160a01b038c16600090815260016020526040902054909150156117665760405162461bcd60e51b815260206004820152602e60248201527f6c61737420476f7665726e6f724d656d626572736869702070726f706f73616c60448201527f206e6f742066696e616c697a65640000000000000000000000000000000000006064820152608401610b6f565b61176f8b612ee8565b8a6001600160a01b031663c7e820cc6040518163ffffffff1660e01b8152600401600060405180830381600087803b1580156117aa57600080fd5b505af11580156117be573d6000803e3d6000fd5b5050505060006118188c60c01b6118078e6001600160a01b0316639e42c4036040518163ffffffff1660e01b815260040160206040518083038186803b158015610c8657600080fd5b604051602001610cd4929190615860565b90506040518061012001604052808281526020018c151581526020018b60ff1681526020018a8152602001896001600160a01b031681526020018881526020014281526020018d6001600160a01b0316639283ae3a7f9876c0f0505bfb2b1c38d3bbd25ba13159172cd0868972d76927723f5a9480fc6040518263ffffffff1660e01b81526004016118ac91815260200190565b60206040518083038186803b1580156118c457600080fd5b505afa1580156118d8573d6000803e3d6000fd5b505050506040513d601f19601f820116820180604052508101906118fc91906157da565b6119069042615c61565b8152602001600090526001600160a01b038d811660009081526005602081815260408084208785528252928390208551815590850151600180830180549588015161ffff1990961692151561ff0019169290921761010060ff9096168602179091556060860151600283015560808601516003808401805473ffffffffffffffffffffffffffffffffffffffff1916929097169190911790955560a0860151600483015560c08601519282019290925560e085015160068201559184015160078301805493949193909260ff199091169184908111156119f657634e487b7160e01b600052602160045260246000fd5b02179055505085159050611a765760005b60ff8116861115611a7457611a6187878360ff16818110611a3857634e487b7160e01b600052603260045260246000fd5b9050602002016020810190611a4d919061546d565b600084815260086020526040902090613440565b5080611a6c81615d09565b915050611a07565b505b6001600160a01b038c166000908152600160205260409020819055611a9b8c82613455565b7fa65d0c07e3b0d876ee52e871c234a4b150b9bf17a08f356f5aeda8d6782cc31a8c826001604051611acf939291906159fa565b60405180910390a150611ae2828261293b565b5050505050505050505050565b87611afa8133612e0a565b886000611b0682612218565b6001600160a01b038c1660009081526002602052604090205490915015611b955760405162461bcd60e51b815260206004820152602e60248201527f6c61737420496e766573746f724d656d626572736869702070726f706f73616c60448201527f206e6f742066696e616c697a65640000000000000000000000000000000000006064820152608401610b6f565b611b9e8b612ee8565b8a6001600160a01b031663822d63156040518163ffffffff1660e01b8152600401600060405180830381600087803b158015611bd957600080fd5b505af1158015611bed573d6000803e3d6000fd5b505050506000611c478c60c01b611c368e6001600160a01b031663b5d3788e6040518163ffffffff1660e01b815260040160206040518083038186803b158015610c8657600080fd5b604051602001610cd492919061593c565b90506040518061012001604052808281526020018c151581526020018b60ff1681526020018a8152602001896001600160a01b031681526020018881526020014281526020018d6001600160a01b0316639283ae3a7f9876c0f0505bfb2b1c38d3bbd25ba13159172cd0868972d76927723f5a9480fc6040518263ffffffff1660e01b8152600401611cdb91815260200190565b60206040518083038186803b158015611cf357600080fd5b505afa158015611d07573d6000803e3d6000fd5b505050506040513d601f19601f82011682018060405250810190611d2b91906157da565b611d359042615c61565b8152602001600090526001600160a01b038d811660009081526006602081815260408084208785528252928390208551815590850151600180830180549588015161ffff1990961692151561ff0019169290921761010060ff9096168602179091556060860151600283015560808601516003808401805473ffffffffffffffffffffffffffffffffffffffff1916929097169190911790955560a0860151600483015560c0860151600583015560e0860151928201929092559184015160078301805493949193909260ff19909116918490811115611e2557634e487b7160e01b600052602160045260246000fd5b02179055505085159050611ea55760005b60ff8116861115611ea357611e9087878360ff16818110611e6757634e487b7160e01b600052603260045260246000fd5b9050602002016020810190611e7c919061546d565b600084815260096020526040902090613440565b5080611e9b81615d09565b915050611e36565b505b6001600160a01b038c166000908152600260205260409020819055611eca8c82613455565b7fa65d0c07e3b0d876ee52e871c234a4b150b9bf17a08f356f5aeda8d6782cc31a8c826002604051611acf939291906159fa565b82611f098133612e0a565b836000611f1582612218565b9050611f2086612ee8565b6001600160a01b03861660009081526020819052604090205415611f865760405162461bcd60e51b815260206004820152601f60248201527f6c617374206361702070726f706f73616c206e6f742066696e616c697a6564006044820152606401610b6f565b856001600160a01b0316637aa8edd26040518163ffffffff1660e01b8152600401600060405180830381600087803b158015611fc157600080fd5b505af1158015611fd5573d6000803e3d6000fd5b50505050600061202f8760c01b61201e896001600160a01b031663d9f23d3e6040518163ffffffff1660e01b815260040160206040518083038186803b158015610c8657600080fd5b604051602001610cd49291906158ce565b90506040518060c001604052808281526020018715158152602001868152602001428152602001886001600160a01b0316639283ae3a7f9876c0f0505bfb2b1c38d3bbd25ba13159172cd0868972d76927723f5a9480fc6040518263ffffffff1660e01b81526004016120a491815260200190565b60206040518083038186803b1580156120bc57600080fd5b505afa1580156120d0573d6000803e3d6000fd5b505050506040513d601f19601f820116820180604052508101906120f491906157da565b6120fe9042615c61565b8152602001600090526001600160a01b038816600090815260046020818152604080842086855282529283902084518155908401516001808301805492151560ff19938416179055938501516002830155606085015160038084019190915560808601519383019390935560a085015160058301805493959194909390921691849081111561219d57634e487b7160e01b600052602160045260246000fd5b021790555050506001600160a01b03871660009081526020819052604090208190556121c98782613455565b7fa65d0c07e3b0d876ee52e871c234a4b150b9bf17a08f356f5aeda8d6782cc31a878260006040516121fd939291906159fa565b60405180910390a150612210828261293b565b505050505050565b6040805160808101825260008082526020820181905291810182905260608101919091525a81600001818152505043826001600160a01b031663b21634826040518163ffffffff1660e01b815260040160206040518083038186803b15801561228057600080fd5b505afa158015612294573d6000803e3d6000fd5b505050506040513d601f19601f820116820180604052508101906122b891906157da565b14156123065760405162461bcd60e51b815260206004820152601060248201527f7265656e7472616e6379206775617264000000000000000000000000000000006044820152606401610b6f565b816001600160a01b03166310fdb0a26040518163ffffffff1660e01b8152600401600060405180830381600087803b15801561234157600080fd5b505af1158015612355573d6000803e3d6000fd5b50506040517f72c6838f0000000000000000000000000000000000000000000000000000000081527f1f2fd42ad6a6cacd573c4b212beb7a4e2499ad45d742a65337097f130e71daff6004820152600092506001600160a01b03851691506372c6838f9060240160206040518083038186803b1580156123d457600080fd5b505afa1580156123e8573d6000803e3d6000fd5b505050506040513d601f19601f8201168201806040525081019061240c9190615489565b90506001600160a01b03811661242857600060208301526124dd565b6001600160a01b038181166060840181905283516040517f43a8a3f1000000000000000000000000000000000000000000000000000000008152928616600484015260248301526000918291906343a8a3f190604401604080518083038186803b15801561249557600080fd5b505afa1580156124a9573d6000803e3d6000fd5b505050506040513d601f19601f820116820180604052508101906124cd91906155b3565b9015156020860152604085015250505b50919050565b6001808201546001600160a01b0384169163da0f6c70917f0a71373d28d4b40b0bb46f8d58468f2e51292d10cf26715a0e3d8624b60c8a429160ff90911615151461252f576000612532565b60015b6040516001600160e01b031960e085901b168152600481019290925260ff166024820152604401600060405180830381600087803b15801561257357600080fd5b505af1158015612587573d6000803e3d6000fd5b505050506002810154604051630da0f6c760e41b81527faf0b46df030af159303b75690e740674df8434270d3b7248b0280f3d63a2dd8b600482015260248101919091526001600160a01b0383169063da0f6c7090604401600060405180830381600087803b1580156125f957600080fd5b505af1158015612210573d6000803e3d6000fd5b600080836001600160a01b031663a6f636416040518163ffffffff1660e01b815260040160006040518083038186803b15801561264957600080fd5b505afa15801561265d573d6000803e3d6000fd5b505050506040513d6000823e601f3d908101601f1916820160405261268591908101906154d0565b6040516317ba7d8560e01b81527fd3999c37f8f35da86f802a74f9bf032c4aeb46e49abd9c861f489ef4cb40d0a8600482015290915060009081906001600160a01b038716906317ba7d859060240160206040518083038186803b1580156126ec57600080fd5b505afa158015612700573d6000803e3d6000fd5b505050506040513d601f19601f820116820180604052508101906127249190615489565b905060005b83518160ff16101561292e57816001600160a01b03166324a2cceb8888878560ff168151811061276957634e487b7160e01b600052603260045260246000fd5b60200260200101516040518463ffffffff1660e01b81526004016127ad939291906001600160a01b0393841681526020810192909252909116604082015260600190565b60206040518083038186803b1580156127c557600080fd5b505afa1580156127d9573d6000803e3d6000fd5b505050506040513d601f19601f820116820180604052508101906127fd9190615597565b156128db57816001600160a01b03166391d2fd538888878560ff168151811061283657634e487b7160e01b600052603260045260246000fd5b60200260200101516040518463ffffffff1660e01b815260040161287a939291906001600160a01b0393841681526020810192909252909116604082015260600190565b60206040518083038186803b15801561289257600080fd5b505afa1580156128a6573d6000803e3d6000fd5b505050506040513d601f19601f820116820180604052508101906128ca91906157c0565b6128d49084615c2d565b925061291c565b61290f87858360ff168151811061290257634e487b7160e01b600052603260045260246000fd5b6020026020010151614281565b6129199084615c2d565b92505b8061292681615d09565b915050612729565b5090925050505b92915050565b61294682823361512c565b5050565b6001808201546001600160a01b0384169163da0f6c70917f1405d0156cf64c805704fdf6691baebfcfa0d409ea827c231693ff0581b0b7779160ff909116151514612996576000612999565b60015b6040516001600160e01b031960e085901b168152600481019290925260ff166024820152604401600060405180830381600087803b1580156129da57600080fd5b505af11580156129ee573d6000803e3d6000fd5b50505050600181015460ff1615612946576001810154604051630da0f6c760e41b81527f80140cd7e0b1d935bee578a67a41547c82987de8e7d6b3827d411b738110258b600482015261010090910460ff1660248201526001600160a01b0383169063da0f6c7090604401600060405180830381600087803b158015612a7357600080fd5b505af1158015612a87573d6000803e3d6000fd5b505050506002810154604051630da0f6c760e41b81527f04ecaf460eb9f82aeb70035e3f24c18a3650fa0da9ddbe7e63d70de659b9b901600482015260248101919091526001600160a01b0383169063da0f6c7090604401600060405180830381600087803b158015612af957600080fd5b505af1158015612b0d573d6000803e3d6000fd5b505050506003810154604051631da7c90d60e11b81527fe373ab56628c86db3f0e36774c2c5e0393f9272ff5c976bc3f0db2db60cdbc1460048201526001600160a01b03918216602482015290831690633b4f921a90604401600060405180830381600087803b158015612b8057600080fd5b505af1158015612b94573d6000803e3d6000fd5b50505050600481810154604051630da0f6c760e41b81527f6cb5bc3796b0717ca4ff665886c96fb0178d6341366eb7b6c737fe79083b836a9281019290925260248201526001600160a01b0383169063da0f6c7090604401600060405180830381600087803b158015612c0657600080fd5b505af1158015612c1a573d6000803e3d6000fd5b505082546000908152600960205260408120909250612c399150615205565b5190508015612e05576040516317ba7d8560e01b81527faaff643bdbd909f604d46ce015336f7e20fee3ac4a55cef3610188dee176c89260048201526000906001600160a01b038516906317ba7d859060240160206040518083038186803b158015612ca457600080fd5b505afa158015612cb8573d6000803e3d6000fd5b505050506040513d601f19601f82011682018060405250810190612cdc9190615489565b6040517fff8bb0d00000000000000000000000000000000000000000000000000000000081526001600160a01b0386811660048301529192509082169063ff8bb0d090602401600060405180830381600087803b158015612d3c57600080fd5b505af1158015612d50573d6000803e3d6000fd5b5050505060005b828160ff1610156110bc57835460009081526009602052604090206001600160a01b0383169063ac7e7eba908790612d929060ff8616615212565b6040516001600160e01b031960e085901b1681526001600160a01b03928316600482015291166024820152604401600060405180830381600087803b158015612dda57600080fd5b505af1158015612dee573d6000803e3d6000fd5b505050508080612dfd90615d09565b915050612d57565b505050565b6040517fa230c5240000000000000000000000000000000000000000000000000000000081526001600160a01b03828116600483015283169063a230c5249060240160206040518083038186803b158015612e6457600080fd5b505afa158015612e78573d6000803e3d6000fd5b505050506040513d601f19601f82011682018060405250810190612e9c9190615597565b6129465760405162461bcd60e51b815260206004820152600a60248201527f6f6e6c79526169736572000000000000000000000000000000000000000000006044820152606401610b6f565b6040516317ba7d8560e01b81527faaff643bdbd909f604d46ce015336f7e20fee3ac4a55cef3610188dee176c89260048201526000906001600160a01b038316906317ba7d859060240160206040518083038186803b158015612f4a57600080fd5b505afa158015612f5e573d6000803e3d6000fd5b505050506040513d601f19601f82011682018060405250810190612f829190615489565b6040516301ee1a2b60e41b81526001600160a01b038481166004830152919250600091831690631ee1a2b09060240160206040518083038186803b158015612fc957600080fd5b505afa158015612fdd573d6000803e3d6000fd5b505050506040513d601f19601f82011682018060405250810190613001919061575a565b604051634941d71d60e11b81527fb0d4178853a5320a41f8c55fa6d58af06637e392beff71e66dba4e8f32c39bb860048201529091506000906001600160a01b03851690639283ae3a9060240160206040518083038186803b15801561306657600080fd5b505afa15801561307a573d6000803e3d6000fd5b505050506040513d601f19601f8201168201806040525081019061309e91906157da565b905060008260038111156130c257634e487b7160e01b600052602160045260246000fd5b1480613199575060038260038111156130eb57634e487b7160e01b600052602160045260246000fd5b1480156131995750604051634941d71d60e11b81527f533afc15b6312917b5e28e2272ea69d44e5ea8e00d3bd57cada1275c2f14c9e8600482015281906001600160a01b03861690639283ae3a9060240160206040518083038186803b15801561315457600080fd5b505afa158015613168573d6000803e3d6000fd5b505050506040513d601f19601f8201168201806040525081019061318c91906157da565b6131969190615c61565b42115b8061326f575060028260038111156131c157634e487b7160e01b600052602160045260246000fd5b14801561326f5750604051634941d71d60e11b81527f9ce69cf04065e3c7823cc5540c0598d8a694bd7a9a5a2a786d8bccf14ed6e2ea600482015281906001600160a01b03861690639283ae3a9060240160206040518083038186803b15801561322a57600080fd5b505afa15801561323e573d6000803e3d6000fd5b505050506040513d601f19601f8201168201806040525081019061326291906157da565b61326c9190615c61565b42115b6107eb5760405162461bcd60e51b815260206004820152600b60248201527f46554e445f504552494f440000000000000000000000000000000000000000006044820152606401610b6f565b6060816132fb57505060408051808201909152600181527f3000000000000000000000000000000000000000000000000000000000000000602082015290565b8160005b8115613325578061330f81615cd0565b915061331e9050600a83615c79565b91506132ff565b60008167ffffffffffffffff81111561334e57634e487b7160e01b600052604160045260246000fd5b6040519080825280601f01601f191660200182016040528015613378576020820181803683370190505b5090505b84156134095761338d600183615c8d565b915061339a600a86615d29565b6133a5906030615c61565b60f81b8183815181106133c857634e487b7160e01b600052603260045260246000fd5b60200101907effffffffffffffffffffffffffffffffffffffffffffffffffffffffffffff1916908160001a905350613402600a86615c79565b945061337c565b949350505050565b600081516000141561342557506000919050565b506020015190565b6000613439838361521e565b9392505050565b6000613439836001600160a01b03841661521e565b6040517fb73dc389000000000000000000000000000000000000000000000000000000008152600481018290526001600160a01b0383169063b73dc38990602401600060405180830381600087803b1580156134b057600080fd5b505af11580156134c4573d6000803e3d6000fd5b50506040516317ba7d8560e01b81527fd3999c37f8f35da86f802a74f9bf032c4aeb46e49abd9c861f489ef4cb40d0a86004820152600092506001600160a01b03851691506317ba7d859060240160206040518083038186803b15801561352a57600080fd5b505afa15801561353e573d6000803e3d6000fd5b505050506040513d601f19601f820116820180604052508101906135629190615489565b604080516020810182526000815290517f26078cd00000000000000000000000000000000000000000000000000000000081529192506001600160a01b038316916326078cd0916135bc9187918791429190600401615b6f565b600060405180830381600087803b1580156135d657600080fd5b505af11580156135ea573d6000803e3d6000fd5b50506040517f815a2bf4000000000000000000000000000000000000000000000000000000008152600481018590526001600160a01b0384811660248301528616925063815a2bf49150604401600060405180830381600087803b15801561365157600080fd5b505af1158015613665573d6000803e3d6000fd5b50505050505050565b6001808201546001600160a01b0384169163da0f6c70917fcb1b85cff5456dffe0156522a7b50aa7e44ed692ccf353928d783aa10b41c2b69160ff9091161515146136ba5760006136bd565b60015b6040516001600160e01b031960e085901b168152600481019290925260ff166024820152604401600060405180830381600087803b1580156136fe57600080fd5b505af1158015613712573d6000803e3d6000fd5b50505050600181015460ff1615612946576001810154604051630da0f6c760e41b81527fc1b209168198eccc84193211efbd20aab87007db7285581e7b1e8ff3fe504fcd600482015261010090910460ff1660248201526001600160a01b0383169063da0f6c7090604401600060405180830381600087803b15801561379757600080fd5b505af11580156137ab573d6000803e3d6000fd5b505050506002810154604051630da0f6c760e41b81527fcc90045e39ac105dcebbf952dd5296ea6b2d31393f3eb9ef0a0ab3458d85d10f600482015260248101919091526001600160a01b0383169063da0f6c7090604401600060405180830381600087803b15801561381d57600080fd5b505af1158015613831573d6000803e3d6000fd5b505050506003810154604051631da7c90d60e11b81527f24ff71fc31a6b2be78a265ecbb78906acfd30d6b24357ca298e295b93087d9ea60048201526001600160a01b03918216602482015290831690633b4f921a90604401600060405180830381600087803b1580156138a457600080fd5b505af11580156138b8573d6000803e3d6000fd5b50505050600481810154604051630da0f6c760e41b81527fa2169a266a000b9ed910243e4e95f23d7d383448dfa96f2cfb3cd2ba907d6ed69281019290925260248201526001600160a01b0383169063da0f6c7090604401600060405180830381600087803b15801561392a57600080fd5b505af115801561393e573d6000803e3d6000fd5b505050506002810154604051630da0f6c760e41b81527f67bd12a003257b6f40dd27784916293c00a2b7414b0e8a8158c3aea267afcdfa600482015260248101919091526001600160a01b0383169063da0f6c7090604401600060405180830381600087803b1580156139b057600080fd5b505af11580156139c4573d6000803e3d6000fd5b5050825460009081526008602052604081209092506139e39150615205565b5190508015612e05576040516317ba7d8560e01b81527fd90e10040720d66c9412cb511e3dbb6ba51669248a7495e763d44ab426893efa60048201526000906001600160a01b038516906317ba7d859060240160206040518083038186803b158015613a4e57600080fd5b505afa158015613a62573d6000803e3d6000fd5b505050506040513d601f19601f82011682018060405250810190613a869190615489565b6040517f22c5c2cc0000000000000000000000000000000000000000000000000000000081526001600160a01b038681166004830152919250908216906322c5c2cc90602401600060405180830381600087803b158015613ae657600080fd5b505af1158015613afa573d6000803e3d6000fd5b5050505060005b828160ff1610156110bc57835460009081526008602052604090206001600160a01b03831690632e0bf27f908790613b3c9060ff8616615212565b6040516001600160e01b031960e085901b1681526001600160a01b03928316600482015291166024820152604401600060405180830381600087803b158015613b8457600080fd5b505af1158015613b98573d6000803e3d6000fd5b505050508080613ba790615d09565b915050613b01565b6005810154604051630da0f6c760e41b81527ff55ead1a20a1dd054d7b08c0efdba575e59f56a221996583f70c083bb98099b0600482015260248101919091526001600160a01b0383169063da0f6c7090604401600060405180830381600087803b158015613c1d57600080fd5b505af1158015613c31573d6000803e3d6000fd5b505050506006810154604051631da7c90d60e11b81527f16d062a637d36196ce6a1b18288a49d8cd909a7ba54b6e33ca16514e7412124860048201526001600160a01b03918216602482015290831690633b4f921a90604401600060405180830381600087803b158015613ca457600080fd5b505af1158015613cb8573d6000803e3d6000fd5b505050506007810154604051630da0f6c760e41b81527ff6242d1d39a1b19c05c52b0f7eb55673f7309c8d6b78dd23c2c3854758358048600482015260248101919091526001600160a01b0383169063da0f6c7090604401600060405180830381600087803b158015613d2a57600080fd5b505af1158015613d3e573d6000803e3d6000fd5b505050506008810154604051630da0f6c760e41b81527fb75eae231d9582c6afc6491273df4a0ffbccd48ab2c48dbce59e5d68f2d19dc4600482015260248101919091526001600160a01b0383169063da0f6c7090604401600060405180830381600087803b158015613db057600080fd5b505af1158015613dc4573d6000803e3d6000fd5b505050506001810154604051630da0f6c760e41b81527f561bc86bc227a0f760218574791a84f180f6f9f02be9519a1f99c14fce07a310600482015260248101919091526001600160a01b0383169063da0f6c7090604401600060405180830381600087803b158015613e3657600080fd5b505af1158015613e4a573d6000803e3d6000fd5b505050506002810154604051630da0f6c760e41b81527f8097540b5ab8a4c18e0b10cfbfd2c69e65e8da78f4f0485467006bafa3935964600482015260248101919091526001600160a01b0383169063da0f6c7090604401600060405180830381600087803b158015613ebc57600080fd5b505af1158015613ed0573d6000803e3d6000fd5b50505050600481810154604051630da0f6c760e41b81527f0324de13a5a6e302ddb95a9fdf81cc736fc8acee2abe558970daac27395904e79281019290925260248201526001600160a01b0383169063da0f6c7090604401600060405180830381600087803b158015613f4257600080fd5b505af1158015613f56573d6000803e3d6000fd5b505050506003810154604051630da0f6c760e41b81527fb4c601c38beae7eebb719eda3438f59fcbfd4c6dd7d38c00665b6fd5b432df32600482015260248101919091526001600160a01b0383169063da0f6c7090604401600060405180830381600087803b158015613fc857600080fd5b505af1158015613fdc573d6000803e3d6000fd5b505050506009810154604051630da0f6c760e41b81527f9876c0f0505bfb2b1c38d3bbd25ba13159172cd0868972d76927723f5a9480fc600482015260248101919091526001600160a01b0383169063da0f6c7090604401600060405180830381600087803b15801561404e57600080fd5b505af1158015614062573d6000803e3d6000fd5b50505050600a810154604051630da0f6c760e41b81527f02a3530cbb6e7c084516c86f68bd62c3e3fcd783c6c5d7e138616207f7a32250600482015260248101919091526001600160a01b0383169063da0f6c7090604401600060405180830381600087803b1580156140d457600080fd5b505af11580156140e8573d6000803e3d6000fd5b505082546000908152600a602052604081209092506141079150615205565b5190508015612e05576040516317ba7d8560e01b81527f1fa6846b165d822fff79e37c67625706652fa9380c2aa49fd513ce534cc72ed460048201526000906001600160a01b038516906317ba7d859060240160206040518083038186803b15801561417257600080fd5b505afa158015614186573d6000803e3d6000fd5b505050506040513d601f19601f820116820180604052508101906141aa9190615489565b905060005b828160ff1610156110bc5783546000908152600b602052604090206001600160a01b03831690635f15b1d99087906141ea9060ff8616615212565b87546000908152600a602052604090206142079060ff8716615212565b6040516001600160e01b031960e086901b1681526001600160a01b0393841660048201529290911660248301526044820152606401600060405180830381600087803b15801561425657600080fd5b505af115801561426a573d6000803e3d6000fd5b50505050808061427990615d09565b9150506141af565b6040516317ba7d8560e01b81527faaff643bdbd909f604d46ce015336f7e20fee3ac4a55cef3610188dee176c892600482015260009081906001600160a01b038516906317ba7d859060240160206040518083038186803b1580156142e557600080fd5b505afa1580156142f9573d6000803e3d6000fd5b505050506040513d601f19601f8201168201806040525081019061431d9190615489565b6040516317ba7d8560e01b81527fa837e34a29b67bf52f684a1c93def79b84b9c012732becee4e5df62809df64ed60048201529091506000906001600160a01b038616906317ba7d859060240160206040518083038186803b15801561438257600080fd5b505afa158015614396573d6000803e3d6000fd5b505050506040513d601f19601f820116820180604052508101906143ba9190615489565b6040516317ba7d8560e01b81527f1fa6846b165d822fff79e37c67625706652fa9380c2aa49fd513ce534cc72ed460048201529091506000906001600160a01b038716906317ba7d859060240160206040518083038186803b15801561441f57600080fd5b505afa158015614433573d6000803e3d6000fd5b505050506040513d601f19601f820116820180604052508101906144579190615489565b604051634941d71d60e11b81527ff55ead1a20a1dd054d7b08c0efdba575e59f56a221996583f70c083bb98099b060048201529091506000906001600160a01b03881690639283ae3a9060240160206040518083038186803b1580156144bc57600080fd5b505afa1580156144d0573d6000803e3d6000fd5b505050506040513d601f19601f820116820180604052508101906144f491906157da565b604051634941d71d60e11b81527fb75eae231d9582c6afc6491273df4a0ffbccd48ab2c48dbce59e5d68f2d19dc460048201529091506000906001600160a01b03891690639283ae3a9060240160206040518083038186803b15801561455957600080fd5b505afa15801561456d573d6000803e3d6000fd5b505050506040513d601f19601f8201168201806040525081019061459191906157da565b90508060011415614b9057604051634941d71d60e11b81527ff6242d1d39a1b19c05c52b0f7eb55673f7309c8d6b78dd23c2c385475835804860048201526000906001600160a01b038a1690639283ae3a9060240160206040518083038186803b1580156145fe57600080fd5b505afa158015614612573d6000803e3d6000fd5b505050506040513d601f19601f8201168201806040525081019061463691906157da565b6040517ffd310d290000000000000000000000000000000000000000000000000000000081527f16d062a637d36196ce6a1b18288a49d8cd909a7ba54b6e33ca16514e7412124860048201529091506000906001600160a01b038b169063fd310d299060240160206040518083038186803b1580156146b457600080fd5b505afa1580156146c8573d6000803e3d6000fd5b505050506040513d601f19601f820116820180604052508101906146ec9190615489565b905060008461478b576040516370a0823160e01b81526001600160a01b038b81166004830152670de0b6b3a764000091908416906370a08231906024015b60206040518083038186803b15801561474257600080fd5b505afa158015614756573d6000803e3d6000fd5b505050506040513d601f19601f8201168201806040525081019061477a91906157da565b6147849190615c79565b9050614b21565b846001141561480e576040516370a0823160e01b81526001600160a01b038b811660048301528316906370a08231906024015b60206040518083038186803b1580156147d657600080fd5b505afa1580156147ea573d6000803e3d6000fd5b505050506040513d601f19601f8201168201806040525081019061478491906157da565b8460021415614863576040517efdd58e0000000000000000000000000000000000000000000000000000000081526001600160a01b038b811660048301526024820185905283169062fdd58e906044016147be565b84600314156148bb576040517fa6d945cc0000000000000000000000000000000000000000000000000000000081526001600160a01b038c811660048301528b8116602483015287169063a6d945cc906044016147be565b8460041415614b105760026040516301ee1a2b60e41b81526001600160a01b038d811660048301528a1690631ee1a2b09060240160206040518083038186803b15801561490757600080fd5b505afa15801561491b573d6000803e3d6000fd5b505050506040513d601f19601f8201168201806040525081019061493f919061575a565b600381111561495e57634e487b7160e01b600052602160045260246000fd5b148015614a005750604051634941d71d60e11b81527f9ce69cf04065e3c7823cc5540c0598d8a694bd7a9a5a2a786d8bccf14ed6e2ea60048201526001600160a01b038c1690639283ae3a9060240160206040518083038186803b1580156149c557600080fd5b505afa1580156149d9573d6000803e3d6000fd5b505050506040513d601f19601f820116820180604052508101906149fd91906157da565b42105b8015614aa057506040517f4fc0a76d0000000000000000000000000000000000000000000000000000000081526001600160a01b038c8116600483015260019190891690634fc0a76d9060240160206040518083038186803b158015614a6557600080fd5b505afa158015614a79573d6000803e3d6000fd5b505050506040513d601f19601f82011682018060405250810190614a9d91906157da565b10155b15614aff576040517ff7888aec0000000000000000000000000000000000000000000000000000000081526001600160a01b038c811660048301528b81166024830152670de0b6b3a764000091908a169063f7888aec9060440161472a565b600198505050505050505050612935565b600098505050505050505050612935565b60008111614b3a57600098505050505050505050612935565b677fffffffffffffff8110614b5a57603298505050505050505050612935565b6000614b75614b70614b6b8461526d565b61528b565b61538d565b67ffffffffffffffff16995061293598505050505050505050565b8060021415614ba757600195505050505050612935565b8061511e57604051634941d71d60e11b81527ff6242d1d39a1b19c05c52b0f7eb55673f7309c8d6b78dd23c2c385475835804860048201526000906001600160a01b038a1690639283ae3a9060240160206040518083038186803b158015614c0e57600080fd5b505afa158015614c22573d6000803e3d6000fd5b505050506040513d601f19601f82011682018060405250810190614c4691906157da565b6040517ffd310d290000000000000000000000000000000000000000000000000000000081527f16d062a637d36196ce6a1b18288a49d8cd909a7ba54b6e33ca16514e7412124860048201529091506000906001600160a01b038b169063fd310d299060240160206040518083038186803b158015614cc457600080fd5b505afa158015614cd8573d6000803e3d6000fd5b505050506040513d601f19601f82011682018060405250810190614cfc9190615489565b9050600084614d9b576040516370a0823160e01b81526001600160a01b038b81166004830152670de0b6b3a764000091908416906370a08231906024015b60206040518083038186803b158015614d5257600080fd5b505afa158015614d66573d6000803e3d6000fd5b505050506040513d601f19601f82011682018060405250810190614d8a91906157da565b614d949190615c79565b905061510f565b8460011415614e1e576040516370a0823160e01b81526001600160a01b038b811660048301528316906370a08231906024015b60206040518083038186803b158015614de657600080fd5b505afa158015614dfa573d6000803e3d6000fd5b505050506040513d601f19601f82011682018060405250810190614d9491906157da565b8460021415614e73576040517efdd58e0000000000000000000000000000000000000000000000000000000081526001600160a01b038b811660048301526024820185905283169062fdd58e90604401614dce565b8460031415614ecb576040517fa6d945cc0000000000000000000000000000000000000000000000000000000081526001600160a01b038c811660048301528b8116602483015287169063a6d945cc90604401614dce565b8460041415614b105760026040516301ee1a2b60e41b81526001600160a01b038d811660048301528a1690631ee1a2b09060240160206040518083038186803b158015614f1757600080fd5b505afa158015614f2b573d6000803e3d6000fd5b505050506040513d601f19601f82011682018060405250810190614f4f919061575a565b6003811115614f6e57634e487b7160e01b600052602160045260246000fd5b1480156150105750604051634941d71d60e11b81527f9ce69cf04065e3c7823cc5540c0598d8a694bd7a9a5a2a786d8bccf14ed6e2ea60048201526001600160a01b038c1690639283ae3a9060240160206040518083038186803b158015614fd557600080fd5b505afa158015614fe9573d6000803e3d6000fd5b505050506040513d601f19601f8201168201806040525081019061500d91906157da565b42105b80156150b057506040517f4fc0a76d0000000000000000000000000000000000000000000000000000000081526001600160a01b038c8116600483015260019190891690634fc0a76d9060240160206040518083038186803b15801561507557600080fd5b505afa158015615089573d6000803e3d6000fd5b505050506040513d601f19601f820116820180604052508101906150ad91906157da565b10155b15614aff576040517ff7888aec0000000000000000000000000000000000000000000000000000000081526001600160a01b038c811660048301528b81166024830152670de0b6b3a764000091908a169063f7888aec90604401614d3a565b97506129359650505050505050565b600095505050505050612935565b8160200151156151ca5781606001516001600160a01b0316635e5eb01384835a86516151589190615c8d565b60408088015190516001600160e01b031960e087901b1681526001600160a01b03948516600482015293909216602484015260448301526064820152608401600060405180830381600087803b1580156151b157600080fd5b505af11580156151c5573d6000803e3d6000fd5b505050505b826001600160a01b031663d4f7af436040518163ffffffff1660e01b8152600401600060405180830381600087803b15801561365157600080fd5b60606000613439836153a9565b60006134398383615405565b600081815260018301602052604081205461526557508154600181810184556000848152602080822090930184905584548482528286019093526040902091909155612935565b506000612935565b6000677fffffffffffffff82111561528457600080fd5b5060401b90565b60008082600f0b1361529c57600080fd5b6000600f83900b6801000000000000000081126152bb576040918201911d5b64010000000081126152cf576020918201911d5b6201000081126152e1576010918201911d5b61010081126152f2576008918201911d5b60108112615302576004918201911d5b60048112615312576002918201911d5b60028112615321576001820191505b7fffffffffffffffffffffffffffffffffffffffffffffffffffffffffffffffc0820160401b600f85900b607f8490031b6780000000000000005b60008113156153825790800260ff81901c8281029390930192607f011c9060011d61535c565b509095945050505050565b60008082600f0b121561539f57600080fd5b50600f0b60401d90565b6060816000018054806020026020016040519081016040528092919081815260200182805480156153f957602002820191906000526020600020905b8154815260200190600101908083116153e5575b50505050509050919050565b600082600001828154811061542a57634e487b7160e01b600052603260045260246000fd5b9060005260206000200154905092915050565b805161544881615da0565b919050565b80516fffffffffffffffffffffffffffffffff8116811461544857600080fd5b60006020828403121561547e578081fd5b813561343981615da0565b60006020828403121561549a578081fd5b815161343981615da0565b600080604083850312156154b7578081fd5b82356154c281615da0565b946020939093013593505050565b600060208083850312156154e2578182fd5b825167ffffffffffffffff808211156154f9578384fd5b818501915085601f83011261550c578384fd5b81518181111561551e5761551e615d69565b8060051b604051601f19603f8301168101818110858211171561554357615543615d69565b604052828152858101935084860182860187018a1015615561578788fd5b8795505b8386101561558a576155768161543d565b855260019590950194938601938601615565565b5098975050505050505050565b6000602082840312156155a8578081fd5b815161343981615db5565b600080604083850312156155c5578182fd5b82516155d081615db5565b6020939093015192949293505050565b6000806000606084860312156155f4578081fd5b83356155ff81615da0565b9250602084013561560f81615db5565b929592945050506040919091013590565b60008060008060008060008060e0898b03121561563b578384fd5b883561564681615da0565b9750602089013561565681615db5565b9650604089013560ff8116811461566b578485fd5b955060608901359450608089013561568281615da0565b935060a0890135925060c089013567ffffffffffffffff808211156156a5578384fd5b818b0191508b601f8301126156b8578384fd5b8135818111156156c6578485fd5b8c60208260051b85010111156156da578485fd5b6020830194508093505050509295985092959890939650565b600080604083850312156154b7578182fd5b60008060408385031215615717578182fd5b823561572281615da0565b9150602083013567ffffffffffffffff81111561573d578182fd5b8301610180818603121561574f578182fd5b809150509250929050565b60006020828403121561576b578081fd5b815160048110613439578182fd5b60008060006060848603121561578d578081fd5b83516006811061579b578182fd5b92506157a96020850161544d565b91506157b76040850161544d565b90509250925092565b6000602082840312156157d1578081fd5b6134398261544d565b6000602082840312156157eb578081fd5b5051919050565b7fffffffffffffffff000000000000000000000000000000000000000000000000831681527f766f74696e67230000000000000000000000000000000000000000000000000060088201526000825161585281600f850160208701615ca4565b91909101600f019392505050565b7fffffffffffffffff000000000000000000000000000000000000000000000000831681527f476f7665726e6f722d4d656d62657273686970230000000000000000000000006008820152600082516158c081601c850160208701615ca4565b91909101601c019392505050565b7fffffffffffffffff000000000000000000000000000000000000000000000000831681527f5061727469636970616e742d436170230000000000000000000000000000000060088201526000825161592e816018850160208701615ca4565b919091016018019392505050565b7fffffffffffffffff000000000000000000000000000000000000000000000000831681527f496e766573746f722d4d656d62657273686970230000000000000000000000006008820152600082516158c081601c850160208701615ca4565b6001600160a01b03881681526020810187905260e081016159bc87615d7f565b604082019690965260608101949094526fffffffffffffffffffffffffffffffff928316608085015290821660a08401521660c09091015292915050565b6001600160a01b03841681526020810183905260608101615a1a83615d7f565b826040830152949350505050565b600060c0820190508782528615156020830152856040830152846060830152836080830152615a5683615d7f565b8260a0830152979650505050505050565b6000610120820190508a8252891515602083015260ff891660408301528760608301526001600160a01b03871660808301528560a08301528460c08301528360e0830152615ab483615d7f565b826101008301529a9950505050505050505050565b8581526101c08101615aff6020830187805182526020810151602083015260408101516040830152606081015160608301525050565b845160a08301526020808601516001600160a01b031660c084015260408087015160e0850152606080880151610100860152865161012086015291860151610140850152850151610160840152840151610180830152615b5e83615d7f565b826101a08301529695505050505050565b6001600160a01b03851681528360208201528260408201526080606082015260008251806080840152615ba98160a0850160208701615ca4565b601f01601f19169190910160a00195945050505050565b60008083357fffffffffffffffffffffffffffffffffffffffffffffffffffffffffffffffe1843603018112615bf4578283fd5b83018035915067ffffffffffffffff821115615c0e578283fd5b6020019150600581901b3603821315615c2657600080fd5b9250929050565b60006fffffffffffffffffffffffffffffffff808316818516808303821115615c5857615c58615d3d565b01949350505050565b60008219821115615c7457615c74615d3d565b500190565b600082615c8857615c88615d53565b500490565b600082821015615c9f57615c9f615d3d565b500390565b60005b83811015615cbf578181015183820152602001615ca7565b838111156107eb5750506000910152565b60007fffffffffffffffffffffffffffffffffffffffffffffffffffffffffffffffff821415615d0257615d02615d3d565b5060010190565b600060ff821660ff811415615d2057615d20615d3d565b60010192915050565b600082615d3857615d38615d53565b500690565b634e487b7160e01b600052601160045260246000fd5b634e487b7160e01b600052601260045260246000fd5b634e487b7160e01b600052604160045260246000fd5b60048110615d9d57634e487b7160e01b600052602160045260246000fd5b50565b6001600160a01b0381168114615d9d57600080fd5b8015158114615d9d57600080fdfea26469706673582212207c95820bd4e1efa3e649dd5a69e4bebb62708a8827401407c17a6ea467a1c78064736f6c63430008040033",
  "linkReferences": {},
  "deployedLinkReferences": {}
}