{
  "_format": "hh-sol-artifact-1",
  "contractName": "VintageFundingPoolAdapterContract",
  "sourceName": "contracts/vintage/adapters/VintageFundingPoolAdapter.sol",
  "abi": [
    {
      "inputs": [],
      "name": "MAX_PATICIPANT_AMOUNT_REACH",
      "type": "error"
    },
    {
      "anonymous": false,
      "inputs": [
        {
          "indexed": false,
          "internalType": "address",
          "name": "dao",
          "type": "address"
        },
        {
          "indexed": false,
          "internalType": "uint256",
          "name": "amount",
          "type": "uint256"
        },
        {
          "indexed": false,
          "internalType": "address",
          "name": "executor",
          "type": "address"
        }
      ],
      "name": "ClearFund",
      "type": "event"
    },
    {
      "anonymous": false,
      "inputs": [
        {
          "indexed": false,
          "internalType": "address",
          "name": "daoAddress",
          "type": "address"
        },
        {
          "indexed": false,
          "internalType": "uint256",
          "name": "amount",
          "type": "uint256"
        },
        {
          "indexed": false,
          "internalType": "address",
          "name": "account",
          "type": "address"
        }
      ],
      "name": "Deposit",
      "type": "event"
    },
    {
      "anonymous": false,
      "inputs": [
        {
          "indexed": false,
          "internalType": "address",
          "name": "oldOwner",
          "type": "address"
        },
        {
          "indexed": false,
          "internalType": "address",
          "name": "newOwner",
          "type": "address"
        }
      ],
      "name": "OwnerChanged",
      "type": "event"
    },
    {
      "anonymous": false,
      "inputs": [
        {
          "indexed": false,
          "internalType": "address",
          "name": "dao",
          "type": "address"
        },
        {
          "indexed": false,
          "internalType": "uint256",
          "name": "fundRound",
          "type": "uint256"
        },
        {
          "indexed": false,
          "internalType": "uint256",
          "name": "fundRaiseState",
          "type": "uint256"
        },
        {
          "indexed": false,
          "internalType": "uint256",
          "name": "fundRaisedAmount",
          "type": "uint256"
        }
      ],
      "name": "ProcessFundRaise",
      "type": "event"
    },
    {
      "anonymous": false,
      "inputs": [
        {
          "indexed": false,
          "internalType": "uint256",
          "name": "timestamp",
          "type": "uint256"
        },
        {
          "indexed": false,
          "internalType": "address",
          "name": "account",
          "type": "address"
        },
        {
          "indexed": false,
          "internalType": "uint256",
          "name": "redempAmount",
          "type": "uint256"
        },
        {
          "indexed": false,
          "internalType": "uint256",
          "name": "redemptionFee",
          "type": "uint256"
        }
      ],
      "name": "RedeptionFeeCharged",
      "type": "event"
    },
    {
      "anonymous": false,
      "inputs": [
        {
          "indexed": false,
          "internalType": "address",
          "name": "daoAddress",
          "type": "address"
        },
        {
          "indexed": false,
          "internalType": "uint256",
          "name": "amount",
          "type": "uint256"
        },
        {
          "indexed": false,
          "internalType": "address",
          "name": "account",
          "type": "address"
        }
      ],
      "name": "WithDraw",
      "type": "event"
    },
    {
      "inputs": [
        {
          "internalType": "contract DaoRegistry",
          "name": "dao",
          "type": "address"
        },
        {
          "internalType": "address",
          "name": "investorAddr",
          "type": "address"
        }
      ],
      "name": "balanceOf",
      "outputs": [
        {
          "internalType": "uint256",
          "name": "",
          "type": "uint256"
        }
      ],
      "stateMutability": "view",
      "type": "function"
    },
    {
      "inputs": [
        {
          "internalType": "contract DaoRegistry",
          "name": "dao",
          "type": "address"
        }
      ],
      "name": "clearFund",
      "outputs": [],
      "stateMutability": "nonpayable",
      "type": "function"
    },
    {
      "inputs": [
        {
          "internalType": "contract DaoRegistry",
          "name": "dao",
          "type": "address"
        },
        {
          "internalType": "uint32",
          "name": "quorum",
          "type": "uint32"
        },
        {
          "internalType": "uint32",
          "name": "superMajority",
          "type": "uint32"
        }
      ],
      "name": "configureDao",
      "outputs": [],
      "stateMutability": "nonpayable",
      "type": "function"
    },
    {
      "inputs": [
        {
          "internalType": "address",
          "name": "",
          "type": "address"
        }
      ],
      "name": "daoFundRaisingStates",
      "outputs": [
        {
          "internalType": "enum DaoHelper.FundRaiseState",
          "name": "",
          "type": "uint8"
        }
      ],
      "stateMutability": "view",
      "type": "function"
    },
    {
      "inputs": [
        {
          "internalType": "contract DaoRegistry",
          "name": "dao",
          "type": "address"
        },
        {
          "internalType": "uint256",
          "name": "amount",
          "type": "uint256"
        }
      ],
      "name": "deposit",
      "outputs": [],
      "stateMutability": "nonpayable",
      "type": "function"
    },
    {
      "inputs": [
        {
          "internalType": "address",
          "name": "",
          "type": "address"
        },
        {
          "internalType": "bytes32",
          "name": "",
          "type": "bytes32"
        }
      ],
      "name": "freeINPriorityDeposits",
      "outputs": [
        {
          "internalType": "uint256",
          "name": "",
          "type": "uint256"
        }
      ],
      "stateMutability": "view",
      "type": "function"
    },
    {
      "inputs": [
        {
          "internalType": "contract DaoRegistry",
          "name": "dao",
          "type": "address"
        },
        {
          "internalType": "uint256",
          "name": "fundRound",
          "type": "uint256"
        }
      ],
      "name": "getCommonInvestors",
      "outputs": [
        {
          "internalType": "address[]",
          "name": "",
          "type": "address[]"
        }
      ],
      "stateMutability": "view",
      "type": "function"
    },
    {
      "inputs": [
        {
          "internalType": "contract DaoRegistry",
          "name": "dao",
          "type": "address"
        },
        {
          "internalType": "uint256",
          "name": "fundRound",
          "type": "uint256"
        }
      ],
      "name": "getFundInvestors",
      "outputs": [
        {
          "internalType": "address[]",
          "name": "",
          "type": "address[]"
        }
      ],
      "stateMutability": "view",
      "type": "function"
    },
    {
      "inputs": [
        {
          "internalType": "contract DaoRegistry",
          "name": "dao",
          "type": "address"
        }
      ],
      "name": "getInvestorMembershipWhiteList",
      "outputs": [
        {
          "internalType": "address[]",
          "name": "",
          "type": "address[]"
        }
      ],
      "stateMutability": "view",
      "type": "function"
    },
    {
      "inputs": [
        {
          "internalType": "contract DaoRegistry",
          "name": "dao",
          "type": "address"
        },
        {
          "internalType": "uint256",
          "name": "timeStamp",
          "type": "uint256"
        }
      ],
      "name": "ifInRedemptionPeriod",
      "outputs": [
        {
          "internalType": "bool",
          "name": "",
          "type": "bool"
        }
      ],
      "stateMutability": "view",
      "type": "function"
    },
    {
      "inputs": [
        {
          "internalType": "contract DaoRegistry",
          "name": "dao",
          "type": "address"
        },
        {
          "internalType": "address",
          "name": "account",
          "type": "address"
        }
      ],
      "name": "ifInvestorMembershipWhiteList",
      "outputs": [
        {
          "internalType": "bool",
          "name": "",
          "type": "bool"
        }
      ],
      "stateMutability": "view",
      "type": "function"
    },
    {
      "inputs": [
        {
          "internalType": "contract DaoRegistry",
          "name": "dao",
          "type": "address"
        },
        {
          "internalType": "address",
          "name": "_addr",
          "type": "address"
        }
      ],
      "name": "isActiveMember",
      "outputs": [
        {
          "internalType": "bool",
          "name": "",
          "type": "bool"
        }
      ],
      "stateMutability": "view",
      "type": "function"
    },
    {
      "inputs": [
        {
          "internalType": "contract DaoRegistry",
          "name": "dao",
          "type": "address"
        }
      ],
      "name": "poolBalance",
      "outputs": [
        {
          "internalType": "uint256",
          "name": "",
          "type": "uint256"
        }
      ],
      "stateMutability": "view",
      "type": "function"
    },
    {
      "inputs": [
        {
          "internalType": "contract DaoRegistry",
          "name": "dao",
          "type": "address"
        }
      ],
      "name": "processFundRaise",
      "outputs": [
        {
          "internalType": "bool",
          "name": "",
          "type": "bool"
        }
      ],
      "stateMutability": "nonpayable",
      "type": "function"
    },
    {
      "inputs": [],
      "name": "protocolFee",
      "outputs": [
        {
          "internalType": "uint256",
          "name": "",
          "type": "uint256"
        }
      ],
      "stateMutability": "view",
      "type": "function"
    },
    {
      "inputs": [
        {
          "internalType": "contract DaoRegistry",
          "name": "dao",
          "type": "address"
        }
      ],
      "name": "raiserBalance",
      "outputs": [
        {
          "internalType": "uint256",
          "name": "",
          "type": "uint256"
        }
      ],
      "stateMutability": "view",
      "type": "function"
    },
    {
      "inputs": [
        {
          "internalType": "contract DaoRegistry",
          "name": "dao",
          "type": "address"
        },
        {
          "internalType": "address",
          "name": "account",
          "type": "address"
        }
      ],
      "name": "registerInvestorWhiteList",
      "outputs": [],
      "stateMutability": "nonpayable",
      "type": "function"
    },
    {
      "inputs": [
        {
          "internalType": "contract DaoRegistry",
          "name": "dao",
          "type": "address"
        }
      ],
      "name": "resetFundRaiseState",
      "outputs": [],
      "stateMutability": "nonpayable",
      "type": "function"
    },
    {
      "inputs": [
        {
          "internalType": "contract DaoRegistry",
          "name": "dao",
          "type": "address"
        },
        {
          "internalType": "uint256",
          "name": "feeProtocol",
          "type": "uint256"
        }
      ],
      "name": "setProtocolFee",
      "outputs": [],
      "stateMutability": "nonpayable",
      "type": "function"
    },
    {
      "inputs": [
        {
          "internalType": "contract DaoRegistry",
          "name": "dao",
          "type": "address"
        },
        {
          "internalType": "uint256",
          "name": "amount",
          "type": "uint256"
        }
      ],
      "name": "withdraw",
      "outputs": [],
      "stateMutability": "nonpayable",
      "type": "function"
    }
  ],
  "bytecode": "0x6080604052660aa87bee53800060015534801561001b57600080fd5b50615d2a806200002c6000396000f3fe608060405234801561001057600080fd5b506004361061016c5760003560e01c8063861f6752116100cd578063b5b3ca2c11610081578063f10e6b6b11610066578063f10e6b6b14610315578063f3fef3a314610328578063f7888aec1461033b57600080fd5b8063b5b3ca2c146102ef578063e8bf5d311461030257600080fd5b806396609c42116100b257806396609c42146102c0578063ac7e7eba146102d3578063b0e21e8a146102e657600080fd5b8063861f6752146102825780638ecf7720146102ad57600080fd5b80633e1d6ed81161012457806368395f3f1161010957806368395f3f1461023b57806368abb5e01461024e57806383cffffe1461026f57600080fd5b80633e1d6ed81461021557806347e7ef241461022857600080fd5b80631ee1a2b0116101555780631ee1a2b0146101af5780632b305bbb146101df5780633a844ec0146101f257600080fd5b8063075724cf146101715780631d729e6114610186575b600080fd5b61018461017f366004615b2c565b61034e565b005b61019961019436600461595b565b610446565b6040516101a69190615b8f565b60405180910390f35b6101d26101bd36600461595b565b60006020819052908152604090205460ff1681565b6040516101a69190615bdc565b6101996101ed366004615b1a565b610470565b610205610200366004615b1a565b6104a6565b60405190151581526020016101a6565b610199610223366004615b1a565b6107f7565b610184610236366004615b1a565b610826565b610205610249366004615ae2565b611f75565b61026161025c36600461595b565b611f97565b6040519081526020016101a6565b61018461027d36600461595b565b6120b0565b610261610290366004615993565b600560209081526000928352604080842090915290825290205481565b6102056102bb366004615ae2565b612ab7565b6102056102ce36600461595b565b612b34565b6101846102e1366004615ae2565b612ed6565b61026160015481565b6101846102fd366004615b1a565b612f29565b61026161031036600461595b565b6130e4565b61018461032336600461595b565b6131b1565b610184610336366004615b1a565b6132f2565b610261610349366004615ae2565b613f87565b6040517f68c18beb00000000000000000000000000000000000000000000000000000000815233600482015283906001600160a01b038216906368c18beb9060240160206040518083038186803b1580156103a857600080fd5b505afa1580156103bc573d6000803e3d6000fd5b505050506040513d601f19601f820116820180604052508101906103e09190615a85565b806103ef57506103ef816140a8565b6104405760405162461bcd60e51b815260206004820152600b60248201527f6f6e6c794164617074657200000000000000000000000000000000000000000060448201526064015b60405180910390fd5b50505050565b6001600160a01b038116600090815260026020526040902060609061046a906142c8565b92915050565b6001600160a01b0382166000908152600460209081526040808320848452909152902060609061049f906142c8565b9392505050565b604051634941d71d60e11b81527fd99dae5492aa0c08830764a319f29225cc739a0ed8683d8fd1b5bc3a8fe31672600482015260009081906001600160a01b03851690639283ae3a9060240160206040518083038186803b15801561050a57600080fd5b505afa15801561051e573d6000803e3d6000fd5b505050506040513d601f19601f820116820180604052508101906105429190615aca565b604051634941d71d60e11b81527f9ce69cf04065e3c7823cc5540c0598d8a694bd7a9a5a2a786d8bccf14ed6e2ea60048201529091506000906001600160a01b03861690639283ae3a9060240160206040518083038186803b1580156105a757600080fd5b505afa1580156105bb573d6000803e3d6000fd5b505050506040513d601f19601f820116820180604052508101906105df9190615aca565b604051634941d71d60e11b81527f6a2acfe6164f3ec20e6d80e2f4e4f7ae2b9962615c9596c872d01f6cd244aed360048201529091506000906001600160a01b03871690639283ae3a9060240160206040518083038186803b15801561064457600080fd5b505afa158015610658573d6000803e3d6000fd5b505050506040513d601f19601f8201168201806040525081019061067c9190615aca565b604051634941d71d60e11b81527f2305fa3a9f84625f75d70f539e621c658cf49e7477ab5af9cacd278ca7904e3060048201529091506000906001600160a01b03881690639283ae3a9060240160206040518083038186803b1580156106e157600080fd5b505afa1580156106f5573d6000803e3d6000fd5b505050506040513d601f19601f820116820180604052508101906107199190615aca565b905060006107278585615c79565b9050821580610734575081155b8061073d575080155b156107505760009550505050505061046a565b600061075c8383615c1c565b905060008060005b8381116107e55782156107805761077b8684615c04565b61078a565b61078a868a615c04565b92506107968784615c79565b9150818b1180156107a65750828b105b80156107b15750888b115b80156107bc5750878b105b156107d3576001995050505050505050505061046a565b6107de600182615c04565b9050610764565b5060009b9a5050505050505050505050565b6001600160a01b0382166000908152600360209081526040808320848452909152902060609061049f906142c8565b816000610832826142d5565b604051634941d71d60e11b81527f1405d0156cf64c805704fdf6691baebfcfa0d409ea827c231693ff0581b0b7776004820152909150849033906001600160a01b03831690639283ae3a9060240160206040518083038186803b15801561089857600080fd5b505afa1580156108ac573d6000803e3d6000fd5b505050506040513d601f19601f820116820180604052508101906108d09190615aca565b60011415610ef857604051634941d71d60e11b81527f80140cd7e0b1d935bee578a67a41547c82987de8e7d6b3827d411b738110258b60048201526000906001600160a01b03841690639283ae3a9060240160206040518083038186803b15801561093a57600080fd5b505afa15801561094e573d6000803e3d6000fd5b505050506040513d601f19601f820116820180604052508101906109729190615aca565b6040517ffd310d290000000000000000000000000000000000000000000000000000000081527fe373ab56628c86db3f0e36774c2c5e0393f9272ff5c976bc3f0db2db60cdbc1460048201529091506000906001600160a01b0385169063fd310d299060240160206040518083038186803b1580156109f057600080fd5b505afa158015610a04573d6000803e3d6000fd5b505050506040513d601f19601f82011682018060405250810190610a289190615977565b604051634941d71d60e11b81527f04ecaf460eb9f82aeb70035e3f24c18a3650fa0da9ddbe7e63d70de659b9b90160048201529091506000906001600160a01b03861690639283ae3a9060240160206040518083038186803b158015610a8d57600080fd5b505afa158015610aa1573d6000803e3d6000fd5b505050506040513d601f19601f82011682018060405250810190610ac59190615aca565b604051634941d71d60e11b81527f6cb5bc3796b0717ca4ff665886c96fb0178d6341366eb7b6c737fe79083b836a60048201529091506000906001600160a01b03871690639283ae3a9060240160206040518083038186803b158015610b2a57600080fd5b505afa158015610b3e573d6000803e3d6000fd5b505050506040513d601f19601f82011682018060405250810190610b629190615aca565b905083610c5e576040516370a0823160e01b81526001600160a01b0386811660048301528391908516906370a082319060240160206040518083038186803b158015610bad57600080fd5b505afa158015610bc1573d6000803e3d6000fd5b505050506040513d601f19601f82011682018060405250810190610be59190615aca565b1015610c595760405162461bcd60e51b815260206004820152603d60248201527f56696e74616765204465706f7369743a3a646f6e74206d656574206d696e206560448201527f7263323020746f6b656e20686f6c64696e67207265717569726d656e740000006064820152608401610437565b610ef3565b8360011415610d57576040516370a0823160e01b81526001600160a01b0386811660048301528391908516906370a082319060240160206040518083038186803b158015610cab57600080fd5b505afa158015610cbf573d6000803e3d6000fd5b505050506040513d601f19601f82011682018060405250810190610ce39190615aca565b1015610c595760405162461bcd60e51b815260206004820152603d60248201527f56696e74616765204465706f7369743a646f6e74206d656574206d696e20657260448201527f6337323120746f6b656e20686f6c64696e67207265717569726d656e740000006064820152608401610437565b8360021415610e6e576040517efdd58e0000000000000000000000000000000000000000000000000000000081526001600160a01b0386811660048301526024820183905283919085169062fdd58e9060440160206040518083038186803b158015610dc257600080fd5b505afa158015610dd6573d6000803e3d6000fd5b505050506040513d601f19601f82011682018060405250810190610dfa9190615aca565b1015610c595760405162461bcd60e51b815260206004820152603e60248201527f56696e74616765204465706f7369743a646f6e74206d656574206d696e20657260448201527f633131353520746f6b656e20686f6c64696e67207265717569726d656e7400006064820152608401610437565b8360031415610ef357610e818686611f75565b610c595760405162461bcd60e51b815260206004820152602260248201527f56696e74616765204465706f7369743a3a206e6f7420696e2077686974656c6960448201527f73740000000000000000000000000000000000000000000000000000000000006064820152608401610437565b505050505b60008511610f485760405162461bcd60e51b815260206004820152600760248201527f21616d6f756e74000000000000000000000000000000000000000000000000006044820152606401610437565b610f936040518060c0016040528060008152602001600081526020016000815260200160006001600160a01b0316815260200160006001600160a01b03168152602001600081525090565b604051634941d71d60e11b81527f5fa39c8100b49336846e52d39403e353bf782275f905a885f09224779ff1c92460048201526001600160a01b03881690639283ae3a9060240160206040518083038186803b158015610ff257600080fd5b505afa158015611006573d6000803e3d6000fd5b505050506040513d601f19601f8201168201806040525081019061102a9190615aca565b8152604051634941d71d60e11b81527fbdd40865e74210f0a46799ae63462c62010da92014a08cbc32f1d049d0a22c6b60048201526001600160a01b03881690639283ae3a9060240160206040518083038186803b15801561108b57600080fd5b505afa15801561109f573d6000803e3d6000fd5b505050506040513d601f19601f820116820180604052508101906110c39190615aca565b6020820152604051634941d71d60e11b81527f7e07fb4530796d057ca1d76d83f47aa8629dbb7e942ac28f30ad6f5e9e8d418960048201526001600160a01b03881690639283ae3a9060240160206040518083038186803b15801561112757600080fd5b505afa15801561113b573d6000803e3d6000fd5b505050506040513d601f19601f8201168201806040525081019061115f9190615aca565b60408201526020810151156111c25780602001518610156111c25760405162461bcd60e51b815260206004820152601460248201527f3c206d696e206465706f73697420616d6f756e740000000000000000000000006044820152606401610437565b80511561122d5780516111d58833613f87565b6111df9088615c04565b111561122d5760405162461bcd60e51b815260206004820152601460248201527f3e206d6178206465706f73697420616d6f756e740000000000000000000000006044820152606401610437565b604051634941d71d60e11b81527fbd04d44792b7dbfe3b50b0f9f2006f7ef449e374a39021cb9bfa7cd0bdd850d7600482015242906001600160a01b03891690639283ae3a9060240160206040518083038186803b15801561128e57600080fd5b505afa1580156112a2573d6000803e3d6000fd5b505050506040513d601f19601f820116820180604052508101906112c69190615aca565b1080156113695750604051634941d71d60e11b81527f533afc15b6312917b5e28e2272ea69d44e5ea8e00d3bd57cada1275c2f14c9e8600482015242906001600160a01b03891690639283ae3a9060240160206040518083038186803b15801561132f57600080fd5b505afa158015611343573d6000803e3d6000fd5b505050506040513d601f19601f820116820180604052508101906113679190615aca565b115b6113b55760405162461bcd60e51b815260206004820152601360248201527f2166756e6472616973696e672077696e646f77000000000000000000000000006044820152606401610437565b604051634941d71d60e11b81527fbe07eea886ce63e8ab49ef6fd986e9dea247fbb31da43dd1df3e153cc548277a60048201526001600160a01b03881690639283ae3a9060240160206040518083038186803b15801561141457600080fd5b505afa158015611428573d6000803e3d6000fd5b505050506040513d601f19601f8201168201806040525081019061144c9190615aca565b15801561145d575060008160400151115b156114c95780604001518661147189611f97565b61147b9190615c04565b11156114c95760405162461bcd60e51b815260206004820152601660248201527f3e2046756e647261697365206d617820616d6f756e74000000000000000000006044820152606401610437565b604051632c9f4b5b60e11b81527f161fca6912f107b0f13c9c7275de7391b32d2ea1c52ffba65a3c961880a0c60f60048201526001600160a01b0388169063593e96b69060240160206040518083038186803b15801561152857600080fd5b505afa15801561153c573d6000803e3d6000fd5b505050506040513d601f19601f820116820180604052508101906115609190615977565b6001600160a01b0390811660608301526040516317ba7d8560e01b81527fa837e34a29b67bf52f684a1c93def79b84b9c012732becee4e5df62809df64ed6004820152908816906317ba7d859060240160206040518083038186803b1580156115c857600080fd5b505afa1580156115dc573d6000803e3d6000fd5b505050506040513d601f19601f820116820180604052508101906116009190615977565b6001600160a01b0390811660808301819052604051634fc0a76d60e01b8152918916600483015290634fc0a76d9060240160206040518083038186803b15801561164957600080fd5b505afa15801561165d573d6000803e3d6000fd5b505050506040513d601f19601f820116820180604052508101906116819190615aca565b60a0820152604051634941d71d60e11b81527f0a71373d28d4b40b0bb46f8d58468f2e51292d10cf26715a0e3d8624b60c8a4260048201526001600160a01b03881690639283ae3a9060240160206040518083038186803b1580156116e557600080fd5b505afa1580156116f9573d6000803e3d6000fd5b505050506040513d601f19601f8201168201806040525081019061171d9190615aca565b60011480156117f15750604051634941d71d60e11b81527faf0b46df030af159303b75690e740674df8434270d3b7248b0280f3d63a2dd8b60048201526001600160a01b03881690639283ae3a9060240160206040518083038186803b15801561178657600080fd5b505afa15801561179a573d6000803e3d6000fd5b505050506040513d601f19601f820116820180604052508101906117be9190615aca565b6001600160a01b038816600090815260046020908152604080832060a0860151845290915290206117ee906145a0565b10155b801561182b57506001600160a01b038716600090815260046020908152604080832060a08501518452909152902061182990336145aa565b155b80156118ab575060405163288c314960e21b81523360048201526001600160a01b0388169063a230c5249060240160206040518083038186803b15801561187157600080fd5b505afa158015611885573d6000803e3d6000fd5b505050506040513d601f19601f820116820180604052508101906118a99190615a85565b155b156118e2576040517ffa088e8a00000000000000000000000000000000000000000000000000000000815260040160405180910390fd5b600081606001516001600160a01b031663a87af66c6040518163ffffffff1660e01b815260040160206040518083038186803b15801561192157600080fd5b505afa158015611935573d6000803e3d6000fd5b505050506040513d601f19601f820116820180604052508101906119599190615977565b6040516370a0823160e01b815233600482015290915087906001600160a01b038316906370a082319060240160206040518083038186803b15801561199d57600080fd5b505afa1580156119b1573d6000803e3d6000fd5b505050506040513d601f19601f820116820180604052508101906119d59190615aca565b1015611a235760405162461bcd60e51b815260206004820152600560248201527f2166756e640000000000000000000000000000000000000000000000000000006044820152606401610437565b6040517fdd62ed3e00000000000000000000000000000000000000000000000000000000815233600482015230602482015287906001600160a01b0383169063dd62ed3e9060440160206040518083038186803b158015611a8357600080fd5b505afa158015611a97573d6000803e3d6000fd5b505050506040513d601f19601f82011682018060405250810190611abb9190615aca565b1015611b095760405162461bcd60e51b815260206004820152600a60248201527f21616c6c6f77616e6365000000000000000000000000000000000000000000006044820152606401610437565b6040517f23b872dd000000000000000000000000000000000000000000000000000000008152336004820152306024820152604481018890526001600160a01b038216906323b872dd90606401602060405180830381600087803b158015611b7057600080fd5b505af1158015611b84573d6000803e3d6000fd5b505050506040513d601f19601f82011682018060405250810190611ba89190615a85565b50604051632c9f4b5b60e11b81527f161fca6912f107b0f13c9c7275de7391b32d2ea1c52ffba65a3c961880a0c60f60048201526001600160a01b038083169163095ea7b3918b169063593e96b69060240160206040518083038186803b158015611c1257600080fd5b505afa158015611c26573d6000803e3d6000fd5b505050506040513d601f19601f82011682018060405250810190611c4a9190615977565b6040516001600160e01b031960e084901b1681526001600160a01b039091166004820152602481018a9052604401602060405180830381600087803b158015611c9257600080fd5b505af1158015611ca6573d6000803e3d6000fd5b505050506040513d601f19601f82011682018060405250810190611cca9190615a85565b5060608201516040517fb08079a6000000000000000000000000000000000000000000000000000000008152336004820152602481018990526001600160a01b039091169063b08079a690604401600060405180830381600087803b158015611d3257600080fd5b505af1158015611d46573d6000803e3d6000fd5b50505050611d5988338460a001516145cc565b60808201516040516301c22a3d60e01b81526001600160a01b038a8116600483015290911690636d3cc040908a9083906301c22a3d9060240160206040518083038186803b158015611daa57600080fd5b505afa158015611dbe573d6000803e3d6000fd5b505050506040513d601f19601f82011682018060405250810190611de29190615aca565b6040516001600160e01b031960e085901b1681526001600160a01b039092166004830152602482015233604482015260640160206040518083038186803b158015611e2c57600080fd5b505afa158015611e40573d6000803e3d6000fd5b505050506040513d601f19601f82011682018060405250810190611e649190615a85565b15611f1f576001600160a01b03888116600081815260056020526040808220608087015191516301c22a3d60e01b815260048101949094528b9490939116906301c22a3d9060240160206040518083038186803b158015611ec457600080fd5b505afa158015611ed8573d6000803e3d6000fd5b505050506040513d601f19601f82011682018060405250810190611efc9190615aca565b81526020019081526020016000206000828254611f199190615c04565b90915550505b604080516001600160a01b038a16815260208101899052338183015290517fe31c7b8d08ee7db0afa68782e1028ef92305caeea8626633ad44d413e30f6b2f9181900360600190a150505050610440828261470e565b6001600160a01b038216600090815260026020526040812061049f90836145aa565b604051632c9f4b5b60e11b81527f161fca6912f107b0f13c9c7275de7391b32d2ea1c52ffba65a3c961880a0c60f600482015260009081906001600160a01b0384169063593e96b69060240160206040518083038186803b158015611ffb57600080fd5b505afa15801561200f573d6000803e3d6000fd5b505050506040513d601f19601f820116820180604052508101906120339190615977565b6040516370a0823160e01b815261decd60048201529091506001600160a01b038216906370a08231906024015b60206040518083038186803b15801561207857600080fd5b505afa15801561208c573d6000803e3d6000fd5b505050506040513d601f19601f8201168201806040525081019061049f9190615aca565b8060006120bc826142d5565b905060036001600160a01b03841660009081526020819052604090205460ff1660038111156120fb57634e487b7160e01b600052602160045260246000fd5b14801561223e5750604051634941d71d60e11b81527fb0d4178853a5320a41f8c55fa6d58af06637e392beff71e66dba4e8f32c39bb860048201526001600160a01b03841690639283ae3a9060240160206040518083038186803b15801561216257600080fd5b505afa158015612176573d6000803e3d6000fd5b505050506040513d601f19601f8201168201806040525081019061219a9190615aca565b604051634941d71d60e11b81527f533afc15b6312917b5e28e2272ea69d44e5ea8e00d3bd57cada1275c2f14c9e860048201526001600160a01b03851690639283ae3a9060240160206040518083038186803b1580156121f957600080fd5b505afa15801561220d573d6000803e3d6000fd5b505050506040513d601f19601f820116820180604052508101906122319190615aca565b61223b9190615c04565b42115b806123c4575060026001600160a01b03841660009081526020819052604090205460ff16600381111561228157634e487b7160e01b600052602160045260246000fd5b1480156123c45750604051634941d71d60e11b81527fb0d4178853a5320a41f8c55fa6d58af06637e392beff71e66dba4e8f32c39bb860048201526001600160a01b03841690639283ae3a9060240160206040518083038186803b1580156122e857600080fd5b505afa1580156122fc573d6000803e3d6000fd5b505050506040513d601f19601f820116820180604052508101906123209190615aca565b604051634941d71d60e11b81527f9ce69cf04065e3c7823cc5540c0598d8a694bd7a9a5a2a786d8bccf14ed6e2ea60048201526001600160a01b03851690639283ae3a9060240160206040518083038186803b15801561237f57600080fd5b505afa158015612393573d6000803e3d6000fd5b505050506040513d601f19601f820116820180604052508101906123b79190615aca565b6123c19190615c04565b42115b6124365760405162461bcd60e51b815260206004820152603a60248201527f46756e64696e67506f6f6c416461707465723a3a636c65617246756e643a3a4360448201527f616e7420636c65617246756e6420617420746869732074696d650000000000006064820152608401610437565b604051632c9f4b5b60e11b81527f161fca6912f107b0f13c9c7275de7391b32d2ea1c52ffba65a3c961880a0c60f60048201526000906001600160a01b0385169063593e96b69060240160206040518083038186803b15801561249857600080fd5b505afa1580156124ac573d6000803e3d6000fd5b505050506040513d601f19601f820116820180604052508101906124d09190615977565b90506000816001600160a01b031663a87af66c6040518163ffffffff1660e01b815260040160206040518083038186803b15801561250d57600080fd5b505afa158015612521573d6000803e3d6000fd5b505050506040513d601f19601f820116820180604052508101906125459190615977565b90506000826001600160a01b031663b2f5a54c6040518163ffffffff1660e01b815260040160006040518083038186803b15801561258257600080fd5b505afa158015612596573d6000803e3d6000fd5b505050506040513d6000823e601f3d908101601f191682016040526125be91908101906159be565b6040516317ba7d8560e01b81527fa837e34a29b67bf52f684a1c93def79b84b9c012732becee4e5df62809df64ed60048201529091506000906001600160a01b038816906317ba7d859060240160206040518083038186803b15801561262357600080fd5b505afa158015612637573d6000803e3d6000fd5b505050506040513d601f19601f8201168201806040525081019061265b9190615977565b604051634fc0a76d60e01b81526001600160a01b038981166004830152919250600091831690634fc0a76d9060240160206040518083038186803b1580156126a257600080fd5b505afa1580156126b6573d6000803e3d6000fd5b505050506040513d601f19601f820116820180604052508101906126da9190615aca565b835190915015612aa3576000805b84518160ff161015612a5857600061272a8b878460ff168151811061271d57634e487b7160e01b600052603260045260246000fd5b6020026020010151613f87565b90508015612a45576040516317ba7d8560e01b81527ff03649ccf5cbda635d0464f73bc807b602819fde8d2e1387f87b988bb0e858a360048201526000906001600160a01b038d16906317ba7d859060240160206040518083038186803b15801561279457600080fd5b505afa1580156127a8573d6000803e3d6000fd5b505050506040513d601f19601f820116820180604052508101906127cc9190615977565b9050806001600160a01b03166365017e838d878b8b8860ff168151811061280357634e487b7160e01b600052603260045260246000fd5b60209081029190910101516040516001600160e01b031960e087901b1681526001600160a01b039485166004820152602481019390935290831660448301529190911660648201526084810185905260a401600060405180830381600087803b15801561286f57600080fd5b505af1158015612883573d6000803e3d6000fd5b50506040516317ba7d8560e01b81527ff03649ccf5cbda635d0464f73bc807b602819fde8d2e1387f87b988bb0e858a360048201526001600160a01b03808d16935063e176b35e92508f16906317ba7d859060240160206040518083038186803b1580156128f057600080fd5b505afa158015612904573d6000803e3d6000fd5b505050506040513d601f19601f820116820180604052508101906129289190615977565b6040516001600160e01b031960e084901b1681526001600160a01b039182166004820152908b16602482015260448101859052606401600060405180830381600087803b15801561297857600080fd5b505af115801561298c573d6000803e3d6000fd5b50505050886001600160a01b031663e3a05cc1888560ff16815181106129c257634e487b7160e01b600052603260045260246000fd5b60209081029190910101516040516001600160e01b031960e084901b1681526001600160a01b039182166004820152908b16602482015260448101859052606401600060405180830381600087803b158015612a1d57600080fd5b505af1158015612a31573d6000803e3d6000fd5b505050508184612a419190615c04565b9350505b5080612a5081615c90565b9150506126e8565b50604080516001600160a01b038b16815260208101839052338183015290517f12d0dcfe23709357491021067eb05d73fa0b1f1aeb69310c2071218e089f057f9181900360600190a1505b5050505050612ab2828261470e565b505050565b60405163288c314960e21b81526001600160a01b0382811660048301526000919084169063a230c5249060240160206040518083038186803b158015612afc57600080fd5b505afa158015612b10573d6000803e3d6000fd5b505050506040513d601f19601f8201168201806040525081019061049f9190615a85565b604051634941d71d60e11b81527f31af571e53636dddd77f772cce9d30b42075760f2da731636acc6962da2fbef8600482015260009081906001600160a01b03841690639283ae3a9060240160206040518083038186803b158015612b9857600080fd5b505afa158015612bac573d6000803e3d6000fd5b505050506040513d601f19601f82011682018060405250810190612bd09190615aca565b604051634941d71d60e11b81527f533afc15b6312917b5e28e2272ea69d44e5ea8e00d3bd57cada1275c2f14c9e860048201529091506000906001600160a01b03851690639283ae3a9060240160206040518083038186803b158015612c3557600080fd5b505afa158015612c49573d6000803e3d6000fd5b505050506040513d601f19601f82011682018060405250810190612c6d9190615aca565b90508042118015612cb8575060016001600160a01b03851660009081526020819052604090205460ff166003811115612cb657634e487b7160e01b600052602160045260246000fd5b145b15612ecf5781612cc785611f97565b10612cfd576001600160a01b0384166000908152602081905260409020805460ff19166002179055612cf88461471d565b612d21565b6001600160a01b0384166000908152602081905260409020805460ff191660031790555b6040516317ba7d8560e01b81527fa837e34a29b67bf52f684a1c93def79b84b9c012732becee4e5df62809df64ed60048201526000906001600160a01b038616906317ba7d859060240160206040518083038186803b158015612d8357600080fd5b505afa158015612d97573d6000803e3d6000fd5b505050506040513d601f19601f82011682018060405250810190612dbb9190615977565b604051634fc0a76d60e01b81526001600160a01b0380881660048301529192507f5fd2225800b4a1978ad764ee103db4fc09f1f8db734ab768112047634fb868c291879190841690634fc0a76d9060240160206040518083038186803b158015612e2457600080fd5b505afa158015612e38573d6000803e3d6000fd5b505050506040513d601f19601f82011682018060405250810190612e5c9190615aca565b6001600160a01b03881660009081526020819052604090205460ff166003811115612e9757634e487b7160e01b600052602160045260246000fd5b612ea089611f97565b604080516001600160a01b039095168552602085019390935291830152606082015260800160405180910390a1505b5050919050565b81612ee18133615450565b6001600160a01b0383166000908152600260205260409020612f0390836145aa565b612ab2576001600160a01b038316600090815260026020526040902061044090836154a6565b8143816001600160a01b031663b21634826040518163ffffffff1660e01b815260040160206040518083038186803b158015612f6457600080fd5b505afa158015612f78573d6000803e3d6000fd5b505050506040513d601f19601f82011682018060405250810190612f9c9190615aca565b1415612fea5760405162461bcd60e51b815260206004820152601060248201527f7265656e7472616e6379206775617264000000000000000000000000000000006044820152606401610437565b806001600160a01b03166310fdb0a26040518163ffffffff1660e01b8152600401600060405180830381600087803b15801561302557600080fd5b505af1158015613039573d6000803e3d6000fd5b5050505082613047816154bb565b6001600160a01b0316336001600160a01b03161461306457600080fd5b670de0b6b3a76400008310801561307b5750600083115b61308457600080fd5b8260018190555050806001600160a01b031663d4f7af436040518163ffffffff1660e01b8152600401600060405180830381600087803b1580156130c757600080fd5b505af11580156130db573d6000803e3d6000fd5b50505050505050565b604051632c9f4b5b60e11b81527f161fca6912f107b0f13c9c7275de7391b32d2ea1c52ffba65a3c961880a0c60f600482015260009081906001600160a01b0384169063593e96b69060240160206040518083038186803b15801561314857600080fd5b505afa15801561315c573d6000803e3d6000fd5b505050506040513d601f19601f820116820180604052508101906131809190615977565b6040516370a0823160e01b815261111160048201529091506001600160a01b038216906370a0823190602401612060565b6040516317ba7d8560e01b81527fa837e34a29b67bf52f684a1c93def79b84b9c012732becee4e5df62809df64ed60048201526001600160a01b038216906317ba7d859060240160206040518083038186803b15801561321057600080fd5b505afa158015613224573d6000803e3d6000fd5b505050506040513d601f19601f820116820180604052508101906132489190615977565b6001600160a01b0316336001600160a01b0316146132ce5760405162461bcd60e51b815260206004820152603460248201527f46756e64696e67506f6f6c416461707465723a3a726573657446756e6452616960448201527f736553746174653a3a4163636573732064656e790000000000000000000000006064820152608401610437565b6001600160a01b03166000908152602081905260409020805460ff19166001179055565b8160006132fe826142d5565b905061330984612b34565b5060016001600160a01b03851660009081526020819052604090205460ff16600381111561334757634e487b7160e01b600052602160045260246000fd5b1480156133e95750604051634941d71d60e11b81527f533afc15b6312917b5e28e2272ea69d44e5ea8e00d3bd57cada1275c2f14c9e860048201526001600160a01b03851690639283ae3a9060240160206040518083038186803b1580156133ae57600080fd5b505afa1580156133c2573d6000803e3d6000fd5b505050506040513d601f19601f820116820180604052508101906133e69190615aca565b42105b801561348a5750604051634941d71d60e11b81527fbd04d44792b7dbfe3b50b0f9f2006f7ef449e374a39021cb9bfa7cd0bdd850d760048201526001600160a01b03851690639283ae3a9060240160206040518083038186803b15801561344f57600080fd5b505afa158015613463573d6000803e3d6000fd5b505050506040513d601f19601f820116820180604052508101906134879190615aca565b42115b806134cf575060036001600160a01b03851660009081526020819052604090205460ff1660038111156134cd57634e487b7160e01b600052602160045260246000fd5b145b80613524575060026001600160a01b03851660009081526020819052604090205460ff16600381111561351257634e487b7160e01b600052602160045260246000fd5b148015613524575061352484426104a6565b80613609575060026001600160a01b03851660009081526020819052604090205460ff16600381111561356757634e487b7160e01b600052602160045260246000fd5b1480156136095750604051634941d71d60e11b81527f9ce69cf04065e3c7823cc5540c0598d8a694bd7a9a5a2a786d8bccf14ed6e2ea60048201526001600160a01b03851690639283ae3a9060240160206040518083038186803b1580156135ce57600080fd5b505afa1580156135e2573d6000803e3d6000fd5b505050506040513d601f19601f820116820180604052508101906136069190615aca565b42115b6136555760405162461bcd60e51b815260206004820152600960248201527f21776974686472617700000000000000000000000000000000000000000000006044820152606401610437565b604051632c9f4b5b60e11b81527f161fca6912f107b0f13c9c7275de7391b32d2ea1c52ffba65a3c961880a0c60f60048201526000906001600160a01b0386169063593e96b69060240160206040518083038186803b1580156136b757600080fd5b505afa1580156136cb573d6000803e3d6000fd5b505050506040513d601f19601f820116820180604052508101906136ef9190615977565b90506000816001600160a01b031663a87af66c6040518163ffffffff1660e01b815260040160206040518083038186803b15801561372c57600080fd5b505afa158015613740573d6000803e3d6000fd5b505050506040513d601f19601f820116820180604052508101906137649190615977565b905060006137728733613f87565b9050600086116137c45760405162461bcd60e51b815260206004820152600760248201527f21616d6f756e74000000000000000000000000000000000000000000000000006044820152606401610437565b808611156138145760405162461bcd60e51b815260206004820152600860248201527f3e62616c616e63650000000000000000000000000000000000000000000000006044820152606401610437565b600060026001600160a01b03891660009081526020819052604090205460ff16600381111561385357634e487b7160e01b600052602160045260246000fd5b148015613865575061386588426104a6565b15613a9457604051634941d71d60e11b81527f3e453820e0fc9cb9a1e799559661cf9c1db4cc7d7fbcb7e0fdaf884cbe29c3566004820152670de0b6b3a76400009088906001600160a01b038b1690639283ae3a9060240160206040518083038186803b1580156138d557600080fd5b505afa1580156138e9573d6000803e3d6000fd5b505050506040513d601f19601f8201168201806040525081019061390d9190615aca565b6139179190615c3c565b6139219190615c1c565b90508015613a94576040517ffd310d290000000000000000000000000000000000000000000000000000000081527f5460409b9aa4688f80c10b29c3d7ad16025f050f472a6882a45fa7bb9bd12fb160048201526001600160a01b038086169163e176b35e918b169063fd310d299060240160206040518083038186803b1580156139ab57600080fd5b505afa1580156139bf573d6000803e3d6000fd5b505050506040513d601f19601f820116820180604052508101906139e39190615977565b6040516001600160e01b031960e084901b1681526001600160a01b039182166004820152908616602482015260448101849052606401600060405180830381600087803b158015613a3357600080fd5b505af1158015613a47573d6000803e3d6000fd5b5050604080514281523360208201529081018a9052606081018490527fdea43651fc619900aa232da09474a54dd33e2ae3b3ccb0d9f34f0dbf39e199669250608001905060405180910390a15b6001600160a01b03841663f3fef3a333613aae848b615c79565b6040516001600160e01b031960e085901b1681526001600160a01b0390921660048301526024820152604401600060405180830381600087803b158015613af457600080fd5b505af1158015613b08573d6000803e3d6000fd5b50506040517fe3a05cc10000000000000000000000000000000000000000000000000000000081523360048201526001600160a01b038681166024830152604482018b90528716925063e3a05cc19150606401600060405180830381600087803b158015613b7557600080fd5b505af1158015613b89573d6000803e3d6000fd5b50506040516317ba7d8560e01b81527fa837e34a29b67bf52f684a1c93def79b84b9c012732becee4e5df62809df64ed6004820152600092506001600160a01b038b1691506317ba7d859060240160206040518083038186803b158015613bef57600080fd5b505afa158015613c03573d6000803e3d6000fd5b505050506040513d601f19601f82011682018060405250810190613c279190615977565b90506000613c358a33613f87565b11613cc657604051634fc0a76d60e01b81526001600160a01b038a8116600483015260009190831690634fc0a76d9060240160206040518083038186803b158015613c7f57600080fd5b505afa158015613c93573d6000803e3d6000fd5b505050506040513d601f19601f82011682018060405250810190613cb79190615aca565b9050613cc48a338361559e565b505b6040516301c22a3d60e01b81526001600160a01b038a81166004830152821690636d3cc040908b9083906301c22a3d9060240160206040518083038186803b158015613d1157600080fd5b505afa158015613d25573d6000803e3d6000fd5b505050506040513d601f19601f82011682018060405250810190613d499190615aca565b6040516001600160e01b031960e085901b1681526001600160a01b039092166004830152602482015233604482015260640160206040518083038186803b158015613d9357600080fd5b505afa158015613da7573d6000803e3d6000fd5b505050506040513d601f19601f82011682018060405250810190613dcb9190615a85565b8015613e6c5750604051634941d71d60e11b81527f533afc15b6312917b5e28e2272ea69d44e5ea8e00d3bd57cada1275c2f14c9e860048201526001600160a01b038a1690639283ae3a9060240160206040518083038186803b158015613e3157600080fd5b505afa158015613e45573d6000803e3d6000fd5b505050506040513d601f19601f82011682018060405250810190613e699190615aca565b42105b15613f23576001600160a01b0389811660008181526005602052604080822090516301c22a3d60e01b815260048101939093528b939092908516906301c22a3d9060240160206040518083038186803b158015613ec857600080fd5b505afa158015613edc573d6000803e3d6000fd5b505050506040513d601f19601f82011682018060405250810190613f009190615aca565b81526020019081526020016000206000828254613f1d9190615c79565b90915550505b7fd432fbc5f79eaeefd01acbebd76cf4b0d5f43d8372c2fd3e23761c06a60a75f189613f4f848b615c79565b604080516001600160a01b0390931683526020830191909152339082015260600160405180910390a15050505050610440828261470e565b604051632c9f4b5b60e11b81527f161fca6912f107b0f13c9c7275de7391b32d2ea1c52ffba65a3c961880a0c60f600482015260009081906001600160a01b0385169063593e96b69060240160206040518083038186803b158015613feb57600080fd5b505afa158015613fff573d6000803e3d6000fd5b505050506040513d601f19601f820116820180604052508101906140239190615977565b6040516370a0823160e01b81526001600160a01b038581166004830152919250908216906370a082319060240160206040518083038186803b15801561406857600080fd5b505afa15801561407c573d6000803e3d6000fd5b505050506040513d601f19601f820116820180604052508101906140a09190615aca565b949350505050565b600080826001600160a01b031663c19d93fb6040518163ffffffff1660e01b815260040160206040518083038186803b1580156140e457600080fd5b505afa1580156140f8573d6000803e3d6000fd5b505050506040513d601f19601f8201168201806040525081019061411c9190615b70565b600181111561413b57634e487b7160e01b600052602160045260246000fd5b14801561046a5750816001600160a01b031663c67143666040518163ffffffff1660e01b815260040160206040518083038186803b15801561417c57600080fd5b505afa158015614190573d6000803e3d6000fd5b505050506040513d601f19601f820116820180604052508101906141b49190615aca565b1580614232575060405163288c314960e21b81523360048201526001600160a01b0383169063a230c5249060240160206040518083038186803b1580156141fa57600080fd5b505afa15801561420e573d6000803e3d6000fd5b505050506040513d601f19601f820116820180604052508101906142329190615a85565b8061046a57506040517f68c18beb0000000000000000000000000000000000000000000000000000000081523360048201526001600160a01b038316906368c18beb9060240160206040518083038186803b15801561429057600080fd5b505afa1580156142a4573d6000803e3d6000fd5b505050506040513d601f19601f8201168201806040525081019061046a9190615a85565b6060600061049f83615676565b6040805160808101825260008082526020820181905291810182905260608101919091525a81600001818152505043826001600160a01b031663b21634826040518163ffffffff1660e01b815260040160206040518083038186803b15801561433d57600080fd5b505afa158015614351573d6000803e3d6000fd5b505050506040513d601f19601f820116820180604052508101906143759190615aca565b14156143c35760405162461bcd60e51b815260206004820152601060248201527f7265656e7472616e6379206775617264000000000000000000000000000000006044820152606401610437565b816001600160a01b03166310fdb0a26040518163ffffffff1660e01b8152600401600060405180830381600087803b1580156143fe57600080fd5b505af1158015614412573d6000803e3d6000fd5b50506040517f72c6838f0000000000000000000000000000000000000000000000000000000081527f1f2fd42ad6a6cacd573c4b212beb7a4e2499ad45d742a65337097f130e71daff6004820152600092506001600160a01b03851691506372c6838f9060240160206040518083038186803b15801561449157600080fd5b505afa1580156144a5573d6000803e3d6000fd5b505050506040513d601f19601f820116820180604052508101906144c99190615977565b90506001600160a01b0381166144e5576000602083015261459a565b6001600160a01b038181166060840181905283516040517f43a8a3f1000000000000000000000000000000000000000000000000000000008152928616600484015260248301526000918291906343a8a3f190604401604080518083038186803b15801561455257600080fd5b505afa158015614566573d6000803e3d6000fd5b505050506040513d601f19601f8201168201806040525081019061458a9190615a9f565b9015156020860152604085015250505b50919050565b600061046a825490565b6001600160a01b0381166000908152600183016020526040812054151561049f565b6001600160a01b038316600090815260036020908152604080832084845290915290206145f990836145aa565b61462c576001600160a01b0383166000908152600360209081526040808320848452909152902061462a90836154a6565b505b6001600160a01b0383166000908152600460209081526040808320848452909152902061465990836145aa565b1580156146dc575060405163288c314960e21b81526001600160a01b03838116600483015284169063a230c5249060240160206040518083038186803b1580156146a257600080fd5b505afa1580156146b6573d6000803e3d6000fd5b505050506040513d601f19601f820116820180604052508101906146da9190615a85565b155b15612ab2576001600160a01b0383166000908152600460209081526040808320848452909152902061044090836154a6565b6147198282336156d2565b5050565b61479060405180610120016040528060006001600160a01b031681526020016000815260200160006001600160a01b0316815260200160006001600160a01b031681526020016000815260200160006001600160a01b031681526020016000815260200160008152602001600081525090565b604051634941d71d60e11b81527fbe07eea886ce63e8ab49ef6fd986e9dea247fbb31da43dd1df3e153cc548277a60048201526001600160a01b03831690639283ae3a9060240160206040518083038186803b1580156147ef57600080fd5b505afa158015614803573d6000803e3d6000fd5b505050506040513d601f19601f820116820180604052508101906148279190615aca565b60011480156148d35750604051634941d71d60e11b81527f7e07fb4530796d057ca1d76d83f47aa8629dbb7e942ac28f30ad6f5e9e8d418960048201526001600160a01b03831690639283ae3a9060240160206040518083038186803b15801561489057600080fd5b505afa1580156148a4573d6000803e3d6000fd5b505050506040513d601f19601f820116820180604052508101906148c89190615aca565b6148d183611f97565b115b1561471957604051632c9f4b5b60e11b81527f161fca6912f107b0f13c9c7275de7391b32d2ea1c52ffba65a3c961880a0c60f60048201526001600160a01b0383169063593e96b69060240160206040518083038186803b15801561493757600080fd5b505afa15801561494b573d6000803e3d6000fd5b505050506040513d601f19601f8201168201806040525081019061496f9190615977565b6001600160a01b0316808252604080517fb2f5a54c00000000000000000000000000000000000000000000000000000000815290516000929163b2f5a54c9160048083019286929190829003018186803b1580156149cc57600080fd5b505afa1580156149e0573d6000803e3d6000fd5b505050506040513d6000823e601f3d908101601f19168201604052614a0891908101906159be565b9050600082602001818152505081600001516001600160a01b031663a87af66c6040518163ffffffff1660e01b815260040160206040518083038186803b158015614a5257600080fd5b505afa158015614a66573d6000803e3d6000fd5b505050506040513d601f19601f82011682018060405250810190614a8a9190615977565b6001600160a01b03908116604084810191909152516317ba7d8560e01b81527fa837e34a29b67bf52f684a1c93def79b84b9c012732becee4e5df62809df64ed6004820152908416906317ba7d859060240160206040518083038186803b158015614af457600080fd5b505afa158015614b08573d6000803e3d6000fd5b505050506040513d601f19601f82011682018060405250810190614b2c9190615977565b6001600160a01b0390811660608401819052604051634fc0a76d60e01b8152918516600483015290634fc0a76d9060240160206040518083038186803b158015614b7557600080fd5b505afa158015614b89573d6000803e3d6000fd5b505050506040513d601f19601f82011682018060405250810190614bad9190615aca565b60808301526040516317ba7d8560e01b81527f6a687e96f72a484e38a32d2ee3b61626294e792821961a90ce9a98d1999252d560048201526001600160a01b038416906317ba7d859060240160206040518083038186803b158015614c1157600080fd5b505afa158015614c25573d6000803e3d6000fd5b505050506040513d601f19601f82011682018060405250810190614c499190615977565b6001600160a01b0390811660a0840152604051634941d71d60e11b81527f7e07fb4530796d057ca1d76d83f47aa8629dbb7e942ac28f30ad6f5e9e8d4189600482015290841690639283ae3a9060240160206040518083038186803b158015614cb157600080fd5b505afa158015614cc5573d6000803e3d6000fd5b505050506040513d601f19601f82011682018060405250810190614ce99190615aca565b60c08301526001600160a01b03838116600081815260056020526040808220606087015191516301c22a3d60e01b815260048101949094529391929116906301c22a3d9060240160206040518083038186803b158015614d4857600080fd5b505afa158015614d5c573d6000803e3d6000fd5b505050506040513d601f19601f82011682018060405250810190614d809190615aca565b815260208101919091526040016000205460e0830152614d9f83611f97565b61010083015260005b81518160ff161015610440578260c001518360e0015110614faf5760608301516040516301c22a3d60e01b81526001600160a01b03868116600483015290911690636d3cc04090869083906301c22a3d9060240160206040518083038186803b158015614e1457600080fd5b505afa158015614e28573d6000803e3d6000fd5b505050506040513d601f19601f82011682018060405250810190614e4c9190615aca565b858560ff1681518110614e6f57634e487b7160e01b600052603260045260246000fd5b60200260200101516040518463ffffffff1660e01b8152600401614eb3939291906001600160a01b0393841681526020810192909252909116604082015260600190565b60206040518083038186803b158015614ecb57600080fd5b505afa158015614edf573d6000803e3d6000fd5b505050506040513d601f19601f82011682018060405250810190614f039190615a85565b15614f88578260e001518360c00151614f3986858560ff168151811061271d57634e487b7160e01b600052603260045260246000fd5b614f439190615c3c565b614f4d9190615c1c565b614f7485848460ff168151811061271d57634e487b7160e01b600052603260045260246000fd5b614f7e9190615c79565b602084015261519b565b614f7e84838360ff168151811061271d57634e487b7160e01b600052603260045260246000fd5b60608301516040516301c22a3d60e01b81526001600160a01b03868116600483015290911690636d3cc04090869083906301c22a3d9060240160206040518083038186803b15801561500057600080fd5b505afa158015615014573d6000803e3d6000fd5b505050506040513d601f19601f820116820180604052508101906150389190615aca565b858560ff168151811061505b57634e487b7160e01b600052603260045260246000fd5b60200260200101516040518463ffffffff1660e01b815260040161509f939291906001600160a01b0393841681526020810192909252909116604082015260600190565b60206040518083038186803b1580156150b757600080fd5b505afa1580156150cb573d6000803e3d6000fd5b505050506040513d601f19601f820116820180604052508101906150ef9190615a85565b15615100576000602084015261519b565b8260e001518361010001516151159190615c79565b8360e001518460c001516151299190615c79565b61515086858560ff168151811061271d57634e487b7160e01b600052603260045260246000fd5b61515a9190615c3c565b6151649190615c1c565b61518b85848460ff168151811061271d57634e487b7160e01b600052603260045260246000fd5b6151959190615c79565b60208401525b60208301511561543e578260a001516001600160a01b03166365017e838585608001518660400151868660ff16815181106151e657634e487b7160e01b600052603260045260246000fd5b602002602001015188602001516040518663ffffffff1660e01b81526004016152419594939291906001600160a01b039586168152602081019490945291841660408401529092166060820152608081019190915260a00190565b600060405180830381600087803b15801561525b57600080fd5b505af115801561526f573d6000803e3d6000fd5b505084516040516317ba7d8560e01b81527f6a687e96f72a484e38a32d2ee3b61626294e792821961a90ce9a98d1999252d560048201526001600160a01b03918216935063e176b35e9250908716906317ba7d859060240160206040518083038186803b1580156152df57600080fd5b505afa1580156152f3573d6000803e3d6000fd5b505050506040513d601f19601f820116820180604052508101906153179190615977565b604080870151602088015191516001600160e01b031960e086901b1681526001600160a01b039384166004820152921660248301526044820152606401600060405180830381600087803b15801561536e57600080fd5b505af1158015615382573d6000803e3d6000fd5b5050505082600001516001600160a01b031663e3a05cc1838360ff16815181106153bc57634e487b7160e01b600052603260045260246000fd5b6020026020010151856040015186602001516040518463ffffffff1660e01b815260040161540b939291906001600160a01b039384168152919092166020820152604081019190915260600190565b600060405180830381600087803b15801561542557600080fd5b505af1158015615439573d6000803e3d6000fd5b505050505b8061544881615c90565b915050614da8565b61545a8282612ab7565b6147195760405162461bcd60e51b815260206004820152600b60248201527f6f6e6c79537465776172640000000000000000000000000000000000000000006044820152606401610437565b600061049f836001600160a01b0384166157ab565b6000816001600160a01b03166348f7f2a36040518163ffffffff1660e01b815260040160206040518083038186803b1580156154f657600080fd5b505afa15801561550a573d6000803e3d6000fd5b505050506040513d601f19601f8201168201806040525081019061552e9190615977565b6001600160a01b0316638da5cb5b6040518163ffffffff1660e01b815260040160206040518083038186803b15801561556657600080fd5b505afa15801561557a573d6000803e3d6000fd5b505050506040513d601f19601f8201168201806040525081019061046a9190615977565b6001600160a01b038316600090815260036020908152604080832084845290915290206155cb90836157fa565b5060405163288c314960e21b81526001600160a01b03838116600483015284169063a230c5249060240160206040518083038186803b15801561560d57600080fd5b505afa158015615621573d6000803e3d6000fd5b505050506040513d601f19601f820116820180604052508101906156459190615a85565b612ab2576001600160a01b0383166000908152600460209081526040808320848452909152902061044090836157fa565b6060816000018054806020026020016040519081016040528092919081815260200182805480156156c657602002820191906000526020600020905b8154815260200190600101908083116156b2575b50505050509050919050565b8160200151156157705781606001516001600160a01b0316635e5eb01384835a86516156fe9190615c79565b60408088015190516001600160e01b031960e087901b1681526001600160a01b03948516600482015293909216602484015260448301526064820152608401600060405180830381600087803b15801561575757600080fd5b505af115801561576b573d6000803e3d6000fd5b505050505b826001600160a01b031663d4f7af436040518163ffffffff1660e01b8152600401600060405180830381600087803b1580156130c757600080fd5b60008181526001830160205260408120546157f25750815460018181018455600084815260208082209093018490558454848252828601909352604090209190915561046a565b50600061046a565b600061049f836001600160a01b0384166000818152600183016020526040812054801561591d57600061582e600183615c79565b855490915060009061584290600190615c79565b90508181146158c357600086600001828154811061587057634e487b7160e01b600052603260045260246000fd5b90600052602060002001549050808760000184815481106158a157634e487b7160e01b600052603260045260246000fd5b6000918252602080832090910192909255918252600188019052604090208390555b85548690806158e257634e487b7160e01b600052603160045260246000fd5b60019003818190600052602060002001600090559055856001016000868152602001908152602001600020600090556001935050505061046a565b600091505061046a565b805161593281615cdc565b919050565b8051801515811461593257600080fd5b803563ffffffff8116811461593257600080fd5b60006020828403121561596c578081fd5b813561049f81615cdc565b600060208284031215615988578081fd5b815161049f81615cdc565b600080604083850312156159a5578081fd5b82356159b081615cdc565b946020939093013593505050565b600060208083850312156159d0578182fd5b825167ffffffffffffffff808211156159e7578384fd5b818501915085601f8301126159fa578384fd5b815181811115615a0c57615a0c615cc6565b8060051b604051601f19603f83011681018181108582111715615a3157615a31615cc6565b604052828152858101935084860182860187018a1015615a4f578788fd5b8795505b83861015615a7857615a6481615927565b855260019590950194938601938601615a53565b5098975050505050505050565b600060208284031215615a96578081fd5b61049f82615937565b60008060408385031215615ab1578182fd5b615aba83615937565b9150602083015190509250929050565b600060208284031215615adb578081fd5b5051919050565b60008060408385031215615af4578182fd5b8235615aff81615cdc565b91506020830135615b0f81615cdc565b809150509250929050565b600080604083850312156159a5578182fd5b600080600060608486031215615b40578081fd5b8335615b4b81615cdc565b9250615b5960208501615947565b9150615b6760408501615947565b90509250925092565b600060208284031215615b81578081fd5b81516002811061049f578182fd5b6020808252825182820181905260009190848201906040850190845b81811015615bd05783516001600160a01b031683529284019291840191600101615bab565b50909695505050505050565b6020810160048310615bfe57634e487b7160e01b600052602160045260246000fd5b91905290565b60008219821115615c1757615c17615cb0565b500190565b600082615c3757634e487b7160e01b81526012600452602481fd5b500490565b6000817fffffffffffffffffffffffffffffffffffffffffffffffffffffffffffffffff0483118215151615615c7457615c74615cb0565b500290565b600082821015615c8b57615c8b615cb0565b500390565b600060ff821660ff811415615ca757615ca7615cb0565b60010192915050565b634e487b7160e01b600052601160045260246000fd5b634e487b7160e01b600052604160045260246000fd5b6001600160a01b0381168114615cf157600080fd5b5056fea2646970667358221220fcf64cad8c224ff9cfbf079021414e2807b7e7c969aef408e5a2e7e7f3ceaf9364736f6c63430008040033",
  "linkReferences": {},
  "deployedLinkReferences": {}
}