{
  "_format": "hh-sol-artifact-1",
  "contractName": "VintageAllocationAdapterContract",
  "sourceName": "contracts/vintage/adapters/VintageAllocationAdapter.sol",
  "abi": [
    {
      "anonymous": false,
      "inputs": [
        {
          "indexed": false,
          "internalType": "address",
          "name": "daoAddr",
          "type": "address"
        },
        {
          "indexed": false,
          "internalType": "bytes32",
          "name": "proposalId",
          "type": "bytes32"
        },
        {
          "indexed": false,
          "internalType": "address",
          "name": "proposer",
          "type": "address"
        },
        {
          "indexed": false,
          "internalType": "address[]",
          "name": "lps",
          "type": "address[]"
        }
      ],
      "name": "AllocateToken",
      "type": "event"
    },
    {
      "anonymous": false,
      "inputs": [
        {
          "indexed": false,
          "internalType": "uint256",
          "name": "gpAllocationBonusRadio",
          "type": "uint256"
        },
        {
          "indexed": false,
          "internalType": "uint256",
          "name": "riceStakeAllocationRadio",
          "type": "uint256"
        }
      ],
      "name": "ConfigureDao",
      "type": "event"
    },
    {
      "inputs": [],
      "name": "PERCENTAGE_PRECISION",
      "outputs": [
        {
          "internalType": "uint256",
          "name": "",
          "type": "uint256"
        }
      ],
      "stateMutability": "view",
      "type": "function"
    },
    {
      "inputs": [
        {
          "internalType": "contract DaoRegistry",
          "name": "dao",
          "type": "address"
        },
        {
          "internalType": "address",
          "name": "tokenAddress",
          "type": "address"
        },
        {
          "internalType": "address",
          "name": "proposerAddr",
          "type": "address"
        },
        {
          "internalType": "bytes32",
          "name": "proposalId",
          "type": "bytes32"
        },
        {
          "internalType": "uint256[6]",
          "name": "uint256Args",
          "type": "uint256[6]"
        }
      ],
      "name": "allocateProjectToken",
      "outputs": [],
      "stateMutability": "nonpayable",
      "type": "function"
    },
    {
      "inputs": [
        {
          "internalType": "contract DaoRegistry",
          "name": "dao",
          "type": "address"
        },
        {
          "internalType": "uint256",
          "name": "gpAllocationBonusRadio",
          "type": "uint256"
        },
        {
          "internalType": "uint256",
          "name": "riceStakeAllocationRadio",
          "type": "uint256"
        }
      ],
      "name": "configureDao",
      "outputs": [],
      "stateMutability": "nonpayable",
      "type": "function"
    },
    {
      "inputs": [
        {
          "internalType": "contract DaoRegistry",
          "name": "dao",
          "type": "address"
        },
        {
          "internalType": "address",
          "name": "recipient",
          "type": "address"
        },
        {
          "internalType": "uint256",
          "name": "tokenAmount",
          "type": "uint256"
        }
      ],
      "name": "getFundingRewards",
      "outputs": [
        {
          "internalType": "uint256",
          "name": "",
          "type": "uint256"
        }
      ],
      "stateMutability": "view",
      "type": "function"
    },
    {
      "inputs": [
        {
          "internalType": "contract DaoRegistry",
          "name": "dao",
          "type": "address"
        },
        {
          "internalType": "address",
          "name": "proposerAddr",
          "type": "address"
        },
        {
          "internalType": "uint256",
          "name": "tokenAmount",
          "type": "uint256"
        }
      ],
      "name": "getProposerBonus",
      "outputs": [
        {
          "internalType": "uint256",
          "name": "",
          "type": "uint256"
        }
      ],
      "stateMutability": "view",
      "type": "function"
    },
    {
      "inputs": [
        {
          "internalType": "contract DaoRegistry",
          "name": "dao",
          "type": "address"
        },
        {
          "internalType": "address",
          "name": "recipient",
          "type": "address"
        },
        {
          "internalType": "bytes32",
          "name": "proposalId",
          "type": "bytes32"
        }
      ],
      "name": "ifEligible",
      "outputs": [
        {
          "internalType": "bool",
          "name": "",
          "type": "bool"
        }
      ],
      "stateMutability": "view",
      "type": "function"
    },
    {
      "inputs": [
        {
          "internalType": "contract DaoRegistry",
          "name": "dao",
          "type": "address"
        },
        {
          "internalType": "bytes32",
          "name": "proposalId",
          "type": "bytes32"
        },
        {
          "internalType": "address",
          "name": "recepient",
          "type": "address"
        }
      ],
      "name": "isVestCreated",
      "outputs": [
        {
          "internalType": "bool",
          "name": "",
          "type": "bool"
        }
      ],
      "stateMutability": "view",
      "type": "function"
    },
    {
      "inputs": [
        {
          "internalType": "contract DaoRegistry",
          "name": "dao",
          "type": "address"
        },
        {
          "internalType": "bytes32",
          "name": "proposalId",
          "type": "bytes32"
        },
        {
          "internalType": "address",
          "name": "recipient",
          "type": "address"
        }
      ],
      "name": "vestCreated",
      "outputs": [
        {
          "internalType": "bool",
          "name": "",
          "type": "bool"
        }
      ],
      "stateMutability": "nonpayable",
      "type": "function"
    },
    {
      "inputs": [
        {
          "internalType": "address",
          "name": "",
          "type": "address"
        },
        {
          "internalType": "bytes32",
          "name": "",
          "type": "bytes32"
        },
        {
          "internalType": "address",
          "name": "",
          "type": "address"
        }
      ],
      "name": "vestingInfos",
      "outputs": [
        {
          "internalType": "uint256",
          "name": "tokenAmount",
          "type": "uint256"
        },
        {
          "internalType": "bool",
          "name": "created",
          "type": "bool"
        }
      ],
      "stateMutability": "view",
      "type": "function"
    }
  ],
  "bytecode": "0x608060405234801561001057600080fd5b50611b5e806100206000396000f3fe608060405234801561001057600080fd5b50600436106100a35760003560e01c80637d15e7b911610076578063a60e68fe1161005b578063a60e68fe1461017c578063c431eb631461018f578063e256888f146101a257600080fd5b80637d15e7b914610148578063944120fb1461015b57600080fd5b80631190b0a6146100a857806324d1669d146100fd578063560dbdd7146101125780636cb4e9eb14610135575b600080fd5b6100e36100b63660046116f4565b60026020908152600093845260408085208252928452828420905282529020805460019091015460ff1682565b604080519283529015156020830152015b60405180910390f35b61011061010b366004611809565b6101b1565b005b6101256101203660046118f5565b610d5d565b60405190151581526020016100f4565b6101256101433660046118f5565b610ec0565b6101256101563660046118b5565b610efc565b61016e6101693660046118b5565b610f41565b6040519081526020016100f4565b61011061018a366004611909565b6110bd565b61016e61019d3660046118b5565b6111b0565b61016e670de0b6b3a764000081565b6040516317ba7d8560e01b81527f0fd8cce4ef00a7a8c0c5f91194bc80f122deefe664dd2a2384687da62ab117d160048201526001600160a01b038616906317ba7d859060240160206040518083038186803b15801561021057600080fd5b505afa158015610224573d6000803e3d6000fd5b505050506040513d601f19601f8201168201806040525081019061024891906116d8565b6001600160a01b0316336001600160a01b0316146102d35760405162461bcd60e51b815260206004820152602160248201527f616c6c6f6361746550726f6a656374546f6b656e3a3a6163636573732064656e60448201527f790000000000000000000000000000000000000000000000000000000000000060648201526084015b60405180910390fd5b61034a604051806101a0016040528060006001600160a01b03168152602001600081526020016000815260200160008152602001600060ff16815260200160008152602001600081526020016000815260200160008152602001600081526020016000815260200160008152602001600081525090565b815160e082015260208201516101008201526040808301516101208301526060830151610140830152608083015161016083015260a0830151610180830152517f593e96b60000000000000000000000000000000000000000000000000000000081527f161fca6912f107b0f13c9c7275de7391b32d2ea1c52ffba65a3c961880a0c60f60048201526001600160a01b0387169063593e96b69060240160206040518083038186803b1580156103ff57600080fd5b505afa158015610413573d6000803e3d6000fd5b505050506040513d601f19601f8201168201806040525081019061043791906116d8565b6001600160a01b03908116825260e08201516040516317ba7d8560e01b81527f0fd8cce4ef00a7a8c0c5f91194bc80f122deefe664dd2a2384687da62ab117d1600482015290918781169163dd62ed3e918a16906317ba7d859060240160206040518083038186803b1580156104ac57600080fd5b505afa1580156104c0573d6000803e3d6000fd5b505050506040513d601f19601f820116820180604052508101906104e491906116d8565b6040517fffffffff0000000000000000000000000000000000000000000000000000000060e084901b1681526001600160a01b03909116600482015230602482015260440160206040518083038186803b15801561054157600080fd5b505afa158015610555573d6000803e3d6000fd5b505050506040513d601f19601f82011682018060405250810190610579919061195c565b10156105ed5760405162461bcd60e51b815260206004820152603f60248201527f416c6c6f636174696f6e416461707465723a3a616c6c6f6361746550726f6a6560448201527f6374546f6b656e3a3a696e73756666696369656e7420616c6c6f77616e63650060648201526084016102ca565b6040516317ba7d8560e01b81527f0fd8cce4ef00a7a8c0c5f91194bc80f122deefe664dd2a2384687da62ab117d160048201526001600160a01b03808716916323b872dd918916906317ba7d859060240160206040518083038186803b15801561065657600080fd5b505afa15801561066a573d6000803e3d6000fd5b505050506040513d601f19601f8201168201806040525081019061068e91906116d8565b60e0848101516040519184901b7fffffffff000000000000000000000000000000000000000000000000000000001682526001600160a01b039290921660048201523060248201526044810191909152606401602060405180830381600087803b1580156106fb57600080fd5b505af115801561070f573d6000803e3d6000fd5b505050506040513d601f19601f8201168201806040525081019061073391906117e9565b50846001600160a01b031663dd62ed3e30886001600160a01b03166317ba7d857f8295fbcf0c0d839b7cf11cacb43f22c81604fd9f0e4b295ff1d641ad9dd5786a6040518263ffffffff1660e01b815260040161079291815260200190565b60206040518083038186803b1580156107aa57600080fd5b505afa1580156107be573d6000803e3d6000fd5b505050506040513d601f19601f820116820180604052508101906107e291906116d8565b6040517fffffffff0000000000000000000000000000000000000000000000000000000060e085901b1681526001600160a01b0392831660048201529116602482015260440160206040518083038186803b15801561084057600080fd5b505afa158015610854573d6000803e3d6000fd5b505050506040513d601f19601f82011682018060405250810190610878919061195c565b6040820181905260e082015161088d91611a38565b60608201526040516317ba7d8560e01b81527fdfea78be99560632cc4c199ca1b0d68ffe0bbbb07b685976cefc8820374ac73a60048201526001600160a01b038681169163095ea7b3918916906317ba7d859060240160206040518083038186803b1580156108fb57600080fd5b505afa15801561090f573d6000803e3d6000fd5b505050506040513d601f19601f8201168201806040525081019061093391906116d8565b60608401516040517fffffffff0000000000000000000000000000000000000000000000000000000060e085901b1681526001600160a01b0390921660048301526024820152604401602060405180830381600087803b15801561099657600080fd5b505af11580156109aa573d6000803e3d6000fd5b505050506040513d601f19601f820116820180604052508101906109ce91906117e9565b50600081600001516001600160a01b031663b2f5a54c6040518163ffffffff1660e01b815260040160006040518083038186803b158015610a0e57600080fd5b505afa158015610a22573d6000803e3d6000fd5b505050506040513d6000823e601f3d908101601f19168201604052610a4a9190810190611735565b60006020840152805190915015610b9357600060808301525b8051826080015160ff161015610b9357610ab08782846080015160ff1681518110610a9e57634e487b7160e01b600052603260045260246000fd5b60200260200101518460e001516111b0565b60a0830181905215610b785760408051808201825260a08401518152600060208083018290526001600160a01b038b1682526002815283822088835290529182206080850151845192939192859160ff16908110610b1e57634e487b7160e01b600052603260045260246000fd5b6020908102919091018101516001600160a01b031682528181019290925260400160002082518155918101516001909201805460ff19169215159290921790915560a08301519083018051610b74908390611a38565b9052505b60808201805190610b8882611ac4565b60ff16905250610a63565b6001600160a01b03851615610c7357610bb187868460e00151610f41565b60c0830181905215610c735760408051808201825260c08401516001600160a01b03808b166000908152600260209081528582208a83528152858220928b16825291909152929092205490918291610c099190611a38565b8152600060209182018190526001600160a01b038a811682526002835260408083208984528452808320918a168352908352902082518155918101516001909201805460ff19169215159290921790915560c08301519083018051610c6f908390611a38565b9052505b8160e0015182602001511115610d175760405162461bcd60e51b815260206004820152605c60248201527f416c6c6f636174696f6e416461707465723a3a616c6c6f6361746550726f6a6560448201527f6374546f6b656e3a3a6469737472696275746520746f6b656e20616d6f756e7460648201527f20657863656564732072657475726e20746f6b656e20616d6f756e7400000000608482015260a4016102ca565b7fb30991f84bbcadc6375188d275cc12036a829854c38fa1fb9bf1125fc45b08fe87858784604051610d4c9493929190611974565b60405180910390a150505050505050565b6040516317ba7d8560e01b81527f8295fbcf0c0d839b7cf11cacb43f22c81604fd9f0e4b295ff1d641ad9dd5786a60048201526000906001600160a01b038516906317ba7d859060240160206040518083038186803b158015610dbf57600080fd5b505afa158015610dd3573d6000803e3d6000fd5b505050506040513d601f19601f82011682018060405250810190610df791906116d8565b6001600160a01b0316336001600160a01b031614610e7d5760405162461bcd60e51b815260206004820152602b60248201527f416c6c6f636174696f6e416461707465723a73747265616d437265617465643a60448201527f4163636573732064656e7900000000000000000000000000000000000000000060648201526084016102ca565b6001600160a01b03938416600090815260026020908152604080832095835294815284822093909516815291909352206001908101805460ff1916909117905590565b6001600160a01b03808416600090815260026020908152604080832086845282528083209385168352929052206001015460ff165b9392505050565b6001600160a01b038084166000908152600260209081526040808320858452825280832093861683529290529081205415610f3957506001610ef5565b506000610ef5565b6040517fa230c5240000000000000000000000000000000000000000000000000000000081526001600160a01b0383811660048301526000919085169063a230c5249060240160206040518083038186803b158015610f9f57600080fd5b505afa158015610fb3573d6000803e3d6000fd5b505050506040513d601f19601f82011682018060405250810190610fd791906117e9565b610fe357506000610ef5565b6040517f9283ae3a0000000000000000000000000000000000000000000000000000000081527f23bba46e5025fb6d2325c93cad4f861289d697c0913f7e18dab6bb065e2bdc286004820152600090670de0b6b3a7640000906001600160a01b03871690639283ae3a9060240160206040518083038186803b15801561106857600080fd5b505afa15801561107c573d6000803e3d6000fd5b505050506040513d601f19601f820116820180604052508101906110a0919061195c565b6110aa9085611a70565b6110b49190611a50565b95945050505050565b6040517f68c18beb00000000000000000000000000000000000000000000000000000000815233600482015283906001600160a01b038216906368c18beb9060240160206040518083038186803b15801561111757600080fd5b505afa15801561112b573d6000803e3d6000fd5b505050506040513d601f19601f8201168201806040525081019061114f91906117e9565b8061115e575061115e81611499565b6111aa5760405162461bcd60e51b815260206004820152600b60248201527f6f6e6c794164617074657200000000000000000000000000000000000000000060448201526064016102ca565b50505050565b6040517f593e96b60000000000000000000000000000000000000000000000000000000081527f161fca6912f107b0f13c9c7275de7391b32d2ea1c52ffba65a3c961880a0c60f600482015260009081906001600160a01b0386169063593e96b69060240160206040518083038186803b15801561122d57600080fd5b505afa158015611241573d6000803e3d6000fd5b505050506040513d601f19601f8201168201806040525081019061126591906116d8565b6040517f9283ae3a0000000000000000000000000000000000000000000000000000000081527f23bba46e5025fb6d2325c93cad4f861289d697c0913f7e18dab6bb065e2bdc286004820152909150600090670de0b6b3a7640000906001600160a01b03881690639283ae3a9060240160206040518083038186803b1580156112ed57600080fd5b505afa158015611301573d6000803e3d6000fd5b505050506040513d601f19601f82011682018060405250810190611325919061195c565b61132f9086611a70565b6113399190611a50565b6113439085611aad565b90506000826001600160a01b03166318160ddd6040518163ffffffff1660e01b815260040160206040518083038186803b15801561138057600080fd5b505afa158015611394573d6000803e3d6000fd5b505050506040513d601f19601f820116820180604052508101906113b8919061195c565b6040517f70a082310000000000000000000000000000000000000000000000000000000081526001600160a01b0388811660048301529192506000918516906370a082319060240160206040518083038186803b15801561141857600080fd5b505afa15801561142c573d6000803e3d6000fd5b505050506040513d601f19601f82011682018060405250810190611450919061195c565b905081158061145d575080155b80611466575082155b15611478576000945050505050610ef5565b816114838483611a70565b61148d9190611a50565b98975050505050505050565b600080826001600160a01b031663c19d93fb6040518163ffffffff1660e01b815260040160206040518083038186803b1580156114d557600080fd5b505afa1580156114e9573d6000803e3d6000fd5b505050506040513d601f19601f8201168201806040525081019061150d919061193d565b600181111561152c57634e487b7160e01b600052602160045260246000fd5b1480156116d25750816001600160a01b031663c67143666040518163ffffffff1660e01b815260040160206040518083038186803b15801561156d57600080fd5b505afa158015611581573d6000803e3d6000fd5b505050506040513d601f19601f820116820180604052508101906115a5919061195c565b158061163c57506040517fa230c5240000000000000000000000000000000000000000000000000000000081523360048201526001600160a01b0383169063a230c5249060240160206040518083038186803b15801561160457600080fd5b505afa158015611618573d6000803e3d6000fd5b505050506040513d601f19601f8201168201806040525081019061163c91906117e9565b806116d257506040517f68c18beb0000000000000000000000000000000000000000000000000000000081523360048201526001600160a01b038316906368c18beb9060240160206040518083038186803b15801561169a57600080fd5b505afa1580156116ae573d6000803e3d6000fd5b505050506040513d601f19601f820116820180604052508101906116d291906117e9565b92915050565b6000602082840312156116e9578081fd5b8151610ef581611b10565b600080600060608486031215611708578182fd5b833561171381611b10565b925060208401359150604084013561172a81611b10565b809150509250925092565b60006020808385031215611747578182fd5b825167ffffffffffffffff8082111561175e578384fd5b818501915085601f830112611771578384fd5b81518181111561178357611783611afa565b8060051b9150611794848301611a07565b8181528481019084860184860187018a10156117ae578788fd5b8795505b838610156117dc57805194506117c785611b10565b848352600195909501949186019186016117b2565b5098975050505050505050565b6000602082840312156117fa578081fd5b81518015158114610ef5578182fd5b6000806000806000610140808789031215611822578182fd5b863561182d81611b10565b955060208781013561183e81611b10565b9550604088013561184e81611b10565b945060608801359350609f88018913611865578283fd5b61186d6119de565b8060808a018b858c011115611880578586fd5b8594505b60068510156118a3578035835260019490940193918301918301611884565b50809450505050509295509295909350565b6000806000606084860312156118c9578283fd5b83356118d481611b10565b925060208401356118e481611b10565b929592945050506040919091013590565b600080600060608486031215611708578283fd5b60008060006060848603121561191d578283fd5b833561192881611b10565b95602085013595506040909401359392505050565b60006020828403121561194e578081fd5b815160028110610ef5578182fd5b60006020828403121561196d578081fd5b5051919050565b6000608082016001600160a01b0380881684526020878186015281871660408601526080606086015282865180855260a0870191508288019450855b818110156119ce5785518516835294830194918301916001016119b0565b50909a9950505050505050505050565b60405160c0810167ffffffffffffffff81118282101715611a0157611a01611afa565b60405290565b604051601f8201601f1916810167ffffffffffffffff81118282101715611a3057611a30611afa565b604052919050565b60008219821115611a4b57611a4b611ae4565b500190565b600082611a6b57634e487b7160e01b81526012600452602481fd5b500490565b6000817fffffffffffffffffffffffffffffffffffffffffffffffffffffffffffffffff0483118215151615611aa857611aa8611ae4565b500290565b600082821015611abf57611abf611ae4565b500390565b600060ff821660ff811415611adb57611adb611ae4565b60010192915050565b634e487b7160e01b600052601160045260246000fd5b634e487b7160e01b600052604160045260246000fd5b6001600160a01b0381168114611b2557600080fd5b5056fea2646970667358221220f64f927a18409a182c220a33a03225ef11581a543a0242074108d7964428607d64736f6c63430008040033",
  "linkReferences": {},
  "deployedLinkReferences": {}
}