{
  "_format": "hh-sol-artifact-1",
  "contractName": "VintageFundingPoolAdapterContract",
  "sourceName": "contracts/vintage/adapters/VintageFundingPoolAdapter.sol",
  "abi": [
    {
      "inputs": [],
      "name": "MAX_PATICIPANT_AMOUNT_REACH",
      "type": "error"
    },
    {
      "anonymous": false,
      "inputs": [
        {
          "indexed": false,
          "internalType": "address",
          "name": "dao",
          "type": "address"
        },
        {
          "indexed": false,
          "internalType": "uint256",
          "name": "amount",
          "type": "uint256"
        },
        {
          "indexed": false,
          "internalType": "address",
          "name": "executor",
          "type": "address"
        }
      ],
      "name": "ClearFund",
      "type": "event"
    },
    {
      "anonymous": false,
      "inputs": [
        {
          "indexed": false,
          "internalType": "address",
          "name": "daoAddress",
          "type": "address"
        },
        {
          "indexed": false,
          "internalType": "uint256",
          "name": "amount",
          "type": "uint256"
        },
        {
          "indexed": false,
          "internalType": "address",
          "name": "account",
          "type": "address"
        }
      ],
      "name": "Deposit",
      "type": "event"
    },
    {
      "anonymous": false,
      "inputs": [
        {
          "indexed": false,
          "internalType": "address",
          "name": "oldOwner",
          "type": "address"
        },
        {
          "indexed": false,
          "internalType": "address",
          "name": "newOwner",
          "type": "address"
        }
      ],
      "name": "OwnerChanged",
      "type": "event"
    },
    {
      "anonymous": false,
      "inputs": [
        {
          "indexed": false,
          "internalType": "address",
          "name": "dao",
          "type": "address"
        },
        {
          "indexed": false,
          "internalType": "uint256",
          "name": "fundRound",
          "type": "uint256"
        },
        {
          "indexed": false,
          "internalType": "uint256",
          "name": "fundRaiseState",
          "type": "uint256"
        },
        {
          "indexed": false,
          "internalType": "uint256",
          "name": "fundRaisedAmount",
          "type": "uint256"
        }
      ],
      "name": "ProcessFundRaise",
      "type": "event"
    },
    {
      "anonymous": false,
      "inputs": [
        {
          "indexed": false,
          "internalType": "address",
          "name": "dao",
          "type": "address"
        },
        {
          "indexed": false,
          "internalType": "address",
          "name": "account",
          "type": "address"
        },
        {
          "indexed": false,
          "internalType": "uint256",
          "name": "redempAmount",
          "type": "uint256"
        },
        {
          "indexed": false,
          "internalType": "uint256",
          "name": "redemptionFee",
          "type": "uint256"
        }
      ],
      "name": "RedeptionFeeCharged",
      "type": "event"
    },
    {
      "anonymous": false,
      "inputs": [
        {
          "indexed": false,
          "internalType": "address",
          "name": "daoAddress",
          "type": "address"
        },
        {
          "indexed": false,
          "internalType": "uint256",
          "name": "amount",
          "type": "uint256"
        },
        {
          "indexed": false,
          "internalType": "address",
          "name": "account",
          "type": "address"
        }
      ],
      "name": "WithDraw",
      "type": "event"
    },
    {
      "inputs": [
        {
          "internalType": "contract DaoRegistry",
          "name": "dao",
          "type": "address"
        },
        {
          "internalType": "address",
          "name": "investorAddr",
          "type": "address"
        }
      ],
      "name": "balanceOf",
      "outputs": [
        {
          "internalType": "uint256",
          "name": "",
          "type": "uint256"
        }
      ],
      "stateMutability": "view",
      "type": "function"
    },
    {
      "inputs": [
        {
          "internalType": "contract DaoRegistry",
          "name": "dao",
          "type": "address"
        }
      ],
      "name": "clearFund",
      "outputs": [],
      "stateMutability": "nonpayable",
      "type": "function"
    },
    {
      "inputs": [
        {
          "internalType": "contract DaoRegistry",
          "name": "dao",
          "type": "address"
        }
      ],
      "name": "clearInvestorWhitelist",
      "outputs": [],
      "stateMutability": "nonpayable",
      "type": "function"
    },
    {
      "inputs": [
        {
          "internalType": "contract DaoRegistry",
          "name": "dao",
          "type": "address"
        },
        {
          "internalType": "uint32",
          "name": "quorum",
          "type": "uint32"
        },
        {
          "internalType": "uint32",
          "name": "superMajority",
          "type": "uint32"
        }
      ],
      "name": "configureDao",
      "outputs": [],
      "stateMutability": "nonpayable",
      "type": "function"
    },
    {
      "inputs": [
        {
          "internalType": "address",
          "name": "",
          "type": "address"
        }
      ],
      "name": "daoFundRaisingStates",
      "outputs": [
        {
          "internalType": "enum DaoHelper.FundRaiseState",
          "name": "",
          "type": "uint8"
        }
      ],
      "stateMutability": "view",
      "type": "function"
    },
    {
      "inputs": [
        {
          "internalType": "contract DaoRegistry",
          "name": "dao",
          "type": "address"
        },
        {
          "internalType": "uint256",
          "name": "amount",
          "type": "uint256"
        }
      ],
      "name": "deposit",
      "outputs": [],
      "stateMutability": "nonpayable",
      "type": "function"
    },
    {
      "inputs": [
        {
          "internalType": "address",
          "name": "",
          "type": "address"
        },
        {
          "internalType": "bytes32",
          "name": "",
          "type": "bytes32"
        }
      ],
      "name": "freeINPriorityDeposits",
      "outputs": [
        {
          "internalType": "uint256",
          "name": "",
          "type": "uint256"
        }
      ],
      "stateMutability": "view",
      "type": "function"
    },
    {
      "inputs": [
        {
          "internalType": "contract DaoRegistry",
          "name": "dao",
          "type": "address"
        },
        {
          "internalType": "uint256",
          "name": "fundRound",
          "type": "uint256"
        }
      ],
      "name": "getFundInvestors",
      "outputs": [
        {
          "internalType": "address[]",
          "name": "",
          "type": "address[]"
        }
      ],
      "stateMutability": "view",
      "type": "function"
    },
    {
      "inputs": [
        {
          "internalType": "contract DaoRegistry",
          "name": "dao",
          "type": "address"
        }
      ],
      "name": "getInvestorMembershipWhiteList",
      "outputs": [
        {
          "internalType": "address[]",
          "name": "",
          "type": "address[]"
        }
      ],
      "stateMutability": "view",
      "type": "function"
    },
    {
      "inputs": [
        {
          "internalType": "contract DaoRegistry",
          "name": "dao",
          "type": "address"
        }
      ],
      "name": "governorBalance",
      "outputs": [
        {
          "internalType": "uint256",
          "name": "",
          "type": "uint256"
        }
      ],
      "stateMutability": "view",
      "type": "function"
    },
    {
      "inputs": [
        {
          "internalType": "contract DaoRegistry",
          "name": "dao",
          "type": "address"
        },
        {
          "internalType": "uint256",
          "name": "timeStamp",
          "type": "uint256"
        }
      ],
      "name": "ifInRedemptionPeriod",
      "outputs": [
        {
          "internalType": "bool",
          "name": "",
          "type": "bool"
        }
      ],
      "stateMutability": "view",
      "type": "function"
    },
    {
      "inputs": [
        {
          "internalType": "contract DaoRegistry",
          "name": "dao",
          "type": "address"
        },
        {
          "internalType": "address",
          "name": "account",
          "type": "address"
        }
      ],
      "name": "ifInvestorMembershipWhiteList",
      "outputs": [
        {
          "internalType": "bool",
          "name": "",
          "type": "bool"
        }
      ],
      "stateMutability": "view",
      "type": "function"
    },
    {
      "inputs": [
        {
          "internalType": "contract DaoRegistry",
          "name": "dao",
          "type": "address"
        },
        {
          "internalType": "address",
          "name": "_addr",
          "type": "address"
        }
      ],
      "name": "isActiveMember",
      "outputs": [
        {
          "internalType": "bool",
          "name": "",
          "type": "bool"
        }
      ],
      "stateMutability": "view",
      "type": "function"
    },
    {
      "inputs": [
        {
          "internalType": "contract DaoRegistry",
          "name": "dao",
          "type": "address"
        }
      ],
      "name": "poolBalance",
      "outputs": [
        {
          "internalType": "uint256",
          "name": "",
          "type": "uint256"
        }
      ],
      "stateMutability": "view",
      "type": "function"
    },
    {
      "inputs": [
        {
          "internalType": "contract DaoRegistry",
          "name": "dao",
          "type": "address"
        }
      ],
      "name": "processFundRaise",
      "outputs": [
        {
          "internalType": "bool",
          "name": "",
          "type": "bool"
        }
      ],
      "stateMutability": "nonpayable",
      "type": "function"
    },
    {
      "inputs": [],
      "name": "protocolFee",
      "outputs": [
        {
          "internalType": "uint256",
          "name": "",
          "type": "uint256"
        }
      ],
      "stateMutability": "view",
      "type": "function"
    },
    {
      "inputs": [
        {
          "internalType": "contract DaoRegistry",
          "name": "dao",
          "type": "address"
        },
        {
          "internalType": "address",
          "name": "account",
          "type": "address"
        }
      ],
      "name": "registerInvestorWhiteList",
      "outputs": [],
      "stateMutability": "nonpayable",
      "type": "function"
    },
    {
      "inputs": [
        {
          "internalType": "contract DaoRegistry",
          "name": "dao",
          "type": "address"
        }
      ],
      "name": "resetFundRaiseState",
      "outputs": [],
      "stateMutability": "nonpayable",
      "type": "function"
    },
    {
      "inputs": [
        {
          "internalType": "contract DaoRegistry",
          "name": "dao",
          "type": "address"
        },
        {
          "internalType": "uint256",
          "name": "feeProtocol",
          "type": "uint256"
        }
      ],
      "name": "setProtocolFee",
      "outputs": [],
      "stateMutability": "nonpayable",
      "type": "function"
    },
    {
      "inputs": [
        {
          "internalType": "contract DaoRegistry",
          "name": "dao",
          "type": "address"
        },
        {
          "internalType": "uint256",
          "name": "amount",
          "type": "uint256"
        }
      ],
      "name": "withdraw",
      "outputs": [],
      "stateMutability": "nonpayable",
      "type": "function"
    }
  ],
  "bytecode": "0x6080604052660aa87bee53800060015534801561001b57600080fd5b50615f67806200002c6000396000f3fe608060405234801561001057600080fd5b506004361061016c5760003560e01c80638ecf7720116100cd578063b5b3ca2c11610081578063f3fef3a311610066578063f3fef3a314610315578063f7888aec14610328578063ff8bb0d01461033b57600080fd5b8063b5b3ca2c146102ef578063f10e6b6b1461030257600080fd5b8063a5e34110116100b2578063a5e34110146102c0578063ac7e7eba146102d3578063b0e21e8a146102e657600080fd5b80638ecf77201461029a57806396609c42146102ad57600080fd5b806347e7ef241161012457806368abb5e01161010957806368abb5e01461023b57806383cffffe1461025c578063861f67521461026f57600080fd5b806347e7ef241461021557806368395f3f1461022857600080fd5b80631ee1a2b0116101555780631ee1a2b0146101af5780633a844ec0146101df5780633e1d6ed81461020257600080fd5b8063075724cf146101715780631d729e6114610186575b600080fd5b61018461017f366004615d69565b61034e565b005b610199610194366004615b98565b610446565b6040516101a69190615dcc565b60405180910390f35b6101d26101bd366004615b98565b60006020819052908152604090205460ff1681565b6040516101a69190615e19565b6101f26101ed366004615d57565b610470565b60405190151581526020016101a6565b610199610210366004615d57565b6107c1565b610184610223366004615d57565b6107f7565b6101f2610236366004615d1f565b611ec4565b61024e610249366004615b98565b611ee6565b6040519081526020016101a6565b61018461026a366004615b98565b611fff565b61024e61027d366004615bd0565b600460209081526000928352604080842090915290825290205481565b6101f26102a8366004615d1f565b612a1a565b6101f26102bb366004615b98565b612ab0565b61024e6102ce366004615b98565b61300e565b6101846102e1366004615d1f565b6130db565b61024e60015481565b6101846102fd366004615d57565b61322e565b610184610310366004615b98565b6133e9565b610184610323366004615d57565b61352a565b61024e610336366004615d1f565b6141c6565b610184610349366004615b98565b6142e7565b6040517f68c18beb00000000000000000000000000000000000000000000000000000000815233600482015283906001600160a01b038216906368c18beb9060240160206040518083038186803b1580156103a857600080fd5b505afa1580156103bc573d6000803e3d6000fd5b505050506040513d601f19601f820116820180604052508101906103e09190615cc2565b806103ef57506103ef816144b1565b6104405760405162461bcd60e51b815260206004820152600b60248201527f6f6e6c794164617074657200000000000000000000000000000000000000000060448201526064015b60405180910390fd5b50505050565b6001600160a01b038116600090815260026020526040902060609061046a906146ea565b92915050565b604051634941d71d60e11b81527fd99dae5492aa0c08830764a319f29225cc739a0ed8683d8fd1b5bc3a8fe31672600482015260009081906001600160a01b03851690639283ae3a9060240160206040518083038186803b1580156104d457600080fd5b505afa1580156104e8573d6000803e3d6000fd5b505050506040513d601f19601f8201168201806040525081019061050c9190615d07565b604051634941d71d60e11b81527f9ce69cf04065e3c7823cc5540c0598d8a694bd7a9a5a2a786d8bccf14ed6e2ea60048201529091506000906001600160a01b03861690639283ae3a9060240160206040518083038186803b15801561057157600080fd5b505afa158015610585573d6000803e3d6000fd5b505050506040513d601f19601f820116820180604052508101906105a99190615d07565b604051634941d71d60e11b81527f6a2acfe6164f3ec20e6d80e2f4e4f7ae2b9962615c9596c872d01f6cd244aed360048201529091506000906001600160a01b03871690639283ae3a9060240160206040518083038186803b15801561060e57600080fd5b505afa158015610622573d6000803e3d6000fd5b505050506040513d601f19601f820116820180604052508101906106469190615d07565b604051634941d71d60e11b81527f2305fa3a9f84625f75d70f539e621c658cf49e7477ab5af9cacd278ca7904e3060048201529091506000906001600160a01b03881690639283ae3a9060240160206040518083038186803b1580156106ab57600080fd5b505afa1580156106bf573d6000803e3d6000fd5b505050506040513d601f19601f820116820180604052508101906106e39190615d07565b905060006106f18585615eb6565b90508215806106fe575081155b80610707575080155b1561071a5760009550505050505061046a565b60006107268383615e59565b905060008060005b8381116107af57821561074a576107458684615e41565b610754565b610754868a615e41565b92506107608784615eb6565b9150818b1180156107705750828b105b801561077b5750888b115b80156107865750878b105b1561079d576001995050505050505050505061046a565b6107a8600182615e41565b905061072e565b5060009b9a5050505050505050505050565b6001600160a01b038216600090815260036020908152604080832084845290915290206060906107f0906146ea565b9392505050565b816000610803826146f7565b604051634941d71d60e11b81527f1405d0156cf64c805704fdf6691baebfcfa0d409ea827c231693ff0581b0b7776004820152909150849033906001600160a01b03831690639283ae3a9060240160206040518083038186803b15801561086957600080fd5b505afa15801561087d573d6000803e3d6000fd5b505050506040513d601f19601f820116820180604052508101906108a19190615d07565b60011415610ec957604051634941d71d60e11b81527f80140cd7e0b1d935bee578a67a41547c82987de8e7d6b3827d411b738110258b60048201526000906001600160a01b03841690639283ae3a9060240160206040518083038186803b15801561090b57600080fd5b505afa15801561091f573d6000803e3d6000fd5b505050506040513d601f19601f820116820180604052508101906109439190615d07565b6040517ffd310d290000000000000000000000000000000000000000000000000000000081527fe373ab56628c86db3f0e36774c2c5e0393f9272ff5c976bc3f0db2db60cdbc1460048201529091506000906001600160a01b0385169063fd310d299060240160206040518083038186803b1580156109c157600080fd5b505afa1580156109d5573d6000803e3d6000fd5b505050506040513d601f19601f820116820180604052508101906109f99190615bb4565b604051634941d71d60e11b81527f04ecaf460eb9f82aeb70035e3f24c18a3650fa0da9ddbe7e63d70de659b9b90160048201529091506000906001600160a01b03861690639283ae3a9060240160206040518083038186803b158015610a5e57600080fd5b505afa158015610a72573d6000803e3d6000fd5b505050506040513d601f19601f82011682018060405250810190610a969190615d07565b604051634941d71d60e11b81527f6cb5bc3796b0717ca4ff665886c96fb0178d6341366eb7b6c737fe79083b836a60048201529091506000906001600160a01b03871690639283ae3a9060240160206040518083038186803b158015610afb57600080fd5b505afa158015610b0f573d6000803e3d6000fd5b505050506040513d601f19601f82011682018060405250810190610b339190615d07565b905083610c2f576040516370a0823160e01b81526001600160a01b0386811660048301528391908516906370a082319060240160206040518083038186803b158015610b7e57600080fd5b505afa158015610b92573d6000803e3d6000fd5b505050506040513d601f19601f82011682018060405250810190610bb69190615d07565b1015610c2a5760405162461bcd60e51b815260206004820152603d60248201527f56696e74616765204465706f7369743a3a646f6e74206d656574206d696e206560448201527f7263323020746f6b656e20686f6c64696e67207265717569726d656e740000006064820152608401610437565b610ec4565b8360011415610d28576040516370a0823160e01b81526001600160a01b0386811660048301528391908516906370a082319060240160206040518083038186803b158015610c7c57600080fd5b505afa158015610c90573d6000803e3d6000fd5b505050506040513d601f19601f82011682018060405250810190610cb49190615d07565b1015610c2a5760405162461bcd60e51b815260206004820152603d60248201527f56696e74616765204465706f7369743a646f6e74206d656574206d696e20657260448201527f6337323120746f6b656e20686f6c64696e67207265717569726d656e740000006064820152608401610437565b8360021415610e3f576040517efdd58e0000000000000000000000000000000000000000000000000000000081526001600160a01b0386811660048301526024820183905283919085169062fdd58e9060440160206040518083038186803b158015610d9357600080fd5b505afa158015610da7573d6000803e3d6000fd5b505050506040513d601f19601f82011682018060405250810190610dcb9190615d07565b1015610c2a5760405162461bcd60e51b815260206004820152603e60248201527f56696e74616765204465706f7369743a646f6e74206d656574206d696e20657260448201527f633131353520746f6b656e20686f6c64696e67207265717569726d656e7400006064820152608401610437565b8360031415610ec457610e528686611ec4565b610c2a5760405162461bcd60e51b815260206004820152602260248201527f56696e74616765204465706f7369743a3a206e6f7420696e2077686974656c6960448201527f73740000000000000000000000000000000000000000000000000000000000006064820152608401610437565b505050505b60008511610f195760405162461bcd60e51b815260206004820152600760248201527f21616d6f756e74000000000000000000000000000000000000000000000000006044820152606401610437565b610f646040518060c0016040528060008152602001600081526020016000815260200160006001600160a01b0316815260200160006001600160a01b03168152602001600081525090565b604051634941d71d60e11b81527f5fa39c8100b49336846e52d39403e353bf782275f905a885f09224779ff1c92460048201526001600160a01b03881690639283ae3a9060240160206040518083038186803b158015610fc357600080fd5b505afa158015610fd7573d6000803e3d6000fd5b505050506040513d601f19601f82011682018060405250810190610ffb9190615d07565b8152604051634941d71d60e11b81527fbdd40865e74210f0a46799ae63462c62010da92014a08cbc32f1d049d0a22c6b60048201526001600160a01b03881690639283ae3a9060240160206040518083038186803b15801561105c57600080fd5b505afa158015611070573d6000803e3d6000fd5b505050506040513d601f19601f820116820180604052508101906110949190615d07565b6020820152604051634941d71d60e11b81527f7e07fb4530796d057ca1d76d83f47aa8629dbb7e942ac28f30ad6f5e9e8d418960048201526001600160a01b03881690639283ae3a9060240160206040518083038186803b1580156110f857600080fd5b505afa15801561110c573d6000803e3d6000fd5b505050506040513d601f19601f820116820180604052508101906111309190615d07565b60408201526020810151156111935780602001518610156111935760405162461bcd60e51b815260206004820152601460248201527f3c206d696e206465706f73697420616d6f756e740000000000000000000000006044820152606401610437565b8051156111fe5780516111a688336141c6565b6111b09088615e41565b11156111fe5760405162461bcd60e51b815260206004820152601460248201527f3e206d6178206465706f73697420616d6f756e740000000000000000000000006044820152606401610437565b604051634941d71d60e11b81527fbd04d44792b7dbfe3b50b0f9f2006f7ef449e374a39021cb9bfa7cd0bdd850d7600482015242906001600160a01b03891690639283ae3a9060240160206040518083038186803b15801561125f57600080fd5b505afa158015611273573d6000803e3d6000fd5b505050506040513d601f19601f820116820180604052508101906112979190615d07565b10801561133a5750604051634941d71d60e11b81527f533afc15b6312917b5e28e2272ea69d44e5ea8e00d3bd57cada1275c2f14c9e8600482015242906001600160a01b03891690639283ae3a9060240160206040518083038186803b15801561130057600080fd5b505afa158015611314573d6000803e3d6000fd5b505050506040513d601f19601f820116820180604052508101906113389190615d07565b115b6113865760405162461bcd60e51b815260206004820152601360248201527f2166756e6472616973696e672077696e646f77000000000000000000000000006044820152606401610437565b604051634941d71d60e11b81527fbe07eea886ce63e8ab49ef6fd986e9dea247fbb31da43dd1df3e153cc548277a60048201526001600160a01b03881690639283ae3a9060240160206040518083038186803b1580156113e557600080fd5b505afa1580156113f9573d6000803e3d6000fd5b505050506040513d601f19601f8201168201806040525081019061141d9190615d07565b15801561142e575060008160400151115b1561149a5780604001518661144289611ee6565b61144c9190615e41565b111561149a5760405162461bcd60e51b815260206004820152601660248201527f3e2046756e647261697365206d617820616d6f756e74000000000000000000006044820152606401610437565b604051632c9f4b5b60e11b81527f161fca6912f107b0f13c9c7275de7391b32d2ea1c52ffba65a3c961880a0c60f60048201526001600160a01b0388169063593e96b69060240160206040518083038186803b1580156114f957600080fd5b505afa15801561150d573d6000803e3d6000fd5b505050506040513d601f19601f820116820180604052508101906115319190615bb4565b6001600160a01b0390811660608301526040516317ba7d8560e01b81527fa837e34a29b67bf52f684a1c93def79b84b9c012732becee4e5df62809df64ed6004820152908816906317ba7d859060240160206040518083038186803b15801561159957600080fd5b505afa1580156115ad573d6000803e3d6000fd5b505050506040513d601f19601f820116820180604052508101906115d19190615bb4565b6001600160a01b0390811660808301819052604051634fc0a76d60e01b8152918916600483015290634fc0a76d9060240160206040518083038186803b15801561161a57600080fd5b505afa15801561162e573d6000803e3d6000fd5b505050506040513d601f19601f820116820180604052508101906116529190615d07565b60a0820152604051634941d71d60e11b81527f69f4ffb3ebcb7809550bddd3e4d449a47e737bf6635bc7a730996643997b0e4860048201526001600160a01b03881690639283ae3a9060240160206040518083038186803b1580156116b657600080fd5b505afa1580156116ca573d6000803e3d6000fd5b505050506040513d601f19601f820116820180604052508101906116ee9190615d07565b60011480156117c25750604051634941d71d60e11b81527fecbde689cc6337d29a750b8b8a8abbfa97427b4ac800ab55be2f2c87311510f260048201526001600160a01b03881690639283ae3a9060240160206040518083038186803b15801561175757600080fd5b505afa15801561176b573d6000803e3d6000fd5b505050506040513d601f19601f8201168201806040525081019061178f9190615d07565b6001600160a01b038816600090815260036020908152604080832060a0860151845290915290206117bf906149c2565b10155b80156117fc57506001600160a01b038716600090815260036020908152604080832060a0850151845290915290206117fa90336149cc565b155b15611833576040517ffa088e8a00000000000000000000000000000000000000000000000000000000815260040160405180910390fd5b600081606001516001600160a01b031663a87af66c6040518163ffffffff1660e01b815260040160206040518083038186803b15801561187257600080fd5b505afa158015611886573d6000803e3d6000fd5b505050506040513d601f19601f820116820180604052508101906118aa9190615bb4565b6040516370a0823160e01b815233600482015290915087906001600160a01b038316906370a082319060240160206040518083038186803b1580156118ee57600080fd5b505afa158015611902573d6000803e3d6000fd5b505050506040513d601f19601f820116820180604052508101906119269190615d07565b10156119745760405162461bcd60e51b815260206004820152600560248201527f2166756e640000000000000000000000000000000000000000000000000000006044820152606401610437565b6040517fdd62ed3e00000000000000000000000000000000000000000000000000000000815233600482015230602482015287906001600160a01b0383169063dd62ed3e9060440160206040518083038186803b1580156119d457600080fd5b505afa1580156119e8573d6000803e3d6000fd5b505050506040513d601f19601f82011682018060405250810190611a0c9190615d07565b1015611a5a5760405162461bcd60e51b815260206004820152600a60248201527f21616c6c6f77616e6365000000000000000000000000000000000000000000006044820152606401610437565b6040517f23b872dd000000000000000000000000000000000000000000000000000000008152336004820152306024820152604481018890526001600160a01b038216906323b872dd90606401602060405180830381600087803b158015611ac157600080fd5b505af1158015611ad5573d6000803e3d6000fd5b505050506040513d601f19601f82011682018060405250810190611af99190615cc2565b50604051632c9f4b5b60e11b81527f161fca6912f107b0f13c9c7275de7391b32d2ea1c52ffba65a3c961880a0c60f60048201526001600160a01b038083169163095ea7b3918b169063593e96b69060240160206040518083038186803b158015611b6357600080fd5b505afa158015611b77573d6000803e3d6000fd5b505050506040513d601f19601f82011682018060405250810190611b9b9190615bb4565b6040516001600160e01b031960e084901b1681526001600160a01b039091166004820152602481018a9052604401602060405180830381600087803b158015611be357600080fd5b505af1158015611bf7573d6000803e3d6000fd5b505050506040513d601f19601f82011682018060405250810190611c1b9190615cc2565b5060608201516040517fb08079a6000000000000000000000000000000000000000000000000000000008152336004820152602481018990526001600160a01b039091169063b08079a690604401600060405180830381600087803b158015611c8357600080fd5b505af1158015611c97573d6000803e3d6000fd5b50505050611caa88338460a001516149ee565b60808201516040516301c22a3d60e01b81526001600160a01b038a8116600483015290911690636d3cc040908a9083906301c22a3d9060240160206040518083038186803b158015611cfb57600080fd5b505afa158015611d0f573d6000803e3d6000fd5b505050506040513d601f19601f82011682018060405250810190611d339190615d07565b6040516001600160e01b031960e085901b1681526001600160a01b039092166004830152602482015233604482015260640160206040518083038186803b158015611d7d57600080fd5b505afa158015611d91573d6000803e3d6000fd5b505050506040513d601f19601f82011682018060405250810190611db59190615cc2565b15611e6e576001600160a01b038089166000818152600460208190526040808320608088015191516301c22a3d60e01b8152928301949094528b9416906301c22a3d9060240160206040518083038186803b158015611e1357600080fd5b505afa158015611e27573d6000803e3d6000fd5b505050506040513d601f19601f82011682018060405250810190611e4b9190615d07565b81526020019081526020016000206000828254611e689190615e41565b90915550505b604080516001600160a01b038a16815260208101899052338183015290517fe31c7b8d08ee7db0afa68782e1028ef92305caeea8626633ad44d413e30f6b2f9181900360600190a1505050506104408282614a4c565b6001600160a01b03821660009081526002602052604081206107f090836149cc565b604051632c9f4b5b60e11b81527f161fca6912f107b0f13c9c7275de7391b32d2ea1c52ffba65a3c961880a0c60f600482015260009081906001600160a01b0384169063593e96b69060240160206040518083038186803b158015611f4a57600080fd5b505afa158015611f5e573d6000803e3d6000fd5b505050506040513d601f19601f82011682018060405250810190611f829190615bb4565b6040516370a0823160e01b815261decd60048201529091506001600160a01b038216906370a08231906024015b60206040518083038186803b158015611fc757600080fd5b505afa158015611fdb573d6000803e3d6000fd5b505050506040513d601f19601f820116820180604052508101906107f09190615d07565b80600061200b826146f7565b905060036001600160a01b03841660009081526020819052604090205460ff16600381111561204a57634e487b7160e01b600052602160045260246000fd5b14801561218d5750604051634941d71d60e11b81527fb0d4178853a5320a41f8c55fa6d58af06637e392beff71e66dba4e8f32c39bb860048201526001600160a01b03841690639283ae3a9060240160206040518083038186803b1580156120b157600080fd5b505afa1580156120c5573d6000803e3d6000fd5b505050506040513d601f19601f820116820180604052508101906120e99190615d07565b604051634941d71d60e11b81527f533afc15b6312917b5e28e2272ea69d44e5ea8e00d3bd57cada1275c2f14c9e860048201526001600160a01b03851690639283ae3a9060240160206040518083038186803b15801561214857600080fd5b505afa15801561215c573d6000803e3d6000fd5b505050506040513d601f19601f820116820180604052508101906121809190615d07565b61218a9190615e41565b42115b80612313575060026001600160a01b03841660009081526020819052604090205460ff1660038111156121d057634e487b7160e01b600052602160045260246000fd5b1480156123135750604051634941d71d60e11b81527fb0d4178853a5320a41f8c55fa6d58af06637e392beff71e66dba4e8f32c39bb860048201526001600160a01b03841690639283ae3a9060240160206040518083038186803b15801561223757600080fd5b505afa15801561224b573d6000803e3d6000fd5b505050506040513d601f19601f8201168201806040525081019061226f9190615d07565b604051634941d71d60e11b81527f9ce69cf04065e3c7823cc5540c0598d8a694bd7a9a5a2a786d8bccf14ed6e2ea60048201526001600160a01b03851690639283ae3a9060240160206040518083038186803b1580156122ce57600080fd5b505afa1580156122e2573d6000803e3d6000fd5b505050506040513d601f19601f820116820180604052508101906123069190615d07565b6123109190615e41565b42115b6123855760405162461bcd60e51b815260206004820152603a60248201527f46756e64696e67506f6f6c416461707465723a3a636c65617246756e643a3a4360448201527f616e7420636c65617246756e6420617420746869732074696d650000000000006064820152608401610437565b604051632c9f4b5b60e11b81527f161fca6912f107b0f13c9c7275de7391b32d2ea1c52ffba65a3c961880a0c60f60048201526000906001600160a01b0385169063593e96b69060240160206040518083038186803b1580156123e757600080fd5b505afa1580156123fb573d6000803e3d6000fd5b505050506040513d601f19601f8201168201806040525081019061241f9190615bb4565b90506000816001600160a01b031663a87af66c6040518163ffffffff1660e01b815260040160206040518083038186803b15801561245c57600080fd5b505afa158015612470573d6000803e3d6000fd5b505050506040513d601f19601f820116820180604052508101906124949190615bb4565b90506000826001600160a01b031663b2f5a54c6040518163ffffffff1660e01b815260040160006040518083038186803b1580156124d157600080fd5b505afa1580156124e5573d6000803e3d6000fd5b505050506040513d6000823e601f3d908101601f1916820160405261250d9190810190615bfb565b6040516317ba7d8560e01b81527fa837e34a29b67bf52f684a1c93def79b84b9c012732becee4e5df62809df64ed60048201529091506000906001600160a01b038816906317ba7d859060240160206040518083038186803b15801561257257600080fd5b505afa158015612586573d6000803e3d6000fd5b505050506040513d601f19601f820116820180604052508101906125aa9190615bb4565b604051634fc0a76d60e01b81526001600160a01b038981166004830152919250600091831690634fc0a76d9060240160206040518083038186803b1580156125f157600080fd5b505afa158015612605573d6000803e3d6000fd5b505050506040513d601f19601f820116820180604052508101906126299190615d07565b835190915015612a06576000805b84518160ff1610156129a75760006126798b878460ff168151811061266c57634e487b7160e01b600052603260045260246000fd5b60200260200101516141c6565b90508015612994576040516317ba7d8560e01b81527ff03649ccf5cbda635d0464f73bc807b602819fde8d2e1387f87b988bb0e858a360048201526000906001600160a01b038d16906317ba7d859060240160206040518083038186803b1580156126e357600080fd5b505afa1580156126f7573d6000803e3d6000fd5b505050506040513d601f19601f8201168201806040525081019061271b9190615bb4565b9050806001600160a01b03166365017e838d878b8b8860ff168151811061275257634e487b7160e01b600052603260045260246000fd5b60209081029190910101516040516001600160e01b031960e087901b1681526001600160a01b039485166004820152602481019390935290831660448301529190911660648201526084810185905260a401600060405180830381600087803b1580156127be57600080fd5b505af11580156127d2573d6000803e3d6000fd5b50506040516317ba7d8560e01b81527ff03649ccf5cbda635d0464f73bc807b602819fde8d2e1387f87b988bb0e858a360048201526001600160a01b03808d16935063e176b35e92508f16906317ba7d859060240160206040518083038186803b15801561283f57600080fd5b505afa158015612853573d6000803e3d6000fd5b505050506040513d601f19601f820116820180604052508101906128779190615bb4565b6040516001600160e01b031960e084901b1681526001600160a01b039182166004820152908b16602482015260448101859052606401600060405180830381600087803b1580156128c757600080fd5b505af11580156128db573d6000803e3d6000fd5b50505050886001600160a01b031663e3a05cc1888560ff168151811061291157634e487b7160e01b600052603260045260246000fd5b60209081029190910101516040516001600160e01b031960e084901b1681526001600160a01b039182166004820152908b16602482015260448101859052606401600060405180830381600087803b15801561296c57600080fd5b505af1158015612980573d6000803e3d6000fd5b5050505081846129909190615e41565b9350505b508061299f81615ecd565b915050612637565b506001600160a01b03891660008181526020818152604091829020805460ff19169055815192835282018390523382820152517f12d0dcfe23709357491021067eb05d73fa0b1f1aeb69310c2071218e089f057f9181900360600190a1505b5050505050612a158282614a4c565b505050565b6040517fa230c5240000000000000000000000000000000000000000000000000000000081526001600160a01b0382811660048301526000919084169063a230c5249060240160206040518083038186803b158015612a7857600080fd5b505afa158015612a8c573d6000803e3d6000fd5b505050506040513d601f19601f820116820180604052508101906107f09190615cc2565b604051634941d71d60e11b81527f31af571e53636dddd77f772cce9d30b42075760f2da731636acc6962da2fbef8600482015260009081906001600160a01b03841690639283ae3a9060240160206040518083038186803b158015612b1457600080fd5b505afa158015612b28573d6000803e3d6000fd5b505050506040513d601f19601f82011682018060405250810190612b4c9190615d07565b604051634941d71d60e11b81527f533afc15b6312917b5e28e2272ea69d44e5ea8e00d3bd57cada1275c2f14c9e860048201529091506000906001600160a01b03851690639283ae3a9060240160206040518083038186803b158015612bb157600080fd5b505afa158015612bc5573d6000803e3d6000fd5b505050506040513d601f19601f82011682018060405250810190612be99190615d07565b90508042118015612c34575060016001600160a01b03851660009081526020819052604090205460ff166003811115612c3257634e487b7160e01b600052602160045260246000fd5b145b156130045781612c4385611ee6565b10612e32576040517fda0f6c700000000000000000000000000000000000000000000000000000000081527fd99dae5492aa0c08830764a319f29225cc739a0ed8683d8fd1b5bc3a8fe3167260048201524260248201526001600160a01b0385169063da0f6c7090604401600060405180830381600087803b158015612cc857600080fd5b505af1158015612cdc573d6000803e3d6000fd5b5050604051634941d71d60e11b81527ffbf58be2732249b32b8ee6ccb5eed8655c2fb8a45fe937b71c312b6e209f138060048201526001600160a01b038716925063da0f6c7091507f9ce69cf04065e3c7823cc5540c0598d8a694bd7a9a5a2a786d8bccf14ed6e2ea908390639283ae3a9060240160206040518083038186803b158015612d6957600080fd5b505afa158015612d7d573d6000803e3d6000fd5b505050506040513d601f19601f82011682018060405250810190612da19190615d07565b612dab9042615e41565b6040516001600160e01b031960e085901b16815260048101929092526024820152604401600060405180830381600087803b158015612de957600080fd5b505af1158015612dfd573d6000803e3d6000fd5b50505050612e0a84614a57565b6001600160a01b0384166000908152602081905260409020805460ff19166002179055612e56565b6001600160a01b0384166000908152602081905260409020805460ff191660031790555b6040516317ba7d8560e01b81527fa837e34a29b67bf52f684a1c93def79b84b9c012732becee4e5df62809df64ed60048201526000906001600160a01b038616906317ba7d859060240160206040518083038186803b158015612eb857600080fd5b505afa158015612ecc573d6000803e3d6000fd5b505050506040513d601f19601f82011682018060405250810190612ef09190615bb4565b604051634fc0a76d60e01b81526001600160a01b0380881660048301529192507f5fd2225800b4a1978ad764ee103db4fc09f1f8db734ab768112047634fb868c291879190841690634fc0a76d9060240160206040518083038186803b158015612f5957600080fd5b505afa158015612f6d573d6000803e3d6000fd5b505050506040513d601f19601f82011682018060405250810190612f919190615d07565b6001600160a01b03881660009081526020819052604090205460ff166003811115612fcc57634e487b7160e01b600052602160045260246000fd5b612fd589611ee6565b604080516001600160a01b039095168552602085019390935291830152606082015260800160405180910390a1505b5060019392505050565b604051632c9f4b5b60e11b81527f161fca6912f107b0f13c9c7275de7391b32d2ea1c52ffba65a3c961880a0c60f600482015260009081906001600160a01b0384169063593e96b69060240160206040518083038186803b15801561307257600080fd5b505afa158015613086573d6000803e3d6000fd5b505050506040513d601f19601f820116820180604052508101906130aa9190615bb4565b6040516370a0823160e01b815261111160048201529091506001600160a01b038216906370a0823190602401611faf565b6130e4826144b1565b8061319657506040516317ba7d8560e01b81527f145d8ebc4d7403f3cd60312331619ffb262c52c22bedf24c0148027dd4be3b0160048201526001600160a01b038316906317ba7d859060240160206040518083038186803b15801561314957600080fd5b505afa15801561315d573d6000803e3d6000fd5b505050506040513d601f19601f820116820180604052508101906131819190615bb4565b6001600160a01b0316336001600160a01b0316145b6131e25760405162461bcd60e51b815260206004820152600760248201527f21616363657373000000000000000000000000000000000000000000000000006044820152606401610437565b6001600160a01b038216600090815260026020526040902061320490826149cc565b61322a576001600160a01b0382166000908152600260205260409020612a15908261578d565b5050565b8143816001600160a01b031663b21634826040518163ffffffff1660e01b815260040160206040518083038186803b15801561326957600080fd5b505afa15801561327d573d6000803e3d6000fd5b505050506040513d601f19601f820116820180604052508101906132a19190615d07565b14156132ef5760405162461bcd60e51b815260206004820152601060248201527f7265656e7472616e6379206775617264000000000000000000000000000000006044820152606401610437565b806001600160a01b03166310fdb0a26040518163ffffffff1660e01b8152600401600060405180830381600087803b15801561332a57600080fd5b505af115801561333e573d6000803e3d6000fd5b505050508261334c816157a2565b6001600160a01b0316336001600160a01b03161461336957600080fd5b670de0b6b3a7640000831080156133805750600083115b61338957600080fd5b8260018190555050806001600160a01b031663d4f7af436040518163ffffffff1660e01b8152600401600060405180830381600087803b1580156133cc57600080fd5b505af11580156133e0573d6000803e3d6000fd5b50505050505050565b6040516317ba7d8560e01b81527fa837e34a29b67bf52f684a1c93def79b84b9c012732becee4e5df62809df64ed60048201526001600160a01b038216906317ba7d859060240160206040518083038186803b15801561344857600080fd5b505afa15801561345c573d6000803e3d6000fd5b505050506040513d601f19601f820116820180604052508101906134809190615bb4565b6001600160a01b0316336001600160a01b0316146135065760405162461bcd60e51b815260206004820152603460248201527f46756e64696e67506f6f6c416461707465723a3a726573657446756e6452616960448201527f736553746174653a3a4163636573732064656e790000000000000000000000006064820152608401610437565b6001600160a01b03166000908152602081905260409020805460ff19166001179055565b816000613536826146f7565b905061354184612ab0565b5060016001600160a01b03851660009081526020819052604090205460ff16600381111561357f57634e487b7160e01b600052602160045260246000fd5b1480156136215750604051634941d71d60e11b81527f533afc15b6312917b5e28e2272ea69d44e5ea8e00d3bd57cada1275c2f14c9e860048201526001600160a01b03851690639283ae3a9060240160206040518083038186803b1580156135e657600080fd5b505afa1580156135fa573d6000803e3d6000fd5b505050506040513d601f19601f8201168201806040525081019061361e9190615d07565b42105b80156136c25750604051634941d71d60e11b81527fbd04d44792b7dbfe3b50b0f9f2006f7ef449e374a39021cb9bfa7cd0bdd850d760048201526001600160a01b03851690639283ae3a9060240160206040518083038186803b15801561368757600080fd5b505afa15801561369b573d6000803e3d6000fd5b505050506040513d601f19601f820116820180604052508101906136bf9190615d07565b42115b80613707575060036001600160a01b03851660009081526020819052604090205460ff16600381111561370557634e487b7160e01b600052602160045260246000fd5b145b8061375c575060026001600160a01b03851660009081526020819052604090205460ff16600381111561374a57634e487b7160e01b600052602160045260246000fd5b14801561375c575061375c8442610470565b80613841575060026001600160a01b03851660009081526020819052604090205460ff16600381111561379f57634e487b7160e01b600052602160045260246000fd5b1480156138415750604051634941d71d60e11b81527f9ce69cf04065e3c7823cc5540c0598d8a694bd7a9a5a2a786d8bccf14ed6e2ea60048201526001600160a01b03851690639283ae3a9060240160206040518083038186803b15801561380657600080fd5b505afa15801561381a573d6000803e3d6000fd5b505050506040513d601f19601f8201168201806040525081019061383e9190615d07565b42115b61388d5760405162461bcd60e51b815260206004820152600960248201527f21776974686472617700000000000000000000000000000000000000000000006044820152606401610437565b604051632c9f4b5b60e11b81527f161fca6912f107b0f13c9c7275de7391b32d2ea1c52ffba65a3c961880a0c60f60048201526000906001600160a01b0386169063593e96b69060240160206040518083038186803b1580156138ef57600080fd5b505afa158015613903573d6000803e3d6000fd5b505050506040513d601f19601f820116820180604052508101906139279190615bb4565b90506000816001600160a01b031663a87af66c6040518163ffffffff1660e01b815260040160206040518083038186803b15801561396457600080fd5b505afa158015613978573d6000803e3d6000fd5b505050506040513d601f19601f8201168201806040525081019061399c9190615bb4565b905060006139aa87336141c6565b9050600086116139fc5760405162461bcd60e51b815260206004820152600760248201527f21616d6f756e74000000000000000000000000000000000000000000000000006044820152606401610437565b80861115613a4c5760405162461bcd60e51b815260206004820152600860248201527f3e62616c616e63650000000000000000000000000000000000000000000000006044820152606401610437565b600060026001600160a01b03891660009081526020819052604090205460ff166003811115613a8b57634e487b7160e01b600052602160045260246000fd5b148015613a9d5750613a9d8842610470565b15613cd557604051634941d71d60e11b81527f3e453820e0fc9cb9a1e799559661cf9c1db4cc7d7fbcb7e0fdaf884cbe29c3566004820152670de0b6b3a76400009088906001600160a01b038b1690639283ae3a9060240160206040518083038186803b158015613b0d57600080fd5b505afa158015613b21573d6000803e3d6000fd5b505050506040513d601f19601f82011682018060405250810190613b459190615d07565b613b4f9190615e79565b613b599190615e59565b90508015613c84576040517ffd310d290000000000000000000000000000000000000000000000000000000081527f5460409b9aa4688f80c10b29c3d7ad16025f050f472a6882a45fa7bb9bd12fb160048201526001600160a01b038086169163e176b35e918b169063fd310d299060240160206040518083038186803b158015613be357600080fd5b505afa158015613bf7573d6000803e3d6000fd5b505050506040513d601f19601f82011682018060405250810190613c1b9190615bb4565b6040516001600160e01b031960e084901b1681526001600160a01b039182166004820152908616602482015260448101849052606401600060405180830381600087803b158015613c6b57600080fd5b505af1158015613c7f573d6000803e3d6000fd5b505050505b604080516001600160a01b038a168152336020820152908101889052606081018290527f233193f33678454f0c1aa43ef4c404770a64e4a160b5614d929d896cc10ec1509060800160405180910390a15b6001600160a01b03841663f3fef3a333613cef848b615eb6565b6040516001600160e01b031960e085901b1681526001600160a01b0390921660048301526024820152604401600060405180830381600087803b158015613d3557600080fd5b505af1158015613d49573d6000803e3d6000fd5b50506040517fe3a05cc10000000000000000000000000000000000000000000000000000000081523360048201526001600160a01b038681166024830152604482018b90528716925063e3a05cc19150606401600060405180830381600087803b158015613db657600080fd5b505af1158015613dca573d6000803e3d6000fd5b50506040516317ba7d8560e01b81527fa837e34a29b67bf52f684a1c93def79b84b9c012732becee4e5df62809df64ed6004820152600092506001600160a01b038b1691506317ba7d859060240160206040518083038186803b158015613e3057600080fd5b505afa158015613e44573d6000803e3d6000fd5b505050506040513d601f19601f82011682018060405250810190613e689190615bb4565b90506000613e768a336141c6565b11613f0757604051634fc0a76d60e01b81526001600160a01b038a8116600483015260009190831690634fc0a76d9060240160206040518083038186803b158015613ec057600080fd5b505afa158015613ed4573d6000803e3d6000fd5b505050506040513d601f19601f82011682018060405250810190613ef89190615d07565b9050613f058a3383615885565b505b6040516301c22a3d60e01b81526001600160a01b038a81166004830152821690636d3cc040908b9083906301c22a3d9060240160206040518083038186803b158015613f5257600080fd5b505afa158015613f66573d6000803e3d6000fd5b505050506040513d601f19601f82011682018060405250810190613f8a9190615d07565b6040516001600160e01b031960e085901b1681526001600160a01b039092166004830152602482015233604482015260640160206040518083038186803b158015613fd457600080fd5b505afa158015613fe8573d6000803e3d6000fd5b505050506040513d601f19601f8201168201806040525081019061400c9190615cc2565b80156140ad5750604051634941d71d60e11b81527f533afc15b6312917b5e28e2272ea69d44e5ea8e00d3bd57cada1275c2f14c9e860048201526001600160a01b038a1690639283ae3a9060240160206040518083038186803b15801561407257600080fd5b505afa158015614086573d6000803e3d6000fd5b505050506040513d601f19601f820116820180604052508101906140aa9190615d07565b42105b15614162576001600160a01b03808a16600081815260046020819052604080832090516301c22a3d60e01b8152918201939093528b938516906301c22a3d9060240160206040518083038186803b15801561410757600080fd5b505afa15801561411b573d6000803e3d6000fd5b505050506040513d601f19601f8201168201806040525081019061413f9190615d07565b8152602001908152602001600020600082825461415c9190615eb6565b90915550505b7fd432fbc5f79eaeefd01acbebd76cf4b0d5f43d8372c2fd3e23761c06a60a75f18961418e848b615eb6565b604080516001600160a01b0390931683526020830191909152339082015260600160405180910390a150505050506104408282614a4c565b604051632c9f4b5b60e11b81527f161fca6912f107b0f13c9c7275de7391b32d2ea1c52ffba65a3c961880a0c60f600482015260009081906001600160a01b0385169063593e96b69060240160206040518083038186803b15801561422a57600080fd5b505afa15801561423e573d6000803e3d6000fd5b505050506040513d601f19601f820116820180604052508101906142629190615bb4565b6040516370a0823160e01b81526001600160a01b038581166004830152919250908216906370a082319060240160206040518083038186803b1580156142a757600080fd5b505afa1580156142bb573d6000803e3d6000fd5b505050506040513d601f19601f820116820180604052508101906142df9190615d07565b949350505050565b6040516317ba7d8560e01b81527f145d8ebc4d7403f3cd60312331619ffb262c52c22bedf24c0148027dd4be3b0160048201526001600160a01b038216906317ba7d859060240160206040518083038186803b15801561434657600080fd5b505afa15801561435a573d6000803e3d6000fd5b505050506040513d601f19601f8201168201806040525081019061437e9190615bb4565b6001600160a01b0316336001600160a01b0316146143de5760405162461bcd60e51b815260206004820152600760248201527f21616363657373000000000000000000000000000000000000000000000000006044820152606401610437565b6001600160a01b03811660009081526002602052604081206143ff906146ea565b516001600160a01b0383166000908152600260205260409020909150606090614427906146ea565b90508115612a155760005b828160ff1610156104405761449e828260ff168151811061446357634e487b7160e01b600052603260045260246000fd5b602002602001015160026000876001600160a01b03166001600160a01b031681526020019081526020016000206158ae90919063ffffffff16565b50806144a981615ecd565b915050614432565b600080826001600160a01b031663c19d93fb6040518163ffffffff1660e01b815260040160206040518083038186803b1580156144ed57600080fd5b505afa158015614501573d6000803e3d6000fd5b505050506040513d601f19601f820116820180604052508101906145259190615dad565b600181111561454457634e487b7160e01b600052602160045260246000fd5b14801561046a5750816001600160a01b031663c67143666040518163ffffffff1660e01b815260040160206040518083038186803b15801561458557600080fd5b505afa158015614599573d6000803e3d6000fd5b505050506040513d601f19601f820116820180604052508101906145bd9190615d07565b158061465457506040517fa230c5240000000000000000000000000000000000000000000000000000000081523360048201526001600160a01b0383169063a230c5249060240160206040518083038186803b15801561461c57600080fd5b505afa158015614630573d6000803e3d6000fd5b505050506040513d601f19601f820116820180604052508101906146549190615cc2565b8061046a57506040517f68c18beb0000000000000000000000000000000000000000000000000000000081523360048201526001600160a01b038316906368c18beb9060240160206040518083038186803b1580156146b257600080fd5b505afa1580156146c6573d6000803e3d6000fd5b505050506040513d601f19601f8201168201806040525081019061046a9190615cc2565b606060006107f0836158c3565b6040805160808101825260008082526020820181905291810182905260608101919091525a81600001818152505043826001600160a01b031663b21634826040518163ffffffff1660e01b815260040160206040518083038186803b15801561475f57600080fd5b505afa158015614773573d6000803e3d6000fd5b505050506040513d601f19601f820116820180604052508101906147979190615d07565b14156147e55760405162461bcd60e51b815260206004820152601060248201527f7265656e7472616e6379206775617264000000000000000000000000000000006044820152606401610437565b816001600160a01b03166310fdb0a26040518163ffffffff1660e01b8152600401600060405180830381600087803b15801561482057600080fd5b505af1158015614834573d6000803e3d6000fd5b50506040517f72c6838f0000000000000000000000000000000000000000000000000000000081527f1f2fd42ad6a6cacd573c4b212beb7a4e2499ad45d742a65337097f130e71daff6004820152600092506001600160a01b03851691506372c6838f9060240160206040518083038186803b1580156148b357600080fd5b505afa1580156148c7573d6000803e3d6000fd5b505050506040513d601f19601f820116820180604052508101906148eb9190615bb4565b90506001600160a01b03811661490757600060208301526149bc565b6001600160a01b038181166060840181905283516040517f43a8a3f1000000000000000000000000000000000000000000000000000000008152928616600484015260248301526000918291906343a8a3f190604401604080518083038186803b15801561497457600080fd5b505afa158015614988573d6000803e3d6000fd5b505050506040513d601f19601f820116820180604052508101906149ac9190615cdc565b9015156020860152604085015250505b50919050565b600061046a825490565b6001600160a01b038116600090815260018301602052604081205415156107f0565b6001600160a01b03831660009081526003602090815260408083208484529091529020614a1b90836149cc565b612a15576001600160a01b03831660009081526003602090815260408083208484529091529020610440908361578d565b61322a82823361591f565b614aca60405180610120016040528060006001600160a01b031681526020016000815260200160006001600160a01b0316815260200160006001600160a01b031681526020016000815260200160006001600160a01b031681526020016000815260200160008152602001600081525090565b604051634941d71d60e11b81527fbe07eea886ce63e8ab49ef6fd986e9dea247fbb31da43dd1df3e153cc548277a60048201526001600160a01b03831690639283ae3a9060240160206040518083038186803b158015614b2957600080fd5b505afa158015614b3d573d6000803e3d6000fd5b505050506040513d601f19601f82011682018060405250810190614b619190615d07565b6001148015614c0d5750604051634941d71d60e11b81527f7e07fb4530796d057ca1d76d83f47aa8629dbb7e942ac28f30ad6f5e9e8d418960048201526001600160a01b03831690639283ae3a9060240160206040518083038186803b158015614bca57600080fd5b505afa158015614bde573d6000803e3d6000fd5b505050506040513d601f19601f82011682018060405250810190614c029190615d07565b614c0b83611ee6565b115b1561322a57604051632c9f4b5b60e11b81527f161fca6912f107b0f13c9c7275de7391b32d2ea1c52ffba65a3c961880a0c60f60048201526001600160a01b0383169063593e96b69060240160206040518083038186803b158015614c7157600080fd5b505afa158015614c85573d6000803e3d6000fd5b505050506040513d601f19601f82011682018060405250810190614ca99190615bb4565b6001600160a01b0316808252604080517fb2f5a54c00000000000000000000000000000000000000000000000000000000815290516000929163b2f5a54c9160048083019286929190829003018186803b158015614d0657600080fd5b505afa158015614d1a573d6000803e3d6000fd5b505050506040513d6000823e601f3d908101601f19168201604052614d429190810190615bfb565b9050600082602001818152505081600001516001600160a01b031663a87af66c6040518163ffffffff1660e01b815260040160206040518083038186803b158015614d8c57600080fd5b505afa158015614da0573d6000803e3d6000fd5b505050506040513d601f19601f82011682018060405250810190614dc49190615bb4565b6001600160a01b03908116604084810191909152516317ba7d8560e01b81527fa837e34a29b67bf52f684a1c93def79b84b9c012732becee4e5df62809df64ed6004820152908416906317ba7d859060240160206040518083038186803b158015614e2e57600080fd5b505afa158015614e42573d6000803e3d6000fd5b505050506040513d601f19601f82011682018060405250810190614e669190615bb4565b6001600160a01b0390811660608401819052604051634fc0a76d60e01b8152918516600483015290634fc0a76d9060240160206040518083038186803b158015614eaf57600080fd5b505afa158015614ec3573d6000803e3d6000fd5b505050506040513d601f19601f82011682018060405250810190614ee79190615d07565b60808301526040516317ba7d8560e01b81527f6a687e96f72a484e38a32d2ee3b61626294e792821961a90ce9a98d1999252d560048201526001600160a01b038416906317ba7d859060240160206040518083038186803b158015614f4b57600080fd5b505afa158015614f5f573d6000803e3d6000fd5b505050506040513d601f19601f82011682018060405250810190614f839190615bb4565b6001600160a01b0390811660a0840152604051634941d71d60e11b81527f7e07fb4530796d057ca1d76d83f47aa8629dbb7e942ac28f30ad6f5e9e8d4189600482015290841690639283ae3a9060240160206040518083038186803b158015614feb57600080fd5b505afa158015614fff573d6000803e3d6000fd5b505050506040513d601f19601f820116820180604052508101906150239190615d07565b60c08301526001600160a01b038381166000818152600460208190526040808320606088015191516301c22a3d60e01b81529283019490945292939192909116906301c22a3d9060240160206040518083038186803b15801561508557600080fd5b505afa158015615099573d6000803e3d6000fd5b505050506040513d601f19601f820116820180604052508101906150bd9190615d07565b815260208101919091526040016000205460e08301526150dc83611ee6565b61010083015260005b81518160ff161015610440578260c001518360e00151106152ec5760608301516040516301c22a3d60e01b81526001600160a01b03868116600483015290911690636d3cc04090869083906301c22a3d9060240160206040518083038186803b15801561515157600080fd5b505afa158015615165573d6000803e3d6000fd5b505050506040513d601f19601f820116820180604052508101906151899190615d07565b858560ff16815181106151ac57634e487b7160e01b600052603260045260246000fd5b60200260200101516040518463ffffffff1660e01b81526004016151f0939291906001600160a01b0393841681526020810192909252909116604082015260600190565b60206040518083038186803b15801561520857600080fd5b505afa15801561521c573d6000803e3d6000fd5b505050506040513d601f19601f820116820180604052508101906152409190615cc2565b156152c5578260e001518360c0015161527686858560ff168151811061266c57634e487b7160e01b600052603260045260246000fd5b6152809190615e79565b61528a9190615e59565b6152b185848460ff168151811061266c57634e487b7160e01b600052603260045260246000fd5b6152bb9190615eb6565b60208401526154d8565b6152bb84838360ff168151811061266c57634e487b7160e01b600052603260045260246000fd5b60608301516040516301c22a3d60e01b81526001600160a01b03868116600483015290911690636d3cc04090869083906301c22a3d9060240160206040518083038186803b15801561533d57600080fd5b505afa158015615351573d6000803e3d6000fd5b505050506040513d601f19601f820116820180604052508101906153759190615d07565b858560ff168151811061539857634e487b7160e01b600052603260045260246000fd5b60200260200101516040518463ffffffff1660e01b81526004016153dc939291906001600160a01b0393841681526020810192909252909116604082015260600190565b60206040518083038186803b1580156153f457600080fd5b505afa158015615408573d6000803e3d6000fd5b505050506040513d601f19601f8201168201806040525081019061542c9190615cc2565b1561543d57600060208401526154d8565b8260e001518361010001516154529190615eb6565b8360e001518460c001516154669190615eb6565b61548d86858560ff168151811061266c57634e487b7160e01b600052603260045260246000fd5b6154979190615e79565b6154a19190615e59565b6154c885848460ff168151811061266c57634e487b7160e01b600052603260045260246000fd5b6154d29190615eb6565b60208401525b60208301511561577b578260a001516001600160a01b03166365017e838585608001518660400151868660ff168151811061552357634e487b7160e01b600052603260045260246000fd5b602002602001015188602001516040518663ffffffff1660e01b815260040161557e9594939291906001600160a01b039586168152602081019490945291841660408401529092166060820152608081019190915260a00190565b600060405180830381600087803b15801561559857600080fd5b505af11580156155ac573d6000803e3d6000fd5b505084516040516317ba7d8560e01b81527f6a687e96f72a484e38a32d2ee3b61626294e792821961a90ce9a98d1999252d560048201526001600160a01b03918216935063e176b35e9250908716906317ba7d859060240160206040518083038186803b15801561561c57600080fd5b505afa158015615630573d6000803e3d6000fd5b505050506040513d601f19601f820116820180604052508101906156549190615bb4565b604080870151602088015191516001600160e01b031960e086901b1681526001600160a01b039384166004820152921660248301526044820152606401600060405180830381600087803b1580156156ab57600080fd5b505af11580156156bf573d6000803e3d6000fd5b5050505082600001516001600160a01b031663e3a05cc1838360ff16815181106156f957634e487b7160e01b600052603260045260246000fd5b6020026020010151856040015186602001516040518463ffffffff1660e01b8152600401615748939291906001600160a01b039384168152919092166020820152604081019190915260600190565b600060405180830381600087803b15801561576257600080fd5b505af1158015615776573d6000803e3d6000fd5b505050505b8061578581615ecd565b9150506150e5565b60006107f0836001600160a01b0384166159f8565b6000816001600160a01b03166348f7f2a36040518163ffffffff1660e01b815260040160206040518083038186803b1580156157dd57600080fd5b505afa1580156157f1573d6000803e3d6000fd5b505050506040513d601f19601f820116820180604052508101906158159190615bb4565b6001600160a01b0316638da5cb5b6040518163ffffffff1660e01b815260040160206040518083038186803b15801561584d57600080fd5b505afa158015615861573d6000803e3d6000fd5b505050506040513d601f19601f8201168201806040525081019061046a9190615bb4565b6001600160a01b0383166000908152600360209081526040808320848452909152902061044090835b60006107f0836001600160a01b038416615a47565b60608160000180548060200260200160405190810160405280929190818152602001828054801561591357602002820191906000526020600020905b8154815260200190600101908083116158ff575b50505050509050919050565b8160200151156159bd5781606001516001600160a01b0316635e5eb01384835a865161594b9190615eb6565b60408088015190516001600160e01b031960e087901b1681526001600160a01b03948516600482015293909216602484015260448301526064820152608401600060405180830381600087803b1580156159a457600080fd5b505af11580156159b8573d6000803e3d6000fd5b505050505b826001600160a01b031663d4f7af436040518163ffffffff1660e01b8152600401600060405180830381600087803b1580156133cc57600080fd5b6000818152600183016020526040812054615a3f5750815460018181018455600084815260208082209093018490558454848252828601909352604090209190915561046a565b50600061046a565b60008181526001830160205260408120548015615b5a576000615a6b600183615eb6565b8554909150600090615a7f90600190615eb6565b9050818114615b00576000866000018281548110615aad57634e487b7160e01b600052603260045260246000fd5b9060005260206000200154905080876000018481548110615ade57634e487b7160e01b600052603260045260246000fd5b6000918252602080832090910192909255918252600188019052604090208390555b8554869080615b1f57634e487b7160e01b600052603160045260246000fd5b60019003818190600052602060002001600090559055856001016000868152602001908152602001600020600090556001935050505061046a565b600091505061046a565b8051615b6f81615f19565b919050565b80518015158114615b6f57600080fd5b803563ffffffff81168114615b6f57600080fd5b600060208284031215615ba9578081fd5b81356107f081615f19565b600060208284031215615bc5578081fd5b81516107f081615f19565b60008060408385031215615be2578081fd5b8235615bed81615f19565b946020939093013593505050565b60006020808385031215615c0d578182fd5b825167ffffffffffffffff80821115615c24578384fd5b818501915085601f830112615c37578384fd5b815181811115615c4957615c49615f03565b8060051b604051601f19603f83011681018181108582111715615c6e57615c6e615f03565b604052828152858101935084860182860187018a1015615c8c578788fd5b8795505b83861015615cb557615ca181615b64565b855260019590950194938601938601615c90565b5098975050505050505050565b600060208284031215615cd3578081fd5b6107f082615b74565b60008060408385031215615cee578182fd5b615cf783615b74565b9150602083015190509250929050565b600060208284031215615d18578081fd5b5051919050565b60008060408385031215615d31578182fd5b8235615d3c81615f19565b91506020830135615d4c81615f19565b809150509250929050565b60008060408385031215615be2578182fd5b600080600060608486031215615d7d578081fd5b8335615d8881615f19565b9250615d9660208501615b84565b9150615da460408501615b84565b90509250925092565b600060208284031215615dbe578081fd5b8151600281106107f0578182fd5b6020808252825182820181905260009190848201906040850190845b81811015615e0d5783516001600160a01b031683529284019291840191600101615de8565b50909695505050505050565b6020810160048310615e3b57634e487b7160e01b600052602160045260246000fd5b91905290565b60008219821115615e5457615e54615eed565b500190565b600082615e7457634e487b7160e01b81526012600452602481fd5b500490565b6000817fffffffffffffffffffffffffffffffffffffffffffffffffffffffffffffffff0483118215151615615eb157615eb1615eed565b500290565b600082821015615ec857615ec8615eed565b500390565b600060ff821660ff811415615ee457615ee4615eed565b60010192915050565b634e487b7160e01b600052601160045260246000fd5b634e487b7160e01b600052604160045260246000fd5b6001600160a01b0381168114615f2e57600080fd5b5056fea2646970667358221220b3deef1512987ebb47877d3b86d468204f60575b139bc5206c717517005aaf1264736f6c63430008040033",
  "linkReferences": {},
  "deployedLinkReferences": {}
}