{
  "_format": "hh-sol-artifact-1",
  "contractName": "VintageFundRaiseAdapterContract",
  "sourceName": "contracts/vintage/adapters/VintageFundRaise.sol",
  "abi": [
    {
      "inputs": [],
      "name": "INVALID_PARAM",
      "type": "error"
    },
    {
      "inputs": [],
      "name": "LAST_NEW_FUND_PROPOSAL_NOT_FINISH",
      "type": "error"
    },
    {
      "inputs": [],
      "name": "VOTING_NOT_FINISH",
      "type": "error"
    },
    {
      "anonymous": false,
      "inputs": [
        {
          "indexed": false,
          "internalType": "address",
          "name": "daoAddr",
          "type": "address"
        },
        {
          "indexed": false,
          "internalType": "bytes32",
          "name": "proposalId",
          "type": "bytes32"
        }
      ],
      "name": "ProposalCreated",
      "type": "event"
    },
    {
      "anonymous": false,
      "inputs": [
        {
          "indexed": false,
          "internalType": "address",
          "name": "daoAddr",
          "type": "address"
        },
        {
          "indexed": false,
          "internalType": "bytes32",
          "name": "proposalId",
          "type": "bytes32"
        },
        {
          "indexed": false,
          "internalType": "enum IVintageFundRaise.ProposalState",
          "name": "state",
          "type": "uint8"
        },
        {
          "indexed": false,
          "internalType": "uint128",
          "name": "allVotingWeight",
          "type": "uint128"
        },
        {
          "indexed": false,
          "internalType": "uint128",
          "name": "nbYes",
          "type": "uint128"
        },
        {
          "indexed": false,
          "internalType": "uint128",
          "name": "nbNo",
          "type": "uint128"
        },
        {
          "indexed": false,
          "internalType": "uint256",
          "name": "voteResult",
          "type": "uint256"
        }
      ],
      "name": "proposalExecuted",
      "type": "event"
    },
    {
      "inputs": [
        {
          "internalType": "address",
          "name": "",
          "type": "address"
        },
        {
          "internalType": "bytes32",
          "name": "",
          "type": "bytes32"
        }
      ],
      "name": "Proposals",
      "outputs": [
        {
          "internalType": "address",
          "name": "acceptTokenAddr",
          "type": "address"
        },
        {
          "components": [
            {
              "internalType": "uint256",
              "name": "fundRaiseTarget",
              "type": "uint256"
            },
            {
              "internalType": "uint256",
              "name": "fundRaiseMaxAmount",
              "type": "uint256"
            },
            {
              "internalType": "uint256",
              "name": "lpMinDepositAmount",
              "type": "uint256"
            },
            {
              "internalType": "uint256",
              "name": "lpMaxDepositAmount",
              "type": "uint256"
            }
          ],
          "internalType": "struct IVintageFundRaise.FundRaiseAmountInfo",
          "name": "amountInfo",
          "type": "tuple"
        },
        {
          "components": [
            {
              "internalType": "uint256",
              "name": "fundRaiseStartTime",
              "type": "uint256"
            },
            {
              "internalType": "uint256",
              "name": "fundRaiseEndTime",
              "type": "uint256"
            },
            {
              "internalType": "uint256",
              "name": "fundTerm",
              "type": "uint256"
            },
            {
              "internalType": "uint256",
              "name": "redemptPeriod",
              "type": "uint256"
            },
            {
              "internalType": "uint256",
              "name": "redemptDuration",
              "type": "uint256"
            },
            {
              "internalType": "uint256",
              "name": "returnDuration",
              "type": "uint256"
            }
          ],
          "internalType": "struct IVintageFundRaise.FundRiaseTimeInfo",
          "name": "timesInfo",
          "type": "tuple"
        },
        {
          "components": [
            {
              "internalType": "uint256",
              "name": "managementFeeRatio",
              "type": "uint256"
            },
            {
              "internalType": "uint256",
              "name": "redepmtFeeRatio",
              "type": "uint256"
            },
            {
              "internalType": "uint256",
              "name": "protocolFeeRatio",
              "type": "uint256"
            },
            {
              "internalType": "address",
              "name": "managementFeeAddress",
              "type": "address"
            }
          ],
          "internalType": "struct IVintageFundRaise.FundRaiseRewardAndFeeInfo",
          "name": "feeInfo",
          "type": "tuple"
        },
        {
          "components": [
            {
              "internalType": "uint256",
              "name": "fundFromInverstor",
              "type": "uint256"
            },
            {
              "internalType": "uint256",
              "name": "projectTokenFromInvestor",
              "type": "uint256"
            }
          ],
          "internalType": "struct IVintageFundRaise.ProoserReward",
          "name": "proposerReward",
          "type": "tuple"
        },
        {
          "components": [
            {
              "internalType": "bool",
              "name": "enable",
              "type": "bool"
            },
            {
              "internalType": "uint8",
              "name": "vtype",
              "type": "uint8"
            },
            {
              "internalType": "address",
              "name": "token",
              "type": "address"
            },
            {
              "internalType": "uint256",
              "name": "tokenId",
              "type": "uint256"
            },
            {
              "internalType": "uint256",
              "name": "amount",
              "type": "uint256"
            }
          ],
          "internalType": "struct IVintageFundRaise.PriorityDeposite",
          "name": "priorityDeposite",
          "type": "tuple"
        },
        {
          "components": [
            {
              "internalType": "bool",
              "name": "enable",
              "type": "bool"
            },
            {
              "internalType": "uint256",
              "name": "capacity",
              "type": "uint256"
            }
          ],
          "internalType": "struct IVintageFundRaise.ParticipantCap",
          "name": "participantCap",
          "type": "tuple"
        },
        {
          "internalType": "uint8",
          "name": "fundRaiseType",
          "type": "uint8"
        },
        {
          "internalType": "enum IVintageFundRaise.ProposalState",
          "name": "state",
          "type": "uint8"
        },
        {
          "internalType": "uint256",
          "name": "creationTime",
          "type": "uint256"
        },
        {
          "internalType": "uint256",
          "name": "stopVoteTime",
          "type": "uint256"
        }
      ],
      "stateMutability": "view",
      "type": "function"
    },
    {
      "inputs": [
        {
          "internalType": "address",
          "name": "",
          "type": "address"
        }
      ],
      "name": "createdFundCounter",
      "outputs": [
        {
          "internalType": "uint256",
          "name": "",
          "type": "uint256"
        }
      ],
      "stateMutability": "view",
      "type": "function"
    },
    {
      "inputs": [
        {
          "internalType": "address",
          "name": "dao",
          "type": "address"
        },
        {
          "internalType": "bytes32",
          "name": "proposalId",
          "type": "bytes32"
        }
      ],
      "name": "getWhiteList",
      "outputs": [
        {
          "internalType": "address[]",
          "name": "",
          "type": "address[]"
        }
      ],
      "stateMutability": "view",
      "type": "function"
    },
    {
      "inputs": [
        {
          "internalType": "contract DaoRegistry",
          "name": "dao",
          "type": "address"
        },
        {
          "internalType": "bytes32",
          "name": "proposalId",
          "type": "bytes32"
        },
        {
          "internalType": "address",
          "name": "account",
          "type": "address"
        }
      ],
      "name": "isPriorityDepositer",
      "outputs": [
        {
          "internalType": "bool",
          "name": "",
          "type": "bool"
        }
      ],
      "stateMutability": "view",
      "type": "function"
    },
    {
      "inputs": [
        {
          "internalType": "address",
          "name": "",
          "type": "address"
        }
      ],
      "name": "lastProposalIds",
      "outputs": [
        {
          "internalType": "bytes32",
          "name": "",
          "type": "bytes32"
        }
      ],
      "stateMutability": "view",
      "type": "function"
    },
    {
      "inputs": [
        {
          "internalType": "contract DaoRegistry",
          "name": "dao",
          "type": "address"
        },
        {
          "internalType": "bytes32",
          "name": "proposalId",
          "type": "bytes32"
        }
      ],
      "name": "processProposal",
      "outputs": [],
      "stateMutability": "nonpayable",
      "type": "function"
    },
    {
      "inputs": [
        {
          "components": [
            {
              "internalType": "contract DaoRegistry",
              "name": "dao",
              "type": "address"
            },
            {
              "components": [
                {
                  "internalType": "uint256",
                  "name": "fundRaiseMinTarget",
                  "type": "uint256"
                },
                {
                  "internalType": "uint256",
                  "name": "fundRaiseMaxCap",
                  "type": "uint256"
                },
                {
                  "internalType": "uint256",
                  "name": "lpMinDepositAmount",
                  "type": "uint256"
                },
                {
                  "internalType": "uint256",
                  "name": "lpMaxDepositAmount",
                  "type": "uint256"
                },
                {
                  "internalType": "uint8",
                  "name": "fundRaiseType",
                  "type": "uint8"
                }
              ],
              "internalType": "struct IVintageFundRaise.ProposalFundRaiseInfo",
              "name": "proposalFundRaiseInfo",
              "type": "tuple"
            },
            {
              "components": [
                {
                  "internalType": "uint256",
                  "name": "startTime",
                  "type": "uint256"
                },
                {
                  "internalType": "uint256",
                  "name": "endTime",
                  "type": "uint256"
                },
                {
                  "internalType": "uint256",
                  "name": "fundTerm",
                  "type": "uint256"
                },
                {
                  "internalType": "uint256",
                  "name": "redemptPeriod",
                  "type": "uint256"
                },
                {
                  "internalType": "uint256",
                  "name": "redemptInterval",
                  "type": "uint256"
                },
                {
                  "internalType": "uint256",
                  "name": "returnPeriod",
                  "type": "uint256"
                }
              ],
              "internalType": "struct IVintageFundRaise.ProposalTimeInfo",
              "name": "proposalTimeInfo",
              "type": "tuple"
            },
            {
              "components": [
                {
                  "internalType": "uint256",
                  "name": "managementFeeRatio",
                  "type": "uint256"
                },
                {
                  "internalType": "uint256",
                  "name": "redepmtFeeRatio",
                  "type": "uint256"
                }
              ],
              "internalType": "struct IVintageFundRaise.ProposalFeeInfo",
              "name": "proposalFeeInfo",
              "type": "tuple"
            },
            {
              "components": [
                {
                  "internalType": "address",
                  "name": "managementFeeAddress",
                  "type": "address"
                },
                {
                  "internalType": "address",
                  "name": "fundRaiseTokenAddress",
                  "type": "address"
                }
              ],
              "internalType": "struct IVintageFundRaise.ProposalAddressInfo",
              "name": "proposalAddressInfo",
              "type": "tuple"
            },
            {
              "components": [
                {
                  "internalType": "uint256",
                  "name": "fundFromInverstor",
                  "type": "uint256"
                },
                {
                  "internalType": "uint256",
                  "name": "projectTokenFromInvestor",
                  "type": "uint256"
                }
              ],
              "internalType": "struct IVintageFundRaise.ProoserReward",
              "name": "proposerReward",
              "type": "tuple"
            },
            {
              "components": [
                {
                  "internalType": "bool",
                  "name": "enable",
                  "type": "bool"
                },
                {
                  "internalType": "uint8",
                  "name": "vtype",
                  "type": "uint8"
                },
                {
                  "internalType": "address",
                  "name": "token",
                  "type": "address"
                },
                {
                  "internalType": "uint256",
                  "name": "tokenId",
                  "type": "uint256"
                },
                {
                  "internalType": "uint256",
                  "name": "amount",
                  "type": "uint256"
                },
                {
                  "internalType": "address[]",
                  "name": "whitelist",
                  "type": "address[]"
                }
              ],
              "internalType": "struct IVintageFundRaise.ProposalPriorityDepositInfo",
              "name": "priorityDeposite",
              "type": "tuple"
            },
            {
              "components": [
                {
                  "internalType": "bool",
                  "name": "enable",
                  "type": "bool"
                },
                {
                  "internalType": "uint256",
                  "name": "capacity",
                  "type": "uint256"
                }
              ],
              "internalType": "struct IVintageFundRaise.ParticipantCap",
              "name": "participantCapInfo",
              "type": "tuple"
            }
          ],
          "internalType": "struct IVintageFundRaise.ProposalParams",
          "name": "params",
          "type": "tuple"
        }
      ],
      "name": "submitProposal",
      "outputs": [],
      "stateMutability": "nonpayable",
      "type": "function"
    }
  ],
  "bytecode": "0x608060405234801561001057600080fd5b506156b780620000216000396000f3fe608060405234801561001057600080fd5b506004361061007d5760003560e01c80634fc0a76d1161005b5780634fc0a76d146100ea5780636d3cc0401461010a5780639573167d1461012d578063bf4999941461014057600080fd5b806301c22a3d146100825780633a1cdeed146100b55780634122a485146100ca575b600080fd5b6100a2610090366004614e64565b60026020526000908152604090205481565b6040519081526020015b60405180910390f35b6100c86100c33660046150ac565b61039a565b005b6100dd6100d8366004614e9c565b611853565b6040516100ac919061539b565b6100a26100f8366004614e64565b60016020526000908152604090205481565b61011d610118366004615005565b61188b565b60405190151581526020016100ac565b6100c861013b366004614ff3565b611dd9565b61038361014e366004614e9c565b6000602052816000526040600020602052806000526040600020600091509150508060000160009054906101000a90046001600160a01b0316908060010160405180608001604052908160008201548152602001600182015481526020016002820154815260200160038201548152505090806005016040518060c001604052908160008201548152602001600182015481526020016002820154815260200160038201548152602001600482015481526020016005820154815250509080600b016040518060800160405290816000820154815260200160018201548152602001600282015481526020016003820160009054906101000a90046001600160a01b03166001600160a01b03166001600160a01b0316815250509080600f016040518060400160405290816000820154815260200160018201548152505090806011016040518060a00160405290816000820160009054906101000a900460ff161515151581526020016000820160019054906101000a900460ff1660ff1660ff1681526020016000820160029054906101000a90046001600160a01b03166001600160a01b03166001600160a01b031681526020016001820154815260200160028201548152505090806014016040518060400160405290816000820160009054906101000a900460ff16151515158152602001600182015481525050908060160160009054906101000a900460ff16908060160160019054906101000a900460ff1690806017015490806018015490508b565b6040516100ac9b9a99989796959493929190615250565b6103a76020820182614e64565b60006103b28261254c565b905060006002816103c66020870187614e64565b6001600160a01b03166001600160a01b03168152602001908152602001600020541415801561054c5750600080806104016020870187614e64565b6001600160a01b03166001600160a01b0316815260200190815260200160002060006002600087600001602081019061043a9190614e64565b6001600160a01b03166001600160a01b0316815260200190815260200160002054815260200190815260200160002060160160019054906101000a900460ff16600381111561049957634e487b7160e01b600052602160045260246000fd5b148061054c575060016000806104b26020870187614e64565b6001600160a01b03166001600160a01b031681526020019081526020016000206000600260008760000160208101906104eb9190614e64565b6001600160a01b03166001600160a01b0316815260200190815260200160002054815260200190815260200160002060160160019054906101000a900460ff16600381111561054a57634e487b7160e01b600052602160045260246000fd5b145b15610583576040517fc49f1f0a00000000000000000000000000000000000000000000000000000000815260040160405180910390fd5b610656604051806102a001604052806000815260200160006001600160a01b0316815260200160006001600160a01b0316815260200160006001600160a01b0316815260200160006001600160a01b0316815260200160008019168152602001600081526020016000815260200160008152602001600081526020016000815260200160008152602001600081526020016000815260200160008152602001600081526020016000815260200160008152602001600081526020016000815260200160006001600160a01b031681525090565b6106636020850185614e64565b604051634941d71d60e11b81527f9ce69cf04065e3c7823cc5540c0598d8a694bd7a9a5a2a786d8bccf14ed6e2ea60048201526001600160a01b039190911690639283ae3a9060240160206040518083038186803b1580156106c457600080fd5b505afa1580156106d8573d6000803e3d6000fd5b505050506040513d601f19601f820116820180604052508101906106fc91906150ff565b815261070b6020850185614e64565b604051634941d71d60e11b81527fb0d4178853a5320a41f8c55fa6d58af06637e392beff71e66dba4e8f32c39bb860048201526001600160a01b039190911690639283ae3a9060240160206040518083038186803b15801561076c57600080fd5b505afa158015610780573d6000803e3d6000fd5b505050506040513d601f19601f820116820180604052508101906107a491906150ff565b6101e08201526107b76020850185614e64565b6040516317ba7d8560e01b81527faaff643bdbd909f604d46ce015336f7e20fee3ac4a55cef3610188dee176c89260048201526001600160a01b0391909116906317ba7d859060240160206040518083038186803b15801561081857600080fd5b505afa15801561082c573d6000803e3d6000fd5b505050506040513d601f19601f820116820180604052508101906108509190614e80565b6001600160a01b031661028082018190526000906368abb5e06108766020880188614e64565b6040516001600160e01b031960e084901b1681526001600160a01b03909116600482015260240160206040518083038186803b1580156108b557600080fd5b505afa1580156108c9573d6000803e3d6000fd5b505050506040513d601f19601f820116820180604052508101906108ed91906150ff565b11156109405760405162461bcd60e51b815260206004820152600b60248201527f21636c6561722066756e6400000000000000000000000000000000000000000060448201526064015b60405180910390fd5b60006102808201516001600160a01b0316631ee1a2b06109636020880188614e64565b6040516001600160e01b031960e084901b1681526001600160a01b03909116600482015260240160206040518083038186803b1580156109a257600080fd5b505afa1580156109b6573d6000803e3d6000fd5b505050506040513d601f19601f820116820180604052508101906109da9190615046565b60038111156109f957634e487b7160e01b600052602160045260246000fd5b1480610abb575060036102808201516001600160a01b0316631ee1a2b0610a236020880188614e64565b6040516001600160e01b031960e084901b1681526001600160a01b03909116600482015260240160206040518083038186803b158015610a6257600080fd5b505afa158015610a76573d6000803e3d6000fd5b505050506040513d601f19601f82011682018060405250810190610a9a9190615046565b6003811115610ab957634e487b7160e01b600052602160045260246000fd5b145b80610b97575060026102808201516001600160a01b0316631ee1a2b0610ae46020880188614e64565b6040516001600160e01b031960e084901b1681526001600160a01b03909116600482015260240160206040518083038186803b158015610b2357600080fd5b505afa158015610b37573d6000803e3d6000fd5b505050506040513d601f19601f82011682018060405250810190610b5b9190615046565b6003811115610b7a57634e487b7160e01b600052602160045260246000fd5b148015610b9757506101e08101518151610b94919061553d565b42115b610be35760405162461bcd60e51b815260206004820152600760248201527f6e6f74206e6f77000000000000000000000000000000000000000000000000006044820152606401610937565b8061028001516001600160a01b031663b0e21e8a6040518163ffffffff1660e01b815260040160206040518083038186803b158015610c2157600080fd5b505afa158015610c35573d6000803e3d6000fd5b505050506040513d601f19601f82011682018060405250810190610c5991906150ff565b61026082015260208401351580610c855750604084013515801590610c85575060208401356040850135105b80610c8e575060005b80610caf5750608084013515801590610caf57506060840135608085013511155b80610cbd57504260c0850135105b80610ccf575060c084013560e0850135105b80610cdd5750610100840135155b80610cf15750610140840135610120850135115b80610d055750610100840135610140850135115b80610d1a575061010084013561016085013510155b80610d325750670de0b6b3a764000061018085013510155b80610d3b575060005b80610d535750670de0b6b3a76400006101a085013510155b80610d5c575060005b80610d65575060005b80610d7d5750670de0b6b3a764000061020085013510155b80610d86575060005b80610d9e5750670de0b6b3a764000061022085013510155b15610dd5576040517f22ee6ae700000000000000000000000000000000000000000000000000000000815260040160405180910390fd5b610de26020850185614e64565b6040516317ba7d8560e01b81527fd3999c37f8f35da86f802a74f9bf032c4aeb46e49abd9c861f489ef4cb40d0a860048201526001600160a01b0391909116906317ba7d859060240160206040518083038186803b158015610e4357600080fd5b505afa158015610e57573d6000803e3d6000fd5b505050506040513d601f19601f82011682018060405250810190610e7b9190614e80565b6001600160a01b0316602080830182905263966917d090610e9e90870187614e64565b604080516020810182526000815290516001600160e01b031960e085901b168152610ed09291309133906004016153e8565b602060405180830381600087803b158015610eea57600080fd5b505af1158015610efe573d6000803e3d6000fd5b505050506040513d601f19601f82011682018060405250810190610f229190614e80565b6001600160a01b03166080820152610f3d6020850185614e64565b6001600160a01b0316633044bafc6040518163ffffffff1660e01b8152600401600060405180830381600087803b158015610f7757600080fd5b505af1158015610f8b573d6000803e3d6000fd5b5061104e9250610fa19150506020860186614e64565b60c01b611029610fb46020880188614e64565b6001600160a01b03166334fbfbb26040518163ffffffff1660e01b815260040160206040518083038186803b158015610fec57600080fd5b505afa158015611000573d6000803e3d6000fd5b505050506040513d601f19601f8201168201806040525081019061102491906150ff565b612817565b60405160200161103a929190615186565b60405160208183030381529060405261296d565b60a08201526110606020850185614e64565b6001600160a01b031663b73dc3898260a001516040518263ffffffff1660e01b815260040161109191815260200190565b600060405180830381600087803b1580156110ab57600080fd5b505af11580156110bf573d6000803e3d6000fd5b505060408051610160810190915291508190506110e461020087016101e08801614e64565b6001600160a01b031681526040805160808082018352602089810135835289840135838201526060808b0135848601528a8301358185015281860193909352835160c080820186528b0135815260e08b0135818301526101008b0135818601526101208b0135818501526101408b0135818401526101608b013560a082015284860152835191820184526101808a013582526101a08a013590820152610260860151928101929092529182019181016111a56101e089016101c08a01614e64565b6001600160a01b0316905281526040805180820182526102008801358152610220880135602082810191909152830152805160a081018252910190806111ef6102408901896154cc565b6111fd906020810190614f8e565b151581526020016112126102408901896154cc565b611223906040810190602001615117565b60ff1681526020016112396102408901896154cc565b61124a906060810190604001614e64565b6001600160a01b031681526020016112666102408901896154cc565b60600135815260200161127d6102408901896154cc565b608001359052815260408051808201909152602090910190806112a861028089016102608a01614f8e565b15158152610280880135602091820152908252016112cc60c0870160a08801615117565b60ff168152602001600081526020014281526020018560000160208101906112f49190614e64565b604051634941d71d60e11b81527f9876c0f0505bfb2b1c38d3bbd25ba13159172cd0868972d76927723f5a9480fc60048201526001600160a01b039190911690639283ae3a9060240160206040518083038186803b15801561135557600080fd5b505afa158015611369573d6000803e3d6000fd5b505050506040513d601f19601f8201168201806040525081019061138d91906150ff565b611397904261553d565b90526000806113a96020880188614e64565b6001600160a01b0390811682526020808301939093526040918201600090812060a080880151835290855290839020855181549084167fffffffffffffffffffffffff000000000000000000000000000000000000000091821617825586860151805160018401558087015160028401558086015160038085019190915560609182015160048501558887015180516005860155808901516006860155808801516007860155808301516008860155608080820151600987015590860151600a860155828a01518051600b870155808a0151600c87015580890151600d870155830151600e860180549189169190951617909355828901518051600f8601558801516010850155938801518051601185018054838b01519984015190981662010000027fffffffffffffffffffff0000000000000000000000000000000000000000ffff60ff9a8b1661010090810261ff0019951515959095167fffffffffffffffffffffffffffffffffffffffffffffffffffffffffffff00009b8c1617949094171617905591810151601285015590910151601383015560c087015180516014840180549115157fffffffffffffffffffffffffffffffffffffffffffffffffffffffffffffff00928316179055960151601583015560e08701516016830180549190961696811687178655818801519296929594169091179184908111156115c457634e487b7160e01b600052602160045260246000fd5b02179055506101208201516017820155610140909101516018909101556115ef6102408501856154cc565b6115fd906020810190614f8e565b801561162a57506116126102408501856154cc565b611623906040810190602001615117565b60ff166003145b8015611653575060006116416102408601866154cc565b61164f9060a081019061545f565b9050115b1561168e5761168e6116686020860186614e64565b60a083015161167b6102408801886154cc565b6116899060a081019061545f565b612989565b6020808201516001600160a01b0316906326078cd0906116b090870187614e64565b60a0840151604080516020810182526000815290516001600160e01b031960e086901b1681526116e69392914291600401615427565b600060405180830381600087803b15801561170057600080fd5b505af1158015611714573d6000803e3d6000fd5b50611726925050506020850185614e64565b60a0820151608083015160208401516040517f896ae9ba00000000000000000000000000000000000000000000000000000000815260048101939093526001600160a01b03918216602484015281166044830152919091169063896ae9ba90606401600060405180830381600087803b1580156117a257600080fd5b505af11580156117b6573d6000803e3d6000fd5b5050505060a0810151600260006117d06020880188614e64565b6001600160a01b03168152602080820192909252604001600020919091557ffe22c13d0cc04eef2a813c30901da5f8cd64f5ba91866fccce71c606ce4648749061181c90860186614e64565b60a0830151604080516001600160a01b03909316835260208301919091520160405180910390a15061184e8282612a15565b505050565b6001600160a01b0382166000908152600360209081526040808320848452909152902060609061188290612a24565b90505b92915050565b604051634941d71d60e11b81527f6c2aeb5335c37bc984e34d16b5daacfd3a43d3358ad5314ed1a17f8b68bc10a560048201526000906001600160a01b03851690639283ae3a9060240160206040518083038186803b1580156118ed57600080fd5b505afa158015611901573d6000803e3d6000fd5b505050506040513d601f19601f8201168201806040525081019061192591906150ff565b60011415611dce57604051634941d71d60e11b81527f1710acff43ba8f339e18305d5d5116602e0cf6b226983bae821884b877626aa660048201526000906001600160a01b03861690639283ae3a9060240160206040518083038186803b15801561198f57600080fd5b505afa1580156119a3573d6000803e3d6000fd5b505050506040513d601f19601f820116820180604052508101906119c791906150ff565b60405163fd310d2960e01b81527f3b45967f728449b4fbffd6027f6b8d86035e572016480c7bc2a55edeec4f3ca560048201529091506000906001600160a01b0387169063fd310d299060240160206040518083038186803b158015611a2c57600080fd5b505afa158015611a40573d6000803e3d6000fd5b505050506040513d601f19601f82011682018060405250810190611a649190614e80565b604051634941d71d60e11b81527f20d88b77300b4133cc1f146fdec45d5266086bc18b256e8e607ef37ec1d047b260048201529091506000906001600160a01b03881690639283ae3a9060240160206040518083038186803b158015611ac957600080fd5b505afa158015611add573d6000803e3d6000fd5b505050506040513d601f19601f82011682018060405250810190611b0191906150ff565b604051634941d71d60e11b81527f04d4d5cbde9f5c38336ca61af88f78d20a912993a64a3951a1cc2ccd8bb0e89960048201529091506000906001600160a01b03891690639283ae3a9060240160206040518083038186803b158015611b6657600080fd5b505afa158015611b7a573d6000803e3d6000fd5b505050506040513d601f19601f82011682018060405250810190611b9e91906150ff565b905083158015611c2857506040516370a0823160e01b81526001600160a01b0387811660048301528391908516906370a082319060240160206040518083038186803b158015611bed57600080fd5b505afa158015611c01573d6000803e3d6000fd5b505050506040513d601f19601f82011682018060405250810190611c2591906150ff565b10155b15611c3a576001945050505050611dd2565b836001148015611cc457506040516370a0823160e01b81526001600160a01b0387811660048301528391908516906370a082319060240160206040518083038186803b158015611c8957600080fd5b505afa158015611c9d573d6000803e3d6000fd5b505050506040513d601f19601f82011682018060405250810190611cc191906150ff565b10155b15611cd6576001945050505050611dd2565b836002148015611d655750604051627eeac760e11b81526001600160a01b0387811660048301526024820183905283919085169062fdd58e9060440160206040518083038186803b158015611d2a57600080fd5b505afa158015611d3e573d6000803e3d6000fd5b505050506040513d601f19601f82011682018060405250810190611d6291906150ff565b10155b15611d77576001945050505050611dd2565b836003148015611daf57506001600160a01b03881660009081526003602090815260408083208a84529091529020611daf9087612a31565b15611dc1576001945050505050611dd2565b6000945050505050611dd2565b5060005b9392505050565b816000611de58261254c565b9050611def614c9c565b6001600160a01b0385166000818152602081815260408083208884529091529081902090517f30490e91000000000000000000000000000000000000000000000000000000008152600481018790529091906330490e9190602401600060405180830381600087803b158015611e6457600080fd5b505af1158015611e78573d6000803e3d6000fd5b50506040516317ba7d8560e01b81527faaff643bdbd909f604d46ce015336f7e20fee3ac4a55cef3610188dee176c89260048201526001600160a01b03891692506317ba7d85915060240160206040518083038186803b158015611edb57600080fd5b505afa158015611eef573d6000803e3d6000fd5b505050506040513d601f19601f82011682018060405250810190611f139190614e80565b6001600160a01b0390811660608401526040517f40de703e00000000000000000000000000000000000000000000000000000000815260048101879052908716906340de703e9060240160206040518083038186803b158015611f7557600080fd5b505afa158015611f89573d6000803e3d6000fd5b505050506040513d601f19601f82011682018060405250810190611fad9190614e80565b6001600160a01b03166020830181905261202f5760405162461bcd60e51b815260206004820152603460248201527f46756e6452616973653a3a70726f6365737350726f706f73616c3a3a766f746960448201527f6e672061646170746572206e6f7420666f756e640000000000000000000000006064820152608401610937565b60208201516040517f76225e730000000000000000000000000000000000000000000000000000000081526001600160a01b03888116600483015260248201889052909116906376225e739060440160606040518083038186803b15801561209657600080fd5b505afa1580156120aa573d6000803e3d6000fd5b505050506040513d601f19601f820116820180604052508101906120ce9190615065565b6fffffffffffffffffffffffffffffffff80821660c0870152821660a08601526080850183600581111561211257634e487b7160e01b600052602160045260246000fd5b600581111561213157634e487b7160e01b600052602160045260246000fd5b9052506002915061213f9050565b8260800151600581111561216357634e487b7160e01b600052602160045260246000fd5b141561240a5760168101805461010061ff00198216811792839055604080516101608101825285546001600160a01b0390811682528251608080820185526001890154825260028901546020808401919091526003808b01548488015260048b015460608086019190915282870194909452865160c0808201895260058d0154825260068d01548285015260078d0154828a015260088d01548287015260098d015482860152600a8d015460a080840191909152888a019290925288518086018a52600b8e01548152600c8e015481860152600d8e0154818b0152600e8e0154881681880152868901528851808a018a52600f8e0154815260108e0154818601528589015288518083018a5260118e015460ff808216151583528c820481168388015262010000909104909816818b015260128e01549681019690965260138d015494860194909452860193909352855180870190965260148a015484161515865260158a01549086015283019390935293841660e0820152612349948b94919387938582019391909204169081111561230d57634e487b7160e01b600052602160045260246000fd5b600381111561232c57634e487b7160e01b600052602160045260246000fd5b815260200160178201548152602001601882015481525050612a53565b60608201516040517ff10e6b6b0000000000000000000000000000000000000000000000000000000081526001600160a01b0388811660048301529091169063f10e6b6b90602401600060405180830381600087803b1580156123ab57600080fd5b505af11580156123bf573d6000803e3d6000fd5b5050505060168101805461ff0019166102001790556001600160a01b038616600090815260016020819052604082208054919290916123ff90849061553d565b909155506124ac9050565b60038260800151600581111561243057634e487b7160e01b600052602160045260246000fd5b148061245f575060018260800151600581111561245d57634e487b7160e01b600052602160045260246000fd5b145b1561247a5760168101805461ff0019166103001790556124ac565b6040517f70fc772800000000000000000000000000000000000000000000000000000000815260040160405180910390fd5b60006124b88787612c51565b90507f2bdcd9364cd03f3b390f2f088b6dcef6ef67097a47a0a392d981c4ee723771be87878460160160019054906101000a900460ff16848760a001518860c001518960800151600581111561251e57634e487b7160e01b600052602160045260246000fd5b60405161253197969594939291906151f4565b60405180910390a15050506125468282612a15565b50505050565b6040805160808101825260008082526020820181905291810182905260608101919091525a81600001818152505043826001600160a01b031663b21634826040518163ffffffff1660e01b815260040160206040518083038186803b1580156125b457600080fd5b505afa1580156125c8573d6000803e3d6000fd5b505050506040513d601f19601f820116820180604052508101906125ec91906150ff565b141561263a5760405162461bcd60e51b815260206004820152601060248201527f7265656e7472616e6379206775617264000000000000000000000000000000006044820152606401610937565b816001600160a01b03166310fdb0a26040518163ffffffff1660e01b8152600401600060405180830381600087803b15801561267557600080fd5b505af1158015612689573d6000803e3d6000fd5b50506040517f72c6838f0000000000000000000000000000000000000000000000000000000081527f1f2fd42ad6a6cacd573c4b212beb7a4e2499ad45d742a65337097f130e71daff6004820152600092506001600160a01b03851691506372c6838f9060240160206040518083038186803b15801561270857600080fd5b505afa15801561271c573d6000803e3d6000fd5b505050506040513d601f19601f820116820180604052508101906127409190614e80565b90506001600160a01b03811661275c5760006020830152612811565b6001600160a01b038181166060840181905283516040517f43a8a3f1000000000000000000000000000000000000000000000000000000008152928616600484015260248301526000918291906343a8a3f190604401604080518083038186803b1580156127c957600080fd5b505afa1580156127dd573d6000803e3d6000fd5b505050506040513d601f19601f820116820180604052508101906128019190614fc6565b9015156020860152604085015250505b50919050565b60608161285757505060408051808201909152600181527f3000000000000000000000000000000000000000000000000000000000000000602082015290565b8160005b8115612881578061286b816155ac565b915061287a9050600a83615555565b915061285b565b60008167ffffffffffffffff8111156128aa57634e487b7160e01b600052604160045260246000fd5b6040519080825280601f01601f1916602001820160405280156128d4576020820181803683370190505b5090505b8415612965576128e9600183615569565b91506128f6600a86615605565b61290190603061553d565b60f81b81838151811061292457634e487b7160e01b600052603260045260246000fd5b60200101907effffffffffffffffffffffffffffffffffffffffffffffffffffffffffffff1916908160001a90535061295e600a86615555565b94506128d8565b949350505050565b600081516000141561298157506000919050565b506020015190565b60005b60ff8116821115612a0e576129fb83838360ff168181106129bd57634e487b7160e01b600052603260045260246000fd5b90506020020160208101906129d29190614e64565b6001600160a01b0387166000908152600360209081526040808320898452909152902090612f7d565b5080612a06816155e5565b91505061298c565b5050505050565b612a20828233612f92565b5050565b60606000611dd283613088565b6001600160a01b03811660009081526001830160205260408120541515611882565b612a9d8260405180608001604052808460200151600001518152602001846020015160200151815260200184602001516040015181526020018460200151606001518152506130e4565b612b03826040518060c0016040528084604001516000015181526020018460400151602001518152602001846040015160400151815260200184604001516060015181526020018460400151608001518152602001846040015160a00151815250613308565b6040805180820190915260608083015101516001600160a01b0390811682528251166020820152612b3590839061366e565b612b7f82604051806080016040528084606001516000015181526020018460600151602001518152602001846080015160000151815260200184608001516020015181525061374c565b60e0810151604051630da0f6c760e41b81527fbe07eea886ce63e8ab49ef6fd986e9dea247fbb31da43dd1df3e153cc548277a600482015260ff90911660248201526001600160a01b0383169063da0f6c7090604401600060405180830381600087803b158015612bef57600080fd5b505af1158015612c03573d6000803e3d6000fd5b5050505060a08101515115612c395760a0810151602081015160408201516060830151608090930151612c399386939291613914565b60c08101518051602090910151612a20918491613b9e565b600080836001600160a01b031663a6f636416040518163ffffffff1660e01b815260040160006040518083038186803b158015612c8d57600080fd5b505afa158015612ca1573d6000803e3d6000fd5b505050506040513d6000823e601f3d908101601f19168201604052612cc99190810190614ec7565b6040516317ba7d8560e01b81527fd3999c37f8f35da86f802a74f9bf032c4aeb46e49abd9c861f489ef4cb40d0a8600482015290915060009081906001600160a01b038716906317ba7d859060240160206040518083038186803b158015612d3057600080fd5b505afa158015612d44573d6000803e3d6000fd5b505050506040513d601f19601f82011682018060405250810190612d689190614e80565b905060005b83518160ff161015612f7257816001600160a01b03166324a2cceb8888878560ff1681518110612dad57634e487b7160e01b600052603260045260246000fd5b60200260200101516040518463ffffffff1660e01b8152600401612df1939291906001600160a01b0393841681526020810192909252909116604082015260600190565b60206040518083038186803b158015612e0957600080fd5b505afa158015612e1d573d6000803e3d6000fd5b505050506040513d601f19601f82011682018060405250810190612e419190614faa565b15612f1f57816001600160a01b03166391d2fd538888878560ff1681518110612e7a57634e487b7160e01b600052603260045260246000fd5b60200260200101516040518463ffffffff1660e01b8152600401612ebe939291906001600160a01b0393841681526020810192909252909116604082015260600190565b60206040518083038186803b158015612ed657600080fd5b505afa158015612eea573d6000803e3d6000fd5b505050506040513d601f19601f82011682018060405250810190612f0e91906150e5565b612f189084615509565b9250612f60565b612f5387858360ff1681518110612f4657634e487b7160e01b600052603260045260246000fd5b6020026020010151613ca3565b612f5d9084615509565b92505b80612f6a816155e5565b915050612d6d565b509095945050505050565b6000611882836001600160a01b038416614b1c565b8160200151156130305781606001516001600160a01b0316635e5eb01384835a8651612fbe9190615569565b60408088015190516001600160e01b031960e087901b1681526001600160a01b03948516600482015293909216602484015260448301526064820152608401600060405180830381600087803b15801561301757600080fd5b505af115801561302b573d6000803e3d6000fd5b505050505b826001600160a01b031663d4f7af436040518163ffffffff1660e01b8152600401600060405180830381600087803b15801561306b57600080fd5b505af115801561307f573d6000803e3d6000fd5b50505050505050565b6060816000018054806020026020016040519081016040528092919081815260200182805480156130d857602002820191906000526020600020905b8154815260200190600101908083116130c4575b50505050509050919050565b8051604051630da0f6c760e41b81527f31af571e53636dddd77f772cce9d30b42075760f2da731636acc6962da2fbef8600482015260248101919091526001600160a01b0383169063da0f6c7090604401600060405180830381600087803b15801561314f57600080fd5b505af1158015613163573d6000803e3d6000fd5b5050506020820151604051630da0f6c760e41b81527f7e07fb4530796d057ca1d76d83f47aa8629dbb7e942ac28f30ad6f5e9e8d4189600482015260248101919091526001600160a01b038416915063da0f6c7090604401600060405180830381600087803b1580156131d557600080fd5b505af11580156131e9573d6000803e3d6000fd5b5050506040808301519051630da0f6c760e41b81527fbdd40865e74210f0a46799ae63462c62010da92014a08cbc32f1d049d0a22c6b600482015260248101919091526001600160a01b038416915063da0f6c7090604401600060405180830381600087803b15801561325b57600080fd5b505af115801561326f573d6000803e3d6000fd5b5050506001600160a01b038316905063da0f6c707f5fa39c8100b49336846e52d39403e353bf782275f905a885f09224779ff1c9248360035b60200201516040516001600160e01b031960e085901b168152600481019290925260248201526044015b600060405180830381600087803b1580156132ec57600080fd5b505af1158015613300573d6000803e3d6000fd5b505050505050565b8051604051630da0f6c760e41b81527fbd04d44792b7dbfe3b50b0f9f2006f7ef449e374a39021cb9bfa7cd0bdd850d7600482015260248101919091526001600160a01b0383169063da0f6c7090604401600060405180830381600087803b15801561337357600080fd5b505af1158015613387573d6000803e3d6000fd5b5050506020820151604051630da0f6c760e41b81527f533afc15b6312917b5e28e2272ea69d44e5ea8e00d3bd57cada1275c2f14c9e8600482015260248101919091526001600160a01b038416915063da0f6c7090604401600060405180830381600087803b1580156133f957600080fd5b505af115801561340d573d6000803e3d6000fd5b5050604051630da0f6c760e41b81527fd99dae5492aa0c08830764a319f29225cc739a0ed8683d8fd1b5bc3a8fe3167260048201524260248201526001600160a01b038516925063da0f6c709150604401600060405180830381600087803b15801561347857600080fd5b505af115801561348c573d6000803e3d6000fd5b5050506001600160a01b038316905063da0f6c707f9ce69cf04065e3c7823cc5540c0598d8a694bd7a9a5a2a786d8bccf14ed6e2ea83600260200201516134d3904261553d565b6040516001600160e01b031960e085901b16815260048101929092526024820152604401600060405180830381600087803b15801561351157600080fd5b505af1158015613525573d6000803e3d6000fd5b5050506060820151604051630da0f6c760e41b81527f6a2acfe6164f3ec20e6d80e2f4e4f7ae2b9962615c9596c872d01f6cd244aed3600482015260248101919091526001600160a01b038416915063da0f6c7090604401600060405180830381600087803b15801561359757600080fd5b505af11580156135ab573d6000803e3d6000fd5b5050506080820151604051630da0f6c760e41b81527f2305fa3a9f84625f75d70f539e621c658cf49e7477ab5af9cacd278ca7904e30600482015260248101919091526001600160a01b038416915063da0f6c7090604401600060405180830381600087803b15801561361d57600080fd5b505af1158015613631573d6000803e3d6000fd5b5050506001600160a01b038316905063da0f6c707fb0d4178853a5320a41f8c55fa6d58af06637e392beff71e66dba4e8f32c39bb88360056132a8565b8051604051631da7c90d60e11b81527f5460409b9aa4688f80c10b29c3d7ad16025f050f472a6882a45fa7bb9bd12fb160048201526001600160a01b03918216602482015290831690633b4f921a90604401600060405180830381600087803b1580156136da57600080fd5b505af11580156136ee573d6000803e3d6000fd5b5050506020820151604051631da7c90d60e11b81527f7fa36390a0e9b8b8004035572fd8345b1128cea12d1763a1baf8fbd4fb7b202760048201526001600160a01b0391821660248201529084169150633b4f921a906044016132d2565b8051604051630da0f6c760e41b81527f11618fa890234170104debf73b2563b667bd200bac1d7d8dd024e2f3fadaefd2600482015260248101919091526001600160a01b0383169063da0f6c7090604401600060405180830381600087803b1580156137b757600080fd5b505af11580156137cb573d6000803e3d6000fd5b5050506020820151604051630da0f6c760e41b81527f3e453820e0fc9cb9a1e799559661cf9c1db4cc7d7fbcb7e0fdaf884cbe29c356600482015260248101919091526001600160a01b038416915063da0f6c7090604401600060405180830381600087803b15801561383d57600080fd5b505af1158015613851573d6000803e3d6000fd5b5050506040808301519051630da0f6c760e41b81527f66ed99f9a48fc961fffd6425cceb65d9444f5bda8af3bc46d14fd6b5a844fde5600482015260248101919091526001600160a01b038416915063da0f6c7090604401600060405180830381600087803b1580156138c357600080fd5b505af11580156138d7573d6000803e3d6000fd5b5050506001600160a01b038316905063da0f6c707f23bba46e5025fb6d2325c93cad4f861289d697c0913f7e18dab6bb065e2bdc288360036132a8565b604051630da0f6c760e41b81527f6c2aeb5335c37bc984e34d16b5daacfd3a43d3358ad5314ed1a17f8b68bc10a56004820152600160248201526001600160a01b0386169063da0f6c7090604401600060405180830381600087803b15801561397c57600080fd5b505af1158015613990573d6000803e3d6000fd5b5050604051630da0f6c760e41b81527f1710acff43ba8f339e18305d5d5116602e0cf6b226983bae821884b877626aa6600482015260ff871660248201526001600160a01b038816925063da0f6c709150604401600060405180830381600087803b1580156139fe57600080fd5b505af1158015613a12573d6000803e3d6000fd5b5050604051630da0f6c760e41b81527f04d4d5cbde9f5c38336ca61af88f78d20a912993a64a3951a1cc2ccd8bb0e8996004820152602481018590526001600160a01b038816925063da0f6c709150604401600060405180830381600087803b158015613a7e57600080fd5b505af1158015613a92573d6000803e3d6000fd5b5050604051630da0f6c760e41b81527f20d88b77300b4133cc1f146fdec45d5266086bc18b256e8e607ef37ec1d047b26004820152602481018490526001600160a01b038816925063da0f6c709150604401600060405180830381600087803b158015613afe57600080fd5b505af1158015613b12573d6000803e3d6000fd5b5050604051631da7c90d60e11b81527f3b45967f728449b4fbffd6027f6b8d86035e572016480c7bc2a55edeec4f3ca560048201526001600160a01b03868116602483015288169250633b4f921a9150604401600060405180830381600087803b158015613b7f57600080fd5b505af1158015613b93573d6000803e3d6000fd5b505050505050505050565b6001600160a01b03831663da0f6c707f0a71373d28d4b40b0bb46f8d58468f2e51292d10cf26715a0e3d8624b60c8a42600185151514613bdf576000613be2565b60015b6040516001600160e01b031960e085901b168152600481019290925260ff166024820152604401600060405180830381600087803b158015613c2357600080fd5b505af1158015613c37573d6000803e3d6000fd5b5050604051630da0f6c760e41b81527faf0b46df030af159303b75690e740674df8434270d3b7248b0280f3d63a2dd8b6004820152602481018490526001600160a01b038616925063da0f6c709150604401600060405180830381600087803b15801561306b57600080fd5b6040516317ba7d8560e01b81527faaff643bdbd909f604d46ce015336f7e20fee3ac4a55cef3610188dee176c892600482015260009081906001600160a01b038516906317ba7d859060240160206040518083038186803b158015613d0757600080fd5b505afa158015613d1b573d6000803e3d6000fd5b505050506040513d601f19601f82011682018060405250810190613d3f9190614e80565b6040516317ba7d8560e01b81527fa837e34a29b67bf52f684a1c93def79b84b9c012732becee4e5df62809df64ed60048201529091506000906001600160a01b038616906317ba7d859060240160206040518083038186803b158015613da457600080fd5b505afa158015613db8573d6000803e3d6000fd5b505050506040513d601f19601f82011682018060405250810190613ddc9190614e80565b6040516317ba7d8560e01b81527f1fa6846b165d822fff79e37c67625706652fa9380c2aa49fd513ce534cc72ed460048201529091506000906001600160a01b038716906317ba7d859060240160206040518083038186803b158015613e4157600080fd5b505afa158015613e55573d6000803e3d6000fd5b505050506040513d601f19601f82011682018060405250810190613e799190614e80565b604051634941d71d60e11b81527ff55ead1a20a1dd054d7b08c0efdba575e59f56a221996583f70c083bb98099b060048201529091506000906001600160a01b03881690639283ae3a9060240160206040518083038186803b158015613ede57600080fd5b505afa158015613ef2573d6000803e3d6000fd5b505050506040513d601f19601f82011682018060405250810190613f1691906150ff565b604051634941d71d60e11b81527fb75eae231d9582c6afc6491273df4a0ffbccd48ab2c48dbce59e5d68f2d19dc460048201529091506000906001600160a01b03891690639283ae3a9060240160206040518083038186803b158015613f7b57600080fd5b505afa158015613f8f573d6000803e3d6000fd5b505050506040513d601f19601f82011682018060405250810190613fb391906150ff565b9050806001141561459957604051634941d71d60e11b81527ff6242d1d39a1b19c05c52b0f7eb55673f7309c8d6b78dd23c2c385475835804860048201526000906001600160a01b038a1690639283ae3a9060240160206040518083038186803b15801561402057600080fd5b505afa158015614034573d6000803e3d6000fd5b505050506040513d601f19601f8201168201806040525081019061405891906150ff565b60405163fd310d2960e01b81527f16d062a637d36196ce6a1b18288a49d8cd909a7ba54b6e33ca16514e7412124860048201529091506000906001600160a01b038b169063fd310d299060240160206040518083038186803b1580156140bd57600080fd5b505afa1580156140d1573d6000803e3d6000fd5b505050506040513d601f19601f820116820180604052508101906140f59190614e80565b9050600084614194576040516370a0823160e01b81526001600160a01b038b81166004830152670de0b6b3a764000091908416906370a08231906024015b60206040518083038186803b15801561414b57600080fd5b505afa15801561415f573d6000803e3d6000fd5b505050506040513d601f19601f8201168201806040525081019061418391906150ff565b61418d9190615555565b905061452a565b8460011415614217576040516370a0823160e01b81526001600160a01b038b811660048301528316906370a08231906024015b60206040518083038186803b1580156141df57600080fd5b505afa1580156141f3573d6000803e3d6000fd5b505050506040513d601f19601f8201168201806040525081019061418d91906150ff565b846002141561425357604051627eeac760e11b81526001600160a01b038b811660048301526024820185905283169062fdd58e906044016141c7565b84600314156142ab576040517fa6d945cc0000000000000000000000000000000000000000000000000000000081526001600160a01b038c811660048301528b8116602483015287169063a6d945cc906044016141c7565b84600414156145195760026040517f1ee1a2b00000000000000000000000000000000000000000000000000000000081526001600160a01b038d811660048301528a1690631ee1a2b09060240160206040518083038186803b15801561431057600080fd5b505afa158015614324573d6000803e3d6000fd5b505050506040513d601f19601f820116820180604052508101906143489190615046565b600381111561436757634e487b7160e01b600052602160045260246000fd5b1480156144095750604051634941d71d60e11b81527f9ce69cf04065e3c7823cc5540c0598d8a694bd7a9a5a2a786d8bccf14ed6e2ea60048201526001600160a01b038c1690639283ae3a9060240160206040518083038186803b1580156143ce57600080fd5b505afa1580156143e2573d6000803e3d6000fd5b505050506040513d601f19601f8201168201806040525081019061440691906150ff565b42105b80156144a957506040517f4fc0a76d0000000000000000000000000000000000000000000000000000000081526001600160a01b038c8116600483015260019190891690634fc0a76d9060240160206040518083038186803b15801561446e57600080fd5b505afa158015614482573d6000803e3d6000fd5b505050506040513d601f19601f820116820180604052508101906144a691906150ff565b10155b15614508576040517ff7888aec0000000000000000000000000000000000000000000000000000000081526001600160a01b038c811660048301528b81166024830152670de0b6b3a764000091908a169063f7888aec90604401614133565b600198505050505050505050611885565b600098505050505050505050611885565b6000811161454357600098505050505050505050611885565b677fffffffffffffff811061456357603298505050505050505050611885565b600061457e61457961457484614b6b565b614b89565b614c80565b67ffffffffffffffff16995061188598505050505050505050565b80600214156145b057600195505050505050611885565b80614b0e57604051634941d71d60e11b81527ff6242d1d39a1b19c05c52b0f7eb55673f7309c8d6b78dd23c2c385475835804860048201526000906001600160a01b038a1690639283ae3a9060240160206040518083038186803b15801561461757600080fd5b505afa15801561462b573d6000803e3d6000fd5b505050506040513d601f19601f8201168201806040525081019061464f91906150ff565b60405163fd310d2960e01b81527f16d062a637d36196ce6a1b18288a49d8cd909a7ba54b6e33ca16514e7412124860048201529091506000906001600160a01b038b169063fd310d299060240160206040518083038186803b1580156146b457600080fd5b505afa1580156146c8573d6000803e3d6000fd5b505050506040513d601f19601f820116820180604052508101906146ec9190614e80565b905060008461478b576040516370a0823160e01b81526001600160a01b038b81166004830152670de0b6b3a764000091908416906370a08231906024015b60206040518083038186803b15801561474257600080fd5b505afa158015614756573d6000803e3d6000fd5b505050506040513d601f19601f8201168201806040525081019061477a91906150ff565b6147849190615555565b9050614aff565b846001141561480e576040516370a0823160e01b81526001600160a01b038b811660048301528316906370a08231906024015b60206040518083038186803b1580156147d657600080fd5b505afa1580156147ea573d6000803e3d6000fd5b505050506040513d601f19601f8201168201806040525081019061478491906150ff565b846002141561484a57604051627eeac760e11b81526001600160a01b038b811660048301526024820185905283169062fdd58e906044016147be565b84600314156148a2576040517fa6d945cc0000000000000000000000000000000000000000000000000000000081526001600160a01b038c811660048301528b8116602483015287169063a6d945cc906044016147be565b84600414156145195760026040517f1ee1a2b00000000000000000000000000000000000000000000000000000000081526001600160a01b038d811660048301528a1690631ee1a2b09060240160206040518083038186803b15801561490757600080fd5b505afa15801561491b573d6000803e3d6000fd5b505050506040513d601f19601f8201168201806040525081019061493f9190615046565b600381111561495e57634e487b7160e01b600052602160045260246000fd5b148015614a005750604051634941d71d60e11b81527f9ce69cf04065e3c7823cc5540c0598d8a694bd7a9a5a2a786d8bccf14ed6e2ea60048201526001600160a01b038c1690639283ae3a9060240160206040518083038186803b1580156149c557600080fd5b505afa1580156149d9573d6000803e3d6000fd5b505050506040513d601f19601f820116820180604052508101906149fd91906150ff565b42105b8015614aa057506040517f4fc0a76d0000000000000000000000000000000000000000000000000000000081526001600160a01b038c8116600483015260019190891690634fc0a76d9060240160206040518083038186803b158015614a6557600080fd5b505afa158015614a79573d6000803e3d6000fd5b505050506040513d601f19601f82011682018060405250810190614a9d91906150ff565b10155b15614508576040517ff7888aec0000000000000000000000000000000000000000000000000000000081526001600160a01b038c811660048301528b81166024830152670de0b6b3a764000091908a169063f7888aec9060440161472a565b97506118859650505050505050565b600095505050505050611885565b6000818152600183016020526040812054614b6357508154600181810184556000848152602080822090930184905584548482528286019093526040902091909155611885565b506000611885565b6000677fffffffffffffff821115614b8257600080fd5b5060401b90565b60008082600f0b13614b9a57600080fd5b6000600f83900b680100000000000000008112614bb9576040918201911d5b6401000000008112614bcd576020918201911d5b620100008112614bdf576010918201911d5b6101008112614bf0576008918201911d5b60108112614c00576004918201911d5b60048112614c10576002918201911d5b60028112614c1f576001820191505b7fffffffffffffffffffffffffffffffffffffffffffffffffffffffffffffffc0820160401b600f85900b607f8490031b6780000000000000005b6000811315612f725790800260ff81901c8281029390930192607f011c9060011d614c5a565b60008082600f0b1215614c9257600080fd5b50600f0b60401d90565b6040805161012081018252600080825260208201819052918101829052606081018290529060808201908152600060208201819052604082018190526060820152608001614ce8614ced565b905290565b60405180610160016040528060006001600160a01b03168152602001614d346040518060800160405280600081526020016000815260200160008152602001600081525090565b8152602001614d726040518060c001604052806000815260200160008152602001600081526020016000815260200160008152602001600081525090565b8152602001614dab604051806080016040528060008152602001600081526020016000815260200160006001600160a01b031681525090565b8152602001614dcd604051806040016040528060008152602001600081525090565b81526040805160a0810182526000808252602080830182905282840182905260608301829052608083018290528085019290925282518084018452818152918201529101908152600060208201819052604082018190526060820181905260809091015290565b8051614e3f8161565b565b919050565b80516fffffffffffffffffffffffffffffffff81168114614e3f57600080fd5b600060208284031215614e75578081fd5b8135611dd28161565b565b600060208284031215614e91578081fd5b8151611dd28161565b565b60008060408385031215614eae578081fd5b8235614eb98161565b565b946020939093013593505050565b60006020808385031215614ed9578182fd5b825167ffffffffffffffff80821115614ef0578384fd5b818501915085601f830112614f03578384fd5b815181811115614f1557614f15615645565b8060051b604051601f19603f83011681018181108582111715614f3a57614f3a615645565b604052828152858101935084860182860187018a1015614f58578788fd5b8795505b83861015614f8157614f6d81614e34565b855260019590950194938601938601614f5c565b5098975050505050505050565b600060208284031215614f9f578081fd5b8135611dd281615673565b600060208284031215614fbb578081fd5b8151611dd281615673565b60008060408385031215614fd8578182fd5b8251614fe381615673565b6020939093015192949293505050565b60008060408385031215614eae578182fd5b600080600060608486031215615019578081fd5b83356150248161565b565b925060208401359150604084013561503b8161565b565b809150509250925092565b600060208284031215615057578081fd5b815160048110611dd2578182fd5b600080600060608486031215615079578283fd5b835160068110615087578384fd5b925061509560208501614e44565b91506150a360408501614e44565b90509250925092565b6000602082840312156150bd578081fd5b813567ffffffffffffffff8111156150d3578182fd5b82016102a08185031215611dd2578182fd5b6000602082840312156150f6578081fd5b61188282614e44565b600060208284031215615110578081fd5b5051919050565b600060208284031215615128578081fd5b813560ff81168114611dd2578182fd5b60008151808452615150816020860160208601615580565b601f01601f19169290920160200192915050565b6004811061518257634e487b7160e01b600052602160045260246000fd5b9052565b7fffffffffffffffff000000000000000000000000000000000000000000000000831681527f4e657746756e64230000000000000000000000000000000000000000000000006008820152600082516151e6816010850160208701615580565b919091016010019392505050565b6001600160a01b03881681526020810187905260e081016152186040830188615164565b6fffffffffffffffffffffffffffffffff958616606083015293851660808201529190931660a082015260c001919091529392505050565b6000610380820190506001600160a01b038d1682528b51602083015260208c0151604083015260408c0151606083015260608c015160808301526152cc60a083018c805182526020810151602083015260408101516040830152606081015160608301526080810151608083015260a081015160a08301525050565b895161016083015260208a015161018083015260408a01516101a083015260608a01516001600160a01b03166101c083015288516101e0830152602089015161020083015287511515610220830152602088015160ff1661024083015260408801516001600160a01b0316610260830152606088015161028083015260808801516102a0830152865115156102c083015260208701516102e083015260ff8616610300830152615380610320830186615164565b61034082019390935261036001529998505050505050505050565b6020808252825182820181905260009190848201906040850190845b818110156153dc5783516001600160a01b0316835292840192918401916001016153b7565b50909695505050505050565b60006001600160a01b0380871683528086166020840152608060408401526154136080840186615138565b915080841660608401525095945050505050565b6001600160a01b03851681528360208201528260408201526080606082015260006154556080830184615138565b9695505050505050565b60008083357fffffffffffffffffffffffffffffffffffffffffffffffffffffffffffffffe1843603018112615493578283fd5b83018035915067ffffffffffffffff8211156154ad578283fd5b6020019150600581901b36038213156154c557600080fd5b9250929050565b600082357fffffffffffffffffffffffffffffffffffffffffffffffffffffffffffffff418336030181126154ff578182fd5b9190910192915050565b60006fffffffffffffffffffffffffffffffff80831681851680830382111561553457615534615619565b01949350505050565b6000821982111561555057615550615619565b500190565b6000826155645761556461562f565b500490565b60008282101561557b5761557b615619565b500390565b60005b8381101561559b578181015183820152602001615583565b838111156125465750506000910152565b60007fffffffffffffffffffffffffffffffffffffffffffffffffffffffffffffffff8214156155de576155de615619565b5060010190565b600060ff821660ff8114156155fc576155fc615619565b60010192915050565b6000826156145761561461562f565b500690565b634e487b7160e01b600052601160045260246000fd5b634e487b7160e01b600052601260045260246000fd5b634e487b7160e01b600052604160045260246000fd5b6001600160a01b038116811461567057600080fd5b50565b801515811461567057600080fdfea2646970667358221220c731efdd67e9bba0f5a12299d3452bf7f8d9f43a91b5ef2602bb20c40ab9dc3864736f6c63430008040033",
  "linkReferences": {},
  "deployedLinkReferences": {}
}