{
  "_format": "hh-sol-artifact-1",
  "contractName": "VintageFundingPoolAdapterContract",
  "sourceName": "contracts/vintage/adapters/VintageFundingPoolAdapter.sol",
  "abi": [
    {
      "anonymous": false,
      "inputs": [
        {
          "indexed": false,
          "internalType": "address",
          "name": "dao",
          "type": "address"
        },
        {
          "indexed": false,
          "internalType": "uint256",
          "name": "amount",
          "type": "uint256"
        },
        {
          "indexed": false,
          "internalType": "address",
          "name": "executor",
          "type": "address"
        }
      ],
      "name": "ClearFund",
      "type": "event"
    },
    {
      "anonymous": false,
      "inputs": [
        {
          "indexed": false,
          "internalType": "address",
          "name": "daoAddress",
          "type": "address"
        },
        {
          "indexed": false,
          "internalType": "uint256",
          "name": "amount",
          "type": "uint256"
        },
        {
          "indexed": false,
          "internalType": "address",
          "name": "account",
          "type": "address"
        }
      ],
      "name": "Deposit",
      "type": "event"
    },
    {
      "anonymous": false,
      "inputs": [
        {
          "indexed": false,
          "internalType": "address",
          "name": "oldOwner",
          "type": "address"
        },
        {
          "indexed": false,
          "internalType": "address",
          "name": "newOwner",
          "type": "address"
        }
      ],
      "name": "OwnerChanged",
      "type": "event"
    },
    {
      "anonymous": false,
      "inputs": [
        {
          "indexed": false,
          "internalType": "address",
          "name": "dao",
          "type": "address"
        },
        {
          "indexed": false,
          "internalType": "uint256",
          "name": "fundRound",
          "type": "uint256"
        },
        {
          "indexed": false,
          "internalType": "uint256",
          "name": "fundRaiseState",
          "type": "uint256"
        },
        {
          "indexed": false,
          "internalType": "uint256",
          "name": "fundRaisedAmount",
          "type": "uint256"
        }
      ],
      "name": "ProcessFundRaise",
      "type": "event"
    },
    {
      "anonymous": false,
      "inputs": [
        {
          "indexed": false,
          "internalType": "uint256",
          "name": "timestamp",
          "type": "uint256"
        },
        {
          "indexed": false,
          "internalType": "address",
          "name": "account",
          "type": "address"
        },
        {
          "indexed": false,
          "internalType": "uint256",
          "name": "redemptionFee",
          "type": "uint256"
        }
      ],
      "name": "RedeptionFeeCharged",
      "type": "event"
    },
    {
      "anonymous": false,
      "inputs": [
        {
          "indexed": false,
          "internalType": "address",
          "name": "daoAddress",
          "type": "address"
        },
        {
          "indexed": false,
          "internalType": "uint256",
          "name": "amount",
          "type": "uint256"
        },
        {
          "indexed": false,
          "internalType": "address",
          "name": "account",
          "type": "address"
        }
      ],
      "name": "WithDraw",
      "type": "event"
    },
    {
      "inputs": [
        {
          "internalType": "contract DaoRegistry",
          "name": "dao",
          "type": "address"
        },
        {
          "internalType": "address",
          "name": "investorAddr",
          "type": "address"
        }
      ],
      "name": "balanceOf",
      "outputs": [
        {
          "internalType": "uint256",
          "name": "",
          "type": "uint256"
        }
      ],
      "stateMutability": "view",
      "type": "function"
    },
    {
      "inputs": [
        {
          "internalType": "contract DaoRegistry",
          "name": "dao",
          "type": "address"
        }
      ],
      "name": "clearFund",
      "outputs": [],
      "stateMutability": "nonpayable",
      "type": "function"
    },
    {
      "inputs": [
        {
          "internalType": "contract DaoRegistry",
          "name": "dao",
          "type": "address"
        },
        {
          "internalType": "uint32",
          "name": "quorum",
          "type": "uint32"
        },
        {
          "internalType": "uint32",
          "name": "superMajority",
          "type": "uint32"
        }
      ],
      "name": "configureDao",
      "outputs": [],
      "stateMutability": "nonpayable",
      "type": "function"
    },
    {
      "inputs": [
        {
          "internalType": "address",
          "name": "",
          "type": "address"
        }
      ],
      "name": "daoFundRaisingStates",
      "outputs": [
        {
          "internalType": "enum DaoHelper.FundRaiseState",
          "name": "",
          "type": "uint8"
        }
      ],
      "stateMutability": "view",
      "type": "function"
    },
    {
      "inputs": [
        {
          "internalType": "contract DaoRegistry",
          "name": "dao",
          "type": "address"
        },
        {
          "internalType": "uint256",
          "name": "amount",
          "type": "uint256"
        }
      ],
      "name": "deposit",
      "outputs": [],
      "stateMutability": "nonpayable",
      "type": "function"
    },
    {
      "inputs": [
        {
          "internalType": "contract DaoRegistry",
          "name": "dao",
          "type": "address"
        }
      ],
      "name": "getFundEndTime",
      "outputs": [
        {
          "internalType": "uint256",
          "name": "",
          "type": "uint256"
        }
      ],
      "stateMutability": "view",
      "type": "function"
    },
    {
      "inputs": [
        {
          "internalType": "contract DaoRegistry",
          "name": "dao",
          "type": "address"
        },
        {
          "internalType": "uint256",
          "name": "fundRound",
          "type": "uint256"
        }
      ],
      "name": "getFundInvestors",
      "outputs": [
        {
          "internalType": "address[]",
          "name": "",
          "type": "address[]"
        }
      ],
      "stateMutability": "view",
      "type": "function"
    },
    {
      "inputs": [
        {
          "internalType": "contract DaoRegistry",
          "name": "dao",
          "type": "address"
        }
      ],
      "name": "getFundRaiseWindowCloseTime",
      "outputs": [
        {
          "internalType": "uint256",
          "name": "",
          "type": "uint256"
        }
      ],
      "stateMutability": "view",
      "type": "function"
    },
    {
      "inputs": [
        {
          "internalType": "contract DaoRegistry",
          "name": "dao",
          "type": "address"
        }
      ],
      "name": "getFundRaiseWindowOpenTime",
      "outputs": [
        {
          "internalType": "uint256",
          "name": "",
          "type": "uint256"
        }
      ],
      "stateMutability": "view",
      "type": "function"
    },
    {
      "inputs": [
        {
          "internalType": "contract DaoRegistry",
          "name": "dao",
          "type": "address"
        }
      ],
      "name": "getFundRaisingMaxAmount",
      "outputs": [
        {
          "internalType": "uint256",
          "name": "",
          "type": "uint256"
        }
      ],
      "stateMutability": "view",
      "type": "function"
    },
    {
      "inputs": [
        {
          "internalType": "contract DaoRegistry",
          "name": "dao",
          "type": "address"
        }
      ],
      "name": "getFundRaisingTarget",
      "outputs": [
        {
          "internalType": "uint256",
          "name": "",
          "type": "uint256"
        }
      ],
      "stateMutability": "view",
      "type": "function"
    },
    {
      "inputs": [
        {
          "internalType": "contract DaoRegistry",
          "name": "dao",
          "type": "address"
        }
      ],
      "name": "getFundReturnDuration",
      "outputs": [
        {
          "internalType": "uint256",
          "name": "",
          "type": "uint256"
        }
      ],
      "stateMutability": "view",
      "type": "function"
    },
    {
      "inputs": [
        {
          "internalType": "contract DaoRegistry",
          "name": "dao",
          "type": "address"
        }
      ],
      "name": "getFundStartTime",
      "outputs": [
        {
          "internalType": "uint256",
          "name": "",
          "type": "uint256"
        }
      ],
      "stateMutability": "view",
      "type": "function"
    },
    {
      "inputs": [
        {
          "internalType": "contract DaoRegistry",
          "name": "dao",
          "type": "address"
        }
      ],
      "name": "getInvestorMembershipWhiteList",
      "outputs": [
        {
          "internalType": "address[]",
          "name": "",
          "type": "address[]"
        }
      ],
      "stateMutability": "view",
      "type": "function"
    },
    {
      "inputs": [
        {
          "internalType": "contract DaoRegistry",
          "name": "dao",
          "type": "address"
        }
      ],
      "name": "getMaxInvestmentForLP",
      "outputs": [
        {
          "internalType": "uint256",
          "name": "",
          "type": "uint256"
        }
      ],
      "stateMutability": "view",
      "type": "function"
    },
    {
      "inputs": [
        {
          "internalType": "contract DaoRegistry",
          "name": "dao",
          "type": "address"
        }
      ],
      "name": "getMinInvestmentForLP",
      "outputs": [
        {
          "internalType": "uint256",
          "name": "",
          "type": "uint256"
        }
      ],
      "stateMutability": "view",
      "type": "function"
    },
    {
      "inputs": [
        {
          "internalType": "contract DaoRegistry",
          "name": "dao",
          "type": "address"
        }
      ],
      "name": "getRedemptDuration",
      "outputs": [
        {
          "internalType": "uint256",
          "name": "",
          "type": "uint256"
        }
      ],
      "stateMutability": "view",
      "type": "function"
    },
    {
      "inputs": [
        {
          "internalType": "contract DaoRegistry",
          "name": "dao",
          "type": "address"
        }
      ],
      "name": "getRedeptPeriod",
      "outputs": [
        {
          "internalType": "uint256",
          "name": "",
          "type": "uint256"
        }
      ],
      "stateMutability": "view",
      "type": "function"
    },
    {
      "inputs": [
        {
          "internalType": "contract DaoRegistry",
          "name": "dao",
          "type": "address"
        },
        {
          "internalType": "uint256",
          "name": "timeStamp",
          "type": "uint256"
        }
      ],
      "name": "ifInRedemptionPeriod",
      "outputs": [
        {
          "internalType": "bool",
          "name": "",
          "type": "bool"
        }
      ],
      "stateMutability": "view",
      "type": "function"
    },
    {
      "inputs": [
        {
          "internalType": "contract DaoRegistry",
          "name": "dao",
          "type": "address"
        },
        {
          "internalType": "address",
          "name": "account",
          "type": "address"
        }
      ],
      "name": "ifInvestorMembershipWhiteList",
      "outputs": [
        {
          "internalType": "bool",
          "name": "",
          "type": "bool"
        }
      ],
      "stateMutability": "view",
      "type": "function"
    },
    {
      "inputs": [
        {
          "internalType": "contract DaoRegistry",
          "name": "dao",
          "type": "address"
        },
        {
          "internalType": "address",
          "name": "_addr",
          "type": "address"
        }
      ],
      "name": "isActiveMember",
      "outputs": [
        {
          "internalType": "bool",
          "name": "",
          "type": "bool"
        }
      ],
      "stateMutability": "view",
      "type": "function"
    },
    {
      "inputs": [
        {
          "internalType": "contract DaoRegistry",
          "name": "dao",
          "type": "address"
        }
      ],
      "name": "latestRedempteTime",
      "outputs": [
        {
          "internalType": "uint256",
          "name": "",
          "type": "uint256"
        },
        {
          "internalType": "uint256",
          "name": "",
          "type": "uint256"
        }
      ],
      "stateMutability": "view",
      "type": "function"
    },
    {
      "inputs": [
        {
          "internalType": "contract DaoRegistry",
          "name": "dao",
          "type": "address"
        }
      ],
      "name": "poolBalance",
      "outputs": [
        {
          "internalType": "uint256",
          "name": "",
          "type": "uint256"
        }
      ],
      "stateMutability": "view",
      "type": "function"
    },
    {
      "inputs": [
        {
          "internalType": "contract DaoRegistry",
          "name": "dao",
          "type": "address"
        }
      ],
      "name": "processFundRaise",
      "outputs": [
        {
          "internalType": "bool",
          "name": "",
          "type": "bool"
        }
      ],
      "stateMutability": "nonpayable",
      "type": "function"
    },
    {
      "inputs": [],
      "name": "protocolFee",
      "outputs": [
        {
          "internalType": "uint256",
          "name": "",
          "type": "uint256"
        }
      ],
      "stateMutability": "view",
      "type": "function"
    },
    {
      "inputs": [
        {
          "internalType": "contract DaoRegistry",
          "name": "dao",
          "type": "address"
        }
      ],
      "name": "raiserBalance",
      "outputs": [
        {
          "internalType": "uint256",
          "name": "",
          "type": "uint256"
        }
      ],
      "stateMutability": "view",
      "type": "function"
    },
    {
      "inputs": [
        {
          "internalType": "contract DaoRegistry",
          "name": "dao",
          "type": "address"
        },
        {
          "internalType": "address",
          "name": "account",
          "type": "address"
        }
      ],
      "name": "registerInvestorWhiteList",
      "outputs": [],
      "stateMutability": "nonpayable",
      "type": "function"
    },
    {
      "inputs": [
        {
          "internalType": "contract DaoRegistry",
          "name": "dao",
          "type": "address"
        }
      ],
      "name": "resetFundRaiseState",
      "outputs": [],
      "stateMutability": "nonpayable",
      "type": "function"
    },
    {
      "inputs": [
        {
          "internalType": "contract DaoRegistry",
          "name": "dao",
          "type": "address"
        },
        {
          "internalType": "uint256",
          "name": "feeProtocol",
          "type": "uint256"
        }
      ],
      "name": "setProtocolFee",
      "outputs": [],
      "stateMutability": "nonpayable",
      "type": "function"
    },
    {
      "inputs": [
        {
          "internalType": "contract DaoRegistry",
          "name": "dao",
          "type": "address"
        },
        {
          "internalType": "uint256",
          "name": "amount",
          "type": "uint256"
        }
      ],
      "name": "withdraw",
      "outputs": [],
      "stateMutability": "nonpayable",
      "type": "function"
    }
  ],
  "bytecode": "0x6080604052660aa87bee53800060015534801561001b57600080fd5b506152238061002b6000396000f3fe608060405234801561001057600080fd5b50600436106101da5760003560e01c80638ecf772011610104578063d466e064116100a2578063f10e6b6b11610071578063f10e6b6b14610427578063f3fef3a31461043a578063f7888aec1461044d578063fbcd80411461046057600080fd5b8063d466e064146103db578063e069e1d2146103ee578063e62914ac14610401578063e8bf5d311461041457600080fd5b8063ae1be2f2116100de578063ae1be2f214610399578063b0e21e8a146103ac578063b5b3ca2c146103b5578063d21bcbba146103c857600080fd5b80638ecf77201461036057806396609c4214610373578063ac7e7eba1461038657600080fd5b80633a844ec01161017c57806368395f3f1161014b57806368395f3f1461031457806368abb5e01461032757806379116c361461033a57806383cffffe1461034d57600080fd5b80633a844ec0146102b85780633e1d6ed8146102db57806345e9c57c146102ee57806347e7ef241461030157600080fd5b80631d729e61116101b85780631d729e61146102425780631ee1a2b01461026257806320ec26d9146102925780632832bfae146102a557600080fd5b8063036b118b146101df578063075724cf1461020c57806318ebcaa714610221575b600080fd5b6101f26101ed366004614e66565b610473565b604080519283526020830191909152015b60405180910390f35b61021f61021a36600461500d565b61078c565b005b61023461022f366004614e66565b610884565b604051908152602001610203565b610255610250366004614e66565b610925565b6040516102039190615088565b610285610270366004614e66565b60006020819052908152604090205460ff1681565b60405161020391906150d5565b6102346102a0366004614e66565b610949565b6102346102b3366004614e66565b610998565b6102cb6102c6366004614fe2565b6109e7565b6040519015158152602001610203565b6102556102e9366004614fe2565b610d38565b6102346102fc366004614e66565b610d6e565b61021f61030f366004614fe2565b610dbd565b6102cb610322366004614faa565b6122e2565b610234610335366004614e66565b612304565b610234610348366004614e66565b61241d565b61021f61035b366004614e66565b61246c565b6102cb61036e366004614faa565b612e73565b6102cb610381366004614e66565b612f09565b61021f610394366004614faa565b6132a2565b6102346103a7366004614e66565b6132f5565b61023460015481565b61021f6103c3366004614fe2565b613344565b6102346103d6366004614e66565b6134ff565b6102346103e9366004614e66565b61354e565b6102346103fc366004614e66565b61359d565b61023461040f366004614e66565b6135ec565b610234610422366004614e66565b61363b565b61021f610435366004614e66565b613708565b61021f610448366004614fe2565b613849565b61023461045b366004614faa565b6142ec565b61023461046e366004614e66565b61440d565b604051634941d71d60e11b81527fd99dae5492aa0c08830764a319f29225cc739a0ed8683d8fd1b5bc3a8fe316726004820152600090819081906001600160a01b03851690639283ae3a9060240160206040518083038186803b1580156104d957600080fd5b505afa1580156104ed573d6000803e3d6000fd5b505050506040513d601f19601f820116820180604052508101906105119190615070565b604051634941d71d60e11b81527f9ce69cf04065e3c7823cc5540c0598d8a694bd7a9a5a2a786d8bccf14ed6e2ea60048201529091506000906001600160a01b03861690639283ae3a9060240160206040518083038186803b15801561057657600080fd5b505afa15801561058a573d6000803e3d6000fd5b505050506040513d601f19601f820116820180604052508101906105ae9190615070565b604051634941d71d60e11b81527f6a2acfe6164f3ec20e6d80e2f4e4f7ae2b9962615c9596c872d01f6cd244aed360048201529091506000906001600160a01b03871690639283ae3a9060240160206040518083038186803b15801561061357600080fd5b505afa158015610627573d6000803e3d6000fd5b505050506040513d601f19601f8201168201806040525081019061064b9190615070565b604051634941d71d60e11b81527f2305fa3a9f84625f75d70f539e621c658cf49e7477ab5af9cacd278ca7904e3060048201529091506000906001600160a01b03881690639283ae3a9060240160206040518083038186803b1580156106b057600080fd5b505afa1580156106c4573d6000803e3d6000fd5b505050506040513d601f19601f820116820180604052508101906106e89190615070565b905060006106f68585615172565b9050841580610703575083155b8061070c575082155b80610715575081155b8061071e575080155b15610733575060009788975095505050505050565b600061073f84876150fd565b9050600061074d8483615172565b905085811180610767575060006107648284615172565b11155b1561077e57506000998a9950975050505050505050565b999098509650505050505050565b6040517f68c18beb00000000000000000000000000000000000000000000000000000000815233600482015283906001600160a01b038216906368c18beb9060240160206040518083038186803b1580156107e657600080fd5b505afa1580156107fa573d6000803e3d6000fd5b505050506040513d601f19601f8201168201806040525081019061081e9190614f65565b8061082d575061082d8161445c565b61087e5760405162461bcd60e51b815260206004820152600b60248201527f6f6e6c794164617074657200000000000000000000000000000000000000000060448201526064015b60405180910390fd5b50505050565b604051634941d71d60e11b81527f6a2acfe6164f3ec20e6d80e2f4e4f7ae2b9962615c9596c872d01f6cd244aed360048201526000906001600160a01b03831690639283ae3a906024015b60206040518083038186803b1580156108e757600080fd5b505afa1580156108fb573d6000803e3d6000fd5b505050506040513d601f19601f8201168201806040525081019061091f9190615070565b92915050565b6001600160a01b038116600090815260026020526040902060609061091f90614695565b604051634941d71d60e11b81527f533afc15b6312917b5e28e2272ea69d44e5ea8e00d3bd57cada1275c2f14c9e860048201526000906001600160a01b03831690639283ae3a906024016108cf565b604051634941d71d60e11b81527f9ce69cf04065e3c7823cc5540c0598d8a694bd7a9a5a2a786d8bccf14ed6e2ea60048201526000906001600160a01b03831690639283ae3a906024016108cf565b604051634941d71d60e11b81527fd99dae5492aa0c08830764a319f29225cc739a0ed8683d8fd1b5bc3a8fe31672600482015260009081906001600160a01b03851690639283ae3a9060240160206040518083038186803b158015610a4b57600080fd5b505afa158015610a5f573d6000803e3d6000fd5b505050506040513d601f19601f82011682018060405250810190610a839190615070565b604051634941d71d60e11b81527f9ce69cf04065e3c7823cc5540c0598d8a694bd7a9a5a2a786d8bccf14ed6e2ea60048201529091506000906001600160a01b03861690639283ae3a9060240160206040518083038186803b158015610ae857600080fd5b505afa158015610afc573d6000803e3d6000fd5b505050506040513d601f19601f82011682018060405250810190610b209190615070565b604051634941d71d60e11b81527f6a2acfe6164f3ec20e6d80e2f4e4f7ae2b9962615c9596c872d01f6cd244aed360048201529091506000906001600160a01b03871690639283ae3a9060240160206040518083038186803b158015610b8557600080fd5b505afa158015610b99573d6000803e3d6000fd5b505050506040513d601f19601f82011682018060405250810190610bbd9190615070565b604051634941d71d60e11b81527f2305fa3a9f84625f75d70f539e621c658cf49e7477ab5af9cacd278ca7904e3060048201529091506000906001600160a01b03881690639283ae3a9060240160206040518083038186803b158015610c2257600080fd5b505afa158015610c36573d6000803e3d6000fd5b505050506040513d601f19601f82011682018060405250810190610c5a9190615070565b90506000610c688585615172565b9050821580610c75575081155b80610c7e575080155b15610c915760009550505050505061091f565b6000610c9d8383615115565b905060008060005b838111610d26578215610cc157610cbc86846150fd565b610ccb565b610ccb868a6150fd565b9250610cd78784615172565b9150818b118015610ce75750828b105b8015610cf25750888b115b8015610cfd5750878b105b15610d14576001995050505050505050505061091f565b610d1f6001826150fd565b9050610ca5565b5060009b9a5050505050505050505050565b6001600160a01b03821660009081526003602090815260408083208484529091529020606090610d6790614695565b9392505050565b604051634941d71d60e11b81527f5fa39c8100b49336846e52d39403e353bf782275f905a885f09224779ff1c92460048201526000906001600160a01b03831690639283ae3a906024016108cf565b816000610dc9826146a2565b604051634941d71d60e11b81527f1405d0156cf64c805704fdf6691baebfcfa0d409ea827c231693ff0581b0b7776004820152909150849033906001600160a01b03831690639283ae3a9060240160206040518083038186803b158015610e2f57600080fd5b505afa158015610e43573d6000803e3d6000fd5b505050506040513d601f19601f82011682018060405250810190610e679190615070565b6001141561148f57604051634941d71d60e11b81527f80140cd7e0b1d935bee578a67a41547c82987de8e7d6b3827d411b738110258b60048201526000906001600160a01b03841690639283ae3a9060240160206040518083038186803b158015610ed157600080fd5b505afa158015610ee5573d6000803e3d6000fd5b505050506040513d601f19601f82011682018060405250810190610f099190615070565b6040517ffd310d290000000000000000000000000000000000000000000000000000000081527fe373ab56628c86db3f0e36774c2c5e0393f9272ff5c976bc3f0db2db60cdbc1460048201529091506000906001600160a01b0385169063fd310d299060240160206040518083038186803b158015610f8757600080fd5b505afa158015610f9b573d6000803e3d6000fd5b505050506040513d601f19601f82011682018060405250810190610fbf9190614e82565b604051634941d71d60e11b81527f04ecaf460eb9f82aeb70035e3f24c18a3650fa0da9ddbe7e63d70de659b9b90160048201529091506000906001600160a01b03861690639283ae3a9060240160206040518083038186803b15801561102457600080fd5b505afa158015611038573d6000803e3d6000fd5b505050506040513d601f19601f8201168201806040525081019061105c9190615070565b604051634941d71d60e11b81527f6cb5bc3796b0717ca4ff665886c96fb0178d6341366eb7b6c737fe79083b836a60048201529091506000906001600160a01b03871690639283ae3a9060240160206040518083038186803b1580156110c157600080fd5b505afa1580156110d5573d6000803e3d6000fd5b505050506040513d601f19601f820116820180604052508101906110f99190615070565b9050836111f5576040516370a0823160e01b81526001600160a01b0386811660048301528391908516906370a082319060240160206040518083038186803b15801561114457600080fd5b505afa158015611158573d6000803e3d6000fd5b505050506040513d601f19601f8201168201806040525081019061117c9190615070565b10156111f05760405162461bcd60e51b815260206004820152603d60248201527f56696e74616765204465706f7369743a3a646f6e74206d656574206d696e206560448201527f7263323020746f6b656e20686f6c64696e67207265717569726d656e740000006064820152608401610875565b61148a565b83600114156112ee576040516370a0823160e01b81526001600160a01b0386811660048301528391908516906370a082319060240160206040518083038186803b15801561124257600080fd5b505afa158015611256573d6000803e3d6000fd5b505050506040513d601f19601f8201168201806040525081019061127a9190615070565b10156111f05760405162461bcd60e51b815260206004820152603d60248201527f56696e74616765204465706f7369743a646f6e74206d656574206d696e20657260448201527f6337323120746f6b656e20686f6c64696e67207265717569726d656e740000006064820152608401610875565b8360021415611405576040517efdd58e0000000000000000000000000000000000000000000000000000000081526001600160a01b0386811660048301526024820183905283919085169062fdd58e9060440160206040518083038186803b15801561135957600080fd5b505afa15801561136d573d6000803e3d6000fd5b505050506040513d601f19601f820116820180604052508101906113919190615070565b10156111f05760405162461bcd60e51b815260206004820152603e60248201527f56696e74616765204465706f7369743a646f6e74206d656574206d696e20657260448201527f633131353520746f6b656e20686f6c64696e67207265717569726d656e7400006064820152608401610875565b836003141561148a5761141886866122e2565b6111f05760405162461bcd60e51b815260206004820152602260248201527f56696e74616765204465706f7369743a3a206e6f7420696e2077686974656c6960448201527f73740000000000000000000000000000000000000000000000000000000000006064820152608401610875565b505050505b600085116115055760405162461bcd60e51b815260206004820152603460248201527f46756e64696e67506f6f6c416461707465723a3a4465706f7369743a3a20696e60448201527f76616c6964206465706f73697420616d6f756e740000000000000000000000006064820152608401610875565b604051634941d71d60e11b81527f5fa39c8100b49336846e52d39403e353bf782275f905a885f09224779ff1c92460048201526000906001600160a01b03881690639283ae3a9060240160206040518083038186803b15801561156757600080fd5b505afa15801561157b573d6000803e3d6000fd5b505050506040513d601f19601f8201168201806040525081019061159f9190615070565b604051634941d71d60e11b81527fbdd40865e74210f0a46799ae63462c62010da92014a08cbc32f1d049d0a22c6b60048201529091506000906001600160a01b03891690639283ae3a9060240160206040518083038186803b15801561160457600080fd5b505afa158015611618573d6000803e3d6000fd5b505050506040513d601f19601f8201168201806040525081019061163c9190615070565b604051634941d71d60e11b81527f7e07fb4530796d057ca1d76d83f47aa8629dbb7e942ac28f30ad6f5e9e8d418960048201529091506000906001600160a01b038a1690639283ae3a9060240160206040518083038186803b1580156116a157600080fd5b505afa1580156116b5573d6000803e3d6000fd5b505050506040513d601f19601f820116820180604052508101906116d99190615070565b9050811561177d578188101561177d5760405162461bcd60e51b815260206004820152604d60248201527f46756e64696e67506f6f6c416461707465723a3a4465706f7369743a3a64657060448201527f6f73697420616d6f756e742063616e74206c657373207468616e206d696e206460648201527f65706f73697420616d6f756e7400000000000000000000000000000000000000608482015260a401610875565b8215611832578261178e8a336142ec565b611798908a6150fd565b11156118325760405162461bcd60e51b815260206004820152605060248201527f46756e64696e67506f6f6c416461707465723a3a4465706f7369743a3a64657060448201527f6f73697420616d6f756e742063616e742067726561746572207468616e206d6160648201527f78206465706f73697420616d6f756e7400000000000000000000000000000000608482015260a401610875565b604051634941d71d60e11b81527fbd04d44792b7dbfe3b50b0f9f2006f7ef449e374a39021cb9bfa7cd0bdd850d7600482015242906001600160a01b038b1690639283ae3a9060240160206040518083038186803b15801561189357600080fd5b505afa1580156118a7573d6000803e3d6000fd5b505050506040513d601f19601f820116820180604052508101906118cb9190615070565b10801561196e5750604051634941d71d60e11b81527f533afc15b6312917b5e28e2272ea69d44e5ea8e00d3bd57cada1275c2f14c9e8600482015242906001600160a01b038b1690639283ae3a9060240160206040518083038186803b15801561193457600080fd5b505afa158015611948573d6000803e3d6000fd5b505050506040513d601f19601f8201168201806040525081019061196c9190615070565b115b6119e05760405162461bcd60e51b815260206004820152603460248201527f46756e64696e67506f6f6c416461707465723a3a4465706f7369743a3a6e6f7460448201527f20696e2066756e6472616973652077696e646f770000000000000000000000006064820152608401610875565b8015611a6f5780886119f18b612304565b6119fb91906150fd565b1115611a6f5760405162461bcd60e51b815260206004820152603760248201527f46756e64696e67506f6f6c416461707465723a3a4465706f7369743a3a46756e60448201527f647261697365206d617820616d6f756e742072656163680000000000000000006064820152608401610875565b604051632c9f4b5b60e11b81527f161fca6912f107b0f13c9c7275de7391b32d2ea1c52ffba65a3c961880a0c60f60048201526000906001600160a01b038b169063593e96b69060240160206040518083038186803b158015611ad157600080fd5b505afa158015611ae5573d6000803e3d6000fd5b505050506040513d601f19601f82011682018060405250810190611b099190614e82565b6040516317ba7d8560e01b81527fa837e34a29b67bf52f684a1c93def79b84b9c012732becee4e5df62809df64ed60048201529091506000906001600160a01b038c16906317ba7d859060240160206040518083038186803b158015611b6e57600080fd5b505afa158015611b82573d6000803e3d6000fd5b505050506040513d601f19601f82011682018060405250810190611ba69190614e82565b604051634fc0a76d60e01b81526001600160a01b038d81166004830152919250600091831690634fc0a76d9060240160206040518083038186803b158015611bed57600080fd5b505afa158015611c01573d6000803e3d6000fd5b505050506040513d601f19601f82011682018060405250810190611c259190615070565b604051634941d71d60e11b81527f0a71373d28d4b40b0bb46f8d58468f2e51292d10cf26715a0e3d8624b60c8a4260048201529091506001600160a01b038d1690639283ae3a9060240160206040518083038186803b158015611c8757600080fd5b505afa158015611c9b573d6000803e3d6000fd5b505050506040513d601f19601f82011682018060405250810190611cbf9190615070565b6001148015611d8f5750604051634941d71d60e11b81527faf0b46df030af159303b75690e740674df8434270d3b7248b0280f3d63a2dd8b60048201526001600160a01b038d1690639283ae3a9060240160206040518083038186803b158015611d2857600080fd5b505afa158015611d3c573d6000803e3d6000fd5b505050506040513d601f19601f82011682018060405250810190611d609190615070565b6001600160a01b038d1660009081526003602090815260408083208584529091529020611d8c9061496d565b10155b8015611dc557506001600160a01b038c1660009081526003602090815260408083208484529091529020611dc39033614977565b155b15611e125760405162461bcd60e51b815260206004820152601e60248201527f657863656564206d6178207061727469636970616e747320616d6f756e7400006044820152606401610875565b6000836001600160a01b031663a87af66c6040518163ffffffff1660e01b815260040160206040518083038186803b158015611e4d57600080fd5b505afa158015611e61573d6000803e3d6000fd5b505050506040513d601f19601f82011682018060405250810190611e859190614e82565b6040516370a0823160e01b81523360048201529091508c906001600160a01b038316906370a082319060240160206040518083038186803b158015611ec957600080fd5b505afa158015611edd573d6000803e3d6000fd5b505050506040513d601f19601f82011682018060405250810190611f019190615070565b1015611f4f5760405162461bcd60e51b815260206004820152601860248201527f4465706f7369743a3a6e6f7420656e6f7567682066756e6400000000000000006044820152606401610875565b6040517fdd62ed3e0000000000000000000000000000000000000000000000000000000081523360048201523060248201528c906001600160a01b0383169063dd62ed3e9060440160206040518083038186803b158015611faf57600080fd5b505afa158015611fc3573d6000803e3d6000fd5b505050506040513d601f19601f82011682018060405250810190611fe79190615070565b10156120355760405162461bcd60e51b815260206004820152601d60248201527f4465706f7369743a3a6e6f7420656e6f75676820616c6c6f77616e63650000006044820152606401610875565b6040517f23b872dd000000000000000000000000000000000000000000000000000000008152336004820152306024820152604481018d90526001600160a01b038216906323b872dd90606401602060405180830381600087803b15801561209c57600080fd5b505af11580156120b0573d6000803e3d6000fd5b505050506040513d601f19601f820116820180604052508101906120d49190614f65565b50806001600160a01b031663095ea7b38e6001600160a01b031663593e96b67f161fca6912f107b0f13c9c7275de7391b32d2ea1c52ffba65a3c961880a0c60f6040518263ffffffff1660e01b815260040161213291815260200190565b60206040518083038186803b15801561214a57600080fd5b505afa15801561215e573d6000803e3d6000fd5b505050506040513d601f19601f820116820180604052508101906121829190614e82565b6040516001600160e01b031960e084901b1681526001600160a01b039091166004820152602481018f9052604401602060405180830381600087803b1580156121ca57600080fd5b505af11580156121de573d6000803e3d6000fd5b505050506040513d601f19601f820116820180604052508101906122029190614f65565b506040517fb08079a6000000000000000000000000000000000000000000000000000000008152336004820152602481018d90526001600160a01b0385169063b08079a690604401600060405180830381600087803b15801561226457600080fd5b505af1158015612278573d6000803e3d6000fd5b505050506122878d3384614999565b604080516001600160a01b038f168152602081018e9052338183015290517fe31c7b8d08ee7db0afa68782e1028ef92305caeea8626633ad44d413e30f6b2f9181900360600190a150505050505050505061087e82826149f7565b6001600160a01b0382166000908152600260205260408120610d679083614977565b604051632c9f4b5b60e11b81527f161fca6912f107b0f13c9c7275de7391b32d2ea1c52ffba65a3c961880a0c60f600482015260009081906001600160a01b0384169063593e96b69060240160206040518083038186803b15801561236857600080fd5b505afa15801561237c573d6000803e3d6000fd5b505050506040513d601f19601f820116820180604052508101906123a09190614e82565b6040516370a0823160e01b815261decd60048201529091506001600160a01b038216906370a08231906024015b60206040518083038186803b1580156123e557600080fd5b505afa1580156123f9573d6000803e3d6000fd5b505050506040513d601f19601f82011682018060405250810190610d679190615070565b604051634941d71d60e11b81527f31af571e53636dddd77f772cce9d30b42075760f2da731636acc6962da2fbef860048201526000906001600160a01b03831690639283ae3a906024016108cf565b806000612478826146a2565b905060036001600160a01b03841660009081526020819052604090205460ff1660038111156124b757634e487b7160e01b600052602160045260246000fd5b1480156125fa5750604051634941d71d60e11b81527fb0d4178853a5320a41f8c55fa6d58af06637e392beff71e66dba4e8f32c39bb860048201526001600160a01b03841690639283ae3a9060240160206040518083038186803b15801561251e57600080fd5b505afa158015612532573d6000803e3d6000fd5b505050506040513d601f19601f820116820180604052508101906125569190615070565b604051634941d71d60e11b81527f533afc15b6312917b5e28e2272ea69d44e5ea8e00d3bd57cada1275c2f14c9e860048201526001600160a01b03851690639283ae3a9060240160206040518083038186803b1580156125b557600080fd5b505afa1580156125c9573d6000803e3d6000fd5b505050506040513d601f19601f820116820180604052508101906125ed9190615070565b6125f791906150fd565b42115b80612780575060026001600160a01b03841660009081526020819052604090205460ff16600381111561263d57634e487b7160e01b600052602160045260246000fd5b1480156127805750604051634941d71d60e11b81527fb0d4178853a5320a41f8c55fa6d58af06637e392beff71e66dba4e8f32c39bb860048201526001600160a01b03841690639283ae3a9060240160206040518083038186803b1580156126a457600080fd5b505afa1580156126b8573d6000803e3d6000fd5b505050506040513d601f19601f820116820180604052508101906126dc9190615070565b604051634941d71d60e11b81527f9ce69cf04065e3c7823cc5540c0598d8a694bd7a9a5a2a786d8bccf14ed6e2ea60048201526001600160a01b03851690639283ae3a9060240160206040518083038186803b15801561273b57600080fd5b505afa15801561274f573d6000803e3d6000fd5b505050506040513d601f19601f820116820180604052508101906127739190615070565b61277d91906150fd565b42115b6127f25760405162461bcd60e51b815260206004820152603a60248201527f46756e64696e67506f6f6c416461707465723a3a636c65617246756e643a3a4360448201527f616e7420636c65617246756e6420617420746869732074696d650000000000006064820152608401610875565b604051632c9f4b5b60e11b81527f161fca6912f107b0f13c9c7275de7391b32d2ea1c52ffba65a3c961880a0c60f60048201526000906001600160a01b0385169063593e96b69060240160206040518083038186803b15801561285457600080fd5b505afa158015612868573d6000803e3d6000fd5b505050506040513d601f19601f8201168201806040525081019061288c9190614e82565b90506000816001600160a01b031663a87af66c6040518163ffffffff1660e01b815260040160206040518083038186803b1580156128c957600080fd5b505afa1580156128dd573d6000803e3d6000fd5b505050506040513d601f19601f820116820180604052508101906129019190614e82565b90506000826001600160a01b031663b2f5a54c6040518163ffffffff1660e01b815260040160006040518083038186803b15801561293e57600080fd5b505afa158015612952573d6000803e3d6000fd5b505050506040513d6000823e601f3d908101601f1916820160405261297a9190810190614e9e565b6040516317ba7d8560e01b81527fa837e34a29b67bf52f684a1c93def79b84b9c012732becee4e5df62809df64ed60048201529091506000906001600160a01b038816906317ba7d859060240160206040518083038186803b1580156129df57600080fd5b505afa1580156129f3573d6000803e3d6000fd5b505050506040513d601f19601f82011682018060405250810190612a179190614e82565b604051634fc0a76d60e01b81526001600160a01b038981166004830152919250600091831690634fc0a76d9060240160206040518083038186803b158015612a5e57600080fd5b505afa158015612a72573d6000803e3d6000fd5b505050506040513d601f19601f82011682018060405250810190612a969190615070565b835190915015612e5f576000805b84518160ff161015612e14576000612ae68b878460ff1681518110612ad957634e487b7160e01b600052603260045260246000fd5b60200260200101516142ec565b90508015612e01576040516317ba7d8560e01b81527ff03649ccf5cbda635d0464f73bc807b602819fde8d2e1387f87b988bb0e858a360048201526000906001600160a01b038d16906317ba7d859060240160206040518083038186803b158015612b5057600080fd5b505afa158015612b64573d6000803e3d6000fd5b505050506040513d601f19601f82011682018060405250810190612b889190614e82565b9050806001600160a01b03166365017e838d878b8b8860ff1681518110612bbf57634e487b7160e01b600052603260045260246000fd5b60209081029190910101516040516001600160e01b031960e087901b1681526001600160a01b039485166004820152602481019390935290831660448301529190911660648201526084810185905260a401600060405180830381600087803b158015612c2b57600080fd5b505af1158015612c3f573d6000803e3d6000fd5b50506040516317ba7d8560e01b81527ff03649ccf5cbda635d0464f73bc807b602819fde8d2e1387f87b988bb0e858a360048201526001600160a01b03808d16935063e176b35e92508f16906317ba7d859060240160206040518083038186803b158015612cac57600080fd5b505afa158015612cc0573d6000803e3d6000fd5b505050506040513d601f19601f82011682018060405250810190612ce49190614e82565b6040516001600160e01b031960e084901b1681526001600160a01b039182166004820152908b16602482015260448101859052606401600060405180830381600087803b158015612d3457600080fd5b505af1158015612d48573d6000803e3d6000fd5b50505050886001600160a01b031663e3a05cc1888560ff1681518110612d7e57634e487b7160e01b600052603260045260246000fd5b60209081029190910101516040516001600160e01b031960e084901b1681526001600160a01b039182166004820152908b16602482015260448101859052606401600060405180830381600087803b158015612dd957600080fd5b505af1158015612ded573d6000803e3d6000fd5b505050508184612dfd91906150fd565b9350505b5080612e0c81615189565b915050612aa4565b50604080516001600160a01b038b16815260208101839052338183015290517f12d0dcfe23709357491021067eb05d73fa0b1f1aeb69310c2071218e089f057f9181900360600190a1505b5050505050612e6e82826149f7565b505050565b6040517fa230c5240000000000000000000000000000000000000000000000000000000081526001600160a01b0382811660048301526000919084169063a230c5249060240160206040518083038186803b158015612ed157600080fd5b505afa158015612ee5573d6000803e3d6000fd5b505050506040513d601f19601f82011682018060405250810190610d679190614f65565b604051634941d71d60e11b81527f31af571e53636dddd77f772cce9d30b42075760f2da731636acc6962da2fbef8600482015260009081906001600160a01b03841690639283ae3a9060240160206040518083038186803b158015612f6d57600080fd5b505afa158015612f81573d6000803e3d6000fd5b505050506040513d601f19601f82011682018060405250810190612fa59190615070565b604051634941d71d60e11b81527f533afc15b6312917b5e28e2272ea69d44e5ea8e00d3bd57cada1275c2f14c9e860048201529091506000906001600160a01b03851690639283ae3a9060240160206040518083038186803b15801561300a57600080fd5b505afa15801561301e573d6000803e3d6000fd5b505050506040513d601f19601f820116820180604052508101906130429190615070565b9050804211801561308d575060016001600160a01b03851660009081526020819052604090205460ff16600381111561308b57634e487b7160e01b600052602160045260246000fd5b145b1561329b578161309c85612304565b106130c9576001600160a01b0384166000908152602081905260409020805460ff191660021790556130ed565b6001600160a01b0384166000908152602081905260409020805460ff191660031790555b6040516317ba7d8560e01b81527fa837e34a29b67bf52f684a1c93def79b84b9c012732becee4e5df62809df64ed60048201526000906001600160a01b038616906317ba7d859060240160206040518083038186803b15801561314f57600080fd5b505afa158015613163573d6000803e3d6000fd5b505050506040513d601f19601f820116820180604052508101906131879190614e82565b604051634fc0a76d60e01b81526001600160a01b0380881660048301529192507f5fd2225800b4a1978ad764ee103db4fc09f1f8db734ab768112047634fb868c291879190841690634fc0a76d9060240160206040518083038186803b1580156131f057600080fd5b505afa158015613204573d6000803e3d6000fd5b505050506040513d601f19601f820116820180604052508101906132289190615070565b6001600160a01b03881660009081526020819052604090205460ff16600381111561326357634e487b7160e01b600052602160045260246000fd5b61326c89612304565b604080516001600160a01b039095168552602085019390935291830152606082015260800160405180910390a1505b5050919050565b816132ad8133614a06565b6001600160a01b03831660009081526002602052604090206132cf9083614977565b612e6e576001600160a01b038316600090815260026020526040902061087e9083614a5c565b604051634941d71d60e11b81527f2305fa3a9f84625f75d70f539e621c658cf49e7477ab5af9cacd278ca7904e3060048201526000906001600160a01b03831690639283ae3a906024016108cf565b8143816001600160a01b031663b21634826040518163ffffffff1660e01b815260040160206040518083038186803b15801561337f57600080fd5b505afa158015613393573d6000803e3d6000fd5b505050506040513d601f19601f820116820180604052508101906133b79190615070565b14156134055760405162461bcd60e51b815260206004820152601060248201527f7265656e7472616e6379206775617264000000000000000000000000000000006044820152606401610875565b806001600160a01b03166310fdb0a26040518163ffffffff1660e01b8152600401600060405180830381600087803b15801561344057600080fd5b505af1158015613454573d6000803e3d6000fd5b505050508261346281614a71565b6001600160a01b0316336001600160a01b03161461347f57600080fd5b670de0b6b3a7640000831080156134965750600083115b61349f57600080fd5b8260018190555050806001600160a01b031663d4f7af436040518163ffffffff1660e01b8152600401600060405180830381600087803b1580156134e257600080fd5b505af11580156134f6573d6000803e3d6000fd5b50505050505050565b604051634941d71d60e11b81527f7e07fb4530796d057ca1d76d83f47aa8629dbb7e942ac28f30ad6f5e9e8d418960048201526000906001600160a01b03831690639283ae3a906024016108cf565b604051634941d71d60e11b81527fbd04d44792b7dbfe3b50b0f9f2006f7ef449e374a39021cb9bfa7cd0bdd850d760048201526000906001600160a01b03831690639283ae3a906024016108cf565b604051634941d71d60e11b81527fbdd40865e74210f0a46799ae63462c62010da92014a08cbc32f1d049d0a22c6b60048201526000906001600160a01b03831690639283ae3a906024016108cf565b604051634941d71d60e11b81527fd99dae5492aa0c08830764a319f29225cc739a0ed8683d8fd1b5bc3a8fe3167260048201526000906001600160a01b03831690639283ae3a906024016108cf565b604051632c9f4b5b60e11b81527f161fca6912f107b0f13c9c7275de7391b32d2ea1c52ffba65a3c961880a0c60f600482015260009081906001600160a01b0384169063593e96b69060240160206040518083038186803b15801561369f57600080fd5b505afa1580156136b3573d6000803e3d6000fd5b505050506040513d601f19601f820116820180604052508101906136d79190614e82565b6040516370a0823160e01b815261111160048201529091506001600160a01b038216906370a08231906024016123cd565b6040516317ba7d8560e01b81527fa837e34a29b67bf52f684a1c93def79b84b9c012732becee4e5df62809df64ed60048201526001600160a01b038216906317ba7d859060240160206040518083038186803b15801561376757600080fd5b505afa15801561377b573d6000803e3d6000fd5b505050506040513d601f19601f8201168201806040525081019061379f9190614e82565b6001600160a01b0316336001600160a01b0316146138255760405162461bcd60e51b815260206004820152603460248201527f46756e64696e67506f6f6c416461707465723a3a726573657446756e6452616960448201527f736553746174653a3a4163636573732064656e790000000000000000000000006064820152608401610875565b6001600160a01b03166000908152602081905260409020805460ff19166001179055565b816000613855826146a2565b905061386084612f09565b5060016001600160a01b03851660009081526020819052604090205460ff16600381111561389e57634e487b7160e01b600052602160045260246000fd5b1480156139405750604051634941d71d60e11b81527f533afc15b6312917b5e28e2272ea69d44e5ea8e00d3bd57cada1275c2f14c9e860048201526001600160a01b03851690639283ae3a9060240160206040518083038186803b15801561390557600080fd5b505afa158015613919573d6000803e3d6000fd5b505050506040513d601f19601f8201168201806040525081019061393d9190615070565b42105b80156139e15750604051634941d71d60e11b81527fbd04d44792b7dbfe3b50b0f9f2006f7ef449e374a39021cb9bfa7cd0bdd850d760048201526001600160a01b03851690639283ae3a9060240160206040518083038186803b1580156139a657600080fd5b505afa1580156139ba573d6000803e3d6000fd5b505050506040513d601f19601f820116820180604052508101906139de9190615070565b42115b80613a26575060036001600160a01b03851660009081526020819052604090205460ff166003811115613a2457634e487b7160e01b600052602160045260246000fd5b145b80613a7b575060026001600160a01b03851660009081526020819052604090205460ff166003811115613a6957634e487b7160e01b600052602160045260246000fd5b148015613a7b5750613a7b84426109e7565b80613b60575060026001600160a01b03851660009081526020819052604090205460ff166003811115613abe57634e487b7160e01b600052602160045260246000fd5b148015613b605750604051634941d71d60e11b81527f9ce69cf04065e3c7823cc5540c0598d8a694bd7a9a5a2a786d8bccf14ed6e2ea60048201526001600160a01b03851690639283ae3a9060240160206040518083038186803b158015613b2557600080fd5b505afa158015613b39573d6000803e3d6000fd5b505050506040513d601f19601f82011682018060405250810190613b5d9190615070565b42115b613bd25760405162461bcd60e51b815260206004820152603860248201527f46756e64696e67506f6f6c416461707465723a3a57697468647261773a3a436160448201527f6e7420776974686472617720617420746869732074696d6500000000000000006064820152608401610875565b604051632c9f4b5b60e11b81527f161fca6912f107b0f13c9c7275de7391b32d2ea1c52ffba65a3c961880a0c60f60048201526000906001600160a01b0386169063593e96b69060240160206040518083038186803b158015613c3457600080fd5b505afa158015613c48573d6000803e3d6000fd5b505050506040513d601f19601f82011682018060405250810190613c6c9190614e82565b90506000816001600160a01b031663a87af66c6040518163ffffffff1660e01b815260040160206040518083038186803b158015613ca957600080fd5b505afa158015613cbd573d6000803e3d6000fd5b505050506040513d601f19601f82011682018060405250810190613ce19190614e82565b90506000613cef87336142ec565b905060008611613d675760405162461bcd60e51b815260206004820152602c60248201527f46756e64696e67506f6f6c416461707465723a3a77697468647261773a3a696e60448201527f76616c696420616d6f756e7400000000000000000000000000000000000000006064820152608401610875565b80861115613ddd5760405162461bcd60e51b815260206004820152602f60248201527f46756e64696e67506f6f6c416461707465723a3a77697468647261773a3a696e60448201527f73756666696369656e742066756e6400000000000000000000000000000000006064820152608401610875565b600060026001600160a01b03891660009081526020819052604090205460ff166003811115613e1c57634e487b7160e01b600052602160045260246000fd5b148015613e2e5750613e2e88426109e7565b1561405657604051634941d71d60e11b81527f3e453820e0fc9cb9a1e799559661cf9c1db4cc7d7fbcb7e0fdaf884cbe29c3566004820152670de0b6b3a76400009088906001600160a01b038b1690639283ae3a9060240160206040518083038186803b158015613e9e57600080fd5b505afa158015613eb2573d6000803e3d6000fd5b505050506040513d601f19601f82011682018060405250810190613ed69190615070565b613ee09190615135565b613eea9190615115565b90508015614056576040517ffd310d290000000000000000000000000000000000000000000000000000000081527f5460409b9aa4688f80c10b29c3d7ad16025f050f472a6882a45fa7bb9bd12fb160048201526001600160a01b038086169163e176b35e918b169063fd310d299060240160206040518083038186803b158015613f7457600080fd5b505afa158015613f88573d6000803e3d6000fd5b505050506040513d601f19601f82011682018060405250810190613fac9190614e82565b6040516001600160e01b031960e084901b1681526001600160a01b039182166004820152908616602482015260448101849052606401600060405180830381600087803b158015613ffc57600080fd5b505af1158015614010573d6000803e3d6000fd5b5050604080514281523360208201529081018490527f9be3c12f5a761d40f24615ca271fccd66bef0721cc4140e846537a53c009bf0e9250606001905060405180910390a15b6001600160a01b03841663f3fef3a333614070848b615172565b6040516001600160e01b031960e085901b1681526001600160a01b0390921660048301526024820152604401600060405180830381600087803b1580156140b657600080fd5b505af11580156140ca573d6000803e3d6000fd5b50506040517fe3a05cc10000000000000000000000000000000000000000000000000000000081523360048201526001600160a01b038681166024830152604482018b90528716925063e3a05cc19150606401600060405180830381600087803b15801561413757600080fd5b505af115801561414b573d6000803e3d6000fd5b50505050600061415b89336142ec565b11614289576040516317ba7d8560e01b81527fa837e34a29b67bf52f684a1c93def79b84b9c012732becee4e5df62809df64ed60048201526000906001600160a01b038a16906317ba7d859060240160206040518083038186803b1580156141c257600080fd5b505afa1580156141d6573d6000803e3d6000fd5b505050506040513d601f19601f820116820180604052508101906141fa9190614e82565b604051634fc0a76d60e01b81526001600160a01b038b81166004830152919250600091831690634fc0a76d9060240160206040518083038186803b15801561424157600080fd5b505afa158015614255573d6000803e3d6000fd5b505050506040513d601f19601f820116820180604052508101906142799190615070565b90506142868a3383614b54565b50505b7fd432fbc5f79eaeefd01acbebd76cf4b0d5f43d8372c2fd3e23761c06a60a75f1886142b5838a615172565b604080516001600160a01b0390931683526020830191909152339082015260600160405180910390a15050505061087e82826149f7565b604051632c9f4b5b60e11b81527f161fca6912f107b0f13c9c7275de7391b32d2ea1c52ffba65a3c961880a0c60f600482015260009081906001600160a01b0385169063593e96b69060240160206040518083038186803b15801561435057600080fd5b505afa158015614364573d6000803e3d6000fd5b505050506040513d601f19601f820116820180604052508101906143889190614e82565b6040516370a0823160e01b81526001600160a01b038581166004830152919250908216906370a082319060240160206040518083038186803b1580156143cd57600080fd5b505afa1580156143e1573d6000803e3d6000fd5b505050506040513d601f19601f820116820180604052508101906144059190615070565b949350505050565b604051634941d71d60e11b81527fb0d4178853a5320a41f8c55fa6d58af06637e392beff71e66dba4e8f32c39bb860048201526000906001600160a01b03831690639283ae3a906024016108cf565b600080826001600160a01b031663c19d93fb6040518163ffffffff1660e01b815260040160206040518083038186803b15801561449857600080fd5b505afa1580156144ac573d6000803e3d6000fd5b505050506040513d601f19601f820116820180604052508101906144d09190615051565b60018111156144ef57634e487b7160e01b600052602160045260246000fd5b14801561091f5750816001600160a01b031663c67143666040518163ffffffff1660e01b815260040160206040518083038186803b15801561453057600080fd5b505afa158015614544573d6000803e3d6000fd5b505050506040513d601f19601f820116820180604052508101906145689190615070565b15806145ff57506040517fa230c5240000000000000000000000000000000000000000000000000000000081523360048201526001600160a01b0383169063a230c5249060240160206040518083038186803b1580156145c757600080fd5b505afa1580156145db573d6000803e3d6000fd5b505050506040513d601f19601f820116820180604052508101906145ff9190614f65565b8061091f57506040517f68c18beb0000000000000000000000000000000000000000000000000000000081523360048201526001600160a01b038316906368c18beb9060240160206040518083038186803b15801561465d57600080fd5b505afa158015614671573d6000803e3d6000fd5b505050506040513d601f19601f8201168201806040525081019061091f9190614f65565b60606000610d6783614b81565b6040805160808101825260008082526020820181905291810182905260608101919091525a81600001818152505043826001600160a01b031663b21634826040518163ffffffff1660e01b815260040160206040518083038186803b15801561470a57600080fd5b505afa15801561471e573d6000803e3d6000fd5b505050506040513d601f19601f820116820180604052508101906147429190615070565b14156147905760405162461bcd60e51b815260206004820152601060248201527f7265656e7472616e6379206775617264000000000000000000000000000000006044820152606401610875565b816001600160a01b03166310fdb0a26040518163ffffffff1660e01b8152600401600060405180830381600087803b1580156147cb57600080fd5b505af11580156147df573d6000803e3d6000fd5b50506040517f72c6838f0000000000000000000000000000000000000000000000000000000081527f1f2fd42ad6a6cacd573c4b212beb7a4e2499ad45d742a65337097f130e71daff6004820152600092506001600160a01b03851691506372c6838f9060240160206040518083038186803b15801561485e57600080fd5b505afa158015614872573d6000803e3d6000fd5b505050506040513d601f19601f820116820180604052508101906148969190614e82565b90506001600160a01b0381166148b25760006020830152614967565b6001600160a01b038181166060840181905283516040517f43a8a3f1000000000000000000000000000000000000000000000000000000008152928616600484015260248301526000918291906343a8a3f190604401604080518083038186803b15801561491f57600080fd5b505afa158015614933573d6000803e3d6000fd5b505050506040513d601f19601f820116820180604052508101906149579190614f7f565b9015156020860152604085015250505b50919050565b600061091f825490565b6001600160a01b03811660009081526001830160205260408120541515610d67565b6001600160a01b038316600090815260036020908152604080832084845290915290206149c69083614977565b612e6e576001600160a01b0383166000908152600360209081526040808320848452909152902061087e9083614a5c565b614a02828233614bdd565b5050565b614a108282612e73565b614a025760405162461bcd60e51b815260206004820152600b60248201527f6f6e6c79537465776172640000000000000000000000000000000000000000006044820152606401610875565b6000610d67836001600160a01b038416614cb6565b6000816001600160a01b03166348f7f2a36040518163ffffffff1660e01b815260040160206040518083038186803b158015614aac57600080fd5b505afa158015614ac0573d6000803e3d6000fd5b505050506040513d601f19601f82011682018060405250810190614ae49190614e82565b6001600160a01b0316638da5cb5b6040518163ffffffff1660e01b815260040160206040518083038186803b158015614b1c57600080fd5b505afa158015614b30573d6000803e3d6000fd5b505050506040513d601f19601f8201168201806040525081019061091f9190614e82565b6001600160a01b0383166000908152600360209081526040808320848452909152902061087e9083614d05565b606081600001805480602002602001604051908101604052809291908181526020018280548015614bd157602002820191906000526020600020905b815481526020019060010190808311614bbd575b50505050509050919050565b816020015115614c7b5781606001516001600160a01b0316635e5eb01384835a8651614c099190615172565b60408088015190516001600160e01b031960e087901b1681526001600160a01b03948516600482015293909216602484015260448301526064820152608401600060405180830381600087803b158015614c6257600080fd5b505af1158015614c76573d6000803e3d6000fd5b505050505b826001600160a01b031663d4f7af436040518163ffffffff1660e01b8152600401600060405180830381600087803b1580156134e257600080fd5b6000818152600183016020526040812054614cfd5750815460018181018455600084815260208082209093018490558454848252828601909352604090209190915561091f565b50600061091f565b6000610d67836001600160a01b03841660008181526001830160205260408120548015614e28576000614d39600183615172565b8554909150600090614d4d90600190615172565b9050818114614dce576000866000018281548110614d7b57634e487b7160e01b600052603260045260246000fd5b9060005260206000200154905080876000018481548110614dac57634e487b7160e01b600052603260045260246000fd5b6000918252602080832090910192909255918252600188019052604090208390555b8554869080614ded57634e487b7160e01b600052603160045260246000fd5b60019003818190600052602060002001600090559055856001016000868152602001908152602001600020600090556001935050505061091f565b600091505061091f565b8051614e3d816151d5565b919050565b80518015158114614e3d57600080fd5b803563ffffffff81168114614e3d57600080fd5b600060208284031215614e77578081fd5b8135610d67816151d5565b600060208284031215614e93578081fd5b8151610d67816151d5565b60006020808385031215614eb0578182fd5b825167ffffffffffffffff80821115614ec7578384fd5b818501915085601f830112614eda578384fd5b815181811115614eec57614eec6151bf565b8060051b604051601f19603f83011681018181108582111715614f1157614f116151bf565b604052828152858101935084860182860187018a1015614f2f578788fd5b8795505b83861015614f5857614f4481614e32565b855260019590950194938601938601614f33565b5098975050505050505050565b600060208284031215614f76578081fd5b610d6782614e42565b60008060408385031215614f91578081fd5b614f9a83614e42565b9150602083015190509250929050565b60008060408385031215614fbc578182fd5b8235614fc7816151d5565b91506020830135614fd7816151d5565b809150509250929050565b60008060408385031215614ff4578182fd5b8235614fff816151d5565b946020939093013593505050565b600080600060608486031215615021578081fd5b833561502c816151d5565b925061503a60208501614e52565b915061504860408501614e52565b90509250925092565b600060208284031215615062578081fd5b815160028110610d67578182fd5b600060208284031215615081578081fd5b5051919050565b6020808252825182820181905260009190848201906040850190845b818110156150c95783516001600160a01b0316835292840192918401916001016150a4565b50909695505050505050565b60208101600483106150f757634e487b7160e01b600052602160045260246000fd5b91905290565b60008219821115615110576151106151a9565b500190565b60008261513057634e487b7160e01b81526012600452602481fd5b500490565b6000817fffffffffffffffffffffffffffffffffffffffffffffffffffffffffffffffff048311821515161561516d5761516d6151a9565b500290565b600082821015615184576151846151a9565b500390565b600060ff821660ff8114156151a0576151a06151a9565b60010192915050565b634e487b7160e01b600052601160045260246000fd5b634e487b7160e01b600052604160045260246000fd5b6001600160a01b03811681146151ea57600080fd5b5056fea26469706673582212209146d4985a76413eb4bf0e2a4d7cbbec33a27740d515fc14708dadbe1de8363664736f6c63430008040033",
  "linkReferences": {},
  "deployedLinkReferences": {}
}