{
  "_format": "hh-sol-artifact-1",
  "contractName": "VintageFundingPoolAdapterContract",
  "sourceName": "contracts/vintage/adapters/VintageFundingPoolAdapter.sol",
  "abi": [
    {
      "inputs": [],
      "name": "MAX_PATICIPANT_AMOUNT_REACH",
      "type": "error"
    },
    {
      "anonymous": false,
      "inputs": [
        {
          "indexed": false,
          "internalType": "address",
          "name": "dao",
          "type": "address"
        },
        {
          "indexed": false,
          "internalType": "uint256",
          "name": "amount",
          "type": "uint256"
        },
        {
          "indexed": false,
          "internalType": "address",
          "name": "executor",
          "type": "address"
        }
      ],
      "name": "ClearFund",
      "type": "event"
    },
    {
      "anonymous": false,
      "inputs": [
        {
          "indexed": false,
          "internalType": "address",
          "name": "daoAddress",
          "type": "address"
        },
        {
          "indexed": false,
          "internalType": "uint256",
          "name": "amount",
          "type": "uint256"
        },
        {
          "indexed": false,
          "internalType": "address",
          "name": "account",
          "type": "address"
        }
      ],
      "name": "Deposit",
      "type": "event"
    },
    {
      "anonymous": false,
      "inputs": [
        {
          "indexed": false,
          "internalType": "address",
          "name": "oldOwner",
          "type": "address"
        },
        {
          "indexed": false,
          "internalType": "address",
          "name": "newOwner",
          "type": "address"
        }
      ],
      "name": "OwnerChanged",
      "type": "event"
    },
    {
      "anonymous": false,
      "inputs": [
        {
          "indexed": false,
          "internalType": "address",
          "name": "dao",
          "type": "address"
        },
        {
          "indexed": false,
          "internalType": "uint256",
          "name": "fundRound",
          "type": "uint256"
        },
        {
          "indexed": false,
          "internalType": "uint256",
          "name": "fundRaiseState",
          "type": "uint256"
        },
        {
          "indexed": false,
          "internalType": "uint256",
          "name": "fundRaisedAmount",
          "type": "uint256"
        }
      ],
      "name": "ProcessFundRaise",
      "type": "event"
    },
    {
      "anonymous": false,
      "inputs": [
        {
          "indexed": false,
          "internalType": "address",
          "name": "dao",
          "type": "address"
        },
        {
          "indexed": false,
          "internalType": "address",
          "name": "account",
          "type": "address"
        },
        {
          "indexed": false,
          "internalType": "uint256",
          "name": "redempAmount",
          "type": "uint256"
        },
        {
          "indexed": false,
          "internalType": "uint256",
          "name": "redemptionFee",
          "type": "uint256"
        }
      ],
      "name": "RedeptionFeeCharged",
      "type": "event"
    },
    {
      "anonymous": false,
      "inputs": [
        {
          "indexed": false,
          "internalType": "address",
          "name": "daoAddress",
          "type": "address"
        },
        {
          "indexed": false,
          "internalType": "uint256",
          "name": "amount",
          "type": "uint256"
        },
        {
          "indexed": false,
          "internalType": "address",
          "name": "account",
          "type": "address"
        }
      ],
      "name": "WithDraw",
      "type": "event"
    },
    {
      "inputs": [
        {
          "internalType": "contract DaoRegistry",
          "name": "dao",
          "type": "address"
        },
        {
          "internalType": "address",
          "name": "investorAddr",
          "type": "address"
        }
      ],
      "name": "balanceOf",
      "outputs": [
        {
          "internalType": "uint256",
          "name": "",
          "type": "uint256"
        }
      ],
      "stateMutability": "view",
      "type": "function"
    },
    {
      "inputs": [
        {
          "internalType": "contract DaoRegistry",
          "name": "dao",
          "type": "address"
        }
      ],
      "name": "clearFund",
      "outputs": [],
      "stateMutability": "nonpayable",
      "type": "function"
    },
    {
      "inputs": [
        {
          "internalType": "contract DaoRegistry",
          "name": "dao",
          "type": "address"
        },
        {
          "internalType": "uint32",
          "name": "quorum",
          "type": "uint32"
        },
        {
          "internalType": "uint32",
          "name": "superMajority",
          "type": "uint32"
        }
      ],
      "name": "configureDao",
      "outputs": [],
      "stateMutability": "nonpayable",
      "type": "function"
    },
    {
      "inputs": [
        {
          "internalType": "address",
          "name": "",
          "type": "address"
        }
      ],
      "name": "daoFundRaisingStates",
      "outputs": [
        {
          "internalType": "enum DaoHelper.FundRaiseState",
          "name": "",
          "type": "uint8"
        }
      ],
      "stateMutability": "view",
      "type": "function"
    },
    {
      "inputs": [
        {
          "internalType": "contract DaoRegistry",
          "name": "dao",
          "type": "address"
        },
        {
          "internalType": "uint256",
          "name": "amount",
          "type": "uint256"
        }
      ],
      "name": "deposit",
      "outputs": [],
      "stateMutability": "nonpayable",
      "type": "function"
    },
    {
      "inputs": [
        {
          "internalType": "address",
          "name": "",
          "type": "address"
        },
        {
          "internalType": "bytes32",
          "name": "",
          "type": "bytes32"
        }
      ],
      "name": "freeINPriorityDeposits",
      "outputs": [
        {
          "internalType": "uint256",
          "name": "",
          "type": "uint256"
        }
      ],
      "stateMutability": "view",
      "type": "function"
    },
    {
      "inputs": [
        {
          "internalType": "contract DaoRegistry",
          "name": "dao",
          "type": "address"
        },
        {
          "internalType": "uint256",
          "name": "fundRound",
          "type": "uint256"
        }
      ],
      "name": "getFundInvestors",
      "outputs": [
        {
          "internalType": "address[]",
          "name": "",
          "type": "address[]"
        }
      ],
      "stateMutability": "view",
      "type": "function"
    },
    {
      "inputs": [
        {
          "internalType": "contract DaoRegistry",
          "name": "dao",
          "type": "address"
        }
      ],
      "name": "getInvestorMembershipWhiteList",
      "outputs": [
        {
          "internalType": "address[]",
          "name": "",
          "type": "address[]"
        }
      ],
      "stateMutability": "view",
      "type": "function"
    },
    {
      "inputs": [
        {
          "internalType": "contract DaoRegistry",
          "name": "dao",
          "type": "address"
        },
        {
          "internalType": "uint256",
          "name": "timeStamp",
          "type": "uint256"
        }
      ],
      "name": "ifInRedemptionPeriod",
      "outputs": [
        {
          "internalType": "bool",
          "name": "",
          "type": "bool"
        }
      ],
      "stateMutability": "view",
      "type": "function"
    },
    {
      "inputs": [
        {
          "internalType": "contract DaoRegistry",
          "name": "dao",
          "type": "address"
        },
        {
          "internalType": "address",
          "name": "account",
          "type": "address"
        }
      ],
      "name": "ifInvestorMembershipWhiteList",
      "outputs": [
        {
          "internalType": "bool",
          "name": "",
          "type": "bool"
        }
      ],
      "stateMutability": "view",
      "type": "function"
    },
    {
      "inputs": [
        {
          "internalType": "contract DaoRegistry",
          "name": "dao",
          "type": "address"
        },
        {
          "internalType": "address",
          "name": "_addr",
          "type": "address"
        }
      ],
      "name": "isActiveMember",
      "outputs": [
        {
          "internalType": "bool",
          "name": "",
          "type": "bool"
        }
      ],
      "stateMutability": "view",
      "type": "function"
    },
    {
      "inputs": [
        {
          "internalType": "contract DaoRegistry",
          "name": "dao",
          "type": "address"
        }
      ],
      "name": "poolBalance",
      "outputs": [
        {
          "internalType": "uint256",
          "name": "",
          "type": "uint256"
        }
      ],
      "stateMutability": "view",
      "type": "function"
    },
    {
      "inputs": [
        {
          "internalType": "contract DaoRegistry",
          "name": "dao",
          "type": "address"
        }
      ],
      "name": "processFundRaise",
      "outputs": [
        {
          "internalType": "bool",
          "name": "",
          "type": "bool"
        }
      ],
      "stateMutability": "nonpayable",
      "type": "function"
    },
    {
      "inputs": [],
      "name": "protocolFee",
      "outputs": [
        {
          "internalType": "uint256",
          "name": "",
          "type": "uint256"
        }
      ],
      "stateMutability": "view",
      "type": "function"
    },
    {
      "inputs": [
        {
          "internalType": "contract DaoRegistry",
          "name": "dao",
          "type": "address"
        }
      ],
      "name": "raiserBalance",
      "outputs": [
        {
          "internalType": "uint256",
          "name": "",
          "type": "uint256"
        }
      ],
      "stateMutability": "view",
      "type": "function"
    },
    {
      "inputs": [
        {
          "internalType": "contract DaoRegistry",
          "name": "dao",
          "type": "address"
        },
        {
          "internalType": "address",
          "name": "account",
          "type": "address"
        }
      ],
      "name": "registerInvestorWhiteList",
      "outputs": [],
      "stateMutability": "nonpayable",
      "type": "function"
    },
    {
      "inputs": [
        {
          "internalType": "contract DaoRegistry",
          "name": "dao",
          "type": "address"
        }
      ],
      "name": "resetFundRaiseState",
      "outputs": [],
      "stateMutability": "nonpayable",
      "type": "function"
    },
    {
      "inputs": [
        {
          "internalType": "contract DaoRegistry",
          "name": "dao",
          "type": "address"
        },
        {
          "internalType": "uint256",
          "name": "feeProtocol",
          "type": "uint256"
        }
      ],
      "name": "setProtocolFee",
      "outputs": [],
      "stateMutability": "nonpayable",
      "type": "function"
    },
    {
      "inputs": [
        {
          "internalType": "contract DaoRegistry",
          "name": "dao",
          "type": "address"
        },
        {
          "internalType": "uint256",
          "name": "amount",
          "type": "uint256"
        }
      ],
      "name": "withdraw",
      "outputs": [],
      "stateMutability": "nonpayable",
      "type": "function"
    }
  ],
  "bytecode": "0x6080604052660aa87bee53800060015534801561001b57600080fd5b50615af3806200002c6000396000f3fe608060405234801561001057600080fd5b50600436106101515760003560e01c8063861f6752116100cd578063b5b3ca2c11610081578063f10e6b6b11610066578063f10e6b6b146102e7578063f3fef3a3146102fa578063f7888aec1461030d57600080fd5b8063b5b3ca2c146102c1578063e8bf5d31146102d457600080fd5b806396609c42116100b257806396609c4214610292578063ac7e7eba146102a5578063b0e21e8a146102b857600080fd5b8063861f6752146102545780638ecf77201461027f57600080fd5b80633e1d6ed81161012457806368395f3f1161010957806368395f3f1461020d57806368abb5e01461022057806383cffffe1461024157600080fd5b80633e1d6ed8146101e757806347e7ef24146101fa57600080fd5b8063075724cf146101565780631d729e611461016b5780631ee1a2b0146101945780633a844ec0146101c4575b600080fd5b6101696101643660046158f5565b610320565b005b61017e610179366004615724565b610418565b60405161018b9190615958565b60405180910390f35b6101b76101a2366004615724565b60006020819052908152604090205460ff1681565b60405161018b91906159a5565b6101d76101d23660046158e3565b610442565b604051901515815260200161018b565b61017e6101f53660046158e3565b610793565b6101696102083660046158e3565b6107c9565b6101d761021b3660046158ab565b611e96565b61023361022e366004615724565b611eb8565b60405190815260200161018b565b61016961024f366004615724565b611fd1565b61023361026236600461575c565b600460209081526000928352604080842090915290825290205481565b6101d761028d3660046158ab565b6129d8565b6101d76102a0366004615724565b612a6e565b6101696102b33660046158ab565b612e10565b61023360015481565b6101696102cf3660046158e3565b612e63565b6102336102e2366004615724565b61301e565b6101696102f5366004615724565b6130eb565b6101696103083660046158e3565b61322c565b61023361031b3660046158ab565b613ec3565b6040517f68c18beb00000000000000000000000000000000000000000000000000000000815233600482015283906001600160a01b038216906368c18beb9060240160206040518083038186803b15801561037a57600080fd5b505afa15801561038e573d6000803e3d6000fd5b505050506040513d601f19601f820116820180604052508101906103b2919061584e565b806103c157506103c181613fe4565b6104125760405162461bcd60e51b815260206004820152600b60248201527f6f6e6c794164617074657200000000000000000000000000000000000000000060448201526064015b60405180910390fd5b50505050565b6001600160a01b038116600090815260026020526040902060609061043c9061421d565b92915050565b604051634941d71d60e11b81527fd99dae5492aa0c08830764a319f29225cc739a0ed8683d8fd1b5bc3a8fe31672600482015260009081906001600160a01b03851690639283ae3a9060240160206040518083038186803b1580156104a657600080fd5b505afa1580156104ba573d6000803e3d6000fd5b505050506040513d601f19601f820116820180604052508101906104de9190615893565b604051634941d71d60e11b81527f9ce69cf04065e3c7823cc5540c0598d8a694bd7a9a5a2a786d8bccf14ed6e2ea60048201529091506000906001600160a01b03861690639283ae3a9060240160206040518083038186803b15801561054357600080fd5b505afa158015610557573d6000803e3d6000fd5b505050506040513d601f19601f8201168201806040525081019061057b9190615893565b604051634941d71d60e11b81527f6a2acfe6164f3ec20e6d80e2f4e4f7ae2b9962615c9596c872d01f6cd244aed360048201529091506000906001600160a01b03871690639283ae3a9060240160206040518083038186803b1580156105e057600080fd5b505afa1580156105f4573d6000803e3d6000fd5b505050506040513d601f19601f820116820180604052508101906106189190615893565b604051634941d71d60e11b81527f2305fa3a9f84625f75d70f539e621c658cf49e7477ab5af9cacd278ca7904e3060048201529091506000906001600160a01b03881690639283ae3a9060240160206040518083038186803b15801561067d57600080fd5b505afa158015610691573d6000803e3d6000fd5b505050506040513d601f19601f820116820180604052508101906106b59190615893565b905060006106c38585615a42565b90508215806106d0575081155b806106d9575080155b156106ec5760009550505050505061043c565b60006106f883836159e5565b905060008060005b83811161078157821561071c5761071786846159cd565b610726565b610726868a6159cd565b92506107328784615a42565b9150818b1180156107425750828b105b801561074d5750888b115b80156107585750878b105b1561076f576001995050505050505050505061043c565b61077a6001826159cd565b9050610700565b5060009b9a5050505050505050505050565b6001600160a01b038216600090815260036020908152604080832084845290915290206060906107c29061421d565b9392505050565b8160006107d58261422a565b604051634941d71d60e11b81527f1405d0156cf64c805704fdf6691baebfcfa0d409ea827c231693ff0581b0b7776004820152909150849033906001600160a01b03831690639283ae3a9060240160206040518083038186803b15801561083b57600080fd5b505afa15801561084f573d6000803e3d6000fd5b505050506040513d601f19601f820116820180604052508101906108739190615893565b60011415610e9b57604051634941d71d60e11b81527f80140cd7e0b1d935bee578a67a41547c82987de8e7d6b3827d411b738110258b60048201526000906001600160a01b03841690639283ae3a9060240160206040518083038186803b1580156108dd57600080fd5b505afa1580156108f1573d6000803e3d6000fd5b505050506040513d601f19601f820116820180604052508101906109159190615893565b6040517ffd310d290000000000000000000000000000000000000000000000000000000081527fe373ab56628c86db3f0e36774c2c5e0393f9272ff5c976bc3f0db2db60cdbc1460048201529091506000906001600160a01b0385169063fd310d299060240160206040518083038186803b15801561099357600080fd5b505afa1580156109a7573d6000803e3d6000fd5b505050506040513d601f19601f820116820180604052508101906109cb9190615740565b604051634941d71d60e11b81527f04ecaf460eb9f82aeb70035e3f24c18a3650fa0da9ddbe7e63d70de659b9b90160048201529091506000906001600160a01b03861690639283ae3a9060240160206040518083038186803b158015610a3057600080fd5b505afa158015610a44573d6000803e3d6000fd5b505050506040513d601f19601f82011682018060405250810190610a689190615893565b604051634941d71d60e11b81527f6cb5bc3796b0717ca4ff665886c96fb0178d6341366eb7b6c737fe79083b836a60048201529091506000906001600160a01b03871690639283ae3a9060240160206040518083038186803b158015610acd57600080fd5b505afa158015610ae1573d6000803e3d6000fd5b505050506040513d601f19601f82011682018060405250810190610b059190615893565b905083610c01576040516370a0823160e01b81526001600160a01b0386811660048301528391908516906370a082319060240160206040518083038186803b158015610b5057600080fd5b505afa158015610b64573d6000803e3d6000fd5b505050506040513d601f19601f82011682018060405250810190610b889190615893565b1015610bfc5760405162461bcd60e51b815260206004820152603d60248201527f56696e74616765204465706f7369743a3a646f6e74206d656574206d696e206560448201527f7263323020746f6b656e20686f6c64696e67207265717569726d656e740000006064820152608401610409565b610e96565b8360011415610cfa576040516370a0823160e01b81526001600160a01b0386811660048301528391908516906370a082319060240160206040518083038186803b158015610c4e57600080fd5b505afa158015610c62573d6000803e3d6000fd5b505050506040513d601f19601f82011682018060405250810190610c869190615893565b1015610bfc5760405162461bcd60e51b815260206004820152603d60248201527f56696e74616765204465706f7369743a646f6e74206d656574206d696e20657260448201527f6337323120746f6b656e20686f6c64696e67207265717569726d656e740000006064820152608401610409565b8360021415610e11576040517efdd58e0000000000000000000000000000000000000000000000000000000081526001600160a01b0386811660048301526024820183905283919085169062fdd58e9060440160206040518083038186803b158015610d6557600080fd5b505afa158015610d79573d6000803e3d6000fd5b505050506040513d601f19601f82011682018060405250810190610d9d9190615893565b1015610bfc5760405162461bcd60e51b815260206004820152603e60248201527f56696e74616765204465706f7369743a646f6e74206d656574206d696e20657260448201527f633131353520746f6b656e20686f6c64696e67207265717569726d656e7400006064820152608401610409565b8360031415610e9657610e248686611e96565b610bfc5760405162461bcd60e51b815260206004820152602260248201527f56696e74616765204465706f7369743a3a206e6f7420696e2077686974656c6960448201527f73740000000000000000000000000000000000000000000000000000000000006064820152608401610409565b505050505b60008511610eeb5760405162461bcd60e51b815260206004820152600760248201527f21616d6f756e74000000000000000000000000000000000000000000000000006044820152606401610409565b610f366040518060c0016040528060008152602001600081526020016000815260200160006001600160a01b0316815260200160006001600160a01b03168152602001600081525090565b604051634941d71d60e11b81527f5fa39c8100b49336846e52d39403e353bf782275f905a885f09224779ff1c92460048201526001600160a01b03881690639283ae3a9060240160206040518083038186803b158015610f9557600080fd5b505afa158015610fa9573d6000803e3d6000fd5b505050506040513d601f19601f82011682018060405250810190610fcd9190615893565b8152604051634941d71d60e11b81527fbdd40865e74210f0a46799ae63462c62010da92014a08cbc32f1d049d0a22c6b60048201526001600160a01b03881690639283ae3a9060240160206040518083038186803b15801561102e57600080fd5b505afa158015611042573d6000803e3d6000fd5b505050506040513d601f19601f820116820180604052508101906110669190615893565b6020820152604051634941d71d60e11b81527f7e07fb4530796d057ca1d76d83f47aa8629dbb7e942ac28f30ad6f5e9e8d418960048201526001600160a01b03881690639283ae3a9060240160206040518083038186803b1580156110ca57600080fd5b505afa1580156110de573d6000803e3d6000fd5b505050506040513d601f19601f820116820180604052508101906111029190615893565b60408201526020810151156111655780602001518610156111655760405162461bcd60e51b815260206004820152601460248201527f3c206d696e206465706f73697420616d6f756e740000000000000000000000006044820152606401610409565b8051156111d05780516111788833613ec3565b61118290886159cd565b11156111d05760405162461bcd60e51b815260206004820152601460248201527f3e206d6178206465706f73697420616d6f756e740000000000000000000000006044820152606401610409565b604051634941d71d60e11b81527fbd04d44792b7dbfe3b50b0f9f2006f7ef449e374a39021cb9bfa7cd0bdd850d7600482015242906001600160a01b03891690639283ae3a9060240160206040518083038186803b15801561123157600080fd5b505afa158015611245573d6000803e3d6000fd5b505050506040513d601f19601f820116820180604052508101906112699190615893565b10801561130c5750604051634941d71d60e11b81527f533afc15b6312917b5e28e2272ea69d44e5ea8e00d3bd57cada1275c2f14c9e8600482015242906001600160a01b03891690639283ae3a9060240160206040518083038186803b1580156112d257600080fd5b505afa1580156112e6573d6000803e3d6000fd5b505050506040513d601f19601f8201168201806040525081019061130a9190615893565b115b6113585760405162461bcd60e51b815260206004820152601360248201527f2166756e6472616973696e672077696e646f77000000000000000000000000006044820152606401610409565b604051634941d71d60e11b81527fbe07eea886ce63e8ab49ef6fd986e9dea247fbb31da43dd1df3e153cc548277a60048201526001600160a01b03881690639283ae3a9060240160206040518083038186803b1580156113b757600080fd5b505afa1580156113cb573d6000803e3d6000fd5b505050506040513d601f19601f820116820180604052508101906113ef9190615893565b158015611400575060008160400151115b1561146c5780604001518661141489611eb8565b61141e91906159cd565b111561146c5760405162461bcd60e51b815260206004820152601660248201527f3e2046756e647261697365206d617820616d6f756e74000000000000000000006044820152606401610409565b604051632c9f4b5b60e11b81527f161fca6912f107b0f13c9c7275de7391b32d2ea1c52ffba65a3c961880a0c60f60048201526001600160a01b0388169063593e96b69060240160206040518083038186803b1580156114cb57600080fd5b505afa1580156114df573d6000803e3d6000fd5b505050506040513d601f19601f820116820180604052508101906115039190615740565b6001600160a01b0390811660608301526040516317ba7d8560e01b81527fa837e34a29b67bf52f684a1c93def79b84b9c012732becee4e5df62809df64ed6004820152908816906317ba7d859060240160206040518083038186803b15801561156b57600080fd5b505afa15801561157f573d6000803e3d6000fd5b505050506040513d601f19601f820116820180604052508101906115a39190615740565b6001600160a01b0390811660808301819052604051634fc0a76d60e01b8152918916600483015290634fc0a76d9060240160206040518083038186803b1580156115ec57600080fd5b505afa158015611600573d6000803e3d6000fd5b505050506040513d601f19601f820116820180604052508101906116249190615893565b60a0820152604051634941d71d60e11b81527f0a71373d28d4b40b0bb46f8d58468f2e51292d10cf26715a0e3d8624b60c8a4260048201526001600160a01b03881690639283ae3a9060240160206040518083038186803b15801561168857600080fd5b505afa15801561169c573d6000803e3d6000fd5b505050506040513d601f19601f820116820180604052508101906116c09190615893565b60011480156117945750604051634941d71d60e11b81527faf0b46df030af159303b75690e740674df8434270d3b7248b0280f3d63a2dd8b60048201526001600160a01b03881690639283ae3a9060240160206040518083038186803b15801561172957600080fd5b505afa15801561173d573d6000803e3d6000fd5b505050506040513d601f19601f820116820180604052508101906117619190615893565b6001600160a01b038816600090815260036020908152604080832060a086015184529091529020611791906144f5565b10155b80156117ce57506001600160a01b038716600090815260036020908152604080832060a0850151845290915290206117cc90336144ff565b155b15611805576040517ffa088e8a00000000000000000000000000000000000000000000000000000000815260040160405180910390fd5b600081606001516001600160a01b031663a87af66c6040518163ffffffff1660e01b815260040160206040518083038186803b15801561184457600080fd5b505afa158015611858573d6000803e3d6000fd5b505050506040513d601f19601f8201168201806040525081019061187c9190615740565b6040516370a0823160e01b815233600482015290915087906001600160a01b038316906370a082319060240160206040518083038186803b1580156118c057600080fd5b505afa1580156118d4573d6000803e3d6000fd5b505050506040513d601f19601f820116820180604052508101906118f89190615893565b10156119465760405162461bcd60e51b815260206004820152600560248201527f2166756e640000000000000000000000000000000000000000000000000000006044820152606401610409565b6040517fdd62ed3e00000000000000000000000000000000000000000000000000000000815233600482015230602482015287906001600160a01b0383169063dd62ed3e9060440160206040518083038186803b1580156119a657600080fd5b505afa1580156119ba573d6000803e3d6000fd5b505050506040513d601f19601f820116820180604052508101906119de9190615893565b1015611a2c5760405162461bcd60e51b815260206004820152600a60248201527f21616c6c6f77616e6365000000000000000000000000000000000000000000006044820152606401610409565b6040517f23b872dd000000000000000000000000000000000000000000000000000000008152336004820152306024820152604481018890526001600160a01b038216906323b872dd90606401602060405180830381600087803b158015611a9357600080fd5b505af1158015611aa7573d6000803e3d6000fd5b505050506040513d601f19601f82011682018060405250810190611acb919061584e565b50604051632c9f4b5b60e11b81527f161fca6912f107b0f13c9c7275de7391b32d2ea1c52ffba65a3c961880a0c60f60048201526001600160a01b038083169163095ea7b3918b169063593e96b69060240160206040518083038186803b158015611b3557600080fd5b505afa158015611b49573d6000803e3d6000fd5b505050506040513d601f19601f82011682018060405250810190611b6d9190615740565b6040516001600160e01b031960e084901b1681526001600160a01b039091166004820152602481018a9052604401602060405180830381600087803b158015611bb557600080fd5b505af1158015611bc9573d6000803e3d6000fd5b505050506040513d601f19601f82011682018060405250810190611bed919061584e565b5060608201516040517fb08079a6000000000000000000000000000000000000000000000000000000008152336004820152602481018990526001600160a01b039091169063b08079a690604401600060405180830381600087803b158015611c5557600080fd5b505af1158015611c69573d6000803e3d6000fd5b50505050611c7c88338460a00151614521565b60808201516040516301c22a3d60e01b81526001600160a01b038a8116600483015290911690636d3cc040908a9083906301c22a3d9060240160206040518083038186803b158015611ccd57600080fd5b505afa158015611ce1573d6000803e3d6000fd5b505050506040513d601f19601f82011682018060405250810190611d059190615893565b6040516001600160e01b031960e085901b1681526001600160a01b039092166004830152602482015233604482015260640160206040518083038186803b158015611d4f57600080fd5b505afa158015611d63573d6000803e3d6000fd5b505050506040513d601f19601f82011682018060405250810190611d87919061584e565b15611e40576001600160a01b038089166000818152600460208190526040808320608088015191516301c22a3d60e01b8152928301949094528b9416906301c22a3d9060240160206040518083038186803b158015611de557600080fd5b505afa158015611df9573d6000803e3d6000fd5b505050506040513d601f19601f82011682018060405250810190611e1d9190615893565b81526020019081526020016000206000828254611e3a91906159cd565b90915550505b604080516001600160a01b038a16815260208101899052338183015290517fe31c7b8d08ee7db0afa68782e1028ef92305caeea8626633ad44d413e30f6b2f9181900360600190a150505050610412828261457f565b6001600160a01b03821660009081526002602052604081206107c290836144ff565b604051632c9f4b5b60e11b81527f161fca6912f107b0f13c9c7275de7391b32d2ea1c52ffba65a3c961880a0c60f600482015260009081906001600160a01b0384169063593e96b69060240160206040518083038186803b158015611f1c57600080fd5b505afa158015611f30573d6000803e3d6000fd5b505050506040513d601f19601f82011682018060405250810190611f549190615740565b6040516370a0823160e01b815261decd60048201529091506001600160a01b038216906370a08231906024015b60206040518083038186803b158015611f9957600080fd5b505afa158015611fad573d6000803e3d6000fd5b505050506040513d601f19601f820116820180604052508101906107c29190615893565b806000611fdd8261422a565b905060036001600160a01b03841660009081526020819052604090205460ff16600381111561201c57634e487b7160e01b600052602160045260246000fd5b14801561215f5750604051634941d71d60e11b81527fb0d4178853a5320a41f8c55fa6d58af06637e392beff71e66dba4e8f32c39bb860048201526001600160a01b03841690639283ae3a9060240160206040518083038186803b15801561208357600080fd5b505afa158015612097573d6000803e3d6000fd5b505050506040513d601f19601f820116820180604052508101906120bb9190615893565b604051634941d71d60e11b81527f533afc15b6312917b5e28e2272ea69d44e5ea8e00d3bd57cada1275c2f14c9e860048201526001600160a01b03851690639283ae3a9060240160206040518083038186803b15801561211a57600080fd5b505afa15801561212e573d6000803e3d6000fd5b505050506040513d601f19601f820116820180604052508101906121529190615893565b61215c91906159cd565b42115b806122e5575060026001600160a01b03841660009081526020819052604090205460ff1660038111156121a257634e487b7160e01b600052602160045260246000fd5b1480156122e55750604051634941d71d60e11b81527fb0d4178853a5320a41f8c55fa6d58af06637e392beff71e66dba4e8f32c39bb860048201526001600160a01b03841690639283ae3a9060240160206040518083038186803b15801561220957600080fd5b505afa15801561221d573d6000803e3d6000fd5b505050506040513d601f19601f820116820180604052508101906122419190615893565b604051634941d71d60e11b81527f9ce69cf04065e3c7823cc5540c0598d8a694bd7a9a5a2a786d8bccf14ed6e2ea60048201526001600160a01b03851690639283ae3a9060240160206040518083038186803b1580156122a057600080fd5b505afa1580156122b4573d6000803e3d6000fd5b505050506040513d601f19601f820116820180604052508101906122d89190615893565b6122e291906159cd565b42115b6123575760405162461bcd60e51b815260206004820152603a60248201527f46756e64696e67506f6f6c416461707465723a3a636c65617246756e643a3a4360448201527f616e7420636c65617246756e6420617420746869732074696d650000000000006064820152608401610409565b604051632c9f4b5b60e11b81527f161fca6912f107b0f13c9c7275de7391b32d2ea1c52ffba65a3c961880a0c60f60048201526000906001600160a01b0385169063593e96b69060240160206040518083038186803b1580156123b957600080fd5b505afa1580156123cd573d6000803e3d6000fd5b505050506040513d601f19601f820116820180604052508101906123f19190615740565b90506000816001600160a01b031663a87af66c6040518163ffffffff1660e01b815260040160206040518083038186803b15801561242e57600080fd5b505afa158015612442573d6000803e3d6000fd5b505050506040513d601f19601f820116820180604052508101906124669190615740565b90506000826001600160a01b031663b2f5a54c6040518163ffffffff1660e01b815260040160006040518083038186803b1580156124a357600080fd5b505afa1580156124b7573d6000803e3d6000fd5b505050506040513d6000823e601f3d908101601f191682016040526124df9190810190615787565b6040516317ba7d8560e01b81527fa837e34a29b67bf52f684a1c93def79b84b9c012732becee4e5df62809df64ed60048201529091506000906001600160a01b038816906317ba7d859060240160206040518083038186803b15801561254457600080fd5b505afa158015612558573d6000803e3d6000fd5b505050506040513d601f19601f8201168201806040525081019061257c9190615740565b604051634fc0a76d60e01b81526001600160a01b038981166004830152919250600091831690634fc0a76d9060240160206040518083038186803b1580156125c357600080fd5b505afa1580156125d7573d6000803e3d6000fd5b505050506040513d601f19601f820116820180604052508101906125fb9190615893565b8351909150156129c4576000805b84518160ff16101561297957600061264b8b878460ff168151811061263e57634e487b7160e01b600052603260045260246000fd5b6020026020010151613ec3565b90508015612966576040516317ba7d8560e01b81527ff03649ccf5cbda635d0464f73bc807b602819fde8d2e1387f87b988bb0e858a360048201526000906001600160a01b038d16906317ba7d859060240160206040518083038186803b1580156126b557600080fd5b505afa1580156126c9573d6000803e3d6000fd5b505050506040513d601f19601f820116820180604052508101906126ed9190615740565b9050806001600160a01b03166365017e838d878b8b8860ff168151811061272457634e487b7160e01b600052603260045260246000fd5b60209081029190910101516040516001600160e01b031960e087901b1681526001600160a01b039485166004820152602481019390935290831660448301529190911660648201526084810185905260a401600060405180830381600087803b15801561279057600080fd5b505af11580156127a4573d6000803e3d6000fd5b50506040516317ba7d8560e01b81527ff03649ccf5cbda635d0464f73bc807b602819fde8d2e1387f87b988bb0e858a360048201526001600160a01b03808d16935063e176b35e92508f16906317ba7d859060240160206040518083038186803b15801561281157600080fd5b505afa158015612825573d6000803e3d6000fd5b505050506040513d601f19601f820116820180604052508101906128499190615740565b6040516001600160e01b031960e084901b1681526001600160a01b039182166004820152908b16602482015260448101859052606401600060405180830381600087803b15801561289957600080fd5b505af11580156128ad573d6000803e3d6000fd5b50505050886001600160a01b031663e3a05cc1888560ff16815181106128e357634e487b7160e01b600052603260045260246000fd5b60209081029190910101516040516001600160e01b031960e084901b1681526001600160a01b039182166004820152908b16602482015260448101859052606401600060405180830381600087803b15801561293e57600080fd5b505af1158015612952573d6000803e3d6000fd5b50505050818461296291906159cd565b9350505b508061297181615a59565b915050612609565b50604080516001600160a01b038b16815260208101839052338183015290517f12d0dcfe23709357491021067eb05d73fa0b1f1aeb69310c2071218e089f057f9181900360600190a1505b50505050506129d3828261457f565b505050565b6040517fa230c5240000000000000000000000000000000000000000000000000000000081526001600160a01b0382811660048301526000919084169063a230c5249060240160206040518083038186803b158015612a3657600080fd5b505afa158015612a4a573d6000803e3d6000fd5b505050506040513d601f19601f820116820180604052508101906107c2919061584e565b604051634941d71d60e11b81527f31af571e53636dddd77f772cce9d30b42075760f2da731636acc6962da2fbef8600482015260009081906001600160a01b03841690639283ae3a9060240160206040518083038186803b158015612ad257600080fd5b505afa158015612ae6573d6000803e3d6000fd5b505050506040513d601f19601f82011682018060405250810190612b0a9190615893565b604051634941d71d60e11b81527f533afc15b6312917b5e28e2272ea69d44e5ea8e00d3bd57cada1275c2f14c9e860048201529091506000906001600160a01b03851690639283ae3a9060240160206040518083038186803b158015612b6f57600080fd5b505afa158015612b83573d6000803e3d6000fd5b505050506040513d601f19601f82011682018060405250810190612ba79190615893565b90508042118015612bf2575060016001600160a01b03851660009081526020819052604090205460ff166003811115612bf057634e487b7160e01b600052602160045260246000fd5b145b15612e095781612c0185611eb8565b10612c37576001600160a01b0384166000908152602081905260409020805460ff19166002179055612c328461458e565b612c5b565b6001600160a01b0384166000908152602081905260409020805460ff191660031790555b6040516317ba7d8560e01b81527fa837e34a29b67bf52f684a1c93def79b84b9c012732becee4e5df62809df64ed60048201526000906001600160a01b038616906317ba7d859060240160206040518083038186803b158015612cbd57600080fd5b505afa158015612cd1573d6000803e3d6000fd5b505050506040513d601f19601f82011682018060405250810190612cf59190615740565b604051634fc0a76d60e01b81526001600160a01b0380881660048301529192507f5fd2225800b4a1978ad764ee103db4fc09f1f8db734ab768112047634fb868c291879190841690634fc0a76d9060240160206040518083038186803b158015612d5e57600080fd5b505afa158015612d72573d6000803e3d6000fd5b505050506040513d601f19601f82011682018060405250810190612d969190615893565b6001600160a01b03881660009081526020819052604090205460ff166003811115612dd157634e487b7160e01b600052602160045260246000fd5b612dda89611eb8565b604080516001600160a01b039095168552602085019390935291830152606082015260800160405180910390a1505b5050919050565b81612e1b81336152c4565b6001600160a01b0383166000908152600260205260409020612e3d90836144ff565b6129d3576001600160a01b0383166000908152600260205260409020610412908361531a565b8143816001600160a01b031663b21634826040518163ffffffff1660e01b815260040160206040518083038186803b158015612e9e57600080fd5b505afa158015612eb2573d6000803e3d6000fd5b505050506040513d601f19601f82011682018060405250810190612ed69190615893565b1415612f245760405162461bcd60e51b815260206004820152601060248201527f7265656e7472616e6379206775617264000000000000000000000000000000006044820152606401610409565b806001600160a01b03166310fdb0a26040518163ffffffff1660e01b8152600401600060405180830381600087803b158015612f5f57600080fd5b505af1158015612f73573d6000803e3d6000fd5b5050505082612f818161532f565b6001600160a01b0316336001600160a01b031614612f9e57600080fd5b670de0b6b3a764000083108015612fb55750600083115b612fbe57600080fd5b8260018190555050806001600160a01b031663d4f7af436040518163ffffffff1660e01b8152600401600060405180830381600087803b15801561300157600080fd5b505af1158015613015573d6000803e3d6000fd5b50505050505050565b604051632c9f4b5b60e11b81527f161fca6912f107b0f13c9c7275de7391b32d2ea1c52ffba65a3c961880a0c60f600482015260009081906001600160a01b0384169063593e96b69060240160206040518083038186803b15801561308257600080fd5b505afa158015613096573d6000803e3d6000fd5b505050506040513d601f19601f820116820180604052508101906130ba9190615740565b6040516370a0823160e01b815261111160048201529091506001600160a01b038216906370a0823190602401611f81565b6040516317ba7d8560e01b81527fa837e34a29b67bf52f684a1c93def79b84b9c012732becee4e5df62809df64ed60048201526001600160a01b038216906317ba7d859060240160206040518083038186803b15801561314a57600080fd5b505afa15801561315e573d6000803e3d6000fd5b505050506040513d601f19601f820116820180604052508101906131829190615740565b6001600160a01b0316336001600160a01b0316146132085760405162461bcd60e51b815260206004820152603460248201527f46756e64696e67506f6f6c416461707465723a3a726573657446756e6452616960448201527f736553746174653a3a4163636573732064656e790000000000000000000000006064820152608401610409565b6001600160a01b03166000908152602081905260409020805460ff19166001179055565b8160006132388261422a565b905061324384612a6e565b5060016001600160a01b03851660009081526020819052604090205460ff16600381111561328157634e487b7160e01b600052602160045260246000fd5b1480156133235750604051634941d71d60e11b81527f533afc15b6312917b5e28e2272ea69d44e5ea8e00d3bd57cada1275c2f14c9e860048201526001600160a01b03851690639283ae3a9060240160206040518083038186803b1580156132e857600080fd5b505afa1580156132fc573d6000803e3d6000fd5b505050506040513d601f19601f820116820180604052508101906133209190615893565b42105b80156133c45750604051634941d71d60e11b81527fbd04d44792b7dbfe3b50b0f9f2006f7ef449e374a39021cb9bfa7cd0bdd850d760048201526001600160a01b03851690639283ae3a9060240160206040518083038186803b15801561338957600080fd5b505afa15801561339d573d6000803e3d6000fd5b505050506040513d601f19601f820116820180604052508101906133c19190615893565b42115b80613409575060036001600160a01b03851660009081526020819052604090205460ff16600381111561340757634e487b7160e01b600052602160045260246000fd5b145b8061345e575060026001600160a01b03851660009081526020819052604090205460ff16600381111561344c57634e487b7160e01b600052602160045260246000fd5b14801561345e575061345e8442610442565b80613543575060026001600160a01b03851660009081526020819052604090205460ff1660038111156134a157634e487b7160e01b600052602160045260246000fd5b1480156135435750604051634941d71d60e11b81527f9ce69cf04065e3c7823cc5540c0598d8a694bd7a9a5a2a786d8bccf14ed6e2ea60048201526001600160a01b03851690639283ae3a9060240160206040518083038186803b15801561350857600080fd5b505afa15801561351c573d6000803e3d6000fd5b505050506040513d601f19601f820116820180604052508101906135409190615893565b42115b61358f5760405162461bcd60e51b815260206004820152600960248201527f21776974686472617700000000000000000000000000000000000000000000006044820152606401610409565b604051632c9f4b5b60e11b81527f161fca6912f107b0f13c9c7275de7391b32d2ea1c52ffba65a3c961880a0c60f60048201526000906001600160a01b0386169063593e96b69060240160206040518083038186803b1580156135f157600080fd5b505afa158015613605573d6000803e3d6000fd5b505050506040513d601f19601f820116820180604052508101906136299190615740565b90506000816001600160a01b031663a87af66c6040518163ffffffff1660e01b815260040160206040518083038186803b15801561366657600080fd5b505afa15801561367a573d6000803e3d6000fd5b505050506040513d601f19601f8201168201806040525081019061369e9190615740565b905060006136ac8733613ec3565b9050600086116136fe5760405162461bcd60e51b815260206004820152600760248201527f21616d6f756e74000000000000000000000000000000000000000000000000006044820152606401610409565b8086111561374e5760405162461bcd60e51b815260206004820152600860248201527f3e62616c616e63650000000000000000000000000000000000000000000000006044820152606401610409565b600060026001600160a01b03891660009081526020819052604090205460ff16600381111561378d57634e487b7160e01b600052602160045260246000fd5b14801561379f575061379f8842610442565b156139d257604051634941d71d60e11b81527f3e453820e0fc9cb9a1e799559661cf9c1db4cc7d7fbcb7e0fdaf884cbe29c3566004820152670de0b6b3a76400009088906001600160a01b038b1690639283ae3a9060240160206040518083038186803b15801561380f57600080fd5b505afa158015613823573d6000803e3d6000fd5b505050506040513d601f19601f820116820180604052508101906138479190615893565b6138519190615a05565b61385b91906159e5565b6040517ffd310d290000000000000000000000000000000000000000000000000000000081527f5460409b9aa4688f80c10b29c3d7ad16025f050f472a6882a45fa7bb9bd12fb160048201529091506001600160a01b038086169163e176b35e918b169063fd310d299060240160206040518083038186803b1580156138e057600080fd5b505afa1580156138f4573d6000803e3d6000fd5b505050506040513d601f19601f820116820180604052508101906139189190615740565b6040516001600160e01b031960e084901b1681526001600160a01b039182166004820152908616602482015260448101849052606401600060405180830381600087803b15801561396857600080fd5b505af115801561397c573d6000803e3d6000fd5b5050604080516001600160a01b038c1681523360208201529081018a9052606081018490527f233193f33678454f0c1aa43ef4c404770a64e4a160b5614d929d896cc10ec1509250608001905060405180910390a15b6001600160a01b03841663f3fef3a3336139ec848b615a42565b6040516001600160e01b031960e085901b1681526001600160a01b0390921660048301526024820152604401600060405180830381600087803b158015613a3257600080fd5b505af1158015613a46573d6000803e3d6000fd5b50506040517fe3a05cc10000000000000000000000000000000000000000000000000000000081523360048201526001600160a01b038681166024830152604482018b90528716925063e3a05cc19150606401600060405180830381600087803b158015613ab357600080fd5b505af1158015613ac7573d6000803e3d6000fd5b50506040516317ba7d8560e01b81527fa837e34a29b67bf52f684a1c93def79b84b9c012732becee4e5df62809df64ed6004820152600092506001600160a01b038b1691506317ba7d859060240160206040518083038186803b158015613b2d57600080fd5b505afa158015613b41573d6000803e3d6000fd5b505050506040513d601f19601f82011682018060405250810190613b659190615740565b90506000613b738a33613ec3565b11613c0457604051634fc0a76d60e01b81526001600160a01b038a8116600483015260009190831690634fc0a76d9060240160206040518083038186803b158015613bbd57600080fd5b505afa158015613bd1573d6000803e3d6000fd5b505050506040513d601f19601f82011682018060405250810190613bf59190615893565b9050613c028a3383615412565b505b6040516301c22a3d60e01b81526001600160a01b038a81166004830152821690636d3cc040908b9083906301c22a3d9060240160206040518083038186803b158015613c4f57600080fd5b505afa158015613c63573d6000803e3d6000fd5b505050506040513d601f19601f82011682018060405250810190613c879190615893565b6040516001600160e01b031960e085901b1681526001600160a01b039092166004830152602482015233604482015260640160206040518083038186803b158015613cd157600080fd5b505afa158015613ce5573d6000803e3d6000fd5b505050506040513d601f19601f82011682018060405250810190613d09919061584e565b8015613daa5750604051634941d71d60e11b81527f533afc15b6312917b5e28e2272ea69d44e5ea8e00d3bd57cada1275c2f14c9e860048201526001600160a01b038a1690639283ae3a9060240160206040518083038186803b158015613d6f57600080fd5b505afa158015613d83573d6000803e3d6000fd5b505050506040513d601f19601f82011682018060405250810190613da79190615893565b42105b15613e5f576001600160a01b03808a16600081815260046020819052604080832090516301c22a3d60e01b8152918201939093528b938516906301c22a3d9060240160206040518083038186803b158015613e0457600080fd5b505afa158015613e18573d6000803e3d6000fd5b505050506040513d601f19601f82011682018060405250810190613e3c9190615893565b81526020019081526020016000206000828254613e599190615a42565b90915550505b7fd432fbc5f79eaeefd01acbebd76cf4b0d5f43d8372c2fd3e23761c06a60a75f189613e8b848b615a42565b604080516001600160a01b0390931683526020830191909152339082015260600160405180910390a15050505050610412828261457f565b604051632c9f4b5b60e11b81527f161fca6912f107b0f13c9c7275de7391b32d2ea1c52ffba65a3c961880a0c60f600482015260009081906001600160a01b0385169063593e96b69060240160206040518083038186803b158015613f2757600080fd5b505afa158015613f3b573d6000803e3d6000fd5b505050506040513d601f19601f82011682018060405250810190613f5f9190615740565b6040516370a0823160e01b81526001600160a01b038581166004830152919250908216906370a082319060240160206040518083038186803b158015613fa457600080fd5b505afa158015613fb8573d6000803e3d6000fd5b505050506040513d601f19601f82011682018060405250810190613fdc9190615893565b949350505050565b600080826001600160a01b031663c19d93fb6040518163ffffffff1660e01b815260040160206040518083038186803b15801561402057600080fd5b505afa158015614034573d6000803e3d6000fd5b505050506040513d601f19601f820116820180604052508101906140589190615939565b600181111561407757634e487b7160e01b600052602160045260246000fd5b14801561043c5750816001600160a01b031663c67143666040518163ffffffff1660e01b815260040160206040518083038186803b1580156140b857600080fd5b505afa1580156140cc573d6000803e3d6000fd5b505050506040513d601f19601f820116820180604052508101906140f09190615893565b158061418757506040517fa230c5240000000000000000000000000000000000000000000000000000000081523360048201526001600160a01b0383169063a230c5249060240160206040518083038186803b15801561414f57600080fd5b505afa158015614163573d6000803e3d6000fd5b505050506040513d601f19601f82011682018060405250810190614187919061584e565b8061043c57506040517f68c18beb0000000000000000000000000000000000000000000000000000000081523360048201526001600160a01b038316906368c18beb9060240160206040518083038186803b1580156141e557600080fd5b505afa1580156141f9573d6000803e3d6000fd5b505050506040513d601f19601f8201168201806040525081019061043c919061584e565b606060006107c28361543f565b6040805160808101825260008082526020820181905291810182905260608101919091525a81600001818152505043826001600160a01b031663b21634826040518163ffffffff1660e01b815260040160206040518083038186803b15801561429257600080fd5b505afa1580156142a6573d6000803e3d6000fd5b505050506040513d601f19601f820116820180604052508101906142ca9190615893565b14156143185760405162461bcd60e51b815260206004820152601060248201527f7265656e7472616e6379206775617264000000000000000000000000000000006044820152606401610409565b816001600160a01b03166310fdb0a26040518163ffffffff1660e01b8152600401600060405180830381600087803b15801561435357600080fd5b505af1158015614367573d6000803e3d6000fd5b50506040517f72c6838f0000000000000000000000000000000000000000000000000000000081527f1f2fd42ad6a6cacd573c4b212beb7a4e2499ad45d742a65337097f130e71daff6004820152600092506001600160a01b03851691506372c6838f9060240160206040518083038186803b1580156143e657600080fd5b505afa1580156143fa573d6000803e3d6000fd5b505050506040513d601f19601f8201168201806040525081019061441e9190615740565b90506001600160a01b03811661443a57600060208301526144ef565b6001600160a01b038181166060840181905283516040517f43a8a3f1000000000000000000000000000000000000000000000000000000008152928616600484015260248301526000918291906343a8a3f190604401604080518083038186803b1580156144a757600080fd5b505afa1580156144bb573d6000803e3d6000fd5b505050506040513d601f19601f820116820180604052508101906144df9190615868565b9015156020860152604085015250505b50919050565b600061043c825490565b6001600160a01b038116600090815260018301602052604081205415156107c2565b6001600160a01b0383166000908152600360209081526040808320848452909152902061454e90836144ff565b6129d3576001600160a01b03831660009081526003602090815260408083208484529091529020610412908361531a565b61458a82823361549b565b5050565b61460160405180610120016040528060006001600160a01b031681526020016000815260200160006001600160a01b0316815260200160006001600160a01b031681526020016000815260200160006001600160a01b031681526020016000815260200160008152602001600081525090565b604051634941d71d60e11b81527fbe07eea886ce63e8ab49ef6fd986e9dea247fbb31da43dd1df3e153cc548277a60048201526001600160a01b03831690639283ae3a9060240160206040518083038186803b15801561466057600080fd5b505afa158015614674573d6000803e3d6000fd5b505050506040513d601f19601f820116820180604052508101906146989190615893565b60011480156147445750604051634941d71d60e11b81527f7e07fb4530796d057ca1d76d83f47aa8629dbb7e942ac28f30ad6f5e9e8d418960048201526001600160a01b03831690639283ae3a9060240160206040518083038186803b15801561470157600080fd5b505afa158015614715573d6000803e3d6000fd5b505050506040513d601f19601f820116820180604052508101906147399190615893565b61474283611eb8565b115b1561458a57604051632c9f4b5b60e11b81527f161fca6912f107b0f13c9c7275de7391b32d2ea1c52ffba65a3c961880a0c60f60048201526001600160a01b0383169063593e96b69060240160206040518083038186803b1580156147a857600080fd5b505afa1580156147bc573d6000803e3d6000fd5b505050506040513d601f19601f820116820180604052508101906147e09190615740565b6001600160a01b0316808252604080517fb2f5a54c00000000000000000000000000000000000000000000000000000000815290516000929163b2f5a54c9160048083019286929190829003018186803b15801561483d57600080fd5b505afa158015614851573d6000803e3d6000fd5b505050506040513d6000823e601f3d908101601f191682016040526148799190810190615787565b9050600082602001818152505081600001516001600160a01b031663a87af66c6040518163ffffffff1660e01b815260040160206040518083038186803b1580156148c357600080fd5b505afa1580156148d7573d6000803e3d6000fd5b505050506040513d601f19601f820116820180604052508101906148fb9190615740565b6001600160a01b03908116604084810191909152516317ba7d8560e01b81527fa837e34a29b67bf52f684a1c93def79b84b9c012732becee4e5df62809df64ed6004820152908416906317ba7d859060240160206040518083038186803b15801561496557600080fd5b505afa158015614979573d6000803e3d6000fd5b505050506040513d601f19601f8201168201806040525081019061499d9190615740565b6001600160a01b0390811660608401819052604051634fc0a76d60e01b8152918516600483015290634fc0a76d9060240160206040518083038186803b1580156149e657600080fd5b505afa1580156149fa573d6000803e3d6000fd5b505050506040513d601f19601f82011682018060405250810190614a1e9190615893565b60808301526040516317ba7d8560e01b81527f6a687e96f72a484e38a32d2ee3b61626294e792821961a90ce9a98d1999252d560048201526001600160a01b038416906317ba7d859060240160206040518083038186803b158015614a8257600080fd5b505afa158015614a96573d6000803e3d6000fd5b505050506040513d601f19601f82011682018060405250810190614aba9190615740565b6001600160a01b0390811660a0840152604051634941d71d60e11b81527f7e07fb4530796d057ca1d76d83f47aa8629dbb7e942ac28f30ad6f5e9e8d4189600482015290841690639283ae3a9060240160206040518083038186803b158015614b2257600080fd5b505afa158015614b36573d6000803e3d6000fd5b505050506040513d601f19601f82011682018060405250810190614b5a9190615893565b60c08301526001600160a01b038381166000818152600460208190526040808320606088015191516301c22a3d60e01b81529283019490945292939192909116906301c22a3d9060240160206040518083038186803b158015614bbc57600080fd5b505afa158015614bd0573d6000803e3d6000fd5b505050506040513d601f19601f82011682018060405250810190614bf49190615893565b815260208101919091526040016000205460e0830152614c1383611eb8565b61010083015260005b81518160ff161015610412578260c001518360e0015110614e235760608301516040516301c22a3d60e01b81526001600160a01b03868116600483015290911690636d3cc04090869083906301c22a3d9060240160206040518083038186803b158015614c8857600080fd5b505afa158015614c9c573d6000803e3d6000fd5b505050506040513d601f19601f82011682018060405250810190614cc09190615893565b858560ff1681518110614ce357634e487b7160e01b600052603260045260246000fd5b60200260200101516040518463ffffffff1660e01b8152600401614d27939291906001600160a01b0393841681526020810192909252909116604082015260600190565b60206040518083038186803b158015614d3f57600080fd5b505afa158015614d53573d6000803e3d6000fd5b505050506040513d601f19601f82011682018060405250810190614d77919061584e565b15614dfc578260e001518360c00151614dad86858560ff168151811061263e57634e487b7160e01b600052603260045260246000fd5b614db79190615a05565b614dc191906159e5565b614de885848460ff168151811061263e57634e487b7160e01b600052603260045260246000fd5b614df29190615a42565b602084015261500f565b614df284838360ff168151811061263e57634e487b7160e01b600052603260045260246000fd5b60608301516040516301c22a3d60e01b81526001600160a01b03868116600483015290911690636d3cc04090869083906301c22a3d9060240160206040518083038186803b158015614e7457600080fd5b505afa158015614e88573d6000803e3d6000fd5b505050506040513d601f19601f82011682018060405250810190614eac9190615893565b858560ff1681518110614ecf57634e487b7160e01b600052603260045260246000fd5b60200260200101516040518463ffffffff1660e01b8152600401614f13939291906001600160a01b0393841681526020810192909252909116604082015260600190565b60206040518083038186803b158015614f2b57600080fd5b505afa158015614f3f573d6000803e3d6000fd5b505050506040513d601f19601f82011682018060405250810190614f63919061584e565b15614f74576000602084015261500f565b8260e00151836101000151614f899190615a42565b8360e001518460c00151614f9d9190615a42565b614fc486858560ff168151811061263e57634e487b7160e01b600052603260045260246000fd5b614fce9190615a05565b614fd891906159e5565b614fff85848460ff168151811061263e57634e487b7160e01b600052603260045260246000fd5b6150099190615a42565b60208401525b6020830151156152b2578260a001516001600160a01b03166365017e838585608001518660400151868660ff168151811061505a57634e487b7160e01b600052603260045260246000fd5b602002602001015188602001516040518663ffffffff1660e01b81526004016150b59594939291906001600160a01b039586168152602081019490945291841660408401529092166060820152608081019190915260a00190565b600060405180830381600087803b1580156150cf57600080fd5b505af11580156150e3573d6000803e3d6000fd5b505084516040516317ba7d8560e01b81527f6a687e96f72a484e38a32d2ee3b61626294e792821961a90ce9a98d1999252d560048201526001600160a01b03918216935063e176b35e9250908716906317ba7d859060240160206040518083038186803b15801561515357600080fd5b505afa158015615167573d6000803e3d6000fd5b505050506040513d601f19601f8201168201806040525081019061518b9190615740565b604080870151602088015191516001600160e01b031960e086901b1681526001600160a01b039384166004820152921660248301526044820152606401600060405180830381600087803b1580156151e257600080fd5b505af11580156151f6573d6000803e3d6000fd5b5050505082600001516001600160a01b031663e3a05cc1838360ff168151811061523057634e487b7160e01b600052603260045260246000fd5b6020026020010151856040015186602001516040518463ffffffff1660e01b815260040161527f939291906001600160a01b039384168152919092166020820152604081019190915260600190565b600060405180830381600087803b15801561529957600080fd5b505af11580156152ad573d6000803e3d6000fd5b505050505b806152bc81615a59565b915050614c1c565b6152ce82826129d8565b61458a5760405162461bcd60e51b815260206004820152600b60248201527f6f6e6c79537465776172640000000000000000000000000000000000000000006044820152606401610409565b60006107c2836001600160a01b038416615574565b6000816001600160a01b03166348f7f2a36040518163ffffffff1660e01b815260040160206040518083038186803b15801561536a57600080fd5b505afa15801561537e573d6000803e3d6000fd5b505050506040513d601f19601f820116820180604052508101906153a29190615740565b6001600160a01b0316638da5cb5b6040518163ffffffff1660e01b815260040160206040518083038186803b1580156153da57600080fd5b505afa1580156153ee573d6000803e3d6000fd5b505050506040513d601f19601f8201168201806040525081019061043c9190615740565b6001600160a01b0383166000908152600360209081526040808320848452909152902061041290836155c3565b60608160000180548060200260200160405190810160405280929190818152602001828054801561548f57602002820191906000526020600020905b81548152602001906001019080831161547b575b50505050509050919050565b8160200151156155395781606001516001600160a01b0316635e5eb01384835a86516154c79190615a42565b60408088015190516001600160e01b031960e087901b1681526001600160a01b03948516600482015293909216602484015260448301526064820152608401600060405180830381600087803b15801561552057600080fd5b505af1158015615534573d6000803e3d6000fd5b505050505b826001600160a01b031663d4f7af436040518163ffffffff1660e01b8152600401600060405180830381600087803b15801561300157600080fd5b60008181526001830160205260408120546155bb5750815460018181018455600084815260208082209093018490558454848252828601909352604090209190915561043c565b50600061043c565b60006107c2836001600160a01b038416600081815260018301602052604081205480156156e65760006155f7600183615a42565b855490915060009061560b90600190615a42565b905081811461568c57600086600001828154811061563957634e487b7160e01b600052603260045260246000fd5b906000526020600020015490508087600001848154811061566a57634e487b7160e01b600052603260045260246000fd5b6000918252602080832090910192909255918252600188019052604090208390555b85548690806156ab57634e487b7160e01b600052603160045260246000fd5b60019003818190600052602060002001600090559055856001016000868152602001908152602001600020600090556001935050505061043c565b600091505061043c565b80516156fb81615aa5565b919050565b805180151581146156fb57600080fd5b803563ffffffff811681146156fb57600080fd5b600060208284031215615735578081fd5b81356107c281615aa5565b600060208284031215615751578081fd5b81516107c281615aa5565b6000806040838503121561576e578081fd5b823561577981615aa5565b946020939093013593505050565b60006020808385031215615799578182fd5b825167ffffffffffffffff808211156157b0578384fd5b818501915085601f8301126157c3578384fd5b8151818111156157d5576157d5615a8f565b8060051b604051601f19603f830116810181811085821117156157fa576157fa615a8f565b604052828152858101935084860182860187018a1015615818578788fd5b8795505b838610156158415761582d816156f0565b85526001959095019493860193860161581c565b5098975050505050505050565b60006020828403121561585f578081fd5b6107c282615700565b6000806040838503121561587a578182fd5b61588383615700565b9150602083015190509250929050565b6000602082840312156158a4578081fd5b5051919050565b600080604083850312156158bd578182fd5b82356158c881615aa5565b915060208301356158d881615aa5565b809150509250929050565b6000806040838503121561576e578182fd5b600080600060608486031215615909578081fd5b833561591481615aa5565b925061592260208501615710565b915061593060408501615710565b90509250925092565b60006020828403121561594a578081fd5b8151600281106107c2578182fd5b6020808252825182820181905260009190848201906040850190845b818110156159995783516001600160a01b031683529284019291840191600101615974565b50909695505050505050565b60208101600483106159c757634e487b7160e01b600052602160045260246000fd5b91905290565b600082198211156159e0576159e0615a79565b500190565b600082615a0057634e487b7160e01b81526012600452602481fd5b500490565b6000817fffffffffffffffffffffffffffffffffffffffffffffffffffffffffffffffff0483118215151615615a3d57615a3d615a79565b500290565b600082821015615a5457615a54615a79565b500390565b600060ff821660ff811415615a7057615a70615a79565b60010192915050565b634e487b7160e01b600052601160045260246000fd5b634e487b7160e01b600052604160045260246000fd5b6001600160a01b0381168114615aba57600080fd5b5056fea264697066735822122035c05b1cdf91d86187f63b7c74a071ec337b1817af688b6e365813fc36e5f9ab64736f6c63430008040033",
  "linkReferences": {},
  "deployedLinkReferences": {}
}