{
  "_format": "hh-sol-artifact-1",
  "contractName": "VintageDaoSetAdapterContract",
  "sourceName": "contracts/vintage/adapters/VintageDaoSetAdapter.sol",
  "abi": [
    {
      "inputs": [],
      "name": "INVALID_ALLOC_PARAMS",
      "type": "error"
    },
    {
      "inputs": [],
      "name": "LAST_CAP_NOT_FINALIZED",
      "type": "error"
    },
    {
      "inputs": [],
      "name": "LAST_GOVERNOR_MEMBERSHIP_NOT_FINALIZED",
      "type": "error"
    },
    {
      "inputs": [],
      "name": "LAST_INVESOTR_MEMBERHISP_NOT_FINALIZED",
      "type": "error"
    },
    {
      "inputs": [],
      "name": "LAST_VOTING_NOT_FINALIZED",
      "type": "error"
    },
    {
      "inputs": [],
      "name": "VOTING_NOT_FINISH",
      "type": "error"
    },
    {
      "anonymous": false,
      "inputs": [
        {
          "indexed": false,
          "internalType": "address",
          "name": "daoAddr",
          "type": "address"
        },
        {
          "indexed": false,
          "internalType": "bytes32",
          "name": "proposalId",
          "type": "bytes32"
        },
        {
          "indexed": false,
          "internalType": "enum VintageDaoSetAdapterContract.ProposalType",
          "name": "pType",
          "type": "uint8"
        }
      ],
      "name": "ProposalCreated",
      "type": "event"
    },
    {
      "anonymous": false,
      "inputs": [
        {
          "indexed": false,
          "internalType": "address",
          "name": "daoAddr",
          "type": "address"
        },
        {
          "indexed": false,
          "internalType": "bytes32",
          "name": "proposalId",
          "type": "bytes32"
        },
        {
          "indexed": false,
          "internalType": "enum VintageDaoSetAdapterContract.ProposalState",
          "name": "state",
          "type": "uint8"
        },
        {
          "indexed": false,
          "internalType": "uint256",
          "name": "voteResult",
          "type": "uint256"
        },
        {
          "indexed": false,
          "internalType": "uint128",
          "name": "allVotingWeight",
          "type": "uint128"
        },
        {
          "indexed": false,
          "internalType": "uint128",
          "name": "nbYes",
          "type": "uint128"
        },
        {
          "indexed": false,
          "internalType": "uint128",
          "name": "nbNo",
          "type": "uint128"
        }
      ],
      "name": "ProposalProcessed",
      "type": "event"
    },
    {
      "inputs": [
        {
          "internalType": "address",
          "name": "",
          "type": "address"
        },
        {
          "internalType": "bytes32",
          "name": "",
          "type": "bytes32"
        }
      ],
      "name": "governorMembershipProposals",
      "outputs": [
        {
          "internalType": "bytes32",
          "name": "proposalId",
          "type": "bytes32"
        },
        {
          "internalType": "string",
          "name": "name",
          "type": "string"
        },
        {
          "internalType": "bool",
          "name": "enable",
          "type": "bool"
        },
        {
          "internalType": "uint8",
          "name": "varifyType",
          "type": "uint8"
        },
        {
          "internalType": "uint256",
          "name": "minAmount",
          "type": "uint256"
        },
        {
          "internalType": "address",
          "name": "tokenAddress",
          "type": "address"
        },
        {
          "internalType": "uint256",
          "name": "tokenId",
          "type": "uint256"
        },
        {
          "internalType": "uint256",
          "name": "creationTime",
          "type": "uint256"
        },
        {
          "internalType": "uint256",
          "name": "stopVoteTime",
          "type": "uint256"
        },
        {
          "internalType": "enum VintageDaoSetAdapterContract.ProposalState",
          "name": "state",
          "type": "uint8"
        }
      ],
      "stateMutability": "view",
      "type": "function"
    },
    {
      "inputs": [
        {
          "internalType": "address",
          "name": "",
          "type": "address"
        },
        {
          "internalType": "bytes32",
          "name": "",
          "type": "bytes32"
        }
      ],
      "name": "investorCapProposals",
      "outputs": [
        {
          "internalType": "bool",
          "name": "enable",
          "type": "bool"
        },
        {
          "internalType": "uint256",
          "name": "cap",
          "type": "uint256"
        },
        {
          "internalType": "uint256",
          "name": "creationTime",
          "type": "uint256"
        },
        {
          "internalType": "uint256",
          "name": "stopVoteTime",
          "type": "uint256"
        },
        {
          "internalType": "enum VintageDaoSetAdapterContract.ProposalState",
          "name": "state",
          "type": "uint8"
        }
      ],
      "stateMutability": "view",
      "type": "function"
    },
    {
      "inputs": [
        {
          "internalType": "address",
          "name": "",
          "type": "address"
        },
        {
          "internalType": "bytes32",
          "name": "",
          "type": "bytes32"
        }
      ],
      "name": "investorMembershipProposals",
      "outputs": [
        {
          "internalType": "bytes32",
          "name": "proposalId",
          "type": "bytes32"
        },
        {
          "internalType": "string",
          "name": "name",
          "type": "string"
        },
        {
          "internalType": "bool",
          "name": "enable",
          "type": "bool"
        },
        {
          "internalType": "uint8",
          "name": "varifyType",
          "type": "uint8"
        },
        {
          "internalType": "uint256",
          "name": "minAmount",
          "type": "uint256"
        },
        {
          "internalType": "address",
          "name": "tokenAddress",
          "type": "address"
        },
        {
          "internalType": "uint256",
          "name": "tokenId",
          "type": "uint256"
        },
        {
          "internalType": "uint256",
          "name": "creationTime",
          "type": "uint256"
        },
        {
          "internalType": "uint256",
          "name": "stopVoteTime",
          "type": "uint256"
        },
        {
          "internalType": "enum VintageDaoSetAdapterContract.ProposalState",
          "name": "state",
          "type": "uint8"
        }
      ],
      "stateMutability": "view",
      "type": "function"
    },
    {
      "inputs": [
        {
          "internalType": "address",
          "name": "daoAddr",
          "type": "address"
        }
      ],
      "name": "isProposalAllDone",
      "outputs": [
        {
          "internalType": "bool",
          "name": "",
          "type": "bool"
        }
      ],
      "stateMutability": "view",
      "type": "function"
    },
    {
      "inputs": [
        {
          "internalType": "address",
          "name": "",
          "type": "address"
        }
      ],
      "name": "ongoingGovernorMembershipProposal",
      "outputs": [
        {
          "internalType": "bytes32",
          "name": "",
          "type": "bytes32"
        }
      ],
      "stateMutability": "view",
      "type": "function"
    },
    {
      "inputs": [
        {
          "internalType": "address",
          "name": "",
          "type": "address"
        }
      ],
      "name": "ongoingInvestorCapProposal",
      "outputs": [
        {
          "internalType": "bytes32",
          "name": "",
          "type": "bytes32"
        }
      ],
      "stateMutability": "view",
      "type": "function"
    },
    {
      "inputs": [
        {
          "internalType": "address",
          "name": "",
          "type": "address"
        }
      ],
      "name": "ongoingInvstorMembershipProposal",
      "outputs": [
        {
          "internalType": "bytes32",
          "name": "",
          "type": "bytes32"
        }
      ],
      "stateMutability": "view",
      "type": "function"
    },
    {
      "inputs": [
        {
          "internalType": "address",
          "name": "",
          "type": "address"
        }
      ],
      "name": "ongoingVotingProposal",
      "outputs": [
        {
          "internalType": "bytes32",
          "name": "",
          "type": "bytes32"
        }
      ],
      "stateMutability": "view",
      "type": "function"
    },
    {
      "inputs": [
        {
          "internalType": "contract DaoRegistry",
          "name": "dao",
          "type": "address"
        },
        {
          "internalType": "bytes32",
          "name": "proposalId",
          "type": "bytes32"
        }
      ],
      "name": "processGovernorMembershipProposal",
      "outputs": [],
      "stateMutability": "nonpayable",
      "type": "function"
    },
    {
      "inputs": [
        {
          "internalType": "contract DaoRegistry",
          "name": "dao",
          "type": "address"
        },
        {
          "internalType": "bytes32",
          "name": "proposalId",
          "type": "bytes32"
        }
      ],
      "name": "processInvestorCapProposal",
      "outputs": [],
      "stateMutability": "nonpayable",
      "type": "function"
    },
    {
      "inputs": [
        {
          "internalType": "contract DaoRegistry",
          "name": "dao",
          "type": "address"
        },
        {
          "internalType": "bytes32",
          "name": "proposalId",
          "type": "bytes32"
        }
      ],
      "name": "processInvestorMembershipProposal",
      "outputs": [],
      "stateMutability": "nonpayable",
      "type": "function"
    },
    {
      "inputs": [
        {
          "internalType": "contract DaoRegistry",
          "name": "dao",
          "type": "address"
        },
        {
          "internalType": "bytes32",
          "name": "proposalId",
          "type": "bytes32"
        }
      ],
      "name": "processVotingProposal",
      "outputs": [],
      "stateMutability": "nonpayable",
      "type": "function"
    },
    {
      "inputs": [
        {
          "components": [
            {
              "internalType": "contract DaoRegistry",
              "name": "dao",
              "type": "address"
            },
            {
              "internalType": "string",
              "name": "name",
              "type": "string"
            },
            {
              "internalType": "bool",
              "name": "enable",
              "type": "bool"
            },
            {
              "internalType": "uint8",
              "name": "varifyType",
              "type": "uint8"
            },
            {
              "internalType": "uint256",
              "name": "minAmount",
              "type": "uint256"
            },
            {
              "internalType": "address",
              "name": "tokenAddress",
              "type": "address"
            },
            {
              "internalType": "uint256",
              "name": "tokenId",
              "type": "uint256"
            },
            {
              "internalType": "address[]",
              "name": "whiteList",
              "type": "address[]"
            }
          ],
          "internalType": "struct VintageDaoSetAdapterContract.GovernorMembershipParams",
          "name": "params",
          "type": "tuple"
        }
      ],
      "name": "submitGovernorMembershipProposal",
      "outputs": [],
      "stateMutability": "nonpayable",
      "type": "function"
    },
    {
      "inputs": [
        {
          "internalType": "contract DaoRegistry",
          "name": "dao",
          "type": "address"
        },
        {
          "internalType": "bool",
          "name": "enable",
          "type": "bool"
        },
        {
          "internalType": "uint256",
          "name": "cap",
          "type": "uint256"
        }
      ],
      "name": "submitInvestorCapProposal",
      "outputs": [],
      "stateMutability": "nonpayable",
      "type": "function"
    },
    {
      "inputs": [
        {
          "components": [
            {
              "internalType": "contract DaoRegistry",
              "name": "dao",
              "type": "address"
            },
            {
              "internalType": "string",
              "name": "name",
              "type": "string"
            },
            {
              "internalType": "bool",
              "name": "enable",
              "type": "bool"
            },
            {
              "internalType": "uint8",
              "name": "varifyType",
              "type": "uint8"
            },
            {
              "internalType": "uint256",
              "name": "minAmount",
              "type": "uint256"
            },
            {
              "internalType": "address",
              "name": "tokenAddress",
              "type": "address"
            },
            {
              "internalType": "uint256",
              "name": "tokenId",
              "type": "uint256"
            },
            {
              "internalType": "address[]",
              "name": "whiteList",
              "type": "address[]"
            }
          ],
          "internalType": "struct VintageDaoSetAdapterContract.InvesotrMembershipParams",
          "name": "params",
          "type": "tuple"
        }
      ],
      "name": "submitInvestorMembershipProposal",
      "outputs": [],
      "stateMutability": "nonpayable",
      "type": "function"
    },
    {
      "inputs": [
        {
          "internalType": "contract DaoRegistry",
          "name": "dao",
          "type": "address"
        },
        {
          "components": [
            {
              "internalType": "uint256",
              "name": "votingAssetType",
              "type": "uint256"
            },
            {
              "internalType": "address",
              "name": "tokenAddress",
              "type": "address"
            },
            {
              "internalType": "uint256",
              "name": "tokenID",
              "type": "uint256"
            },
            {
              "internalType": "uint256",
              "name": "votingWeightedType",
              "type": "uint256"
            },
            {
              "internalType": "uint256",
              "name": "supportType",
              "type": "uint256"
            },
            {
              "internalType": "uint256",
              "name": "quorumType",
              "type": "uint256"
            },
            {
              "internalType": "uint256",
              "name": "support",
              "type": "uint256"
            },
            {
              "internalType": "uint256",
              "name": "quorum",
              "type": "uint256"
            },
            {
              "internalType": "uint256",
              "name": "votingPeriod",
              "type": "uint256"
            },
            {
              "internalType": "uint256",
              "name": "executingPeriod",
              "type": "uint256"
            },
            {
              "internalType": "address[]",
              "name": "governors",
              "type": "address[]"
            },
            {
              "internalType": "uint256[]",
              "name": "allocations",
              "type": "uint256[]"
            }
          ],
          "internalType": "struct VintageDaoSetAdapterContract.VotingParams",
          "name": "params",
          "type": "tuple"
        }
      ],
      "name": "submitVotingProposal",
      "outputs": [],
      "stateMutability": "nonpayable",
      "type": "function"
    },
    {
      "inputs": [
        {
          "internalType": "address",
          "name": "",
          "type": "address"
        },
        {
          "internalType": "bytes32",
          "name": "",
          "type": "bytes32"
        }
      ],
      "name": "votingProposals",
      "outputs": [
        {
          "internalType": "bytes32",
          "name": "proposalId",
          "type": "bytes32"
        },
        {
          "components": [
            {
              "internalType": "uint256",
              "name": "supportType",
              "type": "uint256"
            },
            {
              "internalType": "uint256",
              "name": "quorumType",
              "type": "uint256"
            },
            {
              "internalType": "uint256",
              "name": "support",
              "type": "uint256"
            },
            {
              "internalType": "uint256",
              "name": "quorum",
              "type": "uint256"
            }
          ],
          "internalType": "struct VintageDaoSetAdapterContract.VotingSupportInfo",
          "name": "supportInfo",
          "type": "tuple"
        },
        {
          "components": [
            {
              "internalType": "uint256",
              "name": "votingAssetType",
              "type": "uint256"
            },
            {
              "internalType": "address",
              "name": "tokenAddress",
              "type": "address"
            },
            {
              "internalType": "uint256",
              "name": "tokenID",
              "type": "uint256"
            },
            {
              "internalType": "uint256",
              "name": "votingWeightedType",
              "type": "uint256"
            }
          ],
          "internalType": "struct VintageDaoSetAdapterContract.VotingAssetInfo",
          "name": "votingAssetInfo",
          "type": "tuple"
        },
        {
          "components": [
            {
              "internalType": "uint256",
              "name": "votingPeriod",
              "type": "uint256"
            },
            {
              "internalType": "uint256",
              "name": "executingPeriod",
              "type": "uint256"
            },
            {
              "internalType": "uint256",
              "name": "creationTime",
              "type": "uint256"
            },
            {
              "internalType": "uint256",
              "name": "stopVoteTime",
              "type": "uint256"
            }
          ],
          "internalType": "struct VintageDaoSetAdapterContract.VotingTimeInfo",
          "name": "timeInfo",
          "type": "tuple"
        },
        {
          "components": [
            {
              "internalType": "uint256[]",
              "name": "allocations",
              "type": "uint256[]"
            }
          ],
          "internalType": "struct VintageDaoSetAdapterContract.VotingAllocs",
          "name": "allocs",
          "type": "tuple"
        },
        {
          "internalType": "enum VintageDaoSetAdapterContract.ProposalState",
          "name": "state",
          "type": "uint8"
        }
      ],
      "stateMutability": "view",
      "type": "function"
    }
  ],
  "bytecode": "0x608060405234801561001057600080fd5b506156e780620000216000396000f3fe608060405234801561001057600080fd5b506004361061011b5760003560e01c8063985460c7116100b2578063b377308f11610081578063b6939b7f11610066578063b6939b7f146102d1578063be217625146102f1578063f8ffc75b1461031157600080fd5b8063b377308f146102ab578063b58ca31e146102be57600080fd5b8063985460c7146102345780639a0242fc14610262578063a860dfdd14610285578063ae9845451461029857600080fd5b806347a71a85116100ee57806347a71a85146101e8578063731dac7d146101fb5780638e0e31f21461020e5780638e3588dc1461022157600080fd5b8063034f82fe1461012057806307dc8eb8146101855780631d625e241461019a5780631eb1cf39146101bf575b600080fd5b61016b61012e366004614b34565b600460208181526000938452604080852090915291835291208054600182015460028301546003840154939094015460ff92831694919391921685565b60405161017c9594939291906150d0565b60405180910390f35b610198610193366004614ccb565b610331565b005b6101ad6101a8366004614b34565b610672565b60405161017c9695949392919061517d565b6101d26101cd366004614b34565b610784565b60405161017c9a99989796959493929190615108565b6101986101f6366004614ccb565b61087b565b610198610209366004614cdd565b610b57565b61019861021c366004614d98565b6111bd565b61019861022f366004614ccb565b61171e565b610254610242366004614afc565b60026020526000908152604090205481565b60405190815260200161017c565b610275610270366004614afc565b6119a9565b604051901515815260200161017c565b610198610293366004614ccb565b611a3f565b6101986102a6366004614c8b565b611d1b565b6101986102b9366004614d98565b61200e565b6101d26102cc366004614b34565b612551565b6102546102df366004614afc565b60036020526000908152604090205481565b6102546102ff366004614afc565b60016020526000908152604090205481565b61025461031f366004614afc565b60006020819052908152604090205481565b81600061033d8261257e565b6001600160a01b03851660008181526004602081815260408084208985529091529182902091516330490e9160e01b8152908101879052929350916330490e9190602401600060405180830381600087803b15801561039b57600080fd5b505af11580156103af573d6000803e3d6000fd5b50506040516317ba7d8560e01b81527fd3999c37f8f35da86f802a74f9bf032c4aeb46e49abd9c861f489ef4cb40d0a86004820152600092506001600160a01b03881691506317ba7d859060240160206040518083038186803b15801561041557600080fd5b505afa158015610429573d6000803e3d6000fd5b505050506040513d601f19601f8201168201806040525081019061044d9190614b18565b6040516376225e7360e01b81526001600160a01b03888116600483015260248201889052919250600091829182918516906376225e7390604401606060405180830381600087803b1580156104a157600080fd5b505af11580156104b5573d6000803e3d6000fd5b505050506040513d601f19601f820116820180604052508101906104d99190614d51565b91945092509050600283600581111561050257634e487b7160e01b600052602160045260246000fd5b141561052e57610512898661284e565b6004850180546002919060ff19166001835b02179055506105c8565b600383600581111561055057634e487b7160e01b600052602160045260246000fd5b148061057b5750600183600581111561057957634e487b7160e01b600052602160045260246000fd5b145b15610596576004850180546003919060ff1916600183610524565b6040517f70fc772800000000000000000000000000000000000000000000000000000000815260040160405180910390fd5b6001600160a01b03891660009081526020819052604081208190556105ed8a8a612980565b60048701549091507fe0867d363777a6ada708063230ad9d25fe940a2b5913de073948e222345816b2908b908b9060ff1687600581111561063e57634e487b7160e01b600052602160045260246000fd5b8588886040516106549796959493929190615044565b60405180910390a150505050505061066c8282612cae565b50505050565b60076020818152600093845260408085208252928452928290208054835160808082018652600184015482526002840154828801526003840154828701526004840154606080840191909152865180830188526005860154815260068601546001600160a01b0316818a015295850154868801526008850154868201528651918201875260098501548252600a85015482890152600b85015482880152600c850154908201528551600d85018054808a028301890189529882018981529498939792959491939092849291849184018282801561076e57602002820191906000526020600020905b81548152602001906001019080831161075a575b50505091909252505050600e9091015460ff1686565b6005602090815260009283526040808420909152908252902080546001820180549192916107b190615589565b80601f01602080910402602001604051908101604052809291908181526020018280546107dd90615589565b801561082a5780601f106107ff5761010080835404028352916020019161082a565b820191906000526020600020905b81548152906001019060200180831161080d57829003601f168201915b505050600284015460038501546004860154600587015460068801546007890154600890990154979860ff80871699610100909704811698509496506001600160a01b03909316949193909291168a565b8160006108878261257e565b6001600160a01b03851660008181526006602090815260408083208884529091529081902090516330490e9160e01b815260048101879052929350916330490e9190602401600060405180830381600087803b1580156108e657600080fd5b505af11580156108fa573d6000803e3d6000fd5b50506040516317ba7d8560e01b81527fd3999c37f8f35da86f802a74f9bf032c4aeb46e49abd9c861f489ef4cb40d0a86004820152600092506001600160a01b03881691506317ba7d859060240160206040518083038186803b15801561096057600080fd5b505afa158015610974573d6000803e3d6000fd5b505050506040513d601f19601f820116820180604052508101906109989190614b18565b6040516376225e7360e01b81526001600160a01b03888116600483015260248201889052919250600091829182918516906376225e7390604401606060405180830381600087803b1580156109ec57600080fd5b505af1158015610a00573d6000803e3d6000fd5b505050506040513d601f19601f82011682018060405250810190610a249190614d51565b919450925090506002836005811115610a4d57634e487b7160e01b600052602160045260246000fd5b1415610a7957610a5d8986612cbd565b6008850180546002919060ff19166001835b0217905550610ae1565b6003836005811115610a9b57634e487b7160e01b600052602160045260246000fd5b1480610ac657506001836005811115610ac457634e487b7160e01b600052602160045260246000fd5b145b15610596576008850180546003919060ff1916600183610a6f565b6001600160a01b0389166000908152600260205260408120819055610b068a8a612980565b60088701549091507fe0867d363777a6ada708063230ad9d25fe940a2b5913de073948e222345816b2908b908b9060ff1687600581111561063e57634e487b7160e01b600052602160045260246000fd5b81610b628133612ddb565b826000610b6e8261257e565b6001600160a01b03861660009081526003602052604090205490915015610bc1576040517f18b4a67900000000000000000000000000000000000000000000000000000000815260040160405180910390fd5b610bcf610160850185615452565b9050610bdf610140860186615452565b905014610c18576040517f8ea9ca9200000000000000000000000000000000000000000000000000000000815260040160405180910390fd5b610c2185612eb9565b846001600160a01b0316631bc0f7876040518163ffffffff1660e01b8152600401600060405180830381600087803b158015610c5c57600080fd5b505af1158015610c70573d6000803e3d6000fd5b505050506000610d1b8660c01b610cf6886001600160a01b031663656f9f996040518163ffffffff1660e01b815260040160206040518083038186803b158015610cb957600080fd5b505afa158015610ccd573d6000803e3d6000fd5b505050506040513d601f19601f82011682018060405250810190610cf19190614de5565b61328c565b604051602001610d07929190614f08565b6040516020818303038152906040526133e2565b90506040518060c001604052808281526020016040518060800160405280886080013581526020018860a0013581526020018860c0013581526020018860e001358152508152602001604051806080016040528088600001358152602001886020016020810190610d8c9190614afc565b6001600160a01b031681526020018860400135815260200188606001358152508152602001604051806080016040528088610100013581526020018861012001358152602001428152602001896001600160a01b0316639283ae3a7f9876c0f0505bfb2b1c38d3bbd25ba13159172cd0868972d76927723f5a9480fc6040518263ffffffff1660e01b8152600401610e2691815260200190565b60206040518083038186803b158015610e3e57600080fd5b505afa158015610e52573d6000803e3d6000fd5b505050506040513d601f19601f82011682018060405250810190610e769190614de5565b610e80904261551a565b8152508152602001604051806020016040528088806101400190610ea49190615452565b905067ffffffffffffffff811115610ecc57634e487b7160e01b600052604160045260246000fd5b604051908082528060200260200182016040528015610ef5578160200160208202803683370190505b5090528152602001600090526001600160a01b038781166000908152600760208181526040808420878552825292839020855181558582015180516001830155808301516002830155808501516003830155606090810151600483015586850151805160058401558084015160068401805473ffffffffffffffffffffffffffffffffffffffff191691909816179096558585015193820193909355938201516008850155818501518051600986015580820151600a86015592830151600b850155910151600c8301556080830151805180519192600d850192610fdc92849201906149e7565b50505060a0820151600e8201805460ff1916600183600381111561101057634e487b7160e01b600052602160045260246000fd5b021790555050506001600160a01b0386166000908152600360205260408120829055611040610140870187615452565b905011156111655760005b611059610140870187615452565b90508160ff16101561116357611073610160870187615452565b8260ff1681811061109457634e487b7160e01b600052603260045260246000fd5b6001600160a01b038a1660009081526007602090815260408083208884528252909120600d01805492909102939093013592915060ff84169081106110e957634e487b7160e01b600052603260045260246000fd5b600091825260209091200155611150611106610140880188615452565b8360ff1681811061112757634e487b7160e01b600052603260045260246000fd5b905060200201602081019061113c9190614afc565b6000848152600a60205260409020906133fe565b508061115b816155f7565b91505061104b565b505b61116f868261341a565b7fa65d0c07e3b0d876ee52e871c234a4b150b9bf17a08f356f5aeda8d6782cc31a868260036040516111a3939291906150a2565b60405180910390a1506111b68282612cae565b5050505050565b6111ca6020820182614afc565b6111d48133612ddb565b6111e16020830183614afc565b60006111ec8261257e565b905060006002816112006020880188614afc565b6001600160a01b03166001600160a01b031681526020019081526020016000205414611258576040517f53ebfe2900000000000000000000000000000000000000000000000000000000815260040160405180910390fd5b61126d6112686020860186614afc565b612eb9565b61127a6020850185614afc565b6001600160a01b031663822d63156040518163ffffffff1660e01b8152600401600060405180830381600087803b1580156112b457600080fd5b505af11580156112c8573d6000803e3d6000fd5b506000925061133d91506112e190506020870187614afc565b60c01b61132c6112f46020890189614afc565b6001600160a01b031663b5d3788e6040518163ffffffff1660e01b815260040160206040518083038186803b158015610cb957600080fd5b604051602001610d07929190614fe4565b905060405180610140016040528082815260200186806020019061136191906154a1565b8080601f0160208091040260200160405190810160405280939291908181526020018383808284376000920191909152505050908252506020016113ab6060880160408901614c26565b151581526020016113c26080880160608901614dfd565b60ff168152608087013560208201526040016113e460c0880160a08901614afc565b6001600160a01b031681526020018660c0013581526020014281526020018660000160208101906114159190614afc565b604051634941d71d60e11b81527f9876c0f0505bfb2b1c38d3bbd25ba13159172cd0868972d76927723f5a9480fc60048201526001600160a01b039190911690639283ae3a9060240160206040518083038186803b15801561147657600080fd5b505afa15801561148a573d6000803e3d6000fd5b505050506040513d601f19601f820116820180604052508101906114ae9190614de5565b6114b8904261551a565b815260200160009052600660006114d26020890189614afc565b6001600160a01b031681526020808201929092526040908101600090812085825283522082518155828201518051919261151492600185019290910190614a32565b506040820151600282018054606085015161ffff1990911692151561ff0019169290921761010060ff9093168302179055608083015160038084019190915560a084015160048401805473ffffffffffffffffffffffffffffffffffffffff19166001600160a01b0390921691909117905560c0840151600584015560e084015160068401559083015160078301556101208301516008830180549192909160ff19169060019084908111156115da57634e487b7160e01b600052602160045260246000fd5b0217905550600091506115f2905060e0870187615452565b905011156116855760005b61160a60e0870187615452565b90508160ff1610156116835761167061162660e0880188615452565b8360ff1681811061164757634e487b7160e01b600052603260045260246000fd5b905060200201602081019061165c9190614afc565b6000848152600960205260409020906133fe565b508061167b816155f7565b9150506115fd565b505b80600260006116976020890189614afc565b6001600160a01b03168152602080820192909252604001600020919091556116cb906116c590870187614afc565b8261341a565b7fa65d0c07e3b0d876ee52e871c234a4b150b9bf17a08f356f5aeda8d6782cc31a6116f96020870187614afc565b82600260405161170b939291906150a2565b60405180910390a15061066c8282612cae565b81600061172a8261257e565b6001600160a01b03851660008181526005602090815260408083208884529091529081902090516330490e9160e01b815260048101879052929350916330490e9190602401600060405180830381600087803b15801561178957600080fd5b505af115801561179d573d6000803e3d6000fd5b50506040516317ba7d8560e01b81527fd3999c37f8f35da86f802a74f9bf032c4aeb46e49abd9c861f489ef4cb40d0a86004820152600092506001600160a01b03881691506317ba7d859060240160206040518083038186803b15801561180357600080fd5b505afa158015611817573d6000803e3d6000fd5b505050506040513d601f19601f8201168201806040525081019061183b9190614b18565b6040516376225e7360e01b81526001600160a01b03888116600483015260248201889052919250600091829182918516906376225e7390604401606060405180830381600087803b15801561188f57600080fd5b505af11580156118a3573d6000803e3d6000fd5b505050506040513d601f19601f820116820180604052508101906118c79190614d51565b9194509250905060028360058111156118f057634e487b7160e01b600052602160045260246000fd5b141561191c576119008986613601565b6008850180546002919060ff19166001835b0217905550611984565b600383600581111561193e57634e487b7160e01b600052602160045260246000fd5b14806119695750600183600581111561196757634e487b7160e01b600052602160045260246000fd5b145b15610596576008850180546003919060ff1916600183611912565b6001600160a01b0389166000908152600160205260408120819055610b068a8a612980565b6001600160a01b0381166000908152602081905260408120541515806119e657506001600160a01b03821660009081526001602052604090205415155b80611a0857506001600160a01b03821660009081526002602052604090205415155b80611a2a57506001600160a01b03821660009081526003602052604090205415155b15611a3757506000919050565b506001919050565b816000611a4b8261257e565b6001600160a01b03851660008181526007602090815260408083208884529091529081902090516330490e9160e01b815260048101879052929350916330490e9190602401600060405180830381600087803b158015611aaa57600080fd5b505af1158015611abe573d6000803e3d6000fd5b50506040516317ba7d8560e01b81527fd3999c37f8f35da86f802a74f9bf032c4aeb46e49abd9c861f489ef4cb40d0a86004820152600092506001600160a01b03881691506317ba7d859060240160206040518083038186803b158015611b2457600080fd5b505afa158015611b38573d6000803e3d6000fd5b505050506040513d601f19601f82011682018060405250810190611b5c9190614b18565b6040516376225e7360e01b81526001600160a01b03888116600483015260248201889052919250600091829182918516906376225e7390604401606060405180830381600087803b158015611bb057600080fd5b505af1158015611bc4573d6000803e3d6000fd5b505050506040513d601f19601f82011682018060405250810190611be89190614d51565b919450925090506002836005811115611c1157634e487b7160e01b600052602160045260246000fd5b1415611c3d57611c2189866136fc565b600e850180546002919060ff19166001835b0217905550611ca5565b6003836005811115611c5f57634e487b7160e01b600052602160045260246000fd5b1480611c8a57506001836005811115611c8857634e487b7160e01b600052602160045260246000fd5b145b1561059657600e850180546003919060ff1916600183611c33565b6001600160a01b0389166000908152600360205260408120819055611cca8a8a612980565b600e8701549091507fe0867d363777a6ada708063230ad9d25fe940a2b5913de073948e222345816b2908b908b9060ff1687600581111561063e57634e487b7160e01b600052602160045260246000fd5b82611d268133612ddb565b836000611d328261257e565b9050611d3d86612eb9565b6001600160a01b03861660009081526020819052604090205415611d8d576040517f7fb20b9400000000000000000000000000000000000000000000000000000000815260040160405180910390fd5b856001600160a01b0316631785092b6040518163ffffffff1660e01b8152600401600060405180830381600087803b158015611dc857600080fd5b505af1158015611ddc573d6000803e3d6000fd5b505050506000611e368760c01b611e25896001600160a01b0316633f8a3d496040518163ffffffff1660e01b815260040160206040518083038186803b158015610cb957600080fd5b604051602001610d07929190614e9a565b90506040518060a001604052808715158152602001868152602001428152602001886001600160a01b0316639283ae3a7f9876c0f0505bfb2b1c38d3bbd25ba13159172cd0868972d76927723f5a9480fc6040518263ffffffff1660e01b8152600401611ea591815260200190565b60206040518083038186803b158015611ebd57600080fd5b505afa158015611ed1573d6000803e3d6000fd5b505050506040513d601f19601f82011682018060405250810190611ef59190614de5565b611eff904261551a565b8152602001600090526001600160a01b03881660009081526004602081815260408084208685528252928390208451815490151560ff1991821617825591850151600180830191909155938501516002820155606085015160038083019190915560808601519382018054929590939290921691908490811115611f9357634e487b7160e01b600052602160045260246000fd5b021790555050506001600160a01b0387166000908152602081905260409020819055611fbf878261341a565b7fa65d0c07e3b0d876ee52e871c234a4b150b9bf17a08f356f5aeda8d6782cc31a87826000604051611ff3939291906150a2565b60405180910390a1506120068282612cae565b505050505050565b61201b6020820182614afc565b6120258133612ddb565b6120326020830183614afc565b600061203d8261257e565b905060006001816120516020880188614afc565b6001600160a01b03166001600160a01b0316815260200190815260200160002054146120a9576040517fb45d9c6d00000000000000000000000000000000000000000000000000000000815260040160405180910390fd5b6120b96112686020860186614afc565b6120c66020850185614afc565b6001600160a01b031663c7e820cc6040518163ffffffff1660e01b8152600401600060405180830381600087803b15801561210057600080fd5b505af1158015612114573d6000803e3d6000fd5b5060009250612189915061212d90506020870187614afc565b60c01b6121786121406020890189614afc565b6001600160a01b0316639e42c4036040518163ffffffff1660e01b815260040160206040518083038186803b158015610cb957600080fd5b604051602001610d07929190614f76565b90506040518061014001604052808281526020018680602001906121ad91906154a1565b8080601f0160208091040260200160405190810160405280939291908181526020018383808284376000920191909152505050908252506020016121f76060880160408901614c26565b1515815260200161220e6080880160608901614dfd565b60ff1681526080870135602082015260400161223060c0880160a08901614afc565b6001600160a01b031681526020018660c0013581526020014281526020018660000160208101906122619190614afc565b604051634941d71d60e11b81527f9876c0f0505bfb2b1c38d3bbd25ba13159172cd0868972d76927723f5a9480fc60048201526001600160a01b039190911690639283ae3a9060240160206040518083038186803b1580156122c257600080fd5b505afa1580156122d6573d6000803e3d6000fd5b505050506040513d601f19601f820116820180604052508101906122fa9190614de5565b612304904261551a565b8152602001600090526005600061231e6020890189614afc565b6001600160a01b031681526020808201929092526040908101600090812085825283522082518155828201518051919261236092600185019290910190614a32565b506040820151600282018054606085015161ffff1990911692151561ff0019169290921761010060ff9093168302179055608083015160038084019190915560a084015160048401805473ffffffffffffffffffffffffffffffffffffffff19166001600160a01b0390921691909117905560c0840151600584015560e084015160068401559083015160078301556101208301516008830180549192909160ff191690600190849081111561242657634e487b7160e01b600052602160045260246000fd5b02179055506000915061243e905060e0870187615452565b905011156124d15760005b61245660e0870187615452565b90508160ff1610156124cf576124bc61247260e0880188615452565b8360ff1681811061249357634e487b7160e01b600052603260045260246000fd5b90506020020160208101906124a89190614afc565b6000848152600860205260409020906133fe565b50806124c7816155f7565b915050612449565b505b80600160006124e36020890189614afc565b6001600160a01b0316815260208082019290925260400160002091909155612511906116c590870187614afc565b7fa65d0c07e3b0d876ee52e871c234a4b150b9bf17a08f356f5aeda8d6782cc31a61253f6020870187614afc565b82600160405161170b939291906150a2565b6006602090815260009283526040808420909152908252902080546001820180549192916107b190615589565b6040805160808101825260008082526020820181905291810182905260608101919091525a81600001818152505043826001600160a01b031663b21634826040518163ffffffff1660e01b815260040160206040518083038186803b1580156125e657600080fd5b505afa1580156125fa573d6000803e3d6000fd5b505050506040513d601f19601f8201168201806040525081019061261e9190614de5565b14156126715760405162461bcd60e51b815260206004820152601060248201527f7265656e7472616e63792067756172640000000000000000000000000000000060448201526064015b60405180910390fd5b816001600160a01b03166310fdb0a26040518163ffffffff1660e01b8152600401600060405180830381600087803b1580156126ac57600080fd5b505af11580156126c0573d6000803e3d6000fd5b50506040517f72c6838f0000000000000000000000000000000000000000000000000000000081527f1f2fd42ad6a6cacd573c4b212beb7a4e2499ad45d742a65337097f130e71daff6004820152600092506001600160a01b03851691506372c6838f9060240160206040518083038186803b15801561273f57600080fd5b505afa158015612753573d6000803e3d6000fd5b505050506040513d601f19601f820116820180604052508101906127779190614b18565b90506001600160a01b0381166127935760006020830152612848565b6001600160a01b038181166060840181905283516040517f43a8a3f1000000000000000000000000000000000000000000000000000000008152928616600484015260248301526000918291906343a8a3f190604401604080518083038186803b15801561280057600080fd5b505afa158015612814573d6000803e3d6000fd5b505050506040513d601f19601f820116820180604052508101906128389190614c5e565b9015156020860152604085015250505b50919050565b6040516317ba7d8560e01b81527f145d8ebc4d7403f3cd60312331619ffb262c52c22bedf24c0148027dd4be3b0160048201526000906001600160a01b038416906317ba7d859060240160206040518083038186803b1580156128b057600080fd5b505afa1580156128c4573d6000803e3d6000fd5b505050506040513d601f19601f820116820180604052508101906128e89190614b18565b825460018401546040517f7249b22f0000000000000000000000000000000000000000000000000000000081526001600160a01b03878116600483015260ff909316151560248201526044810191909152919250821690637249b22f906064015b600060405180830381600087803b15801561296357600080fd5b505af1158015612977573d6000803e3d6000fd5b50505050505050565b600080836001600160a01b031663a6f636416040518163ffffffff1660e01b815260040160006040518083038186803b1580156129bc57600080fd5b505afa1580156129d0573d6000803e3d6000fd5b505050506040513d6000823e601f3d908101601f191682016040526129f89190810190614b5f565b6040516317ba7d8560e01b81527fd3999c37f8f35da86f802a74f9bf032c4aeb46e49abd9c861f489ef4cb40d0a8600482015290915060009081906001600160a01b038716906317ba7d859060240160206040518083038186803b158015612a5f57600080fd5b505afa158015612a73573d6000803e3d6000fd5b505050506040513d601f19601f82011682018060405250810190612a979190614b18565b905060005b83518160ff161015612ca157816001600160a01b03166324a2cceb8888878560ff1681518110612adc57634e487b7160e01b600052603260045260246000fd5b60200260200101516040518463ffffffff1660e01b8152600401612b20939291906001600160a01b0393841681526020810192909252909116604082015260600190565b60206040518083038186803b158015612b3857600080fd5b505afa158015612b4c573d6000803e3d6000fd5b505050506040513d601f19601f82011682018060405250810190612b709190614c42565b15612c4e57816001600160a01b03166391d2fd538888878560ff1681518110612ba957634e487b7160e01b600052603260045260246000fd5b60200260200101516040518463ffffffff1660e01b8152600401612bed939291906001600160a01b0393841681526020810192909252909116604082015260600190565b60206040518083038186803b158015612c0557600080fd5b505afa158015612c19573d6000803e3d6000fd5b505050506040513d601f19601f82011682018060405250810190612c3d9190614dcb565b612c4790846154e6565b9250612c8f565b612c8287858360ff1681518110612c7557634e487b7160e01b600052603260045260246000fd5b6020026020010151613859565b612c8c90846154e6565b92505b80612c99816155f7565b915050612a9c565b5090925050505b92915050565b612cb9828233614702565b5050565b6040516317ba7d8560e01b81527f145d8ebc4d7403f3cd60312331619ffb262c52c22bedf24c0148027dd4be3b0160048201526000906001600160a01b038416906317ba7d859060240160206040518083038186803b158015612d1f57600080fd5b505afa158015612d33573d6000803e3d6000fd5b505050506040513d601f19601f82011682018060405250810190612d579190614b18565b6002830154600384015460058501546004860154865460009081526009602052604090209495506001600160a01b03808716956373cf624f958a9560ff8083169660018d0196610100909404909116949193909290911690612db8906147f3565b6040518963ffffffff1660e01b8152600401612949989796959493929190615316565b6040517fa230c5240000000000000000000000000000000000000000000000000000000081526001600160a01b03828116600483015283169063a230c5249060240160206040518083038186803b158015612e3557600080fd5b505afa158015612e49573d6000803e3d6000fd5b505050506040513d601f19601f82011682018060405250810190612e6d9190614c42565b612cb95760405162461bcd60e51b815260206004820152600c60248201527f6f6e6c79476f7665726e6f7200000000000000000000000000000000000000006044820152606401612668565b6040516317ba7d8560e01b81527faaff643bdbd909f604d46ce015336f7e20fee3ac4a55cef3610188dee176c89260048201526000906001600160a01b038316906317ba7d859060240160206040518083038186803b158015612f1b57600080fd5b505afa158015612f2f573d6000803e3d6000fd5b505050506040513d601f19601f82011682018060405250810190612f539190614b18565b6040516301ee1a2b60e41b81526001600160a01b038481166004830152919250600091831690631ee1a2b09060240160206040518083038186803b158015612f9a57600080fd5b505afa158015612fae573d6000803e3d6000fd5b505050506040513d601f19601f82011682018060405250810190612fd29190614d32565b604051634941d71d60e11b81527fb0d4178853a5320a41f8c55fa6d58af06637e392beff71e66dba4e8f32c39bb860048201529091506000906001600160a01b03851690639283ae3a9060240160206040518083038186803b15801561303757600080fd5b505afa15801561304b573d6000803e3d6000fd5b505050506040513d601f19601f8201168201806040525081019061306f9190614de5565b9050600082600381111561309357634e487b7160e01b600052602160045260246000fd5b148061316a575060038260038111156130bc57634e487b7160e01b600052602160045260246000fd5b14801561316a5750604051634941d71d60e11b81527f533afc15b6312917b5e28e2272ea69d44e5ea8e00d3bd57cada1275c2f14c9e8600482015281906001600160a01b03861690639283ae3a9060240160206040518083038186803b15801561312557600080fd5b505afa158015613139573d6000803e3d6000fd5b505050506040513d601f19601f8201168201806040525081019061315d9190614de5565b613167919061551a565b42115b806132405750600282600381111561319257634e487b7160e01b600052602160045260246000fd5b1480156132405750604051634941d71d60e11b81527f9ce69cf04065e3c7823cc5540c0598d8a694bd7a9a5a2a786d8bccf14ed6e2ea600482015281906001600160a01b03861690639283ae3a9060240160206040518083038186803b1580156131fb57600080fd5b505afa15801561320f573d6000803e3d6000fd5b505050506040513d601f19601f820116820180604052508101906132339190614de5565b61323d919061551a565b42115b61066c5760405162461bcd60e51b815260206004820152600b60248201527f46554e445f504552494f440000000000000000000000000000000000000000006044820152606401612668565b6060816132cc57505060408051808201909152600181527f3000000000000000000000000000000000000000000000000000000000000000602082015290565b8160005b81156132f657806132e0816155be565b91506132ef9050600a83615532565b91506132d0565b60008167ffffffffffffffff81111561331f57634e487b7160e01b600052604160045260246000fd5b6040519080825280601f01601f191660200182016040528015613349576020820181803683370190505b5090505b84156133da5761335e600183615546565b915061336b600a86615617565b61337690603061551a565b60f81b81838151811061339957634e487b7160e01b600052603260045260246000fd5b60200101907effffffffffffffffffffffffffffffffffffffffffffffffffffffffffffff1916908160001a9053506133d3600a86615532565b945061334d565b949350505050565b60008151600014156133f657506000919050565b506020015190565b6000613413836001600160a01b038416614800565b9392505050565b6040517fb73dc389000000000000000000000000000000000000000000000000000000008152600481018290526001600160a01b0383169063b73dc38990602401600060405180830381600087803b15801561347557600080fd5b505af1158015613489573d6000803e3d6000fd5b50506040516317ba7d8560e01b81527fd3999c37f8f35da86f802a74f9bf032c4aeb46e49abd9c861f489ef4cb40d0a86004820152600092506001600160a01b03851691506317ba7d859060240160206040518083038186803b1580156134ef57600080fd5b505afa158015613503573d6000803e3d6000fd5b505050506040513d601f19601f820116820180604052508101906135279190614b18565b604080516020810182526000815290517f26078cd00000000000000000000000000000000000000000000000000000000081529192506001600160a01b038316916326078cd091613581918791879142919060040161541a565b600060405180830381600087803b15801561359b57600080fd5b505af11580156135af573d6000803e3d6000fd5b50506040517f815a2bf4000000000000000000000000000000000000000000000000000000008152600481018590526001600160a01b0384811660248301528616925063815a2bf49150604401612949565b6040516317ba7d8560e01b81527f145d8ebc4d7403f3cd60312331619ffb262c52c22bedf24c0148027dd4be3b0160048201526000906001600160a01b038416906317ba7d859060240160206040518083038186803b15801561366357600080fd5b505afa158015613677573d6000803e3d6000fd5b505050506040513d601f19601f8201168201806040525081019061369b9190614b18565b6002830154600384015460058501546004860154865460009081526008602052604090209495506001600160a01b0380871695638217b1aa958a9560ff8083169660018d0196610100909404909116949193909290911690612db8906147f3565b6040516317ba7d8560e01b81527f145d8ebc4d7403f3cd60312331619ffb262c52c22bedf24c0148027dd4be3b0160048201526000906001600160a01b038416906317ba7d859060240160206040518083038186803b15801561375e57600080fd5b505afa158015613772573d6000803e3d6000fd5b505050506040513d601f19601f820116820180604052508101906137969190614b18565b60408051610120810182526005850154815260078501546020808301919091526008860154828401526001860154606083015260028601546080830152600486015460a0830152600386015460c0830152600986015460e0830152600a8087015461010084015260068701548754600090815291909252929092209293506001600160a01b0380851693638faeecd1938893921690600d880190613839906147f3565b6040518663ffffffff1660e01b8152600401612949959493929190615271565b6040516317ba7d8560e01b81527faaff643bdbd909f604d46ce015336f7e20fee3ac4a55cef3610188dee176c892600482015260009081906001600160a01b038516906317ba7d859060240160206040518083038186803b1580156138bd57600080fd5b505afa1580156138d1573d6000803e3d6000fd5b505050506040513d601f19601f820116820180604052508101906138f59190614b18565b6040516317ba7d8560e01b81527fa837e34a29b67bf52f684a1c93def79b84b9c012732becee4e5df62809df64ed60048201529091506000906001600160a01b038616906317ba7d859060240160206040518083038186803b15801561395a57600080fd5b505afa15801561396e573d6000803e3d6000fd5b505050506040513d601f19601f820116820180604052508101906139929190614b18565b6040516317ba7d8560e01b81527f1fa6846b165d822fff79e37c67625706652fa9380c2aa49fd513ce534cc72ed460048201529091506000906001600160a01b038716906317ba7d859060240160206040518083038186803b1580156139f757600080fd5b505afa158015613a0b573d6000803e3d6000fd5b505050506040513d601f19601f82011682018060405250810190613a2f9190614b18565b604051634941d71d60e11b81527f686efe7bd1699b408d306db6bbee658ed667971c52d48d6912d7ee496e36e62760048201529091506000906001600160a01b03881690639283ae3a9060240160206040518083038186803b158015613a9457600080fd5b505afa158015613aa8573d6000803e3d6000fd5b505050506040513d601f19601f82011682018060405250810190613acc9190614de5565b604051634941d71d60e11b81527fb75eae231d9582c6afc6491273df4a0ffbccd48ab2c48dbce59e5d68f2d19dc460048201529091506000906001600160a01b03891690639283ae3a9060240160206040518083038186803b158015613b3157600080fd5b505afa158015613b45573d6000803e3d6000fd5b505050506040513d601f19601f82011682018060405250810190613b699190614de5565b9050806001141561416757604051634941d71d60e11b81527e634460a4b60c2e1bf8c87bfc42b6b68fd2a71f4bb2d760816eabc5038b503660048201526000906001600160a01b038a1690639283ae3a9060240160206040518083038186803b158015613bd557600080fd5b505afa158015613be9573d6000803e3d6000fd5b505050506040513d601f19601f82011682018060405250810190613c0d9190614de5565b6040517ffd310d290000000000000000000000000000000000000000000000000000000081527fcd9b30ab6388c165d825b60b7d393528191ba59d975b4b1b52b7184b63b8a97c60048201529091506000906001600160a01b038b169063fd310d299060240160206040518083038186803b158015613c8b57600080fd5b505afa158015613c9f573d6000803e3d6000fd5b505050506040513d601f19601f82011682018060405250810190613cc39190614b18565b9050600084613d62576040516370a0823160e01b81526001600160a01b038b81166004830152670de0b6b3a764000091908416906370a08231906024015b60206040518083038186803b158015613d1957600080fd5b505afa158015613d2d573d6000803e3d6000fd5b505050506040513d601f19601f82011682018060405250810190613d519190614de5565b613d5b9190615532565b90506140f8565b8460011415613de5576040516370a0823160e01b81526001600160a01b038b811660048301528316906370a08231906024015b60206040518083038186803b158015613dad57600080fd5b505afa158015613dc1573d6000803e3d6000fd5b505050506040513d601f19601f82011682018060405250810190613d5b9190614de5565b8460021415613e3a576040517efdd58e0000000000000000000000000000000000000000000000000000000081526001600160a01b038b811660048301526024820185905283169062fdd58e90604401613d95565b8460031415613e92576040517fa6d945cc0000000000000000000000000000000000000000000000000000000081526001600160a01b038c811660048301528b8116602483015287169063a6d945cc90604401613d95565b84600414156140e75760026040516301ee1a2b60e41b81526001600160a01b038d811660048301528a1690631ee1a2b09060240160206040518083038186803b158015613ede57600080fd5b505afa158015613ef2573d6000803e3d6000fd5b505050506040513d601f19601f82011682018060405250810190613f169190614d32565b6003811115613f3557634e487b7160e01b600052602160045260246000fd5b148015613fd75750604051634941d71d60e11b81527f9ce69cf04065e3c7823cc5540c0598d8a694bd7a9a5a2a786d8bccf14ed6e2ea60048201526001600160a01b038c1690639283ae3a9060240160206040518083038186803b158015613f9c57600080fd5b505afa158015613fb0573d6000803e3d6000fd5b505050506040513d601f19601f82011682018060405250810190613fd49190614de5565b42105b801561407757506040517f4fc0a76d0000000000000000000000000000000000000000000000000000000081526001600160a01b038c8116600483015260019190891690634fc0a76d9060240160206040518083038186803b15801561403c57600080fd5b505afa158015614050573d6000803e3d6000fd5b505050506040513d601f19601f820116820180604052508101906140749190614de5565b10155b156140d6576040517ff7888aec0000000000000000000000000000000000000000000000000000000081526001600160a01b038c811660048301528b81166024830152670de0b6b3a764000091908a169063f7888aec90604401613d01565b600198505050505050505050612ca8565b600098505050505050505050612ca8565b6000811161411157600098505050505050505050612ca8565b677fffffffffffffff811061413157603298505050505050505050612ca8565b600061414c6141476141428461484f565b61486d565b61496f565b67ffffffffffffffff169950612ca898505050505050505050565b806002141561417e57600195505050505050612ca8565b806146f457604051634941d71d60e11b81527e634460a4b60c2e1bf8c87bfc42b6b68fd2a71f4bb2d760816eabc5038b503660048201526000906001600160a01b038a1690639283ae3a9060240160206040518083038186803b1580156141e457600080fd5b505afa1580156141f8573d6000803e3d6000fd5b505050506040513d601f19601f8201168201806040525081019061421c9190614de5565b6040517ffd310d290000000000000000000000000000000000000000000000000000000081527fcd9b30ab6388c165d825b60b7d393528191ba59d975b4b1b52b7184b63b8a97c60048201529091506000906001600160a01b038b169063fd310d299060240160206040518083038186803b15801561429a57600080fd5b505afa1580156142ae573d6000803e3d6000fd5b505050506040513d601f19601f820116820180604052508101906142d29190614b18565b9050600084614371576040516370a0823160e01b81526001600160a01b038b81166004830152670de0b6b3a764000091908416906370a08231906024015b60206040518083038186803b15801561432857600080fd5b505afa15801561433c573d6000803e3d6000fd5b505050506040513d601f19601f820116820180604052508101906143609190614de5565b61436a9190615532565b90506146e5565b84600114156143f4576040516370a0823160e01b81526001600160a01b038b811660048301528316906370a08231906024015b60206040518083038186803b1580156143bc57600080fd5b505afa1580156143d0573d6000803e3d6000fd5b505050506040513d601f19601f8201168201806040525081019061436a9190614de5565b8460021415614449576040517efdd58e0000000000000000000000000000000000000000000000000000000081526001600160a01b038b811660048301526024820185905283169062fdd58e906044016143a4565b84600314156144a1576040517fa6d945cc0000000000000000000000000000000000000000000000000000000081526001600160a01b038c811660048301528b8116602483015287169063a6d945cc906044016143a4565b84600414156140e75760026040516301ee1a2b60e41b81526001600160a01b038d811660048301528a1690631ee1a2b09060240160206040518083038186803b1580156144ed57600080fd5b505afa158015614501573d6000803e3d6000fd5b505050506040513d601f19601f820116820180604052508101906145259190614d32565b600381111561454457634e487b7160e01b600052602160045260246000fd5b1480156145e65750604051634941d71d60e11b81527f9ce69cf04065e3c7823cc5540c0598d8a694bd7a9a5a2a786d8bccf14ed6e2ea60048201526001600160a01b038c1690639283ae3a9060240160206040518083038186803b1580156145ab57600080fd5b505afa1580156145bf573d6000803e3d6000fd5b505050506040513d601f19601f820116820180604052508101906145e39190614de5565b42105b801561468657506040517f4fc0a76d0000000000000000000000000000000000000000000000000000000081526001600160a01b038c8116600483015260019190891690634fc0a76d9060240160206040518083038186803b15801561464b57600080fd5b505afa15801561465f573d6000803e3d6000fd5b505050506040513d601f19601f820116820180604052508101906146839190614de5565b10155b156140d6576040517ff7888aec0000000000000000000000000000000000000000000000000000000081526001600160a01b038c811660048301528b81166024830152670de0b6b3a764000091908a169063f7888aec90604401614310565b9750612ca89650505050505050565b600095505050505050612ca8565b8160200151156147b85781606001516001600160a01b0316635e5eb01384835a865161472e9190615546565b60408088015190517fffffffff0000000000000000000000000000000000000000000000000000000060e087901b1681526001600160a01b03948516600482015293909216602484015260448301526064820152608401600060405180830381600087803b15801561479f57600080fd5b505af11580156147b3573d6000803e3d6000fd5b505050505b826001600160a01b031663d4f7af436040518163ffffffff1660e01b8152600401600060405180830381600087803b15801561296357600080fd5b606060006134138361498b565b600081815260018301602052604081205461484757508154600181810184556000848152602080822090930184905584548482528286019093526040902091909155612ca8565b506000612ca8565b6000677fffffffffffffff82111561486657600080fd5b5060401b90565b60008082600f0b1361487e57600080fd5b6000600f83900b68010000000000000000811261489d576040918201911d5b64010000000081126148b1576020918201911d5b6201000081126148c3576010918201911d5b61010081126148d4576008918201911d5b601081126148e4576004918201911d5b600481126148f4576002918201911d5b60028112614903576001820191505b7fffffffffffffffffffffffffffffffffffffffffffffffffffffffffffffffc0820160401b600f85900b607f8490031b6780000000000000005b60008113156149645790800260ff81901c8281029390930192607f011c9060011d61493e565b509095945050505050565b60008082600f0b121561498157600080fd5b50600f0b60401d90565b6060816000018054806020026020016040519081016040528092919081815260200182805480156149db57602002820191906000526020600020905b8154815260200190600101908083116149c7575b50505050509050919050565b828054828255906000526020600020908101928215614a22579160200282015b82811115614a22578251825591602001919060010190614a07565b50614a2e929150614aa5565b5090565b828054614a3e90615589565b90600052602060002090601f016020900481019282614a605760008555614a22565b82601f10614a7957805160ff1916838001178555614a22565b82800160010185558215614a225791820182811115614a22578251825591602001919060010190614a07565b5b80821115614a2e5760008155600101614aa6565b8051614ac58161568e565b919050565b60006101008284031215612848578081fd5b80516fffffffffffffffffffffffffffffffff81168114614ac557600080fd5b600060208284031215614b0d578081fd5b81356134138161568e565b600060208284031215614b29578081fd5b81516134138161568e565b60008060408385031215614b46578081fd5b8235614b518161568e565b946020939093013593505050565b60006020808385031215614b71578182fd5b825167ffffffffffffffff80821115614b88578384fd5b818501915085601f830112614b9b578384fd5b815181811115614bad57614bad615657565b8060051b604051601f19603f83011681018181108582111715614bd257614bd2615657565b604052828152858101935084860182860187018a1015614bf0578788fd5b8795505b83861015614c1957614c0581614aba565b855260019590950194938601938601614bf4565b5098975050505050505050565b600060208284031215614c37578081fd5b8135613413816156a3565b600060208284031215614c53578081fd5b8151613413816156a3565b60008060408385031215614c70578182fd5b8251614c7b816156a3565b6020939093015192949293505050565b600080600060608486031215614c9f578081fd5b8335614caa8161568e565b92506020840135614cba816156a3565b929592945050506040919091013590565b60008060408385031215614b46578182fd5b60008060408385031215614cef578182fd5b8235614cfa8161568e565b9150602083013567ffffffffffffffff811115614d15578182fd5b83016101808186031215614d27578182fd5b809150509250929050565b600060208284031215614d43578081fd5b815160048110613413578182fd5b600080600060608486031215614d65578081fd5b835160068110614d73578182fd5b9250614d8160208501614adc565b9150614d8f60408501614adc565b90509250925092565b600060208284031215614da9578081fd5b813567ffffffffffffffff811115614dbf578182fd5b6133da84828501614aca565b600060208284031215614ddc578081fd5b61341382614adc565b600060208284031215614df6578081fd5b5051919050565b600060208284031215614e0e578081fd5b813560ff81168114613413578182fd5b6000815180845260208085019450808401835b83811015614e565781516001600160a01b031687529582019590820190600101614e31565b509495945050505050565b60008151808452614e7981602086016020860161555d565b601f01601f19169290920160200192915050565b614e968161566d565b9052565b7fffffffffffffffff000000000000000000000000000000000000000000000000831681527f496e766573746f722d4361702300000000000000000000000000000000000000600882015260008251614efa81601585016020870161555d565b919091016015019392505050565b7fffffffffffffffff000000000000000000000000000000000000000000000000831681527f766f74696e672300000000000000000000000000000000000000000000000000600882015260008251614f6881600f85016020870161555d565b91909101600f019392505050565b7fffffffffffffffff000000000000000000000000000000000000000000000000831681527f476f7665726e6f722d4d656d6265727368697023000000000000000000000000600882015260008251614fd681601c85016020870161555d565b91909101601c019392505050565b7fffffffffffffffff000000000000000000000000000000000000000000000000831681527f496e766573746f722d4d656d6265727368697023000000000000000000000000600882015260008251614fd681601c85016020870161555d565b6001600160a01b03881681526020810187905260e081016150648761566d565b604082019690965260608101949094526fffffffffffffffffffffffffffffffff928316608085015290821660a08401521660c09091015292915050565b6001600160a01b038416815260208101839052606081016150c28361566d565b826040830152949350505050565b600060a08201905086151582528560208301528460408301528360608301526150f88361566d565b8260808301529695505050505050565b60006101408c83528060208401526151228184018d614e61565b915050891515604083015260ff891660608301528760808301526001600160a01b03871660a08301528560c08301528460e0830152836101008301526151678361566d565b826101208301529b9a5050505050505050505050565b60006101e088835260206151b48185018a805182526020810151602083015260408101516040830152606081015160608301525050565b875160a0850152808801516001600160a01b031660c085015260408089015160e08601526060808a015161010087015288516101208701526020890151610140870152908801516101608601528701516101808501526101a0840182905285519184018190528151610200850181905261022085019282019084905b808210156152505782518552938301939183019160019190910190615230565b50505050809150506152666101c0830184614e8d565b979650505050505050565b60006101a08083016001600160a01b03808a16855260208086018a865b60098110156152ab5781518352918301919083019060010161528e565b5050509088166101408601526101608501929092528554908190528583528183206101c0850192909190845b828110156152f3578354855293810193600193840193016152d7565b5050505082810361018084015261530a8185614e1e565b98975050505050505050565b60006101006001600160a01b038b16835260208a151581850152816040850152828a54848160011c9050600182168061535057607f821691505b84821081141561536e57634e487b7160e01b87526022600452602487fd5b9487018181526020019480801561538c576001811461539d576153c9565b60ff198416875285870194506153c9565b60008f815260209020885b848110156153c35781548982015260019091019087016153a8565b88019550505b50505060ff8b166060870152508860808601528760a08601526153f760c08601886001600160a01b03169052565b84810360e08601526154098187614e1e565b9d9c50505050505050505050505050565b6001600160a01b03851681528360208201528260408201526080606082015260006154486080830184614e61565b9695505050505050565b6000808335601e19843603018112615468578283fd5b83018035915067ffffffffffffffff821115615482578283fd5b6020019150600581901b360382131561549a57600080fd5b9250929050565b6000808335601e198436030181126154b7578283fd5b83018035915067ffffffffffffffff8211156154d1578283fd5b60200191503681900382131561549a57600080fd5b60006fffffffffffffffffffffffffffffffff8083168185168083038211156155115761551161562b565b01949350505050565b6000821982111561552d5761552d61562b565b500190565b60008261554157615541615641565b500490565b6000828210156155585761555861562b565b500390565b60005b83811015615578578181015183820152602001615560565b8381111561066c5750506000910152565b600181811c9082168061559d57607f821691505b6020821081141561284857634e487b7160e01b600052602260045260246000fd5b60007fffffffffffffffffffffffffffffffffffffffffffffffffffffffffffffffff8214156155f0576155f061562b565b5060010190565b600060ff821660ff81141561560e5761560e61562b565b60010192915050565b60008261562657615626615641565b500690565b634e487b7160e01b600052601160045260246000fd5b634e487b7160e01b600052601260045260246000fd5b634e487b7160e01b600052604160045260246000fd5b6004811061568b57634e487b7160e01b600052602160045260246000fd5b50565b6001600160a01b038116811461568b57600080fd5b801515811461568b57600080fdfea26469706673582212202f6e9f628e3f9557e9185eca5138d55ccb5064bc93b321f5d5ed57ea2f9d29fa64736f6c63430008040033",
  "linkReferences": {},
  "deployedLinkReferences": {}
}