{
  "_format": "hh-sol-artifact-1",
  "contractName": "VintageVesting",
  "sourceName": "contracts/vintage/adapters/VintageVesting.sol",
  "abi": [
    {
      "inputs": [],
      "stateMutability": "nonpayable",
      "type": "constructor"
    },
    {
      "inputs": [],
      "name": "Invalid_Vesting_Time_Setting",
      "type": "error"
    },
    {
      "inputs": [],
      "name": "NotOwner",
      "type": "error"
    },
    {
      "inputs": [],
      "name": "NotVestReceiver",
      "type": "error"
    },
    {
      "anonymous": false,
      "inputs": [
        {
          "indexed": true,
          "internalType": "uint256",
          "name": "vestId",
          "type": "uint256"
        },
        {
          "indexed": true,
          "internalType": "uint256",
          "name": "ownerAmount",
          "type": "uint256"
        },
        {
          "indexed": true,
          "internalType": "uint256",
          "name": "recipientAmount",
          "type": "uint256"
        },
        {
          "indexed": false,
          "internalType": "address",
          "name": "token",
          "type": "address"
        },
        {
          "indexed": false,
          "internalType": "bool",
          "name": "toBentoBox",
          "type": "bool"
        }
      ],
      "name": "CancelVesting",
      "type": "event"
    },
    {
      "anonymous": false,
      "inputs": [
        {
          "indexed": true,
          "internalType": "uint256",
          "name": "vestId",
          "type": "uint256"
        },
        {
          "indexed": false,
          "internalType": "address",
          "name": "token",
          "type": "address"
        },
        {
          "indexed": true,
          "internalType": "address",
          "name": "recipient",
          "type": "address"
        },
        {
          "indexed": false,
          "internalType": "uint32",
          "name": "start",
          "type": "uint32"
        },
        {
          "indexed": false,
          "internalType": "uint32",
          "name": "cliffDuration",
          "type": "uint32"
        },
        {
          "indexed": false,
          "internalType": "uint32",
          "name": "stepDuration",
          "type": "uint32"
        },
        {
          "indexed": false,
          "internalType": "uint32",
          "name": "steps",
          "type": "uint32"
        },
        {
          "indexed": false,
          "internalType": "uint128",
          "name": "cliffShares",
          "type": "uint128"
        },
        {
          "indexed": false,
          "internalType": "uint128",
          "name": "stepShares",
          "type": "uint128"
        },
        {
          "indexed": false,
          "internalType": "bytes32",
          "name": "proposalId",
          "type": "bytes32"
        }
      ],
      "name": "CreateVesting",
      "type": "event"
    },
    {
      "anonymous": false,
      "inputs": [
        {
          "indexed": true,
          "internalType": "uint256",
          "name": "vestId",
          "type": "uint256"
        },
        {
          "indexed": true,
          "internalType": "address",
          "name": "newOwner",
          "type": "address"
        }
      ],
      "name": "LogUpdateOwner",
      "type": "event"
    },
    {
      "anonymous": false,
      "inputs": [
        {
          "indexed": true,
          "internalType": "uint256",
          "name": "vestId",
          "type": "uint256"
        },
        {
          "indexed": true,
          "internalType": "address",
          "name": "token",
          "type": "address"
        },
        {
          "indexed": true,
          "internalType": "uint256",
          "name": "amount",
          "type": "uint256"
        },
        {
          "indexed": false,
          "internalType": "bool",
          "name": "toBentoBox",
          "type": "bool"
        }
      ],
      "name": "Withdraw",
      "type": "event"
    },
    {
      "inputs": [],
      "name": "PERCENTAGE_PRECISION",
      "outputs": [
        {
          "internalType": "uint256",
          "name": "",
          "type": "uint256"
        }
      ],
      "stateMutability": "view",
      "type": "function"
    },
    {
      "inputs": [
        {
          "internalType": "contract DaoRegistry",
          "name": "dao",
          "type": "address"
        },
        {
          "internalType": "address",
          "name": "recipientAddr",
          "type": "address"
        },
        {
          "internalType": "bytes32",
          "name": "proposalId",
          "type": "bytes32"
        }
      ],
      "name": "createVesting",
      "outputs": [],
      "stateMutability": "payable",
      "type": "function"
    },
    {
      "inputs": [
        {
          "internalType": "address",
          "name": "token",
          "type": "address"
        },
        {
          "internalType": "uint256",
          "name": "tokenId",
          "type": "uint256"
        }
      ],
      "name": "getRemainingPercentage",
      "outputs": [
        {
          "internalType": "uint256",
          "name": "",
          "type": "uint256"
        },
        {
          "internalType": "uint256",
          "name": "",
          "type": "uint256"
        },
        {
          "internalType": "uint256",
          "name": "",
          "type": "uint256"
        }
      ],
      "stateMutability": "view",
      "type": "function"
    },
    {
      "inputs": [
        {
          "internalType": "address",
          "name": "token",
          "type": "address"
        },
        {
          "internalType": "uint256",
          "name": "tokenId",
          "type": "uint256"
        }
      ],
      "name": "getVestIdByTokenId",
      "outputs": [
        {
          "internalType": "uint256",
          "name": "",
          "type": "uint256"
        }
      ],
      "stateMutability": "view",
      "type": "function"
    },
    {
      "inputs": [
        {
          "internalType": "address",
          "name": "",
          "type": "address"
        },
        {
          "internalType": "uint256",
          "name": "",
          "type": "uint256"
        }
      ],
      "name": "tokenIdToVestId",
      "outputs": [
        {
          "internalType": "uint256",
          "name": "",
          "type": "uint256"
        }
      ],
      "stateMutability": "view",
      "type": "function"
    },
    {
      "inputs": [
        {
          "internalType": "uint256",
          "name": "vestId",
          "type": "uint256"
        },
        {
          "internalType": "address",
          "name": "newOwner",
          "type": "address"
        }
      ],
      "name": "updateOwner",
      "outputs": [],
      "stateMutability": "nonpayable",
      "type": "function"
    },
    {
      "inputs": [
        {
          "internalType": "uint256",
          "name": "vestId",
          "type": "uint256"
        }
      ],
      "name": "vestBalance",
      "outputs": [
        {
          "internalType": "uint256",
          "name": "",
          "type": "uint256"
        }
      ],
      "stateMutability": "view",
      "type": "function"
    },
    {
      "inputs": [],
      "name": "vestIds",
      "outputs": [
        {
          "internalType": "uint256",
          "name": "",
          "type": "uint256"
        }
      ],
      "stateMutability": "view",
      "type": "function"
    },
    {
      "inputs": [
        {
          "internalType": "uint256",
          "name": "",
          "type": "uint256"
        }
      ],
      "name": "vests",
      "outputs": [
        {
          "internalType": "bytes32",
          "name": "proposalId",
          "type": "bytes32"
        },
        {
          "internalType": "uint128",
          "name": "claimed",
          "type": "uint128"
        },
        {
          "internalType": "uint256",
          "name": "total",
          "type": "uint256"
        },
        {
          "components": [
            {
              "internalType": "uint32",
              "name": "steps",
              "type": "uint32"
            },
            {
              "internalType": "uint128",
              "name": "cliffShares",
              "type": "uint128"
            },
            {
              "internalType": "uint128",
              "name": "stepShares",
              "type": "uint128"
            }
          ],
          "internalType": "struct IVesting.StepInfo",
          "name": "stepInfo",
          "type": "tuple"
        },
        {
          "components": [
            {
              "internalType": "uint32",
              "name": "start",
              "type": "uint32"
            },
            {
              "internalType": "uint32",
              "name": "end",
              "type": "uint32"
            },
            {
              "internalType": "uint32",
              "name": "cliffDuration",
              "type": "uint32"
            },
            {
              "internalType": "uint32",
              "name": "stepDuration",
              "type": "uint32"
            }
          ],
          "internalType": "struct IVesting.TimeInfo",
          "name": "timeInfo",
          "type": "tuple"
        },
        {
          "components": [
            {
              "internalType": "address",
              "name": "nftToken",
              "type": "address"
            },
            {
              "internalType": "uint256",
              "name": "tokenId",
              "type": "uint256"
            }
          ],
          "internalType": "struct IVesting.VestNFTInfo",
          "name": "nftInfo",
          "type": "tuple"
        },
        {
          "components": [
            {
              "internalType": "string",
              "name": "name",
              "type": "string"
            },
            {
              "internalType": "string",
              "name": "description",
              "type": "string"
            },
            {
              "internalType": "address",
              "name": "owner",
              "type": "address"
            },
            {
              "internalType": "address",
              "name": "recipient",
              "type": "address"
            },
            {
              "internalType": "address",
              "name": "token",
              "type": "address"
            }
          ],
          "internalType": "struct IVesting.VestInfo",
          "name": "vestInfo",
          "type": "tuple"
        }
      ],
      "stateMutability": "view",
      "type": "function"
    },
    {
      "inputs": [
        {
          "internalType": "contract DaoRegistry",
          "name": "dao",
          "type": "address"
        },
        {
          "internalType": "uint256",
          "name": "vestId",
          "type": "uint256"
        }
      ],
      "name": "withdraw",
      "outputs": [],
      "stateMutability": "nonpayable",
      "type": "function"
    }
  ],
  "bytecode": "0x608060405234801561001057600080fd5b506001600255612ca8806100256000396000f3fe6080604052600436106100b15760003560e01c806351def556116100695780637a4334e21161004e5780637a4334e2146101e2578063e256888f1461021d578063f3fef3a31461023957600080fd5b806351def5561461018f5780637192711f146101c257600080fd5b80632c29e1961161009a5780632c29e196146100ff5780633427dd67146101425780633ae9bc031461017a57600080fd5b806319f77171146100b65780632bcea736146100e9575b600080fd5b3480156100c257600080fd5b506100d66100d1366004612883565b610259565b6040519081526020015b60405180910390f35b3480156100f557600080fd5b506100d660025481565b34801561010b57600080fd5b506100d661011a36600461271b565b6001600160a01b03919091166000908152600160209081526040808320938352929052205490565b34801561014e57600080fd5b506100d661015d36600461271b565b600160209081526000928352604080842090915290825290205481565b61018d610188366004612831565b6104d6565b005b34801561019b57600080fd5b506101af6101aa366004612883565b611007565b6040516100e097969594939291906129c6565b3480156101ce57600080fd5b5061018d6101dd3660046128b3565b61123e565b3480156101ee57600080fd5b506102026101fd36600461271b565b6112ef565b604080519384526020840192909252908201526060016100e0565b34801561022957600080fd5b506100d6670de0b6b3a764000081565b34801561024557600080fd5b5061018d610254366004612871565b6113ed565b600081815260208181526040808320815160e0810183528154815260018201546001600160801b0390811682860152600283015482850152835160608181018652600385015463ffffffff8082168452640100000000918290048516848a015260048701549094168388015281850192909252855160808181018852600587015480861683529384048516828a01526801000000000000000084048516828901526c01000000000000000000000000909304909316908301528201528251808401845260068301546001600160a01b0316815260078301549481019490945260a0808201949094528251938401909252600881018054859460c085019290918290829061036590612bae565b80601f016020809104026020016040519081016040528092919081815260200182805461039190612bae565b80156103de5780601f106103b3576101008083540402835291602001916103de565b820191906000526020600020905b8154815290600101906020018083116103c157829003601f168201915b505050505081526020016001820180546103f790612bae565b80601f016020809104026020016040519081016040528092919081815260200182805461042390612bae565b80156104705780601f1061044557610100808354040283529160200191610470565b820191906000526020600020905b81548152906001019060200180831161045357829003601f168201915b505050918352505060028201546001600160a01b03908116602080840191909152600384015482166040840152600490930154166060909101529152820151919250506001600160801b03166104c58261185b565b6104cf9190612b67565b9392505050565b6104de612303565b6040516317ba7d8560e01b81527f99d271900d627893bad1d8649a7d7eb3501c339595ec52be94d222433d75560360048201526001600160a01b038516906317ba7d859060240160206040518083038186803b15801561053d57600080fd5b505afa158015610551573d6000803e3d6000fd5b505050506040513d601f19601f8201168201806040525081019061057591906126ff565b6001600160a01b039081166101408301819052608083018190526040517f7d15e7b9000000000000000000000000000000000000000000000000000000008152868316600482015291851660248301526044820184905290637d15e7b99060640160206040518083038186803b1580156105ee57600080fd5b505afa158015610602573d6000803e3d6000fd5b505050506040513d601f19601f820116820180604052508101906106269190612817565b610691576040517f08c379a000000000000000000000000000000000000000000000000000000000815260206004820152600960248201527f21656c696769626c65000000000000000000000000000000000000000000000060448201526064015b60405180910390fd5b60808101516040517f6cb4e9eb0000000000000000000000000000000000000000000000000000000081526001600160a01b03868116600483015260248201859052858116604483015290911690636cb4e9eb9060640160206040518083038186803b15801561070057600080fd5b505afa158015610714573d6000803e3d6000fd5b505050506040513d601f19601f820116820180604052508101906107389190612817565b1561079f576040517f08c379a000000000000000000000000000000000000000000000000000000000815260206004820152600f60248201527f416c7265616479204372656174656400000000000000000000000000000000006044820152606401610688565b6040516317ba7d8560e01b81527f0fd8cce4ef00a7a8c0c5f91194bc80f122deefe664dd2a2384687da62ab117d160048201526001600160a01b038516906317ba7d859060240160206040518083038186803b1580156107fe57600080fd5b505afa158015610812573d6000803e3d6000fd5b505050506040513d601f19601f8201168201806040525081019061083691906126ff565b6001600160a01b0390811660a083015260808201516040517f1190b0a60000000000000000000000000000000000000000000000000000000081528683166004820152602481018590528583166044820152911690631190b0a690606401604080518083038186803b1580156108ab57600080fd5b505afa1580156108bf573d6000803e3d6000fd5b505050506040513d601f19601f820116820180604052508101906108e391906128e2565b5060e082015260808101516040517f40c508f80000000000000000000000000000000000000000000000000000000081526001600160a01b038681166004830152858116602483015260448201859052909116906340c508f89060640160206040518083038186803b15801561095857600080fd5b505afa15801561096c573d6000803e3d6000fd5b505050506040513d601f19601f82011682018060405250810190610990919061289b565b8160e0018181516109a19190612ad1565b90525060a08101516040517f5cb752760000000000000000000000000000000000000000000000000000000081526001600160a01b0386811660048301526024820185905290911690635cb752769060440160006040518083038186803b158015610a0b57600080fd5b505afa158015610a1f573d6000803e3d6000fd5b505050506040513d6000823e601f3d908101601f19168201604052610a479190810190612746565b50506101808a0152610160890181905260400151159650869550610a78945050505050575061016081015160800151155b80610a8a575061016081015160600151155b80610a9c575061016081015160c00151155b15610ad3576040517f4268c29100000000000000000000000000000000000000000000000000000000815260040160405180910390fd5b610af48482610180015160200151836101400151308560e00151600061198b565b81526101608101516080810151606090910151610b119190612b67565b60c08083018290526101608301510151610b2a91612b08565b61012082015261016081015160c0908101519082015111610b4e5760016101208201525b80610160015160c001518160c001511115610bf0578060c0015181610160015160c00151610b7c9190612c04565b610ba05780610160015160c001518160c00151610b999190612b08565b6101208201525b8060c0015181610160015160c00151826101200151610bbf9190612b1c565b1015610bf05780610160015160c001518160c00151610bde9190612b08565b610be9906001612ad1565b6101208201525b670de0b6b3a764000081610160015160a001518260e00151610c129190612b1c565b610c1c9190612b08565b6001600160801b03166060820181905261012082015182519091610c3f91612b67565b610c499190612b08565b6001600160801b0316604082015260028054906000610c6783612be9565b9091555060208201526101808101516080015115610d575761018081015160a001516040517f40d097c30000000000000000000000000000000000000000000000000000000081526001600160a01b038581166004830152909116906340d097c390602401602060405180830381600087803b158015610ce657600080fd5b505af1158015610cfa573d6000803e3d6000fd5b505050506040513d601f19601f82011682018060405250810190610d1e919061289b565b6101a0820181905261018082015160a001516001600160a01b031660009081526001602090815260408083208286015184529091529020555b60208181015160408051608080820183523382526001600160a01b03888116838701526101808701805190960151169282019290925292510151610e7b92859160608201901515600114610dac576000610db7565b85610180015160a001515b6001600160a01b03166001600160a01b0316815250604051806101200160405280866101200151815260200186606001516001600160801b0316815260200186604001516001600160801b031681526020018660e00151815260200186610160015160400151815260200186610160015160600151815260200186610160015160800151815260200186610160015160c001518152602001866101a00151815250856101800151608001518661016001516000015187610160015160200151611c41565b60808101516040517f560dbdd70000000000000000000000000000000000000000000000000000000081526001600160a01b0386811660048301526024820185905285811660448301529091169063560dbdd790606401602060405180830381600087803b158015610eec57600080fd5b505af1158015610f00573d6000803e3d6000fd5b505050506040513d601f19601f82011682018060405250810190610f249190612817565b50826001600160a01b031681602001517f4c51f0095be9553b8e5eadbc42f96ab0b0c6526566307069cfcbecc63ea41c5283610180015160200151846101600151604001518561016001516040015186610160015160800151610f879190612b67565b61016087015160c0908101516101208901516060808b01516040808d015181516001600160a01b03909a168a5263ffffffff98891660208b015296881690890152928616908701529390931660808501526001600160801b0392831660a085015291169082015260e081018690526101000160405180910390a350505050565b60006020818152918152604090819020805460018201546002830154845160608082018752600386015463ffffffff80821684526001600160801b03640100000000928390048116858c015260048901548116858b01528951608081018b5260058a015480841682529384048316818d01526801000000000000000084048316818c01526c01000000000000000000000000909304909116928201929092528751808901895260068801546001600160a01b03168152600788015499810199909952875160a081019098526008870180549699929095169793969295909491939190829082906110f690612bae565b80601f016020809104026020016040519081016040528092919081815260200182805461112290612bae565b801561116f5780601f106111445761010080835404028352916020019161116f565b820191906000526020600020905b81548152906001019060200180831161115257829003601f168201915b5050505050815260200160018201805461118890612bae565b80601f01602080910402602001604051908101604052809291908181526020018280546111b490612bae565b80156112015780601f106111d657610100808354040283529160200191611201565b820191906000526020600020905b8154815290600101906020018083116111e457829003601f168201915b505050918352505060028201546001600160a01b039081166020830152600383015481166040830152600490920154909116606090910152905087565b6000828152602081905260409020600a8101546001600160a01b03163314611292576040517f30cd747100000000000000000000000000000000000000000000000000000000815260040160405180910390fd5b600a8101805473ffffffffffffffffffffffffffffffffffffffff19166001600160a01b03841690811790915560405184907fca0251ba80971adc7e92434b097ca40450b2a317013c51c5c5cb6ae74500bb0090600090a3505050565b600080808080808061132489896001600160a01b03919091166000908152600160209081526040808320938352929052205490565b905080156113de5760008181526020819052604090206001810154600290910154670de0b6b3a764000091611364916001600160801b0390911690612b67565b61136e9190612b08565b60008281526020819052604090206002015490935061139690670de0b6b3a764000090612b08565b60008281526020819052604090206002810154600190910154919350906113c6906001600160801b031682612b67565b6113d1906064612b1c565b6113db9190612b08565b93505b50919450925090509250925092565b6000818152602081905260409020600b81015460068201546001600160a01b039182169116156114f957600682015460078301546040517f6352211e000000000000000000000000000000000000000000000000000000008152600481019190915233916001600160a01b031690636352211e9060240160206040518083038186803b15801561147c57600080fd5b505afa158015611490573d6000803e3d6000fd5b505050506040513d601f19601f820116820180604052508101906114b491906126ff565b6001600160a01b0316146114f4576040517fe1c6117100000000000000000000000000000000000000000000000000000000815260040160405180910390fd5b61153b565b6001600160a01b038116331461153b576040517fe1c6117100000000000000000000000000000000000000000000000000000000815260040160405180910390fd5b60018201546040805160e081018252845481526001600160801b039283166020808301829052600287015483850152835160608181018652600389015463ffffffff80821684526401000000009182900489168486015260048b0154909816838801528186019290925285516080818101885260058b0154808a1683529384048916828601526801000000000000000084048916828901526c01000000000000000000000000909304909716908701528301949094528251808401845260068701546001600160a01b0316815260078701549481019490945260a08083019490945282519384019092526008850180546000946117949392889260c085019291908290829061164990612bae565b80601f016020809104026020016040519081016040528092919081815260200182805461167590612bae565b80156116c25780601f10611697576101008083540402835291602001916116c2565b820191906000526020600020905b8154815290600101906020018083116116a557829003601f168201915b505050505081526020016001820180546116db90612bae565b80601f016020809104026020016040519081016040528092919081815260200182805461170790612bae565b80156117545780601f1061172957610100808354040283529160200191611754565b820191906000526020600020905b81548152906001019060200180831161173757829003601f168201915b505050918352505060028201546001600160a01b03908116602083015260038301548116604083015260049092015490911660609091015290525061185b565b61179e9190612b67565b9050806117ac575050505050565b6001830180548291906000906117cc9084906001600160801b0316612aa6565b82546001600160801b039182166101009390930a928302919092021990911617905550600c83015461180d9086906001600160a01b031630858560006120fe565b600c8301546040516000815282916001600160a01b03169086907fff942d249898505febb2a9a00118e27567c084b9497d0aa3ba5e332c235b4f389060200160405180910390a45050505050565b60808101516040810151905160009182916118769190612ae9565b63ffffffff1690508042101561188c5750919050565b60006118988242612b67565b905060006118cd85606001516000015163ffffffff1686608001516060015163ffffffff16846118c89190612b08565b6122ed565b60808601516020810151606091820151918801515192935063ffffffff16916118f69190612b3b565b60808701516040810151905161190c9190612ae9565b6119169190612ae9565b63ffffffff16118015611936575084608001516020015163ffffffff1642115b15611949575060608401515163ffffffff165b808560600151604001516001600160801b03166119669190612b1c565b8560600151602001516001600160801b03166119829190612ad1565b95945050505050565b6040516317ba7d8560e01b81527fdfea78be99560632cc4c199ca1b0d68ffe0bbbb07b685976cefc8820374ac73a600482015260009081906001600160a01b038916906317ba7d859060240160206040518083038186803b1580156119ef57600080fd5b505afa158015611a03573d6000803e3d6000fd5b505050506040513d601f19601f82011682018060405250810190611a2791906126ff565b90508215611b63576040517fda5139ca0000000000000000000000000000000000000000000000000000000081526001600160a01b038881166004830152602482018690526000604483015282169063da5139ca9060640160206040518083038186803b158015611a9757600080fd5b505afa158015611aab573d6000803e3d6000fd5b505050506040513d601f19601f82011682018060405250810190611acf919061289b565b6040517ff18d03cc0000000000000000000000000000000000000000000000000000000081526001600160a01b03898116600483015288811660248301528781166044830152606482018390529193509082169063f18d03cc90608401600060405180830381600087803b158015611b4657600080fd5b505af1158015611b5a573d6000803e3d6000fd5b50505050611c36565b6001600160a01b03808216906302b9446c90891615611b83576000611b85565b855b6040517fffffffff0000000000000000000000000000000000000000000000000000000060e084901b1681526001600160a01b03808c166004830152808b16602483015289166044820152606481018890526000608482015260a40160408051808303818588803b158015611bf957600080fd5b505af1158015611c0d573d6000803e3d6000fd5b50505050506040513d601f19601f82011682018060405250810190611c32919061290d565b9250505b509695505050505050565b6040805160e0810182528781526000602082015290810185600360200201518152602001604051806060016040528087600060098110611c9157634e487b7160e01b600052603260045260246000fd5b602002015163ffffffff16815260200187600160098110611cc257634e487b7160e01b600052603260045260246000fd5b60200201516001600160801b0316815260200187600260098110611cf657634e487b7160e01b600052603260045260246000fd5b60200201516001600160801b03168152508152602001604051806080016040528087600460098110611d3857634e487b7160e01b600052603260045260246000fd5b602002015163ffffffff16815260200187600560098110611d6957634e487b7160e01b600052603260045260246000fd5b602002015163ffffffff16815260200187600460098110611d9a57634e487b7160e01b600052603260045260246000fd5b602002015160c0890151611dae9190612b67565b63ffffffff168152602001876007602002015163ffffffff16815250815260200160405180604001604052808615156001151514611ded576000611df3565b60608901515b6001600160a01b03168152602001876008602002015181525081526020016040518060a0016040528085815260200184815260200188600060048110611e4957634e487b7160e01b600052603260045260246000fd5b60200201516001600160a01b0316815260200188600160048110611e7d57634e487b7160e01b600052603260045260246000fd5b60200201516001600160a01b0316815260200188600260048110611eb157634e487b7160e01b600052603260045260246000fd5b602090810291909101516001600160a01b039081169092529190925260008a815280825260409081902084518155848301516001820180546001600160801b039283167fffffffffffffffffffffffffffffffff00000000000000000000000000000000918216179091558684015160028401556060808801518051600386018054838a0151871664010000000090810273ffffffffffffffffffffffffffffffffffffffff1992831663ffffffff9586161717909255928801516004880180549190971695169490941790945560808901518051600587018054838b015199840151939095015187166c01000000000000000000000000027fffffffffffffffffffffffffffffffff00000000ffffffffffffffffffffffff9388166801000000000000000002939093167fffffffffffffffffffffffffffffffff0000000000000000ffffffffffffffff9988169096027fffffffffffffffffffffffffffffffffffffffffffffffff0000000000000000909516919096161792909217959095169190911717905560a0850151805160068301805491909616931692909217909355810151600783015560c0830151805180519192600885019261207b928492019061240b565b506020828101518051612094926001850192019061240b565b50604082015160028201805473ffffffffffffffffffffffffffffffffffffffff199081166001600160a01b039384161790915560608401516003840180548316918416919091179055608090930151600490920180549093169116179055505050505050505050565b6040516317ba7d8560e01b81527fdfea78be99560632cc4c199ca1b0d68ffe0bbbb07b685976cefc8820374ac73a60048201526000906001600160a01b038816906317ba7d859060240160206040518083038186803b15801561216057600080fd5b505afa158015612174573d6000803e3d6000fd5b505050506040513d601f19601f8201168201806040525081019061219891906126ff565b90508115612230576040517ff18d03cc0000000000000000000000000000000000000000000000000000000081526001600160a01b038781166004830152868116602483015285811660448301526064820185905282169063f18d03cc90608401600060405180830381600087803b15801561221357600080fd5b505af1158015612227573d6000803e3d6000fd5b505050506122e4565b6040517f97da6d300000000000000000000000000000000000000000000000000000000081526001600160a01b0387811660048301528681166024830152858116604483015260006064830152608482018590528216906397da6d309060a4016040805180830381600087803b1580156122a957600080fd5b505af11580156122bd573d6000803e3d6000fd5b505050506040513d601f19601f820116820180604052508101906122e1919061290d565b50505b50505050505050565b60008183106122fc57816104cf565b5090919050565b604051806101c00160405280600081526020016000815260200160006001600160801b0316815260200160006001600160801b0316815260200160006001600160a01b0316815260200160006001600160a01b031681526020016000815260200160008152602001600081526020016000815260200160006001600160a01b031681526020016123c96040518060e00160405280606081526020016060815260200160008152602001600081526020016000815260200160008152602001600081525090565b81526040805160c08101825260008082526020828101829052928201819052606082018190526080820181905260a08201529101908152602001600081525090565b82805461241790612bae565b90600052602060002090601f016020900481019282612439576000855561247f565b82601f1061245257805160ff191683800117855561247f565b8280016001018555821561247f579182015b8281111561247f578251825591602001919060010190612464565b5061248b92915061248f565b5090565b5b8082111561248b5760008155600101612490565b80516124af81612c5a565b919050565b805180151581146124af57600080fd5b8051600581106124af57600080fd5b600082601f8301126124e3578081fd5b815167ffffffffffffffff808211156124fe576124fe612c44565b604051601f8301601f19908116603f0116810190828211818310171561252657612526612c44565b8160405283815286602085880101111561253e578485fd5b61254f846020830160208901612b7e565b9695505050505050565b600060c0828403121561256a578081fd5b60405160c0810181811067ffffffffffffffff8211171561258d5761258d612c44565b60405290508061259c836124b4565b815260208301516125ac81612c5a565b60208201526040838101519082015260608301516125c981612c5a565b60608201526125da608084016124b4565b608082015260a08301516125ed81612c5a565b60a0919091015292915050565b60006080828403121561260b578081fd5b6040516080810181811067ffffffffffffffff8211171561262e5761262e612c44565b8060405250809150825181526020830151602082015260408301516040820152606083015160608201525092915050565b600060e08284031215612670578081fd5b612678612a7d565b9050815167ffffffffffffffff8082111561269257600080fd5b61269e858386016124d3565b835260208401519150808211156126b457600080fd5b506126c1848285016124d3565b60208301525060408201516040820152606082015160608201526080820151608082015260a082015160a082015260c082015160c082015292915050565b600060208284031215612710578081fd5b81516104cf81612c5a565b6000806040838503121561272d578081fd5b823561273881612c5a565b946020939093013593505050565b60008060008060008060008060008060006102608c8e031215612767578687fd5b8b5161277281612c5a565b809b505060208c0151995060408c0151985060608c0151975060808c015161279981612c5a565b96506127a760a08d016124a4565b95506127b560c08d016124c4565b945060e08c015167ffffffffffffffff8111156127d0578485fd5b6127dc8e828f0161265f565b9450506127ed8d6101008e01612559565b92506127fd8d6101c08e016125fa565b91506102408c015190509295989b509295989b9093969950565b600060208284031215612828578081fd5b6104cf826124b4565b600080600060608486031215612845578283fd5b833561285081612c5a565b9250602084013561286081612c5a565b929592945050506040919091013590565b6000806040838503121561272d578182fd5b600060208284031215612894578081fd5b5035919050565b6000602082840312156128ac578081fd5b5051919050565b600080604083850312156128c5578182fd5b8235915060208301356128d781612c5a565b809150509250929050565b600080604083850312156128f4578182fd5b82519150612904602084016124b4565b90509250929050565b6000806040838503121561291f578182fd5b505080516020909101519092909150565b60008151808452612948816020860160208601612b7e565b601f01601f19169290920160200192915050565b6000815160a0845261297160a0850182612930565b90506020830151848203602086015261298a8282612930565b91505060408301516001600160a01b03808216604087015280606086015116606087015280608086015116608087015250508091505092915050565b60006101a08983526001600160801b03808a16602085015288604085015263ffffffff8089511660608601528160208a01511660808601528160408a01511660a08601528088511660c08601528060208901511660e086015280604089015116610100860152806060890151166101208601525050612a5c61014084018680516001600160a01b03168252602090810151910152565b80610180840152612a6f8184018561295c565b9a9950505050505050505050565b60405160e0810167ffffffffffffffff81118282101715612aa057612aa0612c44565b60405290565b60006001600160801b03808316818516808303821115612ac857612ac8612c18565b01949350505050565b60008219821115612ae457612ae4612c18565b500190565b600063ffffffff808316818516808303821115612ac857612ac8612c18565b600082612b1757612b17612c2e565b500490565b6000816000190483118215151615612b3657612b36612c18565b500290565b600063ffffffff80831681851681830481118215151615612b5e57612b5e612c18565b02949350505050565b600082821015612b7957612b79612c18565b500390565b60005b83811015612b99578181015183820152602001612b81565b83811115612ba8576000848401525b50505050565b600181811c90821680612bc257607f821691505b60208210811415612be357634e487b7160e01b600052602260045260246000fd5b50919050565b6000600019821415612bfd57612bfd612c18565b5060010190565b600082612c1357612c13612c2e565b500690565b634e487b7160e01b600052601160045260246000fd5b634e487b7160e01b600052601260045260246000fd5b634e487b7160e01b600052604160045260246000fd5b6001600160a01b0381168114612c6f57600080fd5b5056fea2646970667358221220c45b1cddf28e180c8b1829a9474381a223c7cd6e6cebdc3aabf5fe20f399068664736f6c63430008040033",
  "linkReferences": {},
  "deployedLinkReferences": {}
}