{
  "_format": "hh-sol-artifact-1",
  "contractName": "VintageRaiserManagementContract",
  "sourceName": "contracts/vintage/adapters/VintageRaiserManagement.sol",
  "abi": [
    {
      "anonymous": false,
      "inputs": [
        {
          "indexed": false,
          "internalType": "address",
          "name": "daoAddr",
          "type": "address"
        },
        {
          "indexed": false,
          "internalType": "bytes32",
          "name": "proposalId",
          "type": "bytes32"
        },
        {
          "indexed": false,
          "internalType": "address",
          "name": "account",
          "type": "address"
        },
        {
          "indexed": false,
          "internalType": "uint256",
          "name": "creationTime",
          "type": "uint256"
        },
        {
          "indexed": false,
          "internalType": "uint256",
          "name": "stopVoteTime",
          "type": "uint256"
        },
        {
          "indexed": false,
          "internalType": "enum VintageRaiserManagementContract.ProposalType",
          "name": "pType",
          "type": "uint8"
        }
      ],
      "name": "ProposalCreated",
      "type": "event"
    },
    {
      "anonymous": false,
      "inputs": [
        {
          "indexed": false,
          "internalType": "address",
          "name": "daoAddr",
          "type": "address"
        },
        {
          "indexed": false,
          "internalType": "bytes32",
          "name": "proposalId",
          "type": "bytes32"
        },
        {
          "indexed": false,
          "internalType": "enum VintageRaiserManagementContract.ProposalState",
          "name": "state",
          "type": "uint8"
        },
        {
          "indexed": false,
          "internalType": "uint256",
          "name": "voteResult",
          "type": "uint256"
        },
        {
          "indexed": false,
          "internalType": "uint128",
          "name": "allVotingWeight",
          "type": "uint128"
        },
        {
          "indexed": false,
          "internalType": "uint128",
          "name": "nbYes",
          "type": "uint128"
        },
        {
          "indexed": false,
          "internalType": "uint128",
          "name": "nbNo",
          "type": "uint128"
        }
      ],
      "name": "ProposalProcessed",
      "type": "event"
    },
    {
      "inputs": [
        {
          "internalType": "contract DaoRegistry",
          "name": "dao",
          "type": "address"
        }
      ],
      "name": "clearGovernorWhitelist",
      "outputs": [],
      "stateMutability": "nonpayable",
      "type": "function"
    },
    {
      "inputs": [
        {
          "internalType": "contract DaoRegistry",
          "name": "dao",
          "type": "address"
        }
      ],
      "name": "getAllGovernor",
      "outputs": [
        {
          "internalType": "address[]",
          "name": "",
          "type": "address[]"
        }
      ],
      "stateMutability": "view",
      "type": "function"
    },
    {
      "inputs": [
        {
          "internalType": "contract DaoRegistry",
          "name": "dao",
          "type": "address"
        }
      ],
      "name": "getGovernorAmount",
      "outputs": [
        {
          "internalType": "uint256",
          "name": "",
          "type": "uint256"
        }
      ],
      "stateMutability": "view",
      "type": "function"
    },
    {
      "inputs": [
        {
          "internalType": "contract DaoRegistry",
          "name": "dao",
          "type": "address"
        }
      ],
      "name": "getGovernorWhitelist",
      "outputs": [
        {
          "internalType": "address[]",
          "name": "",
          "type": "address[]"
        }
      ],
      "stateMutability": "view",
      "type": "function"
    },
    {
      "inputs": [
        {
          "internalType": "contract DaoRegistry",
          "name": "dao",
          "type": "address"
        },
        {
          "internalType": "address",
          "name": "_addr",
          "type": "address"
        }
      ],
      "name": "isActiveMember",
      "outputs": [
        {
          "internalType": "bool",
          "name": "",
          "type": "bool"
        }
      ],
      "stateMutability": "view",
      "type": "function"
    },
    {
      "inputs": [
        {
          "internalType": "contract DaoRegistry",
          "name": "dao",
          "type": "address"
        },
        {
          "internalType": "address",
          "name": "account",
          "type": "address"
        }
      ],
      "name": "isGovernorWhiteList",
      "outputs": [
        {
          "internalType": "bool",
          "name": "",
          "type": "bool"
        }
      ],
      "stateMutability": "view",
      "type": "function"
    },
    {
      "inputs": [
        {
          "internalType": "contract DaoRegistry",
          "name": "dao",
          "type": "address"
        },
        {
          "internalType": "bytes32",
          "name": "proposalId",
          "type": "bytes32"
        }
      ],
      "name": "processProposal",
      "outputs": [],
      "stateMutability": "nonpayable",
      "type": "function"
    },
    {
      "inputs": [
        {
          "internalType": "contract DaoRegistry",
          "name": "",
          "type": "address"
        },
        {
          "internalType": "bytes32",
          "name": "",
          "type": "bytes32"
        }
      ],
      "name": "proposals",
      "outputs": [
        {
          "internalType": "bytes32",
          "name": "id",
          "type": "bytes32"
        },
        {
          "internalType": "address",
          "name": "account",
          "type": "address"
        },
        {
          "internalType": "uint256",
          "name": "allocation",
          "type": "uint256"
        },
        {
          "internalType": "uint256",
          "name": "creationTime",
          "type": "uint256"
        },
        {
          "internalType": "uint256",
          "name": "stopVoteTime",
          "type": "uint256"
        },
        {
          "internalType": "enum VintageRaiserManagementContract.ProposalState",
          "name": "state",
          "type": "uint8"
        },
        {
          "internalType": "enum VintageRaiserManagementContract.ProposalType",
          "name": "pType",
          "type": "uint8"
        }
      ],
      "stateMutability": "view",
      "type": "function"
    },
    {
      "inputs": [
        {
          "internalType": "contract DaoRegistry",
          "name": "dao",
          "type": "address"
        }
      ],
      "name": "quit",
      "outputs": [],
      "stateMutability": "nonpayable",
      "type": "function"
    },
    {
      "inputs": [
        {
          "internalType": "contract DaoRegistry",
          "name": "dao",
          "type": "address"
        },
        {
          "internalType": "address",
          "name": "account",
          "type": "address"
        }
      ],
      "name": "registerGovernorWhiteList",
      "outputs": [],
      "stateMutability": "nonpayable",
      "type": "function"
    },
    {
      "inputs": [
        {
          "internalType": "contract DaoRegistry",
          "name": "dao",
          "type": "address"
        },
        {
          "internalType": "address",
          "name": "applicant",
          "type": "address"
        },
        {
          "internalType": "uint256",
          "name": "allocation",
          "type": "uint256"
        }
      ],
      "name": "submitGovernorInProposal",
      "outputs": [
        {
          "internalType": "bytes32",
          "name": "",
          "type": "bytes32"
        }
      ],
      "stateMutability": "nonpayable",
      "type": "function"
    },
    {
      "inputs": [
        {
          "internalType": "contract DaoRegistry",
          "name": "dao",
          "type": "address"
        },
        {
          "internalType": "address",
          "name": "applicant",
          "type": "address"
        }
      ],
      "name": "submitGovernorOutProposal",
      "outputs": [
        {
          "internalType": "bytes32",
          "name": "",
          "type": "bytes32"
        }
      ],
      "stateMutability": "nonpayable",
      "type": "function"
    }
  ],
  "bytecode": "0x608060405234801561001057600080fd5b50614ee3806100206000396000f3fe608060405234801561001057600080fd5b50600436106100d45760003560e01c80637bf8003c11610081578063bda4f9771161005b578063bda4f97714610217578063d32b91dd1461022a578063dab12fee1461023d57600080fd5b80637bf8003c146101ce5780638ecf7720146101e15780639573167d1461020457600080fd5b80635cb75276116100b25780635cb752761461012757806360c5c28f1461019b578063792c4106146101ae57600080fd5b806322c5c2cc146100d95780632d258e72146100ee57806333f7bc0c14610114575b600080fd5b6100ec6100e7366004614901565b610250565b005b6101016100fc366004614901565b610426565b6040519081526020015b60405180910390f35b6100ec61012236600461491d565b610437565b610188610135366004614995565b600060208181529281526040808220909352908152208054600182015460028301546003840154600485015460059095015493946001600160a01b03909316939192909160ff8082169161010090041687565b60405161010b9796959493929190614c66565b6101016101a936600461491d565b61058a565b6101c16101bc366004614901565b610892565b60405161010b9190614c19565b6101016101dc366004614955565b61089d565b6101f46101ef36600461491d565b611476565b604051901515815260200161010b565b6100ec610212366004614995565b6114fa565b6101c1610225366004614901565b611e85565b6100ec610238366004614901565b611ea9565b6101f461024b36600461491d565b61211c565b6040516317ba7d8560e01b81527f145d8ebc4d7403f3cd60312331619ffb262c52c22bedf24c0148027dd4be3b0160048201526001600160a01b038216906317ba7d859060240160206040518083038186803b1580156102af57600080fd5b505afa1580156102c3573d6000803e3d6000fd5b505050506040513d601f19601f820116820180604052508101906102e791906147d9565b6001600160a01b0316336001600160a01b03161461034c5760405162461bcd60e51b815260206004820152600760248201527f216163636573730000000000000000000000000000000000000000000000000060448201526064015b60405180910390fd5b6001600160a01b038116600090815260016020526040812061036d9061213e565b516001600160a01b03831660009081526001602052604090209091506060906103959061213e565b905081156104215760005b828160ff16101561041f5761040c828260ff16815181106103d157634e487b7160e01b600052603260045260246000fd5b602002602001015160016000876001600160a01b03166001600160a01b0316815260200190815260200160002061214b90919063ffffffff16565b508061041781614e09565b9150506103a0565b505b505050565b600061043182612160565b92915050565b6104408261233c565b806104f257506040516317ba7d8560e01b81527f145d8ebc4d7403f3cd60312331619ffb262c52c22bedf24c0148027dd4be3b0160048201526001600160a01b038316906317ba7d859060240160206040518083038186803b1580156104a557600080fd5b505afa1580156104b9573d6000803e3d6000fd5b505050506040513d601f19601f820116820180604052508101906104dd91906147d9565b6001600160a01b0316336001600160a01b0316145b61053e5760405162461bcd60e51b815260206004820152600760248201527f21616363657373000000000000000000000000000000000000000000000000006044820152606401610343565b6001600160a01b0382166000908152600160205260409020610560908261255c565b610586576001600160a01b0382166000908152600160205260409020610421908261257e565b5050565b6000826105978133612593565b8360006105a3826125e9565b60405163288c314960e21b81526001600160a01b0387811660048301529192509087169063a230c5249060240160206040518083038186803b1580156105e857600080fd5b505afa1580156105fc573d6000803e3d6000fd5b505050506040513d601f19601f8201168201806040525081019061062091906148bc565b61066c5760405162461bcd60e51b815260206004820152601760248201527f6170706c6963616e742069736e7420676f7665726e6f720000000000000000006044820152606401610343565b856001600160a01b031663250a70b76040518163ffffffff1660e01b8152600401600060405180830381600087803b1580156106a757600080fd5b505af11580156106bb573d6000803e3d6000fd5b5050505060006107668760c01b610741896001600160a01b0316633ea34b866040518163ffffffff1660e01b815260040160206040518083038186803b15801561070457600080fd5b505afa158015610718573d6000803e3d6000fd5b505050506040513d601f19601f8201168201806040525081019061073c9190614a5f565b6128b4565b604051602001610752929190614b09565b604051602081830303815290604052612a0a565b604051634941d71d60e11b81527f9876c0f0505bfb2b1c38d3bbd25ba13159172cd0868972d76927723f5a9480fc600482015290915042906000906001600160a01b038a1690639283ae3a9060240160206040518083038186803b1580156107cd57600080fd5b505afa1580156107e1573d6000803e3d6000fd5b505050506040513d601f19601f820116820180604052508101906108059190614a5f565b61080f9083614d61565b905061081e89848a8585612a26565b610838898460405180602001604052806000815250612cb1565b7ffea2665062ba82dc413c7c18c28f836789917497e349b8c156ebaaae175ddabf89848a8585600160405161087296959493929190614b77565b60405180910390a150909450506108898282612ee9565b50505092915050565b606061043182612ef4565b60008360006108ab826125e9565b9050856108b88133612593565b604051634941d71d60e11b81527f5b7b19076468102b84afbef323d128866c396a716ce4ce29f84beef8d266f3af6004820152879087906001600160a01b03831690639283ae3a9060240160206040518083038186803b15801561091b57600080fd5b505afa15801561092f573d6000803e3d6000fd5b505050506040513d601f19601f820116820180604052508101906109539190614a5f565b6001141561118257604051634941d71d60e11b81527f23f0530138a805a7a3c83e0d6298d353102473dc25666f75173de90ac5414c8260048201526000906001600160a01b03841690639283ae3a9060240160206040518083038186803b1580156109bd57600080fd5b505afa1580156109d1573d6000803e3d6000fd5b505050506040513d601f19601f820116820180604052508101906109f59190614a5f565b604051634941d71d60e11b81527f4481bb4c8bc94e65f81ab5591f704165aab99eb4197df7acf672022476933f5860048201529091506000906001600160a01b03851690639283ae3a9060240160206040518083038186803b158015610a5a57600080fd5b505afa158015610a6e573d6000803e3d6000fd5b505050506040513d601f19601f82011682018060405250810190610a929190614a5f565b604051634941d71d60e11b81527f38cbcea6ba035c1d1890c83ce99918342ef746d839f9c2e2d4966d30a7e70b3460048201529091506000906001600160a01b03861690639283ae3a9060240160206040518083038186803b158015610af757600080fd5b505afa158015610b0b573d6000803e3d6000fd5b505050506040513d601f19601f82011682018060405250810190610b2f9190614a5f565b604051634941d71d60e11b81527fe33a9c3c87c85b9efd09c180b8fd30ca34326eb72e20fdd832b510971ccf71ae60048201529091506000906001600160a01b03871690639283ae3a9060240160206040518083038186803b158015610b9457600080fd5b505afa158015610ba8573d6000803e3d6000fd5b505050506040513d601f19601f82011682018060405250810190610bcc9190614a5f565b60405163fd310d2960e01b81527faa2cc36fff47c5c104b89a4abef628c92272c0af9c4db27739bc445b2f51e9a260048201529091506000906001600160a01b0388169063fd310d299060240160206040518083038186803b158015610c3157600080fd5b505afa158015610c45573d6000803e3d6000fd5b505050506040513d601f19601f82011682018060405250810190610c6991906147d9565b6040516317ba7d8560e01b81527faaff643bdbd909f604d46ce015336f7e20fee3ac4a55cef3610188dee176c89260048201529091506000906001600160a01b038916906317ba7d859060240160206040518083038186803b158015610cce57600080fd5b505afa158015610ce2573d6000803e3d6000fd5b505050506040513d601f19601f82011682018060405250810190610d0691906147d9565b905085610e02576040516370a0823160e01b81526001600160a01b0388811660048301528691908416906370a082319060240160206040518083038186803b158015610d5157600080fd5b505afa158015610d65573d6000803e3d6000fd5b505050506040513d601f19601f82011682018060405250810190610d899190614a5f565b1015610dfd5760405162461bcd60e51b815260206004820152602c60248201527f646f6e74206d656574206d696e20657263323020746f6b656e20686f6c64696e60448201527f67207265717569726d656e7400000000000000000000000000000000000000006064820152608401610343565b61117b565b8560011415610efb576040516370a0823160e01b81526001600160a01b0388811660048301528691908416906370a082319060240160206040518083038186803b158015610e4f57600080fd5b505afa158015610e63573d6000803e3d6000fd5b505050506040513d601f19601f82011682018060405250810190610e879190614a5f565b1015610dfd5760405162461bcd60e51b815260206004820152602d60248201527f646f6e74206d656574206d696e2065726337323120746f6b656e20686f6c646960448201527f6e67207265717569726d656e74000000000000000000000000000000000000006064820152608401610343565b8560021415610ff957604051627eeac760e11b81526001600160a01b0388811660048301526024820185905286919084169062fdd58e9060440160206040518083038186803b158015610f4d57600080fd5b505afa158015610f61573d6000803e3d6000fd5b505050506040513d601f19601f82011682018060405250810190610f859190614a5f565b1015610dfd5760405162461bcd60e51b815260206004820152602e60248201527f646f6e74206d656574206d696e206572633131353520746f6b656e20686f6c6460448201527f696e67207265717569726d656e740000000000000000000000000000000000006064820152608401610343565b85600314156110585761100c888861211c565b610dfd5760405162461bcd60e51b815260206004820152601960248201527f6e6f7420696e20676f7665726e6f722077686974656c697374000000000000006044820152606401610343565b856004141561113357604051633de222bb60e21b81526001600160a01b038981166004830152888116602483015285919083169063f7888aec9060440160206040518083038186803b1580156110ad57600080fd5b505afa1580156110c1573d6000803e3d6000fd5b505050506040513d601f19601f820116820180604052508101906110e59190614a5f565b1015610dfd5760405162461bcd60e51b815260206004820181905260248201527f646f6e74206d656574206d696e206465706f697374207265717569726d656e746044820152606401610343565b60405162461bcd60e51b815260206004820152601760248201527f696e76616c6964206d656d6265727368697020747970650000000000000000006044820152606401610343565b5050505050505b60405163288c314960e21b81526001600160a01b0389811660048301528a169063a230c5249060240160206040518083038186803b1580156111c357600080fd5b505afa1580156111d7573d6000803e3d6000fd5b505050506040513d601f19601f820116820180604052508101906111fb91906148bc565b156112485760405162461bcd60e51b815260206004820152601d60248201527f6170706c6963616e7420697320676f7665726e6f7220616c72656164790000006044820152606401610343565b61125188612f6b565b61129d5760405162461bcd60e51b815260206004820152601d60248201527f6170706c6963616e7420697320726573657276656420616464726573730000006044820152606401610343565b886001600160a01b031663ec56a1f26040518163ffffffff1660e01b8152600401600060405180830381600087803b1580156112d857600080fd5b505af11580156112ec573d6000803e3d6000fd5b5050505060006113468a60c01b6113358c6001600160a01b03166352c1d9016040518163ffffffff1660e01b815260040160206040518083038186803b15801561070457600080fd5b604051602001610752929190614a9b565b604051634941d71d60e11b81527f9876c0f0505bfb2b1c38d3bbd25ba13159172cd0868972d76927723f5a9480fc600482015290915042906000906001600160a01b038d1690639283ae3a9060240160206040518083038186803b1580156113ad57600080fd5b505afa1580156113c1573d6000803e3d6000fd5b505050506040513d601f19601f820116820180604052508101906113e59190614a5f565b6113ef9083614d61565b90506113ff8c848d8d8686612faf565b6114198c8460405180602001604052806000815250612cb1565b7ffea2665062ba82dc413c7c18c28f836789917497e349b8c156ebaaae175ddabf8c848d8585600060405161145396959493929190614b77565b60405180910390a1509096505050505061146d8282612ee9565b50509392505050565b60405163288c314960e21b81526001600160a01b0382811660048301526000919084169063a230c5249060240160206040518083038186803b1580156114bb57600080fd5b505afa1580156114cf573d6000803e3d6000fd5b505050506040513d601f19601f820116820180604052508101906114f391906148bc565b9392505050565b816000611506826125e9565b6001600160a01b0385166000908152602081815260408083208784529091529020805491925090841461157b5760405162461bcd60e51b815260206004820152601760248201527f70726f706f73616c20646f6573206e6f742065786973740000000000000000006044820152606401610343565b6040517ff941f6910000000000000000000000000000000000000000000000000000000081526001600160a01b0386169063f941f691906115c3908790600290600401614cb8565b60206040518083038186803b1580156115db57600080fd5b505afa1580156115ef573d6000803e3d6000fd5b505050506040513d601f19601f8201168201806040525081019061161391906148bc565b156116605760405162461bcd60e51b815260206004820152601a60248201527f70726f706f73616c20616c72656164792070726f6365737365640000000000006044820152606401610343565b6040516317ba7d8560e01b81527fd3999c37f8f35da86f802a74f9bf032c4aeb46e49abd9c861f489ef4cb40d0a860048201526000906001600160a01b038716906317ba7d859060240160206040518083038186803b1580156116c257600080fd5b505afa1580156116d6573d6000803e3d6000fd5b505050506040513d601f19601f820116820180604052508101906116fa91906147d9565b90506001600160a01b0381166117525760405162461bcd60e51b815260206004820152601160248201527f61646170746572206e6f7420666f756e640000000000000000000000000000006044820152606401610343565b6040517f76225e730000000000000000000000000000000000000000000000000000000081526001600160a01b0387811660048301526024820187905260009182918291908516906376225e7390604401606060405180830381600087803b1580156117bd57600080fd5b505af11580156117d1573d6000803e3d6000fd5b505050506040513d601f19601f820116820180604052508101906117f591906149fe565b6040517f30490e91000000000000000000000000000000000000000000000000000000008152600481018c905292955090935091506001600160a01b038a16906330490e9190602401600060405180830381600087803b15801561185857600080fd5b505af115801561186c573d6000803e3d6000fd5b50505050600061187c8a8a61323e565b905060028460058111156118a057634e487b7160e01b600052602160045260246000fd5b1415611d2e576005860180546001919060ff19168280021790555060018601546001600160a01b031660006005880154610100900460ff1660018111156118f757634e487b7160e01b600052602160045260246000fd5b1415611b4a576040517fdc929f4a0000000000000000000000000000000000000000000000000000000081526001600160a01b0382811660048301528c169063dc929f4a90602401600060405180830381600087803b15801561195957600080fd5b505af115801561196d573d6000803e3d6000fd5b5050604051634941d71d60e11b81527f686efe7bd1699b408d306db6bbee658ed667971c52d48d6912d7ee496e36e62760048201526001600160a01b038e169250639283ae3a915060240160206040518083038186803b1580156119d057600080fd5b505afa1580156119e4573d6000803e3d6000fd5b505050506040513d601f19601f82011682018060405250810190611a089190614a5f565b60031415611b4a576040516317ba7d8560e01b81527f1fa6846b165d822fff79e37c67625706652fa9380c2aa49fd513ce534cc72ed460048201526000906001600160a01b038d16906317ba7d859060240160206040518083038186803b158015611a7257600080fd5b505afa158015611a86573d6000803e3d6000fd5b505050506040513d601f19601f82011682018060405250810190611aaa91906147d9565b9050806001600160a01b0316635f15b1d98d8a60010160009054906101000a90046001600160a01b03168b600201546040518463ffffffff1660e01b8152600401611b16939291906001600160a01b039384168152919092166020820152604081019190915260600190565b600060405180830381600087803b158015611b3057600080fd5b505af1158015611b44573d6000803e3d6000fd5b50505050505b60016005880154610100900460ff166001811115611b7857634e487b7160e01b600052602160045260246000fd5b1415611d19576040517f0b1ca49a0000000000000000000000000000000000000000000000000000000081526001600160a01b0382811660048301528c1690630b1ca49a90602401600060405180830381600087803b158015611bda57600080fd5b505af1158015611bee573d6000803e3d6000fd5b50506040516317ba7d8560e01b81527f1fa6846b165d822fff79e37c67625706652fa9380c2aa49fd513ce534cc72ed46004820152600092506001600160a01b038e1691506317ba7d859060240160206040518083038186803b158015611c5457600080fd5b505afa158015611c68573d6000803e3d6000fd5b505050506040513d601f19601f82011682018060405250810190611c8c91906147d9565b60018901546040517f5f15b1d90000000000000000000000000000000000000000000000000000000081526001600160a01b038f81166004830152918216602482015260006044820152919250821690635f15b1d990606401600060405180830381600087803b158015611cff57600080fd5b505af1158015611d13573d6000803e3d6000fd5b50505050505b5060058601805460ff19166002179055611e02565b6003846005811115611d5057634e487b7160e01b600052602160045260246000fd5b1480611d7b57506001846005811115611d7957634e487b7160e01b600052602160045260246000fd5b145b15611d945760058601805460ff19166003179055611e02565b60405162461bcd60e51b815260206004820152602260248201527f70726f706f73616c20686173206e6f74206265656e20766f746564206f6e207960448201527f65740000000000000000000000000000000000000000000000000000000000006064820152608401610343565b7fe0867d363777a6ada708063230ad9d25fe940a2b5913de073948e222345816b28a8a8860050160009054906101000a900460ff16876005811115611e5757634e487b7160e01b600052602160045260246000fd5b858888604051611e6d9796959493929190614bbc565b60405180910390a150505050505061041f8282612ee9565b6001600160a01b03811660009081526001602052604090206060906104319061213e565b80611eb48133612593565b336001600160a01b0316826001600160a01b031663149acf9a6040518163ffffffff1660e01b815260040160206040518083038186803b158015611ef757600080fd5b505afa158015611f0b573d6000803e3d6000fd5b505050506040513d601f19601f82011682018060405250810190611f2f91906147d9565b6001600160a01b03161415611f865760405162461bcd60e51b815260206004820152601660248201527f64616f2073756d6d6f6e6f722063616e742071756974000000000000000000006044820152606401610343565b6040517f0b1ca49a0000000000000000000000000000000000000000000000000000000081523360048201526001600160a01b03831690630b1ca49a90602401600060405180830381600087803b158015611fe057600080fd5b505af1158015611ff4573d6000803e3d6000fd5b50506040516317ba7d8560e01b81527f1fa6846b165d822fff79e37c67625706652fa9380c2aa49fd513ce534cc72ed46004820152600092506001600160a01b03851691506317ba7d859060240160206040518083038186803b15801561205a57600080fd5b505afa15801561206e573d6000803e3d6000fd5b505050506040513d601f19601f8201168201806040525081019061209291906147d9565b6040517f5f15b1d90000000000000000000000000000000000000000000000000000000081526001600160a01b0385811660048301523360248301526000604483015291925090821690635f15b1d990606401600060405180830381600087803b1580156120ff57600080fd5b505af1158015612113573d6000803e3d6000fd5b50505050505050565b6001600160a01b03821660009081526001602052604081206114f3908361255c565b606060006114f38361356a565b60006114f3836001600160a01b0384166135c6565b600080826001600160a01b031663c67143666040518163ffffffff1660e01b815260040160206040518083038186803b15801561219c57600080fd5b505afa1580156121b0573d6000803e3d6000fd5b505050506040513d601f19601f820116820180604052508101906121d49190614a5f565b90506000805b828160ff161015612334576040517f9029444a00000000000000000000000000000000000000000000000000000000815260ff821660048201526001600160a01b0386169063a230c524908290639029444a9060240160206040518083038186803b15801561224857600080fd5b505afa15801561225c573d6000803e3d6000fd5b505050506040513d601f19601f8201168201806040525081019061228091906147d9565b6040517fffffffff0000000000000000000000000000000000000000000000000000000060e084901b1681526001600160a01b03909116600482015260240160206040518083038186803b1580156122d757600080fd5b505afa1580156122eb573d6000803e3d6000fd5b505050506040513d601f19601f8201168201806040525081019061230f91906148bc565b156123225761231f600183614d61565b91505b8061232c81614e09565b9150506121da565b509392505050565b600080826001600160a01b031663c19d93fb6040518163ffffffff1660e01b815260040160206040518083038186803b15801561237857600080fd5b505afa15801561238c573d6000803e3d6000fd5b505050506040513d601f19601f820116820180604052508101906123b091906149c0565b60018111156123cf57634e487b7160e01b600052602160045260246000fd5b1480156104315750816001600160a01b031663c67143666040518163ffffffff1660e01b815260040160206040518083038186803b15801561241057600080fd5b505afa158015612424573d6000803e3d6000fd5b505050506040513d601f19601f820116820180604052508101906124489190614a5f565b15806124c6575060405163288c314960e21b81523360048201526001600160a01b0383169063a230c5249060240160206040518083038186803b15801561248e57600080fd5b505afa1580156124a2573d6000803e3d6000fd5b505050506040513d601f19601f820116820180604052508101906124c691906148bc565b8061043157506040517f68c18beb0000000000000000000000000000000000000000000000000000000081523360048201526001600160a01b038316906368c18beb9060240160206040518083038186803b15801561252457600080fd5b505afa158015612538573d6000803e3d6000fd5b505050506040513d601f19601f8201168201806040525081019061043191906148bc565b6001600160a01b038116600090815260018301602052604081205415156114f3565b60006114f3836001600160a01b0384166136e3565b61259d8282611476565b6105865760405162461bcd60e51b815260206004820152600b60248201527f6f6e6c79537465776172640000000000000000000000000000000000000000006044820152606401610343565b6040805160808101825260008082526020820181905291810182905260608101919091525a81600001818152505043826001600160a01b031663b21634826040518163ffffffff1660e01b815260040160206040518083038186803b15801561265157600080fd5b505afa158015612665573d6000803e3d6000fd5b505050506040513d601f19601f820116820180604052508101906126899190614a5f565b14156126d75760405162461bcd60e51b815260206004820152601060248201527f7265656e7472616e6379206775617264000000000000000000000000000000006044820152606401610343565b816001600160a01b03166310fdb0a26040518163ffffffff1660e01b8152600401600060405180830381600087803b15801561271257600080fd5b505af1158015612726573d6000803e3d6000fd5b50506040517f72c6838f0000000000000000000000000000000000000000000000000000000081527f1f2fd42ad6a6cacd573c4b212beb7a4e2499ad45d742a65337097f130e71daff6004820152600092506001600160a01b03851691506372c6838f9060240160206040518083038186803b1580156127a557600080fd5b505afa1580156127b9573d6000803e3d6000fd5b505050506040513d601f19601f820116820180604052508101906127dd91906147d9565b90506001600160a01b0381166127f957600060208301526128ae565b6001600160a01b038181166060840181905283516040517f43a8a3f1000000000000000000000000000000000000000000000000000000008152928616600484015260248301526000918291906343a8a3f190604401604080518083038186803b15801561286657600080fd5b505afa15801561287a573d6000803e3d6000fd5b505050506040513d601f19601f8201168201806040525081019061289e91906148d6565b9015156020860152604085015250505b50919050565b6060816128f457505060408051808201909152600181527f3000000000000000000000000000000000000000000000000000000000000000602082015290565b8160005b811561291e578061290881614dd0565b91506129179050600a83614d79565b91506128f8565b60008167ffffffffffffffff81111561294757634e487b7160e01b600052604160045260246000fd5b6040519080825280601f01601f191660200182016040528015612971576020820181803683370190505b5090505b8415612a0257612986600183614d8d565b9150612993600a86614e29565b61299e906030614d61565b60f81b8183815181106129c157634e487b7160e01b600052603260045260246000fd5b60200101907effffffffffffffffffffffffffffffffffffffffffffffffffffffffffffff1916908160001a9053506129fb600a86614d79565b9450612975565b949350505050565b6000815160001415612a1e57506000919050565b506020015190565b60405163288c314960e21b81526001600160a01b03848116600483015286169063a230c5249060240160206040518083038186803b158015612a6757600080fd5b505afa158015612a7b573d6000803e3d6000fd5b505050506040513d601f19601f82011682018060405250810190612a9f91906148bc565b612aeb5760405162461bcd60e51b815260206004820152600960248201527f21676f7665726e6f7200000000000000000000000000000000000000000000006044820152606401610343565b6040518060e00160405280858152602001846001600160a01b031681526020016000815260200183815260200182815260200160006003811115612b3f57634e487b7160e01b600052602160045260246000fd5b8152600160209182018190526001600160a01b03888116600090815280845260408082208a8352855290819020855181559385015184840180547fffffffffffffffffffffffff0000000000000000000000000000000000000000169190931617909155830151600283015560608301516003808401919091556080840151600484015560a08401516005840180549193909260ff19909216918490811115612bf857634e487b7160e01b600052602160045260246000fd5b021790555060c082015160058201805461ff001916610100836001811115612c3057634e487b7160e01b600052602160045260246000fd5b0217905550506040517fb73dc389000000000000000000000000000000000000000000000000000000008152600481018690526001600160a01b038716915063b73dc38990602401600060405180830381600087803b158015612c9257600080fd5b505af1158015612ca6573d6000803e3d6000fd5b505050505050505050565b6040516317ba7d8560e01b81527fd3999c37f8f35da86f802a74f9bf032c4aeb46e49abd9c861f489ef4cb40d0a860048201526000906001600160a01b038516906317ba7d859060240160206040518083038186803b158015612d1357600080fd5b505afa158015612d27573d6000803e3d6000fd5b505050506040513d601f19601f82011682018060405250810190612d4b91906147d9565b6040516317ba7d8560e01b81527fd3999c37f8f35da86f802a74f9bf032c4aeb46e49abd9c861f489ef4cb40d0a860048201529091506001600160a01b0385169063815a2bf490859083906317ba7d859060240160206040518083038186803b158015612db757600080fd5b505afa158015612dcb573d6000803e3d6000fd5b505050506040513d601f19601f82011682018060405250810190612def91906147d9565b6040517fffffffff0000000000000000000000000000000000000000000000000000000060e085901b16815260048101929092526001600160a01b03166024820152604401600060405180830381600087803b158015612e4e57600080fd5b505af1158015612e62573d6000803e3d6000fd5b50506040517f26078cd00000000000000000000000000000000000000000000000000000000081526001600160a01b03841692506326078cd09150612eb1908790879042908890600401614cdc565b600060405180830381600087803b158015612ecb57600080fd5b505af1158015612edf573d6000803e3d6000fd5b5050505050505050565b610586828233613732565b6060816001600160a01b031663a6f636416040518163ffffffff1660e01b815260040160006040518083038186803b158015612f2f57600080fd5b505afa158015612f43573d6000803e3d6000fd5b505050506040513d6000823e601f3d908101601f1916820160405261043191908101906147f5565b60006001600160a01b03821661dead14801590612f9357506001600160a01b03821661babe14155b801561043157506001600160a01b038216614bec141592915050565b60405163288c314960e21b81526001600160a01b03858116600483015287169063a230c5249060240160206040518083038186803b158015612ff057600080fd5b505afa158015613004573d6000803e3d6000fd5b505050506040513d601f19601f8201168201806040525081019061302891906148bc565b156130755760405162461bcd60e51b815260206004820152601060248201527f676f7665726e6f722065786973746564000000000000000000000000000000006044820152606401610343565b6040518060e00160405280868152602001856001600160a01b03168152602001848152602001838152602001828152602001600060038111156130c857634e487b7160e01b600052602160045260246000fd5b8152600060209182018190526001600160a01b03898116825281835260408083208a84528452918290208451815592840151600180850180547fffffffffffffffffffffffff000000000000000000000000000000000000000016929093169190911790915590830151600283015560608301516003808401919091556080840151600484015560a08401516005840180549193909260ff1990921691849081111561318457634e487b7160e01b600052602160045260246000fd5b021790555060c082015160058201805461ff0019166101008360018111156131bc57634e487b7160e01b600052602160045260246000fd5b0217905550506040517fb73dc389000000000000000000000000000000000000000000000000000000008152600481018790526001600160a01b038816915063b73dc38990602401600060405180830381600087803b15801561321e57600080fd5b505af1158015613232573d6000803e3d6000fd5b50505050505050505050565b600080836001600160a01b031663a6f636416040518163ffffffff1660e01b815260040160006040518083038186803b15801561327a57600080fd5b505afa15801561328e573d6000803e3d6000fd5b505050506040513d6000823e601f3d908101601f191682016040526132b691908101906147f5565b6040516317ba7d8560e01b81527fd3999c37f8f35da86f802a74f9bf032c4aeb46e49abd9c861f489ef4cb40d0a8600482015290915060009081906001600160a01b038716906317ba7d859060240160206040518083038186803b15801561331d57600080fd5b505afa158015613331573d6000803e3d6000fd5b505050506040513d601f19601f8201168201806040525081019061335591906147d9565b905060005b83518160ff16101561355f57816001600160a01b03166324a2cceb8888878560ff168151811061339a57634e487b7160e01b600052603260045260246000fd5b60200260200101516040518463ffffffff1660e01b81526004016133de939291906001600160a01b0393841681526020810192909252909116604082015260600190565b60206040518083038186803b1580156133f657600080fd5b505afa15801561340a573d6000803e3d6000fd5b505050506040513d601f19601f8201168201806040525081019061342e91906148bc565b1561350c57816001600160a01b03166391d2fd538888878560ff168151811061346757634e487b7160e01b600052603260045260246000fd5b60200260200101516040518463ffffffff1660e01b81526004016134ab939291906001600160a01b0393841681526020810192909252909116604082015260600190565b60206040518083038186803b1580156134c357600080fd5b505afa1580156134d7573d6000803e3d6000fd5b505050506040513d601f19601f820116820180604052508101906134fb9190614a45565b6135059084614d2d565b925061354d565b61354087858360ff168151811061353357634e487b7160e01b600052603260045260246000fd5b6020026020010151613823565b61354a9084614d2d565b92505b8061355781614e09565b91505061335a565b509095945050505050565b6060816000018054806020026020016040519081016040528092919081815260200182805480156135ba57602002820191906000526020600020905b8154815260200190600101908083116135a6575b50505050509050919050565b600081815260018301602052604081205480156136d95760006135ea600183614d8d565b85549091506000906135fe90600190614d8d565b905081811461367f57600086600001828154811061362c57634e487b7160e01b600052603260045260246000fd5b906000526020600020015490508087600001848154811061365d57634e487b7160e01b600052603260045260246000fd5b6000918252602080832090910192909255918252600188019052604090208390555b855486908061369e57634e487b7160e01b600052603160045260246000fd5b600190038181906000526020600020016000905590558560010160008681526020019081526020016000206000905560019350505050610431565b6000915050610431565b600081815260018301602052604081205461372a57508154600181810184556000848152602080822090930184905584548482528286019093526040902091909155610431565b506000610431565b8160200151156137e85781606001516001600160a01b0316635e5eb01384835a865161375e9190614d8d565b60408088015190517fffffffff0000000000000000000000000000000000000000000000000000000060e087901b1681526001600160a01b03948516600482015293909216602484015260448301526064820152608401600060405180830381600087803b1580156137cf57600080fd5b505af11580156137e3573d6000803e3d6000fd5b505050505b826001600160a01b031663d4f7af436040518163ffffffff1660e01b8152600401600060405180830381600087803b1580156120ff57600080fd5b6040516317ba7d8560e01b81527faaff643bdbd909f604d46ce015336f7e20fee3ac4a55cef3610188dee176c892600482015260009081906001600160a01b038516906317ba7d859060240160206040518083038186803b15801561388757600080fd5b505afa15801561389b573d6000803e3d6000fd5b505050506040513d601f19601f820116820180604052508101906138bf91906147d9565b6040516317ba7d8560e01b81527fa837e34a29b67bf52f684a1c93def79b84b9c012732becee4e5df62809df64ed60048201529091506000906001600160a01b038616906317ba7d859060240160206040518083038186803b15801561392457600080fd5b505afa158015613938573d6000803e3d6000fd5b505050506040513d601f19601f8201168201806040525081019061395c91906147d9565b6040516317ba7d8560e01b81527f1fa6846b165d822fff79e37c67625706652fa9380c2aa49fd513ce534cc72ed460048201529091506000906001600160a01b038716906317ba7d859060240160206040518083038186803b1580156139c157600080fd5b505afa1580156139d5573d6000803e3d6000fd5b505050506040513d601f19601f820116820180604052508101906139f991906147d9565b604051634941d71d60e11b81527f686efe7bd1699b408d306db6bbee658ed667971c52d48d6912d7ee496e36e62760048201529091506000906001600160a01b03881690639283ae3a9060240160206040518083038186803b158015613a5e57600080fd5b505afa158015613a72573d6000803e3d6000fd5b505050506040513d601f19601f82011682018060405250810190613a969190614a5f565b604051634941d71d60e11b81527fb75eae231d9582c6afc6491273df4a0ffbccd48ab2c48dbce59e5d68f2d19dc460048201529091506000906001600160a01b03891690639283ae3a9060240160206040518083038186803b158015613afb57600080fd5b505afa158015613b0f573d6000803e3d6000fd5b505050506040513d601f19601f82011682018060405250810190613b339190614a5f565b905080600114156140ff57604051634941d71d60e11b81527e634460a4b60c2e1bf8c87bfc42b6b68fd2a71f4bb2d760816eabc5038b503660048201526000906001600160a01b038a1690639283ae3a9060240160206040518083038186803b158015613b9f57600080fd5b505afa158015613bb3573d6000803e3d6000fd5b505050506040513d601f19601f82011682018060405250810190613bd79190614a5f565b60405163fd310d2960e01b81527fcd9b30ab6388c165d825b60b7d393528191ba59d975b4b1b52b7184b63b8a97c60048201529091506000906001600160a01b038b169063fd310d299060240160206040518083038186803b158015613c3c57600080fd5b505afa158015613c50573d6000803e3d6000fd5b505050506040513d601f19601f82011682018060405250810190613c7491906147d9565b9050600084613d13576040516370a0823160e01b81526001600160a01b038b81166004830152670de0b6b3a764000091908416906370a08231906024015b60206040518083038186803b158015613cca57600080fd5b505afa158015613cde573d6000803e3d6000fd5b505050506040513d601f19601f82011682018060405250810190613d029190614a5f565b613d0c9190614d79565b9050614090565b8460011415613d96576040516370a0823160e01b81526001600160a01b038b811660048301528316906370a08231906024015b60206040518083038186803b158015613d5e57600080fd5b505afa158015613d72573d6000803e3d6000fd5b505050506040513d601f19601f82011682018060405250810190613d0c9190614a5f565b8460021415613dd257604051627eeac760e11b81526001600160a01b038b811660048301526024820185905283169062fdd58e90604401613d46565b8460031415613e2a576040517fa6d945cc0000000000000000000000000000000000000000000000000000000081526001600160a01b038c811660048301528b8116602483015287169063a6d945cc90604401613d46565b846004141561407f5760026040517f1ee1a2b00000000000000000000000000000000000000000000000000000000081526001600160a01b038d811660048301528a1690631ee1a2b09060240160206040518083038186803b158015613e8f57600080fd5b505afa158015613ea3573d6000803e3d6000fd5b505050506040513d601f19601f82011682018060405250810190613ec791906149df565b6003811115613ee657634e487b7160e01b600052602160045260246000fd5b148015613f885750604051634941d71d60e11b81527f9ce69cf04065e3c7823cc5540c0598d8a694bd7a9a5a2a786d8bccf14ed6e2ea60048201526001600160a01b038c1690639283ae3a9060240160206040518083038186803b158015613f4d57600080fd5b505afa158015613f61573d6000803e3d6000fd5b505050506040513d601f19601f82011682018060405250810190613f859190614a5f565b42105b801561402857506040517f4fc0a76d0000000000000000000000000000000000000000000000000000000081526001600160a01b038c8116600483015260019190891690634fc0a76d9060240160206040518083038186803b158015613fed57600080fd5b505afa158015614001573d6000803e3d6000fd5b505050506040513d601f19601f820116820180604052508101906140259190614a5f565b10155b1561406e57604051633de222bb60e21b81526001600160a01b038c811660048301528b81166024830152670de0b6b3a764000091908a169063f7888aec90604401613cb2565b600198505050505050505050610431565b600098505050505050505050610431565b600081116140a957600098505050505050505050610431565b677fffffffffffffff81106140c957603298505050505050505050610431565b60006140e46140df6140da84614668565b614686565b61477d565b67ffffffffffffffff16995061043198505050505050505050565b806002141561411657600195505050505050610431565b8061465a57604051634941d71d60e11b81527e634460a4b60c2e1bf8c87bfc42b6b68fd2a71f4bb2d760816eabc5038b503660048201526000906001600160a01b038a1690639283ae3a9060240160206040518083038186803b15801561417c57600080fd5b505afa158015614190573d6000803e3d6000fd5b505050506040513d601f19601f820116820180604052508101906141b49190614a5f565b60405163fd310d2960e01b81527fcd9b30ab6388c165d825b60b7d393528191ba59d975b4b1b52b7184b63b8a97c60048201529091506000906001600160a01b038b169063fd310d299060240160206040518083038186803b15801561421957600080fd5b505afa15801561422d573d6000803e3d6000fd5b505050506040513d601f19601f8201168201806040525081019061425191906147d9565b90506000846142f0576040516370a0823160e01b81526001600160a01b038b81166004830152670de0b6b3a764000091908416906370a08231906024015b60206040518083038186803b1580156142a757600080fd5b505afa1580156142bb573d6000803e3d6000fd5b505050506040513d601f19601f820116820180604052508101906142df9190614a5f565b6142e99190614d79565b905061464b565b8460011415614373576040516370a0823160e01b81526001600160a01b038b811660048301528316906370a08231906024015b60206040518083038186803b15801561433b57600080fd5b505afa15801561434f573d6000803e3d6000fd5b505050506040513d601f19601f820116820180604052508101906142e99190614a5f565b84600214156143af57604051627eeac760e11b81526001600160a01b038b811660048301526024820185905283169062fdd58e90604401614323565b8460031415614407576040517fa6d945cc0000000000000000000000000000000000000000000000000000000081526001600160a01b038c811660048301528b8116602483015287169063a6d945cc90604401614323565b846004141561407f5760026040517f1ee1a2b00000000000000000000000000000000000000000000000000000000081526001600160a01b038d811660048301528a1690631ee1a2b09060240160206040518083038186803b15801561446c57600080fd5b505afa158015614480573d6000803e3d6000fd5b505050506040513d601f19601f820116820180604052508101906144a491906149df565b60038111156144c357634e487b7160e01b600052602160045260246000fd5b1480156145655750604051634941d71d60e11b81527f9ce69cf04065e3c7823cc5540c0598d8a694bd7a9a5a2a786d8bccf14ed6e2ea60048201526001600160a01b038c1690639283ae3a9060240160206040518083038186803b15801561452a57600080fd5b505afa15801561453e573d6000803e3d6000fd5b505050506040513d601f19601f820116820180604052508101906145629190614a5f565b42105b801561460557506040517f4fc0a76d0000000000000000000000000000000000000000000000000000000081526001600160a01b038c8116600483015260019190891690634fc0a76d9060240160206040518083038186803b1580156145ca57600080fd5b505afa1580156145de573d6000803e3d6000fd5b505050506040513d601f19601f820116820180604052508101906146029190614a5f565b10155b1561406e57604051633de222bb60e21b81526001600160a01b038c811660048301528b81166024830152670de0b6b3a764000091908a169063f7888aec9060440161428f565b97506104319650505050505050565b600095505050505050610431565b6000677fffffffffffffff82111561467f57600080fd5b5060401b90565b60008082600f0b1361469757600080fd5b6000600f83900b6801000000000000000081126146b6576040918201911d5b64010000000081126146ca576020918201911d5b6201000081126146dc576010918201911d5b61010081126146ed576008918201911d5b601081126146fd576004918201911d5b6004811261470d576002918201911d5b6002811261471c576001820191505b7fffffffffffffffffffffffffffffffffffffffffffffffffffffffffffffffc0820160401b600f85900b607f8490031b6780000000000000005b600081131561355f5790800260ff81901c8281029390930192607f011c9060011d614757565b60008082600f0b121561478f57600080fd5b50600f0b60401d90565b80516147a481614e95565b919050565b805180151581146147a457600080fd5b80516fffffffffffffffffffffffffffffffff811681146147a457600080fd5b6000602082840312156147ea578081fd5b81516114f381614e95565b60006020808385031215614807578182fd5b825167ffffffffffffffff8082111561481e578384fd5b818501915085601f830112614831578384fd5b81518181111561484357614843614e7f565b8060051b604051601f19603f8301168101818110858211171561486857614868614e7f565b604052828152858101935084860182860187018a1015614886578788fd5b8795505b838610156148af5761489b81614799565b85526001959095019493860193860161488a565b5098975050505050505050565b6000602082840312156148cd578081fd5b6114f3826147a9565b600080604083850312156148e8578081fd5b6148f1836147a9565b9150602083015190509250929050565b600060208284031215614912578081fd5b81356114f381614e95565b6000806040838503121561492f578182fd5b823561493a81614e95565b9150602083013561494a81614e95565b809150509250929050565b600080600060608486031215614969578081fd5b833561497481614e95565b9250602084013561498481614e95565b929592945050506040919091013590565b600080604083850312156149a7578182fd5b82356149b281614e95565b946020939093013593505050565b6000602082840312156149d1578081fd5b8151600281106114f3578182fd5b6000602082840312156149f0578081fd5b8151600481106114f3578182fd5b600080600060608486031215614a12578283fd5b835160068110614a20578384fd5b9250614a2e602085016147b9565b9150614a3c604085016147b9565b90509250925092565b600060208284031215614a56578081fd5b6114f3826147b9565b600060208284031215614a70578081fd5b5051919050565b60048110614a8757614a87614e69565b9052565b60028110614a8757614a87614e69565b7fffffffffffffffff000000000000000000000000000000000000000000000000831681527f476f7665726e6f722d496e230000000000000000000000000000000000000000600882015260008251614afb816014850160208701614da4565b919091016014019392505050565b7fffffffffffffffff000000000000000000000000000000000000000000000000831681527f476f7665726e6f722d4f75742300000000000000000000000000000000000000600882015260008251614b69816015850160208701614da4565b919091016015019392505050565b6001600160a01b0387811682526020820187905285166040820152606081018490526080810183905260c08101614bb160a0830184614a8b565b979650505050505050565b6001600160a01b03881681526020810187905260e08101614be06040830188614a77565b60608201959095526fffffffffffffffffffffffffffffffff938416608082015291831660a083015290911660c0909101529392505050565b6020808252825182820181905260009190848201906040850190845b81811015614c5a5783516001600160a01b031683529284019291840191600101614c35565b50909695505050505050565b600060e0820190508882526001600160a01b0388166020830152866040830152856060830152846080830152614c9f60a0830185614a77565b614cac60c0830184614a8b565b98975050505050505050565b8281526040810160038310614ccf57614ccf614e69565b8260208301529392505050565b6001600160a01b03851681528360208201528260408201526080606082015260008251806080840152614d168160a0850160208701614da4565b601f01601f19169190910160a00195945050505050565b60006fffffffffffffffffffffffffffffffff808316818516808303821115614d5857614d58614e3d565b01949350505050565b60008219821115614d7457614d74614e3d565b500190565b600082614d8857614d88614e53565b500490565b600082821015614d9f57614d9f614e3d565b500390565b60005b83811015614dbf578181015183820152602001614da7565b8381111561041f5750506000910152565b60007fffffffffffffffffffffffffffffffffffffffffffffffffffffffffffffffff821415614e0257614e02614e3d565b5060010190565b600060ff821660ff811415614e2057614e20614e3d565b60010192915050565b600082614e3857614e38614e53565b500690565b634e487b7160e01b600052601160045260246000fd5b634e487b7160e01b600052601260045260246000fd5b634e487b7160e01b600052602160045260246000fd5b634e487b7160e01b600052604160045260246000fd5b6001600160a01b0381168114614eaa57600080fd5b5056fea26469706673582212203a223fde5f2306b6c887057e05b5d2b3aa2bff27f8c32994d6626e3ca417f51d64736f6c63430008040033",
  "linkReferences": {},
  "deployedLinkReferences": {}
}