{
  "_format": "hh-sol-artifact-1",
  "contractName": "VintageVotingContract",
  "sourceName": "contracts/vintage/adapters/VintageVoting.sol",
  "abi": [
    {
      "anonymous": false,
      "inputs": [
        {
          "indexed": false,
          "internalType": "uint256",
          "name": "votingPeriod",
          "type": "uint256"
        },
        {
          "indexed": false,
          "internalType": "uint256",
          "name": "gracePeriod",
          "type": "uint256"
        }
      ],
      "name": "ConfigureDao",
      "type": "event"
    },
    {
      "anonymous": false,
      "inputs": [
        {
          "indexed": false,
          "internalType": "bytes32",
          "name": "proposalId",
          "type": "bytes32"
        },
        {
          "indexed": false,
          "internalType": "uint256",
          "name": "blocktime",
          "type": "uint256"
        },
        {
          "indexed": false,
          "internalType": "address",
          "name": "voter",
          "type": "address"
        },
        {
          "indexed": false,
          "internalType": "uint128",
          "name": "origenalVotingWeight",
          "type": "uint128"
        },
        {
          "indexed": false,
          "internalType": "uint256",
          "name": "origenalVoteValue",
          "type": "uint256"
        }
      ],
      "name": "RevokeVote",
      "type": "event"
    },
    {
      "anonymous": false,
      "inputs": [
        {
          "indexed": false,
          "internalType": "address",
          "name": "daoAddr",
          "type": "address"
        },
        {
          "indexed": false,
          "internalType": "bytes32",
          "name": "proposalId",
          "type": "bytes32"
        },
        {
          "indexed": false,
          "internalType": "uint256",
          "name": "votestartingTime",
          "type": "uint256"
        },
        {
          "indexed": false,
          "internalType": "uint256",
          "name": "voteblockNumber",
          "type": "uint256"
        }
      ],
      "name": "StartNewVotingForProposal",
      "type": "event"
    },
    {
      "anonymous": false,
      "inputs": [
        {
          "indexed": false,
          "internalType": "address",
          "name": "daoAddr",
          "type": "address"
        },
        {
          "indexed": false,
          "internalType": "bytes32",
          "name": "proposalId",
          "type": "bytes32"
        },
        {
          "indexed": false,
          "internalType": "uint256",
          "name": "votingTime",
          "type": "uint256"
        },
        {
          "indexed": false,
          "internalType": "uint256",
          "name": "voteStartTime",
          "type": "uint256"
        },
        {
          "indexed": false,
          "internalType": "uint256",
          "name": "voteStopTime",
          "type": "uint256"
        },
        {
          "indexed": false,
          "internalType": "address",
          "name": "voter",
          "type": "address"
        },
        {
          "indexed": false,
          "internalType": "uint256",
          "name": "voteValue",
          "type": "uint256"
        },
        {
          "indexed": false,
          "internalType": "uint256",
          "name": "nbYes",
          "type": "uint256"
        },
        {
          "indexed": false,
          "internalType": "uint256",
          "name": "nbNo",
          "type": "uint256"
        },
        {
          "indexed": false,
          "internalType": "uint256",
          "name": "currentQuorum",
          "type": "uint256"
        },
        {
          "indexed": false,
          "internalType": "uint256",
          "name": "currentSupport",
          "type": "uint256"
        }
      ],
      "name": "SubmitVote",
      "type": "event"
    },
    {
      "anonymous": false,
      "inputs": [
        {
          "indexed": false,
          "internalType": "bytes32",
          "name": "proposalId",
          "type": "bytes32"
        },
        {
          "indexed": false,
          "internalType": "uint256",
          "name": "blocktime",
          "type": "uint256"
        },
        {
          "indexed": false,
          "internalType": "address",
          "name": "voter",
          "type": "address"
        },
        {
          "indexed": false,
          "internalType": "uint128",
          "name": "oldVotingWeight",
          "type": "uint128"
        },
        {
          "indexed": false,
          "internalType": "uint128",
          "name": "newVotingWeight",
          "type": "uint128"
        },
        {
          "indexed": false,
          "internalType": "uint128",
          "name": "nbYes",
          "type": "uint128"
        },
        {
          "indexed": false,
          "internalType": "uint128",
          "name": "nbNo",
          "type": "uint128"
        }
      ],
      "name": "UpdateVoteWeight",
      "type": "event"
    },
    {
      "inputs": [],
      "name": "ADAPTER_NAME",
      "outputs": [
        {
          "internalType": "string",
          "name": "",
          "type": "string"
        }
      ],
      "stateMutability": "view",
      "type": "function"
    },
    {
      "inputs": [
        {
          "internalType": "contract DaoRegistry",
          "name": "dao",
          "type": "address"
        },
        {
          "internalType": "bytes32",
          "name": "proposalId",
          "type": "bytes32"
        },
        {
          "internalType": "address",
          "name": "voterAddr",
          "type": "address"
        }
      ],
      "name": "checkIfVoted",
      "outputs": [
        {
          "internalType": "bool",
          "name": "",
          "type": "bool"
        }
      ],
      "stateMutability": "view",
      "type": "function"
    },
    {
      "inputs": [
        {
          "internalType": "contract DaoRegistry",
          "name": "dao",
          "type": "address"
        },
        {
          "internalType": "uint256",
          "name": "votingPeriod",
          "type": "uint256"
        },
        {
          "internalType": "uint256",
          "name": "gracePeriod",
          "type": "uint256"
        }
      ],
      "name": "configureDao",
      "outputs": [],
      "stateMutability": "nonpayable",
      "type": "function"
    },
    {
      "inputs": [],
      "name": "getAdapterName",
      "outputs": [
        {
          "internalType": "string",
          "name": "",
          "type": "string"
        }
      ],
      "stateMutability": "pure",
      "type": "function"
    },
    {
      "inputs": [
        {
          "internalType": "contract DaoRegistry",
          "name": "dao",
          "type": "address"
        }
      ],
      "name": "getAllRaiserWeight",
      "outputs": [
        {
          "internalType": "uint128",
          "name": "",
          "type": "uint128"
        }
      ],
      "stateMutability": "view",
      "type": "function"
    },
    {
      "inputs": [
        {
          "internalType": "contract DaoRegistry",
          "name": "",
          "type": "address"
        },
        {
          "internalType": "address",
          "name": "",
          "type": "address"
        },
        {
          "internalType": "bytes",
          "name": "",
          "type": "bytes"
        },
        {
          "internalType": "address",
          "name": "sender",
          "type": "address"
        }
      ],
      "name": "getSenderAddress",
      "outputs": [
        {
          "internalType": "address",
          "name": "",
          "type": "address"
        }
      ],
      "stateMutability": "pure",
      "type": "function"
    },
    {
      "inputs": [
        {
          "internalType": "contract DaoRegistry",
          "name": "dao",
          "type": "address"
        },
        {
          "internalType": "address",
          "name": "account",
          "type": "address"
        }
      ],
      "name": "getVotingWeight",
      "outputs": [
        {
          "internalType": "uint128",
          "name": "",
          "type": "uint128"
        }
      ],
      "stateMutability": "view",
      "type": "function"
    },
    {
      "inputs": [
        {
          "internalType": "contract DaoRegistry",
          "name": "dao",
          "type": "address"
        },
        {
          "internalType": "bytes32",
          "name": "proposalId",
          "type": "bytes32"
        },
        {
          "internalType": "uint256",
          "name": "projectVotingTimestamp",
          "type": "uint256"
        },
        {
          "internalType": "bytes",
          "name": "",
          "type": "bytes"
        }
      ],
      "name": "startNewVotingForProposal",
      "outputs": [],
      "stateMutability": "nonpayable",
      "type": "function"
    },
    {
      "inputs": [
        {
          "internalType": "contract DaoRegistry",
          "name": "dao",
          "type": "address"
        },
        {
          "internalType": "bytes32",
          "name": "proposalId",
          "type": "bytes32"
        },
        {
          "internalType": "uint256",
          "name": "voteValue",
          "type": "uint256"
        }
      ],
      "name": "submitVote",
      "outputs": [],
      "stateMutability": "nonpayable",
      "type": "function"
    },
    {
      "inputs": [
        {
          "internalType": "contract DaoRegistry",
          "name": "dao",
          "type": "address"
        },
        {
          "internalType": "bytes32",
          "name": "proposalId",
          "type": "bytes32"
        }
      ],
      "name": "voteResult",
      "outputs": [
        {
          "internalType": "enum IVintageVoting.VotingState",
          "name": "state",
          "type": "uint8"
        },
        {
          "internalType": "uint128",
          "name": "nbYes",
          "type": "uint128"
        },
        {
          "internalType": "uint128",
          "name": "nbNo",
          "type": "uint128"
        }
      ],
      "stateMutability": "view",
      "type": "function"
    },
    {
      "inputs": [
        {
          "internalType": "address",
          "name": "",
          "type": "address"
        },
        {
          "internalType": "bytes32",
          "name": "",
          "type": "bytes32"
        },
        {
          "internalType": "address",
          "name": "",
          "type": "address"
        }
      ],
      "name": "voteWeights",
      "outputs": [
        {
          "internalType": "uint128",
          "name": "",
          "type": "uint128"
        }
      ],
      "stateMutability": "view",
      "type": "function"
    },
    {
      "inputs": [
        {
          "internalType": "address",
          "name": "",
          "type": "address"
        },
        {
          "internalType": "bytes32",
          "name": "",
          "type": "bytes32"
        }
      ],
      "name": "votes",
      "outputs": [
        {
          "internalType": "uint128",
          "name": "nbYes",
          "type": "uint128"
        },
        {
          "internalType": "uint128",
          "name": "nbNo",
          "type": "uint128"
        },
        {
          "internalType": "uint256",
          "name": "startingTime",
          "type": "uint256"
        },
        {
          "internalType": "uint256",
          "name": "stopTime",
          "type": "uint256"
        },
        {
          "internalType": "uint256",
          "name": "voters",
          "type": "uint256"
        }
      ],
      "stateMutability": "view",
      "type": "function"
    }
  ],
  "bytecode": "0x608060405234801561001057600080fd5b50612f71806100206000396000f3fe608060405234801561001057600080fd5b50600436106100d45760003560e01c806376225e731161008157806391d2fd531161005b57806391d2fd531461028b578063966917d0146102c4578063a60e68fe146102f157600080fd5b806376225e731461021a5780637fd3cd8b1461023c57806387b9e9591461027857600080fd5b806324a2cceb116100b257806324a2cceb146101cf57806326078cd0146101f2578063325b72f21461020757600080fd5b806316bf1129146100d95780631db5ade8146101095780631f86f5b31461018d575b600080fd5b6100ec6100e7366004612a43565b610304565b6040516001600160801b0390911681526020015b60405180910390f35b61015a6101173660046128de565b6001602081815260009384526040808520909152918352912080549181015460028201546003909201546001600160801b0380851694600160801b900416929085565b604080516001600160801b039687168152959094166020860152928401919091526060830152608082015260a001610100565b60408051808201909152600e81527f566f74696e67436f6e747261637400000000000000000000000000000000000060208201525b6040516101009190612d1d565b6101e26101dd366004612b6c565b610310565b6040519015158152602001610100565b610205610200366004612bb4565b61035f565b005b610205610215366004612b80565b610557565b61022d610228366004612b5a565b610c9c565b60405161010093929190612ceb565b6101c26040518060400160405280600e81526020017f566f74696e67436f6e747261637400000000000000000000000000000000000081525081565b6100ec610286366004612a5f565b6113c5565b6100ec610299366004612909565b600060208181529381526040808220855292815282812090935282529020546001600160801b031681565b6102d96102d2366004612a97565b9392505050565b6040516001600160a01b039091168152602001610100565b6102056102ff366004612b80565b6113da565b6000806102d2836114b4565b6001600160a01b03808416600090815260016020908152604080832086845282528083209385168352600484019091528120549091906103545760009150506102d2565b506001949350505050565b6040516368c18beb60e01b815233600482015285906001600160a01b038216906368c18beb9060240160206040518083038186803b1580156103a057600080fd5b505afa1580156103b4573d6000803e3d6000fd5b505050506040513d601f19601f820116820180604052508101906103d891906129fe565b806103e757506103e781611598565b6104385760405162461bcd60e51b815260206004820152600b60248201527f6f6e6c794164617074657200000000000000000000000000000000000000000060448201526064015b60405180910390fd5b6001600160a01b03861660008181526001602081815260408084208a8552909152918290209081018790559051634941d71d60e11b81527f9876c0f0505bfb2b1c38d3bbd25ba13159172cd0868972d76927723f5a9480fc6004820152909190639283ae3a9060240160206040518083038186803b1580156104b957600080fd5b505afa1580156104cd573d6000803e3d6000fd5b505050506040513d601f19601f820116820180604052508101906104f19190612c64565b6104fb9042612dae565b6002820155604080516001600160a01b038916815260208101889052428183015243606082015290517f21af5d881aa8442475abc2be295d24c036524242db2bebe1b628b51ae5aba5289181900360800190a150505050505050565b8261056281336117b8565b83600061056e8261189a565b6040517ff941f6910000000000000000000000000000000000000000000000000000000081529091506001600160a01b0387169063f941f691906105b9908890600190600401612cc7565b60206040518083038186803b1580156105d157600080fd5b505afa1580156105e5573d6000803e3d6000fd5b505050506040513d601f19601f8201168201806040525081019061060991906129fe565b61067b5760405162461bcd60e51b815260206004820152602760248201527f7468652070726f706f73616c20686173206e6f74206265656e2073706f6e736f60448201527f7265642079657400000000000000000000000000000000000000000000000000606482015260840161042f565b6040517ff941f6910000000000000000000000000000000000000000000000000000000081526001600160a01b0387169063f941f691906106c3908890600290600401612cc7565b60206040518083038186803b1580156106db57600080fd5b505afa1580156106ef573d6000803e3d6000fd5b505050506040513d601f19601f8201168201806040525081019061071391906129fe565b156107865760405162461bcd60e51b815260206004820152602760248201527f7468652070726f706f73616c2068617320616c7265616479206265656e20707260448201527f6f63657373656400000000000000000000000000000000000000000000000000606482015260840161042f565b6003841080156107965750600084115b6108085760405162461bcd60e51b815260206004820152602b60248201527f6f6e6c79207965732028312920616e64206e6f202832292061726520706f737360448201527f69626c652076616c756573000000000000000000000000000000000000000000606482015260840161042f565b6001600160a01b03861660009081526001602081815260408084208985528252928390208351808501909452601284527f766f74652e7374617274696e6754696d652000000000000000000000000000009184019190915290810154909161086f91611b65565b806001015442118015610886575060008160010154115b6108f85760405162461bcd60e51b815260206004820152603860248201527f566f74696e673a3a7375626d6974566f74653a3a746869732070726f706f736160448201527f6c496420686173206e6f7420737461727420766f74696e670000000000000000606482015260840161042f565b8060020154421061094b5760405162461bcd60e51b815260206004820152600c60248201527f766f74696e6720656e6465640000000000000000000000000000000000000000604482015260640161042f565b336000908152600482016020526040902054156109aa5760405162461bcd60e51b815260206004820152601860248201527f6d656d6265722068617320616c726561647920766f7465640000000000000000604482015260640161042f565b60006109b68833611bd8565b6001600160a01b0389166000908152602081815260408083208b84528252808320338452825280832080547fffffffffffffffffffffffffffffffff00000000000000000000000000000000166001600160801b038616179055600486019091528120889055600384018054929350600192909190610a36908490612dae565b90915550506001861415610a92578154610a5a9082906001600160801b0316612d83565b82547fffffffffffffffffffffffffffffffff00000000000000000000000000000000166001600160801b0391909116178255610ad1565b8560021415610ad1578154610ab8908290600160801b90046001600160801b0316612d83565b82546001600160801b03918216600160801b0291161782555b8154600090610af2906001600160801b03600160801b820481169116612d83565b6001600160801b031615610b43578254610b1e906001600160801b03600160801b820481169116612d83565b8354610b34906001600160801b03166064612e00565b610b3e9190612dc6565b610b46565b60005b6001600160801b031690506000610b5c8a6122bb565b8454610b7a906001600160801b03600160801b820481169116612d83565b610b85906064612e00565b6001600160801b0316610b989190612dec565b90507f702c2a29993fe1e5ce4c366928ffc1d53e245b20536bf8192399abb82b66c7108a8a4287600101548860020154338e8b60000160009054906101000a90046001600160801b03168c60000160109054906101000a90046001600160801b03168b8b604051610c7e9b9a999897969594939291906001600160a01b039b8c168152602081019a909a5260408a0198909852606089019690965260808801949094529190961660a086015260c08501959095526001600160801b0394851660e08501529093166101008301526101208201929092526101408101919091526101600190565b60405180910390a150505050610c94828261248f565b505050505050565b6001600160a01b0382166000908152600160208181526040808420858552909152822090810154829182914211610cef5754600093506001600160801b038082169350600160801b9091041690506113be565b604051634941d71d60e11b81527f9876c0f0505bfb2b1c38d3bbd25ba13159172cd0868972d76927723f5a9480fc60048201526001600160a01b03871690639283ae3a9060240160206040518083038186803b158015610d4e57600080fd5b505afa158015610d62573d6000803e3d6000fd5b505050506040513d601f19601f82011682018060405250810190610d869190612c64565b8160010154610d959190612dae565b4211610dbd5754600493506001600160801b038082169350600160801b9091041690506113be565b604051634941d71d60e11b81527f561bc86bc227a0f760218574791a84f180f6f9f02be9519a1f99c14fce07a31060048201526000906001600160a01b03881690639283ae3a9060240160206040518083038186803b158015610e1f57600080fd5b505afa158015610e33573d6000803e3d6000fd5b505050506040513d601f19601f82011682018060405250810190610e579190612c64565b604051634941d71d60e11b81527f8097540b5ab8a4c18e0b10cfbfd2c69e65e8da78f4f0485467006bafa393596460048201529091506000906001600160a01b03891690639283ae3a9060240160206040518083038186803b158015610ebc57600080fd5b505afa158015610ed0573d6000803e3d6000fd5b505050506040513d601f19601f82011682018060405250810190610ef49190612c64565b90506000610f0189610304565b90508161101457604051634941d71d60e11b81527f0324de13a5a6e302ddb95a9fdf81cc736fc8acee2abe558970daac27395904e760048201526000906064906001600160a01b038c1690639283ae3a9060240160206040518083038186803b158015610f6d57600080fd5b505afa158015610f81573d6000803e3d6000fd5b505050506040513d601f19601f82011682018060405250810190610fa59190612c64565b610fb8906001600160801b038516612e2f565b610fc29190612dec565b85549091506001600160801b03808216600160801b909204811691909101168181116110115750509254600396506001600160801b038082169650600160801b9091041693506113be92505050565b50505b816001141561111357835460009061103e906001600160801b03600160801b820481169116612d83565b604051634941d71d60e11b81527f0324de13a5a6e302ddb95a9fdf81cc736fc8acee2abe558970daac27395904e760048201526001600160801b039190911691506001600160a01b038b1690639283ae3a9060240160206040518083038186803b1580156110ab57600080fd5b505afa1580156110bf573d6000803e3d6000fd5b505050506040513d601f19601f820116820180604052508101906110e39190612c64565b81116111115750509154600395506001600160801b038082169550600160801b9091041692506113be915050565b505b8261127d578354600090611139906001600160801b03600160801b820481169116612d83565b6001600160801b03169050600060648b6001600160a01b0316639283ae3a7fb4c601c38beae7eebb719eda3438f59fcbfd4c6dd7d38c00665b6fd5b432df326040518263ffffffff1660e01b815260040161119691815260200190565b60206040518083038186803b1580156111ae57600080fd5b505afa1580156111c2573d6000803e3d6000fd5b505050506040513d601f19601f820116820180604052508101906111e69190612c64565b6111f09084612e2f565b6111fa9190612dec565b905080158015611212575085546001600160801b0316155b156112405750509254600196506001600160801b038082169650600160801b9091041693506113be92505050565b85546001600160801b0316811061127a5750509254600396506001600160801b038082169650600160801b9091041693506113be92505050565b50505b826001141561139c5783546000906001600160801b03600160801b82048116911610156112ab5760006112c9565b84546112c9906001600160801b03600160801b820481169116612e6c565b604051634941d71d60e11b81527fb4c601c38beae7eebb719eda3438f59fcbfd4c6dd7d38c00665b6fd5b432df3260048201529091506001600160a01b038b1690639283ae3a9060240160206040518083038186803b15801561132b57600080fd5b505afa15801561133f573d6000803e3d6000fd5b505050506040513d601f19601f820116820180604052508101906113639190612c64565b816001600160801b03161161139a5750509154600395506001600160801b038082169550600160801b9091041692506113be915050565b505b50509054600294506001600160801b038082169450600160801b909104169150505b9250925092565b60006113d18383611bd8565b90505b92915050565b6040516368c18beb60e01b815233600482015283906001600160a01b038216906368c18beb9060240160206040518083038186803b15801561141b57600080fd5b505afa15801561142f573d6000803e3d6000fd5b505050506040513d601f19601f8201168201806040525081019061145391906129fe565b80611462575061146281611598565b6114ae5760405162461bcd60e51b815260206004820152600b60248201527f6f6e6c7941646170746572000000000000000000000000000000000000000000604482015260640161042f565b50505050565b600080826001600160a01b031663a6f636416040518163ffffffff1660e01b815260040160006040518083038186803b1580156114f057600080fd5b505afa158015611504573d6000803e3d6000fd5b505050506040513d6000823e601f3d908101601f1916820160405261152c919081019061294a565b90506000805b82518160ff1610156115905761157285848360ff168151811061156557634e487b7160e01b600052603260045260246000fd5b6020026020010151611bd8565b61157c9083612d83565b91508061158881612eab565b915050611532565b509392505050565b600080826001600160a01b031663c19d93fb6040518163ffffffff1660e01b815260040160206040518083038186803b1580156115d457600080fd5b505afa1580156115e8573d6000803e3d6000fd5b505050506040513d601f19601f8201168201806040525081019061160c9190612c45565b600181111561162b57634e487b7160e01b600052602160045260246000fd5b1480156113d45750816001600160a01b031663c67143666040518163ffffffff1660e01b815260040160206040518083038186803b15801561166c57600080fd5b505afa158015611680573d6000803e3d6000fd5b505050506040513d601f19601f820116820180604052508101906116a49190612c64565b158061173b57506040517fa230c5240000000000000000000000000000000000000000000000000000000081523360048201526001600160a01b0383169063a230c5249060240160206040518083038186803b15801561170357600080fd5b505afa158015611717573d6000803e3d6000fd5b505050506040513d601f19601f8201168201806040525081019061173b91906129fe565b806113d457506040516368c18beb60e01b81523360048201526001600160a01b038316906368c18beb9060240160206040518083038186803b15801561178057600080fd5b505afa158015611794573d6000803e3d6000fd5b505050506040513d601f19601f820116820180604052508101906113d491906129fe565b6040517fa230c5240000000000000000000000000000000000000000000000000000000081526001600160a01b03828116600483015283169063a230c5249060240160206040518083038186803b15801561181257600080fd5b505afa158015611826573d6000803e3d6000fd5b505050506040513d601f19601f8201168201806040525081019061184a91906129fe565b6118965760405162461bcd60e51b815260206004820152600a60248201527f6f6e6c7952616973657200000000000000000000000000000000000000000000604482015260640161042f565b5050565b6040805160808101825260008082526020820181905291810182905260608101919091525a81600001818152505043826001600160a01b031663b21634826040518163ffffffff1660e01b815260040160206040518083038186803b15801561190257600080fd5b505afa158015611916573d6000803e3d6000fd5b505050506040513d601f19601f8201168201806040525081019061193a9190612c64565b14156119885760405162461bcd60e51b815260206004820152601060248201527f7265656e7472616e637920677561726400000000000000000000000000000000604482015260640161042f565b816001600160a01b03166310fdb0a26040518163ffffffff1660e01b8152600401600060405180830381600087803b1580156119c357600080fd5b505af11580156119d7573d6000803e3d6000fd5b50506040517f72c6838f0000000000000000000000000000000000000000000000000000000081527f1f2fd42ad6a6cacd573c4b212beb7a4e2499ad45d742a65337097f130e71daff6004820152600092506001600160a01b03851691506372c6838f9060240160206040518083038186803b158015611a5657600080fd5b505afa158015611a6a573d6000803e3d6000fd5b505050506040513d601f19601f82011682018060405250810190611a8e91906128c2565b90506001600160a01b038116611aaa5760006020830152611b5f565b6001600160a01b038181166060840181905283516040517f43a8a3f1000000000000000000000000000000000000000000000000000000008152928616600484015260248301526000918291906343a8a3f190604401604080518083038186803b158015611b1757600080fd5b505afa158015611b2b573d6000803e3d6000fd5b505050506040513d601f19601f82011682018060405250810190611b4f9190612a18565b9015156020860152604085015250505b50919050565b6118968282604051602401611b7b929190612d30565b60408051601f198184030181529190526020810180517bffffffffffffffffffffffffffffffffffffffffffffffffffffffff167fb60e72cc0000000000000000000000000000000000000000000000000000000017905261249a565b604051634941d71d60e11b81527ff55ead1a20a1dd054d7b08c0efdba575e59f56a221996583f70c083bb98099b0600482015260009081906001600160a01b03851690639283ae3a9060240160206040518083038186803b158015611c3c57600080fd5b505afa158015611c50573d6000803e3d6000fd5b505050506040513d601f19601f82011682018060405250810190611c749190612c64565b604051634941d71d60e11b81527fb75eae231d9582c6afc6491273df4a0ffbccd48ab2c48dbce59e5d68f2d19dc460048201529091506000906001600160a01b03861690639283ae3a9060240160206040518083038186803b158015611cd957600080fd5b505afa158015611ced573d6000803e3d6000fd5b505050506040513d601f19601f82011682018060405250810190611d119190612c64565b905080600114156122a7578161226857604051634941d71d60e11b81527fc1b209168198eccc84193211efbd20aab87007db7285581e7b1e8ff3fe504fcd60048201526000906001600160a01b03871690639283ae3a9060240160206040518083038186803b158015611d8357600080fd5b505afa158015611d97573d6000803e3d6000fd5b505050506040513d601f19601f82011682018060405250810190611dbb9190612c64565b604051634941d71d60e11b81527fa2169a266a000b9ed910243e4e95f23d7d383448dfa96f2cfb3cd2ba907d6ed660048201529091506000906001600160a01b03881690639283ae3a9060240160206040518083038186803b158015611e2057600080fd5b505afa158015611e34573d6000803e3d6000fd5b505050506040513d601f19601f82011682018060405250810190611e589190612c64565b6040517ffd310d290000000000000000000000000000000000000000000000000000000081527f24ff71fc31a6b2be78a265ecbb78906acfd30d6b24357ca298e295b93087d9ea60048201529091506000906001600160a01b0389169063fd310d299060240160206040518083038186803b158015611ed657600080fd5b505afa158015611eea573d6000803e3d6000fd5b505050506040513d601f19601f82011682018060405250810190611f0e91906128c2565b9050600083611fac576040516370a0823160e01b81526001600160a01b038981166004830152670de0b6b3a764000091908416906370a082319060240160206040518083038186803b158015611f6357600080fd5b505afa158015611f77573d6000803e3d6000fd5b505050506040513d601f19601f82011682018060405250810190611f9b9190612c64565b611fa59190612dec565b90506121ff565b836001141561202f576040516370a0823160e01b81526001600160a01b0389811660048301528316906370a08231906024015b60206040518083038186803b158015611ff757600080fd5b505afa15801561200b573d6000803e3d6000fd5b505050506040513d601f19601f82011682018060405250810190611fa59190612c64565b8360021415612084576040517efdd58e0000000000000000000000000000000000000000000000000000000081526001600160a01b0389811660048301526024820185905283169062fdd58e90604401611fdf565b836003141561209c57600196505050505050506113d4565b83600314156121f0576040517f593e96b60000000000000000000000000000000000000000000000000000000081527f161fca6912f107b0f13c9c7275de7391b32d2ea1c52ffba65a3c961880a0c60f60048201526000906001600160a01b038b169063593e96b69060240160206040518083038186803b15801561212057600080fd5b505afa158015612134573d6000803e3d6000fd5b505050506040513d601f19601f8201168201806040525081019061215891906128c2565b6040516370a0823160e01b81526001600160a01b038b81166004830152919250670de0b6b3a7640000918316906370a082319060240160206040518083038186803b1580156121a657600080fd5b505afa1580156121ba573d6000803e3d6000fd5b505050506040513d601f19601f820116820180604052508101906121de9190612c64565b6121e89190612dec565b9150506121ff565b600096505050505050506113d4565b6000811161221657600096505050505050506113d4565b677fffffffffffffff811061223457603296505050505050506113d4565b600061224f61224a612245846124bb565b6124d9565b6125db565b67ffffffffffffffff1697506113d49650505050505050565b816001141561228857600061227d86866125f7565b93506113d492505050565b816002141561229c576001925050506113d4565b6000925050506113d4565b806002141561229c576001925050506113d4565b600080826001600160a01b031663c67143666040518163ffffffff1660e01b815260040160206040518083038186803b1580156122f757600080fd5b505afa15801561230b573d6000803e3d6000fd5b505050506040513d601f19601f8201168201806040525081019061232f9190612c64565b90506000805b828160ff161015611590576040517f9029444a00000000000000000000000000000000000000000000000000000000815260ff821660048201526001600160a01b0386169063a230c524908290639029444a9060240160206040518083038186803b1580156123a357600080fd5b505afa1580156123b7573d6000803e3d6000fd5b505050506040513d601f19601f820116820180604052508101906123db91906128c2565b6040517fffffffff0000000000000000000000000000000000000000000000000000000060e084901b1681526001600160a01b03909116600482015260240160206040518083038186803b15801561243257600080fd5b505afa158015612446573d6000803e3d6000fd5b505050506040513d601f19601f8201168201806040525081019061246a91906129fe565b1561247d5761247a600183612dae565b91505b8061248781612eab565b915050612335565b611896828233612794565b80516a636f6e736f6c652e6c6f67602083016000808483855afa5050505050565b6000677fffffffffffffff8211156124d257600080fd5b5060401b90565b60008082600f0b136124ea57600080fd5b6000600f83900b680100000000000000008112612509576040918201911d5b640100000000811261251d576020918201911d5b62010000811261252f576010918201911d5b6101008112612540576008918201911d5b60108112612550576004918201911d5b60048112612560576002918201911d5b6002811261256f576001820191505b7fffffffffffffffffffffffffffffffffffffffffffffffffffffffffffffffc0820160401b600f85900b607f8490031b6780000000000000005b60008113156125d05790800260ff81901c8281029390930192607f011c9060011d6125aa565b509095945050505050565b60008082600f0b12156125ed57600080fd5b50600f0b60401d90565b6040517f593e96b60000000000000000000000000000000000000000000000000000000081527f161fca6912f107b0f13c9c7275de7391b32d2ea1c52ffba65a3c961880a0c60f600482015260009081906001600160a01b0385169063593e96b69060240160206040518083038186803b15801561267457600080fd5b505afa158015612688573d6000803e3d6000fd5b505050506040513d601f19601f820116820180604052508101906126ac91906128c2565b6040516370a0823160e01b81526001600160a01b038581166004830152919250600091670de0b6b3a764000091908416906370a082319060240160206040518083038186803b1580156126fe57600080fd5b505afa158015612712573d6000803e3d6000fd5b505050506040513d601f19601f820116820180604052508101906127369190612c64565b6127409190612dec565b905060008111612755576000925050506113d4565b677fffffffffffffff811061276f576032925050506113d4565b600061278061224a612245846124bb565b67ffffffffffffffff169695505050505050565b81602001511561284a5781606001516001600160a01b0316635e5eb01384835a86516127c09190612e94565b60408088015190517fffffffff0000000000000000000000000000000000000000000000000000000060e087901b1681526001600160a01b03948516600482015293909216602484015260448301526064820152608401600060405180830381600087803b15801561283157600080fd5b505af1158015612845573d6000803e3d6000fd5b505050505b826001600160a01b031663d4f7af436040518163ffffffff1660e01b8152600401600060405180830381600087803b15801561288557600080fd5b505af1158015612899573d6000803e3d6000fd5b50505050505050565b80356128ad81612f23565b919050565b805180151581146128ad57600080fd5b6000602082840312156128d3578081fd5b81516102d281612f23565b600080604083850312156128f0578081fd5b82356128fb81612f23565b946020939093013593505050565b60008060006060848603121561291d578081fd5b833561292881612f23565b925060208401359150604084013561293f81612f23565b809150509250925092565b6000602080838503121561295c578182fd5b825167ffffffffffffffff80821115612973578384fd5b818501915085601f830112612986578384fd5b81518181111561299857612998612f0d565b8060051b91506129a9848301612d52565b8181528481019084860184860187018a10156129c3578788fd5b8795505b838610156129f157805194506129dc85612f23565b848352600195909501949186019186016129c7565b5098975050505050505050565b600060208284031215612a0f578081fd5b6113d1826128b2565b60008060408385031215612a2a578182fd5b612a33836128b2565b9150602083015190509250929050565b600060208284031215612a54578081fd5b81356102d281612f23565b60008060408385031215612a71578182fd5b8235612a7c81612f23565b91506020830135612a8c81612f23565b809150509250929050565b60008060008060808587031215612aac578081fd5b8435612ab781612f23565b9350602085810135612ac881612f23565b9350604086013567ffffffffffffffff80821115612ae4578384fd5b818801915088601f830112612af7578384fd5b813581811115612b0957612b09612f0d565b612b1b84601f19601f84011601612d52565b91508082528984828501011115612b30578485fd5b80848401858401378101909201839052509150612b4f606086016128a2565b905092959194509250565b600080604083850312156128f0578182fd5b60008060006060848603121561291d578283fd5b600080600060608486031215612b94578081fd5b8335612b9f81612f23565b95602085013595506040909401359392505050565b600080600080600060808688031215612bcb578283fd5b8535612bd681612f23565b94506020860135935060408601359250606086013567ffffffffffffffff80821115612c00578283fd5b818801915088601f830112612c13578283fd5b813581811115612c21578384fd5b896020828501011115612c32578384fd5b9699959850939650602001949392505050565b600060208284031215612c56578081fd5b8151600281106102d2578182fd5b600060208284031215612c75578081fd5b5051919050565b60008151808452815b81811015612ca157602081850181015186830182015201612c85565b81811115612cb25782602083870101525b50601f01601f19169290920160200192915050565b8281526040810160038310612cde57612cde612ef7565b8260208301529392505050565b6060810160068510612cff57612cff612ef7565b9381526001600160801b039283166020820152911660409091015290565b6020815260006113d16020830184612c7c565b604081526000612d436040830185612c7c565b90508260208301529392505050565b604051601f8201601f1916810167ffffffffffffffff81118282101715612d7b57612d7b612f0d565b604052919050565b60006001600160801b03808316818516808303821115612da557612da5612ecb565b01949350505050565b60008219821115612dc157612dc1612ecb565b500190565b60006001600160801b0380841680612de057612de0612ee1565b92169190910492915050565b600082612dfb57612dfb612ee1565b500490565b60006001600160801b0380831681851681830481118215151615612e2657612e26612ecb565b02949350505050565b6000817fffffffffffffffffffffffffffffffffffffffffffffffffffffffffffffffff0483118215151615612e6757612e67612ecb565b500290565b60006001600160801b0383811690831681811015612e8c57612e8c612ecb565b039392505050565b600082821015612ea657612ea6612ecb565b500390565b600060ff821660ff811415612ec257612ec2612ecb565b60010192915050565b634e487b7160e01b600052601160045260246000fd5b634e487b7160e01b600052601260045260246000fd5b634e487b7160e01b600052602160045260246000fd5b634e487b7160e01b600052604160045260246000fd5b6001600160a01b0381168114612f3857600080fd5b5056fea264697066735822122067a05de185e0e4b3cd4eb1e358459d11707f70170088002b7e571e97ba4ba23164736f6c63430008040033",
  "linkReferences": {},
  "deployedLinkReferences": {}
}